{"abi":[{"type":"receive","stateMutability":"payable"},{"type":"function","name":"acceptGov","inputs":[],"outputs":[],"stateMutability":"nonpayable"},{"type":"function","name":"batchCompoundForAccounts","inputs":[{"name":"_accounts","type":"address[]","internalType":"address[]"}],"outputs":[],"stateMutability":"nonpayable"},{"type":"function","name":"batchStakeZusForAccount","inputs":[{"name":"_accounts","type":"address[]","internalType":"address[]"},{"name":"_amounts","type":"uint256[]","internalType":"uint256[]"}],"outputs":[],"stateMutability":"nonpayable"},{"type":"function","name":"bnZus","inputs":[],"outputs":[{"name":"","type":"address","internalType":"address"}],"stateMutability":"view"},{"type":"function","name":"bonusZusTracker","inputs":[],"outputs":[{"name":"","type":"address","internalType":"address"}],"stateMutability":"view"},{"type":"function","name":"cancelGovProposal","inputs":[{"name":"_gov","type":"address","internalType":"address"}],"outputs":[],"stateMutability":"nonpayable"},{"type":"function","name":"claim","inputs":[],"outputs":[],"stateMutability":"nonpayable"},{"type":"function","name":"claimEsZus","inputs":[],"outputs":[],"stateMutability":"nonpayable"},{"type":"function","name":"claimFees","inputs":[],"outputs":[],"stateMutability":"nonpayable"},{"type":"function","name":"compound","inputs":[],"outputs":[],"stateMutability":"nonpayable"},{"type":"function","name":"compoundForAccount","inputs":[{"name":"_account","type":"address","internalType":"address"}],"outputs":[],"stateMutability":"nonpayable"},{"type":"function","name":"esZus","inputs":[],"outputs":[{"name":"","type":"address","internalType":"address"}],"stateMutability":"view"},{"type":"function","name":"feeZlpTracker","inputs":[],"outputs":[{"name":"","type":"address","internalType":"address"}],"stateMutability":"view"},{"type":"function","name":"feeZusTracker","inputs":[],"outputs":[{"name":"","type":"address","internalType":"address"}],"stateMutability":"view"},{"type":"function","name":"gov","inputs":[],"outputs":[{"name":"","type":"address","internalType":"address"}],"stateMutability":"view"},{"type":"function","name":"govProposals","inputs":[{"name":"","type":"address","internalType":"address"}],"outputs":[{"name":"deadline","type":"uint256","internalType":"uint256"},{"name":"isActive","type":"bool","internalType":"bool"}],"stateMutability":"view"},{"type":"function","name":"initialize","inputs":[{"name":"_weth","type":"address","internalType":"address"},{"name":"_zus","type":"address","internalType":"address"},{"name":"_esZus","type":"address","internalType":"address"},{"name":"_bnZus","type":"address","internalType":"address"},{"name":"_zlp","type":"address","internalType":"address"},{"name":"_stakedZusTracker","type":"address","internalType":"address"},{"name":"_bonusZusTracker","type":"address","internalType":"address"},{"name":"_feeZusTracker","type":"address","internalType":"address"},{"name":"_feeZlpTracker","type":"address","internalType":"address"},{"name":"_stakedZlpTracker","type":"address","internalType":"address"},{"name":"_zlpManager","type":"address","internalType":"address"}],"outputs":[],"stateMutability":"nonpayable"},{"type":"function","name":"isInitialized","inputs":[],"outputs":[{"name":"","type":"bool","internalType":"bool"}],"stateMutability":"view"},{"type":"function","name":"mintAndStakeZlp","inputs":[{"name":"_token","type":"address","internalType":"address"},{"name":"_amount","type":"uint256","internalType":"uint256"},{"name":"_minUsdg","type":"uint256","internalType":"uint256"},{"name":"_minZlp","type":"uint256","internalType":"uint256"}],"outputs":[{"name":"","type":"uint256","internalType":"uint256"}],"stateMutability":"nonpayable"},{"type":"function","name":"mintAndStakeZlpETH","inputs":[{"name":"_minUsdg","type":"uint256","internalType":"uint256"},{"name":"_minZlp","type":"uint256","internalType":"uint256"}],"outputs":[{"name":"","type":"uint256","internalType":"uint256"}],"stateMutability":"payable"},{"type":"function","name":"setGov","inputs":[{"name":"_gov","type":"address","internalType":"address"}],"outputs":[],"stateMutability":"nonpayable"},{"type":"function","name":"setGovWithDeadline","inputs":[{"name":"_gov","type":"address","internalType":"address"},{"name":"_deadline","type":"uint256","internalType":"uint256"}],"outputs":[],"stateMutability":"nonpayable"},{"type":"function","name":"stakeEsZus","inputs":[{"name":"_amount","type":"uint256","internalType":"uint256"}],"outputs":[],"stateMutability":"nonpayable"},{"type":"function","name":"stakeZus","inputs":[{"name":"_amount","type":"uint256","internalType":"uint256"}],"outputs":[],"stateMutability":"nonpayable"},{"type":"function","name":"stakeZusForAccount","inputs":[{"name":"_account","type":"address","internalType":"address"},{"name":"_amount","type":"uint256","internalType":"uint256"}],"outputs":[],"stateMutability":"nonpayable"},{"type":"function","name":"stakedZlpTracker","inputs":[],"outputs":[{"name":"","type":"address","internalType":"address"}],"stateMutability":"view"},{"type":"function","name":"stakedZusTracker","inputs":[],"outputs":[{"name":"","type":"address","internalType":"address"}],"stateMutability":"view"},{"type":"function","name":"unstakeAndRedeemZlp","inputs":[{"name":"_tokenOut","type":"address","internalType":"address"},{"name":"_zlpAmount","type":"uint256","internalType":"uint256"},{"name":"_minOut","type":"uint256","internalType":"uint256"},{"name":"_receiver","type":"address","internalType":"address"}],"outputs":[{"name":"","type":"uint256","internalType":"uint256"}],"stateMutability":"nonpayable"},{"type":"function","name":"unstakeAndRedeemZlpETH","inputs":[{"name":"_zlpAmount","type":"uint256","internalType":"uint256"},{"name":"_minOut","type":"uint256","internalType":"uint256"},{"name":"_receiver","type":"address","internalType":"address payable"}],"outputs":[{"name":"","type":"uint256","internalType":"uint256"}],"stateMutability":"nonpayable"},{"type":"function","name":"unstakeEsZus","inputs":[{"name":"_amount","type":"uint256","internalType":"uint256"}],"outputs":[],"stateMutability":"nonpayable"},{"type":"function","name":"unstakeZus","inputs":[{"name":"_amount","type":"uint256","internalType":"uint256"}],"outputs":[],"stateMutability":"nonpayable"},{"type":"function","name":"weth","inputs":[],"outputs":[{"name":"","type":"address","internalType":"address"}],"stateMutability":"view"},{"type":"function","name":"withdrawTokensOrETH","inputs":[{"name":"_tokenOrZero","type":"address","internalType":"address"},{"name":"_account","type":"address","internalType":"address"},{"name":"_amount","type":"uint256","internalType":"uint256"}],"outputs":[],"stateMutability":"nonpayable"},{"type":"function","name":"zlp","inputs":[],"outputs":[{"name":"","type":"address","internalType":"address"}],"stateMutability":"view"},{"type":"function","name":"zlpManager","inputs":[],"outputs":[{"name":"","type":"address","internalType":"address"}],"stateMutability":"view"},{"type":"function","name":"zus","inputs":[],"outputs":[{"name":"","type":"address","internalType":"address"}],"stateMutability":"view"},{"type":"event","name":"GovProposalCanceled","inputs":[{"name":"proposedGov","type":"address","indexed":true,"internalType":"address"},{"name":"canceledBy","type":"address","indexed":true,"internalType":"address"}],"anonymous":false},{"type":"event","name":"GovernanceTransferRequested","inputs":[{"name":"newGov","type":"address","indexed":true,"internalType":"address"},{"name":"deadline","type":"uint256","indexed":false,"internalType":"uint256"}],"anonymous":false},{"type":"event","name":"GovernanceTransferred","inputs":[{"name":"oldGov","type":"address","indexed":true,"internalType":"address"},{"name":"newGov","type":"address","indexed":true,"internalType":"address"}],"anonymous":false},{"type":"event","name":"StakeZlp","inputs":[{"name":"account","type":"address","indexed":false,"internalType":"address"},{"name":"amount","type":"uint256","indexed":false,"internalType":"uint256"}],"anonymous":false},{"type":"event","name":"StakeZus","inputs":[{"name":"account","type":"address","indexed":false,"internalType":"address"},{"name":"amount","type":"uint256","indexed":false,"internalType":"uint256"}],"anonymous":false},{"type":"event","name":"UnstakeZlp","inputs":[{"name":"account","type":"address","indexed":false,"internalType":"address"},{"name":"amount","type":"uint256","indexed":false,"internalType":"uint256"}],"anonymous":false},{"type":"event","name":"UnstakeZus","inputs":[{"name":"account","type":"address","indexed":false,"internalType":"address"},{"name":"amount","type":"uint256","indexed":false,"internalType":"uint256"}],"anonymous":false}],"bytecode":{"object":"0x608060405234801561001057600080fd5b50600180546001600160a01b0319163317905561379a806100326000396000f3fe6080604052600436106101b35760003560e01c806381e021fc116100e857806381e021fc14610582578063822ac2211461059757806382de0072146105c157806384347a33146105fa5780638d0fedb01461060f5780639c35b4971461065b578063b65565991461068e578063b7699816146106a3578063c8cfba39146106f4578063cca30c3114610739578063cfad57a214610780578063d106f13a146107b3578063d294f093146108e3578063d6bf66c2146108f8578063ec4ee1c01461091b578063f29db14f14610930578063f69e204614610945578063fe9fe7201461095a57610217565b806302486e081461021c57806303a243991461024d578063126f01d41461027757806312d43a511461028c57806317988a6a146102a15780631af276a6146102b65780631bf122c5146103645780631c2433e01461038e5780631f08618d146103b85780632a9f4083146103cd578063392e53cd146104005780633fc8cef3146104295780634e71d92d1461043e57806356edcea2146104535780636bb22fd7146104965780636dbe359a146104cf57806376902b83146104e45780637bc6729b1461056d57610217565b366102175760035461010090046001600160a01b03163314610215576040805162461bcd60e51b81526020600482015260166024820152752937baba32b91d1034b73b30b634b21039b2b73232b960511b604482015290519081900360640190fd5b005b600080fd5b34801561022857600080fd5b5061023161096f565b604080516001600160a01b039092168252519081900360200190f35b34801561025957600080fd5b506102156004803603602081101561027057600080fd5b503561097e565b34801561028357600080fd5b506102316109eb565b34801561029857600080fd5b506102316109fa565b3480156102ad57600080fd5b50610231610a09565b3480156102c257600080fd5b50610215600480360360208110156102d957600080fd5b810190602081018135600160201b8111156102f357600080fd5b82018360208201111561030557600080fd5b803590602001918460208302840111600160201b8311171561032657600080fd5b919080806020026020016040519081016040528093929190818152602001838360200280828437600092019190915250929550610a18945050505050565b34801561037057600080fd5b506102156004803603602081101561038757600080fd5b5035610ae9565b34801561039a57600080fd5b50610215600480360360208110156103b157600080fd5b5035610b4e565b3480156103c457600080fd5b50610231610bb1565b3480156103d957600080fd5b50610215600480360360208110156103f057600080fd5b50356001600160a01b0316610bc0565b34801561040c57600080fd5b50610415610c61565b604080519115158252519081900360200190f35b34801561043557600080fd5b50610231610c6a565b34801561044a57600080fd5b50610215610c7e565b34801561045f57600080fd5b506102156004803603606081101561047657600080fd5b506001600160a01b03813581169160208101359091169060400135610edd565b3480156104a257600080fd5b50610215600480360360408110156104b957600080fd5b506001600160a01b0381351690602001356110d6565b3480156104db57600080fd5b506102316111eb565b3480156104f057600080fd5b50610215600480360361016081101561050857600080fd5b506001600160a01b038135811691602081013582169160408201358116916060810135821691608082013581169160a081013582169160c082013581169160e081013582169161010082013581169161012081013582169161014090910135166111fa565b34801561057957600080fd5b50610215611359565b34801561058e57600080fd5b5061021561146e565b3480156105a357600080fd5b50610215600480360360208110156105ba57600080fd5b5035611513565b3480156105cd57600080fd5b50610215600480360360408110156105e457600080fd5b506001600160a01b038135169060200135611576565b34801561060657600080fd5b50610231611628565b34801561061b57600080fd5b506106426004803603602081101561063257600080fd5b50356001600160a01b0316611637565b6040805192835290151560208301528051918290030190f35b34801561066757600080fd5b506102156004803603602081101561067e57600080fd5b50356001600160a01b0316611653565b34801561069a57600080fd5b50610231611761565b3480156106af57600080fd5b506106e2600480360360608110156106c657600080fd5b50803590602081013590604001356001600160a01b0316611770565b60408051918252519081900360200190f35b34801561070057600080fd5b506106e26004803603608081101561071757600080fd5b506001600160a01b038135169060208101359060408101359060600135611a86565b34801561074557600080fd5b506106e26004803603608081101561075c57600080fd5b506001600160a01b0381358116916020810135916040820135916060013516611d06565b34801561078c57600080fd5b50610215600480360360208110156107a357600080fd5b50356001600160a01b0316611f9a565b3480156107bf57600080fd5b50610215600480360360408110156107d657600080fd5b810190602081018135600160201b8111156107f057600080fd5b82018360208201111561080257600080fd5b803590602001918460208302840111600160201b8311171561082357600080fd5b9190808060200260200160405190810160405280939291908181526020018383602002808284376000920191909152509295949360208101935035915050600160201b81111561087257600080fd5b82018360208201111561088457600080fd5b803590602001918460208302840111600160201b831117156108a557600080fd5b9190808060200260200160405190810160405280939291908181526020018383602002808284376000920191909152509295506120b0945050505050565b3480156108ef57600080fd5b506102156121a5565b6106e26004803603604081101561090e57600080fd5b50803590602001356122cc565b34801561092757600080fd5b50610231612654565b34801561093c57600080fd5b50610231612663565b34801561095157600080fd5b50610215612672565b34801561096657600080fd5b506102316126cd565b6004546001600160a01b031681565b600260005414156109c4576040805162461bcd60e51b815260206004820152601f6024820152600080516020613617833981519152604482015290519081900360640190fd5b60026000556004546109e390339081906001600160a01b0316846126dc565b506001600055565b600a546001600160a01b031681565b6001546001600160a01b031681565b600b546001600160a01b031681565b60026000541415610a5e576040805162461bcd60e51b815260206004820152601f6024820152600080516020613617833981519152604482015290519081900360640190fd5b60026000556001546001600160a01b03163314610ab0576040805162461bcd60e51b81526020600482015260156024820152600080516020613637833981519152604482015290519081900360640190fd5b60005b8151811015610ae057610ad8828281518110610acb57fe5b60200260200101516128e4565b600101610ab3565b50506001600055565b60026000541415610b2f576040805162461bcd60e51b815260206004820152601f6024820152600080516020613617833981519152604482015290519081900360640190fd5b60026000556005546109e390339081906001600160a01b0316846126dc565b60026000541415610b94576040805162461bcd60e51b815260206004820152601f6024820152600080516020613617833981519152604482015290519081900360640190fd5b60026000556005546109e39033906001600160a01b0316836128f6565b6009546001600160a01b031681565b60026000541415610c06576040805162461bcd60e51b815260206004820152601f6024820152600080516020613617833981519152604482015290519081900360640190fd5b60026000556001546001600160a01b03163314610c58576040805162461bcd60e51b81526020600482015260156024820152600080516020613637833981519152604482015290519081900360640190fd5b6109e3816128e4565b60035460ff1681565b60035461010090046001600160a01b031681565b60026000541415610cc4576040805162461bcd60e51b815260206004820152601f6024820152600080516020613617833981519152604482015290519081900360640190fd5b60026000908155600a54604080516309f4173d60e11b8152336004820181905260248201819052915191936001600160a01b03909316926313e82e7a926044808401936020939083900390910190829087803b158015610d2357600080fd5b505af1158015610d37573d6000803e3d6000fd5b505050506040513d6020811015610d4d57600080fd5b5050600c54604080516309f4173d60e11b81526001600160a01b03848116600483018190526024830152915191909216916313e82e7a9160448083019260209291908290030181600087803b158015610da557600080fd5b505af1158015610db9573d6000803e3d6000fd5b505050506040513d6020811015610dcf57600080fd5b5050600854604080516309f4173d60e11b81526001600160a01b03848116600483018190526024830152915191909216916313e82e7a9160448083019260209291908290030181600087803b158015610e2757600080fd5b505af1158015610e3b573d6000803e3d6000fd5b505050506040513d6020811015610e5157600080fd5b5050600b54604080516309f4173d60e11b81526001600160a01b03848116600483018190526024830152915191909216916313e82e7a9160448083019260209291908290030181600087803b158015610ea957600080fd5b505af1158015610ebd573d6000803e3d6000fd5b505050506040513d6020811015610ed357600080fd5b5050600160005550565b6001546001600160a01b03163314610f2a576040805162461bcd60e51b81526020600482015260156024820152600080516020613637833981519152604482015290519081900360640190fd5b60026000541415610f70576040805162461bcd60e51b815260206004820152601f6024820152600080516020613617833981519152604482015290519081900360640190fd5b60026000556001600160a01b0383166110c2576001600160a01b038216610fd0576040805162461bcd60e51b815260206004820152600f60248201526e125b9d985b1a59081858d8dbdd5b9d608a1b604482015290519081900360640190fd5b47811115611020576040805162461bcd60e51b8152602060048201526018602482015277496e73756666696369656e74204554482062616c616e636560401b604482015290519081900360640190fd5b6040516000906001600160a01b0384169083908381818185875af1925050503d806000811461106b576040519150601f19603f3d011682016040523d82523d6000602084013e611070565b606091505b50509050806110bc576040805162461bcd60e51b8152602060048201526013602482015272115512081d1c985b9cd9995c8819985a5b1959606a1b604482015290519081900360640190fd5b50610ed3565b610ed36001600160a01b0384168383612e2a565b6001546001600160a01b03163314611123576040805162461bcd60e51b81526020600482015260156024820152600080516020613637833981519152604482015290519081900360640190fd5b6001600160a01b03821661117c576040805162461bcd60e51b815260206004820152601b60248201527a476f7665726e61626c653a20696e76616c6964206164647265737360281b604482015290519081900360640190fd5b6001546001600160a01b03838116911614156111dd576040805162461bcd60e51b815260206004820152601b60248201527a476f7665726e61626c653a2073616d6520676f7665726e616e636560281b604482015290519081900360640190fd5b6111e78282612e81565b5050565b6005546001600160a01b031681565b6001546001600160a01b03163314611247576040805162461bcd60e51b81526020600482015260156024820152600080516020613637833981519152604482015290519081900360640190fd5b60035460ff16156112895760405162461bcd60e51b81526004018080602001828103825260218152602001806136916021913960400191505060405180910390fd5b60038054600160ff1990911617610100600160a81b0319166101006001600160a01b039d8e1602179055600480546001600160a01b03199081169b8d169b909b179055600580548b16998c1699909917909855600680548a16978b1697909717909655600780548916958a169590951790945560088054881693891693909317909255600980548716918816919091179055600a80548616918716919091179055600c80548516918616919091179055600b80548416918516919091179055600d80549092169216919091179055565b336000908152600260205260409020805442106113bc576040805162461bcd60e51b815260206004820152601c60248201527b11dbdd995c9b98589b194e88191958591b1a5b9948195e1c1a5c995960221b604482015290519081900360640190fd5b60018082015460ff161515146114035760405162461bcd60e51b81526004018080602001828103825260228152602001806136d86022913960400191505060405180910390fd5b60018054336000818152600260205260408082208281558501805460ff1916905584546001600160a01b031916831790945592516001600160a01b0390921692909183917f5f56bee8cffbe9a78652a74a60705edede02af10b0bbb888ca44b79a0d42ce8091a35050565b600260005414156114b4576040805162461bcd60e51b815260206004820152601f6024820152600080516020613617833981519152604482015290519081900360640190fd5b60026000908155600854604080516309f4173d60e11b8152336004820181905260248201819052915191936001600160a01b03909316926313e82e7a926044808401936020939083900390910190829087803b158015610e2757600080fd5b60026000541415611559576040805162461bcd60e51b815260206004820152601f6024820152600080516020613617833981519152604482015290519081900360640190fd5b60026000556004546109e39033906001600160a01b0316836128f6565b600260005414156115bc576040805162461bcd60e51b815260206004820152601f6024820152600080516020613617833981519152604482015290519081900360640190fd5b60026000556001546001600160a01b0316331461160e576040805162461bcd60e51b81526020600482015260156024820152600080516020613637833981519152604482015290519081900360640190fd5b600454610ae090339084906001600160a01b0316846126dc565b600c546001600160a01b031681565b6002602052600090815260409020805460019091015460ff1682565b6001546001600160a01b031633146116a0576040805162461bcd60e51b81526020600482015260156024820152600080516020613637833981519152604482015290519081900360640190fd5b6001600160a01b03811660009081526002602052604090206001015460ff16611710576040805162461bcd60e51b815260206004820152601f60248201527f476f7665726e61626c653a2070726f706f73616c206e6f742061637469766500604482015290519081900360640190fd5b6001600160a01b038116600081815260026020526040808220828155600101805460ff19169055513392917ffc6a2fa53abe2adfe8372a9495032d7e6458d3aed34fa880132b6c808da1e99c91a350565b600d546001600160a01b031681565b6000600260005414156117b8576040805162461bcd60e51b815260206004820152601f6024820152600080516020613617833981519152604482015290519081900360640190fd5b60026000558361180f576040805162461bcd60e51b815260206004820181905260248201527f526577617264526f757465723a20696e76616c6964205f7a6c70416d6f756e74604482015290519081900360640190fd5b600b54600c546040805163098bf59d60e01b815233600482018190526001600160a01b039384166024830152604482018990526064820181905291519193929092169163098bf59d91608480830192600092919082900301818387803b15801561187857600080fd5b505af115801561188c573d6000803e3d6000fd5b5050600c546007546040805163098bf59d60e01b81526001600160a01b03878116600483018190529381166024830152604482018c90526064820193909352905191909216935063098bf59d9250608480830192600092919082900301818387803b1580156118fa57600080fd5b505af115801561190e573d6000803e3d6000fd5b5050600d54600354604080516371d597ad60e01b81526001600160a01b03878116600483015261010090930483166024820152604481018b9052606481018a90523060848201529051600095509190921692506371d597ad9160a48082019260209290919082900301818787803b15801561198857600080fd5b505af115801561199c573d6000803e3d6000fd5b505050506040513d60208110156119b257600080fd5b505160035460408051632e1a7d4d60e01b81526004810184905290519293506101009091046001600160a01b031691632e1a7d4d9160248082019260009290919082900301818387803b158015611a0857600080fd5b505af1158015611a1c573d6000803e3d6000fd5b50611a34925050506001600160a01b03851682612efd565b604080516001600160a01b03841681526020810188905281517f83ac00acd50a988c92018e2f35631dfbc00d5bd016c5515fe3758877b1499cf8929181900390910190a1600160005595945050505050565b600060026000541415611ace576040805162461bcd60e51b815260206004820152601f6024820152600080516020613617833981519152604482015290519081900360640190fd5b600260005583611b13576040805162461bcd60e51b815260206004820152601d6024820152600080516020613745833981519152604482015290519081900360640190fd5b600d54604080516317eb2a1560e01b81523360048201819052602482018190526001600160a01b038981166044840152606483018990526084830188905260a483018790529251909360009316916317eb2a159160c480830192602092919082900301818787803b158015611b8757600080fd5b505af1158015611b9b573d6000803e3d6000fd5b505050506040513d6020811015611bb157600080fd5b5051600c5460075460408051631e42d69b60e21b81526001600160a01b03878116600483018190526024830152928316604482015260648101859052905193945091169163790b5a6c9160848082019260009290919082900301818387803b158015611c1c57600080fd5b505af1158015611c30573d6000803e3d6000fd5b5050600b54600c5460408051631e42d69b60e21b81526001600160a01b03888116600483018190526024830152928316604482015260648101879052905191909216935063790b5a6c9250608480830192600092919082900301818387803b158015611c9b57600080fd5b505af1158015611caf573d6000803e3d6000fd5b5050604080516001600160a01b03861681526020810185905281517fad93b2f628eda4195b3bf8738da70d1ba23b7061ffa4fe71aaca907e0b128cce9450908190039091019150a160016000559695505050505050565b600060026000541415611d4e576040805162461bcd60e51b815260206004820152601f6024820152600080516020613617833981519152604482015290519081900360640190fd5b600260005583611da5576040805162461bcd60e51b815260206004820181905260248201527f526577617264526f757465723a20696e76616c6964205f7a6c70416d6f756e74604482015290519081900360640190fd5b600b54600c546040805163098bf59d60e01b815233600482018190526001600160a01b039384166024830152604482018990526064820181905291519193929092169163098bf59d91608480830192600092919082900301818387803b158015611e0e57600080fd5b505af1158015611e22573d6000803e3d6000fd5b5050600c546007546040805163098bf59d60e01b81526001600160a01b03878116600483018190529381166024830152604482018c90526064820193909352905191909216935063098bf59d9250608480830192600092919082900301818387803b158015611e9057600080fd5b505af1158015611ea4573d6000803e3d6000fd5b5050600d54604080516371d597ad60e01b81526001600160a01b0386811660048301528b81166024830152604482018b9052606482018a905288811660848301529151600095509190921692506371d597ad9160a48082019260209290919082900301818787803b158015611f1857600080fd5b505af1158015611f2c573d6000803e3d6000fd5b505050506040513d6020811015611f4257600080fd5b5051604080516001600160a01b03851681526020810189905281519293507f83ac00acd50a988c92018e2f35631dfbc00d5bd016c5515fe3758877b1499cf8929081900390910190a160016000559695505050505050565b6001546001600160a01b03163314611fe7576040805162461bcd60e51b81526020600482015260156024820152600080516020613637833981519152604482015290519081900360640190fd5b6001600160a01b038116612040576040805162461bcd60e51b815260206004820152601b60248201527a476f7665726e61626c653a20696e76616c6964206164647265737360281b604482015290519081900360640190fd5b6001546001600160a01b03828116911614156120a1576040805162461bcd60e51b815260206004820152601b60248201527a476f7665726e61626c653a2073616d6520676f7665726e616e636560281b604482015290519081900360640190fd5b6120ad81600019612e81565b50565b600260005414156120f6576040805162461bcd60e51b815260206004820152601f6024820152600080516020613617833981519152604482015290519081900360640190fd5b60026000556001546001600160a01b03163314612148576040805162461bcd60e51b81526020600482015260156024820152600080516020613637833981519152604482015290519081900360640190fd5b6004546001600160a01b031660005b835181101561219a576121923385838151811061217057fe5b60200260200101518486858151811061218557fe5b60200260200101516126dc565b600101612157565b505060016000555050565b600260005414156121eb576040805162461bcd60e51b815260206004820152601f6024820152600080516020613617833981519152604482015290519081900360640190fd5b60026000908155600a54604080516309f4173d60e11b8152336004820181905260248201819052915191936001600160a01b03909316926313e82e7a926044808401936020939083900390910190829087803b15801561224a57600080fd5b505af115801561225e573d6000803e3d6000fd5b505050506040513d602081101561227457600080fd5b5050600c54604080516309f4173d60e11b81526001600160a01b03848116600483018190526024830152915191909216916313e82e7a9160448083019260209291908290030181600087803b158015610ea957600080fd5b600060026000541415612314576040805162461bcd60e51b815260206004820152601f6024820152600080516020613617833981519152604482015290519081900360640190fd5b60026000553461236b576040805162461bcd60e51b815260206004820152601f60248201527f526577617264526f757465723a20696e76616c6964206d73672e76616c756500604482015290519081900360640190fd5b600360019054906101000a90046001600160a01b03166001600160a01b031663d0e30db0346040518263ffffffff1660e01b81526004016000604051808303818588803b1580156123bb57600080fd5b505af11580156123cf573d6000803e3d6000fd5b5050600354600d546040805163095ea7b360e01b81526001600160a01b0392831660048201523460248201529051610100909304909116945063095ea7b3935060448082019350602092918290030181600087803b15801561243057600080fd5b505af1158015612444573d6000803e3d6000fd5b505050506040513d602081101561245a57600080fd5b5050600d54600354604080516317eb2a1560e01b815230600482015233602482018190526001600160a01b03610100909404841660448301523460648301526084820188905260a482018790529151919360009316916317eb2a159160c48082019260209290919082900301818787803b1580156124d757600080fd5b505af11580156124eb573d6000803e3d6000fd5b505050506040513d602081101561250157600080fd5b5051600c5460075460408051631e42d69b60e21b81526001600160a01b03878116600483018190526024830152928316604482015260648101859052905193945091169163790b5a6c9160848082019260009290919082900301818387803b15801561256c57600080fd5b505af1158015612580573d6000803e3d6000fd5b5050600b54600c5460408051631e42d69b60e21b81526001600160a01b03888116600483018190526024830152928316604482015260648101879052905191909216935063790b5a6c9250608480830192600092919082900301818387803b1580156125eb57600080fd5b505af11580156125ff573d6000803e3d6000fd5b5050604080516001600160a01b03861681526020810185905281517fad93b2f628eda4195b3bf8738da70d1ba23b7061ffa4fe71aaca907e0b128cce9450908190039091019150a16001600055949350505050565b6008546001600160a01b031681565b6006546001600160a01b031681565b600260005414156126b8576040805162461bcd60e51b815260206004820152601f6024820152600080516020613617833981519152604482015290519081900360640190fd5b60026000556126c6336128e4565b6001600055565b6007546001600160a01b031681565b6000811161271f576040805162461bcd60e51b815260206004820152601d6024820152600080516020613745833981519152604482015290519081900360640190fd5b60085460408051631e42d69b60e21b81526001600160a01b03878116600483015286811660248301528581166044830152606482018590529151919092169163790b5a6c91608480830192600092919082900301818387803b15801561278457600080fd5b505af1158015612798573d6000803e3d6000fd5b505060095460085460408051631e42d69b60e21b81526001600160a01b03898116600483018190526024830152928316604482015260648101879052905191909216935063790b5a6c9250608480830192600092919082900301818387803b15801561280357600080fd5b505af1158015612817573d6000803e3d6000fd5b5050600a5460095460408051631e42d69b60e21b81526001600160a01b03898116600483018190526024830152928316604482015260648101879052905191909216935063790b5a6c9250608480830192600092919082900301818387803b15801561288257600080fd5b505af1158015612896573d6000803e3d6000fd5b5050604080516001600160a01b03871681526020810185905281517fea86deae645094ec633519ad4ce378c84e64b7ed7c2fd83fe55ededc309e7d409450908190039091019150a150505050565b6128ed81612fe2565b6120ad8161319a565b60008111612939576040805162461bcd60e51b815260206004820152601d6024820152600080516020613745833981519152604482015290519081900360640190fd5b600854604080516310c1c10360e01b81526001600160a01b038681166004830152915160009392909216916310c1c10391602480820192602092909190829003018186803b15801561298a57600080fd5b505afa15801561299e573d6000803e3d6000fd5b505050506040513d60208110156129b457600080fd5b5051600a546009546040805163098bf59d60e01b81526001600160a01b03898116600483018190529381166024830152604482018890526064820193909352905193945091169163098bf59d9160848082019260009290919082900301818387803b158015612a2257600080fd5b505af1158015612a36573d6000803e3d6000fd5b50506009546008546040805163098bf59d60e01b81526001600160a01b038a8116600483018190529381166024830152604482018990526064820193909352905191909216935063098bf59d9250608480830192600092919082900301818387803b158015612aa457600080fd5b505af1158015612ab8573d6000803e3d6000fd5b50506008546040805163098bf59d60e01b81526001600160a01b03898116600483018190528982166024840152604483018990526064830152915191909216935063098bf59d9250608480830192600092919082900301818387803b158015612b2057600080fd5b505af1158015612b34573d6000803e3d6000fd5b5050600954604080516309f4173d60e11b81526001600160a01b038981166004830181905260248301529151600095509190921692506313e82e7a9160448082019260209290919082900301818787803b158015612b9157600080fd5b505af1158015612ba5573d6000803e3d6000fd5b505050506040513d6020811015612bbb57600080fd5b505190508015612c4557600a5460065460408051631e42d69b60e21b81526001600160a01b038981166004830181905260248301529283166044820152606481018590529051919092169163790b5a6c91608480830192600092919082900301818387803b158015612c2c57600080fd5b505af1158015612c40573d6000803e3d6000fd5b505050505b600a546006546040805163178fede760e01b81526001600160a01b03898116600483015292831660248201529051600093929092169163178fede791604480820192602092909190829003018186803b158015612ca157600080fd5b505afa158015612cb5573d6000803e3d6000fd5b505050506040513d6020811015612ccb57600080fd5b505190508015612dde576000612ceb84612ce58488613241565b906132a3565b600a546006546040805163098bf59d60e01b81526001600160a01b038c8116600483018190529381166024830152604482018690526064820193909352905193945091169163098bf59d9160848082019260009290919082900301818387803b158015612d5757600080fd5b505af1158015612d6b573d6000803e3d6000fd5b505060065460408051632770a7eb60e21b81526001600160a01b038c81166004830152602482018790529151919092169350639dc29fac9250604480830192600092919082900301818387803b158015612dc457600080fd5b505af1158015612dd8573d6000803e3d6000fd5b50505050505b604080516001600160a01b03881681526020810186905281517fc4f9e9c50d0c4e3f3b71fbb16e575a7e0b4dfa85578d4e2dc72bbe016e5e5baa929181900390910190a1505050505050565b604080516001600160a01b038416602482015260448082018490528251808303909101815260649091019091526020810180516001600160e01b031663a9059cbb60e01b179052612e7c9084906132e2565b505050565b604080518082018252828152600160208083018281526001600160a01b03871660008181526002845286902094518555905193909201805460ff1916931515939093179092558251848152925190927f02dd0697be46e764c3ba81094158781c31b235d03bb27a0daf1bdef0ec1084dd92908290030190a25050565b80471015612f52576040805162461bcd60e51b815260206004820152601d60248201527f416464726573733a20696e73756666696369656e742062616c616e6365000000604482015290519081900360640190fd5b6040516000906001600160a01b0384169083908381818185875af1925050503d8060008114612f9d576040519150601f19603f3d011682016040523d82523d6000602084013e612fa2565b606091505b5050905080612e7c5760405162461bcd60e51b815260040180806020018281038252603a815260200180613657603a913960400191505060405180910390fd5b600854604080516309f4173d60e11b81526001600160a01b03848116600483018190526024830152915160009392909216916313e82e7a9160448082019260209290919082900301818787803b15801561303b57600080fd5b505af115801561304f573d6000803e3d6000fd5b505050506040513d602081101561306557600080fd5b5051905080156130895760055461308990839081906001600160a01b0316846126dc565b600954604080516309f4173d60e11b81526001600160a01b03858116600483018190526024830152915160009392909216916313e82e7a9160448082019260209290919082900301818787803b1580156130e257600080fd5b505af11580156130f6573d6000803e3d6000fd5b505050506040513d602081101561310c57600080fd5b505190508015612e7c57600a5460065460408051631e42d69b60e21b81526001600160a01b038781166004830181905260248301529283166044820152606481018590529051919092169163790b5a6c91608480830192600092919082900301818387803b15801561317d57600080fd5b505af1158015613191573d6000803e3d6000fd5b50505050505050565b600b54604080516309f4173d60e11b81526001600160a01b03848116600483018190526024830152915160009392909216916313e82e7a9160448082019260209290919082900301818787803b1580156131f357600080fd5b505af1158015613207573d6000803e3d6000fd5b505050506040513d602081101561321d57600080fd5b5051905080156111e7576005546111e790839081906001600160a01b0316846126dc565b6000826132505750600061329d565b8282028284828161325d57fe5b041461329a5760405162461bcd60e51b81526004018080602001828103825260218152602001806136fa6021913960400191505060405180910390fd5b90505b92915050565b600061329a83836040518060400160405280601a815260200179536166654d6174683a206469766973696f6e206279207a65726f60301b815250613393565b6060613337826040518060400160405280602081526020017f5361666545524332303a206c6f772d6c6576656c2063616c6c206661696c6564815250856001600160a01b03166134379092919063ffffffff16565b805190915015612e7c5780806020019051602081101561335657600080fd5b5051612e7c5760405162461bcd60e51b815260040180806020018281038252602a81526020018061371b602a913960400191505060405180910390fd5b6000818361341f5760405162461bcd60e51b81526004018080602001828103825283818151815260200191508051906020019080838360005b838110156133e45781810151838201526020016133cc565b50505050905090810190601f1680156134115780820380516001836020036101000a031916815260200191505b509250505060405180910390fd5b50600083858161342b57fe5b049150505b9392505050565b6060613446848460008561344e565b949350505050565b60608247101561348f5760405162461bcd60e51b81526004018080602001828103825260268152602001806136b26026913960400191505060405180910390fd5b613498856135aa565b6134e9576040805162461bcd60e51b815260206004820152601d60248201527f416464726573733a2063616c6c20746f206e6f6e2d636f6e7472616374000000604482015290519081900360640190fd5b60006060866001600160a01b031685876040518082805190602001908083835b602083106135285780518252601f199092019160209182019101613509565b6001836020036101000a03801982511681845116808217855250505050505090500191505060006040518083038185875af1925050503d806000811461358a576040519150601f19603f3d011682016040523d82523d6000602084013e61358f565b606091505b509150915061359f8282866135b0565b979650505050505050565b3b151590565b606083156135bf575081613430565b8251156135cf5782518084602001fd5b60405162461bcd60e51b81526020600482018181528451602484015284518593919283926044019190850190808383600083156133e45781810151838201526020016133cc56fe5265656e7472616e637947756172643a207265656e7472616e742063616c6c00476f7665726e61626c653a20666f7262696464656e0000000000000000000000416464726573733a20756e61626c6520746f2073656e642076616c75652c20726563697069656e74206d61792068617665207265766572746564526577617264526f757465723a20616c726561647920696e697469616c697a6564416464726573733a20696e73756666696369656e742062616c616e636520666f722063616c6c476f7665726e61626c653a2070726f706f73616c206973206e6f7420616374697665536166654d6174683a206d756c7469706c69636174696f6e206f766572666c6f775361666545524332303a204552433230206f7065726174696f6e20646964206e6f742073756363656564526577617264526f757465723a20696e76616c6964205f616d6f756e74000000a264697066735822122065f9e9a0184349ddd33508971c8270469a5d0c1903f568a235a516e0f26d6a1464736f6c634300060c0033","linkReferences":{}},"methodIdentifiers":{"acceptGov()":"7bc6729b","batchCompoundForAccounts(address[])":"1af276a6","batchStakeZusForAccount(address[],uint256[])":"d106f13a","bnZus()":"f29db14f","bonusZusTracker()":"1f08618d","cancelGovProposal(address)":"9c35b497","claim()":"4e71d92d","claimEsZus()":"81e021fc","claimFees()":"d294f093","compound()":"f69e2046","compoundForAccount(address)":"2a9f4083","esZus()":"6dbe359a","feeZlpTracker()":"84347a33","feeZusTracker()":"126f01d4","gov()":"12d43a51","govProposals(address)":"8d0fedb0","initialize(address,address,address,address,address,address,address,address,address,address,address)":"76902b83","isInitialized()":"392e53cd","mintAndStakeZlp(address,uint256,uint256,uint256)":"c8cfba39","mintAndStakeZlpETH(uint256,uint256)":"d6bf66c2","setGov(address)":"cfad57a2","setGovWithDeadline(address,uint256)":"6bb22fd7","stakeEsZus(uint256)":"1bf122c5","stakeZus(uint256)":"03a24399","stakeZusForAccount(address,uint256)":"82de0072","stakedZlpTracker()":"17988a6a","stakedZusTracker()":"ec4ee1c0","unstakeAndRedeemZlp(address,uint256,uint256,address)":"cca30c31","unstakeAndRedeemZlpETH(uint256,uint256,address)":"b7699816","unstakeEsZus(uint256)":"1c2433e0","unstakeZus(uint256)":"822ac221","weth()":"3fc8cef3","withdrawTokensOrETH(address,address,uint256)":"56edcea2","zlp()":"fe9fe720","zlpManager()":"b6556599","zus()":"02486e08"},"id":27}