{"abi":[{"type":"receive","stateMutability":"payable"},{"type":"function","name":"acceptGov","inputs":[],"outputs":[],"stateMutability":"nonpayable"},{"type":"function","name":"batchCompoundForAccounts","inputs":[{"name":"_accounts","type":"address[]","internalType":"address[]"}],"outputs":[],"stateMutability":"nonpayable"},{"type":"function","name":"batchStakeZusForAccount","inputs":[{"name":"_accounts","type":"address[]","internalType":"address[]"},{"name":"_amounts","type":"uint256[]","internalType":"uint256[]"}],"outputs":[],"stateMutability":"nonpayable"},{"type":"function","name":"bnZus","inputs":[],"outputs":[{"name":"","type":"address","internalType":"address"}],"stateMutability":"view"},{"type":"function","name":"bonusZusTracker","inputs":[],"outputs":[{"name":"","type":"address","internalType":"address"}],"stateMutability":"view"},{"type":"function","name":"cancelGovProposal","inputs":[{"name":"_gov","type":"address","internalType":"address"}],"outputs":[],"stateMutability":"nonpayable"},{"type":"function","name":"claim","inputs":[],"outputs":[],"stateMutability":"nonpayable"},{"type":"function","name":"claimEsZus","inputs":[],"outputs":[],"stateMutability":"nonpayable"},{"type":"function","name":"claimFees","inputs":[],"outputs":[],"stateMutability":"nonpayable"},{"type":"function","name":"compound","inputs":[],"outputs":[],"stateMutability":"nonpayable"},{"type":"function","name":"compoundForAccount","inputs":[{"name":"_account","type":"address","internalType":"address"}],"outputs":[],"stateMutability":"nonpayable"},{"type":"function","name":"esZus","inputs":[],"outputs":[{"name":"","type":"address","internalType":"address"}],"stateMutability":"view"},{"type":"function","name":"feeZlpTracker","inputs":[],"outputs":[{"name":"","type":"address","internalType":"address"}],"stateMutability":"view"},{"type":"function","name":"feeZusTracker","inputs":[],"outputs":[{"name":"","type":"address","internalType":"address"}],"stateMutability":"view"},{"type":"function","name":"gov","inputs":[],"outputs":[{"name":"","type":"address","internalType":"address"}],"stateMutability":"view"},{"type":"function","name":"govProposals","inputs":[{"name":"","type":"address","internalType":"address"}],"outputs":[{"name":"deadline","type":"uint256","internalType":"uint256"},{"name":"isActive","type":"bool","internalType":"bool"}],"stateMutability":"view"},{"type":"function","name":"initialize","inputs":[{"name":"_weth","type":"address","internalType":"address"},{"name":"_zus","type":"address","internalType":"address"},{"name":"_esZus","type":"address","internalType":"address"},{"name":"_bnZus","type":"address","internalType":"address"},{"name":"_zlp","type":"address","internalType":"address"},{"name":"_stakedZusTracker","type":"address","internalType":"address"},{"name":"_bonusZusTracker","type":"address","internalType":"address"},{"name":"_feeZusTracker","type":"address","internalType":"address"},{"name":"_feeZlpTracker","type":"address","internalType":"address"},{"name":"_stakedZlpTracker","type":"address","internalType":"address"},{"name":"_zlpManager","type":"address","internalType":"address"}],"outputs":[],"stateMutability":"nonpayable"},{"type":"function","name":"isInitialized","inputs":[],"outputs":[{"name":"","type":"bool","internalType":"bool"}],"stateMutability":"view"},{"type":"function","name":"mintAndStakeZlp","inputs":[{"name":"_token","type":"address","internalType":"address"},{"name":"_amount","type":"uint256","internalType":"uint256"},{"name":"_minUsdg","type":"uint256","internalType":"uint256"},{"name":"_minZlp","type":"uint256","internalType":"uint256"}],"outputs":[{"name":"","type":"uint256","internalType":"uint256"}],"stateMutability":"nonpayable"},{"type":"function","name":"mintAndStakeZlpETH","inputs":[{"name":"_minUsdg","type":"uint256","internalType":"uint256"},{"name":"_minZlp","type":"uint256","internalType":"uint256"}],"outputs":[{"name":"","type":"uint256","internalType":"uint256"}],"stateMutability":"payable"},{"type":"function","name":"setGov","inputs":[{"name":"_gov","type":"address","internalType":"address"}],"outputs":[],"stateMutability":"nonpayable"},{"type":"function","name":"setGovWithDeadline","inputs":[{"name":"_gov","type":"address","internalType":"address"},{"name":"_deadline","type":"uint256","internalType":"uint256"}],"outputs":[],"stateMutability":"nonpayable"},{"type":"function","name":"stakeEsZus","inputs":[{"name":"_amount","type":"uint256","internalType":"uint256"}],"outputs":[],"stateMutability":"nonpayable"},{"type":"function","name":"stakeZus","inputs":[{"name":"_amount","type":"uint256","internalType":"uint256"}],"outputs":[],"stateMutability":"nonpayable"},{"type":"function","name":"stakeZusForAccount","inputs":[{"name":"_account","type":"address","internalType":"address"},{"name":"_amount","type":"uint256","internalType":"uint256"}],"outputs":[],"stateMutability":"nonpayable"},{"type":"function","name":"stakedZlpTracker","inputs":[],"outputs":[{"name":"","type":"address","internalType":"address"}],"stateMutability":"view"},{"type":"function","name":"stakedZusTracker","inputs":[],"outputs":[{"name":"","type":"address","internalType":"address"}],"stateMutability":"view"},{"type":"function","name":"unstakeAndRedeemZlp","inputs":[{"name":"_tokenOut","type":"address","internalType":"address"},{"name":"_zlpAmount","type":"uint256","internalType":"uint256"},{"name":"_minOut","type":"uint256","internalType":"uint256"},{"name":"_receiver","type":"address","internalType":"address"}],"outputs":[{"name":"","type":"uint256","internalType":"uint256"}],"stateMutability":"nonpayable"},{"type":"function","name":"unstakeAndRedeemZlpETH","inputs":[{"name":"_zlpAmount","type":"uint256","internalType":"uint256"},{"name":"_minOut","type":"uint256","internalType":"uint256"},{"name":"_receiver","type":"address","internalType":"address payable"}],"outputs":[{"name":"","type":"uint256","internalType":"uint256"}],"stateMutability":"nonpayable"},{"type":"function","name":"unstakeEsZus","inputs":[{"name":"_amount","type":"uint256","internalType":"uint256"}],"outputs":[],"stateMutability":"nonpayable"},{"type":"function","name":"unstakeZus","inputs":[{"name":"_amount","type":"uint256","internalType":"uint256"}],"outputs":[],"stateMutability":"nonpayable"},{"type":"function","name":"weth","inputs":[],"outputs":[{"name":"","type":"address","internalType":"address"}],"stateMutability":"view"},{"type":"function","name":"withdrawToken","inputs":[{"name":"_token","type":"address","internalType":"address"},{"name":"_account","type":"address","internalType":"address"},{"name":"_amount","type":"uint256","internalType":"uint256"}],"outputs":[],"stateMutability":"nonpayable"},{"type":"function","name":"zlp","inputs":[],"outputs":[{"name":"","type":"address","internalType":"address"}],"stateMutability":"view"},{"type":"function","name":"zlpManager","inputs":[],"outputs":[{"name":"","type":"address","internalType":"address"}],"stateMutability":"view"},{"type":"function","name":"zus","inputs":[],"outputs":[{"name":"","type":"address","internalType":"address"}],"stateMutability":"view"},{"type":"event","name":"GovernanceTransferRequested","inputs":[{"name":"newGov","type":"address","indexed":true,"internalType":"address"},{"name":"deadline","type":"uint256","indexed":false,"internalType":"uint256"}],"anonymous":false},{"type":"event","name":"GovernanceTransferred","inputs":[{"name":"oldGov","type":"address","indexed":true,"internalType":"address"},{"name":"newGov","type":"address","indexed":true,"internalType":"address"}],"anonymous":false},{"type":"event","name":"StakeZlp","inputs":[{"name":"account","type":"address","indexed":false,"internalType":"address"},{"name":"amount","type":"uint256","indexed":false,"internalType":"uint256"}],"anonymous":false},{"type":"event","name":"StakeZus","inputs":[{"name":"account","type":"address","indexed":false,"internalType":"address"},{"name":"amount","type":"uint256","indexed":false,"internalType":"uint256"}],"anonymous":false},{"type":"event","name":"UnstakeZlp","inputs":[{"name":"account","type":"address","indexed":false,"internalType":"address"},{"name":"amount","type":"uint256","indexed":false,"internalType":"uint256"}],"anonymous":false},{"type":"event","name":"UnstakeZus","inputs":[{"name":"account","type":"address","indexed":false,"internalType":"address"},{"name":"amount","type":"uint256","indexed":false,"internalType":"uint256"}],"anonymous":false}],"bytecode":{"object":"0x608060405234801561001057600080fd5b50600180546001600160a01b031916331790556135d8806100326000396000f3fe6080604052600436106101b35760003560e01c806381e021fc116100e857806381e021fc14610582578063822ac2211461059757806382de0072146105c157806384347a33146105fa5780638d0fedb01461060f5780639c35b4971461065b578063b65565991461068e578063b7699816146106a3578063c8cfba39146106f4578063cca30c3114610739578063cfad57a214610780578063d106f13a146107b3578063d294f093146108e3578063d6bf66c2146108f8578063ec4ee1c01461091b578063f29db14f14610930578063f69e204614610945578063fe9fe7201461095a57610217565b806301e336671461021c57806302486e081461025f57806303a2439914610290578063126f01d4146102ba57806312d43a51146102cf57806317988a6a146102e45780631af276a6146102f95780631bf122c5146103a75780631c2433e0146103d15780631f08618d146103fb5780632a9f408314610410578063392e53cd146104435780633fc8cef31461046c5780634e71d92d146104815780636bb22fd7146104965780636dbe359a146104cf57806376902b83146104e45780637bc6729b1461056d57610217565b366102175760035461010090046001600160a01b03163314610215576040805162461bcd60e51b81526020600482015260166024820152752937baba32b91d1034b73b30b634b21039b2b73232b960511b604482015290519081900360640190fd5b005b600080fd5b34801561022857600080fd5b506102156004803603606081101561023f57600080fd5b506001600160a01b0381358116916020810135909116906040013561096f565b34801561026b57600080fd5b506102746109d5565b604080516001600160a01b039092168252519081900360200190f35b34801561029c57600080fd5b50610215600480360360208110156102b357600080fd5b50356109e4565b3480156102c657600080fd5b50610274610a51565b3480156102db57600080fd5b50610274610a60565b3480156102f057600080fd5b50610274610a6f565b34801561030557600080fd5b506102156004803603602081101561031c57600080fd5b810190602081018135600160201b81111561033657600080fd5b82018360208201111561034857600080fd5b803590602001918460208302840111600160201b8311171561036957600080fd5b919080806020026020016040519081016040528093929190818152602001838360200280828437600092019190915250929550610a7e945050505050565b3480156103b357600080fd5b50610215600480360360208110156103ca57600080fd5b5035610b4f565b3480156103dd57600080fd5b50610215600480360360208110156103f457600080fd5b5035610bb4565b34801561040757600080fd5b50610274610c17565b34801561041c57600080fd5b506102156004803603602081101561043357600080fd5b50356001600160a01b0316610c26565b34801561044f57600080fd5b50610458610cc7565b604080519115158252519081900360200190f35b34801561047857600080fd5b50610274610cd0565b34801561048d57600080fd5b50610215610ce4565b3480156104a257600080fd5b50610215600480360360408110156104b957600080fd5b506001600160a01b038135169060200135610f43565b3480156104db57600080fd5b50610274611058565b3480156104f057600080fd5b50610215600480360361016081101561050857600080fd5b506001600160a01b038135811691602081013582169160408201358116916060810135821691608082013581169160a081013582169160c082013581169160e08101358216916101008201358116916101208101358216916101409091013516611067565b34801561057957600080fd5b506102156111c6565b34801561058e57600080fd5b506102156112db565b3480156105a357600080fd5b50610215600480360360208110156105ba57600080fd5b5035611380565b3480156105cd57600080fd5b50610215600480360360408110156105e457600080fd5b506001600160a01b0381351690602001356113e3565b34801561060657600080fd5b50610274611495565b34801561061b57600080fd5b506106426004803603602081101561063257600080fd5b50356001600160a01b03166114a4565b6040805192835290151560208301528051918290030190f35b34801561066757600080fd5b506102156004803603602081101561067e57600080fd5b50356001600160a01b03166114c0565b34801561069a57600080fd5b506102746115a4565b3480156106af57600080fd5b506106e2600480360360608110156106c657600080fd5b50803590602081013590604001356001600160a01b03166115b3565b60408051918252519081900360200190f35b34801561070057600080fd5b506106e26004803603608081101561071757600080fd5b506001600160a01b0381351690602081013590604081013590606001356118c9565b34801561074557600080fd5b506106e26004803603608081101561075c57600080fd5b506001600160a01b0381358116916020810135916040820135916060013516611b49565b34801561078c57600080fd5b50610215600480360360208110156107a357600080fd5b50356001600160a01b0316611ddd565b3480156107bf57600080fd5b50610215600480360360408110156107d657600080fd5b810190602081018135600160201b8111156107f057600080fd5b82018360208201111561080257600080fd5b803590602001918460208302840111600160201b8311171561082357600080fd5b9190808060200260200160405190810160405280939291908181526020018383602002808284376000920191909152509295949360208101935035915050600160201b81111561087257600080fd5b82018360208201111561088457600080fd5b803590602001918460208302840111600160201b831117156108a557600080fd5b919080806020026020016040519081016040528093929190818152602001838360200280828437600092019190915250929550611ef3945050505050565b3480156108ef57600080fd5b50610215611fe8565b6106e26004803603604081101561090e57600080fd5b508035906020013561210f565b34801561092757600080fd5b50610274612497565b34801561093c57600080fd5b506102746124a6565b34801561095157600080fd5b506102156124b5565b34801561096657600080fd5b50610274612510565b6001546001600160a01b031633146109bc576040805162461bcd60e51b81526020600482015260156024820152600080516020613475833981519152604482015290519081900360640190fd5b6109d06001600160a01b038416838361251f565b505050565b6004546001600160a01b031681565b60026000541415610a2a576040805162461bcd60e51b815260206004820152601f6024820152600080516020613455833981519152604482015290519081900360640190fd5b6002600055600454610a4990339081906001600160a01b031684612571565b506001600055565b600a546001600160a01b031681565b6001546001600160a01b031681565b600b546001600160a01b031681565b60026000541415610ac4576040805162461bcd60e51b815260206004820152601f6024820152600080516020613455833981519152604482015290519081900360640190fd5b60026000556001546001600160a01b03163314610b16576040805162461bcd60e51b81526020600482015260156024820152600080516020613475833981519152604482015290519081900360640190fd5b60005b8151811015610b4657610b3e828281518110610b3157fe5b6020026020010151612779565b600101610b19565b50506001600055565b60026000541415610b95576040805162461bcd60e51b815260206004820152601f6024820152600080516020613455833981519152604482015290519081900360640190fd5b6002600055600554610a4990339081906001600160a01b031684612571565b60026000541415610bfa576040805162461bcd60e51b815260206004820152601f6024820152600080516020613455833981519152604482015290519081900360640190fd5b6002600055600554610a499033906001600160a01b03168361278b565b6009546001600160a01b031681565b60026000541415610c6c576040805162461bcd60e51b815260206004820152601f6024820152600080516020613455833981519152604482015290519081900360640190fd5b60026000556001546001600160a01b03163314610cbe576040805162461bcd60e51b81526020600482015260156024820152600080516020613475833981519152604482015290519081900360640190fd5b610a4981612779565b60035460ff1681565b60035461010090046001600160a01b031681565b60026000541415610d2a576040805162461bcd60e51b815260206004820152601f6024820152600080516020613455833981519152604482015290519081900360640190fd5b60026000908155600a54604080516309f4173d60e11b8152336004820181905260248201819052915191936001600160a01b03909316926313e82e7a926044808401936020939083900390910190829087803b158015610d8957600080fd5b505af1158015610d9d573d6000803e3d6000fd5b505050506040513d6020811015610db357600080fd5b5050600c54604080516309f4173d60e11b81526001600160a01b03848116600483018190526024830152915191909216916313e82e7a9160448083019260209291908290030181600087803b158015610e0b57600080fd5b505af1158015610e1f573d6000803e3d6000fd5b505050506040513d6020811015610e3557600080fd5b5050600854604080516309f4173d60e11b81526001600160a01b03848116600483018190526024830152915191909216916313e82e7a9160448083019260209291908290030181600087803b158015610e8d57600080fd5b505af1158015610ea1573d6000803e3d6000fd5b505050506040513d6020811015610eb757600080fd5b5050600b54604080516309f4173d60e11b81526001600160a01b03848116600483018190526024830152915191909216916313e82e7a9160448083019260209291908290030181600087803b158015610f0f57600080fd5b505af1158015610f23573d6000803e3d6000fd5b505050506040513d6020811015610f3957600080fd5b5050600160005550565b6001546001600160a01b03163314610f90576040805162461bcd60e51b81526020600482015260156024820152600080516020613475833981519152604482015290519081900360640190fd5b6001600160a01b038216610fe9576040805162461bcd60e51b815260206004820152601b60248201527a476f7665726e61626c653a20696e76616c6964206164647265737360281b604482015290519081900360640190fd5b6001546001600160a01b038381169116141561104a576040805162461bcd60e51b815260206004820152601b60248201527a476f7665726e61626c653a2073616d6520676f7665726e616e636560281b604482015290519081900360640190fd5b6110548282612cbf565b5050565b6005546001600160a01b031681565b6001546001600160a01b031633146110b4576040805162461bcd60e51b81526020600482015260156024820152600080516020613475833981519152604482015290519081900360640190fd5b60035460ff16156110f65760405162461bcd60e51b81526004018080602001828103825260218152602001806134cf6021913960400191505060405180910390fd5b60038054600160ff1990911617610100600160a81b0319166101006001600160a01b039d8e1602179055600480546001600160a01b03199081169b8d169b909b179055600580548b16998c1699909917909855600680548a16978b1697909717909655600780548916958a169590951790945560088054881693891693909317909255600980548716918816919091179055600a80548616918716919091179055600c80548516918616919091179055600b80548416918516919091179055600d80549092169216919091179055565b33600090815260026020526040902080544210611229576040805162461bcd60e51b815260206004820152601c60248201527b11dbdd995c9b98589b194e88191958591b1a5b9948195e1c1a5c995960221b604482015290519081900360640190fd5b60018082015460ff161515146112705760405162461bcd60e51b81526004018080602001828103825260228152602001806135166022913960400191505060405180910390fd5b60018054336000818152600260205260408082208281558501805460ff1916905584546001600160a01b031916831790945592516001600160a01b0390921692909183917f5f56bee8cffbe9a78652a74a60705edede02af10b0bbb888ca44b79a0d42ce8091a35050565b60026000541415611321576040805162461bcd60e51b815260206004820152601f6024820152600080516020613455833981519152604482015290519081900360640190fd5b60026000908155600854604080516309f4173d60e11b8152336004820181905260248201819052915191936001600160a01b03909316926313e82e7a926044808401936020939083900390910190829087803b158015610e8d57600080fd5b600260005414156113c6576040805162461bcd60e51b815260206004820152601f6024820152600080516020613455833981519152604482015290519081900360640190fd5b6002600055600454610a499033906001600160a01b03168361278b565b60026000541415611429576040805162461bcd60e51b815260206004820152601f6024820152600080516020613455833981519152604482015290519081900360640190fd5b60026000556001546001600160a01b0316331461147b576040805162461bcd60e51b81526020600482015260156024820152600080516020613475833981519152604482015290519081900360640190fd5b600454610b4690339084906001600160a01b031684612571565b600c546001600160a01b031681565b6002602052600090815260409020805460019091015460ff1682565b6001546001600160a01b0316331461150d576040805162461bcd60e51b81526020600482015260156024820152600080516020613475833981519152604482015290519081900360640190fd5b6001600160a01b03811660009081526002602052604090206001015460ff1661157d576040805162461bcd60e51b815260206004820152601f60248201527f476f7665726e61626c653a2070726f706f73616c206e6f742061637469766500604482015290519081900360640190fd5b6001600160a01b03166000908152600260205260408120908155600101805460ff19169055565b600d546001600160a01b031681565b6000600260005414156115fb576040805162461bcd60e51b815260206004820152601f6024820152600080516020613455833981519152604482015290519081900360640190fd5b600260005583611652576040805162461bcd60e51b815260206004820181905260248201527f526577617264526f757465723a20696e76616c6964205f7a6c70416d6f756e74604482015290519081900360640190fd5b600b54600c546040805163098bf59d60e01b815233600482018190526001600160a01b039384166024830152604482018990526064820181905291519193929092169163098bf59d91608480830192600092919082900301818387803b1580156116bb57600080fd5b505af11580156116cf573d6000803e3d6000fd5b5050600c546007546040805163098bf59d60e01b81526001600160a01b03878116600483018190529381166024830152604482018c90526064820193909352905191909216935063098bf59d9250608480830192600092919082900301818387803b15801561173d57600080fd5b505af1158015611751573d6000803e3d6000fd5b5050600d54600354604080516371d597ad60e01b81526001600160a01b03878116600483015261010090930483166024820152604481018b9052606481018a90523060848201529051600095509190921692506371d597ad9160a48082019260209290919082900301818787803b1580156117cb57600080fd5b505af11580156117df573d6000803e3d6000fd5b505050506040513d60208110156117f557600080fd5b505160035460408051632e1a7d4d60e01b81526004810184905290519293506101009091046001600160a01b031691632e1a7d4d9160248082019260009290919082900301818387803b15801561184b57600080fd5b505af115801561185f573d6000803e3d6000fd5b50611877925050506001600160a01b03851682612d3b565b604080516001600160a01b03841681526020810188905281517f83ac00acd50a988c92018e2f35631dfbc00d5bd016c5515fe3758877b1499cf8929181900390910190a1600160005595945050505050565b600060026000541415611911576040805162461bcd60e51b815260206004820152601f6024820152600080516020613455833981519152604482015290519081900360640190fd5b600260005583611956576040805162461bcd60e51b815260206004820152601d6024820152600080516020613583833981519152604482015290519081900360640190fd5b600d54604080516317eb2a1560e01b81523360048201819052602482018190526001600160a01b038981166044840152606483018990526084830188905260a483018790529251909360009316916317eb2a159160c480830192602092919082900301818787803b1580156119ca57600080fd5b505af11580156119de573d6000803e3d6000fd5b505050506040513d60208110156119f457600080fd5b5051600c5460075460408051631e42d69b60e21b81526001600160a01b03878116600483018190526024830152928316604482015260648101859052905193945091169163790b5a6c9160848082019260009290919082900301818387803b158015611a5f57600080fd5b505af1158015611a73573d6000803e3d6000fd5b5050600b54600c5460408051631e42d69b60e21b81526001600160a01b03888116600483018190526024830152928316604482015260648101879052905191909216935063790b5a6c9250608480830192600092919082900301818387803b158015611ade57600080fd5b505af1158015611af2573d6000803e3d6000fd5b5050604080516001600160a01b03861681526020810185905281517fad93b2f628eda4195b3bf8738da70d1ba23b7061ffa4fe71aaca907e0b128cce9450908190039091019150a160016000559695505050505050565b600060026000541415611b91576040805162461bcd60e51b815260206004820152601f6024820152600080516020613455833981519152604482015290519081900360640190fd5b600260005583611be8576040805162461bcd60e51b815260206004820181905260248201527f526577617264526f757465723a20696e76616c6964205f7a6c70416d6f756e74604482015290519081900360640190fd5b600b54600c546040805163098bf59d60e01b815233600482018190526001600160a01b039384166024830152604482018990526064820181905291519193929092169163098bf59d91608480830192600092919082900301818387803b158015611c5157600080fd5b505af1158015611c65573d6000803e3d6000fd5b5050600c546007546040805163098bf59d60e01b81526001600160a01b03878116600483018190529381166024830152604482018c90526064820193909352905191909216935063098bf59d9250608480830192600092919082900301818387803b158015611cd357600080fd5b505af1158015611ce7573d6000803e3d6000fd5b5050600d54604080516371d597ad60e01b81526001600160a01b0386811660048301528b81166024830152604482018b9052606482018a905288811660848301529151600095509190921692506371d597ad9160a48082019260209290919082900301818787803b158015611d5b57600080fd5b505af1158015611d6f573d6000803e3d6000fd5b505050506040513d6020811015611d8557600080fd5b5051604080516001600160a01b03851681526020810189905281519293507f83ac00acd50a988c92018e2f35631dfbc00d5bd016c5515fe3758877b1499cf8929081900390910190a160016000559695505050505050565b6001546001600160a01b03163314611e2a576040805162461bcd60e51b81526020600482015260156024820152600080516020613475833981519152604482015290519081900360640190fd5b6001600160a01b038116611e83576040805162461bcd60e51b815260206004820152601b60248201527a476f7665726e61626c653a20696e76616c6964206164647265737360281b604482015290519081900360640190fd5b6001546001600160a01b0382811691161415611ee4576040805162461bcd60e51b815260206004820152601b60248201527a476f7665726e61626c653a2073616d6520676f7665726e616e636560281b604482015290519081900360640190fd5b611ef081600019612cbf565b50565b60026000541415611f39576040805162461bcd60e51b815260206004820152601f6024820152600080516020613455833981519152604482015290519081900360640190fd5b60026000556001546001600160a01b03163314611f8b576040805162461bcd60e51b81526020600482015260156024820152600080516020613475833981519152604482015290519081900360640190fd5b6004546001600160a01b031660005b8351811015611fdd57611fd533858381518110611fb357fe5b602002602001015184868581518110611fc857fe5b6020026020010151612571565b600101611f9a565b505060016000555050565b6002600054141561202e576040805162461bcd60e51b815260206004820152601f6024820152600080516020613455833981519152604482015290519081900360640190fd5b60026000908155600a54604080516309f4173d60e11b8152336004820181905260248201819052915191936001600160a01b03909316926313e82e7a926044808401936020939083900390910190829087803b15801561208d57600080fd5b505af11580156120a1573d6000803e3d6000fd5b505050506040513d60208110156120b757600080fd5b5050600c54604080516309f4173d60e11b81526001600160a01b03848116600483018190526024830152915191909216916313e82e7a9160448083019260209291908290030181600087803b158015610f0f57600080fd5b600060026000541415612157576040805162461bcd60e51b815260206004820152601f6024820152600080516020613455833981519152604482015290519081900360640190fd5b6002600055346121ae576040805162461bcd60e51b815260206004820152601f60248201527f526577617264526f757465723a20696e76616c6964206d73672e76616c756500604482015290519081900360640190fd5b600360019054906101000a90046001600160a01b03166001600160a01b031663d0e30db0346040518263ffffffff1660e01b81526004016000604051808303818588803b1580156121fe57600080fd5b505af1158015612212573d6000803e3d6000fd5b5050600354600d546040805163095ea7b360e01b81526001600160a01b0392831660048201523460248201529051610100909304909116945063095ea7b3935060448082019350602092918290030181600087803b15801561227357600080fd5b505af1158015612287573d6000803e3d6000fd5b505050506040513d602081101561229d57600080fd5b5050600d54600354604080516317eb2a1560e01b815230600482015233602482018190526001600160a01b03610100909404841660448301523460648301526084820188905260a482018790529151919360009316916317eb2a159160c48082019260209290919082900301818787803b15801561231a57600080fd5b505af115801561232e573d6000803e3d6000fd5b505050506040513d602081101561234457600080fd5b5051600c5460075460408051631e42d69b60e21b81526001600160a01b03878116600483018190526024830152928316604482015260648101859052905193945091169163790b5a6c9160848082019260009290919082900301818387803b1580156123af57600080fd5b505af11580156123c3573d6000803e3d6000fd5b5050600b54600c5460408051631e42d69b60e21b81526001600160a01b03888116600483018190526024830152928316604482015260648101879052905191909216935063790b5a6c9250608480830192600092919082900301818387803b15801561242e57600080fd5b505af1158015612442573d6000803e3d6000fd5b5050604080516001600160a01b03861681526020810185905281517fad93b2f628eda4195b3bf8738da70d1ba23b7061ffa4fe71aaca907e0b128cce9450908190039091019150a16001600055949350505050565b6008546001600160a01b031681565b6006546001600160a01b031681565b600260005414156124fb576040805162461bcd60e51b815260206004820152601f6024820152600080516020613455833981519152604482015290519081900360640190fd5b600260005561250933612779565b6001600055565b6007546001600160a01b031681565b604080516001600160a01b038416602482015260448082018490528251808303909101815260649091019091526020810180516001600160e01b031663a9059cbb60e01b1790526109d0908490612e20565b600081116125b4576040805162461bcd60e51b815260206004820152601d6024820152600080516020613583833981519152604482015290519081900360640190fd5b60085460408051631e42d69b60e21b81526001600160a01b03878116600483015286811660248301528581166044830152606482018590529151919092169163790b5a6c91608480830192600092919082900301818387803b15801561261957600080fd5b505af115801561262d573d6000803e3d6000fd5b505060095460085460408051631e42d69b60e21b81526001600160a01b03898116600483018190526024830152928316604482015260648101879052905191909216935063790b5a6c9250608480830192600092919082900301818387803b15801561269857600080fd5b505af11580156126ac573d6000803e3d6000fd5b5050600a5460095460408051631e42d69b60e21b81526001600160a01b03898116600483018190526024830152928316604482015260648101879052905191909216935063790b5a6c9250608480830192600092919082900301818387803b15801561271757600080fd5b505af115801561272b573d6000803e3d6000fd5b5050604080516001600160a01b03871681526020810185905281517fea86deae645094ec633519ad4ce378c84e64b7ed7c2fd83fe55ededc309e7d409450908190039091019150a150505050565b61278281612ed1565b611ef081613089565b600081116127ce576040805162461bcd60e51b815260206004820152601d6024820152600080516020613583833981519152604482015290519081900360640190fd5b600854604080516310c1c10360e01b81526001600160a01b038681166004830152915160009392909216916310c1c10391602480820192602092909190829003018186803b15801561281f57600080fd5b505afa158015612833573d6000803e3d6000fd5b505050506040513d602081101561284957600080fd5b5051600a546009546040805163098bf59d60e01b81526001600160a01b03898116600483018190529381166024830152604482018890526064820193909352905193945091169163098bf59d9160848082019260009290919082900301818387803b1580156128b757600080fd5b505af11580156128cb573d6000803e3d6000fd5b50506009546008546040805163098bf59d60e01b81526001600160a01b038a8116600483018190529381166024830152604482018990526064820193909352905191909216935063098bf59d9250608480830192600092919082900301818387803b15801561293957600080fd5b505af115801561294d573d6000803e3d6000fd5b50506008546040805163098bf59d60e01b81526001600160a01b03898116600483018190528982166024840152604483018990526064830152915191909216935063098bf59d9250608480830192600092919082900301818387803b1580156129b557600080fd5b505af11580156129c9573d6000803e3d6000fd5b5050600954604080516309f4173d60e11b81526001600160a01b038981166004830181905260248301529151600095509190921692506313e82e7a9160448082019260209290919082900301818787803b158015612a2657600080fd5b505af1158015612a3a573d6000803e3d6000fd5b505050506040513d6020811015612a5057600080fd5b505190508015612ada57600a5460065460408051631e42d69b60e21b81526001600160a01b038981166004830181905260248301529283166044820152606481018590529051919092169163790b5a6c91608480830192600092919082900301818387803b158015612ac157600080fd5b505af1158015612ad5573d6000803e3d6000fd5b505050505b600a5460065460408051637aeceb1f60e11b81526001600160a01b03898116600483015292831660248201529051600093929092169163f5d9d63e91604480820192602092909190829003018186803b158015612b3657600080fd5b505afa158015612b4a573d6000803e3d6000fd5b505050506040513d6020811015612b6057600080fd5b505190508015612c73576000612b8084612b7a8488613130565b90613192565b600a546006546040805163098bf59d60e01b81526001600160a01b038c8116600483018190529381166024830152604482018690526064820193909352905193945091169163098bf59d9160848082019260009290919082900301818387803b158015612bec57600080fd5b505af1158015612c00573d6000803e3d6000fd5b505060065460408051632770a7eb60e21b81526001600160a01b038c81166004830152602482018790529151919092169350639dc29fac9250604480830192600092919082900301818387803b158015612c5957600080fd5b505af1158015612c6d573d6000803e3d6000fd5b50505050505b604080516001600160a01b03881681526020810186905281517fc4f9e9c50d0c4e3f3b71fbb16e575a7e0b4dfa85578d4e2dc72bbe016e5e5baa929181900390910190a1505050505050565b604080518082018252828152600160208083018281526001600160a01b03871660008181526002845286902094518555905193909201805460ff1916931515939093179092558251848152925190927f02dd0697be46e764c3ba81094158781c31b235d03bb27a0daf1bdef0ec1084dd92908290030190a25050565b80471015612d90576040805162461bcd60e51b815260206004820152601d60248201527f416464726573733a20696e73756666696369656e742062616c616e6365000000604482015290519081900360640190fd5b6040516000906001600160a01b0384169083908381818185875af1925050503d8060008114612ddb576040519150601f19603f3d011682016040523d82523d6000602084013e612de0565b606091505b50509050806109d05760405162461bcd60e51b815260040180806020018281038252603a815260200180613495603a913960400191505060405180910390fd5b6060612e75826040518060400160405280602081526020017f5361666545524332303a206c6f772d6c6576656c2063616c6c206661696c6564815250856001600160a01b03166131d19092919063ffffffff16565b8051909150156109d057808060200190516020811015612e9457600080fd5b50516109d05760405162461bcd60e51b815260040180806020018281038252602a815260200180613559602a913960400191505060405180910390fd5b600854604080516309f4173d60e11b81526001600160a01b03848116600483018190526024830152915160009392909216916313e82e7a9160448082019260209290919082900301818787803b158015612f2a57600080fd5b505af1158015612f3e573d6000803e3d6000fd5b505050506040513d6020811015612f5457600080fd5b505190508015612f7857600554612f7890839081906001600160a01b031684612571565b600954604080516309f4173d60e11b81526001600160a01b03858116600483018190526024830152915160009392909216916313e82e7a9160448082019260209290919082900301818787803b158015612fd157600080fd5b505af1158015612fe5573d6000803e3d6000fd5b505050506040513d6020811015612ffb57600080fd5b5051905080156109d057600a5460065460408051631e42d69b60e21b81526001600160a01b038781166004830181905260248301529283166044820152606481018590529051919092169163790b5a6c91608480830192600092919082900301818387803b15801561306c57600080fd5b505af1158015613080573d6000803e3d6000fd5b50505050505050565b600b54604080516309f4173d60e11b81526001600160a01b03848116600483018190526024830152915160009392909216916313e82e7a9160448082019260209290919082900301818787803b1580156130e257600080fd5b505af11580156130f6573d6000803e3d6000fd5b505050506040513d602081101561310c57600080fd5b5051905080156110545760055461105490839081906001600160a01b031684612571565b60008261313f5750600061318c565b8282028284828161314c57fe5b04146131895760405162461bcd60e51b81526004018080602001828103825260218152602001806135386021913960400191505060405180910390fd5b90505b92915050565b600061318983836040518060400160405280601a815260200179536166654d6174683a206469766973696f6e206279207a65726f60301b8152506131ea565b60606131e0848460008561328c565b90505b9392505050565b600081836132765760405162461bcd60e51b81526004018080602001828103825283818151815260200191508051906020019080838360005b8381101561323b578181015183820152602001613223565b50505050905090810190601f1680156132685780820380516001836020036101000a031916815260200191505b509250505060405180910390fd5b50600083858161328257fe5b0495945050505050565b6060824710156132cd5760405162461bcd60e51b81526004018080602001828103825260268152602001806134f06026913960400191505060405180910390fd5b6132d6856133e8565b613327576040805162461bcd60e51b815260206004820152601d60248201527f416464726573733a2063616c6c20746f206e6f6e2d636f6e7472616374000000604482015290519081900360640190fd5b60006060866001600160a01b031685876040518082805190602001908083835b602083106133665780518252601f199092019160209182019101613347565b6001836020036101000a03801982511681845116808217855250505050505090500191505060006040518083038185875af1925050503d80600081146133c8576040519150601f19603f3d011682016040523d82523d6000602084013e6133cd565b606091505b50915091506133dd8282866133ee565b979650505050505050565b3b151590565b606083156133fd5750816131e3565b82511561340d5782518084602001fd5b60405162461bcd60e51b815260206004820181815284516024840152845185939192839260440191908501908083836000831561323b57818101518382015260200161322356fe5265656e7472616e637947756172643a207265656e7472616e742063616c6c00476f7665726e61626c653a20666f7262696464656e0000000000000000000000416464726573733a20756e61626c6520746f2073656e642076616c75652c20726563697069656e74206d61792068617665207265766572746564526577617264526f757465723a20616c726561647920696e697469616c697a6564416464726573733a20696e73756666696369656e742062616c616e636520666f722063616c6c476f7665726e61626c653a2070726f706f73616c206973206e6f7420616374697665536166654d6174683a206d756c7469706c69636174696f6e206f766572666c6f775361666545524332303a204552433230206f7065726174696f6e20646964206e6f742073756363656564526577617264526f757465723a20696e76616c6964205f616d6f756e74000000a26469706673582212207b1ab50c477a768bf0b8e3c68b6ea19fff2e3ea4134caca890ceeb793b04083764736f6c634300060c0033","linkReferences":{}},"methodIdentifiers":{"acceptGov()":"7bc6729b","batchCompoundForAccounts(address[])":"1af276a6","batchStakeZusForAccount(address[],uint256[])":"d106f13a","bnZus()":"f29db14f","bonusZusTracker()":"1f08618d","cancelGovProposal(address)":"9c35b497","claim()":"4e71d92d","claimEsZus()":"81e021fc","claimFees()":"d294f093","compound()":"f69e2046","compoundForAccount(address)":"2a9f4083","esZus()":"6dbe359a","feeZlpTracker()":"84347a33","feeZusTracker()":"126f01d4","gov()":"12d43a51","govProposals(address)":"8d0fedb0","initialize(address,address,address,address,address,address,address,address,address,address,address)":"76902b83","isInitialized()":"392e53cd","mintAndStakeZlp(address,uint256,uint256,uint256)":"c8cfba39","mintAndStakeZlpETH(uint256,uint256)":"d6bf66c2","setGov(address)":"cfad57a2","setGovWithDeadline(address,uint256)":"6bb22fd7","stakeEsZus(uint256)":"1bf122c5","stakeZus(uint256)":"03a24399","stakeZusForAccount(address,uint256)":"82de0072","stakedZlpTracker()":"17988a6a","stakedZusTracker()":"ec4ee1c0","unstakeAndRedeemZlp(address,uint256,uint256,address)":"cca30c31","unstakeAndRedeemZlpETH(uint256,uint256,address)":"b7699816","unstakeEsZus(uint256)":"1c2433e0","unstakeZus(uint256)":"822ac221","weth()":"3fc8cef3","withdrawToken(address,address,uint256)":"01e33667","zlp()":"fe9fe720","zlpManager()":"b6556599","zus()":"02486e08"},"id":82}