{"abi":[{"type":"receive","stateMutability":"payable"},{"type":"function","name":"batchCompoundForAccounts","inputs":[{"name":"_accounts","type":"address[]","internalType":"address[]"}],"outputs":[],"stateMutability":"nonpayable"},{"type":"function","name":"batchStakeZusForAccount","inputs":[{"name":"_accounts","type":"address[]","internalType":"address[]"},{"name":"_amounts","type":"uint256[]","internalType":"uint256[]"}],"outputs":[],"stateMutability":"nonpayable"},{"type":"function","name":"bnZus","inputs":[],"outputs":[{"name":"","type":"address","internalType":"address"}],"stateMutability":"view"},{"type":"function","name":"bonusZusTracker","inputs":[],"outputs":[{"name":"","type":"address","internalType":"address"}],"stateMutability":"view"},{"type":"function","name":"claim","inputs":[],"outputs":[],"stateMutability":"nonpayable"},{"type":"function","name":"claimEsZus","inputs":[],"outputs":[],"stateMutability":"nonpayable"},{"type":"function","name":"claimFees","inputs":[],"outputs":[],"stateMutability":"nonpayable"},{"type":"function","name":"compound","inputs":[],"outputs":[],"stateMutability":"nonpayable"},{"type":"function","name":"compoundForAccount","inputs":[{"name":"_account","type":"address","internalType":"address"}],"outputs":[],"stateMutability":"nonpayable"},{"type":"function","name":"esZus","inputs":[],"outputs":[{"name":"","type":"address","internalType":"address"}],"stateMutability":"view"},{"type":"function","name":"feeZlpTracker","inputs":[],"outputs":[{"name":"","type":"address","internalType":"address"}],"stateMutability":"view"},{"type":"function","name":"feeZusTracker","inputs":[],"outputs":[{"name":"","type":"address","internalType":"address"}],"stateMutability":"view"},{"type":"function","name":"gov","inputs":[],"outputs":[{"name":"","type":"address","internalType":"address"}],"stateMutability":"view"},{"type":"function","name":"initialize","inputs":[{"name":"_weth","type":"address","internalType":"address"},{"name":"_zus","type":"address","internalType":"address"},{"name":"_esZus","type":"address","internalType":"address"},{"name":"_bnZus","type":"address","internalType":"address"},{"name":"_zlp","type":"address","internalType":"address"},{"name":"_stakedZusTracker","type":"address","internalType":"address"},{"name":"_bonusZusTracker","type":"address","internalType":"address"},{"name":"_feeZusTracker","type":"address","internalType":"address"},{"name":"_feeZlpTracker","type":"address","internalType":"address"},{"name":"_stakedZlpTracker","type":"address","internalType":"address"},{"name":"_zlpManager","type":"address","internalType":"address"}],"outputs":[],"stateMutability":"nonpayable"},{"type":"function","name":"isInitialized","inputs":[],"outputs":[{"name":"","type":"bool","internalType":"bool"}],"stateMutability":"view"},{"type":"function","name":"mintAndStakeZlp","inputs":[{"name":"_token","type":"address","internalType":"address"},{"name":"_amount","type":"uint256","internalType":"uint256"},{"name":"_minUsdg","type":"uint256","internalType":"uint256"},{"name":"_minZlp","type":"uint256","internalType":"uint256"}],"outputs":[{"name":"","type":"uint256","internalType":"uint256"}],"stateMutability":"nonpayable"},{"type":"function","name":"mintAndStakeZlpETH","inputs":[{"name":"_minUsdg","type":"uint256","internalType":"uint256"},{"name":"_minZlp","type":"uint256","internalType":"uint256"}],"outputs":[{"name":"","type":"uint256","internalType":"uint256"}],"stateMutability":"payable"},{"type":"function","name":"setGov","inputs":[{"name":"_gov","type":"address","internalType":"address"}],"outputs":[],"stateMutability":"nonpayable"},{"type":"function","name":"stakeEsZus","inputs":[{"name":"_amount","type":"uint256","internalType":"uint256"}],"outputs":[],"stateMutability":"nonpayable"},{"type":"function","name":"stakeZus","inputs":[{"name":"_amount","type":"uint256","internalType":"uint256"}],"outputs":[],"stateMutability":"nonpayable"},{"type":"function","name":"stakeZusForAccount","inputs":[{"name":"_account","type":"address","internalType":"address"},{"name":"_amount","type":"uint256","internalType":"uint256"}],"outputs":[],"stateMutability":"nonpayable"},{"type":"function","name":"stakedZlpTracker","inputs":[],"outputs":[{"name":"","type":"address","internalType":"address"}],"stateMutability":"view"},{"type":"function","name":"stakedZusTracker","inputs":[],"outputs":[{"name":"","type":"address","internalType":"address"}],"stateMutability":"view"},{"type":"function","name":"unstakeAndRedeemZlp","inputs":[{"name":"_tokenOut","type":"address","internalType":"address"},{"name":"_zlpAmount","type":"uint256","internalType":"uint256"},{"name":"_minOut","type":"uint256","internalType":"uint256"},{"name":"_receiver","type":"address","internalType":"address"}],"outputs":[{"name":"","type":"uint256","internalType":"uint256"}],"stateMutability":"nonpayable"},{"type":"function","name":"unstakeAndRedeemZlpETH","inputs":[{"name":"_zlpAmount","type":"uint256","internalType":"uint256"},{"name":"_minOut","type":"uint256","internalType":"uint256"},{"name":"_receiver","type":"address","internalType":"address payable"}],"outputs":[{"name":"","type":"uint256","internalType":"uint256"}],"stateMutability":"nonpayable"},{"type":"function","name":"unstakeEsZus","inputs":[{"name":"_amount","type":"uint256","internalType":"uint256"}],"outputs":[],"stateMutability":"nonpayable"},{"type":"function","name":"unstakeZus","inputs":[{"name":"_amount","type":"uint256","internalType":"uint256"}],"outputs":[],"stateMutability":"nonpayable"},{"type":"function","name":"weth","inputs":[],"outputs":[{"name":"","type":"address","internalType":"address"}],"stateMutability":"view"},{"type":"function","name":"withdrawToken","inputs":[{"name":"_token","type":"address","internalType":"address"},{"name":"_account","type":"address","internalType":"address"},{"name":"_amount","type":"uint256","internalType":"uint256"}],"outputs":[],"stateMutability":"nonpayable"},{"type":"function","name":"zlp","inputs":[],"outputs":[{"name":"","type":"address","internalType":"address"}],"stateMutability":"view"},{"type":"function","name":"zlpManager","inputs":[],"outputs":[{"name":"","type":"address","internalType":"address"}],"stateMutability":"view"},{"type":"function","name":"zus","inputs":[],"outputs":[{"name":"","type":"address","internalType":"address"}],"stateMutability":"view"},{"type":"event","name":"StakeZlp","inputs":[{"name":"account","type":"address","indexed":false,"internalType":"address"},{"name":"amount","type":"uint256","indexed":false,"internalType":"uint256"}],"anonymous":false},{"type":"event","name":"StakeZus","inputs":[{"name":"account","type":"address","indexed":false,"internalType":"address"},{"name":"amount","type":"uint256","indexed":false,"internalType":"uint256"}],"anonymous":false},{"type":"event","name":"UnstakeZlp","inputs":[{"name":"account","type":"address","indexed":false,"internalType":"address"},{"name":"amount","type":"uint256","indexed":false,"internalType":"uint256"}],"anonymous":false},{"type":"event","name":"UnstakeZus","inputs":[{"name":"account","type":"address","indexed":false,"internalType":"address"},{"name":"amount","type":"uint256","indexed":false,"internalType":"uint256"}],"anonymous":false}],"bytecode":{"object":"0x608060405234801561001057600080fd5b50600180546001600160a01b03191633179055613058806100326000396000f3fe6080604052600436106101775760003560e01c806301e33667146101db57806302486e081461021e57806303a243991461024f578063126f01d41461027957806312d43a511461028e57806317988a6a146102a35780631af276a6146102b85780631bf122c5146103665780631c2433e0146103905780631f08618d146103ba5780632a9f4083146103cf578063392e53cd146104025780633fc8cef31461042b5780634e71d92d146104405780636dbe359a1461045557806376902b831461046a57806381e021fc146104f3578063822ac2211461050857806382de00721461053257806384347a331461056b578063b655659914610580578063b769981614610595578063c8cfba39146105e6578063cca30c311461062b578063cfad57a214610672578063d106f13a146106a5578063d294f093146107d5578063d6bf66c2146107ea578063ec4ee1c01461080d578063f29db14f14610822578063f69e204614610837578063fe9fe7201461084c576101d6565b366101d6576002546001600160a01b031633146101d4576040805162461bcd60e51b81526020600482015260166024820152752937baba32b91d1034b73b30b634b21039b2b73232b960511b604482015290519081900360640190fd5b005b600080fd5b3480156101e757600080fd5b506101d4600480360360608110156101fe57600080fd5b506001600160a01b03813581169160208101359091169060400135610861565b34801561022a57600080fd5b506102336108c7565b604080516001600160a01b039092168252519081900360200190f35b34801561025b57600080fd5b506101d46004803603602081101561027257600080fd5b50356108d6565b34801561028557600080fd5b50610233610943565b34801561029a57600080fd5b50610233610952565b3480156102af57600080fd5b50610233610961565b3480156102c457600080fd5b506101d4600480360360208110156102db57600080fd5b810190602081018135600160201b8111156102f557600080fd5b82018360208201111561030757600080fd5b803590602001918460208302840111600160201b8311171561032857600080fd5b919080806020026020016040519081016040528093929190818152602001838360200280828437600092019190915250929550610970945050505050565b34801561037257600080fd5b506101d46004803603602081101561038957600080fd5b5035610a41565b34801561039c57600080fd5b506101d4600480360360208110156103b357600080fd5b5035610aa6565b3480156103c657600080fd5b50610233610b09565b3480156103db57600080fd5b506101d4600480360360208110156103f257600080fd5b50356001600160a01b0316610b18565b34801561040e57600080fd5b50610417610bb9565b604080519115158252519081900360200190f35b34801561043757600080fd5b50610233610bc9565b34801561044c57600080fd5b506101d4610bd8565b34801561046157600080fd5b50610233610e37565b34801561047657600080fd5b506101d4600480360361016081101561048e57600080fd5b506001600160a01b038135811691602081013582169160408201358116916060810135821691608082013581169160a081013582169160c082013581169160e08101358216916101008201358116916101208101358216916101409091013516610e46565b3480156104ff57600080fd5b506101d4610fad565b34801561051457600080fd5b506101d46004803603602081101561052b57600080fd5b5035611052565b34801561053e57600080fd5b506101d46004803603604081101561055557600080fd5b506001600160a01b0381351690602001356110b5565b34801561057757600080fd5b50610233611167565b34801561058c57600080fd5b50610233611176565b3480156105a157600080fd5b506105d4600480360360608110156105b857600080fd5b50803590602081013590604001356001600160a01b0316611185565b60408051918252519081900360200190f35b3480156105f257600080fd5b506105d46004803603608081101561060957600080fd5b506001600160a01b038135169060208101359060408101359060600135611492565b34801561063757600080fd5b506105d46004803603608081101561064e57600080fd5b506001600160a01b0381358116916020810135916040820135916060013516611712565b34801561067e57600080fd5b506101d46004803603602081101561069557600080fd5b50356001600160a01b03166119a6565b3480156106b157600080fd5b506101d4600480360360408110156106c857600080fd5b810190602081018135600160201b8111156106e257600080fd5b8201836020820111156106f457600080fd5b803590602001918460208302840111600160201b8311171561071557600080fd5b9190808060200260200160405190810160405280939291908181526020018383602002808284376000920191909152509295949360208101935035915050600160201b81111561076457600080fd5b82018360208201111561077657600080fd5b803590602001918460208302840111600160201b8311171561079757600080fd5b919080806020026020016040519081016040528093929190818152602001838360200280828437600092019190915250929550611a15945050505050565b3480156107e157600080fd5b506101d4611b0a565b6105d46004803603604081101561080057600080fd5b5080359060200135611c31565b34801561081957600080fd5b50610233611fae565b34801561082e57600080fd5b50610233611fbd565b34801561084357600080fd5b506101d4611fcc565b34801561085857600080fd5b50610233612027565b6001546001600160a01b031633146108ae576040805162461bcd60e51b81526020600482015260156024820152600080516020612f17833981519152604482015290519081900360640190fd5b6108c26001600160a01b0384168383612036565b505050565b6003546001600160a01b031681565b6002600054141561091c576040805162461bcd60e51b815260206004820152601f6024820152600080516020612ef7833981519152604482015290519081900360640190fd5b600260005560035461093b90339081906001600160a01b031684612088565b506001600055565b6009546001600160a01b031681565b6001546001600160a01b031681565b600a546001600160a01b031681565b600260005414156109b6576040805162461bcd60e51b815260206004820152601f6024820152600080516020612ef7833981519152604482015290519081900360640190fd5b60026000556001546001600160a01b03163314610a08576040805162461bcd60e51b81526020600482015260156024820152600080516020612f17833981519152604482015290519081900360640190fd5b60005b8151811015610a3857610a30828281518110610a2357fe5b6020026020010151612290565b600101610a0b565b50506001600055565b60026000541415610a87576040805162461bcd60e51b815260206004820152601f6024820152600080516020612ef7833981519152604482015290519081900360640190fd5b600260005560045461093b90339081906001600160a01b031684612088565b60026000541415610aec576040805162461bcd60e51b815260206004820152601f6024820152600080516020612ef7833981519152604482015290519081900360640190fd5b600260005560045461093b9033906001600160a01b0316836122a5565b6008546001600160a01b031681565b60026000541415610b5e576040805162461bcd60e51b815260206004820152601f6024820152600080516020612ef7833981519152604482015290519081900360640190fd5b60026000556001546001600160a01b03163314610bb0576040805162461bcd60e51b81526020600482015260156024820152600080516020612f17833981519152604482015290519081900360640190fd5b61093b81612290565b600154600160a01b900460ff1681565b6002546001600160a01b031681565b60026000541415610c1e576040805162461bcd60e51b815260206004820152601f6024820152600080516020612ef7833981519152604482015290519081900360640190fd5b60026000908155600954604080516309f4173d60e11b8152336004820181905260248201819052915191936001600160a01b03909316926313e82e7a926044808401936020939083900390910190829087803b158015610c7d57600080fd5b505af1158015610c91573d6000803e3d6000fd5b505050506040513d6020811015610ca757600080fd5b5050600b54604080516309f4173d60e11b81526001600160a01b03848116600483018190526024830152915191909216916313e82e7a9160448083019260209291908290030181600087803b158015610cff57600080fd5b505af1158015610d13573d6000803e3d6000fd5b505050506040513d6020811015610d2957600080fd5b5050600754604080516309f4173d60e11b81526001600160a01b03848116600483018190526024830152915191909216916313e82e7a9160448083019260209291908290030181600087803b158015610d8157600080fd5b505af1158015610d95573d6000803e3d6000fd5b505050506040513d6020811015610dab57600080fd5b5050600a54604080516309f4173d60e11b81526001600160a01b03848116600483018190526024830152915191909216916313e82e7a9160448083019260209291908290030181600087803b158015610e0357600080fd5b505af1158015610e17573d6000803e3d6000fd5b505050506040513d6020811015610e2d57600080fd5b5050600160005550565b6004546001600160a01b031681565b6001546001600160a01b03163314610e93576040805162461bcd60e51b81526020600482015260156024820152600080516020612f17833981519152604482015290519081900360640190fd5b600154600160a01b900460ff1615610edc5760405162461bcd60e51b8152600401808060200182810382526021815260200180612f716021913960400191505060405180910390fd5b60018054600160a01b60ff60a01b19909116179055600280546001600160a01b03199081166001600160a01b039d8e16179091556003805482169b8d169b909b17909a55600480548b16998c1699909917909855600580548a16978b1697909717909655600680548916958a169590951790945560078054881693891693909317909255600880548716918816919091179055600980548616918716919091179055600b80548516918616919091179055600a80548416918516919091179055600c80549092169216919091179055565b60026000541415610ff3576040805162461bcd60e51b815260206004820152601f6024820152600080516020612ef7833981519152604482015290519081900360640190fd5b60026000908155600754604080516309f4173d60e11b8152336004820181905260248201819052915191936001600160a01b03909316926313e82e7a926044808401936020939083900390910190829087803b158015610d8157600080fd5b60026000541415611098576040805162461bcd60e51b815260206004820152601f6024820152600080516020612ef7833981519152604482015290519081900360640190fd5b600260005560035461093b9033906001600160a01b0316836122a5565b600260005414156110fb576040805162461bcd60e51b815260206004820152601f6024820152600080516020612ef7833981519152604482015290519081900360640190fd5b60026000556001546001600160a01b0316331461114d576040805162461bcd60e51b81526020600482015260156024820152600080516020612f17833981519152604482015290519081900360640190fd5b600354610a3890339084906001600160a01b031684612088565b600b546001600160a01b031681565b600c546001600160a01b031681565b6000600260005414156111cd576040805162461bcd60e51b815260206004820152601f6024820152600080516020612ef7833981519152604482015290519081900360640190fd5b600260005583611224576040805162461bcd60e51b815260206004820181905260248201527f526577617264526f757465723a20696e76616c6964205f7a6c70416d6f756e74604482015290519081900360640190fd5b600a54600b546040805163098bf59d60e01b815233600482018190526001600160a01b039384166024830152604482018990526064820181905291519193929092169163098bf59d91608480830192600092919082900301818387803b15801561128d57600080fd5b505af11580156112a1573d6000803e3d6000fd5b5050600b546006546040805163098bf59d60e01b81526001600160a01b03878116600483018190529381166024830152604482018c90526064820193909352905191909216935063098bf59d9250608480830192600092919082900301818387803b15801561130f57600080fd5b505af1158015611323573d6000803e3d6000fd5b5050600c54600254604080516371d597ad60e01b81526001600160a01b0387811660048301529283166024820152604481018b9052606481018a90523060848201529051600095509190921692506371d597ad9160a48082019260209290919082900301818787803b15801561139857600080fd5b505af11580156113ac573d6000803e3d6000fd5b505050506040513d60208110156113c257600080fd5b505160025460408051632e1a7d4d60e01b81526004810184905290519293506001600160a01b0390911691632e1a7d4d9160248082019260009290919082900301818387803b15801561141457600080fd5b505af1158015611428573d6000803e3d6000fd5b50611440925050506001600160a01b038516826127d9565b604080516001600160a01b03841681526020810188905281517f83ac00acd50a988c92018e2f35631dfbc00d5bd016c5515fe3758877b1499cf8929181900390910190a1600160005595945050505050565b6000600260005414156114da576040805162461bcd60e51b815260206004820152601f6024820152600080516020612ef7833981519152604482015290519081900360640190fd5b60026000558361151f576040805162461bcd60e51b815260206004820152601d6024820152600080516020613003833981519152604482015290519081900360640190fd5b600c54604080516317eb2a1560e01b81523360048201819052602482018190526001600160a01b038981166044840152606483018990526084830188905260a483018790529251909360009316916317eb2a159160c480830192602092919082900301818787803b15801561159357600080fd5b505af11580156115a7573d6000803e3d6000fd5b505050506040513d60208110156115bd57600080fd5b5051600b5460065460408051631e42d69b60e21b81526001600160a01b03878116600483018190526024830152928316604482015260648101859052905193945091169163790b5a6c9160848082019260009290919082900301818387803b15801561162857600080fd5b505af115801561163c573d6000803e3d6000fd5b5050600a54600b5460408051631e42d69b60e21b81526001600160a01b03888116600483018190526024830152928316604482015260648101879052905191909216935063790b5a6c9250608480830192600092919082900301818387803b1580156116a757600080fd5b505af11580156116bb573d6000803e3d6000fd5b5050604080516001600160a01b03861681526020810185905281517fad93b2f628eda4195b3bf8738da70d1ba23b7061ffa4fe71aaca907e0b128cce9450908190039091019150a160016000559695505050505050565b60006002600054141561175a576040805162461bcd60e51b815260206004820152601f6024820152600080516020612ef7833981519152604482015290519081900360640190fd5b6002600055836117b1576040805162461bcd60e51b815260206004820181905260248201527f526577617264526f757465723a20696e76616c6964205f7a6c70416d6f756e74604482015290519081900360640190fd5b600a54600b546040805163098bf59d60e01b815233600482018190526001600160a01b039384166024830152604482018990526064820181905291519193929092169163098bf59d91608480830192600092919082900301818387803b15801561181a57600080fd5b505af115801561182e573d6000803e3d6000fd5b5050600b546006546040805163098bf59d60e01b81526001600160a01b03878116600483018190529381166024830152604482018c90526064820193909352905191909216935063098bf59d9250608480830192600092919082900301818387803b15801561189c57600080fd5b505af11580156118b0573d6000803e3d6000fd5b5050600c54604080516371d597ad60e01b81526001600160a01b0386811660048301528b81166024830152604482018b9052606482018a905288811660848301529151600095509190921692506371d597ad9160a48082019260209290919082900301818787803b15801561192457600080fd5b505af1158015611938573d6000803e3d6000fd5b505050506040513d602081101561194e57600080fd5b5051604080516001600160a01b03851681526020810189905281519293507f83ac00acd50a988c92018e2f35631dfbc00d5bd016c5515fe3758877b1499cf8929081900390910190a160016000559695505050505050565b6001546001600160a01b031633146119f3576040805162461bcd60e51b81526020600482015260156024820152600080516020612f17833981519152604482015290519081900360640190fd5b600180546001600160a01b0319166001600160a01b0392909216919091179055565b60026000541415611a5b576040805162461bcd60e51b815260206004820152601f6024820152600080516020612ef7833981519152604482015290519081900360640190fd5b60026000556001546001600160a01b03163314611aad576040805162461bcd60e51b81526020600482015260156024820152600080516020612f17833981519152604482015290519081900360640190fd5b6003546001600160a01b031660005b8351811015611aff57611af733858381518110611ad557fe5b602002602001015184868581518110611aea57fe5b6020026020010151612088565b600101611abc565b505060016000555050565b60026000541415611b50576040805162461bcd60e51b815260206004820152601f6024820152600080516020612ef7833981519152604482015290519081900360640190fd5b60026000908155600954604080516309f4173d60e11b8152336004820181905260248201819052915191936001600160a01b03909316926313e82e7a926044808401936020939083900390910190829087803b158015611baf57600080fd5b505af1158015611bc3573d6000803e3d6000fd5b505050506040513d6020811015611bd957600080fd5b5050600b54604080516309f4173d60e11b81526001600160a01b03848116600483018190526024830152915191909216916313e82e7a9160448083019260209291908290030181600087803b158015610e0357600080fd5b600060026000541415611c79576040805162461bcd60e51b815260206004820152601f6024820152600080516020612ef7833981519152604482015290519081900360640190fd5b600260005534611cd0576040805162461bcd60e51b815260206004820152601f60248201527f526577617264526f757465723a20696e76616c6964206d73672e76616c756500604482015290519081900360640190fd5b600260009054906101000a90046001600160a01b03166001600160a01b031663d0e30db0346040518263ffffffff1660e01b81526004016000604051808303818588803b158015611d2057600080fd5b505af1158015611d34573d6000803e3d6000fd5b5050600254600c546040805163095ea7b360e01b81526001600160a01b039283166004820152346024820152905191909216945063095ea7b39350604480830193506020928290030181600087803b158015611d8f57600080fd5b505af1158015611da3573d6000803e3d6000fd5b505050506040513d6020811015611db957600080fd5b5050600c54600254604080516317eb2a1560e01b815230600482015233602482018190526001600160a01b0393841660448301523460648301526084820188905260a482018790529151919360009316916317eb2a159160c48082019260209290919082900301818787803b158015611e3157600080fd5b505af1158015611e45573d6000803e3d6000fd5b505050506040513d6020811015611e5b57600080fd5b5051600b5460065460408051631e42d69b60e21b81526001600160a01b03878116600483018190526024830152928316604482015260648101859052905193945091169163790b5a6c9160848082019260009290919082900301818387803b158015611ec657600080fd5b505af1158015611eda573d6000803e3d6000fd5b5050600a54600b5460408051631e42d69b60e21b81526001600160a01b03888116600483018190526024830152928316604482015260648101879052905191909216935063790b5a6c9250608480830192600092919082900301818387803b158015611f4557600080fd5b505af1158015611f59573d6000803e3d6000fd5b5050604080516001600160a01b03861681526020810185905281517fad93b2f628eda4195b3bf8738da70d1ba23b7061ffa4fe71aaca907e0b128cce9450908190039091019150a16001600055949350505050565b6007546001600160a01b031681565b6005546001600160a01b031681565b60026000541415612012576040805162461bcd60e51b815260206004820152601f6024820152600080516020612ef7833981519152604482015290519081900360640190fd5b600260005561202033612290565b6001600055565b6006546001600160a01b031681565b604080516001600160a01b038416602482015260448082018490528251808303909101815260649091019091526020810180516001600160e01b031663a9059cbb60e01b1790526108c29084906128be565b600081116120cb576040805162461bcd60e51b815260206004820152601d6024820152600080516020613003833981519152604482015290519081900360640190fd5b60075460408051631e42d69b60e21b81526001600160a01b03878116600483015286811660248301528581166044830152606482018590529151919092169163790b5a6c91608480830192600092919082900301818387803b15801561213057600080fd5b505af1158015612144573d6000803e3d6000fd5b505060085460075460408051631e42d69b60e21b81526001600160a01b03898116600483018190526024830152928316604482015260648101879052905191909216935063790b5a6c9250608480830192600092919082900301818387803b1580156121af57600080fd5b505af11580156121c3573d6000803e3d6000fd5b505060095460085460408051631e42d69b60e21b81526001600160a01b03898116600483018190526024830152928316604482015260648101879052905191909216935063790b5a6c9250608480830192600092919082900301818387803b15801561222e57600080fd5b505af1158015612242573d6000803e3d6000fd5b5050604080516001600160a01b03871681526020810185905281517fea86deae645094ec633519ad4ce378c84e64b7ed7c2fd83fe55ededc309e7d409450908190039091019150a150505050565b6122998161296f565b6122a281612b27565b50565b600081116122e8576040805162461bcd60e51b815260206004820152601d6024820152600080516020613003833981519152604482015290519081900360640190fd5b600754604080516310c1c10360e01b81526001600160a01b038681166004830152915160009392909216916310c1c10391602480820192602092909190829003018186803b15801561233957600080fd5b505afa15801561234d573d6000803e3d6000fd5b505050506040513d602081101561236357600080fd5b50516009546008546040805163098bf59d60e01b81526001600160a01b03898116600483018190529381166024830152604482018890526064820193909352905193945091169163098bf59d9160848082019260009290919082900301818387803b1580156123d157600080fd5b505af11580156123e5573d6000803e3d6000fd5b50506008546007546040805163098bf59d60e01b81526001600160a01b038a8116600483018190529381166024830152604482018990526064820193909352905191909216935063098bf59d9250608480830192600092919082900301818387803b15801561245357600080fd5b505af1158015612467573d6000803e3d6000fd5b50506007546040805163098bf59d60e01b81526001600160a01b03898116600483018190528982166024840152604483018990526064830152915191909216935063098bf59d9250608480830192600092919082900301818387803b1580156124cf57600080fd5b505af11580156124e3573d6000803e3d6000fd5b5050600854604080516309f4173d60e11b81526001600160a01b038981166004830181905260248301529151600095509190921692506313e82e7a9160448082019260209290919082900301818787803b15801561254057600080fd5b505af1158015612554573d6000803e3d6000fd5b505050506040513d602081101561256a57600080fd5b5051905080156125f45760095460055460408051631e42d69b60e21b81526001600160a01b038981166004830181905260248301529283166044820152606481018590529051919092169163790b5a6c91608480830192600092919082900301818387803b1580156125db57600080fd5b505af11580156125ef573d6000803e3d6000fd5b505050505b60095460055460408051637aeceb1f60e11b81526001600160a01b03898116600483015292831660248201529051600093929092169163f5d9d63e91604480820192602092909190829003018186803b15801561265057600080fd5b505afa158015612664573d6000803e3d6000fd5b505050506040513d602081101561267a57600080fd5b50519050801561278d57600061269a846126948488612bd2565b90612c34565b6009546005546040805163098bf59d60e01b81526001600160a01b038c8116600483018190529381166024830152604482018690526064820193909352905193945091169163098bf59d9160848082019260009290919082900301818387803b15801561270657600080fd5b505af115801561271a573d6000803e3d6000fd5b505060055460408051632770a7eb60e21b81526001600160a01b038c81166004830152602482018790529151919092169350639dc29fac9250604480830192600092919082900301818387803b15801561277357600080fd5b505af1158015612787573d6000803e3d6000fd5b50505050505b604080516001600160a01b03881681526020810186905281517fc4f9e9c50d0c4e3f3b71fbb16e575a7e0b4dfa85578d4e2dc72bbe016e5e5baa929181900390910190a1505050505050565b8047101561282e576040805162461bcd60e51b815260206004820152601d60248201527f416464726573733a20696e73756666696369656e742062616c616e6365000000604482015290519081900360640190fd5b6040516000906001600160a01b0384169083908381818185875af1925050503d8060008114612879576040519150601f19603f3d011682016040523d82523d6000602084013e61287e565b606091505b50509050806108c25760405162461bcd60e51b815260040180806020018281038252603a815260200180612f37603a913960400191505060405180910390fd5b6060612913826040518060400160405280602081526020017f5361666545524332303a206c6f772d6c6576656c2063616c6c206661696c6564815250856001600160a01b0316612c739092919063ffffffff16565b8051909150156108c25780806020019051602081101561293257600080fd5b50516108c25760405162461bcd60e51b815260040180806020018281038252602a815260200180612fd9602a913960400191505060405180910390fd5b600754604080516309f4173d60e11b81526001600160a01b03848116600483018190526024830152915160009392909216916313e82e7a9160448082019260209290919082900301818787803b1580156129c857600080fd5b505af11580156129dc573d6000803e3d6000fd5b505050506040513d60208110156129f257600080fd5b505190508015612a1657600454612a1690839081906001600160a01b031684612088565b600854604080516309f4173d60e11b81526001600160a01b03858116600483018190526024830152915160009392909216916313e82e7a9160448082019260209290919082900301818787803b158015612a6f57600080fd5b505af1158015612a83573d6000803e3d6000fd5b505050506040513d6020811015612a9957600080fd5b5051905080156108c25760095460055460408051631e42d69b60e21b81526001600160a01b038781166004830181905260248301529283166044820152606481018590529051919092169163790b5a6c91608480830192600092919082900301818387803b158015612b0a57600080fd5b505af1158015612b1e573d6000803e3d6000fd5b50505050505050565b600a54604080516309f4173d60e11b81526001600160a01b03848116600483018190526024830152915160009392909216916313e82e7a9160448082019260209290919082900301818787803b158015612b8057600080fd5b505af1158015612b94573d6000803e3d6000fd5b505050506040513d6020811015612baa57600080fd5b505190508015612bce57600454612bce90839081906001600160a01b031684612088565b5050565b600082612be157506000612c2e565b82820282848281612bee57fe5b0414612c2b5760405162461bcd60e51b8152600401808060200182810382526021815260200180612fb86021913960400191505060405180910390fd5b90505b92915050565b6000612c2b83836040518060400160405280601a815260200179536166654d6174683a206469766973696f6e206279207a65726f60301b815250612c8c565b6060612c828484600085612d2e565b90505b9392505050565b60008183612d185760405162461bcd60e51b81526004018080602001828103825283818151815260200191508051906020019080838360005b83811015612cdd578181015183820152602001612cc5565b50505050905090810190601f168015612d0a5780820380516001836020036101000a031916815260200191505b509250505060405180910390fd5b506000838581612d2457fe5b0495945050505050565b606082471015612d6f5760405162461bcd60e51b8152600401808060200182810382526026815260200180612f926026913960400191505060405180910390fd5b612d7885612e8a565b612dc9576040805162461bcd60e51b815260206004820152601d60248201527f416464726573733a2063616c6c20746f206e6f6e2d636f6e7472616374000000604482015290519081900360640190fd5b60006060866001600160a01b031685876040518082805190602001908083835b60208310612e085780518252601f199092019160209182019101612de9565b6001836020036101000a03801982511681845116808217855250505050505090500191505060006040518083038185875af1925050503d8060008114612e6a576040519150601f19603f3d011682016040523d82523d6000602084013e612e6f565b606091505b5091509150612e7f828286612e90565b979650505050505050565b3b151590565b60608315612e9f575081612c85565b825115612eaf5782518084602001fd5b60405162461bcd60e51b8152602060048201818152845160248401528451859391928392604401919085019080838360008315612cdd578181015183820152602001612cc556fe5265656e7472616e637947756172643a207265656e7472616e742063616c6c00476f7665726e61626c653a20666f7262696464656e0000000000000000000000416464726573733a20756e61626c6520746f2073656e642076616c75652c20726563697069656e74206d61792068617665207265766572746564526577617264526f757465723a20616c726561647920696e697469616c697a6564416464726573733a20696e73756666696369656e742062616c616e636520666f722063616c6c536166654d6174683a206d756c7469706c69636174696f6e206f766572666c6f775361666545524332303a204552433230206f7065726174696f6e20646964206e6f742073756363656564526577617264526f757465723a20696e76616c6964205f616d6f756e74000000a2646970667358221220ef64fc740cd352c48af3756c3ca8d8cacc04cb1a812be861ee872065ff82c98764736f6c634300060c0033","linkReferences":{}},"methodIdentifiers":{"batchCompoundForAccounts(address[])":"1af276a6","batchStakeZusForAccount(address[],uint256[])":"d106f13a","bnZus()":"f29db14f","bonusZusTracker()":"1f08618d","claim()":"4e71d92d","claimEsZus()":"81e021fc","claimFees()":"d294f093","compound()":"f69e2046","compoundForAccount(address)":"2a9f4083","esZus()":"6dbe359a","feeZlpTracker()":"84347a33","feeZusTracker()":"126f01d4","gov()":"12d43a51","initialize(address,address,address,address,address,address,address,address,address,address,address)":"76902b83","isInitialized()":"392e53cd","mintAndStakeZlp(address,uint256,uint256,uint256)":"c8cfba39","mintAndStakeZlpETH(uint256,uint256)":"d6bf66c2","setGov(address)":"cfad57a2","stakeEsZus(uint256)":"1bf122c5","stakeZus(uint256)":"03a24399","stakeZusForAccount(address,uint256)":"82de0072","stakedZlpTracker()":"17988a6a","stakedZusTracker()":"ec4ee1c0","unstakeAndRedeemZlp(address,uint256,uint256,address)":"cca30c31","unstakeAndRedeemZlpETH(uint256,uint256,address)":"b7699816","unstakeEsZus(uint256)":"1c2433e0","unstakeZus(uint256)":"822ac221","weth()":"3fc8cef3","withdrawToken(address,address,uint256)":"01e33667","zlp()":"fe9fe720","zlpManager()":"b6556599","zus()":"02486e08"},"id":124}