{"abi":[{"type":"constructor","inputs":[],"stateMutability":"nonpayable"},{"type":"receive","stateMutability":"payable"},{"type":"function","name":"PRICE_PRECISION","inputs":[],"outputs":[{"name":"","type":"uint256","internalType":"uint256"}],"stateMutability":"view"},{"type":"function","name":"USDG_PRECISION","inputs":[],"outputs":[{"name":"","type":"uint256","internalType":"uint256"}],"stateMutability":"view"},{"type":"function","name":"acceptGov","inputs":[],"outputs":[],"stateMutability":"nonpayable"},{"type":"function","name":"cancelDecreaseOrder","inputs":[{"name":"_orderIndex","type":"uint256","internalType":"uint256"}],"outputs":[],"stateMutability":"nonpayable"},{"type":"function","name":"cancelDecreaseOrderAdmin","inputs":[{"name":"_address","type":"address","internalType":"address"},{"name":"_orderIndex","type":"uint256","internalType":"uint256"}],"outputs":[],"stateMutability":"nonpayable"},{"type":"function","name":"cancelGovProposal","inputs":[{"name":"_gov","type":"address","internalType":"address"}],"outputs":[],"stateMutability":"nonpayable"},{"type":"function","name":"cancelIncreaseOrder","inputs":[{"name":"_orderIndex","type":"uint256","internalType":"uint256"}],"outputs":[],"stateMutability":"nonpayable"},{"type":"function","name":"cancelIncreaseOrderAdmin","inputs":[{"name":"_address","type":"address","internalType":"address"},{"name":"_orderIndex","type":"uint256","internalType":"uint256"}],"outputs":[],"stateMutability":"nonpayable"},{"type":"function","name":"cancelMultiple","inputs":[{"name":"_swapOrderIndexes","type":"uint256[]","internalType":"uint256[]"},{"name":"_increaseOrderIndexes","type":"uint256[]","internalType":"uint256[]"},{"name":"_decreaseOrderIndexes","type":"uint256[]","internalType":"uint256[]"}],"outputs":[],"stateMutability":"nonpayable"},{"type":"function","name":"cancelSwapOrder","inputs":[{"name":"_orderIndex","type":"uint256","internalType":"uint256"}],"outputs":[],"stateMutability":"nonpayable"},{"type":"function","name":"createDecreaseOrder","inputs":[{"name":"_indexToken","type":"address","internalType":"address"},{"name":"_sizeDelta","type":"uint256","internalType":"uint256"},{"name":"_collateralToken","type":"address","internalType":"address"},{"name":"_collateralDelta","type":"uint256","internalType":"uint256"},{"name":"_isLong","type":"bool","internalType":"bool"},{"name":"_triggerPrice","type":"uint256","internalType":"uint256"},{"name":"_triggerAboveThreshold","type":"bool","internalType":"bool"}],"outputs":[],"stateMutability":"payable"},{"type":"function","name":"createDecreaseOrderAttached","inputs":[{"name":"_indexToken","type":"address","internalType":"address"},{"name":"_sizeDelta","type":"uint256","internalType":"uint256"},{"name":"_collateralToken","type":"address","internalType":"address"},{"name":"_collateralDelta","type":"uint256","internalType":"uint256"},{"name":"_isLong","type":"bool","internalType":"bool"},{"name":"_triggerPrice","type":"uint256","internalType":"uint256"},{"name":"_triggerAboveThreshold","type":"bool","internalType":"bool"},{"name":"_key","type":"bytes32","internalType":"bytes32"}],"outputs":[],"stateMutability":"payable"},{"type":"function","name":"createIncreaseOrder","inputs":[{"name":"_path","type":"address[]","internalType":"address[]"},{"name":"_amountIn","type":"uint256","internalType":"uint256"},{"name":"_indexToken","type":"address","internalType":"address"},{"name":"_minOut","type":"uint256","internalType":"uint256"},{"name":"_sizeDelta","type":"uint256","internalType":"uint256"},{"name":"_collateralToken","type":"address","internalType":"address"},{"name":"_isLong","type":"bool","internalType":"bool"},{"name":"_triggerPrice","type":"uint256","internalType":"uint256"},{"name":"_triggerAboveThreshold","type":"bool","internalType":"bool"},{"name":"_executionFee","type":"uint256","internalType":"uint256"},{"name":"_shouldWrap","type":"bool","internalType":"bool"}],"outputs":[],"stateMutability":"payable"},{"type":"function","name":"createIncreaseOrderAttached","inputs":[{"name":"_path","type":"address[]","internalType":"address[]"},{"name":"_amountIn","type":"uint256","internalType":"uint256"},{"name":"_indexToken","type":"address","internalType":"address"},{"name":"_minOut","type":"uint256","internalType":"uint256"},{"name":"_sizeDelta","type":"uint256","internalType":"uint256"},{"name":"_collateralToken","type":"address","internalType":"address"},{"name":"_isLong","type":"bool","internalType":"bool"},{"name":"_triggerPrice","type":"uint256","internalType":"uint256"},{"name":"_triggerAboveThreshold","type":"bool","internalType":"bool"},{"name":"_executionFee","type":"uint256","internalType":"uint256"},{"name":"_shouldWrap","type":"bool","internalType":"bool"},{"name":"key","type":"bytes32","internalType":"bytes32"}],"outputs":[],"stateMutability":"payable"},{"type":"function","name":"createSwapOrder","inputs":[{"name":"_path","type":"address[]","internalType":"address[]"},{"name":"_amountIn","type":"uint256","internalType":"uint256"},{"name":"_minOut","type":"uint256","internalType":"uint256"},{"name":"_triggerRatio","type":"uint256","internalType":"uint256"},{"name":"_triggerAboveThreshold","type":"bool","internalType":"bool"},{"name":"_executionFee","type":"uint256","internalType":"uint256"},{"name":"_shouldWrap","type":"bool","internalType":"bool"},{"name":"_shouldUnwrap","type":"bool","internalType":"bool"}],"outputs":[],"stateMutability":"payable"},{"type":"function","name":"decreaseOrders","inputs":[{"name":"","type":"address","internalType":"address"},{"name":"","type":"uint256","internalType":"uint256"}],"outputs":[{"name":"account","type":"address","internalType":"address"},{"name":"collateralToken","type":"address","internalType":"address"},{"name":"collateralDelta","type":"uint256","internalType":"uint256"},{"name":"indexToken","type":"address","internalType":"address"},{"name":"sizeDelta","type":"uint256","internalType":"uint256"},{"name":"isLong","type":"bool","internalType":"bool"},{"name":"triggerPrice","type":"uint256","internalType":"uint256"},{"name":"triggerAboveThreshold","type":"bool","internalType":"bool"},{"name":"executionFee","type":"uint256","internalType":"uint256"}],"stateMutability":"view"},{"type":"function","name":"decreaseOrdersIndex","inputs":[{"name":"","type":"address","internalType":"address"}],"outputs":[{"name":"","type":"uint256","internalType":"uint256"}],"stateMutability":"view"},{"type":"function","name":"executeDecreaseOrder","inputs":[{"name":"_address","type":"address","internalType":"address"},{"name":"_orderIndex","type":"uint256","internalType":"uint256"},{"name":"_feeReceiver","type":"address","internalType":"address payable"}],"outputs":[],"stateMutability":"nonpayable"},{"type":"function","name":"executeIncreaseOrder","inputs":[{"name":"_address","type":"address","internalType":"address"},{"name":"_orderIndex","type":"uint256","internalType":"uint256"},{"name":"_feeReceiver","type":"address","internalType":"address payable"}],"outputs":[],"stateMutability":"nonpayable"},{"type":"function","name":"executeSwapOrder","inputs":[{"name":"_account","type":"address","internalType":"address"},{"name":"_orderIndex","type":"uint256","internalType":"uint256"},{"name":"_feeReceiver","type":"address","internalType":"address payable"}],"outputs":[],"stateMutability":"nonpayable"},{"type":"function","name":"getDecreaseOrder","inputs":[{"name":"_account","type":"address","internalType":"address"},{"name":"_orderIndex","type":"uint256","internalType":"uint256"}],"outputs":[{"name":"collateralToken","type":"address","internalType":"address"},{"name":"collateralDelta","type":"uint256","internalType":"uint256"},{"name":"indexToken","type":"address","internalType":"address"},{"name":"sizeDelta","type":"uint256","internalType":"uint256"},{"name":"isLong","type":"bool","internalType":"bool"},{"name":"triggerPrice","type":"uint256","internalType":"uint256"},{"name":"triggerAboveThreshold","type":"bool","internalType":"bool"},{"name":"executionFee","type":"uint256","internalType":"uint256"}],"stateMutability":"view"},{"type":"function","name":"getIncreaseOrder","inputs":[{"name":"_account","type":"address","internalType":"address"},{"name":"_orderIndex","type":"uint256","internalType":"uint256"}],"outputs":[{"name":"purchaseToken","type":"address","internalType":"address"},{"name":"purchaseTokenAmount","type":"uint256","internalType":"uint256"},{"name":"collateralToken","type":"address","internalType":"address"},{"name":"indexToken","type":"address","internalType":"address"},{"name":"sizeDelta","type":"uint256","internalType":"uint256"},{"name":"isLong","type":"bool","internalType":"bool"},{"name":"triggerPrice","type":"uint256","internalType":"uint256"},{"name":"triggerAboveThreshold","type":"bool","internalType":"bool"},{"name":"executionFee","type":"uint256","internalType":"uint256"}],"stateMutability":"view"},{"type":"function","name":"getSwapOrder","inputs":[{"name":"_account","type":"address","internalType":"address"},{"name":"_orderIndex","type":"uint256","internalType":"uint256"}],"outputs":[{"name":"path0","type":"address","internalType":"address"},{"name":"path1","type":"address","internalType":"address"},{"name":"path2","type":"address","internalType":"address"},{"name":"amountIn","type":"uint256","internalType":"uint256"},{"name":"minOut","type":"uint256","internalType":"uint256"},{"name":"triggerRatio","type":"uint256","internalType":"uint256"},{"name":"triggerAboveThreshold","type":"bool","internalType":"bool"},{"name":"shouldUnwrap","type":"bool","internalType":"bool"},{"name":"executionFee","type":"uint256","internalType":"uint256"}],"stateMutability":"view"},{"type":"function","name":"getUsdgMinPrice","inputs":[{"name":"_otherToken","type":"address","internalType":"address"}],"outputs":[{"name":"","type":"uint256","internalType":"uint256"}],"stateMutability":"view"},{"type":"function","name":"gov","inputs":[],"outputs":[{"name":"","type":"address","internalType":"address"}],"stateMutability":"view"},{"type":"function","name":"govProposals","inputs":[{"name":"","type":"address","internalType":"address"}],"outputs":[{"name":"deadline","type":"uint256","internalType":"uint256"},{"name":"isActive","type":"bool","internalType":"bool"}],"stateMutability":"view"},{"type":"function","name":"increaseOrders","inputs":[{"name":"","type":"address","internalType":"address"},{"name":"","type":"uint256","internalType":"uint256"}],"outputs":[{"name":"account","type":"address","internalType":"address"},{"name":"purchaseToken","type":"address","internalType":"address"},{"name":"purchaseTokenAmount","type":"uint256","internalType":"uint256"},{"name":"collateralToken","type":"address","internalType":"address"},{"name":"indexToken","type":"address","internalType":"address"},{"name":"sizeDelta","type":"uint256","internalType":"uint256"},{"name":"isLong","type":"bool","internalType":"bool"},{"name":"triggerPrice","type":"uint256","internalType":"uint256"},{"name":"triggerAboveThreshold","type":"bool","internalType":"bool"},{"name":"executionFee","type":"uint256","internalType":"uint256"}],"stateMutability":"view"},{"type":"function","name":"increaseOrdersIndex","inputs":[{"name":"","type":"address","internalType":"address"}],"outputs":[{"name":"","type":"uint256","internalType":"uint256"}],"stateMutability":"view"},{"type":"function","name":"initialize","inputs":[{"name":"_router","type":"address","internalType":"address"},{"name":"_vault","type":"address","internalType":"address"},{"name":"_weth","type":"address","internalType":"address"},{"name":"_usdg","type":"address","internalType":"address"},{"name":"_minExecutionFee","type":"uint256","internalType":"uint256"},{"name":"_minPurchaseTokenAmountUsd","type":"uint256","internalType":"uint256"}],"outputs":[],"stateMutability":"nonpayable"},{"type":"function","name":"isInitialized","inputs":[],"outputs":[{"name":"","type":"bool","internalType":"bool"}],"stateMutability":"view"},{"type":"function","name":"minExecutionFee","inputs":[],"outputs":[{"name":"","type":"uint256","internalType":"uint256"}],"stateMutability":"view"},{"type":"function","name":"minPurchaseTokenAmountUsd","inputs":[],"outputs":[{"name":"","type":"uint256","internalType":"uint256"}],"stateMutability":"view"},{"type":"function","name":"router","inputs":[],"outputs":[{"name":"","type":"address","internalType":"address"}],"stateMutability":"view"},{"type":"function","name":"setGov","inputs":[{"name":"_gov","type":"address","internalType":"address"}],"outputs":[],"stateMutability":"nonpayable"},{"type":"function","name":"setGovWithDeadline","inputs":[{"name":"_gov","type":"address","internalType":"address"},{"name":"_deadline","type":"uint256","internalType":"uint256"}],"outputs":[],"stateMutability":"nonpayable"},{"type":"function","name":"setMinExecutionFee","inputs":[{"name":"_minExecutionFee","type":"uint256","internalType":"uint256"}],"outputs":[],"stateMutability":"nonpayable"},{"type":"function","name":"setMinPurchaseTokenAmountUsd","inputs":[{"name":"_minPurchaseTokenAmountUsd","type":"uint256","internalType":"uint256"}],"outputs":[],"stateMutability":"nonpayable"},{"type":"function","name":"swapOrders","inputs":[{"name":"","type":"address","internalType":"address"},{"name":"","type":"uint256","internalType":"uint256"}],"outputs":[{"name":"account","type":"address","internalType":"address"},{"name":"amountIn","type":"uint256","internalType":"uint256"},{"name":"minOut","type":"uint256","internalType":"uint256"},{"name":"triggerRatio","type":"uint256","internalType":"uint256"},{"name":"triggerAboveThreshold","type":"bool","internalType":"bool"},{"name":"shouldUnwrap","type":"bool","internalType":"bool"},{"name":"executionFee","type":"uint256","internalType":"uint256"}],"stateMutability":"view"},{"type":"function","name":"swapOrdersIndex","inputs":[{"name":"","type":"address","internalType":"address"}],"outputs":[{"name":"","type":"uint256","internalType":"uint256"}],"stateMutability":"view"},{"type":"function","name":"updateDecreaseOrder","inputs":[{"name":"_orderIndex","type":"uint256","internalType":"uint256"},{"name":"_collateralDelta","type":"uint256","internalType":"uint256"},{"name":"_sizeDelta","type":"uint256","internalType":"uint256"},{"name":"_triggerPrice","type":"uint256","internalType":"uint256"},{"name":"_triggerAboveThreshold","type":"bool","internalType":"bool"}],"outputs":[],"stateMutability":"nonpayable"},{"type":"function","name":"updateIncreaseOrder","inputs":[{"name":"_orderIndex","type":"uint256","internalType":"uint256"},{"name":"_sizeDelta","type":"uint256","internalType":"uint256"},{"name":"_triggerPrice","type":"uint256","internalType":"uint256"},{"name":"_triggerAboveThreshold","type":"bool","internalType":"bool"}],"outputs":[],"stateMutability":"nonpayable"},{"type":"function","name":"updateSwapOrder","inputs":[{"name":"_orderIndex","type":"uint256","internalType":"uint256"},{"name":"_minOut","type":"uint256","internalType":"uint256"},{"name":"_triggerRatio","type":"uint256","internalType":"uint256"},{"name":"_triggerAboveThreshold","type":"bool","internalType":"bool"}],"outputs":[],"stateMutability":"nonpayable"},{"type":"function","name":"usdg","inputs":[],"outputs":[{"name":"","type":"address","internalType":"address"}],"stateMutability":"view"},{"type":"function","name":"validatePositionOrderPrice","inputs":[{"name":"_triggerAboveThreshold","type":"bool","internalType":"bool"},{"name":"_triggerPrice","type":"uint256","internalType":"uint256"},{"name":"_indexToken","type":"address","internalType":"address"},{"name":"_maximizePrice","type":"bool","internalType":"bool"},{"name":"_raise","type":"bool","internalType":"bool"}],"outputs":[{"name":"","type":"uint256","internalType":"uint256"},{"name":"","type":"bool","internalType":"bool"}],"stateMutability":"view"},{"type":"function","name":"validateSwapOrderPriceWithTriggerAboveThreshold","inputs":[{"name":"_path","type":"address[]","internalType":"address[]"},{"name":"_triggerRatio","type":"uint256","internalType":"uint256"}],"outputs":[{"name":"","type":"bool","internalType":"bool"}],"stateMutability":"view"},{"type":"function","name":"vault","inputs":[],"outputs":[{"name":"","type":"address","internalType":"address"}],"stateMutability":"view"},{"type":"function","name":"weth","inputs":[],"outputs":[{"name":"","type":"address","internalType":"address"}],"stateMutability":"view"},{"type":"event","name":"CancelDecreaseOrder","inputs":[{"name":"account","type":"address","indexed":true,"internalType":"address"},{"name":"orderIndex","type":"uint256","indexed":false,"internalType":"uint256"},{"name":"collateralToken","type":"address","indexed":false,"internalType":"address"},{"name":"collateralDelta","type":"uint256","indexed":false,"internalType":"uint256"},{"name":"indexToken","type":"address","indexed":false,"internalType":"address"},{"name":"sizeDelta","type":"uint256","indexed":false,"internalType":"uint256"},{"name":"isLong","type":"bool","indexed":false,"internalType":"bool"},{"name":"triggerPrice","type":"uint256","indexed":false,"internalType":"uint256"},{"name":"triggerAboveThreshold","type":"bool","indexed":false,"internalType":"bool"},{"name":"executionFee","type":"uint256","indexed":false,"internalType":"uint256"}],"anonymous":false},{"type":"event","name":"CancelIncreaseOrder","inputs":[{"name":"account","type":"address","indexed":true,"internalType":"address"},{"name":"orderIndex","type":"uint256","indexed":false,"internalType":"uint256"},{"name":"purchaseToken","type":"address","indexed":false,"internalType":"address"},{"name":"purchaseTokenAmount","type":"uint256","indexed":false,"internalType":"uint256"},{"name":"collateralToken","type":"address","indexed":false,"internalType":"address"},{"name":"indexToken","type":"address","indexed":false,"internalType":"address"},{"name":"sizeDelta","type":"uint256","indexed":false,"internalType":"uint256"},{"name":"isLong","type":"bool","indexed":false,"internalType":"bool"},{"name":"triggerPrice","type":"uint256","indexed":false,"internalType":"uint256"},{"name":"triggerAboveThreshold","type":"bool","indexed":false,"internalType":"bool"},{"name":"executionFee","type":"uint256","indexed":false,"internalType":"uint256"}],"anonymous":false},{"type":"event","name":"CancelSwapOrder","inputs":[{"name":"account","type":"address","indexed":true,"internalType":"address"},{"name":"orderIndex","type":"uint256","indexed":false,"internalType":"uint256"},{"name":"path","type":"address[]","indexed":false,"internalType":"address[]"},{"name":"amountIn","type":"uint256","indexed":false,"internalType":"uint256"},{"name":"minOut","type":"uint256","indexed":false,"internalType":"uint256"},{"name":"triggerRatio","type":"uint256","indexed":false,"internalType":"uint256"},{"name":"triggerAboveThreshold","type":"bool","indexed":false,"internalType":"bool"},{"name":"shouldUnwrap","type":"bool","indexed":false,"internalType":"bool"},{"name":"executionFee","type":"uint256","indexed":false,"internalType":"uint256"}],"anonymous":false},{"type":"event","name":"CreateDecreaseOrder","inputs":[{"name":"account","type":"address","indexed":true,"internalType":"address"},{"name":"orderIndex","type":"uint256","indexed":false,"internalType":"uint256"},{"name":"collateralToken","type":"address","indexed":false,"internalType":"address"},{"name":"collateralDelta","type":"uint256","indexed":false,"internalType":"uint256"},{"name":"indexToken","type":"address","indexed":false,"internalType":"address"},{"name":"sizeDelta","type":"uint256","indexed":false,"internalType":"uint256"},{"name":"isLong","type":"bool","indexed":false,"internalType":"bool"},{"name":"triggerPrice","type":"uint256","indexed":false,"internalType":"uint256"},{"name":"triggerAboveThreshold","type":"bool","indexed":false,"internalType":"bool"},{"name":"executionFee","type":"uint256","indexed":false,"internalType":"uint256"}],"anonymous":false},{"type":"event","name":"CreateDecreaseOrderAttached","inputs":[{"name":"account","type":"address","indexed":true,"internalType":"address"},{"name":"orderIndex","type":"uint256","indexed":false,"internalType":"uint256"},{"name":"isLong","type":"bool","indexed":false,"internalType":"bool"},{"name":"key","type":"bytes32","indexed":false,"internalType":"bytes32"}],"anonymous":false},{"type":"event","name":"CreateIncreaseOrder","inputs":[{"name":"account","type":"address","indexed":true,"internalType":"address"},{"name":"orderIndex","type":"uint256","indexed":false,"internalType":"uint256"},{"name":"purchaseToken","type":"address","indexed":false,"internalType":"address"},{"name":"purchaseTokenAmount","type":"uint256","indexed":false,"internalType":"uint256"},{"name":"collateralToken","type":"address","indexed":false,"internalType":"address"},{"name":"indexToken","type":"address","indexed":false,"internalType":"address"},{"name":"sizeDelta","type":"uint256","indexed":false,"internalType":"uint256"},{"name":"isLong","type":"bool","indexed":false,"internalType":"bool"},{"name":"triggerPrice","type":"uint256","indexed":false,"internalType":"uint256"},{"name":"triggerAboveThreshold","type":"bool","indexed":false,"internalType":"bool"},{"name":"executionFee","type":"uint256","indexed":false,"internalType":"uint256"}],"anonymous":false},{"type":"event","name":"CreateIncreaseOrderAttached","inputs":[{"name":"account","type":"address","indexed":true,"internalType":"address"},{"name":"orderIndex","type":"uint256","indexed":false,"internalType":"uint256"},{"name":"isLong","type":"bool","indexed":false,"internalType":"bool"},{"name":"key","type":"bytes32","indexed":false,"internalType":"bytes32"}],"anonymous":false},{"type":"event","name":"CreateSwapOrder","inputs":[{"name":"account","type":"address","indexed":true,"internalType":"address"},{"name":"orderIndex","type":"uint256","indexed":false,"internalType":"uint256"},{"name":"path","type":"address[]","indexed":false,"internalType":"address[]"},{"name":"amountIn","type":"uint256","indexed":false,"internalType":"uint256"},{"name":"minOut","type":"uint256","indexed":false,"internalType":"uint256"},{"name":"triggerRatio","type":"uint256","indexed":false,"internalType":"uint256"},{"name":"triggerAboveThreshold","type":"bool","indexed":false,"internalType":"bool"},{"name":"shouldUnwrap","type":"bool","indexed":false,"internalType":"bool"},{"name":"executionFee","type":"uint256","indexed":false,"internalType":"uint256"}],"anonymous":false},{"type":"event","name":"ExecuteDecreaseOrder","inputs":[{"name":"account","type":"address","indexed":true,"internalType":"address"},{"name":"orderIndex","type":"uint256","indexed":false,"internalType":"uint256"},{"name":"collateralToken","type":"address","indexed":false,"internalType":"address"},{"name":"collateralDelta","type":"uint256","indexed":false,"internalType":"uint256"},{"name":"indexToken","type":"address","indexed":false,"internalType":"address"},{"name":"sizeDelta","type":"uint256","indexed":false,"internalType":"uint256"},{"name":"isLong","type":"bool","indexed":false,"internalType":"bool"},{"name":"triggerPrice","type":"uint256","indexed":false,"internalType":"uint256"},{"name":"triggerAboveThreshold","type":"bool","indexed":false,"internalType":"bool"},{"name":"executionFee","type":"uint256","indexed":false,"internalType":"uint256"},{"name":"executionPrice","type":"uint256","indexed":false,"internalType":"uint256"}],"anonymous":false},{"type":"event","name":"ExecuteIncreaseOrder","inputs":[{"name":"account","type":"address","indexed":true,"internalType":"address"},{"name":"orderIndex","type":"uint256","indexed":false,"internalType":"uint256"},{"name":"purchaseToken","type":"address","indexed":false,"internalType":"address"},{"name":"purchaseTokenAmount","type":"uint256","indexed":false,"internalType":"uint256"},{"name":"collateralToken","type":"address","indexed":false,"internalType":"address"},{"name":"indexToken","type":"address","indexed":false,"internalType":"address"},{"name":"sizeDelta","type":"uint256","indexed":false,"internalType":"uint256"},{"name":"isLong","type":"bool","indexed":false,"internalType":"bool"},{"name":"triggerPrice","type":"uint256","indexed":false,"internalType":"uint256"},{"name":"triggerAboveThreshold","type":"bool","indexed":false,"internalType":"bool"},{"name":"executionFee","type":"uint256","indexed":false,"internalType":"uint256"},{"name":"executionPrice","type":"uint256","indexed":false,"internalType":"uint256"}],"anonymous":false},{"type":"event","name":"ExecuteSwapOrder","inputs":[{"name":"account","type":"address","indexed":true,"internalType":"address"},{"name":"orderIndex","type":"uint256","indexed":false,"internalType":"uint256"},{"name":"path","type":"address[]","indexed":false,"internalType":"address[]"},{"name":"amountIn","type":"uint256","indexed":false,"internalType":"uint256"},{"name":"minOut","type":"uint256","indexed":false,"internalType":"uint256"},{"name":"amountOut","type":"uint256","indexed":false,"internalType":"uint256"},{"name":"triggerRatio","type":"uint256","indexed":false,"internalType":"uint256"},{"name":"triggerAboveThreshold","type":"bool","indexed":false,"internalType":"bool"},{"name":"shouldUnwrap","type":"bool","indexed":false,"internalType":"bool"},{"name":"executionFee","type":"uint256","indexed":false,"internalType":"uint256"}],"anonymous":false},{"type":"event","name":"GovernanceTransferRequested","inputs":[{"name":"newGov","type":"address","indexed":true,"internalType":"address"},{"name":"deadline","type":"uint256","indexed":false,"internalType":"uint256"}],"anonymous":false},{"type":"event","name":"GovernanceTransferred","inputs":[{"name":"oldGov","type":"address","indexed":true,"internalType":"address"},{"name":"newGov","type":"address","indexed":true,"internalType":"address"}],"anonymous":false},{"type":"event","name":"Initialize","inputs":[{"name":"router","type":"address","indexed":false,"internalType":"address"},{"name":"vault","type":"address","indexed":false,"internalType":"address"},{"name":"weth","type":"address","indexed":false,"internalType":"address"},{"name":"usdg","type":"address","indexed":false,"internalType":"address"},{"name":"minExecutionFee","type":"uint256","indexed":false,"internalType":"uint256"},{"name":"minPurchaseTokenAmountUsd","type":"uint256","indexed":false,"internalType":"uint256"}],"anonymous":false},{"type":"event","name":"UpdateDecreaseOrder","inputs":[{"name":"account","type":"address","indexed":true,"internalType":"address"},{"name":"orderIndex","type":"uint256","indexed":false,"internalType":"uint256"},{"name":"collateralToken","type":"address","indexed":false,"internalType":"address"},{"name":"collateralDelta","type":"uint256","indexed":false,"internalType":"uint256"},{"name":"indexToken","type":"address","indexed":false,"internalType":"address"},{"name":"sizeDelta","type":"uint256","indexed":false,"internalType":"uint256"},{"name":"isLong","type":"bool","indexed":false,"internalType":"bool"},{"name":"triggerPrice","type":"uint256","indexed":false,"internalType":"uint256"},{"name":"triggerAboveThreshold","type":"bool","indexed":false,"internalType":"bool"}],"anonymous":false},{"type":"event","name":"UpdateGov","inputs":[{"name":"gov","type":"address","indexed":false,"internalType":"address"}],"anonymous":false},{"type":"event","name":"UpdateIncreaseOrder","inputs":[{"name":"account","type":"address","indexed":true,"internalType":"address"},{"name":"orderIndex","type":"uint256","indexed":false,"internalType":"uint256"},{"name":"collateralToken","type":"address","indexed":false,"internalType":"address"},{"name":"indexToken","type":"address","indexed":false,"internalType":"address"},{"name":"isLong","type":"bool","indexed":false,"internalType":"bool"},{"name":"sizeDelta","type":"uint256","indexed":false,"internalType":"uint256"},{"name":"triggerPrice","type":"uint256","indexed":false,"internalType":"uint256"},{"name":"triggerAboveThreshold","type":"bool","indexed":false,"internalType":"bool"}],"anonymous":false},{"type":"event","name":"UpdateMinExecutionFee","inputs":[{"name":"minExecutionFee","type":"uint256","indexed":false,"internalType":"uint256"}],"anonymous":false},{"type":"event","name":"UpdateMinPurchaseTokenAmountUsd","inputs":[{"name":"minPurchaseTokenAmountUsd","type":"uint256","indexed":false,"internalType":"uint256"}],"anonymous":false},{"type":"event","name":"UpdateSwapOrder","inputs":[{"name":"account","type":"address","indexed":true,"internalType":"address"},{"name":"orderIndex","type":"uint256","indexed":false,"internalType":"uint256"},{"name":"path","type":"address[]","indexed":false,"internalType":"address[]"},{"name":"amountIn","type":"uint256","indexed":false,"internalType":"uint256"},{"name":"minOut","type":"uint256","indexed":false,"internalType":"uint256"},{"name":"triggerRatio","type":"uint256","indexed":false,"internalType":"uint256"},{"name":"triggerAboveThreshold","type":"bool","indexed":false,"internalType":"bool"},{"name":"shouldUnwrap","type":"bool","indexed":false,"internalType":"bool"},{"name":"executionFee","type":"uint256","indexed":false,"internalType":"uint256"}],"anonymous":false}],"bytecode":{"object":"0x6080604052600f805460ff1916905534801561001a57600080fd5b50600880546001600160a01b031916331790556161cc806200003d6000396000f3fe60806040526004361061022b5760003560e01c806395082d251161012a57806395082d2514610ad45780639983ee1b14610ae95780639c35b49714610b275780639e23de5c14610b5a5780639e71b0f014610b8d578063a397ea5414610bb7578063aec2245514610bfb578063b142a4b014610c2e578063c16cde8a14610d18578063c4a1821b14610d68578063c86b0f7d14610e18578063cfad57a214610e56578063d0d40cd614610e89578063d38ab51914610f1c578063d3bab1d114610f5f578063d566d0ca14610ff3578063d7c41c7914611026578063f2d2e01b1461107f578063f5b91b7b14611113578063f882ac0714611128578063f887ea4014611152578063f997c30614611167578063fbfa77cf146111be578063fc2cee62146111d35761028d565b8062cf066b14610292578063026032ee146102d757806307c7edc3146103625780630d5cc938146103a557806311d9444a146103cf57806312d43a511461041257806313bd39d714610443578063269ae6c21461047c5780632b7d629014610547578063392e53cd146105e75780633fc8cef31461061057806347e0bbd0146106255780634a686d671461064f5780634c54f0b014610664578063611c86a8146106ce57806363ae210314610707578063686a17b01461071c5780636bb22fd71461080d57806379221fa2146108465780637bc6729b146108c5578063807c5600146108da5780638d0fedb014610a8c5780638de10c2e14610abf5761028d565b3661028d576009546001600160a01b0316331461028b576040805162461bcd60e51b815260206004820152601960248201527827b93232b92137b7b59d1034b73b30b634b21039b2b73232b960391b604482015290519081900360640190fd5b005b600080fd5b34801561029e57600080fd5b506102c5600480360360208110156102b557600080fd5b50356001600160a01b03166111fd565b60408051918252519081900360200190f35b3480156102e357600080fd5b50610310600480360360408110156102fa57600080fd5b506001600160a01b03813516906020013561120f565b604080516001600160a01b03998a168152602081019890985295909716868601526060860193909352901515608085015260a0840152151560c083015260e08201929092529051908190036101000190f35b34801561036e57600080fd5b5061028b6004803603606081101561038557600080fd5b506001600160a01b038135811691602081013591604090910135166112e2565b3480156103b157600080fd5b5061028b600480360360208110156103c857600080fd5b50356116ed565b3480156103db57600080fd5b5061028b600480360360608110156103f257600080fd5b506001600160a01b03813581169160208101359160409091013516611775565b34801561041e57600080fd5b50610427611b24565b604080516001600160a01b039092168252519081900360200190f35b34801561044f57600080fd5b5061028b6004803603604081101561046657600080fd5b506001600160a01b038135169060200135611b33565b61028b600480360361010081101561049357600080fd5b810190602081018135600160201b8111156104ad57600080fd5b8201836020820111156104bf57600080fd5b803590602001918460208302840111600160201b831117156104e057600080fd5b91908080602002602001604051908101604052809392919081815260200183836020028082843760009201919091525092955050823593505050602081013590604081013590606081013515159060808101359060a081013515159060c001351515611dfc565b34801561055357600080fd5b506105806004803603604081101561056a57600080fd5b506001600160a01b038135169060200135612185565b604080516001600160a01b039b8c168152998b1660208b015289810198909852958916606089015293909716608087015260a0860191909152151560c085015260e08401949094529215156101008301526101208201929092529051908190036101400190f35b3480156105f357600080fd5b506105fc6121f7565b604080519115158252519081900360200190f35b34801561061c57600080fd5b50610427612200565b34801561063157600080fd5b5061028b6004803603602081101561064857600080fd5b503561220f565b34801561065b57600080fd5b506102c5612517565b34801561067057600080fd5b506106b5600480360360a081101561068757600080fd5b5080351515906020810135906001600160a01b03604082013516906060810135151590608001351515612523565b6040805192835290151560208301528051918290030190f35b3480156106da57600080fd5b5061028b600480360360408110156106f157600080fd5b506001600160a01b03813516906020013561268c565b34801561071357600080fd5b506102c56129e6565b61028b600480360361018081101561073357600080fd5b810190602081018135600160201b81111561074d57600080fd5b82018360208201111561075f57600080fd5b803590602001918460208302840111600160201b8311171561078057600080fd5b9190808060200260200160405190810160405280939291908181526020018383602002808284376000920191909152509295505082359350506001600160a01b036020830135811692604081013592506060810135916080820135169060a081013515159060c08101359060e08101351515906101008101359061012081013515159061014001356129ec565b34801561081957600080fd5b5061028b6004803603604081101561083057600080fd5b506001600160a01b038135169060200135612a62565b34801561085257600080fd5b5061087f6004803603604081101561086957600080fd5b506001600160a01b038135169060200135612b75565b604080516001600160a01b039098168852602088019690965286860194909452606086019290925215156080850152151560a084015260c0830152519081900360e00190f35b3480156108d157600080fd5b5061028b612bc9565b3480156108e657600080fd5b5061028b600480360360608110156108fd57600080fd5b810190602081018135600160201b81111561091757600080fd5b82018360208201111561092957600080fd5b803590602001918460208302840111600160201b8311171561094a57600080fd5b9190808060200260200160405190810160405280939291908181526020018383602002808284376000920191909152509295949360208101935035915050600160201b81111561099957600080fd5b8201836020820111156109ab57600080fd5b803590602001918460208302840111600160201b831117156109cc57600080fd5b9190808060200260200160405190810160405280939291908181526020018383602002808284376000920191909152509295949360208101935035915050600160201b811115610a1b57600080fd5b820183602082011115610a2d57600080fd5b803590602001918460208302840111600160201b83111715610a4e57600080fd5b919080806020026020016040519081016040528093929190818152602001838360200280828437600092019190915250929550612cde945050505050565b348015610a9857600080fd5b506106b560048036036020811015610aaf57600080fd5b50356001600160a01b0316612d76565b348015610acb57600080fd5b506102c5612d92565b348015610ae057600080fd5b506102c5612d98565b348015610af557600080fd5b5061028b60048036036080811015610b0c57600080fd5b50803590602081013590604081013590606001351515612da8565b348015610b3357600080fd5b5061028b60048036036020811015610b4a57600080fd5b50356001600160a01b0316612f00565b348015610b6657600080fd5b506102c560048036036020811015610b7d57600080fd5b50356001600160a01b0316612fe4565b348015610b9957600080fd5b5061028b60048036036020811015610bb057600080fd5b503561318e565b348015610bc357600080fd5b5061028b600480360360a0811015610bda57600080fd5b50803590602081013590604081013590606081013590608001351515613400565b348015610c0757600080fd5b506102c560048036036020811015610c1e57600080fd5b50356001600160a01b0316613568565b61028b6004803603610160811015610c4557600080fd5b810190602081018135600160201b811115610c5f57600080fd5b820183602082011115610c7157600080fd5b803590602001918460208302840111600160201b83111715610c9257600080fd5b9190808060200260200160405190810160405280939291908181526020018383602002808284376000920191909152509295505082359350506001600160a01b036020830135811692604081013592506060810135916080820135169060a081013515159060c08101359060e0810135151590610100810135906101200135151561357a565b61028b600480360360e0811015610d2e57600080fd5b506001600160a01b03813581169160208101359160408201351690606081013590608081013515159060a08101359060c00135151561397c565b348015610d7457600080fd5b506105fc60048036036040811015610d8b57600080fd5b810190602081018135600160201b811115610da557600080fd5b820183602082011115610db757600080fd5b803590602001918460208302840111600160201b83111715610dd857600080fd5b9190808060200260200160405190810160405280939291908181526020018383602002808284376000920191909152509295505091359250613a2d915050565b348015610e2457600080fd5b5061028b60048036036080811015610e3b57600080fd5b50803590602081013590604081013590606001351515613c44565b348015610e6257600080fd5b5061028b60048036036020811015610e7957600080fd5b50356001600160a01b0316613e0d565b348015610e9557600080fd5b50610ec260048036036040811015610eac57600080fd5b506001600160a01b038135169060200135613f21565b604080516001600160a01b039a8b168152988a1660208a015296909816878701526060870194909452608086019290925260a0850152151560c0840152151560e08301526101008201929092529051908190036101200190f35b348015610f2857600080fd5b5061028b60048036036060811015610f3f57600080fd5b506001600160a01b038135811691602081013591604090910135166140de565b348015610f6b57600080fd5b50610f9860048036036040811015610f8257600080fd5b506001600160a01b038135169060200135614547565b604080516001600160a01b039a8b1681526020810199909952968916888801529490971660608701526080860192909252151560a085015260c084015292151560e08301526101008201929092529051908190036101200190f35b348015610fff57600080fd5b506102c56004803603602081101561101657600080fd5b50356001600160a01b031661462d565b34801561103257600080fd5b5061028b600480360360c081101561104957600080fd5b506001600160a01b0381358116916020810135821691604082013581169160608101359091169060808101359060a0013561463f565b34801561108b57600080fd5b506110b8600480360360408110156110a257600080fd5b506001600160a01b0381351690602001356147a5565b604080516001600160a01b039a8b168152988a1660208a0152888101979097529490971660608701526080860192909252151560a085015260c084015292151560e08301526101008201929092529051908190036101200190f35b34801561111f57600080fd5b5061042761480f565b34801561113457600080fd5b5061028b6004803603602081101561114b57600080fd5b503561481e565b34801561115e57600080fd5b50610427614b5b565b61028b600480360361010081101561117e57600080fd5b506001600160a01b03813581169160208101359160408201351690606081013590608081013515159060a08101359060c081013515159060e00135614b6a565b3480156111ca57600080fd5b50610427614bd8565b3480156111df57600080fd5b5061028b600480360360208110156111f657600080fd5b5035614be7565b60066020526000908152604090205481565b600080600080600080600080611223615d9a565b505050506001600160a01b03968716600090815260036020818152604080842099845298815291889020885161012081018a5281548b16815260018201548b1693810184905260028201549981018a9052918101549099166060820181905260048a01546080830181905260058b015460ff908116151560a0850181905260068d015460c0860181905260078e0154909216151560e086018190526008909d0154610100909501859052949c9a9b929a91995093975092955093509150565b60026000541415611328576040805162461bcd60e51b815260206004820152601f6024820152600080516020615f64833981519152604482015290519081900360640190fd5b6002600055611335615de6565b6001600160a01b038085166000908152600560209081526040808320878452825291829020825161010081018452815490941684526001810180548451818502810185019095528085529193858401939092908301828280156113c157602002820191906000526020600020905b81546001600160a01b031681526001909101906020018083116113a3575b5050509183525050600282015460208201526003820154604082015260048201546060820152600582015460ff8082161515608084015261010090910416151560a082015260069091015460c09091015280519091506001600160a01b031661145f576040805162461bcd60e51b815260206004820152601d6024820152600080516020615f44833981519152604482015290519081900360640190fd5b8060a00151156114b65761147b81602001518260800151613a2d565b6114b65760405162461bcd60e51b81526004018080602001828103825260268152602001806160f96026913960400191505060405180910390fd5b6001600160a01b0384166000908152600560209081526040808320868452909152812080546001600160a01b0319168155906114f56001830182615e38565b50600060028201819055600382018190556004820181905560058201805461ffff191690556006909101819055600c54604083015160208401518051611568946001600160a01b03909416939061154857fe5b60200260200101516001600160a01b0316614c6f9092919063ffffffff16565b600954602082015180516000926001600160a01b03169190600019810190811061158e57fe5b60200260200101516001600160a01b03161480156115ad57508160c001515b156115da576115c58260200151836060015130614cc6565b90506115d5818360000151614df5565b6115f4565b6115f1826020015183606001518460000151614cc6565b90505b6116028260e0015184614df5565b846001600160a01b03167f7e1fe496989eea92b738a562dbf9c0ae6aa6fcf3f1ef09e95ee4f7603721706b858460200151856040015186606001518688608001518960a001518a60c001518b60e00151604051808a8152602001806020018981526020018881526020018781526020018681526020018515158152602001841515815260200183815260200182810382528a818151815260200191508051906020019060200280838360005b838110156116c65781810151838201526020016116ae565b505050509050019a505050505050505050505060405180910390a250506001600055505050565b6008546001600160a01b0316331461173a576040805162461bcd60e51b81526020600482015260146024820152600080516020615fc7833981519152604482015290519081900360640190fd5b600e8190556040805182815290517fe46d9daf6d25f7615efa1d0183b90ac6759d85014b598e409aadf0fd918d59a69181900360200190a150565b600260005414156117bb576040805162461bcd60e51b815260206004820152601f6024820152600080516020615f64833981519152604482015290519081900360640190fd5b60026000556117c8615d9a565b506001600160a01b03808416600090815260036020818152604080842087855282529283902083516101208101855281548616808252600183015487169382019390935260028201549481019490945291820154909316606083015260048101546080830152600581015460ff908116151560a0840152600682015460c0840152600782015416151560e083015260080154610100820152906118a0576040805162461bcd60e51b815260206004820152601d6024820152600080516020615f44833981519152604482015290519081900360640190fd5b60006118c18260e001518360c0015184606001518560a00151156001612523565b506001600160a01b0380871660009081526003602081815260408084208a8552825280842080546001600160a01b0319908116825560018201805482169055600282018690559381018054909416909355600480840185905560058401805460ff199081169091556006850186905560078501805490911690556008909301849055600b5488518984015160608b01518b85015160808d015160a08e01518751632662166b60e01b8152958c1699860199909952928a16602485015290891660448401526064830152608482015293151560a48501523060c4850152905195965092949290931692632662166b9260e48084019382900301818787803b1580156119ca57600080fd5b505af11580156119de573d6000803e3d6000fd5b505050506040513d60208110156119f457600080fd5b505160095460208501519192506001600160a01b0391821691161415611a2757611a22818460000151614df5565b611a44565b82516020840151611a44916001600160a01b039091169083614c6f565b611a5383610100015185614df5565b82600001516001600160a01b03167f9a382661d6573da86db000471303be6f0b2b1bb66089b08e3c16a85d7b6e94f88685602001518660400151876060015188608001518960a001518a60c001518b60e001518c61010001518c604051808b81526020018a6001600160a01b03168152602001898152602001886001600160a01b03168152602001878152602001861515815260200185815260200184151581526020018381526020018281526020019a505050505050505050505060405180910390a25050600160005550505050565b6008546001600160a01b031681565b60026000541415611b79576040805162461bcd60e51b815260206004820152601f6024820152600080516020615f64833981519152604482015290519081900360640190fd5b60026000556008546001600160a01b03163314611bcb576040805162461bcd60e51b81526020600482015260146024820152600080516020615fc7833981519152604482015290519081900360640190fd5b611bd3615d9a565b506001600160a01b03808316600090815260036020818152604080842086855282529283902083516101208101855281548616808252600183015487169382019390935260028201549481019490945291820154909316606083015260048101546080830152600581015460ff908116151560a0840152600682015460c0840152600782015416151560e08301526008015461010082015290611cab576040805162461bcd60e51b815260206004820152601d6024820152600080516020615f44833981519152604482015290519081900360640190fd5b6001600160a01b0383166000908152600360208181526040808420868552909152822080546001600160a01b03199081168255600182018054821690556002820184905591810180549092169091556004810182905560058101805460ff1990811690915560068201839055600782018054909116905560080155610100810151611d369084614df5565b80600001516001600160a01b03167f1154174c82984656b028c8021671988f60a346497e56fe02554761184f82a0758383602001518460400151856060015186608001518760a001518860c001518960e001518a6101000151604051808a8152602001896001600160a01b03168152602001888152602001876001600160a01b0316815260200186815260200185151581526020018481526020018315158152602001828152602001995050505050505050505060405180910390a25050600160005550565b60026000541415611e42576040805162461bcd60e51b815260206004820152601f6024820152600080516020615f64833981519152604482015290519081900360640190fd5b6002600081905588511480611e58575087516003145b611e97576040805162461bcd60e51b815260206004820152601f602482015260008051602061611f833981519152604482015290519081900360640190fd5b87600189510381518110611ea757fe5b60200260200101516001600160a01b031688600081518110611ec557fe5b60200260200101516001600160a01b03161415611f24576040805162461bcd60e51b815260206004820152601860248201527709ee4c8cae484deded67440d2dcecc2d8d2c840bee0c2e8d60431b604482015290519081900360640190fd5b60008711611f78576040805162461bcd60e51b815260206004820152601c60248201527b27b93232b92137b7b59d1034b73b30b634b2102fb0b6b7bab73a24b760211b604482015290519081900360640190fd5b600d54831015611fb95760405162461bcd60e51b815260040180806020018281038252602581526020018061608d6025913960400191505060405180910390fd5b611fc1614e6e565b811561207c5760095488516001600160a01b03909116908990600090611fe357fe5b60200260200101516001600160a01b0316146120305760405162461bcd60e51b81526004018080602001828103825260258152602001806160686025913960400191505060405180910390fd5b61203a8388614ee0565b34146120775760405162461bcd60e51b81526004018080602001828103825260268152602001806160d36026913960400191505060405180910390fd5b612166565b8234146120ba5760405162461bcd60e51b815260040180806020018281038252602e815260200180616169602e913960400191505060405180910390fd5b600b5488516001600160a01b0390911690631b827878908a906000906120dc57fe5b602002602001015133308b6040518563ffffffff1660e01b815260040180856001600160a01b03168152602001846001600160a01b03168152602001836001600160a01b03168152602001828152602001945050505050600060405180830381600087803b15801561214d57600080fd5b505af1158015612161573d6000803e3d6000fd5b505050505b612176338989898989878a614f38565b50506001600055505050505050565b6001602081815260009384526040808520909152918352912080549181015460028201546003830154600484015460058501546006860154600787015460088801546009909801546001600160a01b03998a1699978816989697958616969490951694929360ff92831693919216908a565b600f5460ff1681565b6009546001600160a01b031681565b60026000541415612255576040805162461bcd60e51b815260206004820152601f6024820152600080516020615f64833981519152604482015290519081900360640190fd5b6002600055612262615e56565b5033600090815260016020818152604080842085855282529283902083516101408101855281546001600160a01b039081168083529483015481169382019390935260028201549481019490945260038101548216606085015260048101549091166080840152600581015460a0840152600681015460ff908116151560c0850152600782015460e0850152600882015416151561010084015260090154610120830152612345576040805162461bcd60e51b815260206004820152601d6024820152600080516020615f44833981519152604482015290519081900360640190fd5b3360009081526001602081815260408084208685528252832080546001600160a01b0319908116825592810180548416905560028101849055600381018054841690556004810180549093169092556005820183905560068201805460ff1990811690915560078301849055600883018054909116905560099182019290925554908201516001600160a01b0390811691161415612407576124026123fc8260400151836101200151614ee090919063ffffffff16565b33614df5565b61243c565b61242d33826040015183602001516001600160a01b0316614c6f9092919063ffffffff16565b61243c81610120015133614df5565b80600001516001600160a01b03167fd500f34e0ec655b7614ae42e1d9c666d5e4dde909a1297829f8c5ecf00805d328383602001518460400151856060015186608001518760a001518860c001518960e001518a61010001518b6101200151604051808b81526020018a6001600160a01b03168152602001898152602001886001600160a01b03168152602001876001600160a01b03168152602001868152602001851515815260200184815260200183151581526020018281526020019a505050505050505050505060405180910390a250506001600055565b670de0b6b3a764000081565b6000806000846125ab57600c54604080516340d3096b60e11b81526001600160a01b038981166004830152915191909216916381a612d6916024808301926020929190829003018186803b15801561257a57600080fd5b505afa15801561258e573d6000803e3d6000fd5b505050506040513d60208110156125a457600080fd5b5051612625565b600c5460408051637092736960e11b81526001600160a01b0389811660048301529151919092169163e124e6d2916024808301926020929190829003018186803b1580156125f857600080fd5b505afa15801561260c573d6000803e3d6000fd5b505050506040513d602081101561262257600080fd5b50515b90506000886126365787821061263a565b8782115b9050841561267e578061267e5760405162461bcd60e51b81526004018080602001828103825260268152602001806160f96026913960400191505060405180910390fd5b909890975095505050505050565b600260005414156126d2576040805162461bcd60e51b815260206004820152601f6024820152600080516020615f64833981519152604482015290519081900360640190fd5b60026000556008546001600160a01b03163314612724576040805162461bcd60e51b81526020600482015260146024820152600080516020615fc7833981519152604482015290519081900360640190fd5b61272c615e56565b506001600160a01b038083166000908152600160208181526040808420868552825292839020835161014081018552815486168082529382015486169281019290925260028101549382019390935260038301548416606082015260048301549093166080840152600582015460a0840152600682015460ff908116151560c0850152600783015460e08501526008830154161515610100840152600990910154610120830152612812576040805162461bcd60e51b815260206004820152601d6024820152600080516020615f44833981519152604482015290519081900360640190fd5b6001600160a01b0380841660009081526001602081815260408084208785528252832080546001600160a01b0319908116825592810180548416905560028101849055600381018054841690556004810180549093169092556005820183905560068201805460ff1990811690915560078301849055600883018054909116905560099182019290925554908301518216911614156128d5576128d06128ca8260400151836101200151614ee090919063ffffffff16565b84614df5565b61290a565b6128fb83826040015183602001516001600160a01b0316614c6f9092919063ffffffff16565b61290a81610120015184614df5565b80600001516001600160a01b03167fd500f34e0ec655b7614ae42e1d9c666d5e4dde909a1297829f8c5ecf00805d328383602001518460400151856060015186608001518760a001518860c001518960e001518a61010001518b6101200151604051808b81526020018a6001600160a01b03168152602001898152602001886001600160a01b03168152602001876001600160a01b03168152602001868152602001851515815260200184815260200183151581526020018281526020019a505050505050505050505060405180910390a25050600160005550565b600d5481565b6129ff8c8c8c8c8c8c8c8c8c8c8c61357a565b336000818152600260209081526040918290205482519081528915159181019190915280820184905290517f5189f947b2af19e2f981b25222067bed767a44e4f892ede897b380d49ba94ff79181900360600190a2505050505050505050505050565b6008546001600160a01b03163314612aaf576040805162461bcd60e51b81526020600482015260146024820152600080516020615fc7833981519152604482015290519081900360640190fd5b6001600160a01b038216612b07576040805162461bcd60e51b815260206004820152601a6024820152794f72646572426f6f6b3a20696e76616c6964206164647265737360301b604482015290519081900360640190fd5b6008546001600160a01b0383811691161415612b67576040805162461bcd60e51b815260206004820152601a6024820152794f72646572426f6f6b3a2073616d6520676f7665726e616e636560301b604482015290519081900360640190fd5b612b718282615147565b5050565b600560208181526000938452604080852090915291835291208054600282015460038301546004840154948401546006909401546001600160a01b03909316949193909260ff808316926101009004169087565b33600090815260076020526040902080544210612c2b576040805162461bcd60e51b815260206004820152601b60248201527a13dc99195c909bdbdace88191958591b1a5b9948195e1c1a5c9959602a1b604482015290519081900360640190fd5b60018082015460ff16151514612c725760405162461bcd60e51b8152600401808060200182810382526021815260200180615fa66021913960400191505060405180910390fd5b6008805433600081815260076020526040808220828155600101805460ff1916905584546001600160a01b031916831790945592516001600160a01b0390921692909183917f5f56bee8cffbe9a78652a74a60705edede02af10b0bbb888ca44b79a0d42ce8091a35050565b60005b8351811015612d0e57612d06848281518110612cf957fe5b602002602001015161481e565b600101612ce1565b5060005b8251811015612d3f57612d37838281518110612d2a57fe5b602002602001015161220f565b600101612d12565b5060005b8151811015612d7057612d68828281518110612d5b57fe5b602002602001015161318e565b600101612d43565b50505050565b6007602052600090815260409020805460019091015460ff1682565b600e5481565b68327cb2734119d3b7a9601e1b81565b60026000541415612dee576040805162461bcd60e51b815260206004820152601f6024820152600080516020615f64833981519152604482015290519081900360640190fd5b60026000908155338152600160209081526040808320878452909152902080546001600160a01b0316612e56576040805162461bcd60e51b815260206004820152601d6024820152600080516020615f44833981519152604482015290519081900360640190fd5b6007810183905560088101805483151560ff19909116811790915560058201859055600382015460048301546006840154604080518a81526001600160a01b039485166020820152929093168284015260ff16151560608201526080810187905260a0810186905260c08101929092525133917f0a0360dd5c354235bbf8d386ba3b24ef8134088e0785677de1504df219d9149a919081900360e00190a250506001600055505050565b6008546001600160a01b03163314612f4d576040805162461bcd60e51b81526020600482015260146024820152600080516020615fc7833981519152604482015290519081900360640190fd5b6001600160a01b03811660009081526007602052604090206001015460ff16612fbd576040805162461bcd60e51b815260206004820152601e60248201527f4f72646572426f6f6b3a2070726f706f73616c206e6f74206163746976650000604482015290519081900360640190fd5b6001600160a01b03166000908152600760205260408120908155600101805460ff19169055565b600c5460408051632c668ec160e01b81526001600160a01b038481166004830152670de0b6b3a76400006024830152915160009384931691632c668ec1916044808301926020929190829003018186803b15801561304157600080fd5b505afa158015613055573d6000803e3d6000fd5b505050506040513d602081101561306b57600080fd5b5051600c54604080516340d3096b60e11b81526001600160a01b038781166004830152915193945060009391909216916381a612d6916024808301926020929190829003018186803b1580156130c057600080fd5b505afa1580156130d4573d6000803e3d6000fd5b505050506040513d60208110156130ea57600080fd5b5051600c54604080516323b95ceb60e21b81526001600160a01b03888116600483015291519394506000939190921691638ee573ac916024808301926020929190829003018186803b15801561313f57600080fd5b505afa158015613153573d6000803e3d6000fd5b505050506040513d602081101561316957600080fd5b50519050613185600a82900a61317f85856151c3565b9061521c565b95945050505050565b600260005414156131d4576040805162461bcd60e51b815260206004820152601f6024820152600080516020615f64833981519152604482015290519081900360640190fd5b60026000556131e1615d9a565b5033600090815260036020818152604080842085855282529283902083516101208101855281546001600160a01b03908116808352600184015482169483019490945260028301549582019590955292810154909316606083015260048301546080830152600583015460ff908116151560a0840152600684015460c0840152600784015416151560e0830152600890920154610100820152906132ba576040805162461bcd60e51b815260206004820152601d6024820152600080516020615f44833981519152604482015290519081900360640190fd5b336000818152600360208181526040808420878552909152822080546001600160a01b03199081168255600182018054821690556002820184905591810180549092169091556004810182905560058101805460ff199081169091556006820183905560078201805490911690556008015561010082015161333b91614df5565b80600001516001600160a01b03167f1154174c82984656b028c8021671988f60a346497e56fe02554761184f82a0758383602001518460400151856060015186608001518760a001518860c001518960e001518a6101000151604051808a8152602001896001600160a01b03168152602001888152602001876001600160a01b0316815260200186815260200185151581526020018481526020018315158152602001828152602001995050505050505050505060405180910390a250506001600055565b60026000541415613446576040805162461bcd60e51b815260206004820152601f6024820152600080516020615f64833981519152604482015290519081900360640190fd5b60026000908155338152600360209081526040808320888452909152902080546001600160a01b03166134ae576040805162461bcd60e51b815260206004820152601d6024820152600080516020615f44833981519152604482015290519081900360640190fd5b6006810183905560078101805483151560ff1990911681179091556004820185905560028201869055600182015460038301546005840154604080518b81526001600160a01b0394851660208201528082018b90529290931660608301526080820188905260ff16151560a082015260c0810186905260e08101929092525133917f75781255bc71c83f89f29e5a2599f2c174a562d2cd8f2e818a47f132e728049891908190036101000190a25050600160005550505050565b60026020526000908152604090205481565b600260005414156135c0576040805162461bcd60e51b815260206004820152601f6024820152600080516020615f64833981519152604482015290519081900360640190fd5b60026000556135cd614e6e565b600d5482101561360e5760405162461bcd60e51b815260040180806020018281038252602581526020018061608d6025913960400191505060405180910390fd5b80156136c9576009548b516001600160a01b03909116908c9060009061363057fe5b60200260200101516001600160a01b03161461367d5760405162461bcd60e51b81526004018080602001828103825260258152602001806160686025913960400191505060405180910390fd5b613687828b614ee0565b34146136c45760405162461bcd60e51b81526004018080602001828103825260268152602001806160d36026913960400191505060405180910390fd5b6137b3565b8134146137075760405162461bcd60e51b815260040180806020018281038252602e815260200180616169602e913960400191505060405180910390fd5b600b548b516001600160a01b0390911690631b827878908d9060009061372957fe5b602002602001015133308e6040518563ffffffff1660e01b815260040180856001600160a01b03168152602001846001600160a01b03168152602001836001600160a01b03168152602001828152602001945050505050600060405180830381600087803b15801561379a57600080fd5b505af11580156137ae573d6000803e3d6000fd5b505050505b60008b60018d5103815181106137c557fe5b60200260200101519050600060018d51111561388a57816001600160a01b03168d6000815181106137f257fe5b60200260200101516001600160a01b03161415613851576040805162461bcd60e51b815260206004820152601860248201527709ee4c8cae484deded67440d2dcecc2d8d2c840bee0c2e8d60431b604482015290519081900360640190fd5b613878600c60009054906101000a90046001600160a01b03168d8f60008151811061154857fe5b6138838d8b30614cc6565b905061388d565b508a5b600c5460408051630a48d5a960e01b81526001600160a01b0385811660048301526024820185905291516000939290921691630a48d5a991604480820192602092909190829003018186803b1580156138e557600080fd5b505afa1580156138f9573d6000803e3d6000fd5b505050506040513d602081101561390f57600080fd5b5051600e549091508110156139555760405162461bcd60e51b8152600401808060200182810382526022815260200180615f846022913960400191505060405180910390fd5b506139683383838b8f8e8d8d8d8d61525b565b505060016000555050505050505050505050565b600260005414156139c2576040805162461bcd60e51b815260206004820152601f6024820152600080516020615f64833981519152604482015290519081900360640190fd5b60026000556139cf614e6e565b600d543411613a0f5760405162461bcd60e51b815260040180806020018281038252602581526020018061608d6025913960400191505060405180910390fd5b613a1f3386868a8a88888861552e565b505060016000555050505050565b6000825160021480613a40575082516003145b613a7f576040805162461bcd60e51b815260206004820152601f602482015260008051602061611f833981519152604482015290519081900360640190fd5b600083600081518110613a8e57fe5b60200260200101519050600084600186510381518110613aaa57fe5b6020908102919091010151600a5490915060009081906001600160a01b0385811691161415613af757613af087600181518110613ae357fe5b6020026020010151612fe4565b9150613b73565b600c54604080516340d3096b60e11b81526001600160a01b038781166004830152915191909216916381a612d6916024808301926020929190829003018186803b158015613b4457600080fd5b505afa158015613b58573d6000803e3d6000fd5b505050506040513d6020811015613b6e57600080fd5b505191505b600a546001600160a01b0384811691161415613b9c575068327cb2734119d3b7a9601e1b613c18565b600c5460408051637092736960e11b81526001600160a01b0386811660048301529151919092169163e124e6d2916024808301926020929190829003018186803b158015613be957600080fd5b505afa158015613bfd573d6000803e3d6000fd5b505050506040513d6020811015613c1357600080fd5b505190505b6000613c348361317f8468327cb2734119d3b7a9601e1b6151c3565b8710955050505050505b92915050565b60026000541415613c8a576040805162461bcd60e51b815260206004820152601f6024820152600080516020615f64833981519152604482015290519081900360640190fd5b60026000908155338152600560209081526040808320878452909152902080546001600160a01b0316613cf2576040805162461bcd60e51b815260206004820152601d6024820152600080516020615f44833981519152604482015290519081900360640190fd5b838160030181905550828160040181905550818160050160006101000a81548160ff021916908315150217905550336001600160a01b03167fa7f9f4a25eb76f5ec01b1a429d95d6a00833f0f137c88827c58799a1c1ff0dfe868360010184600201548888888860050160019054906101000a900460ff1689600601546040518089815260200180602001888152602001878152602001868152602001851515815260200184151581526020018381526020018281038252898181548152602001915080548015613dec57602002820191906000526020600020905b81546001600160a01b03168152600190910190602001808311613dce575b5050995050505050505050505060405180910390a250506001600055505050565b6008546001600160a01b03163314613e5a576040805162461bcd60e51b81526020600482015260146024820152600080516020615fc7833981519152604482015290519081900360640190fd5b6001600160a01b038116613eb2576040805162461bcd60e51b815260206004820152601a6024820152794f72646572426f6f6b3a20696e76616c6964206164647265737360301b604482015290519081900360640190fd5b6008546001600160a01b0382811691161415613f12576040805162461bcd60e51b815260206004820152601a6024820152794f72646572426f6f6b3a2073616d6520676f7665726e616e636560301b604482015290519081900360640190fd5b613f1e81600019615147565b50565b6000806000806000806000806000613f37615de6565b6001600160a01b03808d1660009081526005602090815260408083208f845282529182902082516101008101845281549094168452600181018054845181850281018501909552808552919385840193909290830182828015613fc357602002820191906000526020600020905b81546001600160a01b03168152600190910190602001808311613fa5575b505050918352505060028201546020808301919091526003830154604083015260048301546060830152600583015460ff8082161515608085015261010090910416151560a083015260069092015460c0909101528101515190915061402a576000614044565b806020015160008151811061403b57fe5b60200260200101515b600182602001515111614058576000614072565b816020015160018151811061406957fe5b60200260200101515b6002836020015151116140865760006140a0565b826020015160028151811061409757fe5b60200260200101515b8360400151846060015185608001518660a001518760c001518860e00151995099509950995099509950995099509950509295985092959850929598565b60026000541415614124576040805162461bcd60e51b815260206004820152601f6024820152600080516020615f64833981519152604482015290519081900360640190fd5b6002600055614131615e56565b506001600160a01b038084166000908152600160208181526040808420878552825292839020835161014081018552815486168082529382015486169281019290925260028101549382019390935260038301548416606082015260048301549093166080840152600582015460a0840152600682015460ff908116151560c0850152600783015460e08501526008830154161515610100840152600990910154610120830152614217576040805162461bcd60e51b815260206004820152601d6024820152600080516020615f44833981519152604482015290519081900360640190fd5b60006142388261010001518360e0015184608001518560c001516001612523565b506001600160a01b0380871660009081526001602081815260408084208a8552825280842080546001600160a01b0319908116825593810180548516905560028101859055600381018054851690556004810180549094169093556005830184905560068301805460ff19908116909155600784018590556008840180549091169055600990920192909255600c5490860151918601519394506142e0938316921690614c6f565b81606001516001600160a01b031682602001516001600160a01b0316146143b857604080516002808252606080830184529260208301908036833701905050905082602001518160008151811061433357fe5b60200260200101906001600160a01b031690816001600160a01b03168152505082606001518160018151811061436557fe5b60200260200101906001600160a01b031690816001600160a01b031681525050600061439382600030614cc6565b600c5460608601519192506143b5916001600160a01b03908116911683614c6f565b50505b600b5482516060840151608085015160a086015160c087015160408051630f8ee8bb60e11b81526001600160a01b03968716600482015294861660248601529285166044850152606484019190915215156084830152519190921691631f1dd1769160a480830192600092919082900301818387803b15801561443a57600080fd5b505af115801561444e573d6000803e3d6000fd5b5050505061446182610120015184614df5565b81600001516001600160a01b03167f7fb1c74d1ea6aa1c9c585e17ce8274c8ff98745e85e7459b73f87d784494f58e8584602001518560400151866060015187608001518860a001518960c001518a60e001518b61010001518c61012001518c604051808c81526020018b6001600160a01b031681526020018a8152602001896001600160a01b03168152602001886001600160a01b03168152602001878152602001861515815260200185815260200184151581526020018381526020018281526020019b50505050505050505050505060405180910390a250506001600055505050565b600080600080600080600080600061455d615e56565b505050506001600160a01b0397881660009081526001602081815260408084209a845299815291899020895161014081018b5281548c168152918101548b1692820183905260028101549982018a905260038101548b16606083018190526004820154909b1660808301819052600582015460a08401819052600683015460ff908116151560c08601819052600785015460e08701819052600886015490921615156101008701819052600990950154610120909601869052959e9c9d9c929b5090995093975092955093509150565b60046020526000908152604090205481565b6008546001600160a01b0316331461468c576040805162461bcd60e51b81526020600482015260146024820152600080516020615fc7833981519152604482015290519081900360640190fd5b600f5460ff16156146e4576040805162461bcd60e51b815260206004820152601e60248201527f4f72646572426f6f6b3a20616c726561647920696e697469616c697a65640000604482015290519081900360640190fd5b600f805460ff19166001179055600b80546001600160a01b038089166001600160a01b03199283168117909355600c80548983169084168117909155600980548984169085168117909155600a8054938916939094168317909355600d869055600e8590556040805194855260208501919091528381019290925260608301526080820184905260a08201839052517fcfb7ef8749fafc8da2af1ba3d025479ffc4e58f7dc420113e112512a3bda59639181900360c00190a1505050505050565b600360208181526000938452604080852090915291835291208054600182015460028301549383015460048401546005850154600686015460078701546008909701546001600160a01b039687169895871697959690941694929360ff9283169391929091169089565b600a546001600160a01b031681565b60026000541415614864576040805162461bcd60e51b815260206004820152601f6024820152600080516020615f64833981519152604482015290519081900360640190fd5b6002600055614871615de6565b33600090815260056020908152604080832085845282529182902082516101008101845281546001600160a01b03168152600182018054855181860281018601909652808652919492938581019392908301828280156148fa57602002820191906000526020600020905b81546001600160a01b031681526001909101906020018083116148dc575b5050509183525050600282015460208201526003820154604082015260048201546060820152600582015460ff8082161515608084015261010090910416151560a082015260069091015460c09091015280519091506001600160a01b0316614998576040805162461bcd60e51b815260206004820152601d6024820152600080516020615f44833981519152604482015290519081900360640190fd5b336000908152600560209081526040808320858452909152812080546001600160a01b0319168155906149ce6001830182615e38565b50600060028201819055600382018190556004820181905560058201805461ffff191690556006909101819055600954602083015180516001600160a01b03909216929091614a1957fe5b60200260200101516001600160a01b03161415614a5357614a4e6123fc82604001518360e00151614ee090919063ffffffff16565b614a7b565b614a6d338260400151836020015160008151811061154857fe5b614a7b8160e0015133614df5565b336001600160a01b03167fefd66d4f9c2f880c70aedeb5b26a44fb474cea07e5d6c533f2d27c303d5d94538383602001518460400151856060015186608001518760a001518860c001518960e00151604051808981526020018060200188815260200187815260200186815260200185151581526020018415158152602001838152602001828103825289818151815260200191508051906020019060200280838360005b83811015614b38578181015183820152602001614b20565b50505050905001995050505050505050505060405180910390a250506001600055565b600b546001600160a01b031681565b614b798888888888888861397c565b336000818152600460209081526040918290205482519081528715159181019190915280820184905290517f87bc1d609678e553a59045f76cf1ec2a89eb2b316684b9536ebe70a0a7191bd19181900360600190a25050505050505050565b600c546001600160a01b031681565b6008546001600160a01b03163314614c34576040805162461bcd60e51b81526020600482015260146024820152600080516020615fc7833981519152604482015290519081900360640190fd5b600d8190556040805182815290517fbde5eafdc37b81830d70124cddccaaa6d034e71dda3c8fc18a959ca76a7cbcfc9181900360200190a150565b604080516001600160a01b038416602482015260448082018490528251808303909101815260649091019091526020810180516001600160e01b031663a9059cbb60e01b179052614cc19084906157a4565b505050565b6000835160021415614d0d57614d0684600081518110614ce257fe5b602002602001015185600181518110614cf757fe5b60200260200101518585615855565b9050614dee565b835160031415614db3576000614d4e85600081518110614d2957fe5b602002602001015186600181518110614d3e57fe5b6020026020010151600030615855565b9050614d77600c60009054906101000a90046001600160a01b0316828760018151811061154857fe5b614dab85600181518110614d8757fe5b602002602001015186600281518110614d9c57fe5b60200260200101518686615855565b915050614dee565b6040805162461bcd60e51b815260206004820152601f602482015260008051602061611f833981519152604482015290519081900360640190fd5b9392505050565b60095460408051632e1a7d4d60e01b81526004810185905290516001600160a01b0390921691632e1a7d4d9160248082019260009290919082900301818387803b158015614e4257600080fd5b505af1158015614e56573d6000803e3d6000fd5b50612b71925050506001600160a01b03821683615a34565b3415614ede57600960009054906101000a90046001600160a01b03166001600160a01b031663d0e30db0346040518263ffffffff1660e01b81526004016000604051808303818588803b158015614ec457600080fd5b505af1158015614ed8573d6000803e3d6000fd5b50505050505b565b600082820183811015614dee576040805162461bcd60e51b815260206004820152601b60248201527a536166654d6174683a206164646974696f6e206f766572666c6f7760281b604482015290519081900360640190fd5b6001600160a01b038816600090815260066020526040902054614f59615de6565b6040518061010001604052808b6001600160a01b031681526020018a815260200189815260200188815260200187815260200186151581526020018515158152602001848152509050614fb6600183614ee090919063ffffffff16565b6001600160a01b038b8116600090815260066020908152604080832094909455600581528382208683528152929020835181546001600160a01b03191692169190911781558282015180518493615014926001850192910190615eaa565b5060408201518160020155606082015181600301556080820151816004015560a08201518160050160006101000a81548160ff02191690831515021790555060c08201518160050160016101000a81548160ff02191690831515021790555060e08201518160060155905050896001600160a01b03167fdf06bb56ffc4029dc0b62b68bb5bbadea93a38b530cefc9b81afb742a6555d88838b8b8b8b8b8b8b604051808981526020018060200188815260200187815260200186815260200185151581526020018415158152602001838152602001828103825289818151815260200191508051906020019060200280838360005b83811015615121578181015183820152602001615109565b50505050905001995050505050505050505060405180910390a250505050505050505050565b604080518082018252828152600160208083018281526001600160a01b03871660008181526007845286902094518555905193909201805460ff1916931515939093179092558251848152925190927f02dd0697be46e764c3ba81094158781c31b235d03bb27a0daf1bdef0ec1084dd92908290030190a25050565b6000826151d257506000613c3e565b828202828482816151df57fe5b0414614dee5760405162461bcd60e51b81526004018080602001828103825260218152602001806160b26021913960400191505060405180910390fd5b6000614dee83836040518060400160405280601a815260200179536166654d6174683a206469766973696f6e206279207a65726f60301b815250615b19565b33600090815260026020526040902054615273615e56565b6040518061014001604052808d6001600160a01b031681526020018c6001600160a01b031681526020018b81526020018a6001600160a01b03168152602001896001600160a01b03168152602001888152602001871515815260200186815260200185151581526020018481525090506152f7600183614ee090919063ffffffff16565b600260008e6001600160a01b03166001600160a01b031681526020019081526020016000208190555080600160008e6001600160a01b03166001600160a01b03168152602001908152602001600020600084815260200190815260200160002060008201518160000160006101000a8154816001600160a01b0302191690836001600160a01b0316021790555060208201518160010160006101000a8154816001600160a01b0302191690836001600160a01b031602179055506040820151816002015560608201518160030160006101000a8154816001600160a01b0302191690836001600160a01b0316021790555060808201518160040160006101000a8154816001600160a01b0302191690836001600160a01b0316021790555060a0820151816005015560c08201518160060160006101000a81548160ff02191690831515021790555060e082015181600701556101008201518160080160006101000a81548160ff02191690831515021790555061012082015181600901559050508b6001600160a01b03167fb27b9afe3043b93788c40cfc3cc73f5d928a2e40f3ba01820b246426de8fa1b9838d8d8d8d8d8d8d8d8d604051808b81526020018a6001600160a01b03168152602001898152602001886001600160a01b03168152602001876001600160a01b03168152602001868152602001851515815260200184815260200183151581526020018281526020019a505050505050505050505060405180910390a2505050505050505050505050565b6001600160a01b03881660009081526004602052604090205461554f615d9a565b5060408051610120810182526001600160a01b03808c1682528a8116602083015291810189905290871660608201526080810186905284151560a082015260c0810184905282151560e0820152346101008201526155ae826001614ee0565b600460008c6001600160a01b03166001600160a01b031681526020019081526020016000208190555080600360008c6001600160a01b03166001600160a01b03168152602001908152602001600020600084815260200190815260200160002060008201518160000160006101000a8154816001600160a01b0302191690836001600160a01b0316021790555060208201518160010160006101000a8154816001600160a01b0302191690836001600160a01b031602179055506040820151816002015560608201518160030160006101000a8154816001600160a01b0302191690836001600160a01b031602179055506080820151816004015560a08201518160050160006101000a81548160ff02191690831515021790555060c0820151816006015560e08201518160070160006101000a81548160ff0219169083151502179055506101008201518160080155905050896001600160a01b03167f48ee333d2a65cc45fdb83bc012920d89181c3377390cd239d2b63f2bef67a02d838b8b8b8b8b8b8b34604051808a8152602001896001600160a01b03168152602001888152602001876001600160a01b0316815260200186815260200185151581526020018481526020018315158152602001828152602001995050505050505050505060405180910390a250505050505050505050565b60606157f9826040518060400160405280602081526020017f5361666545524332303a206c6f772d6c6576656c2063616c6c206661696c6564815250856001600160a01b0316615bbb9092919063ffffffff16565b805190915015614cc15780806020019051602081101561581857600080fd5b5051614cc15760405162461bcd60e51b815260040180806020018281038252602a81526020018061613f602a913960400191505060405180910390fd5b600a5460009081906001600160a01b03868116911614156158fa57600c546040805163817bb85760e01b81526001600160a01b03898116600483015286811660248301529151919092169163817bb8579160448083019260209291908290030181600087803b1580156158c757600080fd5b505af11580156158db573d6000803e3d6000fd5b505050506040513d60208110156158f157600080fd5b505190506159f5565b600a546001600160a01b038781169116141561596757600c5460408051630711e61960e41b81526001600160a01b03888116600483015286811660248301529151919092169163711e61909160448083019260209291908290030181600087803b1580156158c757600080fd5b600c5460408051634998b10960e11b81526001600160a01b038981166004830152888116602483015286811660448301529151919092169163933162129160648083019260209291908290030181600087803b1580156159c657600080fd5b505af11580156159da573d6000803e3d6000fd5b505050506040513d60208110156159f057600080fd5b505190505b838110156131855760405162461bcd60e51b81526004018080602001828103825260218152602001806160476021913960400191505060405180910390fd5b80471015615a89576040805162461bcd60e51b815260206004820152601d60248201527f416464726573733a20696e73756666696369656e742062616c616e6365000000604482015290519081900360640190fd5b6040516000906001600160a01b0384169083908381818185875af1925050503d8060008114615ad4576040519150601f19603f3d011682016040523d82523d6000602084013e615ad9565b606091505b5050905080614cc15760405162461bcd60e51b815260040180806020018281038252603a815260200180615fe7603a913960400191505060405180910390fd5b60008183615ba55760405162461bcd60e51b81526004018080602001828103825283818151815260200191508051906020019080838360005b83811015615b6a578181015183820152602001615b52565b50505050905090810190601f168015615b975780820380516001836020036101000a031916815260200191505b509250505060405180910390fd5b506000838581615bb157fe5b0495945050505050565b6060615bca8484600085615bd2565b949350505050565b606082471015615c135760405162461bcd60e51b81526004018080602001828103825260268152602001806160216026913960400191505060405180910390fd5b615c1c85615d2e565b615c6d576040805162461bcd60e51b815260206004820152601d60248201527f416464726573733a2063616c6c20746f206e6f6e2d636f6e7472616374000000604482015290519081900360640190fd5b60006060866001600160a01b031685876040518082805190602001908083835b60208310615cac5780518252601f199092019160209182019101615c8d565b6001836020036101000a03801982511681845116808217855250505050505090500191505060006040518083038185875af1925050503d8060008114615d0e576040519150601f19603f3d011682016040523d82523d6000602084013e615d13565b606091505b5091509150615d23828286615d34565b979650505050505050565b3b151590565b60608315615d43575081614dee565b825115615d535782518084602001fd5b60405162461bcd60e51b8152602060048201818152845160248401528451859391928392604401919085019080838360008315615b6a578181015183820152602001615b52565b6040805161012081018252600080825260208201819052918101829052606081018290526080810182905260a0810182905260c0810182905260e0810182905261010081019190915290565b60405180610100016040528060006001600160a01b0316815260200160608152602001600081526020016000815260200160008152602001600015158152602001600015158152602001600081525090565b5080546000825590600052602060002090810190613f1e9190615f0f565b6040805161014081018252600080825260208201819052918101829052606081018290526080810182905260a0810182905260c0810182905260e08101829052610100810182905261012081019190915290565b828054828255906000526020600020908101928215615eff579160200282015b82811115615eff57825182546001600160a01b0319166001600160a01b03909116178255602090920191600190910190615eca565b50615f0b929150615f24565b5090565b5b80821115615f0b5760008155600101615f10565b5b80821115615f0b5780546001600160a01b0319168155600101615f2556fe4f72646572426f6f6b3a206e6f6e2d6578697374656e74206f726465720000005265656e7472616e637947756172643a207265656e7472616e742063616c6c004f72646572426f6f6b3a20696e73756666696369656e7420636f6c6c61746572616c4f72646572426f6f6b3a2070726f706f73616c206973206e6f74206163746976654f72646572426f6f6b3a20666f7262696464656e000000000000000000000000416464726573733a20756e61626c6520746f2073656e642076616c75652c20726563697069656e74206d61792068617665207265766572746564416464726573733a20696e73756666696369656e742062616c616e636520666f722063616c6c4f72646572426f6f6b3a20696e73756666696369656e7420616d6f756e744f75744f72646572426f6f6b3a206f6e6c79207765746820636f756c6420626520777261707065644f72646572426f6f6b3a20696e73756666696369656e7420657865637574696f6e20666565536166654d6174683a206d756c7469706c69636174696f6e206f766572666c6f774f72646572426f6f6b3a20696e636f72726563742076616c7565207472616e736665727265644f72646572426f6f6b3a20696e76616c696420707269636520666f7220657865637574696f6e4f72646572426f6f6b3a20696e76616c6964205f706174682e6c656e677468005361666545524332303a204552433230206f7065726174696f6e20646964206e6f7420737563636565644f72646572426f6f6b3a20696e636f727265637420657865637574696f6e20666565207472616e73666572726564a2646970667358221220786114adf6c481b71f9cf560821b4b8822879bd1a09fac766f5877d4c451db0564736f6c634300060c0033","linkReferences":{}},"methodIdentifiers":{"PRICE_PRECISION()":"95082d25","USDG_PRECISION()":"4a686d67","acceptGov()":"7bc6729b","cancelDecreaseOrder(uint256)":"9e71b0f0","cancelDecreaseOrderAdmin(address,uint256)":"13bd39d7","cancelGovProposal(address)":"9c35b497","cancelIncreaseOrder(uint256)":"47e0bbd0","cancelIncreaseOrderAdmin(address,uint256)":"611c86a8","cancelMultiple(uint256[],uint256[],uint256[])":"807c5600","cancelSwapOrder(uint256)":"f882ac07","createDecreaseOrder(address,uint256,address,uint256,bool,uint256,bool)":"c16cde8a","createDecreaseOrderAttached(address,uint256,address,uint256,bool,uint256,bool,bytes32)":"f997c306","createIncreaseOrder(address[],uint256,address,uint256,uint256,address,bool,uint256,bool,uint256,bool)":"b142a4b0","createIncreaseOrderAttached(address[],uint256,address,uint256,uint256,address,bool,uint256,bool,uint256,bool,bytes32)":"686a17b0","createSwapOrder(address[],uint256,uint256,uint256,bool,uint256,bool,bool)":"269ae6c2","decreaseOrders(address,uint256)":"f2d2e01b","decreaseOrdersIndex(address)":"d566d0ca","executeDecreaseOrder(address,uint256,address)":"11d9444a","executeIncreaseOrder(address,uint256,address)":"d38ab519","executeSwapOrder(address,uint256,address)":"07c7edc3","getDecreaseOrder(address,uint256)":"026032ee","getIncreaseOrder(address,uint256)":"d3bab1d1","getSwapOrder(address,uint256)":"d0d40cd6","getUsdgMinPrice(address)":"9e23de5c","gov()":"12d43a51","govProposals(address)":"8d0fedb0","increaseOrders(address,uint256)":"2b7d6290","increaseOrdersIndex(address)":"aec22455","initialize(address,address,address,address,uint256,uint256)":"d7c41c79","isInitialized()":"392e53cd","minExecutionFee()":"63ae2103","minPurchaseTokenAmountUsd()":"8de10c2e","router()":"f887ea40","setGov(address)":"cfad57a2","setGovWithDeadline(address,uint256)":"6bb22fd7","setMinExecutionFee(uint256)":"fc2cee62","setMinPurchaseTokenAmountUsd(uint256)":"0d5cc938","swapOrders(address,uint256)":"79221fa2","swapOrdersIndex(address)":"00cf066b","updateDecreaseOrder(uint256,uint256,uint256,uint256,bool)":"a397ea54","updateIncreaseOrder(uint256,uint256,uint256,bool)":"9983ee1b","updateSwapOrder(uint256,uint256,uint256,bool)":"c86b0f7d","usdg()":"f5b91b7b","validatePositionOrderPrice(bool,uint256,address,bool,bool)":"4c54f0b0","validateSwapOrderPriceWithTriggerAboveThreshold(address[],uint256)":"c4a1821b","vault()":"fbfa77cf","weth()":"3fc8cef3"},"id":35}