{"abi":[{"type":"constructor","inputs":[],"stateMutability":"nonpayable"},{"type":"receive","stateMutability":"payable"},{"type":"function","name":"PRICE_PRECISION","inputs":[],"outputs":[{"name":"","type":"uint256","internalType":"uint256"}],"stateMutability":"view"},{"type":"function","name":"USDG_PRECISION","inputs":[],"outputs":[{"name":"","type":"uint256","internalType":"uint256"}],"stateMutability":"view"},{"type":"function","name":"acceptGov","inputs":[],"outputs":[],"stateMutability":"nonpayable"},{"type":"function","name":"cancelDecreaseOrder","inputs":[{"name":"_orderIndex","type":"uint256","internalType":"uint256"}],"outputs":[],"stateMutability":"nonpayable"},{"type":"function","name":"cancelDecreaseOrderAdmin","inputs":[{"name":"_address","type":"address","internalType":"address"},{"name":"_orderIndex","type":"uint256","internalType":"uint256"}],"outputs":[],"stateMutability":"nonpayable"},{"type":"function","name":"cancelGovProposal","inputs":[{"name":"_gov","type":"address","internalType":"address"}],"outputs":[],"stateMutability":"nonpayable"},{"type":"function","name":"cancelIncreaseOrder","inputs":[{"name":"_orderIndex","type":"uint256","internalType":"uint256"}],"outputs":[],"stateMutability":"nonpayable"},{"type":"function","name":"cancelIncreaseOrderAdmin","inputs":[{"name":"_address","type":"address","internalType":"address"},{"name":"_orderIndex","type":"uint256","internalType":"uint256"}],"outputs":[],"stateMutability":"nonpayable"},{"type":"function","name":"cancelMultiple","inputs":[{"name":"_swapOrderIndexes","type":"uint256[]","internalType":"uint256[]"},{"name":"_increaseOrderIndexes","type":"uint256[]","internalType":"uint256[]"},{"name":"_decreaseOrderIndexes","type":"uint256[]","internalType":"uint256[]"}],"outputs":[],"stateMutability":"nonpayable"},{"type":"function","name":"cancelSwapOrder","inputs":[{"name":"_orderIndex","type":"uint256","internalType":"uint256"}],"outputs":[],"stateMutability":"nonpayable"},{"type":"function","name":"createDecreaseOrder","inputs":[{"name":"_indexToken","type":"address","internalType":"address"},{"name":"_sizeDelta","type":"uint256","internalType":"uint256"},{"name":"_collateralToken","type":"address","internalType":"address"},{"name":"_collateralDelta","type":"uint256","internalType":"uint256"},{"name":"_isLong","type":"bool","internalType":"bool"},{"name":"_triggerPrice","type":"uint256","internalType":"uint256"},{"name":"_triggerAboveThreshold","type":"bool","internalType":"bool"}],"outputs":[],"stateMutability":"payable"},{"type":"function","name":"createDecreaseOrderAttached","inputs":[{"name":"_indexToken","type":"address","internalType":"address"},{"name":"_sizeDelta","type":"uint256","internalType":"uint256"},{"name":"_collateralToken","type":"address","internalType":"address"},{"name":"_collateralDelta","type":"uint256","internalType":"uint256"},{"name":"_isLong","type":"bool","internalType":"bool"},{"name":"_triggerPrice","type":"uint256","internalType":"uint256"},{"name":"_triggerAboveThreshold","type":"bool","internalType":"bool"},{"name":"_key","type":"bytes32","internalType":"bytes32"}],"outputs":[],"stateMutability":"payable"},{"type":"function","name":"createIncreaseOrder","inputs":[{"name":"_path","type":"address[]","internalType":"address[]"},{"name":"_amountIn","type":"uint256","internalType":"uint256"},{"name":"_indexToken","type":"address","internalType":"address"},{"name":"_minOut","type":"uint256","internalType":"uint256"},{"name":"_sizeDelta","type":"uint256","internalType":"uint256"},{"name":"_collateralToken","type":"address","internalType":"address"},{"name":"_isLong","type":"bool","internalType":"bool"},{"name":"_triggerPrice","type":"uint256","internalType":"uint256"},{"name":"_triggerAboveThreshold","type":"bool","internalType":"bool"},{"name":"_executionFee","type":"uint256","internalType":"uint256"},{"name":"_shouldWrap","type":"bool","internalType":"bool"}],"outputs":[],"stateMutability":"payable"},{"type":"function","name":"createIncreaseOrderAttached","inputs":[{"name":"_path","type":"address[]","internalType":"address[]"},{"name":"_amountIn","type":"uint256","internalType":"uint256"},{"name":"_indexToken","type":"address","internalType":"address"},{"name":"_minOut","type":"uint256","internalType":"uint256"},{"name":"_sizeDelta","type":"uint256","internalType":"uint256"},{"name":"_collateralToken","type":"address","internalType":"address"},{"name":"_isLong","type":"bool","internalType":"bool"},{"name":"_triggerPrice","type":"uint256","internalType":"uint256"},{"name":"_triggerAboveThreshold","type":"bool","internalType":"bool"},{"name":"_executionFee","type":"uint256","internalType":"uint256"},{"name":"_shouldWrap","type":"bool","internalType":"bool"},{"name":"key","type":"bytes32","internalType":"bytes32"}],"outputs":[],"stateMutability":"payable"},{"type":"function","name":"createSwapOrder","inputs":[{"name":"_path","type":"address[]","internalType":"address[]"},{"name":"_amountIn","type":"uint256","internalType":"uint256"},{"name":"_minOut","type":"uint256","internalType":"uint256"},{"name":"_triggerRatio","type":"uint256","internalType":"uint256"},{"name":"_triggerAboveThreshold","type":"bool","internalType":"bool"},{"name":"_executionFee","type":"uint256","internalType":"uint256"},{"name":"_shouldWrap","type":"bool","internalType":"bool"},{"name":"_shouldUnwrap","type":"bool","internalType":"bool"}],"outputs":[],"stateMutability":"payable"},{"type":"function","name":"decreaseOrders","inputs":[{"name":"","type":"address","internalType":"address"},{"name":"","type":"uint256","internalType":"uint256"}],"outputs":[{"name":"account","type":"address","internalType":"address"},{"name":"collateralToken","type":"address","internalType":"address"},{"name":"collateralDelta","type":"uint256","internalType":"uint256"},{"name":"indexToken","type":"address","internalType":"address"},{"name":"sizeDelta","type":"uint256","internalType":"uint256"},{"name":"isLong","type":"bool","internalType":"bool"},{"name":"triggerPrice","type":"uint256","internalType":"uint256"},{"name":"triggerAboveThreshold","type":"bool","internalType":"bool"},{"name":"executionFee","type":"uint256","internalType":"uint256"}],"stateMutability":"view"},{"type":"function","name":"decreaseOrdersIndex","inputs":[{"name":"","type":"address","internalType":"address"}],"outputs":[{"name":"","type":"uint256","internalType":"uint256"}],"stateMutability":"view"},{"type":"function","name":"executeDecreaseOrder","inputs":[{"name":"_address","type":"address","internalType":"address"},{"name":"_orderIndex","type":"uint256","internalType":"uint256"},{"name":"_feeReceiver","type":"address","internalType":"address payable"}],"outputs":[],"stateMutability":"nonpayable"},{"type":"function","name":"executeIncreaseOrder","inputs":[{"name":"_address","type":"address","internalType":"address"},{"name":"_orderIndex","type":"uint256","internalType":"uint256"},{"name":"_feeReceiver","type":"address","internalType":"address payable"}],"outputs":[],"stateMutability":"nonpayable"},{"type":"function","name":"executeSwapOrder","inputs":[{"name":"_account","type":"address","internalType":"address"},{"name":"_orderIndex","type":"uint256","internalType":"uint256"},{"name":"_feeReceiver","type":"address","internalType":"address payable"}],"outputs":[],"stateMutability":"nonpayable"},{"type":"function","name":"getDecreaseOrder","inputs":[{"name":"_account","type":"address","internalType":"address"},{"name":"_orderIndex","type":"uint256","internalType":"uint256"}],"outputs":[{"name":"collateralToken","type":"address","internalType":"address"},{"name":"collateralDelta","type":"uint256","internalType":"uint256"},{"name":"indexToken","type":"address","internalType":"address"},{"name":"sizeDelta","type":"uint256","internalType":"uint256"},{"name":"isLong","type":"bool","internalType":"bool"},{"name":"triggerPrice","type":"uint256","internalType":"uint256"},{"name":"triggerAboveThreshold","type":"bool","internalType":"bool"},{"name":"executionFee","type":"uint256","internalType":"uint256"}],"stateMutability":"view"},{"type":"function","name":"getIncreaseOrder","inputs":[{"name":"_account","type":"address","internalType":"address"},{"name":"_orderIndex","type":"uint256","internalType":"uint256"}],"outputs":[{"name":"purchaseToken","type":"address","internalType":"address"},{"name":"purchaseTokenAmount","type":"uint256","internalType":"uint256"},{"name":"collateralToken","type":"address","internalType":"address"},{"name":"indexToken","type":"address","internalType":"address"},{"name":"sizeDelta","type":"uint256","internalType":"uint256"},{"name":"isLong","type":"bool","internalType":"bool"},{"name":"triggerPrice","type":"uint256","internalType":"uint256"},{"name":"triggerAboveThreshold","type":"bool","internalType":"bool"},{"name":"executionFee","type":"uint256","internalType":"uint256"}],"stateMutability":"view"},{"type":"function","name":"getSwapOrder","inputs":[{"name":"_account","type":"address","internalType":"address"},{"name":"_orderIndex","type":"uint256","internalType":"uint256"}],"outputs":[{"name":"path0","type":"address","internalType":"address"},{"name":"path1","type":"address","internalType":"address"},{"name":"path2","type":"address","internalType":"address"},{"name":"amountIn","type":"uint256","internalType":"uint256"},{"name":"minOut","type":"uint256","internalType":"uint256"},{"name":"triggerRatio","type":"uint256","internalType":"uint256"},{"name":"triggerAboveThreshold","type":"bool","internalType":"bool"},{"name":"shouldUnwrap","type":"bool","internalType":"bool"},{"name":"executionFee","type":"uint256","internalType":"uint256"}],"stateMutability":"view"},{"type":"function","name":"getUsdgMinPrice","inputs":[{"name":"_otherToken","type":"address","internalType":"address"}],"outputs":[{"name":"","type":"uint256","internalType":"uint256"}],"stateMutability":"view"},{"type":"function","name":"gov","inputs":[],"outputs":[{"name":"","type":"address","internalType":"address"}],"stateMutability":"view"},{"type":"function","name":"govProposals","inputs":[{"name":"","type":"address","internalType":"address"}],"outputs":[{"name":"deadline","type":"uint256","internalType":"uint256"},{"name":"isActive","type":"bool","internalType":"bool"}],"stateMutability":"view"},{"type":"function","name":"increaseOrders","inputs":[{"name":"","type":"address","internalType":"address"},{"name":"","type":"uint256","internalType":"uint256"}],"outputs":[{"name":"account","type":"address","internalType":"address"},{"name":"purchaseToken","type":"address","internalType":"address"},{"name":"purchaseTokenAmount","type":"uint256","internalType":"uint256"},{"name":"collateralToken","type":"address","internalType":"address"},{"name":"indexToken","type":"address","internalType":"address"},{"name":"sizeDelta","type":"uint256","internalType":"uint256"},{"name":"isLong","type":"bool","internalType":"bool"},{"name":"triggerPrice","type":"uint256","internalType":"uint256"},{"name":"triggerAboveThreshold","type":"bool","internalType":"bool"},{"name":"executionFee","type":"uint256","internalType":"uint256"}],"stateMutability":"view"},{"type":"function","name":"increaseOrdersIndex","inputs":[{"name":"","type":"address","internalType":"address"}],"outputs":[{"name":"","type":"uint256","internalType":"uint256"}],"stateMutability":"view"},{"type":"function","name":"initialize","inputs":[{"name":"_router","type":"address","internalType":"address"},{"name":"_vault","type":"address","internalType":"address"},{"name":"_weth","type":"address","internalType":"address"},{"name":"_usdg","type":"address","internalType":"address"},{"name":"_minExecutionFee","type":"uint256","internalType":"uint256"},{"name":"_minPurchaseTokenAmountUsd","type":"uint256","internalType":"uint256"}],"outputs":[],"stateMutability":"nonpayable"},{"type":"function","name":"isInitialized","inputs":[],"outputs":[{"name":"","type":"bool","internalType":"bool"}],"stateMutability":"view"},{"type":"function","name":"minExecutionFee","inputs":[],"outputs":[{"name":"","type":"uint256","internalType":"uint256"}],"stateMutability":"view"},{"type":"function","name":"minPurchaseTokenAmountUsd","inputs":[],"outputs":[{"name":"","type":"uint256","internalType":"uint256"}],"stateMutability":"view"},{"type":"function","name":"router","inputs":[],"outputs":[{"name":"","type":"address","internalType":"address"}],"stateMutability":"view"},{"type":"function","name":"setGov","inputs":[{"name":"_gov","type":"address","internalType":"address"}],"outputs":[],"stateMutability":"nonpayable"},{"type":"function","name":"setGovWithDeadline","inputs":[{"name":"_gov","type":"address","internalType":"address"},{"name":"_deadline","type":"uint256","internalType":"uint256"}],"outputs":[],"stateMutability":"nonpayable"},{"type":"function","name":"setMinExecutionFee","inputs":[{"name":"_minExecutionFee","type":"uint256","internalType":"uint256"}],"outputs":[],"stateMutability":"nonpayable"},{"type":"function","name":"setMinPurchaseTokenAmountUsd","inputs":[{"name":"_minPurchaseTokenAmountUsd","type":"uint256","internalType":"uint256"}],"outputs":[],"stateMutability":"nonpayable"},{"type":"function","name":"setWhitelistedContract","inputs":[{"name":"_contract","type":"address","internalType":"address"},{"name":"_whitelisted","type":"bool","internalType":"bool"}],"outputs":[],"stateMutability":"nonpayable"},{"type":"function","name":"swapOrders","inputs":[{"name":"","type":"address","internalType":"address"},{"name":"","type":"uint256","internalType":"uint256"}],"outputs":[{"name":"account","type":"address","internalType":"address"},{"name":"amountIn","type":"uint256","internalType":"uint256"},{"name":"minOut","type":"uint256","internalType":"uint256"},{"name":"triggerRatio","type":"uint256","internalType":"uint256"},{"name":"triggerAboveThreshold","type":"bool","internalType":"bool"},{"name":"shouldUnwrap","type":"bool","internalType":"bool"},{"name":"executionFee","type":"uint256","internalType":"uint256"}],"stateMutability":"view"},{"type":"function","name":"swapOrdersIndex","inputs":[{"name":"","type":"address","internalType":"address"}],"outputs":[{"name":"","type":"uint256","internalType":"uint256"}],"stateMutability":"view"},{"type":"function","name":"updateDecreaseOrder","inputs":[{"name":"_orderIndex","type":"uint256","internalType":"uint256"},{"name":"_collateralDelta","type":"uint256","internalType":"uint256"},{"name":"_sizeDelta","type":"uint256","internalType":"uint256"},{"name":"_triggerPrice","type":"uint256","internalType":"uint256"},{"name":"_triggerAboveThreshold","type":"bool","internalType":"bool"}],"outputs":[],"stateMutability":"nonpayable"},{"type":"function","name":"updateIncreaseOrder","inputs":[{"name":"_orderIndex","type":"uint256","internalType":"uint256"},{"name":"_sizeDelta","type":"uint256","internalType":"uint256"},{"name":"_triggerPrice","type":"uint256","internalType":"uint256"},{"name":"_triggerAboveThreshold","type":"bool","internalType":"bool"}],"outputs":[],"stateMutability":"nonpayable"},{"type":"function","name":"updateSwapOrder","inputs":[{"name":"_orderIndex","type":"uint256","internalType":"uint256"},{"name":"_minOut","type":"uint256","internalType":"uint256"},{"name":"_triggerRatio","type":"uint256","internalType":"uint256"},{"name":"_triggerAboveThreshold","type":"bool","internalType":"bool"}],"outputs":[],"stateMutability":"nonpayable"},{"type":"function","name":"usdg","inputs":[],"outputs":[{"name":"","type":"address","internalType":"address"}],"stateMutability":"view"},{"type":"function","name":"validatePositionOrderPrice","inputs":[{"name":"_triggerAboveThreshold","type":"bool","internalType":"bool"},{"name":"_triggerPrice","type":"uint256","internalType":"uint256"},{"name":"_indexToken","type":"address","internalType":"address"},{"name":"_maximizePrice","type":"bool","internalType":"bool"},{"name":"_raise","type":"bool","internalType":"bool"}],"outputs":[{"name":"","type":"uint256","internalType":"uint256"},{"name":"","type":"bool","internalType":"bool"}],"stateMutability":"view"},{"type":"function","name":"validateSwapOrderPriceWithTriggerAboveThreshold","inputs":[{"name":"_path","type":"address[]","internalType":"address[]"},{"name":"_triggerRatio","type":"uint256","internalType":"uint256"}],"outputs":[{"name":"","type":"bool","internalType":"bool"}],"stateMutability":"view"},{"type":"function","name":"vault","inputs":[],"outputs":[{"name":"","type":"address","internalType":"address"}],"stateMutability":"view"},{"type":"function","name":"weth","inputs":[],"outputs":[{"name":"","type":"address","internalType":"address"}],"stateMutability":"view"},{"type":"function","name":"whitelistedContracts","inputs":[{"name":"","type":"address","internalType":"address"}],"outputs":[{"name":"","type":"bool","internalType":"bool"}],"stateMutability":"view"},{"type":"event","name":"CancelDecreaseOrder","inputs":[{"name":"account","type":"address","indexed":true,"internalType":"address"},{"name":"orderIndex","type":"uint256","indexed":false,"internalType":"uint256"},{"name":"collateralToken","type":"address","indexed":false,"internalType":"address"},{"name":"collateralDelta","type":"uint256","indexed":false,"internalType":"uint256"},{"name":"indexToken","type":"address","indexed":false,"internalType":"address"},{"name":"sizeDelta","type":"uint256","indexed":false,"internalType":"uint256"},{"name":"isLong","type":"bool","indexed":false,"internalType":"bool"},{"name":"triggerPrice","type":"uint256","indexed":false,"internalType":"uint256"},{"name":"triggerAboveThreshold","type":"bool","indexed":false,"internalType":"bool"},{"name":"executionFee","type":"uint256","indexed":false,"internalType":"uint256"}],"anonymous":false},{"type":"event","name":"CancelIncreaseOrder","inputs":[{"name":"account","type":"address","indexed":true,"internalType":"address"},{"name":"orderIndex","type":"uint256","indexed":false,"internalType":"uint256"},{"name":"purchaseToken","type":"address","indexed":false,"internalType":"address"},{"name":"purchaseTokenAmount","type":"uint256","indexed":false,"internalType":"uint256"},{"name":"collateralToken","type":"address","indexed":false,"internalType":"address"},{"name":"indexToken","type":"address","indexed":false,"internalType":"address"},{"name":"sizeDelta","type":"uint256","indexed":false,"internalType":"uint256"},{"name":"isLong","type":"bool","indexed":false,"internalType":"bool"},{"name":"triggerPrice","type":"uint256","indexed":false,"internalType":"uint256"},{"name":"triggerAboveThreshold","type":"bool","indexed":false,"internalType":"bool"},{"name":"executionFee","type":"uint256","indexed":false,"internalType":"uint256"}],"anonymous":false},{"type":"event","name":"CancelSwapOrder","inputs":[{"name":"account","type":"address","indexed":true,"internalType":"address"},{"name":"orderIndex","type":"uint256","indexed":false,"internalType":"uint256"},{"name":"path","type":"address[]","indexed":false,"internalType":"address[]"},{"name":"amountIn","type":"uint256","indexed":false,"internalType":"uint256"},{"name":"minOut","type":"uint256","indexed":false,"internalType":"uint256"},{"name":"triggerRatio","type":"uint256","indexed":false,"internalType":"uint256"},{"name":"triggerAboveThreshold","type":"bool","indexed":false,"internalType":"bool"},{"name":"shouldUnwrap","type":"bool","indexed":false,"internalType":"bool"},{"name":"executionFee","type":"uint256","indexed":false,"internalType":"uint256"}],"anonymous":false},{"type":"event","name":"CreateDecreaseOrder","inputs":[{"name":"account","type":"address","indexed":true,"internalType":"address"},{"name":"orderIndex","type":"uint256","indexed":false,"internalType":"uint256"},{"name":"collateralToken","type":"address","indexed":false,"internalType":"address"},{"name":"collateralDelta","type":"uint256","indexed":false,"internalType":"uint256"},{"name":"indexToken","type":"address","indexed":false,"internalType":"address"},{"name":"sizeDelta","type":"uint256","indexed":false,"internalType":"uint256"},{"name":"isLong","type":"bool","indexed":false,"internalType":"bool"},{"name":"triggerPrice","type":"uint256","indexed":false,"internalType":"uint256"},{"name":"triggerAboveThreshold","type":"bool","indexed":false,"internalType":"bool"},{"name":"executionFee","type":"uint256","indexed":false,"internalType":"uint256"}],"anonymous":false},{"type":"event","name":"CreateDecreaseOrderAttached","inputs":[{"name":"account","type":"address","indexed":true,"internalType":"address"},{"name":"orderIndex","type":"uint256","indexed":false,"internalType":"uint256"},{"name":"isLong","type":"bool","indexed":false,"internalType":"bool"},{"name":"key","type":"bytes32","indexed":false,"internalType":"bytes32"}],"anonymous":false},{"type":"event","name":"CreateIncreaseOrder","inputs":[{"name":"account","type":"address","indexed":true,"internalType":"address"},{"name":"orderIndex","type":"uint256","indexed":false,"internalType":"uint256"},{"name":"purchaseToken","type":"address","indexed":false,"internalType":"address"},{"name":"purchaseTokenAmount","type":"uint256","indexed":false,"internalType":"uint256"},{"name":"collateralToken","type":"address","indexed":false,"internalType":"address"},{"name":"indexToken","type":"address","indexed":false,"internalType":"address"},{"name":"sizeDelta","type":"uint256","indexed":false,"internalType":"uint256"},{"name":"isLong","type":"bool","indexed":false,"internalType":"bool"},{"name":"triggerPrice","type":"uint256","indexed":false,"internalType":"uint256"},{"name":"triggerAboveThreshold","type":"bool","indexed":false,"internalType":"bool"},{"name":"executionFee","type":"uint256","indexed":false,"internalType":"uint256"}],"anonymous":false},{"type":"event","name":"CreateIncreaseOrderAttached","inputs":[{"name":"account","type":"address","indexed":true,"internalType":"address"},{"name":"orderIndex","type":"uint256","indexed":false,"internalType":"uint256"},{"name":"isLong","type":"bool","indexed":false,"internalType":"bool"},{"name":"key","type":"bytes32","indexed":false,"internalType":"bytes32"}],"anonymous":false},{"type":"event","name":"CreateSwapOrder","inputs":[{"name":"account","type":"address","indexed":true,"internalType":"address"},{"name":"orderIndex","type":"uint256","indexed":false,"internalType":"uint256"},{"name":"path","type":"address[]","indexed":false,"internalType":"address[]"},{"name":"amountIn","type":"uint256","indexed":false,"internalType":"uint256"},{"name":"minOut","type":"uint256","indexed":false,"internalType":"uint256"},{"name":"triggerRatio","type":"uint256","indexed":false,"internalType":"uint256"},{"name":"triggerAboveThreshold","type":"bool","indexed":false,"internalType":"bool"},{"name":"shouldUnwrap","type":"bool","indexed":false,"internalType":"bool"},{"name":"executionFee","type":"uint256","indexed":false,"internalType":"uint256"}],"anonymous":false},{"type":"event","name":"ExecuteDecreaseOrder","inputs":[{"name":"account","type":"address","indexed":true,"internalType":"address"},{"name":"orderIndex","type":"uint256","indexed":false,"internalType":"uint256"},{"name":"collateralToken","type":"address","indexed":false,"internalType":"address"},{"name":"collateralDelta","type":"uint256","indexed":false,"internalType":"uint256"},{"name":"indexToken","type":"address","indexed":false,"internalType":"address"},{"name":"sizeDelta","type":"uint256","indexed":false,"internalType":"uint256"},{"name":"isLong","type":"bool","indexed":false,"internalType":"bool"},{"name":"triggerPrice","type":"uint256","indexed":false,"internalType":"uint256"},{"name":"triggerAboveThreshold","type":"bool","indexed":false,"internalType":"bool"},{"name":"executionFee","type":"uint256","indexed":false,"internalType":"uint256"},{"name":"executionPrice","type":"uint256","indexed":false,"internalType":"uint256"}],"anonymous":false},{"type":"event","name":"ExecuteIncreaseOrder","inputs":[{"name":"account","type":"address","indexed":true,"internalType":"address"},{"name":"orderIndex","type":"uint256","indexed":false,"internalType":"uint256"},{"name":"purchaseToken","type":"address","indexed":false,"internalType":"address"},{"name":"purchaseTokenAmount","type":"uint256","indexed":false,"internalType":"uint256"},{"name":"collateralToken","type":"address","indexed":false,"internalType":"address"},{"name":"indexToken","type":"address","indexed":false,"internalType":"address"},{"name":"sizeDelta","type":"uint256","indexed":false,"internalType":"uint256"},{"name":"isLong","type":"bool","indexed":false,"internalType":"bool"},{"name":"triggerPrice","type":"uint256","indexed":false,"internalType":"uint256"},{"name":"triggerAboveThreshold","type":"bool","indexed":false,"internalType":"bool"},{"name":"executionFee","type":"uint256","indexed":false,"internalType":"uint256"},{"name":"executionPrice","type":"uint256","indexed":false,"internalType":"uint256"}],"anonymous":false},{"type":"event","name":"ExecuteSwapOrder","inputs":[{"name":"account","type":"address","indexed":true,"internalType":"address"},{"name":"orderIndex","type":"uint256","indexed":false,"internalType":"uint256"},{"name":"path","type":"address[]","indexed":false,"internalType":"address[]"},{"name":"amountIn","type":"uint256","indexed":false,"internalType":"uint256"},{"name":"minOut","type":"uint256","indexed":false,"internalType":"uint256"},{"name":"amountOut","type":"uint256","indexed":false,"internalType":"uint256"},{"name":"triggerRatio","type":"uint256","indexed":false,"internalType":"uint256"},{"name":"triggerAboveThreshold","type":"bool","indexed":false,"internalType":"bool"},{"name":"shouldUnwrap","type":"bool","indexed":false,"internalType":"bool"},{"name":"executionFee","type":"uint256","indexed":false,"internalType":"uint256"}],"anonymous":false},{"type":"event","name":"GovProposalCanceled","inputs":[{"name":"proposedGov","type":"address","indexed":true,"internalType":"address"},{"name":"canceledBy","type":"address","indexed":true,"internalType":"address"}],"anonymous":false},{"type":"event","name":"GovernanceTransferRequested","inputs":[{"name":"newGov","type":"address","indexed":true,"internalType":"address"},{"name":"deadline","type":"uint256","indexed":false,"internalType":"uint256"}],"anonymous":false},{"type":"event","name":"GovernanceTransferred","inputs":[{"name":"oldGov","type":"address","indexed":true,"internalType":"address"},{"name":"newGov","type":"address","indexed":true,"internalType":"address"}],"anonymous":false},{"type":"event","name":"Initialize","inputs":[{"name":"router","type":"address","indexed":false,"internalType":"address"},{"name":"vault","type":"address","indexed":false,"internalType":"address"},{"name":"weth","type":"address","indexed":false,"internalType":"address"},{"name":"usdg","type":"address","indexed":false,"internalType":"address"},{"name":"minExecutionFee","type":"uint256","indexed":false,"internalType":"uint256"},{"name":"minPurchaseTokenAmountUsd","type":"uint256","indexed":false,"internalType":"uint256"}],"anonymous":false},{"type":"event","name":"UpdateDecreaseOrder","inputs":[{"name":"account","type":"address","indexed":true,"internalType":"address"},{"name":"orderIndex","type":"uint256","indexed":false,"internalType":"uint256"},{"name":"collateralToken","type":"address","indexed":false,"internalType":"address"},{"name":"collateralDelta","type":"uint256","indexed":false,"internalType":"uint256"},{"name":"indexToken","type":"address","indexed":false,"internalType":"address"},{"name":"sizeDelta","type":"uint256","indexed":false,"internalType":"uint256"},{"name":"isLong","type":"bool","indexed":false,"internalType":"bool"},{"name":"triggerPrice","type":"uint256","indexed":false,"internalType":"uint256"},{"name":"triggerAboveThreshold","type":"bool","indexed":false,"internalType":"bool"}],"anonymous":false},{"type":"event","name":"UpdateGov","inputs":[{"name":"gov","type":"address","indexed":false,"internalType":"address"}],"anonymous":false},{"type":"event","name":"UpdateIncreaseOrder","inputs":[{"name":"account","type":"address","indexed":true,"internalType":"address"},{"name":"orderIndex","type":"uint256","indexed":false,"internalType":"uint256"},{"name":"collateralToken","type":"address","indexed":false,"internalType":"address"},{"name":"indexToken","type":"address","indexed":false,"internalType":"address"},{"name":"isLong","type":"bool","indexed":false,"internalType":"bool"},{"name":"sizeDelta","type":"uint256","indexed":false,"internalType":"uint256"},{"name":"triggerPrice","type":"uint256","indexed":false,"internalType":"uint256"},{"name":"triggerAboveThreshold","type":"bool","indexed":false,"internalType":"bool"}],"anonymous":false},{"type":"event","name":"UpdateMinExecutionFee","inputs":[{"name":"minExecutionFee","type":"uint256","indexed":false,"internalType":"uint256"}],"anonymous":false},{"type":"event","name":"UpdateMinPurchaseTokenAmountUsd","inputs":[{"name":"minPurchaseTokenAmountUsd","type":"uint256","indexed":false,"internalType":"uint256"}],"anonymous":false},{"type":"event","name":"UpdateSwapOrder","inputs":[{"name":"account","type":"address","indexed":true,"internalType":"address"},{"name":"orderIndex","type":"uint256","indexed":false,"internalType":"uint256"},{"name":"path","type":"address[]","indexed":false,"internalType":"address[]"},{"name":"amountIn","type":"uint256","indexed":false,"internalType":"uint256"},{"name":"minOut","type":"uint256","indexed":false,"internalType":"uint256"},{"name":"triggerRatio","type":"uint256","indexed":false,"internalType":"uint256"},{"name":"triggerAboveThreshold","type":"bool","indexed":false,"internalType":"bool"},{"name":"shouldUnwrap","type":"bool","indexed":false,"internalType":"bool"},{"name":"executionFee","type":"uint256","indexed":false,"internalType":"uint256"}],"anonymous":false},{"type":"event","name":"WhitelistedContractUpdated","inputs":[{"name":"contractAddress","type":"address","indexed":true,"internalType":"address"},{"name":"whitelisted","type":"bool","indexed":false,"internalType":"bool"}],"anonymous":false}],"bytecode":{"object":"0x60806040526010805460ff1916905534801561001a57600080fd5b50600980546001600160a01b031916331790556164c7806200003d6000396000f3fe6080604052600436106102415760003560e01c806395082d251161013557806395082d2514610b1d5780639983ee1b14610b325780639c35b49714610b705780639e23de5c14610ba35780639e71b0f014610bd6578063a397ea5414610c00578063aec2245514610c44578063b142a4b014610c77578063c16cde8a14610d61578063c421449214610db1578063c4a1821b14610dec578063c86b0f7d14610e9c578063cfad57a214610eda578063d0d40cd614610f0d578063d38ab51914610fa0578063d3bab1d114610fe3578063d566d0ca14611077578063d7c41c79146110aa578063f2d2e01b14611103578063f5b91b7b14611197578063f882ac07146111ac578063f887ea40146111d6578063f997c306146111eb578063fbfa77cf14611242578063fc2cee6214611257576102a3565b8062cf066b146102a8578063026032ee146102ed57806307c7edc3146103785780630d5cc938146103bb57806311d9444a146103e557806312d43a511461042857806313bd39d714610459578063269ae6c2146104925780632b7d62901461055d578063391feebb146105fd578063392e53cd146106445780633fc8cef31461065957806347e0bbd01461066e5780634a686d67146106985780634c54f0b0146106ad578063611c86a81461071757806363ae210314610750578063686a17b0146107655780636bb22fd71461085657806379221fa21461088f5780637bc6729b1461090e578063807c5600146109235780638d0fedb014610ad55780638de10c2e14610b08576102a3565b366102a357600a546001600160a01b031633146102a1576040805162461bcd60e51b815260206004820152601960248201527827b93232b92137b7b59d1034b73b30b634b21039b2b73232b960391b604482015290519081900360640190fd5b005b600080fd5b3480156102b457600080fd5b506102db600480360360208110156102cb57600080fd5b50356001600160a01b0316611281565b60408051918252519081900360200190f35b3480156102f957600080fd5b506103266004803603604081101561031057600080fd5b506001600160a01b038135169060200135611293565b604080516001600160a01b03998a168152602081019890985295909716868601526060860193909352901515608085015260a0840152151560c083015260e08201929092529051908190036101000190f35b34801561038457600080fd5b506102a16004803603606081101561039b57600080fd5b506001600160a01b03813581169160208101359160409091013516611366565b3480156103c757600080fd5b506102a1600480360360208110156103de57600080fd5b5035611771565b3480156103f157600080fd5b506102a16004803603606081101561040857600080fd5b506001600160a01b038135811691602081013591604090910135166117f9565b34801561043457600080fd5b5061043d611c00565b604080516001600160a01b039092168252519081900360200190f35b34801561046557600080fd5b506102a16004803603604081101561047c57600080fd5b506001600160a01b038135169060200135611c0f565b6102a160048036036101008110156104a957600080fd5b810190602081018135600160201b8111156104c357600080fd5b8201836020820111156104d557600080fd5b803590602001918460208302840111600160201b831117156104f657600080fd5b91908080602002602001604051908101604052809392919081815260200183836020028082843760009201919091525092955050823593505050602081013590604081013590606081013515159060808101359060a081013515159060c001351515611ed8565b34801561056957600080fd5b506105966004803603604081101561058057600080fd5b506001600160a01b038135169060200135612261565b604080516001600160a01b039b8c168152998b1660208b015289810198909852958916606089015293909716608087015260a0860191909152151560c085015260e08401949094529215156101008301526101208201929092529051908190036101400190f35b34801561060957600080fd5b506106306004803603602081101561062057600080fd5b50356001600160a01b03166122d3565b604080519115158252519081900360200190f35b34801561065057600080fd5b506106306122e8565b34801561066557600080fd5b5061043d6122f1565b34801561067a57600080fd5b506102a16004803603602081101561069157600080fd5b5035612300565b3480156106a457600080fd5b506102db61260a565b3480156106b957600080fd5b506106fe600480360360a08110156106d057600080fd5b5080351515906020810135906001600160a01b03604082013516906060810135151590608001351515612616565b6040805192835290151560208301528051918290030190f35b34801561072357600080fd5b506102a16004803603604081101561073a57600080fd5b506001600160a01b03813516906020013561277f565b34801561075c57600080fd5b506102db612adb565b6102a1600480360361018081101561077c57600080fd5b810190602081018135600160201b81111561079657600080fd5b8201836020820111156107a857600080fd5b803590602001918460208302840111600160201b831117156107c957600080fd5b9190808060200260200160405190810160405280939291908181526020018383602002808284376000920191909152509295505082359350506001600160a01b036020830135811692604081013592506060810135916080820135169060a081013515159060c08101359060e0810135151590610100810135906101208101351515906101400135612ae1565b34801561086257600080fd5b506102a16004803603604081101561087957600080fd5b506001600160a01b038135169060200135612b57565b34801561089b57600080fd5b506108c8600480360360408110156108b257600080fd5b506001600160a01b038135169060200135612c5b565b604080516001600160a01b039098168852602088019690965286860194909452606086019290925215156080850152151560a084015260c0830152519081900360e00190f35b34801561091a57600080fd5b506102a1612caf565b34801561092f57600080fd5b506102a16004803603606081101561094657600080fd5b810190602081018135600160201b81111561096057600080fd5b82018360208201111561097257600080fd5b803590602001918460208302840111600160201b8311171561099357600080fd5b9190808060200260200160405190810160405280939291908181526020018383602002808284376000920191909152509295949360208101935035915050600160201b8111156109e257600080fd5b8201836020820111156109f457600080fd5b803590602001918460208302840111600160201b83111715610a1557600080fd5b9190808060200260200160405190810160405280939291908181526020018383602002808284376000920191909152509295949360208101935035915050600160201b811115610a6457600080fd5b820183602082011115610a7657600080fd5b803590602001918460208302840111600160201b83111715610a9757600080fd5b919080806020026020016040519081016040528093929190818152602001838360200280828437600092019190915250929550612dc4945050505050565b348015610ae157600080fd5b506106fe60048036036020811015610af857600080fd5b50356001600160a01b0316612e5c565b348015610b1457600080fd5b506102db612e78565b348015610b2957600080fd5b506102db612e7e565b348015610b3e57600080fd5b506102a160048036036080811015610b5557600080fd5b50803590602081013590604081013590606001351515612e8e565b348015610b7c57600080fd5b506102a160048036036020811015610b9357600080fd5b50356001600160a01b0316612fe6565b348015610baf57600080fd5b506102db60048036036020811015610bc657600080fd5b50356001600160a01b03166130f4565b348015610be257600080fd5b506102a160048036036020811015610bf957600080fd5b503561329e565b348015610c0c57600080fd5b506102a1600480360360a0811015610c2357600080fd5b50803590602081013590604081013590606081013590608001351515613510565b348015610c5057600080fd5b506102db60048036036020811015610c6757600080fd5b50356001600160a01b0316613678565b6102a16004803603610160811015610c8e57600080fd5b810190602081018135600160201b811115610ca857600080fd5b820183602082011115610cba57600080fd5b803590602001918460208302840111600160201b83111715610cdb57600080fd5b9190808060200260200160405190810160405280939291908181526020018383602002808284376000920191909152509295505082359350506001600160a01b036020830135811692604081013592506060810135916080820135169060a081013515159060c08101359060e0810135151590610100810135906101200135151561368a565b6102a1600480360360e0811015610d7757600080fd5b506001600160a01b03813581169160208101359160408201351690606081013590608081013515159060a08101359060c001351515613ae4565b348015610dbd57600080fd5b506102a160048036036040811015610dd457600080fd5b506001600160a01b0381351690602001351515613bed565b348015610df857600080fd5b5061063060048036036040811015610e0f57600080fd5b810190602081018135600160201b811115610e2957600080fd5b820183602082011115610e3b57600080fd5b803590602001918460208302840111600160201b83111715610e5c57600080fd5b9190808060200260200160405190810160405280939291908181526020018383602002808284376000920191909152509295505091359250613ce3915050565b348015610ea857600080fd5b506102a160048036036080811015610ebf57600080fd5b50803590602081013590604081013590606001351515613efa565b348015610ee657600080fd5b506102a160048036036020811015610efd57600080fd5b50356001600160a01b03166140c3565b348015610f1957600080fd5b50610f4660048036036040811015610f3057600080fd5b506001600160a01b0381351690602001356141c8565b604080516001600160a01b039a8b168152988a1660208a015296909816878701526060870194909452608086019290925260a0850152151560c0840152151560e08301526101008201929092529051908190036101200190f35b348015610fac57600080fd5b506102a160048036036060811015610fc357600080fd5b506001600160a01b03813581169160208101359160409091013516614385565b348015610fef57600080fd5b5061101c6004803603604081101561100657600080fd5b506001600160a01b0381351690602001356147ee565b604080516001600160a01b039a8b1681526020810199909952968916888801529490971660608701526080860192909252151560a085015260c084015292151560e08301526101008201929092529051908190036101200190f35b34801561108357600080fd5b506102db6004803603602081101561109a57600080fd5b50356001600160a01b03166148d4565b3480156110b657600080fd5b506102a1600480360360c08110156110cd57600080fd5b506001600160a01b0381358116916020810135821691604082013581169160608101359091169060808101359060a001356148e6565b34801561110f57600080fd5b5061113c6004803603604081101561112657600080fd5b506001600160a01b038135169060200135614a4c565b604080516001600160a01b039a8b168152988a1660208a0152888101979097529490971660608701526080860192909252151560a085015260c084015292151560e08301526101008201929092529051908190036101200190f35b3480156111a357600080fd5b5061043d614ab6565b3480156111b857600080fd5b506102a1600480360360208110156111cf57600080fd5b5035614ac5565b3480156111e257600080fd5b5061043d614e02565b6102a1600480360361010081101561120257600080fd5b506001600160a01b03813581169160208101359160408201351690606081013590608081013515159060a08101359060c081013515159060e00135614e11565b34801561124e57600080fd5b5061043d614e7f565b34801561126357600080fd5b506102a16004803603602081101561127a57600080fd5b5035614e8e565b60066020526000908152604090205481565b6000806000806000806000806112a7616041565b505050506001600160a01b03968716600090815260036020818152604080842099845298815291889020885161012081018a5281548b16815260018201548b1693810184905260028201549981018a9052918101549099166060820181905260048a01546080830181905260058b015460ff908116151560a0850181905260068d015460c0860181905260078e0154909216151560e086018190526008909d0154610100909501859052949c9a9b929a91995093975092955093509150565b600260005414156113ac576040805162461bcd60e51b815260206004820152601f602482015260008051602061620b833981519152604482015290519081900360640190fd5b60026000556113b961608d565b6001600160a01b0380851660009081526005602090815260408083208784528252918290208251610100810184528154909416845260018101805484518185028101850190955280855291938584019390929083018282801561144557602002820191906000526020600020905b81546001600160a01b03168152600190910190602001808311611427575b5050509183525050600282015460208201526003820154604082015260048201546060820152600582015460ff8082161515608084015261010090910416151560a082015260069091015460c09091015280519091506001600160a01b03166114e3576040805162461bcd60e51b815260206004820152601d60248201526000805160206161eb833981519152604482015290519081900360640190fd5b8060a001511561153a576114ff81602001518260800151613ce3565b61153a5760405162461bcd60e51b81526004018080602001828103825260268152602001806163f46026913960400191505060405180910390fd5b6001600160a01b0384166000908152600560209081526040808320868452909152812080546001600160a01b03191681559061157960018301826160df565b50600060028201819055600382018190556004820181905560058201805461ffff191690556006909101819055600d546040830151602084015180516115ec946001600160a01b0390941693906115cc57fe5b60200260200101516001600160a01b0316614f169092919063ffffffff16565b600a54602082015180516000926001600160a01b03169190600019810190811061161257fe5b60200260200101516001600160a01b031614801561163157508160c001515b1561165e576116498260200151836060015130614f6d565b905061165981836000015161509c565b611678565b611675826020015183606001518460000151614f6d565b90505b6116868260e001518461509c565b846001600160a01b03167f7e1fe496989eea92b738a562dbf9c0ae6aa6fcf3f1ef09e95ee4f7603721706b858460200151856040015186606001518688608001518960a001518a60c001518b60e00151604051808a8152602001806020018981526020018881526020018781526020018681526020018515158152602001841515815260200183815260200182810382528a818151815260200191508051906020019060200280838360005b8381101561174a578181015183820152602001611732565b505050509050019a505050505050505050505060405180910390a250506001600055505050565b6009546001600160a01b031633146117be576040805162461bcd60e51b815260206004820152601460248201526000805160206162c2833981519152604482015290519081900360640190fd5b600f8190556040805182815290517fe46d9daf6d25f7615efa1d0183b90ac6759d85014b598e409aadf0fd918d59a69181900360200190a150565b6002600054141561183f576040805162461bcd60e51b815260206004820152601f602482015260008051602061620b833981519152604482015290519081900360640190fd5b60026000553332148061186157503360009081526008602052604090205460ff165b61189c5760405162461bcd60e51b815260040180806020018281038252603481526020018061626d6034913960400191505060405180910390fd5b6118a4616041565b506001600160a01b03808416600090815260036020818152604080842087855282529283902083516101208101855281548616808252600183015487169382019390935260028201549481019490945291820154909316606083015260048101546080830152600581015460ff908116151560a0840152600682015460c0840152600782015416151560e0830152600801546101008201529061197c576040805162461bcd60e51b815260206004820152601d60248201526000805160206161eb833981519152604482015290519081900360640190fd5b600061199d8260e001518360c0015184606001518560a00151156001612616565b506001600160a01b0380871660009081526003602081815260408084208a8552825280842080546001600160a01b0319908116825560018201805482169055600282018690559381018054909416909355600480840185905560058401805460ff199081169091556006850186905560078501805490911690556008909301849055600c5488518984015160608b01518b85015160808d015160a08e01518751632662166b60e01b8152958c1699860199909952928a16602485015290891660448401526064830152608482015293151560a48501523060c4850152905195965092949290931692632662166b9260e48084019382900301818787803b158015611aa657600080fd5b505af1158015611aba573d6000803e3d6000fd5b505050506040513d6020811015611ad057600080fd5b5051600a5460208501519192506001600160a01b0391821691161415611b0357611afe81846000015161509c565b611b20565b82516020840151611b20916001600160a01b039091169083614f16565b611b2f8361010001518561509c565b82600001516001600160a01b03167f9a382661d6573da86db000471303be6f0b2b1bb66089b08e3c16a85d7b6e94f88685602001518660400151876060015188608001518960a001518a60c001518b60e001518c61010001518c604051808b81526020018a6001600160a01b03168152602001898152602001886001600160a01b03168152602001878152602001861515815260200185815260200184151581526020018381526020018281526020019a505050505050505050505060405180910390a25050600160005550505050565b6009546001600160a01b031681565b60026000541415611c55576040805162461bcd60e51b815260206004820152601f602482015260008051602061620b833981519152604482015290519081900360640190fd5b60026000556009546001600160a01b03163314611ca7576040805162461bcd60e51b815260206004820152601460248201526000805160206162c2833981519152604482015290519081900360640190fd5b611caf616041565b506001600160a01b03808316600090815260036020818152604080842086855282529283902083516101208101855281548616808252600183015487169382019390935260028201549481019490945291820154909316606083015260048101546080830152600581015460ff908116151560a0840152600682015460c0840152600782015416151560e08301526008015461010082015290611d87576040805162461bcd60e51b815260206004820152601d60248201526000805160206161eb833981519152604482015290519081900360640190fd5b6001600160a01b0383166000908152600360208181526040808420868552909152822080546001600160a01b03199081168255600182018054821690556002820184905591810180549092169091556004810182905560058101805460ff1990811690915560068201839055600782018054909116905560080155610100810151611e12908461509c565b80600001516001600160a01b03167f1154174c82984656b028c8021671988f60a346497e56fe02554761184f82a0758383602001518460400151856060015186608001518760a001518860c001518960e001518a6101000151604051808a8152602001896001600160a01b03168152602001888152602001876001600160a01b0316815260200186815260200185151581526020018481526020018315158152602001828152602001995050505050505050505060405180910390a25050600160005550565b60026000541415611f1e576040805162461bcd60e51b815260206004820152601f602482015260008051602061620b833981519152604482015290519081900360640190fd5b6002600081905588511480611f34575087516003145b611f73576040805162461bcd60e51b815260206004820152601f602482015260008051602061641a833981519152604482015290519081900360640190fd5b87600189510381518110611f8357fe5b60200260200101516001600160a01b031688600081518110611fa157fe5b60200260200101516001600160a01b03161415612000576040805162461bcd60e51b815260206004820152601860248201527709ee4c8cae484deded67440d2dcecc2d8d2c840bee0c2e8d60431b604482015290519081900360640190fd5b60008711612054576040805162461bcd60e51b815260206004820152601c60248201527b27b93232b92137b7b59d1034b73b30b634b2102fb0b6b7bab73a24b760211b604482015290519081900360640190fd5b600e548310156120955760405162461bcd60e51b81526004018080602001828103825260258152602001806163886025913960400191505060405180910390fd5b61209d615115565b811561215857600a5488516001600160a01b039091169089906000906120bf57fe5b60200260200101516001600160a01b03161461210c5760405162461bcd60e51b81526004018080602001828103825260258152602001806163636025913960400191505060405180910390fd5b6121168388615187565b34146121535760405162461bcd60e51b81526004018080602001828103825260268152602001806163ce6026913960400191505060405180910390fd5b612242565b8234146121965760405162461bcd60e51b815260040180806020018281038252602e815260200180616464602e913960400191505060405180910390fd5b600c5488516001600160a01b0390911690631b827878908a906000906121b857fe5b602002602001015133308b6040518563ffffffff1660e01b815260040180856001600160a01b03168152602001846001600160a01b03168152602001836001600160a01b03168152602001828152602001945050505050600060405180830381600087803b15801561222957600080fd5b505af115801561223d573d6000803e3d6000fd5b505050505b612252338989898989878a6151df565b50506001600055505050505050565b6001602081815260009384526040808520909152918352912080549181015460028201546003830154600484015460058501546006860154600787015460088801546009909801546001600160a01b03998a1699978816989697958616969490951694929360ff92831693919216908a565b60086020526000908152604090205460ff1681565b60105460ff1681565b600a546001600160a01b031681565b60026000541415612346576040805162461bcd60e51b815260206004820152601f602482015260008051602061620b833981519152604482015290519081900360640190fd5b60026000556123536160fd565b5033600090815260016020818152604080842085855282529283902083516101408101855281546001600160a01b039081168083529483015481169382019390935260028201549481019490945260038101548216606085015260048101549091166080840152600581015460a0840152600681015460ff908116151560c0850152600782015460e0850152600882015416151561010084015260090154610120830152612436576040805162461bcd60e51b815260206004820152601d60248201526000805160206161eb833981519152604482015290519081900360640190fd5b3360009081526001602081815260408084208685528252832080546001600160a01b0319908116825592810180548416905560028101849055600381018054841690556004810180549093169092556005820183905560068201805460ff19908116909155600783018490556008830180549091169055600990910191909155600a54908201516001600160a01b03908116911614156124fa576124f56124ef826040015183610120015161518790919063ffffffff16565b3361509c565b61252f565b61252033826040015183602001516001600160a01b0316614f169092919063ffffffff16565b61252f8161012001513361509c565b80600001516001600160a01b03167fd500f34e0ec655b7614ae42e1d9c666d5e4dde909a1297829f8c5ecf00805d328383602001518460400151856060015186608001518760a001518860c001518960e001518a61010001518b6101200151604051808b81526020018a6001600160a01b03168152602001898152602001886001600160a01b03168152602001876001600160a01b03168152602001868152602001851515815260200184815260200183151581526020018281526020019a505050505050505050505060405180910390a250506001600055565b670de0b6b3a764000081565b60008060008461269e57600d54604080516340d3096b60e11b81526001600160a01b038981166004830152915191909216916381a612d6916024808301926020929190829003018186803b15801561266d57600080fd5b505afa158015612681573d6000803e3d6000fd5b505050506040513d602081101561269757600080fd5b5051612718565b600d5460408051637092736960e11b81526001600160a01b0389811660048301529151919092169163e124e6d2916024808301926020929190829003018186803b1580156126eb57600080fd5b505afa1580156126ff573d6000803e3d6000fd5b505050506040513d602081101561271557600080fd5b50515b90506000886127295787821061272d565b8782115b9050841561277157806127715760405162461bcd60e51b81526004018080602001828103825260268152602001806163f46026913960400191505060405180910390fd5b909890975095505050505050565b600260005414156127c5576040805162461bcd60e51b815260206004820152601f602482015260008051602061620b833981519152604482015290519081900360640190fd5b60026000556009546001600160a01b03163314612817576040805162461bcd60e51b815260206004820152601460248201526000805160206162c2833981519152604482015290519081900360640190fd5b61281f6160fd565b506001600160a01b038083166000908152600160208181526040808420868552825292839020835161014081018552815486168082529382015486169281019290925260028101549382019390935260038301548416606082015260048301549093166080840152600582015460a0840152600682015460ff908116151560c0850152600783015460e08501526008830154161515610100840152600990910154610120830152612905576040805162461bcd60e51b815260206004820152601d60248201526000805160206161eb833981519152604482015290519081900360640190fd5b6001600160a01b0380841660009081526001602081815260408084208785528252832080546001600160a01b0319908116825592810180548416905560028101849055600381018054841690556004810180549093169092556005820183905560068201805460ff19908116909155600783018490556008830180549091169055600990910191909155600a54908301518216911614156129ca576129c56129bf826040015183610120015161518790919063ffffffff16565b8461509c565b6129ff565b6129f083826040015183602001516001600160a01b0316614f169092919063ffffffff16565b6129ff8161012001518461509c565b80600001516001600160a01b03167fd500f34e0ec655b7614ae42e1d9c666d5e4dde909a1297829f8c5ecf00805d328383602001518460400151856060015186608001518760a001518860c001518960e001518a61010001518b6101200151604051808b81526020018a6001600160a01b03168152602001898152602001886001600160a01b03168152602001876001600160a01b03168152602001868152602001851515815260200184815260200183151581526020018281526020019a505050505050505050505060405180910390a25050600160005550565b600e5481565b612af48c8c8c8c8c8c8c8c8c8c8c61368a565b336000818152600260209081526040918290205482519081528915159181019190915280820184905290517f5189f947b2af19e2f981b25222067bed767a44e4f892ede897b380d49ba94ff79181900360600190a2505050505050505050505050565b6009546001600160a01b03163314612ba4576040805162461bcd60e51b815260206004820152601460248201526000805160206162c2833981519152604482015290519081900360640190fd5b6001600160a01b038216612bed576040805162461bcd60e51b815260206004820152601a602482015260008051602061622b833981519152604482015290519081900360640190fd5b6009546001600160a01b0383811691161415612c4d576040805162461bcd60e51b815260206004820152601a6024820152794f72646572426f6f6b3a2073616d6520676f7665726e616e636560301b604482015290519081900360640190fd5b612c5782826153ee565b5050565b600560208181526000938452604080852090915291835291208054600282015460038301546004840154948401546006909401546001600160a01b03909316949193909260ff808316926101009004169087565b33600090815260076020526040902080544210612d11576040805162461bcd60e51b815260206004820152601b60248201527a13dc99195c909bdbdace88191958591b1a5b9948195e1c1a5c9959602a1b604482015290519081900360640190fd5b60018082015460ff16151514612d585760405162461bcd60e51b81526004018080602001828103825260218152602001806162a16021913960400191505060405180910390fd5b6009805433600081815260076020526040808220828155600101805460ff1916905584546001600160a01b031916831790945592516001600160a01b0390921692909183917f5f56bee8cffbe9a78652a74a60705edede02af10b0bbb888ca44b79a0d42ce8091a35050565b60005b8351811015612df457612dec848281518110612ddf57fe5b6020026020010151614ac5565b600101612dc7565b5060005b8251811015612e2557612e1d838281518110612e1057fe5b6020026020010151612300565b600101612df8565b5060005b8151811015612e5657612e4e828281518110612e4157fe5b602002602001015161329e565b600101612e29565b50505050565b6007602052600090815260409020805460019091015460ff1682565b600f5481565b68327cb2734119d3b7a9601e1b81565b60026000541415612ed4576040805162461bcd60e51b815260206004820152601f602482015260008051602061620b833981519152604482015290519081900360640190fd5b60026000908155338152600160209081526040808320878452909152902080546001600160a01b0316612f3c576040805162461bcd60e51b815260206004820152601d60248201526000805160206161eb833981519152604482015290519081900360640190fd5b6007810183905560088101805483151560ff19909116811790915560058201859055600382015460048301546006840154604080518a81526001600160a01b039485166020820152929093168284015260ff16151560608201526080810187905260a0810186905260c08101929092525133917f0a0360dd5c354235bbf8d386ba3b24ef8134088e0785677de1504df219d9149a919081900360e00190a250506001600055505050565b6009546001600160a01b03163314613033576040805162461bcd60e51b815260206004820152601460248201526000805160206162c2833981519152604482015290519081900360640190fd5b6001600160a01b03811660009081526007602052604090206001015460ff166130a3576040805162461bcd60e51b815260206004820152601e60248201527f4f72646572426f6f6b3a2070726f706f73616c206e6f74206163746976650000604482015290519081900360640190fd5b6001600160a01b038116600081815260076020526040808220828155600101805460ff19169055513392917ffc6a2fa53abe2adfe8372a9495032d7e6458d3aed34fa880132b6c808da1e99c91a350565b600d5460408051632c668ec160e01b81526001600160a01b038481166004830152670de0b6b3a76400006024830152915160009384931691632c668ec1916044808301926020929190829003018186803b15801561315157600080fd5b505afa158015613165573d6000803e3d6000fd5b505050506040513d602081101561317b57600080fd5b5051600d54604080516340d3096b60e11b81526001600160a01b038781166004830152915193945060009391909216916381a612d6916024808301926020929190829003018186803b1580156131d057600080fd5b505afa1580156131e4573d6000803e3d6000fd5b505050506040513d60208110156131fa57600080fd5b5051600d54604080516323b95ceb60e21b81526001600160a01b03888116600483015291519394506000939190921691638ee573ac916024808301926020929190829003018186803b15801561324f57600080fd5b505afa158015613263573d6000803e3d6000fd5b505050506040513d602081101561327957600080fd5b50519050613295600a82900a61328f858561546a565b906154c3565b95945050505050565b600260005414156132e4576040805162461bcd60e51b815260206004820152601f602482015260008051602061620b833981519152604482015290519081900360640190fd5b60026000556132f1616041565b5033600090815260036020818152604080842085855282529283902083516101208101855281546001600160a01b03908116808352600184015482169483019490945260028301549582019590955292810154909316606083015260048301546080830152600583015460ff908116151560a0840152600684015460c0840152600784015416151560e0830152600890920154610100820152906133ca576040805162461bcd60e51b815260206004820152601d60248201526000805160206161eb833981519152604482015290519081900360640190fd5b336000818152600360208181526040808420878552909152822080546001600160a01b03199081168255600182018054821690556002820184905591810180549092169091556004810182905560058101805460ff199081169091556006820183905560078201805490911690556008015561010082015161344b9161509c565b80600001516001600160a01b03167f1154174c82984656b028c8021671988f60a346497e56fe02554761184f82a0758383602001518460400151856060015186608001518760a001518860c001518960e001518a6101000151604051808a8152602001896001600160a01b03168152602001888152602001876001600160a01b0316815260200186815260200185151581526020018481526020018315158152602001828152602001995050505050505050505060405180910390a250506001600055565b60026000541415613556576040805162461bcd60e51b815260206004820152601f602482015260008051602061620b833981519152604482015290519081900360640190fd5b60026000908155338152600360209081526040808320888452909152902080546001600160a01b03166135be576040805162461bcd60e51b815260206004820152601d60248201526000805160206161eb833981519152604482015290519081900360640190fd5b6006810183905560078101805483151560ff1990911681179091556004820185905560028201869055600182015460038301546005840154604080518b81526001600160a01b0394851660208201528082018b90529290931660608301526080820188905260ff16151560a082015260c0810186905260e08101929092525133917f75781255bc71c83f89f29e5a2599f2c174a562d2cd8f2e818a47f132e728049891908190036101000190a25050600160005550505050565b60026020526000908152604090205481565b600260005414156136d0576040805162461bcd60e51b815260206004820152601f602482015260008051602061620b833981519152604482015290519081900360640190fd5b6002600055333214806136f257503360009081526008602052604090205460ff165b61372d5760405162461bcd60e51b815260040180806020018281038252603481526020018061626d6034913960400191505060405180910390fd5b613735615115565b600e548210156137765760405162461bcd60e51b81526004018080602001828103825260258152602001806163886025913960400191505060405180910390fd5b801561383157600a548b516001600160a01b03909116908c9060009061379857fe5b60200260200101516001600160a01b0316146137e55760405162461bcd60e51b81526004018080602001828103825260258152602001806163636025913960400191505060405180910390fd5b6137ef828b615187565b341461382c5760405162461bcd60e51b81526004018080602001828103825260268152602001806163ce6026913960400191505060405180910390fd5b61391b565b81341461386f5760405162461bcd60e51b815260040180806020018281038252602e815260200180616464602e913960400191505060405180910390fd5b600c548b516001600160a01b0390911690631b827878908d9060009061389157fe5b602002602001015133308e6040518563ffffffff1660e01b815260040180856001600160a01b03168152602001846001600160a01b03168152602001836001600160a01b03168152602001828152602001945050505050600060405180830381600087803b15801561390257600080fd5b505af1158015613916573d6000803e3d6000fd5b505050505b60008b60018d51038151811061392d57fe5b60200260200101519050600060018d5111156139f257816001600160a01b03168d60008151811061395a57fe5b60200260200101516001600160a01b031614156139b9576040805162461bcd60e51b815260206004820152601860248201527709ee4c8cae484deded67440d2dcecc2d8d2c840bee0c2e8d60431b604482015290519081900360640190fd5b6139e0600d60009054906101000a90046001600160a01b03168d8f6000815181106115cc57fe5b6139eb8d8b30614f6d565b90506139f5565b508a5b600d5460408051630a48d5a960e01b81526001600160a01b0385811660048301526024820185905291516000939290921691630a48d5a991604480820192602092909190829003018186803b158015613a4d57600080fd5b505afa158015613a61573d6000803e3d6000fd5b505050506040513d6020811015613a7757600080fd5b5051600f54909150811015613abd5760405162461bcd60e51b815260040180806020018281038252602281526020018061624b6022913960400191505060405180910390fd5b50613ad03383838b8f8e8d8d8d8d615502565b505060016000555050505050505050505050565b60026000541415613b2a576040805162461bcd60e51b815260206004820152601f602482015260008051602061620b833981519152604482015290519081900360640190fd5b600260005533321480613b4c57503360009081526008602052604090205460ff165b613b875760405162461bcd60e51b815260040180806020018281038252603481526020018061626d6034913960400191505060405180910390fd5b613b8f615115565b600e543411613bcf5760405162461bcd60e51b81526004018080602001828103825260258152602001806163886025913960400191505060405180910390fd5b613bdf3386868a8a8888886157d5565b505060016000555050505050565b6009546001600160a01b03163314613c3a576040805162461bcd60e51b815260206004820152601460248201526000805160206162c2833981519152604482015290519081900360640190fd5b6001600160a01b038216613c83576040805162461bcd60e51b815260206004820152601a602482015260008051602061622b833981519152604482015290519081900360640190fd5b6001600160a01b038216600081815260086020908152604091829020805460ff1916851515908117909155825190815291517f1da31b5d8a03b762bdfbdd9625b88382a2b8d8e988a1271c378343b711bc70ce9281900390910190a25050565b6000825160021480613cf6575082516003145b613d35576040805162461bcd60e51b815260206004820152601f602482015260008051602061641a833981519152604482015290519081900360640190fd5b600083600081518110613d4457fe5b60200260200101519050600084600186510381518110613d6057fe5b6020908102919091010151600b5490915060009081906001600160a01b0385811691161415613dad57613da687600181518110613d9957fe5b60200260200101516130f4565b9150613e29565b600d54604080516340d3096b60e11b81526001600160a01b038781166004830152915191909216916381a612d6916024808301926020929190829003018186803b158015613dfa57600080fd5b505afa158015613e0e573d6000803e3d6000fd5b505050506040513d6020811015613e2457600080fd5b505191505b600b546001600160a01b0384811691161415613e52575068327cb2734119d3b7a9601e1b613ece565b600d5460408051637092736960e11b81526001600160a01b0386811660048301529151919092169163e124e6d2916024808301926020929190829003018186803b158015613e9f57600080fd5b505afa158015613eb3573d6000803e3d6000fd5b505050506040513d6020811015613ec957600080fd5b505190505b6000613eea8361328f8468327cb2734119d3b7a9601e1b61546a565b8710955050505050505b92915050565b60026000541415613f40576040805162461bcd60e51b815260206004820152601f602482015260008051602061620b833981519152604482015290519081900360640190fd5b60026000908155338152600560209081526040808320878452909152902080546001600160a01b0316613fa8576040805162461bcd60e51b815260206004820152601d60248201526000805160206161eb833981519152604482015290519081900360640190fd5b838160030181905550828160040181905550818160050160006101000a81548160ff021916908315150217905550336001600160a01b03167fa7f9f4a25eb76f5ec01b1a429d95d6a00833f0f137c88827c58799a1c1ff0dfe868360010184600201548888888860050160019054906101000a900460ff16896006015460405180898152602001806020018881526020018781526020018681526020018515158152602001841515815260200183815260200182810382528981815481526020019150805480156140a257602002820191906000526020600020905b81546001600160a01b03168152600190910190602001808311614084575b5050995050505050505050505060405180910390a250506001600055505050565b6009546001600160a01b03163314614110576040805162461bcd60e51b815260206004820152601460248201526000805160206162c2833981519152604482015290519081900360640190fd5b6001600160a01b038116614159576040805162461bcd60e51b815260206004820152601a602482015260008051602061622b833981519152604482015290519081900360640190fd5b6009546001600160a01b03828116911614156141b9576040805162461bcd60e51b815260206004820152601a6024820152794f72646572426f6f6b3a2073616d6520676f7665726e616e636560301b604482015290519081900360640190fd5b6141c5816000196153ee565b50565b60008060008060008060008060006141de61608d565b6001600160a01b03808d1660009081526005602090815260408083208f84528252918290208251610100810184528154909416845260018101805484518185028101850190955280855291938584019390929083018282801561426a57602002820191906000526020600020905b81546001600160a01b0316815260019091019060200180831161424c575b505050918352505060028201546020808301919091526003830154604083015260048301546060830152600583015460ff8082161515608085015261010090910416151560a083015260069092015460c090910152810151519091506142d15760006142eb565b80602001516000815181106142e257fe5b60200260200101515b6001826020015151116142ff576000614319565b816020015160018151811061431057fe5b60200260200101515b60028360200151511161432d576000614347565b826020015160028151811061433e57fe5b60200260200101515b8360400151846060015185608001518660a001518760c001518860e00151995099509950995099509950995099509950509295985092959850929598565b600260005414156143cb576040805162461bcd60e51b815260206004820152601f602482015260008051602061620b833981519152604482015290519081900360640190fd5b60026000556143d86160fd565b506001600160a01b038084166000908152600160208181526040808420878552825292839020835161014081018552815486168082529382015486169281019290925260028101549382019390935260038301548416606082015260048301549093166080840152600582015460a0840152600682015460ff908116151560c0850152600783015460e085015260088301541615156101008401526009909101546101208301526144be576040805162461bcd60e51b815260206004820152601d60248201526000805160206161eb833981519152604482015290519081900360640190fd5b60006144df8261010001518360e0015184608001518560c001516001612616565b506001600160a01b0380871660009081526001602081815260408084208a8552825280842080546001600160a01b0319908116825593810180548516905560028101859055600381018054851690556004810180549094169093556005830184905560068301805460ff19908116909155600784018590556008840180549091169055600990920192909255600d549086015191860151939450614587938316921690614f16565b81606001516001600160a01b031682602001516001600160a01b03161461465f5760408051600280825260608083018452926020830190803683370190505090508260200151816000815181106145da57fe5b60200260200101906001600160a01b031690816001600160a01b03168152505082606001518160018151811061460c57fe5b60200260200101906001600160a01b031690816001600160a01b031681525050600061463a82600030614f6d565b600d54606086015191925061465c916001600160a01b03908116911683614f16565b50505b600c5482516060840151608085015160a086015160c087015160408051630f8ee8bb60e11b81526001600160a01b03968716600482015294861660248601529285166044850152606484019190915215156084830152519190921691631f1dd1769160a480830192600092919082900301818387803b1580156146e157600080fd5b505af11580156146f5573d6000803e3d6000fd5b505050506147088261012001518461509c565b81600001516001600160a01b03167f7fb1c74d1ea6aa1c9c585e17ce8274c8ff98745e85e7459b73f87d784494f58e8584602001518560400151866060015187608001518860a001518960c001518a60e001518b61010001518c61012001518c604051808c81526020018b6001600160a01b031681526020018a8152602001896001600160a01b03168152602001886001600160a01b03168152602001878152602001861515815260200185815260200184151581526020018381526020018281526020019b50505050505050505050505060405180910390a250506001600055505050565b60008060008060008060008060006148046160fd565b505050506001600160a01b0397881660009081526001602081815260408084209a845299815291899020895161014081018b5281548c168152918101548b1692820183905260028101549982018a905260038101548b16606083018190526004820154909b1660808301819052600582015460a08401819052600683015460ff908116151560c08601819052600785015460e08701819052600886015490921615156101008701819052600990950154610120909601869052959e9c9d9c929b5090995093975092955093509150565b60046020526000908152604090205481565b6009546001600160a01b03163314614933576040805162461bcd60e51b815260206004820152601460248201526000805160206162c2833981519152604482015290519081900360640190fd5b60105460ff161561498b576040805162461bcd60e51b815260206004820152601e60248201527f4f72646572426f6f6b3a20616c726561647920696e697469616c697a65640000604482015290519081900360640190fd5b6010805460ff19166001179055600c80546001600160a01b038089166001600160a01b03199283168117909355600d80548983169084168117909155600a80548984169085168117909155600b8054938916939094168317909355600e869055600f8590556040805194855260208501919091528381019290925260608301526080820184905260a08201839052517fcfb7ef8749fafc8da2af1ba3d025479ffc4e58f7dc420113e112512a3bda59639181900360c00190a1505050505050565b600360208181526000938452604080852090915291835291208054600182015460028301549383015460048401546005850154600686015460078701546008909701546001600160a01b039687169895871697959690941694929360ff9283169391929091169089565b600b546001600160a01b031681565b60026000541415614b0b576040805162461bcd60e51b815260206004820152601f602482015260008051602061620b833981519152604482015290519081900360640190fd5b6002600055614b1861608d565b33600090815260056020908152604080832085845282529182902082516101008101845281546001600160a01b0316815260018201805485518186028101860190965280865291949293858101939290830182828015614ba157602002820191906000526020600020905b81546001600160a01b03168152600190910190602001808311614b83575b5050509183525050600282015460208201526003820154604082015260048201546060820152600582015460ff8082161515608084015261010090910416151560a082015260069091015460c09091015280519091506001600160a01b0316614c3f576040805162461bcd60e51b815260206004820152601d60248201526000805160206161eb833981519152604482015290519081900360640190fd5b336000908152600560209081526040808320858452909152812080546001600160a01b031916815590614c7560018301826160df565b50600060028201819055600382018190556004820181905560058201805461ffff191690556006909101819055600a54602083015180516001600160a01b03909216929091614cc057fe5b60200260200101516001600160a01b03161415614cfa57614cf56124ef82604001518360e0015161518790919063ffffffff16565b614d22565b614d1433826040015183602001516000815181106115cc57fe5b614d228160e001513361509c565b336001600160a01b03167fefd66d4f9c2f880c70aedeb5b26a44fb474cea07e5d6c533f2d27c303d5d94538383602001518460400151856060015186608001518760a001518860c001518960e00151604051808981526020018060200188815260200187815260200186815260200185151581526020018415158152602001838152602001828103825289818151815260200191508051906020019060200280838360005b83811015614ddf578181015183820152602001614dc7565b50505050905001995050505050505050505060405180910390a250506001600055565b600c546001600160a01b031681565b614e2088888888888888613ae4565b336000818152600460209081526040918290205482519081528715159181019190915280820184905290517f87bc1d609678e553a59045f76cf1ec2a89eb2b316684b9536ebe70a0a7191bd19181900360600190a25050505050505050565b600d546001600160a01b031681565b6009546001600160a01b03163314614edb576040805162461bcd60e51b815260206004820152601460248201526000805160206162c2833981519152604482015290519081900360640190fd5b600e8190556040805182815290517fbde5eafdc37b81830d70124cddccaaa6d034e71dda3c8fc18a959ca76a7cbcfc9181900360200190a150565b604080516001600160a01b038416602482015260448082018490528251808303909101815260649091019091526020810180516001600160e01b031663a9059cbb60e01b179052614f68908490615a4b565b505050565b6000835160021415614fb457614fad84600081518110614f8957fe5b602002602001015185600181518110614f9e57fe5b60200260200101518585615afc565b9050615095565b83516003141561505a576000614ff585600081518110614fd057fe5b602002602001015186600181518110614fe557fe5b6020026020010151600030615afc565b905061501e600d60009054906101000a90046001600160a01b031682876001815181106115cc57fe5b6150528560018151811061502e57fe5b60200260200101518660028151811061504357fe5b60200260200101518686615afc565b915050615095565b6040805162461bcd60e51b815260206004820152601f602482015260008051602061641a833981519152604482015290519081900360640190fd5b9392505050565b600a5460408051632e1a7d4d60e01b81526004810185905290516001600160a01b0390921691632e1a7d4d9160248082019260009290919082900301818387803b1580156150e957600080fd5b505af11580156150fd573d6000803e3d6000fd5b50612c57925050506001600160a01b03821683615cdb565b341561518557600a60009054906101000a90046001600160a01b03166001600160a01b031663d0e30db0346040518263ffffffff1660e01b81526004016000604051808303818588803b15801561516b57600080fd5b505af115801561517f573d6000803e3d6000fd5b50505050505b565b600082820183811015615095576040805162461bcd60e51b815260206004820152601b60248201527a536166654d6174683a206164646974696f6e206f766572666c6f7760281b604482015290519081900360640190fd5b6001600160a01b03881660009081526006602052604090205461520061608d565b6040518061010001604052808b6001600160a01b031681526020018a81526020018981526020018881526020018781526020018615158152602001851515815260200184815250905061525d60018361518790919063ffffffff16565b6001600160a01b038b8116600090815260066020908152604080832094909455600581528382208683528152929020835181546001600160a01b031916921691909117815582820151805184936152bb926001850192910190616151565b5060408201518160020155606082015181600301556080820151816004015560a08201518160050160006101000a81548160ff02191690831515021790555060c08201518160050160016101000a81548160ff02191690831515021790555060e08201518160060155905050896001600160a01b03167fdf06bb56ffc4029dc0b62b68bb5bbadea93a38b530cefc9b81afb742a6555d88838b8b8b8b8b8b8b604051808981526020018060200188815260200187815260200186815260200185151581526020018415158152602001838152602001828103825289818151815260200191508051906020019060200280838360005b838110156153c85781810151838201526020016153b0565b50505050905001995050505050505050505060405180910390a250505050505050505050565b604080518082018252828152600160208083018281526001600160a01b03871660008181526007845286902094518555905193909201805460ff1916931515939093179092558251848152925190927f02dd0697be46e764c3ba81094158781c31b235d03bb27a0daf1bdef0ec1084dd92908290030190a25050565b60008261547957506000613ef4565b8282028284828161548657fe5b04146150955760405162461bcd60e51b81526004018080602001828103825260218152602001806163ad6021913960400191505060405180910390fd5b600061509583836040518060400160405280601a815260200179536166654d6174683a206469766973696f6e206279207a65726f60301b815250615dc0565b3360009081526002602052604090205461551a6160fd565b6040518061014001604052808d6001600160a01b031681526020018c6001600160a01b031681526020018b81526020018a6001600160a01b03168152602001896001600160a01b031681526020018881526020018715158152602001868152602001851515815260200184815250905061559e60018361518790919063ffffffff16565b600260008e6001600160a01b03166001600160a01b031681526020019081526020016000208190555080600160008e6001600160a01b03166001600160a01b03168152602001908152602001600020600084815260200190815260200160002060008201518160000160006101000a8154816001600160a01b0302191690836001600160a01b0316021790555060208201518160010160006101000a8154816001600160a01b0302191690836001600160a01b031602179055506040820151816002015560608201518160030160006101000a8154816001600160a01b0302191690836001600160a01b0316021790555060808201518160040160006101000a8154816001600160a01b0302191690836001600160a01b0316021790555060a0820151816005015560c08201518160060160006101000a81548160ff02191690831515021790555060e082015181600701556101008201518160080160006101000a81548160ff02191690831515021790555061012082015181600901559050508b6001600160a01b03167fb27b9afe3043b93788c40cfc3cc73f5d928a2e40f3ba01820b246426de8fa1b9838d8d8d8d8d8d8d8d8d604051808b81526020018a6001600160a01b03168152602001898152602001886001600160a01b03168152602001876001600160a01b03168152602001868152602001851515815260200184815260200183151581526020018281526020019a505050505050505050505060405180910390a2505050505050505050505050565b6001600160a01b0388166000908152600460205260409020546157f6616041565b5060408051610120810182526001600160a01b03808c1682528a8116602083015291810189905290871660608201526080810186905284151560a082015260c0810184905282151560e082015234610100820152615855826001615187565b600460008c6001600160a01b03166001600160a01b031681526020019081526020016000208190555080600360008c6001600160a01b03166001600160a01b03168152602001908152602001600020600084815260200190815260200160002060008201518160000160006101000a8154816001600160a01b0302191690836001600160a01b0316021790555060208201518160010160006101000a8154816001600160a01b0302191690836001600160a01b031602179055506040820151816002015560608201518160030160006101000a8154816001600160a01b0302191690836001600160a01b031602179055506080820151816004015560a08201518160050160006101000a81548160ff02191690831515021790555060c0820151816006015560e08201518160070160006101000a81548160ff0219169083151502179055506101008201518160080155905050896001600160a01b03167f48ee333d2a65cc45fdb83bc012920d89181c3377390cd239d2b63f2bef67a02d838b8b8b8b8b8b8b34604051808a8152602001896001600160a01b03168152602001888152602001876001600160a01b0316815260200186815260200185151581526020018481526020018315158152602001828152602001995050505050505050505060405180910390a250505050505050505050565b6060615aa0826040518060400160405280602081526020017f5361666545524332303a206c6f772d6c6576656c2063616c6c206661696c6564815250856001600160a01b0316615e629092919063ffffffff16565b805190915015614f6857808060200190516020811015615abf57600080fd5b5051614f685760405162461bcd60e51b815260040180806020018281038252602a81526020018061643a602a913960400191505060405180910390fd5b600b5460009081906001600160a01b0386811691161415615ba157600d546040805163817bb85760e01b81526001600160a01b03898116600483015286811660248301529151919092169163817bb8579160448083019260209291908290030181600087803b158015615b6e57600080fd5b505af1158015615b82573d6000803e3d6000fd5b505050506040513d6020811015615b9857600080fd5b50519050615c9c565b600b546001600160a01b0387811691161415615c0e57600d5460408051630711e61960e41b81526001600160a01b03888116600483015286811660248301529151919092169163711e61909160448083019260209291908290030181600087803b158015615b6e57600080fd5b600d5460408051634998b10960e11b81526001600160a01b038981166004830152888116602483015286811660448301529151919092169163933162129160648083019260209291908290030181600087803b158015615c6d57600080fd5b505af1158015615c81573d6000803e3d6000fd5b505050506040513d6020811015615c9757600080fd5b505190505b838110156132955760405162461bcd60e51b81526004018080602001828103825260218152602001806163426021913960400191505060405180910390fd5b80471015615d30576040805162461bcd60e51b815260206004820152601d60248201527f416464726573733a20696e73756666696369656e742062616c616e6365000000604482015290519081900360640190fd5b6040516000906001600160a01b0384169083908381818185875af1925050503d8060008114615d7b576040519150601f19603f3d011682016040523d82523d6000602084013e615d80565b606091505b5050905080614f685760405162461bcd60e51b815260040180806020018281038252603a8152602001806162e2603a913960400191505060405180910390fd5b60008183615e4c5760405162461bcd60e51b81526004018080602001828103825283818151815260200191508051906020019080838360005b83811015615e11578181015183820152602001615df9565b50505050905090810190601f168015615e3e5780820380516001836020036101000a031916815260200191505b509250505060405180910390fd5b506000838581615e5857fe5b0495945050505050565b6060615e718484600085615e79565b949350505050565b606082471015615eba5760405162461bcd60e51b815260040180806020018281038252602681526020018061631c6026913960400191505060405180910390fd5b615ec385615fd5565b615f14576040805162461bcd60e51b815260206004820152601d60248201527f416464726573733a2063616c6c20746f206e6f6e2d636f6e7472616374000000604482015290519081900360640190fd5b60006060866001600160a01b031685876040518082805190602001908083835b60208310615f535780518252601f199092019160209182019101615f34565b6001836020036101000a03801982511681845116808217855250505050505090500191505060006040518083038185875af1925050503d8060008114615fb5576040519150601f19603f3d011682016040523d82523d6000602084013e615fba565b606091505b5091509150615fca828286615fdb565b979650505050505050565b3b151590565b60608315615fea575081615095565b825115615ffa5782518084602001fd5b60405162461bcd60e51b8152602060048201818152845160248401528451859391928392604401919085019080838360008315615e11578181015183820152602001615df9565b6040805161012081018252600080825260208201819052918101829052606081018290526080810182905260a0810182905260c0810182905260e0810182905261010081019190915290565b60405180610100016040528060006001600160a01b0316815260200160608152602001600081526020016000815260200160008152602001600015158152602001600015158152602001600081525090565b50805460008255906000526020600020908101906141c591906161b6565b6040805161014081018252600080825260208201819052918101829052606081018290526080810182905260a0810182905260c0810182905260e08101829052610100810182905261012081019190915290565b8280548282559060005260206000209081019282156161a6579160200282015b828111156161a657825182546001600160a01b0319166001600160a01b03909116178255602090920191600190910190616171565b506161b29291506161cb565b5090565b5b808211156161b257600081556001016161b7565b5b808211156161b25780546001600160a01b03191681556001016161cc56fe4f72646572426f6f6b3a206e6f6e2d6578697374656e74206f726465720000005265656e7472616e637947756172643a207265656e7472616e742063616c6c004f72646572426f6f6b3a20696e76616c696420616464726573730000000000004f72646572426f6f6b3a20696e73756666696369656e7420636f6c6c61746572616c4f72646572426f6f6b3a206f6e6c7920454f41206f722077686974656c697374656420636f6e74726163747320616c6c6f7765644f72646572426f6f6b3a2070726f706f73616c206973206e6f74206163746976654f72646572426f6f6b3a20666f7262696464656e000000000000000000000000416464726573733a20756e61626c6520746f2073656e642076616c75652c20726563697069656e74206d61792068617665207265766572746564416464726573733a20696e73756666696369656e742062616c616e636520666f722063616c6c4f72646572426f6f6b3a20696e73756666696369656e7420616d6f756e744f75744f72646572426f6f6b3a206f6e6c79207765746820636f756c6420626520777261707065644f72646572426f6f6b3a20696e73756666696369656e7420657865637574696f6e20666565536166654d6174683a206d756c7469706c69636174696f6e206f766572666c6f774f72646572426f6f6b3a20696e636f72726563742076616c7565207472616e736665727265644f72646572426f6f6b3a20696e76616c696420707269636520666f7220657865637574696f6e4f72646572426f6f6b3a20696e76616c6964205f706174682e6c656e677468005361666545524332303a204552433230206f7065726174696f6e20646964206e6f7420737563636565644f72646572426f6f6b3a20696e636f727265637420657865637574696f6e20666565207472616e73666572726564a2646970667358221220708307897c472cccad93ae321e9921df8ccbc32ef9acf0a3bfe88ab0b2ba62a664736f6c634300060c0033","linkReferences":{}},"methodIdentifiers":{"PRICE_PRECISION()":"95082d25","USDG_PRECISION()":"4a686d67","acceptGov()":"7bc6729b","cancelDecreaseOrder(uint256)":"9e71b0f0","cancelDecreaseOrderAdmin(address,uint256)":"13bd39d7","cancelGovProposal(address)":"9c35b497","cancelIncreaseOrder(uint256)":"47e0bbd0","cancelIncreaseOrderAdmin(address,uint256)":"611c86a8","cancelMultiple(uint256[],uint256[],uint256[])":"807c5600","cancelSwapOrder(uint256)":"f882ac07","createDecreaseOrder(address,uint256,address,uint256,bool,uint256,bool)":"c16cde8a","createDecreaseOrderAttached(address,uint256,address,uint256,bool,uint256,bool,bytes32)":"f997c306","createIncreaseOrder(address[],uint256,address,uint256,uint256,address,bool,uint256,bool,uint256,bool)":"b142a4b0","createIncreaseOrderAttached(address[],uint256,address,uint256,uint256,address,bool,uint256,bool,uint256,bool,bytes32)":"686a17b0","createSwapOrder(address[],uint256,uint256,uint256,bool,uint256,bool,bool)":"269ae6c2","decreaseOrders(address,uint256)":"f2d2e01b","decreaseOrdersIndex(address)":"d566d0ca","executeDecreaseOrder(address,uint256,address)":"11d9444a","executeIncreaseOrder(address,uint256,address)":"d38ab519","executeSwapOrder(address,uint256,address)":"07c7edc3","getDecreaseOrder(address,uint256)":"026032ee","getIncreaseOrder(address,uint256)":"d3bab1d1","getSwapOrder(address,uint256)":"d0d40cd6","getUsdgMinPrice(address)":"9e23de5c","gov()":"12d43a51","govProposals(address)":"8d0fedb0","increaseOrders(address,uint256)":"2b7d6290","increaseOrdersIndex(address)":"aec22455","initialize(address,address,address,address,uint256,uint256)":"d7c41c79","isInitialized()":"392e53cd","minExecutionFee()":"63ae2103","minPurchaseTokenAmountUsd()":"8de10c2e","router()":"f887ea40","setGov(address)":"cfad57a2","setGovWithDeadline(address,uint256)":"6bb22fd7","setMinExecutionFee(uint256)":"fc2cee62","setMinPurchaseTokenAmountUsd(uint256)":"0d5cc938","setWhitelistedContract(address,bool)":"c4214492","swapOrders(address,uint256)":"79221fa2","swapOrdersIndex(address)":"00cf066b","updateDecreaseOrder(uint256,uint256,uint256,uint256,bool)":"a397ea54","updateIncreaseOrder(uint256,uint256,uint256,bool)":"9983ee1b","updateSwapOrder(uint256,uint256,uint256,bool)":"c86b0f7d","usdg()":"f5b91b7b","validatePositionOrderPrice(bool,uint256,address,bool,bool)":"4c54f0b0","validateSwapOrderPriceWithTriggerAboveThreshold(address[],uint256)":"c4a1821b","vault()":"fbfa77cf","weth()":"3fc8cef3","whitelistedContracts(address)":"391feebb"},"id":35}