{"abi":[{"type":"constructor","inputs":[],"stateMutability":"nonpayable"},{"type":"receive","stateMutability":"payable"},{"type":"function","name":"PRICE_PRECISION","inputs":[],"outputs":[{"name":"","type":"uint256","internalType":"uint256"}],"stateMutability":"view"},{"type":"function","name":"USDG_PRECISION","inputs":[],"outputs":[{"name":"","type":"uint256","internalType":"uint256"}],"stateMutability":"view"},{"type":"function","name":"cancelDecreaseOrder","inputs":[{"name":"_orderIndex","type":"uint256","internalType":"uint256"}],"outputs":[],"stateMutability":"nonpayable"},{"type":"function","name":"cancelDecreaseOrderAdmin","inputs":[{"name":"_address","type":"address","internalType":"address"},{"name":"_orderIndex","type":"uint256","internalType":"uint256"}],"outputs":[],"stateMutability":"nonpayable"},{"type":"function","name":"cancelIncreaseOrder","inputs":[{"name":"_orderIndex","type":"uint256","internalType":"uint256"}],"outputs":[],"stateMutability":"nonpayable"},{"type":"function","name":"cancelIncreaseOrderAdmin","inputs":[{"name":"_address","type":"address","internalType":"address"},{"name":"_orderIndex","type":"uint256","internalType":"uint256"}],"outputs":[],"stateMutability":"nonpayable"},{"type":"function","name":"cancelMultiple","inputs":[{"name":"_swapOrderIndexes","type":"uint256[]","internalType":"uint256[]"},{"name":"_increaseOrderIndexes","type":"uint256[]","internalType":"uint256[]"},{"name":"_decreaseOrderIndexes","type":"uint256[]","internalType":"uint256[]"}],"outputs":[],"stateMutability":"nonpayable"},{"type":"function","name":"cancelSwapOrder","inputs":[{"name":"_orderIndex","type":"uint256","internalType":"uint256"}],"outputs":[],"stateMutability":"nonpayable"},{"type":"function","name":"createDecreaseOrder","inputs":[{"name":"_indexToken","type":"address","internalType":"address"},{"name":"_sizeDelta","type":"uint256","internalType":"uint256"},{"name":"_collateralToken","type":"address","internalType":"address"},{"name":"_collateralDelta","type":"uint256","internalType":"uint256"},{"name":"_isLong","type":"bool","internalType":"bool"},{"name":"_triggerPrice","type":"uint256","internalType":"uint256"},{"name":"_triggerAboveThreshold","type":"bool","internalType":"bool"}],"outputs":[],"stateMutability":"payable"},{"type":"function","name":"createDecreaseOrderAttached","inputs":[{"name":"_indexToken","type":"address","internalType":"address"},{"name":"_sizeDelta","type":"uint256","internalType":"uint256"},{"name":"_collateralToken","type":"address","internalType":"address"},{"name":"_collateralDelta","type":"uint256","internalType":"uint256"},{"name":"_isLong","type":"bool","internalType":"bool"},{"name":"_triggerPrice","type":"uint256","internalType":"uint256"},{"name":"_triggerAboveThreshold","type":"bool","internalType":"bool"},{"name":"_key","type":"bytes32","internalType":"bytes32"}],"outputs":[],"stateMutability":"payable"},{"type":"function","name":"createIncreaseOrder","inputs":[{"name":"_path","type":"address[]","internalType":"address[]"},{"name":"_amountIn","type":"uint256","internalType":"uint256"},{"name":"_indexToken","type":"address","internalType":"address"},{"name":"_minOut","type":"uint256","internalType":"uint256"},{"name":"_sizeDelta","type":"uint256","internalType":"uint256"},{"name":"_collateralToken","type":"address","internalType":"address"},{"name":"_isLong","type":"bool","internalType":"bool"},{"name":"_triggerPrice","type":"uint256","internalType":"uint256"},{"name":"_triggerAboveThreshold","type":"bool","internalType":"bool"},{"name":"_executionFee","type":"uint256","internalType":"uint256"},{"name":"_shouldWrap","type":"bool","internalType":"bool"}],"outputs":[],"stateMutability":"payable"},{"type":"function","name":"createIncreaseOrderAttached","inputs":[{"name":"_path","type":"address[]","internalType":"address[]"},{"name":"_amountIn","type":"uint256","internalType":"uint256"},{"name":"_indexToken","type":"address","internalType":"address"},{"name":"_minOut","type":"uint256","internalType":"uint256"},{"name":"_sizeDelta","type":"uint256","internalType":"uint256"},{"name":"_collateralToken","type":"address","internalType":"address"},{"name":"_isLong","type":"bool","internalType":"bool"},{"name":"_triggerPrice","type":"uint256","internalType":"uint256"},{"name":"_triggerAboveThreshold","type":"bool","internalType":"bool"},{"name":"_executionFee","type":"uint256","internalType":"uint256"},{"name":"_shouldWrap","type":"bool","internalType":"bool"},{"name":"key","type":"bytes32","internalType":"bytes32"}],"outputs":[],"stateMutability":"payable"},{"type":"function","name":"createSwapOrder","inputs":[{"name":"_path","type":"address[]","internalType":"address[]"},{"name":"_amountIn","type":"uint256","internalType":"uint256"},{"name":"_minOut","type":"uint256","internalType":"uint256"},{"name":"_triggerRatio","type":"uint256","internalType":"uint256"},{"name":"_triggerAboveThreshold","type":"bool","internalType":"bool"},{"name":"_executionFee","type":"uint256","internalType":"uint256"},{"name":"_shouldWrap","type":"bool","internalType":"bool"},{"name":"_shouldUnwrap","type":"bool","internalType":"bool"}],"outputs":[],"stateMutability":"payable"},{"type":"function","name":"decreaseOrders","inputs":[{"name":"","type":"address","internalType":"address"},{"name":"","type":"uint256","internalType":"uint256"}],"outputs":[{"name":"account","type":"address","internalType":"address"},{"name":"collateralToken","type":"address","internalType":"address"},{"name":"collateralDelta","type":"uint256","internalType":"uint256"},{"name":"indexToken","type":"address","internalType":"address"},{"name":"sizeDelta","type":"uint256","internalType":"uint256"},{"name":"isLong","type":"bool","internalType":"bool"},{"name":"triggerPrice","type":"uint256","internalType":"uint256"},{"name":"triggerAboveThreshold","type":"bool","internalType":"bool"},{"name":"executionFee","type":"uint256","internalType":"uint256"}],"stateMutability":"view"},{"type":"function","name":"decreaseOrdersIndex","inputs":[{"name":"","type":"address","internalType":"address"}],"outputs":[{"name":"","type":"uint256","internalType":"uint256"}],"stateMutability":"view"},{"type":"function","name":"executeDecreaseOrder","inputs":[{"name":"_address","type":"address","internalType":"address"},{"name":"_orderIndex","type":"uint256","internalType":"uint256"},{"name":"_feeReceiver","type":"address","internalType":"address payable"}],"outputs":[],"stateMutability":"nonpayable"},{"type":"function","name":"executeIncreaseOrder","inputs":[{"name":"_address","type":"address","internalType":"address"},{"name":"_orderIndex","type":"uint256","internalType":"uint256"},{"name":"_feeReceiver","type":"address","internalType":"address payable"}],"outputs":[],"stateMutability":"nonpayable"},{"type":"function","name":"executeSwapOrder","inputs":[{"name":"_account","type":"address","internalType":"address"},{"name":"_orderIndex","type":"uint256","internalType":"uint256"},{"name":"_feeReceiver","type":"address","internalType":"address payable"}],"outputs":[],"stateMutability":"nonpayable"},{"type":"function","name":"getDecreaseOrder","inputs":[{"name":"_account","type":"address","internalType":"address"},{"name":"_orderIndex","type":"uint256","internalType":"uint256"}],"outputs":[{"name":"collateralToken","type":"address","internalType":"address"},{"name":"collateralDelta","type":"uint256","internalType":"uint256"},{"name":"indexToken","type":"address","internalType":"address"},{"name":"sizeDelta","type":"uint256","internalType":"uint256"},{"name":"isLong","type":"bool","internalType":"bool"},{"name":"triggerPrice","type":"uint256","internalType":"uint256"},{"name":"triggerAboveThreshold","type":"bool","internalType":"bool"},{"name":"executionFee","type":"uint256","internalType":"uint256"}],"stateMutability":"view"},{"type":"function","name":"getIncreaseOrder","inputs":[{"name":"_account","type":"address","internalType":"address"},{"name":"_orderIndex","type":"uint256","internalType":"uint256"}],"outputs":[{"name":"purchaseToken","type":"address","internalType":"address"},{"name":"purchaseTokenAmount","type":"uint256","internalType":"uint256"},{"name":"collateralToken","type":"address","internalType":"address"},{"name":"indexToken","type":"address","internalType":"address"},{"name":"sizeDelta","type":"uint256","internalType":"uint256"},{"name":"isLong","type":"bool","internalType":"bool"},{"name":"triggerPrice","type":"uint256","internalType":"uint256"},{"name":"triggerAboveThreshold","type":"bool","internalType":"bool"},{"name":"executionFee","type":"uint256","internalType":"uint256"}],"stateMutability":"view"},{"type":"function","name":"getSwapOrder","inputs":[{"name":"_account","type":"address","internalType":"address"},{"name":"_orderIndex","type":"uint256","internalType":"uint256"}],"outputs":[{"name":"path0","type":"address","internalType":"address"},{"name":"path1","type":"address","internalType":"address"},{"name":"path2","type":"address","internalType":"address"},{"name":"amountIn","type":"uint256","internalType":"uint256"},{"name":"minOut","type":"uint256","internalType":"uint256"},{"name":"triggerRatio","type":"uint256","internalType":"uint256"},{"name":"triggerAboveThreshold","type":"bool","internalType":"bool"},{"name":"shouldUnwrap","type":"bool","internalType":"bool"},{"name":"executionFee","type":"uint256","internalType":"uint256"}],"stateMutability":"view"},{"type":"function","name":"getUsdgMinPrice","inputs":[{"name":"_otherToken","type":"address","internalType":"address"}],"outputs":[{"name":"","type":"uint256","internalType":"uint256"}],"stateMutability":"view"},{"type":"function","name":"gov","inputs":[],"outputs":[{"name":"","type":"address","internalType":"address"}],"stateMutability":"view"},{"type":"function","name":"increaseOrders","inputs":[{"name":"","type":"address","internalType":"address"},{"name":"","type":"uint256","internalType":"uint256"}],"outputs":[{"name":"account","type":"address","internalType":"address"},{"name":"purchaseToken","type":"address","internalType":"address"},{"name":"purchaseTokenAmount","type":"uint256","internalType":"uint256"},{"name":"collateralToken","type":"address","internalType":"address"},{"name":"indexToken","type":"address","internalType":"address"},{"name":"sizeDelta","type":"uint256","internalType":"uint256"},{"name":"isLong","type":"bool","internalType":"bool"},{"name":"triggerPrice","type":"uint256","internalType":"uint256"},{"name":"triggerAboveThreshold","type":"bool","internalType":"bool"},{"name":"executionFee","type":"uint256","internalType":"uint256"}],"stateMutability":"view"},{"type":"function","name":"increaseOrdersIndex","inputs":[{"name":"","type":"address","internalType":"address"}],"outputs":[{"name":"","type":"uint256","internalType":"uint256"}],"stateMutability":"view"},{"type":"function","name":"initialize","inputs":[{"name":"_router","type":"address","internalType":"address"},{"name":"_vault","type":"address","internalType":"address"},{"name":"_weth","type":"address","internalType":"address"},{"name":"_usdg","type":"address","internalType":"address"},{"name":"_minExecutionFee","type":"uint256","internalType":"uint256"},{"name":"_minPurchaseTokenAmountUsd","type":"uint256","internalType":"uint256"}],"outputs":[],"stateMutability":"nonpayable"},{"type":"function","name":"isInitialized","inputs":[],"outputs":[{"name":"","type":"bool","internalType":"bool"}],"stateMutability":"view"},{"type":"function","name":"minExecutionFee","inputs":[],"outputs":[{"name":"","type":"uint256","internalType":"uint256"}],"stateMutability":"view"},{"type":"function","name":"minPurchaseTokenAmountUsd","inputs":[],"outputs":[{"name":"","type":"uint256","internalType":"uint256"}],"stateMutability":"view"},{"type":"function","name":"router","inputs":[],"outputs":[{"name":"","type":"address","internalType":"address"}],"stateMutability":"view"},{"type":"function","name":"setGov","inputs":[{"name":"_gov","type":"address","internalType":"address"}],"outputs":[],"stateMutability":"nonpayable"},{"type":"function","name":"setMinExecutionFee","inputs":[{"name":"_minExecutionFee","type":"uint256","internalType":"uint256"}],"outputs":[],"stateMutability":"nonpayable"},{"type":"function","name":"setMinPurchaseTokenAmountUsd","inputs":[{"name":"_minPurchaseTokenAmountUsd","type":"uint256","internalType":"uint256"}],"outputs":[],"stateMutability":"nonpayable"},{"type":"function","name":"swapOrders","inputs":[{"name":"","type":"address","internalType":"address"},{"name":"","type":"uint256","internalType":"uint256"}],"outputs":[{"name":"account","type":"address","internalType":"address"},{"name":"amountIn","type":"uint256","internalType":"uint256"},{"name":"minOut","type":"uint256","internalType":"uint256"},{"name":"triggerRatio","type":"uint256","internalType":"uint256"},{"name":"triggerAboveThreshold","type":"bool","internalType":"bool"},{"name":"shouldUnwrap","type":"bool","internalType":"bool"},{"name":"executionFee","type":"uint256","internalType":"uint256"}],"stateMutability":"view"},{"type":"function","name":"swapOrdersIndex","inputs":[{"name":"","type":"address","internalType":"address"}],"outputs":[{"name":"","type":"uint256","internalType":"uint256"}],"stateMutability":"view"},{"type":"function","name":"updateDecreaseOrder","inputs":[{"name":"_orderIndex","type":"uint256","internalType":"uint256"},{"name":"_collateralDelta","type":"uint256","internalType":"uint256"},{"name":"_sizeDelta","type":"uint256","internalType":"uint256"},{"name":"_triggerPrice","type":"uint256","internalType":"uint256"},{"name":"_triggerAboveThreshold","type":"bool","internalType":"bool"}],"outputs":[],"stateMutability":"nonpayable"},{"type":"function","name":"updateIncreaseOrder","inputs":[{"name":"_orderIndex","type":"uint256","internalType":"uint256"},{"name":"_sizeDelta","type":"uint256","internalType":"uint256"},{"name":"_triggerPrice","type":"uint256","internalType":"uint256"},{"name":"_triggerAboveThreshold","type":"bool","internalType":"bool"}],"outputs":[],"stateMutability":"nonpayable"},{"type":"function","name":"updateSwapOrder","inputs":[{"name":"_orderIndex","type":"uint256","internalType":"uint256"},{"name":"_minOut","type":"uint256","internalType":"uint256"},{"name":"_triggerRatio","type":"uint256","internalType":"uint256"},{"name":"_triggerAboveThreshold","type":"bool","internalType":"bool"}],"outputs":[],"stateMutability":"nonpayable"},{"type":"function","name":"usdg","inputs":[],"outputs":[{"name":"","type":"address","internalType":"address"}],"stateMutability":"view"},{"type":"function","name":"validatePositionOrderPrice","inputs":[{"name":"_triggerAboveThreshold","type":"bool","internalType":"bool"},{"name":"_triggerPrice","type":"uint256","internalType":"uint256"},{"name":"_indexToken","type":"address","internalType":"address"},{"name":"_maximizePrice","type":"bool","internalType":"bool"},{"name":"_raise","type":"bool","internalType":"bool"}],"outputs":[{"name":"","type":"uint256","internalType":"uint256"},{"name":"","type":"bool","internalType":"bool"}],"stateMutability":"view"},{"type":"function","name":"validateSwapOrderPriceWithTriggerAboveThreshold","inputs":[{"name":"_path","type":"address[]","internalType":"address[]"},{"name":"_triggerRatio","type":"uint256","internalType":"uint256"}],"outputs":[{"name":"","type":"bool","internalType":"bool"}],"stateMutability":"view"},{"type":"function","name":"vault","inputs":[],"outputs":[{"name":"","type":"address","internalType":"address"}],"stateMutability":"view"},{"type":"function","name":"weth","inputs":[],"outputs":[{"name":"","type":"address","internalType":"address"}],"stateMutability":"view"},{"type":"event","name":"CancelDecreaseOrder","inputs":[{"name":"account","type":"address","indexed":true,"internalType":"address"},{"name":"orderIndex","type":"uint256","indexed":false,"internalType":"uint256"},{"name":"collateralToken","type":"address","indexed":false,"internalType":"address"},{"name":"collateralDelta","type":"uint256","indexed":false,"internalType":"uint256"},{"name":"indexToken","type":"address","indexed":false,"internalType":"address"},{"name":"sizeDelta","type":"uint256","indexed":false,"internalType":"uint256"},{"name":"isLong","type":"bool","indexed":false,"internalType":"bool"},{"name":"triggerPrice","type":"uint256","indexed":false,"internalType":"uint256"},{"name":"triggerAboveThreshold","type":"bool","indexed":false,"internalType":"bool"},{"name":"executionFee","type":"uint256","indexed":false,"internalType":"uint256"}],"anonymous":false},{"type":"event","name":"CancelIncreaseOrder","inputs":[{"name":"account","type":"address","indexed":true,"internalType":"address"},{"name":"orderIndex","type":"uint256","indexed":false,"internalType":"uint256"},{"name":"purchaseToken","type":"address","indexed":false,"internalType":"address"},{"name":"purchaseTokenAmount","type":"uint256","indexed":false,"internalType":"uint256"},{"name":"collateralToken","type":"address","indexed":false,"internalType":"address"},{"name":"indexToken","type":"address","indexed":false,"internalType":"address"},{"name":"sizeDelta","type":"uint256","indexed":false,"internalType":"uint256"},{"name":"isLong","type":"bool","indexed":false,"internalType":"bool"},{"name":"triggerPrice","type":"uint256","indexed":false,"internalType":"uint256"},{"name":"triggerAboveThreshold","type":"bool","indexed":false,"internalType":"bool"},{"name":"executionFee","type":"uint256","indexed":false,"internalType":"uint256"}],"anonymous":false},{"type":"event","name":"CancelSwapOrder","inputs":[{"name":"account","type":"address","indexed":true,"internalType":"address"},{"name":"orderIndex","type":"uint256","indexed":false,"internalType":"uint256"},{"name":"path","type":"address[]","indexed":false,"internalType":"address[]"},{"name":"amountIn","type":"uint256","indexed":false,"internalType":"uint256"},{"name":"minOut","type":"uint256","indexed":false,"internalType":"uint256"},{"name":"triggerRatio","type":"uint256","indexed":false,"internalType":"uint256"},{"name":"triggerAboveThreshold","type":"bool","indexed":false,"internalType":"bool"},{"name":"shouldUnwrap","type":"bool","indexed":false,"internalType":"bool"},{"name":"executionFee","type":"uint256","indexed":false,"internalType":"uint256"}],"anonymous":false},{"type":"event","name":"CreateDecreaseOrder","inputs":[{"name":"account","type":"address","indexed":true,"internalType":"address"},{"name":"orderIndex","type":"uint256","indexed":false,"internalType":"uint256"},{"name":"collateralToken","type":"address","indexed":false,"internalType":"address"},{"name":"collateralDelta","type":"uint256","indexed":false,"internalType":"uint256"},{"name":"indexToken","type":"address","indexed":false,"internalType":"address"},{"name":"sizeDelta","type":"uint256","indexed":false,"internalType":"uint256"},{"name":"isLong","type":"bool","indexed":false,"internalType":"bool"},{"name":"triggerPrice","type":"uint256","indexed":false,"internalType":"uint256"},{"name":"triggerAboveThreshold","type":"bool","indexed":false,"internalType":"bool"},{"name":"executionFee","type":"uint256","indexed":false,"internalType":"uint256"}],"anonymous":false},{"type":"event","name":"CreateDecreaseOrderAttached","inputs":[{"name":"account","type":"address","indexed":true,"internalType":"address"},{"name":"orderIndex","type":"uint256","indexed":false,"internalType":"uint256"},{"name":"isLong","type":"bool","indexed":false,"internalType":"bool"},{"name":"key","type":"bytes32","indexed":false,"internalType":"bytes32"}],"anonymous":false},{"type":"event","name":"CreateIncreaseOrder","inputs":[{"name":"account","type":"address","indexed":true,"internalType":"address"},{"name":"orderIndex","type":"uint256","indexed":false,"internalType":"uint256"},{"name":"purchaseToken","type":"address","indexed":false,"internalType":"address"},{"name":"purchaseTokenAmount","type":"uint256","indexed":false,"internalType":"uint256"},{"name":"collateralToken","type":"address","indexed":false,"internalType":"address"},{"name":"indexToken","type":"address","indexed":false,"internalType":"address"},{"name":"sizeDelta","type":"uint256","indexed":false,"internalType":"uint256"},{"name":"isLong","type":"bool","indexed":false,"internalType":"bool"},{"name":"triggerPrice","type":"uint256","indexed":false,"internalType":"uint256"},{"name":"triggerAboveThreshold","type":"bool","indexed":false,"internalType":"bool"},{"name":"executionFee","type":"uint256","indexed":false,"internalType":"uint256"}],"anonymous":false},{"type":"event","name":"CreateIncreaseOrderAttached","inputs":[{"name":"account","type":"address","indexed":true,"internalType":"address"},{"name":"orderIndex","type":"uint256","indexed":false,"internalType":"uint256"},{"name":"isLong","type":"bool","indexed":false,"internalType":"bool"},{"name":"key","type":"bytes32","indexed":false,"internalType":"bytes32"}],"anonymous":false},{"type":"event","name":"CreateSwapOrder","inputs":[{"name":"account","type":"address","indexed":true,"internalType":"address"},{"name":"orderIndex","type":"uint256","indexed":false,"internalType":"uint256"},{"name":"path","type":"address[]","indexed":false,"internalType":"address[]"},{"name":"amountIn","type":"uint256","indexed":false,"internalType":"uint256"},{"name":"minOut","type":"uint256","indexed":false,"internalType":"uint256"},{"name":"triggerRatio","type":"uint256","indexed":false,"internalType":"uint256"},{"name":"triggerAboveThreshold","type":"bool","indexed":false,"internalType":"bool"},{"name":"shouldUnwrap","type":"bool","indexed":false,"internalType":"bool"},{"name":"executionFee","type":"uint256","indexed":false,"internalType":"uint256"}],"anonymous":false},{"type":"event","name":"ExecuteDecreaseOrder","inputs":[{"name":"account","type":"address","indexed":true,"internalType":"address"},{"name":"orderIndex","type":"uint256","indexed":false,"internalType":"uint256"},{"name":"collateralToken","type":"address","indexed":false,"internalType":"address"},{"name":"collateralDelta","type":"uint256","indexed":false,"internalType":"uint256"},{"name":"indexToken","type":"address","indexed":false,"internalType":"address"},{"name":"sizeDelta","type":"uint256","indexed":false,"internalType":"uint256"},{"name":"isLong","type":"bool","indexed":false,"internalType":"bool"},{"name":"triggerPrice","type":"uint256","indexed":false,"internalType":"uint256"},{"name":"triggerAboveThreshold","type":"bool","indexed":false,"internalType":"bool"},{"name":"executionFee","type":"uint256","indexed":false,"internalType":"uint256"},{"name":"executionPrice","type":"uint256","indexed":false,"internalType":"uint256"}],"anonymous":false},{"type":"event","name":"ExecuteIncreaseOrder","inputs":[{"name":"account","type":"address","indexed":true,"internalType":"address"},{"name":"orderIndex","type":"uint256","indexed":false,"internalType":"uint256"},{"name":"purchaseToken","type":"address","indexed":false,"internalType":"address"},{"name":"purchaseTokenAmount","type":"uint256","indexed":false,"internalType":"uint256"},{"name":"collateralToken","type":"address","indexed":false,"internalType":"address"},{"name":"indexToken","type":"address","indexed":false,"internalType":"address"},{"name":"sizeDelta","type":"uint256","indexed":false,"internalType":"uint256"},{"name":"isLong","type":"bool","indexed":false,"internalType":"bool"},{"name":"triggerPrice","type":"uint256","indexed":false,"internalType":"uint256"},{"name":"triggerAboveThreshold","type":"bool","indexed":false,"internalType":"bool"},{"name":"executionFee","type":"uint256","indexed":false,"internalType":"uint256"},{"name":"executionPrice","type":"uint256","indexed":false,"internalType":"uint256"}],"anonymous":false},{"type":"event","name":"ExecuteSwapOrder","inputs":[{"name":"account","type":"address","indexed":true,"internalType":"address"},{"name":"orderIndex","type":"uint256","indexed":false,"internalType":"uint256"},{"name":"path","type":"address[]","indexed":false,"internalType":"address[]"},{"name":"amountIn","type":"uint256","indexed":false,"internalType":"uint256"},{"name":"minOut","type":"uint256","indexed":false,"internalType":"uint256"},{"name":"amountOut","type":"uint256","indexed":false,"internalType":"uint256"},{"name":"triggerRatio","type":"uint256","indexed":false,"internalType":"uint256"},{"name":"triggerAboveThreshold","type":"bool","indexed":false,"internalType":"bool"},{"name":"shouldUnwrap","type":"bool","indexed":false,"internalType":"bool"},{"name":"executionFee","type":"uint256","indexed":false,"internalType":"uint256"}],"anonymous":false},{"type":"event","name":"Initialize","inputs":[{"name":"router","type":"address","indexed":false,"internalType":"address"},{"name":"vault","type":"address","indexed":false,"internalType":"address"},{"name":"weth","type":"address","indexed":false,"internalType":"address"},{"name":"usdg","type":"address","indexed":false,"internalType":"address"},{"name":"minExecutionFee","type":"uint256","indexed":false,"internalType":"uint256"},{"name":"minPurchaseTokenAmountUsd","type":"uint256","indexed":false,"internalType":"uint256"}],"anonymous":false},{"type":"event","name":"UpdateDecreaseOrder","inputs":[{"name":"account","type":"address","indexed":true,"internalType":"address"},{"name":"orderIndex","type":"uint256","indexed":false,"internalType":"uint256"},{"name":"collateralToken","type":"address","indexed":false,"internalType":"address"},{"name":"collateralDelta","type":"uint256","indexed":false,"internalType":"uint256"},{"name":"indexToken","type":"address","indexed":false,"internalType":"address"},{"name":"sizeDelta","type":"uint256","indexed":false,"internalType":"uint256"},{"name":"isLong","type":"bool","indexed":false,"internalType":"bool"},{"name":"triggerPrice","type":"uint256","indexed":false,"internalType":"uint256"},{"name":"triggerAboveThreshold","type":"bool","indexed":false,"internalType":"bool"}],"anonymous":false},{"type":"event","name":"UpdateGov","inputs":[{"name":"gov","type":"address","indexed":false,"internalType":"address"}],"anonymous":false},{"type":"event","name":"UpdateIncreaseOrder","inputs":[{"name":"account","type":"address","indexed":true,"internalType":"address"},{"name":"orderIndex","type":"uint256","indexed":false,"internalType":"uint256"},{"name":"collateralToken","type":"address","indexed":false,"internalType":"address"},{"name":"indexToken","type":"address","indexed":false,"internalType":"address"},{"name":"isLong","type":"bool","indexed":false,"internalType":"bool"},{"name":"sizeDelta","type":"uint256","indexed":false,"internalType":"uint256"},{"name":"triggerPrice","type":"uint256","indexed":false,"internalType":"uint256"},{"name":"triggerAboveThreshold","type":"bool","indexed":false,"internalType":"bool"}],"anonymous":false},{"type":"event","name":"UpdateMinExecutionFee","inputs":[{"name":"minExecutionFee","type":"uint256","indexed":false,"internalType":"uint256"}],"anonymous":false},{"type":"event","name":"UpdateMinPurchaseTokenAmountUsd","inputs":[{"name":"minPurchaseTokenAmountUsd","type":"uint256","indexed":false,"internalType":"uint256"}],"anonymous":false},{"type":"event","name":"UpdateSwapOrder","inputs":[{"name":"account","type":"address","indexed":true,"internalType":"address"},{"name":"ordexIndex","type":"uint256","indexed":false,"internalType":"uint256"},{"name":"path","type":"address[]","indexed":false,"internalType":"address[]"},{"name":"amountIn","type":"uint256","indexed":false,"internalType":"uint256"},{"name":"minOut","type":"uint256","indexed":false,"internalType":"uint256"},{"name":"triggerRatio","type":"uint256","indexed":false,"internalType":"uint256"},{"name":"triggerAboveThreshold","type":"bool","indexed":false,"internalType":"bool"},{"name":"shouldUnwrap","type":"bool","indexed":false,"internalType":"bool"},{"name":"executionFee","type":"uint256","indexed":false,"internalType":"uint256"}],"anonymous":false}],"bytecode":{"object":"0x6080604052600e805460ff1916905534801561001a57600080fd5b50600780546001600160a01b03191633179055615c29806200003d6000396000f3fe6080604052600436106101ff5760003560e01c80639983ee1b116101145780639983ee1b14610a3c5780639e23de5c14610a7a5780639e71b0f014610aad578063a397ea5414610ad7578063aec2245514610b1b578063b142a4b014610b4e578063c16cde8a14610c38578063c4a1821b14610c88578063c86b0f7d14610d38578063cfad57a214610d76578063d0d40cd614610da9578063d38ab51914610e3c578063d3bab1d114610e7f578063d566d0ca14610f13578063d7c41c7914610f46578063f2d2e01b14610f9f578063f5b91b7b14611033578063f882ac0714611048578063f887ea4014611072578063f997c30614611087578063fbfa77cf146110de578063fc2cee62146110f357610261565b8062cf066b14610266578063026032ee146102ab57806307c7edc3146103365780630d5cc9381461037957806311d9444a146103a357806312d43a51146103e657806313bd39d714610417578063269ae6c2146104505780632b7d62901461051b578063392e53cd146105bb5780633fc8cef3146105e457806347e0bbd0146105f95780634a686d67146106235780634c54f0b014610638578063611c86a8146106a257806363ae2103146106db578063686a17b0146106f057806379221fa2146107e1578063807c5600146108605780638de10c2e14610a1257806395082d2514610a2757610261565b36610261576008546001600160a01b0316331461025f576040805162461bcd60e51b815260206004820152601960248201527827b93232b92137b7b59d1034b73b30b634b21039b2b73232b960391b604482015290519081900360640190fd5b005b600080fd5b34801561027257600080fd5b506102996004803603602081101561028957600080fd5b50356001600160a01b031661111d565b60408051918252519081900360200190f35b3480156102b757600080fd5b506102e4600480360360408110156102ce57600080fd5b506001600160a01b03813516906020013561112f565b604080516001600160a01b03998a168152602081019890985295909716868601526060860193909352901515608085015260a0840152151560c083015260e08201929092529051908190036101000190f35b34801561034257600080fd5b5061025f6004803603606081101561035957600080fd5b506001600160a01b03813581169160208101359160409091013516611202565b34801561038557600080fd5b5061025f6004803603602081101561039c57600080fd5b503561160d565b3480156103af57600080fd5b5061025f600480360360608110156103c657600080fd5b506001600160a01b0381358116916020810135916040909101351661169e565b3480156103f257600080fd5b506103fb611a4d565b604080516001600160a01b039092168252519081900360200190f35b34801561042357600080fd5b5061025f6004803603604081101561043a57600080fd5b506001600160a01b038135169060200135611a5c565b61025f600480360361010081101561046757600080fd5b810190602081018135600160201b81111561048157600080fd5b82018360208201111561049357600080fd5b803590602001918460208302840111600160201b831117156104b457600080fd5b91908080602002602001604051908101604052809392919081815260200183836020028082843760009201919091525092955050823593505050602081013590604081013590606081013515159060808101359060a081013515159060c001351515611cd8565b34801561052757600080fd5b506105546004803603604081101561053e57600080fd5b506001600160a01b038135169060200135612061565b604080516001600160a01b039b8c168152998b1660208b015289810198909852958916606089015293909716608087015260a0860191909152151560c085015260e08401949094529215156101008301526101208201929092529051908190036101400190f35b3480156105c757600080fd5b506105d06120d3565b604080519115158252519081900360200190f35b3480156105f057600080fd5b506103fb6120dc565b34801561060557600080fd5b5061025f6004803603602081101561061c57600080fd5b50356120eb565b34801561062f57600080fd5b506102996123f5565b34801561064457600080fd5b50610689600480360360a081101561065b57600080fd5b5080351515906020810135906001600160a01b03604082013516906060810135151590608001351515612401565b6040805192835290151560208301528051918290030190f35b3480156106ae57600080fd5b5061025f600480360360408110156106c557600080fd5b506001600160a01b03813516906020013561256a565b3480156106e757600080fd5b50610299612879565b61025f600480360361018081101561070757600080fd5b810190602081018135600160201b81111561072157600080fd5b82018360208201111561073357600080fd5b803590602001918460208302840111600160201b8311171561075457600080fd5b9190808060200260200160405190810160405280939291908181526020018383602002808284376000920191909152509295505082359350506001600160a01b036020830135811692604081013592506060810135916080820135169060a081013515159060c08101359060e081013515159061010081013590610120810135151590610140013561287f565b3480156107ed57600080fd5b5061081a6004803603604081101561080457600080fd5b506001600160a01b0381351690602001356128f5565b604080516001600160a01b039098168852602088019690965286860194909452606086019290925215156080850152151560a084015260c0830152519081900360e00190f35b34801561086c57600080fd5b5061025f6004803603606081101561088357600080fd5b810190602081018135600160201b81111561089d57600080fd5b8201836020820111156108af57600080fd5b803590602001918460208302840111600160201b831117156108d057600080fd5b9190808060200260200160405190810160405280939291908181526020018383602002808284376000920191909152509295949360208101935035915050600160201b81111561091f57600080fd5b82018360208201111561093157600080fd5b803590602001918460208302840111600160201b8311171561095257600080fd5b9190808060200260200160405190810160405280939291908181526020018383602002808284376000920191909152509295949360208101935035915050600160201b8111156109a157600080fd5b8201836020820111156109b357600080fd5b803590602001918460208302840111600160201b831117156109d457600080fd5b919080806020026020016040519081016040528093929190818152602001838360200280828437600092019190915250929550612949945050505050565b348015610a1e57600080fd5b506102996129e1565b348015610a3357600080fd5b506102996129e7565b348015610a4857600080fd5b5061025f60048036036080811015610a5f57600080fd5b508035906020810135906040810135906060013515156129f7565b348015610a8657600080fd5b5061029960048036036020811015610a9d57600080fd5b50356001600160a01b0316612b4f565b348015610ab957600080fd5b5061025f60048036036020811015610ad057600080fd5b5035612cf9565b348015610ae357600080fd5b5061025f600480360360a0811015610afa57600080fd5b50803590602081013590604081013590606081013590608001351515612f6b565b348015610b2757600080fd5b5061029960048036036020811015610b3e57600080fd5b50356001600160a01b03166130d3565b61025f6004803603610160811015610b6557600080fd5b810190602081018135600160201b811115610b7f57600080fd5b820183602082011115610b9157600080fd5b803590602001918460208302840111600160201b83111715610bb257600080fd5b9190808060200260200160405190810160405280939291908181526020018383602002808284376000920191909152509295505082359350506001600160a01b036020830135811692604081013592506060810135916080820135169060a081013515159060c08101359060e081013515159061010081013590610120013515156130e5565b61025f600480360360e0811015610c4e57600080fd5b506001600160a01b03813581169160208101359160408201351690606081013590608081013515159060a08101359060c0013515156134e7565b348015610c9457600080fd5b506105d060048036036040811015610cab57600080fd5b810190602081018135600160201b811115610cc557600080fd5b820183602082011115610cd757600080fd5b803590602001918460208302840111600160201b83111715610cf857600080fd5b9190808060200260200160405190810160405280939291908181526020018383602002808284376000920191909152509295505091359250613598915050565b348015610d4457600080fd5b5061025f60048036036080811015610d5b57600080fd5b508035906020810135906040810135906060013515156137af565b348015610d8257600080fd5b5061025f60048036036020811015610d9957600080fd5b50356001600160a01b0316613978565b348015610db557600080fd5b50610de260048036036040811015610dcc57600080fd5b506001600160a01b038135169060200135613a22565b604080516001600160a01b039a8b168152988a1660208a015296909816878701526060870194909452608086019290925260a0850152151560c0840152151560e08301526101008201929092529051908190036101200190f35b348015610e4857600080fd5b5061025f60048036036060811015610e5f57600080fd5b506001600160a01b03813581169160208101359160409091013516613bdf565b348015610e8b57600080fd5b50610eb860048036036040811015610ea257600080fd5b506001600160a01b038135169060200135614048565b604080516001600160a01b039a8b1681526020810199909952968916888801529490971660608701526080860192909252151560a085015260c084015292151560e08301526101008201929092529051908190036101200190f35b348015610f1f57600080fd5b5061029960048036036020811015610f3657600080fd5b50356001600160a01b031661412e565b348015610f5257600080fd5b5061025f600480360360c0811015610f6957600080fd5b506001600160a01b0381358116916020810135821691604082013581169160608101359091169060808101359060a00135614140565b348015610fab57600080fd5b50610fd860048036036040811015610fc257600080fd5b506001600160a01b0381351690602001356142af565b604080516001600160a01b039a8b168152988a1660208a0152888101979097529490971660608701526080860192909252151560a085015260c084015292151560e08301526101008201929092529051908190036101200190f35b34801561103f57600080fd5b506103fb614319565b34801561105457600080fd5b5061025f6004803603602081101561106b57600080fd5b5035614328565b34801561107e57600080fd5b506103fb614665565b61025f600480360361010081101561109e57600080fd5b506001600160a01b03813581169160208101359160408201351690606081013590608081013515159060a08101359060c081013515159060e00135614674565b3480156110ea57600080fd5b506103fb6146e2565b3480156110ff57600080fd5b5061025f6004803603602081101561111657600080fd5b50356146f1565b60066020526000908152604090205481565b600080600080600080600080611143615835565b505050506001600160a01b03968716600090815260036020818152604080842099845298815291889020885161012081018a5281548b16815260018201548b1693810184905260028201549981018a9052918101549099166060820181905260048a01546080830181905260058b015460ff908116151560a0850181905260068d015460c0860181905260078e0154909216151560e086018190526008909d0154610100909501859052949c9a9b929a91995093975092955093509150565b60026000541415611248576040805162461bcd60e51b815260206004820152601f6024820152600080516020615a02833981519152604482015290519081900360640190fd5b6002600055611255615881565b6001600160a01b038085166000908152600560209081526040808320878452825291829020825161010081018452815490941684526001810180548451818502810185019095528085529193858401939092908301828280156112e157602002820191906000526020600020905b81546001600160a01b031681526001909101906020018083116112c3575b5050509183525050600282015460208201526003820154604082015260048201546060820152600582015460ff8082161515608084015261010090910416151560a082015260069091015460c09091015280519091506001600160a01b031661137f576040805162461bcd60e51b815260206004820152601d60248201526000805160206159e2833981519152604482015290519081900360640190fd5b8060a00151156113d65761139b81602001518260800151613598565b6113d65760405162461bcd60e51b8152600401808060200182810382526026815260200180615b566026913960400191505060405180910390fd5b6001600160a01b0384166000908152600560209081526040808320868452909152812080546001600160a01b03191681559061141560018301826158d3565b50600060028201819055600382018190556004820181905560058201805461ffff191690556006909101819055600b54604083015160208401518051611488946001600160a01b03909416939061146857fe5b60200260200101516001600160a01b03166147829092919063ffffffff16565b600854602082015180516000926001600160a01b0316919060001981019081106114ae57fe5b60200260200101516001600160a01b03161480156114cd57508160c001515b156114fa576114e582602001518360600151306147d9565b90506114f5818360000151614908565b611514565b6115118260200151836060015184600001516147d9565b90505b6115228260e0015184614908565b846001600160a01b03167f7e1fe496989eea92b738a562dbf9c0ae6aa6fcf3f1ef09e95ee4f7603721706b858460200151856040015186606001518688608001518960a001518a60c001518b60e00151604051808a8152602001806020018981526020018881526020018781526020018681526020018515158152602001841515815260200183815260200182810382528a818151815260200191508051906020019060200280838360005b838110156115e65781810151838201526020016115ce565b505050509050019a505050505050505050505060405180910390a250506001600055505050565b6007546001600160a01b03163314611663576040805162461bcd60e51b815260206004820152601460248201527327b93232b92137b7b59d103337b93134b23232b760611b604482015290519081900360640190fd5b600d8190556040805182815290517fe46d9daf6d25f7615efa1d0183b90ac6759d85014b598e409aadf0fd918d59a69181900360200190a150565b600260005414156116e4576040805162461bcd60e51b815260206004820152601f6024820152600080516020615a02833981519152604482015290519081900360640190fd5b60026000556116f1615835565b506001600160a01b03808416600090815260036020818152604080842087855282529283902083516101208101855281548616808252600183015487169382019390935260028201549481019490945291820154909316606083015260048101546080830152600581015460ff908116151560a0840152600682015460c0840152600782015416151560e083015260080154610100820152906117c9576040805162461bcd60e51b815260206004820152601d60248201526000805160206159e2833981519152604482015290519081900360640190fd5b60006117ea8260e001518360c0015184606001518560a00151156001612401565b506001600160a01b0380871660009081526003602081815260408084208a8552825280842080546001600160a01b0319908116825560018201805482169055600282018690559381018054909416909355600480840185905560058401805460ff199081169091556006850186905560078501805490911690556008909301849055600a5488518984015160608b01518b85015160808d015160a08e01518751632662166b60e01b8152958c1699860199909952928a16602485015290891660448401526064830152608482015293151560a48501523060c4850152905195965092949290931692632662166b9260e48084019382900301818787803b1580156118f357600080fd5b505af1158015611907573d6000803e3d6000fd5b505050506040513d602081101561191d57600080fd5b505160085460208501519192506001600160a01b03918216911614156119505761194b818460000151614908565b61196d565b8251602084015161196d916001600160a01b039091169083614782565b61197c83610100015185614908565b82600001516001600160a01b03167f9a382661d6573da86db000471303be6f0b2b1bb66089b08e3c16a85d7b6e94f88685602001518660400151876060015188608001518960a001518a60c001518b60e001518c61010001518c604051808b81526020018a6001600160a01b03168152602001898152602001886001600160a01b03168152602001878152602001861515815260200185815260200184151581526020018381526020018281526020019a505050505050505050505060405180910390a25050600160005550505050565b6007546001600160a01b031681565b60026000541415611aa2576040805162461bcd60e51b815260206004820152601f6024820152600080516020615a02833981519152604482015290519081900360640190fd5b6002600055611aaf615835565b506001600160a01b03808316600090815260036020818152604080842086855282529283902083516101208101855281548616808252600183015487169382019390935260028201549481019490945291820154909316606083015260048101546080830152600581015460ff908116151560a0840152600682015460c0840152600782015416151560e08301526008015461010082015290611b87576040805162461bcd60e51b815260206004820152601d60248201526000805160206159e2833981519152604482015290519081900360640190fd5b6001600160a01b0383166000908152600360208181526040808420868552909152822080546001600160a01b03199081168255600182018054821690556002820184905591810180549092169091556004810182905560058101805460ff1990811690915560068201839055600782018054909116905560080155610100810151611c129084614908565b80600001516001600160a01b03167f1154174c82984656b028c8021671988f60a346497e56fe02554761184f82a0758383602001518460400151856060015186608001518760a001518860c001518960e001518a6101000151604051808a8152602001896001600160a01b03168152602001888152602001876001600160a01b0316815260200186815260200185151581526020018481526020018315158152602001828152602001995050505050505050505060405180910390a25050600160005550565b60026000541415611d1e576040805162461bcd60e51b815260206004820152601f6024820152600080516020615a02833981519152604482015290519081900360640190fd5b6002600081905588511480611d34575087516003145b611d73576040805162461bcd60e51b815260206004820152601f6024820152600080516020615b7c833981519152604482015290519081900360640190fd5b87600189510381518110611d8357fe5b60200260200101516001600160a01b031688600081518110611da157fe5b60200260200101516001600160a01b03161415611e00576040805162461bcd60e51b815260206004820152601860248201527709ee4c8cae484deded67440d2dcecc2d8d2c840bee0c2e8d60431b604482015290519081900360640190fd5b60008711611e54576040805162461bcd60e51b815260206004820152601c60248201527b27b93232b92137b7b59d1034b73b30b634b2102fb0b6b7bab73a24b760211b604482015290519081900360640190fd5b600c54831015611e955760405162461bcd60e51b8152600401808060200182810382526025815260200180615aea6025913960400191505060405180910390fd5b611e9d614985565b8115611f585760085488516001600160a01b03909116908990600090611ebf57fe5b60200260200101516001600160a01b031614611f0c5760405162461bcd60e51b8152600401808060200182810382526025815260200180615ac56025913960400191505060405180910390fd5b611f1683886149f7565b3414611f535760405162461bcd60e51b8152600401808060200182810382526026815260200180615b306026913960400191505060405180910390fd5b612042565b823414611f965760405162461bcd60e51b815260040180806020018281038252602e815260200180615bc6602e913960400191505060405180910390fd5b600a5488516001600160a01b0390911690631b827878908a90600090611fb857fe5b602002602001015133308b6040518563ffffffff1660e01b815260040180856001600160a01b03168152602001846001600160a01b03168152602001836001600160a01b03168152602001828152602001945050505050600060405180830381600087803b15801561202957600080fd5b505af115801561203d573d6000803e3d6000fd5b505050505b612052338989898989878a614a4f565b50506001600055505050505050565b6001602081815260009384526040808520909152918352912080549181015460028201546003830154600484015460058501546006860154600787015460088801546009909801546001600160a01b03998a1699978816989697958616969490951694929360ff92831693919216908a565b600e5460ff1681565b6008546001600160a01b031681565b60026000541415612131576040805162461bcd60e51b815260206004820152601f6024820152600080516020615a02833981519152604482015290519081900360640190fd5b600260005561213e6158f4565b5033600090815260016020818152604080842085855282529283902083516101408101855281546001600160a01b039081168083529483015481169382019390935260028201549481019490945260038101548216606085015260048101549091166080840152600581015460a0840152600681015460ff908116151560c0850152600782015460e0850152600882015416151561010084015260090154610120830152612221576040805162461bcd60e51b815260206004820152601d60248201526000805160206159e2833981519152604482015290519081900360640190fd5b3360009081526001602081815260408084208685528252832080546001600160a01b0319908116825592810180548416905560028101849055600381018054841690556004810180549093169092556005820183905560068201805460ff19908116909155600783018490556008808401805490921690915560099092019290925554908201516001600160a01b03908116911614156122e5576122e06122da82604001518361012001516149f790919063ffffffff16565b33614908565b61231a565b61230b33826040015183602001516001600160a01b03166147829092919063ffffffff16565b61231a81610120015133614908565b80600001516001600160a01b03167fd500f34e0ec655b7614ae42e1d9c666d5e4dde909a1297829f8c5ecf00805d328383602001518460400151856060015186608001518760a001518860c001518960e001518a61010001518b6101200151604051808b81526020018a6001600160a01b03168152602001898152602001886001600160a01b03168152602001876001600160a01b03168152602001868152602001851515815260200184815260200183151581526020018281526020019a505050505050505050505060405180910390a250506001600055565b670de0b6b3a764000081565b60008060008461248957600b54604080516340d3096b60e11b81526001600160a01b038981166004830152915191909216916381a612d6916024808301926020929190829003018186803b15801561245857600080fd5b505afa15801561246c573d6000803e3d6000fd5b505050506040513d602081101561248257600080fd5b5051612503565b600b5460408051637092736960e11b81526001600160a01b0389811660048301529151919092169163e124e6d2916024808301926020929190829003018186803b1580156124d657600080fd5b505afa1580156124ea573d6000803e3d6000fd5b505050506040513d602081101561250057600080fd5b50515b905060008861251457878210612518565b8782115b9050841561255c578061255c5760405162461bcd60e51b8152600401808060200182810382526026815260200180615b566026913960400191505060405180910390fd5b909890975095505050505050565b600260005414156125b0576040805162461bcd60e51b815260206004820152601f6024820152600080516020615a02833981519152604482015290519081900360640190fd5b60026000556125bd6158f4565b506001600160a01b038083166000908152600160208181526040808420868552825292839020835161014081018552815486168082529382015486169281019290925260028101549382019390935260038301548416606082015260048301549093166080840152600582015460a0840152600682015460ff908116151560c0850152600783015460e085015260088301541615156101008401526009909101546101208301526126a3576040805162461bcd60e51b815260206004820152601d60248201526000805160206159e2833981519152604482015290519081900360640190fd5b6001600160a01b0380841660009081526001602081815260408084208785528252832080546001600160a01b0319908116825592810180548416905560028101849055600381018054841690556004810180549093169092556005820183905560068201805460ff19908116909155600783018490556008808401805490921690915560099092019290925554908301518216911614156127685761276361275d82604001518361012001516149f790919063ffffffff16565b84614908565b61279d565b61278e83826040015183602001516001600160a01b03166147829092919063ffffffff16565b61279d81610120015184614908565b80600001516001600160a01b03167fd500f34e0ec655b7614ae42e1d9c666d5e4dde909a1297829f8c5ecf00805d328383602001518460400151856060015186608001518760a001518860c001518960e001518a61010001518b6101200151604051808b81526020018a6001600160a01b03168152602001898152602001886001600160a01b03168152602001876001600160a01b03168152602001868152602001851515815260200184815260200183151581526020018281526020019a505050505050505050505060405180910390a25050600160005550565b600c5481565b6128928c8c8c8c8c8c8c8c8c8c8c6130e5565b336000818152600260209081526040918290205482519081528915159181019190915280820184905290517f5189f947b2af19e2f981b25222067bed767a44e4f892ede897b380d49ba94ff79181900360600190a2505050505050505050505050565b600560208181526000938452604080852090915291835291208054600282015460038301546004840154948401546006909401546001600160a01b03909316949193909260ff808316926101009004169087565b60005b83518110156129795761297184828151811061296457fe5b6020026020010151614328565b60010161294c565b5060005b82518110156129aa576129a283828151811061299557fe5b60200260200101516120eb565b60010161297d565b5060005b81518110156129db576129d38282815181106129c657fe5b6020026020010151612cf9565b6001016129ae565b50505050565b600d5481565b68327cb2734119d3b7a9601e1b81565b60026000541415612a3d576040805162461bcd60e51b815260206004820152601f6024820152600080516020615a02833981519152604482015290519081900360640190fd5b60026000908155338152600160209081526040808320878452909152902080546001600160a01b0316612aa5576040805162461bcd60e51b815260206004820152601d60248201526000805160206159e2833981519152604482015290519081900360640190fd5b6007810183905560088101805483151560ff19909116811790915560058201859055600382015460048301546006840154604080518a81526001600160a01b039485166020820152929093168284015260ff16151560608201526080810187905260a0810186905260c08101929092525133917f0a0360dd5c354235bbf8d386ba3b24ef8134088e0785677de1504df219d9149a919081900360e00190a250506001600055505050565b600b5460408051632c668ec160e01b81526001600160a01b038481166004830152670de0b6b3a76400006024830152915160009384931691632c668ec1916044808301926020929190829003018186803b158015612bac57600080fd5b505afa158015612bc0573d6000803e3d6000fd5b505050506040513d6020811015612bd657600080fd5b5051600b54604080516340d3096b60e11b81526001600160a01b038781166004830152915193945060009391909216916381a612d6916024808301926020929190829003018186803b158015612c2b57600080fd5b505afa158015612c3f573d6000803e3d6000fd5b505050506040513d6020811015612c5557600080fd5b5051600b54604080516323b95ceb60e21b81526001600160a01b03888116600483015291519394506000939190921691638ee573ac916024808301926020929190829003018186803b158015612caa57600080fd5b505afa158015612cbe573d6000803e3d6000fd5b505050506040513d6020811015612cd457600080fd5b50519050612cf0600a82900a612cea8585614c5e565b90614cb7565b95945050505050565b60026000541415612d3f576040805162461bcd60e51b815260206004820152601f6024820152600080516020615a02833981519152604482015290519081900360640190fd5b6002600055612d4c615835565b5033600090815260036020818152604080842085855282529283902083516101208101855281546001600160a01b03908116808352600184015482169483019490945260028301549582019590955292810154909316606083015260048301546080830152600583015460ff908116151560a0840152600684015460c0840152600784015416151560e083015260089092015461010082015290612e25576040805162461bcd60e51b815260206004820152601d60248201526000805160206159e2833981519152604482015290519081900360640190fd5b336000818152600360208181526040808420878552909152822080546001600160a01b03199081168255600182018054821690556002820184905591810180549092169091556004810182905560058101805460ff1990811690915560068201839055600782018054909116905560080155610100820151612ea691614908565b80600001516001600160a01b03167f1154174c82984656b028c8021671988f60a346497e56fe02554761184f82a0758383602001518460400151856060015186608001518760a001518860c001518960e001518a6101000151604051808a8152602001896001600160a01b03168152602001888152602001876001600160a01b0316815260200186815260200185151581526020018481526020018315158152602001828152602001995050505050505050505060405180910390a250506001600055565b60026000541415612fb1576040805162461bcd60e51b815260206004820152601f6024820152600080516020615a02833981519152604482015290519081900360640190fd5b60026000908155338152600360209081526040808320888452909152902080546001600160a01b0316613019576040805162461bcd60e51b815260206004820152601d60248201526000805160206159e2833981519152604482015290519081900360640190fd5b6006810183905560078101805483151560ff1990911681179091556004820185905560028201869055600182015460038301546005840154604080518b81526001600160a01b0394851660208201528082018b90529290931660608301526080820188905260ff16151560a082015260c0810186905260e08101929092525133917f75781255bc71c83f89f29e5a2599f2c174a562d2cd8f2e818a47f132e728049891908190036101000190a25050600160005550505050565b60026020526000908152604090205481565b6002600054141561312b576040805162461bcd60e51b815260206004820152601f6024820152600080516020615a02833981519152604482015290519081900360640190fd5b6002600055613138614985565b600c548210156131795760405162461bcd60e51b8152600401808060200182810382526025815260200180615aea6025913960400191505060405180910390fd5b8015613234576008548b516001600160a01b03909116908c9060009061319b57fe5b60200260200101516001600160a01b0316146131e85760405162461bcd60e51b8152600401808060200182810382526025815260200180615ac56025913960400191505060405180910390fd5b6131f2828b6149f7565b341461322f5760405162461bcd60e51b8152600401808060200182810382526026815260200180615b306026913960400191505060405180910390fd5b61331e565b8134146132725760405162461bcd60e51b815260040180806020018281038252602e815260200180615bc6602e913960400191505060405180910390fd5b600a548b516001600160a01b0390911690631b827878908d9060009061329457fe5b602002602001015133308e6040518563ffffffff1660e01b815260040180856001600160a01b03168152602001846001600160a01b03168152602001836001600160a01b03168152602001828152602001945050505050600060405180830381600087803b15801561330557600080fd5b505af1158015613319573d6000803e3d6000fd5b505050505b60008b60018d51038151811061333057fe5b60200260200101519050600060018d5111156133f557816001600160a01b03168d60008151811061335d57fe5b60200260200101516001600160a01b031614156133bc576040805162461bcd60e51b815260206004820152601860248201527709ee4c8cae484deded67440d2dcecc2d8d2c840bee0c2e8d60431b604482015290519081900360640190fd5b6133e3600b60009054906101000a90046001600160a01b03168d8f60008151811061146857fe5b6133ee8d8b306147d9565b90506133f8565b508a5b600b5460408051630a48d5a960e01b81526001600160a01b0385811660048301526024820185905291516000939290921691630a48d5a991604480820192602092909190829003018186803b15801561345057600080fd5b505afa158015613464573d6000803e3d6000fd5b505050506040513d602081101561347a57600080fd5b5051600d549091508110156134c05760405162461bcd60e51b8152600401808060200182810382526022815260200180615a226022913960400191505060405180910390fd5b506134d33383838b8f8e8d8d8d8d614cf6565b505060016000555050505050505050505050565b6002600054141561352d576040805162461bcd60e51b815260206004820152601f6024820152600080516020615a02833981519152604482015290519081900360640190fd5b600260005561353a614985565b600c54341161357a5760405162461bcd60e51b8152600401808060200182810382526025815260200180615aea6025913960400191505060405180910390fd5b61358a3386868a8a888888614fc9565b505060016000555050505050565b60008251600214806135ab575082516003145b6135ea576040805162461bcd60e51b815260206004820152601f6024820152600080516020615b7c833981519152604482015290519081900360640190fd5b6000836000815181106135f957fe5b6020026020010151905060008460018651038151811061361557fe5b602090810291909101015160095490915060009081906001600160a01b03858116911614156136625761365b8760018151811061364e57fe5b6020026020010151612b4f565b91506136de565b600b54604080516340d3096b60e11b81526001600160a01b038781166004830152915191909216916381a612d6916024808301926020929190829003018186803b1580156136af57600080fd5b505afa1580156136c3573d6000803e3d6000fd5b505050506040513d60208110156136d957600080fd5b505191505b6009546001600160a01b0384811691161415613707575068327cb2734119d3b7a9601e1b613783565b600b5460408051637092736960e11b81526001600160a01b0386811660048301529151919092169163e124e6d2916024808301926020929190829003018186803b15801561375457600080fd5b505afa158015613768573d6000803e3d6000fd5b505050506040513d602081101561377e57600080fd5b505190505b600061379f83612cea8468327cb2734119d3b7a9601e1b614c5e565b8710955050505050505b92915050565b600260005414156137f5576040805162461bcd60e51b815260206004820152601f6024820152600080516020615a02833981519152604482015290519081900360640190fd5b60026000908155338152600560209081526040808320878452909152902080546001600160a01b031661385d576040805162461bcd60e51b815260206004820152601d60248201526000805160206159e2833981519152604482015290519081900360640190fd5b838160030181905550828160040181905550818160050160006101000a81548160ff021916908315150217905550336001600160a01b03167fa7f9f4a25eb76f5ec01b1a429d95d6a00833f0f137c88827c58799a1c1ff0dfe868360010184600201548888888860050160019054906101000a900460ff168960060154604051808981526020018060200188815260200187815260200186815260200185151581526020018415158152602001838152602001828103825289818154815260200191508054801561395757602002820191906000526020600020905b81546001600160a01b03168152600190910190602001808311613939575b5050995050505050505050505060405180910390a250506001600055505050565b6007546001600160a01b031633146139ce576040805162461bcd60e51b815260206004820152601460248201527327b93232b92137b7b59d103337b93134b23232b760611b604482015290519081900360640190fd5b600780546001600160a01b0383166001600160a01b0319909116811790915560408051918252517fe24c39186e9137521953beaa8446e71f55b8f12296984f9d4273ceb1af728d909181900360200190a150565b6000806000806000806000806000613a38615881565b6001600160a01b03808d1660009081526005602090815260408083208f845282529182902082516101008101845281549094168452600181018054845181850281018501909552808552919385840193909290830182828015613ac457602002820191906000526020600020905b81546001600160a01b03168152600190910190602001808311613aa6575b505050918352505060028201546020808301919091526003830154604083015260048301546060830152600583015460ff8082161515608085015261010090910416151560a083015260069092015460c09091015281015151909150613b2b576000613b45565b8060200151600081518110613b3c57fe5b60200260200101515b600182602001515111613b59576000613b73565b8160200151600181518110613b6a57fe5b60200260200101515b600283602001515111613b87576000613ba1565b8260200151600281518110613b9857fe5b60200260200101515b8360400151846060015185608001518660a001518760c001518860e00151995099509950995099509950995099509950509295985092959850929598565b60026000541415613c25576040805162461bcd60e51b815260206004820152601f6024820152600080516020615a02833981519152604482015290519081900360640190fd5b6002600055613c326158f4565b506001600160a01b038084166000908152600160208181526040808420878552825292839020835161014081018552815486168082529382015486169281019290925260028101549382019390935260038301548416606082015260048301549093166080840152600582015460a0840152600682015460ff908116151560c0850152600783015460e08501526008830154161515610100840152600990910154610120830152613d18576040805162461bcd60e51b815260206004820152601d60248201526000805160206159e2833981519152604482015290519081900360640190fd5b6000613d398261010001518360e0015184608001518560c001516001612401565b506001600160a01b0380871660009081526001602081815260408084208a8552825280842080546001600160a01b0319908116825593810180548516905560028101859055600381018054851690556004810180549094169093556005830184905560068301805460ff19908116909155600784018590556008840180549091169055600990920192909255600b549086015191860151939450613de1938316921690614782565b81606001516001600160a01b031682602001516001600160a01b031614613eb9576040805160028082526060808301845292602083019080368337019050509050826020015181600081518110613e3457fe5b60200260200101906001600160a01b031690816001600160a01b031681525050826060015181600181518110613e6657fe5b60200260200101906001600160a01b031690816001600160a01b0316815250506000613e94826000306147d9565b600b546060860151919250613eb6916001600160a01b03908116911683614782565b50505b600a5482516060840151608085015160a086015160c087015160408051630f8ee8bb60e11b81526001600160a01b03968716600482015294861660248601529285166044850152606484019190915215156084830152519190921691631f1dd1769160a480830192600092919082900301818387803b158015613f3b57600080fd5b505af1158015613f4f573d6000803e3d6000fd5b50505050613f6282610120015184614908565b81600001516001600160a01b03167f7fb1c74d1ea6aa1c9c585e17ce8274c8ff98745e85e7459b73f87d784494f58e8584602001518560400151866060015187608001518860a001518960c001518a60e001518b61010001518c61012001518c604051808c81526020018b6001600160a01b031681526020018a8152602001896001600160a01b03168152602001886001600160a01b03168152602001878152602001861515815260200185815260200184151581526020018381526020018281526020019b50505050505050505050505060405180910390a250506001600055505050565b600080600080600080600080600061405e6158f4565b505050506001600160a01b0397881660009081526001602081815260408084209a845299815291899020895161014081018b5281548c168152918101548b1692820183905260028101549982018a905260038101548b16606083018190526004820154909b1660808301819052600582015460a08401819052600683015460ff908116151560c08601819052600785015460e08701819052600886015490921615156101008701819052600990950154610120909601869052959e9c9d9c929b5090995093975092955093509150565b60046020526000908152604090205481565b6007546001600160a01b03163314614196576040805162461bcd60e51b815260206004820152601460248201527327b93232b92137b7b59d103337b93134b23232b760611b604482015290519081900360640190fd5b600e5460ff16156141ee576040805162461bcd60e51b815260206004820152601e60248201527f4f72646572426f6f6b3a20616c726561647920696e697469616c697a65640000604482015290519081900360640190fd5b600e805460ff19166001179055600a80546001600160a01b038089166001600160a01b03199283168117909355600b8054898316908416811790915560088054898416908516811790915560098054938916939094168317909355600c869055600d8590556040805194855260208501919091528381019290925260608301526080820184905260a08201839052517fcfb7ef8749fafc8da2af1ba3d025479ffc4e58f7dc420113e112512a3bda59639181900360c00190a1505050505050565b600360208181526000938452604080852090915291835291208054600182015460028301549383015460048401546005850154600686015460078701546008909701546001600160a01b039687169895871697959690941694929360ff9283169391929091169089565b6009546001600160a01b031681565b6002600054141561436e576040805162461bcd60e51b815260206004820152601f6024820152600080516020615a02833981519152604482015290519081900360640190fd5b600260005561437b615881565b33600090815260056020908152604080832085845282529182902082516101008101845281546001600160a01b031681526001820180548551818602810186019096528086529194929385810193929083018282801561440457602002820191906000526020600020905b81546001600160a01b031681526001909101906020018083116143e6575b5050509183525050600282015460208201526003820154604082015260048201546060820152600582015460ff8082161515608084015261010090910416151560a082015260069091015460c09091015280519091506001600160a01b03166144a2576040805162461bcd60e51b815260206004820152601d60248201526000805160206159e2833981519152604482015290519081900360640190fd5b336000908152600560209081526040808320858452909152812080546001600160a01b0319168155906144d860018301826158d3565b50600060028201819055600382018190556004820181905560058201805461ffff191690556006909101819055600854602083015180516001600160a01b0390921692909161452357fe5b60200260200101516001600160a01b0316141561455d576145586122da82604001518360e001516149f790919063ffffffff16565b614585565b614577338260400151836020015160008151811061146857fe5b6145858160e0015133614908565b336001600160a01b03167fefd66d4f9c2f880c70aedeb5b26a44fb474cea07e5d6c533f2d27c303d5d94538383602001518460400151856060015186608001518760a001518860c001518960e00151604051808981526020018060200188815260200187815260200186815260200185151581526020018415158152602001838152602001828103825289818151815260200191508051906020019060200280838360005b8381101561464257818101518382015260200161462a565b50505050905001995050505050505050505060405180910390a250506001600055565b600a546001600160a01b031681565b614683888888888888886134e7565b336000818152600460209081526040918290205482519081528715159181019190915280820184905290517f87bc1d609678e553a59045f76cf1ec2a89eb2b316684b9536ebe70a0a7191bd19181900360600190a25050505050505050565b600b546001600160a01b031681565b6007546001600160a01b03163314614747576040805162461bcd60e51b815260206004820152601460248201527327b93232b92137b7b59d103337b93134b23232b760611b604482015290519081900360640190fd5b600c8190556040805182815290517fbde5eafdc37b81830d70124cddccaaa6d034e71dda3c8fc18a959ca76a7cbcfc9181900360200190a150565b604080516001600160a01b038416602482015260448082018490528251808303909101815260649091019091526020810180516001600160e01b031663a9059cbb60e01b1790526147d490849061523f565b505050565b600083516002141561482057614819846000815181106147f557fe5b60200260200101518560018151811061480a57fe5b602002602001015185856152f0565b9050614901565b8351600314156148c65760006148618560008151811061483c57fe5b60200260200101518660018151811061485157fe5b60200260200101516000306152f0565b905061488a600b60009054906101000a90046001600160a01b0316828760018151811061146857fe5b6148be8560018151811061489a57fe5b6020026020010151866002815181106148af57fe5b602002602001015186866152f0565b915050614901565b6040805162461bcd60e51b815260206004820152601f6024820152600080516020615b7c833981519152604482015290519081900360640190fd5b9392505050565b60085460408051632e1a7d4d60e01b81526004810185905290516001600160a01b0390921691632e1a7d4d9160248082019260009290919082900301818387803b15801561495557600080fd5b505af1158015614969573d6000803e3d6000fd5b50614981925050506001600160a01b038216836154cf565b5050565b34156149f557600860009054906101000a90046001600160a01b03166001600160a01b031663d0e30db0346040518263ffffffff1660e01b81526004016000604051808303818588803b1580156149db57600080fd5b505af11580156149ef573d6000803e3d6000fd5b50505050505b565b600082820183811015614901576040805162461bcd60e51b815260206004820152601b60248201527a536166654d6174683a206164646974696f6e206f766572666c6f7760281b604482015290519081900360640190fd5b6001600160a01b038816600090815260066020526040902054614a70615881565b6040518061010001604052808b6001600160a01b031681526020018a815260200189815260200188815260200187815260200186151581526020018515158152602001848152509050614acd6001836149f790919063ffffffff16565b6001600160a01b038b8116600090815260066020908152604080832094909455600581528382208683528152929020835181546001600160a01b03191692169190911781558282015180518493614b2b926001850192910190615948565b5060408201518160020155606082015181600301556080820151816004015560a08201518160050160006101000a81548160ff02191690831515021790555060c08201518160050160016101000a81548160ff02191690831515021790555060e08201518160060155905050896001600160a01b03167fdf06bb56ffc4029dc0b62b68bb5bbadea93a38b530cefc9b81afb742a6555d88838b8b8b8b8b8b8b604051808981526020018060200188815260200187815260200186815260200185151581526020018415158152602001838152602001828103825289818151815260200191508051906020019060200280838360005b83811015614c38578181015183820152602001614c20565b50505050905001995050505050505050505060405180910390a250505050505050505050565b600082614c6d575060006137a9565b82820282848281614c7a57fe5b04146149015760405162461bcd60e51b8152600401808060200182810382526021815260200180615b0f6021913960400191505060405180910390fd5b600061490183836040518060400160405280601a815260200179536166654d6174683a206469766973696f6e206279207a65726f60301b8152506155b4565b33600090815260026020526040902054614d0e6158f4565b6040518061014001604052808d6001600160a01b031681526020018c6001600160a01b031681526020018b81526020018a6001600160a01b03168152602001896001600160a01b0316815260200188815260200187151581526020018681526020018515158152602001848152509050614d926001836149f790919063ffffffff16565b600260008e6001600160a01b03166001600160a01b031681526020019081526020016000208190555080600160008e6001600160a01b03166001600160a01b03168152602001908152602001600020600084815260200190815260200160002060008201518160000160006101000a8154816001600160a01b0302191690836001600160a01b0316021790555060208201518160010160006101000a8154816001600160a01b0302191690836001600160a01b031602179055506040820151816002015560608201518160030160006101000a8154816001600160a01b0302191690836001600160a01b0316021790555060808201518160040160006101000a8154816001600160a01b0302191690836001600160a01b0316021790555060a0820151816005015560c08201518160060160006101000a81548160ff02191690831515021790555060e082015181600701556101008201518160080160006101000a81548160ff02191690831515021790555061012082015181600901559050508b6001600160a01b03167fb27b9afe3043b93788c40cfc3cc73f5d928a2e40f3ba01820b246426de8fa1b9838d8d8d8d8d8d8d8d8d604051808b81526020018a6001600160a01b03168152602001898152602001886001600160a01b03168152602001876001600160a01b03168152602001868152602001851515815260200184815260200183151581526020018281526020019a505050505050505050505060405180910390a2505050505050505050505050565b6001600160a01b038816600090815260046020526040902054614fea615835565b5060408051610120810182526001600160a01b03808c1682528a8116602083015291810189905290871660608201526080810186905284151560a082015260c0810184905282151560e0820152346101008201526150498260016149f7565b600460008c6001600160a01b03166001600160a01b031681526020019081526020016000208190555080600360008c6001600160a01b03166001600160a01b03168152602001908152602001600020600084815260200190815260200160002060008201518160000160006101000a8154816001600160a01b0302191690836001600160a01b0316021790555060208201518160010160006101000a8154816001600160a01b0302191690836001600160a01b031602179055506040820151816002015560608201518160030160006101000a8154816001600160a01b0302191690836001600160a01b031602179055506080820151816004015560a08201518160050160006101000a81548160ff02191690831515021790555060c0820151816006015560e08201518160070160006101000a81548160ff0219169083151502179055506101008201518160080155905050896001600160a01b03167f48ee333d2a65cc45fdb83bc012920d89181c3377390cd239d2b63f2bef67a02d838b8b8b8b8b8b8b34604051808a8152602001896001600160a01b03168152602001888152602001876001600160a01b0316815260200186815260200185151581526020018481526020018315158152602001828152602001995050505050505050505060405180910390a250505050505050505050565b6060615294826040518060400160405280602081526020017f5361666545524332303a206c6f772d6c6576656c2063616c6c206661696c6564815250856001600160a01b03166156569092919063ffffffff16565b8051909150156147d4578080602001905160208110156152b357600080fd5b50516147d45760405162461bcd60e51b815260040180806020018281038252602a815260200180615b9c602a913960400191505060405180910390fd5b60095460009081906001600160a01b038681169116141561539557600b546040805163817bb85760e01b81526001600160a01b03898116600483015286811660248301529151919092169163817bb8579160448083019260209291908290030181600087803b15801561536257600080fd5b505af1158015615376573d6000803e3d6000fd5b505050506040513d602081101561538c57600080fd5b50519050615490565b6009546001600160a01b038781169116141561540257600b5460408051630711e61960e41b81526001600160a01b03888116600483015286811660248301529151919092169163711e61909160448083019260209291908290030181600087803b15801561536257600080fd5b600b5460408051634998b10960e11b81526001600160a01b038981166004830152888116602483015286811660448301529151919092169163933162129160648083019260209291908290030181600087803b15801561546157600080fd5b505af1158015615475573d6000803e3d6000fd5b505050506040513d602081101561548b57600080fd5b505190505b83811015612cf05760405162461bcd60e51b8152600401808060200182810382526021815260200180615aa46021913960400191505060405180910390fd5b80471015615524576040805162461bcd60e51b815260206004820152601d60248201527f416464726573733a20696e73756666696369656e742062616c616e6365000000604482015290519081900360640190fd5b6040516000906001600160a01b0384169083908381818185875af1925050503d806000811461556f576040519150601f19603f3d011682016040523d82523d6000602084013e615574565b606091505b50509050806147d45760405162461bcd60e51b815260040180806020018281038252603a815260200180615a44603a913960400191505060405180910390fd5b600081836156405760405162461bcd60e51b81526004018080602001828103825283818151815260200191508051906020019080838360005b838110156156055781810151838201526020016155ed565b50505050905090810190601f1680156156325780820380516001836020036101000a031916815260200191505b509250505060405180910390fd5b50600083858161564c57fe5b0495945050505050565b6060615665848460008561566d565b949350505050565b6060824710156156ae5760405162461bcd60e51b8152600401808060200182810382526026815260200180615a7e6026913960400191505060405180910390fd5b6156b7856157c9565b615708576040805162461bcd60e51b815260206004820152601d60248201527f416464726573733a2063616c6c20746f206e6f6e2d636f6e7472616374000000604482015290519081900360640190fd5b60006060866001600160a01b031685876040518082805190602001908083835b602083106157475780518252601f199092019160209182019101615728565b6001836020036101000a03801982511681845116808217855250505050505090500191505060006040518083038185875af1925050503d80600081146157a9576040519150601f19603f3d011682016040523d82523d6000602084013e6157ae565b606091505b50915091506157be8282866157cf565b979650505050505050565b3b151590565b606083156157de575081614901565b8251156157ee5782518084602001fd5b60405162461bcd60e51b81526020600482018181528451602484015284518593919283926044019190850190808383600083156156055781810151838201526020016155ed565b6040805161012081018252600080825260208201819052918101829052606081018290526080810182905260a0810182905260c0810182905260e0810182905261010081019190915290565b60405180610100016040528060006001600160a01b0316815260200160608152602001600081526020016000815260200160008152602001600015158152602001600015158152602001600081525090565b50805460008255906000526020600020908101906158f191906159ad565b50565b6040805161014081018252600080825260208201819052918101829052606081018290526080810182905260a0810182905260c0810182905260e08101829052610100810182905261012081019190915290565b82805482825590600052602060002090810192821561599d579160200282015b8281111561599d57825182546001600160a01b0319166001600160a01b03909116178255602090920191600190910190615968565b506159a99291506159c2565b5090565b5b808211156159a957600081556001016159ae565b5b808211156159a95780546001600160a01b03191681556001016159c356fe4f72646572426f6f6b3a206e6f6e2d6578697374656e74206f726465720000005265656e7472616e637947756172643a207265656e7472616e742063616c6c004f72646572426f6f6b3a20696e73756666696369656e7420636f6c6c61746572616c416464726573733a20756e61626c6520746f2073656e642076616c75652c20726563697069656e74206d61792068617665207265766572746564416464726573733a20696e73756666696369656e742062616c616e636520666f722063616c6c4f72646572426f6f6b3a20696e73756666696369656e7420616d6f756e744f75744f72646572426f6f6b3a206f6e6c79207765746820636f756c6420626520777261707065644f72646572426f6f6b3a20696e73756666696369656e7420657865637574696f6e20666565536166654d6174683a206d756c7469706c69636174696f6e206f766572666c6f774f72646572426f6f6b3a20696e636f72726563742076616c7565207472616e736665727265644f72646572426f6f6b3a20696e76616c696420707269636520666f7220657865637574696f6e4f72646572426f6f6b3a20696e76616c6964205f706174682e6c656e677468005361666545524332303a204552433230206f7065726174696f6e20646964206e6f7420737563636565644f72646572426f6f6b3a20696e636f727265637420657865637574696f6e20666565207472616e73666572726564a264697066735822122052533fd4c96880af68863981b5fc3757dee9e5ebefb93d850bacc0d74ad8e9fb64736f6c634300060c0033","linkReferences":{}},"methodIdentifiers":{"PRICE_PRECISION()":"95082d25","USDG_PRECISION()":"4a686d67","cancelDecreaseOrder(uint256)":"9e71b0f0","cancelDecreaseOrderAdmin(address,uint256)":"13bd39d7","cancelIncreaseOrder(uint256)":"47e0bbd0","cancelIncreaseOrderAdmin(address,uint256)":"611c86a8","cancelMultiple(uint256[],uint256[],uint256[])":"807c5600","cancelSwapOrder(uint256)":"f882ac07","createDecreaseOrder(address,uint256,address,uint256,bool,uint256,bool)":"c16cde8a","createDecreaseOrderAttached(address,uint256,address,uint256,bool,uint256,bool,bytes32)":"f997c306","createIncreaseOrder(address[],uint256,address,uint256,uint256,address,bool,uint256,bool,uint256,bool)":"b142a4b0","createIncreaseOrderAttached(address[],uint256,address,uint256,uint256,address,bool,uint256,bool,uint256,bool,bytes32)":"686a17b0","createSwapOrder(address[],uint256,uint256,uint256,bool,uint256,bool,bool)":"269ae6c2","decreaseOrders(address,uint256)":"f2d2e01b","decreaseOrdersIndex(address)":"d566d0ca","executeDecreaseOrder(address,uint256,address)":"11d9444a","executeIncreaseOrder(address,uint256,address)":"d38ab519","executeSwapOrder(address,uint256,address)":"07c7edc3","getDecreaseOrder(address,uint256)":"026032ee","getIncreaseOrder(address,uint256)":"d3bab1d1","getSwapOrder(address,uint256)":"d0d40cd6","getUsdgMinPrice(address)":"9e23de5c","gov()":"12d43a51","increaseOrders(address,uint256)":"2b7d6290","increaseOrdersIndex(address)":"aec22455","initialize(address,address,address,address,uint256,uint256)":"d7c41c79","isInitialized()":"392e53cd","minExecutionFee()":"63ae2103","minPurchaseTokenAmountUsd()":"8de10c2e","router()":"f887ea40","setGov(address)":"cfad57a2","setMinExecutionFee(uint256)":"fc2cee62","setMinPurchaseTokenAmountUsd(uint256)":"0d5cc938","swapOrders(address,uint256)":"79221fa2","swapOrdersIndex(address)":"00cf066b","updateDecreaseOrder(uint256,uint256,uint256,uint256,bool)":"a397ea54","updateIncreaseOrder(uint256,uint256,uint256,bool)":"9983ee1b","updateSwapOrder(uint256,uint256,uint256,bool)":"c86b0f7d","usdg()":"f5b91b7b","validatePositionOrderPrice(bool,uint256,address,bool,bool)":"4c54f0b0","validateSwapOrderPriceWithTriggerAboveThreshold(address[],uint256)":"c4a1821b","vault()":"fbfa77cf","weth()":"3fc8cef3"},"id":41}