{"abi":[{"type":"constructor","inputs":[],"stateMutability":"nonpayable"},{"type":"function","name":"acceptGov","inputs":[],"outputs":[],"stateMutability":"nonpayable"},{"type":"function","name":"cancelGovProposal","inputs":[{"name":"_gov","type":"address","internalType":"address"}],"outputs":[],"stateMutability":"nonpayable"},{"type":"function","name":"gov","inputs":[],"outputs":[{"name":"","type":"address","internalType":"address"}],"stateMutability":"view"},{"type":"function","name":"govProposals","inputs":[{"name":"","type":"address","internalType":"address"}],"outputs":[{"name":"deadline","type":"uint256","internalType":"uint256"},{"name":"isActive","type":"bool","internalType":"bool"}],"stateMutability":"view"},{"type":"function","name":"setGov","inputs":[{"name":"_gov","type":"address","internalType":"address"}],"outputs":[],"stateMutability":"nonpayable"},{"type":"function","name":"setGovWithDeadline","inputs":[{"name":"_gov","type":"address","internalType":"address"},{"name":"_deadline","type":"uint256","internalType":"uint256"}],"outputs":[],"stateMutability":"nonpayable"},{"type":"event","name":"GovProposalCanceled","inputs":[{"name":"proposedGov","type":"address","indexed":true,"internalType":"address"},{"name":"canceledBy","type":"address","indexed":true,"internalType":"address"}],"anonymous":false},{"type":"event","name":"GovernanceTransferRequested","inputs":[{"name":"newGov","type":"address","indexed":true,"internalType":"address"},{"name":"deadline","type":"uint256","indexed":false,"internalType":"uint256"}],"anonymous":false},{"type":"event","name":"GovernanceTransferred","inputs":[{"name":"oldGov","type":"address","indexed":true,"internalType":"address"},{"name":"newGov","type":"address","indexed":true,"internalType":"address"}],"anonymous":false}],"bytecode":{"object":"0x608060405234801561001057600080fd5b50600080546001600160a01b031916331790556106b8806100326000396000f3fe608060405234801561001057600080fd5b50600436106100625760003560e01c806312d43a51146100675780636bb22fd71461008b5780637bc6729b146100b95780638d0fedb0146100c15780639c35b49714610100578063cfad57a214610126575b600080fd5b61006f61014c565b604080516001600160a01b039092168252519081900360200190f35b6100b7600480360360408110156100a157600080fd5b506001600160a01b03813516906020013561015b565b005b6100b761027a565b6100e7600480360360208110156100d757600080fd5b50356001600160a01b031661038e565b6040805192835290151560208301528051918290030190f35b6100b76004803603602081101561011657600080fd5b50356001600160a01b03166103aa565b6100b76004803603602081101561013c57600080fd5b50356001600160a01b03166104c5565b6000546001600160a01b031681565b6000546001600160a01b031633146101b2576040805162461bcd60e51b815260206004820152601560248201527423b7bb32b93730b136329d103337b93134b23232b760591b604482015290519081900360640190fd5b6001600160a01b03821661020b576040805162461bcd60e51b815260206004820152601b60248201527a476f7665726e61626c653a20696e76616c6964206164647265737360281b604482015290519081900360640190fd5b6000546001600160a01b038381169116141561026c576040805162461bcd60e51b815260206004820152601b60248201527a476f7665726e61626c653a2073616d6520676f7665726e616e636560281b604482015290519081900360640190fd5b61027682826105e5565b5050565b336000908152600160205260409020805442106102dd576040805162461bcd60e51b815260206004820152601c60248201527b11dbdd995c9b98589b194e88191958591b1a5b9948195e1c1a5c995960221b604482015290519081900360640190fd5b60018082015460ff161515146103245760405162461bcd60e51b81526004018080602001828103825260228152602001806106616022913960400191505060405180910390fd5b6000805433808352600160208190526040808520858155909101805460ff1916905583546001600160a01b03191682178455516001600160a01b0390921692909183917f5f56bee8cffbe9a78652a74a60705edede02af10b0bbb888ca44b79a0d42ce8091a35050565b6001602081905260009182526040909120805491015460ff1682565b6000546001600160a01b03163314610401576040805162461bcd60e51b815260206004820152601560248201527423b7bb32b93730b136329d103337b93134b23232b760591b604482015290519081900360640190fd5b6001600160a01b0381166000908152600160208190526040909120015460ff16610472576040805162461bcd60e51b815260206004820152601f60248201527f476f7665726e61626c653a2070726f706f73616c206e6f742061637469766500604482015290519081900360640190fd5b6001600160a01b0381166000818152600160208190526040808320838155909101805460ff19169055513392917ffc6a2fa53abe2adfe8372a9495032d7e6458d3aed34fa880132b6c808da1e99c91a350565b6000546001600160a01b0316331461051c576040805162461bcd60e51b815260206004820152601560248201527423b7bb32b93730b136329d103337b93134b23232b760591b604482015290519081900360640190fd5b6001600160a01b038116610575576040805162461bcd60e51b815260206004820152601b60248201527a476f7665726e61626c653a20696e76616c6964206164647265737360281b604482015290519081900360640190fd5b6000546001600160a01b03828116911614156105d6576040805162461bcd60e51b815260206004820152601b60248201527a476f7665726e61626c653a2073616d6520676f7665726e616e636560281b604482015290519081900360640190fd5b6105e2816000196105e5565b50565b604080518082018252828152600160208083018281526001600160a01b038716600081815284845286902094518555905193909201805460ff1916931515939093179092558251848152925190927f02dd0697be46e764c3ba81094158781c31b235d03bb27a0daf1bdef0ec1084dd92908290030190a2505056fe476f7665726e61626c653a2070726f706f73616c206973206e6f7420616374697665a2646970667358221220f1ae50f328d622949a873907d35ec9f91635e9d9eb02d46f0e9bf2132d4e9bbd64736f6c634300060c0033","linkReferences":{}},"methodIdentifiers":{"acceptGov()":"7bc6729b","cancelGovProposal(address)":"9c35b497","gov()":"12d43a51","govProposals(address)":"8d0fedb0","setGov(address)":"cfad57a2","setGovWithDeadline(address,uint256)":"6bb22fd7"},"id":29}