{"abi":[{"type":"constructor","inputs":[],"stateMutability":"nonpayable"},{"type":"function","name":"BASIS_POINTS_DIVISOR","inputs":[],"outputs":[{"name":"","type":"uint256","internalType":"uint256"}],"stateMutability":"view"},{"type":"function","name":"MAX_ADJUSTMENT_BASIS_POINTS","inputs":[],"outputs":[{"name":"","type":"uint256","internalType":"uint256"}],"stateMutability":"view"},{"type":"function","name":"MAX_ADJUSTMENT_INTERVAL","inputs":[],"outputs":[{"name":"","type":"uint256","internalType":"uint256"}],"stateMutability":"view"},{"type":"function","name":"MAX_SPREAD_BASIS_POINTS","inputs":[],"outputs":[{"name":"","type":"uint256","internalType":"uint256"}],"stateMutability":"view"},{"type":"function","name":"ONE_USD","inputs":[],"outputs":[{"name":"","type":"uint256","internalType":"uint256"}],"stateMutability":"view"},{"type":"function","name":"PRICE_PRECISION","inputs":[],"outputs":[{"name":"","type":"uint256","internalType":"uint256"}],"stateMutability":"view"},{"type":"function","name":"adjustmentBasisPoints","inputs":[{"name":"","type":"address","internalType":"address"}],"outputs":[{"name":"","type":"uint256","internalType":"uint256"}],"stateMutability":"view"},{"type":"function","name":"bnb","inputs":[],"outputs":[{"name":"","type":"address","internalType":"address"}],"stateMutability":"view"},{"type":"function","name":"bnbBusd","inputs":[],"outputs":[{"name":"","type":"address","internalType":"address"}],"stateMutability":"view"},{"type":"function","name":"btc","inputs":[],"outputs":[{"name":"","type":"address","internalType":"address"}],"stateMutability":"view"},{"type":"function","name":"btcBnb","inputs":[],"outputs":[{"name":"","type":"address","internalType":"address"}],"stateMutability":"view"},{"type":"function","name":"chainlinkFlags","inputs":[],"outputs":[{"name":"","type":"address","internalType":"address"}],"stateMutability":"view"},{"type":"function","name":"eth","inputs":[],"outputs":[{"name":"","type":"address","internalType":"address"}],"stateMutability":"view"},{"type":"function","name":"ethBnb","inputs":[],"outputs":[{"name":"","type":"address","internalType":"address"}],"stateMutability":"view"},{"type":"function","name":"favorPrimaryPrice","inputs":[],"outputs":[{"name":"","type":"bool","internalType":"bool"}],"stateMutability":"view"},{"type":"function","name":"getAmmPrice","inputs":[{"name":"_token","type":"address","internalType":"address"}],"outputs":[{"name":"","type":"uint256","internalType":"uint256"}],"stateMutability":"view"},{"type":"function","name":"getAmmPriceV2","inputs":[{"name":"_token","type":"address","internalType":"address"},{"name":"_maximise","type":"bool","internalType":"bool"},{"name":"_primaryPrice","type":"uint256","internalType":"uint256"}],"outputs":[{"name":"","type":"uint256","internalType":"uint256"}],"stateMutability":"view"},{"type":"function","name":"getLatestPrimaryPrice","inputs":[{"name":"_token","type":"address","internalType":"address"}],"outputs":[{"name":"","type":"uint256","internalType":"uint256"}],"stateMutability":"view"},{"type":"function","name":"getPairPrice","inputs":[{"name":"_pair","type":"address","internalType":"address"},{"name":"_divByReserve0","type":"bool","internalType":"bool"}],"outputs":[{"name":"","type":"uint256","internalType":"uint256"}],"stateMutability":"view"},{"type":"function","name":"getPrice","inputs":[{"name":"_token","type":"address","internalType":"address"},{"name":"_maximise","type":"bool","internalType":"bool"},{"name":"_includeAmmPrice","type":"bool","internalType":"bool"},{"name":"","type":"bool","internalType":"bool"}],"outputs":[{"name":"","type":"uint256","internalType":"uint256"}],"stateMutability":"view"},{"type":"function","name":"getPriceV1","inputs":[{"name":"_token","type":"address","internalType":"address"},{"name":"_maximise","type":"bool","internalType":"bool"},{"name":"_includeAmmPrice","type":"bool","internalType":"bool"}],"outputs":[{"name":"","type":"uint256","internalType":"uint256"}],"stateMutability":"view"},{"type":"function","name":"getPriceV2","inputs":[{"name":"_token","type":"address","internalType":"address"},{"name":"_maximise","type":"bool","internalType":"bool"},{"name":"_includeAmmPrice","type":"bool","internalType":"bool"}],"outputs":[{"name":"","type":"uint256","internalType":"uint256"}],"stateMutability":"view"},{"type":"function","name":"getPrimaryPrice","inputs":[{"name":"_token","type":"address","internalType":"address"},{"name":"_maximise","type":"bool","internalType":"bool"}],"outputs":[{"name":"","type":"uint256","internalType":"uint256"}],"stateMutability":"view"},{"type":"function","name":"getSecondaryPrice","inputs":[{"name":"_token","type":"address","internalType":"address"},{"name":"_referencePrice","type":"uint256","internalType":"uint256"},{"name":"_maximise","type":"bool","internalType":"bool"}],"outputs":[{"name":"","type":"uint256","internalType":"uint256"}],"stateMutability":"view"},{"type":"function","name":"gov","inputs":[],"outputs":[{"name":"","type":"address","internalType":"address"}],"stateMutability":"view"},{"type":"function","name":"isAdjustmentAdditive","inputs":[{"name":"","type":"address","internalType":"address"}],"outputs":[{"name":"","type":"bool","internalType":"bool"}],"stateMutability":"view"},{"type":"function","name":"isAmmEnabled","inputs":[],"outputs":[{"name":"","type":"bool","internalType":"bool"}],"stateMutability":"view"},{"type":"function","name":"isSecondaryPriceEnabled","inputs":[],"outputs":[{"name":"","type":"bool","internalType":"bool"}],"stateMutability":"view"},{"type":"function","name":"lastAdjustmentTimings","inputs":[{"name":"","type":"address","internalType":"address"}],"outputs":[{"name":"","type":"uint256","internalType":"uint256"}],"stateMutability":"view"},{"type":"function","name":"maxStrictPriceDeviation","inputs":[],"outputs":[{"name":"","type":"uint256","internalType":"uint256"}],"stateMutability":"view"},{"type":"function","name":"priceDecimals","inputs":[{"name":"","type":"address","internalType":"address"}],"outputs":[{"name":"","type":"uint256","internalType":"uint256"}],"stateMutability":"view"},{"type":"function","name":"priceFeeds","inputs":[{"name":"","type":"address","internalType":"address"}],"outputs":[{"name":"","type":"address","internalType":"address"}],"stateMutability":"view"},{"type":"function","name":"priceSampleSpace","inputs":[],"outputs":[{"name":"","type":"uint256","internalType":"uint256"}],"stateMutability":"view"},{"type":"function","name":"secondaryPriceFeed","inputs":[],"outputs":[{"name":"","type":"address","internalType":"address"}],"stateMutability":"view"},{"type":"function","name":"setAdjustment","inputs":[{"name":"_token","type":"address","internalType":"address"},{"name":"_isAdditive","type":"bool","internalType":"bool"},{"name":"_adjustmentBps","type":"uint256","internalType":"uint256"}],"outputs":[],"stateMutability":"nonpayable"},{"type":"function","name":"setChainlinkFlags","inputs":[{"name":"_chainlinkFlags","type":"address","internalType":"address"}],"outputs":[],"stateMutability":"nonpayable"},{"type":"function","name":"setFavorPrimaryPrice","inputs":[{"name":"_favorPrimaryPrice","type":"bool","internalType":"bool"}],"outputs":[],"stateMutability":"nonpayable"},{"type":"function","name":"setGov","inputs":[{"name":"_gov","type":"address","internalType":"address"}],"outputs":[],"stateMutability":"nonpayable"},{"type":"function","name":"setIsAmmEnabled","inputs":[{"name":"_isEnabled","type":"bool","internalType":"bool"}],"outputs":[],"stateMutability":"nonpayable"},{"type":"function","name":"setIsSecondaryPriceEnabled","inputs":[{"name":"_isEnabled","type":"bool","internalType":"bool"}],"outputs":[],"stateMutability":"nonpayable"},{"type":"function","name":"setMaxStrictPriceDeviation","inputs":[{"name":"_maxStrictPriceDeviation","type":"uint256","internalType":"uint256"}],"outputs":[],"stateMutability":"nonpayable"},{"type":"function","name":"setPairs","inputs":[{"name":"_bnbBusd","type":"address","internalType":"address"},{"name":"_ethBnb","type":"address","internalType":"address"},{"name":"_btcBnb","type":"address","internalType":"address"}],"outputs":[],"stateMutability":"nonpayable"},{"type":"function","name":"setPriceSampleSpace","inputs":[{"name":"_priceSampleSpace","type":"uint256","internalType":"uint256"}],"outputs":[],"stateMutability":"nonpayable"},{"type":"function","name":"setSecondaryPriceFeed","inputs":[{"name":"_secondaryPriceFeed","type":"address","internalType":"address"}],"outputs":[],"stateMutability":"nonpayable"},{"type":"function","name":"setSpreadBasisPoints","inputs":[{"name":"_token","type":"address","internalType":"address"},{"name":"_spreadBasisPoints","type":"uint256","internalType":"uint256"}],"outputs":[],"stateMutability":"nonpayable"},{"type":"function","name":"setSpreadThresholdBasisPoints","inputs":[{"name":"_spreadThresholdBasisPoints","type":"uint256","internalType":"uint256"}],"outputs":[],"stateMutability":"nonpayable"},{"type":"function","name":"setTokenConfig","inputs":[{"name":"_token","type":"address","internalType":"address"},{"name":"_priceFeed","type":"address","internalType":"address"},{"name":"_priceDecimals","type":"uint256","internalType":"uint256"},{"name":"_isStrictStable","type":"bool","internalType":"bool"}],"outputs":[],"stateMutability":"nonpayable"},{"type":"function","name":"setTokens","inputs":[{"name":"_btc","type":"address","internalType":"address"},{"name":"_eth","type":"address","internalType":"address"},{"name":"_bnb","type":"address","internalType":"address"}],"outputs":[],"stateMutability":"nonpayable"},{"type":"function","name":"setUseV2Pricing","inputs":[{"name":"_useV2Pricing","type":"bool","internalType":"bool"}],"outputs":[],"stateMutability":"nonpayable"},{"type":"function","name":"spreadBasisPoints","inputs":[{"name":"","type":"address","internalType":"address"}],"outputs":[{"name":"","type":"uint256","internalType":"uint256"}],"stateMutability":"view"},{"type":"function","name":"spreadThresholdBasisPoints","inputs":[],"outputs":[{"name":"","type":"uint256","internalType":"uint256"}],"stateMutability":"view"},{"type":"function","name":"strictStableTokens","inputs":[{"name":"","type":"address","internalType":"address"}],"outputs":[{"name":"","type":"bool","internalType":"bool"}],"stateMutability":"view"},{"type":"function","name":"useV2Pricing","inputs":[],"outputs":[{"name":"","type":"bool","internalType":"bool"}],"stateMutability":"view"}],"bytecode":{"object":"0x60806040526001805461ffff60b01b1960ff60a81b1960ff60a01b19909216600160a01b1791909116600160a81b171690556003600281905560009055601e60055534801561004d57600080fd5b50600080546001600160a01b03191633179055611e8f8061006f6000396000f3fe608060405234801561001057600080fd5b50600436106102775760003560e01c8063732391b411610158578063732391b414610565578063826e055f1461059b5780638b86616c146105c15780638c7c9e0c146105c957806393f69074146105d157806395082d2514610509578063971bd3961461060957806397dfade7146106115780639917dc74146106195780639a0a6635146106385780639b18dc471461065e5780639b889380146106665780639dcb511a14610692578063a27ea386146106b8578063a28d57d8146106de578063a2ad7b93146106e6578063a39c73a314610714578063b02a2de41461071c578063b731dd8714610750578063b8f611051461076d578063c2138d8c14610793578063cefe0f21146107b9578063cfad57a2146107df578063d694376c14610805578063e4440e0214610839578063eb1c92a914610841578063fd34ec401461086057610277565b80630957aed91461027c5780631193c80914610296578063126082cf146102ba57806312d43a51146102c25780632fa03b8f146102ca5780632fbfe3d3146102e95780632fc3a70a1461030657806330536ee514610344578063378e7bf7146103605780633d949c5f146103685780633eba8d361461039e5780633ebbc601146103d25780633f0c3bb7146103da578063443be209146103e257806348cac2771461041a57806349a876e4146104405780634a4b1f4f146104485780634b9ade471461045057806356bf9de41461048e57806356c8c2c1146104b4578063593d9e80146104e2578063604f37e9146104ea57806367781c0e146105095780636ce8a44b146105115780636fc8070814610537578063717cfe7a1461053f575b600080fd5b61028461087f565b60408051918252519081900360200190f35b61029e610884565b604080516001600160a01b039092168252519081900360200190f35b610284610893565b61029e610899565b6102e7600480360360208110156102e057600080fd5b50356108a8565b005b6102e7600480360360208110156102ff57600080fd5b5035610939565b6102846004803603608081101561031c57600080fd5b506001600160a01b03813516906020810135151590604081013515159060600135151561098b565b61034c610a49565b604080519115158252519081900360200190f35b610284610a59565b6102846004803603606081101561037e57600080fd5b506001600160a01b03813516906020810135151590604001351515610a5f565b610284600480360360608110156103b457600080fd5b506001600160a01b0381351690602081013590604001351515610c38565b61034c610ce6565b61034c610cf6565b6102e7600480360360608110156103f857600080fd5b506001600160a01b038135811691602081013582169160409091013516610d06565b6102846004803603602081101561043057600080fd5b50356001600160a01b0316610d92565b61029e610da4565b610284610db3565b6102e76004803603608081101561046657600080fd5b506001600160a01b038135811691602081013590911690604081013590606001351515610db8565b610284600480360360208110156104a457600080fd5b50356001600160a01b0316610e5a565b610284600480360360408110156104ca57600080fd5b506001600160a01b0381351690602001351515610e71565b61034c61112f565b6102e76004803603602081101561050057600080fd5b5035151561113f565b6102846111aa565b61034c6004803603602081101561052757600080fd5b50356001600160a01b03166111ba565b6102846111cf565b6102846004803603602081101561055557600080fd5b50356001600160a01b03166111d5565b6102846004803603606081101561057b57600080fd5b506001600160a01b038135169060208101351515906040013515156111e7565b6102e7600480360360208110156105b157600080fd5b50356001600160a01b0316611280565b61029e6112ef565b61029e6112fe565b6102e7600480360360608110156105e757600080fd5b506001600160a01b03813581169160208101358216916040909101351661130d565b61029e611399565b61029e6113a8565b6102e76004803603602081101561062f57600080fd5b503515156113b7565b6102e76004803603602081101561064e57600080fd5b50356001600160a01b0316611422565b610284611491565b6102e76004803603604081101561067c57600080fd5b506001600160a01b038135169060200135611497565b61029e600480360360208110156106a857600080fd5b50356001600160a01b0316611540565b610284600480360360208110156106ce57600080fd5b50356001600160a01b031661155b565b61029e61156d565b610284600480360360408110156106fc57600080fd5b506001600160a01b038135169060200135151561157c565b610284611669565b6102846004803603606081101561073257600080fd5b506001600160a01b038135169060208101351515906040013561166f565b6102e76004803603602081101561076657600080fd5b5035611737565b61034c6004803603602081101561078357600080fd5b50356001600160a01b0316611789565b610284600480360360208110156107a957600080fd5b50356001600160a01b031661179e565b610284600480360360208110156107cf57600080fd5b50356001600160a01b031661189c565b6102e7600480360360208110156107f557600080fd5b50356001600160a01b03166118ae565b6102e76004803603606081101561081b57600080fd5b506001600160a01b038135169060208101351515906040013561191d565b61029e611a60565b6102e76004803603602081101561085757600080fd5b50351515611a6f565b6102e76004803603602081101561087657600080fd5b50351515611ada565b603281565b600a546001600160a01b031681565b61271081565b6000546001600160a01b031681565b6000546001600160a01b031633146108f5576040805162461bcd60e51b81526020600482015260196024820152600080516020611e10833981519152604482015290519081900360640190fd5b600081116109345760405162461bcd60e51b8152600401808060200182810382526029815260200180611d746029913960400191505060405180910390fd5b600255565b6000546001600160a01b03163314610986576040805162461bcd60e51b81526020600482015260196024820152600080516020611e10833981519152604482015290519081900360640190fd5b600355565b6001546000908190600160b01b900460ff166109b1576109ac868686610a5f565b6109bc565b6109bc8686866111e7565b6001600160a01b0387166000908152601060205260409020549091508015610a3f576001600160a01b03871660009081526011602052604090205460ff168015610a2757610a20612710610a1a610a138286611b45565b8690611b9d565b90611bf6565b9250610a3d565b610a3a612710610a1a610a138286611c35565b92505b505b5095945050505050565b600154600160b01b900460ff1681565b60035481565b600080828015610a785750600154600160a01b900460ff165b15610abd576000610a888661179e565b90508015610abb57848015610a9c57508181115b15610aa5578091505b84158015610ab257508181105b15610abb578091505b505b600154600160a81b900460ff1615610ae157610ada858286610c38565b9050610aee565b610aeb8585610e71565b90505b6001600160a01b0385166000908152600f602052604090205460ff1615610bd757600068327cb2734119d3b7a9601e1b8211610b3f57610b3a68327cb2734119d3b7a9601e1b83611c35565b610b55565b610b558268327cb2734119d3b7a9601e1b611c35565b90506003548111610b765768327cb2734119d3b7a9601e1b92505050610c31565b848015610b8e575068327cb2734119d3b7a9601e1b82115b15610b9b57509050610c31565b84158015610bb4575068327cb2734119d3b7a9601e1b82105b15610bc157509050610c31565b68327cb2734119d3b7a9601e1b92505050610c31565b6001600160a01b0385166000908152600e60205260409020548415610c1957610c10612710610a1a610c098285611b45565b8590611b9d565b92505050610c31565b610c2c612710610a1a610c098285611c35565b925050505b9392505050565b6004546000906001600160a01b0316610c52575081610c31565b6004805460408051630ffd9c6d60e31b81526001600160a01b038881169482019490945260248101879052851515604482015290519290911691637fece36891606480820192602092909190829003018186803b158015610cb257600080fd5b505afa158015610cc6573d6000803e3d6000fd5b505050506040513d6020811015610cdc57600080fd5b5051949350505050565b600154600160a81b900460ff1681565b600154600160a01b900460ff1681565b6000546001600160a01b03163314610d53576040805162461bcd60e51b81526020600482015260196024820152600080516020611e10833981519152604482015290519081900360640190fd5b600680546001600160a01b039485166001600160a01b031991821617909155600780549385169382169390931790925560088054919093169116179055565b60106020526000908152604090205481565b6008546001600160a01b031681565b601481565b6000546001600160a01b03163314610e05576040805162461bcd60e51b81526020600482015260196024820152600080516020611e10833981519152604482015290519081900360640190fd5b6001600160a01b039384166000908152600c6020908152604080832080546001600160a01b0319169690971695909517909555600d855283812092909255600f90935220805460ff1916911515919091179055565b6000610e698260006001610c38565b90505b919050565b6000610e7f83600084610c38565b9050611129565b600254816001600160501b031610156110aa57806001600160501b0316826001600160501b031611610eb7576110aa565b60006001600160501b038216610f8c576000856001600160a01b03166350d25bcd6040518163ffffffff1660e01b815260040160206040518083038186803b158015610f0257600080fd5b505afa158015610f16573d6000803e3d6000fd5b505050506040513d6020811015610f2c57600080fd5b5051905060008113610f85576040805162461bcd60e51b815260206004820152601d60248201527f5661756c745072696365466565643a20696e76616c6964207072696365000000604482015290519081900360640190fd5b9050611066565b6000856001600160a01b0316639a6fc8f58486036040518263ffffffff1660e01b815260040180826001600160501b0316815260200191505060a06040518083038186803b158015610fdd57600080fd5b505afa158015610ff1573d6000803e3d6000fd5b505050506040513d60a081101561100757600080fd5b5060200151905060008113611063576040805162461bcd60e51b815260206004820152601d60248201527f5661756c745072696365466565643a20696e76616c6964207072696365000000604482015290519081900360640190fd5b90505b836110725792506110a2565b87801561107e57508381115b1561108a5792506110a2565b8715801561109757508381105b156110a0578093505b505b600101610e86565b50600082116110ea5760405162461bcd60e51b8152600401808060200182810382526025815260200180611d9d6025913960400191505060405180910390fd5b6001600160a01b0387166000908152600d6020526040902054611121600a82900a610a1a8568327cb2734119d3b7a9601e1b611b9d565b955050505050505b92915050565b600154600160b81b900460ff1681565b6000546001600160a01b0316331461118c576040805162461bcd60e51b81526020600482015260196024820152600080516020611e10833981519152604482015290519081900360640190fd5b60018054911515600160b81b0260ff60b81b19909216919091179055565b68327cb2734119d3b7a9601e1b81565b60116020526000908152604090205460ff1681565b60025481565b60126020526000908152604090205481565b6001600160a01b0383166000908152600f6020526040812054819060ff161561121f5768327cb2734119d3b7a9601e1b915050610c31565b8280156112355750600154600160a01b900460ff165b156112485761124585858361166f565b90505b600154600160a81b900460ff161561126c57611265858286610c38565b9050611279565b6112768585610e71565b90505b9050610c31565b6000546001600160a01b031633146112cd576040805162461bcd60e51b81526020600482015260196024820152600080516020611e10833981519152604482015290519081900360640190fd5b600180546001600160a01b0319166001600160a01b0392909216919091179055565b6004546001600160a01b031681565b6007546001600160a01b031681565b6000546001600160a01b0316331461135a576040805162461bcd60e51b81526020600482015260196024820152600080516020611e10833981519152604482015290519081900360640190fd5b600980546001600160a01b039485166001600160a01b031991821617909155600a805493851693821693909317909255600b8054919093169116179055565b600b546001600160a01b031681565b6009546001600160a01b031681565b6000546001600160a01b03163314611404576040805162461bcd60e51b81526020600482015260196024820152600080516020611e10833981519152604482015290519081900360640190fd5b60018054911515600160a01b0260ff60a01b19909216919091179055565b6000546001600160a01b0316331461146f576040805162461bcd60e51b81526020600482015260196024820152600080516020611e10833981519152604482015290519081900360640190fd5b600480546001600160a01b0319166001600160a01b0392909216919091179055565b611c2081565b6000546001600160a01b031633146114e4576040805162461bcd60e51b81526020600482015260196024820152600080516020611e10833981519152604482015290519081900360640190fd5b60328111156115245760405162461bcd60e51b815260040180806020018281038252602a815260200180611e30602a913960400191505060405180910390fd5b6001600160a01b039091166000908152600e6020526040902055565b600c602052600090815260409020546001600160a01b031681565b600e6020526000908152604090205481565b6006546001600160a01b031681565b6000806000846001600160a01b0316630902f1ac6040518163ffffffff1660e01b815260040160606040518083038186803b1580156115ba57600080fd5b505afa1580156115ce573d6000803e3d6000fd5b505050506040513d60608110156115e457600080fd5b5080516020909101516001600160701b0391821693501690508315611636578161161357600092505050611129565b61162d82610a1a8368327cb2734119d3b7a9601e1b611b9d565b92505050611129565b8061164657600092505050611129565b61166081610a1a8468327cb2734119d3b7a9601e1b611b9d565b95945050505050565b60055481565b60008061167b8561179e565b90508061168b5782915050610c31565b60008382116116a35761169e8483611c35565b6116ad565b6116ad8285611c35565b90506116c460055485611b9d90919063ffffffff16565b6116d082612710611b9d565b10156116fa57600154600160b81b900460ff16156116f2578392505050610c31565b509050610c31565b84801561170657508382115b1561171357509050610c31565b8415801561172057508382105b1561172d57509050610c31565b5091949350505050565b6000546001600160a01b03163314611784576040805162461bcd60e51b81526020600482015260196024820152600080516020611e10833981519152604482015290519081900360640190fd5b600555565b600f6020526000908152604090205460ff1681565b6008546000906001600160a01b03838116911614156117d5576009546117ce906001600160a01b0316600161157c565b9050610e6c565b6007546001600160a01b038381169116141561184757600954600090611805906001600160a01b0316600161157c565b600a54909150600090611822906001600160a01b0316600161157c565b905061183e68327cb2734119d3b7a9601e1b610a1a8484611b9d565b92505050610e6c565b6006546001600160a01b038381169116141561189457600954600090611877906001600160a01b0316600161157c565b600b54909150600090611822906001600160a01b0316600161157c565b506000919050565b600d6020526000908152604090205481565b6000546001600160a01b031633146118fb576040805162461bcd60e51b81526020600482015260196024820152600080516020611e10833981519152604482015290519081900360640190fd5b600080546001600160a01b0319166001600160a01b0392909216919091179055565b6000546001600160a01b0316331461196a576040805162461bcd60e51b81526020600482015260196024820152600080516020611e10833981519152604482015290519081900360640190fd5b6001600160a01b038316600090815260126020526040902054429061199190611c20611b45565b106119cd5760405162461bcd60e51b815260040180806020018281038252602d815260200180611de3602d913960400191505060405180910390fd5b6014811115611a1c576040805162461bcd60e51b8152602060048201526016602482015275696e76616c6964205f61646a7573746d656e7442707360501b604482015290519081900360640190fd5b6001600160a01b03929092166000908152601160209081526040808320805460ff191694151594909417909355601081528282209390935560129092529020429055565b6001546001600160a01b031681565b6000546001600160a01b03163314611abc576040805162461bcd60e51b81526020600482015260196024820152600080516020611e10833981519152604482015290519081900360640190fd5b60018054911515600160a81b0260ff60a81b19909216919091179055565b6000546001600160a01b03163314611b27576040805162461bcd60e51b81526020600482015260196024820152600080516020611e10833981519152604482015290519081900360640190fd5b60018054911515600160b01b0260ff60b01b19909216919091179055565b600082820183811015610c31576040805162461bcd60e51b815260206004820152601b60248201527a536166654d6174683a206164646974696f6e206f766572666c6f7760281b604482015290519081900360640190fd5b600082611bac57506000611129565b82820282848281611bb957fe5b0414610c315760405162461bcd60e51b8152600401808060200182810382526021815260200180611dc26021913960400191505060405180910390fd5b6000610c3183836040518060400160405280601a815260200179536166654d6174683a206469766973696f6e206279207a65726f60301b815250611c77565b6000610c3183836040518060400160405280601e81526020017f536166654d6174683a207375627472616374696f6e206f766572666c6f770000815250611d19565b60008183611d035760405162461bcd60e51b81526004018080602001828103825283818151815260200191508051906020019080838360005b83811015611cc8578181015183820152602001611cb0565b50505050905090810190601f168015611cf55780820380516001836020036101000a031916815260200191505b509250505060405180910390fd5b506000838581611d0f57fe5b0495945050505050565b60008184841115611d6b5760405162461bcd60e51b8152602060048201818152835160248401528351909283926044909101919085019080838360008315611cc8578181015183820152602001611cb0565b50505090039056fe5661756c745072696365466565643a20696e76616c6964205f707269636553616d706c6553706163655661756c745072696365466565643a20636f756c64206e6f74206665746368207072696365536166654d6174683a206d756c7469706c69636174696f6e206f766572666c6f775661756c745072696365466565643a2061646a7573746d656e74206672657175656e63792065786365656465645661756c745072696365466565643a20666f7262696464656e000000000000005661756c745072696365466565643a20696e76616c6964205f7370726561644261736973506f696e7473a2646970667358221220bef27ad302f78dfdf90849cd924d7d74fbf404122ec2544df61bbcc3fb7b634064736f6c634300060c0033","linkReferences":{}},"methodIdentifiers":{"BASIS_POINTS_DIVISOR()":"126082cf","MAX_ADJUSTMENT_BASIS_POINTS()":"4a4b1f4f","MAX_ADJUSTMENT_INTERVAL()":"9b18dc47","MAX_SPREAD_BASIS_POINTS()":"0957aed9","ONE_USD()":"67781c0e","PRICE_PRECISION()":"95082d25","adjustmentBasisPoints(address)":"48cac277","bnb()":"49a876e4","bnbBusd()":"97dfade7","btc()":"a28d57d8","btcBnb()":"971bd396","chainlinkFlags()":"e4440e02","eth()":"8c7c9e0c","ethBnb()":"1193c809","favorPrimaryPrice()":"593d9e80","getAmmPrice(address)":"c2138d8c","getAmmPriceV2(address,bool,uint256)":"b02a2de4","getLatestPrimaryPrice(address)":"56bf9de4","getPairPrice(address,bool)":"a2ad7b93","getPrice(address,bool,bool,bool)":"2fc3a70a","getPriceV1(address,bool,bool)":"3d949c5f","getPriceV2(address,bool,bool)":"732391b4","getPrimaryPrice(address,bool)":"56c8c2c1","getSecondaryPrice(address,uint256,bool)":"3eba8d36","gov()":"12d43a51","isAdjustmentAdditive(address)":"6ce8a44b","isAmmEnabled()":"3f0c3bb7","isSecondaryPriceEnabled()":"3ebbc601","lastAdjustmentTimings(address)":"717cfe7a","maxStrictPriceDeviation()":"378e7bf7","priceDecimals(address)":"cefe0f21","priceFeeds(address)":"9dcb511a","priceSampleSpace()":"6fc80708","secondaryPriceFeed()":"8b86616c","setAdjustment(address,bool,uint256)":"d694376c","setChainlinkFlags(address)":"826e055f","setFavorPrimaryPrice(bool)":"604f37e9","setGov(address)":"cfad57a2","setIsAmmEnabled(bool)":"9917dc74","setIsSecondaryPriceEnabled(bool)":"eb1c92a9","setMaxStrictPriceDeviation(uint256)":"2fbfe3d3","setPairs(address,address,address)":"93f69074","setPriceSampleSpace(uint256)":"2fa03b8f","setSecondaryPriceFeed(address)":"9a0a6635","setSpreadBasisPoints(address,uint256)":"9b889380","setSpreadThresholdBasisPoints(uint256)":"b731dd87","setTokenConfig(address,address,uint256,bool)":"4b9ade47","setTokens(address,address,address)":"443be209","setUseV2Pricing(bool)":"fd34ec40","spreadBasisPoints(address)":"a27ea386","spreadThresholdBasisPoints()":"a39c73a3","strictStableTokens(address)":"b8f61105","useV2Pricing()":"30536ee5"},"id":50}