{"abi":[{"type":"constructor","inputs":[],"stateMutability":"nonpayable"},{"type":"function","name":"BASIS_POINTS_DIVISOR","inputs":[],"outputs":[{"name":"","type":"uint256","internalType":"uint256"}],"stateMutability":"view"},{"type":"function","name":"MAX_ADJUSTMENT_BASIS_POINTS","inputs":[],"outputs":[{"name":"","type":"uint256","internalType":"uint256"}],"stateMutability":"view"},{"type":"function","name":"MAX_ADJUSTMENT_INTERVAL","inputs":[],"outputs":[{"name":"","type":"uint256","internalType":"uint256"}],"stateMutability":"view"},{"type":"function","name":"MAX_SPREAD_BASIS_POINTS","inputs":[],"outputs":[{"name":"","type":"uint256","internalType":"uint256"}],"stateMutability":"view"},{"type":"function","name":"ONE_USD","inputs":[],"outputs":[{"name":"","type":"uint256","internalType":"uint256"}],"stateMutability":"view"},{"type":"function","name":"PRICE_PRECISION","inputs":[],"outputs":[{"name":"","type":"uint256","internalType":"uint256"}],"stateMutability":"view"},{"type":"function","name":"acceptGov","inputs":[],"outputs":[],"stateMutability":"nonpayable"},{"type":"function","name":"adjustmentBasisPoints","inputs":[{"name":"","type":"address","internalType":"address"}],"outputs":[{"name":"","type":"uint256","internalType":"uint256"}],"stateMutability":"view"},{"type":"function","name":"bnb","inputs":[],"outputs":[{"name":"","type":"address","internalType":"address"}],"stateMutability":"view"},{"type":"function","name":"bnbBusd","inputs":[],"outputs":[{"name":"","type":"address","internalType":"address"}],"stateMutability":"view"},{"type":"function","name":"btc","inputs":[],"outputs":[{"name":"","type":"address","internalType":"address"}],"stateMutability":"view"},{"type":"function","name":"btcBnb","inputs":[],"outputs":[{"name":"","type":"address","internalType":"address"}],"stateMutability":"view"},{"type":"function","name":"cancelGovProposal","inputs":[{"name":"_gov","type":"address","internalType":"address"}],"outputs":[],"stateMutability":"nonpayable"},{"type":"function","name":"chainlinkFlags","inputs":[],"outputs":[{"name":"","type":"address","internalType":"address"}],"stateMutability":"view"},{"type":"function","name":"eth","inputs":[],"outputs":[{"name":"","type":"address","internalType":"address"}],"stateMutability":"view"},{"type":"function","name":"ethBnb","inputs":[],"outputs":[{"name":"","type":"address","internalType":"address"}],"stateMutability":"view"},{"type":"function","name":"favorPrimaryPrice","inputs":[],"outputs":[{"name":"","type":"bool","internalType":"bool"}],"stateMutability":"view"},{"type":"function","name":"getAmmPrice","inputs":[{"name":"_token","type":"address","internalType":"address"}],"outputs":[{"name":"","type":"uint256","internalType":"uint256"}],"stateMutability":"view"},{"type":"function","name":"getAmmPriceV2","inputs":[{"name":"_token","type":"address","internalType":"address"},{"name":"_maximise","type":"bool","internalType":"bool"},{"name":"_primaryPrice","type":"uint256","internalType":"uint256"}],"outputs":[{"name":"","type":"uint256","internalType":"uint256"}],"stateMutability":"view"},{"type":"function","name":"getLatestPrimaryPrice","inputs":[{"name":"_token","type":"address","internalType":"address"}],"outputs":[{"name":"","type":"uint256","internalType":"uint256"}],"stateMutability":"view"},{"type":"function","name":"getPairPrice","inputs":[{"name":"_pair","type":"address","internalType":"address"},{"name":"_divByReserve0","type":"bool","internalType":"bool"}],"outputs":[{"name":"","type":"uint256","internalType":"uint256"}],"stateMutability":"view"},{"type":"function","name":"getPrice","inputs":[{"name":"_token","type":"address","internalType":"address"},{"name":"_maximise","type":"bool","internalType":"bool"},{"name":"_includeAmmPrice","type":"bool","internalType":"bool"},{"name":"","type":"bool","internalType":"bool"}],"outputs":[{"name":"","type":"uint256","internalType":"uint256"}],"stateMutability":"view"},{"type":"function","name":"getPriceV1","inputs":[{"name":"_token","type":"address","internalType":"address"},{"name":"_maximise","type":"bool","internalType":"bool"},{"name":"_includeAmmPrice","type":"bool","internalType":"bool"}],"outputs":[{"name":"","type":"uint256","internalType":"uint256"}],"stateMutability":"view"},{"type":"function","name":"getPriceV2","inputs":[{"name":"_token","type":"address","internalType":"address"},{"name":"_maximise","type":"bool","internalType":"bool"},{"name":"_includeAmmPrice","type":"bool","internalType":"bool"}],"outputs":[{"name":"","type":"uint256","internalType":"uint256"}],"stateMutability":"view"},{"type":"function","name":"getPrimaryPrice","inputs":[{"name":"_token","type":"address","internalType":"address"},{"name":"_maximise","type":"bool","internalType":"bool"}],"outputs":[{"name":"","type":"uint256","internalType":"uint256"}],"stateMutability":"view"},{"type":"function","name":"getSecondaryPrice","inputs":[{"name":"_token","type":"address","internalType":"address"},{"name":"_referencePrice","type":"uint256","internalType":"uint256"},{"name":"_maximise","type":"bool","internalType":"bool"}],"outputs":[{"name":"","type":"uint256","internalType":"uint256"}],"stateMutability":"view"},{"type":"function","name":"gov","inputs":[],"outputs":[{"name":"","type":"address","internalType":"address"}],"stateMutability":"view"},{"type":"function","name":"govProposals","inputs":[{"name":"","type":"address","internalType":"address"}],"outputs":[{"name":"deadline","type":"uint256","internalType":"uint256"},{"name":"isActive","type":"bool","internalType":"bool"}],"stateMutability":"view"},{"type":"function","name":"isAdjustmentAdditive","inputs":[{"name":"","type":"address","internalType":"address"}],"outputs":[{"name":"","type":"bool","internalType":"bool"}],"stateMutability":"view"},{"type":"function","name":"isAmmEnabled","inputs":[],"outputs":[{"name":"","type":"bool","internalType":"bool"}],"stateMutability":"view"},{"type":"function","name":"isSecondaryPriceEnabled","inputs":[],"outputs":[{"name":"","type":"bool","internalType":"bool"}],"stateMutability":"view"},{"type":"function","name":"lastAdjustmentTimings","inputs":[{"name":"","type":"address","internalType":"address"}],"outputs":[{"name":"","type":"uint256","internalType":"uint256"}],"stateMutability":"view"},{"type":"function","name":"maxStrictPriceDeviation","inputs":[],"outputs":[{"name":"","type":"uint256","internalType":"uint256"}],"stateMutability":"view"},{"type":"function","name":"priceDecimals","inputs":[{"name":"","type":"address","internalType":"address"}],"outputs":[{"name":"","type":"uint256","internalType":"uint256"}],"stateMutability":"view"},{"type":"function","name":"priceFeeds","inputs":[{"name":"","type":"address","internalType":"address"}],"outputs":[{"name":"","type":"address","internalType":"address"}],"stateMutability":"view"},{"type":"function","name":"priceSampleSpace","inputs":[],"outputs":[{"name":"","type":"uint256","internalType":"uint256"}],"stateMutability":"view"},{"type":"function","name":"secondaryPriceFeed","inputs":[],"outputs":[{"name":"","type":"address","internalType":"address"}],"stateMutability":"view"},{"type":"function","name":"setAdjustment","inputs":[{"name":"_token","type":"address","internalType":"address"},{"name":"_isAdditive","type":"bool","internalType":"bool"},{"name":"_adjustmentBps","type":"uint256","internalType":"uint256"}],"outputs":[],"stateMutability":"nonpayable"},{"type":"function","name":"setChainlinkFlags","inputs":[{"name":"_chainlinkFlags","type":"address","internalType":"address"}],"outputs":[],"stateMutability":"nonpayable"},{"type":"function","name":"setFavorPrimaryPrice","inputs":[{"name":"_favorPrimaryPrice","type":"bool","internalType":"bool"}],"outputs":[],"stateMutability":"nonpayable"},{"type":"function","name":"setGov","inputs":[{"name":"_gov","type":"address","internalType":"address"}],"outputs":[],"stateMutability":"nonpayable"},{"type":"function","name":"setGovWithDeadline","inputs":[{"name":"_gov","type":"address","internalType":"address"},{"name":"_deadline","type":"uint256","internalType":"uint256"}],"outputs":[],"stateMutability":"nonpayable"},{"type":"function","name":"setIsAmmEnabled","inputs":[{"name":"_isEnabled","type":"bool","internalType":"bool"}],"outputs":[],"stateMutability":"nonpayable"},{"type":"function","name":"setIsSecondaryPriceEnabled","inputs":[{"name":"_isEnabled","type":"bool","internalType":"bool"}],"outputs":[],"stateMutability":"nonpayable"},{"type":"function","name":"setMaxStrictPriceDeviation","inputs":[{"name":"_maxStrictPriceDeviation","type":"uint256","internalType":"uint256"}],"outputs":[],"stateMutability":"nonpayable"},{"type":"function","name":"setPairs","inputs":[{"name":"_bnbBusd","type":"address","internalType":"address"},{"name":"_ethBnb","type":"address","internalType":"address"},{"name":"_btcBnb","type":"address","internalType":"address"}],"outputs":[],"stateMutability":"nonpayable"},{"type":"function","name":"setPriceSampleSpace","inputs":[{"name":"_priceSampleSpace","type":"uint256","internalType":"uint256"}],"outputs":[],"stateMutability":"nonpayable"},{"type":"function","name":"setSecondaryPriceFeed","inputs":[{"name":"_secondaryPriceFeed","type":"address","internalType":"address"}],"outputs":[],"stateMutability":"nonpayable"},{"type":"function","name":"setSpreadBasisPoints","inputs":[{"name":"_token","type":"address","internalType":"address"},{"name":"_spreadBasisPoints","type":"uint256","internalType":"uint256"}],"outputs":[],"stateMutability":"nonpayable"},{"type":"function","name":"setSpreadThresholdBasisPoints","inputs":[{"name":"_spreadThresholdBasisPoints","type":"uint256","internalType":"uint256"}],"outputs":[],"stateMutability":"nonpayable"},{"type":"function","name":"setTokenConfig","inputs":[{"name":"_token","type":"address","internalType":"address"},{"name":"_priceFeed","type":"address","internalType":"address"},{"name":"_priceDecimals","type":"uint256","internalType":"uint256"},{"name":"_isStrictStable","type":"bool","internalType":"bool"}],"outputs":[],"stateMutability":"nonpayable"},{"type":"function","name":"setTokens","inputs":[{"name":"_btc","type":"address","internalType":"address"},{"name":"_eth","type":"address","internalType":"address"},{"name":"_bnb","type":"address","internalType":"address"}],"outputs":[],"stateMutability":"nonpayable"},{"type":"function","name":"setUseV2Pricing","inputs":[{"name":"_useV2Pricing","type":"bool","internalType":"bool"}],"outputs":[],"stateMutability":"nonpayable"},{"type":"function","name":"spreadBasisPoints","inputs":[{"name":"","type":"address","internalType":"address"}],"outputs":[{"name":"","type":"uint256","internalType":"uint256"}],"stateMutability":"view"},{"type":"function","name":"spreadThresholdBasisPoints","inputs":[],"outputs":[{"name":"","type":"uint256","internalType":"uint256"}],"stateMutability":"view"},{"type":"function","name":"strictStableTokens","inputs":[{"name":"","type":"address","internalType":"address"}],"outputs":[{"name":"","type":"bool","internalType":"bool"}],"stateMutability":"view"},{"type":"function","name":"useV2Pricing","inputs":[],"outputs":[{"name":"","type":"bool","internalType":"bool"}],"stateMutability":"view"},{"type":"event","name":"AdjustmentSet","inputs":[{"name":"token","type":"address","indexed":true,"internalType":"address"},{"name":"isAdditive","type":"bool","indexed":false,"internalType":"bool"},{"name":"adjustmentBps","type":"uint256","indexed":false,"internalType":"uint256"}],"anonymous":false},{"type":"event","name":"ChainlinkFlagsSet","inputs":[{"name":"chainlinkFlags","type":"address","indexed":false,"internalType":"address"}],"anonymous":false},{"type":"event","name":"FavorPrimaryPriceSet","inputs":[{"name":"favorPrimaryPrice","type":"bool","indexed":false,"internalType":"bool"}],"anonymous":false},{"type":"event","name":"GovProposalCanceled","inputs":[{"name":"proposedGov","type":"address","indexed":true,"internalType":"address"},{"name":"canceledBy","type":"address","indexed":true,"internalType":"address"}],"anonymous":false},{"type":"event","name":"GovernanceTransferRequested","inputs":[{"name":"newGov","type":"address","indexed":true,"internalType":"address"},{"name":"deadline","type":"uint256","indexed":false,"internalType":"uint256"}],"anonymous":false},{"type":"event","name":"GovernanceTransferred","inputs":[{"name":"oldGov","type":"address","indexed":true,"internalType":"address"},{"name":"newGov","type":"address","indexed":true,"internalType":"address"}],"anonymous":false},{"type":"event","name":"IsAmmEnabledSet","inputs":[{"name":"isAmmEnabled","type":"bool","indexed":false,"internalType":"bool"}],"anonymous":false},{"type":"event","name":"IsSecondaryPriceEnabledSet","inputs":[{"name":"isSecondaryPriceEnabled","type":"bool","indexed":false,"internalType":"bool"}],"anonymous":false},{"type":"event","name":"MaxStrictPriceDeviationSet","inputs":[{"name":"maxStrictPriceDeviation","type":"uint256","indexed":false,"internalType":"uint256"}],"anonymous":false},{"type":"event","name":"PairsSet","inputs":[{"name":"bnbBusd","type":"address","indexed":false,"internalType":"address"},{"name":"ethBnb","type":"address","indexed":false,"internalType":"address"},{"name":"btcBnb","type":"address","indexed":false,"internalType":"address"}],"anonymous":false},{"type":"event","name":"PriceSampleSpaceSet","inputs":[{"name":"priceSampleSpace","type":"uint256","indexed":false,"internalType":"uint256"}],"anonymous":false},{"type":"event","name":"SecondaryPriceFeedSet","inputs":[{"name":"secondaryPriceFeed","type":"address","indexed":false,"internalType":"address"}],"anonymous":false},{"type":"event","name":"SpreadBasisPointsSet","inputs":[{"name":"token","type":"address","indexed":true,"internalType":"address"},{"name":"spreadBasisPoints","type":"uint256","indexed":false,"internalType":"uint256"}],"anonymous":false},{"type":"event","name":"SpreadThresholdBasisPointsSet","inputs":[{"name":"spreadThresholdBasisPoints","type":"uint256","indexed":false,"internalType":"uint256"}],"anonymous":false},{"type":"event","name":"TokenConfigSet","inputs":[{"name":"token","type":"address","indexed":true,"internalType":"address"},{"name":"priceFeed","type":"address","indexed":false,"internalType":"address"},{"name":"priceDecimals","type":"uint256","indexed":false,"internalType":"uint256"},{"name":"isStrictStable","type":"bool","indexed":false,"internalType":"bool"}],"anonymous":false},{"type":"event","name":"TokensSet","inputs":[{"name":"btc","type":"address","indexed":false,"internalType":"address"},{"name":"eth","type":"address","indexed":false,"internalType":"address"},{"name":"bnb","type":"address","indexed":false,"internalType":"address"}],"anonymous":false},{"type":"event","name":"UseV2PricingSet","inputs":[{"name":"useV2Pricing","type":"bool","indexed":false,"internalType":"bool"}],"anonymous":false}],"bytecode":{"object":"0x60806040526002805461ffff60b01b1960ff60a81b1960ff60a01b19909216600160a01b1791909116600160a81b17169055600380556000600455601e60065534801561004b57600080fd5b50600080546001600160a01b031916331790556129188061006d6000396000f3fe608060405234801561001057600080fd5b50600436106102a35760003560e01c80637bc6729b1161016e5780637bc6729b146105f3578063826e055f146105fb5780638b86616c146106215780638c7c9e0c146106295780638d0fedb01461063157806393f690741461067057806395082d2514610535578063971bd396146106a857806397dfade7146106b05780639917dc74146106b85780639a0a6635146106d75780639b18dc47146106fd5780639b889380146107055780639c35b497146107315780639dcb511a14610757578063a27ea3861461077d578063a28d57d8146107a3578063a2ad7b93146107ab578063a39c73a3146107d9578063b02a2de4146107e1578063b731dd8714610815578063b8f6110514610832578063c2138d8c14610858578063cefe0f211461087e578063cfad57a2146108a4578063d694376c146108ca578063e4440e02146108fe578063eb1c92a914610906578063fd34ec4014610925576102a3565b80630957aed9146102a85780631193c809146102c2578063126082cf146102e657806312d43a51146102ee5780632fa03b8f146102f65780632fbfe3d3146103155780632fc3a70a1461033257806330536ee514610370578063378e7bf71461038c5780633d949c5f146103945780633eba8d36146103ca5780633ebbc601146103fe5780633f0c3bb714610406578063443be2091461040e57806348cac2771461044657806349a876e41461046c5780634a4b1f4f146104745780634b9ade471461047c57806356bf9de4146104ba57806356c8c2c1146104e0578063593d9e801461050e578063604f37e91461051657806367781c0e146105355780636bb22fd71461053d5780636ce8a44b146105695780636fc807081461058f578063717cfe7a14610597578063732391b4146105bd575b600080fd5b6102b0610944565b60408051918252519081900360200190f35b6102ca610949565b604080516001600160a01b039092168252519081900360200190f35b6102b0610958565b6102ca61095e565b6103136004803603602081101561030c57600080fd5b503561096d565b005b6103136004803603602081101561032b57600080fd5b5035610a34565b6102b06004803603608081101561034857600080fd5b506001600160a01b038135169060208101351515906040810135151590606001351515610abc565b610378610b7a565b604080519115158252519081900360200190f35b6102b0610b8a565b6102b0600480360360608110156103aa57600080fd5b506001600160a01b03813516906020810135151590604001351515610b90565b6102b0600480360360608110156103e057600080fd5b506001600160a01b0381351690602081013590604001351515610d69565b610378610e13565b610378610e23565b6103136004803603606081101561042457600080fd5b506001600160a01b038135811691602081013582169160409091013516610e33565b6102b06004803603602081101561045c57600080fd5b50356001600160a01b0316610f02565b6102ca610f14565b6102b0610f23565b6103136004803603608081101561049257600080fd5b506001600160a01b038135811691602081013590911690604081013590606001351515610f28565b6102b0600480360360208110156104d057600080fd5b50356001600160a01b031661100b565b6102b0600480360360408110156104f657600080fd5b506001600160a01b0381351690602001351515611022565b610378611473565b6103136004803603602081101561052c57600080fd5b50351515611483565b6102b0611523565b6103136004803603604081101561055357600080fd5b506001600160a01b038135169060200135611533565b6103786004803603602081101561057f57600080fd5b50356001600160a01b031661164c565b6102b0611661565b6102b0600480360360208110156105ad57600080fd5b50356001600160a01b0316611667565b6102b0600480360360608110156105d357600080fd5b506001600160a01b03813516906020810135151590604001351515611679565b61031361173c565b6103136004803603602081101561061157600080fd5b50356001600160a01b0316611851565b6102ca6118f2565b6102ca611901565b6106576004803603602081101561064757600080fd5b50356001600160a01b0316611910565b6040805192835290151560208301528051918290030190f35b6103136004803603606081101561068657600080fd5b506001600160a01b03813581169160208101358216916040909101351661192c565b6102ca6119fb565b6102ca611a0a565b610313600480360360208110156106ce57600080fd5b50351515611a19565b610313600480360360208110156106ed57600080fd5b50356001600160a01b0316611ab9565b6102b0611b5a565b6103136004803603604081101561071b57600080fd5b506001600160a01b038135169060200135611b60565b6103136004803603602081101561074757600080fd5b50356001600160a01b0316611c41565b6102ca6004803603602081101561076d57600080fd5b50356001600160a01b0316611d3c565b6102b06004803603602081101561079357600080fd5b50356001600160a01b0316611d57565b6102ca611d69565b6102b0600480360360408110156107c157600080fd5b506001600160a01b0381351690602001351515611d78565b6102b0611e65565b6102b0600480360360608110156107f757600080fd5b506001600160a01b0381351690602081013515159060400135611e6b565b6103136004803603602081101561082b57600080fd5b5035611f33565b6103786004803603602081101561084857600080fd5b50356001600160a01b0316611fbb565b6102b06004803603602081101561086e57600080fd5b50356001600160a01b0316611fd0565b6102b06004803603602081101561089457600080fd5b50356001600160a01b03166120ce565b610313600480360360208110156108ba57600080fd5b50356001600160a01b03166120e0565b610313600480360360608110156108e057600080fd5b506001600160a01b03813516906020810135151590604001356121fa565b6102ca612374565b6103136004803603602081101561091c57600080fd5b50351515612383565b6103136004803603602081101561093b57600080fd5b50351515612423565b603281565b600b546001600160a01b031681565b61271081565b6000546001600160a01b031681565b6000546001600160a01b031633146109ba576040805162461bcd60e51b81526020600482015260196024820152600080516020612852833981519152604482015290519081900360640190fd5b600081116109f95760405162461bcd60e51b81526004018080602001828103825260298152602001806127906029913960400191505060405180910390fd5b60038190556040805182815290517f7c3b6b2aeda3be777e04c904d4e0b74adffb856717e9640c7b3b350e44f912d99181900360200190a150565b6000546001600160a01b03163314610a81576040805162461bcd60e51b81526020600482015260196024820152600080516020612852833981519152604482015290519081900360640190fd5b60048190556040805182815290517fc622b838ebb1e83abaaa922ed48b5c0114ca368393ffcbd0fee10942607e62129181900360200190a150565b6002546000908190600160b01b900460ff16610ae257610add868686610b90565b610aed565b610aed868686611679565b6001600160a01b0387166000908152601160205260409020549091508015610b70576001600160a01b03871660009081526012602052604090205460ff168015610b5857610b51612710610b4b610b4482866124c3565b869061251b565b90612574565b9250610b6e565b610b6b612710610b4b610b4482866125b3565b92505b505b5095945050505050565b600254600160b01b900460ff1681565b60045481565b600080828015610ba95750600254600160a01b900460ff165b15610bee576000610bb986611fd0565b90508015610bec57848015610bcd57508181115b15610bd6578091505b84158015610be357508181105b15610bec578091505b505b600254600160a81b900460ff1615610c1257610c0b858286610d69565b9050610c1f565b610c1c8585611022565b90505b6001600160a01b03851660009081526010602052604090205460ff1615610d0857600068327cb2734119d3b7a9601e1b8211610c7057610c6b68327cb2734119d3b7a9601e1b836125b3565b610c86565b610c868268327cb2734119d3b7a9601e1b6125b3565b90506004548111610ca75768327cb2734119d3b7a9601e1b92505050610d62565b848015610cbf575068327cb2734119d3b7a9601e1b82115b15610ccc57509050610d62565b84158015610ce5575068327cb2734119d3b7a9601e1b82105b15610cf257509050610d62565b68327cb2734119d3b7a9601e1b92505050610d62565b6001600160a01b0385166000908152600f60205260409020548415610d4a57610d41612710610b4b610d3a82856124c3565b859061251b565b92505050610d62565b610d5d612710610b4b610d3a82856125b3565b925050505b9392505050565b6005546000906001600160a01b0316610d83575081610d62565b60055460408051630ffd9c6d60e31b81526001600160a01b03878116600483015260248201879052851515604483015291519190921691637fece368916064808301926020929190829003018186803b158015610ddf57600080fd5b505afa158015610df3573d6000803e3d6000fd5b505050506040513d6020811015610e0957600080fd5b5051949350505050565b600254600160a81b900460ff1681565b600254600160a01b900460ff1681565b6000546001600160a01b03163314610e80576040805162461bcd60e51b81526020600482015260196024820152600080516020612852833981519152604482015290519081900360640190fd5b600780546001600160a01b038086166001600160a01b031992831681179093556008805486831690841681179091556009805492861692909316821790925560408051938452602084019290925282820152517f5b298d21a3f20895e495bf3dcb889649b4381249a094782f2c49e9f5d015b9c59181900360600190a1505050565b60116020526000908152604090205481565b6009546001600160a01b031681565b601481565b6000546001600160a01b03163314610f75576040805162461bcd60e51b81526020600482015260196024820152600080516020612852833981519152604482015290519081900360640190fd5b6001600160a01b038085166000818152600d6020908152604080832080549589166001600160a01b031990961686179055600e82528083208790556010825291829020805486151560ff1990911681179091558251948552908401869052838201525190917f9b45dfaa6db47d0d20f6193401c13eb6b614412ccadfff13f6c0aee88c72d194919081900360600190a250505050565b600061101a8260006001610d69565b90505b919050565b6001600160a01b038083166000908152600d60205260408120549091168061107b5760405162461bcd60e51b81526004018080602001828103825260228152602001806128c16022913960400191505060405180910390fd5b6002546001600160a01b0316156111585760025460408051631abf23ff60e11b815273a438451d6458044c3c8cd2f6f31c91ac882a6d91600482015290516000926001600160a01b03169163357e47fe916024808301926020929190829003018186803b1580156110eb57600080fd5b505afa1580156110ff573d6000803e3d6000fd5b505050506040513d602081101561111557600080fd5b5051905080156111565760405162461bcd60e51b81526004018080602001828103825260258152602001806128726025913960400191505060405180910390fd5b505b6000819050600080826001600160a01b031663668a0f026040518163ffffffff1660e01b815260040160206040518083038186803b15801561119957600080fd5b505afa1580156111ad573d6000803e3d6000fd5b505050506040513d60208110156111c357600080fd5b5051905060005b600354816001600160501b031610156113ee57806001600160501b0316826001600160501b0316116111fb576113ee565b60006001600160501b0382166112d0576000856001600160a01b03166350d25bcd6040518163ffffffff1660e01b815260040160206040518083038186803b15801561124657600080fd5b505afa15801561125a573d6000803e3d6000fd5b505050506040513d602081101561127057600080fd5b50519050600081136112c9576040805162461bcd60e51b815260206004820152601d60248201527f5661756c745072696365466565643a20696e76616c6964207072696365000000604482015290519081900360640190fd5b90506113aa565b6000856001600160a01b0316639a6fc8f58486036040518263ffffffff1660e01b815260040180826001600160501b0316815260200191505060a06040518083038186803b15801561132157600080fd5b505afa158015611335573d6000803e3d6000fd5b505050506040513d60a081101561134b57600080fd5b50602001519050600081136113a7576040805162461bcd60e51b815260206004820152601d60248201527f5661756c745072696365466565643a20696e76616c6964207072696365000000604482015290519081900360640190fd5b90505b836113b65792506113e6565b8780156113c257508381115b156113ce5792506113e6565b871580156113db57508381105b156113e4578093505b505b6001016111ca565b506000821161142e5760405162461bcd60e51b81526004018080602001828103825260258152602001806127b96025913960400191505060405180910390fd5b6001600160a01b0387166000908152600e6020526040902054611465600a82900a610b4b8568327cb2734119d3b7a9601e1b61251b565b955050505050505b92915050565b600254600160b81b900460ff1681565b6000546001600160a01b031633146114d0576040805162461bcd60e51b81526020600482015260196024820152600080516020612852833981519152604482015290519081900360640190fd5b60028054821515600160b81b810260ff60b81b199092169190911790915560408051918252517fad53b87b1562ba42c00c3e7447a8eb4c42aff68c15e15a38c3c13c51225eb37f9181900360200190a150565b68327cb2734119d3b7a9601e1b81565b6000546001600160a01b03163314611580576040805162461bcd60e51b81526020600482015260196024820152600080516020612852833981519152604482015290519081900360640190fd5b6001600160a01b0382166115db576040805162461bcd60e51b815260206004820152601f60248201527f5661756c745072696365466565643a20696e76616c6964206164647265737300604482015290519081900360640190fd5b6000546001600160a01b038381169116141561163e576040805162461bcd60e51b815260206004820152601f60248201527f5661756c745072696365466565643a2073616d6520676f7665726e616e636500604482015290519081900360640190fd5b61164882826125f5565b5050565b60126020526000908152604090205460ff1681565b60035481565b60136020526000908152604090205481565b6001600160a01b038316600090815260106020526040812054819060ff16156116b15768327cb2734119d3b7a9601e1b915050610d62565b8280156116c75750600254600160a01b900460ff165b156116da576116d7858583611e6b565b90505b600254600160a81b900460ff16156116fe576116f7858286610d69565b9050610d08565b6117088585611022565b90506001600160a01b0385166000908152600f60205260409020548415610d4a57610d41612710610b4b610d3a82856124c3565b336000908152600160205260409020805442106117a0576040805162461bcd60e51b815260206004820181905260248201527f5661756c745072696365466565643a20646561646c696e652065787069726564604482015290519081900360640190fd5b60018082015460ff161515146117e75760405162461bcd60e51b81526004018080602001828103825260268152602001806127ff6026913960400191505060405180910390fd5b6000805433808352600160208190526040808520858155909101805460ff1916905583546001600160a01b03191682178455516001600160a01b0390921692909183917f5f56bee8cffbe9a78652a74a60705edede02af10b0bbb888ca44b79a0d42ce8091a35050565b6000546001600160a01b0316331461189e576040805162461bcd60e51b81526020600482015260196024820152600080516020612852833981519152604482015290519081900360640190fd5b600280546001600160a01b0383166001600160a01b0319909116811790915560408051918252517f7f08e61a275056726c79a2055aad393ddfb85587ddbbb7acd3da0703539cde639181900360200190a150565b6005546001600160a01b031681565b6008546001600160a01b031681565b6001602081905260009182526040909120805491015460ff1682565b6000546001600160a01b03163314611979576040805162461bcd60e51b81526020600482015260196024820152600080516020612852833981519152604482015290519081900360640190fd5b600a80546001600160a01b038086166001600160a01b03199283168117909355600b80548683169084168117909155600c805492861692909316821790925560408051938452602084019290925282820152517fde7694cd70a3de149db47d6708c6707f47eb1e6f041b1185343d1cf5e7f01f219181900360600190a1505050565b600c546001600160a01b031681565b600a546001600160a01b031681565b6000546001600160a01b03163314611a66576040805162461bcd60e51b81526020600482015260196024820152600080516020612852833981519152604482015290519081900360640190fd5b60028054821515600160a01b810260ff60a01b199092169190911790915560408051918252517feb0ff249f7c02dc13f8a9c79d80e7122f10529a829a22324e9275b45b49ed3099181900360200190a150565b6000546001600160a01b03163314611b06576040805162461bcd60e51b81526020600482015260196024820152600080516020612852833981519152604482015290519081900360640190fd5b600580546001600160a01b0383166001600160a01b0319909116811790915560408051918252517ff8b4ad4d125a153fcb80a1961d19e8ba76d652260935cb6637229ec8dee00ded9181900360200190a150565b611c2081565b6000546001600160a01b03163314611bad576040805162461bcd60e51b81526020600482015260196024820152600080516020612852833981519152604482015290519081900360640190fd5b6032811115611bed5760405162461bcd60e51b815260040180806020018281038252602a815260200180612897602a913960400191505060405180910390fd5b6001600160a01b0382166000818152600f6020908152604091829020849055815184815291517f1530ca33788267029c537a78b003f2498e88d8be14ce5cabb35c29fcf949501e9281900390910190a25050565b6000546001600160a01b03163314611c8e576040805162461bcd60e51b81526020600482015260196024820152600080516020612852833981519152604482015290519081900360640190fd5b6001600160a01b0381166000908152600160208190526040909120015460ff16611ce95760405162461bcd60e51b815260040180806020018281038252602381526020018061276d6023913960400191505060405180910390fd5b6001600160a01b0381166000818152600160208190526040808320838155909101805460ff19169055513392917ffc6a2fa53abe2adfe8372a9495032d7e6458d3aed34fa880132b6c808da1e99c91a350565b600d602052600090815260409020546001600160a01b031681565b600f6020526000908152604090205481565b6007546001600160a01b031681565b6000806000846001600160a01b0316630902f1ac6040518163ffffffff1660e01b815260040160606040518083038186803b158015611db657600080fd5b505afa158015611dca573d6000803e3d6000fd5b505050506040513d6060811015611de057600080fd5b5080516020909101516001600160701b0391821693501690508315611e325781611e0f5760009250505061146d565b611e2982610b4b8368327cb2734119d3b7a9601e1b61251b565b9250505061146d565b80611e425760009250505061146d565b611e5c81610b4b8468327cb2734119d3b7a9601e1b61251b565b95945050505050565b60065481565b600080611e7785611fd0565b905080611e875782915050610d62565b6000838211611e9f57611e9a84836125b3565b611ea9565b611ea982856125b3565b9050611ec06006548561251b90919063ffffffff16565b611ecc8261271061251b565b1015611ef657600254600160b81b900460ff1615611eee578392505050610d62565b509050610d62565b848015611f0257508382115b15611f0f57509050610d62565b84158015611f1c57508382105b15611f2957509050610d62565b5091949350505050565b6000546001600160a01b03163314611f80576040805162461bcd60e51b81526020600482015260196024820152600080516020612852833981519152604482015290519081900360640190fd5b60068190556040805182815290517f7374029f100d0540bc8e95addcdd38c503a1c4ff8a5963aca62dadff8e0a73899181900360200190a150565b60106020526000908152604090205460ff1681565b6009546000906001600160a01b038381169116141561200757600a54612000906001600160a01b03166001611d78565b905061101d565b6008546001600160a01b038381169116141561207957600a54600090612037906001600160a01b03166001611d78565b600b54909150600090612054906001600160a01b03166001611d78565b905061207068327cb2734119d3b7a9601e1b610b4b848461251b565b9250505061101d565b6007546001600160a01b03838116911614156120c657600a546000906120a9906001600160a01b03166001611d78565b600c54909150600090612054906001600160a01b03166001611d78565b506000919050565b600e6020526000908152604090205481565b6000546001600160a01b0316331461212d576040805162461bcd60e51b81526020600482015260196024820152600080516020612852833981519152604482015290519081900360640190fd5b6001600160a01b038116612188576040805162461bcd60e51b815260206004820152601f60248201527f5661756c745072696365466565643a20696e76616c6964206164647265737300604482015290519081900360640190fd5b6000546001600160a01b03828116911614156121eb576040805162461bcd60e51b815260206004820152601f60248201527f5661756c745072696365466565643a2073616d6520676f7665726e616e636500604482015290519081900360640190fd5b6121f7816000196125f5565b50565b6000546001600160a01b03163314612247576040805162461bcd60e51b81526020600482015260196024820152600080516020612852833981519152604482015290519081900360640190fd5b6001600160a01b038316600090815260136020526040902054429061226e90611c206124c3565b106122aa5760405162461bcd60e51b815260040180806020018281038252602d815260200180612825602d913960400191505060405180910390fd5b60148111156122f9576040805162461bcd60e51b8152602060048201526016602482015275696e76616c6964205f61646a7573746d656e7442707360501b604482015290519081900360640190fd5b6001600160a01b0383166000818152601260209081526040808320805460ff1916871515908117909155601183528184208690556013835292819020429055805192835290820184905280517fa8cdd95341505a1c08a6ffb6ddfd232c030a1a6292040e7bbd3cfdb47221d71a9281900390910190a2505050565b6002546001600160a01b031681565b6000546001600160a01b031633146123d0576040805162461bcd60e51b81526020600482015260196024820152600080516020612852833981519152604482015290519081900360640190fd5b60028054821515600160a81b810260ff60a81b199092169190911790915560408051918252517f6b9a20adadaedeb0de5f2d17babb5306845bb43449084a6349bb9fbe5c956f2c9181900360200190a150565b6000546001600160a01b03163314612470576040805162461bcd60e51b81526020600482015260196024820152600080516020612852833981519152604482015290519081900360640190fd5b60028054821515600160b01b810260ff60b01b199092169190911790915560408051918252517f728bd952e85b583806a115d509fbbeba520f1404c7a659f539c6dc3fba8fd54c9181900360200190a150565b600082820183811015610d62576040805162461bcd60e51b815260206004820152601b60248201527a536166654d6174683a206164646974696f6e206f766572666c6f7760281b604482015290519081900360640190fd5b60008261252a5750600061146d565b8282028284828161253757fe5b0414610d625760405162461bcd60e51b81526004018080602001828103825260218152602001806127de6021913960400191505060405180910390fd5b6000610d6283836040518060400160405280601a815260200179536166654d6174683a206469766973696f6e206279207a65726f60301b815250612670565b6000610d6283836040518060400160405280601e81526020017f536166654d6174683a207375627472616374696f6e206f766572666c6f770000815250612712565b604080518082018252828152600160208083018281526001600160a01b038716600081815284845286902094518555905193909201805460ff1916931515939093179092558251848152925190927f02dd0697be46e764c3ba81094158781c31b235d03bb27a0daf1bdef0ec1084dd92908290030190a25050565b600081836126fc5760405162461bcd60e51b81526004018080602001828103825283818151815260200191508051906020019080838360005b838110156126c15781810151838201526020016126a9565b50505050905090810190601f1680156126ee5780820380516001836020036101000a031916815260200191505b509250505060405180910390fd5b50600083858161270857fe5b0495945050505050565b600081848411156127645760405162461bcd60e51b81526020600482018181528351602484015283519092839260449091019190850190808383600083156126c15781810151838201526020016126a9565b50505090039056fe5661756c745072696365466565643a2070726f706f73616c206e6f74206163746976655661756c745072696365466565643a20696e76616c6964205f707269636553616d706c6553706163655661756c745072696365466565643a20636f756c64206e6f74206665746368207072696365536166654d6174683a206d756c7469706c69636174696f6e206f766572666c6f775661756c745072696365466565643a2070726f706f73616c206973206e6f74206163746976655661756c745072696365466565643a2061646a7573746d656e74206672657175656e63792065786365656465645661756c745072696365466565643a20666f7262696464656e00000000000000436861696e6c696e6b20666565647320617265206e6f74206265696e6720757064617465645661756c745072696365466565643a20696e76616c6964205f7370726561644261736973506f696e74735661756c745072696365466565643a20696e76616c69642070726963652066656564a2646970667358221220d5c5ad9fe71a9d8ac7872f39d5dce4774918087b6057d0467540ae0fa834d47664736f6c634300060c0033","linkReferences":{}},"methodIdentifiers":{"BASIS_POINTS_DIVISOR()":"126082cf","MAX_ADJUSTMENT_BASIS_POINTS()":"4a4b1f4f","MAX_ADJUSTMENT_INTERVAL()":"9b18dc47","MAX_SPREAD_BASIS_POINTS()":"0957aed9","ONE_USD()":"67781c0e","PRICE_PRECISION()":"95082d25","acceptGov()":"7bc6729b","adjustmentBasisPoints(address)":"48cac277","bnb()":"49a876e4","bnbBusd()":"97dfade7","btc()":"a28d57d8","btcBnb()":"971bd396","cancelGovProposal(address)":"9c35b497","chainlinkFlags()":"e4440e02","eth()":"8c7c9e0c","ethBnb()":"1193c809","favorPrimaryPrice()":"593d9e80","getAmmPrice(address)":"c2138d8c","getAmmPriceV2(address,bool,uint256)":"b02a2de4","getLatestPrimaryPrice(address)":"56bf9de4","getPairPrice(address,bool)":"a2ad7b93","getPrice(address,bool,bool,bool)":"2fc3a70a","getPriceV1(address,bool,bool)":"3d949c5f","getPriceV2(address,bool,bool)":"732391b4","getPrimaryPrice(address,bool)":"56c8c2c1","getSecondaryPrice(address,uint256,bool)":"3eba8d36","gov()":"12d43a51","govProposals(address)":"8d0fedb0","isAdjustmentAdditive(address)":"6ce8a44b","isAmmEnabled()":"3f0c3bb7","isSecondaryPriceEnabled()":"3ebbc601","lastAdjustmentTimings(address)":"717cfe7a","maxStrictPriceDeviation()":"378e7bf7","priceDecimals(address)":"cefe0f21","priceFeeds(address)":"9dcb511a","priceSampleSpace()":"6fc80708","secondaryPriceFeed()":"8b86616c","setAdjustment(address,bool,uint256)":"d694376c","setChainlinkFlags(address)":"826e055f","setFavorPrimaryPrice(bool)":"604f37e9","setGov(address)":"cfad57a2","setGovWithDeadline(address,uint256)":"6bb22fd7","setIsAmmEnabled(bool)":"9917dc74","setIsSecondaryPriceEnabled(bool)":"eb1c92a9","setMaxStrictPriceDeviation(uint256)":"2fbfe3d3","setPairs(address,address,address)":"93f69074","setPriceSampleSpace(uint256)":"2fa03b8f","setSecondaryPriceFeed(address)":"9a0a6635","setSpreadBasisPoints(address,uint256)":"9b889380","setSpreadThresholdBasisPoints(uint256)":"b731dd87","setTokenConfig(address,address,uint256,bool)":"4b9ade47","setTokens(address,address,address)":"443be209","setUseV2Pricing(bool)":"fd34ec40","spreadBasisPoints(address)":"a27ea386","spreadThresholdBasisPoints()":"a39c73a3","strictStableTokens(address)":"b8f61105","useV2Pricing()":"30536ee5"},"id":43}