{"abi":[{"type":"constructor","inputs":[],"stateMutability":"nonpayable"},{"type":"function","name":"BASIS_POINTS_DIVISOR","inputs":[],"outputs":[{"name":"","type":"uint256","internalType":"uint256"}],"stateMutability":"view"},{"type":"function","name":"MAX_ADJUSTMENT_BASIS_POINTS","inputs":[],"outputs":[{"name":"","type":"uint256","internalType":"uint256"}],"stateMutability":"view"},{"type":"function","name":"MAX_ADJUSTMENT_INTERVAL","inputs":[],"outputs":[{"name":"","type":"uint256","internalType":"uint256"}],"stateMutability":"view"},{"type":"function","name":"MAX_SPREAD_BASIS_POINTS","inputs":[],"outputs":[{"name":"","type":"uint256","internalType":"uint256"}],"stateMutability":"view"},{"type":"function","name":"ONE_USD","inputs":[],"outputs":[{"name":"","type":"uint256","internalType":"uint256"}],"stateMutability":"view"},{"type":"function","name":"PRICE_PRECISION","inputs":[],"outputs":[{"name":"","type":"uint256","internalType":"uint256"}],"stateMutability":"view"},{"type":"function","name":"acceptGov","inputs":[],"outputs":[],"stateMutability":"nonpayable"},{"type":"function","name":"adjustmentBasisPoints","inputs":[{"name":"","type":"address","internalType":"address"}],"outputs":[{"name":"","type":"uint256","internalType":"uint256"}],"stateMutability":"view"},{"type":"function","name":"bnb","inputs":[],"outputs":[{"name":"","type":"address","internalType":"address"}],"stateMutability":"view"},{"type":"function","name":"bnbBusd","inputs":[],"outputs":[{"name":"","type":"address","internalType":"address"}],"stateMutability":"view"},{"type":"function","name":"btc","inputs":[],"outputs":[{"name":"","type":"address","internalType":"address"}],"stateMutability":"view"},{"type":"function","name":"btcBnb","inputs":[],"outputs":[{"name":"","type":"address","internalType":"address"}],"stateMutability":"view"},{"type":"function","name":"cancelGovProposal","inputs":[{"name":"_gov","type":"address","internalType":"address"}],"outputs":[],"stateMutability":"nonpayable"},{"type":"function","name":"chainlinkFlags","inputs":[],"outputs":[{"name":"","type":"address","internalType":"address"}],"stateMutability":"view"},{"type":"function","name":"eth","inputs":[],"outputs":[{"name":"","type":"address","internalType":"address"}],"stateMutability":"view"},{"type":"function","name":"ethBnb","inputs":[],"outputs":[{"name":"","type":"address","internalType":"address"}],"stateMutability":"view"},{"type":"function","name":"favorPrimaryPrice","inputs":[],"outputs":[{"name":"","type":"bool","internalType":"bool"}],"stateMutability":"view"},{"type":"function","name":"getAmmPrice","inputs":[{"name":"_token","type":"address","internalType":"address"}],"outputs":[{"name":"","type":"uint256","internalType":"uint256"}],"stateMutability":"view"},{"type":"function","name":"getAmmPriceV2","inputs":[{"name":"_token","type":"address","internalType":"address"},{"name":"_maximise","type":"bool","internalType":"bool"},{"name":"_primaryPrice","type":"uint256","internalType":"uint256"}],"outputs":[{"name":"","type":"uint256","internalType":"uint256"}],"stateMutability":"view"},{"type":"function","name":"getLatestPrimaryPrice","inputs":[{"name":"_token","type":"address","internalType":"address"}],"outputs":[{"name":"","type":"uint256","internalType":"uint256"}],"stateMutability":"view"},{"type":"function","name":"getPairPrice","inputs":[{"name":"_pair","type":"address","internalType":"address"},{"name":"_divByReserve0","type":"bool","internalType":"bool"}],"outputs":[{"name":"","type":"uint256","internalType":"uint256"}],"stateMutability":"view"},{"type":"function","name":"getPrice","inputs":[{"name":"_token","type":"address","internalType":"address"},{"name":"_maximise","type":"bool","internalType":"bool"},{"name":"_includeAmmPrice","type":"bool","internalType":"bool"},{"name":"","type":"bool","internalType":"bool"}],"outputs":[{"name":"","type":"uint256","internalType":"uint256"}],"stateMutability":"view"},{"type":"function","name":"getPriceV1","inputs":[{"name":"_token","type":"address","internalType":"address"},{"name":"_maximise","type":"bool","internalType":"bool"},{"name":"_includeAmmPrice","type":"bool","internalType":"bool"}],"outputs":[{"name":"","type":"uint256","internalType":"uint256"}],"stateMutability":"view"},{"type":"function","name":"getPriceV2","inputs":[{"name":"_token","type":"address","internalType":"address"},{"name":"_maximise","type":"bool","internalType":"bool"},{"name":"_includeAmmPrice","type":"bool","internalType":"bool"}],"outputs":[{"name":"","type":"uint256","internalType":"uint256"}],"stateMutability":"view"},{"type":"function","name":"getPrimaryPrice","inputs":[{"name":"_token","type":"address","internalType":"address"},{"name":"_maximise","type":"bool","internalType":"bool"}],"outputs":[{"name":"","type":"uint256","internalType":"uint256"}],"stateMutability":"view"},{"type":"function","name":"getSecondaryPrice","inputs":[{"name":"_token","type":"address","internalType":"address"},{"name":"_referencePrice","type":"uint256","internalType":"uint256"},{"name":"_maximise","type":"bool","internalType":"bool"}],"outputs":[{"name":"","type":"uint256","internalType":"uint256"}],"stateMutability":"view"},{"type":"function","name":"gov","inputs":[],"outputs":[{"name":"","type":"address","internalType":"address"}],"stateMutability":"view"},{"type":"function","name":"govProposals","inputs":[{"name":"","type":"address","internalType":"address"}],"outputs":[{"name":"deadline","type":"uint256","internalType":"uint256"},{"name":"isActive","type":"bool","internalType":"bool"}],"stateMutability":"view"},{"type":"function","name":"isAdjustmentAdditive","inputs":[{"name":"","type":"address","internalType":"address"}],"outputs":[{"name":"","type":"bool","internalType":"bool"}],"stateMutability":"view"},{"type":"function","name":"isAmmEnabled","inputs":[],"outputs":[{"name":"","type":"bool","internalType":"bool"}],"stateMutability":"view"},{"type":"function","name":"isSecondaryPriceEnabled","inputs":[],"outputs":[{"name":"","type":"bool","internalType":"bool"}],"stateMutability":"view"},{"type":"function","name":"lastAdjustmentTimings","inputs":[{"name":"","type":"address","internalType":"address"}],"outputs":[{"name":"","type":"uint256","internalType":"uint256"}],"stateMutability":"view"},{"type":"function","name":"maxStrictPriceDeviation","inputs":[],"outputs":[{"name":"","type":"uint256","internalType":"uint256"}],"stateMutability":"view"},{"type":"function","name":"priceDecimals","inputs":[{"name":"","type":"address","internalType":"address"}],"outputs":[{"name":"","type":"uint256","internalType":"uint256"}],"stateMutability":"view"},{"type":"function","name":"priceFeeds","inputs":[{"name":"","type":"address","internalType":"address"}],"outputs":[{"name":"","type":"address","internalType":"address"}],"stateMutability":"view"},{"type":"function","name":"priceSampleSpace","inputs":[],"outputs":[{"name":"","type":"uint256","internalType":"uint256"}],"stateMutability":"view"},{"type":"function","name":"secondaryPriceFeed","inputs":[],"outputs":[{"name":"","type":"address","internalType":"address"}],"stateMutability":"view"},{"type":"function","name":"setAdjustment","inputs":[{"name":"_token","type":"address","internalType":"address"},{"name":"_isAdditive","type":"bool","internalType":"bool"},{"name":"_adjustmentBps","type":"uint256","internalType":"uint256"}],"outputs":[],"stateMutability":"nonpayable"},{"type":"function","name":"setChainlinkFlags","inputs":[{"name":"_chainlinkFlags","type":"address","internalType":"address"}],"outputs":[],"stateMutability":"nonpayable"},{"type":"function","name":"setFavorPrimaryPrice","inputs":[{"name":"_favorPrimaryPrice","type":"bool","internalType":"bool"}],"outputs":[],"stateMutability":"nonpayable"},{"type":"function","name":"setGov","inputs":[{"name":"_gov","type":"address","internalType":"address"}],"outputs":[],"stateMutability":"nonpayable"},{"type":"function","name":"setGovWithDeadline","inputs":[{"name":"_gov","type":"address","internalType":"address"},{"name":"_deadline","type":"uint256","internalType":"uint256"}],"outputs":[],"stateMutability":"nonpayable"},{"type":"function","name":"setIsAmmEnabled","inputs":[{"name":"_isEnabled","type":"bool","internalType":"bool"}],"outputs":[],"stateMutability":"nonpayable"},{"type":"function","name":"setIsSecondaryPriceEnabled","inputs":[{"name":"_isEnabled","type":"bool","internalType":"bool"}],"outputs":[],"stateMutability":"nonpayable"},{"type":"function","name":"setMaxStrictPriceDeviation","inputs":[{"name":"_maxStrictPriceDeviation","type":"uint256","internalType":"uint256"}],"outputs":[],"stateMutability":"nonpayable"},{"type":"function","name":"setPairs","inputs":[{"name":"_bnbBusd","type":"address","internalType":"address"},{"name":"_ethBnb","type":"address","internalType":"address"},{"name":"_btcBnb","type":"address","internalType":"address"}],"outputs":[],"stateMutability":"nonpayable"},{"type":"function","name":"setPriceSampleSpace","inputs":[{"name":"_priceSampleSpace","type":"uint256","internalType":"uint256"}],"outputs":[],"stateMutability":"nonpayable"},{"type":"function","name":"setSecondaryPriceFeed","inputs":[{"name":"_secondaryPriceFeed","type":"address","internalType":"address"}],"outputs":[],"stateMutability":"nonpayable"},{"type":"function","name":"setSpreadBasisPoints","inputs":[{"name":"_token","type":"address","internalType":"address"},{"name":"_spreadBasisPoints","type":"uint256","internalType":"uint256"}],"outputs":[],"stateMutability":"nonpayable"},{"type":"function","name":"setSpreadThresholdBasisPoints","inputs":[{"name":"_spreadThresholdBasisPoints","type":"uint256","internalType":"uint256"}],"outputs":[],"stateMutability":"nonpayable"},{"type":"function","name":"setTokenConfig","inputs":[{"name":"_token","type":"address","internalType":"address"},{"name":"_priceFeed","type":"address","internalType":"address"},{"name":"_priceDecimals","type":"uint256","internalType":"uint256"},{"name":"_isStrictStable","type":"bool","internalType":"bool"}],"outputs":[],"stateMutability":"nonpayable"},{"type":"function","name":"setTokens","inputs":[{"name":"_btc","type":"address","internalType":"address"},{"name":"_eth","type":"address","internalType":"address"},{"name":"_bnb","type":"address","internalType":"address"}],"outputs":[],"stateMutability":"nonpayable"},{"type":"function","name":"setUseV2Pricing","inputs":[{"name":"_useV2Pricing","type":"bool","internalType":"bool"}],"outputs":[],"stateMutability":"nonpayable"},{"type":"function","name":"spreadBasisPoints","inputs":[{"name":"","type":"address","internalType":"address"}],"outputs":[{"name":"","type":"uint256","internalType":"uint256"}],"stateMutability":"view"},{"type":"function","name":"spreadThresholdBasisPoints","inputs":[],"outputs":[{"name":"","type":"uint256","internalType":"uint256"}],"stateMutability":"view"},{"type":"function","name":"strictStableTokens","inputs":[{"name":"","type":"address","internalType":"address"}],"outputs":[{"name":"","type":"bool","internalType":"bool"}],"stateMutability":"view"},{"type":"function","name":"useV2Pricing","inputs":[],"outputs":[{"name":"","type":"bool","internalType":"bool"}],"stateMutability":"view"},{"type":"event","name":"GovernanceTransferRequested","inputs":[{"name":"newGov","type":"address","indexed":true,"internalType":"address"},{"name":"deadline","type":"uint256","indexed":false,"internalType":"uint256"}],"anonymous":false},{"type":"event","name":"GovernanceTransferred","inputs":[{"name":"oldGov","type":"address","indexed":true,"internalType":"address"},{"name":"newGov","type":"address","indexed":true,"internalType":"address"}],"anonymous":false}],"bytecode":{"object":"0x60806040526002805461ffff60b01b1960ff60a81b1960ff60a01b19909216600160a01b1791909116600160a81b17169055600380556000600455601e60065534801561004b57600080fd5b50600080546001600160a01b031916331790556123d88061006d6000396000f3fe608060405234801561001057600080fd5b50600436106102a35760003560e01c80637bc6729b1161016e5780637bc6729b146105f3578063826e055f146105fb5780638b86616c146106215780638c7c9e0c146106295780638d0fedb01461063157806393f690741461067057806395082d2514610535578063971bd396146106a857806397dfade7146106b05780639917dc74146106b85780639a0a6635146106d75780639b18dc47146106fd5780639b889380146107055780639c35b497146107315780639dcb511a14610757578063a27ea3861461077d578063a28d57d8146107a3578063a2ad7b93146107ab578063a39c73a3146107d9578063b02a2de4146107e1578063b731dd8714610815578063b8f6110514610832578063c2138d8c14610858578063cefe0f211461087e578063cfad57a2146108a4578063d694376c146108ca578063e4440e02146108fe578063eb1c92a914610906578063fd34ec4014610925576102a3565b80630957aed9146102a85780631193c809146102c2578063126082cf146102e657806312d43a51146102ee5780632fa03b8f146102f65780632fbfe3d3146103155780632fc3a70a1461033257806330536ee514610370578063378e7bf71461038c5780633d949c5f146103945780633eba8d36146103ca5780633ebbc601146103fe5780633f0c3bb714610406578063443be2091461040e57806348cac2771461044657806349a876e41461046c5780634a4b1f4f146104745780634b9ade471461047c57806356bf9de4146104ba57806356c8c2c1146104e0578063593d9e801461050e578063604f37e91461051657806367781c0e146105355780636bb22fd71461053d5780636ce8a44b146105695780636fc807081461058f578063717cfe7a14610597578063732391b4146105bd575b600080fd5b6102b0610944565b60408051918252519081900360200190f35b6102ca610949565b604080516001600160a01b039092168252519081900360200190f35b6102b0610958565b6102ca61095e565b6103136004803603602081101561030c57600080fd5b503561096d565b005b6103136004803603602081101561032b57600080fd5b50356109fe565b6102b06004803603608081101561034857600080fd5b506001600160a01b038135169060208101351515906040810135151590606001351515610a50565b610378610b0e565b604080519115158252519081900360200190f35b6102b0610b1e565b6102b0600480360360608110156103aa57600080fd5b506001600160a01b03813516906020810135151590604001351515610b24565b6102b0600480360360608110156103e057600080fd5b506001600160a01b0381351690602081013590604001351515610cfd565b610378610da7565b610378610db7565b6103136004803603606081101561042457600080fd5b506001600160a01b038135811691602081013582169160409091013516610dc7565b6102b06004803603602081101561045c57600080fd5b50356001600160a01b0316610e53565b6102ca610e65565b6102b0610e74565b6103136004803603608081101561049257600080fd5b506001600160a01b038135811691602081013590911690604081013590606001351515610e79565b6102b0600480360360208110156104d057600080fd5b50356001600160a01b0316610f1b565b6102b0600480360360408110156104f657600080fd5b506001600160a01b0381351690602001351515610f32565b6103786111f0565b6103136004803603602081101561052c57600080fd5b50351515611200565b6102b061126b565b6103136004803603604081101561055357600080fd5b506001600160a01b03813516906020013561127b565b6103786004803603602081101561057f57600080fd5b50356001600160a01b0316611394565b6102b06113a9565b6102b0600480360360208110156105ad57600080fd5b50356001600160a01b03166113af565b6102b0600480360360608110156105d357600080fd5b506001600160a01b038135169060208101351515906040013515156113c1565b61031361145a565b6103136004803603602081101561061157600080fd5b50356001600160a01b031661156f565b6102ca6115de565b6102ca6115ed565b6106576004803603602081101561064757600080fd5b50356001600160a01b03166115fc565b6040805192835290151560208301528051918290030190f35b6103136004803603606081101561068657600080fd5b506001600160a01b038135811691602081013582169160409091013516611618565b6102ca6116a4565b6102ca6116b3565b610313600480360360208110156106ce57600080fd5b503515156116c2565b610313600480360360208110156106ed57600080fd5b50356001600160a01b031661172d565b6102b061179c565b6103136004803603604081101561071b57600080fd5b506001600160a01b0381351690602001356117a2565b6103136004803603602081101561074757600080fd5b50356001600160a01b031661184b565b6102ca6004803603602081101561076d57600080fd5b50356001600160a01b031661191a565b6102b06004803603602081101561079357600080fd5b50356001600160a01b0316611935565b6102ca611947565b6102b0600480360360408110156107c157600080fd5b506001600160a01b0381351690602001351515611956565b6102b0611a43565b6102b0600480360360608110156107f757600080fd5b506001600160a01b0381351690602081013515159060400135611a49565b6103136004803603602081101561082b57600080fd5b5035611b11565b6103786004803603602081101561084857600080fd5b50356001600160a01b0316611b63565b6102b06004803603602081101561086e57600080fd5b50356001600160a01b0316611b78565b6102b06004803603602081101561089457600080fd5b50356001600160a01b0316611c76565b610313600480360360208110156108ba57600080fd5b50356001600160a01b0316611c88565b610313600480360360608110156108e057600080fd5b506001600160a01b0381351690602081013515159060400135611da2565b6102ca611ee5565b6103136004803603602081101561091c57600080fd5b50351515611ef4565b6103136004803603602081101561093b57600080fd5b50351515611f5f565b603281565b600b546001600160a01b031681565b61271081565b6000546001600160a01b031681565b6000546001600160a01b031633146109ba576040805162461bcd60e51b81526020600482015260196024820152600080516020612359833981519152604482015290519081900360640190fd5b600081116109f95760405162461bcd60e51b81526004018080602001828103825260298152602001806122976029913960400191505060405180910390fd5b600355565b6000546001600160a01b03163314610a4b576040805162461bcd60e51b81526020600482015260196024820152600080516020612359833981519152604482015290519081900360640190fd5b600455565b6002546000908190600160b01b900460ff16610a7657610a71868686610b24565b610a81565b610a818686866113c1565b6001600160a01b0387166000908152601160205260409020549091508015610b04576001600160a01b03871660009081526012602052604090205460ff168015610aec57610ae5612710610adf610ad88286611fca565b8690612022565b9061207b565b9250610b02565b610aff612710610adf610ad882866120ba565b92505b505b5095945050505050565b600254600160b01b900460ff1681565b60045481565b600080828015610b3d5750600254600160a01b900460ff165b15610b82576000610b4d86611b78565b90508015610b8057848015610b6157508181115b15610b6a578091505b84158015610b7757508181105b15610b80578091505b505b600254600160a81b900460ff1615610ba657610b9f858286610cfd565b9050610bb3565b610bb08585610f32565b90505b6001600160a01b03851660009081526010602052604090205460ff1615610c9c57600068327cb2734119d3b7a9601e1b8211610c0457610bff68327cb2734119d3b7a9601e1b836120ba565b610c1a565b610c1a8268327cb2734119d3b7a9601e1b6120ba565b90506004548111610c3b5768327cb2734119d3b7a9601e1b92505050610cf6565b848015610c53575068327cb2734119d3b7a9601e1b82115b15610c6057509050610cf6565b84158015610c79575068327cb2734119d3b7a9601e1b82105b15610c8657509050610cf6565b68327cb2734119d3b7a9601e1b92505050610cf6565b6001600160a01b0385166000908152600f60205260409020548415610cde57610cd5612710610adf610cce8285611fca565b8590612022565b92505050610cf6565b610cf1612710610adf610cce82856120ba565b925050505b9392505050565b6005546000906001600160a01b0316610d17575081610cf6565b60055460408051630ffd9c6d60e31b81526001600160a01b03878116600483015260248201879052851515604483015291519190921691637fece368916064808301926020929190829003018186803b158015610d7357600080fd5b505afa158015610d87573d6000803e3d6000fd5b505050506040513d6020811015610d9d57600080fd5b5051949350505050565b600254600160a81b900460ff1681565b600254600160a01b900460ff1681565b6000546001600160a01b03163314610e14576040805162461bcd60e51b81526020600482015260196024820152600080516020612359833981519152604482015290519081900360640190fd5b600780546001600160a01b039485166001600160a01b031991821617909155600880549385169382169390931790925560098054919093169116179055565b60116020526000908152604090205481565b6009546001600160a01b031681565b601481565b6000546001600160a01b03163314610ec6576040805162461bcd60e51b81526020600482015260196024820152600080516020612359833981519152604482015290519081900360640190fd5b6001600160a01b039384166000908152600d6020908152604080832080546001600160a01b0319169690971695909517909555600e855283812092909255601090935220805460ff1916911515919091179055565b6000610f2a8260006001610cfd565b90505b919050565b6000610f4083600084610cfd565b90506111ea565b600354816001600160501b0316101561116b57806001600160501b0316826001600160501b031611610f785761116b565b60006001600160501b03821661104d576000856001600160a01b03166350d25bcd6040518163ffffffff1660e01b815260040160206040518083038186803b158015610fc357600080fd5b505afa158015610fd7573d6000803e3d6000fd5b505050506040513d6020811015610fed57600080fd5b5051905060008113611046576040805162461bcd60e51b815260206004820152601d60248201527f5661756c745072696365466565643a20696e76616c6964207072696365000000604482015290519081900360640190fd5b9050611127565b6000856001600160a01b0316639a6fc8f58486036040518263ffffffff1660e01b815260040180826001600160501b0316815260200191505060a06040518083038186803b15801561109e57600080fd5b505afa1580156110b2573d6000803e3d6000fd5b505050506040513d60a08110156110c857600080fd5b5060200151905060008113611124576040805162461bcd60e51b815260206004820152601d60248201527f5661756c745072696365466565643a20696e76616c6964207072696365000000604482015290519081900360640190fd5b90505b83611133579250611163565b87801561113f57508381115b1561114b579250611163565b8715801561115857508381105b15611161578093505b505b600101610f47565b50600082116111ab5760405162461bcd60e51b81526004018080602001828103825260258152602001806122c06025913960400191505060405180910390fd5b6001600160a01b0387166000908152600e60205260409020546111e2600a82900a610adf8568327cb2734119d3b7a9601e1b612022565b955050505050505b92915050565b600254600160b81b900460ff1681565b6000546001600160a01b0316331461124d576040805162461bcd60e51b81526020600482015260196024820152600080516020612359833981519152604482015290519081900360640190fd5b60028054911515600160b81b0260ff60b81b19909216919091179055565b68327cb2734119d3b7a9601e1b81565b6000546001600160a01b031633146112c8576040805162461bcd60e51b81526020600482015260196024820152600080516020612359833981519152604482015290519081900360640190fd5b6001600160a01b038216611323576040805162461bcd60e51b815260206004820152601f60248201527f5661756c745072696365466565643a20696e76616c6964206164647265737300604482015290519081900360640190fd5b6000546001600160a01b0383811691161415611386576040805162461bcd60e51b815260206004820152601f60248201527f5661756c745072696365466565643a2073616d6520676f7665726e616e636500604482015290519081900360640190fd5b61139082826120fc565b5050565b60126020526000908152604090205460ff1681565b60035481565b60136020526000908152604090205481565b6001600160a01b038316600090815260106020526040812054819060ff16156113f95768327cb2734119d3b7a9601e1b915050610cf6565b82801561140f5750600254600160a01b900460ff165b156114225761141f858583611a49565b90505b600254600160a81b900460ff16156114465761143f858286610cfd565b9050611453565b6114508585610f32565b90505b9050610cf6565b336000908152600160205260409020805442106114be576040805162461bcd60e51b815260206004820181905260248201527f5661756c745072696365466565643a20646561646c696e652065787069726564604482015290519081900360640190fd5b60018082015460ff161515146115055760405162461bcd60e51b81526004018080602001828103825260268152602001806123066026913960400191505060405180910390fd5b6000805433808352600160208190526040808520858155909101805460ff1916905583546001600160a01b03191682178455516001600160a01b0390921692909183917f5f56bee8cffbe9a78652a74a60705edede02af10b0bbb888ca44b79a0d42ce8091a35050565b6000546001600160a01b031633146115bc576040805162461bcd60e51b81526020600482015260196024820152600080516020612359833981519152604482015290519081900360640190fd5b600280546001600160a01b0319166001600160a01b0392909216919091179055565b6005546001600160a01b031681565b6008546001600160a01b031681565b6001602081905260009182526040909120805491015460ff1682565b6000546001600160a01b03163314611665576040805162461bcd60e51b81526020600482015260196024820152600080516020612359833981519152604482015290519081900360640190fd5b600a80546001600160a01b039485166001600160a01b031991821617909155600b805493851693821693909317909255600c8054919093169116179055565b600c546001600160a01b031681565b600a546001600160a01b031681565b6000546001600160a01b0316331461170f576040805162461bcd60e51b81526020600482015260196024820152600080516020612359833981519152604482015290519081900360640190fd5b60028054911515600160a01b0260ff60a01b19909216919091179055565b6000546001600160a01b0316331461177a576040805162461bcd60e51b81526020600482015260196024820152600080516020612359833981519152604482015290519081900360640190fd5b600580546001600160a01b0319166001600160a01b0392909216919091179055565b611c2081565b6000546001600160a01b031633146117ef576040805162461bcd60e51b81526020600482015260196024820152600080516020612359833981519152604482015290519081900360640190fd5b603281111561182f5760405162461bcd60e51b815260040180806020018281038252602a815260200180612379602a913960400191505060405180910390fd5b6001600160a01b039091166000908152600f6020526040902055565b6000546001600160a01b03163314611898576040805162461bcd60e51b81526020600482015260196024820152600080516020612359833981519152604482015290519081900360640190fd5b6001600160a01b0381166000908152600160208190526040909120015460ff166118f35760405162461bcd60e51b81526004018080602001828103825260238152602001806122746023913960400191505060405180910390fd5b6001600160a01b03166000908152600160208190526040822091825501805460ff19169055565b600d602052600090815260409020546001600160a01b031681565b600f6020526000908152604090205481565b6007546001600160a01b031681565b6000806000846001600160a01b0316630902f1ac6040518163ffffffff1660e01b815260040160606040518083038186803b15801561199457600080fd5b505afa1580156119a8573d6000803e3d6000fd5b505050506040513d60608110156119be57600080fd5b5080516020909101516001600160701b0391821693501690508315611a1057816119ed576000925050506111ea565b611a0782610adf8368327cb2734119d3b7a9601e1b612022565b925050506111ea565b80611a20576000925050506111ea565b611a3a81610adf8468327cb2734119d3b7a9601e1b612022565b95945050505050565b60065481565b600080611a5585611b78565b905080611a655782915050610cf6565b6000838211611a7d57611a7884836120ba565b611a87565b611a8782856120ba565b9050611a9e6006548561202290919063ffffffff16565b611aaa82612710612022565b1015611ad457600254600160b81b900460ff1615611acc578392505050610cf6565b509050610cf6565b848015611ae057508382115b15611aed57509050610cf6565b84158015611afa57508382105b15611b0757509050610cf6565b5091949350505050565b6000546001600160a01b03163314611b5e576040805162461bcd60e51b81526020600482015260196024820152600080516020612359833981519152604482015290519081900360640190fd5b600655565b60106020526000908152604090205460ff1681565b6009546000906001600160a01b0383811691161415611baf57600a54611ba8906001600160a01b03166001611956565b9050610f2d565b6008546001600160a01b0383811691161415611c2157600a54600090611bdf906001600160a01b03166001611956565b600b54909150600090611bfc906001600160a01b03166001611956565b9050611c1868327cb2734119d3b7a9601e1b610adf8484612022565b92505050610f2d565b6007546001600160a01b0383811691161415611c6e57600a54600090611c51906001600160a01b03166001611956565b600c54909150600090611bfc906001600160a01b03166001611956565b506000919050565b600e6020526000908152604090205481565b6000546001600160a01b03163314611cd5576040805162461bcd60e51b81526020600482015260196024820152600080516020612359833981519152604482015290519081900360640190fd5b6001600160a01b038116611d30576040805162461bcd60e51b815260206004820152601f60248201527f5661756c745072696365466565643a20696e76616c6964206164647265737300604482015290519081900360640190fd5b6000546001600160a01b0382811691161415611d93576040805162461bcd60e51b815260206004820152601f60248201527f5661756c745072696365466565643a2073616d6520676f7665726e616e636500604482015290519081900360640190fd5b611d9f816000196120fc565b50565b6000546001600160a01b03163314611def576040805162461bcd60e51b81526020600482015260196024820152600080516020612359833981519152604482015290519081900360640190fd5b6001600160a01b0383166000908152601360205260409020544290611e1690611c20611fca565b10611e525760405162461bcd60e51b815260040180806020018281038252602d81526020018061232c602d913960400191505060405180910390fd5b6014811115611ea1576040805162461bcd60e51b8152602060048201526016602482015275696e76616c6964205f61646a7573746d656e7442707360501b604482015290519081900360640190fd5b6001600160a01b03929092166000908152601260209081526040808320805460ff191694151594909417909355601181528282209390935560139092529020429055565b6002546001600160a01b031681565b6000546001600160a01b03163314611f41576040805162461bcd60e51b81526020600482015260196024820152600080516020612359833981519152604482015290519081900360640190fd5b60028054911515600160a81b0260ff60a81b19909216919091179055565b6000546001600160a01b03163314611fac576040805162461bcd60e51b81526020600482015260196024820152600080516020612359833981519152604482015290519081900360640190fd5b60028054911515600160b01b0260ff60b01b19909216919091179055565b600082820183811015610cf6576040805162461bcd60e51b815260206004820152601b60248201527a536166654d6174683a206164646974696f6e206f766572666c6f7760281b604482015290519081900360640190fd5b600082612031575060006111ea565b8282028284828161203e57fe5b0414610cf65760405162461bcd60e51b81526004018080602001828103825260218152602001806122e56021913960400191505060405180910390fd5b6000610cf683836040518060400160405280601a815260200179536166654d6174683a206469766973696f6e206279207a65726f60301b815250612177565b6000610cf683836040518060400160405280601e81526020017f536166654d6174683a207375627472616374696f6e206f766572666c6f770000815250612219565b604080518082018252828152600160208083018281526001600160a01b038716600081815284845286902094518555905193909201805460ff1916931515939093179092558251848152925190927f02dd0697be46e764c3ba81094158781c31b235d03bb27a0daf1bdef0ec1084dd92908290030190a25050565b600081836122035760405162461bcd60e51b81526004018080602001828103825283818151815260200191508051906020019080838360005b838110156121c85781810151838201526020016121b0565b50505050905090810190601f1680156121f55780820380516001836020036101000a031916815260200191505b509250505060405180910390fd5b50600083858161220f57fe5b0495945050505050565b6000818484111561226b5760405162461bcd60e51b81526020600482018181528351602484015283519092839260449091019190850190808383600083156121c85781810151838201526020016121b0565b50505090039056fe5661756c745072696365466565643a2070726f706f73616c206e6f74206163746976655661756c745072696365466565643a20696e76616c6964205f707269636553616d706c6553706163655661756c745072696365466565643a20636f756c64206e6f74206665746368207072696365536166654d6174683a206d756c7469706c69636174696f6e206f766572666c6f775661756c745072696365466565643a2070726f706f73616c206973206e6f74206163746976655661756c745072696365466565643a2061646a7573746d656e74206672657175656e63792065786365656465645661756c745072696365466565643a20666f7262696464656e000000000000005661756c745072696365466565643a20696e76616c6964205f7370726561644261736973506f696e7473a2646970667358221220252b37d7ceecf79b4a8ee671cc1f0ea7ebe5bf724a07b2c5fac1cdd79fb6a42a64736f6c634300060c0033","linkReferences":{}},"methodIdentifiers":{"BASIS_POINTS_DIVISOR()":"126082cf","MAX_ADJUSTMENT_BASIS_POINTS()":"4a4b1f4f","MAX_ADJUSTMENT_INTERVAL()":"9b18dc47","MAX_SPREAD_BASIS_POINTS()":"0957aed9","ONE_USD()":"67781c0e","PRICE_PRECISION()":"95082d25","acceptGov()":"7bc6729b","adjustmentBasisPoints(address)":"48cac277","bnb()":"49a876e4","bnbBusd()":"97dfade7","btc()":"a28d57d8","btcBnb()":"971bd396","cancelGovProposal(address)":"9c35b497","chainlinkFlags()":"e4440e02","eth()":"8c7c9e0c","ethBnb()":"1193c809","favorPrimaryPrice()":"593d9e80","getAmmPrice(address)":"c2138d8c","getAmmPriceV2(address,bool,uint256)":"b02a2de4","getLatestPrimaryPrice(address)":"56bf9de4","getPairPrice(address,bool)":"a2ad7b93","getPrice(address,bool,bool,bool)":"2fc3a70a","getPriceV1(address,bool,bool)":"3d949c5f","getPriceV2(address,bool,bool)":"732391b4","getPrimaryPrice(address,bool)":"56c8c2c1","getSecondaryPrice(address,uint256,bool)":"3eba8d36","gov()":"12d43a51","govProposals(address)":"8d0fedb0","isAdjustmentAdditive(address)":"6ce8a44b","isAmmEnabled()":"3f0c3bb7","isSecondaryPriceEnabled()":"3ebbc601","lastAdjustmentTimings(address)":"717cfe7a","maxStrictPriceDeviation()":"378e7bf7","priceDecimals(address)":"cefe0f21","priceFeeds(address)":"9dcb511a","priceSampleSpace()":"6fc80708","secondaryPriceFeed()":"8b86616c","setAdjustment(address,bool,uint256)":"d694376c","setChainlinkFlags(address)":"826e055f","setFavorPrimaryPrice(bool)":"604f37e9","setGov(address)":"cfad57a2","setGovWithDeadline(address,uint256)":"6bb22fd7","setIsAmmEnabled(bool)":"9917dc74","setIsSecondaryPriceEnabled(bool)":"eb1c92a9","setMaxStrictPriceDeviation(uint256)":"2fbfe3d3","setPairs(address,address,address)":"93f69074","setPriceSampleSpace(uint256)":"2fa03b8f","setSecondaryPriceFeed(address)":"9a0a6635","setSpreadBasisPoints(address,uint256)":"9b889380","setSpreadThresholdBasisPoints(uint256)":"b731dd87","setTokenConfig(address,address,uint256,bool)":"4b9ade47","setTokens(address,address,address)":"443be209","setUseV2Pricing(bool)":"fd34ec40","spreadBasisPoints(address)":"a27ea386","spreadThresholdBasisPoints()":"a39c73a3","strictStableTokens(address)":"b8f61105","useV2Pricing()":"30536ee5"},"id":43}