{"abi":[{"type":"constructor","inputs":[{"name":"_syrup","type":"address","internalType":"contract IERC20"},{"name":"_rewardPerBlock","type":"uint256","internalType":"uint256"},{"name":"_startBlock","type":"uint256","internalType":"uint256"},{"name":"_endBlock","type":"uint256","internalType":"uint256"}],"stateMutability":"nonpayable"},{"type":"function","name":"addressLength","inputs":[],"outputs":[{"name":"","type":"uint256","internalType":"uint256"}],"stateMutability":"view"},{"type":"function","name":"addressList","inputs":[{"name":"","type":"uint256","internalType":"uint256"}],"outputs":[{"name":"","type":"address","internalType":"address"}],"stateMutability":"view"},{"type":"function","name":"bonusEndBlock","inputs":[],"outputs":[{"name":"","type":"uint256","internalType":"uint256"}],"stateMutability":"view"},{"type":"function","name":"deposit","inputs":[{"name":"_amount","type":"uint256","internalType":"uint256"}],"outputs":[],"stateMutability":"nonpayable"},{"type":"function","name":"emergencyWithdraw","inputs":[],"outputs":[],"stateMutability":"nonpayable"},{"type":"function","name":"pendingReward","inputs":[{"name":"_user","type":"address","internalType":"address"}],"outputs":[{"name":"","type":"uint256","internalType":"uint256"}],"stateMutability":"view"},{"type":"function","name":"poolInfo","inputs":[],"outputs":[{"name":"lastRewardBlock","type":"uint256","internalType":"uint256"},{"name":"accRewardPerShare","type":"uint256","internalType":"uint256"}],"stateMutability":"view"},{"type":"function","name":"rewardPerBlock","inputs":[],"outputs":[{"name":"","type":"uint256","internalType":"uint256"}],"stateMutability":"view"},{"type":"function","name":"startBlock","inputs":[],"outputs":[{"name":"","type":"uint256","internalType":"uint256"}],"stateMutability":"view"},{"type":"function","name":"syrup","inputs":[],"outputs":[{"name":"","type":"address","internalType":"contract IERC20"}],"stateMutability":"view"},{"type":"function","name":"updatePool","inputs":[],"outputs":[],"stateMutability":"nonpayable"},{"type":"function","name":"userInfo","inputs":[{"name":"","type":"address","internalType":"address"}],"outputs":[{"name":"amount","type":"uint256","internalType":"uint256"},{"name":"rewardDebt","type":"uint256","internalType":"uint256"},{"name":"rewardPending","type":"uint256","internalType":"uint256"}],"stateMutability":"view"},{"type":"function","name":"withdraw","inputs":[{"name":"_amount","type":"uint256","internalType":"uint256"}],"outputs":[],"stateMutability":"nonpayable"},{"type":"event","name":"Deposit","inputs":[{"name":"user","type":"address","indexed":true,"internalType":"address"},{"name":"amount","type":"uint256","indexed":false,"internalType":"uint256"}],"anonymous":false},{"type":"event","name":"EmergencyWithdraw","inputs":[{"name":"user","type":"address","indexed":true,"internalType":"address"},{"name":"amount","type":"uint256","indexed":false,"internalType":"uint256"}],"anonymous":false},{"type":"event","name":"Withdraw","inputs":[{"name":"user","type":"address","indexed":true,"internalType":"address"},{"name":"amount","type":"uint256","indexed":false,"internalType":"uint256"}],"anonymous":false}],"bytecode":{"object":"0x608060405234801561001057600080fd5b50604051610ef1380380610ef18339818101604052608081101561003357600080fd5b508051602080830151604080850151606090950151600080546001600160a01b039096166001600160a01b03199096169590951785556001929092556006859055600791909155805180820190915283815201819052600291909155600355610e50806100a16000396000f3fe608060405234801561001057600080fd5b50600436106100af5760003560e01c80631959a002146100b45780631aed6553146100f85780632e1a7d4d1461011257806348cd4cb1146101315780635a2f3d091461013957806386a952c41461015a5780638ae39cac1461017e578063b6b55f2514610186578063b810fb43146101a3578063db2e21bc146101c0578063dc881888146101c8578063e3161ddd146101d0578063f40f0f52146101d8575b600080fd5b6100da600480360360208110156100ca57600080fd5b50356001600160a01b03166101fe565b60408051938452602084019290925282820152519081900360600190f35b61010061021f565b60408051918252519081900360200190f35b61012f6004803603602081101561012857600080fd5b5035610225565b005b610100610392565b610141610398565b6040805192835260208301919091528051918290030190f35b6101626103a1565b604080516001600160a01b039092168252519081900360200190f35b6101006103b0565b61012f6004803603602081101561019c57600080fd5b50356103b6565b610162600480360360208110156101b957600080fd5b503561052c565b61012f610553565b6101006105c8565b61012f6105ce565b610100600480360360208110156101ee57600080fd5b50356001600160a01b03166106bd565b60046020526000908152604090208054600182015460029092015490919083565b60075481565b60008111610265576040805162461bcd60e51b81526020600482015260086024820152670616d6f756e7420360c41b604482015290519081900360640190fd5b33600090815260046020526040902080548211156102c1576040805162461bcd60e51b81526020600482015260146024820152730eed2e8d0c8e4c2ee7440dcdee840cadcdeeaced60631b604482015290519081900360640190fd5b6102c96105ce565b6000546102e0906001600160a01b031633846107ef565b6103278160020154610321836001015461031b64e8d4a51000610315600260010154886000015461084690919063ffffffff16565b906108a8565b906108e7565b90610929565b6002820155805461033890836108e7565b8082556003546103539164e8d4a51000916103159190610846565b600182015560408051838152905133917f884edad9ce6fa2440d8a54cc123490eb96d2768479d49ff9c7366125a9424364919081900360200190a25050565b60065481565b60025460035482565b6000546001600160a01b031681565b60015481565b600081116103f6576040805162461bcd60e51b81526020600482015260086024820152670616d6f756e7420360c41b604482015290519081900360640190fd5b33600090815260046020526040902061040d6105ce565b600054610425906001600160a01b0316333085610981565b805415801561043657506002810154155b801561044457506001810154155b1561048c57600580546001810182556000919091527f036b6384b5eca791c62761152d0c79bb0604c104a5fb6f4eb0703f3154bb3db00180546001600160a01b031916331790555b6104c18160020154610321836001015461031b64e8d4a51000610315600260010154886000015461084690919063ffffffff16565b600282015580546104d29083610929565b8082556003546104ed9164e8d4a51000916103159190610846565b600182015560408051838152905133917fe1fffcc4923d04b559f4d29a8bfc6cda04eb5b0d3c460751c2402c5c5cc9109c919081900360200190a25050565b6005818154811061053957fe5b6000918252602090912001546001600160a01b0316905081565b33600081815260046020526040812080549154909261057d926001600160a01b03909216916107ef565b8054604080519182525133917f5fafa99d0643513820be26656b45130b01e1c03062e1266bf36f88cbd3bd9695919081900360200190a2600080825560018201819055600290910155565b60055490565b60025443116105dc576106bb565b60008054604080516370a0823160e01b815230600482015290516001600160a01b03909216916370a0823191602480820192602092909190829003018186803b15801561062857600080fd5b505afa15801561063c573d6000803e3d6000fd5b505050506040513d602081101561065257600080fd5b50519050806106655750436002556106bb565b6000610676600260000154436109e1565b9050600061068f6001548361084690919063ffffffff16565b90506106b06106a7846103158464e8d4a51000610846565b60035490610929565b600355505043600255505b565b6001600160a01b038082166000908152600460208181526040808420600354855483516370a0823160e01b8152309681019690965292519596600296929591948894909116926370a08231926024808201939291829003018186803b15801561072557600080fd5b505afa158015610739573d6000803e3d6000fd5b505050506040513d602081101561074f57600080fd5b505184549091504311801561076357508015155b156107b55760006107788560000154436109e1565b905060006107916001548361084690919063ffffffff16565b90506107b06107a9846103158464e8d4a51000610846565b8590610929565b935050505b6107e58360020154610321856001015461031b64e8d4a51000610315888a6000015461084690919063ffffffff16565b9695505050505050565b604080516001600160a01b038416602482015260448082018490528251808303909101815260649091019091526020810180516001600160e01b031663a9059cbb60e01b179052610841908490610a1b565b505050565b600082610855575060006108a2565b8282028284828161086257fe5b041461089f5760405162461bcd60e51b8152600401808060200182810382526021815260200180610dd06021913960400191505060405180910390fd5b90505b92915050565b600061089f83836040518060400160405280601a815260200179536166654d6174683a206469766973696f6e206279207a65726f60301b815250610acc565b600061089f83836040518060400160405280601e81526020017f536166654d6174683a207375627472616374696f6e206f766572666c6f770000815250610b70565b60008282018381101561089f576040805162461bcd60e51b815260206004820152601b60248201527a536166654d6174683a206164646974696f6e206f766572666c6f7760281b604482015290519081900360640190fd5b604080516001600160a01b0380861660248301528416604482015260648082018490528251808303909101815260849091019091526020810180516001600160e01b03166323b872dd60e01b1790526109db908590610a1b565b50505050565b600060075482116109fd576109f682846108e7565b90506108a2565b6007548310610a0e575060006108a2565b6007546109f690846108e7565b6060610a70826040518060400160405280602081526020017f5361666545524332303a206c6f772d6c6576656c2063616c6c206661696c6564815250856001600160a01b0316610bca9092919063ffffffff16565b80519091501561084157808060200190516020811015610a8f57600080fd5b50516108415760405162461bcd60e51b815260040180806020018281038252602a815260200180610df1602a913960400191505060405180910390fd5b60008183610b585760405162461bcd60e51b81526004018080602001828103825283818151815260200191508051906020019080838360005b83811015610b1d578181015183820152602001610b05565b50505050905090810190601f168015610b4a5780820380516001836020036101000a031916815260200191505b509250505060405180910390fd5b506000838581610b6457fe5b049150505b9392505050565b60008184841115610bc25760405162461bcd60e51b8152602060048201818152835160248401528351909283926044909101919085019080838360008315610b1d578181015183820152602001610b05565b505050900390565b6060610bd98484600085610be1565b949350505050565b606082471015610c225760405162461bcd60e51b8152600401808060200182810382526026815260200180610daa6026913960400191505060405180910390fd5b610c2b85610d3d565b610c7c576040805162461bcd60e51b815260206004820152601d60248201527f416464726573733a2063616c6c20746f206e6f6e2d636f6e7472616374000000604482015290519081900360640190fd5b60006060866001600160a01b031685876040518082805190602001908083835b60208310610cbb5780518252601f199092019160209182019101610c9c565b6001836020036101000a03801982511681845116808217855250505050505090500191505060006040518083038185875af1925050503d8060008114610d1d576040519150601f19603f3d011682016040523d82523d6000602084013e610d22565b606091505b5091509150610d32828286610d43565b979650505050505050565b3b151590565b60608315610d52575081610b69565b825115610d625782518084602001fd5b60405162461bcd60e51b8152602060048201818152845160248401528451859391928392604401919085019080838360008315610b1d578181015183820152602001610b0556fe416464726573733a20696e73756666696369656e742062616c616e636520666f722063616c6c536166654d6174683a206d756c7469706c69636174696f6e206f766572666c6f775361666545524332303a204552433230206f7065726174696f6e20646964206e6f742073756363656564a26469706673582212204602486c41cf8982705ba20f684469b3cce89c98612ec231dbe81b4b35cbb7a964736f6c634300060c0033","linkReferences":{}},"methodIdentifiers":{"addressLength()":"dc881888","addressList(uint256)":"b810fb43","bonusEndBlock()":"1aed6553","deposit(uint256)":"b6b55f25","emergencyWithdraw()":"db2e21bc","pendingReward(address)":"f40f0f52","poolInfo()":"5a2f3d09","rewardPerBlock()":"8ae39cac","startBlock()":"48cd4cb1","syrup()":"86a952c4","updatePool()":"e3161ddd","userInfo(address)":"1959a002","withdraw(uint256)":"2e1a7d4d"},"id":100}