{"abi":[{"type":"function","name":"zusPositionCallback","inputs":[{"name":"positionKey","type":"bytes32","internalType":"bytes32"},{"name":"isExecuted","type":"bool","internalType":"bool"},{"name":"isIncrease","type":"bool","internalType":"bool"}],"outputs":[],"stateMutability":"nonpayable"},{"type":"event","name":"CallbackCalled","inputs":[{"name":"positionKey","type":"bytes32","indexed":false,"internalType":"bytes32"},{"name":"isExecuted","type":"bool","indexed":false,"internalType":"bool"},{"name":"isIncrease","type":"bool","indexed":false,"internalType":"bool"}],"anonymous":false}],"bytecode":{"object":"0x6080604052348015600f57600080fd5b5060d68061001e6000396000f3fe6080604052348015600f57600080fd5b506004361060285760003560e01c80636c9a14a314602d575b600080fd5b605760048036036060811015604157600080fd5b5080359060208101351515906040013515156059565b005b6040805184815283151560208201528215158183015290517f4c5b183c9c52e97ac4369ee0a4685a3af880b74946655c4b6e7366b6af1733809181900360600190a150505056fea2646970667358221220264d2746de1c4b5d0adc3d2199366842c8c47899318855bc683246f0c88911bc64736f6c634300060c0033","linkReferences":{}},"methodIdentifiers":{"zusPositionCallback(bytes32,bool,bool)":"6c9a14a3"},"id":64}