{"abi":[{"type":"function","name":"COOLDOWN_DURATION","inputs":[],"outputs":[{"name":"","type":"uint256","internalType":"uint256"}],"stateMutability":"view"},{"type":"function","name":"INITIAL_USER_BALANCE","inputs":[],"outputs":[{"name":"","type":"uint256","internalType":"uint256"}],"stateMutability":"view"},{"type":"function","name":"PRICE_1USD","inputs":[],"outputs":[{"name":"","type":"uint256","internalType":"uint256"}],"stateMutability":"view"},{"type":"function","name":"admin","inputs":[],"outputs":[{"name":"","type":"address","internalType":"address"}],"stateMutability":"view"},{"type":"function","name":"collateralToken","inputs":[],"outputs":[{"name":"","type":"address","internalType":"contract Token"}],"stateMutability":"view"},{"type":"function","name":"fastPriceFeed","inputs":[],"outputs":[{"name":"","type":"address","internalType":"contract FastPriceFeed"}],"stateMutability":"view"},{"type":"function","name":"feeZlpDistributor","inputs":[],"outputs":[{"name":"","type":"address","internalType":"contract RewardDistributor"}],"stateMutability":"view"},{"type":"function","name":"feeZlpTracker","inputs":[],"outputs":[{"name":"","type":"address","internalType":"contract RewardTracker"}],"stateMutability":"view"},{"type":"function","name":"rewardRouter","inputs":[],"outputs":[{"name":"","type":"address","internalType":"contract RewardRouterV2"}],"stateMutability":"view"},{"type":"function","name":"setUp","inputs":[],"outputs":[],"stateMutability":"nonpayable"},{"type":"function","name":"shortsTracker","inputs":[],"outputs":[{"name":"","type":"address","internalType":"contract ShortsTracker"}],"stateMutability":"view"},{"type":"function","name":"stakedZlpDistributor","inputs":[],"outputs":[{"name":"","type":"address","internalType":"contract RewardDistributor"}],"stateMutability":"view"},{"type":"function","name":"stakedZlpTracker","inputs":[],"outputs":[{"name":"","type":"address","internalType":"contract RewardTracker"}],"stateMutability":"view"},{"type":"function","name":"stakedZusDistributor","inputs":[],"outputs":[{"name":"","type":"address","internalType":"contract RewardDistributor"}],"stateMutability":"view"},{"type":"function","name":"stakedZusTracker","inputs":[],"outputs":[{"name":"","type":"address","internalType":"contract RewardTracker"}],"stateMutability":"view"},{"type":"function","name":"usdg","inputs":[],"outputs":[{"name":"","type":"address","internalType":"contract USDG"}],"stateMutability":"view"},{"type":"function","name":"user","inputs":[],"outputs":[{"name":"","type":"address","internalType":"address"}],"stateMutability":"view"},{"type":"function","name":"vault","inputs":[],"outputs":[{"name":"","type":"address","internalType":"contract Vault"}],"stateMutability":"view"},{"type":"function","name":"vaultPriceFeed","inputs":[],"outputs":[{"name":"","type":"address","internalType":"contract VaultPriceFeed"}],"stateMutability":"view"},{"type":"function","name":"vaultUtils","inputs":[],"outputs":[{"name":"","type":"address","internalType":"contract VaultUtils"}],"stateMutability":"view"},{"type":"function","name":"weth","inputs":[],"outputs":[{"name":"","type":"address","internalType":"contract WETH"}],"stateMutability":"view"},{"type":"function","name":"zlp","inputs":[],"outputs":[{"name":"","type":"address","internalType":"contract ZLP"}],"stateMutability":"view"},{"type":"function","name":"zlpManager","inputs":[],"outputs":[{"name":"","type":"address","internalType":"contract ZlpManager"}],"stateMutability":"view"},{"type":"function","name":"zus","inputs":[],"outputs":[{"name":"","type":"address","internalType":"contract Token"}],"stateMutability":"view"}],"bytecode":{"object":"0x608060405234801561001057600080fd5b5062023f7b80620000226000396000f3fe60806040523480156200001157600080fd5b5060043610620001425760003560e01c806302486e0814620001475780630a9254e4146200016d57806317988a6a14620001795780633a849c2114620001835780633fc8cef3146200018d5780634f8632ba14620001975780635a3bb98914620001a15780635ec775b014620001ab578063657bc5d014620001c75780636abbe0c814620001d157806375c3818c14620001db57806384347a3314620001e55780638f75308414620001ef578063b2016bd414620001f9578063b65565991462000203578063c90398c5146200020d578063d99e5e361462000217578063ec4ee1c01462000221578063eeaa783a146200022b578063f0e2db3c1462000235578063f5b91b7b146200023f578063f851a4401462000249578063fbfa77cf1462000253578063fe9fe720146200025d575b600080fd5b6200015162000267565b604080516001600160a01b039092168252519081900360200190f35b6200017762000276565b005b62000151620020dd565b62000151620020ec565b62000151620020fb565b620001516200210a565b6200015162002119565b620001b562002128565b60408051918252519081900360200190f35b620001516200212d565b620001516200213c565b620001516200214b565b620001516200215a565b620001b562002169565b6200015162002179565b6200015162002188565b620001b562002197565b62000151620021a4565b62000151620021b3565b62000151620021c2565b62000151620021d1565b62000151620021e0565b62000151620021ef565b62000151620021fe565b620001516200220d565b6010546001600160a01b031681565b604080516372eb5f8160e11b8152611c2060048201529051737109709ecfa91a80626ff3989d68f67f5b1dd12d9163e5d6bf0291602480830192600092919082900301818387803b158015620002cb57600080fd5b505af1158015620002e0573d6000803e3d6000fd5b505060128054336001600160a01b0319918216179182905560408051635a65757360e01b602080830191909152825160048184030181526024830180855281519190920120601380549095166001600160a01b03918216179094556303223eab60e11b90529190921660288201529051737109709ecfa91a80626ff3989d68f67f5b1dd12d93506306447d569250604880830192600092919082900301818387803b1580156200038f57600080fd5b505af1158015620003a4573d6000803e3d6000fd5b50505050604051620003b6906200221c565b604051809103906000f080158015620003d3573d6000803e3d6000fd5b50600080546001600160a01b0319166001600160a01b03928316179081905560405191169062000403906200222a565b6001600160a01b03909116815260405190819003602001906000f08015801562000431573d6000803e3d6000fd5b50600780546001600160a01b0319166001600160a01b0392909216919091179055604051620004609062002238565b604051809103906000f0801580156200047d573d6000803e3d6000fd5b50600280546001600160a01b0319166001600160a01b03928316179055600054604051911690620004ae9062002246565b6001600160a01b03909116815260405190819003602001906000f080158015620004dc573d6000803e3d6000fd5b50600180546001600160a01b0319166001600160a01b039283161790556000546040519116906200050d9062002254565b6001600160a01b03909116815260405190819003602001906000f0801580156200053b573d6000803e3d6000fd5b50600480546001600160a01b0319166001600160a01b03929092169190911790556040516000906200056d9062002262565b90815260405190819003602001906000f08015801562000591573d6000803e3d6000fd5b50600680546001600160a01b0319166001600160a01b0392831617908190556000546007546004546040519285169491821693821692911690620005d59062002270565b6001600160a01b039485168152928416602084015290831660408084019190915292166060820152905190819003608001906000f0801580156200061d573d6000803e3d6000fd5b50600580546001600160a01b0319166001600160a01b03928316179055600080546007546002546040805163f1675a8b60e01b815260048101869052928616602484015290851660448301526904ee2d6d415b85acef8160201b60648301526127106084830181905260a483015251919093169263f1675a8b9260c480830193919282900301818387803b158015620006b557600080fd5b505af1158015620006ca573d6000803e3d6000fd5b505060008054600154604080516371089f4d60e01b81526001600160a01b03928316600482015290519190921694506371089f4d93506024808301939282900301818387803b1580156200071d57600080fd5b505af115801562000732573d6000803e3d6000fd5b50506006546005546040805163cf456ae760e01b81526001600160a01b03928316600482015260016024820152905191909216935063cf456ae79250604480830192600092919082900301818387803b1580156200078f57600080fd5b505af1158015620007a4573d6000803e3d6000fd5b5050600754600554604080516312b5ad0160e11b81526001600160a01b039283166004820152905191909216935063256b5a029250602480830192600092919082900301818387803b158015620007fa57600080fd5b505af11580156200080f573d6000803e3d6000fd5b505060008054600554604080516352f4877760e11b81526001600160a01b03928316600482015260016024820152905191909216945063a5e90eee93506044808301939282900301818387803b1580156200086957600080fd5b505af11580156200087e573d6000803e3d6000fd5b5050505060405162000890906200227e565b604051809103906000f080158015620008ad573d6000803e3d6000fd5b50600880546001600160a01b0319166001600160a01b039283161790819055601354604080516340c10f1960e01b81529184166004830152683635c9adc5dea0000060248301525191909216916340c10f1991604480830192600092919082900301818387803b1580156200092157600080fd5b505af115801562000936573d6000803e3d6000fd5b5050505060126040516200094a906200228c565b6040808201929092526060808252600d908201526c2bb930b83832b21022ba3432b960991b608082015260a060208201819052600490820152630ae8aa8960e31b60c082015290519081900360e001906000f080158015620009b0573d6000803e3d6000fd5b50601180546001600160a01b0319166001600160a01b0392831617905560125460405161070892611c2092600092603292849216908290620009f2906200229a565b968752602087019590955260408087019490945260608601929092526001600160a01b03908116608086015290811660a08501529190911660c0830152519081900360e001906000f08015801562000a4e573d6000803e3d6000fd5b50600380546001600160a01b0319166001600160a01b039290921691909117905560408051600180825281830190925260609160208083019080368337505060125482519293506001600160a01b03169183915060009062000aac57fe5b6001600160a01b039290921660209283029190910190910152604080516001808252818301909252606091816020016020820280368337505060125482519293506001600160a01b03169183915060009062000b0457fe5b6001600160a01b03928316602091820292909201810191909152600354604051633fde3ce360e11b81526001600482018181526060602484019081528851606485015288519490961695637fbc79c6959294899489946044820192608490920191878201910280838360005b8381101562000b8a57818101518382015260200162000b70565b50505050905001838103825284818151815260200191508051906020019060200280838360005b8381101562000bcb57818101518382015260200162000bb1565b5050505090500195505050505050600060405180830381600087803b15801562000bf457600080fd5b505af115801562000c09573d6000803e3d6000fd5b505060035460125460408051631a15339160e01b81526001600160a01b039283166004820152600160248201529051919092169350631a1533919250604480830192600092919082900301818387803b15801562000c6657600080fd5b505af115801562000c7b573d6000803e3d6000fd5b50506003546040805163776d16c160e01b8152610e10600482015290516001600160a01b03909216935063776d16c1925060248082019260009290919082900301818387803b15801562000cce57600080fd5b505af115801562000ce3573d6000803e3d6000fd5b50506003546002546040805163238aafb760e01b81526001600160a01b039283166004820152905191909216935063238aafb79250602480830192600092919082900301818387803b15801562000d3957600080fd5b505af115801562000d4e573d6000803e3d6000fd5b505060025460035460408051639a0a663560e01b81526001600160a01b0392831660048201529051919092169350639a0a66359250602480830192600092919082900301818387803b15801562000da457600080fd5b505af115801562000db9573d6000803e3d6000fd5b505060025460408051632645f71d60e21b815260006004820181905291516001600160a01b039093169450639917dc7493506024808201939182900301818387803b15801562000e0857600080fd5b505af115801562000e1d573d6000803e3d6000fd5b50506002546040805163eb1c92a960e01b81526001600482015290516001600160a01b03909216935063eb1c92a9925060248082019260009290919082900301818387803b15801562000e6f57600080fd5b505af115801562000e84573d6000803e3d6000fd5b50506040805160028082526060808301845294509092509060208301908036833750506040805160028082526060808301845294955090925090602083019080368337505060085484519293506001600160a01b03169184915060009062000ee857fe5b60200260200101906001600160a01b031690816001600160a01b03168152505068327cb2734119d3b7a9601e1b8160008151811062000f2357fe5b602090810291909101015260115482516001600160a01b03909116908390600190811062000f4d57fe5b60200260200101906001600160a01b031690816001600160a01b03168152505068327cb2734119d3b7a9601e1b610dac028160018151811062000f8c57fe5b602090810291909101810191909152600354604051631e09986f60e21b815242604482018190526060600483019081528651606484015286516001600160a01b039094169463782661bc948894889493928392602483019260840191888101910280838360005b838110156200100d57818101518382015260200162000ff3565b50505050905001838103825285818151815260200191508051906020019060200280838360005b838110156200104e57818101518382015260200162001034565b5050505090500195505050505050600060405180830381600087803b1580156200107757600080fd5b505af11580156200108c573d6000803e3d6000fd5b50506000805460085460408051633c5a6e3560e01b81526001600160a01b0392831660048201526012602482015261271060448201526064810185905269d3c21bcecceda1000000608482015260a48101859052600160c48201529051919092169450633c5a6e35935060e4808301939282900301818387803b1580156200111357600080fd5b505af115801562001128573d6000803e3d6000fd5b50506000805460115460408051633c5a6e3560e01b81526001600160a01b0392831660048201526012602482015261271060448201526064810185905269d3c21bcecceda1000000608482015260a48101859052600160c48201529051919092169450633c5a6e35935060e4808301939282900301818387803b158015620011af57600080fd5b505af1158015620011c4573d6000803e3d6000fd5b50505050604051620011d6906200227e565b604051809103906000f080158015620011f3573d6000803e3d6000fd5b50601080546001600160a01b0319166001600160a01b039283161790819055601254604080516340c10f1960e01b8152918416600483015269021e19e0c9bab240000060248301525191909216916340c10f1991604480830192600092919082900301818387803b1580156200126857600080fd5b505af11580156200127d573d6000803e3d6000fd5b505050506040516200128f90620022a8565b6040808252600a81830152695374616b6564205a555360b01b606083015260806020830181905260049083015263735a555360e01b60a0830152519081900360c001906000f080158015620012e8573d6000803e3d6000fd5b50600a80546001600160a01b0319166001600160a01b0392831617908190556010546040519083169291909116906200132190620022b6565b6001600160a01b03928316815291166020820152604080519182900301906000f08015801562001355573d6000803e3d6000fd5b50600d80546001600160a01b0319166001600160a01b039290921691909117905560408051600180825281830190925260609160208083019080368337505060105482519293506001600160a01b031691839150600090620013b357fe5b6001600160a01b03928316602091820292909201810191909152600a54600d5460408051632316859760e11b81529185166024830181905260048301918252865160448401528651939095169463462d0b2e94879491938392606490910191868101910280838360005b83811015620014375781810151838201526020016200141d565b505050509050019350505050600060405180830381600087803b1580156200145e57600080fd5b505af115801562001473573d6000803e3d6000fd5b50505050506040516200148690620022a8565b6040808252600781830152660466565205a4c560cc1b6060830152608060208301819052600490830152630665a4c560e41b60a0830152519081900360c001906000f080158015620014dc573d6000803e3d6000fd5b50600b80546001600160a01b0319166001600160a01b0392831617908190556011546040519083169291909116906200151590620022b6565b6001600160a01b03928316815291166020820152604080519182900301906000f08015801562001549573d6000803e3d6000fd5b50600e80546001600160a01b0319166001600160a01b039290921691909117905560408051600180825281830190925260609160208083019080368337505060065482519293506001600160a01b031691839150600090620015a757fe5b6001600160a01b03928316602091820292909201810191909152600b54600e5460408051632316859760e11b81529185166024830181905260048301918252865160448401528651939095169463462d0b2e94879491938392606490910191868101910280838360005b838110156200162b57818101518382015260200162001611565b505050509050019350505050600060405180830381600087803b1580156200165257600080fd5b505af115801562001667573d6000803e3d6000fd5b50505050506040516200167a90620022a8565b6040808252600a818301526905374616b6564205a4c560b41b6060830152608060208301819052600490830152630735a4c560e41b60a0830152519081900360c001906000f080158015620016d3573d6000803e3d6000fd5b50600c80546001600160a01b0319166001600160a01b0392831617908190556010546040519083169291909116906200170c90620022b6565b6001600160a01b03928316815291166020820152604080519182900301906000f08015801562001740573d6000803e3d6000fd5b50600f80546001600160a01b0319166001600160a01b039290921691909117905560408051600280825260608083018452926020830190803683375050600b5482519293506001600160a01b0316918391506000906200179c57fe5b6001600160a01b039283166020918202929092010152600654825191169082906001908110620017c857fe5b6001600160a01b03928316602091820292909201810191909152600c54600f5460408051632316859760e11b81529185166024830181905260048301918252865160448401528651939095169463462d0b2e94879491938392606490910191868101910280838360005b838110156200184c57818101518382015260200162001832565b505050509050019350505050600060405180830381600087803b1580156200187357600080fd5b505af115801562001888573d6000803e3d6000fd5b50506012546040805163c88a5e6d60e01b81526001600160a01b039092166004830152686c6b935b8bbd400000602483015251737109709ecfa91a80626ff3989d68f67f5b1dd12d945063c88a5e6d93506044808301935060009282900301818387803b158015620018f957600080fd5b505af11580156200190e573d6000803e3d6000fd5b50505050601160009054906101000a90046001600160a01b03166001600160a01b031663d0e30db0683635c9adc5dea000006040518263ffffffff1660e01b81526004016000604051808303818588803b1580156200196c57600080fd5b505af115801562001981573d6000803e3d6000fd5b5050601154600e546040805163a9059cbb60e01b81526001600160a01b039283166004820152683635c9adc5dea000006024820152905191909216945063a9059cbb9350604480830193506020928290030181600087803b158015620019e657600080fd5b505af1158015620019fb573d6000803e3d6000fd5b505050506040513d602081101562001a1257600080fd5b5050601054600d546040805163a9059cbb60e01b81526001600160a01b039283166004820152683635c9adc5dea0000060248201529051919092169163a9059cbb9160448083019260209291908290030181600087803b15801562001a7657600080fd5b505af115801562001a8b573d6000803e3d6000fd5b505050506040513d602081101562001aa257600080fd5b5050601054600f546040805163a9059cbb60e01b81526001600160a01b039283166004820152683635c9adc5dea0000060248201529051919092169163a9059cbb9160448083019260209291908290030181600087803b15801562001b0657600080fd5b505af115801562001b1b573d6000803e3d6000fd5b505050506040513d602081101562001b3257600080fd5b5050600d5460408051633ae6d6eb60e01b815290516001600160a01b0390921691633ae6d6eb9160048082019260009290919082900301818387803b15801562001b7b57600080fd5b505af115801562001b90573d6000803e3d6000fd5b5050600d54604080516318e20a0360e01b8152662386f26fc10000600482015290516001600160a01b0390921693506318e20a03925060248082019260009290919082900301818387803b15801562001be857600080fd5b505af115801562001bfd573d6000803e3d6000fd5b50505050600e60009054906101000a90046001600160a01b03166001600160a01b0316633ae6d6eb6040518163ffffffff1660e01b8152600401600060405180830381600087803b15801562001c5257600080fd5b505af115801562001c67573d6000803e3d6000fd5b5050600e54604080516318e20a0360e01b815266038d7ea4c68000600482015290516001600160a01b0390921693506318e20a03925060248082019260009290919082900301818387803b15801562001cbf57600080fd5b505af115801562001cd4573d6000803e3d6000fd5b50505050600f60009054906101000a90046001600160a01b03166001600160a01b0316633ae6d6eb6040518163ffffffff1660e01b8152600401600060405180830381600087803b15801562001d2957600080fd5b505af115801562001d3e573d6000803e3d6000fd5b5050600f54604080516318e20a0360e01b8152662386f26fc10000600482015290516001600160a01b0390921693506318e20a03925060248082019260009290919082900301818387803b15801562001d9657600080fd5b505af115801562001dab573d6000803e3d6000fd5b5050505060405162001dbd90620022c4565b604051809103906000f08015801562001dda573d6000803e3d6000fd5b50600980546001600160a01b0319166001600160a01b039283161790819055601154601054600654600a54600b54600c5460055460408051631ac3b23b60e11b8152978a16600489015295891660248801529388166044870152918716606486015286166084850152851660a4840152841660c483015251919092169163358764769160e480830192600092919082900301818387803b15801562001e7e57600080fd5b505af115801562001e93573d6000803e3d6000fd5b505060055460095460408051639cb7de4b60e01b81526001600160a01b039283166004820152600160248201529051919092169350639cb7de4b9250604480830192600092919082900301818387803b15801562001ef057600080fd5b505af115801562001f05573d6000803e3d6000fd5b5050600a5460095460408051639cb7de4b60e01b81526001600160a01b039283166004820152600160248201529051919092169350639cb7de4b9250604480830192600092919082900301818387803b15801562001f6257600080fd5b505af115801562001f77573d6000803e3d6000fd5b5050600b5460095460408051639cb7de4b60e01b81526001600160a01b039283166004820152600160248201529051919092169350639cb7de4b9250604480830192600092919082900301818387803b15801562001fd457600080fd5b505af115801562001fe9573d6000803e3d6000fd5b5050600c5460095460408051639cb7de4b60e01b81526001600160a01b039283166004820152600160248201529051919092169350639cb7de4b9250604480830192600092919082900301818387803b1580156200204657600080fd5b505af11580156200205b573d6000803e3d6000fd5b505050507f885cb69240a935d632d79c317109709ecfa91a80626ff3989d68f67f5b1dd12d60001c6001600160a01b03166390c5013b6040518163ffffffff1660e01b8152600401600060405180830381600087803b158015620020be57600080fd5b505af1158015620020d3573d6000803e3d6000fd5b5050505050505050565b600c546001600160a01b031681565b6003546001600160a01b031681565b6011546001600160a01b031681565b6013546001600160a01b031681565b6009546001600160a01b031681565b600081565b6004546001600160a01b031681565b6001546001600160a01b031681565b600e546001600160a01b031681565b600b546001600160a01b031681565b68327cb2734119d3b7a9601e1b81565b6008546001600160a01b031681565b6005546001600160a01b031681565b683635c9adc5dea0000081565b600d546001600160a01b031681565b600a546001600160a01b031681565b6002546001600160a01b031681565b600f546001600160a01b031681565b6007546001600160a01b031681565b6012546001600160a01b031681565b6000546001600160a01b031681565b6006546001600160a01b031681565b61693d80620022d383390190565b6125e98062008c1083390190565b612985806200b1f983390190565b611f4d806200db7e83390190565b6117e7806200facb83390190565b612c2880620112b283390190565b612edd8062013eda83390190565b610ff38062016db783390190565b610f688062017daa83390190565b6133628062018d1283390190565b61316c806201c07483390190565b6111a7806201f1e083390190565b613bbf80620203878339019056fe608060405234801561001057600080fd5b5061691c80620000216000396000f3fe608060405234801561001057600080fd5b50600436106105c55760003560e01c8063870d917c116102ff578063c7e074c31161019a578063c7e074c3146112a2578063cea0c328146112e2578063cfad57a214611318578063d2fa635e1461133e578063d3127e631461135b578063d54d5a9f14611378578063d66b000d146113d7578063d8f897c314611403578063d9ac422514611429578063da76524c14611431578063daf9c2101461147b578063db3555fb146114a1578063db97495f146114c7578063dc8f5fac14611513578063de2ea9481461151b578063df73a26714611563578063e124e6d21461156b578063e468baf014611591578063e67f59a7146115ae578063efa10a6e146115d4578063f07456ce14611600578063f07bbf7714611626578063f1675a8b14611645578063f25552781461168d578063f3ae2415146116bb578063f5b91b7b146116e1578063f887ea40146116e9578063fa12dbc0146116f1578063fbfded6d14611723578063fce28c1014611751578063fdaf6ac314611759578063fed1a6061461179d576105c5565b8063870d917c14610ed457806388b1fbdf14610edc5780638a27d46814610f025780638a39735a146106465780638a78daa814610f2b5780638d0fedb014610f515780638ee573ac14610f905780638f7b840414610fb65780639060b1ca14610fdc5780639331621214610fe457806395082d251461101c5780639698d25a146110245780639849e4121461104a5780639899cd02146110525780639c35b4971461107e5780639d7432ca146110a45780639f392eb3146110d6578063a22f2392146110de578063a42ab3d2146110e6578063a5e90eee14611112578063a93acac214611140578063ab08c1c614611166578063ab2f3ad41461116e578063ad1e4f8d14611194578063ae3302c2146111ba578063b06423f3146111c2578063b136ca49146111ca578063b1cc53ab146111f0578063b364accb14611228578063c3c7b9e91461124e578063c4f718bf14611274578063c65bc7b11461127c576105c5565b806345a6f3701161046f57806345a6f370146109ca57806348d91abf14610a2357806348f35cbb14610a675780634a3f088d14610a6f5780634a993ee914610af05780634befe2ca14610b165780634d47b30414610b1e578063514ea4bf14610b2657806351723e8214610b7b578063523fba7f14610bb9578063529a356f14610bdf57806352f55eed14610c055780635c07eaab14610c2b5780635f7bc11914610c6b5780636092219914610c9157806362287a3214610cbf5780636274980314610cc75780636abbe0c814610ced5780636ae0b15414610cf55780636bb22fd714610d1b5780636be6026b14610d4757806371089f4d14610d4f578063711e619014610d75578063724e78da14610da3578063741bef1a14610dc95780637a210a2b14610dd15780637bc6729b14610dd95780637c2eb9f714610de1578063817bb85714610e0057806381a612d614610e2e57806382a0849014610e545780638585f4d214610ea8576105c5565b806304fef1db146105ca57806307c58752146106025780630842b0761461060a5780630a48d5a91461061257806310eb56c21461063e578063126082cf1461064657806312d43a511461064e578063134ca63b14610672578063174d26941461067a578063181e210e146106825780631aa4ace51461069e5780631ce9cb8f146106c457806324b0c04d146106ea57806324ca984e1461070b57806328e67be51461073157806329ff9615146107a65780632c668ec1146107cc5780632d4b0576146107f857806330455ede14610836578063318bc6891461085557806334c1557d14610646578063351a964d1461085d578063392e53cd146108655780633a05dcc11461086d5780633c5a6e35146108935780633de39c11146108e15780633e72a262146108e957806340eb3802146108f1578063421528731461094257806342b60b03146109765780634453a3741461099c575b600080fd5b6105f0600480360360208110156105e057600080fd5b50356001600160a01b031661182f565b60408051918252519081900360200190f35b6105f0611892565b6105f06118a3565b6105f06004803603604081101561062857600080fd5b506001600160a01b0381351690602001356118a9565b6105f06118fc565b6105f0611902565b610656611908565b604080516001600160a01b039092168252519081900360200190f35b6105f0611917565b6105f061191d565b61068a611923565b604080519115158252519081900360200190f35b6105f0600480360360208110156106b457600080fd5b50356001600160a01b0316611933565b6105f0600480360360208110156106da57600080fd5b50356001600160a01b0316611945565b6107096004803603602081101561070057600080fd5b50351515611957565b005b6107096004803603602081101561072157600080fd5b50356001600160a01b03166119b0565b6107096004803603604081101561074757600080fd5b81359190810190604081016020820135600160201b81111561076857600080fd5b82018360208201111561077a57600080fd5b803590602001918460018302840111600160201b8311171561079b57600080fd5b509092509050611a09565b6105f0600480360360208110156107bc57600080fd5b50356001600160a01b0316611ae8565b6105f0600480360360408110156107e257600080fd5b506001600160a01b038135169060200135611afc565b6105f06004803603608081101561080e57600080fd5b506001600160a01b038135811691602081013582169160408201351690606001351515611b41565b6107096004803603602081101561084c57600080fd5b50351515611b97565b6105f0611bee565b61068a611bf4565b61068a611c02565b6105f06004803603602081101561088357600080fd5b50356001600160a01b0316611c0b565b610709600480360360e08110156108a957600080fd5b506001600160a01b038135169060208101359060408101359060608101359060808101359060a081013515159060c001351515611ccb565b6105f0611e71565b61068a611e77565b610709600480360361012081101561090857600080fd5b5080359060208101359060408101359060608101359060808101359060a08101359060c08101359060e08101359061010001351515611e86565b6105f06004803603606081101561095857600080fd5b508035906001600160a01b0360208201358116916040013516611fba565b61068a6004803603602081101561098c57600080fd5b50356001600160a01b031661205c565b610709600480360360408110156109b257600080fd5b506001600160a01b0381351690602001351515612070565b610a08600480360360808110156109e057600080fd5b506001600160a01b0381358116916020810135821691604082013516906060013515156120d8565b60408051921515835260208301919091528051918290030190f35b610709600480360360a0811015610a3957600080fd5b506001600160a01b038135811691602081013582169160408201351690606081013590608001351515612176565b610656612642565b610aad60048036036080811015610a8557600080fd5b506001600160a01b038135811691602081013582169160408201351690606001351515612651565b604080519889526020890197909752878701959095526060870193909352608086019190915260a0850152151560c084015260e083015251908190036101000190f35b6105f060048036036020811015610b0657600080fd5b50356001600160a01b0316612747565b6105f0612759565b6105f061275f565b610b4360048036036020811015610b3c57600080fd5b5035612765565b604080519788526020880196909652868601949094526060860192909252608085015260a084015260c0830152519081900360e00190f35b6105f060048036036080811015610b9157600080fd5b506001600160a01b0381358116916020810135821691604082013516906060013515156127a2565b6105f060048036036020811015610bcf57600080fd5b50356001600160a01b0316612848565b61068a60048036036020811015610bf557600080fd5b50356001600160a01b031661285a565b6105f060048036036020811015610c1b57600080fd5b50356001600160a01b031661286f565b610a08600480360360a0811015610c4157600080fd5b506001600160a01b0381351690602081013590604081013590606081013515159060800135612881565b61070960048036036020811015610c8157600080fd5b50356001600160a01b0316612979565b61068a60048036036040811015610ca757600080fd5b506001600160a01b0381358116916020013516612a5c565b6105f0612a7c565b6105f060048036036020811015610cdd57600080fd5b50356001600160a01b0316612a82565b610656612a94565b61070960048036036020811015610d0b57600080fd5b50356001600160a01b0316612aaa565b61070960048036036040811015610d3157600080fd5b506001600160a01b038135169060200135612b00565b6105f0612b49565b61070960048036036020811015610d6557600080fd5b50356001600160a01b0316612b50565b6105f060048036036040811015610d8b57600080fd5b506001600160a01b0381358116916020013516612bb8565b61070960048036036020811015610db957600080fd5b50356001600160a01b0316612e4c565b610656612ea8565b6105f0612eb7565b610709612ebd565b61070960048036036020811015610df757600080fd5b50351515612f60565b6105f060048036036040811015610e1657600080fd5b506001600160a01b0381358116916020013516612fb9565b6105f060048036036020811015610e4457600080fd5b50356001600160a01b0316613289565b6105f0600480360360e0811015610e6a57600080fd5b506001600160a01b0381358116916020810135821691604082013581169160608101359160808201359160a081013515159160c09091013516613334565b61070960048036036040811015610ebe57600080fd5b506001600160a01b0381351690602001356133b2565b6105f061340e565b6105f060048036036020811015610ef257600080fd5b50356001600160a01b0316613413565b61070960048036036060811015610f1857600080fd5b5080359060208101359060400135613425565b6105f060048036036020811015610f4157600080fd5b50356001600160a01b03166134b1565b610f7760048036036020811015610f6757600080fd5b50356001600160a01b03166134c3565b6040805192835290151560208301528051918290030190f35b6105f060048036036020811015610fa657600080fd5b50356001600160a01b03166134df565b61070960048036036020811015610fcc57600080fd5b50356001600160a01b03166134f1565b61068a61354d565b6105f060048036036060811015610ffa57600080fd5b506001600160a01b03813581169160208101358216916040909101351661355c565b6105f0613844565b6105f06004803603602081101561103a57600080fd5b50356001600160a01b0316613854565b6105f0613866565b6105f06004803603604081101561106857600080fd5b506001600160a01b03813516906020013561386c565b6107096004803603602081101561109457600080fd5b50356001600160a01b031661388e565b6105f0600480360360608110156110ba57600080fd5b506001600160a01b038135169060208101359060400135613911565b61068a6139ba565b6105f06139c3565b6105f0600480360360408110156110fc57600080fd5b506001600160a01b0381351690602001356139c9565b6107096004803603604081101561112857600080fd5b506001600160a01b03813516906020013515156139e6565b6105f06004803603602081101561115657600080fd5b50356001600160a01b0316613a4e565b61068a613b4b565b6105f06004803603602081101561118457600080fd5b50356001600160a01b0316613b54565b6105f0600480360360208110156111aa57600080fd5b50356001600160a01b0316613b66565b6105f0613b78565b61068a613b7e565b6105f0600480360360208110156111e057600080fd5b50356001600160a01b0316613b8c565b6105f06004803603606081101561120657600080fd5b506001600160a01b038135811691602081013590911690604001351515613c2c565b610a086004803603602081101561123e57600080fd5b50356001600160a01b0316613cc7565b6105f06004803603602081101561126457600080fd5b50356001600160a01b0316613d5f565b6105f0613d71565b6105f06004803603602081101561129257600080fd5b50356001600160a01b0316613d77565b6105f0600480360360a08110156112b857600080fd5b506001600160a01b0381351690602081013590604081013590606081013590608001351515613d89565b610709600480360360608110156112f857600080fd5b506001600160a01b03813581169160208101359091169060400135613e33565b6107096004803603602081101561132e57600080fd5b50356001600160a01b0316613e9f565b6107096004803603602081101561135457600080fd5b5035613ee9565b6107096004803603602081101561137157600080fd5b5035613f2c565b6113be600480360360a081101561138e57600080fd5b506001600160a01b0381358116916020810135821691604082013516906060810135151590608001351515613f7e565b6040805192835260208301919091528051918290030190f35b610709600480360360408110156113ed57600080fd5b506001600160a01b038135169060200135614035565b6105f06004803603602081101561141957600080fd5b50356001600160a01b031661410d565b6105f061411f565b6105f0600480360360c081101561144757600080fd5b506001600160a01b038135811691602081013582169160408201351690606081013515159060808101359060a00135614125565b61068a6004803603602081101561149157600080fd5b50356001600160a01b03166141d9565b61068a600480360360208110156114b757600080fd5b50356001600160a01b03166141ee565b6105f0600480360360e08110156114dd57600080fd5b506001600160a01b0381351690602081013590604081013590606081013515159060808101359060a08101359060c00135614203565b6105f0614294565b610709600480360360a081101561153157600080fd5b506001600160a01b0381358116916020810135821691604082013581169160608101351515916080909101351661429a565b6105f0614672565b6105f06004803603602081101561158157600080fd5b50356001600160a01b0316614678565b610656600480360360208110156115a757600080fd5b50356146f0565b610709600480360360208110156115c457600080fd5b50356001600160a01b0316614717565b610709600480360360408110156115ea57600080fd5b506001600160a01b03813516906020013561481f565b6105f06004803603602081101561161657600080fd5b50356001600160a01b031661487b565b6107096004803603602081101561163c57600080fd5b5035151561488d565b610709600480360360c081101561165b57600080fd5b506001600160a01b03813581169160208101358216916040820135169060608101359060808101359060a001356148e8565b6105f0600480360360408110156116a357600080fd5b506001600160a01b03813581169160200135166149bb565b61068a600480360360208110156116d157600080fd5b50356001600160a01b0316614a63565b610656614a78565b610656614a87565b6105f06004803603606081101561170757600080fd5b506001600160a01b038135169060208101359060400135614a96565b6107096004803603604081101561173957600080fd5b506001600160a01b0381358116916020013516614ad0565b6105f0614ca9565b6105f0600480360360a081101561176f57600080fd5b506001600160a01b038135811691602081013582169160408201351690606081013515159060800135614caf565b6117ba600480360360208110156117b357600080fd5b5035614d25565b6040805160208082528351818301528351919283929083019185019080838360005b838110156117f45781810151838201526020016117dc565b50505050905090810190601f1680156118215780820380516001836020036101000a031916815260200191505b509250505060405180910390f35b6001600160a01b0381166000908152602660205260408120548061185757600091505061188d565b6001600160a01b03831660009081526027602052604090205461188990829061188390620f4240614dc0565b90614e19565b9150505b919050565b6904ee2d6d415b85acef8160201b81565b601c5490565b6000816118b8575060006118f6565b60006118c384613289565b6001600160a01b0385166000908152601e60205260409020549091506118f1600a82900a6118838685614dc0565b925050505b92915050565b600c5481565b61271081565b6006546001600160a01b031681565b60155481565b600a5481565b6017546301000000900460ff1681565b60246020526000908152604090205481565b602d6020526000908152604090205481565b61195f614e58565b6017805482151562010000810262ff0000199092169190911790915560408051918252517f8604225322a778d88a29d67c7bfdcc2ee389c4ffee90401fed0c893995f64e4c9181900360200190a150565b3360008181526019602090815260408083206001600160a01b0386168085529252808320805460ff19166001179055519092917fbc68405e644da2aaf25623ce2199da82c6dfd2e1de102b400eba6a091704d4f491a350565b6002546001600160a01b03163314611a68576040805162461bcd60e51b815260206004820152601e60248201527f5661756c743a20696e76616c6964206572726f72436f6e74726f6c6c65720000604482015290519081900360640190fd5b6000838152603160205260409020611a819083836167ab565b50827fcfec2a57418bef8eb60569540c9ad6089804190b2a3da58a7240458e73860f53838360405180806020018281038252848482818152602001925080828437600083820152604051601f909101601f19169092018290039550909350505050a2505050565b60006118f682611af784613b8c565b6118a9565b600080611b0884614678565b90506000611b26826118838668327cb2734119d3b7a9601e1b614dc0565b6005549091506118f19082906001600160a01b031687611fba565b604080516001600160601b0319606096871b811660208084019190915295871b811660348301529390951b9092166048850152151560f81b605c8401528051603d818503018152605d9093019052815191012090565b611b9f614e58565b60018054821515610100810261ff00199092169190911790915560408051918252517f8e47cf548a9fa1b6e80d28aa245ff6db6e7f1b88aff2beedeb5c494d604a5aa09181900360200190a150565b60105481565b600154610100900460ff1681565b60015460ff1681565b600080600560009054906101000a90046001600160a01b03166001600160a01b03166318160ddd6040518163ffffffff1660e01b815260040160206040518083038186803b158015611c5c57600080fd5b505afa158015611c70573d6000803e3d6000fd5b505050506040513d6020811015611c8657600080fd5b5051905080611c9957600091505061188d565b6001600160a01b038316600090815260236020526040902054601654611cc3906118838385614dc0565b949350505050565b611cd3614e58565b6001600160a01b0387166000908152601d602052604090205460ff16611d5057600854611d01906001614e73565b600855601c80546001810182556000919091527f0e4562a10381dec21b205ed72637e6b1b523bdd0e4d4d50af5cd23dd4500a2110180546001600160a01b0319166001600160a01b0389161790555b6016546001600160a01b038816600090815260236020526040902054611d77908290614ecb565b6001600160a01b0389166000908152601d602090815260408083208054600160ff1991821617909155601e83528184208c9055602383528184208b9055601f83528184208a90556025835281842089905582805281842080548216891515179055602190925290912080549091168415151790559050611df78187614e73565b601655611e0388614678565b50604080518881526020810188905280820187905260608101869052841515608082015283151560a082015290516001600160a01b038a16917f440e80ddfc94cac3c5f71d1f565167ab3b690c79425a1ead709e08984f5f8cd0919081900360c00190a25050505050505050565b60185481565b60015462010000900460ff1681565b611e8e614e58565b611e9e6101f48a11156003614f0d565b611eae6101f48911156004614f0d565b611ebe6101f48811156005614f0d565b611ece6101f48711156006614f0d565b611ede6101f48611156007614f0d565b611eee6101f48511156008614f0d565b611f096904ee2d6d415b85acef8160201b8411156009614f0d565b600b899055600c889055600d879055600e869055600f8590556010849055600a83905560118290556012805482151560ff199091168117909155604080518b8152602081018b90528082018a9052606081018990526080810188905260a0810187905260c0810186905260e08101859052610100810192909252517f233feadc526a0cc39f70b747d25c6843b9ae49f35500485f106eb585d20d185c918190036101200190a1505050505050505050565b60055460009081906001600160a01b03858116911614611ff2576001600160a01b0384166000908152601e6020526040902054611ff5565b60125b6005549091506000906001600160a01b0385811691161461202e576001600160a01b0384166000908152601e6020526040902054612031565b60125b905061205082600a0a61188383600a0a89614dc090919063ffffffff16565b925050505b9392505050565b602080526000908152604090205460ff1681565b612078614e58565b6001600160a01b0382166000818152601a6020908152604091829020805460ff1916851515908117909155825190815291517f81e020344174972c59f6c11a8f6c90b141866214e3d9b544d030f0b532f5a10f9281900390910190a25050565b60008060006120e987878787611b41565b90506120f3616829565b506000818152602c6020908152604091829020825160e081018452815480825260018301549382019390935260028201549381018490526003820154606082015260048201546080820152600582015460a082015260069091015460c0820181905290926121679289929091908990612881565b93509350505094509492505050565b600260005414156121bc576040805162461bcd60e51b815260206004820152601f602482015260008051602061687c833981519152604482015290519081900360640190fd5b60026000556001546121d89062010000900460ff16601c614f0d565b6121e0614fbe565b6121e985614fda565b6121f484848361503a565b60015460408051634eae147d60e11b81526001600160a01b038881166004830152878116602483015286811660448301526064820186905284151560848301529151630100000090930490911691639d5c28fa9160a480820192600092909190829003018186803b15801561226857600080fd5b505afa15801561227c573d6000803e3d6000fd5b5050505061228a8484614ad0565b600061229886868685611b41565b6000818152602c60205260408120919250836122bc576122b786613289565b6122c5565b6122c586614678565b8254909150612363576002820181905560015460408051632339ab6b60e21b8152600481018690526001600160a01b038b811660248301528a81166044830152898116606483015287151560848301529151630100000090930490911691638ce6adac9160a48082019260009290919082900301818387803b15801561234a57600080fd5b505af115801561235e573d6000803e3d6000fd5b505050505b8154158015906123735750600085115b1561239957612393868360000154846002015487858a8860060154614203565b60028301555b60006123b2898989888a8860000154896003015461514d565b905060006123bf8961521b565b905060006123cd8a836118a9565b60018601549091506123df9082614e73565b600186018190556123f490841115601d614f0d565b60018501546124039084614ecb565b60018601556124138a8a89613c2c565b600386015584546124249089614e73565b80865542600687015561243a901515601e614f0d565b61244c856000015486600101546152c8565b61245a8b8b8b8a6001613f7e565b505060006124688b8a6139c9565b600487015490915061247a9082614e73565b60048701556124898b826152ec565b87156124ce576124a28b61249d8b87614e73565b61538c565b6124ac8b8361540b565b6124b68b8461548a565b6124c98b6124c48d8761386c565b6155a2565b61253a565b6001600160a01b038a166000908152602e602052604090205461250b576001600160a01b038a166000908152602f60205260409020859055612530565b6125168a868b613911565b6001600160a01b038b166000908152602f60205260409020555b61253a8a8a61566c565b604080518881526001600160a01b03808f166020830152808e16828401528c1660608201526080810184905260a081018b905289151560c082015260e08101879052610100810186905290517f2fe68525253654c21998f35787a8d0f361905ef647c854092430ab65f2f15022918190036101200190a1855460018701546002880154600389015460048a015460058b0154604080518e81526020810197909752868101959095526060860193909352608085019190915260a084015260c083015260e08201879052517f20853733b590dce729d9f4628682ebd9a34d2354e72679e66f43a008fc03b773918190036101000190a15050600160005550505050505050505050565b6002546001600160a01b031681565b600080600080600080600080600061266b8d8d8d8d611b41565b9050612675616829565b602c60008381526020019081526020016000206040518060e001604052908160008201548152602001600182015481526020016002820154815260200160038201548152602001600482015481526020016005820154815260200160068201548152505090506000808260a00151136126f5578160a001516000036126fb565b8160a001515b9050816000015182602001518360400151846060015185608001518560008860a0015112158860c001519a509a509a509a509a509a509a509a5050505094995094995094999196509450565b60286020526000908152604090205481565b6101f481565b600d5481565b602c602052600090815260409020805460018201546002830154600384015460048501546005860154600690960154949593949293919290919087565b6000806127b186868686611b41565b90506127bb616829565b506000818152602c6020908152604091829020825160e0810184528154815260018201549281018390526002820154938101939093526003810154606084015260048101546080840152600581015460a08401526006015460c08301526128259015156025614f0d565b6020810151815161283d919061188390612710614dc0565b979650505050505050565b60226020526000908152604090205481565b601a6020526000908152604090205460ff1681565b60266020526000908152604090205481565b600080612892600086116026614f0d565b6000846128a7576128a288614678565b6128b0565b6128b088613289565b905060008187116128ca576128c58288614ecb565b6128d4565b6128d48783614ecb565b905060006128e6886118838b85614dc0565b9050600087156128f957508783116128fe565b508288115b600061291560115489614e7390919063ffffffff16565b4211612939576001600160a01b038c166000908152601f602052604090205461293c565b60005b905081801561295f57506129508b82614dc0565b61295c84612710614dc0565b11155b1561296957600092505b509a909950975050505050505050565b600260005414156129bf576040805162461bcd60e51b815260206004820152601f602482015260008051602061687c833981519152604482015290519081900360640190fd5b600260009081556001600160a01b0382168152601d60205260409020546129ea9060ff16600e614f0d565b60006129f58261521b565b9050612a0560008211600f614f0d565b612a0f828261548a565b604080516001600160a01b03841681526020810183905281517fa5a389190ebf6170a133bda5c769b77f4d6715b8aa172ec0ddf8473d0b4944bd929181900390910190a150506001600055565b601960209081526000928352604080842090915290825290205460ff1681565b60085481565b602f6020526000908152604090205481565b600154630100000090046001600160a01b031681565b3360008181526019602090815260408083206001600160a01b0386168085529252808320805460ff19169055519092917fbee3e974bb6a6f44f20096ede047c191eef60322e65e4ee4bd3392230a8716d591a350565b612b08614e58565b612b1e6001600160a01b03831615156038614f0d565b600654612b3b906001600160a01b03848116911614156039614f0d565b612b45828261571b565b5050565b620f424081565b612b58614e58565b600180546001600160a01b038316630100000081026301000000600160b81b03199092169190911790915560408051918252517fc396cb6d9f905e4303c2e7dceef2ae57b3175fea77537bfc2354babe808831ed9181900360200190a150565b600060026000541415612c00576040805162461bcd60e51b815260206004820152601f602482015260008051602061687c833981519152604482015290519081900360640190fd5b6002600055612c0d615797565b6001600160a01b0383166000908152601d6020526040902054612c349060ff166013614f0d565b6017805461ff001916610100179055600554600090612c5b906001600160a01b031661521b565b9050612c6b600082116014614f0d565b612c758485614ad0565b6000612c818583611afc565b9050612c91600082116015614f0d565b612c9b85836157c6565b612ca585826155a2565b60055460408051632770a7eb60e21b81523060048201526024810185905290516001600160a01b0390921691639dc29fac9160448082019260009290919082900301818387803b158015612cf857600080fd5b505af1158015612d0c573d6000803e3d6000fd5b5050600554612d2692506001600160a01b031690506158a8565b6001546040805163eb0835bf60e01b81526001600160a01b038881166004830152602482018690529151600093630100000090049092169163eb0835bf91604480820192602092909190829003018186803b158015612d8457600080fd5b505afa158015612d98573d6000803e3d6000fd5b505050506040513d6020811015612dae57600080fd5b505190506000612dbf878484615943565b9050612dcf600082116016614f0d565b612dda878288615a0b565b604080516001600160a01b03808916825289166020820152808201869052606081018390526080810184905290517fd732b7828fa6cee72c285eac756fc66a7477e3dc22e22e7c432f1c265d40b4839181900360a00190a16017805461ff001916905560016000559695505050505050565b612e54614e58565b600480546001600160a01b0383166001600160a01b0319909116811790915560408051918252517f40d8738b990e6ff9a2f56f11247e657a1e7070472260b020a4fc3ab1844787bd9181900360200190a150565b6004546001600160a01b031681565b600b5481565b3360009081526007602052604090208054612edb904210603a614f0d565b600180820154612ef49160ff909116151514603b614f0d565b6006805433600081815260076020526040808220828155600101805460ff1916905584546001600160a01b031916831790945592516001600160a01b0390921692909183917f5f56bee8cffbe9a78652a74a60705edede02af10b0bbb888ca44b79a0d42ce8091a35050565b612f68614e58565b6001805482151562010000810262ff0000199092169190911790915560408051918252517f2de4391e9889adc9fc7e3aca19eefeb5c979e8f2070d673621bc6d21bb4f15209181900360200190a150565b600060026000541415613001576040805162461bcd60e51b815260206004820152601f602482015260008051602061687c833981519152604482015290519081900360640190fd5b600260005561300e615797565b6001600160a01b0383166000908152601d60205260409020546130359060ff166010614f0d565b6017805461ff001916610100179055600061304f8461521b565b905061305f600082116011614f0d565b6130698485614ad0565b600061307485613289565b9050600061309268327cb2734119d3b7a9601e1b6118838585614dc0565b6005549091506130ae90829088906001600160a01b0316611fba565b90506130be600082116012614f0d565b6001546040805163256f6ee360e11b81526001600160a01b0389811660048301526024820185905291516000936301000000900490921691634adeddc691604480820192602092909190829003018186803b15801561311c57600080fd5b505afa158015613130573d6000803e3d6000fd5b505050506040513d602081101561314657600080fd5b505190506000613157888684615943565b9050600061317568327cb2734119d3b7a9601e1b6118838488614dc0565b6005549091506131919082908b906001600160a01b0316611fba565b905061319d8982615ab2565b6131a7898361548a565b600554604080516340c10f1960e01b81526001600160a01b038b8116600483015260248201859052915191909216916340c10f1991604480830192600092919082900301818387803b1580156131fc57600080fd5b505af1158015613210573d6000803e3d6000fd5b5050604080516001600160a01b03808d1682528d1660208201528082018a9052606081018590526080810187905290517fab4c77c74cd32c85f35416cf03e7ce9e2d4387f7b7f2c1f4bf53daaecf8ea72d93509081900360a0019150a16017805461ff0019169055600160005598975050505050505050565b60048054601754604080516317e1d38560e11b81526001600160a01b038681169582019590955260006024820181905260ff80851615156044840152610100909404909316151560648201529051919390921691632fc3a70a916084808301926020929190829003018186803b15801561330257600080fd5b505afa158015613316573d6000803e3d6000fd5b505050506040513d602081101561332c57600080fd5b505192915050565b60006002600054141561337c576040805162461bcd60e51b815260206004820152601f602482015260008051602061687c833981519152604482015290519081900360640190fd5b6002600055613389614fbe565b61339288614fda565b6133a188888888888888615b70565b600160005598975050505050505050565b6133ba614e58565b6001600160a01b038216600081815260286020908152604091829020849055815184815291517f353903ff62f3d637fe24bd36b8e8c98fe64b4800c768e4f575716328d4213ae39281900390910190a25050565b601281565b601f6020526000908152604090205481565b61342d614e58565b61343d610e10841015600a614f0d565b61344d612710831115600b614f0d565b61345d612710821115600c614f0d565b601383905560148290556015819055604080518481526020810184905280820183905290517fc6380af1a190f58aa0c39e80100ea619b8bec7ed9354b2f3b355d96a90b9f6e69181900360600190a1505050565b602e6020526000908152604090205481565b6007602052600090815260409020805460019091015460ff1682565b601e6020526000908152604090205481565b6134f9614e58565b600280546001600160a01b0383166001600160a01b0319909116811790915560408051918252517f05bc734bb488c8d942462278635ee88af10735003b8f95b85e6810e856d3b6169181900360200190a150565b60175462010000900460ff1681565b6000600260005414156135a4576040805162461bcd60e51b815260206004820152601f602482015260008051602061687c833981519152604482015290519081900360640190fd5b60026000556001546135bf90610100900460ff166017614f0d565b6001600160a01b0384166000908152601d60205260409020546135e69060ff166018614f0d565b6001600160a01b0383166000908152601d602052604090205461360d9060ff166019614f0d565b61362d836001600160a01b0316856001600160a01b03161415601a614f0d565b6017805461ff0019166101001790556136468480614ad0565b6136508384614ad0565b600061365b8561521b565b905061366b60008211601b614f0d565b600061367686613289565b9050600061368386614678565b90506000613695826118838686614dc0565b90506136a2818989611fba565b905060006136c068327cb2734119d3b7a9601e1b6118838787614dc0565b6005549091506136dc9082908b906001600160a01b0316611fba565b60015460408051636d099c0b60e11b81526001600160a01b038d811660048301528c8116602483015260448201859052915193945060009363010000009093049091169163da13381691606480820192602092909190829003018186803b15801561374657600080fd5b505afa15801561375a573d6000803e3d6000fd5b505050506040513d602081101561377057600080fd5b5051905060006137818a8584615943565b905061378d8b84615ab2565b6137978a846157c6565b6137a18b8861548a565b6137ab8a856155a2565b6137b48a6160a6565b6137bf8a828b615a0b565b604080516001600160a01b03808c168252808e1660208301528c1681830152606081018990526080810186905260a0810183905260c0810184905290517f0874b2d545cb271cdbda4e093020c452328b24af12382ed62c4d00f5c26709db9181900360e00190a16017805461ff001916905560016000559a9950505050505050505050565b68327cb2734119d3b7a9601e1b81565b60306020526000908152604090205481565b60135481565b60008161387b575060006118f6565b612055838361388986614678565b614a96565b613896614e58565b6001600160a01b0381166000908152600760205260409020600101546138c09060ff16603c614f0d565b6001600160a01b038116600081815260076020526040808220828155600101805460ff19169055513392917ffc6a2fa53abe2adfe8372a9495032d7e6458d3aed34fa880132b6c808da1e99c91a350565b6001600160a01b0383166000908152602e6020908152604080832054602f9092528220548285821161394c576139478683614ecb565b613956565b6139568287614ecb565b90506000613968836118838685614dc0565b905086831160006139798689614e73565b90506000826139915761398c8285614e73565b61399b565b61399b8285614ecb565b90506139ab816118838c85614dc0565b9b9a5050505050505050505050565b60125460ff1681565b600e5481565b6000816139d8575060006118f6565b612055838361388986613289565b6139ee614e58565b6001600160a01b0382166000818152601b6020908152604091829020805460ff1916851515908117909155825190815291517fff83ce179bad4fbdb0e98074011487cde624295a52d8189d92d5d8b06c914eda9281900390910190a25050565b6013546001600160a01b0382166000908152602b602052604081205490914291613a7791614e73565b1115613a855750600061188d565b6013546001600160a01b0383166000908152602b60205260408120549091613ab291611883904290614ecb565b6001600160a01b03841660009081526026602052604090205490915080613ade5760009250505061188d565b6001600160a01b038416600090815260208052604081205460ff16613b0557601454613b09565b6015545b6001600160a01b038616600090815260276020526040902054909150613b42908390611883908690613b3c908690614dc0565b90614dc0565b95945050505050565b60175460ff1681565b60236020526000908152604090205481565b60256020526000908152604090205481565b60095481565b601754610100900460ff1681565b6001600160a01b038116600090815260208052604081205460ff1615613bcb57506001600160a01b03811660009081526026602052604090205461188d565b6001600160a01b038216600090815260296020526040812054613bef90849061386c565b6001600160a01b03841660009081526027602090815260408083205460269092529091205491925061188991613c26908490614e73565b90614ecb565b6001546040805163b1cc53ab60e01b81526001600160a01b038681166004830152858116602483015284151560448301529151600093630100000090049092169163b1cc53ab91606480820192602092909190829003018186803b158015613c9357600080fd5b505afa158015613ca7573d6000803e3d6000fd5b505050506040513d6020811015613cbd57600080fd5b5051949350505050565b6001600160a01b0381166000908152602e6020526040812054819080613cf4576000809250925050613d5a565b6000613cff85614678565b6001600160a01b0386166000908152602f6020526040812054919250828211613d3157613d2c8383614ecb565b613d3b565b613d3b8284614ecb565b90506000613d4d836118838785614dc0565b9390921195509193505050505b915091565b60276020526000908152604090205481565b60145481565b602a6020526000908152604090205481565b6001546040805163c7e074c360e01b81526001600160a01b03888116600483015260248201889052604482018790526064820186905284151560848301529151600093630100000090049092169163c7e074c39160a480820192602092909190829003018186803b158015613dfd57600080fd5b505afa158015613e11573d6000803e3d6000fd5b505050506040513d6020811015613e2757600080fd5b50519695505050505050565b613e3b614e58565b613e4f6001600160a01b038316848361610e565b816001600160a01b0316836001600160a01b03167f3e2a14acc0fdcf12e05294203b3822d0d9b8b54f9d0977f8ef9e9392b6348545836040518082815260200191505060405180910390a3505050565b613ea7614e58565b613ebd6001600160a01b03821615156038614f0d565b600654613eda906001600160a01b03838116911614156039614f0d565b613ee68160001961571b565b50565b613ef1614e58565b60188190556040805182815290517f46a9321b7ebf95c579cb99b9008de9bdd310efaa558057ab7073d42e764d70c39181900360200190a150565b613f34614e58565b613f4361271082116002614f0d565b60098190556040805182815290517ff0aada89c1aeb5976a9e6fd505ec6dc3024f0e0b121fff9ce5bd4b40d54135a89181900360200190a150565b6001546040805163d54d5a9f60e01b81526001600160a01b03888116600483015287811660248301528681166044830152851515606483015284151560848301528251600094859463010000009091049092169263d54d5a9f9260a4808301939192829003018186803b158015613ff457600080fd5b505afa158015614008573d6000803e3d6000fd5b505050506040513d604081101561401e57600080fd5b508051602090910151909890975095505050505050565b61403d614e58565b6001600160a01b038216600090815260246020526040902054808211156140b6576140718361406c8484614ecb565b615ab2565b6040805183815290516001600160a01b038516917fe5af17d6478a3ad858d29f0d18482bdecee0d95ad36cfeeeefca420436a689ef919081900360200190a250612b45565b6140c9836140c48385614ecb565b6157c6565b6040805183815290516001600160a01b038516917fe5af17d6478a3ad858d29f0d18482bdecee0d95ad36cfeeeefca420436a689ef919081900360200190a2505050565b602b6020526000908152604090205481565b60115481565b6001546040805163369d949360e21b81526001600160a01b0389811660048301528881166024830152878116604483015286151560648301526084820186905260a482018590529151600093630100000090049092169163da76524c9160c480820192602092909190829003018186803b1580156141a257600080fd5b505afa1580156141b6573d6000803e3d6000fd5b505050506040513d60208110156141cc57600080fd5b5051979650505050505050565b601d6020526000908152604090205460ff1681565b60216020526000908152604090205460ff1681565b60008060006142158a8a8a8a88612881565b909250905060006142268a87614e73565b90506000881561425557836142445761423f8284614ecb565b61424e565b61424e8284614e73565b9050614276565b83614269576142648284614e73565b614273565b6142738284614ecb565b90505b614284816118838a85614dc0565b9c9b505050505050505050505050565b60165481565b600260005414156142e0576040805162461bcd60e51b815260206004820152601f602482015260008051602061687c833981519152604482015290519081900360640190fd5b60026000556017546301000000900460ff161561431557336000908152601a60205260409020546143159060ff166022614f0d565b6017805460ff191690556143298484614ad0565b600061433786868686611b41565b9050614341616829565b506000818152602c6020908152604091829020825160e08101845281548082526001830154938201939093526002820154938101939093526003810154606084015260048101546080840152600581015460a08401526006015460c08301526143ad9015156023614f0d565b6000806143be898989896000613f7e565b915091506143d182600014156024614f0d565b8160021415614406576143ee898989600087600001518b8f615b70565b50506017805460ff1916600117905550614666915050565b6000614412898361386c565b6001600160a01b038a166000908152602d60205260409020549091506144389082614e73565b6001600160a01b038a166000818152602d602090815260409182902093909355805191825291810184905280820183905290517f5d0c0019d3d45fadeb74eff9d2c9924d146d000ac6bcf3c28bf0ac3c9baa011a9181900360600190a16144a3898560800151616160565b86156144d257602084015184516144c4918b916144bf91614ecb565b61540b565b6144d2896124c48b8561386c565b6000876144e7576144e289614678565b6144f0565b6144f089613289565b90507f2e1f85a64a2f22cf2f0c42584e7c919ed4abe8d53675cff0f62bf1e95a1c676f868c8c8c8c8a600001518b602001518c608001518d60a001518a604051808b81526020018a6001600160a01b03168152602001896001600160a01b03168152602001886001600160a01b0316815260200187151581526020018681526020018581526020018481526020018381526020018281526020019a505050505050505050505060405180910390a1871580156145af5750846020015183105b156145dd5760208501516000906145c69085614ecb565b90506145db8b6145d68d8461386c565b61548a565b505b876145f0576145f0898660000151616215565b6000868152602c60205260408120818155600181018290556002810182905560038101829055600481018290556005810182905560060155600a5461463c908b906124c490829061386c565b6146528a61464c8c600a5461386c565b89615a0b565b50506017805460ff19166001179055505050505b50506001600055505050565b600f5481565b60048054601754604080516317e1d38560e11b81526001600160a01b03868116958201959095526001602482015260ff80841615156044830152610100909304909216151560648301525160009390921691632fc3a70a91608480820192602092909190829003018186803b15801561330257600080fd5b601c81815481106146fd57fe5b6000918252602090912001546001600160a01b0316905081565b61471f614e58565b6001600160a01b0381166000908152601d60205260409020546147469060ff16600d614f0d565b6001600160a01b03811660009081526023602052604090205460165461476b91614ecb565b6016556001600160a01b0381166000908152601d60209081526040808320805460ff19908116909155601e835281842084905560238352818420849055601f8352818420849055602583528184208490558280528184208054821690556021909252909120805490911690556008546147e5906001614ecb565b6008556040516001600160a01b038216907f40c99fa230c73ea426e0fd7fce25e2f0627d8d5dca16c0f92387c9583d0de01d90600090a250565b614827614e58565b6001600160a01b038216600081815260306020908152604091829020849055815184815291517faf0bd2f15075ba3d6f77aac90d32686473de962c7d9b66f43bd123130a7f4aec9281900390910190a25050565b60296020526000908152604090205481565b614895614e58565b601780548215156301000000810263ff000000199092169190911790915560408051918252517f53f0f07ea43dbe9cbfdb4cc3cf93b7ef7c85f4fb49d14c2507e5506aa82328e19181900360200190a150565b600680546001600160a01b031916331790556001805461490e9160ff9091161590614f0d565b60018054600380546001600160a01b03199081166001600160a01b039a8b1617909155600580548216988a16989098179097556004805490971695909716949094178555600a92835560149182556015556201000061010060ff19968716851761ff0019161762ff000019161783556207a8f06009556032600b55600c55601e600d819055600e55600f92909255601091909155617080601355601780549092161763ffffff0019169055565b60006149c5614e58565b6001600160a01b0383166000908152602d6020526040902054806149ed5760009150506118f6565b6001600160a01b0384166000908152602d6020526040812055614a11848285615a0b565b826001600160a01b0316846001600160a01b03167f5e110f8bc8a20b65dcc87f224bdf1cc039346e267118bae2739847f07321ffa8836040518082815260200191505060405180910390a39392505050565b601b6020526000908152604090205460ff1681565b6005546001600160a01b031681565b6003546001600160a01b031681565b600082614aa557506000612055565b6001600160a01b0384166000908152601e6020526040902054613b428361188386600a85900a614dc0565b6001546040805163fbfded6d60e01b81526001600160a01b03858116600483015284811660248301529151600093630100000090049092169163fbfded6d9160448082019260209290919082900301818787803b158015614b3057600080fd5b505af1158015614b44573d6000803e3d6000fd5b505050506040513d6020811015614b5a57600080fd5b5051905080614b695750612b45565b6001600160a01b0383166000908152602b6020526040902054614bb657601354614b9790613b3c4282614e19565b6001600160a01b0384166000908152602b602052604090205550612b45565b6013546001600160a01b0384166000908152602b60205260409020544291614bde9190614e73565b1115614bea5750612b45565b6000614bf584613a4e565b6001600160a01b0385166000908152602a6020526040902054909150614c1b9082614e73565b6001600160a01b0385166000908152602a6020526040902055601354614c4590613b3c4282614e19565b6001600160a01b0385166000818152602b6020908152604080832094909455602a8152908390205483519283529082015281517fa146fc154e1913322e9817d49f0d5c37466c24326e15de10e739a948be815eab929181900390910190a150505050565b610e1081565b6001546040805163fdaf6ac360e01b81526001600160a01b038881166004830152878116602483015286811660448301528515156064830152608482018590529151600093630100000090049092169163fdaf6ac39160a480820192602092909190829003018186803b158015613dfd57600080fd5b60316020908152600091825260409182902080548351601f600260001961010060018616150201909316929092049182018490048402810184019094528084529091830182828015614db85780601f10614d8d57610100808354040283529160200191614db8565b820191906000526020600020905b815481529060010190602001808311614d9b57829003601f168201915b505050505081565b600082614dcf575060006118f6565b82820282848281614ddc57fe5b04146120555760405162461bcd60e51b815260040180806020018281038252602181526020018061689c6021913960400191505060405180910390fd5b600061205583836040518060400160405280601a815260200179536166654d6174683a206469766973696f6e206279207a65726f60301b81525061627d565b600654614e71906001600160a01b031633146035614f0d565b565b600082820183811015612055576040805162461bcd60e51b815260206004820152601b60248201527a536166654d6174683a206164646974696f6e206f766572666c6f7760281b604482015290519081900360640190fd5b600061205583836040518060400160405280601e81526020017f536166654d6174683a207375627472616374696f6e206f766572666c6f77000081525061631f565b600081815260316020526040902082614fb95760405162461bcd60e51b8152602060048201908152825460026000196101006001841615020190911604602483018190529091829160449091019084908015614faa5780601f10614f7f57610100808354040283529160200191614faa565b820191906000526020600020905b815481529060010190602001808311614f8d57829003601f168201915b50509250505060405180910390fd5b505050565b601854614fca57614e71565b614e716018543a11156037614f0d565b336001600160a01b0382161415614ff057613ee6565b6003546001600160a01b031633141561500857613ee6565b6001600160a01b0381166000908152601960209081526040808320338452909152902054613ee69060ff166029614f0d565b80156150b25761505f826001600160a01b0316846001600160a01b031614602a614f0d565b6001600160a01b0383166000908152601d60205260409020546150869060ff16602b614f0d565b6001600160a01b03831660009081526020805260409020546150ad9060ff1615602c614f0d565b614fb9565b6001600160a01b0383166000908152601d60205260409020546150d99060ff16602d614f0d565b6001600160a01b03831660009081526020805260409020546150ff9060ff16602e614f0d565b6001600160a01b03821660009081526020805260409020546151269060ff1615602f614f0d565b6001600160a01b038216600090815260216020526040902054614fb99060ff166030614f0d565b60008061515d8989898989614caf565b9050600061516f8a8a8a8a8989614125565b905061517b8282614e73565b915060006151898a8461386c565b6001600160a01b038b166000908152602d60205260409020549091506151af9082614e73565b6001600160a01b038b166000818152602d602090815260409182902093909355805191825291810185905280820183905290517f5d0c0019d3d45fadeb74eff9d2c9924d146d000ac6bcf3c28bf0ac3c9baa011a9181900360600190a150909998505050505050505050565b6001600160a01b03811660008181526022602090815260408083205481516370a0823160e01b8152306004820152915193949093859391926370a08231926024808301939192829003018186803b15801561527557600080fd5b505afa158015615289573d6000803e3d6000fd5b505050506040513d602081101561529f57600080fd5b50516001600160a01b03851660009081526022602052604090208190559050611cc38183614ecb565b816152de576152d981156027614f0d565b612b45565b612b45818310156028614f0d565b6001600160a01b03821660009081526027602052604090205461530f9082614e73565b6001600160a01b0383166000908152602760208181526040808420859055602682529092205491526153449111156034614f0d565b604080516001600160a01b03841681526020810183905281517faa5649d82f5462be9d19b0f2b31a59b2259950a6076550bac9f3a1c07db9f66d929181900390910190a15050565b6001600160a01b0382166000908152602960205260409020546153af9082614e73565b6001600160a01b03831660008181526029602090815260409182902093909355805191825291810183905281517fd9d4761f75e0d0103b5cbeab941eeb443d7a56a35b5baf2a0787c03f03f4e474929181900390910190a15050565b6001600160a01b03821660009081526029602052604090205461542e9082614ecb565b6001600160a01b03831660008181526029602090815260409182902093909355805191825291810183905281517f34e07158b9db50df5613e591c44ea2ebc82834eff4a4dc3a46e000e608261d68929181900390910190a15050565b6001600160a01b0382166000908152602660205260409020546154ad9082614e73565b6001600160a01b03831660008181526026602090815260408083209490945583516370a0823160e01b8152306004820152935191936370a082319260248083019392829003018186803b15801561550357600080fd5b505afa158015615517573d6000803e3d6000fd5b505050506040513d602081101561552d57600080fd5b50516001600160a01b038416600090815260266020526040902054909150615559908210156031614f0d565b604080516001600160a01b03851681526020810184905281517f976177fbe09a15e5e43f848844963a42b41ef919ef17ff21a17a5421de8f4737929181900390910190a1505050565b604080518082018252601181527015985d5b1d0e881c1bdbdb105b5bdd5b9d607a1b6020808301919091526001600160a01b0385166000908152602690915291909120546155f191839061631f565b6001600160a01b038316600090815260266020908152604080832084905560279091529020546156249110156032614f0d565b604080516001600160a01b03841681526020810183905281517f112726233fbeaeed0f5b1dba5cb0b2b81883dee49fb35ff99fd98ed9f6d31eb0929181900390910190a15050565b6001600160a01b0382166000908152602e602052604090205461568f9082614e73565b6001600160a01b0383166000908152602e60209081526040808320939093556030905220548015614fb9576001600160a01b0383166000908152602e6020526040902054811015614fb9576040805162461bcd60e51b81526020600482015260116024820152705661756c743a206d61782073686f72747360781b604482015290519081900360640190fd5b604080518082018252828152600160208083018281526001600160a01b03871660008181526007845286902094518555905193909201805460ff1916931515939093179092558251848152925190927f02dd0697be46e764c3ba81094158781c31b235d03bb27a0daf1bdef0ec1084dd92908290030190a25050565b60175462010000900460ff1615614e7157336000908152601b6020526040902054614e719060ff166036614f0d565b6001600160a01b038216600090815260246020526040902054818111615841576001600160a01b0383166000818152602460209081526040808320929092558151928352820183905280517fe1e812596aac93a06ecc4ca627014d18e30f5c33b825160cc9d5c0ba61e452279281900390910190a150612b45565b61584b8183614ecb565b6001600160a01b03841660008181526024602090815260409182902093909355805191825291810184905281517fe1e812596aac93a06ecc4ca627014d18e30f5c33b825160cc9d5c0ba61e45227929181900390910190a1505050565b6000816001600160a01b03166370a08231306040518263ffffffff1660e01b815260040180826001600160a01b0316815260200191505060206040518083038186803b1580156158f757600080fd5b505afa15801561590b573d6000803e3d6000fd5b505050506040513d602081101561592157600080fd5b50516001600160a01b0390921660009081526022602052604090209190915550565b6000806159606127106118836159598287614ecb565b8790614dc0565b9050600061596e8583614ecb565b6001600160a01b0387166000908152602d60205260409020549091506159949082614e73565b6001600160a01b0387166000908152602d60205260409020557f47cd9dda0e50ce30bcaaacd0488452b596221c07ac402a581cfae4d3933cac2b866159d981846118a9565b604080516001600160a01b0390931683526020830191909152818101849052519081900360600190a150949350505050565b615a1f6001600160a01b038416828461610e565b604080516370a0823160e01b815230600482015290516001600160a01b038516916370a08231916024808301926020929190829003018186803b158015615a6557600080fd5b505afa158015615a79573d6000803e3d6000fd5b505050506040513d6020811015615a8f57600080fd5b50516001600160a01b039093166000908152602260205260409020929092555050565b6001600160a01b038216600090815260246020526040902054615ad59082614e73565b6001600160a01b0383166000908152602460209081526040808320939093556025905220548015615b27576001600160a01b038316600090815260246020526040902054615b27908210156033614f0d565b604080516001600160a01b03851681526020810184905281517f64243679a443432e2293343b77d411ff6144370404618f00ca0d2025d9ca9882929181900390910190a1505050565b600154604080516381d11a2360e01b81526001600160a01b038a8116600483015289811660248301528881166044830152606482018890526084820187905285151560a483015284811660c4830152915160009363010000009004909216916381d11a239160e4808201928692909190829003018186803b158015615bf457600080fd5b505afa158015615c08573d6000803e3d6000fd5b50505050615c168787614ad0565b6000615c2489898987611b41565b6000818152602c60205260409020805491925090615c45901515601f614f0d565b615c5786826000015410156020614f0d565b615c6987826001015410156021614f0d565b600181015481546004830154600091615c8691611883908b614dc0565b6004840154909150615c989082614ecb565b6004840155615ca78b82616160565b50600080615cb98d8d8d8d8d8d616379565b855491935091508914615e5d57615cd18c8c8a613c2c565b60038501558354615ce2908a614ecb565b8085556001850154615cf491906152c8565b615d028d8d8d8b6001613f7e565b50508715615d2f57615d258c61249d866001015486614ecb90919063ffffffff16565b615d2f8c8a61540b565b600088615d4457615d3f8c614678565b615d4d565b615d4d8c613289565b90507f93d75d64d1f84fc6f430a64fc578bdd4c1e090e90ea2d51773e626d19de56d30868f8f8f8f8f8f88615d828c8c614ecb565b60408051998a526001600160a01b0398891660208b015296881689880152949096166060880152608087019290925260a0860152151560c085015260e084019290925261010083019190915251908190036101200190a18454600186015460028701546003880154600489015460058a0154604080518d81526020810197909752868101959095526060860193909352608085019190915260a084015260c083015260e08201839052517f20853733b590dce729d9f4628682ebd9a34d2354e72679e66f43a008fc03b773918190036101000190a150616044565b8715615e7757615e6d8c8461538c565b615e778c8a61540b565b600088615e8c57615e878c614678565b615e95565b615e958c613289565b90507f93d75d64d1f84fc6f430a64fc578bdd4c1e090e90ea2d51773e626d19de56d30868f8f8f8f8f8f88615eca8c8c614ecb565b60408051998a526001600160a01b0398891660208b015296881689880152949096166060880152608087019290925260a0860152151560c085015260e084019290925261010083019190915251908190036101200190a18454600186015460028701546003880154600489015460058a0154604080518d81526020810197909752868101959095526060860193909352608085019190915260a084015260c0830152517f73af1d417d82c240fdb6d319b34ad884487c6bf2845d98980cc52ad9171cb4559181900360e00190a1600160039054906101000a90046001600160a01b03166001600160a01b0316634c89b68d876040518263ffffffff1660e01b815260040180828152602001915050600060405180830381600087803b158015615ff257600080fd5b505af1158015616006573d6000803e3d6000fd5b5050506000878152602c6020526040812081815560018101829055600281018290556003810182905560048101829055600581018290556006015550505b87616053576160538b8a616215565b811561609357871561606d5761606d8c6124c48e8561386c565b60006160798d8361386c565b90506160868d828a615a0b565b955061283d945050505050565b5060009c9b505050505050505050505050565b6001600160a01b0381166000908152602860209081526040808320546026909252909120541015613ee6576040805162461bcd60e51b815260206004820152600d60248201526c2b30bab63a1d10313ab33332b960991b604482015290519081900360640190fd5b604080516001600160a01b038416602482015260448082018490528251808303909101815260649091019091526020810180516001600160e01b031663a9059cbb60e01b179052614fb9908490616573565b604080518082018252601b81527a5661756c743a20696e73756666696369656e74207265736572766560281b6020808301919091526001600160a01b0385166000908152602790915291909120546161b991839061631f565b6001600160a01b03831660008181526027602090815260409182902093909355805191825291810183905281517f533cb5ed32be6a90284e96b5747a1bfc2d38fdb5768a6b5f67ff7d62144ed67b929181900390910190a15050565b6001600160a01b0382166000908152602e60205260409020548082111561625557506001600160a01b0382166000908152602e6020526040812055612b45565b61625f8183614ecb565b6001600160a01b0384166000908152602e6020526040902055505050565b600081836163095760405162461bcd60e51b81526004018080602001828103825283818151815260200191508051906020019080838360005b838110156162ce5781810151838201526020016162b6565b50505050905090810190601f1680156162fb5780820380516001836020036101000a031916815260200191505b509250505060405180910390fd5b50600083858161631557fe5b0495945050505050565b600081848411156163715760405162461bcd60e51b81526020600482018181528351602484015283519092839260449091019190850190808383600083156162ce5781810151838201526020016162b6565b505050900390565b600080600061638a89898987611b41565b6000818152602c602052604081208054600382015493945090926163b7918d918d918d918b918d9161514d565b90506000806000806163d88d876000015488600201548d8a60060154612881565b875491955085935091506163f0906118838d84614dc0565b9250505060008280156164035750600082115b1561643357506005840180548201905580886164335760006164258e8461386c565b90506164318e826155a2565b505b821580156164415750600082115b156164855760018501546164559083614ecb565b60018601558861647957600061646b8e8461386c565b90506164778e8261548a565b505b60058501805483900390555b8a156164ad57616495818c614e73565b60018601549091506164a7908c614ecb565b60018601555b84548a14156164d05760018501546164c6908290614e73565b6000600187015590505b80848111156164ea576164e38286614ecb565b905061651e565b60018601546164f99086614ecb565b6001870155891561651e5760006165108f8761386c565b905061651c8f826155a2565b505b60408051888152851515602082015280820185905290517f3ff41bdde87755b687ae83d0221a232b6be51a803330ed9661c1b5d0105e0d8a9181900360600190a1909e909d509b505050505050505050505050565b60606165c8826040518060400160405280602081526020017f5361666545524332303a206c6f772d6c6576656c2063616c6c206661696c6564815250856001600160a01b03166166249092919063ffffffff16565b805190915015614fb9578080602001905160208110156165e757600080fd5b5051614fb95760405162461bcd60e51b815260040180806020018281038252602a8152602001806168bd602a913960400191505060405180910390fd5b6060611cc38484600085856166388561673f565b616689576040805162461bcd60e51b815260206004820152601d60248201527f416464726573733a2063616c6c20746f206e6f6e2d636f6e7472616374000000604482015290519081900360640190fd5b60006060866001600160a01b031685876040518082805190602001908083835b602083106166c85780518252601f1990920191602091820191016166a9565b6001836020036101000a03801982511681845116808217855250505050505090500191505060006040518083038185875af1925050503d806000811461672a576040519150601f19603f3d011682016040523d82523d6000602084013e61672f565b606091505b509150915061283d828286616745565b3b151590565b60608315616754575081612055565b8251156167645782518084602001fd5b60405162461bcd60e51b81526020600482018181528451602484015284518593919283926044019190850190808383600083156162ce5781810151838201526020016162b6565b828054600181600116156101000203166002900490600052602060002090601f016020900481019282601f106167ec5782800160ff19823516178555616819565b82800160010185558215616819579182015b828111156168195782358255916020019190600101906167fe565b50616825929150616866565b5090565b6040518060e00160405280600081526020016000815260200160008152602001600081526020016000815260200160008152602001600081525090565b5b80821115616825576000815560010161686756fe5265656e7472616e637947756172643a207265656e7472616e742063616c6c00536166654d6174683a206d756c7469706c69636174696f6e206f766572666c6f775361666545524332303a204552433230206f7065726174696f6e20646964206e6f742073756363656564a2646970667358221220991c95dc02ae3b72082d3285937c690524fc5f8206bd4945a1b29f0e3c651d1b64736f6c634300060c003360806040523480156200001157600080fd5b50604051620025e9380380620025e9833981810160405260208110156200003757600080fd5b5051604080518082018252600a8152691554d10811d85b589a5d60b21b6020828101918252835180850190945260048452635553444760e01b9084015281519192916000916200008a918391906200033d565b508151620000a09060019060208501906200033d565b50600480546001600160a01b031916339081179091556000818152600960205260409020805460ff19166001179055620000db908262000106565b5050506001600160a01b03166000908152600c60205260409020805460ff19166001179055620003d9565b6001600160a01b0382166200014d5760405162461bcd60e51b8152600401808060200182810382526024815260200180620025c56024913960400191505060405180910390fd5b62000158826200023c565b6200017481600254620002db60201b620014991790919060201c565b6002556001600160a01b038216600090815260056020908152604090912054620001a991839062001499620002db821b17901c565b6001600160a01b03831660009081526005602090815260408083209390935560089052205460ff1615620001f757620001f381600354620002db60201b620014991790919060201c565b6003555b6040805182815290516001600160a01b038416916000917fddf252ad1be2c89b69c2b068fc378daa952ba7f163c4a11628f55a4df523b3ef9181900360200190a35050565b60005b600754811015620002d7576000600782815481106200025a57fe5b600091825260208220015460408051635fd6196560e01b81526001600160a01b03878116600483015291519190921693508392635fd61965926024808201939182900301818387803b158015620002b057600080fd5b505af1158015620002c5573d6000803e3d6000fd5b5050600190930192506200023f915050565b5050565b60008282018381101562000336576040805162461bcd60e51b815260206004820152601b60248201527f536166654d6174683a206164646974696f6e206f766572666c6f770000000000604482015290519081900360640190fd5b9392505050565b828054600181600116156101000203166002900490600052602060002090601f016020900481019282601f106200038057805160ff1916838001178555620003b0565b82800160010185558215620003b0579182015b82811115620003b057825182559160200191906001019062000393565b50620003be929150620003c2565b5090565b5b80821115620003be5760008155600101620003c3565b6121dc80620003e96000396000f3fe608060405234801561001057600080fd5b50600436106101c75760003560e01c806355b6ed5c1161010057806355b6ed5c146105485780636021726714610576578063622890771461059c57806370480275146105c257806370a08231146105e8578063817b1cd21461060e5780639554381a1461061657806395d89b411461063c578063996f11ee146106445780639dc29fac14610672578063a622ee7c1461069e578063a9059cbb146106c4578063a923fc40146106f0578063c93be63614610819578063ceb68c2314610821578063cfad57a214610847578063d92fc87e1461086d578063dd62ed3e1461089b578063fb30d916146108c9576101c7565b806301e33667146101cc57806306fdde0314610204578063095ea7b31461028157806312d43a51146102c15780631785f53c146102e557806318160ddd1461030b5780631e83409a1461032557806323b872dd1461034b578063256b5a0214610381578063276eab4e146103a757806327e235e314610448578063293d69871461046e578063313ce56714610476578063363000511461049457806340c10f19146104ba578063429b62e5146104e65780634cb5bbe31461050c57806352cd38d91461052b575b600080fd5b610202600480360360608110156101e257600080fd5b506001600160a01b038135811691602081013590911690604001356108ef565b005b61020c610955565b6040805160208082528351818301528351919283929083019185019080838360005b8381101561024657818101518382015260200161022e565b50505050905090810190601f1680156102735780820380516001836020036101000a031916815260200191505b509250505060405180910390f35b6102ad6004803603604081101561029757600080fd5b506001600160a01b0381351690602001356109e3565b604080519115158252519081900360200190f35b6102c96109f9565b604080516001600160a01b039092168252519081900360200190f35b610202600480360360208110156102fb57600080fd5b50356001600160a01b0316610a08565b610313610a76565b60408051918252519081900360200190f35b6102026004803603602081101561033b57600080fd5b50356001600160a01b0316610a7c565b6102ad6004803603606081101561036157600080fd5b506001600160a01b03813581169160208101359091169060400135610b33565b6102026004803603602081101561039757600080fd5b50356001600160a01b0316610ba3565b610202600480360360208110156103bd57600080fd5b810190602081018135600160201b8111156103d757600080fd5b8201836020820111156103e957600080fd5b803590602001918460208302840111600160201b8311171561040a57600080fd5b919080806020026020016040519081016040528093929190818152602001838360200280828437600092019190915250929550610c14945050505050565b6103136004803603602081101561045e57600080fd5b50356001600160a01b0316610c74565b6102ad610c86565b61047e610c8f565b6040805160ff9092168252519081900360200190f35b6102ad600480360360208110156104aa57600080fd5b50356001600160a01b0316610c94565b610202600480360360408110156104d057600080fd5b506001600160a01b038135169060200135610ca9565b6102ad600480360360208110156104fc57600080fd5b50356001600160a01b0316610d09565b6102026004803603602081101561052257600080fd5b50351515610d1e565b6102c96004803603602081101561054157600080fd5b5035610d7e565b6103136004803603604081101561055e57600080fd5b506001600160a01b0381358116916020013516610da5565b6103136004803603602081101561058c57600080fd5b50356001600160a01b0316610dc2565b610202600480360360208110156105b257600080fd5b50356001600160a01b0316610e0b565b610202600480360360208110156105d857600080fd5b50356001600160a01b0316610efe565b610313600480360360208110156105fe57600080fd5b50356001600160a01b0316610f6f565b610313610f8a565b6102ad6004803603602081101561062c57600080fd5b50356001600160a01b0316610fa8565b61020c610fbd565b6102026004803603604081101561065a57600080fd5b506001600160a01b0381358116916020013516611017565b6102026004803603604081101561068857600080fd5b506001600160a01b03813516906020013561111e565b6102ad600480360360208110156106b457600080fd5b50356001600160a01b031661117e565b6102ad600480360360408110156106da57600080fd5b506001600160a01b038135169060200135611193565b6102026004803603604081101561070657600080fd5b810190602081018135600160201b81111561072057600080fd5b82018360208201111561073257600080fd5b803590602001918460018302840111600160201b8311171561075357600080fd5b91908080601f0160208091040260200160405190810160405280939291908181526020018383808284376000920191909152509295949360208101935035915050600160201b8111156107a557600080fd5b8201836020820111156107b757600080fd5b803590602001918460018302840111600160201b831117156107d857600080fd5b91908080601f0160208091040260200160405190810160405280939291908181526020018383808284376000920191909152509295506111a0945050505050565b610313611214565b6102026004803603602081101561083757600080fd5b50356001600160a01b031661121a565b6102026004803603602081101561085d57600080fd5b50356001600160a01b0316611288565b6102026004803603604081101561088357600080fd5b506001600160a01b03813516906020013515156112f7565b610313600480360360408110156108b157600080fd5b506001600160a01b038135811691602001351661136f565b610202600480360360208110156108df57600080fd5b50356001600160a01b031661139a565b6004546001600160a01b0316331461093c576040805162461bcd60e51b8152602060048201526015602482015260008051602061215c833981519152604482015290519081900360640190fd5b6109506001600160a01b03841683836114f1565b505050565b6000805460408051602060026001851615610100026000190190941693909304601f810184900484028201840190925281815292918301828280156109db5780601f106109b0576101008083540402835291602001916109db565b820191906000526020600020905b8154815290600101906020018083116109be57829003601f168201915b505050505081565b60006109f0338484611543565b50600192915050565b6004546001600160a01b031681565b6004546001600160a01b03163314610a55576040805162461bcd60e51b8152602060048201526015602482015260008051602061215c833981519152604482015290519081900360640190fd5b6001600160a01b03166000908152600960205260409020805460ff19169055565b60025481565b60005b600754811015610b2f57600060078281548110610a9857fe5b6000918252602080832090910154604080516310e059a160e11b81523360048201526001600160a01b038881166024830152915191909216945084936321c0b34293604480850194919392918390030190829087803b158015610afa57600080fd5b505af1158015610b0e573d6000803e3d6000fd5b505050506040513d6020811015610b2457600080fd5b505050600101610a7f565b5050565b600080610b7e836040518060600160405280602d8152602001612109602d91396001600160a01b0388166000908152600660209081526040808320338452909152902054919061162f565b9050610b8b853383611543565b610b968585856116c6565b60019150505b9392505050565b6004546001600160a01b03163314610bf0576040805162461bcd60e51b8152602060048201526015602482015260008051602061215c833981519152604482015290519081900360640190fd5b6001600160a01b03166000908152600c60205260409020805460ff19166001179055565b6004546001600160a01b03163314610c61576040805162461bcd60e51b8152602060048201526015602482015260008051602061215c833981519152604482015290519081900360640190fd5b8051610b2f906007906020840190611e4f565b60056020526000908152604090205481565b600a5460ff1681565b601281565b600b6020526000908152604090205460ff1681565b336000908152600c602052604090205460ff16610cff576040805162461bcd60e51b815260206004820152600f60248201526e2aa9a2239d103337b93134b23232b760891b604482015290519081900360640190fd5b610b2f82826118dc565b60096020526000908152604090205460ff1681565b6004546001600160a01b03163314610d6b576040805162461bcd60e51b8152602060048201526015602482015260008051602061215c833981519152604482015290519081900360640190fd5b600a805460ff1916911515919091179055565b60078181548110610d8b57fe5b6000918252602090912001546001600160a01b0316905081565b600660209081526000928352604080842090915290825290205481565b6001600160a01b03811660009081526008602052604081205460ff1615610deb57506000610e06565b506001600160a01b0381166000908152600560205260409020545b919050565b3360009081526009602052604090205460ff16610e5d576040805162461bcd60e51b8152602060048201526015602482015260008051602061215c833981519152604482015290519081900360640190fd5b6001600160a01b03811660009081526008602052604090205460ff1615610eb55760405162461bcd60e51b8152600401808060200182810382526023815260200180611f636023913960400191505060405180910390fd5b610ebe816119ce565b6001600160a01b0381166000908152600860209081526040808320805460ff191660011790556005909152902054600354610ef891611499565b60035550565b6004546001600160a01b03163314610f4b576040805162461bcd60e51b8152602060048201526015602482015260008051602061215c833981519152604482015290519081900360640190fd5b6001600160a01b03166000908152600960205260409020805460ff19166001179055565b6001600160a01b031660009081526005602052604090205490565b6000610fa3600354600254611a6490919063ffffffff16565b905090565b60086020526000908152604090205460ff1681565b60018054604080516020600284861615610100026000190190941693909304601f810184900484028201840190925281815292918301828280156109db5780601f106109b0576101008083540402835291602001916109db565b3360009081526009602052604090205460ff16611069576040805162461bcd60e51b8152602060048201526015602482015260008051602061215c833981519152604482015290519081900360640190fd5b60005b6007548110156109505760006007828154811061108557fe5b6000918252602080832090910154604080516310e059a160e11b81526001600160a01b0389811660048301528881166024830152915191909216945084936321c0b34293604480850194919392918390030190829087803b1580156110e957600080fd5b505af11580156110fd573d6000803e3d6000fd5b505050506040513d602081101561111357600080fd5b50505060010161106c565b336000908152600c602052604090205460ff16611174576040805162461bcd60e51b815260206004820152600f60248201526e2aa9a2239d103337b93134b23232b760891b604482015290519081900360640190fd5b610b2f8282611aa6565b600c6020526000908152604090205460ff1681565b60006109f03384846116c6565b6004546001600160a01b031633146111ed576040805162461bcd60e51b8152602060048201526015602482015260008051602061215c833981519152604482015290519081900360640190fd5b8151611200906000906020850190611eb4565b508051610950906001906020840190611eb4565b60035481565b6004546001600160a01b03163314611267576040805162461bcd60e51b8152602060048201526015602482015260008051602061215c833981519152604482015290519081900360640190fd5b6001600160a01b03166000908152600c60205260409020805460ff19169055565b6004546001600160a01b031633146112d5576040805162461bcd60e51b8152602060048201526015602482015260008051602061215c833981519152604482015290519081900360640190fd5b600480546001600160a01b0319166001600160a01b0392909216919091179055565b6004546001600160a01b03163314611344576040805162461bcd60e51b8152602060048201526015602482015260008051602061215c833981519152604482015290519081900360640190fd5b6001600160a01b03919091166000908152600b60205260409020805460ff1916911515919091179055565b6001600160a01b03918216600090815260066020908152604080832093909416825291909152205490565b3360009081526009602052604090205460ff166113ec576040805162461bcd60e51b8152602060048201526015602482015260008051602061215c833981519152604482015290519081900360640190fd5b6001600160a01b03811660009081526008602052604090205460ff16611459576040805162461bcd60e51b815260206004820152601f60248201527f5969656c64546f6b656e3a205f6163636f756e74206e6f74206d61726b656400604482015290519081900360640190fd5b611462816119ce565b6001600160a01b0381166000908152600860209081526040808320805460ff191690556005909152902054600354610ef891611a64565b600082820183811015610b9c576040805162461bcd60e51b815260206004820152601b60248201527a536166654d6174683a206164646974696f6e206f766572666c6f7760281b604482015290519081900360640190fd5b604080516001600160a01b038416602482015260448082018490528251808303909101815260649091019091526020810180516001600160e01b031663a9059cbb60e01b179052610950908490611bbf565b6001600160a01b0383166115885760405162461bcd60e51b81526004018080602001828103825260298152602001806120e06029913960400191505060405180910390fd5b6001600160a01b0382166115cd5760405162461bcd60e51b81526004018080602001828103825260278152602001806120246027913960400191505060405180910390fd5b6001600160a01b03808416600081815260066020908152604080832094871680845294825291829020859055815185815291517f8c5be1e5ebec7d5bd14f71427d1e84f3dd0314c0f7b2291e5b200ac8c7c3b9259281900390910190a3505050565b600081848411156116be5760405162461bcd60e51b81526004018080602001828103825283818151815260200191508051906020019080838360005b8381101561168357818101518382015260200161166b565b50505050905090810190601f1680156116b05780820380516001836020036101000a031916815260200191505b509250505060405180910390fd5b505050900390565b6001600160a01b03831661170b5760405162461bcd60e51b815260040180806020018281038252602a815260200180611fae602a913960400191505060405180910390fd5b6001600160a01b0382166117505760405162461bcd60e51b8152600401808060200182810382526028815260200180611f866028913960400191505060405180910390fd5b600a5460ff16156117a957336000908152600b602052604090205460ff166117a95760405162461bcd60e51b81526004018080602001828103825260268152602001806121366026913960400191505060405180910390fd5b6117b2836119ce565b6117bb826119ce565b6117f8816040518060600160405280602b815260200161217c602b91396001600160a01b038616600090815260056020526040902054919061162f565b6001600160a01b0380851660009081526005602052604080822093909355908416815220546118279082611499565b6001600160a01b0380841660009081526005602090815260408083209490945591861681526008909152205460ff161561186c576003546118689082611a64565b6003555b6001600160a01b03821660009081526008602052604090205460ff161561189e5760035461189a9082611499565b6003555b816001600160a01b0316836001600160a01b0316600080516020612096833981519152836040518082815260200191505060405180910390a3505050565b6001600160a01b0382166119215760405162461bcd60e51b81526004018080602001828103825260248152602001806120726024913960400191505060405180910390fd5b61192a826119ce565b6002546119379082611499565b6002556001600160a01b03821660009081526005602052604090205461195d9082611499565b6001600160a01b03831660009081526005602090815260408083209390935560089052205460ff161561199b576003546119979082611499565b6003555b6040805182815290516001600160a01b038416916000916000805160206120968339815191529181900360200190a35050565b60005b600754811015610b2f576000600782815481106119ea57fe5b600091825260208220015460408051635fd6196560e01b81526001600160a01b03878116600483015291519190921693508392635fd61965926024808201939182900301818387803b158015611a3f57600080fd5b505af1158015611a53573d6000803e3d6000fd5b5050600190930192506119d1915050565b6000610b9c83836040518060400160405280601e81526020017f536166654d6174683a207375627472616374696f6e206f766572666c6f77000081525061162f565b6001600160a01b038216611aeb5760405162461bcd60e51b8152600401808060200182810382526026815260200180611fd86026913960400191505060405180910390fd5b611af4826119ce565b611b318160405180606001604052806027815260200161204b602791396001600160a01b038516600090815260056020526040902054919061162f565b6001600160a01b038316600090815260056020526040902055600254611b579082611a64565b6002556001600160a01b03821660009081526008602052604090205460ff1615611b8c57600354611b889082611a64565b6003555b6040805182815290516000916001600160a01b038516916000805160206120968339815191529181900360200190a35050565b6060611c14826040518060400160405280602081526020017f5361666545524332303a206c6f772d6c6576656c2063616c6c206661696c6564815250856001600160a01b0316611c709092919063ffffffff16565b80519091501561095057808060200190516020811015611c3357600080fd5b50516109505760405162461bcd60e51b815260040180806020018281038252602a8152602001806120b6602a913960400191505060405180910390fd5b6060611c7f8484600085611c87565b949350505050565b606082471015611cc85760405162461bcd60e51b8152600401808060200182810382526026815260200180611ffe6026913960400191505060405180910390fd5b611cd185611de3565b611d22576040805162461bcd60e51b815260206004820152601d60248201527f416464726573733a2063616c6c20746f206e6f6e2d636f6e7472616374000000604482015290519081900360640190fd5b60006060866001600160a01b031685876040518082805190602001908083835b60208310611d615780518252601f199092019160209182019101611d42565b6001836020036101000a03801982511681845116808217855250505050505090500191505060006040518083038185875af1925050503d8060008114611dc3576040519150601f19603f3d011682016040523d82523d6000602084013e611dc8565b606091505b5091509150611dd8828286611de9565b979650505050505050565b3b151590565b60608315611df8575081610b9c565b825115611e085782518084602001fd5b60405162461bcd60e51b815260206004820181815284516024840152845185939192839260440191908501908083836000831561168357818101518382015260200161166b565b828054828255906000526020600020908101928215611ea4579160200282015b82811115611ea457825182546001600160a01b0319166001600160a01b03909116178255602090920191600190910190611e6f565b50611eb0929150611f2e565b5090565b828054600181600116156101000203166002900490600052602060002090601f016020900481019282601f10611ef557805160ff1916838001178555611f22565b82800160010185558215611f22579182015b82811115611f22578251825591602001919060010190611f07565b50611eb0929150611f4d565b5b80821115611eb05780546001600160a01b0319168155600101611f2f565b5b80821115611eb05760008155600101611f4e56fe5969656c64546f6b656e3a205f6163636f756e7420616c7265616479206d61726b65645969656c64546f6b656e3a207472616e7366657220746f20746865207a65726f20616464726573735969656c64546f6b656e3a207472616e736665722066726f6d20746865207a65726f20616464726573735969656c64546f6b656e3a206275726e2066726f6d20746865207a65726f2061646472657373416464726573733a20696e73756666696369656e742062616c616e636520666f722063616c6c5969656c64546f6b656e3a20617070726f766520746f20746865207a65726f20616464726573735969656c64546f6b656e3a206275726e20616d6f756e7420657863656564732062616c616e63655969656c64546f6b656e3a206d696e7420746f20746865207a65726f2061646472657373ddf252ad1be2c89b69c2b068fc378daa952ba7f163c4a11628f55a4df523b3ef5361666545524332303a204552433230206f7065726174696f6e20646964206e6f7420737563636565645969656c64546f6b656e3a20617070726f76652066726f6d20746865207a65726f20616464726573735969656c64546f6b656e3a207472616e7366657220616d6f756e74206578636565647320616c6c6f77616e63655969656c64546f6b656e3a206d73672e73656e646572206e6f742077686974656c69737465645969656c64546f6b656e3a20666f7262696464656e00000000000000000000005969656c64546f6b656e3a207472616e7366657220616d6f756e7420657863656564732062616c616e6365a2646970667358221220e5314c62b8cedb3da9ff88887b74441d7ab532a128239166fbd6386e6181d3c864736f6c634300060c00335969656c64546f6b656e3a206d696e7420746f20746865207a65726f206164647265737360806040526002805461ffff60b01b1960ff60a81b1960ff60a01b19909216600160a01b1791909116600160a81b17169055600380556000600455601e60065534801561004b57600080fd5b50600080546001600160a01b031916331790556129188061006d6000396000f3fe608060405234801561001057600080fd5b50600436106102a35760003560e01c80637bc6729b1161016e5780637bc6729b146105f3578063826e055f146105fb5780638b86616c146106215780638c7c9e0c146106295780638d0fedb01461063157806393f690741461067057806395082d2514610535578063971bd396146106a857806397dfade7146106b05780639917dc74146106b85780639a0a6635146106d75780639b18dc47146106fd5780639b889380146107055780639c35b497146107315780639dcb511a14610757578063a27ea3861461077d578063a28d57d8146107a3578063a2ad7b93146107ab578063a39c73a3146107d9578063b02a2de4146107e1578063b731dd8714610815578063b8f6110514610832578063c2138d8c14610858578063cefe0f211461087e578063cfad57a2146108a4578063d694376c146108ca578063e4440e02146108fe578063eb1c92a914610906578063fd34ec4014610925576102a3565b80630957aed9146102a85780631193c809146102c2578063126082cf146102e657806312d43a51146102ee5780632fa03b8f146102f65780632fbfe3d3146103155780632fc3a70a1461033257806330536ee514610370578063378e7bf71461038c5780633d949c5f146103945780633eba8d36146103ca5780633ebbc601146103fe5780633f0c3bb714610406578063443be2091461040e57806348cac2771461044657806349a876e41461046c5780634a4b1f4f146104745780634b9ade471461047c57806356bf9de4146104ba57806356c8c2c1146104e0578063593d9e801461050e578063604f37e91461051657806367781c0e146105355780636bb22fd71461053d5780636ce8a44b146105695780636fc807081461058f578063717cfe7a14610597578063732391b4146105bd575b600080fd5b6102b0610944565b60408051918252519081900360200190f35b6102ca610949565b604080516001600160a01b039092168252519081900360200190f35b6102b0610958565b6102ca61095e565b6103136004803603602081101561030c57600080fd5b503561096d565b005b6103136004803603602081101561032b57600080fd5b5035610a34565b6102b06004803603608081101561034857600080fd5b506001600160a01b038135169060208101351515906040810135151590606001351515610abc565b610378610b7a565b604080519115158252519081900360200190f35b6102b0610b8a565b6102b0600480360360608110156103aa57600080fd5b506001600160a01b03813516906020810135151590604001351515610b90565b6102b0600480360360608110156103e057600080fd5b506001600160a01b0381351690602081013590604001351515610d69565b610378610e13565b610378610e23565b6103136004803603606081101561042457600080fd5b506001600160a01b038135811691602081013582169160409091013516610e33565b6102b06004803603602081101561045c57600080fd5b50356001600160a01b0316610f02565b6102ca610f14565b6102b0610f23565b6103136004803603608081101561049257600080fd5b506001600160a01b038135811691602081013590911690604081013590606001351515610f28565b6102b0600480360360208110156104d057600080fd5b50356001600160a01b031661100b565b6102b0600480360360408110156104f657600080fd5b506001600160a01b0381351690602001351515611022565b610378611473565b6103136004803603602081101561052c57600080fd5b50351515611483565b6102b0611523565b6103136004803603604081101561055357600080fd5b506001600160a01b038135169060200135611533565b6103786004803603602081101561057f57600080fd5b50356001600160a01b031661164c565b6102b0611661565b6102b0600480360360208110156105ad57600080fd5b50356001600160a01b0316611667565b6102b0600480360360608110156105d357600080fd5b506001600160a01b03813516906020810135151590604001351515611679565b61031361173c565b6103136004803603602081101561061157600080fd5b50356001600160a01b0316611851565b6102ca6118f2565b6102ca611901565b6106576004803603602081101561064757600080fd5b50356001600160a01b0316611910565b6040805192835290151560208301528051918290030190f35b6103136004803603606081101561068657600080fd5b506001600160a01b03813581169160208101358216916040909101351661192c565b6102ca6119fb565b6102ca611a0a565b610313600480360360208110156106ce57600080fd5b50351515611a19565b610313600480360360208110156106ed57600080fd5b50356001600160a01b0316611ab9565b6102b0611b5a565b6103136004803603604081101561071b57600080fd5b506001600160a01b038135169060200135611b60565b6103136004803603602081101561074757600080fd5b50356001600160a01b0316611c41565b6102ca6004803603602081101561076d57600080fd5b50356001600160a01b0316611d3c565b6102b06004803603602081101561079357600080fd5b50356001600160a01b0316611d57565b6102ca611d69565b6102b0600480360360408110156107c157600080fd5b506001600160a01b0381351690602001351515611d78565b6102b0611e65565b6102b0600480360360608110156107f757600080fd5b506001600160a01b0381351690602081013515159060400135611e6b565b6103136004803603602081101561082b57600080fd5b5035611f33565b6103786004803603602081101561084857600080fd5b50356001600160a01b0316611fbb565b6102b06004803603602081101561086e57600080fd5b50356001600160a01b0316611fd0565b6102b06004803603602081101561089457600080fd5b50356001600160a01b03166120ce565b610313600480360360208110156108ba57600080fd5b50356001600160a01b03166120e0565b610313600480360360608110156108e057600080fd5b506001600160a01b03813516906020810135151590604001356121fa565b6102ca612374565b6103136004803603602081101561091c57600080fd5b50351515612383565b6103136004803603602081101561093b57600080fd5b50351515612423565b603281565b600b546001600160a01b031681565b61271081565b6000546001600160a01b031681565b6000546001600160a01b031633146109ba576040805162461bcd60e51b81526020600482015260196024820152600080516020612852833981519152604482015290519081900360640190fd5b600081116109f95760405162461bcd60e51b81526004018080602001828103825260298152602001806127906029913960400191505060405180910390fd5b60038190556040805182815290517f7c3b6b2aeda3be777e04c904d4e0b74adffb856717e9640c7b3b350e44f912d99181900360200190a150565b6000546001600160a01b03163314610a81576040805162461bcd60e51b81526020600482015260196024820152600080516020612852833981519152604482015290519081900360640190fd5b60048190556040805182815290517fc622b838ebb1e83abaaa922ed48b5c0114ca368393ffcbd0fee10942607e62129181900360200190a150565b6002546000908190600160b01b900460ff16610ae257610add868686610b90565b610aed565b610aed868686611679565b6001600160a01b0387166000908152601160205260409020549091508015610b70576001600160a01b03871660009081526012602052604090205460ff168015610b5857610b51612710610b4b610b4482866124c3565b869061251b565b90612574565b9250610b6e565b610b6b612710610b4b610b4482866125b3565b92505b505b5095945050505050565b600254600160b01b900460ff1681565b60045481565b600080828015610ba95750600254600160a01b900460ff165b15610bee576000610bb986611fd0565b90508015610bec57848015610bcd57508181115b15610bd6578091505b84158015610be357508181105b15610bec578091505b505b600254600160a81b900460ff1615610c1257610c0b858286610d69565b9050610c1f565b610c1c8585611022565b90505b6001600160a01b03851660009081526010602052604090205460ff1615610d0857600068327cb2734119d3b7a9601e1b8211610c7057610c6b68327cb2734119d3b7a9601e1b836125b3565b610c86565b610c868268327cb2734119d3b7a9601e1b6125b3565b90506004548111610ca75768327cb2734119d3b7a9601e1b92505050610d62565b848015610cbf575068327cb2734119d3b7a9601e1b82115b15610ccc57509050610d62565b84158015610ce5575068327cb2734119d3b7a9601e1b82105b15610cf257509050610d62565b68327cb2734119d3b7a9601e1b92505050610d62565b6001600160a01b0385166000908152600f60205260409020548415610d4a57610d41612710610b4b610d3a82856124c3565b859061251b565b92505050610d62565b610d5d612710610b4b610d3a82856125b3565b925050505b9392505050565b6005546000906001600160a01b0316610d83575081610d62565b60055460408051630ffd9c6d60e31b81526001600160a01b03878116600483015260248201879052851515604483015291519190921691637fece368916064808301926020929190829003018186803b158015610ddf57600080fd5b505afa158015610df3573d6000803e3d6000fd5b505050506040513d6020811015610e0957600080fd5b5051949350505050565b600254600160a81b900460ff1681565b600254600160a01b900460ff1681565b6000546001600160a01b03163314610e80576040805162461bcd60e51b81526020600482015260196024820152600080516020612852833981519152604482015290519081900360640190fd5b600780546001600160a01b038086166001600160a01b031992831681179093556008805486831690841681179091556009805492861692909316821790925560408051938452602084019290925282820152517f5b298d21a3f20895e495bf3dcb889649b4381249a094782f2c49e9f5d015b9c59181900360600190a1505050565b60116020526000908152604090205481565b6009546001600160a01b031681565b601481565b6000546001600160a01b03163314610f75576040805162461bcd60e51b81526020600482015260196024820152600080516020612852833981519152604482015290519081900360640190fd5b6001600160a01b038085166000818152600d6020908152604080832080549589166001600160a01b031990961686179055600e82528083208790556010825291829020805486151560ff1990911681179091558251948552908401869052838201525190917f9b45dfaa6db47d0d20f6193401c13eb6b614412ccadfff13f6c0aee88c72d194919081900360600190a250505050565b600061101a8260006001610d69565b90505b919050565b6001600160a01b038083166000908152600d60205260408120549091168061107b5760405162461bcd60e51b81526004018080602001828103825260228152602001806128c16022913960400191505060405180910390fd5b6002546001600160a01b0316156111585760025460408051631abf23ff60e11b815273a438451d6458044c3c8cd2f6f31c91ac882a6d91600482015290516000926001600160a01b03169163357e47fe916024808301926020929190829003018186803b1580156110eb57600080fd5b505afa1580156110ff573d6000803e3d6000fd5b505050506040513d602081101561111557600080fd5b5051905080156111565760405162461bcd60e51b81526004018080602001828103825260258152602001806128726025913960400191505060405180910390fd5b505b6000819050600080826001600160a01b031663668a0f026040518163ffffffff1660e01b815260040160206040518083038186803b15801561119957600080fd5b505afa1580156111ad573d6000803e3d6000fd5b505050506040513d60208110156111c357600080fd5b5051905060005b600354816001600160501b031610156113ee57806001600160501b0316826001600160501b0316116111fb576113ee565b60006001600160501b0382166112d0576000856001600160a01b03166350d25bcd6040518163ffffffff1660e01b815260040160206040518083038186803b15801561124657600080fd5b505afa15801561125a573d6000803e3d6000fd5b505050506040513d602081101561127057600080fd5b50519050600081136112c9576040805162461bcd60e51b815260206004820152601d60248201527f5661756c745072696365466565643a20696e76616c6964207072696365000000604482015290519081900360640190fd5b90506113aa565b6000856001600160a01b0316639a6fc8f58486036040518263ffffffff1660e01b815260040180826001600160501b0316815260200191505060a06040518083038186803b15801561132157600080fd5b505afa158015611335573d6000803e3d6000fd5b505050506040513d60a081101561134b57600080fd5b50602001519050600081136113a7576040805162461bcd60e51b815260206004820152601d60248201527f5661756c745072696365466565643a20696e76616c6964207072696365000000604482015290519081900360640190fd5b90505b836113b65792506113e6565b8780156113c257508381115b156113ce5792506113e6565b871580156113db57508381105b156113e4578093505b505b6001016111ca565b506000821161142e5760405162461bcd60e51b81526004018080602001828103825260258152602001806127b96025913960400191505060405180910390fd5b6001600160a01b0387166000908152600e6020526040902054611465600a82900a610b4b8568327cb2734119d3b7a9601e1b61251b565b955050505050505b92915050565b600254600160b81b900460ff1681565b6000546001600160a01b031633146114d0576040805162461bcd60e51b81526020600482015260196024820152600080516020612852833981519152604482015290519081900360640190fd5b60028054821515600160b81b810260ff60b81b199092169190911790915560408051918252517fad53b87b1562ba42c00c3e7447a8eb4c42aff68c15e15a38c3c13c51225eb37f9181900360200190a150565b68327cb2734119d3b7a9601e1b81565b6000546001600160a01b03163314611580576040805162461bcd60e51b81526020600482015260196024820152600080516020612852833981519152604482015290519081900360640190fd5b6001600160a01b0382166115db576040805162461bcd60e51b815260206004820152601f60248201527f5661756c745072696365466565643a20696e76616c6964206164647265737300604482015290519081900360640190fd5b6000546001600160a01b038381169116141561163e576040805162461bcd60e51b815260206004820152601f60248201527f5661756c745072696365466565643a2073616d6520676f7665726e616e636500604482015290519081900360640190fd5b61164882826125f5565b5050565b60126020526000908152604090205460ff1681565b60035481565b60136020526000908152604090205481565b6001600160a01b038316600090815260106020526040812054819060ff16156116b15768327cb2734119d3b7a9601e1b915050610d62565b8280156116c75750600254600160a01b900460ff165b156116da576116d7858583611e6b565b90505b600254600160a81b900460ff16156116fe576116f7858286610d69565b9050610d08565b6117088585611022565b90506001600160a01b0385166000908152600f60205260409020548415610d4a57610d41612710610b4b610d3a82856124c3565b336000908152600160205260409020805442106117a0576040805162461bcd60e51b815260206004820181905260248201527f5661756c745072696365466565643a20646561646c696e652065787069726564604482015290519081900360640190fd5b60018082015460ff161515146117e75760405162461bcd60e51b81526004018080602001828103825260268152602001806127ff6026913960400191505060405180910390fd5b6000805433808352600160208190526040808520858155909101805460ff1916905583546001600160a01b03191682178455516001600160a01b0390921692909183917f5f56bee8cffbe9a78652a74a60705edede02af10b0bbb888ca44b79a0d42ce8091a35050565b6000546001600160a01b0316331461189e576040805162461bcd60e51b81526020600482015260196024820152600080516020612852833981519152604482015290519081900360640190fd5b600280546001600160a01b0383166001600160a01b0319909116811790915560408051918252517f7f08e61a275056726c79a2055aad393ddfb85587ddbbb7acd3da0703539cde639181900360200190a150565b6005546001600160a01b031681565b6008546001600160a01b031681565b6001602081905260009182526040909120805491015460ff1682565b6000546001600160a01b03163314611979576040805162461bcd60e51b81526020600482015260196024820152600080516020612852833981519152604482015290519081900360640190fd5b600a80546001600160a01b038086166001600160a01b03199283168117909355600b80548683169084168117909155600c805492861692909316821790925560408051938452602084019290925282820152517fde7694cd70a3de149db47d6708c6707f47eb1e6f041b1185343d1cf5e7f01f219181900360600190a1505050565b600c546001600160a01b031681565b600a546001600160a01b031681565b6000546001600160a01b03163314611a66576040805162461bcd60e51b81526020600482015260196024820152600080516020612852833981519152604482015290519081900360640190fd5b60028054821515600160a01b810260ff60a01b199092169190911790915560408051918252517feb0ff249f7c02dc13f8a9c79d80e7122f10529a829a22324e9275b45b49ed3099181900360200190a150565b6000546001600160a01b03163314611b06576040805162461bcd60e51b81526020600482015260196024820152600080516020612852833981519152604482015290519081900360640190fd5b600580546001600160a01b0383166001600160a01b0319909116811790915560408051918252517ff8b4ad4d125a153fcb80a1961d19e8ba76d652260935cb6637229ec8dee00ded9181900360200190a150565b611c2081565b6000546001600160a01b03163314611bad576040805162461bcd60e51b81526020600482015260196024820152600080516020612852833981519152604482015290519081900360640190fd5b6032811115611bed5760405162461bcd60e51b815260040180806020018281038252602a815260200180612897602a913960400191505060405180910390fd5b6001600160a01b0382166000818152600f6020908152604091829020849055815184815291517f1530ca33788267029c537a78b003f2498e88d8be14ce5cabb35c29fcf949501e9281900390910190a25050565b6000546001600160a01b03163314611c8e576040805162461bcd60e51b81526020600482015260196024820152600080516020612852833981519152604482015290519081900360640190fd5b6001600160a01b0381166000908152600160208190526040909120015460ff16611ce95760405162461bcd60e51b815260040180806020018281038252602381526020018061276d6023913960400191505060405180910390fd5b6001600160a01b0381166000818152600160208190526040808320838155909101805460ff19169055513392917ffc6a2fa53abe2adfe8372a9495032d7e6458d3aed34fa880132b6c808da1e99c91a350565b600d602052600090815260409020546001600160a01b031681565b600f6020526000908152604090205481565b6007546001600160a01b031681565b6000806000846001600160a01b0316630902f1ac6040518163ffffffff1660e01b815260040160606040518083038186803b158015611db657600080fd5b505afa158015611dca573d6000803e3d6000fd5b505050506040513d6060811015611de057600080fd5b5080516020909101516001600160701b0391821693501690508315611e325781611e0f5760009250505061146d565b611e2982610b4b8368327cb2734119d3b7a9601e1b61251b565b9250505061146d565b80611e425760009250505061146d565b611e5c81610b4b8468327cb2734119d3b7a9601e1b61251b565b95945050505050565b60065481565b600080611e7785611fd0565b905080611e875782915050610d62565b6000838211611e9f57611e9a84836125b3565b611ea9565b611ea982856125b3565b9050611ec06006548561251b90919063ffffffff16565b611ecc8261271061251b565b1015611ef657600254600160b81b900460ff1615611eee578392505050610d62565b509050610d62565b848015611f0257508382115b15611f0f57509050610d62565b84158015611f1c57508382105b15611f2957509050610d62565b5091949350505050565b6000546001600160a01b03163314611f80576040805162461bcd60e51b81526020600482015260196024820152600080516020612852833981519152604482015290519081900360640190fd5b60068190556040805182815290517f7374029f100d0540bc8e95addcdd38c503a1c4ff8a5963aca62dadff8e0a73899181900360200190a150565b60106020526000908152604090205460ff1681565b6009546000906001600160a01b038381169116141561200757600a54612000906001600160a01b03166001611d78565b905061101d565b6008546001600160a01b038381169116141561207957600a54600090612037906001600160a01b03166001611d78565b600b54909150600090612054906001600160a01b03166001611d78565b905061207068327cb2734119d3b7a9601e1b610b4b848461251b565b9250505061101d565b6007546001600160a01b03838116911614156120c657600a546000906120a9906001600160a01b03166001611d78565b600c54909150600090612054906001600160a01b03166001611d78565b506000919050565b600e6020526000908152604090205481565b6000546001600160a01b0316331461212d576040805162461bcd60e51b81526020600482015260196024820152600080516020612852833981519152604482015290519081900360640190fd5b6001600160a01b038116612188576040805162461bcd60e51b815260206004820152601f60248201527f5661756c745072696365466565643a20696e76616c6964206164647265737300604482015290519081900360640190fd5b6000546001600160a01b03828116911614156121eb576040805162461bcd60e51b815260206004820152601f60248201527f5661756c745072696365466565643a2073616d6520676f7665726e616e636500604482015290519081900360640190fd5b6121f7816000196125f5565b50565b6000546001600160a01b03163314612247576040805162461bcd60e51b81526020600482015260196024820152600080516020612852833981519152604482015290519081900360640190fd5b6001600160a01b038316600090815260136020526040902054429061226e90611c206124c3565b106122aa5760405162461bcd60e51b815260040180806020018281038252602d815260200180612825602d913960400191505060405180910390fd5b60148111156122f9576040805162461bcd60e51b8152602060048201526016602482015275696e76616c6964205f61646a7573746d656e7442707360501b604482015290519081900360640190fd5b6001600160a01b0383166000818152601260209081526040808320805460ff1916871515908117909155601183528184208690556013835292819020429055805192835290820184905280517fa8cdd95341505a1c08a6ffb6ddfd232c030a1a6292040e7bbd3cfdb47221d71a9281900390910190a2505050565b6002546001600160a01b031681565b6000546001600160a01b031633146123d0576040805162461bcd60e51b81526020600482015260196024820152600080516020612852833981519152604482015290519081900360640190fd5b60028054821515600160a81b810260ff60a81b199092169190911790915560408051918252517f6b9a20adadaedeb0de5f2d17babb5306845bb43449084a6349bb9fbe5c956f2c9181900360200190a150565b6000546001600160a01b03163314612470576040805162461bcd60e51b81526020600482015260196024820152600080516020612852833981519152604482015290519081900360640190fd5b60028054821515600160b01b810260ff60b01b199092169190911790915560408051918252517f728bd952e85b583806a115d509fbbeba520f1404c7a659f539c6dc3fba8fd54c9181900360200190a150565b600082820183811015610d62576040805162461bcd60e51b815260206004820152601b60248201527a536166654d6174683a206164646974696f6e206f766572666c6f7760281b604482015290519081900360640190fd5b60008261252a5750600061146d565b8282028284828161253757fe5b0414610d625760405162461bcd60e51b81526004018080602001828103825260218152602001806127de6021913960400191505060405180910390fd5b6000610d6283836040518060400160405280601a815260200179536166654d6174683a206469766973696f6e206279207a65726f60301b815250612670565b6000610d6283836040518060400160405280601e81526020017f536166654d6174683a207375627472616374696f6e206f766572666c6f770000815250612712565b604080518082018252828152600160208083018281526001600160a01b038716600081815284845286902094518555905193909201805460ff1916931515939093179092558251848152925190927f02dd0697be46e764c3ba81094158781c31b235d03bb27a0daf1bdef0ec1084dd92908290030190a25050565b600081836126fc5760405162461bcd60e51b81526004018080602001828103825283818151815260200191508051906020019080838360005b838110156126c15781810151838201526020016126a9565b50505050905090810190601f1680156126ee5780820380516001836020036101000a031916815260200191505b509250505060405180910390fd5b50600083858161270857fe5b0495945050505050565b600081848411156127645760405162461bcd60e51b81526020600482018181528351602484015283519092839260449091019190850190808383600083156126c15781810151838201526020016126a9565b50505090039056fe5661756c745072696365466565643a2070726f706f73616c206e6f74206163746976655661756c745072696365466565643a20696e76616c6964205f707269636553616d706c6553706163655661756c745072696365466565643a20636f756c64206e6f74206665746368207072696365536166654d6174683a206d756c7469706c69636174696f6e206f766572666c6f775661756c745072696365466565643a2070726f706f73616c206973206e6f74206163746976655661756c745072696365466565643a2061646a7573746d656e74206672657175656e63792065786365656465645661756c745072696365466565643a20666f7262696464656e00000000000000436861696e6c696e6b20666565647320617265206e6f74206265696e6720757064617465645661756c745072696365466565643a20696e76616c6964205f7370726561644261736973506f696e74735661756c745072696365466565643a20696e76616c69642070726963652066656564a26469706673582212208b2f71c7b5c80728ad0fcde32d64a80bb0fda56b90f66c3a6d516bcc475927f964736f6c634300060c003360a060405234801561001057600080fd5b50604051611f4d380380611f4d8339818101604052602081101561003357600080fd5b5051606081901b6001600160601b0319166080526001600160a01b0316611e826100cb6000398061064f52806106ec528061077752806108a75280610a855280610b285280610bba5280610c865280610e6e52806111f15280611291528061133452806113be528061144d52806114d752806115b4528061168a528061172752806117a252806117eb5280611a005250611e826000f3fe608060405234801561001057600080fd5b50600436106100fc5760003560e01c8063053dfe2814610101578063126082cf1461017f5780631c35257d1461019957806337fa9836146101b65780634adeddc6146101be5780634c89b68d146101ea5780636be6026b14610209578063725ede311461021157806381d11a23146102635780638ce6adac146102b75780639d5c28fa146102fb578063b1cc53ab1461033f578063c7e074c314610377578063d54d5a9f146103b7578063da13381614610416578063da76524c1461044c578063eb0835bf14610496578063fbfa77cf146104c2578063fbfded6d146104e6578063fdaf6ac314610528575b600080fd5b6101246004803603604081101561011757600080fd5b508035906020013561056c565b6040518080602001838152602001828103825284818151815260200191508051906020019060200280838360005b8381101561016a578181015183820152602001610152565b50505050905001935050505060405180910390f35b61018761061d565b60408051918252519081900360200190f35b610187600480360360208110156101af57600080fd5b5035610623565b610187610635565b610187600480360360408110156101d457600080fd5b506001600160a01b038135169060200135610646565b6102076004803603602081101561020057600080fd5b503561076c565b005b61018761084f565b61022e6004803603602081101561022757600080fd5b5035610856565b604080516001600160a01b03958616815293851660208501529190931682820152911515606082015290519081900360800190f35b610207600480360360e081101561027957600080fd5b506001600160a01b0381358116916020810135821691604082013581169160608101359160808201359160a081013515159160c09091013516610893565b610207600480360360a08110156102cd57600080fd5b508035906001600160a01b03602082013581169160408101358216916060820135169060800135151561089c565b610207600480360360a081101561031157600080fd5b506001600160a01b038135811691602081013582169160408201351690606081013590608001351515610a7a565b6101876004803603606081101561035557600080fd5b506001600160a01b038135811691602081013590911690604001351515610a81565b610187600480360360a081101561038d57600080fd5b506001600160a01b0381351690602081013590604081013590606081013590608001351515610b24565b6103fd600480360360a08110156103cd57600080fd5b506001600160a01b0381358116916020810135821691604082013516906060810135151590608001351515610e0a565b6040805192835260208301919091528051918290030190f35b6101876004803603606081101561042c57600080fd5b506001600160a01b038135811691602081013590911690604001356111ec565b610187600480360360c081101561046257600080fd5b506001600160a01b038135811691602081013582169160408201351690606081013515159060808101359060a0013561159d565b610187600480360360408110156104ac57600080fd5b506001600160a01b038135169060200135611681565b6104ca6117a0565b604080516001600160a01b039092168252519081900360200190f35b610514600480360360408110156104fc57600080fd5b506001600160a01b03813581169160200135166117c4565b604080519115158252519081900360200190f35b610187600480360360a081101561053e57600080fd5b506001600160a01b0381358116916020810135821691604082013516906060810135151590608001356117cc565b60606000828461057b83611895565b03811115610592578461058e6000611895565b0390505b60608167ffffffffffffffff811180156105ab57600080fd5b506040519080825280602002602001820160405280156105d5578160200160208202803683370190505b50905060005b82811015610612576105f060008883016118a0565b60001b8282815181106105ff57fe5b60209081029190910101526001016105db565b509594019392505050565b61271081565b600061062f81836118a0565b92915050565b60006106416000611895565b905090565b600061076583837f00000000000000000000000000000000000000000000000000000000000000006001600160a01b0316634d47b3046040518163ffffffff1660e01b815260040160206040518083038186803b1580156106a657600080fd5b505afa1580156106ba573d6000803e3d6000fd5b505050506040513d60208110156106d057600080fd5b505160408051637a210a2b60e01b815290516001600160a01b037f00000000000000000000000000000000000000000000000000000000000000001691637a210a2b916004808301926020929190829003018186803b15801561073257600080fd5b505afa158015610746573d6000803e3d6000fd5b505050506040513d602081101561075c57600080fd5b50516001610b24565b9392505050565b336001600160a01b037f000000000000000000000000000000000000000000000000000000000000000016146107dd576040805162461bcd60e51b815260206004820152601160248201527015985d5b1d0e881bdb9b1e481d985d5b1d607a1b604482015290519081900360640190fd5b6107e86000826118ac565b50600081815260026020819052604080832080546001600160a01b03199081168255600182018054909116905590910180546001600160a81b03191690555182917fe1a01da1652fb84ab7e19a641ec49c040bd7de1fcece9916cb67745334ab0fa091a250565b620f424081565b60026020819052600091825260409091208054600182015491909201546001600160a01b039283169291821691811690600160a01b900460ff1684565b50505050505050565b336001600160a01b037f0000000000000000000000000000000000000000000000000000000000000000161461090d576040805162461bcd60e51b815260206004820152601160248201527015985d5b1d0e881bdb9b1e481d985d5b1d607a1b604482015290519081900360640190fd5b6109186000866118b8565b506040518060800160405280856001600160a01b03168152602001846001600160a01b03168152602001836001600160a01b031681526020018215158152506002600087815260200190815260200160002060008201518160000160006101000a8154816001600160a01b0302191690836001600160a01b0316021790555060208201518160010160006101000a8154816001600160a01b0302191690836001600160a01b0316021790555060408201518160020160006101000a8154816001600160a01b0302191690836001600160a01b0316021790555060608201518160020160146101000a81548160ff021916908315150217905550905050826001600160a01b0316846001600160a01b0316867ffb5579ccd7d074e42669f62512ec46febe818d450499442c7cf4a75ad025a275858560405180836001600160a01b0316815260200182151581526020019250505060405180910390a45050505050565b5050505050565b60007f00000000000000000000000000000000000000000000000000000000000000006001600160a01b031663c65bc7b1856040518263ffffffff1660e01b815260040180826001600160a01b0316815260200191505060206040518083038186803b158015610af057600080fd5b505afa158015610b04573d6000803e3d6000fd5b505050506040513d6020811015610b1a57600080fd5b5051949350505050565b60007f00000000000000000000000000000000000000000000000000000000000000006001600160a01b0316639f392eb36040518163ffffffff1660e01b815260040160206040518083038186803b158015610b7f57600080fd5b505afa158015610b93573d6000803e3d6000fd5b505050506040513d6020811015610ba957600080fd5b5051610bb6575082610e01565b60007f00000000000000000000000000000000000000000000000000000000000000006001600160a01b0316631aa4ace5886040518263ffffffff1660e01b815260040180826001600160a01b0316815260200191505060206040518083038186803b158015610c2557600080fd5b505afa158015610c39573d6000803e3d6000fd5b505050506040513d6020811015610c4f57600080fd5b505190506000610c5f82886118c4565b905083610c8257818711610c7c57610c77828861191c565b610c7f565b60005b90505b60007f00000000000000000000000000000000000000000000000000000000000000006001600160a01b0316633a05dcc18a6040518263ffffffff1660e01b815260040180826001600160a01b0316815260200191505060206040518083038186803b158015610cf157600080fd5b505afa158015610d05573d6000803e3d6000fd5b505050506040513d6020811015610d1b57600080fd5b5051905080610d2f57869350505050610e01565b6000818411610d4757610d42828561191c565b610d51565b610d51848361191c565b90506000828411610d6b57610d66838561191c565b610d75565b610d75848461191c565b905081811015610dbd576000610d9584610d8f8b8661195e565b906119b7565b9050898111610dad57610da88a8261191c565b610db0565b60005b9650505050505050610e01565b6000610dce6002610d8f85856118c4565b905083811115610ddb5750825b6000610deb85610d8f8c8561195e565b9050610df78b826118c4565b9750505050505050505b95945050505050565b600080610e15611da3565b610e21888888886119f6565b805160408083015160c08401518251635c07eaab60e01b81526001600160a01b038c81166004830152602482019590955260448101929092528915156064830152608482015281519394507f000000000000000000000000000000000000000000000000000000000000000093600093849390861692635c07eaab9260a48083019392829003018186803b158015610eb857600080fd5b505afa158015610ecc573d6000803e3d6000fd5b505050506040513d6040811015610ee257600080fd5b50805160209091015185516060870151929450909250600091610f0d918e918e918e918e919061159d565b9050610f2a610f238d8d8d8d8a600001516117cc565b82906118c4565b905082158015610f3d5750818560200151105b15610fa5578715610f95576040805162461bcd60e51b815260206004820152601f60248201527f5661756c743a206c6f737365732065786365656420636f6c6c61746572616c00604482015290519081900360640190fd5b6001965094506111e29350505050565b602085015183610fc1576020860151610fbe908461191c565b90505b8181101561102d57881561101c576040805162461bcd60e51b815260206004820152601d60248201527f5661756c743a20666565732065786365656420636f6c6c61746572616c000000604482015290519081900360640190fd5b6001975095506111e2945050505050565b61109c856001600160a01b031663174d26946040518163ffffffff1660e01b815260040160206040518083038186803b15801561106957600080fd5b505afa15801561107d573d6000803e3d6000fd5b505050506040513d602081101561109357600080fd5b505183906118c4565b8110156110f15788156110e05760405162461bcd60e51b8152600401808060200182810382526029815260200180611e036029913960400191505060405180910390fd5b506001965094506111e29350505050565b85516110ff9061271061195e565b61116e866001600160a01b031663ae3302c26040518163ffffffff1660e01b815260040160206040518083038186803b15801561113b57600080fd5b505afa15801561114f573d6000803e3d6000fd5b505050506040513d602081101561116557600080fd5b5051839061195e565b10156111d65788156111c5576040805162461bcd60e51b815260206004820152601b60248201527a15985d5b1d0e881b585e13195d995c9859d948195e18d959591959602a1b604482015290519081900360640190fd5b506002965094506111e29350505050565b50600096509450505050505b9550959350505050565b6000807f00000000000000000000000000000000000000000000000000000000000000006001600160a01b03166342b60b03866040518263ffffffff1660e01b815260040180826001600160a01b0316815260200191505060206040518083038186803b15801561125c57600080fd5b505afa158015611270573d6000803e3d6000fd5b505050506040513d602081101561128657600080fd5b5051801561132957507f00000000000000000000000000000000000000000000000000000000000000006001600160a01b03166342b60b03856040518263ffffffff1660e01b815260040180826001600160a01b0316815260200191505060206040518083038186803b1580156112fc57600080fd5b505afa158015611310573d6000803e3d6000fd5b505050506040513d602081101561132657600080fd5b50515b90506000816113bc577f00000000000000000000000000000000000000000000000000000000000000006001600160a01b031663a22f23926040518163ffffffff1660e01b815260040160206040518083038186803b15801561138b57600080fd5b505afa15801561139f573d6000803e3d6000fd5b505050506040513d60208110156113b557600080fd5b5051611442565b7f00000000000000000000000000000000000000000000000000000000000000006001600160a01b031663df73a2676040518163ffffffff1660e01b815260040160206040518083038186803b15801561141557600080fd5b505afa158015611429573d6000803e3d6000fd5b505050506040513d602081101561143f57600080fd5b50515b90506000826114d5577f00000000000000000000000000000000000000000000000000000000000000006001600160a01b0316637a210a2b6040518163ffffffff1660e01b815260040160206040518083038186803b1580156114a457600080fd5b505afa1580156114b8573d6000803e3d6000fd5b505050506040513d60208110156114ce57600080fd5b505161155b565b7f00000000000000000000000000000000000000000000000000000000000000006001600160a01b03166310eb56c26040518163ffffffff1660e01b815260040160206040518083038186803b15801561152e57600080fd5b505afa158015611542573d6000803e3d6000fd5b505050506040513d602081101561155857600080fd5b50515b9050600061156d888785856001610b24565b9050600061157f888886866000610b24565b905080821161158e5780611590565b815b9998505050505050505050565b6000826115ac57506000611677565b6000611651837f00000000000000000000000000000000000000000000000000000000000000006001600160a01b031663c65bc7b18a6040518263ffffffff1660e01b815260040180826001600160a01b0316815260200191505060206040518083038186803b15801561161f57600080fd5b505afa158015611633573d6000803e3d6000fd5b505050506040513d602081101561164957600080fd5b50519061191c565b905080611662576000915050611677565b611673620f4240610d8f868461195e565b9150505b9695505050505050565b600061076583837f00000000000000000000000000000000000000000000000000000000000000006001600160a01b0316634d47b3046040518163ffffffff1660e01b815260040160206040518083038186803b1580156116e157600080fd5b505afa1580156116f5573d6000803e3d6000fd5b505050506040513d602081101561170b57600080fd5b505160408051637a210a2b60e01b815290516001600160a01b037f00000000000000000000000000000000000000000000000000000000000000001691637a210a2b916004808301926020929190829003018186803b15801561176d57600080fd5b505afa158015611781573d6000803e3d6000fd5b505050506040513d602081101561179757600080fd5b50516000610b24565b7f000000000000000000000000000000000000000000000000000000000000000081565b600192915050565b6000816117db57506000610e01565b600061187e612710610d8f6118777f00000000000000000000000000000000000000000000000000000000000000006001600160a01b031663318bc6896040518163ffffffff1660e01b815260040160206040518083038186803b15801561184257600080fd5b505afa158015611856573d6000803e3d6000fd5b505050506040513d602081101561186c57600080fd5b50516127109061191c565b869061195e565b905061188a838261191c565b979650505050505050565b600061062f82611b17565b60006107658383611b1b565b60006107658383611b7f565b60006107658383611c45565b600082820183811015610765576040805162461bcd60e51b815260206004820152601b60248201527a536166654d6174683a206164646974696f6e206f766572666c6f7760281b604482015290519081900360640190fd5b600061076583836040518060400160405280601e81526020017f536166654d6174683a207375627472616374696f6e206f766572666c6f770000815250611c8f565b60008261196d5750600061062f565b8282028284828161197a57fe5b04146107655760405162461bcd60e51b8152600401808060200182810382526021815260200180611e2c6021913960400191505060405180910390fd5b600061076583836040518060400160405280601a815260200179536166654d6174683a206469766973696f6e206279207a65726f60301b815250611d26565b6119fe611da3565b7f0000000000000000000000000000000000000000000000000000000000000000611a27611da3565b6000806000806000866001600160a01b0316634a3f088d8d8d8d8d6040518563ffffffff1660e01b815260040180856001600160a01b03168152602001846001600160a01b03168152602001836001600160a01b0316815260200182151581526020019450505050506101006040518083038186803b158015611aa957600080fd5b505afa158015611abd573d6000803e3d6000fd5b505050506040513d610100811015611ad457600080fd5b50805160208083015160408085015160608087015160e090970151958d52938c01929092528a015288019190915260c087015250939a9950505050505050505050565b5490565b81546000908210611b5d5760405162461bcd60e51b8152600401808060200182810382526022815260200180611de16022913960400191505060405180910390fd5b826000018281548110611b6c57fe5b9060005260206000200154905092915050565b60008181526001830160205260408120548015611c3b5783546000198083019190810190600090879083908110611bb257fe5b9060005260206000200154905080876000018481548110611bcf57fe5b600091825260208083209091019290925582815260018981019092526040902090840190558654879080611bff57fe5b6001900381819060005260206000200160009055905586600101600087815260200190815260200160002060009055600194505050505061062f565b600091505061062f565b6000611c518383611d8b565b611c875750815460018181018455600084815260208082209093018490558454848252828601909352604090209190915561062f565b50600061062f565b60008184841115611d1e5760405162461bcd60e51b81526004018080602001828103825283818151815260200191508051906020019080838360005b83811015611ce3578181015183820152602001611ccb565b50505050905090810190601f168015611d105780820380516001836020036101000a031916815260200191505b509250505060405180910390fd5b505050900390565b60008183611d755760405162461bcd60e51b8152602060048201818152835160248401528351909283926044909101919085019080838360008315611ce3578181015183820152602001611ccb565b506000838581611d8157fe5b0495945050505050565b60009081526001919091016020526040902054151590565b6040518060e0016040528060008152602001600081526020016000815260200160008152602001600081526020016000815260200160008152509056fe456e756d657261626c655365743a20696e646578206f7574206f6620626f756e64735661756c743a206c69717569646174696f6e20666565732065786365656420636f6c6c61746572616c536166654d6174683a206d756c7469706c69636174696f6e206f766572666c6f77a2646970667358221220544218908383c63955d410a73896b79eefe9df5d27da874bfefb3777affd06f264736f6c634300060c003360a060405234801561001057600080fd5b506040516117e73803806117e78339818101604052602081101561003357600080fd5b5051600080546001600160a01b031916331790556001600160601b031960609190911b1660805260805160601c61175c61008b60003980610a9a5280610c025280610dbd5280610e875280611316525061175c6000f3fe608060405234801561001057600080fd5b50600436106100fc5760003560e01c80630147fb0c14610101578063122e7b071461013057806312d43a51146101385780633d30cabf1461015c57806346ea87af1461017d5780635886b711146101b757806362749803146101ec5780636bb22fd7146102125780637bc6729b1461023e5780638d0fedb0146102465780639a11178f146102855780639c35b4971461028d5780639cb7de4b146102b35780639cdeb593146102e1578063a83b75fd14610344578063b364accb14610388578063bbd97187146103c9578063cfad57a214610487578063f3238cec146104ad578063fbfa77cf146104ff575b600080fd5b61011e6004803603602081101561011757600080fd5b5035610507565b60408051918252519081900360200190f35b61011e610519565b610140610524565b604080516001600160a01b039092168252519081900360200190f35b61017b6004803603602081101561017257600080fd5b50351515610533565b005b6101a36004803603602081101561019357600080fd5b50356001600160a01b0316610593565b604080519115158252519081900360200190f35b61011e600480360360a08110156101cd57600080fd5b50803590602081013590604081013590606081013590608001356105a8565b61011e6004803603602081101561020257600080fd5b50356001600160a01b03166105ff565b61017b6004803603604081101561022857600080fd5b506001600160a01b038135169060200135610611565b61017b610726565b61026c6004803603602081101561025c57600080fd5b50356001600160a01b031661083a565b6040805192835290151560208301528051918290030190f35b6101a3610856565b61017b600480360360208110156102a357600080fd5b50356001600160a01b031661085f565b61017b600480360360408110156102c957600080fd5b506001600160a01b0381351690602001351515610970565b61032b600480360360c08110156102f757600080fd5b506001600160a01b03813581169160208101358216916040820135169060608101359060808101359060a001351515610a43565b6040805192835260208301919091528051918290030190f35b61011e600480360360a081101561035a57600080fd5b506001600160a01b038135811691602081013582169160408201351690606081013590608001351515610bb7565b6103ae6004803603602081101561039e57600080fd5b50356001600160a01b0316610db6565b60408051921515835260208301919091528051918290030190f35b61017b600480360360408110156103df57600080fd5b810190602081018135600160201b8111156103f957600080fd5b82018360208201111561040b57600080fd5b803590602001918460208302840111600160201b8311171561042c57600080fd5b919390929091602081019035600160201b81111561044957600080fd5b82018360208201111561045b57600080fd5b803590602001918460208302840111600160201b8311171561047c57600080fd5b509092509050610f66565b61017b6004803603602081101561049d57600080fd5b50356001600160a01b031661110e565b61017b600480360360e08110156104c357600080fd5b506001600160a01b038135811691602081013582169160408201351690606081013515159060808101359060a08101359060c001351515611224565b610140611314565b60036020526000908152604090205481565b6001600160ff1b0381565b6000546001600160a01b031681565b6000546001600160a01b03163314610580576040805162461bcd60e51b815260206004820152601560248201526000805160206116c4833981519152604482015290519081900360640190fd5b6005805460ff1916911515919091179055565b60026020526000908152604090205460ff1681565b60008060006105b985898987611338565b9150915060006105f0836105d6576105d188846113f5565b6105e0565b6105e08884611456565b6105ea8a8a611498565b906114f1565b93505050505b95945050505050565b60046020526000908152604090205481565b6000546001600160a01b0316331461065e576040805162461bcd60e51b815260206004820152601560248201526000805160206116c4833981519152604482015290519081900360640190fd5b6001600160a01b0382166106b7576040805162461bcd60e51b815260206004820152601b60248201527a476f7665726e61626c653a20696e76616c6964206164647265737360281b604482015290519081900360640190fd5b6000546001600160a01b0383811691161415610718576040805162461bcd60e51b815260206004820152601b60248201527a476f7665726e61626c653a2073616d6520676f7665726e616e636560281b604482015290519081900360640190fd5b6107228282611530565b5050565b33600090815260016020526040902080544210610789576040805162461bcd60e51b815260206004820152601c60248201527b11dbdd995c9b98589b194e88191958591b1a5b9948195e1c1a5c995960221b604482015290519081900360640190fd5b60018082015460ff161515146107d05760405162461bcd60e51b81526004018080602001828103825260228152602001806116e46022913960400191505060405180910390fd5b6000805433808352600160208190526040808520858155909101805460ff1916905583546001600160a01b03191682178455516001600160a01b0390921692909183917f5f56bee8cffbe9a78652a74a60705edede02af10b0bbb888ca44b79a0d42ce8091a35050565b6001602081905260009182526040909120805491015460ff1682565b60055460ff1681565b6000546001600160a01b031633146108ac576040805162461bcd60e51b815260206004820152601560248201526000805160206116c4833981519152604482015290519081900360640190fd5b6001600160a01b0381166000908152600160208190526040909120015460ff1661091d576040805162461bcd60e51b815260206004820152601f60248201527f476f7665726e61626c653a2070726f706f73616c206e6f742061637469766500604482015290519081900360640190fd5b6001600160a01b0381166000818152600160208190526040808320838155909101805460ff19169055513392917ffc6a2fa53abe2adfe8372a9495032d7e6458d3aed34fa880132b6c808da1e99c91a350565b6000546001600160a01b031633146109bd576040805162461bcd60e51b815260206004820152601560248201526000805160206116c4833981519152604482015290519081900360640190fd5b6001600160a01b038216610a18576040805162461bcd60e51b815260206004820152601f60248201527f53686f727473547261636b65723a20696e76616c6964205f68616e646c657200604482015290519081900360640190fd5b6001600160a01b03919091166000908152600260205260409020805460ff1916911515919091179055565b6000806000610a558989898888610bb7565b6001600160a01b038816600090815260046020526040812054919250878211610a8757610a828883611456565b610a91565b610a918289611456565b905060008060007f00000000000000000000000000000000000000000000000000000000000000006001600160a01b0316638a78daa88d6040518263ffffffff1660e01b815260040180826001600160a01b0316815260200191505060206040518083038186803b158015610b0557600080fd5b505afa158015610b19573d6000803e3d6000fd5b505050506040513d6020811015610b2f57600080fd5b5051905088610b4757610b42818b611456565b610b51565b610b51818b6113f5565b925082610b6a5760008097509750505050505050610bac565b84610b8057828b97509750505050505050610bac565b610b8e856105ea8387611498565b9150506000610ba0858c85858a6105a8565b92975091955050505050505b965096945050505050565b60008115610bc7575060006105f6565b60408051634a3f088d60e01b81526001600160a01b0388811660048301528781166024830152868116604483015260006064830181905292517f000000000000000000000000000000000000000000000000000000000000000093928392839290861691634a3f088d91608480830192610100929190829003018186803b158015610c5157600080fd5b505afa158015610c65573d6000803e3d6000fd5b505050506040513d610100811015610c7c57600080fd5b50805160408083015160e0909301518151635c07eaab60e01b81526001600160a01b038d811660048301526024820185905260448201869052600060648301819052608483018490528451959950959750919550849391891692635c07eaab9260a480840193829003018186803b158015610cf657600080fd5b505afa158015610d0a573d6000803e3d6000fd5b505050506040513d6040811015610d2057600080fd5b50805160209091015190925090506000610d3e866105ea8c85611498565b90506001600160ff1b038110610d95576040805162461bcd60e51b815260206004820152601760248201527653686f727473547261636b65723a206f766572666c6f7760481b604482015290519081900360640190fd5b82610da35780600003610da5565b805b9d9c50505050505050505050505050565b60008060007f00000000000000000000000000000000000000000000000000000000000000006001600160a01b0316638a78daa8856040518263ffffffff1660e01b815260040180826001600160a01b0316815260200191505060206040518083038186803b158015610e2857600080fd5b505afa158015610e3c573d6000803e3d6000fd5b505050506040513d6020811015610e5257600080fd5b50516001600160a01b03851660009081526004602052604090205490915081610e8357600080935093505050610f61565b60007f00000000000000000000000000000000000000000000000000000000000000006001600160a01b031663e124e6d2876040518263ffffffff1660e01b815260040180826001600160a01b0316815260200191505060206040518083038186803b158015610ef257600080fd5b505afa158015610f06573d6000803e3d6000fd5b505050506040513d6020811015610f1c57600080fd5b505190506000818311610f3857610f338284611456565b610f42565b610f428383611456565b90506000610f54846105ea8785611498565b9290931195509093505050505b915091565b6000546001600160a01b03163314610fb3576040805162461bcd60e51b815260206004820152601560248201526000805160206116c4833981519152604482015290519081900360640190fd5b60055460ff161561100b576040805162461bcd60e51b815260206004820152601f60248201527f53686f727473547261636b65723a20616c7265616479206d6967726174656400604482015290519081900360640190fd5b60005b838110156110645782828281811061102257fe5b905060200201356004600087878581811061103957fe5b602090810292909201356001600160a01b03168352508101919091526040016000205560010161100e565b506005805460ff19166001179055604080518181529081018490527f643879cbe2e5566e161376319ede003b77014250e6536446ba5caadab93e25f69085908590859085908060208082019060608301908890880280828437600083820152601f01601f19169091018481038352858152602090810191508690860280828437600083820152604051601f909101601f19169092018290039850909650505050505050a150505050565b6000546001600160a01b0316331461115b576040805162461bcd60e51b815260206004820152601560248201526000805160206116c4833981519152604482015290519081900360640190fd5b6001600160a01b0381166111b4576040805162461bcd60e51b815260206004820152601b60248201527a476f7665726e61626c653a20696e76616c6964206164647265737360281b604482015290519081900360640190fd5b6000546001600160a01b0382811691161415611215576040805162461bcd60e51b815260206004820152601b60248201527a476f7665726e61626c653a2073616d6520676f7665726e616e636560281b604482015290519081900360640190fd5b61122181600019611530565b50565b3360009081526002602052604090205460ff16611283576040805162461bcd60e51b815260206004820152601860248201527729b437b93a39aa3930b1b5b2b91d103337b93134b23232b760411b604482015290519081900360640190fd5b838061128d575082155b156112975761130b565b60055460ff166112a65761130b565b6000806112b7898989878988610a43565b915091506112c587826115ab565b604080518381526020810183905281516001600160a01b038a16927fd6137be44db128ffcf1ea1821dbe8f889f67f949be7656c2d8acba2a4a891a02928290030190a250505b50505050505050565b7f000000000000000000000000000000000000000000000000000000000000000081565b600080838511801561139757600084131561137c578684111561136a5761135f8488611456565b965060009050611377565b6113748785611456565b96505b61138d565b61138a8760008690036113f5565b96505b91508590506113ec565b60008413156113b1576113aa87856113f5565b96506113e6565b868460000311156113d5576113ca600085900388611456565b9650600190506113e6565b6113e3876000869003611456565b96505b91508590505b94509492505050565b60008282018381101561144d576040805162461bcd60e51b815260206004820152601b60248201527a536166654d6174683a206164646974696f6e206f766572666c6f7760281b604482015290519081900360640190fd5b90505b92915050565b600061144d83836040518060400160405280601e81526020017f536166654d6174683a207375627472616374696f6e206f766572666c6f7700008152506115c7565b6000826114a757506000611450565b828202828482816114b457fe5b041461144d5760405162461bcd60e51b81526004018080602001828103825260218152602001806117066021913960400191505060405180910390fd5b600061144d83836040518060400160405280601a815260200179536166654d6174683a206469766973696f6e206279207a65726f60301b81525061165e565b604080518082018252828152600160208083018281526001600160a01b038716600081815284845286902094518555905193909201805460ff1916931515939093179092558251848152925190927f02dd0697be46e764c3ba81094158781c31b235d03bb27a0daf1bdef0ec1084dd92908290030190a25050565b6001600160a01b03909116600090815260046020526040902055565b600081848411156116565760405162461bcd60e51b81526004018080602001828103825283818151815260200191508051906020019080838360005b8381101561161b578181015183820152602001611603565b50505050905090810190601f1680156116485780820380516001836020036101000a031916815260200191505b509250505060405180910390fd5b505050900390565b600081836116ad5760405162461bcd60e51b815260206004820181815283516024840152835190928392604490910191908501908083836000831561161b578181015183820152602001611603565b5060008385816116b957fe5b049594505050505056fe476f7665726e61626c653a20666f7262696464656e0000000000000000000000476f7665726e61626c653a2070726f706f73616c206973206e6f7420616374697665536166654d6174683a206d756c7469706c69636174696f6e206f766572666c6f77a2646970667358221220c9ab56f0b045d19c3b03b072d1a4075a847d2acf190f9bcb30c523bd4a32659e64736f6c634300060c003360806040523480156200001157600080fd5b5060405162002c2838038062002c28833981016040819052620000349162000373565b6040518060400160405280600781526020016605a554553204c560cc1b8152506040518060400160405280600381526020016205a4c560ec1b815250600082828282600090805190602001906200008d929190620002d7565b508151620000a3906001906020850190620002d7565b50600480546001600160a01b03191633908117909155620000c59082620000d8565b505050600d939093555062000423915050565b6001600160a01b0382166200010a5760405162461bcd60e51b81526004016200010190620003a0565b60405180910390fd5b620001158262000206565b6200013181600254620002a860201b620012601790919060201c565b6002556001600160a01b0382166000908152600560209081526040909120546200016691839062001260620002a8821b17901c565b6001600160a01b03831660009081526005602090815260408083209390935560089052205460ff1615620001b457620001b081600354620002a860201b620012601790919060201c565b6003555b816001600160a01b031660006001600160a01b03167fddf252ad1be2c89b69c2b068fc378daa952ba7f163c4a11628f55a4df523b3ef83604051620001fa91906200041a565b60405180910390a35050565b60005b600754811015620002a4576000600782815481106200022457fe5b600091825260209091200154604051635fd6196560e01b81526001600160a01b0390911691508190635fd6196590620002629086906004016200038c565b600060405180830381600087803b1580156200027d57600080fd5b505af115801562000292573d6000803e3d6000fd5b50506001909301925062000209915050565b5050565b600082820183811015620002d05760405162461bcd60e51b81526004016200010190620003e3565b9392505050565b828054600181600116156101000203166002900490600052602060002090601f016020900481019282601f106200031a57805160ff19168380011785556200034a565b828001600101855582156200034a579182015b828111156200034a5782518255916020019190600101906200032d565b50620003589291506200035c565b5090565b5b808211156200035857600081556001016200035d565b60006020828403121562000385578081fd5b5051919050565b6001600160a01b0391909116815260200190565b60208082526023908201527f42617365546f6b656e3a206d696e7420746f20746865207a65726f206164647260408201526265737360e81b606082015260800190565b6020808252601b908201527f536166654d6174683a206164646974696f6e206f766572666c6f770000000000604082015260600190565b90815260200190565b6127f580620004336000396000f3fe608060405234801561001057600080fd5b50600436106102355760003560e01c80636c24a76f116101375780636c24a76f146103f9578063704802751461040c57806370a082311461041f578063817b1cd2146104325780638b770e111461043a5780638cefa92d1461044d578063929ec5371461046d5780639554381a1461048057806395d89b4114610493578063966be0751461049b578063996f11ee146104ae5780639cb7de4b146104c15780639dc29fac146104d4578063a9059cbb146104e7578063a923fc40146104fa578063aa271e1a1461050d578063af640d0f14610520578063c93be63614610528578063cf456ae714610530578063cfad57a214610543578063dd62ed3e14610556578063dfbaefb114610569578063e8020aa614610571578063fb30d9161461059257610235565b806301e336671461023a57806306fdde031461024f578063095ea7b31461026d57806312d43a511461028d5780631785f53c146102a257806318160ddd146102b5578063191086d7146102ca5780631e83409a146102dd5780631e9049cf146102f057806323b872dd146102f8578063276eab4e1461030b57806327e235e31461031e578063313ce56714610331578063352693151461034657806340c10f191461034e5780634119372714610361578063429b62e51461037457806346ea87af1461038757806352cd38d91461039a57806355b6ed5c146103ad5780635a47a1a7146103c057806360217267146103d357806362289077146103e6575b600080fd5b61024d610248366004611f36565b6105a5565b005b6102576105f1565b60405161026491906121f8565b60405180910390f35b61028061027b366004611fad565b61067f565b60405161026491906121ed565b610295610696565b6040516102649190612157565b61024d6102b0366004611ee7565b6106a5565b6102bd6106f0565b604051610264919061266a565b6102bd6102d8366004611ee7565b6106f6565b61024d6102eb366004611ee7565b610708565b6102bd6107c2565b610280610306366004611f36565b6107c9565b61024d610319366004611fd7565b610863565b6102bd61032c366004611ee7565b6108a0565b6103396108b2565b6040516102649190612681565b6102bd6108b7565b61024d61035c366004611fad565b6108bd565b61024d61036f366004611ee7565b6109ae565b610280610382366004611ee7565b6109ba565b610280610395366004611ee7565b6109cf565b6102956103a836600461210b565b6109e4565b6102bd6103bb366004611f02565b610a0b565b61024d6103ce366004612073565b610a28565b6102bd6103e1366004611ee7565b610a65565b61024d6103f4366004611ee7565b610aae565b6102bd610407366004611ee7565b610b5f565b61024d61041a366004611ee7565b610ba5565b6102bd61042d366004611ee7565b610bf3565b6102bd610c0e565b6102bd610448366004611ee7565b610c2c565b61046061045b366004611ee7565b610c47565b604051610264919061219e565b6102bd61047b366004611ee7565b610cd0565b61028061048e366004611ee7565b610d7e565b610257610d93565b61024d6104a936600461210b565b610ded565b61024d6104bc366004611f02565b610e7a565b61024d6104cf366004611f76565b610f5f565b61024d6104e2366004611fad565b610fb4565b6102806104f5366004611fad565b611015565b61024d6105083660046120ab565b611022565b61028061051b366004611ee7565b611073565b610257611088565b6102bd6110a5565b61024d61053e366004611f76565b6110ab565b61024d610551366004611ee7565b611100565b6102bd610564366004611f02565b61114c565b610280611177565b61058461057f366004611fad565b611180565b604051610264929190612673565b61024d6105a0366004611ee7565b6111b9565b6004546001600160a01b031633146105d85760405162461bcd60e51b81526004016105cf906123f3565b60405180910390fd5b6105ec6001600160a01b0384168383611285565b505050565b6000805460408051602060026001851615610100026000190190941693909304601f810184900484028201840190925281815292918301828280156106775780601f1061064c57610100808354040283529160200191610677565b820191906000526020600020905b81548152906001019060200180831161065a57829003601f168201915b505050505081565b600061068c3384846112db565b5060015b92915050565b6004546001600160a01b031681565b6004546001600160a01b031633146106cf5760405162461bcd60e51b81526004016105cf906123f3565b6001600160a01b03166000908152600960205260409020805460ff19169055565b60025481565b600f6020526000908152604090205481565b60005b6007548110156107be5760006007828154811061072457fe5b6000918252602090912001546040516310e059a160e11b81526001600160a01b03909116915081906321c0b34290610762903390879060040161216b565b602060405180830381600087803b15801561077c57600080fd5b505af1158015610790573d6000803e3d6000fd5b505050506040513d601f19601f820116820180604052508101906107b49190612123565b505060010161070b565b5050565b6202a30081565b336000908152600b602052604081205460ff16156107f4576107ec84848461138f565b50600161085c565b600061083e836040518060600160405280602c8152602001612724602c91396001600160a01b038816600090815260066020908152604080832033845290915290205491906113cd565b905061084b8533836112db565b61085685858561138f565b60019150505b9392505050565b6004546001600160a01b0316331461088d5760405162461bcd60e51b81526004016105cf906123f3565b80516107be906007906020840190611d55565b60056020526000908152604090205481565b601281565b600d5481565b336000908152600c602052604090205460ff166108ec5760405162461bcd60e51b81526004016105cf906124ac565b6108f682826113f9565b80156107be576000610913600d544261126090919063ffffffff16565b6001600160a01b0384166000818152600e60209081526040808320815180830183528881528084018781528254600181810185559387528587209251600290910290920191825551910155838352600f9091529081902042905551919250907fb54471ef4300c80735460d3ac0c87ad0ea1a75449c6250c1291a4018779390e6906109a19085908590612673565b60405180910390a2505050565b6109b7816114d7565b50565b60096020526000908152604090205460ff1681565b600b6020526000908152604090205460ff1681565b600781815481106109f157fe5b6000918252602090912001546001600160a01b0316905081565b600660209081526000928352604080842090915290825290205481565b6004546001600160a01b03163314610a525760405162461bcd60e51b81526004016105cf906123f3565b600a805460ff1916911515919091179055565b6001600160a01b03811660009081526008602052604081205460ff1615610a8e57506000610aa9565b506001600160a01b0381166000908152600560205260409020545b919050565b3360009081526009602052604090205460ff16610add5760405162461bcd60e51b81526004016105cf906123f3565b6001600160a01b03811660009081526008602052604090205460ff1615610b165760405162461bcd60e51b81526004016105cf906124e2565b610b1f81611633565b6001600160a01b0381166000908152600860209081526040808320805460ff191660011790556005909152902054600354610b5991611260565b60035550565b6001600160a01b03811660009081526005602052604081205481610b8284610cd0565b905080821015610b93576000610b9d565b610b9d82826116ca565b949350505050565b6004546001600160a01b03163314610bcf5760405162461bcd60e51b81526004016105cf906123f3565b6001600160a01b03166000908152600960205260409020805460ff19166001179055565b6001600160a01b031660009081526005602052604090205490565b6000610c276003546002546116ca90919063ffffffff16565b905090565b6001600160a01b03166000908152600f602052604090205490565b6001600160a01b0381166000908152600e60209081526040808320805482518185028101850190935280835260609492939192909184015b82821015610cc557838290600052602060002090600202016040518060400160405290816000820154815260200160018201548152505081526020019060010190610c7f565b505050509050919050565b6001600160a01b0381166000908152600e602052604081208190815b8154811015610d755742828281548110610d0257fe5b906000526020600020906002020160010154118015610d3e57506000828281548110610d2a57fe5b906000526020600020906002020160000154115b15610d6d57610d6a828281548110610d5257fe5b60009182526020909120600290910201548490611260565b92505b600101610cec565b50909392505050565b60086020526000908152604090205460ff1681565b60018054604080516020600284861615610100026000190190941693909304601f810184900484028201840190925281815292918301828280156106775780601f1061064c57610100808354040283529160200191610677565b6004546001600160a01b03163314610e175760405162461bcd60e51b81526004016105cf906123f3565b6202a300811115610e3a5760405162461bcd60e51b81526004016105cf906122b7565b600d8190556040517ff4f81c8df394c367119ef9185e49924fbc14f33668d8c0fe5a767cc822858ae290610e6f90839061266a565b60405180910390a150565b3360009081526009602052604090205460ff16610ea95760405162461bcd60e51b81526004016105cf906123f3565b60005b6007548110156105ec57600060078281548110610ec557fe5b6000918252602090912001546040516310e059a160e11b81526001600160a01b03909116915081906321c0b34290610f03908790879060040161216b565b602060405180830381600087803b158015610f1d57600080fd5b505af1158015610f31573d6000803e3d6000fd5b505050506040513d601f19601f82011682018060405250810190610f559190612123565b5050600101610eac565b6004546001600160a01b03163314610f895760405162461bcd60e51b81526004016105cf906123f3565b6001600160a01b03919091166000908152600b60205260409020805460ff1916911515919091179055565b336000908152600c602052604090205460ff16610fe35760405162461bcd60e51b81526004016105cf906124ac565b80610fed83610b5f565b101561100b5760405162461bcd60e51b81526004016105cf90612421565b6107be828261170c565b600061068c33848461138f565b6004546001600160a01b0316331461104c5760405162461bcd60e51b81526004016105cf906123f3565b815161105f906000906020850190611dba565b5080516105ec906001906020840190611dba565b600c6020526000908152604090205460ff1681565b60408051808201909152600381526205a4c560ec1b602082015290565b60035481565b6004546001600160a01b031633146110d55760405162461bcd60e51b81526004016105cf906123f3565b6001600160a01b03919091166000908152600c60205260409020805460ff1916911515919091179055565b6004546001600160a01b0316331461112a5760405162461bcd60e51b81526004016105cf906123f3565b600480546001600160a01b0319166001600160a01b0392909216919091179055565b6001600160a01b03918216600090815260066020908152604080832093909416825291909152205490565b600a5460ff1681565b600e602052816000526040600020818154811061119957fe5b600091825260209091206002909102018054600190910154909250905082565b3360009081526009602052604090205460ff166111e85760405162461bcd60e51b81526004016105cf906123f3565b6001600160a01b03811660009081526008602052604090205460ff166112205760405162461bcd60e51b81526004016105cf9061255b565b61122981611633565b6001600160a01b0381166000908152600860209081526040808320805460ff191690556005909152902054600354610b59916116ca565b60008282018381101561085c5760405162461bcd60e51b81526004016105cf906123be565b6105ec8363a9059cbb60e01b84846040516024016112a4929190612185565b60408051601f198184030181529190526020810180516001600160e01b03166001600160e01b031990931692909217909152611805565b6001600160a01b0383166113015760405162461bcd60e51b81526004016105cf90612464565b6001600160a01b0382166113275760405162461bcd60e51b81526004016105cf90612378565b6001600160a01b0380841660008181526006602090815260408083209487168084529490915290819020849055517f8c5be1e5ebec7d5bd14f71427d1e84f3dd0314c0f7b2291e5b200ac8c7c3b9259061138290859061266a565b60405180910390a3505050565b8061139984610b5f565b10156113b75760405162461bcd60e51b81526004016105cf906122e7565b6113c2838383611894565b6105ec838383611a40565b600081848411156113f15760405162461bcd60e51b81526004016105cf91906121f8565b505050900390565b6001600160a01b03821661141f5760405162461bcd60e51b81526004016105cf90612335565b61142882611633565b6002546114359082611260565b6002556001600160a01b03821660009081526005602052604090205461145b9082611260565b6001600160a01b03831660009081526005602090815260408083209390935560089052205460ff1615611499576003546114959082611260565b6003555b816001600160a01b031660006001600160a01b031660008051602061277a833981519152836040516114cb919061266a565b60405180910390a35050565b6001600160a01b0381166000908152600e6020526040812090805b82548110156115e557600083828154811061150957fe5b906000526020600020906002020190506000428260010154111590508080156115325750815415155b15611547578154611544908590611260565b93505b808061155257508154155b156115d7578454600019018381146115a95785818154811061157057fe5b906000526020600020906002020186858154811061158a57fe5b6000918252602090912082546002909202019081556001918201549101555b858054806115b357fe5b600082815260208120600260001990930192830201818155600101559055506115de565b6001909201915b50506114f2565b811561162d57836001600160a01b03167f9bed35cb62ad0dba04f9d5bfee4b5bc91443e77da8a65c4c84834c51bb08b0d683604051611624919061266a565b60405180910390a25b50505050565b60005b6007548110156107be5760006007828154811061164f57fe5b600091825260209091200154604051635fd6196560e01b81526001600160a01b0390911691508190635fd619659061168b908690600401612157565b600060405180830381600087803b1580156116a557600080fd5b505af11580156116b9573d6000803e3d6000fd5b505060019093019250611636915050565b600061085c83836040518060400160405280601e81526020017f536166654d6174683a207375627472616374696f6e206f766572666c6f7700008152506113cd565b6001600160a01b0382166117325760405162461bcd60e51b81526004016105cf906125dc565b61173b82611633565b6117788160405180606001604052806026815260200161279a602691396001600160a01b03851660009081526005602052604090205491906113cd565b6001600160a01b03831660009081526005602052604090205560025461179e90826116ca565b6002556001600160a01b03821660009081526008602052604090205460ff16156117d3576003546117cf90826116ca565b6003555b60006001600160a01b0316826001600160a01b031660008051602061277a833981519152836040516114cb919061266a565b606061185a826040518060400160405280602081526020017f5361666545524332303a206c6f772d6c6576656c2063616c6c206661696c6564815250856001600160a01b0316611c6c9092919063ffffffff16565b8051909150156105ec5780806020019051810190611878919061208f565b6105ec5760405162461bcd60e51b81526004016105cf90612592565b6001600160a01b0383166118ba5760405162461bcd60e51b81526004016105cf90612621565b6001600160a01b0382166118e05760405162461bcd60e51b81526004016105cf90612270565b600a5460ff161561191a57336000908152600b602052604090205460ff1661191a5760405162461bcd60e51b81526004016105cf9061222b565b61192383611633565b61192c82611633565b611969816040518060600160405280602a8152602001612750602a91396001600160a01b03861660009081526005602052604090205491906113cd565b6001600160a01b0380851660009081526005602052604080822093909355908416815220546119989082611260565b6001600160a01b0380841660009081526005602090815260408083209490945591861681526008909152205460ff16156119dd576003546119d990826116ca565b6003555b6001600160a01b03821660009081526008602052604090205460ff1615611a0f57600354611a0b9082611260565b6003555b816001600160a01b0316836001600160a01b031660008051602061277a83398151915283604051611382919061266a565b80611a4a576105ec565b611a53836114d7565b6001600160a01b0383166000908152600e602052604081209082905b825481108015611a7f5750600082115b15611c37576000838281548110611a9257fe5b9060005260206000209060020201600001541115611c2f576000838281548110611ab857fe5b9060005260206000209060020201600001548311611ad65782611af5565b838281548110611ae257fe5b9060005260206000209060020201600001545b90508015611c2d57600e6000876001600160a01b03166001600160a01b031681526020019081526020016000206040518060400160405280838152602001868581548110611b3f57fe5b6000918252602080832060029283020160019081015490945285548085018755958352918290208451959091020193845591909101519101558354611ba3908290869085908110611b8c57fe5b6000918252602090912060029091020154906116ca565b848381548110611baf57fe5b6000918252602090912060029091020155611bca83826116ca565b9250856001600160a01b03167fb54471ef4300c80735460d3ac0c87ad0ea1a75449c6250c1291a4018779390e682868581548110611c0457fe5b906000526020600020906002020160010154604051611c24929190612673565b60405180910390a25b505b600101611a6f565b506000611c4385610cd0565b1115611c65576001600160a01b0384166000908152600f602052604090204290555b5050505050565b6060610b9d848460008585611c8085611d16565b611c9c5760405162461bcd60e51b81526004016105cf90612524565b60006060866001600160a01b03168587604051611cb9919061213b565b60006040518083038185875af1925050503d8060008114611cf6576040519150601f19603f3d011682016040523d82523d6000602084013e611cfb565b606091505b5091509150611d0b828286611d1c565b979650505050505050565b3b151590565b60608315611d2b57508161085c565b825115611d3b5782518084602001fd5b8160405162461bcd60e51b81526004016105cf91906121f8565b828054828255906000526020600020908101928215611daa579160200282015b82811115611daa57825182546001600160a01b0319166001600160a01b03909116178255602090920191600190910190611d75565b50611db6929150611e34565b5090565b828054600181600116156101000203166002900490600052602060002090601f016020900481019282601f10611dfb57805160ff1916838001178555611e28565b82800160010185558215611e28579182015b82811115611e28578251825591602001919060010190611e0d565b50611db6929150611e53565b5b80821115611db65780546001600160a01b0319168155600101611e35565b5b80821115611db65760008155600101611e54565b80356001600160a01b038116811461069057600080fd5b600082601f830112611e8f578081fd5b81356001600160401b03811115611ea4578182fd5b611eb7601f8201601f191660200161268f565b9150808252836020828501011115611ece57600080fd5b8060208401602084013760009082016020015292915050565b600060208284031215611ef8578081fd5b61085c8383611e68565b60008060408385031215611f14578081fd5b611f1e8484611e68565b9150611f2d8460208501611e68565b90509250929050565b600080600060608486031215611f4a578081fd5b8335611f5581612700565b92506020840135611f6581612700565b929592945050506040919091013590565b60008060408385031215611f88578182fd5b611f928484611e68565b91506020830135611fa281612715565b809150509250929050565b60008060408385031215611fbf578182fd5b611fc98484611e68565b946020939093013593505050565b60006020808385031215611fe9578182fd5b82356001600160401b03811115611ffe578283fd5b8301601f8101851361200e578283fd5b803561202161201c826126b5565b61268f565b818152838101908385018584028501860189101561203d578687fd5b8694505b83851015612067576120538982611e68565b835260019490940193918501918501612041565b50979650505050505050565b600060208284031215612084578081fd5b813561085c81612715565b6000602082840312156120a0578081fd5b815161085c81612715565b600080604083850312156120bd578182fd5b82356001600160401b03808211156120d3578384fd5b6120df86838701611e7f565b935060208501359150808211156120f4578283fd5b5061210185828601611e7f565b9150509250929050565b60006020828403121561211c578081fd5b5035919050565b600060208284031215612134578081fd5b5051919050565b6000825161214d8184602087016126d4565b9190910192915050565b6001600160a01b0391909116815260200190565b6001600160a01b0392831681529116602082015260400190565b6001600160a01b03929092168252602082015260400190565b602080825282518282018190526000919060409081850190868401855b828110156121e0578151805185528601518685015292840192908501906001016121bb565b5091979650505050505050565b901515815260200190565b60006020825282518060208401526122178160408501602087016126d4565b601f01601f19169190910160400192915050565b60208082526025908201527f42617365546f6b656e3a206d73672e73656e646572206e6f742077686974656c6040820152641a5cdd195960da1b606082015260800190565b60208082526027908201527f42617365546f6b656e3a207472616e7366657220746f20746865207a65726f206040820152666164647265737360c81b606082015260800190565b6020808252601690820152755a4c503a20636f6f6c646f776e20746f6f206c6f6e6760501b604082015260600190565b6020808252602e908201527f5a4c503a207472616e7366657220616d6f756e7420657863656564732061766160408201526d696c61626c652062616c616e636560901b606082015260800190565b60208082526023908201527f42617365546f6b656e3a206d696e7420746f20746865207a65726f206164647260408201526265737360e81b606082015260800190565b60208082526026908201527f42617365546f6b656e3a20617070726f766520746f20746865207a65726f206160408201526564647265737360d01b606082015260800190565b6020808252601b908201527a536166654d6174683a206164646974696f6e206f766572666c6f7760281b604082015260600190565b6020808252601490820152732130b9b2aa37b5b2b71d103337b93134b23232b760611b604082015260600190565b60208082526023908201527f5a4c503a20696e73756666696369656e7420617661696c61626c652062616c616040820152626e636560e81b606082015260800190565b60208082526028908201527f42617365546f6b656e3a20617070726f76652066726f6d20746865207a65726f604082015267206164647265737360c01b606082015260800190565b6020808252601c908201527b26b4b73a30b13632a130b9b2aa37b5b2b71d103337b93134b23232b760211b604082015260600190565b60208082526022908201527f42617365546f6b656e3a205f6163636f756e7420616c7265616479206d61726b604082015261195960f21b606082015260800190565b6020808252601d908201527f416464726573733a2063616c6c20746f206e6f6e2d636f6e7472616374000000604082015260600190565b6020808252601e908201527f42617365546f6b656e3a205f6163636f756e74206e6f74206d61726b65640000604082015260600190565b6020808252602a908201527f5361666545524332303a204552433230206f7065726174696f6e20646964206e6040820152691bdd081cdd58d8d9595960b21b606082015260800190565b60208082526025908201527f42617365546f6b656e3a206275726e2066726f6d20746865207a65726f206164604082015264647265737360d81b606082015260800190565b60208082526029908201527f42617365546f6b656e3a207472616e736665722066726f6d20746865207a65726040820152686f206164647265737360b81b606082015260800190565b90815260200190565b918252602082015260400190565b60ff91909116815260200190565b6040518181016001600160401b03811182821017156126ad57600080fd5b604052919050565b60006001600160401b038211156126ca578081fd5b5060209081020190565b60005b838110156126ef5781810151838201526020016126d7565b8381111561162d5750506000910152565b6001600160a01b03811681146109b757600080fd5b80151581146109b757600080fdfe42617365546f6b656e3a207472616e7366657220616d6f756e74206578636565647320616c6c6f77616e636542617365546f6b656e3a207472616e7366657220616d6f756e7420657863656564732062616c616e6365ddf252ad1be2c89b69c2b068fc378daa952ba7f163c4a11628f55a4df523b3ef42617365546f6b656e3a206275726e20616d6f756e7420657863656564732062616c616e6365a2646970667358221220a921324e59e80dfd52f6ede083b6bb6bd18368200292485314597a43bdfbc32b64736f6c634300060c003360e060405234801561001057600080fd5b50604051612edd380380612edd8339818101604052608081101561003357600080fd5b5080516020820151604083015160609384015160018054336001600160a01b0319918216811782161790915584861b6001600160601b031990811660805284871b811660a0529583901b90951660c052600380549095166001600160a01b0391821617909455918316929081169116612db461012960003980611bd85280611d435280611f64528061215d5280612334528061241a52806125f1525080611cfb52806124b55280612560528061268052508061061252806106d6528061070352806107b95280610f085280610fb252806110ae5280611d1f5280611ff9528061204952806126af528061276e5250612db46000f3fe608060405234801561001057600080fd5b50600436106101b15760003560e01c806371d597ad116100f557806371d597ad146103ac5780637bc6729b146103f0578063870d917c146103f85780638d0fedb0146104005780638fed0b2c1461043f5780639116c4ae1461047957806395082d251461049c5780639c35b497146104a45780639cb7de4b146104ca578063a1acd3d5146104f8578063b172bb0c1461052a578063cfad57a214610532578063d34ee09314610558578063e245b5af1461057e578063ed0d1c041461059d578063f5b91b7b146105f5578063fbfa77cf146105fd578063fe9fe72014610605576101b1565b806303391476146101b6578063070eacee146101e7578063088ec8c314610203578063126082cf1461020b57806312d43a511461021357806317eb2a1514610237578063196b68cb1461027f5780631e9049cf146102875780631ece366a1461028f578063440d828a146102c757806346ea87af146102ed5780634f5f6b5e1461031357806364e6617f14610332578063657bc5d01461033a57806368a0a3e0146103425780636a86da19146103615780636bb22fd714610380575b600080fd5b6101d5600480360360208110156101cc57600080fd5b5035151561060d565b60408051918252519081900360200190f35b6101ef610d18565b604080519115158252519081900360200190f35b6101d5610d21565b6101d5610d2d565b61021b610d33565b604080516001600160a01b039092168252519081900360200190f35b6101d5600480360360c081101561024d57600080fd5b506001600160a01b03813581169160208101358216916040820135169060608101359060808101359060a00135610d42565b6101d5610db5565b6101d5610dbb565b6101d5600480360360808110156102a557600080fd5b506001600160a01b038135169060208101359060408101359060600135610dc2565b6101d5600480360360208110156102dd57600080fd5b50356001600160a01b0316610e83565b6101ef6004803603602081101561030357600080fd5b50356001600160a01b03166111f2565b6103306004803603602081101561032957600080fd5b5035611207565b005b6101d56112e3565b61021b6112e9565b6101d56004803603602081101561035857600080fd5b503515156112f8565b6103306004803603602081101561037757600080fd5b5035151561132f565b6103306004803603604081101561039657600080fd5b506001600160a01b0381351690602001356113c3565b6101d5600480360360a08110156103c257600080fd5b506001600160a01b0381358116916020810135821691604082013591606081013591608090910135166114d8565b610330611549565b6101d561165e565b6104266004803603602081101561041657600080fd5b50356001600160a01b0316611663565b6040805192835290151560208301528051918290030190f35b6101d56004803603608081101561045557600080fd5b506001600160a01b038135811691602081013591604082013591606001351661167f565b6103306004803603604081101561048f57600080fd5b5080359060200135611731565b6101d56117c7565b610330600480360360208110156104ba57600080fd5b50356001600160a01b03166117d7565b610330600480360360408110156104e057600080fd5b506001600160a01b03813516906020013515156118e5565b6104266004803603606081101561050e57600080fd5b506001600160a01b038135169060208101359060400135611992565b6101d5611a09565b6103306004803603602081101561054857600080fd5b50356001600160a01b0316611a0f565b6103306004803603602081101561056e57600080fd5b50356001600160a01b0316611b25565b6101d56004803603602081101561059457600080fd5b50351515611bc6565b6105a5611c8b565b60408051602080825283518183015283519192839290830191858101910280838360005b838110156105e15781810151838201526020016105c9565b505050509050019250505060405180910390f35b61021b611cf9565b61021b611d1d565b61021b611d41565b6000807f00000000000000000000000000000000000000000000000000000000000000006001600160a01b0316630842b0766040518163ffffffff1660e01b815260040160206040518083038186803b15801561066957600080fd5b505afa15801561067d573d6000803e3d6000fd5b505050506040513d602081101561069357600080fd5b50516004549091506001600160ff1b038111156106d25780600554116106c6576005546106c1908290611d65565b6106c9565b60005b92505050610d13565b60007f0000000000000000000000000000000000000000000000000000000000000000815b84811015610cd15760007f00000000000000000000000000000000000000000000000000000000000000006001600160a01b031663e468baf0836040518263ffffffff1660e01b81526004018082815260200191505060206040518083038186803b15801561076557600080fd5b505afa158015610779573d6000803e3d6000fd5b505050506040513d602081101561078f57600080fd5b505160408051630daf9c2160e41b81526001600160a01b03808416600483015291519293506000927f00000000000000000000000000000000000000000000000000000000000000009092169163daf9c21091602480820192602092909190829003018186803b15801561080257600080fd5b505afa158015610816573d6000803e3d6000fd5b505050506040513d602081101561082c57600080fd5b505190508061083c575050610cc9565b6000896108c157846001600160a01b03166381a612d6846040518263ffffffff1660e01b815260040180826001600160a01b0316815260200191505060206040518083038186803b15801561089057600080fd5b505afa1580156108a4573d6000803e3d6000fd5b505050506040513d60208110156108ba57600080fd5b505161093b565b846001600160a01b031663e124e6d2846040518263ffffffff1660e01b815260040180826001600160a01b0316815260200191505060206040518083038186803b15801561090e57600080fd5b505afa158015610922573d6000803e3d6000fd5b505050506040513d602081101561093857600080fd5b50515b90506000856001600160a01b03166352f55eed856040518263ffffffff1660e01b815260040180826001600160a01b0316815260200191505060206040518083038186803b15801561098c57600080fd5b505afa1580156109a0573d6000803e3d6000fd5b505050506040513d60208110156109b657600080fd5b5051604080516323b95ceb60e21b81526001600160a01b038781166004830152915192935060009291891691638ee573ac91602480820192602092909190829003018186803b158015610a0857600080fd5b505afa158015610a1c573d6000803e3d6000fd5b505050506040513d6020811015610a3257600080fd5b5051604080516342b60b0360e01b81526001600160a01b0388811660048301529151929350908916916342b60b0391602480820192602092909190829003018186803b158015610a8157600080fd5b505afa158015610a95573d6000803e3d6000fd5b505050506040513d6020811015610aab57600080fd5b505115610adb57610ad4610acd600a83900a610ac78587611db0565b90611e09565b8a90611e48565b9850610cc3565b6000876001600160a01b0316638a78daa8876040518263ffffffff1660e01b815260040180826001600160a01b0316815260200191505060206040518083038186803b158015610b2a57600080fd5b505afa158015610b3e573d6000803e3d6000fd5b505050506040513d6020811015610b5457600080fd5b505190508015610b9657600080610b6c888785611992565b9150915080610b8657610b7f8c83611e48565b9b50610b93565b610b908b83611e48565b9a505b50505b610c19886001600160a01b031663f07456ce886040518263ffffffff1660e01b815260040180826001600160a01b0316815260200191505060206040518083038186803b158015610be657600080fd5b505afa158015610bfa573d6000803e3d6000fd5b505050506040513d6020811015610c1057600080fd5b50518b90611e48565b99506000886001600160a01b031663c3c7b9e9886040518263ffffffff1660e01b815260040180826001600160a01b0316815260200191505060206040518083038186803b158015610c6a57600080fd5b505afa158015610c7e573d6000803e3d6000fd5b505050506040513d6020811015610c9457600080fd5b50519050610cbe610cb7600a85900a610ac788610cb18987611d65565b90611db0565b8c90611e48565b9a5050505b50505050505b6001016106f7565b50828211610ce857610ce38383611d65565b610ceb565b60005b92508260055411610d0957600554610d04908490611d65565b610d0c565b60005b9450505050505b919050565b60065460ff1681565b670de0b6b3a764000081565b61271081565b6001546001600160a01b031681565b600060026000541415610d8a576040805162461bcd60e51b815260206004820152601f6024820152600080516020612c51833981519152604482015290519081900360640190fd5b6002600055610d97611ea0565b610da5878787878787611efe565b6001600055979650505050505050565b60045481565b6202a30081565b600060026000541415610e0a576040805162461bcd60e51b815260206004820152601f6024820152600080516020612c51833981519152604482015290519081900360640190fd5b600260005560065460ff1615610e67576040805162461bcd60e51b815260206004820152601e60248201527f5a6c704d616e616765723a20616374696f6e206e6f7420656e61626c65640000604482015290519081900360640190fd5b610e75333387878787611efe565b600160005595945050505050565b6003546000906001600160a01b0316801580610f015750806001600160a01b0316639a11178f6040518163ffffffff1660e01b815260040160206040518083038186803b158015610ed357600080fd5b505afa158015610ee7573d6000803e3d6000fd5b505050506040513d6020811015610efd57600080fd5b5051155b15610fa8577f00000000000000000000000000000000000000000000000000000000000000006001600160a01b03166362749803846040518263ffffffff1660e01b815260040180826001600160a01b0316815260200191505060206040518083038186803b158015610f7357600080fd5b505afa158015610f87573d6000803e3d6000fd5b505050506040513d6020811015610f9d57600080fd5b50519150610d139050565b60075480611053577f00000000000000000000000000000000000000000000000000000000000000006001600160a01b03166362749803856040518263ffffffff1660e01b815260040180826001600160a01b0316815260200191505060206040518083038186803b15801561101d57600080fd5b505afa158015611031573d6000803e3d6000fd5b505050506040513d602081101561104757600080fd5b50519250610d13915050565b6127108114156110aa57816001600160a01b03166362749803856040518263ffffffff1660e01b815260040180826001600160a01b0316815260200191505060206040518083038186803b15801561101d57600080fd5b60007f00000000000000000000000000000000000000000000000000000000000000006001600160a01b03166362749803866040518263ffffffff1660e01b815260040180826001600160a01b0316815260200191505060206040518083038186803b15801561111957600080fd5b505afa15801561112d573d6000803e3d6000fd5b505050506040513d602081101561114357600080fd5b505160408051636274980360e01b81526001600160a01b038881166004830152915192935060009291861691636274980391602480820192602092909190829003018186803b15801561119557600080fd5b505afa1580156111a9573d6000803e3d6000fd5b505050506040513d60208110156111bf57600080fd5b50519050610d0c612710610ac76111d68487611db0565b6111ec6111e561271089611d65565b8790611db0565b90611e48565b60086020526000908152604090205460ff1681565b6001546001600160a01b03163314611254576040805162461bcd60e51b81526020600482015260156024820152600080516020612c71833981519152604482015290519081900360640190fd5b6127108111156112a8576040805162461bcd60e51b815260206004820152601a602482015279169b1c13585b9859d95c8e881a5b9d985b1a59081dd95a59da1d60321b604482015290519081900360640190fd5b60078190556040805182815290517f52a69eb631fabe4f5c2ab49d942264addcb4527358af43b4f18316573c008db09181900360200190a150565b60075481565b6003546001600160a01b031681565b6000806113048361060d565b905061132868327cb2734119d3b7a9601e1b610ac783670de0b6b3a7640000611db0565b9392505050565b6001546001600160a01b0316331461137c576040805162461bcd60e51b81526020600482015260156024820152600080516020612c71833981519152604482015290519081900360640190fd5b6006805482151560ff19909116811790915560408051918252517f6d6910bda96d053dacc191a744ad8710ec810616f31eaf51ea4df7e510d471949181900360200190a150565b6001546001600160a01b03163314611410576040805162461bcd60e51b81526020600482015260156024820152600080516020612c71833981519152604482015290519081900360640190fd5b6001600160a01b038216611469576040805162461bcd60e51b815260206004820152601b60248201527a476f7665726e61626c653a20696e76616c6964206164647265737360281b604482015290519081900360640190fd5b6001546001600160a01b03838116911614156114ca576040805162461bcd60e51b815260206004820152601b60248201527a476f7665726e61626c653a2073616d6520676f7665726e616e636560281b604482015290519081900360640190fd5b6114d4828261225f565b5050565b600060026000541415611520576040805162461bcd60e51b815260206004820152601f6024820152600080516020612c51833981519152604482015290519081900360640190fd5b600260005561152d611ea0565b61153a86868686866122db565b60016000559695505050505050565b336000908152600260205260409020805442106115ac576040805162461bcd60e51b815260206004820152601c60248201527b11dbdd995c9b98589b194e88191958591b1a5b9948195e1c1a5c995960221b604482015290519081900360640190fd5b60018082015460ff161515146115f35760405162461bcd60e51b8152600401808060200182810382526022815260200180612cb46022913960400191505060405180910390fd5b60018054336000818152600260205260408082208281558501805460ff1916905584546001600160a01b031916831790945592516001600160a01b0390921692909183917f5f56bee8cffbe9a78652a74a60705edede02af10b0bbb888ca44b79a0d42ce8091a35050565b601281565b6002602052600090815260409020805460019091015460ff1682565b6000600260005414156116c7576040805162461bcd60e51b815260206004820152601f6024820152600080516020612c51833981519152604482015290519081900360640190fd5b600260005560065460ff1615611724576040805162461bcd60e51b815260206004820152601e60248201527f5a6c704d616e616765723a20616374696f6e206e6f7420656e61626c65640000604482015290519081900360640190fd5b610e7533868686866122db565b6001546001600160a01b0316331461177e576040805162461bcd60e51b81526020600482015260156024820152600080516020612c71833981519152604482015290519081900360640190fd5b60048290556005819055604080518381526020810183905281517f326e719fe9f62c3f29172bb155860ca9190957435c63034ecbe8039b4660a4aa929181900390910190a15050565b68327cb2734119d3b7a9601e1b81565b6001546001600160a01b03163314611824576040805162461bcd60e51b81526020600482015260156024820152600080516020612c71833981519152604482015290519081900360640190fd5b6001600160a01b03811660009081526002602052604090206001015460ff16611894576040805162461bcd60e51b815260206004820152601f60248201527f476f7665726e61626c653a2070726f706f73616c206e6f742061637469766500604482015290519081900360640190fd5b6001600160a01b038116600081815260026020526040808220828155600101805460ff19169055513392917ffc6a2fa53abe2adfe8372a9495032d7e6458d3aed34fa880132b6c808da1e99c91a350565b6001546001600160a01b03163314611932576040805162461bcd60e51b81526020600482015260156024820152600080516020612c71833981519152604482015290519081900360640190fd5b6001600160a01b038216600081815260086020908152604091829020805460ff1916851515908117909155825190815291517f6cc67219f62a9e5d66cc9f2a62e16634cffcf48facd698a829bafcc1ad2c5c839281900390910190a25050565b600080826119a557506000905080611a01565b60006119b086610e83565b9050806119c4576000809250925050611a01565b60008582116119dc576119d78683611d65565b6119e6565b6119e68287611d65565b905060006119f883610ac78885611db0565b94505050841090505b935093915050565b60055481565b6001546001600160a01b03163314611a5c576040805162461bcd60e51b81526020600482015260156024820152600080516020612c71833981519152604482015290519081900360640190fd5b6001600160a01b038116611ab5576040805162461bcd60e51b815260206004820152601b60248201527a476f7665726e61626c653a20696e76616c6964206164647265737360281b604482015290519081900360640190fd5b6001546001600160a01b0382811691161415611b16576040805162461bcd60e51b815260206004820152601b60248201527a476f7665726e61626c653a2073616d6520676f7665726e616e636560281b604482015290519081900360640190fd5b611b228160001961225f565b50565b6001546001600160a01b03163314611b72576040805162461bcd60e51b81526020600482015260156024820152600080516020612c71833981519152604482015290519081900360640190fd5b600380546001600160a01b0383166001600160a01b0319909116811790915560408051918252517f261aa214630c5263461143daefbae1c16a5acab34551e31713c145bf8c1eb6b69181900360200190a150565b600080611bd28361060d565b905060007f00000000000000000000000000000000000000000000000000000000000000006001600160a01b03166318160ddd6040518163ffffffff1660e01b815260040160206040518083038186803b158015611c2f57600080fd5b505afa158015611c43573d6000803e3d6000fd5b505050506040513d6020811015611c5957600080fd5b5051905080611c6d57600092505050610d13565b611c8381610ac784670de0b6b3a7640000611db0565b949350505050565b604080516002808252606080830184529283929190602083019080368337019050509050611cb9600161060d565b81600081518110611cc657fe5b602002602001018181525050611cdc600061060d565b81600181518110611ce957fe5b6020908102919091010152905090565b7f000000000000000000000000000000000000000000000000000000000000000081565b7f000000000000000000000000000000000000000000000000000000000000000081565b7f000000000000000000000000000000000000000000000000000000000000000081565b6000611da783836040518060400160405280601e81526020017f536166654d6174683a207375627472616374696f6e206f766572666c6f7700008152506128ac565b90505b92915050565b600082611dbf57506000611daa565b82820282848281611dcc57fe5b0414611da75760405162461bcd60e51b8152600401808060200182810382526021815260200180612cd66021913960400191505060405180910390fd5b6000611da783836040518060400160405280601a815260200179536166654d6174683a206469766973696f6e206279207a65726f60301b815250612943565b600082820183811015611da7576040805162461bcd60e51b815260206004820152601b60248201527a536166654d6174683a206164646974696f6e206f766572666c6f7760281b604482015290519081900360640190fd5b3360009081526008602052604090205460ff16611efc576040805162461bcd60e51b81526020600482015260156024820152742d363826b0b730b3b2b91d103337b93134b23232b760591b604482015290519081900360640190fd5b565b6000808411611f52576040805162461bcd60e51b815260206004820152601b60248201527a169b1c13585b9859d95c8e881a5b9d985b1a590817d85b5bdd5b9d602a1b604482015290519081900360640190fd5b6000611f5e60016112f8565b905060007f00000000000000000000000000000000000000000000000000000000000000006001600160a01b03166318160ddd6040518163ffffffff1660e01b815260040160206040518083038186803b158015611fbb57600080fd5b505afa158015611fcf573d6000803e3d6000fd5b505050506040513d6020811015611fe557600080fd5b5051905061201e6001600160a01b0388168a7f0000000000000000000000000000000000000000000000000000000000000000896129a8565b6040805163817bb85760e01b81526001600160a01b03898116600483015230602483015291516000927f0000000000000000000000000000000000000000000000000000000000000000169163817bb85791604480830192602092919082900301818787803b15801561209057600080fd5b505af11580156120a4573d6000803e3d6000fd5b505050506040513d60208110156120ba57600080fd5b50519050858110156120fd5760405162461bcd60e51b8152600401808060200182810382526024815260200180612cf76024913960400191505060405180910390fd5b600083156121185761211384610ac78486611db0565b61211a565b815b90508581101561215b5760405162461bcd60e51b8152600401808060200182810382526023815260200180612c916023913960400191505060405180910390fd5b7f00000000000000000000000000000000000000000000000000000000000000006001600160a01b03166340c10f198b836040518363ffffffff1660e01b815260040180836001600160a01b0316815260200182815260200192505050600060405180830381600087803b1580156121d257600080fd5b505af11580156121e6573d6000803e3d6000fd5b5050604080516001600160a01b03808f1682528d1660208201528082018c9052606081018890526080810187905260a0810186905260c0810185905290517f38dc38b96482be64113daffd8d464ebda93e856b70ccfc605e69ccf892ab981e93509081900360e0019150a19a9950505050505050505050565b604080518082018252828152600160208083018281526001600160a01b03871660008181526002845286902094518555905193909201805460ff1916931515939093179092558251848152925190927f02dd0697be46e764c3ba81094158781c31b235d03bb27a0daf1bdef0ec1084dd92908290030190a25050565b6000808411612331576040805162461bcd60e51b815260206004820152601e60248201527f5a6c704d616e616765723a20696e76616c6964205f7a6c70416d6f756e740000604482015290519081900360640190fd5b837f00000000000000000000000000000000000000000000000000000000000000006001600160a01b0316636c24a76f886040518263ffffffff1660e01b815260040180826001600160a01b0316815260200191505060206040518083038186803b15801561239f57600080fd5b505afa1580156123b3573d6000803e3d6000fd5b505050506040513d60208110156123c957600080fd5b505110156124085760405162461bcd60e51b815260040180806020018281038252603a815260200180612d45603a913960400191505060405180910390fd5b600061241460006112f8565b905060007f00000000000000000000000000000000000000000000000000000000000000006001600160a01b03166318160ddd6040518163ffffffff1660e01b815260040160206040518083038186803b15801561247157600080fd5b505afa158015612485573d6000803e3d6000fd5b505050506040513d602081101561249b57600080fd5b5051905060006124af82610ac78986611db0565b905060007f00000000000000000000000000000000000000000000000000000000000000006001600160a01b03166370a08231306040518263ffffffff1660e01b815260040180826001600160a01b0316815260200191505060206040518083038186803b15801561252057600080fd5b505afa158015612534573d6000803e3d6000fd5b505050506040513d602081101561254a57600080fd5b50519050808211156125ef576001600160a01b037f0000000000000000000000000000000000000000000000000000000000000000166340c10f19306125908585611d65565b6040518363ffffffff1660e01b815260040180836001600160a01b0316815260200182815260200192505050600060405180830381600087803b1580156125d657600080fd5b505af11580156125ea573d6000803e3d6000fd5b505050505b7f00000000000000000000000000000000000000000000000000000000000000006001600160a01b0316639dc29fac8b8a6040518363ffffffff1660e01b815260040180836001600160a01b0316815260200182815260200192505050600060405180830381600087803b15801561266657600080fd5b505af115801561267a573d6000803e3d6000fd5b505050507f00000000000000000000000000000000000000000000000000000000000000006001600160a01b031663a9059cbb7f0000000000000000000000000000000000000000000000000000000000000000846040518363ffffffff1660e01b815260040180836001600160a01b0316815260200182815260200192505050602060405180830381600087803b15801561271557600080fd5b505af1158015612729573d6000803e3d6000fd5b505050506040513d602081101561273f57600080fd5b505060408051630711e61960e41b81526001600160a01b038b81166004830152888116602483015291516000927f0000000000000000000000000000000000000000000000000000000000000000169163711e619091604480830192602092919082900301818787803b1580156127b557600080fd5b505af11580156127c9573d6000803e3d6000fd5b505050506040513d60208110156127df57600080fd5b5051905087811015612838576040805162461bcd60e51b815260206004820152601f60248201527f5a6c704d616e616765723a20696e73756666696369656e74206f757470757400604482015290519081900360640190fd5b604080516001600160a01b03808e1682528c1660208201528082018b9052606081018790526080810186905260a0810185905260c0810183905290517f87b9679bb9a4944bafa98c267e7cd4a00ab29fed48afdefae25f0fca5da279409181900360e00190a19a9950505050505050505050565b6000818484111561293b5760405162461bcd60e51b81526004018080602001828103825283818151815260200191508051906020019080838360005b838110156129005781810151838201526020016128e8565b50505050905090810190601f16801561292d5780820380516001836020036101000a031916815260200191505b509250505060405180910390fd5b505050900390565b600081836129925760405162461bcd60e51b81526020600482018181528351602484015283519092839260449091019190850190808383600083156129005781810151838201526020016128e8565b50600083858161299e57fe5b0495945050505050565b604080516001600160a01b0380861660248301528416604482015260648082018490528251808303909101815260849091019091526020810180516001600160e01b03166323b872dd60e01b179052612a02908590612a08565b50505050565b6060612a5d826040518060400160405280602081526020017f5361666545524332303a206c6f772d6c6576656c2063616c6c206661696c6564815250856001600160a01b0316612abe9092919063ffffffff16565b805190915015612ab957808060200190516020811015612a7c57600080fd5b5051612ab95760405162461bcd60e51b815260040180806020018281038252602a815260200180612d1b602a913960400191505060405180910390fd5b505050565b6060611c83848460008585612ad285612be4565b612b23576040805162461bcd60e51b815260206004820152601d60248201527f416464726573733a2063616c6c20746f206e6f6e2d636f6e7472616374000000604482015290519081900360640190fd5b60006060866001600160a01b031685876040518082805190602001908083835b60208310612b625780518252601f199092019160209182019101612b43565b6001836020036101000a03801982511681845116808217855250505050505090500191505060006040518083038185875af1925050503d8060008114612bc4576040519150601f19603f3d011682016040523d82523d6000602084013e612bc9565b606091505b5091509150612bd9828286612bea565b979650505050505050565b3b151590565b60608315612bf9575081611328565b825115612c095782518084602001fd5b60405162461bcd60e51b81526020600482018181528451602484015284518593919283926044019190850190808383600083156129005781810151838201526020016128e856fe5265656e7472616e637947756172643a207265656e7472616e742063616c6c00476f7665726e61626c653a20666f7262696464656e00000000000000000000005a6c704d616e616765723a20696e73756666696369656e74205a4c50206f7574707574476f7665726e61626c653a2070726f706f73616c206973206e6f7420616374697665536166654d6174683a206d756c7469706c69636174696f6e206f766572666c6f775a6c704d616e616765723a20696e73756666696369656e742055534447206f75747075745361666545524332303a204552433230206f7065726174696f6e20646964206e6f7420737563636565645a6c704d616e616765723a20696e73756666696369656e7420617661696c61626c652062616c616e63652064756520746f20636f6f6c646f776ea26469706673582212202e3d12961d827a4f539d59d52e5557f108f5dcb4af7a14537acef0a7d5f69d4b64736f6c634300060c0033608060405234801561001057600080fd5b50604080518082019091526005808252642a37b5b2b760d91b602090920191825261003d9160039161007d565b50604080518082019091526005808252642a27a5a2a760d91b602090920191825261006a9160049161007d565b506005805460ff19166012179055610110565b828054600181600116156101000203166002900490600052602060002090601f016020900481019282601f106100be57805160ff19168380011785556100eb565b828001600101855582156100eb579182015b828111156100eb5782518255916020019190600101906100d0565b506100f79291506100fb565b5090565b5b808211156100f757600081556001016100fc565b610ed48061011f6000396000f3fe6080604052600436106100b85760003560e01c806301e33667146100bd57806306fdde0314610102578063095ea7b31461018c57806318160ddd146101d957806323b872dd146102005780632e1a7d4d14610243578063313ce5671461026d578063395093511461029857806340c10f19146102d157806370a082311461030a57806395d89b411461033d578063a457c2d714610352578063a9059cbb1461038b578063d0e30db0146103c4578063dd62ed3e146103cc575b600080fd5b3480156100c957600080fd5b50610100600480360360608110156100e057600080fd5b506001600160a01b03813581169160208101359091169060400135610407565b005b34801561010e57600080fd5b5061011761048f565b6040805160208082528351818301528351919283929083019185019080838360005b83811015610151578181015183820152602001610139565b50505050905090810190601f16801561017e5780820380516001836020036101000a031916815260200191505b509250505060405180910390f35b34801561019857600080fd5b506101c5600480360360408110156101af57600080fd5b506001600160a01b038135169060200135610525565b604080519115158252519081900360200190f35b3480156101e557600080fd5b506101ee610542565b60408051918252519081900360200190f35b34801561020c57600080fd5b506101c56004803603606081101561022357600080fd5b506001600160a01b03813581169160208101359091169060400135610548565b34801561024f57600080fd5b506101006004803603602081101561026657600080fd5b50356105cf565b34801561027957600080fd5b5061028261066c565b6040805160ff9092168252519081900360200190f35b3480156102a457600080fd5b506101c5600480360360408110156102bb57600080fd5b506001600160a01b038135169060200135610675565b3480156102dd57600080fd5b50610100600480360360408110156102f457600080fd5b506001600160a01b0381351690602001356106c3565b34801561031657600080fd5b506101ee6004803603602081101561032d57600080fd5b50356001600160a01b03166106cd565b34801561034957600080fd5b506101176106e8565b34801561035e57600080fd5b506101c56004803603604081101561037557600080fd5b506001600160a01b038135169060200135610749565b34801561039757600080fd5b506101c5600480360360408110156103ae57600080fd5b506001600160a01b0381351690602001356107b1565b6101006107c5565b3480156103d857600080fd5b506101ee600480360360408110156103ef57600080fd5b506001600160a01b03813581169160200135166107d1565b826001600160a01b031663a9059cbb83836040518363ffffffff1660e01b815260040180836001600160a01b0316815260200182815260200192505050602060405180830381600087803b15801561045e57600080fd5b505af1158015610472573d6000803e3d6000fd5b505050506040513d602081101561048857600080fd5b5050505050565b60038054604080516020601f600260001961010060018816150201909516949094049384018190048102820181019092528281526060939092909183018282801561051b5780601f106104f05761010080835404028352916020019161051b565b820191906000526020600020905b8154815290600101906020018083116104fe57829003601f168201915b5050505050905090565b60006105396105326107fc565b8484610800565b50600192915050565b60025490565b60006105558484846108ec565b6105c5846105616107fc565b6105c085604051806060016040528060288152602001610dc8602891396001600160a01b038a1660009081526001602052604081209061059f6107fc565b6001600160a01b031681526020810191909152604001600020549190610a35565b610800565b5060019392505050565b33600090815260208190526040902054811115610631576040805162461bcd60e51b815260206004820152601b60248201527a546f6b656e3a20696e73756666696369656e742062616c616e636560281b604482015290519081900360640190fd5b61063b3382610acc565b604051339082156108fc029083906000818181858888f19350505050158015610668573d6000803e3d6000fd5b5050565b60055460ff1690565b60006105396106826107fc565b846105c085600160006106936107fc565b6001600160a01b03908116825260208083019390935260409182016000908120918c168152925290205490610bb6565b6106688282610c15565b6001600160a01b031660009081526020819052604090205490565b60048054604080516020601f600260001961010060018816150201909516949094049384018190048102820181019092528281526060939092909183018282801561051b5780601f106104f05761010080835404028352916020019161051b565b60006105396107566107fc565b846105c085604051806060016040528060258152602001610e7a60259139600160006107806107fc565b6001600160a01b03908116825260208083019390935260409182016000908120918d16815292529020549190610a35565b60006105396107be6107fc565b84846108ec565b6107cf3334610c15565b565b6001600160a01b03918216600090815260016020908152604080832093909416825291909152205490565b3390565b6001600160a01b0383166108455760405162461bcd60e51b8152600401808060200182810382526024815260200180610e566024913960400191505060405180910390fd5b6001600160a01b03821661088a5760405162461bcd60e51b8152600401808060200182810382526022815260200180610d806022913960400191505060405180910390fd5b6001600160a01b03808416600081815260016020908152604080832094871680845294825291829020859055815185815291517f8c5be1e5ebec7d5bd14f71427d1e84f3dd0314c0f7b2291e5b200ac8c7c3b9259281900390910190a3505050565b6001600160a01b0383166109315760405162461bcd60e51b8152600401808060200182810382526025815260200180610e316025913960400191505060405180910390fd5b6001600160a01b0382166109765760405162461bcd60e51b8152600401808060200182810382526023815260200180610d3b6023913960400191505060405180910390fd5b610981838383610cf3565b6109be81604051806060016040528060268152602001610da2602691396001600160a01b0386166000908152602081905260409020549190610a35565b6001600160a01b0380851660009081526020819052604080822093909355908416815220546109ed9082610bb6565b6001600160a01b03808416600081815260208181526040918290209490945580518581529051919392871692600080516020610df083398151915292918290030190a3505050565b60008184841115610ac45760405162461bcd60e51b81526004018080602001828103825283818151815260200191508051906020019080838360005b83811015610a89578181015183820152602001610a71565b50505050905090810190601f168015610ab65780820380516001836020036101000a031916815260200191505b509250505060405180910390fd5b505050900390565b6001600160a01b038216610b115760405162461bcd60e51b8152600401808060200182810382526021815260200180610e106021913960400191505060405180910390fd5b610b1d82600083610cf3565b610b5a81604051806060016040528060228152602001610d5e602291396001600160a01b0385166000908152602081905260409020549190610a35565b6001600160a01b038316600090815260208190526040902055600254610b809082610cf8565b6002556040805182815290516000916001600160a01b03851691600080516020610df08339815191529181900360200190a35050565b600082820183811015610c0e576040805162461bcd60e51b815260206004820152601b60248201527a536166654d6174683a206164646974696f6e206f766572666c6f7760281b604482015290519081900360640190fd5b9392505050565b6001600160a01b038216610c70576040805162461bcd60e51b815260206004820152601f60248201527f45524332303a206d696e7420746f20746865207a65726f206164647265737300604482015290519081900360640190fd5b610c7c60008383610cf3565b600254610c899082610bb6565b6002556001600160a01b038216600090815260208190526040902054610caf9082610bb6565b6001600160a01b038316600081815260208181526040808320949094558351858152935192939192600080516020610df08339815191529281900390910190a35050565b505050565b6000610c0e83836040518060400160405280601e81526020017f536166654d6174683a207375627472616374696f6e206f766572666c6f770000815250610a3556fe45524332303a207472616e7366657220746f20746865207a65726f206164647265737345524332303a206275726e20616d6f756e7420657863656564732062616c616e636545524332303a20617070726f766520746f20746865207a65726f206164647265737345524332303a207472616e7366657220616d6f756e7420657863656564732062616c616e636545524332303a207472616e7366657220616d6f756e74206578636565647320616c6c6f77616e6365ddf252ad1be2c89b69c2b068fc378daa952ba7f163c4a11628f55a4df523b3ef45524332303a206275726e2066726f6d20746865207a65726f206164647265737345524332303a207472616e736665722066726f6d20746865207a65726f206164647265737345524332303a20617070726f76652066726f6d20746865207a65726f206164647265737345524332303a2064656372656173656420616c6c6f77616e63652062656c6f77207a65726fa2646970667358221220bcfeb43df4d92faf333fe7184fa73b7dbc8b4a40babb6b55d7072e0f407b863464736f6c634300060c003360806040523480156200001157600080fd5b5060405162000f6838038062000f68833981810160405260608110156200003757600080fd5b81019080805160405193929190846401000000008211156200005857600080fd5b9083019060208201858111156200006e57600080fd5b82516401000000008111828201881017156200008957600080fd5b82525081516020918201929091019080838360005b83811015620000b85781810151838201526020016200009e565b50505050905090810190601f168015620000e65780820380516001836020036101000a031916815260200191505b50604052602001805160405193929190846401000000008211156200010a57600080fd5b9083019060208201858111156200012057600080fd5b82516401000000008111828201881017156200013b57600080fd5b82525081516020918201929091019080838360005b838110156200016a57818101518382015260200162000150565b50505050905090810190601f168015620001985780820380516001836020036101000a031916815260200191505b506040526020908101518551909350620001b99250600191860190620001ed565b508151620001cf906002906020850190620001ed565b506003805460ff191660ff9290921691909117905550620002899050565b828054600181600116156101000203166002900490600052602060002090601f016020900481019282601f106200023057805160ff191683800117855562000260565b8280016001018555821562000260579182015b828111156200026057825182559160200191906001019062000243565b506200026e92915062000272565b5090565b5b808211156200026e576000815560010162000273565b610ccf80620002996000396000f3fe6080604052600436106100ad5760003560e01c806306fdde03146100b2578063095ea7b31461013c57806318160ddd1461018957806323b872dd146101b05780632e1a7d4d146101f3578063313ce5671461021f578063395093511461024a57806340c10f191461028357806370a08231146102bc57806395d89b41146102ef578063a457c2d714610304578063a9059cbb1461033d578063d0e30db014610376578063dd62ed3e1461037e575b600080fd5b3480156100be57600080fd5b506100c76103b9565b6040805160208082528351818301528351919283929083019185019080838360005b838110156101015781810151838201526020016100e9565b50505050905090810190601f16801561012e5780820380516001836020036101000a031916815260200191505b509250505060405180910390f35b34801561014857600080fd5b506101756004803603604081101561015f57600080fd5b506001600160a01b03813516906020013561044e565b604080519115158252519081900360200190f35b34801561019557600080fd5b5061019e61046b565b60408051918252519081900360200190f35b3480156101bc57600080fd5b50610175600480360360608110156101d357600080fd5b506001600160a01b03813581169160208101359091169060400135610471565b3480156101ff57600080fd5b5061021d6004803603602081101561021657600080fd5b50356104f8565b005b34801561022b57600080fd5b50610234610570565b6040805160ff9092168252519081900360200190f35b34801561025657600080fd5b506101756004803603604081101561026d57600080fd5b506001600160a01b038135169060200135610579565b34801561028f57600080fd5b5061021d600480360360408110156102a657600080fd5b506001600160a01b0381351690602001356105c7565b3480156102c857600080fd5b5061019e600480360360208110156102df57600080fd5b50356001600160a01b03166105d1565b3480156102fb57600080fd5b506100c76105ec565b34801561031057600080fd5b506101756004803603604081101561032757600080fd5b506001600160a01b03813516906020013561064a565b34801561034957600080fd5b506101756004803603604081101561036057600080fd5b506001600160a01b0381351690602001356106b2565b61021d6106c6565b34801561038a57600080fd5b5061019e600480360360408110156103a157600080fd5b506001600160a01b03813581169160200135166106f2565b60018054604080516020601f600260001961010087891615020190951694909404938401819004810282018101909252828152606093909290918301828280156104445780601f1061041957610100808354040283529160200191610444565b820191906000526020600020905b81548152906001019060200180831161042757829003601f168201915b5050505050905090565b600061046261045b61071d565b8484610721565b50600192915050565b60005490565b600061047e84848461080d565b6104ee8461048a61071d565b6104e985604051806060016040528060288152602001610c04602891396001600160a01b038a166000908152600560205260408120906104c861071d565b6001600160a01b03168152602081019190915260400160002054919061096a565b610721565b5060019392505050565b3360009081526004602052604090205481111561051457600080fd5b3360009081526004602052604090205461052e9082610a01565b33600081815260046020526040808220939093559151909183156108fc02918491818181858888f1935050505015801561056c573d6000803e3d6000fd5b5050565b60035460ff1690565b600061046261058661071d565b846104e9856005600061059761071d565b6001600160a01b03908116825260208083019390935260409182016000908120918c168152925290205490610a4a565b61056c8282610aa2565b6001600160a01b031660009081526004602052604090205490565b60028054604080516020601f60001961010060018716150201909416859004938401819004810282018101909252828152606093909290918301828280156104445780601f1061041957610100808354040283529160200191610444565b600061046261065761071d565b846104e985604051806060016040528060258152602001610c75602591396005600061068161071d565b6001600160a01b03908116825260208083019390935260409182016000908120918d1681529252902054919061096a565b60006104626106bf61071d565b848461080d565b336000908152600460205260409020546106e09034610a4a565b33600090815260046020526040902055565b6001600160a01b03918216600090815260056020908152604080832093909416825291909152205490565b3390565b6001600160a01b0383166107665760405162461bcd60e51b8152600401808060200182810382526024815260200180610c516024913960400191505060405180910390fd5b6001600160a01b0382166107ab5760405162461bcd60e51b8152600401808060200182810382526022815260200180610bbc6022913960400191505060405180910390fd5b6001600160a01b03808416600081815260056020908152604080832094871680845294825291829020859055815185815291517f8c5be1e5ebec7d5bd14f71427d1e84f3dd0314c0f7b2291e5b200ac8c7c3b9259281900390910190a3505050565b6001600160a01b0383166108525760405162461bcd60e51b8152600401808060200182810382526025815260200180610c2c6025913960400191505060405180910390fd5b6001600160a01b0382166108975760405162461bcd60e51b8152600401808060200182810382526023815260200180610b996023913960400191505060405180910390fd5b6108a2838383610b93565b6108df81604051806060016040528060268152602001610bde602691396001600160a01b038616600090815260046020526040902054919061096a565b6001600160a01b03808516600090815260046020526040808220939093559084168152205461090e9082610a4a565b6001600160a01b0380841660008181526004602090815260409182902094909455805185815290519193928716927fddf252ad1be2c89b69c2b068fc378daa952ba7f163c4a11628f55a4df523b3ef92918290030190a3505050565b600081848411156109f95760405162461bcd60e51b81526004018080602001828103825283818151815260200191508051906020019080838360005b838110156109be5781810151838201526020016109a6565b50505050905090810190601f1680156109eb5780820380516001836020036101000a031916815260200191505b509250505060405180910390fd5b505050900390565b6000610a4383836040518060400160405280601e81526020017f536166654d6174683a207375627472616374696f6e206f766572666c6f77000081525061096a565b9392505050565b600082820183811015610a43576040805162461bcd60e51b815260206004820152601b60248201527a536166654d6174683a206164646974696f6e206f766572666c6f7760281b604482015290519081900360640190fd5b6001600160a01b038216610afd576040805162461bcd60e51b815260206004820152601f60248201527f45524332303a206d696e7420746f20746865207a65726f206164647265737300604482015290519081900360640190fd5b610b0960008383610b93565b600054610b169082610a4a565b60009081556001600160a01b038316815260046020526040902054610b3b9082610a4a565b6001600160a01b03831660008181526004602090815260408083209490945583518581529351929391927fddf252ad1be2c89b69c2b068fc378daa952ba7f163c4a11628f55a4df523b3ef9281900390910190a35050565b50505056fe45524332303a207472616e7366657220746f20746865207a65726f206164647265737345524332303a20617070726f766520746f20746865207a65726f206164647265737345524332303a207472616e7366657220616d6f756e7420657863656564732062616c616e636545524332303a207472616e7366657220616d6f756e74206578636565647320616c6c6f77616e636545524332303a207472616e736665722066726f6d20746865207a65726f206164647265737345524332303a20617070726f76652066726f6d20746865207a65726f206164647265737345524332303a2064656372656173656420616c6c6f77616e63652062656c6f77207a65726fa2646970667358221220f316bef8f68a08fb586871b3f9bf5b15a5264dd7d9298887c8463c5307d1714664736f6c634300060c003360806040526002805461ff0019169055600060115534801561002057600080fd5b506040516200336238038062003362833981810160405260e081101561004557600080fd5b508051602082015160408301516060840151608085015160a086015160c090960151600080546001600160a01b0319163317905594959394929391929091906107088711156100c65760405162461bcd60e51b81526004018080602001828103825260258152602001806200333d6025913960400191505060405180910390fd5b600896909655600994909455600c92909255600f55600380546001600160a01b039283166001600160a01b03199182161790915560048054938316938216939093179092556005805491909316911617905561321580620001286000396000f3fe608060405234801561001057600080fd5b506004361061033c5760003560e01c806374bfed89116101b5578063b0a25666116100f5578063b0a2566614610c1d578063b3606b5614610c25578063b70c7b7014610c2d578063c8390a4814610c4a578063c84a912414610d6d578063cab44b7614610d75578063ce98dfa814610dd3578063cfad57a214610df2578063cfed246b14610e18578063d6a153f114610e3e578063d925351a14610e5b578063de0d1b9414610e78578063dfb481c914610e95578063e64559ad14610e9d578063e68a22c014610ea5578063eeaa783a14610ead578063f90ce5ba14610eb55761033c565b806374bfed8914610844578063776d16c11461084c578063782661bc146108695780637bc6729b1461098e5780637cb2b79c146109965780637df73e27146109bc5780637fbc79c6146109e25780637fece36814610b0c578063807c97821461043a57806382553aad14610b405780638b7677f414610b5d5780638d0fedb014610b7a57806395082d2514610bb95780639c35b49714610bc1578063a2b47c1614610be7578063a374242514610bef578063a6eca89614610c155761033c565b80633aa08f86116102805780633aa08f861461059357806344c231931461059b5780634bd66c1c1461043a5780634c0e31c8146105b85780634d11fb4a146106db5780634f64b2be146106f85780634fdfb0861461071557806354aea1271461073b578063574ec1be1461074357806361ef161f1461077e578063668d3d6514610786578063695d41841461078e5780636bb22fd7146107965780636c56fd05146107c25780636ccd47c4146107e8578063715c7536146107f057806372279ba1146107f85761033c565b806303b049361461034157806303cd25711461037b57806303f4d7dc146103955780630604ddea1461043a5780630e9272ea14610442578063126082cf1461046657806312d43a511461046e57806314dd2dce14610476578063162ac4e01461049357806317835d1c146104b95780631a153391146104dc578063238aafb71461050a578063287800c9146105305780632a709b14146105385780632e9cd94b1461054057806331cb61051461055d578063392e53cd1461058b575b600080fd5b6103676004803603602081101561035757600080fd5b50356001600160a01b0316610ebd565b604080519115158252519081900360200190f35b610383610ed2565b60408051918252519081900360200190f35b610438600480360360408110156103ab57600080fd5b810190602081018135600160201b8111156103c557600080fd5b8201836020820111156103d757600080fd5b803590602001918460208302840111600160201b831117156103f857600080fd5b9190808060200260200160405190810160405280939291908181526020018383602002808284376000920191909152509295505091359250610ed8915050565b005b610383611056565b61044a61105e565b604080516001600160a01b039092168252519081900360200190f35b61038361106d565b61044a611073565b6104386004803603602081101561048c57600080fd5b5035611082565b610438600480360360208110156104a957600080fd5b50356001600160a01b03166110d4565b610438600480360360408110156104cf57600080fd5b5080359060200135611143565b610438600480360360408110156104f257600080fd5b506001600160a01b038135169060200135151561119f565b6104386004803603602081101561052057600080fd5b50356001600160a01b0316611217565b61038361128e565b61044a611294565b6104386004803603602081101561055657600080fd5b50356112a3565b6104386004803603604081101561057357600080fd5b506001600160a01b03813516906020013515156112f5565b61036761136d565b610383611376565b610438600480360360208110156105b157600080fd5b503561137c565b610438600480360360408110156105ce57600080fd5b810190602081018135600160201b8111156105e857600080fd5b8201836020820111156105fa57600080fd5b803590602001918460208302840111600160201b8311171561061b57600080fd5b9190808060200260200160405190810160405280939291908181526020018383602002808284376000920191909152509295949360208101935035915050600160201b81111561066a57600080fd5b82018360208201111561067c57600080fd5b803590602001918460208302840111600160201b8311171561069d57600080fd5b91908080602002602001604051908101604052809392919081815260200183836020028082843760009201919091525092955061140f945050505050565b610383600480360360208110156106f157600080fd5b50356114ba565b61044a6004803603602081101561070e57600080fd5b50356114d8565b6103676004803603602081101561072b57600080fd5b50356001600160a01b03166114ff565b610383611514565b610438600480360360c081101561075957600080fd5b5080359060208101359060408101359060608101359060808101359060a0013561151a565b61044a611732565b610383611741565b610367611747565b610438600480360360408110156107ac57600080fd5b506001600160a01b038135169060200135611755565b610367600480360360208110156107d857600080fd5b50356001600160a01b0316611866565b6104386118f1565b610383611a04565b61081e6004803603602081101561080e57600080fd5b50356001600160a01b0316611a0a565b604080519485526020850193909352838301919091526060830152519081900360800190f35b610383611a88565b6104386004803603602081101561086257600080fd5b5035611a8e565b6104386004803603606081101561087f57600080fd5b810190602081018135600160201b81111561089957600080fd5b8201836020820111156108ab57600080fd5b803590602001918460208302840111600160201b831117156108cc57600080fd5b9190808060200260200160405190810160405280939291908181526020018383602002808284376000920191909152509295949360208101935035915050600160201b81111561091b57600080fd5b82018360208201111561092d57600080fd5b803590602001918460208302840111600160201b8311171561094e57600080fd5b9190808060200260200160405190810160405280939291908181526020018383602002808284376000920191909152509295505091359250611ae0915050565b610438611bb5565b610438600480360360208110156109ac57600080fd5b50356001600160a01b0316611cc9565b610367600480360360208110156109d257600080fd5b50356001600160a01b0316611d38565b610438600480360360608110156109f857600080fd5b81359190810190604081016020820135600160201b811115610a1957600080fd5b820183602082011115610a2b57600080fd5b803590602001918460208302840111600160201b83111715610a4c57600080fd5b9190808060200260200160405190810160405280939291908181526020018383602002808284376000920191909152509295949360208101935035915050600160201b811115610a9b57600080fd5b820183602082011115610aad57600080fd5b803590602001918460208302840111600160201b83111715610ace57600080fd5b919080806020026020016040519081016040528093929190818152602001838360200280828437600092019190915250929550611d4d945050505050565b61038360048036036060811015610b2257600080fd5b506001600160a01b0381351690602081013590604001351515611e9b565b61043860048036036020811015610b5657600080fd5b5035611eb8565b61043860048036036020811015610b7357600080fd5b5035611f0a565b610ba060048036036020811015610b9057600080fd5b50356001600160a01b0316611f5c565b6040805192835290151560208301528051918290030190f35b610383611f78565b61043860048036036020811015610bd757600080fd5b50356001600160a01b0316611f88565b610383612099565b61038360048036036020811015610c0557600080fd5b50356001600160a01b03166120a0565b6103836120b2565b6103836120b8565b6103836120be565b61043860048036036020811015610c4357600080fd5b50356120c4565b61043860048036036040811015610c6057600080fd5b810190602081018135600160201b811115610c7a57600080fd5b820183602082011115610c8c57600080fd5b803590602001918460208302840111600160201b83111715610cad57600080fd5b9190808060200260200160405190810160405280939291908181526020018383602002808284376000920191909152509295949360208101935035915050600160201b811115610cfc57600080fd5b820183602082011115610d0e57600080fd5b803590602001918460208302840111600160201b83111715610d2f57600080fd5b919080806020026020016040519081016040528093929190818152602001838360200280828437600092019190915250929550612116945050505050565b6104386121e0565b610d9b60048036036020811015610d8b57600080fd5b50356001600160a01b03166122f7565b604080516001600160a01b03909516855263ffffffff9384166020860152918316848301529091166060830152519081900360800190f35b61043860048036036020811015610de957600080fd5b50351515612336565b61043860048036036020811015610e0857600080fd5b50356001600160a01b031661239d565b61038360048036036020811015610e2e57600080fd5b50356001600160a01b03166124b3565b61043860048036036020811015610e5457600080fd5b50356124c5565b61043860048036036020811015610e7157600080fd5b5035612517565b61043860048036036020811015610e8e57600080fd5b5035612569565b6103836125bb565b6103836125c1565b6103836125c7565b61044a6125d2565b6103836125e7565b60176020526000908152604090205460ff1681565b60085481565b3360009081526012602052604090205460ff16610f2a576040805162461bcd60e51b815260206004820152601860248201526000805160206130a8833981519152604482015290519081900360640190fd5b6000610f35826125ed565b90508015611050576003546002546001600160a01b0391821691620100009091041660005b855181101561104c576000868281518110610f7157fe5b6020026020010151905060005b600881101561104257601854600884028201908110610fa35750505050505050611052565b60188054602084029185831c63ffffffff169160009190600889028701908110610fc957fe5b6000918252602082200154601980546001600160a01b0390921693509060088a028801908110610ff557fe5b600091825260208220015491506110228261101c8668327cb2734119d3b7a9601e1b6126f9565b9061275b565b905061103083828c8e61279a565b505060019094019350610f7e92505050565b5050600101610f5a565b5050505b505b5050565b63ffffffff81565b6003546001600160a01b031681565b61271081565b6000546001600160a01b031681565b6000546001600160a01b031633146110cf576040805162461bcd60e51b81526020600482015260156024820152600080516020613088833981519152604482015290519081900360640190fd5b600655565b6000546001600160a01b03163314611121576040805162461bcd60e51b81526020600482015260156024820152600080516020613088833981519152604482015290519081900360640190fd5b600380546001600160a01b0319166001600160a01b0392909216919091179055565b3360009081526012602052604090205460ff16611195576040805162461bcd60e51b815260206004820152601860248201526000805160206130a8833981519152604482015290519081900360640190fd5b6110528282612a2f565b6000546001600160a01b031633146111ec576040805162461bcd60e51b81526020600482015260156024820152600080516020613088833981519152604482015290519081900360640190fd5b6001600160a01b03919091166000908152601260205260409020805460ff1916911515919091179055565b6000546001600160a01b03163314611264576040805162461bcd60e51b81526020600482015260156024820152600080516020613088833981519152604482015290519081900360640190fd5b600280546001600160a01b03909216620100000262010000600160b01b0319909216919091179055565b60105481565b6004546001600160a01b031681565b6004546001600160a01b031633146112f0576040805162461bcd60e51b815260206004820152601860248201526000805160206130a8833981519152604482015290519081900360640190fd5b600e55565b6000546001600160a01b03163314611342576040805162461bcd60e51b81526020600482015260156024820152600080516020613088833981519152604482015290519081900360640190fd5b6001600160a01b03919091166000908152601660205260409020805460ff1916911515919091179055565b60025460ff1681565b600d5481565b6000546001600160a01b031633146113c9576040805162461bcd60e51b81526020600482015260156024820152600080516020613088833981519152604482015290519081900360640190fd5b61070881111561140a5760405162461bcd60e51b81526004018080602001828103825260258152602001806130396025913960400191505060405180910390fd5b600855565b6004546001600160a01b0316331461145c576040805162461bcd60e51b815260206004820152601860248201526000805160206130a8833981519152604482015290519081900360640190fd5b60005b825181101561105057600083828151811061147657fe5b6020026020010151905082828151811061148c57fe5b6020908102919091018101516001600160a01b0390921660009081526015909152604090205560010161145f565b601981815481106114c757fe5b600091825260209091200154905081565b601881815481106114e557fe5b6000918252602090912001546001600160a01b0316905081565b60126020526000908152604090205460ff1681565b60065481565b3360009081526012602052604090205460ff1661156c576040805162461bcd60e51b815260206004820152601860248201526000805160206130a8833981519152604482015290519081900360640190fd5b6115768686612a2f565b6000600560009054906101000a90046001600160a01b03169050600061160184836001600160a01b0316639b5786206040518163ffffffff1660e01b815260040160206040518083038186803b1580156115cf57600080fd5b505afa1580156115e3573d6000803e3d6000fd5b505050506040513d60208110156115f957600080fd5b505190612b0c565b9050600061164284846001600160a01b0316631bca8cf06040518163ffffffff1660e01b815260040160206040518083038186803b1580156115cf57600080fd5b905081871115611650578196505b8086111561165c578095505b60408051629a208160e81b81526004810189905233602482015290516001600160a01b03851691639a20810091604480830192600092919082900301818387803b1580156116a957600080fd5b505af11580156116bd573d6000803e3d6000fd5b50506040805163f3883d8b60e01b8152600481018a905233602482015290516001600160a01b038716935063f3883d8b9250604480830192600092919082900301818387803b15801561170f57600080fd5b505af1158015611723573d6000803e3d6000fd5b50505050505050505050505050565b6005546001600160a01b031681565b61070881565b600254610100900460ff1681565b6000546001600160a01b031633146117a2576040805162461bcd60e51b81526020600482015260156024820152600080516020613088833981519152604482015290519081900360640190fd5b6001600160a01b0382166117fb576040805162461bcd60e51b815260206004820152601b60248201527a476f7665726e61626c653a20696e76616c6964206164647265737360281b604482015290519081900360640190fd5b6000546001600160a01b038381169116141561185c576040805162461bcd60e51b815260206004820152601b60248201527a476f7665726e61626c653a2073616d6520676f7665726e616e636560281b604482015290519081900360640190fd5b6110528282612b64565b600254600090610100900460ff1615611881575060006118ec565b60105460115410611894575060006118ec565b6000806118a084611a0a565b93509350505081811180156118d557506001600160a01b0384166000908152601560205260409020546118d38284612bdf565b115b156118e5576000925050506118ec565b6001925050505b919050565b3360009081526016602052604090205460ff16611943576040805162461bcd60e51b815260206004820152601860248201526000805160206130a8833981519152604482015290519081900360640190fd5b3360009081526017602052604090205460ff166119a7576040805162461bcd60e51b815260206004820152601e60248201527f466173745072696365466565643a20616c726561647920656e61626c65640000604482015290519081900360640190fd5b336000908152601760205260409020805460ff191690556011546119cc906001612bdf565b6011556040805133815290517f9fe0c305c33aa92757a537936872a60be0d91549a4303cc99fd8b7fce8a002759181900360200190a1565b600f5481565b600080600080611a18612f31565b505050506001600160a01b039182166000908152601460209081526040918290208251608081018452905494851680825263ffffffff600160a01b87048116938301849052600160c01b87048116948301859052600160e01b909604909516606090910181905293949093919250565b600a5481565b6000546001600160a01b03163314611adb576040805162461bcd60e51b81526020600482015260156024820152600080516020613088833981519152604482015290519081900360640190fd5b600d55565b3360009081526012602052604090205460ff16611b32576040805162461bcd60e51b815260206004820152601860248201526000805160206130a8833981519152604482015290519081900360640190fd5b6000611b3d826125ed565b90508015611baf576003546002546001600160a01b0391821691620100009091041660005b8651811015611bab576000878281518110611b7957fe5b60200260200101519050611ba281888481518110611b9357fe5b6020026020010151858761279a565b50600101611b62565b5050505b50505050565b33600090815260016020526040902080544210611c18576040805162461bcd60e51b815260206004820152601c60248201527b11dbdd995c9b98589b194e88191958591b1a5b9948195e1c1a5c995960221b604482015290519081900360640190fd5b60018082015460ff16151514611c5f5760405162461bcd60e51b81526004018080602001828103825260228152602001806130c86022913960400191505060405180910390fd5b6000805433808352600160208190526040808520858155909101805460ff1916905583546001600160a01b03191682178455516001600160a01b0390921692909183917f5f56bee8cffbe9a78652a74a60705edede02af10b0bbb888ca44b79a0d42ce8091a35050565b6004546001600160a01b03163314611d16576040805162461bcd60e51b815260206004820152601860248201526000805160206130a8833981519152604482015290519081900360640190fd5b600480546001600160a01b0319166001600160a01b0392909216919091179055565b60166020526000908152604090205460ff1681565b6000546001600160a01b03163314611d9a576040805162461bcd60e51b81526020600482015260156024820152600080516020613088833981519152604482015290519081900360640190fd5b60025460ff1615611ddc5760405162461bcd60e51b81526004018080602001828103825260228152602001806131be6022913960400191505060405180910390fd5b6002805460ff19166001179055601083905560005b8251811015611e44576000838281518110611e0857fe5b6020908102919091018101516001600160a01b03166000908152601690915260409020805460ff19166001908117909155919091019050611df1565b5060005b8151811015611baf576000828281518110611e5f57fe5b6020908102919091018101516001600160a01b03166000908152601290915260409020805460ff19166001908117909155919091019050611e48565b50506001600160a01b031660009081526013602052604090205490565b6004546001600160a01b03163314611f05576040805162461bcd60e51b815260206004820152601860248201526000805160206130a8833981519152604482015290519081900360640190fd5b600f55565b6000546001600160a01b03163314611f57576040805162461bcd60e51b81526020600482015260156024820152600080516020613088833981519152604482015290519081900360640190fd5b600955565b6001602081905260009182526040909120805491015460ff1682565b68327cb2734119d3b7a9601e1b81565b6000546001600160a01b03163314611fd5576040805162461bcd60e51b81526020600482015260156024820152600080516020613088833981519152604482015290519081900360640190fd5b6001600160a01b0381166000908152600160208190526040909120015460ff16612046576040805162461bcd60e51b815260206004820152601f60248201527f476f7665726e61626c653a2070726f706f73616c206e6f742061637469766500604482015290519081900360640190fd5b6001600160a01b0381166000818152600160208190526040808320838155909101805460ff19169055513392917ffc6a2fa53abe2adfe8372a9495032d7e6458d3aed34fa880132b6c808da1e99c91a350565b6298968081565b60156020526000908152604090205481565b600b5481565b60115481565b600c5481565b6000546001600160a01b03163314612111576040805162461bcd60e51b81526020600482015260156024820152600080516020613088833981519152604482015290519081900360640190fd5b600a55565b6000546001600160a01b03163314612163576040805162461bcd60e51b81526020600482015260156024820152600080516020613088833981519152604482015290519081900360640190fd5b80518251146121b9576040805162461bcd60e51b815260206004820152601e60248201527f466173745072696365466565643a20696e76616c6964206c656e677468730000604482015290519081900360640190fd5b81516121cc906018906020850190612f58565b508051611050906019906020840190612fbd565b3360009081526016602052604090205460ff16612232576040805162461bcd60e51b815260206004820152601860248201526000805160206130a8833981519152604482015290519081900360640190fd5b3360009081526017602052604090205460ff1615612296576040805162461bcd60e51b815260206004820152601c60248201527b11985cdd141c9a58d9519959590e88185b1c9958591e481d9bdd195960221b604482015290519081900360640190fd5b336000908152601760205260409020805460ff191660019081179091556011546122bf91612b0c565b6011556040805133815290517f4c0c5fabf50e808e3bc8d19577d305e3a7163eea7e8a74a50caa8896694cd44b9181900360200190a1565b6014602052600090815260409020546001600160a01b0381169063ffffffff600160a01b8204811691600160c01b8104821691600160e01b9091041684565b6000546001600160a01b03163314612383576040805162461bcd60e51b81526020600482015260156024820152600080516020613088833981519152604482015290519081900360640190fd5b600280549115156101000261ff0019909216919091179055565b6000546001600160a01b031633146123ea576040805162461bcd60e51b81526020600482015260156024820152600080516020613088833981519152604482015290519081900360640190fd5b6001600160a01b038116612443576040805162461bcd60e51b815260206004820152601b60248201527a476f7665726e61626c653a20696e76616c6964206164647265737360281b604482015290519081900360640190fd5b6000546001600160a01b03828116911614156124a4576040805162461bcd60e51b815260206004820152601b60248201527a476f7665726e61626c653a2073616d6520676f7665726e616e636560281b604482015290519081900360640190fd5b6124b081600019612b64565b50565b60136020526000908152604090205481565b6000546001600160a01b03163314612512576040805162461bcd60e51b81526020600482015260156024820152600080516020613088833981519152604482015290519081900360640190fd5b600c55565b6004546001600160a01b03163314612564576040805162461bcd60e51b815260206004820152601860248201526000805160206130a8833981519152604482015290519081900360640190fd5b601055565b6000546001600160a01b031633146125b6576040805162461bcd60e51b81526020600482015260156024820152600080516020613088833981519152604482015290519081900360640190fd5b600b55565b600e5481565b60095481565b6001600160a01b0381565b6002546201000090046001600160a01b031681565b60075481565b600c546000901561264657600c54600754612609904390612bdf565b10156126465760405162461bcd60e51b815260040180806020018281038252602e815260200180613167602e913960400191505060405180910390fd5b600d546126534282612bdf565b83116126905760405162461bcd60e51b815260040180806020018281038252602d81526020018061313a602d913960400191505060405180910390fd5b61269a4282612b0c565b83106126d75760405162461bcd60e51b815260040180806020018281038252602f8152602001806130ea602f913960400191505060405180910390fd5b6006548310156126eb5760009150506118ec565b505060065543600755600190565b60008261270857506000612755565b8282028284828161271557fe5b04146127525760405162461bcd60e51b81526004018080602001828103825260218152602001806131196021913960400191505060405180910390fd5b90505b92915050565b600061275283836040518060400160405280601a815260200179536166654d6174683a206469766973696f6e206279207a65726f60301b815250612c21565b6001600160a01b03821615612a09576000826001600160a01b03166356bf9de4866040518263ffffffff1660e01b815260040180826001600160a01b0316815260200191505060206040518083038186803b1580156127f857600080fd5b505afa15801561280c573d6000803e3d6000fd5b505050506040513d602081101561282257600080fd5b50516001600160a01b03861660009081526013602052604081205491925080808061284c8a611a0a565b93509350935093506000841115612913576000848711612875576128708588612bdf565b61287f565b61287f8786612bdf565b905060008a8711612899576128948b88612bdf565b6128a3565b6128a3878c612bdf565b90506128ba600e544261275b90919063ffffffff16565b600e546128c890879061275b565b146128d65760009350600092505b6128f16128ea8761101c85629896806126f9565b8590612b0c565b935061290e6129078861101c84629896806126f9565b8490612b0c565b925050505b818111801561294257506001600160a01b038a166000908152601560205260409020546129408284612bdf565b115b1561299f57604080516001600160a01b038c16815260208101889052808201879052606081018490526080810183905290517fe582322b389ad06b2bbf619cd6da3f16a288ec873ea0fa6df4d72f3d9480b4479181900360a00190a15b6129ab8a878484612cc3565b604080516001600160a01b038c16815260208101889052808201879052606081018490526080810183905290517f23b9387f81fca646aac1dc4487ede045c65f5f7445482906565f01e05afdb3a89181900360a00190a15050505050505b6001600160a01b0384166000908152601360205260409020839055611baf818585612e59565b6000612a3a826125ed565b90508015611050576003546002546001600160a01b0391821691620100009091041660005b600881101561104c5760185481908110612a7d575050505050611052565b60188054602084029189831c63ffffffff16916000919086908110612a9e57fe5b6000918252602082200154601980546001600160a01b0390921693509087908110612ac557fe5b60009182526020822001549150612aec8261101c8668327cb2734119d3b7a9601e1b6126f9565b9050612afa83828a8c61279a565b505060019094019350612a5f92505050565b600082820183811015612752576040805162461bcd60e51b815260206004820152601b60248201527a536166654d6174683a206164646974696f6e206f766572666c6f7760281b604482015290519081900360640190fd5b604080518082018252828152600160208083018281526001600160a01b038716600081815284845286902094518555905193909201805460ff1916931515939093179092558251848152925190927f02dd0697be46e764c3ba81094158781c31b235d03bb27a0daf1bdef0ec1084dd92908290030190a25050565b600061275283836040518060400160405280601e81526020017f536166654d6174683a207375627472616374696f6e206f766572666c6f770000815250612ed7565b60008183612cad5760405162461bcd60e51b81526004018080602001828103825283818151815260200191508051906020019080838360005b83811015612c72578181015183820152602001612c5a565b50505050905090810190601f168015612c9f5780820380516001836020036101000a031916815260200191505b509250505060405180910390fd5b506000838581612cb957fe5b0495945050505050565b6001600160a01b038310612d1e576040805162461bcd60e51b815260206004820152601f60248201527f466173745072696365466565643a20696e76616c696420726566507269636500604482015290519081900360640190fd5b63ffffffff8210612d605760405162461bcd60e51b81526004018080602001828103825260298152602001806131956029913960400191505060405180910390fd5b63ffffffff8110612da25760405162461bcd60e51b815260040180806020018281038252602a81526020018061305e602a913960400191505060405180910390fd5b604080516080810182526001600160a01b03948516815263ffffffff4281166020808401918252958216838501908152948216606084019081529787166000908152601490965292909420905181549251935196518516600160e01b026001600160e01b03978616600160c01b0263ffffffff60c01b1995909616600160a01b0263ffffffff60a01b19929097166001600160a01b0319909416939093171694909417919091169190911792909216919091179055565b6001600160a01b038316612e6c57611050565b826001600160a01b031663e0409c7183836040518363ffffffff1660e01b815260040180836001600160a01b0316815260200182815260200192505050600060405180830381600087803b158015612ec357600080fd5b505af1158015611bab573d6000803e3d6000fd5b60008184841115612f295760405162461bcd60e51b8152602060048201818152835160248401528351909283926044909101919085019080838360008315612c72578181015183820152602001612c5a565b505050900390565b60408051608081018252600080825260208201819052918101829052606081019190915290565b828054828255906000526020600020908101928215612fad579160200282015b82811115612fad57825182546001600160a01b0319166001600160a01b03909116178255602090920191600190910190612f78565b50612fb9929150613004565b5090565b828054828255906000526020600020908101928215612ff8579160200282015b82811115612ff8578251825591602001919060010190612fdd565b50612fb9929150613023565b5b80821115612fb95780546001600160a01b0319168155600101613005565b5b80821115612fb9576000815560010161302456fe466173745072696365466565643a20696e76616c6964205f70726963654475726174696f6e466173745072696365466565643a20696e76616c69642063756d756c61746976654661737444656c7461476f7665726e61626c653a20666f7262696464656e0000000000000000000000466173745072696365466565643a20666f7262696464656e0000000000000000476f7665726e61626c653a2070726f706f73616c206973206e6f7420616374697665466173745072696365466565643a205f74696d657374616d70206578636565647320616c6c6f7765642072616e6765536166654d6174683a206d756c7469706c69636174696f6e206f766572666c6f77466173745072696365466565643a205f74696d657374616d702062656c6f7720616c6c6f7765642072616e6765466173745072696365466565643a206d696e426c6f636b496e74657276616c206e6f742079657420706173736564466173745072696365466565643a20696e76616c69642063756d756c617469766552656644656c7461466173745072696365466565643a20616c726561647920696e697469616c697a6564a264697066735822122094f74c60ae9db4a974413fd534d39157dbc0fee06695e3b139383d9e2c5536d664736f6c634300060c0033466173745072696365466565643a20696e76616c6964205f70726963654475726174696f6e60806040523480156200001157600080fd5b506040516200316c3803806200316c833981810160405260408110156200003757600080fd5b81019080805160405193929190846401000000008211156200005857600080fd5b9083019060208201858111156200006e57600080fd5b82516401000000008111828201881017156200008957600080fd5b82525081516020918201929091019080838360005b83811015620000b85781810151838201526020016200009e565b50505050905090810190601f168015620000e65780820380516001836020036101000a031916815260200191505b50604052602001805160405193929190846401000000008211156200010a57600080fd5b9083019060208201858111156200012057600080fd5b82516401000000008111828201881017156200013b57600080fd5b82525081516020918201929091019080838360005b838110156200016a57818101518382015260200162000150565b50505050905090810190601f168015620001985780820380516001836020036101000a031916815260200191505b506040525050600180546001600160a01b03191633179055508151620001c6906004906020850190620001e5565b508051620001dc906005906020840190620001e5565b50505062000281565b828054600181600116156101000203166002900490600052602060002090601f016020900481019282601f106200022857805160ff191683800117855562000258565b8280016001018555821562000258579182015b82811115620002585782518255916020019190600101906200023b565b50620002669291506200026a565b5090565b5b808211156200026657600081556001016200026b565b612edb80620002916000396000f3fe608060405234801561001057600080fd5b50600436106102615760003560e01c80636bb22fd71161014d5780636bb22fd7146106d657806370a0823114610702578063790b5a6c146107285780637bc6729b146107645780638d0fedb01461076c57806395d89b41146107ab5780639c35b497146107b35780639cb7de4b146107d9578063a318021714610807578063a8d936271461082d578063a9059cbb14610835578063aaf5eb6814610861578063adc9772e14610869578063b89e45b314610895578063bfe10928146108bb578063c2a672e0146108c3578063c5fa2730146108ef578063cfad57a2146108f7578063dd62ed3e1461091d578063dfbaefb11461094b578063e44b755814610953578063e950342514610981578063f5d9d63e146109a7578063f5fc5076146109d5578063f76033d3146109dd578063f7c618c1146109e557610261565b806301e336671461026657806306fdde031461029e578063095ea7b31461031b578063098bf59d1461035b57806310c1c10314610397578063126082cf146103cf57806312d43a51146103d757806313e82e7a146103fb57806318160ddd146104295780631d30d5bc146104315780631e83409a1461045057806323b872dd1461047657806327e235e3146104ac578063313ce567146104d25780633792def3146104f0578063392e53cd146105165780633cd7f7001461051e5780633e158b0c1461053d578063402914f51461054557806344a084111461056b578063462d0b2e1461059157806346ea87af1461063d578063552ce1dc1461066357806355b6ed5c146106895780635a47a1a7146106b7575b600080fd5b61029c6004803603606081101561027c57600080fd5b506001600160a01b038135811691602081013590911690604001356109ed565b005b6102a6610a53565b6040805160208082528351818301528351919283929083019185019080838360005b838110156102e05781810151838201526020016102c8565b50505050905090810190601f16801561030d5780820380516001836020036101000a031916815260200191505b509250505060405180910390f35b6103476004803603604081101561033157600080fd5b506001600160a01b038135169060200135610ae1565b604080519115158252519081900360200190f35b61029c6004803603608081101561037157600080fd5b506001600160a01b03813581169160208101358216916040820135916060013516610af8565b6103bd600480360360208110156103ad57600080fd5b50356001600160a01b0316610b62565b60408051918252519081900360200190f35b6103bd610b74565b6103df610b7a565b604080516001600160a01b039092168252519081900360200190f35b6103bd6004803603604081101561041157600080fd5b506001600160a01b0381358116916020013516610b89565b6103bd610bf4565b61029c6004803603602081101561044757600080fd5b50351515610bfa565b6103bd6004803603602081101561046657600080fd5b50356001600160a01b0316610c61565b6103476004803603606081101561048c57600080fd5b506001600160a01b03813581169160208101359091169060400135610d0b565b6103bd600480360360208110156104c257600080fd5b50356001600160a01b0316610da5565b6104da610db7565b6040805160ff9092168252519081900360200190f35b6103bd6004803603602081101561050657600080fd5b50356001600160a01b0316610dbc565b610347610dce565b61029c6004803603602081101561053457600080fd5b50351515610dd7565b61029c610e40565b6103bd6004803603602081101561055b57600080fd5b50356001600160a01b0316610e9d565b6103bd6004803603602081101561058157600080fd5b50356001600160a01b0316611007565b61029c600480360360408110156105a757600080fd5b810190602081018135600160201b8111156105c157600080fd5b8201836020820111156105d357600080fd5b803590602001918460208302840111600160201b831117156105f457600080fd5b919080806020026020016040519081016040528093929190818152602001838360200280828437600092019190915250929550505090356001600160a01b031691506110199050565b6103476004803603602081101561065357600080fd5b50356001600160a01b031661112f565b6103bd6004803603602081101561067957600080fd5b50356001600160a01b0316611144565b6103bd6004803603604081101561069f57600080fd5b506001600160a01b0381358116916020013516611156565b61029c600480360360208110156106cd57600080fd5b50351515611173565b61029c600480360360408110156106ec57600080fd5b506001600160a01b0381351690602001356111d3565b6103bd6004803603602081101561071857600080fd5b50356001600160a01b03166112e8565b61029c6004803603608081101561073e57600080fd5b506001600160a01b03813581169160208101358216916040820135169060600135611303565b61029c611362565b6107926004803603602081101561078257600080fd5b50356001600160a01b0316611477565b6040805192835290151560208301528051918290030190f35b6102a6611493565b61029c600480360360208110156107c957600080fd5b50356001600160a01b03166114ee565b61029c600480360360408110156107ef57600080fd5b506001600160a01b03813516906020013515156115fc565b6103bd6004803603602081101561081d57600080fd5b50356001600160a01b0316611674565b6103bd611686565b6103476004803603604081101561084b57600080fd5b506001600160a01b0381351690602001356116fc565b6103bd611709565b61029c6004803603604081101561087f57600080fd5b506001600160a01b038135169060200135611719565b610347600480360360208110156108ab57600080fd5b50356001600160a01b03166117c0565b6103df6117d5565b61029c600480360360408110156108d957600080fd5b506001600160a01b0381351690602001356117e4565b610347611882565b61029c6004803603602081101561090d57600080fd5b50356001600160a01b0316611890565b6103bd6004803603604081101561093357600080fd5b506001600160a01b03813581169160200135166119a6565b6103476119d1565b61029c6004803603604081101561096957600080fd5b506001600160a01b03813516906020013515156119da565b6103bd6004803603602081101561099757600080fd5b50356001600160a01b0316611a52565b6103bd600480360360408110156109bd57600080fd5b506001600160a01b0381358116916020013516611a64565b6103bd611a81565b610347611a87565b6103df611a96565b6001546001600160a01b03163314610a3a576040805162461bcd60e51b81526020600482015260156024820152600080516020612c38833981519152604482015290519081900360640190fd5b610a4e6001600160a01b0384168383611adb565b505050565b6004805460408051602060026001851615610100026000190190941693909304601f81018490048402820184019092528181529291830182828015610ad95780601f10610aae57610100808354040283529160200191610ad9565b820191906000526020600020905b815481529060010190602001808311610abc57829003601f168201915b505050505081565b6000610aee338484611b2d565b5060015b92915050565b60026000541415610b3e576040805162461bcd60e51b815260206004820152601f6024820152600080516020612b98833981519152604482015290519081900360640190fd5b6002600055610b4b611c19565b610b5784848484611c7a565b505060016000555050565b600e6020526000908152604090205481565b61271081565b6001546001600160a01b031681565b600060026000541415610bd1576040805162461bcd60e51b815260206004820152601f6024820152600080516020612b98833981519152604482015290519081900360640190fd5b6002600055610bde611c19565b610be88383611e88565b60016000559392505050565b600a5481565b6001546001600160a01b03163314610c47576040805162461bcd60e51b81526020600482015260156024820152600080516020612c38833981519152604482015290519081900360640190fd5b601380549115156101000261ff0019909216919091179055565b600060026000541415610ca9576040805162461bcd60e51b815260206004820152601f6024820152600080516020612b98833981519152604482015290519081900360640190fd5b600260005560135462010000900460ff1615610cf65760405162461bcd60e51b8152600401808060200182810382526021815260200180612e2a6021913960400191505060405180910390fd5b610d003383611e88565b600160005592915050565b3360009081526014602052604081205460ff1615610d3657610d2e848484611f1e565b506001610d9e565b6000610d8083604051806060016040528060308152602001612dd0603091396001600160a01b0388166000908152600c602090815260408083203384529091529020549190612071565b9050610d8d853383611b2d565b610d98858585611f1e565b60019150505b9392505050565b600b6020526000908152604090205481565b601281565b60116020526000908152604090205481565b60035460ff1681565b6001546001600160a01b03163314610e24576040805162461bcd60e51b81526020600482015260156024820152600080516020612c38833981519152604482015290519081900360640190fd5b60138054911515620100000262ff000019909216919091179055565b60026000541415610e86576040805162461bcd60e51b815260206004820152601f6024820152600080516020612b98833981519152604482015290519081900360640190fd5b60026000908155610e9690612108565b6001600055565b6001600160a01b0381166000908152600e602052604081205480610edb5750506001600160a01b0381166000908152600f6020526040902054611002565b6000600a5490506000610f7468327cb2734119d3b7a9601e1b600660009054906101000a90046001600160a01b03166001600160a01b031663eded3fda6040518163ffffffff1660e01b815260040160206040518083038186803b158015610f4257600080fd5b505afa158015610f56573d6000803e3d6000fd5b505050506040513d6020811015610f6c57600080fd5b50519061234b565b90506000610f8e610f8583856123a4565b600d54906123e3565b6001600160a01b038716600090815260106020526040902054909150610ffb90610fdc9068327cb2734119d3b7a9601e1b90610fd690610fcf90869061243b565b889061234b565b906123a4565b6001600160a01b0388166000908152600f6020526040902054906123e3565b9450505050505b919050565b60106020526000908152604090205481565b6001546001600160a01b03163314611066576040805162461bcd60e51b81526020600482015260156024820152600080516020612c38833981519152604482015290519081900360640190fd5b60035460ff16156110a85760405162461bcd60e51b8152600401808060200182810382526022815260200180612d3a6022913960400191505060405180910390fd5b6003805460ff1916600117905560005b825181101561110b5760008382815181106110cf57fe5b6020908102919091018101516001600160a01b03166000908152600790915260409020805460ff191660019081179091559190910190506110b8565b50600680546001600160a01b0319166001600160a01b039290921691909117905550565b60146020526000908152604090205460ff1681565b60096020526000908152604090205481565b600c60209081526000928352604080842090915290825290205481565b6001546001600160a01b031633146111c0576040805162461bcd60e51b81526020600482015260156024820152600080516020612c38833981519152604482015290519081900360640190fd5b6013805460ff1916911515919091179055565b6001546001600160a01b03163314611220576040805162461bcd60e51b81526020600482015260156024820152600080516020612c38833981519152604482015290519081900360640190fd5b6001600160a01b038216611279576040805162461bcd60e51b815260206004820152601b60248201527a476f7665726e61626c653a20696e76616c6964206164647265737360281b604482015290519081900360640190fd5b6001546001600160a01b03838116911614156112da576040805162461bcd60e51b815260206004820152601b60248201527a476f7665726e61626c653a2073616d6520676f7665726e616e636560281b604482015290519081900360640190fd5b6112e4828261247d565b5050565b6001600160a01b03166000908152600b602052604090205490565b60026000541415611349576040805162461bcd60e51b815260206004820152601f6024820152600080516020612b98833981519152604482015290519081900360640190fd5b6002600055611356611c19565b610b57848484846124f9565b336000908152600260205260409020805442106113c5576040805162461bcd60e51b815260206004820152601c60248201527b11dbdd995c9b98589b194e88191958591b1a5b9948195e1c1a5c995960221b604482015290519081900360640190fd5b60018082015460ff1615151461140c5760405162461bcd60e51b8152600401808060200182810382526022815260200180612cf76022913960400191505060405180910390fd5b60018054336000818152600260205260408082208281558501805460ff1916905584546001600160a01b031916831790945592516001600160a01b0390921692909183917f5f56bee8cffbe9a78652a74a60705edede02af10b0bbb888ca44b79a0d42ce8091a35050565b6002602052600090815260409020805460019091015460ff1682565b6005805460408051602060026001851615610100026000190190941693909304601f81018490048402820184019092528181529291830182828015610ad95780601f10610aae57610100808354040283529160200191610ad9565b6001546001600160a01b0316331461153b576040805162461bcd60e51b81526020600482015260156024820152600080516020612c38833981519152604482015290519081900360640190fd5b6001600160a01b03811660009081526002602052604090206001015460ff166115ab576040805162461bcd60e51b815260206004820152601f60248201527f476f7665726e61626c653a2070726f706f73616c206e6f742061637469766500604482015290519081900360640190fd5b6001600160a01b038116600081815260026020526040808220828155600101805460ff19169055513392917ffc6a2fa53abe2adfe8372a9495032d7e6458d3aed34fa880132b6c808da1e99c91a350565b6001546001600160a01b03163314611649576040805162461bcd60e51b81526020600482015260156024820152600080516020612c38833981519152604482015290519081900360640190fd5b6001600160a01b03919091166000908152601460205260409020805460ff1916911515919091179055565b60126020526000908152604090205481565b6006546040805163a8d9362760e01b815290516000926001600160a01b03169163a8d93627916004808301926020929190829003018186803b1580156116cb57600080fd5b505afa1580156116df573d6000803e3d6000fd5b505050506040513d60208110156116f557600080fd5b5051905090565b6000610aee338484611f1e565b68327cb2734119d3b7a9601e1b81565b6002600054141561175f576040805162461bcd60e51b815260206004820152601f6024820152600080516020612b98833981519152604482015290519081900360640190fd5b6002600055601354610100900460ff16156117ab5760405162461bcd60e51b8152600401808060200182810382526021815260200180612e2a6021913960400191505060405180910390fd5b6117b7333384846124f9565b50506001600055565b60076020526000908152604090205460ff1681565b6006546001600160a01b031681565b6002600054141561182a576040805162461bcd60e51b815260206004820152601f6024820152600080516020612b98833981519152604482015290519081900360640190fd5b6002600055601354610100900460ff16156118765760405162461bcd60e51b8152600401808060200182810382526021815260200180612e2a6021913960400191505060405180910390fd5b6117b733838333611c7a565b601354610100900460ff1681565b6001546001600160a01b031633146118dd576040805162461bcd60e51b81526020600482015260156024820152600080516020612c38833981519152604482015290519081900360640190fd5b6001600160a01b038116611936576040805162461bcd60e51b815260206004820152601b60248201527a476f7665726e61626c653a20696e76616c6964206164647265737360281b604482015290519081900360640190fd5b6001546001600160a01b0382811691161415611997576040805162461bcd60e51b815260206004820152601b60248201527a476f7665726e61626c653a2073616d6520676f7665726e616e636560281b604482015290519081900360640190fd5b6119a38160001961247d565b50565b6001600160a01b039182166000908152600c6020908152604080832093909416825291909152205490565b60135460ff1681565b6001546001600160a01b03163314611a27576040805162461bcd60e51b81526020600482015260156024820152600080516020612c38833981519152604482015290519081900360640190fd5b6001600160a01b03919091166000908152600760205260409020805460ff1916911515919091179055565b600f6020526000908152604090205481565b600860209081526000928352604080842090915290825290205481565b600d5481565b60135462010000900460ff1681565b6006546040805163f7c618c160e01b815290516000926001600160a01b03169163f7c618c1916004808301926020929190829003018186803b1580156116cb57600080fd5b604080516001600160a01b038416602482015260448082018490528251808303909101815260649091019091526020810180516001600160e01b031663a9059cbb60e01b179052610a4e908490612682565b6001600160a01b038316611b725760405162461bcd60e51b815260040180806020018281038252602c815260200180612be3602c913960400191505060405180910390fd5b6001600160a01b038216611bb75760405162461bcd60e51b815260040180806020018281038252602a815260200180612ccd602a913960400191505060405180910390fd5b6001600160a01b038084166000818152600c6020908152604080832094871680845294825291829020859055815185815291517f8c5be1e5ebec7d5bd14f71427d1e84f3dd0314c0f7b2291e5b200ac8c7c3b9259281900390910190a3505050565b3360009081526014602052604090205460ff16611c78576040805162461bcd60e51b81526020600482015260186024820152772932bbb0b9322a3930b1b5b2b91d103337b93134b23232b760411b604482015290519081900360640190fd5b565b60008211611ccf576040805162461bcd60e51b815260206004820152601e60248201527f526577617264547261636b65723a20696e76616c6964205f616d6f756e740000604482015290519081900360640190fd5b6001600160a01b03831660009081526007602052604090205460ff16611d265760405162461bcd60e51b8152600401808060200182810382526024815260200180612ca96024913960400191505060405180910390fd5b611d2f84612108565b6001600160a01b0384166000908152600e602052604090205482811015611d875760405162461bcd60e51b815260040180806020018281038252602b815260200180612bb8602b913960400191505060405180910390fd5b611d91818461243b565b6001600160a01b038087166000908152600e602090815260408083209490945560088152838220928816825291909152205483811015611e025760405162461bcd60e51b815260040180806020018281038252602d815260200180612e4b602d913960400191505060405180910390fd5b611e0c818561243b565b6001600160a01b038088166000908152600860209081526040808320938a168352928152828220939093556009909252902054611e49908561243b565b6001600160a01b038616600090815260096020526040902055611e6c8685612733565b611e806001600160a01b0386168486611adb565b505050505050565b6000611e9383612108565b6001600160a01b0383166000908152600f6020526040812080549190558015610d9e57611ed38382611ec3611a96565b6001600160a01b03169190611adb565b604080516001600160a01b03861681526020810183905281517f47cee97cb7acd717b3c0aa1435d004cd5b3c8c57d70dbceb4e4458bbd60e39d4929181900390910190a19392505050565b6001600160a01b038316611f635760405162461bcd60e51b815260040180806020018281038252602d815260200180612d5c602d913960400191505060405180910390fd5b6001600160a01b038216611fa85760405162461bcd60e51b815260040180806020018281038252602b815260200180612c58602b913960400191505060405180910390fd5b60135460ff1615611fbb57611fbb611c19565b611ff8816040518060600160405280602e8152602001612e78602e91396001600160a01b0386166000908152600b60205260409020549190612071565b6001600160a01b038085166000908152600b6020526040808220939093559084168152205461202790826123e3565b6001600160a01b038084166000818152600b60209081526040918290209490945580518581529051919392871692600080516020612db083398151915292918290030190a3505050565b600081848411156121005760405162461bcd60e51b81526004018080602001828103825283818151815260200191508051906020019080838360005b838110156120c55781810151838201526020016120ad565b50505050905090810190601f1680156120f25780820380516001836020036101000a031916815260200191505b509250505060405180910390fd5b505050900390565b6006546040805163e4fc6b6d60e01b815290516000926001600160a01b03169163e4fc6b6d91600480830192602092919082900301818787803b15801561214e57600080fd5b505af1158015612162573d6000803e3d6000fd5b505050506040513d602081101561217857600080fd5b5051600a54600d549192509081158015906121935750600083115b156121c4576121bc6121b583610fd68668327cb2734119d3b7a9601e1b61234b565b82906123e3565b600d81905590505b806121d1575050506119a3565b6001600160a01b03841615612345576001600160a01b0384166000908152600e6020908152604080832054601090925282205490919061222f9068327cb2734119d3b7a9601e1b90610fd69061222890879061243b565b859061234b565b6001600160a01b0387166000908152600f60205260408120549192509061225690836123e3565b6001600160a01b0388166000908152600f6020908152604080832084905560109091529020859055905080158015906122a657506001600160a01b0387166000908152600e602052604090205415155b15612341576001600160a01b0387166000908152601160205260408120546122ce90846123e3565b905061231b6122e182610fd6878761234b565b6001600160a01b038a16600090815260116020908152604080832054601290925290912054612315918591610fd69161234b565b906123e3565b6001600160a01b0389166000908152601260209081526040808320939093556011905220555b5050505b50505050565b60008261235a57506000610af2565b8282028284828161236757fe5b0414610d9e5760405162461bcd60e51b8152600401808060200182810382526021815260200180612d196021913960400191505060405180910390fd5b6000610d9e83836040518060400160405280601a815260200179536166654d6174683a206469766973696f6e206279207a65726f60301b815250612811565b600082820183811015610d9e576040805162461bcd60e51b815260206004820152601b60248201527a536166654d6174683a206164646974696f6e206f766572666c6f7760281b604482015290519081900360640190fd5b6000610d9e83836040518060400160405280601e81526020017f536166654d6174683a207375627472616374696f6e206f766572666c6f770000815250612071565b604080518082018252828152600160208083018281526001600160a01b03871660008181526002845286902094518555905193909201805460ff1916931515939093179092558251848152925190927f02dd0697be46e764c3ba81094158781c31b235d03bb27a0daf1bdef0ec1084dd92908290030190a25050565b6000811161254e576040805162461bcd60e51b815260206004820152601e60248201527f526577617264547261636b65723a20696e76616c6964205f616d6f756e740000604482015290519081900360640190fd5b6001600160a01b03821660009081526007602052604090205460ff166125a55760405162461bcd60e51b8152600401808060200182810382526024815260200180612ca96024913960400191505060405180910390fd5b6125ba6001600160a01b038316853084612876565b6125c383612108565b6001600160a01b0383166000908152600e60205260409020546125e690826123e3565b6001600160a01b038085166000908152600e602090815260408083209490945560088152838220928616825291909152205461262290826123e3565b6001600160a01b038085166000908152600860209081526040808320938716835292815282822093909355600990925290205461265f90826123e3565b6001600160a01b03831660009081526009602052604090205561234584826128d0565b60606126d7826040518060400160405280602081526020017f5361666545524332303a206c6f772d6c6576656c2063616c6c206661696c6564815250856001600160a01b031661298e9092919063ffffffff16565b805190915015610a4e578080602001905160208110156126f657600080fd5b5051610a4e5760405162461bcd60e51b815260040180806020018281038252602a815260200180612e00602a913960400191505060405180910390fd5b6001600160a01b0382166127785760405162461bcd60e51b8152600401808060200182810382526029815260200180612c0f6029913960400191505060405180910390fd5b6127b5816040518060600160405280602a8152602001612b6e602a91396001600160a01b0385166000908152600b60205260409020549190612071565b6001600160a01b0383166000908152600b6020526040902055600a546127db908261243b565b600a556040805182815290516000916001600160a01b03851691600080516020612db08339815191529181900360200190a35050565b600081836128605760405162461bcd60e51b81526020600482018181528351602484015283519092839260449091019190850190808383600083156120c55781810151838201526020016120ad565b50600083858161286c57fe5b0495945050505050565b604080516001600160a01b0380861660248301528416604482015260648082018490528251808303909101815260849091019091526020810180516001600160e01b03166323b872dd60e01b179052612345908590612682565b6001600160a01b0382166129155760405162461bcd60e51b8152600401808060200182810382526027815260200180612d896027913960400191505060405180910390fd5b600a5461292290826123e3565b600a556001600160a01b0382166000908152600b602052604090205461294890826123e3565b6001600160a01b0383166000818152600b60209081526040808320949094558351858152935192939192600080516020612db08339815191529281900390910190a35050565b606061299d84846000856129a5565b949350505050565b6060824710156129e65760405162461bcd60e51b8152600401808060200182810382526026815260200180612c836026913960400191505060405180910390fd5b6129ef85612b01565b612a40576040805162461bcd60e51b815260206004820152601d60248201527f416464726573733a2063616c6c20746f206e6f6e2d636f6e7472616374000000604482015290519081900360640190fd5b60006060866001600160a01b031685876040518082805190602001908083835b60208310612a7f5780518252601f199092019160209182019101612a60565b6001836020036101000a03801982511681845116808217855250505050505090500191505060006040518083038185875af1925050503d8060008114612ae1576040519150601f19603f3d011682016040523d82523d6000602084013e612ae6565b606091505b5091509150612af6828286612b07565b979650505050505050565b3b151590565b60608315612b16575081610d9e565b825115612b265782518084602001fd5b60405162461bcd60e51b81526020600482018181528451602484015284518593919283926044019190850190808383600083156120c55781810151838201526020016120ad56fe526577617264547261636b65723a206275726e20616d6f756e7420657863656564732062616c616e63655265656e7472616e637947756172643a207265656e7472616e742063616c6c00526577617264547261636b65723a205f616d6f756e742065786365656473207374616b6564416d6f756e74526577617264547261636b65723a20617070726f76652066726f6d20746865207a65726f2061646472657373526577617264547261636b65723a206275726e2066726f6d20746865207a65726f2061646472657373476f7665726e61626c653a20666f7262696464656e0000000000000000000000526577617264547261636b65723a207472616e7366657220746f20746865207a65726f2061646472657373416464726573733a20696e73756666696369656e742062616c616e636520666f722063616c6c526577617264547261636b65723a20696e76616c6964205f6465706f736974546f6b656e526577617264547261636b65723a20617070726f766520746f20746865207a65726f2061646472657373476f7665726e61626c653a2070726f706f73616c206973206e6f7420616374697665536166654d6174683a206d756c7469706c69636174696f6e206f766572666c6f77526577617264547261636b65723a20616c726561647920696e697469616c697a6564526577617264547261636b65723a207472616e736665722066726f6d20746865207a65726f2061646472657373526577617264547261636b65723a206d696e7420746f20746865207a65726f2061646472657373ddf252ad1be2c89b69c2b068fc378daa952ba7f163c4a11628f55a4df523b3ef526577617264547261636b65723a207472616e7366657220616d6f756e74206578636565647320616c6c6f77616e63655361666545524332303a204552433230206f7065726174696f6e20646964206e6f742073756363656564526577617264547261636b65723a20616374696f6e206e6f7420656e61626c6564526577617264547261636b65723a205f616d6f756e742065786365656473206465706f73697442616c616e6365526577617264547261636b65723a207472616e7366657220616d6f756e7420657863656564732062616c616e6365a26469706673582212209c683ce58545fc21d5cb2da9a85eedcb6da13ebd5360eb60d061caa7953b848164736f6c634300060c0033608060405234801561001057600080fd5b506040516111a73803806111a78339818101604052604081101561003357600080fd5b50805160209091015160018054336001600160a01b031991821681179092556003805482166001600160a01b03958616179055600680548216949093169390931790915560078054909216179055611117806100906000396000f3fe608060405234801561001057600080fd5b50600436106100db5760003560e01c806301e33667146100e057806312d43a511461011857806318e20a031461013c5780633ae6d6eb146101595780636bb22fd7146101615780636bcb411a1461018d578063704b6c021461019557806375b17350146101bb5780637bc6729b146101d55780638d0fedb0146101dd5780639c35b4971461021c578063a8d9362714610242578063cfad57a21461024a578063e4fc6b6d14610270578063eded3fda14610278578063f7c618c114610280578063f851a44014610288575b600080fd5b610116600480360360608110156100f657600080fd5b506001600160a01b03813581169160208101359091169060400135610290565b005b6101206102f6565b604080516001600160a01b039092168252519081900360200190f35b6101166004803603602081101561015257600080fd5b5035610305565b610116610444565b6101166004803603604081101561017757600080fd5b506001600160a01b0381351690602001356104a8565b6101206105bd565b610116600480360360208110156101ab57600080fd5b50356001600160a01b03166105cc565b6101c361063b565b60408051918252519081900360200190f35b610116610641565b610203600480360360208110156101f357600080fd5b50356001600160a01b0316610756565b6040805192835290151560208301528051918290030190f35b6101166004803603602081101561023257600080fd5b50356001600160a01b0316610772565b6101c3610880565b6101166004803603602081101561026057600080fd5b50356001600160a01b0316610886565b6101c361099c565b6101c3610add565b610120610b1e565b610120610b2d565b6001546001600160a01b031633146102dd576040805162461bcd60e51b81526020600482015260156024820152600080516020611000833981519152604482015290519081900360640190fd5b6102f16001600160a01b0384168383610b3c565b505050565b6001546001600160a01b031681565b6007546001600160a01b03163314610363576040805162461bcd60e51b815260206004820152601c60248201527b2932bbb0b9322234b9ba3934b13aba37b91d103337b93134b23232b760211b604482015290519081900360640190fd5b6005546103a15760405162461bcd60e51b815260040180806020018281038252602f815260200180611089602f913960400191505060405180910390fd5b600660009054906101000a90046001600160a01b03166001600160a01b0316633e158b0c6040518163ffffffff1660e01b8152600401600060405180830381600087803b1580156103f157600080fd5b505af1158015610405573d6000803e3d6000fd5b5050506004829055506040805182815290517f98dc76c39aa5a5dcb749f8750a65db3dfa1e14bcc1591a9c16a7420e5da748f89181900360200190a150565b6007546001600160a01b031633146104a2576040805162461bcd60e51b815260206004820152601c60248201527b2932bbb0b9322234b9ba3934b13aba37b91d103337b93134b23232b760211b604482015290519081900360640190fd5b42600555565b6001546001600160a01b031633146104f5576040805162461bcd60e51b81526020600482015260156024820152600080516020611000833981519152604482015290519081900360640190fd5b6001600160a01b03821661054e576040805162461bcd60e51b815260206004820152601b60248201527a476f7665726e61626c653a20696e76616c6964206164647265737360281b604482015290519081900360640190fd5b6001546001600160a01b03838116911614156105af576040805162461bcd60e51b815260206004820152601b60248201527a476f7665726e61626c653a2073616d6520676f7665726e616e636560281b604482015290519081900360640190fd5b6105b98282610b8e565b5050565b6006546001600160a01b031681565b6001546001600160a01b03163314610619576040805162461bcd60e51b81526020600482015260156024820152600080516020611000833981519152604482015290519081900360640190fd5b600780546001600160a01b0319166001600160a01b0392909216919091179055565b60055481565b336000908152600260205260409020805442106106a4576040805162461bcd60e51b815260206004820152601c60248201527b11dbdd995c9b98589b194e88191958591b1a5b9948195e1c1a5c995960221b604482015290519081900360640190fd5b60018082015460ff161515146106eb5760405162461bcd60e51b81526004018080602001828103825260228152602001806110466022913960400191505060405180910390fd5b60018054336000818152600260205260408082208281558501805460ff1916905584546001600160a01b031916831790945592516001600160a01b0390921692909183917f5f56bee8cffbe9a78652a74a60705edede02af10b0bbb888ca44b79a0d42ce8091a35050565b6002602052600090815260409020805460019091015460ff1682565b6001546001600160a01b031633146107bf576040805162461bcd60e51b81526020600482015260156024820152600080516020611000833981519152604482015290519081900360640190fd5b6001600160a01b03811660009081526002602052604090206001015460ff1661082f576040805162461bcd60e51b815260206004820152601f60248201527f476f7665726e61626c653a2070726f706f73616c206e6f742061637469766500604482015290519081900360640190fd5b6001600160a01b038116600081815260026020526040808220828155600101805460ff19169055513392917ffc6a2fa53abe2adfe8372a9495032d7e6458d3aed34fa880132b6c808da1e99c91a350565b60045481565b6001546001600160a01b031633146108d3576040805162461bcd60e51b81526020600482015260156024820152600080516020611000833981519152604482015290519081900360640190fd5b6001600160a01b03811661092c576040805162461bcd60e51b815260206004820152601b60248201527a476f7665726e61626c653a20696e76616c6964206164647265737360281b604482015290519081900360640190fd5b6001546001600160a01b038281169116141561098d576040805162461bcd60e51b815260206004820152601b60248201527a476f7665726e61626c653a2073616d6520676f7665726e616e636560281b604482015290519081900360640190fd5b61099981600019610b8e565b50565b6006546000906001600160a01b031633146109e85760405162461bcd60e51b8152600401808060200182810382526025815260200180610fdb6025913960400191505060405180910390fd5b60006109f2610add565b905080610a03576000915050610ada565b42600555600354604080516370a0823160e01b815230600482015290516000926001600160a01b0316916370a08231916024808301926020929190829003018186803b158015610a5257600080fd5b505afa158015610a66573d6000803e3d6000fd5b505050506040513d6020811015610a7c57600080fd5b5051905080821115610a8c578091505b600354610aa3906001600160a01b03163384610b3c565b6040805183815290517f4def474aca53bf221d07d9ab0f675b3f6d8d2494b8427271bcf43c018ef1eead9181900360200190a15090505b90565b6000600554421415610af157506000610ada565b6000610b0860055442610c0a90919063ffffffff16565b600454909150610b189082610c55565b91505090565b6003546001600160a01b031681565b6007546001600160a01b031681565b604080516001600160a01b038416602482015260448082018490528251808303909101815260649091019091526020810180516001600160e01b031663a9059cbb60e01b1790526102f1908490610cae565b604080518082018252828152600160208083018281526001600160a01b03871660008181526002845286902094518555905193909201805460ff1916931515939093179092558251848152925190927f02dd0697be46e764c3ba81094158781c31b235d03bb27a0daf1bdef0ec1084dd92908290030190a25050565b6000610c4c83836040518060400160405280601e81526020017f536166654d6174683a207375627472616374696f6e206f766572666c6f770000815250610d5f565b90505b92915050565b600082610c6457506000610c4f565b82820282848281610c7157fe5b0414610c4c5760405162461bcd60e51b81526004018080602001828103825260218152602001806110686021913960400191505060405180910390fd5b6060610d03826040518060400160405280602081526020017f5361666545524332303a206c6f772d6c6576656c2063616c6c206661696c6564815250856001600160a01b0316610dfb9092919063ffffffff16565b8051909150156102f157808060200190516020811015610d2257600080fd5b50516102f15760405162461bcd60e51b815260040180806020018281038252602a8152602001806110b8602a913960400191505060405180910390fd5b60008184841115610dee5760405162461bcd60e51b81526004018080602001828103825283818151815260200191508051906020019080838360005b83811015610db3578181015183820152602001610d9b565b50505050905090810190601f168015610de05780820380516001836020036101000a031916815260200191505b509250505060405180910390fd5b50508183035b9392505050565b6060610e0a8484600085610e12565b949350505050565b606082471015610e535760405162461bcd60e51b81526004018080602001828103825260268152602001806110206026913960400191505060405180910390fd5b610e5c85610f6e565b610ead576040805162461bcd60e51b815260206004820152601d60248201527f416464726573733a2063616c6c20746f206e6f6e2d636f6e7472616374000000604482015290519081900360640190fd5b60006060866001600160a01b031685876040518082805190602001908083835b60208310610eec5780518252601f199092019160209182019101610ecd565b6001836020036101000a03801982511681845116808217855250505050505090500191505060006040518083038185875af1925050503d8060008114610f4e576040519150601f19603f3d011682016040523d82523d6000602084013e610f53565b606091505b5091509150610f63828286610f74565b979650505050505050565b3b151590565b60608315610f83575081610df4565b825115610f935782518084602001fd5b60405162461bcd60e51b8152602060048201818152845160248401528451859391928392604401919085019080838360008315610db3578181015183820152602001610d9b56fe5265776172644469737472696275746f723a20696e76616c6964206d73672e73656e646572476f7665726e61626c653a20666f7262696464656e0000000000000000000000416464726573733a20696e73756666696369656e742062616c616e636520666f722063616c6c476f7665726e61626c653a2070726f706f73616c206973206e6f7420616374697665536166654d6174683a206d756c7469706c69636174696f6e206f766572666c6f775265776172644469737472696275746f723a20696e76616c6964206c617374446973747269627574696f6e54696d655361666545524332303a204552433230206f7065726174696f6e20646964206e6f742073756363656564a2646970667358221220c96795725dc5703c0f5c9b9395a87dd3513e95f8cfa46df3e085aa40d8ae958864736f6c634300060c0033608060405234801561001057600080fd5b50600180546001600160a01b03191633179055613b8d806100326000396000f3fe6080604052600436106101615760003560e01c806301e33667146101ca57806302486e081461020d57806303a243991461023e57806312d43a511461026857806317988a6a1461027d5780633587647614610292578063392e53cd146102f75780633fc8cef3146103205780634e71d92d14610335578063655603a41461034a5780636bb22fd71461037d5780637bc6729b146103b6578063822ac221146103cb57806382de0072146103f557806384347a331461042e5780638d0fedb0146104435780639c35b4971461048f578063b6556599146104c2578063b7699816146104d7578063c8cfba3914610528578063cca30c311461056d578063cfad57a2146105b4578063d106f13a146105e7578063d294f09314610717578063d6bf66c21461072c578063e1b9db891461074f578063e7cf6c1014610782578063ec4ee1c0146107b6578063ef9aacfd146107cb578063fe9fe720146107fe576101c5565b366101c55760035461010090046001600160a01b031633146101c3576040805162461bcd60e51b81526020600482015260166024820152752937baba32b91d1034b73b30b634b21039b2b73232b960511b604482015290519081900360640190fd5b005b600080fd5b3480156101d657600080fd5b506101c3600480360360608110156101ed57600080fd5b506001600160a01b03813581169160208101359091169060400135610813565b34801561021957600080fd5b50610222610879565b604080516001600160a01b039092168252519081900360200190f35b34801561024a57600080fd5b506101c36004803603602081101561026157600080fd5b5035610888565b34801561027457600080fd5b506102226108f5565b34801561028957600080fd5b50610222610904565b34801561029e57600080fd5b506101c3600480360360e08110156102b557600080fd5b506001600160a01b038135811691602081013582169160408201358116916060810135821691608082013581169160a081013582169160c09091013516610913565b34801561030357600080fd5b5061030c610a34565b604080519115158252519081900360200190f35b34801561032c57600080fd5b50610222610a3d565b34801561034157600080fd5b506101c3610a51565b34801561035657600080fd5b506101c36004803603602081101561036d57600080fd5b50356001600160a01b0316610c2e565b34801561038957600080fd5b506101c3600480360360408110156103a057600080fd5b506001600160a01b03813516906020013561143d565b3480156103c257600080fd5b506101c3611552565b3480156103d757600080fd5b506101c3600480360360208110156103ee57600080fd5b5035611667565b34801561040157600080fd5b506101c36004803603604081101561041857600080fd5b506001600160a01b0381351690602001356116ca565b34801561043a57600080fd5b50610222611785565b34801561044f57600080fd5b506104766004803603602081101561046657600080fd5b50356001600160a01b0316611794565b6040805192835290151560208301528051918290030190f35b34801561049b57600080fd5b506101c3600480360360208110156104b257600080fd5b50356001600160a01b03166117b0565b3480156104ce57600080fd5b506102226118be565b3480156104e357600080fd5b50610516600480360360608110156104fa57600080fd5b50803590602081013590604001356001600160a01b03166118cd565b60408051918252519081900360200190f35b34801561053457600080fd5b506105166004803603608081101561054b57600080fd5b506001600160a01b038135169060208101359060408101359060600135611be3565b34801561057957600080fd5b506105166004803603608081101561059057600080fd5b506001600160a01b03813581169160208101359160408201359160600135166120f2565b3480156105c057600080fd5b506101c3600480360360208110156105d757600080fd5b50356001600160a01b0316612386565b3480156105f357600080fd5b506101c36004803603604081101561060a57600080fd5b810190602081018135600160201b81111561062457600080fd5b82018360208201111561063657600080fd5b803590602001918460208302840111600160201b8311171561065757600080fd5b9190808060200260200160405190810160405280939291908181526020018383602002808284376000920191909152509295949360208101935035915050600160201b8111156106a657600080fd5b8201836020820111156106b857600080fd5b803590602001918460208302840111600160201b831117156106d957600080fd5b91908080602002602001604051908101604052809392919081815260200183836020028082843760009201919091525092955061249c945050505050565b34801561072357600080fd5b506101c3612586565b6105166004803603604081101561074257600080fd5b508035906020013561262b565b34801561075b57600080fd5b506102226004803603602081101561077257600080fd5b50356001600160a01b0316612b3b565b34801561078e57600080fd5b506101c3600480360360408110156107a557600080fd5b508035151590602001351515612b56565b3480156107c257600080fd5b50610222612d44565b3480156107d757600080fd5b506101c3600480360360208110156107ee57600080fd5b50356001600160a01b0316612d53565b34801561080a57600080fd5b50610222612ddb565b6001546001600160a01b03163314610860576040805162461bcd60e51b81526020600482015260156024820152600080516020613920833981519152604482015290519081900360640190fd5b6108746001600160a01b0384168383612dea565b505050565b6004546001600160a01b031681565b600260005414156108ce576040805162461bcd60e51b815260206004820152601f60248201526000805160206138cc833981519152604482015290519081900360640190fd5b60026000556004546108ed90339081906001600160a01b031684612e3c565b506001600055565b6001546001600160a01b031681565b6007546001600160a01b031681565b6001546001600160a01b03163314610960576040805162461bcd60e51b81526020600482015260156024820152600080516020613920833981519152604482015290519081900360640190fd5b60035460ff16156109a25760405162461bcd60e51b81526004018080602001828103825260218152602001806139ab6021913960400191505060405180910390fd5b60038054600160ff1990911617610100600160a81b0319166101006001600160a01b03998a1602179055600480546001600160a01b03199081169789169790971790556005805487169588169590951790945560068054861693871693909317909255600880548516918616919091179055600780548416918516919091179055600980549092169216919091179055565b60035460ff1681565b60035461010090046001600160a01b031681565b60026000541415610a97576040805162461bcd60e51b815260206004820152601f60248201526000805160206138cc833981519152604482015290519081900360640190fd5b60026000908155600854604080516309f4173d60e11b8152336004820181905260248201819052915191936001600160a01b03909316926313e82e7a926044808401936020939083900390910190829087803b158015610af657600080fd5b505af1158015610b0a573d6000803e3d6000fd5b505050506040513d6020811015610b2057600080fd5b5050600654604080516309f4173d60e11b81526001600160a01b03848116600483018190526024830152915191909216916313e82e7a9160448083019260209291908290030181600087803b158015610b7857600080fd5b505af1158015610b8c573d6000803e3d6000fd5b505050506040513d6020811015610ba257600080fd5b5050600754604080516309f4173d60e11b81526001600160a01b03848116600483018190526024830152915191909216916313e82e7a9160448083019260209291908290030181600087803b158015610bfa57600080fd5b505af1158015610c0e573d6000803e3d6000fd5b505050506040513d6020811015610c2457600080fd5b5050600160005550565b60026000541415610c74576040805162461bcd60e51b815260206004820152601f60248201526000805160206138cc833981519152604482015290519081900360640190fd5b600260009081556001600160a01b038281168252600a6020526040909120543391168114610cd35760405162461bcd60e51b81526004018080602001828103825260248152602001806139f26024913960400191505060405180910390fd5b6001600160a01b0382166000908152600a6020526040902080546001600160a01b0319169055610d0281612f4d565b6006546004805460408051637aeceb1f60e11b81526001600160a01b0387811694820194909452918316602483015251600093929092169163f5d9d63e91604480820192602092909190829003018186803b158015610d6057600080fd5b505afa158015610d74573d6000803e3d6000fd5b505050506040513d6020811015610d8a57600080fd5b505190508015610f9b57600654600480546040805163098bf59d60e01b81526001600160a01b038881169482019490945291831660248301526044820185905230606483015251919092169163098bf59d91608480830192600092919082900301818387803b158015610dfc57600080fd5b505af1158015610e10573d6000803e3d6000fd5b5050600480546006546040805163095ea7b360e01b81526001600160a01b039283169481019490945260248401879052519116935063095ea7b3925060448083019260209291908290030181600087803b158015610e6d57600080fd5b505af1158015610e81573d6000803e3d6000fd5b505050506040513d6020811015610e9757600080fd5b50506006546004805460408051631e42d69b60e21b815230938101939093526001600160a01b0386811660248501529182166044840152606483018590525192169163790b5a6c9160848082019260009290919082900301818387803b158015610f0057600080fd5b505af1158015610f14573d6000803e3d6000fd5b50506006546040805163a9059cbb60e01b81526001600160a01b03878116600483015260248201879052915191909216935063a9059cbb925060448083019260209291908290030181600087803b158015610f6e57600080fd5b505af1158015610f82573d6000803e3d6000fd5b505050506040513d6020811015610f9857600080fd5b50505b60085460055460408051637aeceb1f60e11b81526001600160a01b03878116600483015292831660248201529051600093929092169163f5d9d63e91604480820192602092909190829003018186803b158015610ff757600080fd5b505afa15801561100b573d6000803e3d6000fd5b505050506040513d602081101561102157600080fd5b505190508015611432576007546008546040805163098bf59d60e01b81526001600160a01b0388811660048301529283166024820152604481018590523060648201529051919092169163098bf59d91608480830192600092919082900301818387803b15801561109157600080fd5b505af11580156110a5573d6000803e3d6000fd5b50506008546040805163a9059cbb60e01b81526001600160a01b03898116600483015260248201879052915191909216935063a9059cbb925060448083019260209291908290030181600087803b1580156110ff57600080fd5b505af1158015611113573d6000803e3d6000fd5b505050506040513d602081101561112957600080fd5b50506008546005546040805163098bf59d60e01b81526001600160a01b0388811660048301529283166024820152604481018590523060648201529051919092169163098bf59d91608480830192600092919082900301818387803b15801561119157600080fd5b505af11580156111a5573d6000803e3d6000fd5b50506005546008546040805163095ea7b360e01b81526001600160a01b03928316600482015260248101879052905191909216935063095ea7b3925060448083019260209291908290030181600087803b15801561120257600080fd5b505af1158015611216573d6000803e3d6000fd5b505050506040513d602081101561122c57600080fd5b505060085460055460408051631e42d69b60e21b81523060048201526001600160a01b0387811660248301529283166044820152606481018590529051919092169163790b5a6c91608480830192600092919082900301818387803b15801561129457600080fd5b505af11580156112a8573d6000803e3d6000fd5b50506008546007546040805163095ea7b360e01b81526001600160a01b03928316600482015260248101879052905191909216935063095ea7b3925060448083019260209291908290030181600087803b15801561130557600080fd5b505af1158015611319573d6000803e3d6000fd5b505050506040513d602081101561132f57600080fd5b505060075460085460408051631e42d69b60e21b81523060048201526001600160a01b0387811660248301529283166044820152606481018590529051919092169163790b5a6c91608480830192600092919082900301818387803b15801561139757600080fd5b505af11580156113ab573d6000803e3d6000fd5b50506007546040805163a9059cbb60e01b81526001600160a01b03888116600483015260248201879052915191909216935063a9059cbb925060448083019260209291908290030181600087803b15801561140557600080fd5b505af1158015611419573d6000803e3d6000fd5b505050506040513d602081101561142f57600080fd5b50505b505060016000555050565b6001546001600160a01b0316331461148a576040805162461bcd60e51b81526020600482015260156024820152600080516020613920833981519152604482015290519081900360640190fd5b6001600160a01b0382166114e3576040805162461bcd60e51b815260206004820152601b60248201527a476f7665726e61626c653a20696e76616c6964206164647265737360281b604482015290519081900360640190fd5b6001546001600160a01b0383811691161415611544576040805162461bcd60e51b815260206004820152601b60248201527a476f7665726e61626c653a2073616d6520676f7665726e616e636560281b604482015290519081900360640190fd5b61154e828261338b565b5050565b336000908152600260205260409020805442106115b5576040805162461bcd60e51b815260206004820152601c60248201527b11dbdd995c9b98589b194e88191958591b1a5b9948195e1c1a5c995960221b604482015290519081900360640190fd5b60018082015460ff161515146115fc5760405162461bcd60e51b8152600401808060200182810382526022815260200180613a816022913960400191505060405180910390fd5b60018054336000818152600260205260408082208281558501805460ff1916905584546001600160a01b031916831790945592516001600160a01b0390921692909183917f5f56bee8cffbe9a78652a74a60705edede02af10b0bbb888ca44b79a0d42ce8091a35050565b600260005414156116ad576040805162461bcd60e51b815260206004820152601f60248201526000805160206138cc833981519152604482015290519081900360640190fd5b60026000556004546108ed9033906001600160a01b031683613407565b60026000541415611710576040805162461bcd60e51b815260206004820152601f60248201526000805160206138cc833981519152604482015290519081900360640190fd5b60026000556001546001600160a01b03163314611762576040805162461bcd60e51b81526020600482015260156024820152600080516020613920833981519152604482015290519081900360640190fd5b60045461177c90339084906001600160a01b031684612e3c565b50506001600055565b6008546001600160a01b031681565b6002602052600090815260409020805460019091015460ff1682565b6001546001600160a01b031633146117fd576040805162461bcd60e51b81526020600482015260156024820152600080516020613920833981519152604482015290519081900360640190fd5b6001600160a01b03811660009081526002602052604090206001015460ff1661186d576040805162461bcd60e51b815260206004820152601f60248201527f476f7665726e61626c653a2070726f706f73616c206e6f742061637469766500604482015290519081900360640190fd5b6001600160a01b038116600081815260026020526040808220828155600101805460ff19169055513392917ffc6a2fa53abe2adfe8372a9495032d7e6458d3aed34fa880132b6c808da1e99c91a350565b6009546001600160a01b031681565b600060026000541415611915576040805162461bcd60e51b815260206004820152601f60248201526000805160206138cc833981519152604482015290519081900360640190fd5b60026000558361196c576040805162461bcd60e51b815260206004820181905260248201527f526577617264526f757465723a20696e76616c6964205f7a6c70416d6f756e74604482015290519081900360640190fd5b6007546008546040805163098bf59d60e01b815233600482018190526001600160a01b039384166024830152604482018990526064820181905291519193929092169163098bf59d91608480830192600092919082900301818387803b1580156119d557600080fd5b505af11580156119e9573d6000803e3d6000fd5b50506008546005546040805163098bf59d60e01b81526001600160a01b03878116600483018190529381166024830152604482018c90526064820193909352905191909216935063098bf59d9250608480830192600092919082900301818387803b158015611a5757600080fd5b505af1158015611a6b573d6000803e3d6000fd5b5050600954600354604080516371d597ad60e01b81526001600160a01b03878116600483015261010090930483166024820152604481018b9052606481018a90523060848201529051600095509190921692506371d597ad9160a48082019260209290919082900301818787803b158015611ae557600080fd5b505af1158015611af9573d6000803e3d6000fd5b505050506040513d6020811015611b0f57600080fd5b505160035460408051632e1a7d4d60e01b81526004810184905290519293506101009091046001600160a01b031691632e1a7d4d9160248082019260009290919082900301818387803b158015611b6557600080fd5b505af1158015611b79573d6000803e3d6000fd5b50611b91925050506001600160a01b03851682613516565b604080516001600160a01b03841681526020810188905281517f83ac00acd50a988c92018e2f35631dfbc00d5bd016c5515fe3758877b1499cf8929181900390910190a1600160005595945050505050565b600060026000541415611c2b576040805162461bcd60e51b815260206004820152601f60248201526000805160206138cc833981519152604482015290519081900360640190fd5b600260005583611c70576040805162461bcd60e51b815260206004820152601d6024820152600080516020613b38833981519152604482015290519081900360640190fd5b604080516323b872dd60e01b815233600482018190523060248301526044820187905291516001600160a01b038816916323b872dd9160648083019260209291908290030181600087803b158015611cc757600080fd5b505af1158015611cdb573d6000803e3d6000fd5b505050506040513d6020811015611cf157600080fd5b50506009546040805163095ea7b360e01b81526001600160a01b0392831660048201526024810188905290519188169163095ea7b3916044808201926020929091908290030181600087803b158015611d4957600080fd5b505af1158015611d5d573d6000803e3d6000fd5b505050506040513d6020811015611d7357600080fd5b5050600954604080516317eb2a1560e01b8152306004820181905260248201526001600160a01b038981166044830152606482018990526084820188905260a48201879052915160009392909216916317eb2a159160c48082019260209290919082900301818787803b158015611de957600080fd5b505af1158015611dfd573d6000803e3d6000fd5b505050506040513d6020811015611e1357600080fd5b50516005546008546040805163095ea7b360e01b81526001600160a01b03928316600482015260248101859052905193945091169163095ea7b3916044808201926020929091908290030181600087803b158015611e7057600080fd5b505af1158015611e84573d6000803e3d6000fd5b505050506040513d6020811015611e9a57600080fd5b505060085460055460408051631e42d69b60e21b81523060048201526001600160a01b0386811660248301529283166044820152606481018590529051919092169163790b5a6c91608480830192600092919082900301818387803b158015611f0257600080fd5b505af1158015611f16573d6000803e3d6000fd5b50506008546007546040805163095ea7b360e01b81526001600160a01b03928316600482015260248101879052905191909216935063095ea7b3925060448083019260209291908290030181600087803b158015611f7357600080fd5b505af1158015611f87573d6000803e3d6000fd5b505050506040513d6020811015611f9d57600080fd5b505060075460085460408051631e42d69b60e21b81523060048201526001600160a01b0386811660248301529283166044820152606481018590529051919092169163790b5a6c91608480830192600092919082900301818387803b15801561200557600080fd5b505af1158015612019573d6000803e3d6000fd5b50506007546040805163a9059cbb60e01b81526001600160a01b03878116600483015260248201879052915191909216935063a9059cbb925060448083019260209291908290030181600087803b15801561207357600080fd5b505af1158015612087573d6000803e3d6000fd5b505050506040513d602081101561209d57600080fd5b5050604080516001600160a01b03841681526020810183905281517fad93b2f628eda4195b3bf8738da70d1ba23b7061ffa4fe71aaca907e0b128cce929181900390910190a160016000559695505050505050565b60006002600054141561213a576040805162461bcd60e51b815260206004820152601f60248201526000805160206138cc833981519152604482015290519081900360640190fd5b600260005583612191576040805162461bcd60e51b815260206004820181905260248201527f526577617264526f757465723a20696e76616c6964205f7a6c70416d6f756e74604482015290519081900360640190fd5b6007546008546040805163098bf59d60e01b815233600482018190526001600160a01b039384166024830152604482018990526064820181905291519193929092169163098bf59d91608480830192600092919082900301818387803b1580156121fa57600080fd5b505af115801561220e573d6000803e3d6000fd5b50506008546005546040805163098bf59d60e01b81526001600160a01b03878116600483018190529381166024830152604482018c90526064820193909352905191909216935063098bf59d9250608480830192600092919082900301818387803b15801561227c57600080fd5b505af1158015612290573d6000803e3d6000fd5b5050600954604080516371d597ad60e01b81526001600160a01b0386811660048301528b81166024830152604482018b9052606482018a905288811660848301529151600095509190921692506371d597ad9160a48082019260209290919082900301818787803b15801561230457600080fd5b505af1158015612318573d6000803e3d6000fd5b505050506040513d602081101561232e57600080fd5b5051604080516001600160a01b03851681526020810189905281519293507f83ac00acd50a988c92018e2f35631dfbc00d5bd016c5515fe3758877b1499cf8929081900390910190a160016000559695505050505050565b6001546001600160a01b031633146123d3576040805162461bcd60e51b81526020600482015260156024820152600080516020613920833981519152604482015290519081900360640190fd5b6001600160a01b03811661242c576040805162461bcd60e51b815260206004820152601b60248201527a476f7665726e61626c653a20696e76616c6964206164647265737360281b604482015290519081900360640190fd5b6001546001600160a01b038281169116141561248d576040805162461bcd60e51b815260206004820152601b60248201527a476f7665726e61626c653a2073616d6520676f7665726e616e636560281b604482015290519081900360640190fd5b6124998160001961338b565b50565b600260005414156124e2576040805162461bcd60e51b815260206004820152601f60248201526000805160206138cc833981519152604482015290519081900360640190fd5b60026000556001546001600160a01b03163314612534576040805162461bcd60e51b81526020600482015260156024820152600080516020613920833981519152604482015290519081900360640190fd5b6004546001600160a01b031660005b83518110156114325761257e3385838151811061255c57fe5b60200260200101518486858151811061257157fe5b6020026020010151612e3c565b600101612543565b600260005414156125cc576040805162461bcd60e51b815260206004820152601f60248201526000805160206138cc833981519152604482015290519081900360640190fd5b60026000908155600854604080516309f4173d60e11b8152336004820181905260248201819052915191936001600160a01b03909316926313e82e7a926044808401936020939083900390910190829087803b158015610bfa57600080fd5b600060026000541415612673576040805162461bcd60e51b815260206004820152601f60248201526000805160206138cc833981519152604482015290519081900360640190fd5b6002600055346126ca576040805162461bcd60e51b815260206004820152601f60248201527f526577617264526f757465723a20696e76616c6964206d73672e76616c756500604482015290519081900360640190fd5b600360019054906101000a90046001600160a01b03166001600160a01b031663d0e30db0346040518263ffffffff1660e01b81526004016000604051808303818588803b15801561271a57600080fd5b505af115801561272e573d6000803e3d6000fd5b50506003546009546040805163095ea7b360e01b81526001600160a01b0392831660048201523460248201529051610100909304909116945063095ea7b3935060448082019350602092918290030181600087803b15801561278f57600080fd5b505af11580156127a3573d6000803e3d6000fd5b505050506040513d60208110156127b957600080fd5b5050600954600354604080516317eb2a1560e01b8152306004820181905260248201526001600160a01b03610100909304831660448201523460648201526084810187905260a481018690529051339360009316916317eb2a159160c480830192602092919082900301818787803b15801561283457600080fd5b505af1158015612848573d6000803e3d6000fd5b505050506040513d602081101561285e57600080fd5b50516005546008546040805163095ea7b360e01b81526001600160a01b03928316600482015260248101859052905193945091169163095ea7b3916044808201926020929091908290030181600087803b1580156128bb57600080fd5b505af11580156128cf573d6000803e3d6000fd5b505050506040513d60208110156128e557600080fd5b505060085460055460408051631e42d69b60e21b81523060048201526001600160a01b0386811660248301529283166044820152606481018590529051919092169163790b5a6c91608480830192600092919082900301818387803b15801561294d57600080fd5b505af1158015612961573d6000803e3d6000fd5b50506008546007546040805163095ea7b360e01b81526001600160a01b03928316600482015260248101879052905191909216935063095ea7b3925060448083019260209291908290030181600087803b1580156129be57600080fd5b505af11580156129d2573d6000803e3d6000fd5b505050506040513d60208110156129e857600080fd5b505060075460085460408051631e42d69b60e21b81523060048201526001600160a01b0386811660248301529283166044820152606481018590529051919092169163790b5a6c91608480830192600092919082900301818387803b158015612a5057600080fd5b505af1158015612a64573d6000803e3d6000fd5b50506007546040805163a9059cbb60e01b81526001600160a01b03878116600483015260248201879052915191909216935063a9059cbb925060448083019260209291908290030181600087803b158015612abe57600080fd5b505af1158015612ad2573d6000803e3d6000fd5b505050506040513d6020811015612ae857600080fd5b5050604080516001600160a01b03841681526020810183905281517fad93b2f628eda4195b3bf8738da70d1ba23b7061ffa4fe71aaca907e0b128cce929181900390910190a16001600055949350505050565b600a602052600090815260409020546001600160a01b031681565b60026000541415612b9c576040805162461bcd60e51b815260206004820152601f60248201526000805160206138cc833981519152604482015290519081900360640190fd5b6002600055338215610c24578115612cb857600854604080516309f4173d60e11b81526001600160a01b038481166004830152306024830152915160009392909216916313e82e7a9160448082019260209290919082900301818787803b158015612c0657600080fd5b505af1158015612c1a573d6000803e3d6000fd5b505050506040513d6020811015612c3057600080fd5b505160035460408051632e1a7d4d60e01b81526004810184905290519293506101009091046001600160a01b031691632e1a7d4d9160248082019260009290919082900301818387803b158015612c8657600080fd5b505af1158015612c9a573d6000803e3d6000fd5b50612cb2925050506001600160a01b03831682613516565b50610c24565b600854604080516309f4173d60e11b81526001600160a01b03848116600483018190526024830152915191909216916313e82e7a9160448083019260209291908290030181600087803b158015612d0e57600080fd5b505af1158015612d22573d6000803e3d6000fd5b505050506040513d6020811015612d3857600080fd5b50505050600160005550565b6006546001600160a01b031681565b60026000541415612d99576040805162461bcd60e51b815260206004820152601f60248201526000805160206138cc833981519152604482015290519081900360640190fd5b6002600055612da781612f4d565b336000908152600a6020526040812080546001600160a01b0319166001600160a01b03939093169290921790915560019055565b6005546001600160a01b031681565b604080516001600160a01b038416602482015260448082018490528251808303909101815260649091019091526020810180516001600160e01b031663a9059cbb60e01b1790526108749084906135fb565b60008111612e7f576040805162461bcd60e51b815260206004820152601d6024820152600080516020613b38833981519152604482015290519081900360640190fd5b60065460408051631e42d69b60e21b81526001600160a01b03878116600483015286811660248301528581166044830152606482018590529151919092169163790b5a6c91608480830192600092919082900301818387803b158015612ee457600080fd5b505af1158015612ef8573d6000803e3d6000fd5b5050604080516001600160a01b0380881682528616602082015280820185905290517f01760f917f4a47f469c1b086afdd3a9cbeae9e4f55828716c4afed80970df5919350908190036060019150a150505050565b6006546040805163a318021760e01b81526001600160a01b0384811660048301529151919092169163a3180217916024808301926020929190829003018186803b158015612f9a57600080fd5b505afa158015612fae573d6000803e3d6000fd5b505050506040513d6020811015612fc457600080fd5b5051156130025760405162461bcd60e51b8152600401808060200182810382526037815260200180613a4a6037913960400191505060405180910390fd5b60065460408051633792def360e01b81526001600160a01b03848116600483015291519190921691633792def3916024808301926020929190829003018186803b15801561304f57600080fd5b505afa158015613063573d6000803e3d6000fd5b505050506040513d602081101561307957600080fd5b5051156130b75760405162461bcd60e51b8152600401808060200182810382526034815260200180613a166034913960400191505060405180910390fd5b6007546040805163a318021760e01b81526001600160a01b0384811660048301529151919092169163a3180217916024808301926020929190829003018186803b15801561310457600080fd5b505afa158015613118573d6000803e3d6000fd5b505050506040513d602081101561312e57600080fd5b50511561316c5760405162461bcd60e51b8152600401808060200182810382526037815260200180613aa36037913960400191505060405180910390fd5b60075460408051633792def360e01b81526001600160a01b03848116600483015291519190921691633792def3916024808301926020929190829003018186803b1580156131b957600080fd5b505afa1580156131cd573d6000803e3d6000fd5b505050506040513d60208110156131e357600080fd5b5051156132215760405162461bcd60e51b81526004018080602001828103825260348152602001806138ec6034913960400191505060405180910390fd5b6008546040805163a318021760e01b81526001600160a01b0384811660048301529151919092169163a3180217916024808301926020929190829003018186803b15801561326e57600080fd5b505afa158015613282573d6000803e3d6000fd5b505050506040513d602081101561329857600080fd5b5051156132d65760405162461bcd60e51b8152600401808060200182810382526034815260200180613ada6034913960400191505060405180910390fd5b60085460408051633792def360e01b81526001600160a01b03848116600483015291519190921691633792def3916024808301926020929190829003018186803b15801561332357600080fd5b505afa158015613337573d6000803e3d6000fd5b505050506040513d602081101561334d57600080fd5b5051156124995760405162461bcd60e51b81526004018080602001828103825260318152602001806139406031913960400191505060405180910390fd5b604080518082018252828152600160208083018281526001600160a01b03871660008181526002845286902094518555905193909201805460ff1916931515939093179092558251848152925190927f02dd0697be46e764c3ba81094158781c31b235d03bb27a0daf1bdef0ec1084dd92908290030190a25050565b6000811161344a576040805162461bcd60e51b815260206004820152601d6024820152600080516020613b38833981519152604482015290519081900360640190fd5b6006546040805163098bf59d60e01b81526001600160a01b038681166004830181905286821660248401526044830186905260648301529151919092169163098bf59d91608480830192600092919082900301818387803b1580156134ae57600080fd5b505af11580156134c2573d6000803e3d6000fd5b5050604080516001600160a01b0380881682528616602082015280820185905290517f4fdf699b84ba823ce9c2445fc7bf3102aebeb0308aebaf4f7b565c14ddedeb6e9350908190036060019150a1505050565b8047101561356b576040805162461bcd60e51b815260206004820152601d60248201527f416464726573733a20696e73756666696369656e742062616c616e6365000000604482015290519081900360640190fd5b6040516000906001600160a01b0384169083908381818185875af1925050503d80600081146135b6576040519150601f19603f3d011682016040523d82523d6000602084013e6135bb565b606091505b50509050806108745760405162461bcd60e51b815260040180806020018281038252603a815260200180613971603a913960400191505060405180910390fd5b6060613650826040518060400160405280602081526020017f5361666545524332303a206c6f772d6c6576656c2063616c6c206661696c6564815250856001600160a01b03166136ac9092919063ffffffff16565b8051909150156108745780806020019051602081101561366f57600080fd5b50516108745760405162461bcd60e51b815260040180806020018281038252602a815260200180613b0e602a913960400191505060405180910390fd5b60606136bb84846000856136c5565b90505b9392505050565b6060824710156137065760405162461bcd60e51b81526004018080602001828103825260268152602001806139cc6026913960400191505060405180910390fd5b61370f85613821565b613760576040805162461bcd60e51b815260206004820152601d60248201527f416464726573733a2063616c6c20746f206e6f6e2d636f6e7472616374000000604482015290519081900360640190fd5b60006060866001600160a01b031685876040518082805190602001908083835b6020831061379f5780518252601f199092019160209182019101613780565b6001836020036101000a03801982511681845116808217855250505050505090500191505060006040518083038185875af1925050503d8060008114613801576040519150601f19603f3d011682016040523d82523d6000602084013e613806565b606091505b5091509150613816828286613827565b979650505050505050565b3b151590565b606083156138365750816136be565b8251156138465782518084602001fd5b8160405162461bcd60e51b81526004018080602001828103825283818151815260200191508051906020019080838360005b83811015613890578181015183820152602001613878565b50505050905090810190601f1680156138bd5780820380516001836020036101000a031916815260200191505b509250505060405180910390fdfe5265656e7472616e637947756172643a207265656e7472616e742063616c6c00526577617264526f757465723a207374616b65645a6c70547261636b65722e63756d756c617469766552657761726473203e2030476f7665726e61626c653a20666f7262696464656e0000000000000000000000526577617264526f757465723a206665655a6c70547261636b65722e63756d756c617469766552657761726473203e2030416464726573733a20756e61626c6520746f2073656e642076616c75652c20726563697069656e74206d61792068617665207265766572746564526577617264526f757465723a20616c726561647920696e697469616c697a6564416464726573733a20696e73756666696369656e742062616c616e636520666f722063616c6c526577617264526f757465723a207472616e73666572206e6f74207369676e616c6c6564526577617264526f757465723a207374616b65645a7573547261636b65722e63756d756c617469766552657761726473203e2030526577617264526f757465723a207374616b65645a7573547261636b65722e617665726167655374616b6564416d6f756e7473203e2030476f7665726e61626c653a2070726f706f73616c206973206e6f7420616374697665526577617264526f757465723a207374616b65645a6c70547261636b65722e617665726167655374616b6564416d6f756e7473203e2030526577617264526f757465723a206665655a6c70547261636b65722e617665726167655374616b6564416d6f756e7473203e20305361666545524332303a204552433230206f7065726174696f6e20646964206e6f742073756363656564526577617264526f757465723a20696e76616c6964205f616d6f756e74000000a2646970667358221220a8cf62c83268d50a3e3152ff4374e2285a1ef2092c5b046c4c410786ae62026664736f6c634300060c0033a2646970667358221220e6303b2ef1bd7297214f7cf13035fae4616b96352a22a3fd3ca53f3ad628e46164736f6c634300060c0033","linkReferences":{}},"methodIdentifiers":{"COOLDOWN_DURATION()":"5ec775b0","INITIAL_USER_BALANCE()":"c90398c5","PRICE_1USD()":"8f753084","admin()":"f851a440","collateralToken()":"b2016bd4","fastPriceFeed()":"3a849c21","feeZlpDistributor()":"75c3818c","feeZlpTracker()":"84347a33","rewardRouter()":"5a3bb989","setUp()":"0a9254e4","shortsTracker()":"657bc5d0","stakedZlpDistributor()":"f0e2db3c","stakedZlpTracker()":"17988a6a","stakedZusDistributor()":"d99e5e36","stakedZusTracker()":"ec4ee1c0","usdg()":"f5b91b7b","user()":"4f8632ba","vault()":"fbfa77cf","vaultPriceFeed()":"eeaa783a","vaultUtils()":"6abbe0c8","weth()":"3fc8cef3","zlp()":"fe9fe720","zlpManager()":"b6556599","zus()":"02486e08"},"id":182}