{"abi":[{"type":"function","name":"COOLDOWN_DURATION","inputs":[],"outputs":[{"name":"","type":"uint256","internalType":"uint256"}],"stateMutability":"view"},{"type":"function","name":"INITIAL_USER_BALANCE","inputs":[],"outputs":[{"name":"","type":"uint256","internalType":"uint256"}],"stateMutability":"view"},{"type":"function","name":"PRICE_1USD","inputs":[],"outputs":[{"name":"","type":"uint256","internalType":"uint256"}],"stateMutability":"view"},{"type":"function","name":"admin","inputs":[],"outputs":[{"name":"","type":"address","internalType":"address"}],"stateMutability":"view"},{"type":"function","name":"collateralToken","inputs":[],"outputs":[{"name":"","type":"address","internalType":"contract Token"}],"stateMutability":"view"},{"type":"function","name":"fastPriceFeed","inputs":[],"outputs":[{"name":"","type":"address","internalType":"contract FastPriceFeed"}],"stateMutability":"view"},{"type":"function","name":"feeZlpDistributor","inputs":[],"outputs":[{"name":"","type":"address","internalType":"contract RewardDistributor"}],"stateMutability":"view"},{"type":"function","name":"feeZlpTracker","inputs":[],"outputs":[{"name":"","type":"address","internalType":"contract RewardTracker"}],"stateMutability":"view"},{"type":"function","name":"rewardRouter","inputs":[],"outputs":[{"name":"","type":"address","internalType":"contract RewardRouterV2"}],"stateMutability":"view"},{"type":"function","name":"setUp","inputs":[],"outputs":[],"stateMutability":"nonpayable"},{"type":"function","name":"shortsTracker","inputs":[],"outputs":[{"name":"","type":"address","internalType":"contract ShortsTracker"}],"stateMutability":"view"},{"type":"function","name":"stakedZlpDistributor","inputs":[],"outputs":[{"name":"","type":"address","internalType":"contract RewardDistributor"}],"stateMutability":"view"},{"type":"function","name":"stakedZlpTracker","inputs":[],"outputs":[{"name":"","type":"address","internalType":"contract RewardTracker"}],"stateMutability":"view"},{"type":"function","name":"stakedZusDistributor","inputs":[],"outputs":[{"name":"","type":"address","internalType":"contract RewardDistributor"}],"stateMutability":"view"},{"type":"function","name":"stakedZusTracker","inputs":[],"outputs":[{"name":"","type":"address","internalType":"contract RewardTracker"}],"stateMutability":"view"},{"type":"function","name":"usdg","inputs":[],"outputs":[{"name":"","type":"address","internalType":"contract USDG"}],"stateMutability":"view"},{"type":"function","name":"user","inputs":[],"outputs":[{"name":"","type":"address","internalType":"address"}],"stateMutability":"view"},{"type":"function","name":"vault","inputs":[],"outputs":[{"name":"","type":"address","internalType":"contract Vault"}],"stateMutability":"view"},{"type":"function","name":"vaultPriceFeed","inputs":[],"outputs":[{"name":"","type":"address","internalType":"contract VaultPriceFeed"}],"stateMutability":"view"},{"type":"function","name":"vaultUtils","inputs":[],"outputs":[{"name":"","type":"address","internalType":"contract VaultUtils"}],"stateMutability":"view"},{"type":"function","name":"weth","inputs":[],"outputs":[{"name":"","type":"address","internalType":"contract WETH"}],"stateMutability":"view"},{"type":"function","name":"zlp","inputs":[],"outputs":[{"name":"","type":"address","internalType":"contract ZLP"}],"stateMutability":"view"},{"type":"function","name":"zlpManager","inputs":[],"outputs":[{"name":"","type":"address","internalType":"contract ZlpManager"}],"stateMutability":"view"},{"type":"function","name":"zus","inputs":[],"outputs":[{"name":"","type":"address","internalType":"contract Token"}],"stateMutability":"view"}],"bytecode":{"object":"0x608060405234801561001057600080fd5b5062028bf480620000226000396000f3fe60806040523480156200001157600080fd5b5060043610620001c05760003560e01c80638f75308411620000f9578063eeaa783a1162000099578063f851a440116200006f578063f851a44014620002d4578063fbfa77cf14620002de578063fe9fe72014620002e857620001c0565b8063eeaa783a14620002b6578063f0e2db3c14620002c0578063f5b91b7b14620002ca57620001c0565b8063c90398c511620000cf578063c90398c51462000298578063d99e5e3614620002a2578063ec4ee1c014620002ac57620001c0565b80638f753084146200027a578063b2016bd41462000284578063b6556599146200028e57620001c0565b80635a3bb98911620001655780636abbe0c8116200013b5780636abbe0c8146200025c57806375c3818c146200026657806384347a33146200027057620001c0565b80635a3bb989146200022c5780635ec775b01462000236578063657bc5d0146200025257620001c0565b80633a849c21116200019b5780633a849c21146200020e5780633fc8cef314620002185780634f8632ba146200022257620001c0565b806302486e0814620001c55780630a9254e414620001f857806317988a6a1462000204575b600080fd5b620001cf620002f2565b6040805173ffffffffffffffffffffffffffffffffffffffff9092168252519081900360200190f35b620002026200030e565b005b620001cf62002e07565b620001cf62002e23565b620001cf62002e3f565b620001cf62002e5b565b620001cf62002e77565b6200024062002e93565b60408051918252519081900360200190f35b620001cf62002e99565b620001cf62002eb5565b620001cf62002ed1565b620001cf62002eed565b6200024062002f09565b620001cf62002f1a565b620001cf62002f36565b6200024062002f52565b620001cf62002f5f565b620001cf62002f7b565b620001cf62002f97565b620001cf62002fb3565b620001cf62002fcf565b620001cf62002feb565b620001cf62003007565b620001cf62003023565b60105473ffffffffffffffffffffffffffffffffffffffff1681565b604080517fe5d6bf02000000000000000000000000000000000000000000000000000000008152611c2060048201529051737109709ecfa91a80626ff3989d68f67f5b1dd12d9163e5d6bf0291602480830192600092919082900301818387803b1580156200037c57600080fd5b505af115801562000391573d6000803e3d6000fd5b505060128054337fffffffffffffffffffffffff00000000000000000000000000000000000000009182161791829055604080517f5a657573000000000000000000000000000000000000000000000000000000006020808301919091528251600481840301815260248301808552815191909201206013805490951673ffffffffffffffffffffffffffffffffffffffff918216179094557f06447d560000000000000000000000000000000000000000000000000000000090529190921660288201529051737109709ecfa91a80626ff3989d68f67f5b1dd12d93506306447d569250604880830192600092919082900301818387803b1580156200049757600080fd5b505af1158015620004ac573d6000803e3d6000fd5b50505050604051620004be906200303f565b604051809103906000f080158015620004db573d6000803e3d6000fd5b50600080547fffffffffffffffffffffffff00000000000000000000000000000000000000001673ffffffffffffffffffffffffffffffffffffffff928316179081905560405191169062000530906200304d565b73ffffffffffffffffffffffffffffffffffffffff909116815260405190819003602001906000f0801580156200056b573d6000803e3d6000fd5b50600780547fffffffffffffffffffffffff00000000000000000000000000000000000000001673ffffffffffffffffffffffffffffffffffffffff92909216919091179055604051620005bf906200305b565b604051809103906000f080158015620005dc573d6000803e3d6000fd5b50600280547fffffffffffffffffffffffff00000000000000000000000000000000000000001673ffffffffffffffffffffffffffffffffffffffff928316179055600054604051911690620006329062003069565b73ffffffffffffffffffffffffffffffffffffffff909116815260405190819003602001906000f0801580156200066d573d6000803e3d6000fd5b50600180547fffffffffffffffffffffffff00000000000000000000000000000000000000001673ffffffffffffffffffffffffffffffffffffffff928316179055600054604051911690620006c39062003077565b73ffffffffffffffffffffffffffffffffffffffff909116815260405190819003602001906000f080158015620006fe573d6000803e3d6000fd5b50600480547fffffffffffffffffffffffff00000000000000000000000000000000000000001673ffffffffffffffffffffffffffffffffffffffff92909216919091179055604051620007529062003085565b604051809103906000f0801580156200076f573d6000803e3d6000fd5b50600680547fffffffffffffffffffffffff00000000000000000000000000000000000000001673ffffffffffffffffffffffffffffffffffffffff92831617908190556000546007546004546040519285169491821693821692911690610e1090620007dc9062003093565b73ffffffffffffffffffffffffffffffffffffffff9586168152938516602085015291841660408085019190915293166060830152608082015290519081900360a001906000f08015801562000836573d6000803e3d6000fd5b50600580547fffffffffffffffffffffffff00000000000000000000000000000000000000001673ffffffffffffffffffffffffffffffffffffffff92831617905560008054600754600254604080517ff1675a8b00000000000000000000000000000000000000000000000000000000815260048101869052928616602484015290851660448301526d04ee2d6d415b85acef810000000060648301526127106084830181905260a483015251919093169263f1675a8b9260c480830193919282900301818387803b1580156200090d57600080fd5b505af115801562000922573d6000803e3d6000fd5b505060008054600154604080517f71089f4d00000000000000000000000000000000000000000000000000000000815273ffffffffffffffffffffffffffffffffffffffff928316600482015290519190921694506371089f4d93506024808301939282900301818387803b1580156200099b57600080fd5b505af1158015620009b0573d6000803e3d6000fd5b5050600654600554604080517fcf456ae700000000000000000000000000000000000000000000000000000000815273ffffffffffffffffffffffffffffffffffffffff928316600482015260016024820152905191909216935063cf456ae79250604480830192600092919082900301818387803b15801562000a3357600080fd5b505af115801562000a48573d6000803e3d6000fd5b5050600754600554604080517f256b5a0200000000000000000000000000000000000000000000000000000000815273ffffffffffffffffffffffffffffffffffffffff9283166004820152905191909216935063256b5a029250602480830192600092919082900301818387803b15801562000ac457600080fd5b505af115801562000ad9573d6000803e3d6000fd5b505060008054600554604080517fa5e90eee00000000000000000000000000000000000000000000000000000000815273ffffffffffffffffffffffffffffffffffffffff928316600482015260016024820152905191909216945063a5e90eee93506044808301939282900301818387803b15801562000b5957600080fd5b505af115801562000b6e573d6000803e3d6000fd5b505060008054601254604080517fcfad57a200000000000000000000000000000000000000000000000000000000815273ffffffffffffffffffffffffffffffffffffffff9283166004820152905191909216945063cfad57a293506024808301939282900301818387803b15801562000be757600080fd5b505af115801562000bfc573d6000803e3d6000fd5b5050600254601254604080517fcfad57a200000000000000000000000000000000000000000000000000000000815273ffffffffffffffffffffffffffffffffffffffff9283166004820152905191909216935063cfad57a29250602480830192600092919082900301818387803b15801562000c7857600080fd5b505af115801562000c8d573d6000803e3d6000fd5b5050600554601254604080517fcfad57a200000000000000000000000000000000000000000000000000000000815273ffffffffffffffffffffffffffffffffffffffff9283166004820152905191909216935063cfad57a29250602480830192600092919082900301818387803b15801562000d0957600080fd5b505af115801562000d1e573d6000803e3d6000fd5b505060048054601254604080517fcfad57a200000000000000000000000000000000000000000000000000000000815273ffffffffffffffffffffffffffffffffffffffff92831694810194909452519116935063cfad57a29250602480830192600092919082900301818387803b15801562000d9a57600080fd5b505af115801562000daf573d6000803e3d6000fd5b5050505060405162000dc190620030a1565b604051809103906000f08015801562000dde573d6000803e3d6000fd5b50600880547fffffffffffffffffffffffff00000000000000000000000000000000000000001673ffffffffffffffffffffffffffffffffffffffff9283161790819055601354604080517f40c10f190000000000000000000000000000000000000000000000000000000081529184166004830152683635c9adc5dea0000060248301525191909216916340c10f1991604480830192600092919082900301818387803b15801562000e9057600080fd5b505af115801562000ea5573d6000803e3d6000fd5b50505050601260405162000eb990620030af565b6040808201929092526060808252600d908201527f5772617070656420457468657200000000000000000000000000000000000000608082015260a0602082018190526004908201527f574554480000000000000000000000000000000000000000000000000000000060c082015290519081900360e001906000f08015801562000f48573d6000803e3d6000fd5b50601180547fffffffffffffffffffffffff00000000000000000000000000000000000000001673ffffffffffffffffffffffffffffffffffffffff92831617905560125460405161070892611c209260009260329284921690829062000faf90620030bd565b9687526020870195909552604080870194909452606086019290925273ffffffffffffffffffffffffffffffffffffffff908116608086015290811660a08501529190911660c0830152519081900360e001906000f08015801562001018573d6000803e3d6000fd5b50600380547fffffffffffffffffffffffff00000000000000000000000000000000000000001673ffffffffffffffffffffffffffffffffffffffff9283161790819055601254604080517fcfad57a2000000000000000000000000000000000000000000000000000000008152918416600483015251919092169163cfad57a291602480830192600092919082900301818387803b158015620010bb57600080fd5b505af1158015620010d0573d6000803e3d6000fd5b5050604080516001808252818301909252606093509150602080830190803683375050601254825192935073ffffffffffffffffffffffffffffffffffffffff16918391506000906200111f57fe5b73ffffffffffffffffffffffffffffffffffffffff92909216602092830291909101909101526040805160018082528183019092526060918160200160208202803683375050601254825192935073ffffffffffffffffffffffffffffffffffffffff16918391506000906200119157fe5b73ffffffffffffffffffffffffffffffffffffffff9283166020918202929092018101919091526003546040517f7fbc79c60000000000000000000000000000000000000000000000000000000081526001600482018181526060602484019081528851606485015288519490961695637fbc79c6959294899489946044820192608490920191878201910280838360005b838110156200123d57818101518382015260200162001223565b50505050905001838103825284818151815260200191508051906020019060200280838360005b838110156200127e57818101518382015260200162001264565b5050505090500195505050505050600060405180830381600087803b158015620012a757600080fd5b505af1158015620012bc573d6000803e3d6000fd5b5050600354601254604080517f1a15339100000000000000000000000000000000000000000000000000000000815273ffffffffffffffffffffffffffffffffffffffff9283166004820152600160248201529051919092169350631a1533919250604480830192600092919082900301818387803b1580156200133f57600080fd5b505af115801562001354573d6000803e3d6000fd5b5050600354604080517f776d16c1000000000000000000000000000000000000000000000000000000008152610e106004820152905173ffffffffffffffffffffffffffffffffffffffff909216935063776d16c1925060248082019260009290919082900301818387803b158015620013cd57600080fd5b505af1158015620013e2573d6000803e3d6000fd5b5050600354600254604080517f238aafb700000000000000000000000000000000000000000000000000000000815273ffffffffffffffffffffffffffffffffffffffff9283166004820152905191909216935063238aafb79250602480830192600092919082900301818387803b1580156200145e57600080fd5b505af115801562001473573d6000803e3d6000fd5b5050600254600354604080517f9a0a663500000000000000000000000000000000000000000000000000000000815273ffffffffffffffffffffffffffffffffffffffff92831660048201529051919092169350639a0a66359250602480830192600092919082900301818387803b158015620014ef57600080fd5b505af115801562001504573d6000803e3d6000fd5b5050600254604080517f9917dc74000000000000000000000000000000000000000000000000000000008152600060048201819052915173ffffffffffffffffffffffffffffffffffffffff9093169450639917dc7493506024808201939182900301818387803b1580156200157957600080fd5b505af11580156200158e573d6000803e3d6000fd5b5050600254604080517feb1c92a900000000000000000000000000000000000000000000000000000000815260016004820152905173ffffffffffffffffffffffffffffffffffffffff909216935063eb1c92a9925060248082019260009290919082900301818387803b1580156200160657600080fd5b505af11580156200161b573d6000803e3d6000fd5b505060408051600280825260608083018452945090925090602083019080368337505060408051600280825260608083018452949550909250906020830190803683375050600854845192935073ffffffffffffffffffffffffffffffffffffffff16918491506000906200168c57fe5b602002602001019073ffffffffffffffffffffffffffffffffffffffff16908173ffffffffffffffffffffffffffffffffffffffff16815250506c0c9f2c9cd04674edea4000000081600081518110620016e257fe5b6020908102919091010152601154825173ffffffffffffffffffffffffffffffffffffffff90911690839060019081106200171957fe5b602002602001019073ffffffffffffffffffffffffffffffffffffffff16908173ffffffffffffffffffffffffffffffffffffffff16815250506c0c9f2c9cd04674edea40000000610dac02816001815181106200177357fe5b6020908102919091018101919091526003546040517f782661bc000000000000000000000000000000000000000000000000000000008152426044820181905260606004830190815286516064840152865173ffffffffffffffffffffffffffffffffffffffff9094169463782661bc948894889493928392602483019260840191888101910280838360005b838110156200181a57818101518382015260200162001800565b50505050905001838103825285818151815260200191508051906020019060200280838360005b838110156200185b57818101518382015260200162001841565b5050505090500195505050505050600060405180830381600087803b1580156200188457600080fd5b505af115801562001899573d6000803e3d6000fd5b505060008054600854604080517f3c5a6e3500000000000000000000000000000000000000000000000000000000815273ffffffffffffffffffffffffffffffffffffffff92831660048201526012602482015261271060448201526064810185905269d3c21bcecceda1000000608482015260a48101859052600160c48201529051919092169450633c5a6e35935060e4808301939282900301818387803b1580156200194657600080fd5b505af11580156200195b573d6000803e3d6000fd5b505060008054601154604080517f3c5a6e3500000000000000000000000000000000000000000000000000000000815273ffffffffffffffffffffffffffffffffffffffff92831660048201526012602482015261271060448201526064810185905269d3c21bcecceda1000000608482015260a48101859052600160c48201529051919092169450633c5a6e35935060e4808301939282900301818387803b15801562001a0857600080fd5b505af115801562001a1d573d6000803e3d6000fd5b5050505060405162001a2f90620030a1565b604051809103906000f08015801562001a4c573d6000803e3d6000fd5b50601080547fffffffffffffffffffffffff00000000000000000000000000000000000000001673ffffffffffffffffffffffffffffffffffffffff9283161790819055601254604080517f40c10f19000000000000000000000000000000000000000000000000000000008152918416600483015269021e19e0c9bab240000060248301525191909216916340c10f1991604480830192600092919082900301818387803b15801562001aff57600080fd5b505af115801562001b14573d6000803e3d6000fd5b5050505060405162001b2690620030cb565b6040808252600a818301527f5374616b6564205a55530000000000000000000000000000000000000000000060608301526080602083018190526004908301527f735a55530000000000000000000000000000000000000000000000000000000060a0830152519081900360c001906000f08015801562001bab573d6000803e3d6000fd5b50600a80547fffffffffffffffffffffffff00000000000000000000000000000000000000001673ffffffffffffffffffffffffffffffffffffffff928316179081905560105460405190831692919091169062001c0990620030d9565b73ffffffffffffffffffffffffffffffffffffffff928316815291166020820152604080519182900301906000f08015801562001c4a573d6000803e3d6000fd5b50600d80547fffffffffffffffffffffffff00000000000000000000000000000000000000001673ffffffffffffffffffffffffffffffffffffffff92909216919091179055604080516001808252818301909252606091602080830190803683375050601054825192935073ffffffffffffffffffffffffffffffffffffffff169183915060009062001cda57fe5b73ffffffffffffffffffffffffffffffffffffffff928316602091820292909201810191909152600a54600d54604080517f462d0b2e0000000000000000000000000000000000000000000000000000000081529185166024830181905260048301918252865160448401528651939095169463462d0b2e94879491938392606490910191868101910280838360005b8381101562001d8457818101518382015260200162001d6a565b505050509050019350505050600060405180830381600087803b15801562001dab57600080fd5b505af115801562001dc0573d6000803e3d6000fd5b505050505060405162001dd390620030cb565b60408082526007818301527f466565205a4c500000000000000000000000000000000000000000000000000060608301526080602083018190526004908301527f665a4c500000000000000000000000000000000000000000000000000000000060a0830152519081900360c001906000f08015801562001e58573d6000803e3d6000fd5b50600b80547fffffffffffffffffffffffff00000000000000000000000000000000000000001673ffffffffffffffffffffffffffffffffffffffff928316179081905560115460405190831692919091169062001eb690620030d9565b73ffffffffffffffffffffffffffffffffffffffff928316815291166020820152604080519182900301906000f08015801562001ef7573d6000803e3d6000fd5b50600e80547fffffffffffffffffffffffff00000000000000000000000000000000000000001673ffffffffffffffffffffffffffffffffffffffff92909216919091179055604080516001808252818301909252606091602080830190803683375050600654825192935073ffffffffffffffffffffffffffffffffffffffff169183915060009062001f8757fe5b73ffffffffffffffffffffffffffffffffffffffff928316602091820292909201810191909152600b54600e54604080517f462d0b2e0000000000000000000000000000000000000000000000000000000081529185166024830181905260048301918252865160448401528651939095169463462d0b2e94879491938392606490910191868101910280838360005b838110156200203157818101518382015260200162002017565b505050509050019350505050600060405180830381600087803b1580156200205857600080fd5b505af11580156200206d573d6000803e3d6000fd5b50505050506040516200208090620030cb565b6040808252600a818301527f5374616b6564205a4c500000000000000000000000000000000000000000000060608301526080602083018190526004908301527f735a4c500000000000000000000000000000000000000000000000000000000060a0830152519081900360c001906000f08015801562002105573d6000803e3d6000fd5b50600c80547fffffffffffffffffffffffff00000000000000000000000000000000000000001673ffffffffffffffffffffffffffffffffffffffff92831617908190556010546040519083169291909116906200216390620030d9565b73ffffffffffffffffffffffffffffffffffffffff928316815291166020820152604080519182900301906000f080158015620021a4573d6000803e3d6000fd5b50600f80547fffffffffffffffffffffffff00000000000000000000000000000000000000001673ffffffffffffffffffffffffffffffffffffffff9290921691909117905560408051600280825260608083018452926020830190803683375050600b54825192935073ffffffffffffffffffffffffffffffffffffffff16918391506000906200223257fe5b73ffffffffffffffffffffffffffffffffffffffff92831660209182029290920101526006548251911690829060019081106200226b57fe5b73ffffffffffffffffffffffffffffffffffffffff928316602091820292909201810191909152600c54600f54604080517f462d0b2e0000000000000000000000000000000000000000000000000000000081529185166024830181905260048301918252865160448401528651939095169463462d0b2e94879491938392606490910191868101910280838360005b8381101562002315578181015183820152602001620022fb565b505050509050019350505050600060405180830381600087803b1580156200233c57600080fd5b505af115801562002351573d6000803e3d6000fd5b5050601254604080517fc88a5e6d00000000000000000000000000000000000000000000000000000000815273ffffffffffffffffffffffffffffffffffffffff9092166004830152686c6b935b8bbd400000602483015251737109709ecfa91a80626ff3989d68f67f5b1dd12d945063c88a5e6d93506044808301935060009282900301818387803b158015620023e857600080fd5b505af1158015620023fd573d6000803e3d6000fd5b50505050601160009054906101000a900473ffffffffffffffffffffffffffffffffffffffff1673ffffffffffffffffffffffffffffffffffffffff1663d0e30db0683635c9adc5dea000006040518263ffffffff1660e01b81526004016000604051808303818588803b1580156200247557600080fd5b505af11580156200248a573d6000803e3d6000fd5b5050601154600e54604080517fa9059cbb00000000000000000000000000000000000000000000000000000000815273ffffffffffffffffffffffffffffffffffffffff9283166004820152683635c9adc5dea000006024820152905191909216945063a9059cbb9350604480830193506020928290030181600087803b1580156200251557600080fd5b505af11580156200252a573d6000803e3d6000fd5b505050506040513d60208110156200254157600080fd5b5050601054600d54604080517fa9059cbb00000000000000000000000000000000000000000000000000000000815273ffffffffffffffffffffffffffffffffffffffff9283166004820152683635c9adc5dea0000060248201529051919092169163a9059cbb9160448083019260209291908290030181600087803b158015620025cb57600080fd5b505af1158015620025e0573d6000803e3d6000fd5b505050506040513d6020811015620025f757600080fd5b5050601054600f54604080517fa9059cbb00000000000000000000000000000000000000000000000000000000815273ffffffffffffffffffffffffffffffffffffffff9283166004820152683635c9adc5dea0000060248201529051919092169163a9059cbb9160448083019260209291908290030181600087803b1580156200268157600080fd5b505af115801562002696573d6000803e3d6000fd5b505050506040513d6020811015620026ad57600080fd5b5050600d54604080517f3ae6d6eb000000000000000000000000000000000000000000000000000000008152905173ffffffffffffffffffffffffffffffffffffffff90921691633ae6d6eb9160048082019260009290919082900301818387803b1580156200271c57600080fd5b505af115801562002731573d6000803e3d6000fd5b5050600d54604080517f18e20a03000000000000000000000000000000000000000000000000000000008152662386f26fc100006004820152905173ffffffffffffffffffffffffffffffffffffffff90921693506318e20a03925060248082019260009290919082900301818387803b158015620027af57600080fd5b505af1158015620027c4573d6000803e3d6000fd5b50505050600e60009054906101000a900473ffffffffffffffffffffffffffffffffffffffff1673ffffffffffffffffffffffffffffffffffffffff16633ae6d6eb6040518163ffffffff1660e01b8152600401600060405180830381600087803b1580156200283357600080fd5b505af115801562002848573d6000803e3d6000fd5b5050600e54604080517f18e20a0300000000000000000000000000000000000000000000000000000000815266038d7ea4c680006004820152905173ffffffffffffffffffffffffffffffffffffffff90921693506318e20a03925060248082019260009290919082900301818387803b158015620028c657600080fd5b505af1158015620028db573d6000803e3d6000fd5b50505050600f60009054906101000a900473ffffffffffffffffffffffffffffffffffffffff1673ffffffffffffffffffffffffffffffffffffffff16633ae6d6eb6040518163ffffffff1660e01b8152600401600060405180830381600087803b1580156200294a57600080fd5b505af11580156200295f573d6000803e3d6000fd5b5050600f54604080517f18e20a03000000000000000000000000000000000000000000000000000000008152662386f26fc100006004820152905173ffffffffffffffffffffffffffffffffffffffff90921693506318e20a03925060248082019260009290919082900301818387803b158015620029dd57600080fd5b505af1158015620029f2573d6000803e3d6000fd5b5050505060405162002a0490620030e7565b604051809103906000f08015801562002a21573d6000803e3d6000fd5b50600980547fffffffffffffffffffffffff00000000000000000000000000000000000000001673ffffffffffffffffffffffffffffffffffffffff9283161790819055601154601054600654600a54600b54600c54600554604080517f35876476000000000000000000000000000000000000000000000000000000008152978a16600489015295891660248801529388166044870152918716606486015286166084850152851660a4840152841660c483015251919092169163358764769160e480830192600092919082900301818387803b15801562002b0357600080fd5b505af115801562002b18573d6000803e3d6000fd5b5050600554600954604080517f9cb7de4b00000000000000000000000000000000000000000000000000000000815273ffffffffffffffffffffffffffffffffffffffff9283166004820152600160248201529051919092169350639cb7de4b9250604480830192600092919082900301818387803b15801562002b9b57600080fd5b505af115801562002bb0573d6000803e3d6000fd5b5050600a54600954604080517f9cb7de4b00000000000000000000000000000000000000000000000000000000815273ffffffffffffffffffffffffffffffffffffffff9283166004820152600160248201529051919092169350639cb7de4b9250604480830192600092919082900301818387803b15801562002c3357600080fd5b505af115801562002c48573d6000803e3d6000fd5b5050600b54600954604080517f9cb7de4b00000000000000000000000000000000000000000000000000000000815273ffffffffffffffffffffffffffffffffffffffff9283166004820152600160248201529051919092169350639cb7de4b9250604480830192600092919082900301818387803b15801562002ccb57600080fd5b505af115801562002ce0573d6000803e3d6000fd5b5050600c54600954604080517f9cb7de4b00000000000000000000000000000000000000000000000000000000815273ffffffffffffffffffffffffffffffffffffffff9283166004820152600160248201529051919092169350639cb7de4b9250604480830192600092919082900301818387803b15801562002d6357600080fd5b505af115801562002d78573d6000803e3d6000fd5b505050507f885cb69240a935d632d79c317109709ecfa91a80626ff3989d68f67f5b1dd12d60001c73ffffffffffffffffffffffffffffffffffffffff166390c5013b6040518163ffffffff1660e01b8152600401600060405180830381600087803b15801562002de857600080fd5b505af115801562002dfd573d6000803e3d6000fd5b5050505050505050565b600c5473ffffffffffffffffffffffffffffffffffffffff1681565b60035473ffffffffffffffffffffffffffffffffffffffff1681565b60115473ffffffffffffffffffffffffffffffffffffffff1681565b60135473ffffffffffffffffffffffffffffffffffffffff1681565b60095473ffffffffffffffffffffffffffffffffffffffff1681565b610e1081565b60045473ffffffffffffffffffffffffffffffffffffffff1681565b60015473ffffffffffffffffffffffffffffffffffffffff1681565b600e5473ffffffffffffffffffffffffffffffffffffffff1681565b600b5473ffffffffffffffffffffffffffffffffffffffff1681565b6c0c9f2c9cd04674edea4000000081565b60085473ffffffffffffffffffffffffffffffffffffffff1681565b60055473ffffffffffffffffffffffffffffffffffffffff1681565b683635c9adc5dea0000081565b600d5473ffffffffffffffffffffffffffffffffffffffff1681565b600a5473ffffffffffffffffffffffffffffffffffffffff1681565b60025473ffffffffffffffffffffffffffffffffffffffff1681565b600f5473ffffffffffffffffffffffffffffffffffffffff1681565b60075473ffffffffffffffffffffffffffffffffffffffff1681565b60125473ffffffffffffffffffffffffffffffffffffffff1681565b60005473ffffffffffffffffffffffffffffffffffffffff1681565b60065473ffffffffffffffffffffffffffffffffffffffff1681565b61763280620030f683390190565b6130d1806200a72883390190565b6129e7806200d7f983390190565b61233680620101e083390190565b611579806201251683390190565b612fe18062013a8f83390190565b6130d98062016a7083390190565b6113138062019b4983390190565b6111d1806201ae5c83390190565b613be5806201c02d83390190565b61393a806201fc1283390190565b610fb5806202354c83390190565b6146be80620245018339019056fe608060405234801561001057600080fd5b5061761180620000216000396000f3fe608060405234801561001057600080fd5b50600436106107595760003560e01c8063870d917c116103c9578063cea0c328116101ff578063e124e6d211610125578063f3ae2415116100b8578063fbfded6d11610087578063fbfded6d14611bbb578063fce28c1014611bf6578063fdaf6ac314611bfe578063fed1a60614611c4f57610759565b8063f3ae241514611b39578063f5b91b7b14611b6c578063f887ea4014611b74578063fa12dbc014611b7c57610759565b8063f07456ce116100f4578063f07456ce14611a57578063f07bbf7714611a8a578063f1675a8b14611aa9578063f255527814611afe57610759565b8063e124e6d21461199b578063e468baf0146119ce578063e67f59a7146119eb578063efa10a6e14611a1e57610759565b8063d9ac42251161019d578063db97495f1161016c578063db97495f146118dd578063dc8f5fac14611936578063de2ea9481461193e578063df73a2671461199357610759565b8063d9ac422514611818578063da76524c14611820578063daf9c21014611877578063db3555fb146118aa57610759565b8063d3127e63116101d9578063d3127e6314611723578063d54d5a9f14611740578063d66b000d146117ac578063d8f897c3146117e557610759565b8063cea0c32814611690578063cfad57a2146116d3578063d2fa635e1461170657610759565b8063a22f2392116102ef578063b06423f311610282578063c3c7b9e911610251578063c3c7b9e9146115d5578063c4f718bf14611608578063c65bc7b114611610578063c7e074c31461164357610759565b8063b06423f314611522578063b136ca491461152a578063b1cc53ab1461155d578063b364accb146115a257610759565b8063ab08c1c6116102be578063ab08c1c6146114ac578063ab2f3ad4146114b4578063ad1e4f8d146114e7578063ae3302c21461151a57610759565b8063a22f2392146113fd578063a42ab3d214611405578063a5e90eee1461143e578063a93acac21461147957610759565b80639060b1ca116103675780639849e412116103365780639849e412146113755780639899cd021461137d5780639d7432ca146113b65780639f392eb3146113f557610759565b80639060b1ca146112ed57806393316212146112f557806395082d251461133a5780639698d25a1461134257610759565b80638a39735a116103a35780638a39735a146107f45780638a78daa8146112545780638ee573ac146112875780638f7b8404146112ba57610759565b8063870d917c146111f057806388b1fbdf146111f85780638a27d4681461122b57610759565b80634453a3741161059e57806360922199116104c4578063724e78da11610457578063817bb85711610426578063817bb857146110e857806381a612d61461112357806382a08490146111565780638585f4d2146111b757610759565b8063724e78da14611086578063741bef1a146110b95780637a210a2b146110c15780637c2eb9f7146110c957610759565b80636ae0b154116104935780636ae0b15414610fdd5780636be6026b1461101057806371089f4d14611018578063711e61901461104b57610759565b80636092219914610f5f57806362287a3214610f9a5780636274980314610fa25780636abbe0c814610fd557610759565b80634d47b3041161053c578063529a356f1161050b578063529a356f14610e7957806352f55eed14610eac5780635c07eaab14610edf5780635f7bc11914610f2c57610759565b80634d47b30414610d9e578063514ea4bf14610da657806351723e8214610dfb578063523fba7f14610e4657610759565b806348f35cbb1161057857806348f35cbb14610ccd5780634a3f088d14610cd55780634a993ee914610d635780634befe2ca14610d9657610759565b80634453a37414610bdb57806345a6f37014610c1657806348d91abf14610c7c57610759565b806329ff961511610683578063392e53cd116106215780633e72a262116105f05780633e72a26214610b0e57806340eb380214610b165780634215287314610b6757806342b60b0314610ba857610759565b8063392e53cd14610a705780633a05dcc114610a785780633c5a6e3514610aab5780633de39c1114610b0657610759565b806330455ede1161065d57806330455ede14610a41578063318bc68914610a6057806334c1557d146107f4578063351a964d14610a6857610759565b806329ff96151461098a5780632c668ec1146109bd5780632d4b0576146109f657610759565b8063134ca63b116106fb5780631ce9cb8f116106ca5780631ce9cb8f1461088c57806324b0c04d146108bf57806324ca984e146108e057806328e67be51461091357610759565b8063134ca63b1461082d578063174d269414610835578063181e210e1461083d5780631aa4ace51461085957610759565b80630a48d5a9116107375780630a48d5a9146107b357806310eb56c2146107ec578063126082cf146107f457806312d43a51146107fc57610759565b806304fef1db1461075e57806307c58752146107a35780630842b076146107ab575b600080fd5b6107916004803603602081101561077457600080fd5b503573ffffffffffffffffffffffffffffffffffffffff16611ce1565b60408051918252519081900360200190f35b610791611d5e565b610791611d70565b610791600480360360408110156107c957600080fd5b5073ffffffffffffffffffffffffffffffffffffffff8135169060200135611d76565b610791611dd6565b610791611ddc565b610804611de2565b6040805173ffffffffffffffffffffffffffffffffffffffff9092168252519081900360200190f35b610791611dfe565b610791611e04565b610845611e0a565b604080519115158252519081900360200190f35b6107916004803603602081101561086f57600080fd5b503573ffffffffffffffffffffffffffffffffffffffff16611e1a565b610791600480360360208110156108a257600080fd5b503573ffffffffffffffffffffffffffffffffffffffff16611e2c565b6108de600480360360208110156108d557600080fd5b50351515611e3e565b005b6108de600480360360208110156108f657600080fd5b503573ffffffffffffffffffffffffffffffffffffffff16611e7e565b6108de6004803603604081101561092957600080fd5b8135919081019060408101602082013564010000000081111561094b57600080fd5b82018360208201111561095d57600080fd5b8035906020019184600183028401116401000000008311171561097f57600080fd5b509092509050611eda565b610791600480360360208110156109a057600080fd5b503573ffffffffffffffffffffffffffffffffffffffff16611f7f565b610791600480360360408110156109d357600080fd5b5073ffffffffffffffffffffffffffffffffffffffff8135169060200135611f93565b61079160048036036080811015610a0c57600080fd5b5073ffffffffffffffffffffffffffffffffffffffff8135811691602081013582169160408201351690606001351515611fe6565b6108de60048036036020811015610a5757600080fd5b50351515612054565b610791612093565b610845612099565b6108456120a7565b61079160048036036020811015610a8e57600080fd5b503573ffffffffffffffffffffffffffffffffffffffff166120b0565b6108de600480360360e0811015610ac157600080fd5b5073ffffffffffffffffffffffffffffffffffffffff8135169060208101359060408101359060608101359060808101359060a081013515159060c001351515612197565b610791612343565b610845612349565b6108de6004803603610120811015610b2d57600080fd5b5080359060208101359060408101359060608101359060808101359060a08101359060c08101359060e08101359061010001351515612358565b61079160048036036060811015610b7d57600080fd5b5080359073ffffffffffffffffffffffffffffffffffffffff602082013581169160400135166123b5565b61084560048036036020811015610bbe57600080fd5b503573ffffffffffffffffffffffffffffffffffffffff1661248b565b6108de60048036036040811015610bf157600080fd5b5073ffffffffffffffffffffffffffffffffffffffff813516906020013515156124a0565b610c6160048036036080811015610c2c57600080fd5b5073ffffffffffffffffffffffffffffffffffffffff81358116916020810135821691604082013516906060013515156124fe565b60408051921515835260208301919091528051918290030190f35b6108de600480360360a0811015610c9257600080fd5b5073ffffffffffffffffffffffffffffffffffffffff813581169160208101358216916040820135169060608101359060800135151561259c565b610804612b14565b610d2060048036036080811015610ceb57600080fd5b5073ffffffffffffffffffffffffffffffffffffffff8135811691602081013582169160408201351690606001351515612b30565b604080519889526020890197909752878701959095526060870193909352608086019190915260a0850152151560c084015260e083015251908190036101000190f35b61079160048036036020811015610d7957600080fd5b503573ffffffffffffffffffffffffffffffffffffffff16612c26565b610791612c38565b610791612c3e565b610dc360048036036020811015610dbc57600080fd5b5035612c44565b604080519788526020880196909652868601949094526060860192909252608085015260a084015260c0830152519081900360e00190f35b61079160048036036080811015610e1157600080fd5b5073ffffffffffffffffffffffffffffffffffffffff8135811691602081013582169160408201351690606001351515612c81565b61079160048036036020811015610e5c57600080fd5b503573ffffffffffffffffffffffffffffffffffffffff16612d27565b61084560048036036020811015610e8f57600080fd5b503573ffffffffffffffffffffffffffffffffffffffff16612d39565b61079160048036036020811015610ec257600080fd5b503573ffffffffffffffffffffffffffffffffffffffff16612d4e565b610c61600480360360a0811015610ef557600080fd5b5073ffffffffffffffffffffffffffffffffffffffff81351690602081013590604081013590606081013515159060800135612d60565b6108de60048036036020811015610f4257600080fd5b503573ffffffffffffffffffffffffffffffffffffffff16612e65565b61084560048036036040811015610f7557600080fd5b5073ffffffffffffffffffffffffffffffffffffffff81358116916020013516612f8e565b610791612fae565b61079160048036036020811015610fb857600080fd5b503573ffffffffffffffffffffffffffffffffffffffff16612fb4565b610804612fc6565b6108de60048036036020811015610ff357600080fd5b503573ffffffffffffffffffffffffffffffffffffffff16612fe9565b610791613042565b6108de6004803603602081101561102e57600080fd5b503573ffffffffffffffffffffffffffffffffffffffff16613049565b6107916004803603604081101561106157600080fd5b5073ffffffffffffffffffffffffffffffffffffffff8135811691602001351661309f565b6108de6004803603602081101561109c57600080fd5b503573ffffffffffffffffffffffffffffffffffffffff16613419565b610804613468565b610791613484565b6108de600480360360208110156110df57600080fd5b5035151561348a565b610791600480360360408110156110fe57600080fd5b5073ffffffffffffffffffffffffffffffffffffffff813581169160200135166134ca565b6107916004803603602081101561113957600080fd5b503573ffffffffffffffffffffffffffffffffffffffff16613882565b610791600480360360e081101561116c57600080fd5b5073ffffffffffffffffffffffffffffffffffffffff81358116916020810135821691604082013581169160608101359160808201359160a081013515159160c09091013516613953565b6108de600480360360408110156111cd57600080fd5b5073ffffffffffffffffffffffffffffffffffffffff81351690602001356139fd565b610791613a2e565b6107916004803603602081101561120e57600080fd5b503573ffffffffffffffffffffffffffffffffffffffff16613a33565b6108de6004803603606081101561124157600080fd5b5080359060208101359060400135613a45565b6107916004803603602081101561126a57600080fd5b503573ffffffffffffffffffffffffffffffffffffffff16613a8b565b6107916004803603602081101561129d57600080fd5b503573ffffffffffffffffffffffffffffffffffffffff16613a9d565b6108de600480360360208110156112d057600080fd5b503573ffffffffffffffffffffffffffffffffffffffff16613aaf565b610845613afe565b6107916004803603606081101561130b57600080fd5b5073ffffffffffffffffffffffffffffffffffffffff8135811691602081013582169160409091013516613b0d565b610791613ed0565b6107916004803603602081101561135857600080fd5b503573ffffffffffffffffffffffffffffffffffffffff16613ee1565b610791613ef3565b6107916004803603604081101561139357600080fd5b5073ffffffffffffffffffffffffffffffffffffffff8135169060200135613ef9565b610791600480360360608110156113cc57600080fd5b5073ffffffffffffffffffffffffffffffffffffffff8135169060208101359060400135613f1b565b610845613fd1565b610791613fda565b6107916004803603604081101561141b57600080fd5b5073ffffffffffffffffffffffffffffffffffffffff8135169060200135613fe0565b6108de6004803603604081101561145457600080fd5b5073ffffffffffffffffffffffffffffffffffffffff81351690602001351515613ffd565b6107916004803603602081101561148f57600080fd5b503573ffffffffffffffffffffffffffffffffffffffff1661405b565b61084561419a565b610791600480360360208110156114ca57600080fd5b503573ffffffffffffffffffffffffffffffffffffffff166141a3565b610791600480360360208110156114fd57600080fd5b503573ffffffffffffffffffffffffffffffffffffffff166141b5565b6107916141c7565b6108456141cd565b6107916004803603602081101561154057600080fd5b503573ffffffffffffffffffffffffffffffffffffffff166141db565b6107916004803603606081101561157357600080fd5b5073ffffffffffffffffffffffffffffffffffffffff81358116916020810135909116906040013515156142b0565b610c61600480360360208110156115b857600080fd5b503573ffffffffffffffffffffffffffffffffffffffff16614371565b610791600480360360208110156115eb57600080fd5b503573ffffffffffffffffffffffffffffffffffffffff16614423565b610791614435565b6107916004803603602081101561162657600080fd5b503573ffffffffffffffffffffffffffffffffffffffff1661443b565b610791600480360360a081101561165957600080fd5b5073ffffffffffffffffffffffffffffffffffffffff8135169060208101359060408101359060608101359060800135151561444d565b6108de600480360360608110156116a657600080fd5b5073ffffffffffffffffffffffffffffffffffffffff81358116916020810135909116906040013561451d565b6108de600480360360208110156116e957600080fd5b503573ffffffffffffffffffffffffffffffffffffffff1661454b565b6108de6004803603602081101561171c57600080fd5b503561459a565b6108de6004803603602081101561173957600080fd5b50356145a7565b611793600480360360a081101561175657600080fd5b5073ffffffffffffffffffffffffffffffffffffffff813581169160208101358216916040820135169060608101351515906080013515156145c3565b6040805192835260208301919091528051918290030190f35b6108de600480360360408110156117c257600080fd5b5073ffffffffffffffffffffffffffffffffffffffff81351690602001356146a0565b610791600480360360208110156117fb57600080fd5b503573ffffffffffffffffffffffffffffffffffffffff16614706565b610791614718565b610791600480360360c081101561183657600080fd5b5073ffffffffffffffffffffffffffffffffffffffff8135811691602081013582169160408201351690606081013515159060808101359060a0013561471e565b6108456004803603602081101561188d57600080fd5b503573ffffffffffffffffffffffffffffffffffffffff166147f8565b610845600480360360208110156118c057600080fd5b503573ffffffffffffffffffffffffffffffffffffffff1661480d565b610791600480360360e08110156118f357600080fd5b5073ffffffffffffffffffffffffffffffffffffffff81351690602081013590604081013590606081013515159060808101359060a08101359060c00135614821565b6107916148b2565b6108de600480360360a081101561195457600080fd5b5073ffffffffffffffffffffffffffffffffffffffff8135811691602081013582169160408201358116916060810135151591608090910135166148b8565b610791614d57565b610791600480360360208110156119b157600080fd5b503573ffffffffffffffffffffffffffffffffffffffff16614d5d565b610804600480360360208110156119e457600080fd5b5035614dfb565b6108de60048036036020811015611a0157600080fd5b503573ffffffffffffffffffffffffffffffffffffffff16614e2f565b6108de60048036036040811015611a3457600080fd5b5073ffffffffffffffffffffffffffffffffffffffff8135169060200135614f47565b61079160048036036020811015611a6d57600080fd5b503573ffffffffffffffffffffffffffffffffffffffff16614f78565b6108de60048036036020811015611aa057600080fd5b50351515614f8a565b6108de600480360360c0811015611abf57600080fd5b5073ffffffffffffffffffffffffffffffffffffffff813581169160208101358216916040820135169060608101359060808101359060a00135614fcb565b61079160048036036040811015611b1457600080fd5b5073ffffffffffffffffffffffffffffffffffffffff81358116916020013516615153565b61084560048036036020811015611b4f57600080fd5b503573ffffffffffffffffffffffffffffffffffffffff166151c3565b6108046151d8565b6108046151f4565b61079160048036036060811015611b9257600080fd5b5073ffffffffffffffffffffffffffffffffffffffff8135169060208101359060400135615210565b6108de60048036036040811015611bd157600080fd5b5073ffffffffffffffffffffffffffffffffffffffff81358116916020013516615257565b6107916154a4565b610791600480360360a0811015611c1457600080fd5b5073ffffffffffffffffffffffffffffffffffffffff81358116916020810135821691604082013516906060810135151590608001356154aa565b611c6c60048036036020811015611c6557600080fd5b5035615546565b6040805160208082528351818301528351919283929083019185019080838360005b83811015611ca6578181015183820152602001611c8e565b50505050905090810190601f168015611cd35780820380516001836020036101000a031916815260200191505b509250505060405180910390f35b73ffffffffffffffffffffffffffffffffffffffff811660009081526025602052604081205480611d16576000915050611d59565b73ffffffffffffffffffffffffffffffffffffffff8316600090815260266020526040902054611d55908290611d4f90620f42406155ff565b90615672565b9150505b919050565b6d04ee2d6d415b85acef810000000081565b601b5490565b600081611d8557506000611dd0565b6000611d9084613882565b73ffffffffffffffffffffffffffffffffffffffff85166000908152601d6020526040902054909150611dcb600a82900a611d4f86856155ff565b925050505b92915050565b600b5481565b61271081565b60065473ffffffffffffffffffffffffffffffffffffffff1681565b60145481565b60095481565b6016546301000000900460ff1681565b60236020526000908152604090205481565b602c6020526000908152604090205481565b611e466156b4565b6016805491151562010000027fffffffffffffffffffffffffffffffffffffffffffffffffffffffffff00ffff909216919091179055565b33600090815260186020908152604080832073ffffffffffffffffffffffffffffffffffffffff9490941683529290522080547fffffffffffffffffffffffffffffffffffffffffffffffffffffffffffffff00166001179055565b60025473ffffffffffffffffffffffffffffffffffffffff163314611f6057604080517f08c379a000000000000000000000000000000000000000000000000000000000815260206004820152601e60248201527f5661756c743a20696e76616c6964206572726f72436f6e74726f6c6c65720000604482015290519081900360640190fd5b6000838152603060205260409020611f799083836174a2565b50505050565b6000611dd082611f8e846141db565b611d76565b600080611f9f84614d5d565b90506000611fbe82611d4f866c0c9f2c9cd04674edea400000006155ff565b600554909150611dcb90829073ffffffffffffffffffffffffffffffffffffffff16876123b5565b604080517fffffffffffffffffffffffffffffffffffffffff000000000000000000000000606096871b811660208084019190915295871b811660348301529390951b9092166048850152151560f81b605c8401528051603d818503018152605d9093019052815191012090565b61205c6156b4565b60018054911515610100027fffffffffffffffffffffffffffffffffffffffffffffffffffffffffffff00ff909216919091179055565b600f5481565b600154610100900460ff1681565b60015460ff1681565b600080600560009054906101000a900473ffffffffffffffffffffffffffffffffffffffff1673ffffffffffffffffffffffffffffffffffffffff166318160ddd6040518163ffffffff1660e01b815260040160206040518083038186803b15801561211b57600080fd5b505afa15801561212f573d6000803e3d6000fd5b505050506040513d602081101561214557600080fd5b5051905080612158576000915050611d59565b73ffffffffffffffffffffffffffffffffffffffff831660009081526022602052604090205460155461218f90611d4f83856155ff565b949350505050565b61219f6156b4565b73ffffffffffffffffffffffffffffffffffffffff87166000908152601c602052604090205460ff1661224e576007546121da9060016156dc565b600755601b80546001810182556000919091527f3ad8aa4f87544323a9d1e5dd902f40c356527a7955687113db5f9a85ad579dc10180547fffffffffffffffffffffffff00000000000000000000000000000000000000001673ffffffffffffffffffffffffffffffffffffffff89161790555b60155473ffffffffffffffffffffffffffffffffffffffff8816600090815260226020526040902054612282908290615750565b73ffffffffffffffffffffffffffffffffffffffff89166000908152601c60209081526040808320805460017fffffffffffffffffffffffffffffffffffffffffffffffffffffffffffffff0091821617909155601d83528184208c9055602283528184208b9055601e83528184208a905560248352818420899055601f8352818420805482168915151790559180529091208054909116841515179055905061232c81876156dc565b60155561233888614d5d565b505050505050505050565b60175481565b60015462010000900460ff1681565b6123606156b4565b600a98909855600b96909655600c94909455600d92909255600e55600f55600955601055601180547fffffffffffffffffffffffffffffffffffffffffffffffffffffffffffffff0016911515919091179055565b600554600090819073ffffffffffffffffffffffffffffffffffffffff8581169116146124075773ffffffffffffffffffffffffffffffffffffffff84166000908152601d602052604090205461240a565b60125b60055490915060009073ffffffffffffffffffffffffffffffffffffffff85811691161461245d5773ffffffffffffffffffffffffffffffffffffffff84166000908152601d6020526040902054612460565b60125b905061247f82600a0a611d4f83600a0a896155ff90919063ffffffff16565b925050505b9392505050565b601f6020526000908152604090205460ff1681565b6124a86156b4565b73ffffffffffffffffffffffffffffffffffffffff91909116600090815260196020526040902080547fffffffffffffffffffffffffffffffffffffffffffffffffffffffffffffff0016911515919091179055565b600080600061250f87878787611fe6565b905061251961753e565b506000818152602b6020908152604091829020825160e081018452815480825260018301549382019390935260028201549381018490526003820154606082015260048201546080820152600582015460a082015260069091015460c08201819052909261258d9289929091908990612d60565b93509350505094509492505050565b6002600054141561260e57604080517f08c379a000000000000000000000000000000000000000000000000000000000815260206004820152601f60248201527f5265656e7472616e637947756172643a207265656e7472616e742063616c6c00604482015290519081900360640190fd5b600260005560015461262a9062010000900460ff16601c615792565b612632615876565b61263b85615892565b61264684848361591c565b600154604080517f9d5c28fa00000000000000000000000000000000000000000000000000000000815273ffffffffffffffffffffffffffffffffffffffff8881166004830152878116602483015286811660448301526064820186905284151560848301529151630100000090930490911691639d5c28fa9160a480820192600092909190829003018186803b1580156126e057600080fd5b505afa1580156126f4573d6000803e3d6000fd5b505050506127028484615257565b600061271086868685611fe6565b6000818152602b60205260408120919250836127345761272f86613882565b61273d565b61273d86614d5d565b82549091506128015760028201819055600154604080517f8ce6adac0000000000000000000000000000000000000000000000000000000081526004810186905273ffffffffffffffffffffffffffffffffffffffff8b811660248301528a81166044830152898116606483015287151560848301529151630100000090930490911691638ce6adac9160a48082019260009290919082900301818387803b1580156127e857600080fd5b505af11580156127fc573d6000803e3d6000fd5b505050505b8154158015906128115750600085115b1561283757612831868360000154846002015487858a8860060154614821565b60028301555b6000612850898989888a88600001548960030154615a99565b9050600061285d89615b81565b9050600061286b8a83611d76565b600186015490915061287d90826156dc565b6001860181905561289290841115601d615792565b60018501546128a19084615750565b60018601556128b18a8a896142b0565b600386015584546128c290896156dc565b8086554260068701556128d8901515601e615792565b6128ea85600001548660010154615c61565b6128f88b8b8b8a60016145c3565b505060006129068b8a613fe0565b600487015490915061291890826156dc565b60048701556129278b82615c85565b871561296c576129408b61293b8b876156dc565b615d4c565b61294a8b83615de5565b6129548b84615e7e565b6129678b6129628d87613ef9565b615fe3565b6129ff565b73ffffffffffffffffffffffffffffffffffffffff8a166000908152602d60205260409020546129c35773ffffffffffffffffffffffffffffffffffffffff8a166000908152602e602052604090208590556129f5565b6129ce8a868b613f1b565b73ffffffffffffffffffffffffffffffffffffffff8b166000908152602e60205260409020555b6129ff8a8a6160e0565b6040805188815273ffffffffffffffffffffffffffffffffffffffff808f166020830152808e16828401528c1660608201526080810184905260a081018b905289151560c082015260e08101879052610100810186905290517f2fe68525253654c21998f35787a8d0f361905ef647c854092430ab65f2f15022918190036101200190a1855460018701546002880154600389015460048a015460058b0154604080518e81526020810197909752868101959095526060860193909352608085019190915260a084015260c083015260e08201879052517f20853733b590dce729d9f4628682ebd9a34d2354e72679e66f43a008fc03b773918190036101000190a15050600160005550505050505050505050565b60025473ffffffffffffffffffffffffffffffffffffffff1681565b6000806000806000806000806000612b4a8d8d8d8d611fe6565b9050612b5461753e565b602b60008381526020019081526020016000206040518060e001604052908160008201548152602001600182015481526020016002820154815260200160038201548152602001600482015481526020016005820154815260200160068201548152505090506000808260a0015113612bd4578160a00151600003612bda565b8160a001515b9050816000015182602001518360400151846060015185608001518560008860a0015112158860c001519a509a509a509a509a509a509a509a5050505094995094995094999196509450565b60276020526000908152604090205481565b6101f481565b600c5481565b602b602052600090815260409020805460018201546002830154600384015460048501546005860154600690960154949593949293919290919087565b600080612c9086868686611fe6565b9050612c9a61753e565b506000818152602b6020908152604091829020825160e0810184528154815260018201549281018390526002820154938101939093526003810154606084015260048101546080840152600581015460a08401526006015460c0830152612d049015156025615792565b60208101518151612d1c9190611d4f906127106155ff565b979650505050505050565b60216020526000908152604090205481565b60196020526000908152604090205460ff1681565b60256020526000908152604090205481565b600080612d71600086116026615792565b600084612d8657612d8188614d5d565b612d8f565b612d8f88613882565b90506000818711612da957612da48288615750565b612db3565b612db38783615750565b90506000612dc588611d4f8b856155ff565b905060008715612dd85750878311612ddd565b508288115b6000612df4601054896156dc90919063ffffffff16565b4211612e255773ffffffffffffffffffffffffffffffffffffffff8c166000908152601e6020526040902054612e28565b60005b9050818015612e4b5750612e3c8b826155ff565b612e48846127106155ff565b11155b15612e5557600092505b509a909950975050505050505050565b60026000541415612ed757604080517f08c379a000000000000000000000000000000000000000000000000000000000815260206004820152601f60248201527f5265656e7472616e637947756172643a207265656e7472616e742063616c6c00604482015290519081900360640190fd5b6002600090815573ffffffffffffffffffffffffffffffffffffffff82168152601c6020526040902054612f0f9060ff16600e615792565b6000612f1a82615b81565b9050612f2a60008211600f615792565b612f348282615e7e565b6040805173ffffffffffffffffffffffffffffffffffffffff841681526020810183905281517fa5a389190ebf6170a133bda5c769b77f4d6715b8aa172ec0ddf8473d0b4944bd929181900390910190a150506001600055565b601860209081526000928352604080842090915290825290205460ff1681565b60075481565b602e6020526000908152604090205481565b6001546301000000900473ffffffffffffffffffffffffffffffffffffffff1681565b33600090815260186020908152604080832073ffffffffffffffffffffffffffffffffffffffff9490941683529290522080547fffffffffffffffffffffffffffffffffffffffffffffffffffffffffffffff00169055565b620f424081565b6130516156b4565b6001805473ffffffffffffffffffffffffffffffffffffffff9092166301000000027fffffffffffffffffff0000000000000000000000000000000000000000ffffff909216919091179055565b60006002600054141561311357604080517f08c379a000000000000000000000000000000000000000000000000000000000815260206004820152601f60248201527f5265656e7472616e637947756172643a207265656e7472616e742063616c6c00604482015290519081900360640190fd5b60026000556131206161dc565b73ffffffffffffffffffffffffffffffffffffffff83166000908152601c60205260409020546131549060ff166013615792565b601680547fffffffffffffffffffffffffffffffffffffffffffffffffffffffffffff00ff166101001790556005546000906131a59073ffffffffffffffffffffffffffffffffffffffff16615b81565b90506131b5600082116014615792565b6131bf8485615257565b60006131cb8583611f93565b90506131db600082116015615792565b6131e5858361620b565b6131ef8582615fe3565b600554604080517f9dc29fac00000000000000000000000000000000000000000000000000000000815230600482015260248101859052905173ffffffffffffffffffffffffffffffffffffffff90921691639dc29fac9160448082019260009290919082900301818387803b15801561326857600080fd5b505af115801561327c573d6000803e3d6000fd5b50506005546132a3925073ffffffffffffffffffffffffffffffffffffffff169050616314565b600154604080517feb0835bf00000000000000000000000000000000000000000000000000000000815273ffffffffffffffffffffffffffffffffffffffff8881166004830152602482018690529151600093630100000090049092169163eb0835bf91604480820192602092909190829003018186803b15801561332757600080fd5b505afa15801561333b573d6000803e3d6000fd5b505050506040513d602081101561335157600080fd5b5051905060006133628784846163d6565b9050613372600082116016615792565b61337d8782886164c5565b6040805173ffffffffffffffffffffffffffffffffffffffff808916825289166020820152808201869052606081018390526080810184905290517fd732b7828fa6cee72c285eac756fc66a7477e3dc22e22e7c432f1c265d40b4839181900360a00190a1601680547fffffffffffffffffffffffffffffffffffffffffffffffffffffffffffff00ff16905560016000559695505050505050565b6134216156b4565b600480547fffffffffffffffffffffffff00000000000000000000000000000000000000001673ffffffffffffffffffffffffffffffffffffffff92909216919091179055565b60045473ffffffffffffffffffffffffffffffffffffffff1681565b600a5481565b6134926156b4565b6001805491151562010000027fffffffffffffffffffffffffffffffffffffffffffffffffffffffffff00ffff909216919091179055565b60006002600054141561353e57604080517f08c379a000000000000000000000000000000000000000000000000000000000815260206004820152601f60248201527f5265656e7472616e637947756172643a207265656e7472616e742063616c6c00604482015290519081900360640190fd5b600260005561354b6161dc565b73ffffffffffffffffffffffffffffffffffffffff83166000908152601c602052604090205461357f9060ff166010615792565b601680547fffffffffffffffffffffffffffffffffffffffffffffffffffffffffffff00ff1661010017905560006135b684615b81565b90506135c6600082116011615792565b6135d08485615257565b60006135db85613882565b905060006135fa6c0c9f2c9cd04674edea40000000611d4f85856155ff565b600554909150613623908290889073ffffffffffffffffffffffffffffffffffffffff166123b5565b9050613633600082116012615792565b600154604080517f4adeddc600000000000000000000000000000000000000000000000000000000815273ffffffffffffffffffffffffffffffffffffffff89811660048301526024820185905291516000936301000000900490921691634adeddc691604480820192602092909190829003018186803b1580156136b757600080fd5b505afa1580156136cb573d6000803e3d6000fd5b505050506040513d60208110156136e157600080fd5b5051905060006136f28886846163d6565b905060006137116c0c9f2c9cd04674edea40000000611d4f84886155ff565b60055490915061373a9082908b9073ffffffffffffffffffffffffffffffffffffffff166123b5565b905061374689826165ac565b6137508983615e7e565b600554604080517f40c10f1900000000000000000000000000000000000000000000000000000000815273ffffffffffffffffffffffffffffffffffffffff8b8116600483015260248201859052915191909216916340c10f1991604480830192600092919082900301818387803b1580156137cb57600080fd5b505af11580156137df573d6000803e3d6000fd5b50506040805173ffffffffffffffffffffffffffffffffffffffff808d1682528d1660208201528082018a9052606081018590526080810187905290517fab4c77c74cd32c85f35416cf03e7ce9e2d4387f7b7f2c1f4bf53daaecf8ea72d93509081900360a0019150a1601680547fffffffffffffffffffffffffffffffffffffffffffffffffffffffffffff00ff169055600160005598975050505050505050565b60048054601654604080517f2fc3a70a00000000000000000000000000000000000000000000000000000000815273ffffffffffffffffffffffffffffffffffffffff8681169582019590955260006024820181905260ff80851615156044840152610100909404909316151560648201529051919390921691632fc3a70a916084808301926020929190829003018186803b15801561392157600080fd5b505afa158015613935573d6000803e3d6000fd5b505050506040513d602081101561394b57600080fd5b505192915050565b6000600260005414156139c757604080517f08c379a000000000000000000000000000000000000000000000000000000000815260206004820152601f60248201527f5265656e7472616e637947756172643a207265656e7472616e742063616c6c00604482015290519081900360640190fd5b60026000556139d4615876565b6139dd88615892565b6139ec8888888888888861669e565b600160005598975050505050505050565b613a056156b4565b73ffffffffffffffffffffffffffffffffffffffff909116600090815260276020526040902055565b601281565b601e6020526000908152604090205481565b613a4d6156b4565b613a5d610e10841015600a615792565b613a6d612710831115600b615792565b613a7d612710821115600c615792565b601292909255601355601455565b602d6020526000908152604090205481565b601d6020526000908152604090205481565b613ab76156b4565b600280547fffffffffffffffffffffffff00000000000000000000000000000000000000001673ffffffffffffffffffffffffffffffffffffffff92909216919091179055565b60165462010000900460ff1681565b600060026000541415613b8157604080517f08c379a000000000000000000000000000000000000000000000000000000000815260206004820152601f60248201527f5265656e7472616e637947756172643a207265656e7472616e742063616c6c00604482015290519081900360640190fd5b6002600055600154613b9c90610100900460ff166017615792565b73ffffffffffffffffffffffffffffffffffffffff84166000908152601c6020526040902054613bd09060ff166018615792565b73ffffffffffffffffffffffffffffffffffffffff83166000908152601c6020526040902054613c049060ff166019615792565b613c3e8373ffffffffffffffffffffffffffffffffffffffff168573ffffffffffffffffffffffffffffffffffffffff161415601a615792565b601680547fffffffffffffffffffffffffffffffffffffffffffffffffffffffffffff00ff16610100179055613c748480615257565b613c7e8384615257565b6000613c8985615b81565b9050613c9960008211601b615792565b6000613ca486613882565b90506000613cb186614d5d565b90506000613cc382611d4f86866155ff565b9050613cd08189896123b5565b90506000613cef6c0c9f2c9cd04674edea40000000611d4f87876155ff565b600554909150613d189082908b9073ffffffffffffffffffffffffffffffffffffffff166123b5565b600154604080517fda13381600000000000000000000000000000000000000000000000000000000815273ffffffffffffffffffffffffffffffffffffffff8d811660048301528c8116602483015260448201859052915193945060009363010000009093049091169163da13381691606480820192602092909190829003018186803b158015613da857600080fd5b505afa158015613dbc573d6000803e3d6000fd5b505050506040513d6020811015613dd257600080fd5b505190506000613de38a85846163d6565b9050613def8b846165ac565b613df98a8461620b565b613e038b88615e7e565b613e0d8a85615fe3565b613e168a616c2e565b613e218a828b6164c5565b6040805173ffffffffffffffffffffffffffffffffffffffff808c168252808e1660208301528c1681830152606081018990526080810186905260a0810183905260c0810184905290517f0874b2d545cb271cdbda4e093020c452328b24af12382ed62c4d00f5c26709db9181900360e00190a1601680547fffffffffffffffffffffffffffffffffffffffffffffffffffffffffffff00ff16905560016000559a9950505050505050505050565b6c0c9f2c9cd04674edea4000000081565b602f6020526000908152604090205481565b60125481565b600081613f0857506000611dd0565b6124848383613f1686614d5d565b615210565b73ffffffffffffffffffffffffffffffffffffffff83166000908152602d6020908152604080832054602e90925282205482858211613f6357613f5e8683615750565b613f6d565b613f6d8287615750565b90506000613f7f83611d4f86856155ff565b90508683116000613f9086896156dc565b9050600082613fa857613fa382856156dc565b613fb2565b613fb28285615750565b9050613fc281611d4f8c856155ff565b9b9a5050505050505050505050565b60115460ff1681565b600d5481565b600081613fef57506000611dd0565b6124848383613f1686613882565b6140056156b4565b73ffffffffffffffffffffffffffffffffffffffff919091166000908152601a6020526040902080547fffffffffffffffffffffffffffffffffffffffffffffffffffffffffffffff0016911515919091179055565b60125473ffffffffffffffffffffffffffffffffffffffff82166000908152602a602052604081205490914291614091916156dc565b111561409f57506000611d59565b60125473ffffffffffffffffffffffffffffffffffffffff83166000908152602a602052604081205490916140d991611d4f904290615750565b73ffffffffffffffffffffffffffffffffffffffff84166000908152602560205260409020549091508061411257600092505050611d59565b73ffffffffffffffffffffffffffffffffffffffff84166000908152601f602052604081205460ff166141475760135461414b565b6014545b73ffffffffffffffffffffffffffffffffffffffff8616600090815260266020526040902054909150614191908390611d4f90869061418b9086906155ff565b906155ff565b95945050505050565b60165460ff1681565b60226020526000908152604090205481565b60246020526000908152604090205481565b60085481565b601654610100900460ff1681565b73ffffffffffffffffffffffffffffffffffffffff81166000908152601f602052604081205460ff1615614235575073ffffffffffffffffffffffffffffffffffffffff8116600090815260256020526040902054611d59565b73ffffffffffffffffffffffffffffffffffffffff8216600090815260286020526040812054614266908490613ef9565b73ffffffffffffffffffffffffffffffffffffffff8416600090815260266020908152604080832054602590925290912054919250611d55916142aa9084906156dc565b90615750565b600154604080517fb1cc53ab00000000000000000000000000000000000000000000000000000000815273ffffffffffffffffffffffffffffffffffffffff8681166004830152858116602483015284151560448301529151600093630100000090049092169163b1cc53ab91606480820192602092909190829003018186803b15801561433d57600080fd5b505afa158015614351573d6000803e3d6000fd5b505050506040513d602081101561436757600080fd5b5051949350505050565b73ffffffffffffffffffffffffffffffffffffffff81166000908152602d60205260408120548190806143ab57600080925092505061441e565b60006143b685614d5d565b73ffffffffffffffffffffffffffffffffffffffff86166000908152602e60205260408120549192508282116143f5576143f08383615750565b6143ff565b6143ff8284615750565b9050600061441183611d4f87856155ff565b9390921195509193505050505b915091565b60266020526000908152604090205481565b60135481565b60296020526000908152604090205481565b600154604080517fc7e074c300000000000000000000000000000000000000000000000000000000815273ffffffffffffffffffffffffffffffffffffffff888116600483015260248201889052604482018790526064820186905284151560848301529151600093630100000090049092169163c7e074c39160a480820192602092909190829003018186803b1580156144e757600080fd5b505afa1580156144fb573d6000803e3d6000fd5b505050506040513d602081101561451157600080fd5b50519695505050505050565b6145256156b4565b61454673ffffffffffffffffffffffffffffffffffffffff83168483616ccd565b505050565b6145536156b4565b600680547fffffffffffffffffffffffff00000000000000000000000000000000000000001673ffffffffffffffffffffffffffffffffffffffff92909216919091179055565b6145a26156b4565b601755565b6145af6156b4565b6145be61271082116002615792565b600855565b600154604080517fd54d5a9f00000000000000000000000000000000000000000000000000000000815273ffffffffffffffffffffffffffffffffffffffff888116600483015287811660248301528681166044830152851515606483015284151560848301528251600094859463010000009091049092169263d54d5a9f9260a4808301939192829003018186803b15801561465f57600080fd5b505afa158015614673573d6000803e3d6000fd5b505050506040513d604081101561468957600080fd5b508051602090910151909890975095505050505050565b6146a86156b4565b73ffffffffffffffffffffffffffffffffffffffff8216600090815260236020526040902054808211156146ef576146e9836146e48484615750565b6165ac565b50614702565b614546836146fd8385615750565b61620b565b5050565b602a6020526000908152604090205481565b60105481565b600154604080517fda76524c00000000000000000000000000000000000000000000000000000000815273ffffffffffffffffffffffffffffffffffffffff89811660048301528881166024830152878116604483015286151560648301526084820186905260a482018590529151600093630100000090049092169163da76524c9160c480820192602092909190829003018186803b1580156147c157600080fd5b505afa1580156147d5573d6000803e3d6000fd5b505050506040513d60208110156147eb57600080fd5b5051979650505050505050565b601c6020526000908152604090205460ff1681565b602080526000908152604090205460ff1681565b60008060006148338a8a8a8a88612d60565b909250905060006148448a876156dc565b90506000881561487357836148625761485d8284615750565b61486c565b61486c82846156dc565b9050614894565b836148875761488282846156dc565b614891565b6148918284615750565b90505b6148a281611d4f8a856155ff565b9c9b505050505050505050505050565b60155481565b6002600054141561492a57604080517f08c379a000000000000000000000000000000000000000000000000000000000815260206004820152601f60248201527f5265656e7472616e637947756172643a207265656e7472616e742063616c6c00604482015290519081900360640190fd5b60026000556016546301000000900460ff161561495f573360009081526019602052604090205461495f9060ff166022615792565b601680547fffffffffffffffffffffffffffffffffffffffffffffffffffffffffffffff001690556149918484615257565b600061499f86868686611fe6565b90506149a961753e565b506000818152602b6020908152604091829020825160e08101845281548082526001830154938201939093526002820154938101939093526003810154606084015260048101546080840152600581015460a08401526006015460c0830152614a159015156023615792565b600080614a268989898960006145c3565b91509150614a3982600014156024615792565b8160021415614a8c57614a56898989600087600001518b8f61669e565b5050601680547fffffffffffffffffffffffffffffffffffffffffffffffffffffffffffffff0016600117905550614d4b915050565b6000614a988983613ef9565b73ffffffffffffffffffffffffffffffffffffffff8a166000908152602c6020526040902054909150614acb90826156dc565b73ffffffffffffffffffffffffffffffffffffffff8a166000818152602c602090815260409182902093909355805191825291810184905280820183905290517f5d0c0019d3d45fadeb74eff9d2c9924d146d000ac6bcf3c28bf0ac3c9baa011a9181900360600190a1614b43898560800151616d5a565b8615614b725760208401518451614b64918b91614b5f91615750565b615de5565b614b72896129628b85613ef9565b600087614b8757614b8289614d5d565b614b90565b614b9089613882565b90507f2e1f85a64a2f22cf2f0c42584e7c919ed4abe8d53675cff0f62bf1e95a1c676f868c8c8c8c8a600001518b602001518c608001518d60a001518a604051808b81526020018a73ffffffffffffffffffffffffffffffffffffffff1681526020018973ffffffffffffffffffffffffffffffffffffffff1681526020018873ffffffffffffffffffffffffffffffffffffffff16815260200187151581526020018681526020018581526020018481526020018381526020018281526020019a505050505050505050505060405180910390a187158015614c765750846020015183105b15614ca4576020850151600090614c8d9085615750565b9050614ca28b614c9d8d84613ef9565b615e7e565b505b87614cb757614cb7898660000151616e2b565b6000868152602b60205260408120818155600181018290556002810182905560038101829055600481018290556005810182905560060155600954614d03908b90612962908290613ef9565b614d198a614d138c600954613ef9565b896164c5565b5050601680547fffffffffffffffffffffffffffffffffffffffffffffffffffffffffffffff00166001179055505050505b50506001600055505050565b600e5481565b60048054601654604080517f2fc3a70a00000000000000000000000000000000000000000000000000000000815273ffffffffffffffffffffffffffffffffffffffff868116958201959095526001602482015260ff80841615156044830152610100909304909216151560648301525160009390921691632fc3a70a91608480820192602092909190829003018186803b15801561392157600080fd5b601b8181548110614e0857fe5b60009182526020909120015473ffffffffffffffffffffffffffffffffffffffff16905081565b614e376156b4565b73ffffffffffffffffffffffffffffffffffffffff81166000908152601c6020526040902054614e6b9060ff16600d615792565b73ffffffffffffffffffffffffffffffffffffffff8116600090815260226020526040902054601554614e9d91615750565b60155573ffffffffffffffffffffffffffffffffffffffff81166000908152601c6020908152604080832080547fffffffffffffffffffffffffffffffffffffffffffffffffffffffffffffff00908116909155601d835281842084905560228352818420849055601e835281842084905560248352818420849055601f835281842080548216905591805290912080549091169055600754614f41906001615750565b60075550565b614f4f6156b4565b73ffffffffffffffffffffffffffffffffffffffff9091166000908152602f6020526040902055565b60286020526000908152604090205481565b614f926156b4565b601680549115156301000000027fffffffffffffffffffffffffffffffffffffffffffffffffffffffff00ffffff909216919091179055565b600680547fffffffffffffffffffffffff00000000000000000000000000000000000000001633179055600180546150099160ff9091161590615792565b60018054600380547fffffffffffffffffffffffff000000000000000000000000000000000000000090811673ffffffffffffffffffffffffffffffffffffffff9a8b1617909155600580548216988a169890981790975560048054909716959097169490941785556009929092556013556014908155620100006101007fffffffffffffffffffffffffffffffffffffffffffffffffffffffffffffff0095861684177fffffffffffffffffffffffffffffffffffffffffffffffffffffffffffff00ff16177fffffffffffffffffffffffffffffffffffffffffffffffffffffffffff00ffff161782556207a8f06008556032600a908155600b91909155601e600c819055600d55600e92909255600f9190915561708060125560168054909216177fffffffffffffffffffffffffffffffffffffffffffffffffffffffff000000ff169055565b600061515d6156b4565b73ffffffffffffffffffffffffffffffffffffffff83166000908152602c602052604090205480615192576000915050611dd0565b73ffffffffffffffffffffffffffffffffffffffff84166000908152602c60205260408120556124848482856164c5565b601a6020526000908152604090205460ff1681565b60055473ffffffffffffffffffffffffffffffffffffffff1681565b60035473ffffffffffffffffffffffffffffffffffffffff1681565b60008261521f57506000612484565b73ffffffffffffffffffffffffffffffffffffffff84166000908152601d602052604090205461419183611d4f86600a85900a6155ff565b600154604080517ffbfded6d00000000000000000000000000000000000000000000000000000000815273ffffffffffffffffffffffffffffffffffffffff858116600483015284811660248301529151600093630100000090049092169163fbfded6d9160448082019260209290919082900301818787803b1580156152dd57600080fd5b505af11580156152f1573d6000803e3d6000fd5b505050506040513d602081101561530757600080fd5b50519050806153165750614702565b73ffffffffffffffffffffffffffffffffffffffff83166000908152602a602052604090205461537d576012546153519061418b4282615672565b73ffffffffffffffffffffffffffffffffffffffff84166000908152602a602052604090205550614702565b60125473ffffffffffffffffffffffffffffffffffffffff84166000908152602a602052604090205442916153b291906156dc565b11156153be5750614702565b60006153c98461405b565b73ffffffffffffffffffffffffffffffffffffffff85166000908152602960205260409020549091506153fc90826156dc565b73ffffffffffffffffffffffffffffffffffffffff85166000908152602960205260409020556012546154339061418b4282615672565b73ffffffffffffffffffffffffffffffffffffffff85166000818152602a602090815260408083209490945560298152908390205483519283529082015281517fa146fc154e1913322e9817d49f0d5c37466c24326e15de10e739a948be815eab929181900390910190a150505050565b610e1081565b600154604080517ffdaf6ac300000000000000000000000000000000000000000000000000000000815273ffffffffffffffffffffffffffffffffffffffff8881166004830152878116602483015286811660448301528515156064830152608482018590529151600093630100000090049092169163fdaf6ac39160a480820192602092909190829003018186803b1580156144e757600080fd5b60306020908152600091825260409182902080548351601f60027fffffffffffffffffffffffffffffffffffffffffffffffffffffffffffffffff610100600186161502019093169290920491820184900484028101840190945280845290918301828280156155f75780601f106155cc576101008083540402835291602001916155f7565b820191906000526020600020905b8154815290600101906020018083116155da57829003601f168201915b505050505081565b60008261560e57506000611dd0565b8282028284828161561b57fe5b0414612484576040517f08c379a00000000000000000000000000000000000000000000000000000000081526004018080602001828103825260218152602001806175916021913960400191505060405180910390fd5b600061248483836040518060400160405280601a81526020017f536166654d6174683a206469766973696f6e206279207a65726f000000000000815250616eba565b6006546156da9073ffffffffffffffffffffffffffffffffffffffff1633146035615792565b565b60008282018381101561248457604080517f08c379a000000000000000000000000000000000000000000000000000000000815260206004820152601b60248201527f536166654d6174683a206164646974696f6e206f766572666c6f770000000000604482015290519081900360640190fd5b600061248483836040518060400160405280601e81526020017f536166654d6174683a207375627472616374696f6e206f766572666c6f770000815250616f76565b600081815260306020526040902082614546576040517f08c379a0000000000000000000000000000000000000000000000000000000008152602060048201908152825460027fffffffffffffffffffffffffffffffffffffffffffffffffffffffffffffffff61010060018416150201909116046024830181905290918291604490910190849080156158675780601f1061583c57610100808354040283529160200191615867565b820191906000526020600020905b81548152906001019060200180831161584a57829003601f168201915b50509250505060405180910390fd5b601754615882576156da565b6156da6017543a11156037615792565b3373ffffffffffffffffffffffffffffffffffffffff821614156158b557615919565b60035473ffffffffffffffffffffffffffffffffffffffff163314156158da57615919565b73ffffffffffffffffffffffffffffffffffffffff811660009081526018602090815260408083203384529091529020546159199060ff166029615792565b50565b80156159c95761595b8273ffffffffffffffffffffffffffffffffffffffff168473ffffffffffffffffffffffffffffffffffffffff1614602a615792565b73ffffffffffffffffffffffffffffffffffffffff83166000908152601c602052604090205461598f9060ff16602b615792565b73ffffffffffffffffffffffffffffffffffffffff83166000908152601f60205260409020546159c49060ff1615602c615792565b614546565b73ffffffffffffffffffffffffffffffffffffffff83166000908152601c60205260409020546159fd9060ff16602d615792565b73ffffffffffffffffffffffffffffffffffffffff83166000908152601f6020526040902054615a319060ff16602e615792565b73ffffffffffffffffffffffffffffffffffffffff82166000908152601f6020526040902054615a669060ff1615602f615792565b73ffffffffffffffffffffffffffffffffffffffff821660009081526020805260409020546145469060ff166030615792565b600080615aa989898989896154aa565b90506000615abb8a8a8a8a898961471e565b9050615ac782826156dc565b91506000615ad58a84613ef9565b73ffffffffffffffffffffffffffffffffffffffff8b166000908152602c6020526040902054909150615b0890826156dc565b73ffffffffffffffffffffffffffffffffffffffff8b166000818152602c602090815260409182902093909355805191825291810185905280820183905290517f5d0c0019d3d45fadeb74eff9d2c9924d146d000ac6bcf3c28bf0ac3c9baa011a9181900360600190a150909998505050505050505050565b73ffffffffffffffffffffffffffffffffffffffff811660008181526021602090815260408083205481517f70a08231000000000000000000000000000000000000000000000000000000008152306004820152915193949093859391926370a08231926024808301939192829003018186803b158015615c0157600080fd5b505afa158015615c15573d6000803e3d6000fd5b505050506040513d6020811015615c2b57600080fd5b505173ffffffffffffffffffffffffffffffffffffffff85166000908152602160205260409020819055905061218f8183615750565b81615c7757615c7281156027615792565b614702565b614702818310156028615792565b73ffffffffffffffffffffffffffffffffffffffff8216600090815260266020526040902054615cb590826156dc565b73ffffffffffffffffffffffffffffffffffffffff8316600090815260266020818152604080842085905560258252909220549152615cf79111156034615792565b6040805173ffffffffffffffffffffffffffffffffffffffff841681526020810183905281517faa5649d82f5462be9d19b0f2b31a59b2259950a6076550bac9f3a1c07db9f66d929181900390910190a15050565b73ffffffffffffffffffffffffffffffffffffffff8216600090815260286020526040902054615d7c90826156dc565b73ffffffffffffffffffffffffffffffffffffffff831660008181526028602090815260409182902093909355805191825291810183905281517fd9d4761f75e0d0103b5cbeab941eeb443d7a56a35b5baf2a0787c03f03f4e474929181900390910190a15050565b73ffffffffffffffffffffffffffffffffffffffff8216600090815260286020526040902054615e159082615750565b73ffffffffffffffffffffffffffffffffffffffff831660008181526028602090815260409182902093909355805191825291810183905281517f34e07158b9db50df5613e591c44ea2ebc82834eff4a4dc3a46e000e608261d68929181900390910190a15050565b73ffffffffffffffffffffffffffffffffffffffff8216600090815260256020526040902054615eae90826156dc565b73ffffffffffffffffffffffffffffffffffffffff831660008181526025602090815260408083209490945583517f70a08231000000000000000000000000000000000000000000000000000000008152306004820152935191936370a082319260248083019392829003018186803b158015615f2a57600080fd5b505afa158015615f3e573d6000803e3d6000fd5b505050506040513d6020811015615f5457600080fd5b505173ffffffffffffffffffffffffffffffffffffffff8416600090815260256020526040902054909150615f8d908210156031615792565b6040805173ffffffffffffffffffffffffffffffffffffffff851681526020810184905281517f976177fbe09a15e5e43f848844963a42b41ef919ef17ff21a17a5421de8f4737929181900390910190a1505050565b604080518082018252601181527f5661756c743a20706f6f6c416d6f756e7400000000000000000000000000000060208083019190915273ffffffffffffffffffffffffffffffffffffffff851660009081526025909152919091205461604b918390616f76565b73ffffffffffffffffffffffffffffffffffffffff83166000908152602560209081526040808320849055602690915290205461608b9110156032615792565b6040805173ffffffffffffffffffffffffffffffffffffffff841681526020810183905281517f112726233fbeaeed0f5b1dba5cb0b2b81883dee49fb35ff99fd98ed9f6d31eb0929181900390910190a15050565b73ffffffffffffffffffffffffffffffffffffffff82166000908152602d602052604090205461611090826156dc565b73ffffffffffffffffffffffffffffffffffffffff83166000908152602d6020908152604080832093909355602f9052205480156145465773ffffffffffffffffffffffffffffffffffffffff83166000908152602d602052604090205481101561454657604080517f08c379a000000000000000000000000000000000000000000000000000000000815260206004820152601160248201527f5661756c743a206d61782073686f727473000000000000000000000000000000604482015290519081900360640190fd5b60165462010000900460ff16156156da57336000908152601a60205260409020546156da9060ff166036615792565b73ffffffffffffffffffffffffffffffffffffffff82166000908152602360205260409020548181116162a05773ffffffffffffffffffffffffffffffffffffffff83166000818152602360209081526040808320929092558151928352820183905280517fe1e812596aac93a06ecc4ca627014d18e30f5c33b825160cc9d5c0ba61e452279281900390910190a150614702565b6162aa8183615750565b73ffffffffffffffffffffffffffffffffffffffff841660008181526023602090815260409182902093909355805191825291810184905281517fe1e812596aac93a06ecc4ca627014d18e30f5c33b825160cc9d5c0ba61e45227929181900390910190a1505050565b60008173ffffffffffffffffffffffffffffffffffffffff166370a08231306040518263ffffffff1660e01b8152600401808273ffffffffffffffffffffffffffffffffffffffff16815260200191505060206040518083038186803b15801561637d57600080fd5b505afa158015616391573d6000803e3d6000fd5b505050506040513d60208110156163a757600080fd5b505173ffffffffffffffffffffffffffffffffffffffff90921660009081526021602052604090209190915550565b6000806163f3612710611d4f6163ec8287615750565b87906155ff565b905060006164018583615750565b73ffffffffffffffffffffffffffffffffffffffff87166000908152602c602052604090205490915061643490826156dc565b73ffffffffffffffffffffffffffffffffffffffff87166000908152602c60205260409020557f47cd9dda0e50ce30bcaaacd0488452b596221c07ac402a581cfae4d3933cac2b866164868184611d76565b6040805173ffffffffffffffffffffffffffffffffffffffff90931683526020830191909152818101849052519081900360600190a150949350505050565b6164e673ffffffffffffffffffffffffffffffffffffffff84168284616ccd565b604080517f70a08231000000000000000000000000000000000000000000000000000000008152306004820152905173ffffffffffffffffffffffffffffffffffffffff8516916370a08231916024808301926020929190829003018186803b15801561655257600080fd5b505afa158015616566573d6000803e3d6000fd5b505050506040513d602081101561657c57600080fd5b505173ffffffffffffffffffffffffffffffffffffffff9093166000908152602160205260409020929092555050565b73ffffffffffffffffffffffffffffffffffffffff82166000908152602360205260409020546165dc90826156dc565b73ffffffffffffffffffffffffffffffffffffffff831660009081526023602090815260408083209390935560249052205480156166485773ffffffffffffffffffffffffffffffffffffffff8316600090815260236020526040902054616648908210156033615792565b6040805173ffffffffffffffffffffffffffffffffffffffff851681526020810184905281517f64243679a443432e2293343b77d411ff6144370404618f00ca0d2025d9ca9882929181900390910190a1505050565b600154604080517f81d11a2300000000000000000000000000000000000000000000000000000000815273ffffffffffffffffffffffffffffffffffffffff8a8116600483015289811660248301528881166044830152606482018890526084820187905285151560a483015284811660c4830152915160009363010000009004909216916381d11a239160e4808201928692909190829003018186803b15801561674857600080fd5b505afa15801561675c573d6000803e3d6000fd5b5050505061676a8787615257565b600061677889898987611fe6565b6000818152602b60205260409020805491925090616799901515601f615792565b6167ab86826000015410156020615792565b6167bd87826001015410156021615792565b6001810154815460048301546000916167da91611d4f908b6155ff565b60048401549091506167ec9082615750565b60048401556167fb8b82616d5a565b5060008061680d8d8d8d8d8d8d616fea565b8554919350915089146169be576168258c8c8a6142b0565b60038501558354616836908a615750565b80855560018501546168489190615c61565b6168568d8d8d8b60016145c3565b50508715616883576168798c61293b86600101548661575090919063ffffffff16565b6168838c8a615de5565b600088616898576168938c614d5d565b6168a1565b6168a18c613882565b90507f93d75d64d1f84fc6f430a64fc578bdd4c1e090e90ea2d51773e626d19de56d30868f8f8f8f8f8f886168d68c8c615750565b60408051998a5273ffffffffffffffffffffffffffffffffffffffff98891660208b015296881689880152949096166060880152608087019290925260a0860152151560c085015260e084019290925261010083019190915251908190036101200190a18454600186015460028701546003880154600489015460058a0154604080518d81526020810197909752868101959095526060860193909352608085019190915260a084015260c083015260e08201839052517f20853733b590dce729d9f4628682ebd9a34d2354e72679e66f43a008fc03b773918190036101000190a150616bcc565b87156169d8576169ce8c84615d4c565b6169d88c8a615de5565b6000886169ed576169e88c614d5d565b6169f6565b6169f68c613882565b90507f93d75d64d1f84fc6f430a64fc578bdd4c1e090e90ea2d51773e626d19de56d30868f8f8f8f8f8f88616a2b8c8c615750565b60408051998a5273ffffffffffffffffffffffffffffffffffffffff98891660208b015296881689880152949096166060880152608087019290925260a0860152151560c085015260e084019290925261010083019190915251908190036101200190a18454600186015460028701546003880154600489015460058a0154604080518d81526020810197909752868101959095526060860193909352608085019190915260a084015260c0830152517f73af1d417d82c240fdb6d319b34ad884487c6bf2845d98980cc52ad9171cb4559181900360e00190a1600160039054906101000a900473ffffffffffffffffffffffffffffffffffffffff1673ffffffffffffffffffffffffffffffffffffffff16634c89b68d876040518263ffffffff1660e01b815260040180828152602001915050600060405180830381600087803b158015616b7a57600080fd5b505af1158015616b8e573d6000803e3d6000fd5b5050506000878152602b6020526040812081815560018101829055600281018290556003810182905560048101829055600581018290556006015550505b87616bdb57616bdb8b8a616e2b565b8115616c1b578715616bf557616bf58c6129628e85613ef9565b6000616c018d83613ef9565b9050616c0e8d828a6164c5565b9550612d1c945050505050565b5060009c9b505050505050505050505050565b73ffffffffffffffffffffffffffffffffffffffff8116600090815260276020908152604080832054602590925290912054101561591957604080517f08c379a000000000000000000000000000000000000000000000000000000000815260206004820152600d60248201527f5661756c743a2062756666657200000000000000000000000000000000000000604482015290519081900360640190fd5b6040805173ffffffffffffffffffffffffffffffffffffffff8416602482015260448082018490528251808303909101815260649091019091526020810180517bffffffffffffffffffffffffffffffffffffffffffffffffffffffff167fa9059cbb000000000000000000000000000000000000000000000000000000001790526145469084906171e4565b604080518082018252601b81527f5661756c743a20696e73756666696369656e742072657365727665000000000060208083019190915273ffffffffffffffffffffffffffffffffffffffff8516600090815260269091529190912054616dc2918390616f76565b73ffffffffffffffffffffffffffffffffffffffff831660008181526026602090815260409182902093909355805191825291810183905281517f533cb5ed32be6a90284e96b5747a1bfc2d38fdb5768a6b5f67ff7d62144ed67b929181900390910190a15050565b73ffffffffffffffffffffffffffffffffffffffff82166000908152602d602052604090205480821115616e85575073ffffffffffffffffffffffffffffffffffffffff82166000908152602d6020526040812055614702565b616e8f8183615750565b73ffffffffffffffffffffffffffffffffffffffff84166000908152602d6020526040902055505050565b60008183616f60576040517f08c379a00000000000000000000000000000000000000000000000000000000081526004018080602001828103825283818151815260200191508051906020019080838360005b83811015616f25578181015183820152602001616f0d565b50505050905090810190601f168015616f525780820380516001836020036101000a031916815260200191505b509250505060405180910390fd5b506000838581616f6c57fe5b0495945050505050565b60008184841115616fe2576040517f08c379a0000000000000000000000000000000000000000000000000000000008152602060048201818152835160248401528351909283926044909101919085019080838360008315616f25578181015183820152602001616f0d565b505050900390565b6000806000616ffb89898987611fe6565b6000818152602b60205260408120805460038201549394509092617028918d918d918d918b918d91615a99565b90506000806000806170498d876000015488600201548d8a60060154612d60565b8754919550859350915061706190611d4f8d846155ff565b9250505060008280156170745750600082115b156170a457506005840180548201905580886170a45760006170968e84613ef9565b90506170a28e82615fe3565b505b821580156170b25750600082115b156170f65760018501546170c69083615750565b6001860155886170ea5760006170dc8e84613ef9565b90506170e88e82615e7e565b505b60058501805483900390555b8a1561711e57617106818c6156dc565b6001860154909150617118908c615750565b60018601555b84548a14156171415760018501546171379082906156dc565b6000600187015590505b808481111561715b576171548286615750565b905061718f565b600186015461716a9086615750565b6001870155891561718f5760006171818f87613ef9565b905061718d8f82615fe3565b505b60408051888152851515602082015280820185905290517f3ff41bdde87755b687ae83d0221a232b6be51a803330ed9661c1b5d0105e0d8a9181900360600190a1909e909d509b505050505050505050505050565b6060617246826040518060400160405280602081526020017f5361666545524332303a206c6f772d6c6576656c2063616c6c206661696c65648152508573ffffffffffffffffffffffffffffffffffffffff166172bc9092919063ffffffff16565b8051909150156145465780806020019051602081101561726557600080fd5b5051614546576040517f08c379a000000000000000000000000000000000000000000000000000000000815260040180806020018281038252602a8152602001806175b2602a913960400191505060405180910390fd5b606061218f8484600085856172d08561741c565b61733b57604080517f08c379a000000000000000000000000000000000000000000000000000000000815260206004820152601d60248201527f416464726573733a2063616c6c20746f206e6f6e2d636f6e7472616374000000604482015290519081900360640190fd5b600060608673ffffffffffffffffffffffffffffffffffffffff1685876040518082805190602001908083835b602083106173a557805182527fffffffffffffffffffffffffffffffffffffffffffffffffffffffffffffffe09092019160209182019101617368565b6001836020036101000a03801982511681845116808217855250505050505090500191505060006040518083038185875af1925050503d8060008114617407576040519150601f19603f3d011682016040523d82523d6000602084013e61740c565b606091505b5091509150612d1c828286617422565b3b151590565b60608315617431575081612484565b8251156174415782518084602001fd5b6040517f08c379a0000000000000000000000000000000000000000000000000000000008152602060048201818152845160248401528451859391928392604401919085019080838360008315616f25578181015183820152602001616f0d565b828054600181600116156101000203166002900490600052602060002090601f016020900481019282601f10617501578280017fffffffffffffffffffffffffffffffffffffffffffffffffffffffffffffff0082351617855561752e565b8280016001018555821561752e579182015b8281111561752e578235825591602001919060010190617513565b5061753a92915061757b565b5090565b6040518060e00160405280600081526020016000815260200160008152602001600081526020016000815260200160008152602001600081525090565b5b8082111561753a576000815560010161757c56fe536166654d6174683a206d756c7469706c69636174696f6e206f766572666c6f775361666545524332303a204552433230206f7065726174696f6e20646964206e6f742073756363656564a26469706673582212203ee8bd44612a5ad7c0be9323af7e2b935ddc285f6ba7418c39323d0cfbe0079564736f6c634300060c003360806040523480156200001157600080fd5b50604051620030d1380380620030d1833981810160405260208110156200003757600080fd5b5051604080518082018252600a8152691554d10811d85b589a5d60b21b6020828101918252835180850190945260048452635553444760e01b9084015281519192916000916200008a918391906200033d565b508151620000a09060019060208501906200033d565b50600480546001600160a01b031916339081179091556000818152600960205260409020805460ff19166001179055620000db908262000106565b5050506001600160a01b03166000908152600c60205260409020805460ff19166001179055620003d9565b6001600160a01b0382166200014d5760405162461bcd60e51b8152600401808060200182810382526024815260200180620030ad6024913960400191505060405180910390fd5b62000158826200023c565b6200017481600254620002db60201b62001c5d1790919060201c565b6002556001600160a01b038216600090815260056020908152604090912054620001a991839062001c5d620002db821b17901c565b6001600160a01b03831660009081526005602090815260408083209390935560089052205460ff1615620001f757620001f381600354620002db60201b62001c5d1790919060201c565b6003555b6040805182815290516001600160a01b038416916000917fddf252ad1be2c89b69c2b068fc378daa952ba7f163c4a11628f55a4df523b3ef9181900360200190a35050565b60005b600754811015620002d7576000600782815481106200025a57fe5b600091825260208220015460408051635fd6196560e01b81526001600160a01b03878116600483015291519190921693508392635fd61965926024808201939182900301818387803b158015620002b057600080fd5b505af1158015620002c5573d6000803e3d6000fd5b5050600190930192506200023f915050565b5050565b60008282018381101562000336576040805162461bcd60e51b815260206004820152601b60248201527f536166654d6174683a206164646974696f6e206f766572666c6f770000000000604482015290519081900360640190fd5b9392505050565b828054600181600116156101000203166002900490600052602060002090601f016020900481019282601f106200038057805160ff1916838001178555620003b0565b82800160010185558215620003b0579182015b82811115620003b057825182559160200191906001019062000393565b50620003be929150620003c2565b5090565b5b80821115620003be5760008155600101620003c3565b612cc480620003e96000396000f3fe608060405234801561001057600080fd5b50600436106102775760003560e01c806355b6ed5c116101605780639dc29fac116100d8578063ceb68c231161008c578063d92fc87e11610071578063d92fc87e14610a4e578063dd62ed3e14610a89578063fb30d91614610ac457610277565b8063ceb68c23146109e8578063cfad57a214610a1b57610277565b8063a9059cbb116100bd578063a9059cbb1461087a578063a923fc40146108b3578063c93be636146109e057610277565b80639dc29fac1461080e578063a622ee7c1461084757610277565b806370a082311161012f5780639554381a116101145780639554381a1461079857806395d89b41146107cb578063996f11ee146107d357610277565b806370a082311461075d578063817b1cd21461079057610277565b806355b6ed5c1461068957806360217267146106c457806362289077146106f7578063704802751461072a57610277565b8063276eab4e116101f357806336300051116101c2578063429b62e5116101a7578063429b62e51461061a5780634cb5bbe31461064d57806352cd38d91461066c57610277565b806336300051146105ae57806340c10f19146105e157610277565b8063276eab4e146104b257806327e235e314610555578063293d698714610588578063313ce5671461059057610277565b80631785f53c1161024a5780631e83409a1161022f5780631e83409a1461040957806323b872dd1461043c578063256b5a021461047f57610277565b80631785f53c146103bc57806318160ddd146103ef57610277565b806301e336671461027c57806306fdde03146102c1578063095ea7b31461033e57806312d43a511461038b575b600080fd5b6102bf6004803603606081101561029257600080fd5b5073ffffffffffffffffffffffffffffffffffffffff813581169160208101359091169060400135610af7565b005b6102c9610ba3565b6040805160208082528351818301528351919283929083019185019080838360005b838110156103035781810151838201526020016102eb565b50505050905090810190601f1680156103305780820380516001836020036101000a031916815260200191505b509250505060405180910390f35b6103776004803603604081101561035457600080fd5b5073ffffffffffffffffffffffffffffffffffffffff8135169060200135610c4f565b604080519115158252519081900360200190f35b610393610c65565b6040805173ffffffffffffffffffffffffffffffffffffffff9092168252519081900360200190f35b6102bf600480360360208110156103d257600080fd5b503573ffffffffffffffffffffffffffffffffffffffff16610c81565b6103f7610d53565b60408051918252519081900360200190f35b6102bf6004803603602081101561041f57600080fd5b503573ffffffffffffffffffffffffffffffffffffffff16610d59565b6103776004803603606081101561045257600080fd5b5073ffffffffffffffffffffffffffffffffffffffff813581169160208101359091169060400135610e36565b6102bf6004803603602081101561049557600080fd5b503573ffffffffffffffffffffffffffffffffffffffff16610eb3565b6102bf600480360360208110156104c857600080fd5b8101906020810181356401000000008111156104e357600080fd5b8201836020820111156104f557600080fd5b8035906020019184602083028401116401000000008311171561051757600080fd5b919080806020026020016040519081016040528093929190818152602001838360200280828437600092019190915250929550610f88945050505050565b6103f76004803603602081101561056b57600080fd5b503573ffffffffffffffffffffffffffffffffffffffff16611021565b610377611033565b61059861103c565b6040805160ff9092168252519081900360200190f35b610377600480360360208110156105c457600080fd5b503573ffffffffffffffffffffffffffffffffffffffff16611041565b6102bf600480360360408110156105f757600080fd5b5073ffffffffffffffffffffffffffffffffffffffff8135169060200135611056565b6103776004803603602081101561063057600080fd5b503573ffffffffffffffffffffffffffffffffffffffff166110de565b6102bf6004803603602081101561066357600080fd5b503515156110f3565b6103936004803603602081101561068257600080fd5b50356111aa565b6103f76004803603604081101561069f57600080fd5b5073ffffffffffffffffffffffffffffffffffffffff813581169160200135166111de565b6103f7600480360360208110156106da57600080fd5b503573ffffffffffffffffffffffffffffffffffffffff166111fb565b6102bf6004803603602081101561070d57600080fd5b503573ffffffffffffffffffffffffffffffffffffffff1661125e565b6102bf6004803603602081101561074057600080fd5b503573ffffffffffffffffffffffffffffffffffffffff166113cf565b6103f76004803603602081101561077357600080fd5b503573ffffffffffffffffffffffffffffffffffffffff166114a4565b6103f76114cc565b610377600480360360208110156107ae57600080fd5b503573ffffffffffffffffffffffffffffffffffffffff166114ea565b6102c96114ff565b6102bf600480360360408110156107e957600080fd5b5073ffffffffffffffffffffffffffffffffffffffff81358116916020013516611577565b6102bf6004803603604081101561082457600080fd5b5073ffffffffffffffffffffffffffffffffffffffff81351690602001356116d0565b6103776004803603602081101561085d57600080fd5b503573ffffffffffffffffffffffffffffffffffffffff16611758565b6103776004803603604081101561089057600080fd5b5073ffffffffffffffffffffffffffffffffffffffff813516906020013561176d565b6102bf600480360360408110156108c957600080fd5b8101906020810181356401000000008111156108e457600080fd5b8201836020820111156108f657600080fd5b8035906020019184600183028401116401000000008311171561091857600080fd5b91908080601f016020809104026020016040519081016040528093929190818152602001838380828437600092019190915250929594936020810193503591505064010000000081111561096b57600080fd5b82018360208201111561097d57600080fd5b8035906020019184600183028401116401000000008311171561099f57600080fd5b91908080601f01602080910402602001604051908101604052809392919081815260200183838082843760009201919091525092955061177a945050505050565b6103f7611827565b6102bf600480360360208110156109fe57600080fd5b503573ffffffffffffffffffffffffffffffffffffffff1661182d565b6102bf60048036036020811015610a3157600080fd5b503573ffffffffffffffffffffffffffffffffffffffff166118ff565b6102bf60048036036040811015610a6457600080fd5b5073ffffffffffffffffffffffffffffffffffffffff813516906020013515156119cc565b6103f760048036036040811015610a9f57600080fd5b5073ffffffffffffffffffffffffffffffffffffffff81358116916020013516611aa8565b6102bf60048036036020811015610ada57600080fd5b503573ffffffffffffffffffffffffffffffffffffffff16611ae0565b60045473ffffffffffffffffffffffffffffffffffffffff163314610b7d57604080517f08c379a000000000000000000000000000000000000000000000000000000000815260206004820152601560248201527f5969656c64546f6b656e3a20666f7262696464656e0000000000000000000000604482015290519081900360640190fd5b610b9e73ffffffffffffffffffffffffffffffffffffffff84168383611cd1565b505050565b6000805460408051602060026001851615610100027fffffffffffffffffffffffffffffffffffffffffffffffffffffffffffffffff0190941693909304601f81018490048402820184019092528181529291830182828015610c475780601f10610c1c57610100808354040283529160200191610c47565b820191906000526020600020905b815481529060010190602001808311610c2a57829003601f168201915b505050505081565b6000610c5c338484611d5e565b50600192915050565b60045473ffffffffffffffffffffffffffffffffffffffff1681565b60045473ffffffffffffffffffffffffffffffffffffffff163314610d0757604080517f08c379a000000000000000000000000000000000000000000000000000000000815260206004820152601560248201527f5969656c64546f6b656e3a20666f7262696464656e0000000000000000000000604482015290519081900360640190fd5b73ffffffffffffffffffffffffffffffffffffffff16600090815260096020526040902080547fffffffffffffffffffffffffffffffffffffffffffffffffffffffffffffff00169055565b60025481565b60005b600754811015610e3257600060078281548110610d7557fe5b6000918252602080832090910154604080517f21c0b34200000000000000000000000000000000000000000000000000000000815233600482015273ffffffffffffffffffffffffffffffffffffffff8881166024830152915191909216945084936321c0b34293604480850194919392918390030190829087803b158015610dfd57600080fd5b505af1158015610e11573d6000803e3d6000fd5b505050506040513d6020811015610e2757600080fd5b505050600101610d5c565b5050565b600080610e8e836040518060600160405280602d8152602001612c11602d913973ffffffffffffffffffffffffffffffffffffffff881660009081526006602090815260408083203384529091529020549190611ea5565b9050610e9b853383611d5e565b610ea6858585611f56565b60019150505b9392505050565b60045473ffffffffffffffffffffffffffffffffffffffff163314610f3957604080517f08c379a000000000000000000000000000000000000000000000000000000000815260206004820152601560248201527f5969656c64546f6b656e3a20666f7262696464656e0000000000000000000000604482015290519081900360640190fd5b73ffffffffffffffffffffffffffffffffffffffff166000908152600c6020526040902080547fffffffffffffffffffffffffffffffffffffffffffffffffffffffffffffff00166001179055565b60045473ffffffffffffffffffffffffffffffffffffffff16331461100e57604080517f08c379a000000000000000000000000000000000000000000000000000000000815260206004820152601560248201527f5969656c64546f6b656e3a20666f7262696464656e0000000000000000000000604482015290519081900360640190fd5b8051610e3290600790602084019061293a565b60056020526000908152604090205481565b600a5460ff1681565b601281565b600b6020526000908152604090205460ff1681565b336000908152600c602052604090205460ff166110d457604080517f08c379a000000000000000000000000000000000000000000000000000000000815260206004820152600f60248201527f555344473a20666f7262696464656e0000000000000000000000000000000000604482015290519081900360640190fd5b610e328282612234565b60096020526000908152604090205460ff1681565b60045473ffffffffffffffffffffffffffffffffffffffff16331461117957604080517f08c379a000000000000000000000000000000000000000000000000000000000815260206004820152601560248201527f5969656c64546f6b656e3a20666f7262696464656e0000000000000000000000604482015290519081900360640190fd5b600a80547fffffffffffffffffffffffffffffffffffffffffffffffffffffffffffffff0016911515919091179055565b600781815481106111b757fe5b60009182526020909120015473ffffffffffffffffffffffffffffffffffffffff16905081565b600660209081526000928352604080842090915290825290205481565b73ffffffffffffffffffffffffffffffffffffffff811660009081526008602052604081205460ff161561123157506000611259565b5073ffffffffffffffffffffffffffffffffffffffff81166000908152600560205260409020545b919050565b3360009081526009602052604090205460ff166112dc57604080517f08c379a000000000000000000000000000000000000000000000000000000000815260206004820152601560248201527f5969656c64546f6b656e3a20666f7262696464656e0000000000000000000000604482015290519081900360640190fd5b73ffffffffffffffffffffffffffffffffffffffff811660009081526008602052604090205460ff161561135b576040517f08c379a0000000000000000000000000000000000000000000000000000000008152600401808060200182810382526023815260200180612a8b6023913960400191505060405180910390fd5b61136481612386565b73ffffffffffffffffffffffffffffffffffffffff8116600090815260086020908152604080832080547fffffffffffffffffffffffffffffffffffffffffffffffffffffffffffffff0016600117905560059091529020546003546113c991611c5d565b60035550565b60045473ffffffffffffffffffffffffffffffffffffffff16331461145557604080517f08c379a000000000000000000000000000000000000000000000000000000000815260206004820152601560248201527f5969656c64546f6b656e3a20666f7262696464656e0000000000000000000000604482015290519081900360640190fd5b73ffffffffffffffffffffffffffffffffffffffff16600090815260096020526040902080547fffffffffffffffffffffffffffffffffffffffffffffffffffffffffffffff00166001179055565b73ffffffffffffffffffffffffffffffffffffffff1660009081526005602052604090205490565b60006114e560035460025461244290919063ffffffff16565b905090565b60086020526000908152604090205460ff1681565b60018054604080516020600284861615610100027fffffffffffffffffffffffffffffffffffffffffffffffffffffffffffffffff0190941693909304601f81018490048402820184019092528181529291830182828015610c475780601f10610c1c57610100808354040283529160200191610c47565b3360009081526009602052604090205460ff166115f557604080517f08c379a000000000000000000000000000000000000000000000000000000000815260206004820152601560248201527f5969656c64546f6b656e3a20666f7262696464656e0000000000000000000000604482015290519081900360640190fd5b60005b600754811015610b9e5760006007828154811061161157fe5b6000918252602080832090910154604080517f21c0b34200000000000000000000000000000000000000000000000000000000815273ffffffffffffffffffffffffffffffffffffffff89811660048301528881166024830152915191909216945084936321c0b34293604480850194919392918390030190829087803b15801561169b57600080fd5b505af11580156116af573d6000803e3d6000fd5b505050506040513d60208110156116c557600080fd5b5050506001016115f8565b336000908152600c602052604090205460ff1661174e57604080517f08c379a000000000000000000000000000000000000000000000000000000000815260206004820152600f60248201527f555344473a20666f7262696464656e0000000000000000000000000000000000604482015290519081900360640190fd5b610e328282612484565b600c6020526000908152604090205460ff1681565b6000610c5c338484611f56565b60045473ffffffffffffffffffffffffffffffffffffffff16331461180057604080517f08c379a000000000000000000000000000000000000000000000000000000000815260206004820152601560248201527f5969656c64546f6b656e3a20666f7262696464656e0000000000000000000000604482015290519081900360640190fd5b81516118139060009060208501906129c4565b508051610b9e9060019060208401906129c4565b60035481565b60045473ffffffffffffffffffffffffffffffffffffffff1633146118b357604080517f08c379a000000000000000000000000000000000000000000000000000000000815260206004820152601560248201527f5969656c64546f6b656e3a20666f7262696464656e0000000000000000000000604482015290519081900360640190fd5b73ffffffffffffffffffffffffffffffffffffffff166000908152600c6020526040902080547fffffffffffffffffffffffffffffffffffffffffffffffffffffffffffffff00169055565b60045473ffffffffffffffffffffffffffffffffffffffff16331461198557604080517f08c379a000000000000000000000000000000000000000000000000000000000815260206004820152601560248201527f5969656c64546f6b656e3a20666f7262696464656e0000000000000000000000604482015290519081900360640190fd5b600480547fffffffffffffffffffffffff00000000000000000000000000000000000000001673ffffffffffffffffffffffffffffffffffffffff92909216919091179055565b60045473ffffffffffffffffffffffffffffffffffffffff163314611a5257604080517f08c379a000000000000000000000000000000000000000000000000000000000815260206004820152601560248201527f5969656c64546f6b656e3a20666f7262696464656e0000000000000000000000604482015290519081900360640190fd5b73ffffffffffffffffffffffffffffffffffffffff919091166000908152600b6020526040902080547fffffffffffffffffffffffffffffffffffffffffffffffffffffffffffffff0016911515919091179055565b73ffffffffffffffffffffffffffffffffffffffff918216600090815260066020908152604080832093909416825291909152205490565b3360009081526009602052604090205460ff16611b5e57604080517f08c379a000000000000000000000000000000000000000000000000000000000815260206004820152601560248201527f5969656c64546f6b656e3a20666f7262696464656e0000000000000000000000604482015290519081900360640190fd5b73ffffffffffffffffffffffffffffffffffffffff811660009081526008602052604090205460ff16611bf257604080517f08c379a000000000000000000000000000000000000000000000000000000000815260206004820152601f60248201527f5969656c64546f6b656e3a205f6163636f756e74206e6f74206d61726b656400604482015290519081900360640190fd5b611bfb81612386565b73ffffffffffffffffffffffffffffffffffffffff8116600090815260086020908152604080832080547fffffffffffffffffffffffffffffffffffffffffffffffffffffffffffffff0016905560059091529020546003546113c991612442565b600082820183811015610eac57604080517f08c379a000000000000000000000000000000000000000000000000000000000815260206004820152601b60248201527f536166654d6174683a206164646974696f6e206f766572666c6f770000000000604482015290519081900360640190fd5b6040805173ffffffffffffffffffffffffffffffffffffffff8416602482015260448082018490528251808303909101815260649091019091526020810180517bffffffffffffffffffffffffffffffffffffffffffffffffffffffff167fa9059cbb00000000000000000000000000000000000000000000000000000000179052610b9e90849061260a565b73ffffffffffffffffffffffffffffffffffffffff8316611dca576040517f08c379a0000000000000000000000000000000000000000000000000000000008152600401808060200182810382526029815260200180612be86029913960400191505060405180910390fd5b73ffffffffffffffffffffffffffffffffffffffff8216611e36576040517f08c379a0000000000000000000000000000000000000000000000000000000008152600401808060200182810382526027815260200180612b4c6027913960400191505060405180910390fd5b73ffffffffffffffffffffffffffffffffffffffff808416600081815260066020908152604080832094871680845294825291829020859055815185815291517f8c5be1e5ebec7d5bd14f71427d1e84f3dd0314c0f7b2291e5b200ac8c7c3b9259281900390910190a3505050565b60008184841115611f4e576040517f08c379a00000000000000000000000000000000000000000000000000000000081526004018080602001828103825283818151815260200191508051906020019080838360005b83811015611f13578181015183820152602001611efb565b50505050905090810190601f168015611f405780820380516001836020036101000a031916815260200191505b509250505060405180910390fd5b505050900390565b73ffffffffffffffffffffffffffffffffffffffff8316611fc2576040517f08c379a000000000000000000000000000000000000000000000000000000000815260040180806020018281038252602a815260200180612ad6602a913960400191505060405180910390fd5b73ffffffffffffffffffffffffffffffffffffffff821661202e576040517f08c379a0000000000000000000000000000000000000000000000000000000008152600401808060200182810382526028815260200180612aae6028913960400191505060405180910390fd5b600a5460ff16156120a157336000908152600b602052604090205460ff166120a1576040517f08c379a0000000000000000000000000000000000000000000000000000000008152600401808060200182810382526026815260200180612c3e6026913960400191505060405180910390fd5b6120aa83612386565b6120b382612386565b6120fd816040518060600160405280602b8152602001612c64602b913973ffffffffffffffffffffffffffffffffffffffff86166000908152600560205260409020549190611ea5565b73ffffffffffffffffffffffffffffffffffffffff80851660009081526005602052604080822093909355908416815220546121399082611c5d565b73ffffffffffffffffffffffffffffffffffffffff80841660009081526005602090815260408083209490945591861681526008909152205460ff161561218b576003546121879082612442565b6003555b73ffffffffffffffffffffffffffffffffffffffff821660009081526008602052604090205460ff16156121ca576003546121c69082611c5d565b6003555b8173ffffffffffffffffffffffffffffffffffffffff168373ffffffffffffffffffffffffffffffffffffffff167fddf252ad1be2c89b69c2b068fc378daa952ba7f163c4a11628f55a4df523b3ef836040518082815260200191505060405180910390a3505050565b73ffffffffffffffffffffffffffffffffffffffff82166122a0576040517f08c379a0000000000000000000000000000000000000000000000000000000008152600401808060200182810382526024815260200180612b9a6024913960400191505060405180910390fd5b6122a982612386565b6002546122b69082611c5d565b60025573ffffffffffffffffffffffffffffffffffffffff82166000908152600560205260409020546122e99082611c5d565b73ffffffffffffffffffffffffffffffffffffffff831660009081526005602090815260408083209390935560089052205460ff1615612334576003546123309082611c5d565b6003555b60408051828152905173ffffffffffffffffffffffffffffffffffffffff8416916000917fddf252ad1be2c89b69c2b068fc378daa952ba7f163c4a11628f55a4df523b3ef9181900360200190a35050565b60005b600754811015610e32576000600782815481106123a257fe5b6000918252602082200154604080517f5fd6196500000000000000000000000000000000000000000000000000000000815273ffffffffffffffffffffffffffffffffffffffff878116600483015291519190921693508392635fd61965926024808201939182900301818387803b15801561241d57600080fd5b505af1158015612431573d6000803e3d6000fd5b505060019093019250612389915050565b6000610eac83836040518060400160405280601e81526020017f536166654d6174683a207375627472616374696f6e206f766572666c6f770000815250611ea5565b73ffffffffffffffffffffffffffffffffffffffff82166124f0576040517f08c379a0000000000000000000000000000000000000000000000000000000008152600401808060200182810382526026815260200180612b006026913960400191505060405180910390fd5b6124f982612386565b61254381604051806060016040528060278152602001612b736027913973ffffffffffffffffffffffffffffffffffffffff85166000908152600560205260409020549190611ea5565b73ffffffffffffffffffffffffffffffffffffffff83166000908152600560205260409020556002546125769082612442565b60025573ffffffffffffffffffffffffffffffffffffffff821660009081526008602052604090205460ff16156125b8576003546125b49082612442565b6003555b60408051828152905160009173ffffffffffffffffffffffffffffffffffffffff8516917fddf252ad1be2c89b69c2b068fc378daa952ba7f163c4a11628f55a4df523b3ef9181900360200190a35050565b606061266c826040518060400160405280602081526020017f5361666545524332303a206c6f772d6c6576656c2063616c6c206661696c65648152508573ffffffffffffffffffffffffffffffffffffffff166126e29092919063ffffffff16565b805190915015610b9e5780806020019051602081101561268b57600080fd5b5051610b9e576040517f08c379a000000000000000000000000000000000000000000000000000000000815260040180806020018281038252602a815260200180612bbe602a913960400191505060405180910390fd5b60606126f184846000856126f9565b949350505050565b606082471015612754576040517f08c379a0000000000000000000000000000000000000000000000000000000008152600401808060200182810382526026815260200180612b266026913960400191505060405180910390fd5b61275d856128b4565b6127c857604080517f08c379a000000000000000000000000000000000000000000000000000000000815260206004820152601d60248201527f416464726573733a2063616c6c20746f206e6f6e2d636f6e7472616374000000604482015290519081900360640190fd5b600060608673ffffffffffffffffffffffffffffffffffffffff1685876040518082805190602001908083835b6020831061283257805182527fffffffffffffffffffffffffffffffffffffffffffffffffffffffffffffffe090920191602091820191016127f5565b6001836020036101000a03801982511681845116808217855250505050505090500191505060006040518083038185875af1925050503d8060008114612894576040519150601f19603f3d011682016040523d82523d6000602084013e612899565b606091505b50915091506128a98282866128ba565b979650505050505050565b3b151590565b606083156128c9575081610eac565b8251156128d95782518084602001fd5b6040517f08c379a0000000000000000000000000000000000000000000000000000000008152602060048201818152845160248401528451859391928392604401919085019080838360008315611f13578181015183820152602001611efb565b8280548282559060005260206000209081019282156129b4579160200282015b828111156129b457825182547fffffffffffffffffffffffff00000000000000000000000000000000000000001673ffffffffffffffffffffffffffffffffffffffff90911617825560209092019160019091019061295a565b506129c0929150612a3e565b5090565b828054600181600116156101000203166002900490600052602060002090601f016020900481019282601f10612a0557805160ff1916838001178555612a32565b82800160010185558215612a32579182015b82811115612a32578251825591602001919060010190612a17565b506129c0929150612a75565b5b808211156129c05780547fffffffffffffffffffffffff0000000000000000000000000000000000000000168155600101612a3f565b5b808211156129c05760008155600101612a7656fe5969656c64546f6b656e3a205f6163636f756e7420616c7265616479206d61726b65645969656c64546f6b656e3a207472616e7366657220746f20746865207a65726f20616464726573735969656c64546f6b656e3a207472616e736665722066726f6d20746865207a65726f20616464726573735969656c64546f6b656e3a206275726e2066726f6d20746865207a65726f2061646472657373416464726573733a20696e73756666696369656e742062616c616e636520666f722063616c6c5969656c64546f6b656e3a20617070726f766520746f20746865207a65726f20616464726573735969656c64546f6b656e3a206275726e20616d6f756e7420657863656564732062616c616e63655969656c64546f6b656e3a206d696e7420746f20746865207a65726f20616464726573735361666545524332303a204552433230206f7065726174696f6e20646964206e6f7420737563636565645969656c64546f6b656e3a20617070726f76652066726f6d20746865207a65726f20616464726573735969656c64546f6b656e3a207472616e7366657220616d6f756e74206578636565647320616c6c6f77616e63655969656c64546f6b656e3a206d73672e73656e646572206e6f742077686974656c69737465645969656c64546f6b656e3a207472616e7366657220616d6f756e7420657863656564732062616c616e6365a2646970667358221220ad98c369d6722d94497f1b93a1239a108da7dacdc02822175fee57d2c9d9594064736f6c634300060c00335969656c64546f6b656e3a206d696e7420746f20746865207a65726f206164647265737360806040526001805461ffff60b01b1960ff60a81b1960ff60a01b19909216600160a01b1791909116600160a81b171690556003600281905560009055601e60055534801561004d57600080fd5b50600080546001600160a01b031916331790556129788061006f6000396000f3fe608060405234801561001057600080fd5b50600436106103575760003560e01c8063732391b4116101c8578063a27ea38611610104578063c2138d8c116100a2578063d694376c1161007c578063d694376c14610a1d578063e4440e0214610a5e578063eb1c92a914610a66578063fd34ec4014610a8557610357565b8063c2138d8c14610984578063cefe0f21146109b7578063cfad57a2146109ea57610357565b8063a39c73a3116100de578063a39c73a3146108eb578063b02a2de4146108f3578063b731dd8714610934578063b8f611051461095157610357565b8063a27ea38614610875578063a28d57d8146108a8578063a2ad7b93146108b057610357565b8063971bd396116101715780639a0a66351161014b5780639a0a6635146107ce5780639b18dc47146108015780639b889380146108095780639dcb511a1461084257610357565b8063971bd3961461079f57806397dfade7146107a75780639917dc74146107af57610357565b80638c7c9e0c116101a25780638c7c9e0c1461075257806393f690741461075a57806395082d251461065e57610357565b8063732391b4146106d4578063826e055f146107175780638b86616c1461074a57610357565b8063443be2091161029757806356c8c2c11161024057806367781c0e1161021a57806367781c0e1461065e5780636ce8a44b146106665780636fc8070814610699578063717cfe7a146106a157610357565b806356c8c2c1146105fc578063593d9e8014610637578063604f37e91461063f57610357565b80634a4b1f4f116102715780634a4b1f4f146105765780634b9ade471461057e57806356bf9de4146105c957610357565b8063443be209146104f657806348cac2771461053b57806349a876e41461056e57610357565b80632fc3a70a116103045780633d949c5f116102de5780633d949c5f146104625780633eba8d36146104a55780633ebbc601146104e65780633f0c3bb7146104ee57610357565b80632fc3a70a146103f357806330536ee51461043e578063378e7bf71461045a57610357565b806312d43a511161033557806312d43a51146103af5780632fa03b8f146103b75780632fbfe3d3146103d657610357565b80630957aed91461035c5780631193c80914610376578063126082cf146103a7575b600080fd5b610364610aa4565b60408051918252519081900360200190f35b61037e610aa9565b6040805173ffffffffffffffffffffffffffffffffffffffff9092168252519081900360200190f35b610364610ac5565b61037e610acb565b6103d4600480360360208110156103cd57600080fd5b5035610ae7565b005b6103d4600480360360208110156103ec57600080fd5b5035610bcb565b6103646004803603608081101561040957600080fd5b5073ffffffffffffffffffffffffffffffffffffffff8135169060208101351515906040810135151590606001351515610c56565b610446610d41565b604080519115158252519081900360200190f35b610364610d64565b6103646004803603606081101561047857600080fd5b5073ffffffffffffffffffffffffffffffffffffffff813516906020810135151590604001351515610d6a565b610364600480360360608110156104bb57600080fd5b5073ffffffffffffffffffffffffffffffffffffffff81351690602081013590604001351515610f87565b610446611068565b61044661108a565b6103d46004803603606081101561050c57600080fd5b5073ffffffffffffffffffffffffffffffffffffffff81358116916020810135821691604090910135166110ab565b6103646004803603602081101561055157600080fd5b503573ffffffffffffffffffffffffffffffffffffffff16611195565b61037e6111a7565b6103646111c3565b6103d46004803603608081101561059457600080fd5b5073ffffffffffffffffffffffffffffffffffffffff81358116916020810135909116906040810135906060013515156111c8565b610364600480360360208110156105df57600080fd5b503573ffffffffffffffffffffffffffffffffffffffff166112e6565b6103646004803603604081101561061257600080fd5b5073ffffffffffffffffffffffffffffffffffffffff813516906020013515156112fd565b610446611640565b6103d46004803603602081101561065557600080fd5b50351515611664565b610364611737565b6104466004803603602081101561067c57600080fd5b503573ffffffffffffffffffffffffffffffffffffffff16611748565b61036461175d565b610364600480360360208110156106b757600080fd5b503573ffffffffffffffffffffffffffffffffffffffff16611763565b610364600480360360608110156106ea57600080fd5b5073ffffffffffffffffffffffffffffffffffffffff813516906020810135151590604001351515611775565b6103d46004803603602081101561072d57600080fd5b503573ffffffffffffffffffffffffffffffffffffffff1661183f565b61037e61190c565b61037e611928565b6103d46004803603606081101561077057600080fd5b5073ffffffffffffffffffffffffffffffffffffffff8135811691602081013582169160409091013516611944565b61037e611a2e565b61037e611a4a565b6103d4600480360360208110156107c557600080fd5b50351515611a66565b6103d4600480360360208110156107e457600080fd5b503573ffffffffffffffffffffffffffffffffffffffff16611b36565b610364611c03565b6103d46004803603604081101561081f57600080fd5b5073ffffffffffffffffffffffffffffffffffffffff8135169060200135611c09565b61037e6004803603602081101561085857600080fd5b503573ffffffffffffffffffffffffffffffffffffffff16611d12565b6103646004803603602081101561088b57600080fd5b503573ffffffffffffffffffffffffffffffffffffffff16611d3a565b61037e611d4c565b610364600480360360408110156108c657600080fd5b5073ffffffffffffffffffffffffffffffffffffffff81351690602001351515611d68565b610364611e6b565b6103646004803603606081101561090957600080fd5b5073ffffffffffffffffffffffffffffffffffffffff81351690602081013515159060400135611e71565b6103d46004803603602081101561094a57600080fd5b5035611f4d565b6104466004803603602081101561096757600080fd5b503573ffffffffffffffffffffffffffffffffffffffff16611fd8565b6103646004803603602081101561099a57600080fd5b503573ffffffffffffffffffffffffffffffffffffffff16611fed565b610364600480360360208110156109cd57600080fd5b503573ffffffffffffffffffffffffffffffffffffffff16612154565b6103d460048036036020811015610a0057600080fd5b503573ffffffffffffffffffffffffffffffffffffffff16612166565b6103d460048036036060811015610a3357600080fd5b5073ffffffffffffffffffffffffffffffffffffffff81351690602081013515159060400135612233565b61037e612422565b6103d460048036036020811015610a7c57600080fd5b5035151561243e565b6103d460048036036020811015610a9b57600080fd5b5035151561250f565b603281565b600a5473ffffffffffffffffffffffffffffffffffffffff1681565b61271081565b60005473ffffffffffffffffffffffffffffffffffffffff1681565b60005473ffffffffffffffffffffffffffffffffffffffff163314610b6d57604080517f08c379a000000000000000000000000000000000000000000000000000000000815260206004820152601960248201527f5661756c745072696365466565643a20666f7262696464656e00000000000000604482015290519081900360640190fd5b60008111610bc6576040517f08c379a000000000000000000000000000000000000000000000000000000000815260040180806020018281038252602981526020018061287d6029913960400191505060405180910390fd5b600255565b60005473ffffffffffffffffffffffffffffffffffffffff163314610c5157604080517f08c379a000000000000000000000000000000000000000000000000000000000815260206004820152601960248201527f5661756c745072696365466565643a20666f7262696464656e00000000000000604482015290519081900360640190fd5b600355565b6001546000908190760100000000000000000000000000000000000000000000900460ff16610c8f57610c8a868686610d6a565b610c9a565b610c9a868686611775565b73ffffffffffffffffffffffffffffffffffffffff87166000908152601060205260409020549091508015610d375773ffffffffffffffffffffffffffffffffffffffff871660009081526011602052604090205460ff168015610d1f57610d18612710610d12610d0b82866125e1565b8690612655565b906126c8565b9250610d35565b610d32612710610d12610d0b828661270a565b92505b505b5095945050505050565b600154760100000000000000000000000000000000000000000000900460ff1681565b60035481565b600080828015610d94575060015474010000000000000000000000000000000000000000900460ff165b15610dd9576000610da486611fed565b90508015610dd757848015610db857508181115b15610dc1578091505b84158015610dce57508181105b15610dd7578091505b505b6001547501000000000000000000000000000000000000000000900460ff1615610e0f57610e08858286610f87565b9050610e1c565b610e1985856112fd565b90505b73ffffffffffffffffffffffffffffffffffffffff85166000908152600f602052604090205460ff1615610f195760006c0c9f2c9cd04674edea400000008211610e7c57610e776c0c9f2c9cd04674edea400000008361270a565b610e93565b610e93826c0c9f2c9cd04674edea4000000061270a565b90506003548111610eb5576c0c9f2c9cd04674edea4000000092505050610f80565b848015610ece57506c0c9f2c9cd04674edea4000000082115b15610edb57509050610f80565b84158015610ef557506c0c9f2c9cd04674edea4000000082105b15610f0257509050610f80565b6c0c9f2c9cd04674edea4000000092505050610f80565b73ffffffffffffffffffffffffffffffffffffffff85166000908152600e60205260409020548415610f6857610f5f612710610d12610f5882856125e1565b8590612655565b92505050610f80565b610f7b612710610d12610f58828561270a565b925050505b9392505050565b60045460009073ffffffffffffffffffffffffffffffffffffffff16610fae575081610f80565b60048054604080517f7fece36800000000000000000000000000000000000000000000000000000000815273ffffffffffffffffffffffffffffffffffffffff8881169482019490945260248101879052851515604482015290519290911691637fece36891606480820192602092909190829003018186803b15801561103457600080fd5b505afa158015611048573d6000803e3d6000fd5b505050506040513d602081101561105e57600080fd5b5051949350505050565b6001547501000000000000000000000000000000000000000000900460ff1681565b60015474010000000000000000000000000000000000000000900460ff1681565b60005473ffffffffffffffffffffffffffffffffffffffff16331461113157604080517f08c379a000000000000000000000000000000000000000000000000000000000815260206004820152601960248201527f5661756c745072696365466565643a20666f7262696464656e00000000000000604482015290519081900360640190fd5b6006805473ffffffffffffffffffffffffffffffffffffffff9485167fffffffffffffffffffffffff000000000000000000000000000000000000000091821617909155600780549385169382169390931790925560088054919093169116179055565b60106020526000908152604090205481565b60085473ffffffffffffffffffffffffffffffffffffffff1681565b601481565b60005473ffffffffffffffffffffffffffffffffffffffff16331461124e57604080517f08c379a000000000000000000000000000000000000000000000000000000000815260206004820152601960248201527f5661756c745072696365466565643a20666f7262696464656e00000000000000604482015290519081900360640190fd5b73ffffffffffffffffffffffffffffffffffffffff9384166000908152600c6020908152604080832080547fffffffffffffffffffffffff0000000000000000000000000000000000000000169690971695909517909555600d855283812092909255600f9093522080547fffffffffffffffffffffffffffffffffffffffffffffffffffffffffffffff0016911515919091179055565b60006112f58260006001610f87565b90505b919050565b600061130b83600084610f87565b905061163a565b6002548169ffffffffffffffffffff161015611593578069ffffffffffffffffffff168269ffffffffffffffffffff161161134c57611593565b600069ffffffffffffffffffff821661144b5760008573ffffffffffffffffffffffffffffffffffffffff166350d25bcd6040518163ffffffff1660e01b815260040160206040518083038186803b1580156113a757600080fd5b505afa1580156113bb573d6000803e3d6000fd5b505050506040513d60208110156113d157600080fd5b505190506000811361144457604080517f08c379a000000000000000000000000000000000000000000000000000000000815260206004820152601d60248201527f5661756c745072696365466565643a20696e76616c6964207072696365000000604482015290519081900360640190fd5b905061154f565b60008573ffffffffffffffffffffffffffffffffffffffff16639a6fc8f58486036040518263ffffffff1660e01b8152600401808269ffffffffffffffffffff16815260200191505060a06040518083038186803b1580156114ac57600080fd5b505afa1580156114c0573d6000803e3d6000fd5b505050506040513d60a08110156114d657600080fd5b506020015190506000811361154c57604080517f08c379a000000000000000000000000000000000000000000000000000000000815260206004820152601d60248201527f5661756c745072696365466565643a20696e76616c6964207072696365000000604482015290519081900360640190fd5b90505b8361155b57925061158b565b87801561156757508381115b1561157357925061158b565b8715801561158057508381105b15611589578093505b505b600101611312565b50600082116115ed576040517f08c379a00000000000000000000000000000000000000000000000000000000081526004018080602001828103825260258152602001806128a66025913960400191505060405180910390fd5b73ffffffffffffffffffffffffffffffffffffffff87166000908152600d6020526040902054611632600a82900a610d12856c0c9f2c9cd04674edea40000000612655565b955050505050505b92915050565b60015477010000000000000000000000000000000000000000000000900460ff1681565b60005473ffffffffffffffffffffffffffffffffffffffff1633146116ea57604080517f08c379a000000000000000000000000000000000000000000000000000000000815260206004820152601960248201527f5661756c745072696365466565643a20666f7262696464656e00000000000000604482015290519081900360640190fd5b6001805491151577010000000000000000000000000000000000000000000000027fffffffffffffffff00ffffffffffffffffffffffffffffffffffffffffffffff909216919091179055565b6c0c9f2c9cd04674edea4000000081565b60116020526000908152604090205460ff1681565b60025481565b60126020526000908152604090205481565b73ffffffffffffffffffffffffffffffffffffffff83166000908152600f6020526040812054819060ff16156117bb576c0c9f2c9cd04674edea40000000915050610f80565b8280156117e2575060015474010000000000000000000000000000000000000000900460ff165b156117f5576117f2858583611e71565b90505b6001547501000000000000000000000000000000000000000000900460ff161561182b57611824858286610f87565b9050611838565b61183585856112fd565b90505b9050610f80565b60005473ffffffffffffffffffffffffffffffffffffffff1633146118c557604080517f08c379a000000000000000000000000000000000000000000000000000000000815260206004820152601960248201527f5661756c745072696365466565643a20666f7262696464656e00000000000000604482015290519081900360640190fd5b600180547fffffffffffffffffffffffff00000000000000000000000000000000000000001673ffffffffffffffffffffffffffffffffffffffff92909216919091179055565b60045473ffffffffffffffffffffffffffffffffffffffff1681565b60075473ffffffffffffffffffffffffffffffffffffffff1681565b60005473ffffffffffffffffffffffffffffffffffffffff1633146119ca57604080517f08c379a000000000000000000000000000000000000000000000000000000000815260206004820152601960248201527f5661756c745072696365466565643a20666f7262696464656e00000000000000604482015290519081900360640190fd5b6009805473ffffffffffffffffffffffffffffffffffffffff9485167fffffffffffffffffffffffff000000000000000000000000000000000000000091821617909155600a805493851693821693909317909255600b8054919093169116179055565b600b5473ffffffffffffffffffffffffffffffffffffffff1681565b60095473ffffffffffffffffffffffffffffffffffffffff1681565b60005473ffffffffffffffffffffffffffffffffffffffff163314611aec57604080517f08c379a000000000000000000000000000000000000000000000000000000000815260206004820152601960248201527f5661756c745072696365466565643a20666f7262696464656e00000000000000604482015290519081900360640190fd5b6001805491151574010000000000000000000000000000000000000000027fffffffffffffffffffffff00ffffffffffffffffffffffffffffffffffffffff909216919091179055565b60005473ffffffffffffffffffffffffffffffffffffffff163314611bbc57604080517f08c379a000000000000000000000000000000000000000000000000000000000815260206004820152601960248201527f5661756c745072696365466565643a20666f7262696464656e00000000000000604482015290519081900360640190fd5b600480547fffffffffffffffffffffffff00000000000000000000000000000000000000001673ffffffffffffffffffffffffffffffffffffffff92909216919091179055565b611c2081565b60005473ffffffffffffffffffffffffffffffffffffffff163314611c8f57604080517f08c379a000000000000000000000000000000000000000000000000000000000815260206004820152601960248201527f5661756c745072696365466565643a20666f7262696464656e00000000000000604482015290519081900360640190fd5b6032811115611ce9576040517f08c379a000000000000000000000000000000000000000000000000000000000815260040180806020018281038252602a815260200180612919602a913960400191505060405180910390fd5b73ffffffffffffffffffffffffffffffffffffffff9091166000908152600e6020526040902055565b600c6020526000908152604090205473ffffffffffffffffffffffffffffffffffffffff1681565b600e6020526000908152604090205481565b60065473ffffffffffffffffffffffffffffffffffffffff1681565b60008060008473ffffffffffffffffffffffffffffffffffffffff16630902f1ac6040518163ffffffff1660e01b815260040160606040518083038186803b158015611db357600080fd5b505afa158015611dc7573d6000803e3d6000fd5b505050506040513d6060811015611ddd57600080fd5b5080516020909101516dffffffffffffffffffffffffffff91821693501690508315611e375781611e135760009250505061163a565b611e2e82610d12836c0c9f2c9cd04674edea40000000612655565b9250505061163a565b80611e475760009250505061163a565b611e6281610d12846c0c9f2c9cd04674edea40000000612655565b95945050505050565b60055481565b600080611e7d85611fed565b905080611e8d5782915050610f80565b6000838211611ea557611ea0848361270a565b611eaf565b611eaf828561270a565b9050611ec66005548561265590919063ffffffff16565b611ed282612710612655565b1015611f105760015477010000000000000000000000000000000000000000000000900460ff1615611f08578392505050610f80565b509050610f80565b848015611f1c57508382115b15611f2957509050610f80565b84158015611f3657508382105b15611f4357509050610f80565b5091949350505050565b60005473ffffffffffffffffffffffffffffffffffffffff163314611fd357604080517f08c379a000000000000000000000000000000000000000000000000000000000815260206004820152601960248201527f5661756c745072696365466565643a20666f7262696464656e00000000000000604482015290519081900360640190fd5b600555565b600f6020526000908152604090205460ff1681565b60085460009073ffffffffffffffffffffffffffffffffffffffff8381169116141561203e576009546120379073ffffffffffffffffffffffffffffffffffffffff166001611d68565b90506112f8565b60075473ffffffffffffffffffffffffffffffffffffffff838116911614156120d8576009546000906120889073ffffffffffffffffffffffffffffffffffffffff166001611d68565b600a549091506000906120b29073ffffffffffffffffffffffffffffffffffffffff166001611d68565b90506120cf6c0c9f2c9cd04674edea40000000610d128484612655565b925050506112f8565b60065473ffffffffffffffffffffffffffffffffffffffff8381169116141561214c576009546000906121229073ffffffffffffffffffffffffffffffffffffffff166001611d68565b600b549091506000906120b29073ffffffffffffffffffffffffffffffffffffffff166001611d68565b506000919050565b600d6020526000908152604090205481565b60005473ffffffffffffffffffffffffffffffffffffffff1633146121ec57604080517f08c379a000000000000000000000000000000000000000000000000000000000815260206004820152601960248201527f5661756c745072696365466565643a20666f7262696464656e00000000000000604482015290519081900360640190fd5b600080547fffffffffffffffffffffffff00000000000000000000000000000000000000001673ffffffffffffffffffffffffffffffffffffffff92909216919091179055565b60005473ffffffffffffffffffffffffffffffffffffffff1633146122b957604080517f08c379a000000000000000000000000000000000000000000000000000000000815260206004820152601960248201527f5661756c745072696365466565643a20666f7262696464656e00000000000000604482015290519081900360640190fd5b73ffffffffffffffffffffffffffffffffffffffff831660009081526012602052604090205442906122ed90611c206125e1565b10612343576040517f08c379a000000000000000000000000000000000000000000000000000000000815260040180806020018281038252602d8152602001806128ec602d913960400191505060405180910390fd5b60148111156123b357604080517f08c379a000000000000000000000000000000000000000000000000000000000815260206004820152601660248201527f696e76616c6964205f61646a7573746d656e7442707300000000000000000000604482015290519081900360640190fd5b73ffffffffffffffffffffffffffffffffffffffff92909216600090815260116020908152604080832080547fffffffffffffffffffffffffffffffffffffffffffffffffffffffffffffff001694151594909417909355601081528282209390935560129092529020429055565b60015473ffffffffffffffffffffffffffffffffffffffff1681565b60005473ffffffffffffffffffffffffffffffffffffffff1633146124c457604080517f08c379a000000000000000000000000000000000000000000000000000000000815260206004820152601960248201527f5661756c745072696365466565643a20666f7262696464656e00000000000000604482015290519081900360640190fd5b600180549115157501000000000000000000000000000000000000000000027fffffffffffffffffffff00ffffffffffffffffffffffffffffffffffffffffff909216919091179055565b60005473ffffffffffffffffffffffffffffffffffffffff16331461259557604080517f08c379a000000000000000000000000000000000000000000000000000000000815260206004820152601960248201527f5661756c745072696365466565643a20666f7262696464656e00000000000000604482015290519081900360640190fd5b60018054911515760100000000000000000000000000000000000000000000027fffffffffffffffffff00ffffffffffffffffffffffffffffffffffffffffffff909216919091179055565b600082820183811015610f8057604080517f08c379a000000000000000000000000000000000000000000000000000000000815260206004820152601b60248201527f536166654d6174683a206164646974696f6e206f766572666c6f770000000000604482015290519081900360640190fd5b6000826126645750600061163a565b8282028284828161267157fe5b0414610f80576040517f08c379a00000000000000000000000000000000000000000000000000000000081526004018080602001828103825260218152602001806128cb6021913960400191505060405180910390fd5b6000610f8083836040518060400160405280601a81526020017f536166654d6174683a206469766973696f6e206279207a65726f00000000000081525061274c565b6000610f8083836040518060400160405280601e81526020017f536166654d6174683a207375627472616374696f6e206f766572666c6f770000815250612808565b600081836127f2576040517f08c379a00000000000000000000000000000000000000000000000000000000081526004018080602001828103825283818151815260200191508051906020019080838360005b838110156127b757818101518382015260200161279f565b50505050905090810190601f1680156127e45780820380516001836020036101000a031916815260200191505b509250505060405180910390fd5b5060008385816127fe57fe5b0495945050505050565b60008184841115612874576040517f08c379a00000000000000000000000000000000000000000000000000000000081526020600482018181528351602484015283519092839260449091019190850190808383600083156127b757818101518382015260200161279f565b50505090039056fe5661756c745072696365466565643a20696e76616c6964205f707269636553616d706c6553706163655661756c745072696365466565643a20636f756c64206e6f74206665746368207072696365536166654d6174683a206d756c7469706c69636174696f6e206f766572666c6f775661756c745072696365466565643a2061646a7573746d656e74206672657175656e63792065786365656465645661756c745072696365466565643a20696e76616c6964205f7370726561644261736973506f696e7473a2646970667358221220b28e7903544367fac17405950a75c4722a512ef7467371e3e56ef311ab064a5664736f6c634300060c0033608060405234801561001057600080fd5b506040516123363803806123368339818101604052602081101561003357600080fd5b5051600080546001600160a01b03199081163317909155600180546001600160a01b03909316929091169190911790556122c4806100726000396000f3fe608060405234801561001057600080fd5b50600436106101825760003560e01c80639d5c28fa116100d8578063da1338161161008c578063fbfa77cf11610066578063fbfa77cf1461063b578063fbfded6d14610643578063fdaf6ac31461069257610182565b8063da13381614610568578063da76524c146105ab578063eb0835bf1461060257610182565b8063c7e074c3116100bd578063c7e074c31461047c578063cfad57a2146104c9578063d54d5a9f146104fc57610182565b80639d5c28fa146103e6578063b1cc53ab1461043757610182565b80634adeddc61161013a578063725ede3111610114578063725ede31146102d557806381d11a23146103345780638ce6adac1461039557610182565b80634adeddc6146102755780634c89b68d146102ae5780636be6026b146102cd57610182565b806312d43a511161016b57806312d43a511461021f5780631c35257d1461025057806337fa98361461026d57610182565b8063053dfe2814610187578063126082cf14610205575b600080fd5b6101aa6004803603604081101561019d57600080fd5b50803590602001356106e3565b6040518080602001838152602001828103825284818151815260200191508051906020019060200280838360005b838110156101f05781810151838201526020016101d8565b50505050905001935050505060405180910390f35b61020d610795565b60408051918252519081900360200190f35b61022761079b565b6040805173ffffffffffffffffffffffffffffffffffffffff9092168252519081900360200190f35b61020d6004803603602081101561026657600080fd5b50356107b7565b61020d6107ca565b61020d6004803603604081101561028b57600080fd5b5073ffffffffffffffffffffffffffffffffffffffff81351690602001356107db565b6102cb600480360360208110156102c457600080fd5b503561091b565b005b61020d610a19565b6102f2600480360360208110156102eb57600080fd5b5035610a20565b6040805173ffffffffffffffffffffffffffffffffffffffff958616815293851660208501529190931682820152911515606082015290519081900360800190f35b6102cb600480360360e081101561034a57600080fd5b5073ffffffffffffffffffffffffffffffffffffffff81358116916020810135821691604082013581169160608101359160808201359160a081013515159160c09091013516610a78565b6102cb600480360360a08110156103ab57600080fd5b5080359073ffffffffffffffffffffffffffffffffffffffff6020820135811691604081013582169160608201351690608001351515610a81565b6102cb600480360360a08110156103fc57600080fd5b5073ffffffffffffffffffffffffffffffffffffffff8135811691602081013582169160408201351690606081013590608001351515610bf6565b61020d6004803603606081101561044d57600080fd5b5073ffffffffffffffffffffffffffffffffffffffff8135811691602081013590911690604001351515610bfd565b61020d600480360360a081101561049257600080fd5b5073ffffffffffffffffffffffffffffffffffffffff81351690602081013590604081013590606081013590608001351515610ca8565b6102cb600480360360208110156104df57600080fd5b503573ffffffffffffffffffffffffffffffffffffffff16610fae565b61054f600480360360a081101561051257600080fd5b5073ffffffffffffffffffffffffffffffffffffffff8135811691602081013582169160408201351690606081013515159060800135151561107b565b6040805192835260208301919091528051918290030190f35b61020d6004803603606081101561057e57600080fd5b5073ffffffffffffffffffffffffffffffffffffffff8135811691602081013590911690604001356114ed565b61020d600480360360c08110156105c157600080fd5b5073ffffffffffffffffffffffffffffffffffffffff8135811691602081013582169160408201351690606081013515159060808101359060a001356118e5565b61020d6004803603604081101561061857600080fd5b5073ffffffffffffffffffffffffffffffffffffffff81351690602001356119d1565b610227611b0a565b61067e6004803603604081101561065957600080fd5b5073ffffffffffffffffffffffffffffffffffffffff81358116916020013516611b26565b604080519115158252519081900360200190f35b61020d600480360360a08110156106a857600080fd5b5073ffffffffffffffffffffffffffffffffffffffff8135811691602081013582169160408201351690606081013515159060800135611b2e565b6060600082846106f36002611c06565b0381111561070a57846107066002611c06565b0390505b60608167ffffffffffffffff8111801561072357600080fd5b5060405190808252806020026020018201604052801561074d578160200160208202803683370190505b50905060005b8281101561078a576107686002888301611c11565b60001b82828151811061077757fe5b6020908102919091010152600101610753565b509594019392505050565b61271081565b60005473ffffffffffffffffffffffffffffffffffffffff1681565b60006107c4600283611c11565b92915050565b60006107d66002611c06565b905090565b60006109148383600160009054906101000a900473ffffffffffffffffffffffffffffffffffffffff1673ffffffffffffffffffffffffffffffffffffffff16634d47b3046040518163ffffffff1660e01b815260040160206040518083038186803b15801561084a57600080fd5b505afa15801561085e573d6000803e3d6000fd5b505050506040513d602081101561087457600080fd5b5051600154604080517f7a210a2b000000000000000000000000000000000000000000000000000000008152905173ffffffffffffffffffffffffffffffffffffffff90921691637a210a2b91600480820192602092909190829003018186803b1580156108e157600080fd5b505afa1580156108f5573d6000803e3d6000fd5b505050506040513d602081101561090b57600080fd5b50516001610ca8565b9392505050565b60015473ffffffffffffffffffffffffffffffffffffffff1633146109a157604080517f08c379a000000000000000000000000000000000000000000000000000000000815260206004820152601160248201527f5661756c743a206f6e6c79207661756c74000000000000000000000000000000604482015290519081900360640190fd5b6109ac600282611c1d565b50600090815260046020526040902080547fffffffffffffffffffffffff00000000000000000000000000000000000000009081168255600182018054909116905560020180547fffffffffffffffffffffff000000000000000000000000000000000000000000169055565b620f424081565b60046020526000908152604090208054600182015460029092015473ffffffffffffffffffffffffffffffffffffffff9182169282169181169074010000000000000000000000000000000000000000900460ff1684565b50505050505050565b60015473ffffffffffffffffffffffffffffffffffffffff163314610b0757604080517f08c379a000000000000000000000000000000000000000000000000000000000815260206004820152601160248201527f5661756c743a206f6e6c79207661756c74000000000000000000000000000000604482015290519081900360640190fd5b610b12600286611c29565b506040805160808101825273ffffffffffffffffffffffffffffffffffffffff9586168152938516602080860191825293861685830190815292151560608601908152600097885260049094529520925183549085167fffffffffffffffffffffffff0000000000000000000000000000000000000000918216178455945160018401805491861691871691909117905551600290920180549151151574010000000000000000000000000000000000000000027fffffffffffffffffffffff00ffffffffffffffffffffffffffffffffffffffff93909416919094161716179055565b5050505050565b600154604080517fc65bc7b100000000000000000000000000000000000000000000000000000000815273ffffffffffffffffffffffffffffffffffffffff86811660048301529151600093929092169163c65bc7b191602480820192602092909190829003018186803b158015610c7457600080fd5b505afa158015610c88573d6000803e3d6000fd5b505050506040513d6020811015610c9e57600080fd5b5051949350505050565b600154604080517f9f392eb3000000000000000000000000000000000000000000000000000000008152905160009273ffffffffffffffffffffffffffffffffffffffff1691639f392eb3916004808301926020929190829003018186803b158015610d1357600080fd5b505afa158015610d27573d6000803e3d6000fd5b505050506040513d6020811015610d3d57600080fd5b5051610d4a575082610fa5565b600154604080517f1aa4ace500000000000000000000000000000000000000000000000000000000815273ffffffffffffffffffffffffffffffffffffffff898116600483015291516000939290921691631aa4ace591602480820192602092909190829003018186803b158015610dc157600080fd5b505afa158015610dd5573d6000803e3d6000fd5b505050506040513d6020811015610deb57600080fd5b505190506000610dfb8288611c35565b905083610e1e57818711610e1857610e138288611ca9565b610e1b565b60005b90505b600154604080517f3a05dcc100000000000000000000000000000000000000000000000000000000815273ffffffffffffffffffffffffffffffffffffffff8b8116600483015291516000939290921691633a05dcc191602480820192602092909190829003018186803b158015610e9557600080fd5b505afa158015610ea9573d6000803e3d6000fd5b505050506040513d6020811015610ebf57600080fd5b5051905080610ed357869350505050610fa5565b6000818411610eeb57610ee68285611ca9565b610ef5565b610ef58483611ca9565b90506000828411610f0f57610f0a8385611ca9565b610f19565b610f198484611ca9565b905081811015610f61576000610f3984610f338b86611ceb565b90611d5e565b9050898111610f5157610f4c8a82611ca9565b610f54565b60005b9650505050505050610fa5565b6000610f726002610f338585611c35565b905083811115610f7f5750825b6000610f8f85610f338c85611ceb565b9050610f9b8b82611c35565b9750505050505050505b95945050505050565b60005473ffffffffffffffffffffffffffffffffffffffff16331461103457604080517f08c379a000000000000000000000000000000000000000000000000000000000815260206004820152601560248201527f476f7665726e61626c653a20666f7262696464656e0000000000000000000000604482015290519081900360640190fd5b600080547fffffffffffffffffffffffff00000000000000000000000000000000000000001673ffffffffffffffffffffffffffffffffffffffff92909216919091179055565b6000806110866121e5565b61109288888888611da0565b600154815160408084015160c085015182517f5c07eaab00000000000000000000000000000000000000000000000000000000815273ffffffffffffffffffffffffffffffffffffffff8d81166004830152602482019590955260448101929092528a1515606483015260848201528151949550919092169260009283928592635c07eaab9260a480840193919291829003018186803b15801561113557600080fd5b505afa158015611149573d6000803e3d6000fd5b505050506040513d604081101561115f57600080fd5b5080516020909101518551606087015192945090925060009161118a918e918e918e918e91906118e5565b90506111a76111a08d8d8d8d8a60000151611b2e565b8290611c35565b9050821580156111ba5750818560200151105b1561123c57871561122c57604080517f08c379a000000000000000000000000000000000000000000000000000000000815260206004820152601f60248201527f5661756c743a206c6f737365732065786365656420636f6c6c61746572616c00604482015290519081900360640190fd5b6001965094506114e39350505050565b6020850151836112585760208601516112559084611ca9565b90505b818110156112de5788156112cd57604080517f08c379a000000000000000000000000000000000000000000000000000000000815260206004820152601d60248201527f5661756c743a20666565732065786365656420636f6c6c61746572616c000000604482015290519081900360640190fd5b6001975095506114e3945050505050565b61135a8573ffffffffffffffffffffffffffffffffffffffff1663174d26946040518163ffffffff1660e01b815260040160206040518083038186803b15801561132757600080fd5b505afa15801561133b573d6000803e3d6000fd5b505050506040513d602081101561135157600080fd5b50518390611c35565b8110156113c95788156113b8576040517f08c379a00000000000000000000000000000000000000000000000000000000081526004018080602001828103825260298152602001806122456029913960400191505060405180910390fd5b506001965094506114e39350505050565b85516113d790612710611ceb565b6114538673ffffffffffffffffffffffffffffffffffffffff1663ae3302c26040518163ffffffff1660e01b815260040160206040518083038186803b15801561142057600080fd5b505afa158015611434573d6000803e3d6000fd5b505050506040513d602081101561144a57600080fd5b50518390611ceb565b10156114d75788156114c657604080517f08c379a000000000000000000000000000000000000000000000000000000000815260206004820152601b60248201527f5661756c743a206d61784c657665726167652065786365656465640000000000604482015290519081900360640190fd5b506002965094506114e39350505050565b50600096509450505050505b9550959350505050565b600154604080517f42b60b0300000000000000000000000000000000000000000000000000000000815273ffffffffffffffffffffffffffffffffffffffff86811660048301529151600093849316916342b60b03916024808301926020929190829003018186803b15801561156257600080fd5b505afa158015611576573d6000803e3d6000fd5b505050506040513d602081101561158c57600080fd5b505180156116355750600154604080517f42b60b0300000000000000000000000000000000000000000000000000000000815273ffffffffffffffffffffffffffffffffffffffff8781166004830152915191909216916342b60b03916024808301926020929190829003018186803b15801561160857600080fd5b505afa15801561161c573d6000803e3d6000fd5b505050506040513d602081101561163257600080fd5b50515b90506000816116d757600160009054906101000a900473ffffffffffffffffffffffffffffffffffffffff1673ffffffffffffffffffffffffffffffffffffffff1663a22f23926040518163ffffffff1660e01b815260040160206040518083038186803b1580156116a657600080fd5b505afa1580156116ba573d6000803e3d6000fd5b505050506040513d60208110156116d057600080fd5b505161176c565b600160009054906101000a900473ffffffffffffffffffffffffffffffffffffffff1673ffffffffffffffffffffffffffffffffffffffff1663df73a2676040518163ffffffff1660e01b815260040160206040518083038186803b15801561173f57600080fd5b505afa158015611753573d6000803e3d6000fd5b505050506040513d602081101561176957600080fd5b50515b905060008261180e57600160009054906101000a900473ffffffffffffffffffffffffffffffffffffffff1673ffffffffffffffffffffffffffffffffffffffff16637a210a2b6040518163ffffffff1660e01b815260040160206040518083038186803b1580156117dd57600080fd5b505afa1580156117f1573d6000803e3d6000fd5b505050506040513d602081101561180757600080fd5b50516118a3565b600160009054906101000a900473ffffffffffffffffffffffffffffffffffffffff1673ffffffffffffffffffffffffffffffffffffffff166310eb56c26040518163ffffffff1660e01b815260040160206040518083038186803b15801561187657600080fd5b505afa15801561188a573d6000803e3d6000fd5b505050506040513d60208110156118a057600080fd5b50515b905060006118b5888785856001610ca8565b905060006118c7888886866000610ca8565b90508082116118d657806118d8565b815b9998505050505050505050565b6000826118f4575060006119c7565b600154604080517fc65bc7b100000000000000000000000000000000000000000000000000000000815273ffffffffffffffffffffffffffffffffffffffff898116600483015291516000936119a193879391169163c65bc7b191602480820192602092909190829003018186803b15801561196f57600080fd5b505afa158015611983573d6000803e3d6000fd5b505050506040513d602081101561199957600080fd5b505190611ca9565b9050806119b25760009150506119c7565b6119c3620f4240610f338684611ceb565b9150505b9695505050505050565b60006109148383600160009054906101000a900473ffffffffffffffffffffffffffffffffffffffff1673ffffffffffffffffffffffffffffffffffffffff16634d47b3046040518163ffffffff1660e01b815260040160206040518083038186803b158015611a4057600080fd5b505afa158015611a54573d6000803e3d6000fd5b505050506040513d6020811015611a6a57600080fd5b5051600154604080517f7a210a2b000000000000000000000000000000000000000000000000000000008152905173ffffffffffffffffffffffffffffffffffffffff90921691637a210a2b91600480820192602092909190829003018186803b158015611ad757600080fd5b505afa158015611aeb573d6000803e3d6000fd5b505050506040513d6020811015611b0157600080fd5b50516000610ca8565b60015473ffffffffffffffffffffffffffffffffffffffff1681565b600192915050565b600081611b3d57506000610fa5565b6000611bef612710610f33611be8600160009054906101000a900473ffffffffffffffffffffffffffffffffffffffff1673ffffffffffffffffffffffffffffffffffffffff1663318bc6896040518163ffffffff1660e01b815260040160206040518083038186803b158015611bb357600080fd5b505afa158015611bc7573d6000803e3d6000fd5b505050506040513d6020811015611bdd57600080fd5b505161271090611ca9565b8690611ceb565b9050611bfb8382611ca9565b979650505050505050565b60006107c482611eed565b60006109148383611ef1565b60006109148383611f6f565b60006109148383612053565b60008282018381101561091457604080517f08c379a000000000000000000000000000000000000000000000000000000000815260206004820152601b60248201527f536166654d6174683a206164646974696f6e206f766572666c6f770000000000604482015290519081900360640190fd5b600061091483836040518060400160405280601e81526020017f536166654d6174683a207375627472616374696f6e206f766572666c6f77000081525061209d565b600082611cfa575060006107c4565b82820282848281611d0757fe5b0414610914576040517f08c379a000000000000000000000000000000000000000000000000000000000815260040180806020018281038252602181526020018061226e6021913960400191505060405180910390fd5b600061091483836040518060400160405280601a81526020017f536166654d6174683a206469766973696f6e206279207a65726f00000000000081525061214e565b611da86121e5565b60015473ffffffffffffffffffffffffffffffffffffffff16611dc96121e5565b60008060008060008673ffffffffffffffffffffffffffffffffffffffff16634a3f088d8d8d8d8d6040518563ffffffff1660e01b8152600401808573ffffffffffffffffffffffffffffffffffffffff1681526020018473ffffffffffffffffffffffffffffffffffffffff1681526020018373ffffffffffffffffffffffffffffffffffffffff16815260200182151581526020019450505050506101006040518083038186803b158015611e7f57600080fd5b505afa158015611e93573d6000803e3d6000fd5b505050506040513d610100811015611eaa57600080fd5b50805160208083015160408085015160608087015160e090970151958d52938c01929092528a015288019190915260c087015250939a9950505050505050505050565b5490565b81546000908210611f4d576040517f08c379a00000000000000000000000000000000000000000000000000000000081526004018080602001828103825260228152602001806122236022913960400191505060405180910390fd5b826000018281548110611f5c57fe5b9060005260206000200154905092915050565b600081815260018301602052604081205480156120495783547fffffffffffffffffffffffffffffffffffffffffffffffffffffffffffffffff8083019190810190600090879083908110611fc057fe5b9060005260206000200154905080876000018481548110611fdd57fe5b60009182526020808320909101929092558281526001898101909252604090209084019055865487908061200d57fe5b600190038181906000526020600020016000905590558660010160008781526020019081526020016000206000905560019450505050506107c4565b60009150506107c4565b600061205f83836121cd565b612095575081546001818101845560008481526020808220909301849055845484825282860190935260409020919091556107c4565b5060006107c4565b60008184841115612146576040517f08c379a00000000000000000000000000000000000000000000000000000000081526004018080602001828103825283818151815260200191508051906020019080838360005b8381101561210b5781810151838201526020016120f3565b50505050905090810190601f1680156121385780820380516001836020036101000a031916815260200191505b509250505060405180910390fd5b505050900390565b600081836121b7576040517f08c379a000000000000000000000000000000000000000000000000000000000815260206004820181815283516024840152835190928392604490910191908501908083836000831561210b5781810151838201526020016120f3565b5060008385816121c357fe5b0495945050505050565b60009081526001919091016020526040902054151590565b6040518060e0016040528060008152602001600081526020016000815260200160008152602001600081526020016000815260200160008152509056fe456e756d657261626c655365743a20696e646578206f7574206f6620626f756e64735661756c743a206c69717569646174696f6e20666565732065786365656420636f6c6c61746572616c536166654d6174683a206d756c7469706c69636174696f6e206f766572666c6f77a26469706673582212209ea69c94cbfd01400a104d15cb64d3a62f5f524faec14689a162df4a61d095c464736f6c634300060c0033608060405234801561001057600080fd5b506040516115793803806115798339818101604052602081101561003357600080fd5b5051600080546001600160a01b03199081163317909155600180546001600160a01b0390931692909116919091179055611507806100726000396000f3fe608060405234801561001057600080fd5b50600436106101005760003560e01c80639cb7de4b11610097578063bbd9718711610066578063bbd971871461038f578063cfad57a214610451578063f3238cec14610484578063fbfa77cf146104e357610100565b80639cb7de4b146102455780639cdeb59314610280578063a83b75fd146102f0578063b364accb1461034157610100565b806346ea87af116100d357806346ea87af1461018e5780635886b711146101d5578063627498031461020a5780639a11178f1461023d57610100565b80630147fb0c14610105578063122e7b071461013457806312d43a511461013c5780633d30cabf1461016d575b600080fd5b6101226004803603602081101561011b57600080fd5b50356104eb565b60408051918252519081900360200190f35b6101226104fd565b610144610521565b6040805173ffffffffffffffffffffffffffffffffffffffff9092168252519081900360200190f35b61018c6004803603602081101561018357600080fd5b5035151561053d565b005b6101c1600480360360208110156101a457600080fd5b503573ffffffffffffffffffffffffffffffffffffffff166105f4565b604080519115158252519081900360200190f35b610122600480360360a08110156101eb57600080fd5b5080359060208101359060408101359060608101359060800135610609565b6101226004803603602081101561022057600080fd5b503573ffffffffffffffffffffffffffffffffffffffff16610660565b6101c1610672565b61018c6004803603604081101561025b57600080fd5b5073ffffffffffffffffffffffffffffffffffffffff8135169060200135151561067b565b6102d7600480360360c081101561029657600080fd5b5073ffffffffffffffffffffffffffffffffffffffff813581169160208101358216916040820135169060608101359060808101359060a0013515156107d9565b6040805192835260208301919091528051918290030190f35b610122600480360360a081101561030657600080fd5b5073ffffffffffffffffffffffffffffffffffffffff8135811691602081013582169160408201351690606081013590608001351515610960565b6103746004803603602081101561035757600080fd5b503573ffffffffffffffffffffffffffffffffffffffff16610bc5565b60408051921515835260208301919091528051918290030190f35b61018c600480360360408110156103a557600080fd5b8101906020810181356401000000008111156103c057600080fd5b8201836020820111156103d257600080fd5b803590602001918460208302840111640100000000831117156103f457600080fd5b91939092909160208101903564010000000081111561041257600080fd5b82018360208201111561042457600080fd5b8035906020019184602083028401116401000000008311171561044657600080fd5b509092509050610d91565b61018c6004803603602081101561046757600080fd5b503573ffffffffffffffffffffffffffffffffffffffff16610f21565b61018c600480360360e081101561049a57600080fd5b5073ffffffffffffffffffffffffffffffffffffffff8135811691602081013582169160408201351690606081013515159060808101359060a08101359060c001351515610fee565b61014461110a565b60036020526000908152604090205481565b7f7fffffffffffffffffffffffffffffffffffffffffffffffffffffffffffffff81565b60005473ffffffffffffffffffffffffffffffffffffffff1681565b60005473ffffffffffffffffffffffffffffffffffffffff1633146105c357604080517f08c379a000000000000000000000000000000000000000000000000000000000815260206004820152601560248201527f476f7665726e61626c653a20666f7262696464656e0000000000000000000000604482015290519081900360640190fd5b600580547fffffffffffffffffffffffffffffffffffffffffffffffffffffffffffffff0016911515919091179055565b60026020526000908152604090205460ff1681565b600080600061061a85898987611126565b915091506000610651836106375761063288846111e3565b610641565b6106418884611260565b61064b8a8a6112a2565b90611315565b93505050505b95945050505050565b60046020526000908152604090205481565b60055460ff1681565b60005473ffffffffffffffffffffffffffffffffffffffff16331461070157604080517f08c379a000000000000000000000000000000000000000000000000000000000815260206004820152601560248201527f476f7665726e61626c653a20666f7262696464656e0000000000000000000000604482015290519081900360640190fd5b73ffffffffffffffffffffffffffffffffffffffff821661078357604080517f08c379a000000000000000000000000000000000000000000000000000000000815260206004820152601f60248201527f53686f727473547261636b65723a20696e76616c6964205f68616e646c657200604482015290519081900360640190fd5b73ffffffffffffffffffffffffffffffffffffffff91909116600090815260026020526040902080547fffffffffffffffffffffffffffffffffffffffffffffffffffffffffffffff0016911515919091179055565b60008060006107eb8989898888610960565b73ffffffffffffffffffffffffffffffffffffffff881660009081526004602052604081205491925087821161082a576108258883611260565b610834565b6108348289611260565b600154604080517f8a78daa800000000000000000000000000000000000000000000000000000000815273ffffffffffffffffffffffffffffffffffffffff8d811660048301529151939450600093849384931691638a78daa8916024808301926020929190829003018186803b1580156108ae57600080fd5b505afa1580156108c2573d6000803e3d6000fd5b505050506040513d60208110156108d857600080fd5b50519050886108f0576108eb818b611260565b6108fa565b6108fa818b6111e3565b9250826109135760008097509750505050505050610955565b8461092957828b97509750505050505050610955565b6109378561064b83876112a2565b9150506000610949858c85858a610609565b92975091955050505050505b965096945050505050565b6000811561097057506000610657565b600154604080517f4a3f088d00000000000000000000000000000000000000000000000000000000815273ffffffffffffffffffffffffffffffffffffffff8981166004830152888116602483015287811660448301526000606483018190529251931692829182918591634a3f088d91608480830192610100929190829003018186803b158015610a0157600080fd5b505afa158015610a15573d6000803e3d6000fd5b505050506040513d610100811015610a2c57600080fd5b50805160408083015160e09093015181517f5c07eaab00000000000000000000000000000000000000000000000000000000815273ffffffffffffffffffffffffffffffffffffffff8d811660048301526024820185905260448201869052600060648301819052608483018490528451959950959750919550849391891692635c07eaab9260a480840193829003018186803b158015610acc57600080fd5b505afa158015610ae0573d6000803e3d6000fd5b505050506040513d6040811015610af657600080fd5b50805160209091015190925090506000610b148661064b8c856112a2565b90507f7fffffffffffffffffffffffffffffffffffffffffffffffffffffffffffffff8110610ba457604080517f08c379a000000000000000000000000000000000000000000000000000000000815260206004820152601760248201527f53686f727473547261636b65723a206f766572666c6f77000000000000000000604482015290519081900360640190fd5b82610bb25780600003610bb4565b805b9d9c50505050505050505050505050565b600154604080517f8a78daa800000000000000000000000000000000000000000000000000000000815273ffffffffffffffffffffffffffffffffffffffff8481166004830152915160009384938493911691638a78daa891602480820192602092909190829003018186803b158015610c3e57600080fd5b505afa158015610c52573d6000803e3d6000fd5b505050506040513d6020811015610c6857600080fd5b505173ffffffffffffffffffffffffffffffffffffffff851660009081526004602052604090205490915081610ca657600080935093505050610d8c565b600154604080517fe124e6d200000000000000000000000000000000000000000000000000000000815273ffffffffffffffffffffffffffffffffffffffff88811660048301529151600093929092169163e124e6d291602480820192602092909190829003018186803b158015610d1d57600080fd5b505afa158015610d31573d6000803e3d6000fd5b505050506040513d6020811015610d4757600080fd5b505190506000818311610d6357610d5e8284611260565b610d6d565b610d6d8383611260565b90506000610d7f8461064b87856112a2565b9290931195509093505050505b915091565b60005473ffffffffffffffffffffffffffffffffffffffff163314610e1757604080517f08c379a000000000000000000000000000000000000000000000000000000000815260206004820152601560248201527f476f7665726e61626c653a20666f7262696464656e0000000000000000000000604482015290519081900360640190fd5b60055460ff1615610e8957604080517f08c379a000000000000000000000000000000000000000000000000000000000815260206004820152601f60248201527f53686f727473547261636b65723a20616c7265616479206d6967726174656400604482015290519081900360640190fd5b60005b83811015610eef57828282818110610ea057fe5b9050602002013560046000878785818110610eb757fe5b6020908102929092013573ffffffffffffffffffffffffffffffffffffffff1683525081019190915260400160002055600101610e8c565b5050600580547fffffffffffffffffffffffffffffffffffffffffffffffffffffffffffffff00166001179055505050565b60005473ffffffffffffffffffffffffffffffffffffffff163314610fa757604080517f08c379a000000000000000000000000000000000000000000000000000000000815260206004820152601560248201527f476f7665726e61626c653a20666f7262696464656e0000000000000000000000604482015290519081900360640190fd5b600080547fffffffffffffffffffffffff00000000000000000000000000000000000000001673ffffffffffffffffffffffffffffffffffffffff92909216919091179055565b3360009081526002602052604090205460ff1661106c57604080517f08c379a000000000000000000000000000000000000000000000000000000000815260206004820152601860248201527f53686f727473547261636b65723a20666f7262696464656e0000000000000000604482015290519081900360640190fd5b8380611076575082155b1561108057611101565b60055460ff1661108f57611101565b6000806110a08989898789886107d9565b915091506110ae8782611357565b6040805183815260208101839052815173ffffffffffffffffffffffffffffffffffffffff8a16927fd6137be44db128ffcf1ea1821dbe8f889f67f949be7656c2d8acba2a4a891a02928290030190a250505b50505050505050565b60015473ffffffffffffffffffffffffffffffffffffffff1681565b600080838511801561118557600084131561116a57868411156111585761114d8488611260565b965060009050611165565b6111628785611260565b96505b61117b565b6111788760008690036111e3565b96505b91508590506111da565b600084131561119f5761119887856111e3565b96506111d4565b868460000311156111c3576111b8600085900388611260565b9650600190506111d4565b6111d1876000869003611260565b96505b91508590505b94509492505050565b60008282018381101561125757604080517f08c379a000000000000000000000000000000000000000000000000000000000815260206004820152601b60248201527f536166654d6174683a206164646974696f6e206f766572666c6f770000000000604482015290519081900360640190fd5b90505b92915050565b600061125783836040518060400160405280601e81526020017f536166654d6174683a207375627472616374696f6e206f766572666c6f770000815250611380565b6000826112b15750600061125a565b828202828482816112be57fe5b0414611257576040517f08c379a00000000000000000000000000000000000000000000000000000000081526004018080602001828103825260218152602001806114b16021913960400191505060405180910390fd5b600061125783836040518060400160405280601a81526020017f536166654d6174683a206469766973696f6e206279207a65726f000000000000815250611431565b73ffffffffffffffffffffffffffffffffffffffff909116600090815260046020526040902055565b60008184841115611429576040517f08c379a00000000000000000000000000000000000000000000000000000000081526004018080602001828103825283818151815260200191508051906020019080838360005b838110156113ee5781810151838201526020016113d6565b50505050905090810190601f16801561141b5780820380516001836020036101000a031916815260200191505b509250505060405180910390fd5b505050900390565b6000818361149a576040517f08c379a00000000000000000000000000000000000000000000000000000000081526020600482018181528351602484015283519092839260449091019190850190808383600083156113ee5781810151838201526020016113d6565b5060008385816114a657fe5b049594505050505056fe536166654d6174683a206d756c7469706c69636174696f6e206f766572666c6f77a26469706673582212200dce235767affc9a2c23a52197b2bd683a9960e870c257ec7eb047a871fc8c9364736f6c634300060c003360806040523480156200001157600080fd5b506040518060400160405280600781526020016605a554553204c560cc1b8152506040518060400160405280600381526020016205a4c560ec1b815250600082828282600090805190602001906200006b929190620002e6565b50815162000081906001906020850190620002e6565b50600480546001600160a01b03191633908117909155620000a39082620000af565b50505050505062000382565b6001600160a01b038216620000f65760405162461bcd60e51b815260040180806020018281038252602381526020018062002fbe6023913960400191505060405180910390fd5b6200010182620001e5565b6200011d816002546200028460201b62001bd01790919060201c565b6002556001600160a01b0382166000908152600560209081526040909120546200015291839062001bd062000284821b17901c565b6001600160a01b03831660009081526005602090815260408083209390935560089052205460ff1615620001a0576200019c816003546200028460201b62001bd01790919060201c565b6003555b6040805182815290516001600160a01b038416916000917fddf252ad1be2c89b69c2b068fc378daa952ba7f163c4a11628f55a4df523b3ef9181900360200190a35050565b60005b60075481101562000280576000600782815481106200020357fe5b600091825260208220015460408051635fd6196560e01b81526001600160a01b03878116600483015291519190921693508392635fd61965926024808201939182900301818387803b1580156200025957600080fd5b505af11580156200026e573d6000803e3d6000fd5b505060019093019250620001e8915050565b5050565b600082820183811015620002df576040805162461bcd60e51b815260206004820152601b60248201527f536166654d6174683a206164646974696f6e206f766572666c6f770000000000604482015290519081900360640190fd5b9392505050565b828054600181600116156101000203166002900490600052602060002090601f016020900481019282601f106200032957805160ff191683800117855562000359565b8280016001018555821562000359579182015b82811115620003595782518255916020019190600101906200033c565b50620003679291506200036b565b5090565b5b808211156200036757600081556001016200036c565b612c2c80620003926000396000f3fe608060405234801561001057600080fd5b50600436106102775760003560e01c80636228907711610160578063a9059cbb116100d8578063cf456ae71161008c578063dd62ed3e11610071578063dd62ed3e14610a5e578063dfbaefb114610a99578063fb30d91614610aa157610277565b8063cf456ae7146109f0578063cfad57a214610a2b57610277565b8063aa271e1a116100bd578063aa271e1a146109ad578063af640d0f146109e0578063c93be636146109e857610277565b8063a9059cbb14610847578063a923fc401461088057610277565b80639554381a1161012f578063996f11ee11610114578063996f11ee146107985780639cb7de4b146107d35780639dc29fac1461080e57610277565b80639554381a1461075d57806395d89b411461079057610277565b806362289077146106bc57806370480275146106ef57806370a0823114610722578063817b1cd21461075557610277565b806327e235e3116101f357806346ea87af116101c257806355b6ed5c116101a757806355b6ed5c1461062f5780635a47a1a71461066a578063602172671461068957610277565b806346ea87af146105df57806352cd38d91461061257610277565b806327e235e314610522578063313ce5671461055557806340c10f1914610573578063429b62e5146105ac57610277565b80631785f53c1161024a5780631e83409a1161022f5780631e83409a1461040957806323b872dd1461043c578063276eab4e1461047f57610277565b80631785f53c146103bc57806318160ddd146103ef57610277565b806301e336671461027c57806306fdde03146102c1578063095ea7b31461033e57806312d43a511461038b575b600080fd5b6102bf6004803603606081101561029257600080fd5b5073ffffffffffffffffffffffffffffffffffffffff813581169160208101359091169060400135610ad4565b005b6102c9610b80565b6040805160208082528351818301528351919283929083019185019080838360005b838110156103035781810151838201526020016102eb565b50505050905090810190601f1680156103305780820380516001836020036101000a031916815260200191505b509250505060405180910390f35b6103776004803603604081101561035457600080fd5b5073ffffffffffffffffffffffffffffffffffffffff8135169060200135610c2c565b604080519115158252519081900360200190f35b610393610c42565b6040805173ffffffffffffffffffffffffffffffffffffffff9092168252519081900360200190f35b6102bf600480360360208110156103d257600080fd5b503573ffffffffffffffffffffffffffffffffffffffff16610c5e565b6103f7610d30565b60408051918252519081900360200190f35b6102bf6004803603602081101561041f57600080fd5b503573ffffffffffffffffffffffffffffffffffffffff16610d36565b6103776004803603606081101561045257600080fd5b5073ffffffffffffffffffffffffffffffffffffffff813581169160208101359091169060400135610e13565b6102bf6004803603602081101561049557600080fd5b8101906020810181356401000000008111156104b057600080fd5b8201836020820111156104c257600080fd5b803590602001918460208302840111640100000000831117156104e457600080fd5b919080806020026020016040519081016040528093929190818152602001838360200280828437600092019190915250929550610eba945050505050565b6103f76004803603602081101561053857600080fd5b503573ffffffffffffffffffffffffffffffffffffffff16610f53565b61055d610f65565b6040805160ff9092168252519081900360200190f35b6102bf6004803603604081101561058957600080fd5b5073ffffffffffffffffffffffffffffffffffffffff8135169060200135610f6a565b610377600480360360208110156105c257600080fd5b503573ffffffffffffffffffffffffffffffffffffffff16610ff2565b610377600480360360208110156105f557600080fd5b503573ffffffffffffffffffffffffffffffffffffffff16611007565b6103936004803603602081101561062857600080fd5b503561101c565b6103f76004803603604081101561064557600080fd5b5073ffffffffffffffffffffffffffffffffffffffff81358116916020013516611050565b6102bf6004803603602081101561068057600080fd5b5035151561106d565b6103f76004803603602081101561069f57600080fd5b503573ffffffffffffffffffffffffffffffffffffffff16611124565b6102bf600480360360208110156106d257600080fd5b503573ffffffffffffffffffffffffffffffffffffffff16611187565b6102bf6004803603602081101561070557600080fd5b503573ffffffffffffffffffffffffffffffffffffffff166112f8565b6103f76004803603602081101561073857600080fd5b503573ffffffffffffffffffffffffffffffffffffffff166113cd565b6103f76113f5565b6103776004803603602081101561077357600080fd5b503573ffffffffffffffffffffffffffffffffffffffff16611413565b6102c9611428565b6102bf600480360360408110156107ae57600080fd5b5073ffffffffffffffffffffffffffffffffffffffff813581169160200135166114a0565b6102bf600480360360408110156107e957600080fd5b5073ffffffffffffffffffffffffffffffffffffffff813516906020013515156115f9565b6102bf6004803603604081101561082457600080fd5b5073ffffffffffffffffffffffffffffffffffffffff81351690602001356116d5565b6103776004803603604081101561085d57600080fd5b5073ffffffffffffffffffffffffffffffffffffffff813516906020013561175d565b6102bf6004803603604081101561089657600080fd5b8101906020810181356401000000008111156108b157600080fd5b8201836020820111156108c357600080fd5b803590602001918460018302840111640100000000831117156108e557600080fd5b91908080601f016020809104026020016040519081016040528093929190818152602001838380828437600092019190915250929594936020810193503591505064010000000081111561093857600080fd5b82018360208201111561094a57600080fd5b8035906020019184600183028401116401000000008311171561096c57600080fd5b91908080601f01602080910402602001604051908101604052809392919081815260200183838082843760009201919091525092955061176a945050505050565b610377600480360360208110156109c357600080fd5b503573ffffffffffffffffffffffffffffffffffffffff16611817565b6102c961182c565b6103f7611863565b6102bf60048036036040811015610a0657600080fd5b5073ffffffffffffffffffffffffffffffffffffffff81351690602001351515611869565b6102bf60048036036020811015610a4157600080fd5b503573ffffffffffffffffffffffffffffffffffffffff16611945565b6103f760048036036040811015610a7457600080fd5b5073ffffffffffffffffffffffffffffffffffffffff81358116916020013516611a12565b610377611a4a565b6102bf60048036036020811015610ab757600080fd5b503573ffffffffffffffffffffffffffffffffffffffff16611a53565b60045473ffffffffffffffffffffffffffffffffffffffff163314610b5a57604080517f08c379a000000000000000000000000000000000000000000000000000000000815260206004820152601460248201527f42617365546f6b656e3a20666f7262696464656e000000000000000000000000604482015290519081900360640190fd5b610b7b73ffffffffffffffffffffffffffffffffffffffff84168383611c44565b505050565b6000805460408051602060026001851615610100027fffffffffffffffffffffffffffffffffffffffffffffffffffffffffffffffff0190941693909304601f81018490048402820184019092528181529291830182828015610c245780601f10610bf957610100808354040283529160200191610c24565b820191906000526020600020905b815481529060010190602001808311610c0757829003601f168201915b505050505081565b6000610c39338484611cd1565b50600192915050565b60045473ffffffffffffffffffffffffffffffffffffffff1681565b60045473ffffffffffffffffffffffffffffffffffffffff163314610ce457604080517f08c379a000000000000000000000000000000000000000000000000000000000815260206004820152601460248201527f42617365546f6b656e3a20666f7262696464656e000000000000000000000000604482015290519081900360640190fd5b73ffffffffffffffffffffffffffffffffffffffff16600090815260096020526040902080547fffffffffffffffffffffffffffffffffffffffffffffffffffffffffffffff00169055565b60025481565b60005b600754811015610e0f57600060078281548110610d5257fe5b6000918252602080832090910154604080517f21c0b34200000000000000000000000000000000000000000000000000000000815233600482015273ffffffffffffffffffffffffffffffffffffffff8881166024830152915191909216945084936321c0b34293604480850194919392918390030190829087803b158015610dda57600080fd5b505af1158015610dee573d6000803e3d6000fd5b505050506040513d6020811015610e0457600080fd5b505050600101610d39565b5050565b336000908152600b602052604081205460ff1615610e3e57610e36848484611e18565b506001610eb3565b6000610e95836040518060600160405280602c8152602001612a93602c913973ffffffffffffffffffffffffffffffffffffffff8816600090815260066020908152604080832033845290915290205491906120f6565b9050610ea2853383611cd1565b610ead858585611e18565b60019150505b9392505050565b60045473ffffffffffffffffffffffffffffffffffffffff163314610f4057604080517f08c379a000000000000000000000000000000000000000000000000000000000815260206004820152601460248201527f42617365546f6b656e3a20666f7262696464656e000000000000000000000000604482015290519081900360640190fd5b8051610e0f9060079060208401906128ad565b60056020526000908152604090205481565b601281565b336000908152600c602052604090205460ff16610fe857604080517f08c379a000000000000000000000000000000000000000000000000000000000815260206004820152601c60248201527f4d696e7461626c6542617365546f6b656e3a20666f7262696464656e00000000604482015290519081900360640190fd5b610e0f82826121a7565b60096020526000908152604090205460ff1681565b600b6020526000908152604090205460ff1681565b6007818154811061102957fe5b60009182526020909120015473ffffffffffffffffffffffffffffffffffffffff16905081565b600660209081526000928352604080842090915290825290205481565b60045473ffffffffffffffffffffffffffffffffffffffff1633146110f357604080517f08c379a000000000000000000000000000000000000000000000000000000000815260206004820152601460248201527f42617365546f6b656e3a20666f7262696464656e000000000000000000000000604482015290519081900360640190fd5b600a80547fffffffffffffffffffffffffffffffffffffffffffffffffffffffffffffff0016911515919091179055565b73ffffffffffffffffffffffffffffffffffffffff811660009081526008602052604081205460ff161561115a57506000611182565b5073ffffffffffffffffffffffffffffffffffffffff81166000908152600560205260409020545b919050565b3360009081526009602052604090205460ff1661120557604080517f08c379a000000000000000000000000000000000000000000000000000000000815260206004820152601460248201527f42617365546f6b656e3a20666f7262696464656e000000000000000000000000604482015290519081900360640190fd5b73ffffffffffffffffffffffffffffffffffffffff811660009081526008602052604090205460ff1615611284576040517f08c379a0000000000000000000000000000000000000000000000000000000008152600401808060200182810382526022815260200180612b376022913960400191505060405180910390fd5b61128d816122f9565b73ffffffffffffffffffffffffffffffffffffffff8116600090815260086020908152604080832080547fffffffffffffffffffffffffffffffffffffffffffffffffffffffffffffff0016600117905560059091529020546003546112f291611bd0565b60035550565b60045473ffffffffffffffffffffffffffffffffffffffff16331461137e57604080517f08c379a000000000000000000000000000000000000000000000000000000000815260206004820152601460248201527f42617365546f6b656e3a20666f7262696464656e000000000000000000000000604482015290519081900360640190fd5b73ffffffffffffffffffffffffffffffffffffffff16600090815260096020526040902080547fffffffffffffffffffffffffffffffffffffffffffffffffffffffffffffff00166001179055565b73ffffffffffffffffffffffffffffffffffffffff1660009081526005602052604090205490565b600061140e6003546002546123b590919063ffffffff16565b905090565b60086020526000908152604090205460ff1681565b60018054604080516020600284861615610100027fffffffffffffffffffffffffffffffffffffffffffffffffffffffffffffffff0190941693909304601f81018490048402820184019092528181529291830182828015610c245780601f10610bf957610100808354040283529160200191610c24565b3360009081526009602052604090205460ff1661151e57604080517f08c379a000000000000000000000000000000000000000000000000000000000815260206004820152601460248201527f42617365546f6b656e3a20666f7262696464656e000000000000000000000000604482015290519081900360640190fd5b60005b600754811015610b7b5760006007828154811061153a57fe5b6000918252602080832090910154604080517f21c0b34200000000000000000000000000000000000000000000000000000000815273ffffffffffffffffffffffffffffffffffffffff89811660048301528881166024830152915191909216945084936321c0b34293604480850194919392918390030190829087803b1580156115c457600080fd5b505af11580156115d8573d6000803e3d6000fd5b505050506040513d60208110156115ee57600080fd5b505050600101611521565b60045473ffffffffffffffffffffffffffffffffffffffff16331461167f57604080517f08c379a000000000000000000000000000000000000000000000000000000000815260206004820152601460248201527f42617365546f6b656e3a20666f7262696464656e000000000000000000000000604482015290519081900360640190fd5b73ffffffffffffffffffffffffffffffffffffffff919091166000908152600b6020526040902080547fffffffffffffffffffffffffffffffffffffffffffffffffffffffffffffff0016911515919091179055565b336000908152600c602052604090205460ff1661175357604080517f08c379a000000000000000000000000000000000000000000000000000000000815260206004820152601c60248201527f4d696e7461626c6542617365546f6b656e3a20666f7262696464656e00000000604482015290519081900360640190fd5b610e0f82826123f7565b6000610c39338484611e18565b60045473ffffffffffffffffffffffffffffffffffffffff1633146117f057604080517f08c379a000000000000000000000000000000000000000000000000000000000815260206004820152601460248201527f42617365546f6b656e3a20666f7262696464656e000000000000000000000000604482015290519081900360640190fd5b8151611803906000906020850190612937565b508051610b7b906001906020840190612937565b600c6020526000908152604090205460ff1681565b60408051808201909152600381527f5a4c500000000000000000000000000000000000000000000000000000000000602082015290565b60035481565b60045473ffffffffffffffffffffffffffffffffffffffff1633146118ef57604080517f08c379a000000000000000000000000000000000000000000000000000000000815260206004820152601460248201527f42617365546f6b656e3a20666f7262696464656e000000000000000000000000604482015290519081900360640190fd5b73ffffffffffffffffffffffffffffffffffffffff919091166000908152600c6020526040902080547fffffffffffffffffffffffffffffffffffffffffffffffffffffffffffffff0016911515919091179055565b60045473ffffffffffffffffffffffffffffffffffffffff1633146119cb57604080517f08c379a000000000000000000000000000000000000000000000000000000000815260206004820152601460248201527f42617365546f6b656e3a20666f7262696464656e000000000000000000000000604482015290519081900360640190fd5b600480547fffffffffffffffffffffffff00000000000000000000000000000000000000001673ffffffffffffffffffffffffffffffffffffffff92909216919091179055565b73ffffffffffffffffffffffffffffffffffffffff918216600090815260066020908152604080832093909416825291909152205490565b600a5460ff1681565b3360009081526009602052604090205460ff16611ad157604080517f08c379a000000000000000000000000000000000000000000000000000000000815260206004820152601460248201527f42617365546f6b656e3a20666f7262696464656e000000000000000000000000604482015290519081900360640190fd5b73ffffffffffffffffffffffffffffffffffffffff811660009081526008602052604090205460ff16611b6557604080517f08c379a000000000000000000000000000000000000000000000000000000000815260206004820152601e60248201527f42617365546f6b656e3a205f6163636f756e74206e6f74206d61726b65640000604482015290519081900360640190fd5b611b6e816122f9565b73ffffffffffffffffffffffffffffffffffffffff8116600090815260086020908152604080832080547fffffffffffffffffffffffffffffffffffffffffffffffffffffffffffffff0016905560059091529020546003546112f2916123b5565b600082820183811015610eb357604080517f08c379a000000000000000000000000000000000000000000000000000000000815260206004820152601b60248201527f536166654d6174683a206164646974696f6e206f766572666c6f770000000000604482015290519081900360640190fd5b6040805173ffffffffffffffffffffffffffffffffffffffff8416602482015260448082018490528251808303909101815260649091019091526020810180517bffffffffffffffffffffffffffffffffffffffffffffffffffffffff167fa9059cbb00000000000000000000000000000000000000000000000000000000179052610b7b90849061257d565b73ffffffffffffffffffffffffffffffffffffffff8316611d3d576040517f08c379a0000000000000000000000000000000000000000000000000000000008152600401808060200182810382526028815260200180612ae56028913960400191505060405180910390fd5b73ffffffffffffffffffffffffffffffffffffffff8216611da9576040517f08c379a0000000000000000000000000000000000000000000000000000000008152600401808060200182810382526026815260200180612a6d6026913960400191505060405180910390fd5b73ffffffffffffffffffffffffffffffffffffffff808416600081815260066020908152604080832094871680845294825291829020859055815185815291517f8c5be1e5ebec7d5bd14f71427d1e84f3dd0314c0f7b2291e5b200ac8c7c3b9259281900390910190a3505050565b73ffffffffffffffffffffffffffffffffffffffff8316611e84576040517f08c379a0000000000000000000000000000000000000000000000000000000008152600401808060200182810382526029815260200180612bce6029913960400191505060405180910390fd5b73ffffffffffffffffffffffffffffffffffffffff8216611ef0576040517f08c379a0000000000000000000000000000000000000000000000000000000008152600401808060200182810382526027815260200180612a236027913960400191505060405180910390fd5b600a5460ff1615611f6357336000908152600b602052604090205460ff16611f63576040517f08c379a00000000000000000000000000000000000000000000000000000000081526004018080602001828103825260258152602001806129fe6025913960400191505060405180910390fd5b611f6c836122f9565b611f75826122f9565b611fbf816040518060600160405280602a8152602001612b0d602a913973ffffffffffffffffffffffffffffffffffffffff861660009081526005602052604090205491906120f6565b73ffffffffffffffffffffffffffffffffffffffff8085166000908152600560205260408082209390935590841681522054611ffb9082611bd0565b73ffffffffffffffffffffffffffffffffffffffff80841660009081526005602090815260408083209490945591861681526008909152205460ff161561204d5760035461204990826123b5565b6003555b73ffffffffffffffffffffffffffffffffffffffff821660009081526008602052604090205460ff161561208c576003546120889082611bd0565b6003555b8173ffffffffffffffffffffffffffffffffffffffff168373ffffffffffffffffffffffffffffffffffffffff167fddf252ad1be2c89b69c2b068fc378daa952ba7f163c4a11628f55a4df523b3ef836040518082815260200191505060405180910390a3505050565b6000818484111561219f576040517f08c379a00000000000000000000000000000000000000000000000000000000081526004018080602001828103825283818151815260200191508051906020019080838360005b8381101561216457818101518382015260200161214c565b50505050905090810190601f1680156121915780820380516001836020036101000a031916815260200191505b509250505060405180910390fd5b505050900390565b73ffffffffffffffffffffffffffffffffffffffff8216612213576040517f08c379a0000000000000000000000000000000000000000000000000000000008152600401808060200182810382526023815260200180612a4a6023913960400191505060405180910390fd5b61221c826122f9565b6002546122299082611bd0565b60025573ffffffffffffffffffffffffffffffffffffffff821660009081526005602052604090205461225c9082611bd0565b73ffffffffffffffffffffffffffffffffffffffff831660009081526005602090815260408083209390935560089052205460ff16156122a7576003546122a39082611bd0565b6003555b60408051828152905173ffffffffffffffffffffffffffffffffffffffff8416916000917fddf252ad1be2c89b69c2b068fc378daa952ba7f163c4a11628f55a4df523b3ef9181900360200190a35050565b60005b600754811015610e0f5760006007828154811061231557fe5b6000918252602082200154604080517f5fd6196500000000000000000000000000000000000000000000000000000000815273ffffffffffffffffffffffffffffffffffffffff878116600483015291519190921693508392635fd61965926024808201939182900301818387803b15801561239057600080fd5b505af11580156123a4573d6000803e3d6000fd5b5050600190930192506122fc915050565b6000610eb383836040518060400160405280601e81526020017f536166654d6174683a207375627472616374696f6e206f766572666c6f7700008152506120f6565b73ffffffffffffffffffffffffffffffffffffffff8216612463576040517f08c379a0000000000000000000000000000000000000000000000000000000008152600401808060200182810382526025815260200180612ba96025913960400191505060405180910390fd5b61246c826122f9565b6124b681604051806060016040528060268152602001612b596026913973ffffffffffffffffffffffffffffffffffffffff851660009081526005602052604090205491906120f6565b73ffffffffffffffffffffffffffffffffffffffff83166000908152600560205260409020556002546124e990826123b5565b60025573ffffffffffffffffffffffffffffffffffffffff821660009081526008602052604090205460ff161561252b5760035461252790826123b5565b6003555b60408051828152905160009173ffffffffffffffffffffffffffffffffffffffff8516917fddf252ad1be2c89b69c2b068fc378daa952ba7f163c4a11628f55a4df523b3ef9181900360200190a35050565b60606125df826040518060400160405280602081526020017f5361666545524332303a206c6f772d6c6576656c2063616c6c206661696c65648152508573ffffffffffffffffffffffffffffffffffffffff166126559092919063ffffffff16565b805190915015610b7b578080602001905160208110156125fe57600080fd5b5051610b7b576040517f08c379a000000000000000000000000000000000000000000000000000000000815260040180806020018281038252602a815260200180612b7f602a913960400191505060405180910390fd5b6060612664848460008561266c565b949350505050565b6060824710156126c7576040517f08c379a0000000000000000000000000000000000000000000000000000000008152600401808060200182810382526026815260200180612abf6026913960400191505060405180910390fd5b6126d085612827565b61273b57604080517f08c379a000000000000000000000000000000000000000000000000000000000815260206004820152601d60248201527f416464726573733a2063616c6c20746f206e6f6e2d636f6e7472616374000000604482015290519081900360640190fd5b600060608673ffffffffffffffffffffffffffffffffffffffff1685876040518082805190602001908083835b602083106127a557805182527fffffffffffffffffffffffffffffffffffffffffffffffffffffffffffffffe09092019160209182019101612768565b6001836020036101000a03801982511681845116808217855250505050505090500191505060006040518083038185875af1925050503d8060008114612807576040519150601f19603f3d011682016040523d82523d6000602084013e61280c565b606091505b509150915061281c82828661282d565b979650505050505050565b3b151590565b6060831561283c575081610eb3565b82511561284c5782518084602001fd5b6040517f08c379a000000000000000000000000000000000000000000000000000000000815260206004820181815284516024840152845185939192839260440191908501908083836000831561216457818101518382015260200161214c565b828054828255906000526020600020908101928215612927579160200282015b8281111561292757825182547fffffffffffffffffffffffff00000000000000000000000000000000000000001673ffffffffffffffffffffffffffffffffffffffff9091161782556020909201916001909101906128cd565b506129339291506129b1565b5090565b828054600181600116156101000203166002900490600052602060002090601f016020900481019282601f1061297857805160ff19168380011785556129a5565b828001600101855582156129a5579182015b828111156129a557825182559160200191906001019061298a565b506129339291506129e8565b5b808211156129335780547fffffffffffffffffffffffff00000000000000000000000000000000000000001681556001016129b2565b5b8082111561293357600081556001016129e956fe42617365546f6b656e3a206d73672e73656e646572206e6f742077686974656c697374656442617365546f6b656e3a207472616e7366657220746f20746865207a65726f206164647265737342617365546f6b656e3a206d696e7420746f20746865207a65726f206164647265737342617365546f6b656e3a20617070726f766520746f20746865207a65726f206164647265737342617365546f6b656e3a207472616e7366657220616d6f756e74206578636565647320616c6c6f77616e6365416464726573733a20696e73756666696369656e742062616c616e636520666f722063616c6c42617365546f6b656e3a20617070726f76652066726f6d20746865207a65726f206164647265737342617365546f6b656e3a207472616e7366657220616d6f756e7420657863656564732062616c616e636542617365546f6b656e3a205f6163636f756e7420616c7265616479206d61726b656442617365546f6b656e3a206275726e20616d6f756e7420657863656564732062616c616e63655361666545524332303a204552433230206f7065726174696f6e20646964206e6f74207375636365656442617365546f6b656e3a206275726e2066726f6d20746865207a65726f206164647265737342617365546f6b656e3a207472616e736665722066726f6d20746865207a65726f2061646472657373a2646970667358221220ea21daffe9dfa7768c56ff699f4fa2576a9bfc14c76c7ec70f328744ae5c589464736f6c634300060c003342617365546f6b656e3a206d696e7420746f20746865207a65726f2061646472657373608060405234801561001057600080fd5b506040516130d93803806130d9833981810160405260a081101561003357600080fd5b50805160208201516040830151606084015160809094015160018054336001600160a01b031991821681178216179091556002805482166001600160a01b039687161790556004805482169486169490941790935560058054841692851692909217909155600380549092169290931691909117905560065561301e806100bb6000396000f3fe608060405234801561001057600080fd5b50600436106102265760003560e01c806371d597ad1161012a578063a1acd3d5116100bd578063e245b5af1161008c578063f5b91b7b11610071578063f5b91b7b146106d1578063fbfa77cf146106d9578063fe9fe720146106e157610226565b8063e245b5af1461065a578063ed0d1c041461067957610226565b8063a1acd3d514610594578063b172bb0c146105ec578063cfad57a2146105f4578063d34ee0931461062757610226565b80639116c4ae116100f95780639116c4ae1461051157806395082d2514610534578063966be0751461053c5780639cb7de4b1461055957610226565b806371d597ad1461043e578063870d917c1461048f5780638b770e11146104975780638fed0b2c146104ca57610226565b80631ece366a116101bd5780634f5f6b5e1161018c578063657bc5d011610171578063657bc5d0146103f857806368a0a3e0146104005780636a86da191461041f57610226565b80634f5f6b5e146103d157806364e6617f146103f057610226565b80631ece366a1461031e5780633526931514610363578063440d828a1461036b57806346ea87af1461039e57610226565b806312d43a51116101f957806312d43a511461028857806317eb2a15146102b9578063196b68cb1461030e5780631e9049cf1461031657610226565b8063033914761461022b578063070eacee1461025c578063088ec8c314610278578063126082cf14610280575b600080fd5b61024a6004803603602081101561024157600080fd5b503515156106e9565b60408051918252519081900360200190f35b610264610f11565b604080519115158252519081900360200190f35b61024a610f1a565b61024a610f26565b610290610f2c565b6040805173ffffffffffffffffffffffffffffffffffffffff9092168252519081900360200190f35b61024a600480360360c08110156102cf57600080fd5b5073ffffffffffffffffffffffffffffffffffffffff813581169160208101358216916040820135169060608101359060808101359060a00135610f48565b61024a610fe7565b61024a610fed565b61024a6004803603608081101561033457600080fd5b5073ffffffffffffffffffffffffffffffffffffffff8135169060208101359060408101359060600135610ff4565b61024a6110fb565b61024a6004803603602081101561038157600080fd5b503573ffffffffffffffffffffffffffffffffffffffff16611101565b610264600480360360208110156103b457600080fd5b503573ffffffffffffffffffffffffffffffffffffffff166114de565b6103ee600480360360208110156103e757600080fd5b50356114f3565b005b61024a6115ef565b6102906115f5565b61024a6004803603602081101561041657600080fd5b50351515611611565b6103ee6004803603602081101561043557600080fd5b50351515611649565b61024a600480360360a081101561045457600080fd5b5073ffffffffffffffffffffffffffffffffffffffff8135811691602081013582169160408201359160608101359160809091013516611700565b61024a61179d565b61024a600480360360208110156104ad57600080fd5b503573ffffffffffffffffffffffffffffffffffffffff166117a2565b61024a600480360360808110156104e057600080fd5b5073ffffffffffffffffffffffffffffffffffffffff813581169160208101359160408201359160600135166117b4565b6103ee6004803603604081101561052757600080fd5b50803590602001356118ac565b61024a61193d565b6103ee6004803603602081101561055257600080fd5b503561194e565b6103ee6004803603604081101561056f57600080fd5b5073ffffffffffffffffffffffffffffffffffffffff81351690602001351515611a35565b6105d3600480360360608110156105aa57600080fd5b5073ffffffffffffffffffffffffffffffffffffffff8135169060208101359060400135611b11565b6040805192835290151560208301528051918290030190f35b61024a611b88565b6103ee6004803603602081101561060a57600080fd5b503573ffffffffffffffffffffffffffffffffffffffff16611b8e565b6103ee6004803603602081101561063d57600080fd5b503573ffffffffffffffffffffffffffffffffffffffff16611c5b565b61024a6004803603602081101561067057600080fd5b50351515611d28565b610681611dfc565b60408051602080825283518183015283519192839290830191858101910280838360005b838110156106bd5781810151838201526020016106a5565b505050509050019250505060405180910390f35b610290611e6a565b610290611e86565b610290611ea2565b600080600260009054906101000a900473ffffffffffffffffffffffffffffffffffffffff1673ffffffffffffffffffffffffffffffffffffffff16630842b0766040518163ffffffff1660e01b815260040160206040518083038186803b15801561075457600080fd5b505afa158015610768573d6000803e3d6000fd5b505050506040513d602081101561077e57600080fd5b50516008549091507f7fffffffffffffffffffffffffffffffffffffffffffffffffffffffffffffff8111156107d65780600954116107ca576009546107c5908290611ebe565b6107cd565b60005b92505050610f0c565b60025460009073ffffffffffffffffffffffffffffffffffffffff16815b84811015610eca57600254604080517fe468baf000000000000000000000000000000000000000000000000000000000815260048101849052905160009273ffffffffffffffffffffffffffffffffffffffff169163e468baf0916024808301926020929190829003018186803b15801561086e57600080fd5b505afa158015610882573d6000803e3d6000fd5b505050506040513d602081101561089857600080fd5b5051600254604080517fdaf9c21000000000000000000000000000000000000000000000000000000000815273ffffffffffffffffffffffffffffffffffffffff80851660048301529151939450600093919092169163daf9c210916024808301926020929190829003018186803b15801561091357600080fd5b505afa158015610927573d6000803e3d6000fd5b505050506040513d602081101561093d57600080fd5b505190508061094d575050610ec2565b6000896109ec578473ffffffffffffffffffffffffffffffffffffffff166381a612d6846040518263ffffffff1660e01b8152600401808273ffffffffffffffffffffffffffffffffffffffff16815260200191505060206040518083038186803b1580156109bb57600080fd5b505afa1580156109cf573d6000803e3d6000fd5b505050506040513d60208110156109e557600080fd5b5051610a80565b8473ffffffffffffffffffffffffffffffffffffffff1663e124e6d2846040518263ffffffff1660e01b8152600401808273ffffffffffffffffffffffffffffffffffffffff16815260200191505060206040518083038186803b158015610a5357600080fd5b505afa158015610a67573d6000803e3d6000fd5b505050506040513d6020811015610a7d57600080fd5b50515b905060008573ffffffffffffffffffffffffffffffffffffffff166352f55eed856040518263ffffffff1660e01b8152600401808273ffffffffffffffffffffffffffffffffffffffff16815260200191505060206040518083038186803b158015610aeb57600080fd5b505afa158015610aff573d6000803e3d6000fd5b505050506040513d6020811015610b1557600080fd5b5051604080517f8ee573ac00000000000000000000000000000000000000000000000000000000815273ffffffffffffffffffffffffffffffffffffffff8781166004830152915192935060009291891691638ee573ac91602480820192602092909190829003018186803b158015610b8d57600080fd5b505afa158015610ba1573d6000803e3d6000fd5b505050506040513d6020811015610bb757600080fd5b5051604080517f42b60b0300000000000000000000000000000000000000000000000000000000815273ffffffffffffffffffffffffffffffffffffffff88811660048301529151929350908916916342b60b0391602480820192602092909190829003018186803b158015610c2c57600080fd5b505afa158015610c40573d6000803e3d6000fd5b505050506040513d6020811015610c5657600080fd5b505115610c8657610c7f610c78600a83900a610c728587611f09565b90611f7c565b8a90611fbe565b9850610ebc565b60008773ffffffffffffffffffffffffffffffffffffffff16638a78daa8876040518263ffffffff1660e01b8152600401808273ffffffffffffffffffffffffffffffffffffffff16815260200191505060206040518083038186803b158015610cef57600080fd5b505afa158015610d03573d6000803e3d6000fd5b505050506040513d6020811015610d1957600080fd5b505190508015610d5b57600080610d31888785611b11565b9150915080610d4b57610d448c83611fbe565b9b50610d58565b610d558b83611fbe565b9a505b50505b610df88873ffffffffffffffffffffffffffffffffffffffff1663f07456ce886040518263ffffffff1660e01b8152600401808273ffffffffffffffffffffffffffffffffffffffff16815260200191505060206040518083038186803b158015610dc557600080fd5b505afa158015610dd9573d6000803e3d6000fd5b505050506040513d6020811015610def57600080fd5b50518b90611fbe565b995060008873ffffffffffffffffffffffffffffffffffffffff1663c3c7b9e9886040518263ffffffff1660e01b8152600401808273ffffffffffffffffffffffffffffffffffffffff16815260200191505060206040518083038186803b158015610e6357600080fd5b505afa158015610e77573d6000803e3d6000fd5b505050506040513d6020811015610e8d57600080fd5b50519050610eb7610eb0600a85900a610c7288610eaa8987611ebe565b90611f09565b8c90611fbe565b9a5050505b50505050505b6001016107f4565b50828211610ee157610edc8383611ebe565b610ee4565b60005b92508260095411610f0257600954610efd908490611ebe565b610f05565b60005b9450505050505b919050565b600a5460ff1681565b670de0b6b3a764000081565b61271081565b60015473ffffffffffffffffffffffffffffffffffffffff1681565b600060026000541415610fbc57604080517f08c379a000000000000000000000000000000000000000000000000000000000815260206004820152601f60248201527f5265656e7472616e637947756172643a207265656e7472616e742063616c6c00604482015290519081900360640190fd5b6002600055610fc9612032565b610fd78787878787876120b2565b6001600055979650505050505050565b60085481565b6202a30081565b60006002600054141561106857604080517f08c379a000000000000000000000000000000000000000000000000000000000815260206004820152601f60248201527f5265656e7472616e637947756172643a207265656e7472616e742063616c6c00604482015290519081900360640190fd5b6002600055600a5460ff16156110df57604080517f08c379a000000000000000000000000000000000000000000000000000000000815260206004820152601e60248201527f5a6c704d616e616765723a20616374696f6e206e6f7420656e61626c65640000604482015290519081900360640190fd5b6110ed3333878787876120b2565b600160005595945050505050565b60065481565b60035460009073ffffffffffffffffffffffffffffffffffffffff1680158061119957508073ffffffffffffffffffffffffffffffffffffffff16639a11178f6040518163ffffffff1660e01b815260040160206040518083038186803b15801561116b57600080fd5b505afa15801561117f573d6000803e3d6000fd5b505050506040513d602081101561119557600080fd5b5051155b1561124657600254604080517f6274980300000000000000000000000000000000000000000000000000000000815273ffffffffffffffffffffffffffffffffffffffff8681166004830152915191909216916362749803916024808301926020929190829003018186803b15801561121157600080fd5b505afa158015611225573d6000803e3d6000fd5b505050506040513d602081101561123b57600080fd5b50519150610f0c9050565b600b54806112f757600254604080517f6274980300000000000000000000000000000000000000000000000000000000815273ffffffffffffffffffffffffffffffffffffffff8781166004830152915191909216916362749803916024808301926020929190829003018186803b1580156112c157600080fd5b505afa1580156112d5573d6000803e3d6000fd5b505050506040513d60208110156112eb57600080fd5b50519250610f0c915050565b612710811415611368578173ffffffffffffffffffffffffffffffffffffffff166362749803856040518263ffffffff1660e01b8152600401808273ffffffffffffffffffffffffffffffffffffffff16815260200191505060206040518083038186803b1580156112c157600080fd5b600254604080517f6274980300000000000000000000000000000000000000000000000000000000815273ffffffffffffffffffffffffffffffffffffffff878116600483015291516000939290921691636274980391602480820192602092909190829003018186803b1580156113df57600080fd5b505afa1580156113f3573d6000803e3d6000fd5b505050506040513d602081101561140957600080fd5b5051604080517f6274980300000000000000000000000000000000000000000000000000000000815273ffffffffffffffffffffffffffffffffffffffff8881166004830152915192935060009291861691636274980391602480820192602092909190829003018186803b15801561148157600080fd5b505afa158015611495573d6000803e3d6000fd5b505050506040513d60208110156114ab57600080fd5b50519050610f05612710610c726114c28487611f09565b6114d86114d161271089611ebe565b8790611f09565b90611fbe565b600c6020526000908152604090205460ff1681565b60015473ffffffffffffffffffffffffffffffffffffffff16331461157957604080517f08c379a000000000000000000000000000000000000000000000000000000000815260206004820152601560248201527f476f7665726e61626c653a20666f7262696464656e0000000000000000000000604482015290519081900360640190fd5b6127108111156115ea57604080517f08c379a000000000000000000000000000000000000000000000000000000000815260206004820152601a60248201527f5a6c704d616e616765723a20696e76616c696420776569676874000000000000604482015290519081900360640190fd5b600b55565b600b5481565b60035473ffffffffffffffffffffffffffffffffffffffff1681565b60008061161d836106e9565b90506116426c0c9f2c9cd04674edea40000000610c7283670de0b6b3a7640000611f09565b9392505050565b60015473ffffffffffffffffffffffffffffffffffffffff1633146116cf57604080517f08c379a000000000000000000000000000000000000000000000000000000000815260206004820152601560248201527f476f7665726e61626c653a20666f7262696464656e0000000000000000000000604482015290519081900360640190fd5b600a80547fffffffffffffffffffffffffffffffffffffffffffffffffffffffffffffff0016911515919091179055565b60006002600054141561177457604080517f08c379a000000000000000000000000000000000000000000000000000000000815260206004820152601f60248201527f5265656e7472616e637947756172643a207265656e7472616e742063616c6c00604482015290519081900360640190fd5b6002600055611781612032565b61178e868686868661249b565b60016000559695505050505050565b601281565b60076020526000908152604090205481565b60006002600054141561182857604080517f08c379a000000000000000000000000000000000000000000000000000000000815260206004820152601f60248201527f5265656e7472616e637947756172643a207265656e7472616e742063616c6c00604482015290519081900360640190fd5b6002600055600a5460ff161561189f57604080517f08c379a000000000000000000000000000000000000000000000000000000000815260206004820152601e60248201527f5a6c704d616e616765723a20616374696f6e206e6f7420656e61626c65640000604482015290519081900360640190fd5b6110ed338686868661249b565b60015473ffffffffffffffffffffffffffffffffffffffff16331461193257604080517f08c379a000000000000000000000000000000000000000000000000000000000815260206004820152601560248201527f476f7665726e61626c653a20666f7262696464656e0000000000000000000000604482015290519081900360640190fd5b600891909155600955565b6c0c9f2c9cd04674edea4000000081565b60015473ffffffffffffffffffffffffffffffffffffffff1633146119d457604080517f08c379a000000000000000000000000000000000000000000000000000000000815260206004820152601560248201527f476f7665726e61626c653a20666f7262696464656e0000000000000000000000604482015290519081900360640190fd5b6202a300811115611a30576040517f08c379a0000000000000000000000000000000000000000000000000000000008152600401808060200182810382526025815260200180612f9a6025913960400191505060405180910390fd5b600655565b60015473ffffffffffffffffffffffffffffffffffffffff163314611abb57604080517f08c379a000000000000000000000000000000000000000000000000000000000815260206004820152601560248201527f476f7665726e61626c653a20666f7262696464656e0000000000000000000000604482015290519081900360640190fd5b73ffffffffffffffffffffffffffffffffffffffff919091166000908152600c6020526040902080547fffffffffffffffffffffffffffffffffffffffffffffffffffffffffffffff0016911515919091179055565b60008082611b2457506000905080611b80565b6000611b2f86611101565b905080611b43576000809250925050611b80565b6000858211611b5b57611b568683611ebe565b611b65565b611b658287611ebe565b90506000611b7783610c728885611f09565b94505050841090505b935093915050565b60095481565b60015473ffffffffffffffffffffffffffffffffffffffff163314611c1457604080517f08c379a000000000000000000000000000000000000000000000000000000000815260206004820152601560248201527f476f7665726e61626c653a20666f7262696464656e0000000000000000000000604482015290519081900360640190fd5b600180547fffffffffffffffffffffffff00000000000000000000000000000000000000001673ffffffffffffffffffffffffffffffffffffffff92909216919091179055565b60015473ffffffffffffffffffffffffffffffffffffffff163314611ce157604080517f08c379a000000000000000000000000000000000000000000000000000000000815260206004820152601560248201527f476f7665726e61626c653a20666f7262696464656e0000000000000000000000604482015290519081900360640190fd5b600380547fffffffffffffffffffffffff00000000000000000000000000000000000000001673ffffffffffffffffffffffffffffffffffffffff92909216919091179055565b600080611d34836106e9565b90506000600560009054906101000a900473ffffffffffffffffffffffffffffffffffffffff1673ffffffffffffffffffffffffffffffffffffffff166318160ddd6040518163ffffffff1660e01b815260040160206040518083038186803b158015611da057600080fd5b505afa158015611db4573d6000803e3d6000fd5b505050506040513d6020811015611dca57600080fd5b5051905080611dde57600092505050610f0c565b611df481610c7284670de0b6b3a7640000611f09565b949350505050565b604080516002808252606080830184529283929190602083019080368337019050509050611e2a60016106e9565b81600081518110611e3757fe5b602002602001018181525050611e4d60006106e9565b81600181518110611e5a57fe5b6020908102919091010152905090565b60045473ffffffffffffffffffffffffffffffffffffffff1681565b60025473ffffffffffffffffffffffffffffffffffffffff1681565b60055473ffffffffffffffffffffffffffffffffffffffff1681565b6000611f0083836040518060400160405280601e81526020017f536166654d6174683a207375627472616374696f6e206f766572666c6f770000815250612a6c565b90505b92915050565b600082611f1857506000611f03565b82820282848281611f2557fe5b0414611f00576040517f08c379a0000000000000000000000000000000000000000000000000000000008152600401808060200182810382526021815260200180612f556021913960400191505060405180910390fd5b6000611f0083836040518060400160405280601a81526020017f536166654d6174683a206469766973696f6e206279207a65726f000000000000815250612b1d565b600082820183811015611f0057604080517f08c379a000000000000000000000000000000000000000000000000000000000815260206004820152601b60248201527f536166654d6174683a206164646974696f6e206f766572666c6f770000000000604482015290519081900360640190fd5b336000908152600c602052604090205460ff166120b057604080517f08c379a000000000000000000000000000000000000000000000000000000000815260206004820152601560248201527f5a6c704d616e616765723a20666f7262696464656e0000000000000000000000604482015290519081900360640190fd5b565b600080841161212257604080517f08c379a000000000000000000000000000000000000000000000000000000000815260206004820152601b60248201527f5a6c704d616e616765723a20696e76616c6964205f616d6f756e740000000000604482015290519081900360640190fd5b600061212e6001611611565b90506000600560009054906101000a900473ffffffffffffffffffffffffffffffffffffffff1673ffffffffffffffffffffffffffffffffffffffff166318160ddd6040518163ffffffff1660e01b815260040160206040518083038186803b15801561219a57600080fd5b505afa1580156121ae573d6000803e3d6000fd5b505050506040513d60208110156121c457600080fd5b50516002549091506121f29073ffffffffffffffffffffffffffffffffffffffff898116918c911689612b9c565b600254604080517f817bb85700000000000000000000000000000000000000000000000000000000815273ffffffffffffffffffffffffffffffffffffffff8a811660048301523060248301529151600093929092169163817bb8579160448082019260209290919082900301818787803b15801561227057600080fd5b505af1158015612284573d6000803e3d6000fd5b505050506040513d602081101561229a57600080fd5b50519050858110156122f7576040517f08c379a0000000000000000000000000000000000000000000000000000000008152600401808060200182810382526024815260200180612f766024913960400191505060405180910390fd5b600083156123125761230d84610c728486611f09565b612314565b815b90508581101561236f576040517f08c379a0000000000000000000000000000000000000000000000000000000008152600401808060200182810382526023815260200180612f326023913960400191505060405180910390fd5b600554604080517f40c10f1900000000000000000000000000000000000000000000000000000000815273ffffffffffffffffffffffffffffffffffffffff8d8116600483015260248201859052915191909216916340c10f1991604480830192600092919082900301818387803b1580156123ea57600080fd5b505af11580156123fe573d6000803e3d6000fd5b50505073ffffffffffffffffffffffffffffffffffffffff808c166000818152600760209081526040918290204290558151928352928d16928201929092528082018b9052606081018790526080810186905260a0810185905260c0810184905290517f38dc38b96482be64113daffd8d464ebda93e856b70ccfc605e69ccf892ab981e92509081900360e00190a19a9950505050505050505050565b600080841161250b57604080517f08c379a000000000000000000000000000000000000000000000000000000000815260206004820152601e60248201527f5a6c704d616e616765723a20696e76616c6964205f7a6c70416d6f756e740000604482015290519081900360640190fd5b60065473ffffffffffffffffffffffffffffffffffffffff871660009081526007602052604090205442916125409190611fbe565b1115612597576040517f08c379a000000000000000000000000000000000000000000000000000000000815260040180806020018281038252602c815260200180612f06602c913960400191505060405180910390fd5b60006125a36000611611565b90506000600560009054906101000a900473ffffffffffffffffffffffffffffffffffffffff1673ffffffffffffffffffffffffffffffffffffffff166318160ddd6040518163ffffffff1660e01b815260040160206040518083038186803b15801561260f57600080fd5b505afa158015612623573d6000803e3d6000fd5b505050506040513d602081101561263957600080fd5b50519050600061264d82610c728986611f09565b60048054604080517f70a0823100000000000000000000000000000000000000000000000000000000815230938101939093525192935060009273ffffffffffffffffffffffffffffffffffffffff909116916370a08231916024808301926020929190829003018186803b1580156126c557600080fd5b505afa1580156126d9573d6000803e3d6000fd5b505050506040513d60208110156126ef57600080fd5b50519050808211156127905760045473ffffffffffffffffffffffffffffffffffffffff166340c10f19306127248585611ebe565b6040518363ffffffff1660e01b8152600401808373ffffffffffffffffffffffffffffffffffffffff16815260200182815260200192505050600060405180830381600087803b15801561277757600080fd5b505af115801561278b573d6000803e3d6000fd5b505050505b600554604080517f9dc29fac00000000000000000000000000000000000000000000000000000000815273ffffffffffffffffffffffffffffffffffffffff8d81166004830152602482018c905291519190921691639dc29fac91604480830192600092919082900301818387803b15801561280b57600080fd5b505af115801561281f573d6000803e3d6000fd5b505060048054600254604080517fa9059cbb00000000000000000000000000000000000000000000000000000000815273ffffffffffffffffffffffffffffffffffffffff9283169481019490945260248401889052519116935063a9059cbb925060448083019260209291908290030181600087803b1580156128a257600080fd5b505af11580156128b6573d6000803e3d6000fd5b505050506040513d60208110156128cc57600080fd5b5050600254604080517f711e619000000000000000000000000000000000000000000000000000000000815273ffffffffffffffffffffffffffffffffffffffff8c8116600483015289811660248301529151600093929092169163711e61909160448082019260209290919082900301818787803b15801561294e57600080fd5b505af1158015612962573d6000803e3d6000fd5b505050506040513d602081101561297857600080fd5b50519050878110156129eb57604080517f08c379a000000000000000000000000000000000000000000000000000000000815260206004820152601f60248201527f5a6c704d616e616765723a20696e73756666696369656e74206f757470757400604482015290519081900360640190fd5b6040805173ffffffffffffffffffffffffffffffffffffffff808e1682528c1660208201528082018b9052606081018790526080810186905260a0810185905260c0810183905290517f87b9679bb9a4944bafa98c267e7cd4a00ab29fed48afdefae25f0fca5da279409181900360e00190a19a9950505050505050505050565b60008184841115612b15576040517f08c379a00000000000000000000000000000000000000000000000000000000081526004018080602001828103825283818151815260200191508051906020019080838360005b83811015612ada578181015183820152602001612ac2565b50505050905090810190601f168015612b075780820380516001836020036101000a031916815260200191505b509250505060405180910390fd5b505050900390565b60008183612b86576040517f08c379a0000000000000000000000000000000000000000000000000000000008152602060048201818152835160248401528351909283926044909101919085019080838360008315612ada578181015183820152602001612ac2565b506000838581612b9257fe5b0495945050505050565b6040805173ffffffffffffffffffffffffffffffffffffffff80861660248301528416604482015260648082018490528251808303909101815260849091019091526020810180517bffffffffffffffffffffffffffffffffffffffffffffffffffffffff167f23b872dd00000000000000000000000000000000000000000000000000000000179052612c31908590612c37565b50505050565b6060612c99826040518060400160405280602081526020017f5361666545524332303a206c6f772d6c6576656c2063616c6c206661696c65648152508573ffffffffffffffffffffffffffffffffffffffff16612d149092919063ffffffff16565b805190915015612d0f57808060200190516020811015612cb857600080fd5b5051612d0f576040517f08c379a000000000000000000000000000000000000000000000000000000000815260040180806020018281038252602a815260200180612fbf602a913960400191505060405180910390fd5b505050565b6060611df4848460008585612d2885612e7f565b612d9357604080517f08c379a000000000000000000000000000000000000000000000000000000000815260206004820152601d60248201527f416464726573733a2063616c6c20746f206e6f6e2d636f6e7472616374000000604482015290519081900360640190fd5b600060608673ffffffffffffffffffffffffffffffffffffffff1685876040518082805190602001908083835b60208310612dfd57805182527fffffffffffffffffffffffffffffffffffffffffffffffffffffffffffffffe09092019160209182019101612dc0565b6001836020036101000a03801982511681845116808217855250505050505090500191505060006040518083038185875af1925050503d8060008114612e5f576040519150601f19603f3d011682016040523d82523d6000602084013e612e64565b606091505b5091509150612e74828286612e85565b979650505050505050565b3b151590565b60608315612e94575081611642565b825115612ea45782518084602001fd5b6040517f08c379a0000000000000000000000000000000000000000000000000000000008152602060048201818152845160248401528451859391928392604401919085019080838360008315612ada578181015183820152602001612ac256fe5a6c704d616e616765723a20636f6f6c646f776e206475726174696f6e206e6f7420796574207061737365645a6c704d616e616765723a20696e73756666696369656e74205a4c50206f7574707574536166654d6174683a206d756c7469706c69636174696f6e206f766572666c6f775a6c704d616e616765723a20696e73756666696369656e742055534447206f75747075745a6c704d616e616765723a20696e76616c6964205f636f6f6c646f776e4475726174696f6e5361666545524332303a204552433230206f7065726174696f6e20646964206e6f742073756363656564a2646970667358221220d4458661b821946cce06b6b5a678ba5ced0b544b12e4f7f4175b00080407d7dc64736f6c634300060c003360806040523480156200001157600080fd5b50604080518082019091526005808252642a37b5b2b760d91b6020909201918252620000409160039162000083565b50604080518082019091526005808252642a27a5a2a760d91b60209092019182526200006f9160049162000083565b506005805460ff191660121790556200011f565b828054600181600116156101000203166002900490600052602060002090601f016020900481019282601f10620000c657805160ff1916838001178555620000f6565b82800160010185558215620000f6579182015b82811115620000f6578251825591602001919060010190620000d9565b506200010492915062000108565b5090565b5b8082111562000104576000815560010162000109565b6111e4806200012f6000396000f3fe6080604052600436106100e85760003560e01c8063395093511161008a578063a457c2d711610059578063a457c2d7146103d0578063a9059cbb14610416578063d0e30db01461045c578063dd62ed3e14610464576100e8565b806339509351146102ef57806340c10f191461033557806370a082311461037b57806395d89b41146103bb576100e8565b806318160ddd116100c657806318160ddd1461022357806323b872dd1461024a5780632e1a7d4d1461029a578063313ce567146102c4576100e8565b806301e33667146100ed57806306fdde031461013f578063095ea7b3146101c9575b600080fd5b3480156100f957600080fd5b5061013d6004803603606081101561011057600080fd5b5073ffffffffffffffffffffffffffffffffffffffff8135811691602081013590911690604001356104ac565b005b34801561014b57600080fd5b5061015461054e565b6040805160208082528351818301528351919283929083019185019080838360005b8381101561018e578181015183820152602001610176565b50505050905090810190601f1680156101bb5780820380516001836020036101000a031916815260200191505b509250505060405180910390f35b3480156101d557600080fd5b5061020f600480360360408110156101ec57600080fd5b5073ffffffffffffffffffffffffffffffffffffffff8135169060200135610602565b604080519115158252519081900360200190f35b34801561022f57600080fd5b5061023861061f565b60408051918252519081900360200190f35b34801561025657600080fd5b5061020f6004803603606081101561026d57600080fd5b5073ffffffffffffffffffffffffffffffffffffffff813581169160208101359091169060400135610625565b3480156102a657600080fd5b5061013d600480360360208110156102bd57600080fd5b50356106c6565b3480156102d057600080fd5b506102d961077f565b6040805160ff9092168252519081900360200190f35b3480156102fb57600080fd5b5061020f6004803603604081101561031257600080fd5b5073ffffffffffffffffffffffffffffffffffffffff8135169060200135610788565b34801561034157600080fd5b5061013d6004803603604081101561035857600080fd5b5073ffffffffffffffffffffffffffffffffffffffff81351690602001356107e3565b34801561038757600080fd5b506102386004803603602081101561039e57600080fd5b503573ffffffffffffffffffffffffffffffffffffffff166107ed565b3480156103c757600080fd5b50610154610815565b3480156103dc57600080fd5b5061020f600480360360408110156103f357600080fd5b5073ffffffffffffffffffffffffffffffffffffffff8135169060200135610894565b34801561042257600080fd5b5061020f6004803603604081101561043957600080fd5b5073ffffffffffffffffffffffffffffffffffffffff8135169060200135610909565b61013d61091d565b34801561047057600080fd5b506102386004803603604081101561048757600080fd5b5073ffffffffffffffffffffffffffffffffffffffff81358116916020013516610929565b8273ffffffffffffffffffffffffffffffffffffffff1663a9059cbb83836040518363ffffffff1660e01b8152600401808373ffffffffffffffffffffffffffffffffffffffff16815260200182815260200192505050602060405180830381600087803b15801561051d57600080fd5b505af1158015610531573d6000803e3d6000fd5b505050506040513d602081101561054757600080fd5b5050505050565b60038054604080516020601f60027fffffffffffffffffffffffffffffffffffffffffffffffffffffffffffffffff6101006001881615020190951694909404938401819004810282018101909252828152606093909290918301828280156105f85780601f106105cd576101008083540402835291602001916105f8565b820191906000526020600020905b8154815290600101906020018083116105db57829003601f168201915b5050505050905090565b600061061661060f610961565b8484610965565b50600192915050565b60025490565b6000610632848484610aac565b6106bc8461063e610961565b6106b7856040518060600160405280602881526020016110f86028913973ffffffffffffffffffffffffffffffffffffffff8a16600090815260016020526040812090610689610961565b73ffffffffffffffffffffffffffffffffffffffff1681526020810191909152604001600020549190610c7c565b610965565b5060019392505050565b3360009081526020819052604090205481111561074457604080517f08c379a000000000000000000000000000000000000000000000000000000000815260206004820152601b60248201527f546f6b656e3a20696e73756666696369656e742062616c616e63650000000000604482015290519081900360640190fd5b61074e3382610d2d565b604051339082156108fc029083906000818181858888f1935050505015801561077b573d6000803e3d6000fd5b5050565b60055460ff1690565b6000610616610795610961565b846106b785600160006107a6610961565b73ffffffffffffffffffffffffffffffffffffffff908116825260208083019390935260409182016000908120918c168152925290205490610e77565b61077b8282610ef2565b73ffffffffffffffffffffffffffffffffffffffff1660009081526020819052604090205490565b60048054604080516020601f60027fffffffffffffffffffffffffffffffffffffffffffffffffffffffffffffffff6101006001881615020190951694909404938401819004810282018101909252828152606093909290918301828280156105f85780601f106105cd576101008083540402835291602001916105f8565b60006106166108a1610961565b846106b78560405180606001604052806025815260200161118a60259139600160006108cb610961565b73ffffffffffffffffffffffffffffffffffffffff908116825260208083019390935260409182016000908120918d16815292529020549190610c7c565b6000610616610916610961565b8484610aac565b6109273334610ef2565b565b73ffffffffffffffffffffffffffffffffffffffff918216600090815260016020908152604080832093909416825291909152205490565b3390565b73ffffffffffffffffffffffffffffffffffffffff83166109d1576040517f08c379a00000000000000000000000000000000000000000000000000000000081526004018080602001828103825260248152602001806111666024913960400191505060405180910390fd5b73ffffffffffffffffffffffffffffffffffffffff8216610a3d576040517f08c379a00000000000000000000000000000000000000000000000000000000081526004018080602001828103825260228152602001806110b06022913960400191505060405180910390fd5b73ffffffffffffffffffffffffffffffffffffffff808416600081815260016020908152604080832094871680845294825291829020859055815185815291517f8c5be1e5ebec7d5bd14f71427d1e84f3dd0314c0f7b2291e5b200ac8c7c3b9259281900390910190a3505050565b73ffffffffffffffffffffffffffffffffffffffff8316610b18576040517f08c379a00000000000000000000000000000000000000000000000000000000081526004018080602001828103825260258152602001806111416025913960400191505060405180910390fd5b73ffffffffffffffffffffffffffffffffffffffff8216610b84576040517f08c379a000000000000000000000000000000000000000000000000000000000815260040180806020018281038252602381526020018061106b6023913960400191505060405180910390fd5b610b8f838383611023565b610bd9816040518060600160405280602681526020016110d26026913973ffffffffffffffffffffffffffffffffffffffff86166000908152602081905260409020549190610c7c565b73ffffffffffffffffffffffffffffffffffffffff8085166000908152602081905260408082209390935590841681522054610c159082610e77565b73ffffffffffffffffffffffffffffffffffffffff8084166000818152602081815260409182902094909455805185815290519193928716927fddf252ad1be2c89b69c2b068fc378daa952ba7f163c4a11628f55a4df523b3ef92918290030190a3505050565b60008184841115610d25576040517f08c379a00000000000000000000000000000000000000000000000000000000081526004018080602001828103825283818151815260200191508051906020019080838360005b83811015610cea578181015183820152602001610cd2565b50505050905090810190601f168015610d175780820380516001836020036101000a031916815260200191505b509250505060405180910390fd5b505050900390565b73ffffffffffffffffffffffffffffffffffffffff8216610d99576040517f08c379a00000000000000000000000000000000000000000000000000000000081526004018080602001828103825260218152602001806111206021913960400191505060405180910390fd5b610da582600083611023565b610def8160405180606001604052806022815260200161108e6022913973ffffffffffffffffffffffffffffffffffffffff85166000908152602081905260409020549190610c7c565b73ffffffffffffffffffffffffffffffffffffffff8316600090815260208190526040902055600254610e229082611028565b60025560408051828152905160009173ffffffffffffffffffffffffffffffffffffffff8516917fddf252ad1be2c89b69c2b068fc378daa952ba7f163c4a11628f55a4df523b3ef9181900360200190a35050565b600082820183811015610eeb57604080517f08c379a000000000000000000000000000000000000000000000000000000000815260206004820152601b60248201527f536166654d6174683a206164646974696f6e206f766572666c6f770000000000604482015290519081900360640190fd5b9392505050565b73ffffffffffffffffffffffffffffffffffffffff8216610f7457604080517f08c379a000000000000000000000000000000000000000000000000000000000815260206004820152601f60248201527f45524332303a206d696e7420746f20746865207a65726f206164647265737300604482015290519081900360640190fd5b610f8060008383611023565b600254610f8d9082610e77565b60025573ffffffffffffffffffffffffffffffffffffffff8216600090815260208190526040902054610fc09082610e77565b73ffffffffffffffffffffffffffffffffffffffff83166000818152602081815260408083209490945583518581529351929391927fddf252ad1be2c89b69c2b068fc378daa952ba7f163c4a11628f55a4df523b3ef9281900390910190a35050565b505050565b6000610eeb83836040518060400160405280601e81526020017f536166654d6174683a207375627472616374696f6e206f766572666c6f770000815250610c7c56fe45524332303a207472616e7366657220746f20746865207a65726f206164647265737345524332303a206275726e20616d6f756e7420657863656564732062616c616e636545524332303a20617070726f766520746f20746865207a65726f206164647265737345524332303a207472616e7366657220616d6f756e7420657863656564732062616c616e636545524332303a207472616e7366657220616d6f756e74206578636565647320616c6c6f77616e636545524332303a206275726e2066726f6d20746865207a65726f206164647265737345524332303a207472616e736665722066726f6d20746865207a65726f206164647265737345524332303a20617070726f76652066726f6d20746865207a65726f206164647265737345524332303a2064656372656173656420616c6c6f77616e63652062656c6f77207a65726fa264697066735822122008742af50315129dfe796fada2f4a1ba2d178f1d7268d02bbb96755944aacccf64736f6c634300060c003360806040523480156200001157600080fd5b50604051620011d1380380620011d1833981810160405260608110156200003757600080fd5b81019080805160405193929190846401000000008211156200005857600080fd5b9083019060208201858111156200006e57600080fd5b82516401000000008111828201881017156200008957600080fd5b82525081516020918201929091019080838360005b83811015620000b85781810151838201526020016200009e565b50505050905090810190601f168015620000e65780820380516001836020036101000a031916815260200191505b50604052602001805160405193929190846401000000008211156200010a57600080fd5b9083019060208201858111156200012057600080fd5b82516401000000008111828201881017156200013b57600080fd5b82525081516020918201929091019080838360005b838110156200016a57818101518382015260200162000150565b50505050905090810190601f168015620001985780820380516001836020036101000a031916815260200191505b506040526020908101518551909350620001b99250600191860190620001ed565b508151620001cf906002906020850190620001ed565b506003805460ff191660ff9290921691909117905550620002899050565b828054600181600116156101000203166002900490600052602060002090601f016020900481019282601f106200023057805160ff191683800117855562000260565b8280016001018555821562000260579182015b828111156200026057825182559160200191906001019062000243565b506200026e92915062000272565b5090565b5b808211156200026e576000815560010162000273565b610f3880620002996000396000f3fe6080604052600436106100dd5760003560e01c806340c10f191161007f578063a457c2d711610059578063a457c2d714610375578063a9059cbb146103bb578063d0e30db014610401578063dd62ed3e14610409576100dd565b806340c10f19146102da57806370a082311461032057806395d89b4114610360576100dd565b806323b872dd116100bb57806323b872dd146101ed5780632e1a7d4d1461023d578063313ce567146102695780633950935114610294576100dd565b806306fdde03146100e2578063095ea7b31461016c57806318160ddd146101c6575b600080fd5b3480156100ee57600080fd5b506100f7610451565b6040805160208082528351818301528351919283929083019185019080838360005b83811015610131578181015183820152602001610119565b50505050905090810190601f16801561015e5780820380516001836020036101000a031916815260200191505b509250505060405180910390f35b34801561017857600080fd5b506101b26004803603604081101561018f57600080fd5b5073ffffffffffffffffffffffffffffffffffffffff8135169060200135610504565b604080519115158252519081900360200190f35b3480156101d257600080fd5b506101db610521565b60408051918252519081900360200190f35b3480156101f957600080fd5b506101b26004803603606081101561021057600080fd5b5073ffffffffffffffffffffffffffffffffffffffff813581169160208101359091169060400135610527565b34801561024957600080fd5b506102676004803603602081101561026057600080fd5b50356105c8565b005b34801561027557600080fd5b5061027e610640565b6040805160ff9092168252519081900360200190f35b3480156102a057600080fd5b506101b2600480360360408110156102b757600080fd5b5073ffffffffffffffffffffffffffffffffffffffff8135169060200135610649565b3480156102e657600080fd5b50610267600480360360408110156102fd57600080fd5b5073ffffffffffffffffffffffffffffffffffffffff81351690602001356106a4565b34801561032c57600080fd5b506101db6004803603602081101561034357600080fd5b503573ffffffffffffffffffffffffffffffffffffffff166106ae565b34801561036c57600080fd5b506100f76106d6565b34801561038157600080fd5b506101b26004803603604081101561039857600080fd5b5073ffffffffffffffffffffffffffffffffffffffff8135169060200135610752565b3480156103c757600080fd5b506101b2600480360360408110156103de57600080fd5b5073ffffffffffffffffffffffffffffffffffffffff81351690602001356107c7565b6102676107db565b34801561041557600080fd5b506101db6004803603604081101561042c57600080fd5b5073ffffffffffffffffffffffffffffffffffffffff81358116916020013516610807565b60018054604080516020601f60027fffffffffffffffffffffffffffffffffffffffffffffffffffffffffffffffff61010087891615020190951694909404938401819004810282018101909252828152606093909290918301828280156104fa5780601f106104cf576101008083540402835291602001916104fa565b820191906000526020600020905b8154815290600101906020018083116104dd57829003601f168201915b5050505050905090565b600061051861051161083f565b8484610843565b50600192915050565b60005490565b600061053484848461098a565b6105be8461054061083f565b6105b985604051806060016040528060288152602001610e6d6028913973ffffffffffffffffffffffffffffffffffffffff8a1660009081526005602052604081209061058b61083f565b73ffffffffffffffffffffffffffffffffffffffff1681526020810191909152604001600020549190610b5c565b610843565b5060019392505050565b336000908152600460205260409020548111156105e457600080fd5b336000908152600460205260409020546105fe9082610c0d565b33600081815260046020526040808220939093559151909183156108fc02918491818181858888f1935050505015801561063c573d6000803e3d6000fd5b5050565b60035460ff1690565b600061051861065661083f565b846105b9856005600061066761083f565b73ffffffffffffffffffffffffffffffffffffffff908116825260208083019390935260409182016000908120918c168152925290205490610c56565b61063c8282610cca565b73ffffffffffffffffffffffffffffffffffffffff1660009081526004602052604090205490565b60028054604080516020601f7fffffffffffffffffffffffffffffffffffffffffffffffffffffffffffffffff61010060018716150201909416859004938401819004810282018101909252828152606093909290918301828280156104fa5780601f106104cf576101008083540402835291602001916104fa565b600061051861075f61083f565b846105b985604051806060016040528060258152602001610ede602591396005600061078961083f565b73ffffffffffffffffffffffffffffffffffffffff908116825260208083019390935260409182016000908120918d16815292529020549190610b5c565b60006105186107d461083f565b848461098a565b336000908152600460205260409020546107f59034610c56565b33600090815260046020526040902055565b73ffffffffffffffffffffffffffffffffffffffff918216600090815260056020908152604080832093909416825291909152205490565b3390565b73ffffffffffffffffffffffffffffffffffffffff83166108af576040517f08c379a0000000000000000000000000000000000000000000000000000000008152600401808060200182810382526024815260200180610eba6024913960400191505060405180910390fd5b73ffffffffffffffffffffffffffffffffffffffff821661091b576040517f08c379a0000000000000000000000000000000000000000000000000000000008152600401808060200182810382526022815260200180610e256022913960400191505060405180910390fd5b73ffffffffffffffffffffffffffffffffffffffff808416600081815260056020908152604080832094871680845294825291829020859055815185815291517f8c5be1e5ebec7d5bd14f71427d1e84f3dd0314c0f7b2291e5b200ac8c7c3b9259281900390910190a3505050565b73ffffffffffffffffffffffffffffffffffffffff83166109f6576040517f08c379a0000000000000000000000000000000000000000000000000000000008152600401808060200182810382526025815260200180610e956025913960400191505060405180910390fd5b73ffffffffffffffffffffffffffffffffffffffff8216610a62576040517f08c379a0000000000000000000000000000000000000000000000000000000008152600401808060200182810382526023815260200180610e026023913960400191505060405180910390fd5b610a6d838383610dfc565b610ab781604051806060016040528060268152602001610e476026913973ffffffffffffffffffffffffffffffffffffffff86166000908152600460205260409020549190610b5c565b73ffffffffffffffffffffffffffffffffffffffff8085166000908152600460205260408082209390935590841681522054610af39082610c56565b73ffffffffffffffffffffffffffffffffffffffff80841660008181526004602090815260409182902094909455805185815290519193928716927fddf252ad1be2c89b69c2b068fc378daa952ba7f163c4a11628f55a4df523b3ef92918290030190a3505050565b60008184841115610c05576040517f08c379a00000000000000000000000000000000000000000000000000000000081526004018080602001828103825283818151815260200191508051906020019080838360005b83811015610bca578181015183820152602001610bb2565b50505050905090810190601f168015610bf75780820380516001836020036101000a031916815260200191505b509250505060405180910390fd5b505050900390565b6000610c4f83836040518060400160405280601e81526020017f536166654d6174683a207375627472616374696f6e206f766572666c6f770000815250610b5c565b9392505050565b600082820183811015610c4f57604080517f08c379a000000000000000000000000000000000000000000000000000000000815260206004820152601b60248201527f536166654d6174683a206164646974696f6e206f766572666c6f770000000000604482015290519081900360640190fd5b73ffffffffffffffffffffffffffffffffffffffff8216610d4c57604080517f08c379a000000000000000000000000000000000000000000000000000000000815260206004820152601f60248201527f45524332303a206d696e7420746f20746865207a65726f206164647265737300604482015290519081900360640190fd5b610d5860008383610dfc565b600054610d659082610c56565b600090815573ffffffffffffffffffffffffffffffffffffffff8316815260046020526040902054610d979082610c56565b73ffffffffffffffffffffffffffffffffffffffff831660008181526004602090815260408083209490945583518581529351929391927fddf252ad1be2c89b69c2b068fc378daa952ba7f163c4a11628f55a4df523b3ef9281900390910190a35050565b50505056fe45524332303a207472616e7366657220746f20746865207a65726f206164647265737345524332303a20617070726f766520746f20746865207a65726f206164647265737345524332303a207472616e7366657220616d6f756e7420657863656564732062616c616e636545524332303a207472616e7366657220616d6f756e74206578636565647320616c6c6f77616e636545524332303a207472616e736665722066726f6d20746865207a65726f206164647265737345524332303a20617070726f76652066726f6d20746865207a65726f206164647265737345524332303a2064656372656173656420616c6c6f77616e63652062656c6f77207a65726fa2646970667358221220827a488ca4457a19c7b235251cd741096ef2b6e18d6fd04d9f5457b6077410cb64736f6c634300060c003360806040526000805460ff60a81b191681556010553480156200002157600080fd5b5060405162003be538038062003be5833981810160405260e08110156200004757600080fd5b508051602082015160408301516060840151608085015160a086015160c090960151600080546001600160a01b031916331790559495939492939192909190610708871115620000c95760405162461bcd60e51b815260040180806020018281038252602581526020018062003bc06025913960400191505060405180910390fd5b600796909655600894909455600b92909255600e55600280546001600160a01b039283166001600160a01b031991821617909155600380549383169382169390931790925560048054919093169116179055613a95806200012b6000396000f3fe608060405234801561001057600080fd5b50600436106103d05760003560e01c806372279ba1116101ff578063b3606b561161011a578063d6a153f1116100ad578063e64559ad1161007c578063e64559ad14610f87578063e68a22c014610f8f578063eeaa783a14610f97578063f90ce5ba14610f9f576103d0565b8063d6a153f114610f28578063d925351a14610f45578063de0d1b9414610f62578063dfb481c914610f7f576103d0565b8063cab44b76116100e9578063cab44b7614610e2b578063ce98dfa814610ea3578063cfad57a214610ec2578063cfed246b14610ef5576103d0565b8063b3606b5614610cd7578063b70c7b7014610cdf578063c8390a4814610cfc578063c84a912414610e23576103d0565b8063807c978211610192578063a2b47c1611610161578063a2b47c1614610c8c578063a374242514610c94578063a6eca89614610cc7578063b0a2566614610ccf576103d0565b8063807c9782146104dd57806382553aad14610c4a5780638b7677f414610c6757806395082d2514610c84576103d0565b80637cb2b79c116101ce5780637cb2b79c14610a755780637df73e2714610aa85780637fbc79c614610adb5780637fece36814610c09576103d0565b806372279ba1146108ce57806374bfed8914610927578063776d16c11461092f578063782661bc1461094c576103d0565b8063392e53cd116102ef57806354aea12711610282578063695d418411610251578063695d4184146108835780636c56fd051461088b5780636ccd47c4146108be578063715c7536146108c6576103d0565b806354aea12714610830578063574ec1be1461083857806361ef161f14610873578063668d3d651461087b576103d0565b80634c0e31c8116102be5780634c0e31c81461069c5780634d11fb4a146107c35780634f64b2be146107e05780634fdfb086146107fd576103d0565b8063392e53cd1461066f5780633aa08f861461067757806344c231931461067f5780634bd66c1c146104dd576103d0565b8063162ac4e011610367578063287800c911610336578063287800c9146106075780632a709b141461060f5780632e9cd94b1461061757806331cb610514610634576103d0565b8063162ac4e01461054357806317835d1c146105765780631a15339114610599578063238aafb7146105d4576103d0565b80630e9272ea116103a35780630e9272ea146104e5578063126082cf1461051657806312d43a511461051e57806314dd2dce14610526576103d0565b806303b04936146103d557806303cd25711461041c57806303f4d7dc146104365780630604ddea146104dd575b600080fd5b610408600480360360208110156103eb57600080fd5b503573ffffffffffffffffffffffffffffffffffffffff16610fa7565b604080519115158252519081900360200190f35b610424610fbc565b60408051918252519081900360200190f35b6104db6004803603604081101561044c57600080fd5b81019060208101813564010000000081111561046757600080fd5b82018360208201111561047957600080fd5b8035906020019184602083028401116401000000008311171561049b57600080fd5b9190808060200260200160405190810160405280939291908181526020018383602002808284376000920191909152509295505091359250610fc2915050565b005b610424611180565b6104ed611188565b6040805173ffffffffffffffffffffffffffffffffffffffff9092168252519081900360200190f35b6104246111a4565b6104ed6111aa565b6104db6004803603602081101561053c57600080fd5b50356111c6565b6104db6004803603602081101561055957600080fd5b503573ffffffffffffffffffffffffffffffffffffffff16611251565b6104db6004803603604081101561058c57600080fd5b508035906020013561131e565b6104db600480360360408110156105af57600080fd5b5073ffffffffffffffffffffffffffffffffffffffff813516906020013515156113a6565b6104db600480360360208110156105ea57600080fd5b503573ffffffffffffffffffffffffffffffffffffffff16611482565b61042461154f565b6104ed611555565b6104db6004803603602081101561062d57600080fd5b5035611571565b6104db6004803603604081101561064a57600080fd5b5073ffffffffffffffffffffffffffffffffffffffff813516906020013515156115fc565b6104086116d8565b6104246116f9565b6104db6004803603602081101561069557600080fd5b50356116ff565b6104db600480360360408110156106b257600080fd5b8101906020810181356401000000008111156106cd57600080fd5b8201836020820111156106df57600080fd5b8035906020019184602083028401116401000000008311171561070157600080fd5b919080806020026020016040519081016040528093929190818152602001838360200280828437600092019190915250929594936020810193503591505064010000000081111561075157600080fd5b82018360208201111561076357600080fd5b8035906020019184602083028401116401000000008311171561078557600080fd5b9190808060200260200160405190810160405280939291908181526020018383602002808284376000920191909152509295506117e5945050505050565b610424600480360360208110156107d957600080fd5b50356118d6565b6104ed600480360360208110156107f657600080fd5b50356118f4565b6104086004803603602081101561081357600080fd5b503573ffffffffffffffffffffffffffffffffffffffff16611928565b61042461193d565b6104db600480360360c081101561084e57600080fd5b5080359060208101359060408101359060608101359060808101359060a00135611943565b6104ed611bfb565b610424611c17565b610408611c1d565b610408600480360360208110156108a157600080fd5b503573ffffffffffffffffffffffffffffffffffffffff16611c3f565b6104db611ce9565b610424611e60565b610901600480360360208110156108e457600080fd5b503573ffffffffffffffffffffffffffffffffffffffff16611e66565b604080519485526020850193909352838301919091526060830152519081900360800190f35b610424611f30565b6104db6004803603602081101561094557600080fd5b5035611f36565b6104db6004803603606081101561096257600080fd5b81019060208101813564010000000081111561097d57600080fd5b82018360208201111561098f57600080fd5b803590602001918460208302840111640100000000831117156109b157600080fd5b9190808060200260200160405190810160405280939291908181526020018383602002808284376000920191909152509295949360208101935035915050640100000000811115610a0157600080fd5b820183602082011115610a1357600080fd5b80359060200191846020830284011164010000000083111715610a3557600080fd5b9190808060200260200160405190810160405280939291908181526020018383602002808284376000920191909152509295505091359250611fc1915050565b6104db60048036036020811015610a8b57600080fd5b503573ffffffffffffffffffffffffffffffffffffffff166120c8565b61040860048036036020811015610abe57600080fd5b503573ffffffffffffffffffffffffffffffffffffffff16612195565b6104db60048036036060811015610af157600080fd5b81359190810190604081016020820135640100000000811115610b1357600080fd5b820183602082011115610b2557600080fd5b80359060200191846020830284011164010000000083111715610b4757600080fd5b9190808060200260200160405190810160405280939291908181526020018383602002808284376000920191909152509295949360208101935035915050640100000000811115610b9757600080fd5b820183602082011115610ba957600080fd5b80359060200191846020830284011164010000000083111715610bcb57600080fd5b9190808060200260200160405190810160405280939291908181526020018383602002808284376000920191909152509295506121aa945050505050565b61042460048036036060811015610c1f57600080fd5b5073ffffffffffffffffffffffffffffffffffffffff813516906020810135906040013515156123e9565b6104db60048036036020811015610c6057600080fd5b5035612413565b6104db60048036036020811015610c7d57600080fd5b503561249e565b610424612529565b61042461253a565b61042460048036036020811015610caa57600080fd5b503573ffffffffffffffffffffffffffffffffffffffff16612541565b610424612553565b610424612559565b61042461255f565b6104db60048036036020811015610cf557600080fd5b5035612565565b6104db60048036036040811015610d1257600080fd5b810190602081018135640100000000811115610d2d57600080fd5b820183602082011115610d3f57600080fd5b80359060200191846020830284011164010000000083111715610d6157600080fd5b9190808060200260200160405190810160405280939291908181526020018383602002808284376000920191909152509295949360208101935035915050640100000000811115610db157600080fd5b820183602082011115610dc357600080fd5b80359060200191846020830284011164010000000083111715610de557600080fd5b9190808060200260200160405190810160405280939291908181526020018383602002808284376000920191909152509295506125f0945050505050565b6104db61270d565b610e5e60048036036020811015610e4157600080fd5b503573ffffffffffffffffffffffffffffffffffffffff16612889565b6040805173ffffffffffffffffffffffffffffffffffffffff909516855263ffffffff9384166020860152918316848301529091166060830152519081900360800190f35b6104db60048036036020811015610eb957600080fd5b50351515612914565b6104db60048036036020811015610ed857600080fd5b503573ffffffffffffffffffffffffffffffffffffffff166129e5565b61042460048036036020811015610f0b57600080fd5b503573ffffffffffffffffffffffffffffffffffffffff16612ab2565b6104db60048036036020811015610f3e57600080fd5b5035612ac4565b6104db60048036036020811015610f5b57600080fd5b5035612b4f565b6104db60048036036020811015610f7857600080fd5b5035612bda565b610424612c65565b610424612c6b565b610424612c71565b6104ed612c89565b610424612ca5565b60166020526000908152604090205460ff1681565b60075481565b3360009081526011602052604090205460ff1661104057604080517f08c379a000000000000000000000000000000000000000000000000000000000815260206004820152601860248201527f466173745072696365466565643a20666f7262696464656e0000000000000000604482015290519081900360640190fd5b600061104b82612cab565b9050801561117a5760025460015473ffffffffffffffffffffffffffffffffffffffff918216911660005b855181101561117657600086828151811061108d57fe5b6020026020010151905060005b600881101561116c576017546008840282019081106110bf575050505050505061117c565b60178054602084029185831c63ffffffff1691600091906008890287019081106110e557fe5b60009182526020822001546018805473ffffffffffffffffffffffffffffffffffffffff90921693509060088a02880190811061111e57fe5b6000918252602082200154915061114c82611146866c0c9f2c9cd04674edea40000000612e05565b90612e81565b905061115a83828c8e612ec3565b50506001909401935061109a92505050565b5050600101611076565b5050505b505b5050565b63ffffffff81565b60025473ffffffffffffffffffffffffffffffffffffffff1681565b61271081565b60005473ffffffffffffffffffffffffffffffffffffffff1681565b60005473ffffffffffffffffffffffffffffffffffffffff16331461124c57604080517f08c379a000000000000000000000000000000000000000000000000000000000815260206004820152601560248201527f476f7665726e61626c653a20666f7262696464656e0000000000000000000000604482015290519081900360640190fd5b600555565b60005473ffffffffffffffffffffffffffffffffffffffff1633146112d757604080517f08c379a000000000000000000000000000000000000000000000000000000000815260206004820152601560248201527f476f7665726e61626c653a20666f7262696464656e0000000000000000000000604482015290519081900360640190fd5b600280547fffffffffffffffffffffffff00000000000000000000000000000000000000001673ffffffffffffffffffffffffffffffffffffffff92909216919091179055565b3360009081526011602052604090205460ff1661139c57604080517f08c379a000000000000000000000000000000000000000000000000000000000815260206004820152601860248201527f466173745072696365466565643a20666f7262696464656e0000000000000000604482015290519081900360640190fd5b61117c82826131c0565b60005473ffffffffffffffffffffffffffffffffffffffff16331461142c57604080517f08c379a000000000000000000000000000000000000000000000000000000000815260206004820152601560248201527f476f7665726e61626c653a20666f7262696464656e0000000000000000000000604482015290519081900360640190fd5b73ffffffffffffffffffffffffffffffffffffffff91909116600090815260116020526040902080547fffffffffffffffffffffffffffffffffffffffffffffffffffffffffffffff0016911515919091179055565b60005473ffffffffffffffffffffffffffffffffffffffff16331461150857604080517f08c379a000000000000000000000000000000000000000000000000000000000815260206004820152601560248201527f476f7665726e61626c653a20666f7262696464656e0000000000000000000000604482015290519081900360640190fd5b600180547fffffffffffffffffffffffff00000000000000000000000000000000000000001673ffffffffffffffffffffffffffffffffffffffff92909216919091179055565b600f5481565b60035473ffffffffffffffffffffffffffffffffffffffff1681565b60035473ffffffffffffffffffffffffffffffffffffffff1633146115f757604080517f08c379a000000000000000000000000000000000000000000000000000000000815260206004820152601860248201527f466173745072696365466565643a20666f7262696464656e0000000000000000604482015290519081900360640190fd5b600d55565b60005473ffffffffffffffffffffffffffffffffffffffff16331461168257604080517f08c379a000000000000000000000000000000000000000000000000000000000815260206004820152601560248201527f476f7665726e61626c653a20666f7262696464656e0000000000000000000000604482015290519081900360640190fd5b73ffffffffffffffffffffffffffffffffffffffff91909116600090815260156020526040902080547fffffffffffffffffffffffffffffffffffffffffffffffffffffffffffffff0016911515919091179055565b60005474010000000000000000000000000000000000000000900460ff1681565b600c5481565b60005473ffffffffffffffffffffffffffffffffffffffff16331461178557604080517f08c379a000000000000000000000000000000000000000000000000000000000815260206004820152601560248201527f476f7665726e61626c653a20666f7262696464656e0000000000000000000000604482015290519081900360640190fd5b6107088111156117e0576040517f08c379a000000000000000000000000000000000000000000000000000000000815260040180806020018281038252602581526020018061391b6025913960400191505060405180910390fd5b600755565b60035473ffffffffffffffffffffffffffffffffffffffff16331461186b57604080517f08c379a000000000000000000000000000000000000000000000000000000000815260206004820152601860248201527f466173745072696365466565643a20666f7262696464656e0000000000000000604482015290519081900360640190fd5b60005b825181101561117a57600083828151811061188557fe5b6020026020010151905082828151811061189b57fe5b60209081029190910181015173ffffffffffffffffffffffffffffffffffffffff90921660009081526014909152604090205560010161186e565b601881815481106118e357fe5b600091825260209091200154905081565b6017818154811061190157fe5b60009182526020909120015473ffffffffffffffffffffffffffffffffffffffff16905081565b60116020526000908152604090205460ff1681565b60055481565b3360009081526011602052604090205460ff166119c157604080517f08c379a000000000000000000000000000000000000000000000000000000000815260206004820152601860248201527f466173745072696365466565643a20666f7262696464656e0000000000000000604482015290519081900360640190fd5b6119cb86866131c0565b60048054604080517f9b578620000000000000000000000000000000000000000000000000000000008152905173ffffffffffffffffffffffffffffffffffffffff90921692600092611a709287928692639b578620928083019260209291829003018186803b158015611a3e57600080fd5b505afa158015611a52573d6000803e3d6000fd5b505050506040513d6020811015611a6857600080fd5b5051906132b1565b90506000611abe848473ffffffffffffffffffffffffffffffffffffffff16631bca8cf06040518163ffffffff1660e01b815260040160206040518083038186803b158015611a3e57600080fd5b905081871115611acc578196505b80861115611ad8578095505b604080517f9a20810000000000000000000000000000000000000000000000000000000000815260048101899052336024820152905173ffffffffffffffffffffffffffffffffffffffff851691639a20810091604480830192600092919082900301818387803b158015611b4c57600080fd5b505af1158015611b60573d6000803e3d6000fd5b5050604080517ff3883d8b000000000000000000000000000000000000000000000000000000008152600481018a9052336024820152905173ffffffffffffffffffffffffffffffffffffffff8716935063f3883d8b9250604480830192600092919082900301818387803b158015611bd857600080fd5b505af1158015611bec573d6000803e3d6000fd5b50505050505050505050505050565b60045473ffffffffffffffffffffffffffffffffffffffff1681565b61070881565b6000547501000000000000000000000000000000000000000000900460ff1681565b600080547501000000000000000000000000000000000000000000900460ff1615611c6c57506000611ce4565b600f5460105410611c7f57506000611ce4565b600080611c8b84611e66565b9350935050508181118015611ccd575073ffffffffffffffffffffffffffffffffffffffff8416600090815260146020526040902054611ccb8284613325565b115b15611cdd57600092505050611ce4565b6001925050505b919050565b3360009081526015602052604090205460ff16611d6757604080517f08c379a000000000000000000000000000000000000000000000000000000000815260206004820152601860248201527f466173745072696365466565643a20666f7262696464656e0000000000000000604482015290519081900360640190fd5b3360009081526016602052604090205460ff16611de557604080517f08c379a000000000000000000000000000000000000000000000000000000000815260206004820152601e60248201527f466173745072696365466565643a20616c726561647920656e61626c65640000604482015290519081900360640190fd5b33600090815260166020526040902080547fffffffffffffffffffffffffffffffffffffffffffffffffffffffffffffff00169055601054611e28906001613325565b6010556040805133815290517f9fe0c305c33aa92757a537936872a60be0d91549a4303cc99fd8b7fce8a002759181900360200190a1565b600e5481565b600080600080611e746137d6565b5050505073ffffffffffffffffffffffffffffffffffffffff9182166000908152601360209081526040918290208251608081018452905494851680825263ffffffff74010000000000000000000000000000000000000000870481169383018490527801000000000000000000000000000000000000000000000000870481169483018590527c0100000000000000000000000000000000000000000000000000000000909604909516606090910181905293949093919250565b60095481565b60005473ffffffffffffffffffffffffffffffffffffffff163314611fbc57604080517f08c379a000000000000000000000000000000000000000000000000000000000815260206004820152601560248201527f476f7665726e61626c653a20666f7262696464656e0000000000000000000000604482015290519081900360640190fd5b600c55565b3360009081526011602052604090205460ff1661203f57604080517f08c379a000000000000000000000000000000000000000000000000000000000815260206004820152601860248201527f466173745072696365466565643a20666f7262696464656e0000000000000000604482015290519081900360640190fd5b600061204a82612cab565b905080156120c25760025460015473ffffffffffffffffffffffffffffffffffffffff918216911660005b86518110156120be57600087828151811061208c57fe5b602002602001015190506120b5818884815181106120a657fe5b60200260200101518587612ec3565b50600101612075565b5050505b50505050565b60035473ffffffffffffffffffffffffffffffffffffffff16331461214e57604080517f08c379a000000000000000000000000000000000000000000000000000000000815260206004820152601860248201527f466173745072696365466565643a20666f7262696464656e0000000000000000604482015290519081900360640190fd5b600380547fffffffffffffffffffffffff00000000000000000000000000000000000000001673ffffffffffffffffffffffffffffffffffffffff92909216919091179055565b60156020526000908152604090205460ff1681565b60005473ffffffffffffffffffffffffffffffffffffffff16331461223057604080517f08c379a000000000000000000000000000000000000000000000000000000000815260206004820152601560248201527f476f7665726e61626c653a20666f7262696464656e0000000000000000000000604482015290519081900360640190fd5b60005474010000000000000000000000000000000000000000900460ff16156122a4576040517f08c379a0000000000000000000000000000000000000000000000000000000008152600401808060200182810382526022815260200180613a3e6022913960400191505060405180910390fd5b600080547fffffffffffffffffffffff00ffffffffffffffffffffffffffffffffffffffff1674010000000000000000000000000000000000000000178155600f8490555b825181101561236757600083828151811061230057fe5b60209081029190910181015173ffffffffffffffffffffffffffffffffffffffff16600090815260159091526040902080547fffffffffffffffffffffffffffffffffffffffffffffffffffffffffffffff001660019081179091559190910190506122e9565b5060005b81518110156120c257600082828151811061238257fe5b60209081029190910181015173ffffffffffffffffffffffffffffffffffffffff16600090815260119091526040902080547fffffffffffffffffffffffffffffffffffffffffffffffffffffffffffffff0016600190811790915591909101905061236b565b505073ffffffffffffffffffffffffffffffffffffffff1660009081526012602052604090205490565b60035473ffffffffffffffffffffffffffffffffffffffff16331461249957604080517f08c379a000000000000000000000000000000000000000000000000000000000815260206004820152601860248201527f466173745072696365466565643a20666f7262696464656e0000000000000000604482015290519081900360640190fd5b600e55565b60005473ffffffffffffffffffffffffffffffffffffffff16331461252457604080517f08c379a000000000000000000000000000000000000000000000000000000000815260206004820152601560248201527f476f7665726e61626c653a20666f7262696464656e0000000000000000000000604482015290519081900360640190fd5b600855565b6c0c9f2c9cd04674edea4000000081565b6298968081565b60146020526000908152604090205481565b600a5481565b60105481565b600b5481565b60005473ffffffffffffffffffffffffffffffffffffffff1633146125eb57604080517f08c379a000000000000000000000000000000000000000000000000000000000815260206004820152601560248201527f476f7665726e61626c653a20666f7262696464656e0000000000000000000000604482015290519081900360640190fd5b600955565b60005473ffffffffffffffffffffffffffffffffffffffff16331461267657604080517f08c379a000000000000000000000000000000000000000000000000000000000815260206004820152601560248201527f476f7665726e61626c653a20666f7262696464656e0000000000000000000000604482015290519081900360640190fd5b80518251146126e657604080517f08c379a000000000000000000000000000000000000000000000000000000000815260206004820152601e60248201527f466173745072696365466565643a20696e76616c6964206c656e677468730000604482015290519081900360640190fd5b81516126f99060179060208501906137fd565b50805161117a906018906020840190613887565b3360009081526015602052604090205460ff1661278b57604080517f08c379a000000000000000000000000000000000000000000000000000000000815260206004820152601860248201527f466173745072696365466565643a20666f7262696464656e0000000000000000604482015290519081900360640190fd5b3360009081526016602052604090205460ff161561280a57604080517f08c379a000000000000000000000000000000000000000000000000000000000815260206004820152601c60248201527f466173745072696365466565643a20616c726561647920766f74656400000000604482015290519081900360640190fd5b33600090815260166020526040902080547fffffffffffffffffffffffffffffffffffffffffffffffffffffffffffffff00166001908117909155601054612851916132b1565b6010556040805133815290517f4c0c5fabf50e808e3bc8d19577d305e3a7163eea7e8a74a50caa8896694cd44b9181900360200190a1565b60136020526000908152604090205473ffffffffffffffffffffffffffffffffffffffff81169063ffffffff740100000000000000000000000000000000000000008204811691780100000000000000000000000000000000000000000000000081048216917c01000000000000000000000000000000000000000000000000000000009091041684565b60005473ffffffffffffffffffffffffffffffffffffffff16331461299a57604080517f08c379a000000000000000000000000000000000000000000000000000000000815260206004820152601560248201527f476f7665726e61626c653a20666f7262696464656e0000000000000000000000604482015290519081900360640190fd5b600080549115157501000000000000000000000000000000000000000000027fffffffffffffffffffff00ffffffffffffffffffffffffffffffffffffffffff909216919091179055565b60005473ffffffffffffffffffffffffffffffffffffffff163314612a6b57604080517f08c379a000000000000000000000000000000000000000000000000000000000815260206004820152601560248201527f476f7665726e61626c653a20666f7262696464656e0000000000000000000000604482015290519081900360640190fd5b600080547fffffffffffffffffffffffff00000000000000000000000000000000000000001673ffffffffffffffffffffffffffffffffffffffff92909216919091179055565b60126020526000908152604090205481565b60005473ffffffffffffffffffffffffffffffffffffffff163314612b4a57604080517f08c379a000000000000000000000000000000000000000000000000000000000815260206004820152601560248201527f476f7665726e61626c653a20666f7262696464656e0000000000000000000000604482015290519081900360640190fd5b600b55565b60035473ffffffffffffffffffffffffffffffffffffffff163314612bd557604080517f08c379a000000000000000000000000000000000000000000000000000000000815260206004820152601860248201527f466173745072696365466565643a20666f7262696464656e0000000000000000604482015290519081900360640190fd5b600f55565b60005473ffffffffffffffffffffffffffffffffffffffff163314612c6057604080517f08c379a000000000000000000000000000000000000000000000000000000000815260206004820152601560248201527f476f7665726e61626c653a20666f7262696464656e0000000000000000000000604482015290519081900360640190fd5b600a55565b600d5481565b60085481565b73ffffffffffffffffffffffffffffffffffffffff81565b60015473ffffffffffffffffffffffffffffffffffffffff1681565b60065481565b600b5460009015612d1e57600b54600654612cc7904390613325565b1015612d1e576040517f08c379a000000000000000000000000000000000000000000000000000000000815260040180806020018281038252602e8152602001806139e7602e913960400191505060405180910390fd5b600c54612d2b4282613325565b8311612d82576040517f08c379a000000000000000000000000000000000000000000000000000000000815260040180806020018281038252602d8152602001806139ba602d913960400191505060405180910390fd5b612d8c42826132b1565b8310612de3576040517f08c379a000000000000000000000000000000000000000000000000000000000815260040180806020018281038252602f81526020018061396a602f913960400191505060405180910390fd5b600554831015612df7576000915050611ce4565b505060055543600655600190565b600082612e1457506000612e7b565b82820282848281612e2157fe5b0414612e78576040517f08c379a00000000000000000000000000000000000000000000000000000000081526004018080602001828103825260218152602001806139996021913960400191505060405180910390fd5b90505b92915050565b6000612e7883836040518060400160405280601a81526020017f536166654d6174683a206469766973696f6e206279207a65726f000000000000815250613367565b73ffffffffffffffffffffffffffffffffffffffff82161561318d5760008273ffffffffffffffffffffffffffffffffffffffff166356bf9de4866040518263ffffffff1660e01b8152600401808273ffffffffffffffffffffffffffffffffffffffff16815260200191505060206040518083038186803b158015612f4857600080fd5b505afa158015612f5c573d6000803e3d6000fd5b505050506040513d6020811015612f7257600080fd5b505173ffffffffffffffffffffffffffffffffffffffff8616600090815260126020526040812054919250808080612fa98a611e66565b93509350935093506000841115613070576000848711612fd257612fcd8588613325565b612fdc565b612fdc8786613325565b905060008a8711612ff657612ff18b88613325565b613000565b613000878c613325565b9050613017600d5442612e8190919063ffffffff16565b600d54613025908790612e81565b146130335760009350600092505b61304e613047876111468562989680612e05565b85906132b1565b935061306b613064886111468462989680612e05565b84906132b1565b925050505b81811180156130ac575073ffffffffffffffffffffffffffffffffffffffff8a166000908152601460205260409020546130aa8284613325565b115b15613116576040805173ffffffffffffffffffffffffffffffffffffffff8c16815260208101889052808201879052606081018490526080810183905290517fe582322b389ad06b2bbf619cd6da3f16a288ec873ea0fa6df4d72f3d9480b4479181900360a00190a15b6131228a878484613423565b6040805173ffffffffffffffffffffffffffffffffffffffff8c16815260208101889052808201879052606081018490526080810183905290517f23b9387f81fca646aac1dc4487ede045c65f5f7445482906565f01e05afdb3a89181900360a00190a15050505050505b73ffffffffffffffffffffffffffffffffffffffff841660009081526012602052604090208390556120c28185856136bd565b60006131cb82612cab565b9050801561117a5760025460015473ffffffffffffffffffffffffffffffffffffffff918216911660005b6008811015611176576017548190811061321457505050505061117c565b60178054602084029189831c63ffffffff1691600091908690811061323557fe5b60009182526020822001546018805473ffffffffffffffffffffffffffffffffffffffff9092169350908790811061326957fe5b6000918252602082200154915061329182611146866c0c9f2c9cd04674edea40000000612e05565b905061329f83828a8c612ec3565b5050600190940193506131f692505050565b600082820183811015612e7857604080517f08c379a000000000000000000000000000000000000000000000000000000000815260206004820152601b60248201527f536166654d6174683a206164646974696f6e206f766572666c6f770000000000604482015290519081900360640190fd5b6000612e7883836040518060400160405280601e81526020017f536166654d6174683a207375627472616374696f6e206f766572666c6f770000815250613762565b6000818361340d576040517f08c379a00000000000000000000000000000000000000000000000000000000081526004018080602001828103825283818151815260200191508051906020019080838360005b838110156133d25781810151838201526020016133ba565b50505050905090810190601f1680156133ff5780820380516001836020036101000a031916815260200191505b509250505060405180910390fd5b50600083858161341957fe5b0495945050505050565b73ffffffffffffffffffffffffffffffffffffffff83106134a557604080517f08c379a000000000000000000000000000000000000000000000000000000000815260206004820152601f60248201527f466173745072696365466565643a20696e76616c696420726566507269636500604482015290519081900360640190fd5b63ffffffff8210613501576040517f08c379a0000000000000000000000000000000000000000000000000000000008152600401808060200182810382526029815260200180613a156029913960400191505060405180910390fd5b63ffffffff811061355d576040517f08c379a000000000000000000000000000000000000000000000000000000000815260040180806020018281038252602a815260200180613940602a913960400191505060405180910390fd5b6040805160808101825273ffffffffffffffffffffffffffffffffffffffff948516815263ffffffff42811660208084019182529582168385019081529482166060840190815297871660009081526013909652929094209051815492519351965185167c0100000000000000000000000000000000000000000000000000000000027bffffffffffffffffffffffffffffffffffffffffffffffffffffffff9786167801000000000000000000000000000000000000000000000000027fffffffff00000000ffffffffffffffffffffffffffffffffffffffffffffffff9590961674010000000000000000000000000000000000000000027fffffffffffffffff00000000ffffffffffffffffffffffffffffffffffffffff929097167fffffffffffffffffffffffff0000000000000000000000000000000000000000909416939093171694909417919091169190911792909216919091179055565b73ffffffffffffffffffffffffffffffffffffffff83166136dd5761117a565b8273ffffffffffffffffffffffffffffffffffffffff1663e0409c7183836040518363ffffffff1660e01b8152600401808373ffffffffffffffffffffffffffffffffffffffff16815260200182815260200192505050600060405180830381600087803b15801561374e57600080fd5b505af11580156120be573d6000803e3d6000fd5b600081848411156137ce576040517f08c379a00000000000000000000000000000000000000000000000000000000081526020600482018181528351602484015283519092839260449091019190850190808383600083156133d25781810151838201526020016133ba565b505050900390565b60408051608081018252600080825260208201819052918101829052606081019190915290565b828054828255906000526020600020908101928215613877579160200282015b8281111561387757825182547fffffffffffffffffffffffff00000000000000000000000000000000000000001673ffffffffffffffffffffffffffffffffffffffff90911617825560209092019160019091019061381d565b506138839291506138ce565b5090565b8280548282559060005260206000209081019282156138c2579160200282015b828111156138c25782518255916020019190600101906138a7565b50613883929150613905565b5b808211156138835780547fffffffffffffffffffffffff00000000000000000000000000000000000000001681556001016138cf565b5b80821115613883576000815560010161390656fe466173745072696365466565643a20696e76616c6964205f70726963654475726174696f6e466173745072696365466565643a20696e76616c69642063756d756c61746976654661737444656c7461466173745072696365466565643a205f74696d657374616d70206578636565647320616c6c6f7765642072616e6765536166654d6174683a206d756c7469706c69636174696f6e206f766572666c6f77466173745072696365466565643a205f74696d657374616d702062656c6f7720616c6c6f7765642072616e6765466173745072696365466565643a206d696e426c6f636b496e74657276616c206e6f742079657420706173736564466173745072696365466565643a20696e76616c69642063756d756c617469766552656644656c7461466173745072696365466565643a20616c726561647920696e697469616c697a6564a26469706673582212203a160bc9a1b1d11ab5fee9881eb19527ffa9a65890a6edc049a23d55cafb802d64736f6c634300060c0033466173745072696365466565643a20696e76616c6964205f70726963654475726174696f6e60806040523480156200001157600080fd5b506040516200393a3803806200393a833981810160405260408110156200003757600080fd5b81019080805160405193929190846401000000008211156200005857600080fd5b9083019060208201858111156200006e57600080fd5b82516401000000008111828201881017156200008957600080fd5b82525081516020918201929091019080838360005b83811015620000b85781810151838201526020016200009e565b50505050905090810190601f168015620000e65780820380516001836020036101000a031916815260200191505b50604052602001805160405193929190846401000000008211156200010a57600080fd5b9083019060208201858111156200012057600080fd5b82516401000000008111828201881017156200013b57600080fd5b82525081516020918201929091019080838360005b838110156200016a57818101518382015260200162000150565b50505050905090810190601f168015620001985780820380516001836020036101000a031916815260200191505b506040525050600180546001600160a01b03191633179055508151620001c6906002906020850190620001e5565b508051620001dc906003906020840190620001e5565b50505062000281565b828054600181600116156101000203166002900490600052602060002090601f016020900481019282601f106200022857805160ff191683800117855562000258565b8280016001018555821562000258579182015b82811115620002585782518255916020019190600101906200023b565b50620002669291506200026a565b5090565b5b808211156200026657600081556001016200026b565b6136a980620002916000396000f3fe608060405234801561001057600080fd5b50600436106103155760003560e01c806355b6ed5c116101a7578063bfe10928116100ee578063e44b755811610097578063f5fc507611610071578063f5fc507614610b6b578063f76033d314610b73578063f7c618c114610b7b57610315565b8063e44b755814610ac2578063e950342514610afd578063f5d9d63e14610b3057610315565b8063cfad57a2116100c8578063cfad57a214610a4c578063dd62ed3e14610a7f578063dfbaefb114610aba57610315565b8063bfe1092814610a03578063c2a672e014610a0b578063c5fa273014610a4457610315565b8063a318021711610150578063aaf5eb681161012a578063aaf5eb681461098f578063adc9772e14610997578063b89e45b3146109d057610315565b8063a31802171461091b578063a8d936271461094e578063a9059cbb1461095657610315565b8063790b5a6c11610181578063790b5a6c1461088f57806395d89b41146108d85780639cb7de4b146108e057610315565b806355b6ed5c146108025780635a47a1a71461083d57806370a082311461085c57610315565b806323b872dd1161026b5780633e158b0c11610214578063462d0b2e116101ee578063462d0b2e146106e157806346ea87af1461079c578063552ce1dc146107cf57610315565b80633e158b0c14610673578063402914f51461067b57806344a08411146106ae57610315565b80633792def3116102455780633792def314610619578063392e53cd1461064c5780633cd7f7001461065457610315565b806323b872dd1461058557806327e235e3146105c8578063313ce567146105fb57610315565b8063126082cf116102cd57806318160ddd116102a757806318160ddd1461052b5780631d30d5bc146105335780631e83409a1461055257610315565b8063126082cf146104b757806312d43a51146104bf57806313e82e7a146104f057610315565b8063095ea7b3116102fe578063095ea7b3146103dc578063098bf59d1461042957806310c1c1031461047257610315565b806301e336671461031a57806306fdde031461035f575b600080fd5b61035d6004803603606081101561033057600080fd5b5073ffffffffffffffffffffffffffffffffffffffff813581169160208101359091169060400135610b83565b005b610367610c2f565b6040805160208082528351818301528351919283929083019185019080838360005b838110156103a1578181015183820152602001610389565b50505050905090810190601f1680156103ce5780820380516001836020036101000a031916815260200191505b509250505060405180910390f35b610415600480360360408110156103f257600080fd5b5073ffffffffffffffffffffffffffffffffffffffff8135169060200135610cd8565b604080519115158252519081900360200190f35b61035d6004803603608081101561043f57600080fd5b5073ffffffffffffffffffffffffffffffffffffffff813581169160208101358216916040820135916060013516610cef565b6104a56004803603602081101561048857600080fd5b503573ffffffffffffffffffffffffffffffffffffffff16610d85565b60408051918252519081900360200190f35b6104a5610d97565b6104c7610d9d565b6040805173ffffffffffffffffffffffffffffffffffffffff9092168252519081900360200190f35b6104a56004803603604081101561050657600080fd5b5073ffffffffffffffffffffffffffffffffffffffff81358116916020013516610db9565b6104a5610e50565b61035d6004803603602081101561054957600080fd5b50351515610e56565b6104a56004803603602081101561056857600080fd5b503573ffffffffffffffffffffffffffffffffffffffff16610f13565b6104156004803603606081101561059b57600080fd5b5073ffffffffffffffffffffffffffffffffffffffff813581169160208101359091169060400135611003565b6104a5600480360360208110156105de57600080fd5b503573ffffffffffffffffffffffffffffffffffffffff166110aa565b6106036110bc565b6040805160ff9092168252519081900360200190f35b6104a56004803603602081101561062f57600080fd5b503573ffffffffffffffffffffffffffffffffffffffff166110c1565b6104156110d3565b61035d6004803603602081101561066a57600080fd5b503515156110f4565b61035d6111b2565b6104a56004803603602081101561069157600080fd5b503573ffffffffffffffffffffffffffffffffffffffff1661123b565b6104a5600480360360208110156106c457600080fd5b503573ffffffffffffffffffffffffffffffffffffffff166113f5565b61035d600480360360408110156106f757600080fd5b81019060208101813564010000000081111561071257600080fd5b82018360208201111561072457600080fd5b8035906020019184602083028401116401000000008311171561074657600080fd5b9190808060200260200160405190810160405280939291908181526020018383602002808284376000920191909152509295505050903573ffffffffffffffffffffffffffffffffffffffff1691506114079050565b610415600480360360208110156107b257600080fd5b503573ffffffffffffffffffffffffffffffffffffffff1661160a565b6104a5600480360360208110156107e557600080fd5b503573ffffffffffffffffffffffffffffffffffffffff1661161f565b6104a56004803603604081101561081857600080fd5b5073ffffffffffffffffffffffffffffffffffffffff81358116916020013516611631565b61035d6004803603602081101561085357600080fd5b5035151561164e565b6104a56004803603602081101561087257600080fd5b503573ffffffffffffffffffffffffffffffffffffffff16611705565b61035d600480360360808110156108a557600080fd5b5073ffffffffffffffffffffffffffffffffffffffff81358116916020810135821691604082013516906060013561172d565b6103676117b8565b61035d600480360360408110156108f657600080fd5b5073ffffffffffffffffffffffffffffffffffffffff81351690602001351515611831565b6104a56004803603602081101561093157600080fd5b503573ffffffffffffffffffffffffffffffffffffffff1661190d565b6104a561191f565b6104156004803603604081101561096c57600080fd5b5073ffffffffffffffffffffffffffffffffffffffff81351690602001356119ba565b6104a56119c7565b61035d600480360360408110156109ad57600080fd5b5073ffffffffffffffffffffffffffffffffffffffff81351690602001356119d8565b610415600480360360208110156109e657600080fd5b503573ffffffffffffffffffffffffffffffffffffffff16611ac5565b6104c7611ada565b61035d60048036036040811015610a2157600080fd5b5073ffffffffffffffffffffffffffffffffffffffff8135169060200135611af6565b610415611bda565b61035d60048036036020811015610a6257600080fd5b503573ffffffffffffffffffffffffffffffffffffffff16611be8565b6104a560048036036040811015610a9557600080fd5b5073ffffffffffffffffffffffffffffffffffffffff81358116916020013516611cb5565b610415611ced565b61035d60048036036040811015610ad857600080fd5b5073ffffffffffffffffffffffffffffffffffffffff81351690602001351515611cf6565b6104a560048036036020811015610b1357600080fd5b503573ffffffffffffffffffffffffffffffffffffffff16611dd2565b6104a560048036036040811015610b4657600080fd5b5073ffffffffffffffffffffffffffffffffffffffff81358116916020013516611de4565b6104a5611e01565b610415611e07565b6104c7611e16565b60015473ffffffffffffffffffffffffffffffffffffffff163314610c0957604080517f08c379a000000000000000000000000000000000000000000000000000000000815260206004820152601560248201527f476f7665726e61626c653a20666f7262696464656e0000000000000000000000604482015290519081900360640190fd5b610c2a73ffffffffffffffffffffffffffffffffffffffff84168383611e80565b505050565b600280546040805160206001841615610100027fffffffffffffffffffffffffffffffffffffffffffffffffffffffffffffffff01909316849004601f81018490048402820184019092528181529291830182828015610cd05780601f10610ca557610100808354040283529160200191610cd0565b820191906000526020600020905b815481529060010190602001808311610cb357829003601f168201915b505050505081565b6000610ce5338484611f0d565b5060015b92915050565b60026000541415610d6157604080517f08c379a000000000000000000000000000000000000000000000000000000000815260206004820152601f60248201527f5265656e7472616e637947756172643a207265656e7472616e742063616c6c00604482015290519081900360640190fd5b6002600055610d6e612054565b610d7a848484846120d4565b505060016000555050565b600c6020526000908152604090205481565b61271081565b60015473ffffffffffffffffffffffffffffffffffffffff1681565b600060026000541415610e2d57604080517f08c379a000000000000000000000000000000000000000000000000000000000815260206004820152601f60248201527f5265656e7472616e637947756172643a207265656e7472616e742063616c6c00604482015290519081900360640190fd5b6002600055610e3a612054565b610e448383612398565b60016000559392505050565b60085481565b60015473ffffffffffffffffffffffffffffffffffffffff163314610edc57604080517f08c379a000000000000000000000000000000000000000000000000000000000815260206004820152601560248201527f476f7665726e61626c653a20666f7262696464656e0000000000000000000000604482015290519081900360640190fd5b60118054911515610100027fffffffffffffffffffffffffffffffffffffffffffffffffffffffffffff00ff909216919091179055565b600060026000541415610f8757604080517f08c379a000000000000000000000000000000000000000000000000000000000815260206004820152601f60248201527f5265656e7472616e637947756172643a207265656e7472616e742063616c6c00604482015290519081900360640190fd5b600260005560115462010000900460ff1615610fee576040517f08c379a00000000000000000000000000000000000000000000000000000000081526004018080602001828103825260218152602001806135f86021913960400191505060405180910390fd5b610ff83383612398565b600160005592915050565b3360009081526012602052604081205460ff161561102e57611026848484612455565b5060016110a3565b60006110858360405180606001604052806030815260200161359e6030913973ffffffffffffffffffffffffffffffffffffffff88166000908152600a60209081526040808320338452909152902054919061262f565b9050611092853383611f0d565b61109d858585612455565b60019150505b9392505050565b60096020526000908152604090205481565b601281565b600f6020526000908152604090205481565b60015474010000000000000000000000000000000000000000900460ff1681565b60015473ffffffffffffffffffffffffffffffffffffffff16331461117a57604080517f08c379a000000000000000000000000000000000000000000000000000000000815260206004820152601560248201527f476f7665726e61626c653a20666f7262696464656e0000000000000000000000604482015290519081900360640190fd5b6011805491151562010000027fffffffffffffffffffffffffffffffffffffffffffffffffffffffffff00ffff909216919091179055565b6002600054141561122457604080517f08c379a000000000000000000000000000000000000000000000000000000000815260206004820152601f60248201527f5265656e7472616e637947756172643a207265656e7472616e742063616c6c00604482015290519081900360640190fd5b60026000908155611234906126e0565b6001600055565b73ffffffffffffffffffffffffffffffffffffffff81166000908152600c60205260408120548061129357505073ffffffffffffffffffffffffffffffffffffffff81166000908152600d60205260409020546113f0565b60085460048054604080517feded3fda0000000000000000000000000000000000000000000000000000000081529051600093611347936c0c9f2c9cd04674edea400000009373ffffffffffffffffffffffffffffffffffffffff9091169263eded3fda92828101926020929190829003018186803b15801561131557600080fd5b505afa158015611329573d6000803e3d6000fd5b505050506040513d602081101561133f57600080fd5b5051906129b4565b905060006113616113588385612a27565b600b5490612a69565b73ffffffffffffffffffffffffffffffffffffffff87166000908152600e60205260409020549091506113e9906113bd906c0c9f2c9cd04674edea40000000906113b7906113b0908690612add565b88906129b4565b90612a27565b73ffffffffffffffffffffffffffffffffffffffff88166000908152600d602052604090205490612a69565b9450505050505b919050565b600e6020526000908152604090205481565b60015473ffffffffffffffffffffffffffffffffffffffff16331461148d57604080517f08c379a000000000000000000000000000000000000000000000000000000000815260206004820152601560248201527f476f7665726e61626c653a20666f7262696464656e0000000000000000000000604482015290519081900360640190fd5b60015474010000000000000000000000000000000000000000900460ff1615611501576040517f08c379a00000000000000000000000000000000000000000000000000000000081526004018080602001828103825260228152602001806135286022913960400191505060405180910390fd5b600180547fffffffffffffffffffffff00ffffffffffffffffffffffffffffffffffffffff167401000000000000000000000000000000000000000017905560005b82518110156115c157600083828151811061155a57fe5b60209081029190910181015173ffffffffffffffffffffffffffffffffffffffff16600090815260059091526040902080547fffffffffffffffffffffffffffffffffffffffffffffffffffffffffffffff00166001908117909155919091019050611543565b50600480547fffffffffffffffffffffffff00000000000000000000000000000000000000001673ffffffffffffffffffffffffffffffffffffffff9290921691909117905550565b60126020526000908152604090205460ff1681565b60076020526000908152604090205481565b600a60209081526000928352604080842090915290825290205481565b60015473ffffffffffffffffffffffffffffffffffffffff1633146116d457604080517f08c379a000000000000000000000000000000000000000000000000000000000815260206004820152601560248201527f476f7665726e61626c653a20666f7262696464656e0000000000000000000000604482015290519081900360640190fd5b601180547fffffffffffffffffffffffffffffffffffffffffffffffffffffffffffffff0016911515919091179055565b73ffffffffffffffffffffffffffffffffffffffff1660009081526009602052604090205490565b6002600054141561179f57604080517f08c379a000000000000000000000000000000000000000000000000000000000815260206004820152601f60248201527f5265656e7472616e637947756172643a207265656e7472616e742063616c6c00604482015290519081900360640190fd5b60026000556117ac612054565b610d7a84848484612b1f565b6003805460408051602060026001851615610100027fffffffffffffffffffffffffffffffffffffffffffffffffffffffffffffffff0190941693909304601f81018490048402820184019092528181529291830182828015610cd05780601f10610ca557610100808354040283529160200191610cd0565b60015473ffffffffffffffffffffffffffffffffffffffff1633146118b757604080517f08c379a000000000000000000000000000000000000000000000000000000000815260206004820152601560248201527f476f7665726e61626c653a20666f7262696464656e0000000000000000000000604482015290519081900360640190fd5b73ffffffffffffffffffffffffffffffffffffffff91909116600090815260126020526040902080547fffffffffffffffffffffffffffffffffffffffffffffffffffffffffffffff0016911515919091179055565b60106020526000908152604090205481565b6000600460009054906101000a900473ffffffffffffffffffffffffffffffffffffffff1673ffffffffffffffffffffffffffffffffffffffff1663a8d936276040518163ffffffff1660e01b815260040160206040518083038186803b15801561198957600080fd5b505afa15801561199d573d6000803e3d6000fd5b505050506040513d60208110156119b357600080fd5b5051905090565b6000610ce5338484612455565b6c0c9f2c9cd04674edea4000000081565b60026000541415611a4a57604080517f08c379a000000000000000000000000000000000000000000000000000000000815260206004820152601f60248201527f5265656e7472616e637947756172643a207265656e7472616e742063616c6c00604482015290519081900360640190fd5b6002600055601154610100900460ff1615611ab0576040517f08c379a00000000000000000000000000000000000000000000000000000000081526004018080602001828103825260218152602001806135f86021913960400191505060405180910390fd5b611abc33338484612b1f565b50506001600055565b60056020526000908152604090205460ff1681565b60045473ffffffffffffffffffffffffffffffffffffffff1681565b60026000541415611b6857604080517f08c379a000000000000000000000000000000000000000000000000000000000815260206004820152601f60248201527f5265656e7472616e637947756172643a207265656e7472616e742063616c6c00604482015290519081900360640190fd5b6002600055601154610100900460ff1615611bce576040517f08c379a00000000000000000000000000000000000000000000000000000000081526004018080602001828103825260218152602001806135f86021913960400191505060405180910390fd5b611abc338383336120d4565b601154610100900460ff1681565b60015473ffffffffffffffffffffffffffffffffffffffff163314611c6e57604080517f08c379a000000000000000000000000000000000000000000000000000000000815260206004820152601560248201527f476f7665726e61626c653a20666f7262696464656e0000000000000000000000604482015290519081900360640190fd5b600180547fffffffffffffffffffffffff00000000000000000000000000000000000000001673ffffffffffffffffffffffffffffffffffffffff92909216919091179055565b73ffffffffffffffffffffffffffffffffffffffff9182166000908152600a6020908152604080832093909416825291909152205490565b60115460ff1681565b60015473ffffffffffffffffffffffffffffffffffffffff163314611d7c57604080517f08c379a000000000000000000000000000000000000000000000000000000000815260206004820152601560248201527f476f7665726e61626c653a20666f7262696464656e0000000000000000000000604482015290519081900360640190fd5b73ffffffffffffffffffffffffffffffffffffffff91909116600090815260056020526040902080547fffffffffffffffffffffffffffffffffffffffffffffffffffffffffffffff0016911515919091179055565b600d6020526000908152604090205481565b600660209081526000928352604080842090915290825290205481565b600b5481565b60115462010000900460ff1681565b6000600460009054906101000a900473ffffffffffffffffffffffffffffffffffffffff1673ffffffffffffffffffffffffffffffffffffffff1663f7c618c16040518163ffffffff1660e01b815260040160206040518083038186803b15801561198957600080fd5b6040805173ffffffffffffffffffffffffffffffffffffffff8416602482015260448082018490528251808303909101815260649091019091526020810180517bffffffffffffffffffffffffffffffffffffffffffffffffffffffff167fa9059cbb00000000000000000000000000000000000000000000000000000000179052610c2a908490612d2a565b73ffffffffffffffffffffffffffffffffffffffff8316611f79576040517f08c379a000000000000000000000000000000000000000000000000000000000815260040180806020018281038252602c815260200180613413602c913960400191505060405180910390fd5b73ffffffffffffffffffffffffffffffffffffffff8216611fe5576040517f08c379a000000000000000000000000000000000000000000000000000000000815260040180806020018281038252602a8152602001806134dd602a913960400191505060405180910390fd5b73ffffffffffffffffffffffffffffffffffffffff8084166000818152600a6020908152604080832094871680845294825291829020859055815185815291517f8c5be1e5ebec7d5bd14f71427d1e84f3dd0314c0f7b2291e5b200ac8c7c3b9259281900390910190a3505050565b3360009081526012602052604090205460ff166120d257604080517f08c379a000000000000000000000000000000000000000000000000000000000815260206004820152601860248201527f526577617264547261636b65723a20666f7262696464656e0000000000000000604482015290519081900360640190fd5b565b6000821161214357604080517f08c379a000000000000000000000000000000000000000000000000000000000815260206004820152601e60248201527f526577617264547261636b65723a20696e76616c6964205f616d6f756e740000604482015290519081900360640190fd5b73ffffffffffffffffffffffffffffffffffffffff831660009081526005602052604090205460ff166121c1576040517f08c379a00000000000000000000000000000000000000000000000000000000081526004018080602001828103825260248152602001806134b96024913960400191505060405180910390fd5b6121ca846126e0565b73ffffffffffffffffffffffffffffffffffffffff84166000908152600c602052604090205482811015612249576040517f08c379a000000000000000000000000000000000000000000000000000000000815260040180806020018281038252602b8152602001806133e8602b913960400191505060405180910390fd5b6122538184612add565b73ffffffffffffffffffffffffffffffffffffffff8087166000908152600c6020908152604080832094909455600681528382209288168252919091522054838110156122eb576040517f08c379a000000000000000000000000000000000000000000000000000000000815260040180806020018281038252602d815260200180613619602d913960400191505060405180910390fd5b6122f58185612add565b73ffffffffffffffffffffffffffffffffffffffff8088166000908152600660209081526040808320938a16835292815282822093909355600790925290205461233f9085612add565b73ffffffffffffffffffffffffffffffffffffffff861660009081526007602052604090205561236f8685612e02565b61239073ffffffffffffffffffffffffffffffffffffffff86168486611e80565b505050505050565b60006123a3836126e0565b73ffffffffffffffffffffffffffffffffffffffff83166000908152600d60205260408120805491905580156110a3576123fd83826123e0611e16565b73ffffffffffffffffffffffffffffffffffffffff169190611e80565b6040805173ffffffffffffffffffffffffffffffffffffffff861681526020810183905281517f47cee97cb7acd717b3c0aa1435d004cd5b3c8c57d70dbceb4e4458bbd60e39d4929181900390910190a19392505050565b73ffffffffffffffffffffffffffffffffffffffff83166124c1576040517f08c379a000000000000000000000000000000000000000000000000000000000815260040180806020018281038252602d81526020018061354a602d913960400191505060405180910390fd5b73ffffffffffffffffffffffffffffffffffffffff821661252d576040517f08c379a000000000000000000000000000000000000000000000000000000000815260040180806020018281038252602b815260200180613468602b913960400191505060405180910390fd5b60115460ff161561254057612540612054565b61258a816040518060600160405280602e8152602001613646602e913973ffffffffffffffffffffffffffffffffffffffff8616600090815260096020526040902054919061262f565b73ffffffffffffffffffffffffffffffffffffffff80851660009081526009602052604080822093909355908416815220546125c69082612a69565b73ffffffffffffffffffffffffffffffffffffffff80841660008181526009602090815260409182902094909455805185815290519193928716927fddf252ad1be2c89b69c2b068fc378daa952ba7f163c4a11628f55a4df523b3ef92918290030190a3505050565b600081848411156126d8576040517f08c379a00000000000000000000000000000000000000000000000000000000081526004018080602001828103825283818151815260200191508051906020019080838360005b8381101561269d578181015183820152602001612685565b50505050905090810190601f1680156126ca5780820380516001836020036101000a031916815260200191505b509250505060405180910390fd5b505050900390565b6000600460009054906101000a900473ffffffffffffffffffffffffffffffffffffffff1673ffffffffffffffffffffffffffffffffffffffff1663e4fc6b6d6040518163ffffffff1660e01b8152600401602060405180830381600087803b15801561274c57600080fd5b505af1158015612760573d6000803e3d6000fd5b505050506040513d602081101561277657600080fd5b5051600854600b549192509081158015906127915750600083115b156127c3576127bb6127b4836113b7866c0c9f2c9cd04674edea400000006129b4565b8290612a69565b600b81905590505b806127d0575050506129b1565b73ffffffffffffffffffffffffffffffffffffffff8416156129ad5773ffffffffffffffffffffffffffffffffffffffff84166000908152600c6020908152604080832054600e909252822054909190612849906c0c9f2c9cd04674edea40000000906113b790612842908790612add565b85906129b4565b73ffffffffffffffffffffffffffffffffffffffff87166000908152600d60205260408120549192509061287d9083612a69565b73ffffffffffffffffffffffffffffffffffffffff88166000908152600d60209081526040808320849055600e9091529020859055905080158015906128e7575073ffffffffffffffffffffffffffffffffffffffff87166000908152600c602052604090205415155b156129a95773ffffffffffffffffffffffffffffffffffffffff87166000908152600f602052604081205461291c9084612a69565b905061297661292f826113b787876129b4565b73ffffffffffffffffffffffffffffffffffffffff8a166000908152600f60209081526040808320546010909252909120546129709185916113b7916129b4565b90612a69565b73ffffffffffffffffffffffffffffffffffffffff8916600090815260106020908152604080832093909355600f905220555b5050505b5050505b50565b6000826129c357506000610ce9565b828202828482816129d057fe5b04146110a3576040517f08c379a00000000000000000000000000000000000000000000000000000000081526004018080602001828103825260218152602001806135076021913960400191505060405180910390fd5b60006110a383836040518060400160405280601a81526020017f536166654d6174683a206469766973696f6e206279207a65726f000000000000815250612f40565b6000828201838110156110a357604080517f08c379a000000000000000000000000000000000000000000000000000000000815260206004820152601b60248201527f536166654d6174683a206164646974696f6e206f766572666c6f770000000000604482015290519081900360640190fd5b60006110a383836040518060400160405280601e81526020017f536166654d6174683a207375627472616374696f6e206f766572666c6f77000081525061262f565b60008111612b8e57604080517f08c379a000000000000000000000000000000000000000000000000000000000815260206004820152601e60248201527f526577617264547261636b65723a20696e76616c6964205f616d6f756e740000604482015290519081900360640190fd5b73ffffffffffffffffffffffffffffffffffffffff821660009081526005602052604090205460ff16612c0c576040517f08c379a00000000000000000000000000000000000000000000000000000000081526004018080602001828103825260248152602001806134b96024913960400191505060405180910390fd5b612c2e73ffffffffffffffffffffffffffffffffffffffff8316853084612fbf565b612c37836126e0565b73ffffffffffffffffffffffffffffffffffffffff83166000908152600c6020526040902054612c679082612a69565b73ffffffffffffffffffffffffffffffffffffffff8085166000908152600c6020908152604080832094909455600681528382209286168252919091522054612cb09082612a69565b73ffffffffffffffffffffffffffffffffffffffff80851660009081526006602090815260408083209387168352928152828220939093556007909252902054612cfa9082612a69565b73ffffffffffffffffffffffffffffffffffffffff83166000908152600760205260409020556129ad8482613054565b6060612d8c826040518060400160405280602081526020017f5361666545524332303a206c6f772d6c6576656c2063616c6c206661696c65648152508573ffffffffffffffffffffffffffffffffffffffff166131659092919063ffffffff16565b805190915015610c2a57808060200190516020811015612dab57600080fd5b5051610c2a576040517f08c379a000000000000000000000000000000000000000000000000000000000815260040180806020018281038252602a8152602001806135ce602a913960400191505060405180910390fd5b73ffffffffffffffffffffffffffffffffffffffff8216612e6e576040517f08c379a000000000000000000000000000000000000000000000000000000000815260040180806020018281038252602981526020018061343f6029913960400191505060405180910390fd5b612eb8816040518060600160405280602a81526020016133be602a913973ffffffffffffffffffffffffffffffffffffffff8516600090815260096020526040902054919061262f565b73ffffffffffffffffffffffffffffffffffffffff8316600090815260096020526040902055600854612eeb9082612add565b60085560408051828152905160009173ffffffffffffffffffffffffffffffffffffffff8516917fddf252ad1be2c89b69c2b068fc378daa952ba7f163c4a11628f55a4df523b3ef9181900360200190a35050565b60008183612fa9576040517f08c379a000000000000000000000000000000000000000000000000000000000815260206004820181815283516024840152835190928392604490910191908501908083836000831561269d578181015183820152602001612685565b506000838581612fb557fe5b0495945050505050565b6040805173ffffffffffffffffffffffffffffffffffffffff80861660248301528416604482015260648082018490528251808303909101815260849091019091526020810180517bffffffffffffffffffffffffffffffffffffffffffffffffffffffff167f23b872dd000000000000000000000000000000000000000000000000000000001790526129ad908590612d2a565b73ffffffffffffffffffffffffffffffffffffffff82166130c0576040517f08c379a00000000000000000000000000000000000000000000000000000000081526004018080602001828103825260278152602001806135776027913960400191505060405180910390fd5b6008546130cd9082612a69565b60085573ffffffffffffffffffffffffffffffffffffffff82166000908152600960205260409020546131009082612a69565b73ffffffffffffffffffffffffffffffffffffffff831660008181526009602090815260408083209490945583518581529351929391927fddf252ad1be2c89b69c2b068fc378daa952ba7f163c4a11628f55a4df523b3ef9281900390910190a35050565b6060613174848460008561317c565b949350505050565b6060824710156131d7576040517f08c379a00000000000000000000000000000000000000000000000000000000081526004018080602001828103825260268152602001806134936026913960400191505060405180910390fd5b6131e085613337565b61324b57604080517f08c379a000000000000000000000000000000000000000000000000000000000815260206004820152601d60248201527f416464726573733a2063616c6c20746f206e6f6e2d636f6e7472616374000000604482015290519081900360640190fd5b600060608673ffffffffffffffffffffffffffffffffffffffff1685876040518082805190602001908083835b602083106132b557805182527fffffffffffffffffffffffffffffffffffffffffffffffffffffffffffffffe09092019160209182019101613278565b6001836020036101000a03801982511681845116808217855250505050505090500191505060006040518083038185875af1925050503d8060008114613317576040519150601f19603f3d011682016040523d82523d6000602084013e61331c565b606091505b509150915061332c82828661333d565b979650505050505050565b3b151590565b6060831561334c5750816110a3565b82511561335c5782518084602001fd5b6040517f08c379a000000000000000000000000000000000000000000000000000000000815260206004820181815284516024840152845185939192839260440191908501908083836000831561269d57818101518382015260200161268556fe526577617264547261636b65723a206275726e20616d6f756e7420657863656564732062616c616e6365526577617264547261636b65723a205f616d6f756e742065786365656473207374616b6564416d6f756e74526577617264547261636b65723a20617070726f76652066726f6d20746865207a65726f2061646472657373526577617264547261636b65723a206275726e2066726f6d20746865207a65726f2061646472657373526577617264547261636b65723a207472616e7366657220746f20746865207a65726f2061646472657373416464726573733a20696e73756666696369656e742062616c616e636520666f722063616c6c526577617264547261636b65723a20696e76616c6964205f6465706f736974546f6b656e526577617264547261636b65723a20617070726f766520746f20746865207a65726f2061646472657373536166654d6174683a206d756c7469706c69636174696f6e206f766572666c6f77526577617264547261636b65723a20616c726561647920696e697469616c697a6564526577617264547261636b65723a207472616e736665722066726f6d20746865207a65726f2061646472657373526577617264547261636b65723a206d696e7420746f20746865207a65726f2061646472657373526577617264547261636b65723a207472616e7366657220616d6f756e74206578636565647320616c6c6f77616e63655361666545524332303a204552433230206f7065726174696f6e20646964206e6f742073756363656564526577617264547261636b65723a20616374696f6e206e6f7420656e61626c6564526577617264547261636b65723a205f616d6f756e742065786365656473206465706f73697442616c616e6365526577617264547261636b65723a207472616e7366657220616d6f756e7420657863656564732062616c616e6365a2646970667358221220fe2b0f329977e796718fc68ac999789f550edef495485f94df72fa857495eee564736f6c634300060c0033608060405234801561001057600080fd5b50604051610fb5380380610fb58339818101604052604081101561003357600080fd5b50805160209091015160018054336001600160a01b031991821681179092556002805482166001600160a01b03958616179055600580548216949093169390931790915560068054909216179055610f25806100906000396000f3fe608060405234801561001057600080fd5b50600436106100df5760003560e01c806375b173501161008c578063e4fc6b6d11610066578063e4fc6b6d1461020f578063eded3fda14610217578063f7c618c11461021f578063f851a44014610227576100df565b806375b17350146101ba578063a8d93627146101d4578063cfad57a2146101dc576100df565b80633ae6d6eb116100bd5780633ae6d6eb146101775780636bcb411a1461017f578063704b6c0214610187576100df565b806301e33667146100e457806312d43a511461012957806318e20a031461015a575b600080fd5b610127600480360360608110156100fa57600080fd5b5073ffffffffffffffffffffffffffffffffffffffff81358116916020810135909116906040013561022f565b005b6101316102db565b6040805173ffffffffffffffffffffffffffffffffffffffff9092168252519081900360200190f35b6101276004803603602081101561017057600080fd5b50356102f7565b610127610492565b61013161051e565b6101276004803603602081101561019d57600080fd5b503573ffffffffffffffffffffffffffffffffffffffff1661053a565b6101c2610607565b60408051918252519081900360200190f35b6101c261060d565b610127600480360360208110156101f257600080fd5b503573ffffffffffffffffffffffffffffffffffffffff16610613565b6101c26106e0565b6101c2610880565b6101316108c1565b6101316108dd565b60015473ffffffffffffffffffffffffffffffffffffffff1633146102b557604080517f08c379a000000000000000000000000000000000000000000000000000000000815260206004820152601560248201527f476f7665726e61626c653a20666f7262696464656e0000000000000000000000604482015290519081900360640190fd5b6102d673ffffffffffffffffffffffffffffffffffffffff841683836108f9565b505050565b60015473ffffffffffffffffffffffffffffffffffffffff1681565b60065473ffffffffffffffffffffffffffffffffffffffff16331461037d57604080517f08c379a000000000000000000000000000000000000000000000000000000000815260206004820152601c60248201527f5265776172644469737472696275746f723a20666f7262696464656e00000000604482015290519081900360640190fd5b6004546103d5576040517f08c379a000000000000000000000000000000000000000000000000000000000815260040180806020018281038252602f815260200180610e97602f913960400191505060405180910390fd5b600560009054906101000a900473ffffffffffffffffffffffffffffffffffffffff1673ffffffffffffffffffffffffffffffffffffffff16633e158b0c6040518163ffffffff1660e01b8152600401600060405180830381600087803b15801561043f57600080fd5b505af1158015610453573d6000803e3d6000fd5b5050506003829055506040805182815290517f98dc76c39aa5a5dcb749f8750a65db3dfa1e14bcc1591a9c16a7420e5da748f89181900360200190a150565b60065473ffffffffffffffffffffffffffffffffffffffff16331461051857604080517f08c379a000000000000000000000000000000000000000000000000000000000815260206004820152601c60248201527f5265776172644469737472696275746f723a20666f7262696464656e00000000604482015290519081900360640190fd5b42600455565b60055473ffffffffffffffffffffffffffffffffffffffff1681565b60015473ffffffffffffffffffffffffffffffffffffffff1633146105c057604080517f08c379a000000000000000000000000000000000000000000000000000000000815260206004820152601560248201527f476f7665726e61626c653a20666f7262696464656e0000000000000000000000604482015290519081900360640190fd5b600680547fffffffffffffffffffffffff00000000000000000000000000000000000000001673ffffffffffffffffffffffffffffffffffffffff92909216919091179055565b60045481565b60035481565b60015473ffffffffffffffffffffffffffffffffffffffff16331461069957604080517f08c379a000000000000000000000000000000000000000000000000000000000815260206004820152601560248201527f476f7665726e61626c653a20666f7262696464656e0000000000000000000000604482015290519081900360640190fd5b600180547fffffffffffffffffffffffff00000000000000000000000000000000000000001673ffffffffffffffffffffffffffffffffffffffff92909216919091179055565b60055460009073ffffffffffffffffffffffffffffffffffffffff163314610753576040517f08c379a0000000000000000000000000000000000000000000000000000000008152600401808060200182810382526025815260200180610e2b6025913960400191505060405180910390fd5b600061075d610880565b90508061076e57600091505061087d565b426004908155600254604080517f70a0823100000000000000000000000000000000000000000000000000000000815230938101939093525160009273ffffffffffffffffffffffffffffffffffffffff909216916370a08231916024808301926020929190829003018186803b1580156107e857600080fd5b505afa1580156107fc573d6000803e3d6000fd5b505050506040513d602081101561081257600080fd5b5051905080821115610822578091505b6002546108469073ffffffffffffffffffffffffffffffffffffffff1633846108f9565b6040805183815290517f4def474aca53bf221d07d9ab0f675b3f6d8d2494b8427271bcf43c018ef1eead9181900360200190a15090505b90565b60006004544214156108945750600061087d565b60006108ab6004544261098690919063ffffffff16565b6003549091506108bb90826109d1565b91505090565b60025473ffffffffffffffffffffffffffffffffffffffff1681565b60065473ffffffffffffffffffffffffffffffffffffffff1681565b6040805173ffffffffffffffffffffffffffffffffffffffff8416602482015260448082018490528251808303909101815260649091019091526020810180517bffffffffffffffffffffffffffffffffffffffffffffffffffffffff167fa9059cbb000000000000000000000000000000000000000000000000000000001790526102d6908490610a44565b60006109c883836040518060400160405280601e81526020017f536166654d6174683a207375627472616374696f6e206f766572666c6f770000815250610b1c565b90505b92915050565b6000826109e0575060006109cb565b828202828482816109ed57fe5b04146109c8576040517f08c379a0000000000000000000000000000000000000000000000000000000008152600401808060200182810382526021815260200180610e766021913960400191505060405180910390fd5b6060610aa6826040518060400160405280602081526020017f5361666545524332303a206c6f772d6c6576656c2063616c6c206661696c65648152508573ffffffffffffffffffffffffffffffffffffffff16610bd29092919063ffffffff16565b8051909150156102d657808060200190516020811015610ac557600080fd5b50516102d6576040517f08c379a000000000000000000000000000000000000000000000000000000000815260040180806020018281038252602a815260200180610ec6602a913960400191505060405180910390fd5b60008184841115610bc5576040517f08c379a00000000000000000000000000000000000000000000000000000000081526004018080602001828103825283818151815260200191508051906020019080838360005b83811015610b8a578181015183820152602001610b72565b50505050905090810190601f168015610bb75780820380516001836020036101000a031916815260200191505b509250505060405180910390fd5b50508183035b9392505050565b6060610be18484600085610be9565b949350505050565b606082471015610c44576040517f08c379a0000000000000000000000000000000000000000000000000000000008152600401808060200182810382526026815260200180610e506026913960400191505060405180910390fd5b610c4d85610da4565b610cb857604080517f08c379a000000000000000000000000000000000000000000000000000000000815260206004820152601d60248201527f416464726573733a2063616c6c20746f206e6f6e2d636f6e7472616374000000604482015290519081900360640190fd5b600060608673ffffffffffffffffffffffffffffffffffffffff1685876040518082805190602001908083835b60208310610d2257805182527fffffffffffffffffffffffffffffffffffffffffffffffffffffffffffffffe09092019160209182019101610ce5565b6001836020036101000a03801982511681845116808217855250505050505090500191505060006040518083038185875af1925050503d8060008114610d84576040519150601f19603f3d011682016040523d82523d6000602084013e610d89565b606091505b5091509150610d99828286610daa565b979650505050505050565b3b151590565b60608315610db9575081610bcb565b825115610dc95782518084602001fd5b6040517f08c379a0000000000000000000000000000000000000000000000000000000008152602060048201818152845160248401528451859391928392604401919085019080838360008315610b8a578181015183820152602001610b7256fe5265776172644469737472696275746f723a20696e76616c6964206d73672e73656e646572416464726573733a20696e73756666696369656e742062616c616e636520666f722063616c6c536166654d6174683a206d756c7469706c69636174696f6e206f766572666c6f775265776172644469737472696275746f723a20696e76616c6964206c617374446973747269627574696f6e54696d655361666545524332303a204552433230206f7065726174696f6e20646964206e6f742073756363656564a2646970667358221220f635862eb9a3832d87ff7a8f35ded68101dea9f80c0ae08f5fae0fba83c6509064736f6c634300060c0033608060405234801561001057600080fd5b50600180546001600160a01b0319163317905561468c806100326000396000f3fe6080604052600436106101a55760003560e01c8063b6556599116100e1578063d294f0931161008a578063e7cf6c1011610064578063e7cf6c10146107a8578063ec4ee1c0146107dc578063ef9aacfd146107f1578063fe9fe7201461083157610232565b8063d294f09314610730578063d6bf66c214610745578063e1b9db891461076857610232565b8063cca30c31116100bb578063cca30c3114610568578063cfad57a2146105bc578063d106f13a146105fc57610232565b8063b6556599146104a3578063b7699816146104b8578063c8cfba391461051657610232565b8063392e53cd1161014e578063655603a411610128578063655603a4146103de578063822ac2211461041e57806382de00721461044857806384347a331461048e57610232565b8063392e53cd1461038b5780633fc8cef3146103b45780634e71d92d146103c957610232565b806312d43a511161017f57806312d43a51146102ef57806317988a6a14610304578063358764761461031957610232565b806301e336671461023757806302486e081461028757806303a24399146102c557610232565b366102325760025473ffffffffffffffffffffffffffffffffffffffff16331461023057604080517f08c379a000000000000000000000000000000000000000000000000000000000815260206004820152601660248201527f526f757465723a20696e76616c69642073656e64657200000000000000000000604482015290519081900360640190fd5b005b600080fd5b34801561024357600080fd5b506102306004803603606081101561025a57600080fd5b5073ffffffffffffffffffffffffffffffffffffffff813581169160208101359091169060400135610846565b34801561029357600080fd5b5061029c6108f2565b6040805173ffffffffffffffffffffffffffffffffffffffff9092168252519081900360200190f35b3480156102d157600080fd5b50610230600480360360208110156102e857600080fd5b503561090e565b3480156102fb57600080fd5b5061029c6109b4565b34801561031057600080fd5b5061029c6109d0565b34801561032557600080fd5b50610230600480360360e081101561033c57600080fd5b5073ffffffffffffffffffffffffffffffffffffffff8135811691602081013582169160408201358116916060810135821691608082013581169160a081013582169160c090910135166109ec565b34801561039757600080fd5b506103a0610bca565b604080519115158252519081900360200190f35b3480156103c057600080fd5b5061029c610beb565b3480156103d557600080fd5b50610230610c07565b3480156103ea57600080fd5b506102306004803603602081101561040157600080fd5b503573ffffffffffffffffffffffffffffffffffffffff16610e82565b34801561042a57600080fd5b506102306004803603602081101561044157600080fd5b503561191d565b34801561045457600080fd5b506102306004803603604081101561046b57600080fd5b5073ffffffffffffffffffffffffffffffffffffffff81351690602001356119b9565b34801561049a57600080fd5b5061029c611ae6565b3480156104af57600080fd5b5061029c611b02565b3480156104c457600080fd5b50610504600480360360608110156104db57600080fd5b508035906020810135906040013573ffffffffffffffffffffffffffffffffffffffff16611b1e565b60408051918252519081900360200190f35b34801561052257600080fd5b506105046004803603608081101561053957600080fd5b5073ffffffffffffffffffffffffffffffffffffffff8135169060208101359060408101359060600135611f21565b34801561057457600080fd5b506105046004803603608081101561058b57600080fd5b5073ffffffffffffffffffffffffffffffffffffffff813581169160208101359160408201359160600135166125c7565b3480156105c857600080fd5b50610230600480360360208110156105df57600080fd5b503573ffffffffffffffffffffffffffffffffffffffff1661291e565b34801561060857600080fd5b506102306004803603604081101561061f57600080fd5b81019060208101813564010000000081111561063a57600080fd5b82018360208201111561064c57600080fd5b8035906020019184602083028401116401000000008311171561066e57600080fd5b91908080602002602001604051908101604052809392919081815260200183836020028082843760009201919091525092959493602081019350359150506401000000008111156106be57600080fd5b8201836020820111156106d057600080fd5b803590602001918460208302840111640100000000831117156106f257600080fd5b9190808060200260200160405190810160405280939291908181526020018383602002808284376000920191909152509295506129eb945050505050565b34801561073c57600080fd5b50610230612b47565b6105046004803603604081101561075b57600080fd5b5080359060200135612c3e565b34801561077457600080fd5b5061029c6004803603602081101561078b57600080fd5b503573ffffffffffffffffffffffffffffffffffffffff166132bc565b3480156107b457600080fd5b50610230600480360360408110156107cb57600080fd5b5080351515906020013515156132e4565b3480156107e857600080fd5b5061029c613579565b3480156107fd57600080fd5b506102306004803603602081101561081457600080fd5b503573ffffffffffffffffffffffffffffffffffffffff16613595565b34801561083d57600080fd5b5061029c61366e565b60015473ffffffffffffffffffffffffffffffffffffffff1633146108cc57604080517f08c379a000000000000000000000000000000000000000000000000000000000815260206004820152601560248201527f476f7665726e61626c653a20666f7262696464656e0000000000000000000000604482015290519081900360640190fd5b6108ed73ffffffffffffffffffffffffffffffffffffffff8416838361368a565b505050565b60035473ffffffffffffffffffffffffffffffffffffffff1681565b6002600054141561098057604080517f08c379a000000000000000000000000000000000000000000000000000000000815260206004820152601f60248201527f5265656e7472616e637947756172643a207265656e7472616e742063616c6c00604482015290519081900360640190fd5b60026000556003546109ac903390819073ffffffffffffffffffffffffffffffffffffffff1684613717565b506001600055565b60015473ffffffffffffffffffffffffffffffffffffffff1681565b60065473ffffffffffffffffffffffffffffffffffffffff1681565b60015473ffffffffffffffffffffffffffffffffffffffff163314610a7257604080517f08c379a000000000000000000000000000000000000000000000000000000000815260206004820152601560248201527f476f7665726e61626c653a20666f7262696464656e0000000000000000000000604482015290519081900360640190fd5b60015474010000000000000000000000000000000000000000900460ff1615610ae6576040517f08c379a00000000000000000000000000000000000000000000000000000000081526004018080602001828103825260218152602001806144ec6021913960400191505060405180910390fd5b60018054740100000000000000000000000000000000000000007fffffffffffffffffffffff00ffffffffffffffffffffffffffffffffffffffff909116179055600280547fffffffffffffffffffffffff000000000000000000000000000000000000000090811673ffffffffffffffffffffffffffffffffffffffff998a1617909155600380548216978916979097179096556004805487169588169590951790945560058054861693871693909317909255600780548516918616919091179055600680548416918516919091179055600880549092169216919091179055565b60015474010000000000000000000000000000000000000000900460ff1681565b60025473ffffffffffffffffffffffffffffffffffffffff1681565b60026000541415610c7957604080517f08c379a000000000000000000000000000000000000000000000000000000000815260206004820152601f60248201527f5265656e7472616e637947756172643a207265656e7472616e742063616c6c00604482015290519081900360640190fd5b60026000908155600754604080517f13e82e7a0000000000000000000000000000000000000000000000000000000081523360048201819052602482018190529151919373ffffffffffffffffffffffffffffffffffffffff909316926313e82e7a926044808401936020939083900390910190829087803b158015610cfe57600080fd5b505af1158015610d12573d6000803e3d6000fd5b505050506040513d6020811015610d2857600080fd5b5050600554604080517f13e82e7a00000000000000000000000000000000000000000000000000000000815273ffffffffffffffffffffffffffffffffffffffff848116600483018190526024830152915191909216916313e82e7a9160448083019260209291908290030181600087803b158015610da657600080fd5b505af1158015610dba573d6000803e3d6000fd5b505050506040513d6020811015610dd057600080fd5b5050600654604080517f13e82e7a00000000000000000000000000000000000000000000000000000000815273ffffffffffffffffffffffffffffffffffffffff848116600483018190526024830152915191909216916313e82e7a9160448083019260209291908290030181600087803b158015610e4e57600080fd5b505af1158015610e62573d6000803e3d6000fd5b505050506040513d6020811015610e7857600080fd5b5050600160005550565b60026000541415610ef457604080517f08c379a000000000000000000000000000000000000000000000000000000000815260206004820152601f60248201527f5265656e7472616e637947756172643a207265656e7472616e742063616c6c00604482015290519081900360640190fd5b6002600090815573ffffffffffffffffffffffffffffffffffffffff828116825260096020526040909120543391168114610f7a576040517f08c379a00000000000000000000000000000000000000000000000000000000081526004018080602001828103825260248152602001806145336024913960400191505060405180910390fd5b73ffffffffffffffffffffffffffffffffffffffff8216600090815260096020526040902080547fffffffffffffffffffffffff0000000000000000000000000000000000000000169055610fce81613887565b600554600354604080517ff5d9d63e00000000000000000000000000000000000000000000000000000000815273ffffffffffffffffffffffffffffffffffffffff868116600483015292831660248201529051600093929092169163f5d9d63e91604480820192602092909190829003018186803b15801561105057600080fd5b505afa158015611064573d6000803e3d6000fd5b505050506040513d602081101561107a57600080fd5b50519050801561132057600554600354604080517f098bf59d00000000000000000000000000000000000000000000000000000000815273ffffffffffffffffffffffffffffffffffffffff87811660048301529283166024820152604481018590523060648201529051919092169163098bf59d91608480830192600092919082900301818387803b15801561111057600080fd5b505af1158015611124573d6000803e3d6000fd5b5050600354600554604080517f095ea7b300000000000000000000000000000000000000000000000000000000815273ffffffffffffffffffffffffffffffffffffffff928316600482015260248101879052905191909216935063095ea7b3925060448083019260209291908290030181600087803b1580156111a757600080fd5b505af11580156111bb573d6000803e3d6000fd5b505050506040513d60208110156111d157600080fd5b5050600554600354604080517f790b5a6c00000000000000000000000000000000000000000000000000000000815230600482015273ffffffffffffffffffffffffffffffffffffffff86811660248301529283166044820152606481018590529051919092169163790b5a6c91608480830192600092919082900301818387803b15801561125f57600080fd5b505af1158015611273573d6000803e3d6000fd5b5050600554604080517fa9059cbb00000000000000000000000000000000000000000000000000000000815273ffffffffffffffffffffffffffffffffffffffff878116600483015260248201879052915191909216935063a9059cbb925060448083019260209291908290030181600087803b1580156112f357600080fd5b505af1158015611307573d6000803e3d6000fd5b505050506040513d602081101561131d57600080fd5b50505b60075460048054604080517ff5d9d63e00000000000000000000000000000000000000000000000000000000815273ffffffffffffffffffffffffffffffffffffffff88811694820194909452918316602483015251600093929092169163f5d9d63e91604480820192602092909190829003018186803b1580156113a457600080fd5b505afa1580156113b8573d6000803e3d6000fd5b505050506040513d60208110156113ce57600080fd5b50519050801561191257600654600754604080517f098bf59d00000000000000000000000000000000000000000000000000000000815273ffffffffffffffffffffffffffffffffffffffff88811660048301529283166024820152604481018590523060648201529051919092169163098bf59d91608480830192600092919082900301818387803b15801561146457600080fd5b505af1158015611478573d6000803e3d6000fd5b5050600754604080517fa9059cbb00000000000000000000000000000000000000000000000000000000815273ffffffffffffffffffffffffffffffffffffffff898116600483015260248201879052915191909216935063a9059cbb925060448083019260209291908290030181600087803b1580156114f857600080fd5b505af115801561150c573d6000803e3d6000fd5b505050506040513d602081101561152257600080fd5b505060075460048054604080517f098bf59d00000000000000000000000000000000000000000000000000000000815273ffffffffffffffffffffffffffffffffffffffff8981169482019490945291831660248301526044820185905230606483015251919092169163098bf59d91608480830192600092919082900301818387803b1580156115b257600080fd5b505af11580156115c6573d6000803e3d6000fd5b505060048054600754604080517f095ea7b300000000000000000000000000000000000000000000000000000000815273ffffffffffffffffffffffffffffffffffffffff9283169481019490945260248401879052519116935063095ea7b3925060448083019260209291908290030181600087803b15801561164957600080fd5b505af115801561165d573d6000803e3d6000fd5b505050506040513d602081101561167357600080fd5b505060075460048054604080517f790b5a6c000000000000000000000000000000000000000000000000000000008152309381019390935273ffffffffffffffffffffffffffffffffffffffff87811660248501529182166044840152606483018590525192169163790b5a6c9160848082019260009290919082900301818387803b15801561170257600080fd5b505af1158015611716573d6000803e3d6000fd5b5050600754600654604080517f095ea7b300000000000000000000000000000000000000000000000000000000815273ffffffffffffffffffffffffffffffffffffffff928316600482015260248101879052905191909216935063095ea7b3925060448083019260209291908290030181600087803b15801561179957600080fd5b505af11580156117ad573d6000803e3d6000fd5b505050506040513d60208110156117c357600080fd5b5050600654600754604080517f790b5a6c00000000000000000000000000000000000000000000000000000000815230600482015273ffffffffffffffffffffffffffffffffffffffff87811660248301529283166044820152606481018590529051919092169163790b5a6c91608480830192600092919082900301818387803b15801561185157600080fd5b505af1158015611865573d6000803e3d6000fd5b5050600654604080517fa9059cbb00000000000000000000000000000000000000000000000000000000815273ffffffffffffffffffffffffffffffffffffffff888116600483015260248201879052915191909216935063a9059cbb925060448083019260209291908290030181600087803b1580156118e557600080fd5b505af11580156118f9573d6000803e3d6000fd5b505050506040513d602081101561190f57600080fd5b50505b505060016000555050565b6002600054141561198f57604080517f08c379a000000000000000000000000000000000000000000000000000000000815260206004820152601f60248201527f5265656e7472616e637947756172643a207265656e7472616e742063616c6c00604482015290519081900360640190fd5b60026000556003546109ac90339073ffffffffffffffffffffffffffffffffffffffff1683613e48565b60026000541415611a2b57604080517f08c379a000000000000000000000000000000000000000000000000000000000815260206004820152601f60248201527f5265656e7472616e637947756172643a207265656e7472616e742063616c6c00604482015290519081900360640190fd5b600260005560015473ffffffffffffffffffffffffffffffffffffffff163314611ab657604080517f08c379a000000000000000000000000000000000000000000000000000000000815260206004820152601560248201527f476f7665726e61626c653a20666f7262696464656e0000000000000000000000604482015290519081900360640190fd5b600354611add903390849073ffffffffffffffffffffffffffffffffffffffff1684613717565b50506001600055565b60075473ffffffffffffffffffffffffffffffffffffffff1681565b60085473ffffffffffffffffffffffffffffffffffffffff1681565b600060026000541415611b9257604080517f08c379a000000000000000000000000000000000000000000000000000000000815260206004820152601f60248201527f5265656e7472616e637947756172643a207265656e7472616e742063616c6c00604482015290519081900360640190fd5b600260005583611c0357604080517f08c379a000000000000000000000000000000000000000000000000000000000815260206004820181905260248201527f526577617264526f757465723a20696e76616c6964205f7a6c70416d6f756e74604482015290519081900360640190fd5b600654600754604080517f098bf59d000000000000000000000000000000000000000000000000000000008152336004820181905273ffffffffffffffffffffffffffffffffffffffff9384166024830152604482018990526064820181905291519193929092169163098bf59d91608480830192600092919082900301818387803b158015611c9257600080fd5b505af1158015611ca6573d6000803e3d6000fd5b505060075460048054604080517f098bf59d00000000000000000000000000000000000000000000000000000000815273ffffffffffffffffffffffffffffffffffffffff8881169482018590529283166024820152604481018c90526064810193909352519216935063098bf59d925060848082019260009290919082900301818387803b158015611d3857600080fd5b505af1158015611d4c573d6000803e3d6000fd5b5050600854600254604080517f71d597ad00000000000000000000000000000000000000000000000000000000815273ffffffffffffffffffffffffffffffffffffffff87811660048301529283166024820152604481018b9052606481018a90523060848201529051600095509190921692506371d597ad9160a48082019260209290919082900301818787803b158015611de757600080fd5b505af1158015611dfb573d6000803e3d6000fd5b505050506040513d6020811015611e1157600080fd5b5051600254604080517f2e1a7d4d00000000000000000000000000000000000000000000000000000000815260048101849052905192935073ffffffffffffffffffffffffffffffffffffffff90911691632e1a7d4d9160248082019260009290919082900301818387803b158015611e8957600080fd5b505af1158015611e9d573d6000803e3d6000fd5b50611ec29250505073ffffffffffffffffffffffffffffffffffffffff851682613fb6565b6040805173ffffffffffffffffffffffffffffffffffffffff841681526020810188905281517f83ac00acd50a988c92018e2f35631dfbc00d5bd016c5515fe3758877b1499cf8929181900390910190a1600160005595945050505050565b600060026000541415611f9557604080517f08c379a000000000000000000000000000000000000000000000000000000000815260206004820152601f60248201527f5265656e7472616e637947756172643a207265656e7472616e742063616c6c00604482015290519081900360640190fd5b60026000558361200657604080517f08c379a000000000000000000000000000000000000000000000000000000000815260206004820152601d60248201527f526577617264526f757465723a20696e76616c6964205f616d6f756e74000000604482015290519081900360640190fd5b604080517f23b872dd000000000000000000000000000000000000000000000000000000008152336004820181905230602483015260448201879052915173ffffffffffffffffffffffffffffffffffffffff8816916323b872dd9160648083019260209291908290030181600087803b15801561208357600080fd5b505af1158015612097573d6000803e3d6000fd5b505050506040513d60208110156120ad57600080fd5b5050600854604080517f095ea7b300000000000000000000000000000000000000000000000000000000815273ffffffffffffffffffffffffffffffffffffffff92831660048201526024810188905290519188169163095ea7b3916044808201926020929091908290030181600087803b15801561212b57600080fd5b505af115801561213f573d6000803e3d6000fd5b505050506040513d602081101561215557600080fd5b5050600854604080517f17eb2a150000000000000000000000000000000000000000000000000000000081523060048201819052602482015273ffffffffffffffffffffffffffffffffffffffff8981166044830152606482018990526084820188905260a48201879052915160009392909216916317eb2a159160c48082019260209290919082900301818787803b1580156121f157600080fd5b505af1158015612205573d6000803e3d6000fd5b505050506040513d602081101561221b57600080fd5b505160048054600754604080517f095ea7b300000000000000000000000000000000000000000000000000000000815273ffffffffffffffffffffffffffffffffffffffff928316948101949094526024840185905251939450169163095ea7b3916044808201926020929091908290030181600087803b15801561229f57600080fd5b505af11580156122b3573d6000803e3d6000fd5b505050506040513d60208110156122c957600080fd5b505060075460048054604080517f790b5a6c000000000000000000000000000000000000000000000000000000008152309381019390935273ffffffffffffffffffffffffffffffffffffffff86811660248501529182166044840152606483018590525192169163790b5a6c9160848082019260009290919082900301818387803b15801561235857600080fd5b505af115801561236c573d6000803e3d6000fd5b5050600754600654604080517f095ea7b300000000000000000000000000000000000000000000000000000000815273ffffffffffffffffffffffffffffffffffffffff928316600482015260248101879052905191909216935063095ea7b3925060448083019260209291908290030181600087803b1580156123ef57600080fd5b505af1158015612403573d6000803e3d6000fd5b505050506040513d602081101561241957600080fd5b5050600654600754604080517f790b5a6c00000000000000000000000000000000000000000000000000000000815230600482015273ffffffffffffffffffffffffffffffffffffffff86811660248301529283166044820152606481018590529051919092169163790b5a6c91608480830192600092919082900301818387803b1580156124a757600080fd5b505af11580156124bb573d6000803e3d6000fd5b5050600654604080517fa9059cbb00000000000000000000000000000000000000000000000000000000815273ffffffffffffffffffffffffffffffffffffffff878116600483015260248201879052915191909216935063a9059cbb925060448083019260209291908290030181600087803b15801561253b57600080fd5b505af115801561254f573d6000803e3d6000fd5b505050506040513d602081101561256557600080fd5b50506040805173ffffffffffffffffffffffffffffffffffffffff841681526020810183905281517fad93b2f628eda4195b3bf8738da70d1ba23b7061ffa4fe71aaca907e0b128cce929181900390910190a160016000559695505050505050565b60006002600054141561263b57604080517f08c379a000000000000000000000000000000000000000000000000000000000815260206004820152601f60248201527f5265656e7472616e637947756172643a207265656e7472616e742063616c6c00604482015290519081900360640190fd5b6002600055836126ac57604080517f08c379a000000000000000000000000000000000000000000000000000000000815260206004820181905260248201527f526577617264526f757465723a20696e76616c6964205f7a6c70416d6f756e74604482015290519081900360640190fd5b600654600754604080517f098bf59d000000000000000000000000000000000000000000000000000000008152336004820181905273ffffffffffffffffffffffffffffffffffffffff9384166024830152604482018990526064820181905291519193929092169163098bf59d91608480830192600092919082900301818387803b15801561273b57600080fd5b505af115801561274f573d6000803e3d6000fd5b505060075460048054604080517f098bf59d00000000000000000000000000000000000000000000000000000000815273ffffffffffffffffffffffffffffffffffffffff8881169482018590529283166024820152604481018c90526064810193909352519216935063098bf59d925060848082019260009290919082900301818387803b1580156127e157600080fd5b505af11580156127f5573d6000803e3d6000fd5b5050600854604080517f71d597ad00000000000000000000000000000000000000000000000000000000815273ffffffffffffffffffffffffffffffffffffffff86811660048301528b81166024830152604482018b9052606482018a905288811660848301529151600095509190921692506371d597ad9160a48082019260209290919082900301818787803b15801561288f57600080fd5b505af11580156128a3573d6000803e3d6000fd5b505050506040513d60208110156128b957600080fd5b50516040805173ffffffffffffffffffffffffffffffffffffffff851681526020810189905281519293507f83ac00acd50a988c92018e2f35631dfbc00d5bd016c5515fe3758877b1499cf8929081900390910190a160016000559695505050505050565b60015473ffffffffffffffffffffffffffffffffffffffff1633146129a457604080517f08c379a000000000000000000000000000000000000000000000000000000000815260206004820152601560248201527f476f7665726e61626c653a20666f7262696464656e0000000000000000000000604482015290519081900360640190fd5b600180547fffffffffffffffffffffffff00000000000000000000000000000000000000001673ffffffffffffffffffffffffffffffffffffffff92909216919091179055565b60026000541415612a5d57604080517f08c379a000000000000000000000000000000000000000000000000000000000815260206004820152601f60248201527f5265656e7472616e637947756172643a207265656e7472616e742063616c6c00604482015290519081900360640190fd5b600260005560015473ffffffffffffffffffffffffffffffffffffffff163314612ae857604080517f08c379a000000000000000000000000000000000000000000000000000000000815260206004820152601560248201527f476f7665726e61626c653a20666f7262696464656e0000000000000000000000604482015290519081900360640190fd5b60035473ffffffffffffffffffffffffffffffffffffffff1660005b835181101561191257612b3f33858381518110612b1d57fe5b602002602001015184868581518110612b3257fe5b6020026020010151613717565b600101612b04565b60026000541415612bb957604080517f08c379a000000000000000000000000000000000000000000000000000000000815260206004820152601f60248201527f5265656e7472616e637947756172643a207265656e7472616e742063616c6c00604482015290519081900360640190fd5b60026000908155600754604080517f13e82e7a0000000000000000000000000000000000000000000000000000000081523360048201819052602482018190529151919373ffffffffffffffffffffffffffffffffffffffff909316926313e82e7a926044808401936020939083900390910190829087803b158015610e4e57600080fd5b600060026000541415612cb257604080517f08c379a000000000000000000000000000000000000000000000000000000000815260206004820152601f60248201527f5265656e7472616e637947756172643a207265656e7472616e742063616c6c00604482015290519081900360640190fd5b600260005534612d2357604080517f08c379a000000000000000000000000000000000000000000000000000000000815260206004820152601f60248201527f526577617264526f757465723a20696e76616c6964206d73672e76616c756500604482015290519081900360640190fd5b600260009054906101000a900473ffffffffffffffffffffffffffffffffffffffff1673ffffffffffffffffffffffffffffffffffffffff1663d0e30db0346040518263ffffffff1660e01b81526004016000604051808303818588803b158015612d8d57600080fd5b505af1158015612da1573d6000803e3d6000fd5b5050600254600854604080517f095ea7b300000000000000000000000000000000000000000000000000000000815273ffffffffffffffffffffffffffffffffffffffff9283166004820152346024820152905191909216945063095ea7b39350604480830193506020928290030181600087803b158015612e2257600080fd5b505af1158015612e36573d6000803e3d6000fd5b505050506040513d6020811015612e4c57600080fd5b5050600854600254604080517f17eb2a150000000000000000000000000000000000000000000000000000000081523060048201819052602482015273ffffffffffffffffffffffffffffffffffffffff92831660448201523460648201526084810187905260a481018690529051339360009316916317eb2a159160c480830192602092919082900301818787803b158015612ee857600080fd5b505af1158015612efc573d6000803e3d6000fd5b505050506040513d6020811015612f1257600080fd5b505160048054600754604080517f095ea7b300000000000000000000000000000000000000000000000000000000815273ffffffffffffffffffffffffffffffffffffffff928316948101949094526024840185905251939450169163095ea7b3916044808201926020929091908290030181600087803b158015612f9657600080fd5b505af1158015612faa573d6000803e3d6000fd5b505050506040513d6020811015612fc057600080fd5b505060075460048054604080517f790b5a6c000000000000000000000000000000000000000000000000000000008152309381019390935273ffffffffffffffffffffffffffffffffffffffff86811660248501529182166044840152606483018590525192169163790b5a6c9160848082019260009290919082900301818387803b15801561304f57600080fd5b505af1158015613063573d6000803e3d6000fd5b5050600754600654604080517f095ea7b300000000000000000000000000000000000000000000000000000000815273ffffffffffffffffffffffffffffffffffffffff928316600482015260248101879052905191909216935063095ea7b3925060448083019260209291908290030181600087803b1580156130e657600080fd5b505af11580156130fa573d6000803e3d6000fd5b505050506040513d602081101561311057600080fd5b5050600654600754604080517f790b5a6c00000000000000000000000000000000000000000000000000000000815230600482015273ffffffffffffffffffffffffffffffffffffffff86811660248301529283166044820152606481018590529051919092169163790b5a6c91608480830192600092919082900301818387803b15801561319e57600080fd5b505af11580156131b2573d6000803e3d6000fd5b5050600654604080517fa9059cbb00000000000000000000000000000000000000000000000000000000815273ffffffffffffffffffffffffffffffffffffffff878116600483015260248201879052915191909216935063a9059cbb925060448083019260209291908290030181600087803b15801561323257600080fd5b505af1158015613246573d6000803e3d6000fd5b505050506040513d602081101561325c57600080fd5b50506040805173ffffffffffffffffffffffffffffffffffffffff841681526020810183905281517fad93b2f628eda4195b3bf8738da70d1ba23b7061ffa4fe71aaca907e0b128cce929181900390910190a16001600055949350505050565b60096020526000908152604090205473ffffffffffffffffffffffffffffffffffffffff1681565b6002600054141561335657604080517f08c379a000000000000000000000000000000000000000000000000000000000815260206004820152601f60248201527f5265656e7472616e637947756172643a207265656e7472616e742063616c6c00604482015290519081900360640190fd5b6002600055338215610e785781156134c757600754604080517f13e82e7a00000000000000000000000000000000000000000000000000000000815273ffffffffffffffffffffffffffffffffffffffff8481166004830152306024830152915160009392909216916313e82e7a9160448082019260209290919082900301818787803b1580156133e657600080fd5b505af11580156133fa573d6000803e3d6000fd5b505050506040513d602081101561341057600080fd5b5051600254604080517f2e1a7d4d00000000000000000000000000000000000000000000000000000000815260048101849052905192935073ffffffffffffffffffffffffffffffffffffffff90911691632e1a7d4d9160248082019260009290919082900301818387803b15801561348857600080fd5b505af115801561349c573d6000803e3d6000fd5b506134c19250505073ffffffffffffffffffffffffffffffffffffffff831682613fb6565b50610e78565b600754604080517f13e82e7a00000000000000000000000000000000000000000000000000000000815273ffffffffffffffffffffffffffffffffffffffff848116600483018190526024830152915191909216916313e82e7a9160448083019260209291908290030181600087803b15801561354357600080fd5b505af1158015613557573d6000803e3d6000fd5b505050506040513d602081101561356d57600080fd5b50505050600160005550565b60055473ffffffffffffffffffffffffffffffffffffffff1681565b6002600054141561360757604080517f08c379a000000000000000000000000000000000000000000000000000000000815260206004820152601f60248201527f5265656e7472616e637947756172643a207265656e7472616e742063616c6c00604482015290519081900360640190fd5b600260005561361581613887565b33600090815260096020526040812080547fffffffffffffffffffffffff00000000000000000000000000000000000000001673ffffffffffffffffffffffffffffffffffffffff939093169290921790915560019055565b60045473ffffffffffffffffffffffffffffffffffffffff1681565b6040805173ffffffffffffffffffffffffffffffffffffffff8416602482015260448082018490528251808303909101815260649091019091526020810180517bffffffffffffffffffffffffffffffffffffffffffffffffffffffff167fa9059cbb000000000000000000000000000000000000000000000000000000001790526108ed9084906140dc565b6000811161378657604080517f08c379a000000000000000000000000000000000000000000000000000000000815260206004820152601d60248201527f526577617264526f757465723a20696e76616c6964205f616d6f756e74000000604482015290519081900360640190fd5b600554604080517f790b5a6c00000000000000000000000000000000000000000000000000000000815273ffffffffffffffffffffffffffffffffffffffff878116600483015286811660248301528581166044830152606482018590529151919092169163790b5a6c91608480830192600092919082900301818387803b15801561381157600080fd5b505af1158015613825573d6000803e3d6000fd5b50506040805173ffffffffffffffffffffffffffffffffffffffff80881682528616602082015280820185905290517f01760f917f4a47f469c1b086afdd3a9cbeae9e4f55828716c4afed80970df5919350908190036060019150a150505050565b600554604080517fa318021700000000000000000000000000000000000000000000000000000000815273ffffffffffffffffffffffffffffffffffffffff84811660048301529151919092169163a3180217916024808301926020929190829003018186803b1580156138fa57600080fd5b505afa15801561390e573d6000803e3d6000fd5b505050506040513d602081101561392457600080fd5b50511561397c576040517f08c379a000000000000000000000000000000000000000000000000000000000815260040180806020018281038252603781526020018061458b6037913960400191505060405180910390fd5b600554604080517f3792def300000000000000000000000000000000000000000000000000000000815273ffffffffffffffffffffffffffffffffffffffff848116600483015291519190921691633792def3916024808301926020929190829003018186803b1580156139ef57600080fd5b505afa158015613a03573d6000803e3d6000fd5b505050506040513d6020811015613a1957600080fd5b505115613a71576040517f08c379a00000000000000000000000000000000000000000000000000000000081526004018080602001828103825260348152602001806145576034913960400191505060405180910390fd5b600654604080517fa318021700000000000000000000000000000000000000000000000000000000815273ffffffffffffffffffffffffffffffffffffffff84811660048301529151919092169163a3180217916024808301926020929190829003018186803b158015613ae457600080fd5b505afa158015613af8573d6000803e3d6000fd5b505050506040513d6020811015613b0e57600080fd5b505115613b66576040517f08c379a00000000000000000000000000000000000000000000000000000000081526004018080602001828103825260378152602001806145c26037913960400191505060405180910390fd5b600654604080517f3792def300000000000000000000000000000000000000000000000000000000815273ffffffffffffffffffffffffffffffffffffffff848116600483015291519190921691633792def3916024808301926020929190829003018186803b158015613bd957600080fd5b505afa158015613bed573d6000803e3d6000fd5b505050506040513d6020811015613c0357600080fd5b505115613c5b576040517f08c379a000000000000000000000000000000000000000000000000000000000815260040180806020018281038252603481526020018061444d6034913960400191505060405180910390fd5b600754604080517fa318021700000000000000000000000000000000000000000000000000000000815273ffffffffffffffffffffffffffffffffffffffff84811660048301529151919092169163a3180217916024808301926020929190829003018186803b158015613cce57600080fd5b505afa158015613ce2573d6000803e3d6000fd5b505050506040513d6020811015613cf857600080fd5b505115613d50576040517f08c379a00000000000000000000000000000000000000000000000000000000081526004018080602001828103825260348152602001806145f96034913960400191505060405180910390fd5b600754604080517f3792def300000000000000000000000000000000000000000000000000000000815273ffffffffffffffffffffffffffffffffffffffff848116600483015291519190921691633792def3916024808301926020929190829003018186803b158015613dc357600080fd5b505afa158015613dd7573d6000803e3d6000fd5b505050506040513d6020811015613ded57600080fd5b505115613e45576040517f08c379a00000000000000000000000000000000000000000000000000000000081526004018080602001828103825260318152602001806144816031913960400191505060405180910390fd5b50565b60008111613eb757604080517f08c379a000000000000000000000000000000000000000000000000000000000815260206004820152601d60248201527f526577617264526f757465723a20696e76616c6964205f616d6f756e74000000604482015290519081900360640190fd5b600554604080517f098bf59d00000000000000000000000000000000000000000000000000000000815273ffffffffffffffffffffffffffffffffffffffff8681166004830181905286821660248401526044830186905260648301529151919092169163098bf59d91608480830192600092919082900301818387803b158015613f4157600080fd5b505af1158015613f55573d6000803e3d6000fd5b50506040805173ffffffffffffffffffffffffffffffffffffffff80881682528616602082015280820185905290517f4fdf699b84ba823ce9c2445fc7bf3102aebeb0308aebaf4f7b565c14ddedeb6e9350908190036060019150a1505050565b8047101561402557604080517f08c379a000000000000000000000000000000000000000000000000000000000815260206004820152601d60248201527f416464726573733a20696e73756666696369656e742062616c616e6365000000604482015290519081900360640190fd5b60405160009073ffffffffffffffffffffffffffffffffffffffff84169083908381818185875af1925050503d806000811461407d576040519150601f19603f3d011682016040523d82523d6000602084013e614082565b606091505b50509050806108ed576040517f08c379a000000000000000000000000000000000000000000000000000000000815260040180806020018281038252603a8152602001806144b2603a913960400191505060405180910390fd5b606061413e826040518060400160405280602081526020017f5361666545524332303a206c6f772d6c6576656c2063616c6c206661696c65648152508573ffffffffffffffffffffffffffffffffffffffff166141b49092919063ffffffff16565b8051909150156108ed5780806020019051602081101561415d57600080fd5b50516108ed576040517f08c379a000000000000000000000000000000000000000000000000000000000815260040180806020018281038252602a81526020018061462d602a913960400191505060405180910390fd5b60606141c384846000856141cd565b90505b9392505050565b606082471015614228576040517f08c379a000000000000000000000000000000000000000000000000000000000815260040180806020018281038252602681526020018061450d6026913960400191505060405180910390fd5b61423185614388565b61429c57604080517f08c379a000000000000000000000000000000000000000000000000000000000815260206004820152601d60248201527f416464726573733a2063616c6c20746f206e6f6e2d636f6e7472616374000000604482015290519081900360640190fd5b600060608673ffffffffffffffffffffffffffffffffffffffff1685876040518082805190602001908083835b6020831061430657805182527fffffffffffffffffffffffffffffffffffffffffffffffffffffffffffffffe090920191602091820191016142c9565b6001836020036101000a03801982511681845116808217855250505050505090500191505060006040518083038185875af1925050503d8060008114614368576040519150601f19603f3d011682016040523d82523d6000602084013e61436d565b606091505b509150915061437d82828661438e565b979650505050505050565b3b151590565b6060831561439d5750816141c6565b8251156143ad5782518084602001fd5b816040517f08c379a00000000000000000000000000000000000000000000000000000000081526004018080602001828103825283818151815260200191508051906020019080838360005b838110156144115781810151838201526020016143f9565b50505050905090810190601f16801561443e5780820380516001836020036101000a031916815260200191505b509250505060405180910390fdfe526577617264526f757465723a207374616b65645a6c70547261636b65722e63756d756c617469766552657761726473203e2030526577617264526f757465723a206665655a6c70547261636b65722e63756d756c617469766552657761726473203e2030416464726573733a20756e61626c6520746f2073656e642076616c75652c20726563697069656e74206d61792068617665207265766572746564526577617264526f757465723a20616c726561647920696e697469616c697a6564416464726573733a20696e73756666696369656e742062616c616e636520666f722063616c6c526577617264526f757465723a207472616e73666572206e6f74207369676e616c6c6564526577617264526f757465723a207374616b65645a7573547261636b65722e63756d756c617469766552657761726473203e2030526577617264526f757465723a207374616b65645a7573547261636b65722e617665726167655374616b6564416d6f756e7473203e2030526577617264526f757465723a207374616b65645a6c70547261636b65722e617665726167655374616b6564416d6f756e7473203e2030526577617264526f757465723a206665655a6c70547261636b65722e617665726167655374616b6564416d6f756e7473203e20305361666545524332303a204552433230206f7065726174696f6e20646964206e6f742073756363656564a26469706673582212200a3043f981c681953b61fa6eecfa8d6061bc40ea418c2c23b33f0ab2999e16bb64736f6c634300060c0033a26469706673582212202f772190d877333b2e5159a7c597381100f060476920c477dd47f51d00e4c93164736f6c634300060c0033","linkReferences":{}},"methodIdentifiers":{"COOLDOWN_DURATION()":"5ec775b0","INITIAL_USER_BALANCE()":"c90398c5","PRICE_1USD()":"8f753084","admin()":"f851a440","collateralToken()":"b2016bd4","fastPriceFeed()":"3a849c21","feeZlpDistributor()":"75c3818c","feeZlpTracker()":"84347a33","rewardRouter()":"5a3bb989","setUp()":"0a9254e4","shortsTracker()":"657bc5d0","stakedZlpDistributor()":"f0e2db3c","stakedZlpTracker()":"17988a6a","stakedZusDistributor()":"d99e5e36","stakedZusTracker()":"ec4ee1c0","usdg()":"f5b91b7b","user()":"4f8632ba","vault()":"fbfa77cf","vaultPriceFeed()":"eeaa783a","vaultUtils()":"6abbe0c8","weth()":"3fc8cef3","zlp()":"fe9fe720","zlpManager()":"b6556599","zus()":"02486e08"},"id":57}