{"abi":[{"type":"constructor","inputs":[{"name":"_token","type":"address","internalType":"address"},{"name":"_wToken","type":"address","internalType":"address"}],"stateMutability":"nonpayable"},{"type":"function","name":"acceptGov","inputs":[],"outputs":[],"stateMutability":"nonpayable"},{"type":"function","name":"cancelGovProposal","inputs":[{"name":"_gov","type":"address","internalType":"address"}],"outputs":[],"stateMutability":"nonpayable"},{"type":"function","name":"gov","inputs":[],"outputs":[{"name":"","type":"address","internalType":"address"}],"stateMutability":"view"},{"type":"function","name":"govProposals","inputs":[{"name":"","type":"address","internalType":"address"}],"outputs":[{"name":"deadline","type":"uint256","internalType":"uint256"},{"name":"isActive","type":"bool","internalType":"bool"}],"stateMutability":"view"},{"type":"function","name":"setGov","inputs":[{"name":"_gov","type":"address","internalType":"address"}],"outputs":[],"stateMutability":"nonpayable"},{"type":"function","name":"setGovWithDeadline","inputs":[{"name":"_gov","type":"address","internalType":"address"},{"name":"_deadline","type":"uint256","internalType":"uint256"}],"outputs":[],"stateMutability":"nonpayable"},{"type":"function","name":"token","inputs":[],"outputs":[{"name":"","type":"address","internalType":"address"}],"stateMutability":"view"},{"type":"function","name":"unwrap","inputs":[{"name":"_amount","type":"uint256","internalType":"uint256"},{"name":"_receiver","type":"address","internalType":"address"}],"outputs":[],"stateMutability":"nonpayable"},{"type":"function","name":"wToken","inputs":[],"outputs":[{"name":"","type":"address","internalType":"address"}],"stateMutability":"view"},{"type":"function","name":"withdrawToken","inputs":[{"name":"_token","type":"address","internalType":"address"},{"name":"_account","type":"address","internalType":"address"},{"name":"_amount","type":"uint256","internalType":"uint256"}],"outputs":[],"stateMutability":"nonpayable"},{"type":"function","name":"wrap","inputs":[{"name":"_amount","type":"uint256","internalType":"uint256"},{"name":"_receiver","type":"address","internalType":"address"}],"outputs":[],"stateMutability":"nonpayable"},{"type":"event","name":"GovernanceTransferRequested","inputs":[{"name":"newGov","type":"address","indexed":true,"internalType":"address"},{"name":"deadline","type":"uint256","indexed":false,"internalType":"uint256"}],"anonymous":false},{"type":"event","name":"GovernanceTransferred","inputs":[{"name":"oldGov","type":"address","indexed":true,"internalType":"address"},{"name":"newGov","type":"address","indexed":true,"internalType":"address"}],"anonymous":false}],"bytecode":{"object":"0x608060405234801561001057600080fd5b50604051610d60380380610d608339818101604052604081101561003357600080fd5b508051602090910151600180546001600160a01b03199081163317909155600380546001600160a01b0394851690831617905560048054939092169216919091179055610cdb806100856000396000f3fe608060405234801561001057600080fd5b50600436106100995760003560e01c806301e336671461009e5780630babd864146100d657806312d43a51146100fa57806313bac820146101025780636bb22fd71461012e5780637647691d1461015a5780637bc6729b146101865780638d0fedb01461018e5780639c35b497146101cd578063cfad57a2146101f3578063fc0c546a14610219575b600080fd5b6100d4600480360360608110156100b457600080fd5b506001600160a01b03813581169160208101359091169060400135610221565b005b6100de610287565b604080516001600160a01b039092168252519081900360200190f35b6100de610296565b6100d46004803603604081101561011857600080fd5b50803590602001356001600160a01b03166102a5565b6100d46004803603604081101561014457600080fd5b506001600160a01b03813516906020013561033a565b6100d46004803603604081101561017057600080fd5b50803590602001356001600160a01b031661044f565b6100d46104db565b6101b4600480360360208110156101a457600080fd5b50356001600160a01b03166105f0565b6040805192835290151560208301528051918290030190f35b6100d4600480360360208110156101e357600080fd5b50356001600160a01b031661060c565b6100d46004803603602081101561020957600080fd5b50356001600160a01b03166106f0565b6100de610806565b6001546001600160a01b0316331461026e576040805162461bcd60e51b81526020600482015260156024820152600080516020610c14833981519152604482015290519081900360640190fd5b6102826001600160a01b0384168383610815565b505050565b6004546001600160a01b031681565b6001546001600160a01b031681565b600260005414156102fd576040805162461bcd60e51b815260206004820152601f60248201527f5265656e7472616e637947756172643a207265656e7472616e742063616c6c00604482015290519081900360640190fd5b600260005560035461031a906001600160a01b0316333085610867565b600454610331906001600160a01b03168284610815565b50506001600055565b6001546001600160a01b03163314610387576040805162461bcd60e51b81526020600482015260156024820152600080516020610c14833981519152604482015290519081900360640190fd5b6001600160a01b0382166103e0576040805162461bcd60e51b815260206004820152601b60248201527a476f7665726e61626c653a20696e76616c6964206164647265737360281b604482015290519081900360640190fd5b6001546001600160a01b0383811691161415610441576040805162461bcd60e51b815260206004820152601b60248201527a476f7665726e61626c653a2073616d6520676f7665726e616e636560281b604482015290519081900360640190fd5b61044b82826108c7565b5050565b600260005414156104a7576040805162461bcd60e51b815260206004820152601f60248201527f5265656e7472616e637947756172643a207265656e7472616e742063616c6c00604482015290519081900360640190fd5b60026000556004546104c4906001600160a01b0316333085610867565b600354610331906001600160a01b03168284610815565b3360009081526002602052604090208054421061053e576040805162461bcd60e51b815260206004820152601c60248201527b11dbdd995c9b98589b194e88191958591b1a5b9948195e1c1a5c995960221b604482015290519081900360640190fd5b60018082015460ff161515146105855760405162461bcd60e51b8152600401808060200182810382526022815260200180610c5a6022913960400191505060405180910390fd5b60018054336000818152600260205260408082208281558501805460ff1916905584546001600160a01b031916831790945592516001600160a01b0390921692909183917f5f56bee8cffbe9a78652a74a60705edede02af10b0bbb888ca44b79a0d42ce8091a35050565b6002602052600090815260409020805460019091015460ff1682565b6001546001600160a01b03163314610659576040805162461bcd60e51b81526020600482015260156024820152600080516020610c14833981519152604482015290519081900360640190fd5b6001600160a01b03811660009081526002602052604090206001015460ff166106c9576040805162461bcd60e51b815260206004820152601f60248201527f476f7665726e61626c653a2070726f706f73616c206e6f742061637469766500604482015290519081900360640190fd5b6001600160a01b03166000908152600260205260408120908155600101805460ff19169055565b6001546001600160a01b0316331461073d576040805162461bcd60e51b81526020600482015260156024820152600080516020610c14833981519152604482015290519081900360640190fd5b6001600160a01b038116610796576040805162461bcd60e51b815260206004820152601b60248201527a476f7665726e61626c653a20696e76616c6964206164647265737360281b604482015290519081900360640190fd5b6001546001600160a01b03828116911614156107f7576040805162461bcd60e51b815260206004820152601b60248201527a476f7665726e61626c653a2073616d6520676f7665726e616e636560281b604482015290519081900360640190fd5b610803816000196108c7565b50565b6003546001600160a01b031681565b604080516001600160a01b038416602482015260448082018490528251808303909101815260649091019091526020810180516001600160e01b031663a9059cbb60e01b179052610282908490610943565b604080516001600160a01b0380861660248301528416604482015260648082018490528251808303909101815260849091019091526020810180516001600160e01b03166323b872dd60e01b1790526108c1908590610943565b50505050565b604080518082018252828152600160208083018281526001600160a01b03871660008181526002845286902094518555905193909201805460ff1916931515939093179092558251848152925190927f02dd0697be46e764c3ba81094158781c31b235d03bb27a0daf1bdef0ec1084dd92908290030190a25050565b6060610998826040518060400160405280602081526020017f5361666545524332303a206c6f772d6c6576656c2063616c6c206661696c6564815250856001600160a01b03166109f49092919063ffffffff16565b805190915015610282578080602001905160208110156109b757600080fd5b50516102825760405162461bcd60e51b815260040180806020018281038252602a815260200180610c7c602a913960400191505060405180910390fd5b6060610a038484600085610a0d565b90505b9392505050565b606082471015610a4e5760405162461bcd60e51b8152600401808060200182810382526026815260200180610c346026913960400191505060405180910390fd5b610a5785610b69565b610aa8576040805162461bcd60e51b815260206004820152601d60248201527f416464726573733a2063616c6c20746f206e6f6e2d636f6e7472616374000000604482015290519081900360640190fd5b60006060866001600160a01b031685876040518082805190602001908083835b60208310610ae75780518252601f199092019160209182019101610ac8565b6001836020036101000a03801982511681845116808217855250505050505090500191505060006040518083038185875af1925050503d8060008114610b49576040519150601f19603f3d011682016040523d82523d6000602084013e610b4e565b606091505b5091509150610b5e828286610b6f565b979650505050505050565b3b151590565b60608315610b7e575081610a06565b825115610b8e5782518084602001fd5b8160405162461bcd60e51b81526004018080602001828103825283818151815260200191508051906020019080838360005b83811015610bd8578181015183820152602001610bc0565b50505050905090810190601f168015610c055780820380516001836020036101000a031916815260200191505b509250505060405180910390fdfe476f7665726e61626c653a20666f7262696464656e0000000000000000000000416464726573733a20696e73756666696369656e742062616c616e636520666f722063616c6c476f7665726e61626c653a2070726f706f73616c206973206e6f74206163746976655361666545524332303a204552433230206f7065726174696f6e20646964206e6f742073756363656564a2646970667358221220b7f67de3b7e5d3de2dd8104165c2c20993373e25710da880ad67294ad63f4ac764736f6c634300060c0033","linkReferences":{}},"methodIdentifiers":{"acceptGov()":"7bc6729b","cancelGovProposal(address)":"9c35b497","gov()":"12d43a51","govProposals(address)":"8d0fedb0","setGov(address)":"cfad57a2","setGovWithDeadline(address,uint256)":"6bb22fd7","token()":"fc0c546a","unwrap(uint256,address)":"7647691d","wToken()":"0babd864","withdrawToken(address,address,uint256)":"01e33667","wrap(uint256,address)":"13bac820"},"id":102}