{"abi":[{"type":"constructor","inputs":[{"name":"_rewardToken","type":"address","internalType":"address"},{"name":"_rewardTracker","type":"address","internalType":"address"}],"stateMutability":"nonpayable"},{"type":"function","name":"BASIS_POINTS_DIVISOR","inputs":[],"outputs":[{"name":"","type":"uint256","internalType":"uint256"}],"stateMutability":"view"},{"type":"function","name":"BONUS_DURATION","inputs":[],"outputs":[{"name":"","type":"uint256","internalType":"uint256"}],"stateMutability":"view"},{"type":"function","name":"acceptGov","inputs":[],"outputs":[],"stateMutability":"nonpayable"},{"type":"function","name":"admin","inputs":[],"outputs":[{"name":"","type":"address","internalType":"address"}],"stateMutability":"view"},{"type":"function","name":"bonusMultiplierBasisPoints","inputs":[],"outputs":[{"name":"","type":"uint256","internalType":"uint256"}],"stateMutability":"view"},{"type":"function","name":"bonusStartTime","inputs":[],"outputs":[{"name":"","type":"uint256","internalType":"uint256"}],"stateMutability":"view"},{"type":"function","name":"cancelGovProposal","inputs":[{"name":"_gov","type":"address","internalType":"address"}],"outputs":[],"stateMutability":"nonpayable"},{"type":"function","name":"distribute","inputs":[],"outputs":[{"name":"","type":"uint256","internalType":"uint256"}],"stateMutability":"nonpayable"},{"type":"function","name":"gov","inputs":[],"outputs":[{"name":"","type":"address","internalType":"address"}],"stateMutability":"view"},{"type":"function","name":"govProposals","inputs":[{"name":"","type":"address","internalType":"address"}],"outputs":[{"name":"deadline","type":"uint256","internalType":"uint256"},{"name":"isActive","type":"bool","internalType":"bool"}],"stateMutability":"view"},{"type":"function","name":"lastDistributionTime","inputs":[],"outputs":[{"name":"","type":"uint256","internalType":"uint256"}],"stateMutability":"view"},{"type":"function","name":"pendingRewards","inputs":[],"outputs":[{"name":"","type":"uint256","internalType":"uint256"}],"stateMutability":"view"},{"type":"function","name":"rewardToken","inputs":[],"outputs":[{"name":"","type":"address","internalType":"address"}],"stateMutability":"view"},{"type":"function","name":"rewardTracker","inputs":[],"outputs":[{"name":"","type":"address","internalType":"address"}],"stateMutability":"view"},{"type":"function","name":"setAdmin","inputs":[{"name":"_admin","type":"address","internalType":"address"}],"outputs":[],"stateMutability":"nonpayable"},{"type":"function","name":"setBonusMultiplier","inputs":[{"name":"_bonusMultiplierBasisPoints","type":"uint256","internalType":"uint256"}],"outputs":[],"stateMutability":"nonpayable"},{"type":"function","name":"setGov","inputs":[{"name":"_gov","type":"address","internalType":"address"}],"outputs":[],"stateMutability":"nonpayable"},{"type":"function","name":"setGovWithDeadline","inputs":[{"name":"_gov","type":"address","internalType":"address"},{"name":"_deadline","type":"uint256","internalType":"uint256"}],"outputs":[],"stateMutability":"nonpayable"},{"type":"function","name":"tokensPerInterval","inputs":[],"outputs":[{"name":"","type":"uint256","internalType":"uint256"}],"stateMutability":"view"},{"type":"function","name":"updateLastDistributionTime","inputs":[],"outputs":[],"stateMutability":"nonpayable"},{"type":"function","name":"withdrawTokensOrETH","inputs":[{"name":"_tokenOrZero","type":"address","internalType":"address"},{"name":"_account","type":"address","internalType":"address"},{"name":"_amount","type":"uint256","internalType":"uint256"}],"outputs":[],"stateMutability":"nonpayable"},{"type":"event","name":"BonusMultiplierChange","inputs":[{"name":"amount","type":"uint256","indexed":false,"internalType":"uint256"}],"anonymous":false},{"type":"event","name":"Distribute","inputs":[{"name":"amount","type":"uint256","indexed":false,"internalType":"uint256"}],"anonymous":false},{"type":"event","name":"GovProposalCanceled","inputs":[{"name":"proposedGov","type":"address","indexed":true,"internalType":"address"},{"name":"canceledBy","type":"address","indexed":true,"internalType":"address"}],"anonymous":false},{"type":"event","name":"GovernanceTransferRequested","inputs":[{"name":"newGov","type":"address","indexed":true,"internalType":"address"},{"name":"deadline","type":"uint256","indexed":false,"internalType":"uint256"}],"anonymous":false},{"type":"event","name":"GovernanceTransferred","inputs":[{"name":"oldGov","type":"address","indexed":true,"internalType":"address"},{"name":"newGov","type":"address","indexed":true,"internalType":"address"}],"anonymous":false}],"bytecode":{"object":"0x608060405234801561001057600080fd5b506040516116e53803806116e58339818101604052604081101561003357600080fd5b50805160209091015160018054336001600160a01b031991821681179092556005805482166001600160a01b03958616179055600780548216949093169390931790915560088054909216179055611655806100906000396000f3fe608060405234801561001057600080fd5b50600436106101075760003560e01c80630679e5821461010c578063126082cf1461012657806312d43a511461012e5780632f6beaa5146101525780633ae6d6eb1461015a57806356edcea2146101645780636bb22fd71461019a5780636bcb411a146101c6578063704b6c02146101ce57806375b17350146101f45780637bc6729b146101fc5780638d0fedb0146102045780639c35b49714610243578063a013ad5414610269578063a8d9362714610271578063cfad57a214610279578063e4fc6b6d1461029f578063eded3fda146102a7578063f7c618c1146102af578063f851a440146102b7578063fd58e63a146102bf575b600080fd5b6101146102dc565b60408051918252519081900360200190f35b6101146102e2565b6101366102e8565b604080516001600160a01b039092168252519081900360200190f35b6101146102f7565b6101626102fd565b005b6101626004803603606081101561017a57600080fd5b506001600160a01b03813581169160208101359091169060400135610360565b610162600480360360408110156101b057600080fd5b506001600160a01b038135169060200135610575565b61013661068a565b610162600480360360208110156101e457600080fd5b50356001600160a01b0316610699565b610114610708565b61016261070e565b61022a6004803603602081101561021a57600080fd5b50356001600160a01b0316610823565b6040805192835290151560208301528051918290030190f35b6101626004803603602081101561025957600080fd5b50356001600160a01b031661083f565b61011461094d565b610114610955565b6101626004803603602081101561028f57600080fd5b50356001600160a01b0316610a23565b610114610b39565b610114610c79565b610136610e08565b610136610e17565b610162600480360360208110156102d557600080fd5b5035610e26565b60045481565b61271081565b6001546001600160a01b031681565b60035481565b6008546001600160a01b0316331461035a576040805162461bcd60e51b815260206004820152601b60248201527a2137b73ab9a234b9ba3934b13aba37b91d103337b93134b23232b760291b604482015290519081900360640190fd5b42600655565b6001546001600160a01b031633146103ad576040805162461bcd60e51b8152602060048201526015602482015260008051602061151b833981519152604482015290519081900360640190fd5b60026000541415610405576040805162461bcd60e51b815260206004820152601f60248201527f5265656e7472616e637947756172643a207265656e7472616e742063616c6c00604482015290519081900360640190fd5b60026000556001600160a01b038316610557576001600160a01b038216610465576040805162461bcd60e51b815260206004820152600f60248201526e125b9d985b1a59081858d8dbdd5b9d608a1b604482015290519081900360640190fd5b478111156104b5576040805162461bcd60e51b8152602060048201526018602482015277496e73756666696369656e74204554482062616c616e636560401b604482015290519081900360640190fd5b6040516000906001600160a01b0384169083908381818185875af1925050503d8060008114610500576040519150601f19603f3d011682016040523d82523d6000602084013e610505565b606091505b5050905080610551576040805162461bcd60e51b8152602060048201526013602482015272115512081d1c985b9cd9995c8819985a5b1959606a1b604482015290519081900360640190fd5b5061056b565b61056b6001600160a01b0384168383610f7e565b5050600160005550565b6001546001600160a01b031633146105c2576040805162461bcd60e51b8152602060048201526015602482015260008051602061151b833981519152604482015290519081900360640190fd5b6001600160a01b03821661061b576040805162461bcd60e51b815260206004820152601b60248201527a476f7665726e61626c653a20696e76616c6964206164647265737360281b604482015290519081900360640190fd5b6001546001600160a01b038381169116141561067c576040805162461bcd60e51b815260206004820152601b60248201527a476f7665726e61626c653a2073616d6520676f7665726e616e636560281b604482015290519081900360640190fd5b6106868282610fd5565b5050565b6007546001600160a01b031681565b6001546001600160a01b031633146106e6576040805162461bcd60e51b8152602060048201526015602482015260008051602061151b833981519152604482015290519081900360640190fd5b600880546001600160a01b0319166001600160a01b0392909216919091179055565b60065481565b33600090815260026020526040902080544210610771576040805162461bcd60e51b815260206004820152601c60248201527b11dbdd995c9b98589b194e88191958591b1a5b9948195e1c1a5c995960221b604482015290519081900360640190fd5b60018082015460ff161515146107b85760405162461bcd60e51b815260040180806020018281038252602281526020018061158f6022913960400191505060405180910390fd5b60018054336000818152600260205260408082208281558501805460ff1916905584546001600160a01b031916831790945592516001600160a01b0390921692909183917f5f56bee8cffbe9a78652a74a60705edede02af10b0bbb888ca44b79a0d42ce8091a35050565b6002602052600090815260409020805460019091015460ff1682565b6001546001600160a01b0316331461088c576040805162461bcd60e51b8152602060048201526015602482015260008051602061151b833981519152604482015290519081900360640190fd5b6001600160a01b03811660009081526002602052604090206001015460ff166108fc576040805162461bcd60e51b815260206004820152601f60248201527f476f7665726e61626c653a2070726f706f73616c206e6f742061637469766500604482015290519081900360640190fd5b6001600160a01b038116600081815260026020526040808220828155600101805460ff19169055513392917ffc6a2fa53abe2adfe8372a9495032d7e6458d3aed34fa880132b6c808da1e99c91a350565b6301e1338081565b6000806004541180156109775750600454610974906301e13380611051565b42115b1561098457506000610a20565b600754604080516318160ddd60e01b815290516000926001600160a01b0316916318160ddd916004808301926020929190829003018186803b1580156109c957600080fd5b505afa1580156109dd573d6000803e3d6000fd5b505050506040513d60208110156109f357600080fd5b5051600354909150610a1c906301e1338090610a169061271090829086906110b2565b9061110b565b9150505b90565b6001546001600160a01b03163314610a70576040805162461bcd60e51b8152602060048201526015602482015260008051602061151b833981519152604482015290519081900360640190fd5b6001600160a01b038116610ac9576040805162461bcd60e51b815260206004820152601b60248201527a476f7665726e61626c653a20696e76616c6964206164647265737360281b604482015290519081900360640190fd5b6001546001600160a01b0382811691161415610b2a576040805162461bcd60e51b815260206004820152601b60248201527a476f7665726e61626c653a2073616d6520676f7665726e616e636560281b604482015290519081900360640190fd5b610b3681600019610fd5565b50565b6007546000906001600160a01b03163314610b855760405162461bcd60e51b81526004018080602001828103825260248152602001806115d26024913960400191505060405180910390fd5b6000610b8f610c79565b905080610ba0576000915050610a20565b42600655600554604080516370a0823160e01b815230600482015290516000926001600160a01b0316916370a08231916024808301926020929190829003018186803b158015610bef57600080fd5b505afa158015610c03573d6000803e3d6000fd5b505050506040513d6020811015610c1957600080fd5b5051905080821115610c29578091505b600554610c40906001600160a01b03163384610f7e565b6040805183815290517f4def474aca53bf221d07d9ab0f675b3f6d8d2494b8427271bcf43c018ef1eead9181900360200190a150905090565b6000600654421415610c8d57506000610a20565b6000600454118015610cae5750600454610cab906301e13380611051565b42115b15610cbb57506000610a20565b600754604080516318160ddd60e01b815290516000926001600160a01b0316916318160ddd916004808301926020929190829003018186803b158015610d0057600080fd5b505afa158015610d14573d6000803e3d6000fd5b505050506040513d6020811015610d2a57600080fd5b5051600654909150600090610d4090429061114a565b90506000610d716301e13380610a16612710610a16600354610d6b89896110b290919063ffffffff16565b906110b2565b600554604080516370a0823160e01b815230600482015290519293506000926001600160a01b03909216916370a0823191602480820192602092909190829003018186803b158015610dc257600080fd5b505afa158015610dd6573d6000803e3d6000fd5b505050506040513d6020811015610dec57600080fd5b50519050808211610dfd5781610dff565b805b94505050505090565b6005546001600160a01b031681565b6008546001600160a01b031681565b6008546001600160a01b03163314610e83576040805162461bcd60e51b815260206004820152601b60248201527a2137b73ab9a234b9ba3934b13aba37b91d103337b93134b23232b760291b604482015290519081900360640190fd5b600654610ec15760405162461bcd60e51b815260040180806020018281038252602e815260200180611561602e913960400191505060405180910390fd5b600454158015610ed15750600081115b15610edb57426004555b600760009054906101000a90046001600160a01b03166001600160a01b0316633e158b0c6040518163ffffffff1660e01b8152600401600060405180830381600087803b158015610f2b57600080fd5b505af1158015610f3f573d6000803e3d6000fd5b5050506003829055506040805182815290517f58585e4edc172f6517d6789356504dc9ad23553d02202c3ac454a8d0733f6b2b9181900360200190a150565b604080516001600160a01b038416602482015260448082018490528251808303909101815260649091019091526020810180516001600160e01b031663a9059cbb60e01b179052610fd090849061118c565b505050565b604080518082018252828152600160208083018281526001600160a01b03871660008181526002845286902094518555905193909201805460ff1916931515939093179092558251848152925190927f02dd0697be46e764c3ba81094158781c31b235d03bb27a0daf1bdef0ec1084dd92908290030190a25050565b6000828201838110156110a9576040805162461bcd60e51b815260206004820152601b60248201527a536166654d6174683a206164646974696f6e206f766572666c6f7760281b604482015290519081900360640190fd5b90505b92915050565b6000826110c1575060006110ac565b828202828482816110ce57fe5b04146110a95760405162461bcd60e51b81526004018080602001828103825260218152602001806115b16021913960400191505060405180910390fd5b60006110a983836040518060400160405280601a815260200179536166654d6174683a206469766973696f6e206279207a65726f60301b81525061123d565b60006110a983836040518060400160405280601e81526020017f536166654d6174683a207375627472616374696f6e206f766572666c6f7700008152506112e1565b60606111e1826040518060400160405280602081526020017f5361666545524332303a206c6f772d6c6576656c2063616c6c206661696c6564815250856001600160a01b031661133b9092919063ffffffff16565b805190915015610fd05780806020019051602081101561120057600080fd5b5051610fd05760405162461bcd60e51b815260040180806020018281038252602a8152602001806115f6602a913960400191505060405180910390fd5b600081836112c95760405162461bcd60e51b81526004018080602001828103825283818151815260200191508051906020019080838360005b8381101561128e578181015183820152602001611276565b50505050905090810190601f1680156112bb5780820380516001836020036101000a031916815260200191505b509250505060405180910390fd5b5060008385816112d557fe5b049150505b9392505050565b600081848411156113335760405162461bcd60e51b815260206004820181815283516024840152835190928392604490910191908501908083836000831561128e578181015183820152602001611276565b505050900390565b606061134a8484600085611352565b949350505050565b6060824710156113935760405162461bcd60e51b815260040180806020018281038252602681526020018061153b6026913960400191505060405180910390fd5b61139c856114ae565b6113ed576040805162461bcd60e51b815260206004820152601d60248201527f416464726573733a2063616c6c20746f206e6f6e2d636f6e7472616374000000604482015290519081900360640190fd5b60006060866001600160a01b031685876040518082805190602001908083835b6020831061142c5780518252601f19909201916020918201910161140d565b6001836020036101000a03801982511681845116808217855250505050505090500191505060006040518083038185875af1925050503d806000811461148e576040519150601f19603f3d011682016040523d82523d6000602084013e611493565b606091505b50915091506114a38282866114b4565b979650505050505050565b3b151590565b606083156114c35750816112da565b8251156114d35782518084602001fd5b60405162461bcd60e51b815260206004820181815284516024840152845185939192839260440191908501908083836000831561128e57818101518382015260200161127656fe476f7665726e61626c653a20666f7262696464656e0000000000000000000000416464726573733a20696e73756666696369656e742062616c616e636520666f722063616c6c426f6e75734469737472696275746f723a20696e76616c6964206c617374446973747269627574696f6e54696d65476f7665726e61626c653a2070726f706f73616c206973206e6f7420616374697665536166654d6174683a206d756c7469706c69636174696f6e206f766572666c6f77426f6e75734469737472696275746f723a20696e76616c6964206d73672e73656e6465725361666545524332303a204552433230206f7065726174696f6e20646964206e6f742073756363656564a2646970667358221220ee684b723fdb46b1c630590c7ed52b678e5009dc2382b0e5caf6ae71b83a387d64736f6c634300060c0033","linkReferences":{}},"methodIdentifiers":{"BASIS_POINTS_DIVISOR()":"126082cf","BONUS_DURATION()":"a013ad54","acceptGov()":"7bc6729b","admin()":"f851a440","bonusMultiplierBasisPoints()":"2f6beaa5","bonusStartTime()":"0679e582","cancelGovProposal(address)":"9c35b497","distribute()":"e4fc6b6d","gov()":"12d43a51","govProposals(address)":"8d0fedb0","lastDistributionTime()":"75b17350","pendingRewards()":"eded3fda","rewardToken()":"f7c618c1","rewardTracker()":"6bcb411a","setAdmin(address)":"704b6c02","setBonusMultiplier(uint256)":"fd58e63a","setGov(address)":"cfad57a2","setGovWithDeadline(address,uint256)":"6bb22fd7","tokensPerInterval()":"a8d93627","updateLastDistributionTime()":"3ae6d6eb","withdrawTokensOrETH(address,address,uint256)":"56edcea2"},"id":80}