{"abi":[{"type":"constructor","inputs":[{"name":"_rewardToken","type":"address","internalType":"address"},{"name":"_rewardTracker","type":"address","internalType":"address"}],"stateMutability":"nonpayable"},{"type":"function","name":"BASIS_POINTS_DIVISOR","inputs":[],"outputs":[{"name":"","type":"uint256","internalType":"uint256"}],"stateMutability":"view"},{"type":"function","name":"BONUS_DURATION","inputs":[],"outputs":[{"name":"","type":"uint256","internalType":"uint256"}],"stateMutability":"view"},{"type":"function","name":"acceptGov","inputs":[],"outputs":[],"stateMutability":"nonpayable"},{"type":"function","name":"admin","inputs":[],"outputs":[{"name":"","type":"address","internalType":"address"}],"stateMutability":"view"},{"type":"function","name":"bonusMultiplierBasisPoints","inputs":[],"outputs":[{"name":"","type":"uint256","internalType":"uint256"}],"stateMutability":"view"},{"type":"function","name":"cancelGovProposal","inputs":[{"name":"_gov","type":"address","internalType":"address"}],"outputs":[],"stateMutability":"nonpayable"},{"type":"function","name":"distribute","inputs":[],"outputs":[{"name":"","type":"uint256","internalType":"uint256"}],"stateMutability":"nonpayable"},{"type":"function","name":"gov","inputs":[],"outputs":[{"name":"","type":"address","internalType":"address"}],"stateMutability":"view"},{"type":"function","name":"govProposals","inputs":[{"name":"","type":"address","internalType":"address"}],"outputs":[{"name":"deadline","type":"uint256","internalType":"uint256"},{"name":"isActive","type":"bool","internalType":"bool"}],"stateMutability":"view"},{"type":"function","name":"lastDistributionTime","inputs":[],"outputs":[{"name":"","type":"uint256","internalType":"uint256"}],"stateMutability":"view"},{"type":"function","name":"pendingRewards","inputs":[],"outputs":[{"name":"","type":"uint256","internalType":"uint256"}],"stateMutability":"view"},{"type":"function","name":"rewardToken","inputs":[],"outputs":[{"name":"","type":"address","internalType":"address"}],"stateMutability":"view"},{"type":"function","name":"rewardTracker","inputs":[],"outputs":[{"name":"","type":"address","internalType":"address"}],"stateMutability":"view"},{"type":"function","name":"setAdmin","inputs":[{"name":"_admin","type":"address","internalType":"address"}],"outputs":[],"stateMutability":"nonpayable"},{"type":"function","name":"setBonusMultiplier","inputs":[{"name":"_bonusMultiplierBasisPoints","type":"uint256","internalType":"uint256"}],"outputs":[],"stateMutability":"nonpayable"},{"type":"function","name":"setGov","inputs":[{"name":"_gov","type":"address","internalType":"address"}],"outputs":[],"stateMutability":"nonpayable"},{"type":"function","name":"setGovWithDeadline","inputs":[{"name":"_gov","type":"address","internalType":"address"},{"name":"_deadline","type":"uint256","internalType":"uint256"}],"outputs":[],"stateMutability":"nonpayable"},{"type":"function","name":"tokensPerInterval","inputs":[],"outputs":[{"name":"","type":"uint256","internalType":"uint256"}],"stateMutability":"view"},{"type":"function","name":"updateLastDistributionTime","inputs":[],"outputs":[],"stateMutability":"nonpayable"},{"type":"function","name":"withdrawToken","inputs":[{"name":"_token","type":"address","internalType":"address"},{"name":"_account","type":"address","internalType":"address"},{"name":"_amount","type":"uint256","internalType":"uint256"}],"outputs":[],"stateMutability":"nonpayable"},{"type":"event","name":"BonusMultiplierChange","inputs":[{"name":"amount","type":"uint256","indexed":false,"internalType":"uint256"}],"anonymous":false},{"type":"event","name":"Distribute","inputs":[{"name":"amount","type":"uint256","indexed":false,"internalType":"uint256"}],"anonymous":false},{"type":"event","name":"GovernanceTransferRequested","inputs":[{"name":"newGov","type":"address","indexed":true,"internalType":"address"},{"name":"deadline","type":"uint256","indexed":false,"internalType":"uint256"}],"anonymous":false},{"type":"event","name":"GovernanceTransferred","inputs":[{"name":"oldGov","type":"address","indexed":true,"internalType":"address"},{"name":"newGov","type":"address","indexed":true,"internalType":"address"}],"anonymous":false}],"bytecode":{"object":"0x608060405234801561001057600080fd5b5060405161139d38038061139d8339818101604052604081101561003357600080fd5b50805160209091015160018054336001600160a01b031991821681179092556004805482166001600160a01b0395861617905560068054821694909316939093179091556007805490921617905561130d806100906000396000f3fe608060405234801561001057600080fd5b50600436106100fc5760003560e01c806301e3366714610101578063126082cf1461013957806312d43a51146101535780632f6beaa5146101775780633ae6d6eb1461017f5780636bb22fd7146101875780636bcb411a146101b3578063704b6c02146101bb57806375b17350146101e15780637bc6729b146101e95780638d0fedb0146101f15780639c35b49714610230578063a013ad5414610256578063a8d936271461025e578063cfad57a214610266578063e4fc6b6d1461028c578063eded3fda14610294578063f7c618c11461029c578063f851a440146102a4578063fd58e63a146102ac575b600080fd5b6101376004803603606081101561011757600080fd5b506001600160a01b038135811691602081013590911690604001356102c9565b005b61014161032f565b60408051918252519081900360200190f35b61015b610335565b604080516001600160a01b039092168252519081900360200190f35b610141610344565b61013761034a565b6101376004803603604081101561019d57600080fd5b506001600160a01b0381351690602001356103ad565b61015b6104c2565b610137600480360360208110156101d157600080fd5b50356001600160a01b03166104d1565b610141610540565b610137610546565b6102176004803603602081101561020757600080fd5b50356001600160a01b031661065b565b6040805192835290151560208301528051918290030190f35b6101376004803603602081101561024657600080fd5b50356001600160a01b0316610677565b61014161075b565b610141610763565b6101376004803603602081101561027c57600080fd5b50356001600160a01b031661080e565b610141610924565b610141610a68565b61015b610b37565b61015b610b46565b610137600480360360208110156102c257600080fd5b5035610b55565b6001546001600160a01b03163314610316576040805162461bcd60e51b815260206004820152601560248201526000805160206111d3833981519152604482015290519081900360640190fd5b61032a6001600160a01b0384168383610c93565b505050565b61271081565b6001546001600160a01b031681565b60035481565b6007546001600160a01b031633146103a7576040805162461bcd60e51b815260206004820152601b60248201527a2137b73ab9a234b9ba3934b13aba37b91d103337b93134b23232b760291b604482015290519081900360640190fd5b42600555565b6001546001600160a01b031633146103fa576040805162461bcd60e51b815260206004820152601560248201526000805160206111d3833981519152604482015290519081900360640190fd5b6001600160a01b038216610453576040805162461bcd60e51b815260206004820152601b60248201527a476f7665726e61626c653a20696e76616c6964206164647265737360281b604482015290519081900360640190fd5b6001546001600160a01b03838116911614156104b4576040805162461bcd60e51b815260206004820152601b60248201527a476f7665726e61626c653a2073616d6520676f7665726e616e636560281b604482015290519081900360640190fd5b6104be8282610ce5565b5050565b6006546001600160a01b031681565b6001546001600160a01b0316331461051e576040805162461bcd60e51b815260206004820152601560248201526000805160206111d3833981519152604482015290519081900360640190fd5b600780546001600160a01b0319166001600160a01b0392909216919091179055565b60055481565b336000908152600260205260409020805442106105a9576040805162461bcd60e51b815260206004820152601c60248201527b11dbdd995c9b98589b194e88191958591b1a5b9948195e1c1a5c995960221b604482015290519081900360640190fd5b60018082015460ff161515146105f05760405162461bcd60e51b81526004018080602001828103825260228152602001806112476022913960400191505060405180910390fd5b60018054336000818152600260205260408082208281558501805460ff1916905584546001600160a01b031916831790945592516001600160a01b0390921692909183917f5f56bee8cffbe9a78652a74a60705edede02af10b0bbb888ca44b79a0d42ce8091a35050565b6002602052600090815260409020805460019091015460ff1682565b6001546001600160a01b031633146106c4576040805162461bcd60e51b815260206004820152601560248201526000805160206111d3833981519152604482015290519081900360640190fd5b6001600160a01b03811660009081526002602052604090206001015460ff16610734576040805162461bcd60e51b815260206004820152601f60248201527f476f7665726e61626c653a2070726f706f73616c206e6f742061637469766500604482015290519081900360640190fd5b6001600160a01b03166000908152600260205260408120908155600101805460ff19169055565b6301e1338081565b600080600660009054906101000a90046001600160a01b03166001600160a01b03166318160ddd6040518163ffffffff1660e01b815260040160206040518083038186803b1580156107b457600080fd5b505afa1580156107c8573d6000803e3d6000fd5b505050506040513d60208110156107de57600080fd5b5051600354909150610807906301e1338090610801906127109082908690610d61565b90610dc3565b9150505b90565b6001546001600160a01b0316331461085b576040805162461bcd60e51b815260206004820152601560248201526000805160206111d3833981519152604482015290519081900360640190fd5b6001600160a01b0381166108b4576040805162461bcd60e51b815260206004820152601b60248201527a476f7665726e61626c653a20696e76616c6964206164647265737360281b604482015290519081900360640190fd5b6001546001600160a01b0382811691161415610915576040805162461bcd60e51b815260206004820152601b60248201527a476f7665726e61626c653a2073616d6520676f7665726e616e636560281b604482015290519081900360640190fd5b61092181600019610ce5565b50565b6006546000906001600160a01b031633146109705760405162461bcd60e51b815260040180806020018281038252602481526020018061128a6024913960400191505060405180910390fd5b600061097a610a68565b90508061098b57600091505061080b565b4260055560048054604080516370a0823160e01b81523093810193909352516000926001600160a01b03909216916370a08231916024808301926020929190829003018186803b1580156109de57600080fd5b505afa1580156109f2573d6000803e3d6000fd5b505050506040513d6020811015610a0857600080fd5b5051905080821115610a18578091505b600454610a2f906001600160a01b03163384610c93565b6040805183815290517f4def474aca53bf221d07d9ab0f675b3f6d8d2494b8427271bcf43c018ef1eead9181900360200190a150905090565b6000600554421415610a7c5750600061080b565b600654604080516318160ddd60e01b815290516000926001600160a01b0316916318160ddd916004808301926020929190829003018186803b158015610ac157600080fd5b505afa158015610ad5573d6000803e3d6000fd5b505050506040513d6020811015610aeb57600080fd5b5051600554909150600090610b01904290610e02565b9050610b306301e13380610801612710610801600354610b2a8888610d6190919063ffffffff16565b90610d61565b9250505090565b6004546001600160a01b031681565b6007546001600160a01b031681565b6007546001600160a01b03163314610bb2576040805162461bcd60e51b815260206004820152601b60248201527a2137b73ab9a234b9ba3934b13aba37b91d103337b93134b23232b760291b604482015290519081900360640190fd5b600554610bf05760405162461bcd60e51b815260040180806020018281038252602e815260200180611219602e913960400191505060405180910390fd5b600660009054906101000a90046001600160a01b03166001600160a01b0316633e158b0c6040518163ffffffff1660e01b8152600401600060405180830381600087803b158015610c4057600080fd5b505af1158015610c54573d6000803e3d6000fd5b5050506003829055506040805182815290517f58585e4edc172f6517d6789356504dc9ad23553d02202c3ac454a8d0733f6b2b9181900360200190a150565b604080516001600160a01b038416602482015260448082018490528251808303909101815260649091019091526020810180516001600160e01b031663a9059cbb60e01b17905261032a908490610e44565b604080518082018252828152600160208083018281526001600160a01b03871660008181526002845286902094518555905193909201805460ff1916931515939093179092558251848152925190927f02dd0697be46e764c3ba81094158781c31b235d03bb27a0daf1bdef0ec1084dd92908290030190a25050565b600082610d7057506000610dbd565b82820282848281610d7d57fe5b0414610dba5760405162461bcd60e51b81526004018080602001828103825260218152602001806112696021913960400191505060405180910390fd5b90505b92915050565b6000610dba83836040518060400160405280601a815260200179536166654d6174683a206469766973696f6e206279207a65726f60301b815250610ef5565b6000610dba83836040518060400160405280601e81526020017f536166654d6174683a207375627472616374696f6e206f766572666c6f770000815250610f99565b6060610e99826040518060400160405280602081526020017f5361666545524332303a206c6f772d6c6576656c2063616c6c206661696c6564815250856001600160a01b0316610ff39092919063ffffffff16565b80519091501561032a57808060200190516020811015610eb857600080fd5b505161032a5760405162461bcd60e51b815260040180806020018281038252602a8152602001806112ae602a913960400191505060405180910390fd5b60008183610f815760405162461bcd60e51b81526004018080602001828103825283818151815260200191508051906020019080838360005b83811015610f46578181015183820152602001610f2e565b50505050905090810190601f168015610f735780820380516001836020036101000a031916815260200191505b509250505060405180910390fd5b506000838581610f8d57fe5b049150505b9392505050565b60008184841115610feb5760405162461bcd60e51b8152602060048201818152835160248401528351909283926044909101919085019080838360008315610f46578181015183820152602001610f2e565b505050900390565b6060611002848460008561100a565b949350505050565b60608247101561104b5760405162461bcd60e51b81526004018080602001828103825260268152602001806111f36026913960400191505060405180910390fd5b61105485611166565b6110a5576040805162461bcd60e51b815260206004820152601d60248201527f416464726573733a2063616c6c20746f206e6f6e2d636f6e7472616374000000604482015290519081900360640190fd5b60006060866001600160a01b031685876040518082805190602001908083835b602083106110e45780518252601f1990920191602091820191016110c5565b6001836020036101000a03801982511681845116808217855250505050505090500191505060006040518083038185875af1925050503d8060008114611146576040519150601f19603f3d011682016040523d82523d6000602084013e61114b565b606091505b509150915061115b82828661116c565b979650505050505050565b3b151590565b6060831561117b575081610f92565b82511561118b5782518084602001fd5b60405162461bcd60e51b8152602060048201818152845160248401528451859391928392604401919085019080838360008315610f46578181015183820152602001610f2e56fe476f7665726e61626c653a20666f7262696464656e0000000000000000000000416464726573733a20696e73756666696369656e742062616c616e636520666f722063616c6c426f6e75734469737472696275746f723a20696e76616c6964206c617374446973747269627574696f6e54696d65476f7665726e61626c653a2070726f706f73616c206973206e6f7420616374697665536166654d6174683a206d756c7469706c69636174696f6e206f766572666c6f77426f6e75734469737472696275746f723a20696e76616c6964206d73672e73656e6465725361666545524332303a204552433230206f7065726174696f6e20646964206e6f742073756363656564a26469706673582212203c680d95ac0047d1caad31ebb2a19131549ba2e520f583c490e119b993b7bab164736f6c634300060c0033","linkReferences":{}},"methodIdentifiers":{"BASIS_POINTS_DIVISOR()":"126082cf","BONUS_DURATION()":"a013ad54","acceptGov()":"7bc6729b","admin()":"f851a440","bonusMultiplierBasisPoints()":"2f6beaa5","cancelGovProposal(address)":"9c35b497","distribute()":"e4fc6b6d","gov()":"12d43a51","govProposals(address)":"8d0fedb0","lastDistributionTime()":"75b17350","pendingRewards()":"eded3fda","rewardToken()":"f7c618c1","rewardTracker()":"6bcb411a","setAdmin(address)":"704b6c02","setBonusMultiplier(uint256)":"fd58e63a","setGov(address)":"cfad57a2","setGovWithDeadline(address,uint256)":"6bb22fd7","tokensPerInterval()":"a8d93627","updateLastDistributionTime()":"3ae6d6eb","withdrawToken(address,address,uint256)":"01e33667"},"id":87}