{"abi":[{"type":"constructor","inputs":[{"name":"_rewardToken","type":"address","internalType":"address"},{"name":"_rewardTracker","type":"address","internalType":"address"}],"stateMutability":"nonpayable"},{"type":"function","name":"BASIS_POINTS_DIVISOR","inputs":[],"outputs":[{"name":"","type":"uint256","internalType":"uint256"}],"stateMutability":"view"},{"type":"function","name":"BONUS_DURATION","inputs":[],"outputs":[{"name":"","type":"uint256","internalType":"uint256"}],"stateMutability":"view"},{"type":"function","name":"acceptGov","inputs":[],"outputs":[],"stateMutability":"nonpayable"},{"type":"function","name":"admin","inputs":[],"outputs":[{"name":"","type":"address","internalType":"address"}],"stateMutability":"view"},{"type":"function","name":"bonusMultiplierBasisPoints","inputs":[],"outputs":[{"name":"","type":"uint256","internalType":"uint256"}],"stateMutability":"view"},{"type":"function","name":"cancelGovProposal","inputs":[{"name":"_gov","type":"address","internalType":"address"}],"outputs":[],"stateMutability":"nonpayable"},{"type":"function","name":"distribute","inputs":[],"outputs":[{"name":"","type":"uint256","internalType":"uint256"}],"stateMutability":"nonpayable"},{"type":"function","name":"gov","inputs":[],"outputs":[{"name":"","type":"address","internalType":"address"}],"stateMutability":"view"},{"type":"function","name":"govProposals","inputs":[{"name":"","type":"address","internalType":"address"}],"outputs":[{"name":"deadline","type":"uint256","internalType":"uint256"},{"name":"isActive","type":"bool","internalType":"bool"}],"stateMutability":"view"},{"type":"function","name":"lastDistributionTime","inputs":[],"outputs":[{"name":"","type":"uint256","internalType":"uint256"}],"stateMutability":"view"},{"type":"function","name":"pendingRewards","inputs":[],"outputs":[{"name":"","type":"uint256","internalType":"uint256"}],"stateMutability":"view"},{"type":"function","name":"rewardToken","inputs":[],"outputs":[{"name":"","type":"address","internalType":"address"}],"stateMutability":"view"},{"type":"function","name":"rewardTracker","inputs":[],"outputs":[{"name":"","type":"address","internalType":"address"}],"stateMutability":"view"},{"type":"function","name":"setAdmin","inputs":[{"name":"_admin","type":"address","internalType":"address"}],"outputs":[],"stateMutability":"nonpayable"},{"type":"function","name":"setBonusMultiplier","inputs":[{"name":"_bonusMultiplierBasisPoints","type":"uint256","internalType":"uint256"}],"outputs":[],"stateMutability":"nonpayable"},{"type":"function","name":"setGov","inputs":[{"name":"_gov","type":"address","internalType":"address"}],"outputs":[],"stateMutability":"nonpayable"},{"type":"function","name":"setGovWithDeadline","inputs":[{"name":"_gov","type":"address","internalType":"address"},{"name":"_deadline","type":"uint256","internalType":"uint256"}],"outputs":[],"stateMutability":"nonpayable"},{"type":"function","name":"tokensPerInterval","inputs":[],"outputs":[{"name":"","type":"uint256","internalType":"uint256"}],"stateMutability":"view"},{"type":"function","name":"updateLastDistributionTime","inputs":[],"outputs":[],"stateMutability":"nonpayable"},{"type":"function","name":"withdrawTokensOrETH","inputs":[{"name":"_tokenOrZero","type":"address","internalType":"address"},{"name":"_account","type":"address","internalType":"address"},{"name":"_amount","type":"uint256","internalType":"uint256"}],"outputs":[],"stateMutability":"nonpayable"},{"type":"event","name":"BonusMultiplierChange","inputs":[{"name":"amount","type":"uint256","indexed":false,"internalType":"uint256"}],"anonymous":false},{"type":"event","name":"Distribute","inputs":[{"name":"amount","type":"uint256","indexed":false,"internalType":"uint256"}],"anonymous":false},{"type":"event","name":"GovProposalCanceled","inputs":[{"name":"proposedGov","type":"address","indexed":true,"internalType":"address"},{"name":"canceledBy","type":"address","indexed":true,"internalType":"address"}],"anonymous":false},{"type":"event","name":"GovernanceTransferRequested","inputs":[{"name":"newGov","type":"address","indexed":true,"internalType":"address"},{"name":"deadline","type":"uint256","indexed":false,"internalType":"uint256"}],"anonymous":false},{"type":"event","name":"GovernanceTransferred","inputs":[{"name":"oldGov","type":"address","indexed":true,"internalType":"address"},{"name":"newGov","type":"address","indexed":true,"internalType":"address"}],"anonymous":false}],"bytecode":{"object":"0x608060405234801561001057600080fd5b5060405161160e38038061160e8339818101604052604081101561003357600080fd5b50805160209091015160018054336001600160a01b031991821681179092556004805482166001600160a01b0395861617905560068054821694909316939093179091556007805490921617905561157e806100906000396000f3fe608060405234801561001057600080fd5b50600436106100fc5760003560e01c8063126082cf1461010157806312d43a511461011b5780632f6beaa51461013f5780633ae6d6eb1461014757806356edcea2146101515780636bb22fd7146101875780636bcb411a146101b3578063704b6c02146101bb57806375b17350146101e15780637bc6729b146101e95780638d0fedb0146101f15780639c35b49714610230578063a013ad5414610256578063a8d936271461025e578063cfad57a214610266578063e4fc6b6d1461028c578063eded3fda14610294578063f7c618c11461029c578063f851a440146102a4578063fd58e63a146102ac575b600080fd5b6101096102c9565b60408051918252519081900360200190f35b6101236102cf565b604080516001600160a01b039092168252519081900360200190f35b6101096102de565b61014f6102e4565b005b61014f6004803603606081101561016757600080fd5b506001600160a01b03813581169160208101359091169060400135610347565b61014f6004803603604081101561019d57600080fd5b506001600160a01b03813516906020013561055c565b610123610671565b61014f600480360360208110156101d157600080fd5b50356001600160a01b0316610680565b6101096106ef565b61014f6106f5565b6102176004803603602081101561020757600080fd5b50356001600160a01b031661080a565b6040805192835290151560208301528051918290030190f35b61014f6004803603602081101561024657600080fd5b50356001600160a01b0316610826565b610109610934565b61010961093c565b61014f6004803603602081101561027c57600080fd5b50356001600160a01b03166109e7565b610109610afd565b610109610c41565b610123610da3565b610123610db2565b61014f600480360360208110156102c257600080fd5b5035610dc1565b61271081565b6001546001600160a01b031681565b60035481565b6007546001600160a01b03163314610341576040805162461bcd60e51b815260206004820152601b60248201527a2137b73ab9a234b9ba3934b13aba37b91d103337b93134b23232b760291b604482015290519081900360640190fd5b42600555565b6001546001600160a01b03163314610394576040805162461bcd60e51b81526020600482015260156024820152600080516020611444833981519152604482015290519081900360640190fd5b600260005414156103ec576040805162461bcd60e51b815260206004820152601f60248201527f5265656e7472616e637947756172643a207265656e7472616e742063616c6c00604482015290519081900360640190fd5b60026000556001600160a01b03831661053e576001600160a01b03821661044c576040805162461bcd60e51b815260206004820152600f60248201526e125b9d985b1a59081858d8dbdd5b9d608a1b604482015290519081900360640190fd5b4781111561049c576040805162461bcd60e51b8152602060048201526018602482015277496e73756666696369656e74204554482062616c616e636560401b604482015290519081900360640190fd5b6040516000906001600160a01b0384169083908381818185875af1925050503d80600081146104e7576040519150601f19603f3d011682016040523d82523d6000602084013e6104ec565b606091505b5050905080610538576040805162461bcd60e51b8152602060048201526013602482015272115512081d1c985b9cd9995c8819985a5b1959606a1b604482015290519081900360640190fd5b50610552565b6105526001600160a01b0384168383610eff565b5050600160005550565b6001546001600160a01b031633146105a9576040805162461bcd60e51b81526020600482015260156024820152600080516020611444833981519152604482015290519081900360640190fd5b6001600160a01b038216610602576040805162461bcd60e51b815260206004820152601b60248201527a476f7665726e61626c653a20696e76616c6964206164647265737360281b604482015290519081900360640190fd5b6001546001600160a01b0383811691161415610663576040805162461bcd60e51b815260206004820152601b60248201527a476f7665726e61626c653a2073616d6520676f7665726e616e636560281b604482015290519081900360640190fd5b61066d8282610f56565b5050565b6006546001600160a01b031681565b6001546001600160a01b031633146106cd576040805162461bcd60e51b81526020600482015260156024820152600080516020611444833981519152604482015290519081900360640190fd5b600780546001600160a01b0319166001600160a01b0392909216919091179055565b60055481565b33600090815260026020526040902080544210610758576040805162461bcd60e51b815260206004820152601c60248201527b11dbdd995c9b98589b194e88191958591b1a5b9948195e1c1a5c995960221b604482015290519081900360640190fd5b60018082015460ff1615151461079f5760405162461bcd60e51b81526004018080602001828103825260228152602001806114b86022913960400191505060405180910390fd5b60018054336000818152600260205260408082208281558501805460ff1916905584546001600160a01b031916831790945592516001600160a01b0390921692909183917f5f56bee8cffbe9a78652a74a60705edede02af10b0bbb888ca44b79a0d42ce8091a35050565b6002602052600090815260409020805460019091015460ff1682565b6001546001600160a01b03163314610873576040805162461bcd60e51b81526020600482015260156024820152600080516020611444833981519152604482015290519081900360640190fd5b6001600160a01b03811660009081526002602052604090206001015460ff166108e3576040805162461bcd60e51b815260206004820152601f60248201527f476f7665726e61626c653a2070726f706f73616c206e6f742061637469766500604482015290519081900360640190fd5b6001600160a01b038116600081815260026020526040808220828155600101805460ff19169055513392917ffc6a2fa53abe2adfe8372a9495032d7e6458d3aed34fa880132b6c808da1e99c91a350565b6301e1338081565b600080600660009054906101000a90046001600160a01b03166001600160a01b03166318160ddd6040518163ffffffff1660e01b815260040160206040518083038186803b15801561098d57600080fd5b505afa1580156109a1573d6000803e3d6000fd5b505050506040513d60208110156109b757600080fd5b50516003549091506109e0906301e13380906109da906127109082908690610fd2565b90611034565b9150505b90565b6001546001600160a01b03163314610a34576040805162461bcd60e51b81526020600482015260156024820152600080516020611444833981519152604482015290519081900360640190fd5b6001600160a01b038116610a8d576040805162461bcd60e51b815260206004820152601b60248201527a476f7665726e61626c653a20696e76616c6964206164647265737360281b604482015290519081900360640190fd5b6001546001600160a01b0382811691161415610aee576040805162461bcd60e51b815260206004820152601b60248201527a476f7665726e61626c653a2073616d6520676f7665726e616e636560281b604482015290519081900360640190fd5b610afa81600019610f56565b50565b6006546000906001600160a01b03163314610b495760405162461bcd60e51b81526004018080602001828103825260248152602001806114fb6024913960400191505060405180910390fd5b6000610b53610c41565b905080610b645760009150506109e4565b4260055560048054604080516370a0823160e01b81523093810193909352516000926001600160a01b03909216916370a08231916024808301926020929190829003018186803b158015610bb757600080fd5b505afa158015610bcb573d6000803e3d6000fd5b505050506040513d6020811015610be157600080fd5b5051905080821115610bf1578091505b600454610c08906001600160a01b03163384610eff565b6040805183815290517f4def474aca53bf221d07d9ab0f675b3f6d8d2494b8427271bcf43c018ef1eead9181900360200190a150905090565b6000600554421415610c55575060006109e4565b600654604080516318160ddd60e01b815290516000926001600160a01b0316916318160ddd916004808301926020929190829003018186803b158015610c9a57600080fd5b505afa158015610cae573d6000803e3d6000fd5b505050506040513d6020811015610cc457600080fd5b5051600554909150600090610cda904290611073565b90506000610d0b6301e133806109da6127106109da600354610d058989610fd290919063ffffffff16565b90610fd2565b60048054604080516370a0823160e01b81523093810193909352519293506000926001600160a01b03909116916370a08231916024808301926020929190829003018186803b158015610d5d57600080fd5b505afa158015610d71573d6000803e3d6000fd5b505050506040513d6020811015610d8757600080fd5b50519050808211610d985781610d9a565b805b94505050505090565b6004546001600160a01b031681565b6007546001600160a01b031681565b6007546001600160a01b03163314610e1e576040805162461bcd60e51b815260206004820152601b60248201527a2137b73ab9a234b9ba3934b13aba37b91d103337b93134b23232b760291b604482015290519081900360640190fd5b600554610e5c5760405162461bcd60e51b815260040180806020018281038252602e81526020018061148a602e913960400191505060405180910390fd5b600660009054906101000a90046001600160a01b03166001600160a01b0316633e158b0c6040518163ffffffff1660e01b8152600401600060405180830381600087803b158015610eac57600080fd5b505af1158015610ec0573d6000803e3d6000fd5b5050506003829055506040805182815290517f58585e4edc172f6517d6789356504dc9ad23553d02202c3ac454a8d0733f6b2b9181900360200190a150565b604080516001600160a01b038416602482015260448082018490528251808303909101815260649091019091526020810180516001600160e01b031663a9059cbb60e01b179052610f519084906110b5565b505050565b604080518082018252828152600160208083018281526001600160a01b03871660008181526002845286902094518555905193909201805460ff1916931515939093179092558251848152925190927f02dd0697be46e764c3ba81094158781c31b235d03bb27a0daf1bdef0ec1084dd92908290030190a25050565b600082610fe15750600061102e565b82820282848281610fee57fe5b041461102b5760405162461bcd60e51b81526004018080602001828103825260218152602001806114da6021913960400191505060405180910390fd5b90505b92915050565b600061102b83836040518060400160405280601a815260200179536166654d6174683a206469766973696f6e206279207a65726f60301b815250611166565b600061102b83836040518060400160405280601e81526020017f536166654d6174683a207375627472616374696f6e206f766572666c6f77000081525061120a565b606061110a826040518060400160405280602081526020017f5361666545524332303a206c6f772d6c6576656c2063616c6c206661696c6564815250856001600160a01b03166112649092919063ffffffff16565b805190915015610f515780806020019051602081101561112957600080fd5b5051610f515760405162461bcd60e51b815260040180806020018281038252602a81526020018061151f602a913960400191505060405180910390fd5b600081836111f25760405162461bcd60e51b81526004018080602001828103825283818151815260200191508051906020019080838360005b838110156111b757818101518382015260200161119f565b50505050905090810190601f1680156111e45780820380516001836020036101000a031916815260200191505b509250505060405180910390fd5b5060008385816111fe57fe5b049150505b9392505050565b6000818484111561125c5760405162461bcd60e51b81526020600482018181528351602484015283519092839260449091019190850190808383600083156111b757818101518382015260200161119f565b505050900390565b6060611273848460008561127b565b949350505050565b6060824710156112bc5760405162461bcd60e51b81526004018080602001828103825260268152602001806114646026913960400191505060405180910390fd5b6112c5856113d7565b611316576040805162461bcd60e51b815260206004820152601d60248201527f416464726573733a2063616c6c20746f206e6f6e2d636f6e7472616374000000604482015290519081900360640190fd5b60006060866001600160a01b031685876040518082805190602001908083835b602083106113555780518252601f199092019160209182019101611336565b6001836020036101000a03801982511681845116808217855250505050505090500191505060006040518083038185875af1925050503d80600081146113b7576040519150601f19603f3d011682016040523d82523d6000602084013e6113bc565b606091505b50915091506113cc8282866113dd565b979650505050505050565b3b151590565b606083156113ec575081611203565b8251156113fc5782518084602001fd5b60405162461bcd60e51b81526020600482018181528451602484015284518593919283926044019190850190808383600083156111b757818101518382015260200161119f56fe476f7665726e61626c653a20666f7262696464656e0000000000000000000000416464726573733a20696e73756666696369656e742062616c616e636520666f722063616c6c426f6e75734469737472696275746f723a20696e76616c6964206c617374446973747269627574696f6e54696d65476f7665726e61626c653a2070726f706f73616c206973206e6f7420616374697665536166654d6174683a206d756c7469706c69636174696f6e206f766572666c6f77426f6e75734469737472696275746f723a20696e76616c6964206d73672e73656e6465725361666545524332303a204552433230206f7065726174696f6e20646964206e6f742073756363656564a2646970667358221220574bb4b4254afcb0618e7907dff5a7ca5ade5f6163aea2af6944a0a1efba262164736f6c634300060c0033","linkReferences":{}},"methodIdentifiers":{"BASIS_POINTS_DIVISOR()":"126082cf","BONUS_DURATION()":"a013ad54","acceptGov()":"7bc6729b","admin()":"f851a440","bonusMultiplierBasisPoints()":"2f6beaa5","cancelGovProposal(address)":"9c35b497","distribute()":"e4fc6b6d","gov()":"12d43a51","govProposals(address)":"8d0fedb0","lastDistributionTime()":"75b17350","pendingRewards()":"eded3fda","rewardToken()":"f7c618c1","rewardTracker()":"6bcb411a","setAdmin(address)":"704b6c02","setBonusMultiplier(uint256)":"fd58e63a","setGov(address)":"cfad57a2","setGovWithDeadline(address,uint256)":"6bb22fd7","tokensPerInterval()":"a8d93627","updateLastDistributionTime()":"3ae6d6eb","withdrawTokensOrETH(address,address,uint256)":"56edcea2"},"id":80}