{"abi":[{"type":"constructor","inputs":[{"name":"_vault","type":"address","internalType":"address"}],"stateMutability":"nonpayable"},{"type":"function","name":"MAX_INT256","inputs":[],"outputs":[{"name":"","type":"uint256","internalType":"uint256"}],"stateMutability":"view"},{"type":"function","name":"_getNextGlobalAveragePrice","inputs":[{"name":"_averagePrice","type":"uint256","internalType":"uint256"},{"name":"_nextPrice","type":"uint256","internalType":"uint256"},{"name":"_nextSize","type":"uint256","internalType":"uint256"},{"name":"_delta","type":"uint256","internalType":"uint256"},{"name":"_realisedPnl","type":"int256","internalType":"int256"}],"outputs":[{"name":"","type":"uint256","internalType":"uint256"}],"stateMutability":"pure"},{"type":"function","name":"acceptGov","inputs":[],"outputs":[],"stateMutability":"nonpayable"},{"type":"function","name":"cancelGovProposal","inputs":[{"name":"_gov","type":"address","internalType":"address"}],"outputs":[],"stateMutability":"nonpayable"},{"type":"function","name":"data","inputs":[{"name":"","type":"bytes32","internalType":"bytes32"}],"outputs":[{"name":"","type":"bytes32","internalType":"bytes32"}],"stateMutability":"view"},{"type":"function","name":"getGlobalShortDelta","inputs":[{"name":"_token","type":"address","internalType":"address"}],"outputs":[{"name":"","type":"bool","internalType":"bool"},{"name":"","type":"uint256","internalType":"uint256"}],"stateMutability":"view"},{"type":"function","name":"getNextGlobalShortData","inputs":[{"name":"_account","type":"address","internalType":"address"},{"name":"_collateralToken","type":"address","internalType":"address"},{"name":"_indexToken","type":"address","internalType":"address"},{"name":"_nextPrice","type":"uint256","internalType":"uint256"},{"name":"_sizeDelta","type":"uint256","internalType":"uint256"},{"name":"_isIncrease","type":"bool","internalType":"bool"}],"outputs":[{"name":"","type":"uint256","internalType":"uint256"},{"name":"","type":"uint256","internalType":"uint256"}],"stateMutability":"view"},{"type":"function","name":"getNextGlobalShortDataWithRealisedPnl","inputs":[{"name":"_indexToken","type":"address","internalType":"address"},{"name":"_nextPrice","type":"uint256","internalType":"uint256"},{"name":"_sizeDelta","type":"uint256","internalType":"uint256"},{"name":"_realisedPnl","type":"int256","internalType":"int256"},{"name":"_isIncrease","type":"bool","internalType":"bool"}],"outputs":[{"name":"","type":"uint256","internalType":"uint256"},{"name":"","type":"uint256","internalType":"uint256"}],"stateMutability":"view"},{"type":"function","name":"getRealisedPnl","inputs":[{"name":"_account","type":"address","internalType":"address"},{"name":"_collateralToken","type":"address","internalType":"address"},{"name":"_indexToken","type":"address","internalType":"address"},{"name":"_sizeDelta","type":"uint256","internalType":"uint256"},{"name":"_isIncrease","type":"bool","internalType":"bool"}],"outputs":[{"name":"","type":"int256","internalType":"int256"}],"stateMutability":"view"},{"type":"function","name":"globalShortAveragePrices","inputs":[{"name":"","type":"address","internalType":"address"}],"outputs":[{"name":"","type":"uint256","internalType":"uint256"}],"stateMutability":"view"},{"type":"function","name":"gov","inputs":[],"outputs":[{"name":"","type":"address","internalType":"address"}],"stateMutability":"view"},{"type":"function","name":"govProposals","inputs":[{"name":"","type":"address","internalType":"address"}],"outputs":[{"name":"deadline","type":"uint256","internalType":"uint256"},{"name":"isActive","type":"bool","internalType":"bool"}],"stateMutability":"view"},{"type":"function","name":"isGlobalShortDataReady","inputs":[],"outputs":[{"name":"","type":"bool","internalType":"bool"}],"stateMutability":"view"},{"type":"function","name":"isHandler","inputs":[{"name":"","type":"address","internalType":"address"}],"outputs":[{"name":"","type":"bool","internalType":"bool"}],"stateMutability":"view"},{"type":"function","name":"setGlobalShortAveragePrice","inputs":[{"name":"_token","type":"address","internalType":"address"},{"name":"_averagePrice","type":"uint256","internalType":"uint256"}],"outputs":[],"stateMutability":"nonpayable"},{"type":"function","name":"setGov","inputs":[{"name":"_gov","type":"address","internalType":"address"}],"outputs":[],"stateMutability":"nonpayable"},{"type":"function","name":"setGovWithDeadline","inputs":[{"name":"_gov","type":"address","internalType":"address"},{"name":"_deadline","type":"uint256","internalType":"uint256"}],"outputs":[],"stateMutability":"nonpayable"},{"type":"function","name":"setHandler","inputs":[{"name":"_handler","type":"address","internalType":"address"},{"name":"_isActive","type":"bool","internalType":"bool"}],"outputs":[],"stateMutability":"nonpayable"},{"type":"function","name":"setInitData","inputs":[{"name":"_tokens","type":"address[]","internalType":"address[]"},{"name":"_averagePrices","type":"uint256[]","internalType":"uint256[]"}],"outputs":[],"stateMutability":"nonpayable"},{"type":"function","name":"setIsGlobalShortDataReady","inputs":[{"name":"value","type":"bool","internalType":"bool"}],"outputs":[],"stateMutability":"nonpayable"},{"type":"function","name":"updateGlobalShortData","inputs":[{"name":"_account","type":"address","internalType":"address"},{"name":"_collateralToken","type":"address","internalType":"address"},{"name":"_indexToken","type":"address","internalType":"address"},{"name":"_isLong","type":"bool","internalType":"bool"},{"name":"_sizeDelta","type":"uint256","internalType":"uint256"},{"name":"_markPrice","type":"uint256","internalType":"uint256"},{"name":"_isIncrease","type":"bool","internalType":"bool"}],"outputs":[],"stateMutability":"nonpayable"},{"type":"function","name":"vault","inputs":[],"outputs":[{"name":"","type":"address","internalType":"contract IVault"}],"stateMutability":"view"},{"type":"event","name":"GlobalShortDataUpdated","inputs":[{"name":"token","type":"address","indexed":true,"internalType":"address"},{"name":"globalShortSize","type":"uint256","indexed":false,"internalType":"uint256"},{"name":"globalShortAveragePrice","type":"uint256","indexed":false,"internalType":"uint256"}],"anonymous":false},{"type":"event","name":"GovProposalCanceled","inputs":[{"name":"proposedGov","type":"address","indexed":true,"internalType":"address"},{"name":"canceledBy","type":"address","indexed":true,"internalType":"address"}],"anonymous":false},{"type":"event","name":"GovernanceTransferRequested","inputs":[{"name":"newGov","type":"address","indexed":true,"internalType":"address"},{"name":"deadline","type":"uint256","indexed":false,"internalType":"uint256"}],"anonymous":false},{"type":"event","name":"GovernanceTransferred","inputs":[{"name":"oldGov","type":"address","indexed":true,"internalType":"address"},{"name":"newGov","type":"address","indexed":true,"internalType":"address"}],"anonymous":false},{"type":"event","name":"InitDataSet","inputs":[{"name":"tokens","type":"address[]","indexed":false,"internalType":"address[]"},{"name":"averagePrices","type":"uint256[]","indexed":false,"internalType":"uint256[]"}],"anonymous":false}],"bytecode":{"object":"0x60a060405234801561001057600080fd5b506040516119cc3803806119cc8339818101604052602081101561003357600080fd5b5051600080546001600160a01b031916331790556001600160601b031960609190911b1660805260805160601c61193c6100906000398061091d5280610c965280610dfe5280610fb952806110835280611512525061193c6000f3fe608060405234801561001057600080fd5b50600436106101125760003560e01c80630147fb0c14610117578063122e7b071461014657806312d43a511461014e5780633d30cabf1461017257806346ea87af146101935780635886b711146101cd57806362749803146102025780636bb22fd714610228578063776edefc146102545780637bc6729b1461028057806383d7048d146102885780638d0fedb0146102e15780639a11178f146103205780639c35b497146103285780639cb7de4b1461034e5780639cdeb5931461037c578063a83b75fd146103c6578063b364accb1461040a578063bbd971871461044b578063cfad57a214610509578063f3238cec1461052f578063fbfa77cf14610581575b600080fd5b6101346004803603602081101561012d57600080fd5b5035610589565b60408051918252519081900360200190f35b61013461059b565b6101566105a6565b604080516001600160a01b039092168252519081900360200190f35b6101916004803603602081101561018857600080fd5b503515156105b5565b005b6101b9600480360360208110156101a957600080fd5b50356001600160a01b0316610615565b604080519115158252519081900360200190f35b610134600480360360a08110156101e357600080fd5b508035906020810135906040810135906060810135906080013561062a565b6101346004803603602081101561021857600080fd5b50356001600160a01b0316610681565b6101916004803603604081101561023e57600080fd5b506001600160a01b038135169060200135610693565b6101916004803603604081101561026a57600080fd5b506001600160a01b0381351690602001356107a8565b6101916107c4565b6102c8600480360360a081101561029e57600080fd5b506001600160a01b03813516906020810135906040810135906060810135906080013515156108d8565b6040805192835260208301919091528051918290030190f35b610307600480360360208110156102f757600080fd5b50356001600160a01b0316610a36565b6040805192835290151560208301528051918290030190f35b6101b9610a52565b6101916004803603602081101561033e57600080fd5b50356001600160a01b0316610a5b565b6101916004803603604081101561036457600080fd5b506001600160a01b0381351690602001351515610b6c565b6102c8600480360360c081101561039257600080fd5b506001600160a01b03813581169160208101358216916040820135169060608101359060808101359060a001351515610c3f565b610134600480360360a08110156103dc57600080fd5b506001600160a01b038135811691602081013582169160408201351690606081013590608001351515610db3565b6104306004803603602081101561042057600080fd5b50356001600160a01b0316610fb2565b60408051921515835260208301919091528051918290030190f35b6101916004803603604081101561046157600080fd5b810190602081018135600160201b81111561047b57600080fd5b82018360208201111561048d57600080fd5b803590602001918460208302840111600160201b831117156104ae57600080fd5b919390929091602081019035600160201b8111156104cb57600080fd5b8201836020820111156104dd57600080fd5b803590602001918460208302840111600160201b831117156104fe57600080fd5b509092509050611162565b6101916004803603602081101561051f57600080fd5b50356001600160a01b031661130a565b610191600480360360e081101561054557600080fd5b506001600160a01b038135811691602081013582169160408201351690606081013515159060808101359060a08101359060c001351515611420565b610156611510565b60036020526000908152604090205481565b6001600160ff1b0381565b6000546001600160a01b031681565b6000546001600160a01b03163314610602576040805162461bcd60e51b815260206004820152601560248201526000805160206118a4833981519152604482015290519081900360640190fd5b6005805460ff1916911515919091179055565b60026020526000908152604090205460ff1681565b600080600061063b85898987611534565b915091506000610672836106585761065388846115f1565b610662565b6106628884611652565b61066c8a8a611694565b906116ed565b93505050505b95945050505050565b60046020526000908152604090205481565b6000546001600160a01b031633146106e0576040805162461bcd60e51b815260206004820152601560248201526000805160206118a4833981519152604482015290519081900360640190fd5b6001600160a01b038216610739576040805162461bcd60e51b815260206004820152601b60248201527a476f7665726e61626c653a20696e76616c6964206164647265737360281b604482015290519081900360640190fd5b6000546001600160a01b038381169116141561079a576040805162461bcd60e51b815260206004820152601b60248201527a476f7665726e61626c653a2073616d6520676f7665726e616e636560281b604482015290519081900360640190fd5b6107a4828261172c565b5050565b6001600160a01b03909116600090815260046020526040902055565b33600090815260016020526040902080544210610827576040805162461bcd60e51b815260206004820152601c60248201527b11dbdd995c9b98589b194e88191958591b1a5b9948195e1c1a5c995960221b604482015290519081900360640190fd5b60018082015460ff1615151461086e5760405162461bcd60e51b81526004018080602001828103825260228152602001806118c46022913960400191505060405180910390fd5b6000805433808352600160208190526040808520858155909101805460ff1916905583546001600160a01b03191682178455516001600160a01b0390921692909183917f5f56bee8cffbe9a78652a74a60705edede02af10b0bbb888ca44b79a0d42ce8091a35050565b6001600160a01b03851660009081526004602052604081205481908187821161090a576109058883611652565b610914565b6109148289611652565b905060008060007f00000000000000000000000000000000000000000000000000000000000000006001600160a01b0316638a78daa88d6040518263ffffffff1660e01b815260040180826001600160a01b0316815260200191505060206040518083038186803b15801561098857600080fd5b505afa15801561099c573d6000803e3d6000fd5b505050506040513d60208110156109b257600080fd5b50519050876109ca576109c5818b611652565b6109d4565b6109d4818b6115f1565b9250826109ec57600080965096505050505050610a2c565b84610a0157828b965096505050505050610a2c565b610a0f8561066c8387611694565b9150506000610a21858c85858d61062a565b929650919450505050505b9550959350505050565b6001602081905260009182526040909120805491015460ff1682565b60055460ff1681565b6000546001600160a01b03163314610aa8576040805162461bcd60e51b815260206004820152601560248201526000805160206118a4833981519152604482015290519081900360640190fd5b6001600160a01b0381166000908152600160208190526040909120015460ff16610b19576040805162461bcd60e51b815260206004820152601f60248201527f476f7665726e61626c653a2070726f706f73616c206e6f742061637469766500604482015290519081900360640190fd5b6001600160a01b0381166000818152600160208190526040808320838155909101805460ff19169055513392917ffc6a2fa53abe2adfe8372a9495032d7e6458d3aed34fa880132b6c808da1e99c91a350565b6000546001600160a01b03163314610bb9576040805162461bcd60e51b815260206004820152601560248201526000805160206118a4833981519152604482015290519081900360640190fd5b6001600160a01b038216610c14576040805162461bcd60e51b815260206004820152601f60248201527f53686f727473547261636b65723a20696e76616c6964205f68616e646c657200604482015290519081900360640190fd5b6001600160a01b03919091166000908152600260205260409020805460ff1916911515919091179055565b6000806000610c518989898888610db3565b6001600160a01b038816600090815260046020526040812054919250878211610c8357610c7e8883611652565b610c8d565b610c8d8289611652565b905060008060007f00000000000000000000000000000000000000000000000000000000000000006001600160a01b0316638a78daa88d6040518263ffffffff1660e01b815260040180826001600160a01b0316815260200191505060206040518083038186803b158015610d0157600080fd5b505afa158015610d15573d6000803e3d6000fd5b505050506040513d6020811015610d2b57600080fd5b5051905088610d4357610d3e818b611652565b610d4d565b610d4d818b6115f1565b925082610d665760008097509750505050505050610da8565b84610d7c57828b97509750505050505050610da8565b610d8a8561066c8387611694565b9150506000610d9c858c85858a61062a565b92975091955050505050505b965096945050505050565b60008115610dc357506000610678565b60408051634a3f088d60e01b81526001600160a01b0388811660048301528781166024830152868116604483015260006064830181905292517f000000000000000000000000000000000000000000000000000000000000000093928392839290861691634a3f088d91608480830192610100929190829003018186803b158015610e4d57600080fd5b505afa158015610e61573d6000803e3d6000fd5b505050506040513d610100811015610e7857600080fd5b50805160408083015160e0909301518151635c07eaab60e01b81526001600160a01b038d811660048301526024820185905260448201869052600060648301819052608483018490528451959950959750919550849391891692635c07eaab9260a480840193829003018186803b158015610ef257600080fd5b505afa158015610f06573d6000803e3d6000fd5b505050506040513d6040811015610f1c57600080fd5b50805160209091015190925090506000610f3a8661066c8c85611694565b90506001600160ff1b038110610f91576040805162461bcd60e51b815260206004820152601760248201527653686f727473547261636b65723a206f766572666c6f7760481b604482015290519081900360640190fd5b82610f9f5780600003610fa1565b805b9d9c50505050505050505050505050565b60008060007f00000000000000000000000000000000000000000000000000000000000000006001600160a01b0316638a78daa8856040518263ffffffff1660e01b815260040180826001600160a01b0316815260200191505060206040518083038186803b15801561102457600080fd5b505afa158015611038573d6000803e3d6000fd5b505050506040513d602081101561104e57600080fd5b50516001600160a01b0385166000908152600460205260409020549091508161107f5760008093509350505061115d565b60007f00000000000000000000000000000000000000000000000000000000000000006001600160a01b031663e124e6d2876040518263ffffffff1660e01b815260040180826001600160a01b0316815260200191505060206040518083038186803b1580156110ee57600080fd5b505afa158015611102573d6000803e3d6000fd5b505050506040513d602081101561111857600080fd5b5051905060008183116111345761112f8284611652565b61113e565b61113e8383611652565b905060006111508461066c8785611694565b9290931195509093505050505b915091565b6000546001600160a01b031633146111af576040805162461bcd60e51b815260206004820152601560248201526000805160206118a4833981519152604482015290519081900360640190fd5b60055460ff1615611207576040805162461bcd60e51b815260206004820152601f60248201527f53686f727473547261636b65723a20616c7265616479206d6967726174656400604482015290519081900360640190fd5b60005b838110156112605782828281811061121e57fe5b905060200201356004600087878581811061123557fe5b602090810292909201356001600160a01b03168352508101919091526040016000205560010161120a565b506005805460ff19166001179055604080518181529081018490527f643879cbe2e5566e161376319ede003b77014250e6536446ba5caadab93e25f69085908590859085908060208082019060608301908890880280828437600083820152601f01601f19169091018481038352858152602090810191508690860280828437600083820152604051601f909101601f19169092018290039850909650505050505050a150505050565b6000546001600160a01b03163314611357576040805162461bcd60e51b815260206004820152601560248201526000805160206118a4833981519152604482015290519081900360640190fd5b6001600160a01b0381166113b0576040805162461bcd60e51b815260206004820152601b60248201527a476f7665726e61626c653a20696e76616c6964206164647265737360281b604482015290519081900360640190fd5b6000546001600160a01b0382811691161415611411576040805162461bcd60e51b815260206004820152601b60248201527a476f7665726e61626c653a2073616d6520676f7665726e616e636560281b604482015290519081900360640190fd5b61141d8160001961172c565b50565b3360009081526002602052604090205460ff1661147f576040805162461bcd60e51b815260206004820152601860248201527729b437b93a39aa3930b1b5b2b91d103337b93134b23232b760411b604482015290519081900360640190fd5b8380611489575082155b1561149357611507565b60055460ff166114a257611507565b6000806114b3898989878988610c3f565b915091506114c187826107a8565b604080518381526020810183905281516001600160a01b038a16927fd6137be44db128ffcf1ea1821dbe8f889f67f949be7656c2d8acba2a4a891a02928290030190a250505b50505050505050565b7f000000000000000000000000000000000000000000000000000000000000000081565b600080838511801561159357600084131561157857868411156115665761155b8488611652565b965060009050611573565b6115708785611652565b96505b611589565b6115868760008690036115f1565b96505b91508590506115e8565b60008413156115ad576115a687856115f1565b96506115e2565b868460000311156115d1576115c6600085900388611652565b9650600190506115e2565b6115df876000869003611652565b96505b91508590505b94509492505050565b600082820183811015611649576040805162461bcd60e51b815260206004820152601b60248201527a536166654d6174683a206164646974696f6e206f766572666c6f7760281b604482015290519081900360640190fd5b90505b92915050565b600061164983836040518060400160405280601e81526020017f536166654d6174683a207375627472616374696f6e206f766572666c6f7700008152506117a7565b6000826116a35750600061164c565b828202828482816116b057fe5b04146116495760405162461bcd60e51b81526004018080602001828103825260218152602001806118e66021913960400191505060405180910390fd5b600061164983836040518060400160405280601a815260200179536166654d6174683a206469766973696f6e206279207a65726f60301b81525061183e565b604080518082018252828152600160208083018281526001600160a01b038716600081815284845286902094518555905193909201805460ff1916931515939093179092558251848152925190927f02dd0697be46e764c3ba81094158781c31b235d03bb27a0daf1bdef0ec1084dd92908290030190a25050565b600081848411156118365760405162461bcd60e51b81526004018080602001828103825283818151815260200191508051906020019080838360005b838110156117fb5781810151838201526020016117e3565b50505050905090810190601f1680156118285780820380516001836020036101000a031916815260200191505b509250505060405180910390fd5b505050900390565b6000818361188d5760405162461bcd60e51b81526020600482018181528351602484015283519092839260449091019190850190808383600083156117fb5781810151838201526020016117e3565b50600083858161189957fe5b049594505050505056fe476f7665726e61626c653a20666f7262696464656e0000000000000000000000476f7665726e61626c653a2070726f706f73616c206973206e6f7420616374697665536166654d6174683a206d756c7469706c69636174696f6e206f766572666c6f77a2646970667358221220d6420665c70b2fe4026498ed71467030525d299f8f6925b242e99573a49f25cd64736f6c634300060c0033","linkReferences":{}},"methodIdentifiers":{"MAX_INT256()":"122e7b07","_getNextGlobalAveragePrice(uint256,uint256,uint256,uint256,int256)":"5886b711","acceptGov()":"7bc6729b","cancelGovProposal(address)":"9c35b497","data(bytes32)":"0147fb0c","getGlobalShortDelta(address)":"b364accb","getNextGlobalShortData(address,address,address,uint256,uint256,bool)":"9cdeb593","getNextGlobalShortDataWithRealisedPnl(address,uint256,uint256,int256,bool)":"83d7048d","getRealisedPnl(address,address,address,uint256,bool)":"a83b75fd","globalShortAveragePrices(address)":"62749803","gov()":"12d43a51","govProposals(address)":"8d0fedb0","isGlobalShortDataReady()":"9a11178f","isHandler(address)":"46ea87af","setGlobalShortAveragePrice(address,uint256)":"776edefc","setGov(address)":"cfad57a2","setGovWithDeadline(address,uint256)":"6bb22fd7","setHandler(address,bool)":"9cb7de4b","setInitData(address[],uint256[])":"bbd97187","setIsGlobalShortDataReady(bool)":"3d30cabf","updateGlobalShortData(address,address,address,bool,uint256,uint256,bool)":"f3238cec","vault()":"fbfa77cf"},"id":65}