{"abi":[{"type":"constructor","inputs":[{"name":"_vault","type":"address","internalType":"address"}],"stateMutability":"nonpayable"},{"type":"function","name":"MAX_INT256","inputs":[],"outputs":[{"name":"","type":"uint256","internalType":"uint256"}],"stateMutability":"view"},{"type":"function","name":"_getNextGlobalAveragePrice","inputs":[{"name":"_averagePrice","type":"uint256","internalType":"uint256"},{"name":"_nextPrice","type":"uint256","internalType":"uint256"},{"name":"_nextSize","type":"uint256","internalType":"uint256"},{"name":"_delta","type":"uint256","internalType":"uint256"},{"name":"_realisedPnl","type":"int256","internalType":"int256"}],"outputs":[{"name":"","type":"uint256","internalType":"uint256"}],"stateMutability":"pure"},{"type":"function","name":"acceptGov","inputs":[],"outputs":[],"stateMutability":"nonpayable"},{"type":"function","name":"cancelGovProposal","inputs":[{"name":"_gov","type":"address","internalType":"address"}],"outputs":[],"stateMutability":"nonpayable"},{"type":"function","name":"data","inputs":[{"name":"","type":"bytes32","internalType":"bytes32"}],"outputs":[{"name":"","type":"bytes32","internalType":"bytes32"}],"stateMutability":"view"},{"type":"function","name":"getGlobalShortDelta","inputs":[{"name":"_token","type":"address","internalType":"address"}],"outputs":[{"name":"","type":"bool","internalType":"bool"},{"name":"","type":"uint256","internalType":"uint256"}],"stateMutability":"view"},{"type":"function","name":"getNextGlobalShortData","inputs":[{"name":"_account","type":"address","internalType":"address"},{"name":"_collateralToken","type":"address","internalType":"address"},{"name":"_indexToken","type":"address","internalType":"address"},{"name":"_nextPrice","type":"uint256","internalType":"uint256"},{"name":"_sizeDelta","type":"uint256","internalType":"uint256"},{"name":"_isIncrease","type":"bool","internalType":"bool"}],"outputs":[{"name":"","type":"uint256","internalType":"uint256"},{"name":"","type":"uint256","internalType":"uint256"}],"stateMutability":"view"},{"type":"function","name":"getNextGlobalShortDataWithRealisedPnl","inputs":[{"name":"_indexToken","type":"address","internalType":"address"},{"name":"_nextPrice","type":"uint256","internalType":"uint256"},{"name":"_sizeDelta","type":"uint256","internalType":"uint256"},{"name":"_realisedPnl","type":"int256","internalType":"int256"},{"name":"_isIncrease","type":"bool","internalType":"bool"}],"outputs":[{"name":"","type":"uint256","internalType":"uint256"},{"name":"","type":"uint256","internalType":"uint256"}],"stateMutability":"view"},{"type":"function","name":"getRealisedPnl","inputs":[{"name":"_account","type":"address","internalType":"address"},{"name":"_collateralToken","type":"address","internalType":"address"},{"name":"_indexToken","type":"address","internalType":"address"},{"name":"_sizeDelta","type":"uint256","internalType":"uint256"},{"name":"_isIncrease","type":"bool","internalType":"bool"}],"outputs":[{"name":"","type":"int256","internalType":"int256"}],"stateMutability":"view"},{"type":"function","name":"globalShortAveragePrices","inputs":[{"name":"","type":"address","internalType":"address"}],"outputs":[{"name":"","type":"uint256","internalType":"uint256"}],"stateMutability":"view"},{"type":"function","name":"gov","inputs":[],"outputs":[{"name":"","type":"address","internalType":"address"}],"stateMutability":"view"},{"type":"function","name":"govProposals","inputs":[{"name":"","type":"address","internalType":"address"}],"outputs":[{"name":"deadline","type":"uint256","internalType":"uint256"},{"name":"isActive","type":"bool","internalType":"bool"}],"stateMutability":"view"},{"type":"function","name":"isGlobalShortDataReady","inputs":[],"outputs":[{"name":"","type":"bool","internalType":"bool"}],"stateMutability":"view"},{"type":"function","name":"isHandler","inputs":[{"name":"","type":"address","internalType":"address"}],"outputs":[{"name":"","type":"bool","internalType":"bool"}],"stateMutability":"view"},{"type":"function","name":"setGlobalShortAveragePrice","inputs":[{"name":"_token","type":"address","internalType":"address"},{"name":"_averagePrice","type":"uint256","internalType":"uint256"}],"outputs":[],"stateMutability":"nonpayable"},{"type":"function","name":"setGov","inputs":[{"name":"_gov","type":"address","internalType":"address"}],"outputs":[],"stateMutability":"nonpayable"},{"type":"function","name":"setGovWithDeadline","inputs":[{"name":"_gov","type":"address","internalType":"address"},{"name":"_deadline","type":"uint256","internalType":"uint256"}],"outputs":[],"stateMutability":"nonpayable"},{"type":"function","name":"setHandler","inputs":[{"name":"_handler","type":"address","internalType":"address"},{"name":"_isActive","type":"bool","internalType":"bool"}],"outputs":[],"stateMutability":"nonpayable"},{"type":"function","name":"setInitData","inputs":[{"name":"_tokens","type":"address[]","internalType":"address[]"},{"name":"_averagePrices","type":"uint256[]","internalType":"uint256[]"}],"outputs":[],"stateMutability":"nonpayable"},{"type":"function","name":"setIsGlobalShortDataReady","inputs":[{"name":"value","type":"bool","internalType":"bool"}],"outputs":[],"stateMutability":"nonpayable"},{"type":"function","name":"updateGlobalShortData","inputs":[{"name":"_account","type":"address","internalType":"address"},{"name":"_collateralToken","type":"address","internalType":"address"},{"name":"_indexToken","type":"address","internalType":"address"},{"name":"_isLong","type":"bool","internalType":"bool"},{"name":"_sizeDelta","type":"uint256","internalType":"uint256"},{"name":"_markPrice","type":"uint256","internalType":"uint256"},{"name":"_isIncrease","type":"bool","internalType":"bool"}],"outputs":[],"stateMutability":"nonpayable"},{"type":"function","name":"vault","inputs":[],"outputs":[{"name":"","type":"address","internalType":"contract IVault"}],"stateMutability":"view"},{"type":"event","name":"GlobalShortDataUpdated","inputs":[{"name":"token","type":"address","indexed":true,"internalType":"address"},{"name":"globalShortSize","type":"uint256","indexed":false,"internalType":"uint256"},{"name":"globalShortAveragePrice","type":"uint256","indexed":false,"internalType":"uint256"}],"anonymous":false},{"type":"event","name":"GovernanceTransferRequested","inputs":[{"name":"newGov","type":"address","indexed":true,"internalType":"address"},{"name":"deadline","type":"uint256","indexed":false,"internalType":"uint256"}],"anonymous":false},{"type":"event","name":"GovernanceTransferred","inputs":[{"name":"oldGov","type":"address","indexed":true,"internalType":"address"},{"name":"newGov","type":"address","indexed":true,"internalType":"address"}],"anonymous":false}],"bytecode":{"object":"0x60a060405234801561001057600080fd5b5060405161190a38038061190a8339818101604052602081101561003357600080fd5b5051600080546001600160a01b031916331790556001600160601b031960609190911b1660805260805160601c61187a6100906000398061091d5280610c6a5280610dd25280610f8d52806110575280611450525061187a6000f3fe608060405234801561001057600080fd5b50600436106101125760003560e01c80630147fb0c14610117578063122e7b071461014657806312d43a511461014e5780633d30cabf1461017257806346ea87af146101935780635886b711146101cd57806362749803146102025780636bb22fd714610228578063776edefc146102545780637bc6729b1461028057806383d7048d146102885780638d0fedb0146102e15780639a11178f146103205780639c35b497146103285780639cb7de4b1461034e5780639cdeb5931461037c578063a83b75fd146103c6578063b364accb1461040a578063bbd971871461044b578063cfad57a214610509578063f3238cec1461052f578063fbfa77cf14610581575b600080fd5b6101346004803603602081101561012d57600080fd5b5035610589565b60408051918252519081900360200190f35b61013461059b565b6101566105a6565b604080516001600160a01b039092168252519081900360200190f35b6101916004803603602081101561018857600080fd5b503515156105b5565b005b6101b9600480360360208110156101a957600080fd5b50356001600160a01b0316610615565b604080519115158252519081900360200190f35b610134600480360360a08110156101e357600080fd5b508035906020810135906040810135906060810135906080013561062a565b6101346004803603602081101561021857600080fd5b50356001600160a01b0316610681565b6101916004803603604081101561023e57600080fd5b506001600160a01b038135169060200135610693565b6101916004803603604081101561026a57600080fd5b506001600160a01b0381351690602001356107a8565b6101916107c4565b6102c8600480360360a081101561029e57600080fd5b506001600160a01b03813516906020810135906040810135906060810135906080013515156108d8565b6040805192835260208301919091528051918290030190f35b610307600480360360208110156102f757600080fd5b50356001600160a01b0316610a36565b6040805192835290151560208301528051918290030190f35b6101b9610a52565b6101916004803603602081101561033e57600080fd5b50356001600160a01b0316610a5b565b6101916004803603604081101561036457600080fd5b506001600160a01b0381351690602001351515610b40565b6102c8600480360360c081101561039257600080fd5b506001600160a01b03813581169160208101358216916040820135169060608101359060808101359060a001351515610c13565b610134600480360360a08110156103dc57600080fd5b506001600160a01b038135811691602081013582169160408201351690606081013590608001351515610d87565b6104306004803603602081101561042057600080fd5b50356001600160a01b0316610f86565b60408051921515835260208301919091528051918290030190f35b6101916004803603604081101561046157600080fd5b810190602081018135600160201b81111561047b57600080fd5b82018360208201111561048d57600080fd5b803590602001918460208302840111600160201b831117156104ae57600080fd5b919390929091602081019035600160201b8111156104cb57600080fd5b8201836020820111156104dd57600080fd5b803590602001918460208302840111600160201b831117156104fe57600080fd5b509092509050611136565b6101916004803603602081101561051f57600080fd5b50356001600160a01b0316611248565b610191600480360360e081101561054557600080fd5b506001600160a01b038135811691602081013582169160408201351690606081013515159060808101359060a08101359060c00135151561135e565b61015661144e565b60036020526000908152604090205481565b6001600160ff1b0381565b6000546001600160a01b031681565b6000546001600160a01b03163314610602576040805162461bcd60e51b815260206004820152601560248201526000805160206117e2833981519152604482015290519081900360640190fd5b6005805460ff1916911515919091179055565b60026020526000908152604090205460ff1681565b600080600061063b85898987611472565b9150915060006106728361065857610653888461152f565b610662565b6106628884611590565b61066c8a8a6115d2565b9061162b565b93505050505b95945050505050565b60046020526000908152604090205481565b6000546001600160a01b031633146106e0576040805162461bcd60e51b815260206004820152601560248201526000805160206117e2833981519152604482015290519081900360640190fd5b6001600160a01b038216610739576040805162461bcd60e51b815260206004820152601b60248201527a476f7665726e61626c653a20696e76616c6964206164647265737360281b604482015290519081900360640190fd5b6000546001600160a01b038381169116141561079a576040805162461bcd60e51b815260206004820152601b60248201527a476f7665726e61626c653a2073616d6520676f7665726e616e636560281b604482015290519081900360640190fd5b6107a4828261166a565b5050565b6001600160a01b03909116600090815260046020526040902055565b33600090815260016020526040902080544210610827576040805162461bcd60e51b815260206004820152601c60248201527b11dbdd995c9b98589b194e88191958591b1a5b9948195e1c1a5c995960221b604482015290519081900360640190fd5b60018082015460ff1615151461086e5760405162461bcd60e51b81526004018080602001828103825260228152602001806118026022913960400191505060405180910390fd5b6000805433808352600160208190526040808520858155909101805460ff1916905583546001600160a01b03191682178455516001600160a01b0390921692909183917f5f56bee8cffbe9a78652a74a60705edede02af10b0bbb888ca44b79a0d42ce8091a35050565b6001600160a01b03851660009081526004602052604081205481908187821161090a576109058883611590565b610914565b6109148289611590565b905060008060007f00000000000000000000000000000000000000000000000000000000000000006001600160a01b0316638a78daa88d6040518263ffffffff1660e01b815260040180826001600160a01b0316815260200191505060206040518083038186803b15801561098857600080fd5b505afa15801561099c573d6000803e3d6000fd5b505050506040513d60208110156109b257600080fd5b50519050876109ca576109c5818b611590565b6109d4565b6109d4818b61152f565b9250826109ec57600080965096505050505050610a2c565b84610a0157828b965096505050505050610a2c565b610a0f8561066c83876115d2565b9150506000610a21858c85858d61062a565b929650919450505050505b9550959350505050565b6001602081905260009182526040909120805491015460ff1682565b60055460ff1681565b6000546001600160a01b03163314610aa8576040805162461bcd60e51b815260206004820152601560248201526000805160206117e2833981519152604482015290519081900360640190fd5b6001600160a01b0381166000908152600160208190526040909120015460ff16610b19576040805162461bcd60e51b815260206004820152601f60248201527f476f7665726e61626c653a2070726f706f73616c206e6f742061637469766500604482015290519081900360640190fd5b6001600160a01b03166000908152600160208190526040822091825501805460ff19169055565b6000546001600160a01b03163314610b8d576040805162461bcd60e51b815260206004820152601560248201526000805160206117e2833981519152604482015290519081900360640190fd5b6001600160a01b038216610be8576040805162461bcd60e51b815260206004820152601f60248201527f53686f727473547261636b65723a20696e76616c6964205f68616e646c657200604482015290519081900360640190fd5b6001600160a01b03919091166000908152600260205260409020805460ff1916911515919091179055565b6000806000610c258989898888610d87565b6001600160a01b038816600090815260046020526040812054919250878211610c5757610c528883611590565b610c61565b610c618289611590565b905060008060007f00000000000000000000000000000000000000000000000000000000000000006001600160a01b0316638a78daa88d6040518263ffffffff1660e01b815260040180826001600160a01b0316815260200191505060206040518083038186803b158015610cd557600080fd5b505afa158015610ce9573d6000803e3d6000fd5b505050506040513d6020811015610cff57600080fd5b5051905088610d1757610d12818b611590565b610d21565b610d21818b61152f565b925082610d3a5760008097509750505050505050610d7c565b84610d5057828b97509750505050505050610d7c565b610d5e8561066c83876115d2565b9150506000610d70858c85858a61062a565b92975091955050505050505b965096945050505050565b60008115610d9757506000610678565b60408051634a3f088d60e01b81526001600160a01b0388811660048301528781166024830152868116604483015260006064830181905292517f000000000000000000000000000000000000000000000000000000000000000093928392839290861691634a3f088d91608480830192610100929190829003018186803b158015610e2157600080fd5b505afa158015610e35573d6000803e3d6000fd5b505050506040513d610100811015610e4c57600080fd5b50805160408083015160e0909301518151635c07eaab60e01b81526001600160a01b038d811660048301526024820185905260448201869052600060648301819052608483018490528451959950959750919550849391891692635c07eaab9260a480840193829003018186803b158015610ec657600080fd5b505afa158015610eda573d6000803e3d6000fd5b505050506040513d6040811015610ef057600080fd5b50805160209091015190925090506000610f0e8661066c8c856115d2565b90506001600160ff1b038110610f65576040805162461bcd60e51b815260206004820152601760248201527653686f727473547261636b65723a206f766572666c6f7760481b604482015290519081900360640190fd5b82610f735780600003610f75565b805b9d9c50505050505050505050505050565b60008060007f00000000000000000000000000000000000000000000000000000000000000006001600160a01b0316638a78daa8856040518263ffffffff1660e01b815260040180826001600160a01b0316815260200191505060206040518083038186803b158015610ff857600080fd5b505afa15801561100c573d6000803e3d6000fd5b505050506040513d602081101561102257600080fd5b50516001600160a01b0385166000908152600460205260409020549091508161105357600080935093505050611131565b60007f00000000000000000000000000000000000000000000000000000000000000006001600160a01b031663e124e6d2876040518263ffffffff1660e01b815260040180826001600160a01b0316815260200191505060206040518083038186803b1580156110c257600080fd5b505afa1580156110d6573d6000803e3d6000fd5b505050506040513d60208110156110ec57600080fd5b505190506000818311611108576111038284611590565b611112565b6111128383611590565b905060006111248461066c87856115d2565b9290931195509093505050505b915091565b6000546001600160a01b03163314611183576040805162461bcd60e51b815260206004820152601560248201526000805160206117e2833981519152604482015290519081900360640190fd5b60055460ff16156111db576040805162461bcd60e51b815260206004820152601f60248201527f53686f727473547261636b65723a20616c7265616479206d6967726174656400604482015290519081900360640190fd5b60005b83811015611234578282828181106111f257fe5b905060200201356004600087878581811061120957fe5b602090810292909201356001600160a01b0316835250810191909152604001600020556001016111de565b50506005805460ff19166001179055505050565b6000546001600160a01b03163314611295576040805162461bcd60e51b815260206004820152601560248201526000805160206117e2833981519152604482015290519081900360640190fd5b6001600160a01b0381166112ee576040805162461bcd60e51b815260206004820152601b60248201527a476f7665726e61626c653a20696e76616c6964206164647265737360281b604482015290519081900360640190fd5b6000546001600160a01b038281169116141561134f576040805162461bcd60e51b815260206004820152601b60248201527a476f7665726e61626c653a2073616d6520676f7665726e616e636560281b604482015290519081900360640190fd5b61135b8160001961166a565b50565b3360009081526002602052604090205460ff166113bd576040805162461bcd60e51b815260206004820152601860248201527729b437b93a39aa3930b1b5b2b91d103337b93134b23232b760411b604482015290519081900360640190fd5b83806113c7575082155b156113d157611445565b60055460ff166113e057611445565b6000806113f1898989878988610c13565b915091506113ff87826107a8565b604080518381526020810183905281516001600160a01b038a16927fd6137be44db128ffcf1ea1821dbe8f889f67f949be7656c2d8acba2a4a891a02928290030190a250505b50505050505050565b7f000000000000000000000000000000000000000000000000000000000000000081565b60008083851180156114d15760008413156114b657868411156114a4576114998488611590565b9650600090506114b1565b6114ae8785611590565b96505b6114c7565b6114c487600086900361152f565b96505b9150859050611526565b60008413156114eb576114e4878561152f565b9650611520565b8684600003111561150f57611504600085900388611590565b965060019050611520565b61151d876000869003611590565b96505b91508590505b94509492505050565b600082820183811015611587576040805162461bcd60e51b815260206004820152601b60248201527a536166654d6174683a206164646974696f6e206f766572666c6f7760281b604482015290519081900360640190fd5b90505b92915050565b600061158783836040518060400160405280601e81526020017f536166654d6174683a207375627472616374696f6e206f766572666c6f7700008152506116e5565b6000826115e15750600061158a565b828202828482816115ee57fe5b04146115875760405162461bcd60e51b81526004018080602001828103825260218152602001806118246021913960400191505060405180910390fd5b600061158783836040518060400160405280601a815260200179536166654d6174683a206469766973696f6e206279207a65726f60301b81525061177c565b604080518082018252828152600160208083018281526001600160a01b038716600081815284845286902094518555905193909201805460ff1916931515939093179092558251848152925190927f02dd0697be46e764c3ba81094158781c31b235d03bb27a0daf1bdef0ec1084dd92908290030190a25050565b600081848411156117745760405162461bcd60e51b81526004018080602001828103825283818151815260200191508051906020019080838360005b83811015611739578181015183820152602001611721565b50505050905090810190601f1680156117665780820380516001836020036101000a031916815260200191505b509250505060405180910390fd5b505050900390565b600081836117cb5760405162461bcd60e51b8152602060048201818152835160248401528351909283926044909101919085019080838360008315611739578181015183820152602001611721565b5060008385816117d757fe5b049594505050505056fe476f7665726e61626c653a20666f7262696464656e0000000000000000000000476f7665726e61626c653a2070726f706f73616c206973206e6f7420616374697665536166654d6174683a206d756c7469706c69636174696f6e206f766572666c6f77a264697066735822122096ec77f84bb94b94452db1e4afb0f0f9ec278df81e5bfb89de025cf8402310cb64736f6c634300060c0033","linkReferences":{}},"methodIdentifiers":{"MAX_INT256()":"122e7b07","_getNextGlobalAveragePrice(uint256,uint256,uint256,uint256,int256)":"5886b711","acceptGov()":"7bc6729b","cancelGovProposal(address)":"9c35b497","data(bytes32)":"0147fb0c","getGlobalShortDelta(address)":"b364accb","getNextGlobalShortData(address,address,address,uint256,uint256,bool)":"9cdeb593","getNextGlobalShortDataWithRealisedPnl(address,uint256,uint256,int256,bool)":"83d7048d","getRealisedPnl(address,address,address,uint256,bool)":"a83b75fd","globalShortAveragePrices(address)":"62749803","gov()":"12d43a51","govProposals(address)":"8d0fedb0","isGlobalShortDataReady()":"9a11178f","isHandler(address)":"46ea87af","setGlobalShortAveragePrice(address,uint256)":"776edefc","setGov(address)":"cfad57a2","setGovWithDeadline(address,uint256)":"6bb22fd7","setHandler(address,bool)":"9cb7de4b","setInitData(address[],uint256[])":"bbd97187","setIsGlobalShortDataReady(bool)":"3d30cabf","updateGlobalShortData(address,address,address,bool,uint256,uint256,bool)":"f3238cec","vault()":"fbfa77cf"},"id":56}