{"abi":[{"type":"constructor","inputs":[{"name":"_vault","type":"address","internalType":"address"}],"stateMutability":"nonpayable"},{"type":"function","name":"MAX_INT256","inputs":[],"outputs":[{"name":"","type":"uint256","internalType":"uint256"}],"stateMutability":"view"},{"type":"function","name":"_getNextGlobalAveragePrice","inputs":[{"name":"_averagePrice","type":"uint256","internalType":"uint256"},{"name":"_nextPrice","type":"uint256","internalType":"uint256"},{"name":"_nextSize","type":"uint256","internalType":"uint256"},{"name":"_delta","type":"uint256","internalType":"uint256"},{"name":"_realisedPnl","type":"int256","internalType":"int256"}],"outputs":[{"name":"","type":"uint256","internalType":"uint256"}],"stateMutability":"pure"},{"type":"function","name":"data","inputs":[{"name":"","type":"bytes32","internalType":"bytes32"}],"outputs":[{"name":"","type":"bytes32","internalType":"bytes32"}],"stateMutability":"view"},{"type":"function","name":"getGlobalShortDelta","inputs":[{"name":"_token","type":"address","internalType":"address"}],"outputs":[{"name":"","type":"bool","internalType":"bool"},{"name":"","type":"uint256","internalType":"uint256"}],"stateMutability":"view"},{"type":"function","name":"getNextGlobalShortData","inputs":[{"name":"_account","type":"address","internalType":"address"},{"name":"_collateralToken","type":"address","internalType":"address"},{"name":"_indexToken","type":"address","internalType":"address"},{"name":"_nextPrice","type":"uint256","internalType":"uint256"},{"name":"_sizeDelta","type":"uint256","internalType":"uint256"},{"name":"_isIncrease","type":"bool","internalType":"bool"}],"outputs":[{"name":"","type":"uint256","internalType":"uint256"},{"name":"","type":"uint256","internalType":"uint256"}],"stateMutability":"view"},{"type":"function","name":"getNextGlobalShortDataWithRealisedPnl","inputs":[{"name":"_indexToken","type":"address","internalType":"address"},{"name":"_nextPrice","type":"uint256","internalType":"uint256"},{"name":"_sizeDelta","type":"uint256","internalType":"uint256"},{"name":"_realisedPnl","type":"int256","internalType":"int256"},{"name":"_isIncrease","type":"bool","internalType":"bool"}],"outputs":[{"name":"","type":"uint256","internalType":"uint256"},{"name":"","type":"uint256","internalType":"uint256"}],"stateMutability":"view"},{"type":"function","name":"getRealisedPnl","inputs":[{"name":"_account","type":"address","internalType":"address"},{"name":"_collateralToken","type":"address","internalType":"address"},{"name":"_indexToken","type":"address","internalType":"address"},{"name":"_sizeDelta","type":"uint256","internalType":"uint256"},{"name":"_isIncrease","type":"bool","internalType":"bool"}],"outputs":[{"name":"","type":"int256","internalType":"int256"}],"stateMutability":"view"},{"type":"function","name":"globalShortAveragePrices","inputs":[{"name":"","type":"address","internalType":"address"}],"outputs":[{"name":"","type":"uint256","internalType":"uint256"}],"stateMutability":"view"},{"type":"function","name":"gov","inputs":[],"outputs":[{"name":"","type":"address","internalType":"address"}],"stateMutability":"view"},{"type":"function","name":"isGlobalShortDataReady","inputs":[],"outputs":[{"name":"","type":"bool","internalType":"bool"}],"stateMutability":"view"},{"type":"function","name":"isHandler","inputs":[{"name":"","type":"address","internalType":"address"}],"outputs":[{"name":"","type":"bool","internalType":"bool"}],"stateMutability":"view"},{"type":"function","name":"setGlobalShortAveragePrice","inputs":[{"name":"_token","type":"address","internalType":"address"},{"name":"_averagePrice","type":"uint256","internalType":"uint256"}],"outputs":[],"stateMutability":"nonpayable"},{"type":"function","name":"setGov","inputs":[{"name":"_gov","type":"address","internalType":"address"}],"outputs":[],"stateMutability":"nonpayable"},{"type":"function","name":"setHandler","inputs":[{"name":"_handler","type":"address","internalType":"address"},{"name":"_isActive","type":"bool","internalType":"bool"}],"outputs":[],"stateMutability":"nonpayable"},{"type":"function","name":"setInitData","inputs":[{"name":"_tokens","type":"address[]","internalType":"address[]"},{"name":"_averagePrices","type":"uint256[]","internalType":"uint256[]"}],"outputs":[],"stateMutability":"nonpayable"},{"type":"function","name":"setIsGlobalShortDataReady","inputs":[{"name":"value","type":"bool","internalType":"bool"}],"outputs":[],"stateMutability":"nonpayable"},{"type":"function","name":"updateGlobalShortData","inputs":[{"name":"_account","type":"address","internalType":"address"},{"name":"_collateralToken","type":"address","internalType":"address"},{"name":"_indexToken","type":"address","internalType":"address"},{"name":"_isLong","type":"bool","internalType":"bool"},{"name":"_sizeDelta","type":"uint256","internalType":"uint256"},{"name":"_markPrice","type":"uint256","internalType":"uint256"},{"name":"_isIncrease","type":"bool","internalType":"bool"}],"outputs":[],"stateMutability":"nonpayable"},{"type":"function","name":"vault","inputs":[],"outputs":[{"name":"","type":"address","internalType":"contract IVault"}],"stateMutability":"view"},{"type":"event","name":"GlobalShortDataUpdated","inputs":[{"name":"token","type":"address","indexed":true,"internalType":"address"},{"name":"globalShortSize","type":"uint256","indexed":false,"internalType":"uint256"},{"name":"globalShortAveragePrice","type":"uint256","indexed":false,"internalType":"uint256"}],"anonymous":false}],"bytecode":{"object":"0x608060405234801561001057600080fd5b506040516113083803806113088339818101604052602081101561003357600080fd5b5051600080546001600160a01b03199081163317909155600180546001600160a01b0390931692909116919091179055611296806100726000396000f3fe608060405234801561001057600080fd5b50600436106100e65760003560e01c80630147fb0c146100eb578063122e7b071461011a57806312d43a51146101225780633d30cabf1461014657806346ea87af146101675780635886b711146101a157806362749803146101d6578063776edefc146101fc57806383d7048d146102285780639a11178f146102815780639cb7de4b146102895780639cdeb593146102b7578063a83b75fd14610301578063b364accb14610345578063bbd9718714610386578063cfad57a214610444578063f3238cec1461046a578063fbfa77cf146104bc575b600080fd5b6101086004803603602081101561010157600080fd5b50356104c4565b60408051918252519081900360200190f35b6101086104d6565b61012a6104e1565b604080516001600160a01b039092168252519081900360200190f35b6101656004803603602081101561015c57600080fd5b503515156104f0565b005b61018d6004803603602081101561017d57600080fd5b50356001600160a01b0316610550565b604080519115158252519081900360200190f35b610108600480360360a08110156101b757600080fd5b5080359060208101359060408101359060608101359060800135610565565b610108600480360360208110156101ec57600080fd5b50356001600160a01b03166105bc565b6101656004803603604081101561021257600080fd5b506001600160a01b0381351690602001356105ce565b610268600480360360a081101561023e57600080fd5b506001600160a01b03813516906020810135906040810135906060810135906080013515156105ea565b6040805192835260208301919091528051918290030190f35b61018d610728565b6101656004803603604081101561029f57600080fd5b506001600160a01b0381351690602001351515610731565b610268600480360360c08110156102cd57600080fd5b506001600160a01b03813581169160208101358216916040820135169060608101359060808101359060a001351515610804565b610108600480360360a081101561031757600080fd5b506001600160a01b038135811691602081013582169160408201351690606081013590608001351515610958565b61036b6004803603602081101561035b57600080fd5b50356001600160a01b0316610b38565b60408051921515835260208301919091528051918290030190f35b6101656004803603604081101561039c57600080fd5b810190602081018135600160201b8111156103b657600080fd5b8201836020820111156103c857600080fd5b803590602001918460208302840111600160201b831117156103e957600080fd5b919390929091602081019035600160201b81111561040657600080fd5b82018360208201111561041857600080fd5b803590602001918460208302840111600160201b8311171561043957600080fd5b509092509050610cab565b6101656004803603602081101561045a57600080fd5b50356001600160a01b0316610dbd565b610165600480360360e081101561048057600080fd5b506001600160a01b038135811691602081013582169160408201351690606081013515159060808101359060a08101359060c001351515610e2c565b61012a610f1c565b60036020526000908152604090205481565b6001600160ff1b0381565b6000546001600160a01b031681565b6000546001600160a01b0316331461053d576040805162461bcd60e51b81526020600482015260156024820152600080516020611220833981519152604482015290519081900360640190fd5b6005805460ff1916911515919091179055565b60026020526000908152604090205460ff1681565b600080600061057685898987610f2b565b9150915060006105ad836105935761058e8884610fe8565b61059d565b61059d8884611049565b6105a78a8a61108b565b906110e4565b93505050505b95945050505050565b60046020526000908152604090205481565b6001600160a01b03909116600090815260046020526040902055565b6001600160a01b03851660009081526004602052604081205481908187821161061c576106178883611049565b610626565b6106268289611049565b6001546040805163114f1b5560e31b81526001600160a01b038d811660048301529151939450600093849384931691638a78daa8916024808301926020929190829003018186803b15801561067a57600080fd5b505afa15801561068e573d6000803e3d6000fd5b505050506040513d60208110156106a457600080fd5b50519050876106bc576106b7818b611049565b6106c6565b6106c6818b610fe8565b9250826106de5760008096509650505050505061071e565b846106f357828b96509650505050505061071e565b610701856105a7838761108b565b9150506000610713858c85858d610565565b929650919450505050505b9550959350505050565b60055460ff1681565b6000546001600160a01b0316331461077e576040805162461bcd60e51b81526020600482015260156024820152600080516020611220833981519152604482015290519081900360640190fd5b6001600160a01b0382166107d9576040805162461bcd60e51b815260206004820152601f60248201527f53686f727473547261636b65723a20696e76616c6964205f68616e646c657200604482015290519081900360640190fd5b6001600160a01b03919091166000908152600260205260409020805460ff1916911515919091179055565b60008060006108168989898888610958565b6001600160a01b038816600090815260046020526040812054919250878211610848576108438883611049565b610852565b6108528289611049565b6001546040805163114f1b5560e31b81526001600160a01b038d811660048301529151939450600093849384931691638a78daa8916024808301926020929190829003018186803b1580156108a657600080fd5b505afa1580156108ba573d6000803e3d6000fd5b505050506040513d60208110156108d057600080fd5b50519050886108e8576108e3818b611049565b6108f2565b6108f2818b610fe8565b92508261090b576000809750975050505050505061094d565b8461092157828b9750975050505050505061094d565b61092f856105a7838761108b565b9150506000610941858c85858a610565565b92975091955050505050505b965096945050505050565b60008115610968575060006105b3565b60015460408051634a3f088d60e01b81526001600160a01b038981166004830152888116602483015287811660448301526000606483018190529251931692829182918591634a3f088d91608480830192610100929190829003018186803b1580156109d357600080fd5b505afa1580156109e7573d6000803e3d6000fd5b505050506040513d6101008110156109fe57600080fd5b50805160408083015160e0909301518151635c07eaab60e01b81526001600160a01b038d811660048301526024820185905260448201869052600060648301819052608483018490528451959950959750919550849391891692635c07eaab9260a480840193829003018186803b158015610a7857600080fd5b505afa158015610a8c573d6000803e3d6000fd5b505050506040513d6040811015610aa257600080fd5b50805160209091015190925090506000610ac0866105a78c8561108b565b90506001600160ff1b038110610b17576040805162461bcd60e51b815260206004820152601760248201527653686f727473547261636b65723a206f766572666c6f7760481b604482015290519081900360640190fd5b82610b255780600003610b27565b805b9d9c50505050505050505050505050565b6001546040805163114f1b5560e31b81526001600160a01b038481166004830152915160009384938493911691638a78daa891602480820192602092909190829003018186803b158015610b8b57600080fd5b505afa158015610b9f573d6000803e3d6000fd5b505050506040513d6020811015610bb557600080fd5b50516001600160a01b03851660009081526004602052604090205490915081610be657600080935093505050610ca6565b60015460408051637092736960e11b81526001600160a01b0388811660048301529151600093929092169163e124e6d291602480820192602092909190829003018186803b158015610c3757600080fd5b505afa158015610c4b573d6000803e3d6000fd5b505050506040513d6020811015610c6157600080fd5b505190506000818311610c7d57610c788284611049565b610c87565b610c878383611049565b90506000610c99846105a7878561108b565b9290931195509093505050505b915091565b6000546001600160a01b03163314610cf8576040805162461bcd60e51b81526020600482015260156024820152600080516020611220833981519152604482015290519081900360640190fd5b60055460ff1615610d50576040805162461bcd60e51b815260206004820152601f60248201527f53686f727473547261636b65723a20616c7265616479206d6967726174656400604482015290519081900360640190fd5b60005b83811015610da957828282818110610d6757fe5b9050602002013560046000878785818110610d7e57fe5b602090810292909201356001600160a01b031683525081019190915260400160002055600101610d53565b50506005805460ff19166001179055505050565b6000546001600160a01b03163314610e0a576040805162461bcd60e51b81526020600482015260156024820152600080516020611220833981519152604482015290519081900360640190fd5b600080546001600160a01b0319166001600160a01b0392909216919091179055565b3360009081526002602052604090205460ff16610e8b576040805162461bcd60e51b815260206004820152601860248201527729b437b93a39aa3930b1b5b2b91d103337b93134b23232b760411b604482015290519081900360640190fd5b8380610e95575082155b15610e9f57610f13565b60055460ff16610eae57610f13565b600080610ebf898989878988610804565b91509150610ecd87826105ce565b604080518381526020810183905281516001600160a01b038a16927fd6137be44db128ffcf1ea1821dbe8f889f67f949be7656c2d8acba2a4a891a02928290030190a250505b50505050505050565b6001546001600160a01b031681565b6000808385118015610f8a576000841315610f6f5786841115610f5d57610f528488611049565b965060009050610f6a565b610f678785611049565b96505b610f80565b610f7d876000869003610fe8565b96505b9150859050610fdf565b6000841315610fa457610f9d8785610fe8565b9650610fd9565b86846000031115610fc857610fbd600085900388611049565b965060019050610fd9565b610fd6876000869003611049565b96505b91508590505b94509492505050565b600082820183811015611040576040805162461bcd60e51b815260206004820152601b60248201527a536166654d6174683a206164646974696f6e206f766572666c6f7760281b604482015290519081900360640190fd5b90505b92915050565b600061104083836040518060400160405280601e81526020017f536166654d6174683a207375627472616374696f6e206f766572666c6f770000815250611123565b60008261109a57506000611043565b828202828482816110a757fe5b04146110405760405162461bcd60e51b81526004018080602001828103825260218152602001806112406021913960400191505060405180910390fd5b600061104083836040518060400160405280601a815260200179536166654d6174683a206469766973696f6e206279207a65726f60301b8152506111ba565b600081848411156111b25760405162461bcd60e51b81526004018080602001828103825283818151815260200191508051906020019080838360005b8381101561117757818101518382015260200161115f565b50505050905090810190601f1680156111a45780820380516001836020036101000a031916815260200191505b509250505060405180910390fd5b505050900390565b600081836112095760405162461bcd60e51b815260206004820181815283516024840152835190928392604490910191908501908083836000831561117757818101518382015260200161115f565b50600083858161121557fe5b049594505050505056fe476f7665726e61626c653a20666f7262696464656e0000000000000000000000536166654d6174683a206d756c7469706c69636174696f6e206f766572666c6f77a2646970667358221220886e4d464e1a83101b5e7d4ddb7fa8df2869165a44276b7103227653bc570b2764736f6c634300060c0033","linkReferences":{}},"methodIdentifiers":{"MAX_INT256()":"122e7b07","_getNextGlobalAveragePrice(uint256,uint256,uint256,uint256,int256)":"5886b711","data(bytes32)":"0147fb0c","getGlobalShortDelta(address)":"b364accb","getNextGlobalShortData(address,address,address,uint256,uint256,bool)":"9cdeb593","getNextGlobalShortDataWithRealisedPnl(address,uint256,uint256,int256,bool)":"83d7048d","getRealisedPnl(address,address,address,uint256,bool)":"a83b75fd","globalShortAveragePrices(address)":"62749803","gov()":"12d43a51","isGlobalShortDataReady()":"9a11178f","isHandler(address)":"46ea87af","setGlobalShortAveragePrice(address,uint256)":"776edefc","setGov(address)":"cfad57a2","setHandler(address,bool)":"9cb7de4b","setInitData(address[],uint256[])":"bbd97187","setIsGlobalShortDataReady(bool)":"3d30cabf","updateGlobalShortData(address,address,address,bool,uint256,uint256,bool)":"f3238cec","vault()":"fbfa77cf"},"id":65}