{"abi":[{"type":"function","name":"BASIS_POINTS","inputs":[],"outputs":[{"name":"","type":"uint256","internalType":"uint256"}],"stateMutability":"view"},{"type":"function","name":"acceptGov","inputs":[],"outputs":[],"stateMutability":"nonpayable"},{"type":"function","name":"cancelGovProposal","inputs":[{"name":"_gov","type":"address","internalType":"address"}],"outputs":[],"stateMutability":"nonpayable"},{"type":"function","name":"codeOwners","inputs":[{"name":"","type":"bytes32","internalType":"bytes32"}],"outputs":[{"name":"","type":"address","internalType":"address"}],"stateMutability":"view"},{"type":"function","name":"getTraderReferralInfo","inputs":[{"name":"_account","type":"address","internalType":"address"}],"outputs":[{"name":"","type":"bytes32","internalType":"bytes32"},{"name":"","type":"address","internalType":"address"}],"stateMutability":"view"},{"type":"function","name":"gov","inputs":[],"outputs":[{"name":"","type":"address","internalType":"address"}],"stateMutability":"view"},{"type":"function","name":"govProposals","inputs":[{"name":"","type":"address","internalType":"address"}],"outputs":[{"name":"deadline","type":"uint256","internalType":"uint256"},{"name":"isActive","type":"bool","internalType":"bool"}],"stateMutability":"view"},{"type":"function","name":"govSetCodeOwner","inputs":[{"name":"_code","type":"bytes32","internalType":"bytes32"},{"name":"_newAccount","type":"address","internalType":"address"}],"outputs":[],"stateMutability":"nonpayable"},{"type":"function","name":"isHandler","inputs":[{"name":"","type":"address","internalType":"address"}],"outputs":[{"name":"","type":"bool","internalType":"bool"}],"stateMutability":"view"},{"type":"function","name":"referrerDiscountShares","inputs":[{"name":"","type":"address","internalType":"address"}],"outputs":[{"name":"","type":"uint256","internalType":"uint256"}],"stateMutability":"view"},{"type":"function","name":"referrerTiers","inputs":[{"name":"","type":"address","internalType":"address"}],"outputs":[{"name":"","type":"uint256","internalType":"uint256"}],"stateMutability":"view"},{"type":"function","name":"registerCode","inputs":[{"name":"_code","type":"bytes32","internalType":"bytes32"}],"outputs":[],"stateMutability":"nonpayable"},{"type":"function","name":"setCodeOwner","inputs":[{"name":"_code","type":"bytes32","internalType":"bytes32"},{"name":"_newAccount","type":"address","internalType":"address"}],"outputs":[],"stateMutability":"nonpayable"},{"type":"function","name":"setGov","inputs":[{"name":"_gov","type":"address","internalType":"address"}],"outputs":[],"stateMutability":"nonpayable"},{"type":"function","name":"setGovWithDeadline","inputs":[{"name":"_gov","type":"address","internalType":"address"},{"name":"_deadline","type":"uint256","internalType":"uint256"}],"outputs":[],"stateMutability":"nonpayable"},{"type":"function","name":"setHandler","inputs":[{"name":"_handler","type":"address","internalType":"address"},{"name":"_isActive","type":"bool","internalType":"bool"}],"outputs":[],"stateMutability":"nonpayable"},{"type":"function","name":"setReferrerDiscountShare","inputs":[{"name":"_discountShare","type":"uint256","internalType":"uint256"}],"outputs":[],"stateMutability":"nonpayable"},{"type":"function","name":"setReferrerTier","inputs":[{"name":"_referrer","type":"address","internalType":"address"},{"name":"_tierId","type":"uint256","internalType":"uint256"}],"outputs":[],"stateMutability":"nonpayable"},{"type":"function","name":"setTier","inputs":[{"name":"_tierId","type":"uint256","internalType":"uint256"},{"name":"_totalRebate","type":"uint256","internalType":"uint256"},{"name":"_discountShare","type":"uint256","internalType":"uint256"}],"outputs":[],"stateMutability":"nonpayable"},{"type":"function","name":"setTraderReferralCode","inputs":[{"name":"_account","type":"address","internalType":"address"},{"name":"_code","type":"bytes32","internalType":"bytes32"}],"outputs":[],"stateMutability":"nonpayable"},{"type":"function","name":"setTraderReferralCodeByUser","inputs":[{"name":"_code","type":"bytes32","internalType":"bytes32"}],"outputs":[],"stateMutability":"nonpayable"},{"type":"function","name":"tiers","inputs":[{"name":"","type":"uint256","internalType":"uint256"}],"outputs":[{"name":"totalRebate","type":"uint256","internalType":"uint256"},{"name":"discountShare","type":"uint256","internalType":"uint256"}],"stateMutability":"view"},{"type":"function","name":"traderReferralCodes","inputs":[{"name":"","type":"address","internalType":"address"}],"outputs":[{"name":"","type":"bytes32","internalType":"bytes32"}],"stateMutability":"view"},{"type":"event","name":"GovSetCodeOwner","inputs":[{"name":"code","type":"bytes32","indexed":false,"internalType":"bytes32"},{"name":"newAccount","type":"address","indexed":false,"internalType":"address"}],"anonymous":false},{"type":"event","name":"GovernanceTransferRequested","inputs":[{"name":"newGov","type":"address","indexed":true,"internalType":"address"},{"name":"deadline","type":"uint256","indexed":false,"internalType":"uint256"}],"anonymous":false},{"type":"event","name":"GovernanceTransferred","inputs":[{"name":"oldGov","type":"address","indexed":true,"internalType":"address"},{"name":"newGov","type":"address","indexed":true,"internalType":"address"}],"anonymous":false},{"type":"event","name":"RegisterCode","inputs":[{"name":"account","type":"address","indexed":false,"internalType":"address"},{"name":"code","type":"bytes32","indexed":false,"internalType":"bytes32"}],"anonymous":false},{"type":"event","name":"SetCodeOwner","inputs":[{"name":"account","type":"address","indexed":false,"internalType":"address"},{"name":"newAccount","type":"address","indexed":false,"internalType":"address"},{"name":"code","type":"bytes32","indexed":false,"internalType":"bytes32"}],"anonymous":false},{"type":"event","name":"SetHandler","inputs":[{"name":"handler","type":"address","indexed":false,"internalType":"address"},{"name":"isActive","type":"bool","indexed":false,"internalType":"bool"}],"anonymous":false},{"type":"event","name":"SetReferrerDiscountShare","inputs":[{"name":"referrer","type":"address","indexed":false,"internalType":"address"},{"name":"discountShare","type":"uint256","indexed":false,"internalType":"uint256"}],"anonymous":false},{"type":"event","name":"SetReferrerTier","inputs":[{"name":"referrer","type":"address","indexed":false,"internalType":"address"},{"name":"tierId","type":"uint256","indexed":false,"internalType":"uint256"}],"anonymous":false},{"type":"event","name":"SetTier","inputs":[{"name":"tierId","type":"uint256","indexed":false,"internalType":"uint256"},{"name":"totalRebate","type":"uint256","indexed":false,"internalType":"uint256"},{"name":"discountShare","type":"uint256","indexed":false,"internalType":"uint256"}],"anonymous":false},{"type":"event","name":"SetTraderReferralCode","inputs":[{"name":"account","type":"address","indexed":false,"internalType":"address"},{"name":"code","type":"bytes32","indexed":false,"internalType":"bytes32"}],"anonymous":false}],"bytecode":{"object":"0x608060405234801561001057600080fd5b50600080546001600160a01b03191633179055611285806100326000396000f3fe608060405234801561001057600080fd5b506004361061011d5760003560e01c8063039af9eb1461012257806312d43a51146101585780631582a0181461017c57806336def2c8146101b45780633fb8b323146101d357806346ea87af146101ff578063534ef8831461023957806356b4b2ad146102805780636bb22fd7146102ac57806371a6a790146102d85780637bc6729b146102fe578063836a01871461030657806385725b581461032f5780638d0fedb0146103555780639c35b497146103945780639c8e2de9146103ba5780639cb7de4b146103d7578063c8b3c46014610405578063cfad57a214610422578063dfcfa25014610448578063e1e01bf314610474578063e1f1c4a714610491578063ed84313414610499575b600080fd5b61013f6004803603602081101561013857600080fd5b50356104c5565b6040805192835260208301919091528051918290030190f35b6101606104de565b604080516001600160a01b039092168252519081900360200190f35b6101a26004803603602081101561019257600080fd5b50356001600160a01b03166104ed565b60408051918252519081900360200190f35b6101d1600480360360208110156101ca57600080fd5b50356104ff565b005b6101d1600480360360408110156101e957600080fd5b506001600160a01b0381351690602001356105f3565b6102256004803603602081101561021557600080fd5b50356001600160a01b0316610699565b604080519115158252519081900360200190f35b61025f6004803603602081101561024f57600080fd5b50356001600160a01b03166106ae565b604080519283526001600160a01b0390911660208301528051918290030190f35b6101d16004803603604081101561029657600080fd5b506001600160a01b0381351690602001356106f4565b6101d1600480360360408110156102c257600080fd5b506001600160a01b038135169060200135610763565b6101a2600480360360208110156102ee57600080fd5b50356001600160a01b0316610874565b6101d1610886565b6101d16004803603606081101561031c57600080fd5b508035906020810135906040013561099a565b6101a26004803603602081101561034557600080fd5b50356001600160a01b0316610aef565b61037b6004803603602081101561036b57600080fd5b50356001600160a01b0316610b01565b6040805192835290151560208301528051918290030190f35b6101d1600480360360208110156103aa57600080fd5b50356001600160a01b0316610b1d565b6101d1600480360360208110156103d057600080fd5b5035610c02565b6101d1600480360360408110156103ed57600080fd5b506001600160a01b0381351690602001351515610c92565b6101606004803603602081101561041b57600080fd5b5035610d43565b6101d16004803603602081101561043857600080fd5b50356001600160a01b0316610d5e565b6101d16004803603604081101561045e57600080fd5b50803590602001356001600160a01b0316610e74565b6101d16004803603602081101561048a57600080fd5b5035610f69565b6101a2610f73565b6101d1600480360360408110156104af57600080fd5b50803590602001356001600160a01b0316610f79565b6004602052600090815260409020805460019091015482565b6000546001600160a01b031681565b60036020526000908152604090205481565b8061053f576040805162461bcd60e51b815260206004820152601e60248201526000805160206111e6833981519152604482015290519081900360640190fd5b6000818152600660205260409020546001600160a01b0316156105935760405162461bcd60e51b81526004018080602001828103825260248152602001806112066024913960400191505060405180910390fd5b60008181526006602090815260409182902080546001600160a01b03191633908117909155825190815290810183905281517f04f82286a2a3b2ee5c8555de8304dfe2ea70991613213184b73a9e408d2d8029929181900390910190a150565b6000546001600160a01b03163314610640576040805162461bcd60e51b81526020600482015260156024820152600080516020611180833981519152604482015290519081900360640190fd5b6001600160a01b0382166000818152600360209081526040918290208490558151928352820183905280517f7696855cdbb94bb5a44cb0a95caff6f29173aa1cbfba193834b12b90827ce2bc9281900390910190a15050565b60056020526000908152604090205460ff1681565b6001600160a01b03811660009081526007602052604081205481908181156106ea57506000818152600660205260409020546001600160a01b03165b9092509050915091565b3360009081526005602052604090205460ff16610755576040805162461bcd60e51b815260206004820152601a6024820152792932b332b93930b629ba37b930b3b29d103337b93134b23232b760311b604482015290519081900360640190fd5b61075f8282611091565b5050565b6000546001600160a01b031633146107b0576040805162461bcd60e51b81526020600482015260156024820152600080516020611180833981519152604482015290519081900360640190fd5b6001600160a01b038216610809576040805162461bcd60e51b815260206004820152601b60248201527a476f7665726e61626c653a20696e76616c6964206164647265737360281b604482015290519081900360640190fd5b6000546001600160a01b038381169116141561086a576040805162461bcd60e51b815260206004820152601b60248201527a476f7665726e61626c653a2073616d6520676f7665726e616e636560281b604482015290519081900360640190fd5b61075f82826110ea565b60026020526000908152604090205481565b336000908152600160205260409020805442106108e9576040805162461bcd60e51b815260206004820152601c60248201527b11dbdd995c9b98589b194e88191958591b1a5b9948195e1c1a5c995960221b604482015290519081900360640190fd5b60018082015460ff161515146109305760405162461bcd60e51b81526004018080602001828103825260228152602001806111c46022913960400191505060405180910390fd5b6000805433808352600160208190526040808520858155909101805460ff1916905583546001600160a01b03191682178455516001600160a01b0390921692909183917f5f56bee8cffbe9a78652a74a60705edede02af10b0bbb888ca44b79a0d42ce8091a35050565b6000546001600160a01b031633146109e7576040805162461bcd60e51b81526020600482015260156024820152600080516020611180833981519152604482015290519081900360640190fd5b612710821115610a285760405162461bcd60e51b81526004018080602001828103825260248152602001806111a06024913960400191505060405180910390fd5b612710811115610a695760405162461bcd60e51b815260040180806020018281038252602681526020018061122a6026913960400191505060405180910390fd5b610a71611165565b50600083815260046020818152604080842081518083018352878152808401878152958990529383528351815593516001909401939093558251868152908101859052808301849052915190917f4ebd23a492b2bd79586cb57cae40d7793408265f20320f68b478b971e696f4c7919081900360600190a150505050565b60076020526000908152604090205481565b6001602081905260009182526040909120805491015460ff1682565b6000546001600160a01b03163314610b6a576040805162461bcd60e51b81526020600482015260156024820152600080516020611180833981519152604482015290519081900360640190fd5b6001600160a01b0381166000908152600160208190526040909120015460ff16610bdb576040805162461bcd60e51b815260206004820152601f60248201527f476f7665726e61626c653a2070726f706f73616c206e6f742061637469766500604482015290519081900360640190fd5b6001600160a01b03166000908152600160208190526040822091825501805460ff19169055565b612710811115610c435760405162461bcd60e51b815260040180806020018281038252602681526020018061122a6026913960400191505060405180910390fd5b336000818152600260209081526040918290208490558151928352820183905280517fbd224f3917462b0fa80805fe3ec29be3a37f664955aad6224e5ece036224c4299281900390910190a150565b6000546001600160a01b03163314610cdf576040805162461bcd60e51b81526020600482015260156024820152600080516020611180833981519152604482015290519081900360640190fd5b6001600160a01b038216600081815260056020908152604091829020805460ff191685151590811790915582519384529083015280517fd373464a39404e5f98fdb4b152b8ba9a094561e97e5c4b4ea11eb18cd9e6695e9281900390910190a15050565b6006602052600090815260409020546001600160a01b031681565b6000546001600160a01b03163314610dab576040805162461bcd60e51b81526020600482015260156024820152600080516020611180833981519152604482015290519081900360640190fd5b6001600160a01b038116610e04576040805162461bcd60e51b815260206004820152601b60248201527a476f7665726e61626c653a20696e76616c6964206164647265737360281b604482015290519081900360640190fd5b6000546001600160a01b0382811691161415610e65576040805162461bcd60e51b815260206004820152601b60248201527a476f7665726e61626c653a2073616d6520676f7665726e616e636560281b604482015290519081900360640190fd5b610e71816000196110ea565b50565b6000546001600160a01b03163314610ec1576040805162461bcd60e51b81526020600482015260156024820152600080516020611180833981519152604482015290519081900360640190fd5b81610f01576040805162461bcd60e51b815260206004820152601e60248201526000805160206111e6833981519152604482015290519081900360640190fd5b60008281526006602090815260409182902080546001600160a01b0319166001600160a01b03851690811790915582518581529182015281517f6431f88c655dd0e2b8d09b6405c007c515c66d67f2998e69c902873a8c8f3e97929181900390910190a15050565b610e713382611091565b61271081565b81610fb9576040805162461bcd60e51b815260206004820152601e60248201526000805160206111e6833981519152604482015290519081900360640190fd5b6000828152600660205260409020546001600160a01b0316338114611022576040805162461bcd60e51b815260206004820152601a6024820152792932b332b93930b629ba37b930b3b29d103337b93134b23232b760311b604482015290519081900360640190fd5b60008381526006602090815260409182902080546001600160a01b0386166001600160a01b0319909116811790915582513381529182015280820185905290517f5640856798d41ce9ca0a109b54c20a06eb99ba9c36ab4547115dafb8473cf3979181900360600190a1505050565b6001600160a01b0382166000818152600760209081526040918290208490558151928352820183905280517f43825f14567dda057e821be2e51a5aa79aa51f3907a647e3ed2bd486a01050f19281900390910190a15050565b604080518082018252828152600160208083018281526001600160a01b038716600081815284845286902094518555905193909201805460ff1916931515939093179092558251848152925190927f02dd0697be46e764c3ba81094158781c31b235d03bb27a0daf1bdef0ec1084dd92908290030190a25050565b60405180604001604052806000815260200160008152509056fe476f7665726e61626c653a20666f7262696464656e0000000000000000000000526566657272616c53746f726167653a20696e76616c696420746f74616c526562617465476f7665726e61626c653a2070726f706f73616c206973206e6f7420616374697665526566657272616c53746f726167653a20696e76616c6964205f636f64650000526566657272616c53746f726167653a20636f646520616c726561647920657869737473526566657272616c53746f726167653a20696e76616c696420646973636f756e745368617265a26469706673582212202476d25b87f2943c391a65856933b84fdd3cdad3454b6649503e7a88cda48b0c64736f6c634300060c0033","linkReferences":{}},"methodIdentifiers":{"BASIS_POINTS()":"e1f1c4a7","acceptGov()":"7bc6729b","cancelGovProposal(address)":"9c35b497","codeOwners(bytes32)":"c8b3c460","getTraderReferralInfo(address)":"534ef883","gov()":"12d43a51","govProposals(address)":"8d0fedb0","govSetCodeOwner(bytes32,address)":"dfcfa250","isHandler(address)":"46ea87af","referrerDiscountShares(address)":"71a6a790","referrerTiers(address)":"1582a018","registerCode(bytes32)":"36def2c8","setCodeOwner(bytes32,address)":"ed843134","setGov(address)":"cfad57a2","setGovWithDeadline(address,uint256)":"6bb22fd7","setHandler(address,bool)":"9cb7de4b","setReferrerDiscountShare(uint256)":"9c8e2de9","setReferrerTier(address,uint256)":"3fb8b323","setTier(uint256,uint256,uint256)":"836a0187","setTraderReferralCode(address,bytes32)":"56b4b2ad","setTraderReferralCodeByUser(bytes32)":"e1e01bf3","tiers(uint256)":"039af9eb","traderReferralCodes(address)":"85725b58"},"id":83}