{"abi":[{"type":"constructor","inputs":[{"name":"_lp","type":"address","internalType":"contract IERC20"},{"name":"_rewardToken","type":"address","internalType":"contract IERC20"},{"name":"_rewardPerBlock","type":"uint256","internalType":"uint256"},{"name":"_startBlock","type":"uint256","internalType":"uint256"},{"name":"_bonusEndBlock","type":"uint256","internalType":"uint256"},{"name":"_adminAddress","type":"address","internalType":"address"},{"name":"_wbnb","type":"address","internalType":"address"}],"stateMutability":"nonpayable"},{"type":"receive","stateMutability":"payable"},{"type":"function","name":"WBNB","inputs":[],"outputs":[{"name":"","type":"address","internalType":"address"}],"stateMutability":"view"},{"type":"function","name":"adminAddress","inputs":[],"outputs":[{"name":"","type":"address","internalType":"address"}],"stateMutability":"view"},{"type":"function","name":"bonusEndBlock","inputs":[],"outputs":[{"name":"","type":"uint256","internalType":"uint256"}],"stateMutability":"view"},{"type":"function","name":"deposit","inputs":[],"outputs":[],"stateMutability":"payable"},{"type":"function","name":"emergencyRewardWithdraw","inputs":[{"name":"_amount","type":"uint256","internalType":"uint256"}],"outputs":[],"stateMutability":"nonpayable"},{"type":"function","name":"emergencyWithdraw","inputs":[],"outputs":[],"stateMutability":"nonpayable"},{"type":"function","name":"getMultiplier","inputs":[{"name":"_from","type":"uint256","internalType":"uint256"},{"name":"_to","type":"uint256","internalType":"uint256"}],"outputs":[{"name":"","type":"uint256","internalType":"uint256"}],"stateMutability":"view"},{"type":"function","name":"limitAmount","inputs":[],"outputs":[{"name":"","type":"uint256","internalType":"uint256"}],"stateMutability":"view"},{"type":"function","name":"massUpdatePools","inputs":[],"outputs":[],"stateMutability":"nonpayable"},{"type":"function","name":"owner","inputs":[],"outputs":[{"name":"","type":"address","internalType":"address"}],"stateMutability":"view"},{"type":"function","name":"pendingReward","inputs":[{"name":"_user","type":"address","internalType":"address"}],"outputs":[{"name":"","type":"uint256","internalType":"uint256"}],"stateMutability":"view"},{"type":"function","name":"poolInfo","inputs":[{"name":"","type":"uint256","internalType":"uint256"}],"outputs":[{"name":"lpToken","type":"address","internalType":"contract IERC20"},{"name":"allocPoint","type":"uint256","internalType":"uint256"},{"name":"lastRewardBlock","type":"uint256","internalType":"uint256"},{"name":"accCakePerShare","type":"uint256","internalType":"uint256"}],"stateMutability":"view"},{"type":"function","name":"removeBlackList","inputs":[{"name":"_blacklistAddress","type":"address","internalType":"address"}],"outputs":[],"stateMutability":"nonpayable"},{"type":"function","name":"renounceOwnership","inputs":[],"outputs":[],"stateMutability":"nonpayable"},{"type":"function","name":"rewardPerBlock","inputs":[],"outputs":[{"name":"","type":"uint256","internalType":"uint256"}],"stateMutability":"view"},{"type":"function","name":"rewardToken","inputs":[],"outputs":[{"name":"","type":"address","internalType":"contract IERC20"}],"stateMutability":"view"},{"type":"function","name":"setAdmin","inputs":[{"name":"_adminAddress","type":"address","internalType":"address"}],"outputs":[],"stateMutability":"nonpayable"},{"type":"function","name":"setBlackList","inputs":[{"name":"_blacklistAddress","type":"address","internalType":"address"}],"outputs":[],"stateMutability":"nonpayable"},{"type":"function","name":"setLimitAmount","inputs":[{"name":"_amount","type":"uint256","internalType":"uint256"}],"outputs":[],"stateMutability":"nonpayable"},{"type":"function","name":"startBlock","inputs":[],"outputs":[{"name":"","type":"uint256","internalType":"uint256"}],"stateMutability":"view"},{"type":"function","name":"totalAllocPoint","inputs":[],"outputs":[{"name":"","type":"uint256","internalType":"uint256"}],"stateMutability":"view"},{"type":"function","name":"transferOwnership","inputs":[{"name":"newOwner","type":"address","internalType":"address"}],"outputs":[],"stateMutability":"nonpayable"},{"type":"function","name":"updatePool","inputs":[{"name":"_pid","type":"uint256","internalType":"uint256"}],"outputs":[],"stateMutability":"nonpayable"},{"type":"function","name":"userInfo","inputs":[{"name":"","type":"address","internalType":"address"}],"outputs":[{"name":"amount","type":"uint256","internalType":"uint256"},{"name":"rewardDebt","type":"uint256","internalType":"uint256"},{"name":"inBlackList","type":"bool","internalType":"bool"}],"stateMutability":"view"},{"type":"function","name":"withdraw","inputs":[{"name":"_amount","type":"uint256","internalType":"uint256"}],"outputs":[],"stateMutability":"nonpayable"},{"type":"event","name":"Deposit","inputs":[{"name":"user","type":"address","indexed":true,"internalType":"address"},{"name":"amount","type":"uint256","indexed":false,"internalType":"uint256"}],"anonymous":false},{"type":"event","name":"EmergencyWithdraw","inputs":[{"name":"user","type":"address","indexed":true,"internalType":"address"},{"name":"amount","type":"uint256","indexed":false,"internalType":"uint256"}],"anonymous":false},{"type":"event","name":"OwnershipTransferred","inputs":[{"name":"previousOwner","type":"address","indexed":true,"internalType":"address"},{"name":"newOwner","type":"address","indexed":true,"internalType":"address"}],"anonymous":false},{"type":"event","name":"Withdraw","inputs":[{"name":"user","type":"address","indexed":true,"internalType":"address"},{"name":"amount","type":"uint256","indexed":false,"internalType":"uint256"}],"anonymous":false}],"bytecode":{"object":"0x60a0604052678ac7230489e80000600655600060075534801561002157600080fd5b50604051611b8d380380611b8d833981810160405260e081101561004457600080fd5b508051602082015160408301516060840151608085015160a086015160c0909601519495939492939192909190600061007b610201565b600080546001600160a01b0319166001600160a01b0383169081178255604051929350917f8be0079c531659141344cd1fd0a4f28419497f9722a3daafe3b4186f6b6457e0908290a350600180546001600160a01b03199081166001600160a01b03988916178255600396909655600885905560099390935560028054861692871692909217909155606090811b6001600160601b031916608090815260408051918201815296861681526103e86020820181815297820194855260009282018381526004805495860181559384905291517f8a35acfbc15ff81a39ae7d344fd709f28e8600b4aa8c65c6b64bfe7fe36bd19b949093029384018054909616929096169190911790935593517f8a35acfbc15ff81a39ae7d344fd709f28e8600b4aa8c65c6b64bfe7fe36bd19c850155517f8a35acfbc15ff81a39ae7d344fd709f28e8600b4aa8c65c6b64bfe7fe36bd19d840155517f8a35acfbc15ff81a39ae7d344fd709f28e8600b4aa8c65c6b64bfe7fe36bd19e90920191909155600755610205565b3390565b60805160601c6119576102366000398061013a52806107145280610c4d5280610da75280610e3c52506119576000f3fe60806040526004361061012a5760003560e01c80631526fe271461016857806317caf6f1146101c25780631959a002146101e95780631aed65531461023c5780631f107a45146102515780632e1a7d4d1461027b5780633279beab146102a557806348cd4cb1146102cf57806351eb05a6146102e4578063630b5ba11461030e578063704b6c0214610323578063715018a614610356578063727002411461036b57806378abafaf1461039e5780638ae39cac146103b35780638da5cb5b146103c85780638dbb1e3a146103f95780638dd9500214610429578063d0e30db01461043e578063db2e21bc14610446578063e4997dc51461045b578063f2fde38b1461048e578063f40f0f52146104c1578063f7c618c1146104f4578063fc6f94681461050957610163565b3661016357336001600160a01b037f0000000000000000000000000000000000000000000000000000000000000000161461016157fe5b005b600080fd5b34801561017457600080fd5b506101926004803603602081101561018b57600080fd5b503561051e565b604080516001600160a01b0390951685526020850193909352838301919091526060830152519081900360800190f35b3480156101ce57600080fd5b506101d761055f565b60408051918252519081900360200190f35b3480156101f557600080fd5b5061021c6004803603602081101561020c57600080fd5b50356001600160a01b0316610565565b604080519384526020840192909252151582820152519081900360600190f35b34801561024857600080fd5b506101d7610589565b34801561025d57600080fd5b506101616004803603602081101561027457600080fd5b503561058f565b34801561028757600080fd5b506101616004803603602081101561029e57600080fd5b50356105ec565b3480156102b157600080fd5b50610161600480360360208110156102c857600080fd5b50356107d9565b3480156102db57600080fd5b506101d7610908565b3480156102f057600080fd5b506101616004803603602081101561030757600080fd5b503561090e565b34801561031a57600080fd5b50610161610a3d565b34801561032f57600080fd5b506101616004803603602081101561034657600080fd5b50356001600160a01b0316610a60565b34801561036257600080fd5b50610161610ada565b34801561037757600080fd5b506101616004803603602081101561038e57600080fd5b50356001600160a01b0316610b7c565b3480156103aa57600080fd5b506101d7610bf0565b3480156103bf57600080fd5b506101d7610bf6565b3480156103d457600080fd5b506103dd610bfc565b604080516001600160a01b039092168252519081900360200190f35b34801561040557600080fd5b506101d76004803603604081101561041c57600080fd5b5080359060200135610c0b565b34801561043557600080fd5b506103dd610c4b565b610161610c6f565b34801561045257600080fd5b50610161610f20565b34801561046757600080fd5b506101616004803603602081101561047e57600080fd5b50356001600160a01b0316610fb3565b34801561049a57600080fd5b50610161600480360360208110156104b157600080fd5b50356001600160a01b0316611024565b3480156104cd57600080fd5b506101d7600480360360208110156104e457600080fd5b50356001600160a01b031661111c565b34801561050057600080fd5b506103dd611274565b34801561051557600080fd5b506103dd611283565b6004818154811061052b57fe5b600091825260209091206004909102018054600182015460028301546003909301546001600160a01b039092169350919084565b60075481565b60056020526000908152604090208054600182015460029092015490919060ff1683565b60095481565b610597611292565b6000546001600160a01b039081169116146105e7576040805162461bcd60e51b815260206004820181905260248201526000805160206118b5833981519152604482015290519081900360640190fd5b600655565b600060046000815481106105fc57fe5b6000918252602080832033845260059091526040909220805460049092029092019250831115610668576040805162461bcd60e51b81526020600482015260126024820152711dda5d1a191c985dce881b9bdd0819dbdbd960721b604482015290519081900360640190fd5b610672600061090e565b60006106ac82600101546106a664e8d4a510006106a08760030154876000015461129690919063ffffffff16565b906112f6565b90611335565b90506000811180156106c35750600282015460ff16155b156106df576001546106df906001600160a01b03163383611377565b831561077d5781546106f19085611335565b825560408051632e1a7d4d60e01b81526004810186905290516001600160a01b037f00000000000000000000000000000000000000000000000000000000000000001691632e1a7d4d91602480830192600092919082900301818387803b15801561075b57600080fd5b505af115801561076f573d6000803e3d6000fd5b5050505061077d33856113ce565b600383015482546107989164e8d4a51000916106a091611296565b600183015560408051858152905133917f884edad9ce6fa2440d8a54cc123490eb96d2768479d49ff9c7366125a9424364919081900360200190a250505050565b6107e1611292565b6000546001600160a01b03908116911614610831576040805162461bcd60e51b815260206004820181905260248201526000805160206118b5833981519152604482015290519081900360640190fd5b600154604080516370a0823160e01b815230600482015290516001600160a01b03909216916370a0823191602480820192602092909190829003018186803b15801561087c57600080fd5b505afa158015610890573d6000803e3d6000fd5b505050506040513d60208110156108a657600080fd5b505181106108ee576040805162461bcd60e51b815260206004820152601060248201526f3737ba1032b737bab3b4103a37b5b2b760811b604482015290519081900360640190fd5b600154610905906001600160a01b03163383611377565b50565b60085481565b60006004828154811061091d57fe5b906000526020600020906004020190508060020154431161093e5750610905565b8054604080516370a0823160e01b815230600482015290516000926001600160a01b0316916370a08231916024808301926020929190829003018186803b15801561098857600080fd5b505afa15801561099c573d6000803e3d6000fd5b505050506040513d60208110156109b257600080fd5b50519050806109c8575043600290910155610905565b60006109d8836002015443610c0b565b90506000610a056007546106a086600101546109ff6003548761129690919063ffffffff16565b90611296565b9050610a28610a1d846106a08464e8d4a51000611296565b600386015490611463565b60038501555050436002909201919091555050565b60045460005b81811015610a5c57610a548161090e565b600101610a43565b5050565b610a68611292565b6000546001600160a01b03908116911614610ab8576040805162461bcd60e51b815260206004820181905260248201526000805160206118b5833981519152604482015290519081900360640190fd5b600280546001600160a01b0319166001600160a01b0392909216919091179055565b610ae2611292565b6000546001600160a01b03908116911614610b32576040805162461bcd60e51b815260206004820181905260248201526000805160206118b5833981519152604482015290519081900360640190fd5b600080546040516001600160a01b03909116907f8be0079c531659141344cd1fd0a4f28419497f9722a3daafe3b4186f6b6457e0908390a3600080546001600160a01b0319169055565b6002546001600160a01b03163314610bc9576040805162461bcd60e51b815260206004820152600b60248201526a61646d696e3a207775743f60a81b604482015290519081900360640190fd5b6001600160a01b03166000908152600560205260409020600201805460ff19166001179055565b60065481565b60035481565b6000546001600160a01b031690565b60006009548211610c2757610c208284611335565b9050610c45565b6009548310610c3857506000610c45565b600954610c209084611335565b92915050565b7f000000000000000000000000000000000000000000000000000000000000000081565b60006004600081548110610c7f57fe5b60009182526020808320338452600590915260409092206006548154600490930290930193509190610cb19034611463565b1115610cf5576040805162461bcd60e51b815260206004820152600e60248201526d06578636565642074686520746f760941b604482015290519081900360640190fd5b600281015460ff1615610d3f576040805162461bcd60e51b815260206004820152600d60248201526c1a5b88189b1858dac81b1a5cdd609a1b604482015290519081900360640190fd5b610d49600061090e565b805415610d9f576000610d7e82600101546106a664e8d4a510006106a08760030154876000015461129690919063ffffffff16565b90508015610d9d57600154610d9d906001600160a01b03163383611377565b505b3415610ec6577f00000000000000000000000000000000000000000000000000000000000000006001600160a01b031663d0e30db0346040518263ffffffff1660e01b81526004016000604051808303818588803b158015610e0057600080fd5b505af1158015610e14573d6000803e3d6000fd5b50506040805163a9059cbb60e01b815230600482015234602482015290516001600160a01b037f000000000000000000000000000000000000000000000000000000000000000016945063a9059cbb9350604480830193506020928290030181600087803b158015610e8557600080fd5b505af1158015610e99573d6000803e3d6000fd5b505050506040513d6020811015610eaf57600080fd5b5051610eb757fe5b8054610ec39034611463565b81555b60038201548154610ee19164e8d4a51000916106a091611296565b600182015560408051348152905133917fe1fffcc4923d04b559f4d29a8bfc6cda04eb5b0d3c460751c2402c5c5cc9109c919081900360200190a25050565b60006004600081548110610f3057fe5b600091825260208083203380855260059092526040909320805460049093029093018054909450610f6e926001600160a01b03919091169190611377565b8054604080519182525133917f5fafa99d0643513820be26656b45130b01e1c03062e1266bf36f88cbd3bd9695919081900360200190a2600080825560019091015550565b6002546001600160a01b03163314611000576040805162461bcd60e51b815260206004820152600b60248201526a61646d696e3a207775743f60a81b604482015290519081900360640190fd5b6001600160a01b03166000908152600560205260409020600201805460ff19169055565b61102c611292565b6000546001600160a01b0390811691161461107c576040805162461bcd60e51b815260206004820181905260248201526000805160206118b5833981519152604482015290519081900360640190fd5b6001600160a01b0381166110c15760405162461bcd60e51b81526004018080602001828103825260268152602001806118486026913960400191505060405180910390fd5b600080546040516001600160a01b03808516939216917f8be0079c531659141344cd1fd0a4f28419497f9722a3daafe3b4186f6b6457e091a3600080546001600160a01b0319166001600160a01b0392909216919091179055565b600080600460008154811061112d57fe5b600091825260208083206001600160a01b03878116855260058352604080862060049586029093016003810154815483516370a0823160e01b81523098810198909852925191985093969395939491909216926370a082319260248083019392829003018186803b1580156111a157600080fd5b505afa1580156111b5573d6000803e3d6000fd5b505050506040513d60208110156111cb57600080fd5b50516002850154909150431180156111e257508015155b156112425760006111f7856002015443610c0b565b9050600061121e6007546106a088600101546109ff6003548761129690919063ffffffff16565b905061123d611236846106a08464e8d4a51000611296565b8590611463565b935050505b61126a83600101546106a664e8d4a510006106a086886000015461129690919063ffffffff16565b9695505050505050565b6001546001600160a01b031681565b6002546001600160a01b031681565b3390565b6000826112a557506000610c45565b828202828482816112b257fe5b04146112ef5760405162461bcd60e51b81526004018080602001828103825260218152602001806118946021913960400191505060405180910390fd5b9392505050565b60006112ef83836040518060400160405280601a815260200179536166654d6174683a206469766973696f6e206279207a65726f60301b8152506114bb565b60006112ef83836040518060400160405280601e81526020017f536166654d6174683a207375627472616374696f6e206f766572666c6f77000081525061155d565b604080516001600160a01b038416602482015260448082018490528251808303909101815260649091019091526020810180516001600160e01b031663a9059cbb60e01b1790526113c99084906115b7565b505050565b6040516000906001600160a01b038416906159d890849084818181858888f193505050503d806000811461141e576040519150601f19603f3d011682016040523d82523d6000602084013e611423565b606091505b50509050806113c95760405162461bcd60e51b81526004018080602001828103825260238152602001806118d56023913960400191505060405180910390fd5b6000828201838110156112ef576040805162461bcd60e51b815260206004820152601b60248201527a536166654d6174683a206164646974696f6e206f766572666c6f7760281b604482015290519081900360640190fd5b600081836115475760405162461bcd60e51b81526004018080602001828103825283818151815260200191508051906020019080838360005b8381101561150c5781810151838201526020016114f4565b50505050905090810190601f1680156115395780820380516001836020036101000a031916815260200191505b509250505060405180910390fd5b50600083858161155357fe5b0495945050505050565b600081848411156115af5760405162461bcd60e51b815260206004820181815283516024840152835190928392604490910191908501908083836000831561150c5781810151838201526020016114f4565b505050900390565b606061160c826040518060400160405280602081526020017f5361666545524332303a206c6f772d6c6576656c2063616c6c206661696c6564815250856001600160a01b03166116689092919063ffffffff16565b8051909150156113c95780806020019051602081101561162b57600080fd5b50516113c95760405162461bcd60e51b815260040180806020018281038252602a8152602001806118f8602a913960400191505060405180910390fd5b6060611677848460008561167f565b949350505050565b6060824710156116c05760405162461bcd60e51b815260040180806020018281038252602681526020018061186e6026913960400191505060405180910390fd5b6116c9856117db565b61171a576040805162461bcd60e51b815260206004820152601d60248201527f416464726573733a2063616c6c20746f206e6f6e2d636f6e7472616374000000604482015290519081900360640190fd5b60006060866001600160a01b031685876040518082805190602001908083835b602083106117595780518252601f19909201916020918201910161173a565b6001836020036101000a03801982511681845116808217855250505050505090500191505060006040518083038185875af1925050503d80600081146117bb576040519150601f19603f3d011682016040523d82523d6000602084013e6117c0565b606091505b50915091506117d08282866117e1565b979650505050505050565b3b151590565b606083156117f05750816112ef565b8251156118005782518084602001fd5b60405162461bcd60e51b815260206004820181815284516024840152845185939192839260440191908501908083836000831561150c5781810151838201526020016114f456fe4f776e61626c653a206e6577206f776e657220697320746865207a65726f2061646472657373416464726573733a20696e73756666696369656e742062616c616e636520666f722063616c6c536166654d6174683a206d756c7469706c69636174696f6e206f766572666c6f774f776e61626c653a2063616c6c6572206973206e6f7420746865206f776e65725472616e7366657248656c7065723a204554485f5452414e534645525f4641494c45445361666545524332303a204552433230206f7065726174696f6e20646964206e6f742073756363656564a2646970667358221220895ffcb862c9e4ddf7fb36f238d705c4b62c43e48f76d31dd821c0e7f5fac07864736f6c634300060c0033","linkReferences":{}},"methodIdentifiers":{"WBNB()":"8dd95002","adminAddress()":"fc6f9468","bonusEndBlock()":"1aed6553","deposit()":"d0e30db0","emergencyRewardWithdraw(uint256)":"3279beab","emergencyWithdraw()":"db2e21bc","getMultiplier(uint256,uint256)":"8dbb1e3a","limitAmount()":"78abafaf","massUpdatePools()":"630b5ba1","owner()":"8da5cb5b","pendingReward(address)":"f40f0f52","poolInfo(uint256)":"1526fe27","removeBlackList(address)":"e4997dc5","renounceOwnership()":"715018a6","rewardPerBlock()":"8ae39cac","rewardToken()":"f7c618c1","setAdmin(address)":"704b6c02","setBlackList(address)":"72700241","setLimitAmount(uint256)":"1f107a45","startBlock()":"48cd4cb1","totalAllocPoint()":"17caf6f1","transferOwnership(address)":"f2fde38b","updatePool(uint256)":"51eb05a6","userInfo(address)":"1959a002","withdraw(uint256)":"2e1a7d4d"},"id":94}