{"abi":[{"type":"receive","stateMutability":"payable"},{"type":"function","name":"acceptTransfer","inputs":[{"name":"_sender","type":"address","internalType":"address"}],"outputs":[],"stateMutability":"nonpayable"},{"type":"function","name":"batchStakeZusForAccount","inputs":[{"name":"_accounts","type":"address[]","internalType":"address[]"},{"name":"_amounts","type":"uint256[]","internalType":"uint256[]"}],"outputs":[],"stateMutability":"nonpayable"},{"type":"function","name":"claim","inputs":[],"outputs":[],"stateMutability":"nonpayable"},{"type":"function","name":"claimFees","inputs":[],"outputs":[],"stateMutability":"nonpayable"},{"type":"function","name":"feeZlpTracker","inputs":[],"outputs":[{"name":"","type":"address","internalType":"address"}],"stateMutability":"view"},{"type":"function","name":"gov","inputs":[],"outputs":[{"name":"","type":"address","internalType":"address"}],"stateMutability":"view"},{"type":"function","name":"handleRewards","inputs":[{"name":"_shouldClaimWeth","type":"bool","internalType":"bool"},{"name":"_shouldConvertWethToEth","type":"bool","internalType":"bool"}],"outputs":[],"stateMutability":"nonpayable"},{"type":"function","name":"initialize","inputs":[{"name":"_weth","type":"address","internalType":"address"},{"name":"_zus","type":"address","internalType":"address"},{"name":"_zlp","type":"address","internalType":"address"},{"name":"_stakedZusTracker","type":"address","internalType":"address"},{"name":"_feeZlpTracker","type":"address","internalType":"address"},{"name":"_stakedZlpTracker","type":"address","internalType":"address"},{"name":"_zlpManager","type":"address","internalType":"address"}],"outputs":[],"stateMutability":"nonpayable"},{"type":"function","name":"isInitialized","inputs":[],"outputs":[{"name":"","type":"bool","internalType":"bool"}],"stateMutability":"view"},{"type":"function","name":"mintAndStakeZlp","inputs":[{"name":"_token","type":"address","internalType":"address"},{"name":"_amount","type":"uint256","internalType":"uint256"},{"name":"_minUsdg","type":"uint256","internalType":"uint256"},{"name":"_minZlp","type":"uint256","internalType":"uint256"}],"outputs":[{"name":"","type":"uint256","internalType":"uint256"}],"stateMutability":"nonpayable"},{"type":"function","name":"mintAndStakeZlpETH","inputs":[{"name":"_minUsdg","type":"uint256","internalType":"uint256"},{"name":"_minZlp","type":"uint256","internalType":"uint256"}],"outputs":[{"name":"","type":"uint256","internalType":"uint256"}],"stateMutability":"payable"},{"type":"function","name":"pendingReceivers","inputs":[{"name":"","type":"address","internalType":"address"}],"outputs":[{"name":"","type":"address","internalType":"address"}],"stateMutability":"view"},{"type":"function","name":"setGov","inputs":[{"name":"_gov","type":"address","internalType":"address"}],"outputs":[],"stateMutability":"nonpayable"},{"type":"function","name":"signalTransfer","inputs":[{"name":"_receiver","type":"address","internalType":"address"}],"outputs":[],"stateMutability":"nonpayable"},{"type":"function","name":"stakeZus","inputs":[{"name":"_amount","type":"uint256","internalType":"uint256"}],"outputs":[],"stateMutability":"nonpayable"},{"type":"function","name":"stakeZusForAccount","inputs":[{"name":"_account","type":"address","internalType":"address"},{"name":"_amount","type":"uint256","internalType":"uint256"}],"outputs":[],"stateMutability":"nonpayable"},{"type":"function","name":"stakedZlpTracker","inputs":[],"outputs":[{"name":"","type":"address","internalType":"address"}],"stateMutability":"view"},{"type":"function","name":"stakedZusTracker","inputs":[],"outputs":[{"name":"","type":"address","internalType":"address"}],"stateMutability":"view"},{"type":"function","name":"unstakeAndRedeemZlp","inputs":[{"name":"_tokenOut","type":"address","internalType":"address"},{"name":"_zlpAmount","type":"uint256","internalType":"uint256"},{"name":"_minOut","type":"uint256","internalType":"uint256"},{"name":"_receiver","type":"address","internalType":"address"}],"outputs":[{"name":"","type":"uint256","internalType":"uint256"}],"stateMutability":"nonpayable"},{"type":"function","name":"unstakeAndRedeemZlpETH","inputs":[{"name":"_zlpAmount","type":"uint256","internalType":"uint256"},{"name":"_minOut","type":"uint256","internalType":"uint256"},{"name":"_receiver","type":"address","internalType":"address payable"}],"outputs":[{"name":"","type":"uint256","internalType":"uint256"}],"stateMutability":"nonpayable"},{"type":"function","name":"unstakeZus","inputs":[{"name":"_amount","type":"uint256","internalType":"uint256"}],"outputs":[],"stateMutability":"nonpayable"},{"type":"function","name":"weth","inputs":[],"outputs":[{"name":"","type":"address","internalType":"address"}],"stateMutability":"view"},{"type":"function","name":"withdrawToken","inputs":[{"name":"_token","type":"address","internalType":"address"},{"name":"_account","type":"address","internalType":"address"},{"name":"_amount","type":"uint256","internalType":"uint256"}],"outputs":[],"stateMutability":"nonpayable"},{"type":"function","name":"zlp","inputs":[],"outputs":[{"name":"","type":"address","internalType":"address"}],"stateMutability":"view"},{"type":"function","name":"zlpManager","inputs":[],"outputs":[{"name":"","type":"address","internalType":"address"}],"stateMutability":"view"},{"type":"function","name":"zus","inputs":[],"outputs":[{"name":"","type":"address","internalType":"address"}],"stateMutability":"view"},{"type":"event","name":"StakeZlp","inputs":[{"name":"account","type":"address","indexed":false,"internalType":"address"},{"name":"amount","type":"uint256","indexed":false,"internalType":"uint256"}],"anonymous":false},{"type":"event","name":"StakeZus","inputs":[{"name":"account","type":"address","indexed":false,"internalType":"address"},{"name":"token","type":"address","indexed":false,"internalType":"address"},{"name":"amount","type":"uint256","indexed":false,"internalType":"uint256"}],"anonymous":false},{"type":"event","name":"UnstakeZlp","inputs":[{"name":"account","type":"address","indexed":false,"internalType":"address"},{"name":"amount","type":"uint256","indexed":false,"internalType":"uint256"}],"anonymous":false},{"type":"event","name":"UnstakeZus","inputs":[{"name":"account","type":"address","indexed":false,"internalType":"address"},{"name":"token","type":"address","indexed":false,"internalType":"address"},{"name":"amount","type":"uint256","indexed":false,"internalType":"uint256"}],"anonymous":false}],"bytecode":{"object":"0x608060405234801561001057600080fd5b50600180546001600160a01b031916331790556135eb806100326000396000f3fe6080604052600436106101355760003560e01c806301e336671461019957806302486e08146101dc57806303a243991461020d57806312d43a511461023757806317988a6a1461024c5780633587647614610261578063392e53cd146102c65780633fc8cef3146102ef5780634e71d92d14610304578063655603a414610319578063822ac2211461034c57806382de00721461037657806384347a33146103af578063b6556599146103c4578063b7699816146103d9578063c8cfba391461042a578063cca30c311461046f578063cfad57a2146104b6578063d106f13a146104e9578063d294f09314610619578063d6bf66c21461062e578063e1b9db8914610651578063e7cf6c1014610684578063ec4ee1c0146106b8578063ef9aacfd146106cd578063fe9fe7201461070057610194565b36610194576002546001600160a01b03163314610192576040805162461bcd60e51b81526020600482015260166024820152752937baba32b91d1034b73b30b634b21039b2b73232b960511b604482015290519081900360640190fd5b005b600080fd5b3480156101a557600080fd5b50610192600480360360608110156101bc57600080fd5b506001600160a01b03813581169160208101359091169060400135610715565b3480156101e857600080fd5b506101f161077b565b604080516001600160a01b039092168252519081900360200190f35b34801561021957600080fd5b506101926004803603602081101561023057600080fd5b503561078a565b34801561024357600080fd5b506101f16107f7565b34801561025857600080fd5b506101f1610806565b34801561026d57600080fd5b50610192600480360360e081101561028457600080fd5b506001600160a01b038135811691602081013582169160408201358116916060810135821691608082013581169160a081013582169160c09091013516610815565b3480156102d257600080fd5b506102db61093e565b604080519115158252519081900360200190f35b3480156102fb57600080fd5b506101f161094e565b34801561031057600080fd5b5061019261095d565b34801561032557600080fd5b506101926004803603602081101561033c57600080fd5b50356001600160a01b0316610b3a565b34801561035857600080fd5b506101926004803603602081101561036f57600080fd5b5035611349565b34801561038257600080fd5b506101926004803603604081101561039957600080fd5b506001600160a01b0381351690602001356113ac565b3480156103bb57600080fd5b506101f1611467565b3480156103d057600080fd5b506101f1611476565b3480156103e557600080fd5b50610418600480360360608110156103fc57600080fd5b50803590602081013590604001356001600160a01b0316611485565b60408051918252519081900360200190f35b34801561043657600080fd5b506104186004803603608081101561044d57600080fd5b506001600160a01b038135169060208101359060408101359060600135611790565b34801561047b57600080fd5b506104186004803603608081101561049257600080fd5b506001600160a01b0381358116916020810135916040820135916060013516611ca1565b3480156104c257600080fd5b50610192600480360360208110156104d957600080fd5b50356001600160a01b0316611f33565b3480156104f557600080fd5b506101926004803603604081101561050c57600080fd5b810190602081018135600160201b81111561052657600080fd5b82018360208201111561053857600080fd5b803590602001918460208302840111600160201b8311171561055957600080fd5b9190808060200260200160405190810160405280939291908181526020018383602002808284376000920191909152509295949360208101935035915050600160201b8111156105a857600080fd5b8201836020820111156105ba57600080fd5b803590602001918460208302840111600160201b831117156105db57600080fd5b919080806020026020016040519081016040528093929190818152602001838360200280828437600092019190915250929550611fa2945050505050565b34801561062557600080fd5b5061019261208c565b6104186004803603604081101561064457600080fd5b5080359060200135612131565b34801561065d57600080fd5b506101f16004803603602081101561067457600080fd5b50356001600160a01b0316612638565b34801561069057600080fd5b50610192600480360360408110156106a757600080fd5b508035151590602001351515612653565b3480156106c457600080fd5b506101f161283d565b3480156106d957600080fd5b50610192600480360360208110156106f057600080fd5b50356001600160a01b031661284c565b34801561070c57600080fd5b506101f16128d4565b6001546001600160a01b03163314610762576040805162461bcd60e51b815260206004820152601560248201526000805160206133a0833981519152604482015290519081900360640190fd5b6107766001600160a01b03841683836128e3565b505050565b6003546001600160a01b031681565b600260005414156107d0576040805162461bcd60e51b815260206004820152601f602482015260008051602061334c833981519152604482015290519081900360640190fd5b60026000556003546107ef90339081906001600160a01b031684612935565b506001600055565b6001546001600160a01b031681565b6006546001600160a01b031681565b6001546001600160a01b03163314610862576040805162461bcd60e51b815260206004820152601560248201526000805160206133a0833981519152604482015290519081900360640190fd5b600154600160a01b900460ff16156108ab5760405162461bcd60e51b815260040180806020018281038252602181526020018061342b6021913960400191505060405180910390fd5b60018054600160a01b60ff60a01b19909116179055600280546001600160a01b03199081166001600160a01b03998a1617909155600380548216978916979097179096556004805487169588169590951790945560058054861693871693909317909255600780548516918616919091179055600680548416918516919091179055600880549092169216919091179055565b600154600160a01b900460ff1681565b6002546001600160a01b031681565b600260005414156109a3576040805162461bcd60e51b815260206004820152601f602482015260008051602061334c833981519152604482015290519081900360640190fd5b60026000908155600754604080516309f4173d60e11b8152336004820181905260248201819052915191936001600160a01b03909316926313e82e7a926044808401936020939083900390910190829087803b158015610a0257600080fd5b505af1158015610a16573d6000803e3d6000fd5b505050506040513d6020811015610a2c57600080fd5b5050600554604080516309f4173d60e11b81526001600160a01b03848116600483018190526024830152915191909216916313e82e7a9160448083019260209291908290030181600087803b158015610a8457600080fd5b505af1158015610a98573d6000803e3d6000fd5b505050506040513d6020811015610aae57600080fd5b5050600654604080516309f4173d60e11b81526001600160a01b03848116600483018190526024830152915191909216916313e82e7a9160448083019260209291908290030181600087803b158015610b0657600080fd5b505af1158015610b1a573d6000803e3d6000fd5b505050506040513d6020811015610b3057600080fd5b5050600160005550565b60026000541415610b80576040805162461bcd60e51b815260206004820152601f602482015260008051602061334c833981519152604482015290519081900360640190fd5b600260009081556001600160a01b03828116825260096020526040909120543391168114610bdf5760405162461bcd60e51b81526004018080602001828103825260248152602001806134726024913960400191505060405180910390fd5b6001600160a01b038216600090815260096020526040902080546001600160a01b0319169055610c0e81612a46565b60055460035460408051637aeceb1f60e11b81526001600160a01b03868116600483015292831660248201529051600093929092169163f5d9d63e91604480820192602092909190829003018186803b158015610c6a57600080fd5b505afa158015610c7e573d6000803e3d6000fd5b505050506040513d6020811015610c9457600080fd5b505190508015610ea2576005546003546040805163098bf59d60e01b81526001600160a01b0387811660048301529283166024820152604481018590523060648201529051919092169163098bf59d91608480830192600092919082900301818387803b158015610d0457600080fd5b505af1158015610d18573d6000803e3d6000fd5b50506003546005546040805163095ea7b360e01b81526001600160a01b03928316600482015260248101879052905191909216935063095ea7b3925060448083019260209291908290030181600087803b158015610d7557600080fd5b505af1158015610d89573d6000803e3d6000fd5b505050506040513d6020811015610d9f57600080fd5b505060055460035460408051631e42d69b60e21b81523060048201526001600160a01b0386811660248301529283166044820152606481018590529051919092169163790b5a6c91608480830192600092919082900301818387803b158015610e0757600080fd5b505af1158015610e1b573d6000803e3d6000fd5b50506005546040805163a9059cbb60e01b81526001600160a01b03878116600483015260248201879052915191909216935063a9059cbb925060448083019260209291908290030181600087803b158015610e7557600080fd5b505af1158015610e89573d6000803e3d6000fd5b505050506040513d6020811015610e9f57600080fd5b50505b6007546004805460408051637aeceb1f60e11b81526001600160a01b0388811694820194909452918316602483015251600093929092169163f5d9d63e91604480820192602092909190829003018186803b158015610f0057600080fd5b505afa158015610f14573d6000803e3d6000fd5b505050506040513d6020811015610f2a57600080fd5b50519050801561133e576006546007546040805163098bf59d60e01b81526001600160a01b0388811660048301529283166024820152604481018590523060648201529051919092169163098bf59d91608480830192600092919082900301818387803b158015610f9a57600080fd5b505af1158015610fae573d6000803e3d6000fd5b50506007546040805163a9059cbb60e01b81526001600160a01b03898116600483015260248201879052915191909216935063a9059cbb925060448083019260209291908290030181600087803b15801561100857600080fd5b505af115801561101c573d6000803e3d6000fd5b505050506040513d602081101561103257600080fd5b5050600754600480546040805163098bf59d60e01b81526001600160a01b038981169482019490945291831660248301526044820185905230606483015251919092169163098bf59d91608480830192600092919082900301818387803b15801561109c57600080fd5b505af11580156110b0573d6000803e3d6000fd5b5050600480546007546040805163095ea7b360e01b81526001600160a01b039283169481019490945260248401879052519116935063095ea7b3925060448083019260209291908290030181600087803b15801561110d57600080fd5b505af1158015611121573d6000803e3d6000fd5b505050506040513d602081101561113757600080fd5b50506007546004805460408051631e42d69b60e21b815230938101939093526001600160a01b0387811660248501529182166044840152606483018590525192169163790b5a6c9160848082019260009290919082900301818387803b1580156111a057600080fd5b505af11580156111b4573d6000803e3d6000fd5b50506007546006546040805163095ea7b360e01b81526001600160a01b03928316600482015260248101879052905191909216935063095ea7b3925060448083019260209291908290030181600087803b15801561121157600080fd5b505af1158015611225573d6000803e3d6000fd5b505050506040513d602081101561123b57600080fd5b505060065460075460408051631e42d69b60e21b81523060048201526001600160a01b0387811660248301529283166044820152606481018590529051919092169163790b5a6c91608480830192600092919082900301818387803b1580156112a357600080fd5b505af11580156112b7573d6000803e3d6000fd5b50506006546040805163a9059cbb60e01b81526001600160a01b03888116600483015260248201879052915191909216935063a9059cbb925060448083019260209291908290030181600087803b15801561131157600080fd5b505af1158015611325573d6000803e3d6000fd5b505050506040513d602081101561133b57600080fd5b50505b505060016000555050565b6002600054141561138f576040805162461bcd60e51b815260206004820152601f602482015260008051602061334c833981519152604482015290519081900360640190fd5b60026000556003546107ef9033906001600160a01b031683612e87565b600260005414156113f2576040805162461bcd60e51b815260206004820152601f602482015260008051602061334c833981519152604482015290519081900360640190fd5b60026000556001546001600160a01b03163314611444576040805162461bcd60e51b815260206004820152601560248201526000805160206133a0833981519152604482015290519081900360640190fd5b60035461145e90339084906001600160a01b031684612935565b50506001600055565b6007546001600160a01b031681565b6008546001600160a01b031681565b6000600260005414156114cd576040805162461bcd60e51b815260206004820152601f602482015260008051602061334c833981519152604482015290519081900360640190fd5b600260005583611524576040805162461bcd60e51b815260206004820181905260248201527f526577617264526f757465723a20696e76616c6964205f7a6c70416d6f756e74604482015290519081900360640190fd5b6006546007546040805163098bf59d60e01b815233600482018190526001600160a01b039384166024830152604482018990526064820181905291519193929092169163098bf59d91608480830192600092919082900301818387803b15801561158d57600080fd5b505af11580156115a1573d6000803e3d6000fd5b5050600754600480546040805163098bf59d60e01b81526001600160a01b038881169482018590529283166024820152604481018c90526064810193909352519216935063098bf59d925060848082019260009290919082900301818387803b15801561160d57600080fd5b505af1158015611621573d6000803e3d6000fd5b5050600854600254604080516371d597ad60e01b81526001600160a01b0387811660048301529283166024820152604481018b9052606481018a90523060848201529051600095509190921692506371d597ad9160a48082019260209290919082900301818787803b15801561169657600080fd5b505af11580156116aa573d6000803e3d6000fd5b505050506040513d60208110156116c057600080fd5b505160025460408051632e1a7d4d60e01b81526004810184905290519293506001600160a01b0390911691632e1a7d4d9160248082019260009290919082900301818387803b15801561171257600080fd5b505af1158015611726573d6000803e3d6000fd5b5061173e925050506001600160a01b03851682612f96565b604080516001600160a01b03841681526020810188905281517f83ac00acd50a988c92018e2f35631dfbc00d5bd016c5515fe3758877b1499cf8929181900390910190a1600160005595945050505050565b6000600260005414156117d8576040805162461bcd60e51b815260206004820152601f602482015260008051602061334c833981519152604482015290519081900360640190fd5b60026000558361181d576040805162461bcd60e51b815260206004820152601d6024820152600080516020613596833981519152604482015290519081900360640190fd5b604080516323b872dd60e01b815233600482018190523060248301526044820187905291516001600160a01b038816916323b872dd9160648083019260209291908290030181600087803b15801561187457600080fd5b505af1158015611888573d6000803e3d6000fd5b505050506040513d602081101561189e57600080fd5b50506008546040805163095ea7b360e01b81526001600160a01b0392831660048201526024810188905290519188169163095ea7b3916044808201926020929091908290030181600087803b1580156118f657600080fd5b505af115801561190a573d6000803e3d6000fd5b505050506040513d602081101561192057600080fd5b5050600854604080516317eb2a1560e01b8152306004820181905260248201526001600160a01b038981166044830152606482018990526084820188905260a48201879052915160009392909216916317eb2a159160c48082019260209290919082900301818787803b15801561199657600080fd5b505af11580156119aa573d6000803e3d6000fd5b505050506040513d60208110156119c057600080fd5b5051600480546007546040805163095ea7b360e01b81526001600160a01b03928316948101949094526024840185905251939450169163095ea7b3916044808201926020929091908290030181600087803b158015611a1e57600080fd5b505af1158015611a32573d6000803e3d6000fd5b505050506040513d6020811015611a4857600080fd5b50506007546004805460408051631e42d69b60e21b815230938101939093526001600160a01b0386811660248501529182166044840152606483018590525192169163790b5a6c9160848082019260009290919082900301818387803b158015611ab157600080fd5b505af1158015611ac5573d6000803e3d6000fd5b50506007546006546040805163095ea7b360e01b81526001600160a01b03928316600482015260248101879052905191909216935063095ea7b3925060448083019260209291908290030181600087803b158015611b2257600080fd5b505af1158015611b36573d6000803e3d6000fd5b505050506040513d6020811015611b4c57600080fd5b505060065460075460408051631e42d69b60e21b81523060048201526001600160a01b0386811660248301529283166044820152606481018590529051919092169163790b5a6c91608480830192600092919082900301818387803b158015611bb457600080fd5b505af1158015611bc8573d6000803e3d6000fd5b50506006546040805163a9059cbb60e01b81526001600160a01b03878116600483015260248201879052915191909216935063a9059cbb925060448083019260209291908290030181600087803b158015611c2257600080fd5b505af1158015611c36573d6000803e3d6000fd5b505050506040513d6020811015611c4c57600080fd5b5050604080516001600160a01b03841681526020810183905281517fad93b2f628eda4195b3bf8738da70d1ba23b7061ffa4fe71aaca907e0b128cce929181900390910190a160016000559695505050505050565b600060026000541415611ce9576040805162461bcd60e51b815260206004820152601f602482015260008051602061334c833981519152604482015290519081900360640190fd5b600260005583611d40576040805162461bcd60e51b815260206004820181905260248201527f526577617264526f757465723a20696e76616c6964205f7a6c70416d6f756e74604482015290519081900360640190fd5b6006546007546040805163098bf59d60e01b815233600482018190526001600160a01b039384166024830152604482018990526064820181905291519193929092169163098bf59d91608480830192600092919082900301818387803b158015611da957600080fd5b505af1158015611dbd573d6000803e3d6000fd5b5050600754600480546040805163098bf59d60e01b81526001600160a01b038881169482018590529283166024820152604481018c90526064810193909352519216935063098bf59d925060848082019260009290919082900301818387803b158015611e2957600080fd5b505af1158015611e3d573d6000803e3d6000fd5b5050600854604080516371d597ad60e01b81526001600160a01b0386811660048301528b81166024830152604482018b9052606482018a905288811660848301529151600095509190921692506371d597ad9160a48082019260209290919082900301818787803b158015611eb157600080fd5b505af1158015611ec5573d6000803e3d6000fd5b505050506040513d6020811015611edb57600080fd5b5051604080516001600160a01b03851681526020810189905281519293507f83ac00acd50a988c92018e2f35631dfbc00d5bd016c5515fe3758877b1499cf8929081900390910190a160016000559695505050505050565b6001546001600160a01b03163314611f80576040805162461bcd60e51b815260206004820152601560248201526000805160206133a0833981519152604482015290519081900360640190fd5b600180546001600160a01b0319166001600160a01b0392909216919091179055565b60026000541415611fe8576040805162461bcd60e51b815260206004820152601f602482015260008051602061334c833981519152604482015290519081900360640190fd5b60026000556001546001600160a01b0316331461203a576040805162461bcd60e51b815260206004820152601560248201526000805160206133a0833981519152604482015290519081900360640190fd5b6003546001600160a01b031660005b835181101561133e576120843385838151811061206257fe5b60200260200101518486858151811061207757fe5b6020026020010151612935565b600101612049565b600260005414156120d2576040805162461bcd60e51b815260206004820152601f602482015260008051602061334c833981519152604482015290519081900360640190fd5b60026000908155600754604080516309f4173d60e11b8152336004820181905260248201819052915191936001600160a01b03909316926313e82e7a926044808401936020939083900390910190829087803b158015610b0657600080fd5b600060026000541415612179576040805162461bcd60e51b815260206004820152601f602482015260008051602061334c833981519152604482015290519081900360640190fd5b6002600055346121d0576040805162461bcd60e51b815260206004820152601f60248201527f526577617264526f757465723a20696e76616c6964206d73672e76616c756500604482015290519081900360640190fd5b600260009054906101000a90046001600160a01b03166001600160a01b031663d0e30db0346040518263ffffffff1660e01b81526004016000604051808303818588803b15801561222057600080fd5b505af1158015612234573d6000803e3d6000fd5b50506002546008546040805163095ea7b360e01b81526001600160a01b039283166004820152346024820152905191909216945063095ea7b39350604480830193506020928290030181600087803b15801561228f57600080fd5b505af11580156122a3573d6000803e3d6000fd5b505050506040513d60208110156122b957600080fd5b5050600854600254604080516317eb2a1560e01b8152306004820181905260248201526001600160a01b0392831660448201523460648201526084810187905260a481018690529051339360009316916317eb2a159160c480830192602092919082900301818787803b15801561232f57600080fd5b505af1158015612343573d6000803e3d6000fd5b505050506040513d602081101561235957600080fd5b5051600480546007546040805163095ea7b360e01b81526001600160a01b03928316948101949094526024840185905251939450169163095ea7b3916044808201926020929091908290030181600087803b1580156123b757600080fd5b505af11580156123cb573d6000803e3d6000fd5b505050506040513d60208110156123e157600080fd5b50506007546004805460408051631e42d69b60e21b815230938101939093526001600160a01b0386811660248501529182166044840152606483018590525192169163790b5a6c9160848082019260009290919082900301818387803b15801561244a57600080fd5b505af115801561245e573d6000803e3d6000fd5b50506007546006546040805163095ea7b360e01b81526001600160a01b03928316600482015260248101879052905191909216935063095ea7b3925060448083019260209291908290030181600087803b1580156124bb57600080fd5b505af11580156124cf573d6000803e3d6000fd5b505050506040513d60208110156124e557600080fd5b505060065460075460408051631e42d69b60e21b81523060048201526001600160a01b0386811660248301529283166044820152606481018590529051919092169163790b5a6c91608480830192600092919082900301818387803b15801561254d57600080fd5b505af1158015612561573d6000803e3d6000fd5b50506006546040805163a9059cbb60e01b81526001600160a01b03878116600483015260248201879052915191909216935063a9059cbb925060448083019260209291908290030181600087803b1580156125bb57600080fd5b505af11580156125cf573d6000803e3d6000fd5b505050506040513d60208110156125e557600080fd5b5050604080516001600160a01b03841681526020810183905281517fad93b2f628eda4195b3bf8738da70d1ba23b7061ffa4fe71aaca907e0b128cce929181900390910190a16001600055949350505050565b6009602052600090815260409020546001600160a01b031681565b60026000541415612699576040805162461bcd60e51b815260206004820152601f602482015260008051602061334c833981519152604482015290519081900360640190fd5b6002600055338215610b305781156127b157600754604080516309f4173d60e11b81526001600160a01b038481166004830152306024830152915160009392909216916313e82e7a9160448082019260209290919082900301818787803b15801561270357600080fd5b505af1158015612717573d6000803e3d6000fd5b505050506040513d602081101561272d57600080fd5b505160025460408051632e1a7d4d60e01b81526004810184905290519293506001600160a01b0390911691632e1a7d4d9160248082019260009290919082900301818387803b15801561277f57600080fd5b505af1158015612793573d6000803e3d6000fd5b506127ab925050506001600160a01b03831682612f96565b50610b30565b600754604080516309f4173d60e11b81526001600160a01b03848116600483018190526024830152915191909216916313e82e7a9160448083019260209291908290030181600087803b15801561280757600080fd5b505af115801561281b573d6000803e3d6000fd5b505050506040513d602081101561283157600080fd5b50505050600160005550565b6005546001600160a01b031681565b60026000541415612892576040805162461bcd60e51b815260206004820152601f602482015260008051602061334c833981519152604482015290519081900360640190fd5b60026000556128a081612a46565b33600090815260096020526040812080546001600160a01b0319166001600160a01b03939093169290921790915560019055565b6004546001600160a01b031681565b604080516001600160a01b038416602482015260448082018490528251808303909101815260649091019091526020810180516001600160e01b031663a9059cbb60e01b17905261077690849061307b565b60008111612978576040805162461bcd60e51b815260206004820152601d6024820152600080516020613596833981519152604482015290519081900360640190fd5b60055460408051631e42d69b60e21b81526001600160a01b03878116600483015286811660248301528581166044830152606482018590529151919092169163790b5a6c91608480830192600092919082900301818387803b1580156129dd57600080fd5b505af11580156129f1573d6000803e3d6000fd5b5050604080516001600160a01b0380881682528616602082015280820185905290517f01760f917f4a47f469c1b086afdd3a9cbeae9e4f55828716c4afed80970df5919350908190036060019150a150505050565b6005546040805163a318021760e01b81526001600160a01b0384811660048301529151919092169163a3180217916024808301926020929190829003018186803b158015612a9357600080fd5b505afa158015612aa7573d6000803e3d6000fd5b505050506040513d6020811015612abd57600080fd5b505115612afb5760405162461bcd60e51b81526004018080602001828103825260378152602001806134ca6037913960400191505060405180910390fd5b60055460408051633792def360e01b81526001600160a01b03848116600483015291519190921691633792def3916024808301926020929190829003018186803b158015612b4857600080fd5b505afa158015612b5c573d6000803e3d6000fd5b505050506040513d6020811015612b7257600080fd5b505115612bb05760405162461bcd60e51b81526004018080602001828103825260348152602001806134966034913960400191505060405180910390fd5b6006546040805163a318021760e01b81526001600160a01b0384811660048301529151919092169163a3180217916024808301926020929190829003018186803b158015612bfd57600080fd5b505afa158015612c11573d6000803e3d6000fd5b505050506040513d6020811015612c2757600080fd5b505115612c655760405162461bcd60e51b81526004018080602001828103825260378152602001806135016037913960400191505060405180910390fd5b60065460408051633792def360e01b81526001600160a01b03848116600483015291519190921691633792def3916024808301926020929190829003018186803b158015612cb257600080fd5b505afa158015612cc6573d6000803e3d6000fd5b505050506040513d6020811015612cdc57600080fd5b505115612d1a5760405162461bcd60e51b815260040180806020018281038252603481526020018061336c6034913960400191505060405180910390fd5b6007546040805163a318021760e01b81526001600160a01b0384811660048301529151919092169163a3180217916024808301926020929190829003018186803b158015612d6757600080fd5b505afa158015612d7b573d6000803e3d6000fd5b505050506040513d6020811015612d9157600080fd5b505115612dcf5760405162461bcd60e51b81526004018080602001828103825260348152602001806135386034913960400191505060405180910390fd5b60075460408051633792def360e01b81526001600160a01b03848116600483015291519190921691633792def3916024808301926020929190829003018186803b158015612e1c57600080fd5b505afa158015612e30573d6000803e3d6000fd5b505050506040513d6020811015612e4657600080fd5b505115612e845760405162461bcd60e51b81526004018080602001828103825260318152602001806133c06031913960400191505060405180910390fd5b50565b60008111612eca576040805162461bcd60e51b815260206004820152601d6024820152600080516020613596833981519152604482015290519081900360640190fd5b6005546040805163098bf59d60e01b81526001600160a01b038681166004830181905286821660248401526044830186905260648301529151919092169163098bf59d91608480830192600092919082900301818387803b158015612f2e57600080fd5b505af1158015612f42573d6000803e3d6000fd5b5050604080516001600160a01b0380881682528616602082015280820185905290517f4fdf699b84ba823ce9c2445fc7bf3102aebeb0308aebaf4f7b565c14ddedeb6e9350908190036060019150a1505050565b80471015612feb576040805162461bcd60e51b815260206004820152601d60248201527f416464726573733a20696e73756666696369656e742062616c616e6365000000604482015290519081900360640190fd5b6040516000906001600160a01b0384169083908381818185875af1925050503d8060008114613036576040519150601f19603f3d011682016040523d82523d6000602084013e61303b565b606091505b50509050806107765760405162461bcd60e51b815260040180806020018281038252603a8152602001806133f1603a913960400191505060405180910390fd5b60606130d0826040518060400160405280602081526020017f5361666545524332303a206c6f772d6c6576656c2063616c6c206661696c6564815250856001600160a01b031661312c9092919063ffffffff16565b805190915015610776578080602001905160208110156130ef57600080fd5b50516107765760405162461bcd60e51b815260040180806020018281038252602a81526020018061356c602a913960400191505060405180910390fd5b606061313b8484600085613145565b90505b9392505050565b6060824710156131865760405162461bcd60e51b815260040180806020018281038252602681526020018061344c6026913960400191505060405180910390fd5b61318f856132a1565b6131e0576040805162461bcd60e51b815260206004820152601d60248201527f416464726573733a2063616c6c20746f206e6f6e2d636f6e7472616374000000604482015290519081900360640190fd5b60006060866001600160a01b031685876040518082805190602001908083835b6020831061321f5780518252601f199092019160209182019101613200565b6001836020036101000a03801982511681845116808217855250505050505090500191505060006040518083038185875af1925050503d8060008114613281576040519150601f19603f3d011682016040523d82523d6000602084013e613286565b606091505b50915091506132968282866132a7565b979650505050505050565b3b151590565b606083156132b657508161313e565b8251156132c65782518084602001fd5b8160405162461bcd60e51b81526004018080602001828103825283818151815260200191508051906020019080838360005b838110156133105781810151838201526020016132f8565b50505050905090810190601f16801561333d5780820380516001836020036101000a031916815260200191505b509250505060405180910390fdfe5265656e7472616e637947756172643a207265656e7472616e742063616c6c00526577617264526f757465723a207374616b65645a6c70547261636b65722e63756d756c617469766552657761726473203e2030476f7665726e61626c653a20666f7262696464656e0000000000000000000000526577617264526f757465723a206665655a6c70547261636b65722e63756d756c617469766552657761726473203e2030416464726573733a20756e61626c6520746f2073656e642076616c75652c20726563697069656e74206d61792068617665207265766572746564526577617264526f757465723a20616c726561647920696e697469616c697a6564416464726573733a20696e73756666696369656e742062616c616e636520666f722063616c6c526577617264526f757465723a207472616e73666572206e6f74207369676e616c6c6564526577617264526f757465723a207374616b65645a7573547261636b65722e63756d756c617469766552657761726473203e2030526577617264526f757465723a207374616b65645a7573547261636b65722e617665726167655374616b6564416d6f756e7473203e2030526577617264526f757465723a207374616b65645a6c70547261636b65722e617665726167655374616b6564416d6f756e7473203e2030526577617264526f757465723a206665655a6c70547261636b65722e617665726167655374616b6564416d6f756e7473203e20305361666545524332303a204552433230206f7065726174696f6e20646964206e6f742073756363656564526577617264526f757465723a20696e76616c6964205f616d6f756e74000000a2646970667358221220fab0fa6ab41afd5b0d0e622279f3f6d1edfb4c12b5dbdcc6d841b5113e72275f64736f6c634300060c0033","linkReferences":{}},"methodIdentifiers":{"acceptTransfer(address)":"655603a4","batchStakeZusForAccount(address[],uint256[])":"d106f13a","claim()":"4e71d92d","claimFees()":"d294f093","feeZlpTracker()":"84347a33","gov()":"12d43a51","handleRewards(bool,bool)":"e7cf6c10","initialize(address,address,address,address,address,address,address)":"35876476","isInitialized()":"392e53cd","mintAndStakeZlp(address,uint256,uint256,uint256)":"c8cfba39","mintAndStakeZlpETH(uint256,uint256)":"d6bf66c2","pendingReceivers(address)":"e1b9db89","setGov(address)":"cfad57a2","signalTransfer(address)":"ef9aacfd","stakeZus(uint256)":"03a24399","stakeZusForAccount(address,uint256)":"82de0072","stakedZlpTracker()":"17988a6a","stakedZusTracker()":"ec4ee1c0","unstakeAndRedeemZlp(address,uint256,uint256,address)":"cca30c31","unstakeAndRedeemZlpETH(uint256,uint256,address)":"b7699816","unstakeZus(uint256)":"822ac221","weth()":"3fc8cef3","withdrawToken(address,address,uint256)":"01e33667","zlp()":"fe9fe720","zlpManager()":"b6556599","zus()":"02486e08"},"id":125}