{"abi":[{"type":"receive","stateMutability":"payable"},{"type":"function","name":"acceptGov","inputs":[],"outputs":[],"stateMutability":"nonpayable"},{"type":"function","name":"acceptTransfer","inputs":[{"name":"_sender","type":"address","internalType":"address"}],"outputs":[],"stateMutability":"nonpayable"},{"type":"function","name":"batchStakeZusForAccount","inputs":[{"name":"_accounts","type":"address[]","internalType":"address[]"},{"name":"_amounts","type":"uint256[]","internalType":"uint256[]"}],"outputs":[],"stateMutability":"nonpayable"},{"type":"function","name":"cancelGovProposal","inputs":[{"name":"_gov","type":"address","internalType":"address"}],"outputs":[],"stateMutability":"nonpayable"},{"type":"function","name":"claim","inputs":[],"outputs":[],"stateMutability":"nonpayable"},{"type":"function","name":"claimFees","inputs":[],"outputs":[],"stateMutability":"nonpayable"},{"type":"function","name":"feeZlpTracker","inputs":[],"outputs":[{"name":"","type":"address","internalType":"address"}],"stateMutability":"view"},{"type":"function","name":"gov","inputs":[],"outputs":[{"name":"","type":"address","internalType":"address"}],"stateMutability":"view"},{"type":"function","name":"govProposals","inputs":[{"name":"","type":"address","internalType":"address"}],"outputs":[{"name":"deadline","type":"uint256","internalType":"uint256"},{"name":"isActive","type":"bool","internalType":"bool"}],"stateMutability":"view"},{"type":"function","name":"handleRewards","inputs":[{"name":"_shouldClaimWeth","type":"bool","internalType":"bool"},{"name":"_shouldConvertWethToEth","type":"bool","internalType":"bool"}],"outputs":[],"stateMutability":"nonpayable"},{"type":"function","name":"initialize","inputs":[{"name":"_weth","type":"address","internalType":"address"},{"name":"_zus","type":"address","internalType":"address"},{"name":"_zlp","type":"address","internalType":"address"},{"name":"_stakedZusTracker","type":"address","internalType":"address"},{"name":"_feeZlpTracker","type":"address","internalType":"address"},{"name":"_stakedZlpTracker","type":"address","internalType":"address"},{"name":"_zlpManager","type":"address","internalType":"address"}],"outputs":[],"stateMutability":"nonpayable"},{"type":"function","name":"isInitialized","inputs":[],"outputs":[{"name":"","type":"bool","internalType":"bool"}],"stateMutability":"view"},{"type":"function","name":"mintAndStakeZlp","inputs":[{"name":"_token","type":"address","internalType":"address"},{"name":"_amount","type":"uint256","internalType":"uint256"},{"name":"_minUsdg","type":"uint256","internalType":"uint256"},{"name":"_minZlp","type":"uint256","internalType":"uint256"}],"outputs":[{"name":"","type":"uint256","internalType":"uint256"}],"stateMutability":"nonpayable"},{"type":"function","name":"mintAndStakeZlpETH","inputs":[{"name":"_minUsdg","type":"uint256","internalType":"uint256"},{"name":"_minZlp","type":"uint256","internalType":"uint256"}],"outputs":[{"name":"","type":"uint256","internalType":"uint256"}],"stateMutability":"payable"},{"type":"function","name":"pendingReceivers","inputs":[{"name":"","type":"address","internalType":"address"}],"outputs":[{"name":"","type":"address","internalType":"address"}],"stateMutability":"view"},{"type":"function","name":"setGov","inputs":[{"name":"_gov","type":"address","internalType":"address"}],"outputs":[],"stateMutability":"nonpayable"},{"type":"function","name":"setGovWithDeadline","inputs":[{"name":"_gov","type":"address","internalType":"address"},{"name":"_deadline","type":"uint256","internalType":"uint256"}],"outputs":[],"stateMutability":"nonpayable"},{"type":"function","name":"signalTransfer","inputs":[{"name":"_receiver","type":"address","internalType":"address"}],"outputs":[],"stateMutability":"nonpayable"},{"type":"function","name":"stakeZus","inputs":[{"name":"_amount","type":"uint256","internalType":"uint256"}],"outputs":[],"stateMutability":"nonpayable"},{"type":"function","name":"stakeZusForAccount","inputs":[{"name":"_account","type":"address","internalType":"address"},{"name":"_amount","type":"uint256","internalType":"uint256"}],"outputs":[],"stateMutability":"nonpayable"},{"type":"function","name":"stakedZlpTracker","inputs":[],"outputs":[{"name":"","type":"address","internalType":"address"}],"stateMutability":"view"},{"type":"function","name":"stakedZusTracker","inputs":[],"outputs":[{"name":"","type":"address","internalType":"address"}],"stateMutability":"view"},{"type":"function","name":"unstakeAndRedeemZlp","inputs":[{"name":"_tokenOut","type":"address","internalType":"address"},{"name":"_zlpAmount","type":"uint256","internalType":"uint256"},{"name":"_minOut","type":"uint256","internalType":"uint256"},{"name":"_receiver","type":"address","internalType":"address"}],"outputs":[{"name":"","type":"uint256","internalType":"uint256"}],"stateMutability":"nonpayable"},{"type":"function","name":"unstakeAndRedeemZlpETH","inputs":[{"name":"_zlpAmount","type":"uint256","internalType":"uint256"},{"name":"_minOut","type":"uint256","internalType":"uint256"},{"name":"_receiver","type":"address","internalType":"address payable"}],"outputs":[{"name":"","type":"uint256","internalType":"uint256"}],"stateMutability":"nonpayable"},{"type":"function","name":"unstakeZus","inputs":[{"name":"_amount","type":"uint256","internalType":"uint256"}],"outputs":[],"stateMutability":"nonpayable"},{"type":"function","name":"weth","inputs":[],"outputs":[{"name":"","type":"address","internalType":"address"}],"stateMutability":"view"},{"type":"function","name":"withdrawToken","inputs":[{"name":"_token","type":"address","internalType":"address"},{"name":"_account","type":"address","internalType":"address"},{"name":"_amount","type":"uint256","internalType":"uint256"}],"outputs":[],"stateMutability":"nonpayable"},{"type":"function","name":"zlp","inputs":[],"outputs":[{"name":"","type":"address","internalType":"address"}],"stateMutability":"view"},{"type":"function","name":"zlpManager","inputs":[],"outputs":[{"name":"","type":"address","internalType":"address"}],"stateMutability":"view"},{"type":"function","name":"zus","inputs":[],"outputs":[{"name":"","type":"address","internalType":"address"}],"stateMutability":"view"},{"type":"event","name":"GovProposalCanceled","inputs":[{"name":"proposedGov","type":"address","indexed":true,"internalType":"address"},{"name":"canceledBy","type":"address","indexed":true,"internalType":"address"}],"anonymous":false},{"type":"event","name":"GovernanceTransferRequested","inputs":[{"name":"newGov","type":"address","indexed":true,"internalType":"address"},{"name":"deadline","type":"uint256","indexed":false,"internalType":"uint256"}],"anonymous":false},{"type":"event","name":"GovernanceTransferred","inputs":[{"name":"oldGov","type":"address","indexed":true,"internalType":"address"},{"name":"newGov","type":"address","indexed":true,"internalType":"address"}],"anonymous":false},{"type":"event","name":"StakeZlp","inputs":[{"name":"account","type":"address","indexed":false,"internalType":"address"},{"name":"amount","type":"uint256","indexed":false,"internalType":"uint256"}],"anonymous":false},{"type":"event","name":"StakeZus","inputs":[{"name":"account","type":"address","indexed":false,"internalType":"address"},{"name":"token","type":"address","indexed":false,"internalType":"address"},{"name":"amount","type":"uint256","indexed":false,"internalType":"uint256"}],"anonymous":false},{"type":"event","name":"UnstakeZlp","inputs":[{"name":"account","type":"address","indexed":false,"internalType":"address"},{"name":"amount","type":"uint256","indexed":false,"internalType":"uint256"}],"anonymous":false},{"type":"event","name":"UnstakeZus","inputs":[{"name":"account","type":"address","indexed":false,"internalType":"address"},{"name":"token","type":"address","indexed":false,"internalType":"address"},{"name":"amount","type":"uint256","indexed":false,"internalType":"uint256"}],"anonymous":false}],"bytecode":{"object":"0x608060405234801561001057600080fd5b50600180546001600160a01b03191633179055613b8d806100326000396000f3fe6080604052600436106101615760003560e01c806301e33667146101ca57806302486e081461020d57806303a243991461023e57806312d43a511461026857806317988a6a1461027d5780633587647614610292578063392e53cd146102f75780633fc8cef3146103205780634e71d92d14610335578063655603a41461034a5780636bb22fd71461037d5780637bc6729b146103b6578063822ac221146103cb57806382de0072146103f557806384347a331461042e5780638d0fedb0146104435780639c35b4971461048f578063b6556599146104c2578063b7699816146104d7578063c8cfba3914610528578063cca30c311461056d578063cfad57a2146105b4578063d106f13a146105e7578063d294f09314610717578063d6bf66c21461072c578063e1b9db891461074f578063e7cf6c1014610782578063ec4ee1c0146107b6578063ef9aacfd146107cb578063fe9fe720146107fe576101c5565b366101c55760035461010090046001600160a01b031633146101c3576040805162461bcd60e51b81526020600482015260166024820152752937baba32b91d1034b73b30b634b21039b2b73232b960511b604482015290519081900360640190fd5b005b600080fd5b3480156101d657600080fd5b506101c3600480360360608110156101ed57600080fd5b506001600160a01b03813581169160208101359091169060400135610813565b34801561021957600080fd5b50610222610879565b604080516001600160a01b039092168252519081900360200190f35b34801561024a57600080fd5b506101c36004803603602081101561026157600080fd5b5035610888565b34801561027457600080fd5b506102226108f5565b34801561028957600080fd5b50610222610904565b34801561029e57600080fd5b506101c3600480360360e08110156102b557600080fd5b506001600160a01b038135811691602081013582169160408201358116916060810135821691608082013581169160a081013582169160c09091013516610913565b34801561030357600080fd5b5061030c610a34565b604080519115158252519081900360200190f35b34801561032c57600080fd5b50610222610a3d565b34801561034157600080fd5b506101c3610a51565b34801561035657600080fd5b506101c36004803603602081101561036d57600080fd5b50356001600160a01b0316610c2e565b34801561038957600080fd5b506101c3600480360360408110156103a057600080fd5b506001600160a01b03813516906020013561143d565b3480156103c257600080fd5b506101c3611552565b3480156103d757600080fd5b506101c3600480360360208110156103ee57600080fd5b5035611667565b34801561040157600080fd5b506101c36004803603604081101561041857600080fd5b506001600160a01b0381351690602001356116ca565b34801561043a57600080fd5b50610222611785565b34801561044f57600080fd5b506104766004803603602081101561046657600080fd5b50356001600160a01b0316611794565b6040805192835290151560208301528051918290030190f35b34801561049b57600080fd5b506101c3600480360360208110156104b257600080fd5b50356001600160a01b03166117b0565b3480156104ce57600080fd5b506102226118be565b3480156104e357600080fd5b50610516600480360360608110156104fa57600080fd5b50803590602081013590604001356001600160a01b03166118cd565b60408051918252519081900360200190f35b34801561053457600080fd5b506105166004803603608081101561054b57600080fd5b506001600160a01b038135169060208101359060408101359060600135611be3565b34801561057957600080fd5b506105166004803603608081101561059057600080fd5b506001600160a01b03813581169160208101359160408201359160600135166120f2565b3480156105c057600080fd5b506101c3600480360360208110156105d757600080fd5b50356001600160a01b0316612386565b3480156105f357600080fd5b506101c36004803603604081101561060a57600080fd5b810190602081018135600160201b81111561062457600080fd5b82018360208201111561063657600080fd5b803590602001918460208302840111600160201b8311171561065757600080fd5b9190808060200260200160405190810160405280939291908181526020018383602002808284376000920191909152509295949360208101935035915050600160201b8111156106a657600080fd5b8201836020820111156106b857600080fd5b803590602001918460208302840111600160201b831117156106d957600080fd5b91908080602002602001604051908101604052809392919081815260200183836020028082843760009201919091525092955061249c945050505050565b34801561072357600080fd5b506101c3612586565b6105166004803603604081101561074257600080fd5b508035906020013561262b565b34801561075b57600080fd5b506102226004803603602081101561077257600080fd5b50356001600160a01b0316612b3b565b34801561078e57600080fd5b506101c3600480360360408110156107a557600080fd5b508035151590602001351515612b56565b3480156107c257600080fd5b50610222612d44565b3480156107d757600080fd5b506101c3600480360360208110156107ee57600080fd5b50356001600160a01b0316612d53565b34801561080a57600080fd5b50610222612ddb565b6001546001600160a01b03163314610860576040805162461bcd60e51b81526020600482015260156024820152600080516020613920833981519152604482015290519081900360640190fd5b6108746001600160a01b0384168383612dea565b505050565b6004546001600160a01b031681565b600260005414156108ce576040805162461bcd60e51b815260206004820152601f60248201526000805160206138cc833981519152604482015290519081900360640190fd5b60026000556004546108ed90339081906001600160a01b031684612e3c565b506001600055565b6001546001600160a01b031681565b6007546001600160a01b031681565b6001546001600160a01b03163314610960576040805162461bcd60e51b81526020600482015260156024820152600080516020613920833981519152604482015290519081900360640190fd5b60035460ff16156109a25760405162461bcd60e51b81526004018080602001828103825260218152602001806139ab6021913960400191505060405180910390fd5b60038054600160ff1990911617610100600160a81b0319166101006001600160a01b03998a1602179055600480546001600160a01b03199081169789169790971790556005805487169588169590951790945560068054861693871693909317909255600880548516918616919091179055600780548416918516919091179055600980549092169216919091179055565b60035460ff1681565b60035461010090046001600160a01b031681565b60026000541415610a97576040805162461bcd60e51b815260206004820152601f60248201526000805160206138cc833981519152604482015290519081900360640190fd5b60026000908155600854604080516309f4173d60e11b8152336004820181905260248201819052915191936001600160a01b03909316926313e82e7a926044808401936020939083900390910190829087803b158015610af657600080fd5b505af1158015610b0a573d6000803e3d6000fd5b505050506040513d6020811015610b2057600080fd5b5050600654604080516309f4173d60e11b81526001600160a01b03848116600483018190526024830152915191909216916313e82e7a9160448083019260209291908290030181600087803b158015610b7857600080fd5b505af1158015610b8c573d6000803e3d6000fd5b505050506040513d6020811015610ba257600080fd5b5050600754604080516309f4173d60e11b81526001600160a01b03848116600483018190526024830152915191909216916313e82e7a9160448083019260209291908290030181600087803b158015610bfa57600080fd5b505af1158015610c0e573d6000803e3d6000fd5b505050506040513d6020811015610c2457600080fd5b5050600160005550565b60026000541415610c74576040805162461bcd60e51b815260206004820152601f60248201526000805160206138cc833981519152604482015290519081900360640190fd5b600260009081556001600160a01b038281168252600a6020526040909120543391168114610cd35760405162461bcd60e51b81526004018080602001828103825260248152602001806139f26024913960400191505060405180910390fd5b6001600160a01b0382166000908152600a6020526040902080546001600160a01b0319169055610d0281612f4d565b6006546004805460408051637aeceb1f60e11b81526001600160a01b0387811694820194909452918316602483015251600093929092169163f5d9d63e91604480820192602092909190829003018186803b158015610d6057600080fd5b505afa158015610d74573d6000803e3d6000fd5b505050506040513d6020811015610d8a57600080fd5b505190508015610f9b57600654600480546040805163098bf59d60e01b81526001600160a01b038881169482019490945291831660248301526044820185905230606483015251919092169163098bf59d91608480830192600092919082900301818387803b158015610dfc57600080fd5b505af1158015610e10573d6000803e3d6000fd5b5050600480546006546040805163095ea7b360e01b81526001600160a01b039283169481019490945260248401879052519116935063095ea7b3925060448083019260209291908290030181600087803b158015610e6d57600080fd5b505af1158015610e81573d6000803e3d6000fd5b505050506040513d6020811015610e9757600080fd5b50506006546004805460408051631e42d69b60e21b815230938101939093526001600160a01b0386811660248501529182166044840152606483018590525192169163790b5a6c9160848082019260009290919082900301818387803b158015610f0057600080fd5b505af1158015610f14573d6000803e3d6000fd5b50506006546040805163a9059cbb60e01b81526001600160a01b03878116600483015260248201879052915191909216935063a9059cbb925060448083019260209291908290030181600087803b158015610f6e57600080fd5b505af1158015610f82573d6000803e3d6000fd5b505050506040513d6020811015610f9857600080fd5b50505b60085460055460408051637aeceb1f60e11b81526001600160a01b03878116600483015292831660248201529051600093929092169163f5d9d63e91604480820192602092909190829003018186803b158015610ff757600080fd5b505afa15801561100b573d6000803e3d6000fd5b505050506040513d602081101561102157600080fd5b505190508015611432576007546008546040805163098bf59d60e01b81526001600160a01b0388811660048301529283166024820152604481018590523060648201529051919092169163098bf59d91608480830192600092919082900301818387803b15801561109157600080fd5b505af11580156110a5573d6000803e3d6000fd5b50506008546040805163a9059cbb60e01b81526001600160a01b03898116600483015260248201879052915191909216935063a9059cbb925060448083019260209291908290030181600087803b1580156110ff57600080fd5b505af1158015611113573d6000803e3d6000fd5b505050506040513d602081101561112957600080fd5b50506008546005546040805163098bf59d60e01b81526001600160a01b0388811660048301529283166024820152604481018590523060648201529051919092169163098bf59d91608480830192600092919082900301818387803b15801561119157600080fd5b505af11580156111a5573d6000803e3d6000fd5b50506005546008546040805163095ea7b360e01b81526001600160a01b03928316600482015260248101879052905191909216935063095ea7b3925060448083019260209291908290030181600087803b15801561120257600080fd5b505af1158015611216573d6000803e3d6000fd5b505050506040513d602081101561122c57600080fd5b505060085460055460408051631e42d69b60e21b81523060048201526001600160a01b0387811660248301529283166044820152606481018590529051919092169163790b5a6c91608480830192600092919082900301818387803b15801561129457600080fd5b505af11580156112a8573d6000803e3d6000fd5b50506008546007546040805163095ea7b360e01b81526001600160a01b03928316600482015260248101879052905191909216935063095ea7b3925060448083019260209291908290030181600087803b15801561130557600080fd5b505af1158015611319573d6000803e3d6000fd5b505050506040513d602081101561132f57600080fd5b505060075460085460408051631e42d69b60e21b81523060048201526001600160a01b0387811660248301529283166044820152606481018590529051919092169163790b5a6c91608480830192600092919082900301818387803b15801561139757600080fd5b505af11580156113ab573d6000803e3d6000fd5b50506007546040805163a9059cbb60e01b81526001600160a01b03888116600483015260248201879052915191909216935063a9059cbb925060448083019260209291908290030181600087803b15801561140557600080fd5b505af1158015611419573d6000803e3d6000fd5b505050506040513d602081101561142f57600080fd5b50505b505060016000555050565b6001546001600160a01b0316331461148a576040805162461bcd60e51b81526020600482015260156024820152600080516020613920833981519152604482015290519081900360640190fd5b6001600160a01b0382166114e3576040805162461bcd60e51b815260206004820152601b60248201527a476f7665726e61626c653a20696e76616c6964206164647265737360281b604482015290519081900360640190fd5b6001546001600160a01b0383811691161415611544576040805162461bcd60e51b815260206004820152601b60248201527a476f7665726e61626c653a2073616d6520676f7665726e616e636560281b604482015290519081900360640190fd5b61154e828261338b565b5050565b336000908152600260205260409020805442106115b5576040805162461bcd60e51b815260206004820152601c60248201527b11dbdd995c9b98589b194e88191958591b1a5b9948195e1c1a5c995960221b604482015290519081900360640190fd5b60018082015460ff161515146115fc5760405162461bcd60e51b8152600401808060200182810382526022815260200180613a816022913960400191505060405180910390fd5b60018054336000818152600260205260408082208281558501805460ff1916905584546001600160a01b031916831790945592516001600160a01b0390921692909183917f5f56bee8cffbe9a78652a74a60705edede02af10b0bbb888ca44b79a0d42ce8091a35050565b600260005414156116ad576040805162461bcd60e51b815260206004820152601f60248201526000805160206138cc833981519152604482015290519081900360640190fd5b60026000556004546108ed9033906001600160a01b031683613407565b60026000541415611710576040805162461bcd60e51b815260206004820152601f60248201526000805160206138cc833981519152604482015290519081900360640190fd5b60026000556001546001600160a01b03163314611762576040805162461bcd60e51b81526020600482015260156024820152600080516020613920833981519152604482015290519081900360640190fd5b60045461177c90339084906001600160a01b031684612e3c565b50506001600055565b6008546001600160a01b031681565b6002602052600090815260409020805460019091015460ff1682565b6001546001600160a01b031633146117fd576040805162461bcd60e51b81526020600482015260156024820152600080516020613920833981519152604482015290519081900360640190fd5b6001600160a01b03811660009081526002602052604090206001015460ff1661186d576040805162461bcd60e51b815260206004820152601f60248201527f476f7665726e61626c653a2070726f706f73616c206e6f742061637469766500604482015290519081900360640190fd5b6001600160a01b038116600081815260026020526040808220828155600101805460ff19169055513392917ffc6a2fa53abe2adfe8372a9495032d7e6458d3aed34fa880132b6c808da1e99c91a350565b6009546001600160a01b031681565b600060026000541415611915576040805162461bcd60e51b815260206004820152601f60248201526000805160206138cc833981519152604482015290519081900360640190fd5b60026000558361196c576040805162461bcd60e51b815260206004820181905260248201527f526577617264526f757465723a20696e76616c6964205f7a6c70416d6f756e74604482015290519081900360640190fd5b6007546008546040805163098bf59d60e01b815233600482018190526001600160a01b039384166024830152604482018990526064820181905291519193929092169163098bf59d91608480830192600092919082900301818387803b1580156119d557600080fd5b505af11580156119e9573d6000803e3d6000fd5b50506008546005546040805163098bf59d60e01b81526001600160a01b03878116600483018190529381166024830152604482018c90526064820193909352905191909216935063098bf59d9250608480830192600092919082900301818387803b158015611a5757600080fd5b505af1158015611a6b573d6000803e3d6000fd5b5050600954600354604080516371d597ad60e01b81526001600160a01b03878116600483015261010090930483166024820152604481018b9052606481018a90523060848201529051600095509190921692506371d597ad9160a48082019260209290919082900301818787803b158015611ae557600080fd5b505af1158015611af9573d6000803e3d6000fd5b505050506040513d6020811015611b0f57600080fd5b505160035460408051632e1a7d4d60e01b81526004810184905290519293506101009091046001600160a01b031691632e1a7d4d9160248082019260009290919082900301818387803b158015611b6557600080fd5b505af1158015611b79573d6000803e3d6000fd5b50611b91925050506001600160a01b03851682613516565b604080516001600160a01b03841681526020810188905281517f83ac00acd50a988c92018e2f35631dfbc00d5bd016c5515fe3758877b1499cf8929181900390910190a1600160005595945050505050565b600060026000541415611c2b576040805162461bcd60e51b815260206004820152601f60248201526000805160206138cc833981519152604482015290519081900360640190fd5b600260005583611c70576040805162461bcd60e51b815260206004820152601d6024820152600080516020613b38833981519152604482015290519081900360640190fd5b604080516323b872dd60e01b815233600482018190523060248301526044820187905291516001600160a01b038816916323b872dd9160648083019260209291908290030181600087803b158015611cc757600080fd5b505af1158015611cdb573d6000803e3d6000fd5b505050506040513d6020811015611cf157600080fd5b50506009546040805163095ea7b360e01b81526001600160a01b0392831660048201526024810188905290519188169163095ea7b3916044808201926020929091908290030181600087803b158015611d4957600080fd5b505af1158015611d5d573d6000803e3d6000fd5b505050506040513d6020811015611d7357600080fd5b5050600954604080516317eb2a1560e01b8152306004820181905260248201526001600160a01b038981166044830152606482018990526084820188905260a48201879052915160009392909216916317eb2a159160c48082019260209290919082900301818787803b158015611de957600080fd5b505af1158015611dfd573d6000803e3d6000fd5b505050506040513d6020811015611e1357600080fd5b50516005546008546040805163095ea7b360e01b81526001600160a01b03928316600482015260248101859052905193945091169163095ea7b3916044808201926020929091908290030181600087803b158015611e7057600080fd5b505af1158015611e84573d6000803e3d6000fd5b505050506040513d6020811015611e9a57600080fd5b505060085460055460408051631e42d69b60e21b81523060048201526001600160a01b0386811660248301529283166044820152606481018590529051919092169163790b5a6c91608480830192600092919082900301818387803b158015611f0257600080fd5b505af1158015611f16573d6000803e3d6000fd5b50506008546007546040805163095ea7b360e01b81526001600160a01b03928316600482015260248101879052905191909216935063095ea7b3925060448083019260209291908290030181600087803b158015611f7357600080fd5b505af1158015611f87573d6000803e3d6000fd5b505050506040513d6020811015611f9d57600080fd5b505060075460085460408051631e42d69b60e21b81523060048201526001600160a01b0386811660248301529283166044820152606481018590529051919092169163790b5a6c91608480830192600092919082900301818387803b15801561200557600080fd5b505af1158015612019573d6000803e3d6000fd5b50506007546040805163a9059cbb60e01b81526001600160a01b03878116600483015260248201879052915191909216935063a9059cbb925060448083019260209291908290030181600087803b15801561207357600080fd5b505af1158015612087573d6000803e3d6000fd5b505050506040513d602081101561209d57600080fd5b5050604080516001600160a01b03841681526020810183905281517fad93b2f628eda4195b3bf8738da70d1ba23b7061ffa4fe71aaca907e0b128cce929181900390910190a160016000559695505050505050565b60006002600054141561213a576040805162461bcd60e51b815260206004820152601f60248201526000805160206138cc833981519152604482015290519081900360640190fd5b600260005583612191576040805162461bcd60e51b815260206004820181905260248201527f526577617264526f757465723a20696e76616c6964205f7a6c70416d6f756e74604482015290519081900360640190fd5b6007546008546040805163098bf59d60e01b815233600482018190526001600160a01b039384166024830152604482018990526064820181905291519193929092169163098bf59d91608480830192600092919082900301818387803b1580156121fa57600080fd5b505af115801561220e573d6000803e3d6000fd5b50506008546005546040805163098bf59d60e01b81526001600160a01b03878116600483018190529381166024830152604482018c90526064820193909352905191909216935063098bf59d9250608480830192600092919082900301818387803b15801561227c57600080fd5b505af1158015612290573d6000803e3d6000fd5b5050600954604080516371d597ad60e01b81526001600160a01b0386811660048301528b81166024830152604482018b9052606482018a905288811660848301529151600095509190921692506371d597ad9160a48082019260209290919082900301818787803b15801561230457600080fd5b505af1158015612318573d6000803e3d6000fd5b505050506040513d602081101561232e57600080fd5b5051604080516001600160a01b03851681526020810189905281519293507f83ac00acd50a988c92018e2f35631dfbc00d5bd016c5515fe3758877b1499cf8929081900390910190a160016000559695505050505050565b6001546001600160a01b031633146123d3576040805162461bcd60e51b81526020600482015260156024820152600080516020613920833981519152604482015290519081900360640190fd5b6001600160a01b03811661242c576040805162461bcd60e51b815260206004820152601b60248201527a476f7665726e61626c653a20696e76616c6964206164647265737360281b604482015290519081900360640190fd5b6001546001600160a01b038281169116141561248d576040805162461bcd60e51b815260206004820152601b60248201527a476f7665726e61626c653a2073616d6520676f7665726e616e636560281b604482015290519081900360640190fd5b6124998160001961338b565b50565b600260005414156124e2576040805162461bcd60e51b815260206004820152601f60248201526000805160206138cc833981519152604482015290519081900360640190fd5b60026000556001546001600160a01b03163314612534576040805162461bcd60e51b81526020600482015260156024820152600080516020613920833981519152604482015290519081900360640190fd5b6004546001600160a01b031660005b83518110156114325761257e3385838151811061255c57fe5b60200260200101518486858151811061257157fe5b6020026020010151612e3c565b600101612543565b600260005414156125cc576040805162461bcd60e51b815260206004820152601f60248201526000805160206138cc833981519152604482015290519081900360640190fd5b60026000908155600854604080516309f4173d60e11b8152336004820181905260248201819052915191936001600160a01b03909316926313e82e7a926044808401936020939083900390910190829087803b158015610bfa57600080fd5b600060026000541415612673576040805162461bcd60e51b815260206004820152601f60248201526000805160206138cc833981519152604482015290519081900360640190fd5b6002600055346126ca576040805162461bcd60e51b815260206004820152601f60248201527f526577617264526f757465723a20696e76616c6964206d73672e76616c756500604482015290519081900360640190fd5b600360019054906101000a90046001600160a01b03166001600160a01b031663d0e30db0346040518263ffffffff1660e01b81526004016000604051808303818588803b15801561271a57600080fd5b505af115801561272e573d6000803e3d6000fd5b50506003546009546040805163095ea7b360e01b81526001600160a01b0392831660048201523460248201529051610100909304909116945063095ea7b3935060448082019350602092918290030181600087803b15801561278f57600080fd5b505af11580156127a3573d6000803e3d6000fd5b505050506040513d60208110156127b957600080fd5b5050600954600354604080516317eb2a1560e01b8152306004820181905260248201526001600160a01b03610100909304831660448201523460648201526084810187905260a481018690529051339360009316916317eb2a159160c480830192602092919082900301818787803b15801561283457600080fd5b505af1158015612848573d6000803e3d6000fd5b505050506040513d602081101561285e57600080fd5b50516005546008546040805163095ea7b360e01b81526001600160a01b03928316600482015260248101859052905193945091169163095ea7b3916044808201926020929091908290030181600087803b1580156128bb57600080fd5b505af11580156128cf573d6000803e3d6000fd5b505050506040513d60208110156128e557600080fd5b505060085460055460408051631e42d69b60e21b81523060048201526001600160a01b0386811660248301529283166044820152606481018590529051919092169163790b5a6c91608480830192600092919082900301818387803b15801561294d57600080fd5b505af1158015612961573d6000803e3d6000fd5b50506008546007546040805163095ea7b360e01b81526001600160a01b03928316600482015260248101879052905191909216935063095ea7b3925060448083019260209291908290030181600087803b1580156129be57600080fd5b505af11580156129d2573d6000803e3d6000fd5b505050506040513d60208110156129e857600080fd5b505060075460085460408051631e42d69b60e21b81523060048201526001600160a01b0386811660248301529283166044820152606481018590529051919092169163790b5a6c91608480830192600092919082900301818387803b158015612a5057600080fd5b505af1158015612a64573d6000803e3d6000fd5b50506007546040805163a9059cbb60e01b81526001600160a01b03878116600483015260248201879052915191909216935063a9059cbb925060448083019260209291908290030181600087803b158015612abe57600080fd5b505af1158015612ad2573d6000803e3d6000fd5b505050506040513d6020811015612ae857600080fd5b5050604080516001600160a01b03841681526020810183905281517fad93b2f628eda4195b3bf8738da70d1ba23b7061ffa4fe71aaca907e0b128cce929181900390910190a16001600055949350505050565b600a602052600090815260409020546001600160a01b031681565b60026000541415612b9c576040805162461bcd60e51b815260206004820152601f60248201526000805160206138cc833981519152604482015290519081900360640190fd5b6002600055338215610c24578115612cb857600854604080516309f4173d60e11b81526001600160a01b038481166004830152306024830152915160009392909216916313e82e7a9160448082019260209290919082900301818787803b158015612c0657600080fd5b505af1158015612c1a573d6000803e3d6000fd5b505050506040513d6020811015612c3057600080fd5b505160035460408051632e1a7d4d60e01b81526004810184905290519293506101009091046001600160a01b031691632e1a7d4d9160248082019260009290919082900301818387803b158015612c8657600080fd5b505af1158015612c9a573d6000803e3d6000fd5b50612cb2925050506001600160a01b03831682613516565b50610c24565b600854604080516309f4173d60e11b81526001600160a01b03848116600483018190526024830152915191909216916313e82e7a9160448083019260209291908290030181600087803b158015612d0e57600080fd5b505af1158015612d22573d6000803e3d6000fd5b505050506040513d6020811015612d3857600080fd5b50505050600160005550565b6006546001600160a01b031681565b60026000541415612d99576040805162461bcd60e51b815260206004820152601f60248201526000805160206138cc833981519152604482015290519081900360640190fd5b6002600055612da781612f4d565b336000908152600a6020526040812080546001600160a01b0319166001600160a01b03939093169290921790915560019055565b6005546001600160a01b031681565b604080516001600160a01b038416602482015260448082018490528251808303909101815260649091019091526020810180516001600160e01b031663a9059cbb60e01b1790526108749084906135fb565b60008111612e7f576040805162461bcd60e51b815260206004820152601d6024820152600080516020613b38833981519152604482015290519081900360640190fd5b60065460408051631e42d69b60e21b81526001600160a01b03878116600483015286811660248301528581166044830152606482018590529151919092169163790b5a6c91608480830192600092919082900301818387803b158015612ee457600080fd5b505af1158015612ef8573d6000803e3d6000fd5b5050604080516001600160a01b0380881682528616602082015280820185905290517f01760f917f4a47f469c1b086afdd3a9cbeae9e4f55828716c4afed80970df5919350908190036060019150a150505050565b6006546040805163a318021760e01b81526001600160a01b0384811660048301529151919092169163a3180217916024808301926020929190829003018186803b158015612f9a57600080fd5b505afa158015612fae573d6000803e3d6000fd5b505050506040513d6020811015612fc457600080fd5b5051156130025760405162461bcd60e51b8152600401808060200182810382526037815260200180613a4a6037913960400191505060405180910390fd5b60065460408051633792def360e01b81526001600160a01b03848116600483015291519190921691633792def3916024808301926020929190829003018186803b15801561304f57600080fd5b505afa158015613063573d6000803e3d6000fd5b505050506040513d602081101561307957600080fd5b5051156130b75760405162461bcd60e51b8152600401808060200182810382526034815260200180613a166034913960400191505060405180910390fd5b6007546040805163a318021760e01b81526001600160a01b0384811660048301529151919092169163a3180217916024808301926020929190829003018186803b15801561310457600080fd5b505afa158015613118573d6000803e3d6000fd5b505050506040513d602081101561312e57600080fd5b50511561316c5760405162461bcd60e51b8152600401808060200182810382526037815260200180613aa36037913960400191505060405180910390fd5b60075460408051633792def360e01b81526001600160a01b03848116600483015291519190921691633792def3916024808301926020929190829003018186803b1580156131b957600080fd5b505afa1580156131cd573d6000803e3d6000fd5b505050506040513d60208110156131e357600080fd5b5051156132215760405162461bcd60e51b81526004018080602001828103825260348152602001806138ec6034913960400191505060405180910390fd5b6008546040805163a318021760e01b81526001600160a01b0384811660048301529151919092169163a3180217916024808301926020929190829003018186803b15801561326e57600080fd5b505afa158015613282573d6000803e3d6000fd5b505050506040513d602081101561329857600080fd5b5051156132d65760405162461bcd60e51b8152600401808060200182810382526034815260200180613ada6034913960400191505060405180910390fd5b60085460408051633792def360e01b81526001600160a01b03848116600483015291519190921691633792def3916024808301926020929190829003018186803b15801561332357600080fd5b505afa158015613337573d6000803e3d6000fd5b505050506040513d602081101561334d57600080fd5b5051156124995760405162461bcd60e51b81526004018080602001828103825260318152602001806139406031913960400191505060405180910390fd5b604080518082018252828152600160208083018281526001600160a01b03871660008181526002845286902094518555905193909201805460ff1916931515939093179092558251848152925190927f02dd0697be46e764c3ba81094158781c31b235d03bb27a0daf1bdef0ec1084dd92908290030190a25050565b6000811161344a576040805162461bcd60e51b815260206004820152601d6024820152600080516020613b38833981519152604482015290519081900360640190fd5b6006546040805163098bf59d60e01b81526001600160a01b038681166004830181905286821660248401526044830186905260648301529151919092169163098bf59d91608480830192600092919082900301818387803b1580156134ae57600080fd5b505af11580156134c2573d6000803e3d6000fd5b5050604080516001600160a01b0380881682528616602082015280820185905290517f4fdf699b84ba823ce9c2445fc7bf3102aebeb0308aebaf4f7b565c14ddedeb6e9350908190036060019150a1505050565b8047101561356b576040805162461bcd60e51b815260206004820152601d60248201527f416464726573733a20696e73756666696369656e742062616c616e6365000000604482015290519081900360640190fd5b6040516000906001600160a01b0384169083908381818185875af1925050503d80600081146135b6576040519150601f19603f3d011682016040523d82523d6000602084013e6135bb565b606091505b50509050806108745760405162461bcd60e51b815260040180806020018281038252603a815260200180613971603a913960400191505060405180910390fd5b6060613650826040518060400160405280602081526020017f5361666545524332303a206c6f772d6c6576656c2063616c6c206661696c6564815250856001600160a01b03166136ac9092919063ffffffff16565b8051909150156108745780806020019051602081101561366f57600080fd5b50516108745760405162461bcd60e51b815260040180806020018281038252602a815260200180613b0e602a913960400191505060405180910390fd5b60606136bb84846000856136c5565b90505b9392505050565b6060824710156137065760405162461bcd60e51b81526004018080602001828103825260268152602001806139cc6026913960400191505060405180910390fd5b61370f85613821565b613760576040805162461bcd60e51b815260206004820152601d60248201527f416464726573733a2063616c6c20746f206e6f6e2d636f6e7472616374000000604482015290519081900360640190fd5b60006060866001600160a01b031685876040518082805190602001908083835b6020831061379f5780518252601f199092019160209182019101613780565b6001836020036101000a03801982511681845116808217855250505050505090500191505060006040518083038185875af1925050503d8060008114613801576040519150601f19603f3d011682016040523d82523d6000602084013e613806565b606091505b5091509150613816828286613827565b979650505050505050565b3b151590565b606083156138365750816136be565b8251156138465782518084602001fd5b8160405162461bcd60e51b81526004018080602001828103825283818151815260200191508051906020019080838360005b83811015613890578181015183820152602001613878565b50505050905090810190601f1680156138bd5780820380516001836020036101000a031916815260200191505b509250505060405180910390fdfe5265656e7472616e637947756172643a207265656e7472616e742063616c6c00526577617264526f757465723a207374616b65645a6c70547261636b65722e63756d756c617469766552657761726473203e2030476f7665726e61626c653a20666f7262696464656e0000000000000000000000526577617264526f757465723a206665655a6c70547261636b65722e63756d756c617469766552657761726473203e2030416464726573733a20756e61626c6520746f2073656e642076616c75652c20726563697069656e74206d61792068617665207265766572746564526577617264526f757465723a20616c726561647920696e697469616c697a6564416464726573733a20696e73756666696369656e742062616c616e636520666f722063616c6c526577617264526f757465723a207472616e73666572206e6f74207369676e616c6c6564526577617264526f757465723a207374616b65645a7573547261636b65722e63756d756c617469766552657761726473203e2030526577617264526f757465723a207374616b65645a7573547261636b65722e617665726167655374616b6564416d6f756e7473203e2030476f7665726e61626c653a2070726f706f73616c206973206e6f7420616374697665526577617264526f757465723a207374616b65645a6c70547261636b65722e617665726167655374616b6564416d6f756e7473203e2030526577617264526f757465723a206665655a6c70547261636b65722e617665726167655374616b6564416d6f756e7473203e20305361666545524332303a204552433230206f7065726174696f6e20646964206e6f742073756363656564526577617264526f757465723a20696e76616c6964205f616d6f756e74000000a2646970667358221220a8cf62c83268d50a3e3152ff4374e2285a1ef2092c5b046c4c410786ae62026664736f6c634300060c0033","linkReferences":{}},"methodIdentifiers":{"acceptGov()":"7bc6729b","acceptTransfer(address)":"655603a4","batchStakeZusForAccount(address[],uint256[])":"d106f13a","cancelGovProposal(address)":"9c35b497","claim()":"4e71d92d","claimFees()":"d294f093","feeZlpTracker()":"84347a33","gov()":"12d43a51","govProposals(address)":"8d0fedb0","handleRewards(bool,bool)":"e7cf6c10","initialize(address,address,address,address,address,address,address)":"35876476","isInitialized()":"392e53cd","mintAndStakeZlp(address,uint256,uint256,uint256)":"c8cfba39","mintAndStakeZlpETH(uint256,uint256)":"d6bf66c2","pendingReceivers(address)":"e1b9db89","setGov(address)":"cfad57a2","setGovWithDeadline(address,uint256)":"6bb22fd7","signalTransfer(address)":"ef9aacfd","stakeZus(uint256)":"03a24399","stakeZusForAccount(address,uint256)":"82de0072","stakedZlpTracker()":"17988a6a","stakedZusTracker()":"ec4ee1c0","unstakeAndRedeemZlp(address,uint256,uint256,address)":"cca30c31","unstakeAndRedeemZlpETH(uint256,uint256,address)":"b7699816","unstakeZus(uint256)":"822ac221","weth()":"3fc8cef3","withdrawToken(address,address,uint256)":"01e33667","zlp()":"fe9fe720","zlpManager()":"b6556599","zus()":"02486e08"},"id":126}