{"abi":[{"type":"receive","stateMutability":"payable"},{"type":"function","name":"acceptGov","inputs":[],"outputs":[],"stateMutability":"nonpayable"},{"type":"function","name":"acceptTransfer","inputs":[{"name":"_sender","type":"address","internalType":"address"}],"outputs":[],"stateMutability":"nonpayable"},{"type":"function","name":"batchStakeZusForAccount","inputs":[{"name":"_accounts","type":"address[]","internalType":"address[]"},{"name":"_amounts","type":"uint256[]","internalType":"uint256[]"}],"outputs":[],"stateMutability":"nonpayable"},{"type":"function","name":"cancelGovProposal","inputs":[{"name":"_gov","type":"address","internalType":"address"}],"outputs":[],"stateMutability":"nonpayable"},{"type":"function","name":"claim","inputs":[],"outputs":[],"stateMutability":"nonpayable"},{"type":"function","name":"claimEsZus","inputs":[],"outputs":[],"stateMutability":"nonpayable"},{"type":"function","name":"claimFees","inputs":[],"outputs":[],"stateMutability":"nonpayable"},{"type":"function","name":"feeZlpTracker","inputs":[],"outputs":[{"name":"","type":"address","internalType":"address"}],"stateMutability":"view"},{"type":"function","name":"gov","inputs":[],"outputs":[{"name":"","type":"address","internalType":"address"}],"stateMutability":"view"},{"type":"function","name":"govProposals","inputs":[{"name":"","type":"address","internalType":"address"}],"outputs":[{"name":"deadline","type":"uint256","internalType":"uint256"},{"name":"isActive","type":"bool","internalType":"bool"}],"stateMutability":"view"},{"type":"function","name":"handleRewards","inputs":[{"name":"_shouldConvertWethToEth","type":"bool","internalType":"bool"}],"outputs":[],"stateMutability":"nonpayable"},{"type":"function","name":"initialize","inputs":[{"name":"_weth","type":"address","internalType":"address"},{"name":"_zus","type":"address","internalType":"address"},{"name":"_zlp","type":"address","internalType":"address"},{"name":"_stakedZusTracker","type":"address","internalType":"address"},{"name":"_feeZlpTracker","type":"address","internalType":"address"},{"name":"_stakedZlpTracker","type":"address","internalType":"address"},{"name":"_zlpManager","type":"address","internalType":"address"}],"outputs":[],"stateMutability":"nonpayable"},{"type":"function","name":"isInitialized","inputs":[],"outputs":[{"name":"","type":"bool","internalType":"bool"}],"stateMutability":"view"},{"type":"function","name":"mintAndStakeZlp","inputs":[{"name":"_token","type":"address","internalType":"address"},{"name":"_amount","type":"uint256","internalType":"uint256"},{"name":"_minUsdg","type":"uint256","internalType":"uint256"},{"name":"_minZlp","type":"uint256","internalType":"uint256"}],"outputs":[{"name":"","type":"uint256","internalType":"uint256"}],"stateMutability":"nonpayable"},{"type":"function","name":"mintAndStakeZlpETH","inputs":[{"name":"_minUsdg","type":"uint256","internalType":"uint256"},{"name":"_minZlp","type":"uint256","internalType":"uint256"}],"outputs":[{"name":"","type":"uint256","internalType":"uint256"}],"stateMutability":"payable"},{"type":"function","name":"pendingReceivers","inputs":[{"name":"","type":"address","internalType":"address"}],"outputs":[{"name":"","type":"address","internalType":"address"}],"stateMutability":"view"},{"type":"function","name":"setGov","inputs":[{"name":"_gov","type":"address","internalType":"address"}],"outputs":[],"stateMutability":"nonpayable"},{"type":"function","name":"setGovWithDeadline","inputs":[{"name":"_gov","type":"address","internalType":"address"},{"name":"_deadline","type":"uint256","internalType":"uint256"}],"outputs":[],"stateMutability":"nonpayable"},{"type":"function","name":"signalTransfer","inputs":[{"name":"_receiver","type":"address","internalType":"address"}],"outputs":[],"stateMutability":"nonpayable"},{"type":"function","name":"stakeZus","inputs":[{"name":"_amount","type":"uint256","internalType":"uint256"}],"outputs":[],"stateMutability":"nonpayable"},{"type":"function","name":"stakeZusForAccount","inputs":[{"name":"_account","type":"address","internalType":"address"},{"name":"_amount","type":"uint256","internalType":"uint256"}],"outputs":[],"stateMutability":"nonpayable"},{"type":"function","name":"stakedZlpTracker","inputs":[],"outputs":[{"name":"","type":"address","internalType":"address"}],"stateMutability":"view"},{"type":"function","name":"stakedZusTracker","inputs":[],"outputs":[{"name":"","type":"address","internalType":"address"}],"stateMutability":"view"},{"type":"function","name":"unstakeAndRedeemZlp","inputs":[{"name":"_tokenOut","type":"address","internalType":"address"},{"name":"_zlpAmount","type":"uint256","internalType":"uint256"},{"name":"_minOut","type":"uint256","internalType":"uint256"},{"name":"_receiver","type":"address","internalType":"address"}],"outputs":[{"name":"","type":"uint256","internalType":"uint256"}],"stateMutability":"nonpayable"},{"type":"function","name":"unstakeAndRedeemZlpETH","inputs":[{"name":"_zlpAmount","type":"uint256","internalType":"uint256"},{"name":"_minOut","type":"uint256","internalType":"uint256"},{"name":"_receiver","type":"address","internalType":"address payable"}],"outputs":[{"name":"","type":"uint256","internalType":"uint256"}],"stateMutability":"nonpayable"},{"type":"function","name":"unstakeZus","inputs":[{"name":"_amount","type":"uint256","internalType":"uint256"}],"outputs":[],"stateMutability":"nonpayable"},{"type":"function","name":"weth","inputs":[],"outputs":[{"name":"","type":"address","internalType":"address"}],"stateMutability":"view"},{"type":"function","name":"withdrawTokensOrETH","inputs":[{"name":"_tokenOrZero","type":"address","internalType":"address"},{"name":"_account","type":"address","internalType":"address"},{"name":"_amount","type":"uint256","internalType":"uint256"}],"outputs":[],"stateMutability":"nonpayable"},{"type":"function","name":"zlp","inputs":[],"outputs":[{"name":"","type":"address","internalType":"address"}],"stateMutability":"view"},{"type":"function","name":"zlpManager","inputs":[],"outputs":[{"name":"","type":"address","internalType":"address"}],"stateMutability":"view"},{"type":"function","name":"zus","inputs":[],"outputs":[{"name":"","type":"address","internalType":"address"}],"stateMutability":"view"},{"type":"event","name":"GovProposalCanceled","inputs":[{"name":"proposedGov","type":"address","indexed":true,"internalType":"address"},{"name":"canceledBy","type":"address","indexed":true,"internalType":"address"}],"anonymous":false},{"type":"event","name":"GovernanceTransferRequested","inputs":[{"name":"newGov","type":"address","indexed":true,"internalType":"address"},{"name":"deadline","type":"uint256","indexed":false,"internalType":"uint256"}],"anonymous":false},{"type":"event","name":"GovernanceTransferred","inputs":[{"name":"oldGov","type":"address","indexed":true,"internalType":"address"},{"name":"newGov","type":"address","indexed":true,"internalType":"address"}],"anonymous":false},{"type":"event","name":"StakeZlp","inputs":[{"name":"account","type":"address","indexed":false,"internalType":"address"},{"name":"amount","type":"uint256","indexed":false,"internalType":"uint256"}],"anonymous":false},{"type":"event","name":"StakeZus","inputs":[{"name":"account","type":"address","indexed":false,"internalType":"address"},{"name":"token","type":"address","indexed":false,"internalType":"address"},{"name":"amount","type":"uint256","indexed":false,"internalType":"uint256"}],"anonymous":false},{"type":"event","name":"UnstakeZlp","inputs":[{"name":"account","type":"address","indexed":false,"internalType":"address"},{"name":"amount","type":"uint256","indexed":false,"internalType":"uint256"}],"anonymous":false},{"type":"event","name":"UnstakeZus","inputs":[{"name":"account","type":"address","indexed":false,"internalType":"address"},{"name":"token","type":"address","indexed":false,"internalType":"address"},{"name":"amount","type":"uint256","indexed":false,"internalType":"uint256"}],"anonymous":false}],"bytecode":{"object":"0x608060405234801561001057600080fd5b50600180546001600160a01b03191633179055613c9b806100326000396000f3fe60806040526004361061016c5760003560e01c806302486e08146101d557806303a243991461020657806312d43a511461023057806317988a6a14610245578063358764761461025a578063392e53cd146102bf5780633fc8cef3146102e85780634e71d92d146102fd57806356edcea214610312578063655603a4146103555780636bb22fd7146103885780637bc6729b146103c157806381e021fc146103d6578063822ac221146103eb57806382de00721461041557806384347a331461044e5780638d0fedb0146104635780639c35b497146104af578063b6556599146104e2578063b7699816146104f7578063c8cfba3914610548578063cca30c311461058d578063cfad57a2146105d4578063d106f13a14610607578063d294f09314610737578063d6bf66c21461074c578063e1b9db891461076f578063ec4ee1c0146107a2578063ef9aacfd146107b7578063f15ac6a9146107ea578063fe9fe72014610816576101d0565b366101d05760035461010090046001600160a01b031633146101ce576040805162461bcd60e51b81526020600482015260166024820152752937baba32b91d1034b73b30b634b21039b2b73232b960511b604482015290519081900360640190fd5b005b600080fd5b3480156101e157600080fd5b506101ea61082b565b604080516001600160a01b039092168252519081900360200190f35b34801561021257600080fd5b506101ce6004803603602081101561022957600080fd5b503561083a565b34801561023c57600080fd5b506101ea6108a7565b34801561025157600080fd5b506101ea6108b6565b34801561026657600080fd5b506101ce600480360360e081101561027d57600080fd5b506001600160a01b038135811691602081013582169160408201358116916060810135821691608082013581169160a081013582169160c090910135166108c5565b3480156102cb57600080fd5b506102d46109e6565b604080519115158252519081900360200190f35b3480156102f457600080fd5b506101ea6109ef565b34801561030957600080fd5b506101ce610a03565b34801561031e57600080fd5b506101ce6004803603606081101561033557600080fd5b506001600160a01b03813581169160208101359091169060400135610a65565b34801561036157600080fd5b506101ce6004803603602081101561037857600080fd5b50356001600160a01b0316610c68565b34801561039457600080fd5b506101ce600480360360408110156103ab57600080fd5b506001600160a01b038135169060200135611477565b3480156103cd57600080fd5b506101ce61158c565b3480156103e257600080fd5b506101ce6116a1565b3480156103f757600080fd5b506101ce6004803603602081101561040e57600080fd5b50356116f4565b34801561042157600080fd5b506101ce6004803603604081101561043857600080fd5b506001600160a01b038135169060200135611757565b34801561045a57600080fd5b506101ea611812565b34801561046f57600080fd5b506104966004803603602081101561048657600080fd5b50356001600160a01b0316611821565b6040805192835290151560208301528051918290030190f35b3480156104bb57600080fd5b506101ce600480360360208110156104d257600080fd5b50356001600160a01b031661183d565b3480156104ee57600080fd5b506101ea61194b565b34801561050357600080fd5b506105366004803603606081101561051a57600080fd5b50803590602081013590604001356001600160a01b031661195a565b60408051918252519081900360200190f35b34801561055457600080fd5b506105366004803603608081101561056b57600080fd5b506001600160a01b038135169060208101359060408101359060600135611c70565b34801561059957600080fd5b50610536600480360360808110156105b057600080fd5b506001600160a01b038135811691602081013591604082013591606001351661217f565b3480156105e057600080fd5b506101ce600480360360208110156105f757600080fd5b50356001600160a01b0316612413565b34801561061357600080fd5b506101ce6004803603604081101561062a57600080fd5b810190602081018135600160201b81111561064457600080fd5b82018360208201111561065657600080fd5b803590602001918460208302840111600160201b8311171561067757600080fd5b9190808060200260200160405190810160405280939291908181526020018383602002808284376000920191909152509295949360208101935035915050600160201b8111156106c657600080fd5b8201836020820111156106d857600080fd5b803590602001918460208302840111600160201b831117156106f957600080fd5b919080806020026020016040519081016040528093929190818152602001838360200280828437600092019190915250929550612529945050505050565b34801561074357600080fd5b506101ce612613565b6105366004803603604081101561076257600080fd5b5080359060200135612666565b34801561077b57600080fd5b506101ea6004803603602081101561079257600080fd5b50356001600160a01b0316612b76565b3480156107ae57600080fd5b506101ea612b91565b3480156107c357600080fd5b506101ce600480360360208110156107da57600080fd5b50356001600160a01b0316612ba0565b3480156107f657600080fd5b506101ce6004803603602081101561080d57600080fd5b50351515612c28565b34801561082257600080fd5b506101ea612d8c565b6004546001600160a01b031681565b60026000541415610880576040805162461bcd60e51b815260206004820152601f60248201526000805160206139da833981519152604482015290519081900360640190fd5b600260005560045461089f90339081906001600160a01b031684612d9b565b506001600055565b6001546001600160a01b031681565b6007546001600160a01b031681565b6001546001600160a01b03163314610912576040805162461bcd60e51b81526020600482015260156024820152600080516020613a2e833981519152604482015290519081900360640190fd5b60035460ff16156109545760405162461bcd60e51b8152600401808060200182810382526021815260200180613ab96021913960400191505060405180910390fd5b60038054600160ff1990911617610100600160a81b0319166101006001600160a01b03998a1602179055600480546001600160a01b03199081169789169790971790556005805487169588169590951790945560068054861693871693909317909255600880548516918616919091179055600780548416918516919091179055600980549092169216919091179055565b60035460ff1681565b60035461010090046001600160a01b031681565b60026000541415610a49576040805162461bcd60e51b815260206004820152601f60248201526000805160206139da833981519152604482015290519081900360640190fd5b6002600055610a56612eac565b610a5e612f31565b6001600055565b6001546001600160a01b03163314610ab2576040805162461bcd60e51b81526020600482015260156024820152600080516020613a2e833981519152604482015290519081900360640190fd5b60026000541415610af8576040805162461bcd60e51b815260206004820152601f60248201526000805160206139da833981519152604482015290519081900360640190fd5b60026000556001600160a01b038316610c4a576001600160a01b038216610b58576040805162461bcd60e51b815260206004820152600f60248201526e125b9d985b1a59081858d8dbdd5b9d608a1b604482015290519081900360640190fd5b47811115610ba8576040805162461bcd60e51b8152602060048201526018602482015277496e73756666696369656e74204554482062616c616e636560401b604482015290519081900360640190fd5b6040516000906001600160a01b0384169083908381818185875af1925050503d8060008114610bf3576040519150601f19603f3d011682016040523d82523d6000602084013e610bf8565b606091505b5050905080610c44576040805162461bcd60e51b8152602060048201526013602482015272115512081d1c985b9cd9995c8819985a5b1959606a1b604482015290519081900360640190fd5b50610c5e565b610c5e6001600160a01b0384168383613009565b5050600160005550565b60026000541415610cae576040805162461bcd60e51b815260206004820152601f60248201526000805160206139da833981519152604482015290519081900360640190fd5b600260009081556001600160a01b038281168252600a6020526040909120543391168114610d0d5760405162461bcd60e51b8152600401808060200182810382526024815260200180613b006024913960400191505060405180910390fd5b6001600160a01b0382166000908152600a6020526040902080546001600160a01b0319169055610d3c8161305b565b600654600480546040805163178fede760e01b81526001600160a01b0387811694820194909452918316602483015251600093929092169163178fede791604480820192602092909190829003018186803b158015610d9a57600080fd5b505afa158015610dae573d6000803e3d6000fd5b505050506040513d6020811015610dc457600080fd5b505190508015610fd557600654600480546040805163098bf59d60e01b81526001600160a01b038881169482019490945291831660248301526044820185905230606483015251919092169163098bf59d91608480830192600092919082900301818387803b158015610e3657600080fd5b505af1158015610e4a573d6000803e3d6000fd5b5050600480546006546040805163095ea7b360e01b81526001600160a01b039283169481019490945260248401879052519116935063095ea7b3925060448083019260209291908290030181600087803b158015610ea757600080fd5b505af1158015610ebb573d6000803e3d6000fd5b505050506040513d6020811015610ed157600080fd5b50506006546004805460408051631e42d69b60e21b815230938101939093526001600160a01b0386811660248501529182166044840152606483018590525192169163790b5a6c9160848082019260009290919082900301818387803b158015610f3a57600080fd5b505af1158015610f4e573d6000803e3d6000fd5b50506006546040805163a9059cbb60e01b81526001600160a01b03878116600483015260248201879052915191909216935063a9059cbb925060448083019260209291908290030181600087803b158015610fa857600080fd5b505af1158015610fbc573d6000803e3d6000fd5b505050506040513d6020811015610fd257600080fd5b50505b6008546005546040805163178fede760e01b81526001600160a01b03878116600483015292831660248201529051600093929092169163178fede791604480820192602092909190829003018186803b15801561103157600080fd5b505afa158015611045573d6000803e3d6000fd5b505050506040513d602081101561105b57600080fd5b50519050801561146c576007546008546040805163098bf59d60e01b81526001600160a01b0388811660048301529283166024820152604481018590523060648201529051919092169163098bf59d91608480830192600092919082900301818387803b1580156110cb57600080fd5b505af11580156110df573d6000803e3d6000fd5b50506008546040805163a9059cbb60e01b81526001600160a01b03898116600483015260248201879052915191909216935063a9059cbb925060448083019260209291908290030181600087803b15801561113957600080fd5b505af115801561114d573d6000803e3d6000fd5b505050506040513d602081101561116357600080fd5b50506008546005546040805163098bf59d60e01b81526001600160a01b0388811660048301529283166024820152604481018590523060648201529051919092169163098bf59d91608480830192600092919082900301818387803b1580156111cb57600080fd5b505af11580156111df573d6000803e3d6000fd5b50506005546008546040805163095ea7b360e01b81526001600160a01b03928316600482015260248101879052905191909216935063095ea7b3925060448083019260209291908290030181600087803b15801561123c57600080fd5b505af1158015611250573d6000803e3d6000fd5b505050506040513d602081101561126657600080fd5b505060085460055460408051631e42d69b60e21b81523060048201526001600160a01b0387811660248301529283166044820152606481018590529051919092169163790b5a6c91608480830192600092919082900301818387803b1580156112ce57600080fd5b505af11580156112e2573d6000803e3d6000fd5b50506008546007546040805163095ea7b360e01b81526001600160a01b03928316600482015260248101879052905191909216935063095ea7b3925060448083019260209291908290030181600087803b15801561133f57600080fd5b505af1158015611353573d6000803e3d6000fd5b505050506040513d602081101561136957600080fd5b505060075460085460408051631e42d69b60e21b81523060048201526001600160a01b0387811660248301529283166044820152606481018590529051919092169163790b5a6c91608480830192600092919082900301818387803b1580156113d157600080fd5b505af11580156113e5573d6000803e3d6000fd5b50506007546040805163a9059cbb60e01b81526001600160a01b03888116600483015260248201879052915191909216935063a9059cbb925060448083019260209291908290030181600087803b15801561143f57600080fd5b505af1158015611453573d6000803e3d6000fd5b505050506040513d602081101561146957600080fd5b50505b505060016000555050565b6001546001600160a01b031633146114c4576040805162461bcd60e51b81526020600482015260156024820152600080516020613a2e833981519152604482015290519081900360640190fd5b6001600160a01b03821661151d576040805162461bcd60e51b815260206004820152601b60248201527a476f7665726e61626c653a20696e76616c6964206164647265737360281b604482015290519081900360640190fd5b6001546001600160a01b038381169116141561157e576040805162461bcd60e51b815260206004820152601b60248201527a476f7665726e61626c653a2073616d6520676f7665726e616e636560281b604482015290519081900360640190fd5b6115888282613499565b5050565b336000908152600260205260409020805442106115ef576040805162461bcd60e51b815260206004820152601c60248201527b11dbdd995c9b98589b194e88191958591b1a5b9948195e1c1a5c995960221b604482015290519081900360640190fd5b60018082015460ff161515146116365760405162461bcd60e51b8152600401808060200182810382526022815260200180613b8f6022913960400191505060405180910390fd5b60018054336000818152600260205260408082208281558501805460ff1916905584546001600160a01b031916831790945592516001600160a01b0390921692909183917f5f56bee8cffbe9a78652a74a60705edede02af10b0bbb888ca44b79a0d42ce8091a35050565b600260005414156116e7576040805162461bcd60e51b815260206004820152601f60248201526000805160206139da833981519152604482015290519081900360640190fd5b6002600055610a5e612f31565b6002600054141561173a576040805162461bcd60e51b815260206004820152601f60248201526000805160206139da833981519152604482015290519081900360640190fd5b600260005560045461089f9033906001600160a01b031683613515565b6002600054141561179d576040805162461bcd60e51b815260206004820152601f60248201526000805160206139da833981519152604482015290519081900360640190fd5b60026000556001546001600160a01b031633146117ef576040805162461bcd60e51b81526020600482015260156024820152600080516020613a2e833981519152604482015290519081900360640190fd5b60045461180990339084906001600160a01b031684612d9b565b50506001600055565b6008546001600160a01b031681565b6002602052600090815260409020805460019091015460ff1682565b6001546001600160a01b0316331461188a576040805162461bcd60e51b81526020600482015260156024820152600080516020613a2e833981519152604482015290519081900360640190fd5b6001600160a01b03811660009081526002602052604090206001015460ff166118fa576040805162461bcd60e51b815260206004820152601f60248201527f476f7665726e61626c653a2070726f706f73616c206e6f742061637469766500604482015290519081900360640190fd5b6001600160a01b038116600081815260026020526040808220828155600101805460ff19169055513392917ffc6a2fa53abe2adfe8372a9495032d7e6458d3aed34fa880132b6c808da1e99c91a350565b6009546001600160a01b031681565b6000600260005414156119a2576040805162461bcd60e51b815260206004820152601f60248201526000805160206139da833981519152604482015290519081900360640190fd5b6002600055836119f9576040805162461bcd60e51b815260206004820181905260248201527f526577617264526f757465723a20696e76616c6964205f7a6c70416d6f756e74604482015290519081900360640190fd5b6007546008546040805163098bf59d60e01b815233600482018190526001600160a01b039384166024830152604482018990526064820181905291519193929092169163098bf59d91608480830192600092919082900301818387803b158015611a6257600080fd5b505af1158015611a76573d6000803e3d6000fd5b50506008546005546040805163098bf59d60e01b81526001600160a01b03878116600483018190529381166024830152604482018c90526064820193909352905191909216935063098bf59d9250608480830192600092919082900301818387803b158015611ae457600080fd5b505af1158015611af8573d6000803e3d6000fd5b5050600954600354604080516371d597ad60e01b81526001600160a01b03878116600483015261010090930483166024820152604481018b9052606481018a90523060848201529051600095509190921692506371d597ad9160a48082019260209290919082900301818787803b158015611b7257600080fd5b505af1158015611b86573d6000803e3d6000fd5b505050506040513d6020811015611b9c57600080fd5b505160035460408051632e1a7d4d60e01b81526004810184905290519293506101009091046001600160a01b031691632e1a7d4d9160248082019260009290919082900301818387803b158015611bf257600080fd5b505af1158015611c06573d6000803e3d6000fd5b50611c1e925050506001600160a01b03851682613624565b604080516001600160a01b03841681526020810188905281517f83ac00acd50a988c92018e2f35631dfbc00d5bd016c5515fe3758877b1499cf8929181900390910190a1600160005595945050505050565b600060026000541415611cb8576040805162461bcd60e51b815260206004820152601f60248201526000805160206139da833981519152604482015290519081900360640190fd5b600260005583611cfd576040805162461bcd60e51b815260206004820152601d6024820152600080516020613c46833981519152604482015290519081900360640190fd5b604080516323b872dd60e01b815233600482018190523060248301526044820187905291516001600160a01b038816916323b872dd9160648083019260209291908290030181600087803b158015611d5457600080fd5b505af1158015611d68573d6000803e3d6000fd5b505050506040513d6020811015611d7e57600080fd5b50506009546040805163095ea7b360e01b81526001600160a01b0392831660048201526024810188905290519188169163095ea7b3916044808201926020929091908290030181600087803b158015611dd657600080fd5b505af1158015611dea573d6000803e3d6000fd5b505050506040513d6020811015611e0057600080fd5b5050600954604080516317eb2a1560e01b8152306004820181905260248201526001600160a01b038981166044830152606482018990526084820188905260a48201879052915160009392909216916317eb2a159160c48082019260209290919082900301818787803b158015611e7657600080fd5b505af1158015611e8a573d6000803e3d6000fd5b505050506040513d6020811015611ea057600080fd5b50516005546008546040805163095ea7b360e01b81526001600160a01b03928316600482015260248101859052905193945091169163095ea7b3916044808201926020929091908290030181600087803b158015611efd57600080fd5b505af1158015611f11573d6000803e3d6000fd5b505050506040513d6020811015611f2757600080fd5b505060085460055460408051631e42d69b60e21b81523060048201526001600160a01b0386811660248301529283166044820152606481018590529051919092169163790b5a6c91608480830192600092919082900301818387803b158015611f8f57600080fd5b505af1158015611fa3573d6000803e3d6000fd5b50506008546007546040805163095ea7b360e01b81526001600160a01b03928316600482015260248101879052905191909216935063095ea7b3925060448083019260209291908290030181600087803b15801561200057600080fd5b505af1158015612014573d6000803e3d6000fd5b505050506040513d602081101561202a57600080fd5b505060075460085460408051631e42d69b60e21b81523060048201526001600160a01b0386811660248301529283166044820152606481018590529051919092169163790b5a6c91608480830192600092919082900301818387803b15801561209257600080fd5b505af11580156120a6573d6000803e3d6000fd5b50506007546040805163a9059cbb60e01b81526001600160a01b03878116600483015260248201879052915191909216935063a9059cbb925060448083019260209291908290030181600087803b15801561210057600080fd5b505af1158015612114573d6000803e3d6000fd5b505050506040513d602081101561212a57600080fd5b5050604080516001600160a01b03841681526020810183905281517fad93b2f628eda4195b3bf8738da70d1ba23b7061ffa4fe71aaca907e0b128cce929181900390910190a160016000559695505050505050565b6000600260005414156121c7576040805162461bcd60e51b815260206004820152601f60248201526000805160206139da833981519152604482015290519081900360640190fd5b60026000558361221e576040805162461bcd60e51b815260206004820181905260248201527f526577617264526f757465723a20696e76616c6964205f7a6c70416d6f756e74604482015290519081900360640190fd5b6007546008546040805163098bf59d60e01b815233600482018190526001600160a01b039384166024830152604482018990526064820181905291519193929092169163098bf59d91608480830192600092919082900301818387803b15801561228757600080fd5b505af115801561229b573d6000803e3d6000fd5b50506008546005546040805163098bf59d60e01b81526001600160a01b03878116600483018190529381166024830152604482018c90526064820193909352905191909216935063098bf59d9250608480830192600092919082900301818387803b15801561230957600080fd5b505af115801561231d573d6000803e3d6000fd5b5050600954604080516371d597ad60e01b81526001600160a01b0386811660048301528b81166024830152604482018b9052606482018a905288811660848301529151600095509190921692506371d597ad9160a48082019260209290919082900301818787803b15801561239157600080fd5b505af11580156123a5573d6000803e3d6000fd5b505050506040513d60208110156123bb57600080fd5b5051604080516001600160a01b03851681526020810189905281519293507f83ac00acd50a988c92018e2f35631dfbc00d5bd016c5515fe3758877b1499cf8929081900390910190a160016000559695505050505050565b6001546001600160a01b03163314612460576040805162461bcd60e51b81526020600482015260156024820152600080516020613a2e833981519152604482015290519081900360640190fd5b6001600160a01b0381166124b9576040805162461bcd60e51b815260206004820152601b60248201527a476f7665726e61626c653a20696e76616c6964206164647265737360281b604482015290519081900360640190fd5b6001546001600160a01b038281169116141561251a576040805162461bcd60e51b815260206004820152601b60248201527a476f7665726e61626c653a2073616d6520676f7665726e616e636560281b604482015290519081900360640190fd5b61252681600019613499565b50565b6002600054141561256f576040805162461bcd60e51b815260206004820152601f60248201526000805160206139da833981519152604482015290519081900360640190fd5b60026000556001546001600160a01b031633146125c1576040805162461bcd60e51b81526020600482015260156024820152600080516020613a2e833981519152604482015290519081900360640190fd5b6004546001600160a01b031660005b835181101561146c5761260b338583815181106125e957fe5b6020026020010151848685815181106125fe57fe5b6020026020010151612d9b565b6001016125d0565b60026000541415612659576040805162461bcd60e51b815260206004820152601f60248201526000805160206139da833981519152604482015290519081900360640190fd5b6002600055610a5e612eac565b6000600260005414156126ae576040805162461bcd60e51b815260206004820152601f60248201526000805160206139da833981519152604482015290519081900360640190fd5b600260005534612705576040805162461bcd60e51b815260206004820152601f60248201527f526577617264526f757465723a20696e76616c6964206d73672e76616c756500604482015290519081900360640190fd5b600360019054906101000a90046001600160a01b03166001600160a01b031663d0e30db0346040518263ffffffff1660e01b81526004016000604051808303818588803b15801561275557600080fd5b505af1158015612769573d6000803e3d6000fd5b50506003546009546040805163095ea7b360e01b81526001600160a01b0392831660048201523460248201529051610100909304909116945063095ea7b3935060448082019350602092918290030181600087803b1580156127ca57600080fd5b505af11580156127de573d6000803e3d6000fd5b505050506040513d60208110156127f457600080fd5b5050600954600354604080516317eb2a1560e01b8152306004820181905260248201526001600160a01b03610100909304831660448201523460648201526084810187905260a481018690529051339360009316916317eb2a159160c480830192602092919082900301818787803b15801561286f57600080fd5b505af1158015612883573d6000803e3d6000fd5b505050506040513d602081101561289957600080fd5b50516005546008546040805163095ea7b360e01b81526001600160a01b03928316600482015260248101859052905193945091169163095ea7b3916044808201926020929091908290030181600087803b1580156128f657600080fd5b505af115801561290a573d6000803e3d6000fd5b505050506040513d602081101561292057600080fd5b505060085460055460408051631e42d69b60e21b81523060048201526001600160a01b0386811660248301529283166044820152606481018590529051919092169163790b5a6c91608480830192600092919082900301818387803b15801561298857600080fd5b505af115801561299c573d6000803e3d6000fd5b50506008546007546040805163095ea7b360e01b81526001600160a01b03928316600482015260248101879052905191909216935063095ea7b3925060448083019260209291908290030181600087803b1580156129f957600080fd5b505af1158015612a0d573d6000803e3d6000fd5b505050506040513d6020811015612a2357600080fd5b505060075460085460408051631e42d69b60e21b81523060048201526001600160a01b0386811660248301529283166044820152606481018590529051919092169163790b5a6c91608480830192600092919082900301818387803b158015612a8b57600080fd5b505af1158015612a9f573d6000803e3d6000fd5b50506007546040805163a9059cbb60e01b81526001600160a01b03878116600483015260248201879052915191909216935063a9059cbb925060448083019260209291908290030181600087803b158015612af957600080fd5b505af1158015612b0d573d6000803e3d6000fd5b505050506040513d6020811015612b2357600080fd5b5050604080516001600160a01b03841681526020810183905281517fad93b2f628eda4195b3bf8738da70d1ba23b7061ffa4fe71aaca907e0b128cce929181900390910190a16001600055949350505050565b600a602052600090815260409020546001600160a01b031681565b6006546001600160a01b031681565b60026000541415612be6576040805162461bcd60e51b815260206004820152601f60248201526000805160206139da833981519152604482015290519081900360640190fd5b6002600055612bf48161305b565b336000908152600a6020526040812080546001600160a01b0319166001600160a01b03939093169290921790915560019055565b60026000541415612c6e576040805162461bcd60e51b815260206004820152601f60248201526000805160206139da833981519152604482015290519081900360640190fd5b6002600055338115612d8457600854604080516309f4173d60e11b81526001600160a01b038481166004830152306024830152915160009392909216916313e82e7a9160448082019260209290919082900301818787803b158015612cd257600080fd5b505af1158015612ce6573d6000803e3d6000fd5b505050506040513d6020811015612cfc57600080fd5b505160035460408051632e1a7d4d60e01b81526004810184905290519293506101009091046001600160a01b031691632e1a7d4d9160248082019260009290919082900301818387803b158015612d5257600080fd5b505af1158015612d66573d6000803e3d6000fd5b50612d7e925050506001600160a01b03831682613624565b50611809565b611809612eac565b6005546001600160a01b031681565b60008111612dde576040805162461bcd60e51b815260206004820152601d6024820152600080516020613c46833981519152604482015290519081900360640190fd5b60065460408051631e42d69b60e21b81526001600160a01b03878116600483015286811660248301528581166044830152606482018590529151919092169163790b5a6c91608480830192600092919082900301818387803b158015612e4357600080fd5b505af1158015612e57573d6000803e3d6000fd5b5050604080516001600160a01b0380881682528616602082015280820185905290517f01760f917f4a47f469c1b086afdd3a9cbeae9e4f55828716c4afed80970df5919350908190036060019150a150505050565b600854604080516309f4173d60e11b8152336004820181905260248201819052915191926001600160a01b0316916313e82e7a916044808201926020929091908290030181600087803b158015612f0257600080fd5b505af1158015612f16573d6000803e3d6000fd5b505050506040513d6020811015612f2c57600080fd5b505050565b600654604080516309f4173d60e11b8152336004820181905260248201819052915191926001600160a01b0316916313e82e7a916044808201926020929091908290030181600087803b158015612f8757600080fd5b505af1158015612f9b573d6000803e3d6000fd5b505050506040513d6020811015612fb157600080fd5b5050600754604080516309f4173d60e11b81526001600160a01b03848116600483018190526024830152915191909216916313e82e7a9160448083019260209291908290030181600087803b158015612f0257600080fd5b604080516001600160a01b038416602482015260448082018490528251808303909101815260649091019091526020810180516001600160e01b031663a9059cbb60e01b179052612f2c908490613709565b6006546040805163a318021760e01b81526001600160a01b0384811660048301529151919092169163a3180217916024808301926020929190829003018186803b1580156130a857600080fd5b505afa1580156130bc573d6000803e3d6000fd5b505050506040513d60208110156130d257600080fd5b5051156131105760405162461bcd60e51b8152600401808060200182810382526037815260200180613b586037913960400191505060405180910390fd5b60065460408051633792def360e01b81526001600160a01b03848116600483015291519190921691633792def3916024808301926020929190829003018186803b15801561315d57600080fd5b505afa158015613171573d6000803e3d6000fd5b505050506040513d602081101561318757600080fd5b5051156131c55760405162461bcd60e51b8152600401808060200182810382526034815260200180613b246034913960400191505060405180910390fd5b6007546040805163a318021760e01b81526001600160a01b0384811660048301529151919092169163a3180217916024808301926020929190829003018186803b15801561321257600080fd5b505afa158015613226573d6000803e3d6000fd5b505050506040513d602081101561323c57600080fd5b50511561327a5760405162461bcd60e51b8152600401808060200182810382526037815260200180613bb16037913960400191505060405180910390fd5b60075460408051633792def360e01b81526001600160a01b03848116600483015291519190921691633792def3916024808301926020929190829003018186803b1580156132c757600080fd5b505afa1580156132db573d6000803e3d6000fd5b505050506040513d60208110156132f157600080fd5b50511561332f5760405162461bcd60e51b81526004018080602001828103825260348152602001806139fa6034913960400191505060405180910390fd5b6008546040805163a318021760e01b81526001600160a01b0384811660048301529151919092169163a3180217916024808301926020929190829003018186803b15801561337c57600080fd5b505afa158015613390573d6000803e3d6000fd5b505050506040513d60208110156133a657600080fd5b5051156133e45760405162461bcd60e51b8152600401808060200182810382526034815260200180613be86034913960400191505060405180910390fd5b60085460408051633792def360e01b81526001600160a01b03848116600483015291519190921691633792def3916024808301926020929190829003018186803b15801561343157600080fd5b505afa158015613445573d6000803e3d6000fd5b505050506040513d602081101561345b57600080fd5b5051156125265760405162461bcd60e51b8152600401808060200182810382526031815260200180613a4e6031913960400191505060405180910390fd5b604080518082018252828152600160208083018281526001600160a01b03871660008181526002845286902094518555905193909201805460ff1916931515939093179092558251848152925190927f02dd0697be46e764c3ba81094158781c31b235d03bb27a0daf1bdef0ec1084dd92908290030190a25050565b60008111613558576040805162461bcd60e51b815260206004820152601d6024820152600080516020613c46833981519152604482015290519081900360640190fd5b6006546040805163098bf59d60e01b81526001600160a01b038681166004830181905286821660248401526044830186905260648301529151919092169163098bf59d91608480830192600092919082900301818387803b1580156135bc57600080fd5b505af11580156135d0573d6000803e3d6000fd5b5050604080516001600160a01b0380881682528616602082015280820185905290517f4fdf699b84ba823ce9c2445fc7bf3102aebeb0308aebaf4f7b565c14ddedeb6e9350908190036060019150a1505050565b80471015613679576040805162461bcd60e51b815260206004820152601d60248201527f416464726573733a20696e73756666696369656e742062616c616e6365000000604482015290519081900360640190fd5b6040516000906001600160a01b0384169083908381818185875af1925050503d80600081146136c4576040519150601f19603f3d011682016040523d82523d6000602084013e6136c9565b606091505b5050905080612f2c5760405162461bcd60e51b815260040180806020018281038252603a815260200180613a7f603a913960400191505060405180910390fd5b606061375e826040518060400160405280602081526020017f5361666545524332303a206c6f772d6c6576656c2063616c6c206661696c6564815250856001600160a01b03166137ba9092919063ffffffff16565b805190915015612f2c5780806020019051602081101561377d57600080fd5b5051612f2c5760405162461bcd60e51b815260040180806020018281038252602a815260200180613c1c602a913960400191505060405180910390fd5b60606137c984846000856137d3565b90505b9392505050565b6060824710156138145760405162461bcd60e51b8152600401808060200182810382526026815260200180613ada6026913960400191505060405180910390fd5b61381d8561392f565b61386e576040805162461bcd60e51b815260206004820152601d60248201527f416464726573733a2063616c6c20746f206e6f6e2d636f6e7472616374000000604482015290519081900360640190fd5b60006060866001600160a01b031685876040518082805190602001908083835b602083106138ad5780518252601f19909201916020918201910161388e565b6001836020036101000a03801982511681845116808217855250505050505090500191505060006040518083038185875af1925050503d806000811461390f576040519150601f19603f3d011682016040523d82523d6000602084013e613914565b606091505b5091509150613924828286613935565b979650505050505050565b3b151590565b606083156139445750816137cc565b8251156139545782518084602001fd5b8160405162461bcd60e51b81526004018080602001828103825283818151815260200191508051906020019080838360005b8381101561399e578181015183820152602001613986565b50505050905090810190601f1680156139cb5780820380516001836020036101000a031916815260200191505b509250505060405180910390fdfe5265656e7472616e637947756172643a207265656e7472616e742063616c6c00526577617264526f757465723a207374616b65645a6c70547261636b65722e63756d756c617469766552657761726473203e2030476f7665726e61626c653a20666f7262696464656e0000000000000000000000526577617264526f757465723a206665655a6c70547261636b65722e63756d756c617469766552657761726473203e2030416464726573733a20756e61626c6520746f2073656e642076616c75652c20726563697069656e74206d61792068617665207265766572746564526577617264526f757465723a20616c726561647920696e697469616c697a6564416464726573733a20696e73756666696369656e742062616c616e636520666f722063616c6c526577617264526f757465723a207472616e73666572206e6f74207369676e616c6c6564526577617264526f757465723a207374616b65645a7573547261636b65722e63756d756c617469766552657761726473203e2030526577617264526f757465723a207374616b65645a7573547261636b65722e617665726167655374616b6564416d6f756e7473203e2030476f7665726e61626c653a2070726f706f73616c206973206e6f7420616374697665526577617264526f757465723a207374616b65645a6c70547261636b65722e617665726167655374616b6564416d6f756e7473203e2030526577617264526f757465723a206665655a6c70547261636b65722e617665726167655374616b6564416d6f756e7473203e20305361666545524332303a204552433230206f7065726174696f6e20646964206e6f742073756363656564526577617264526f757465723a20696e76616c6964205f616d6f756e74000000a26469706673582212209eda9d11881e3fa50cfc37bbbf4ebd8d02fb84d9fc23bc307807c36af0f4e95664736f6c634300060c0033","linkReferences":{}},"methodIdentifiers":{"acceptGov()":"7bc6729b","acceptTransfer(address)":"655603a4","batchStakeZusForAccount(address[],uint256[])":"d106f13a","cancelGovProposal(address)":"9c35b497","claim()":"4e71d92d","claimEsZus()":"81e021fc","claimFees()":"d294f093","feeZlpTracker()":"84347a33","gov()":"12d43a51","govProposals(address)":"8d0fedb0","handleRewards(bool)":"f15ac6a9","initialize(address,address,address,address,address,address,address)":"35876476","isInitialized()":"392e53cd","mintAndStakeZlp(address,uint256,uint256,uint256)":"c8cfba39","mintAndStakeZlpETH(uint256,uint256)":"d6bf66c2","pendingReceivers(address)":"e1b9db89","setGov(address)":"cfad57a2","setGovWithDeadline(address,uint256)":"6bb22fd7","signalTransfer(address)":"ef9aacfd","stakeZus(uint256)":"03a24399","stakeZusForAccount(address,uint256)":"82de0072","stakedZlpTracker()":"17988a6a","stakedZusTracker()":"ec4ee1c0","unstakeAndRedeemZlp(address,uint256,uint256,address)":"cca30c31","unstakeAndRedeemZlpETH(uint256,uint256,address)":"b7699816","unstakeZus(uint256)":"822ac221","weth()":"3fc8cef3","withdrawTokensOrETH(address,address,uint256)":"56edcea2","zlp()":"fe9fe720","zlpManager()":"b6556599","zus()":"02486e08"},"id":28}