{"abi":[{"type":"constructor","inputs":[{"name":"_zlp","type":"address","internalType":"address"},{"name":"_zlpManager","type":"address","internalType":"contract IZlpManager"},{"name":"_stakedZlpTracker","type":"address","internalType":"address"},{"name":"_feeZlpTracker","type":"address","internalType":"address"}],"stateMutability":"nonpayable"},{"type":"function","name":"allowance","inputs":[{"name":"_owner","type":"address","internalType":"address"},{"name":"_spender","type":"address","internalType":"address"}],"outputs":[{"name":"","type":"uint256","internalType":"uint256"}],"stateMutability":"view"},{"type":"function","name":"allowances","inputs":[{"name":"","type":"address","internalType":"address"},{"name":"","type":"address","internalType":"address"}],"outputs":[{"name":"","type":"uint256","internalType":"uint256"}],"stateMutability":"view"},{"type":"function","name":"approve","inputs":[{"name":"_spender","type":"address","internalType":"address"},{"name":"_amount","type":"uint256","internalType":"uint256"}],"outputs":[{"name":"","type":"bool","internalType":"bool"}],"stateMutability":"nonpayable"},{"type":"function","name":"balanceOf","inputs":[{"name":"_account","type":"address","internalType":"address"}],"outputs":[{"name":"","type":"uint256","internalType":"uint256"}],"stateMutability":"view"},{"type":"function","name":"decimals","inputs":[],"outputs":[{"name":"","type":"uint8","internalType":"uint8"}],"stateMutability":"view"},{"type":"function","name":"feeZlpTracker","inputs":[],"outputs":[{"name":"","type":"address","internalType":"address"}],"stateMutability":"view"},{"type":"function","name":"name","inputs":[],"outputs":[{"name":"","type":"string","internalType":"string"}],"stateMutability":"view"},{"type":"function","name":"stakedZlpTracker","inputs":[],"outputs":[{"name":"","type":"address","internalType":"address"}],"stateMutability":"view"},{"type":"function","name":"symbol","inputs":[],"outputs":[{"name":"","type":"string","internalType":"string"}],"stateMutability":"view"},{"type":"function","name":"totalSupply","inputs":[],"outputs":[{"name":"","type":"uint256","internalType":"uint256"}],"stateMutability":"view"},{"type":"function","name":"transfer","inputs":[{"name":"_recipient","type":"address","internalType":"address"},{"name":"_amount","type":"uint256","internalType":"uint256"}],"outputs":[{"name":"","type":"bool","internalType":"bool"}],"stateMutability":"nonpayable"},{"type":"function","name":"transferFrom","inputs":[{"name":"_sender","type":"address","internalType":"address"},{"name":"_recipient","type":"address","internalType":"address"},{"name":"_amount","type":"uint256","internalType":"uint256"}],"outputs":[{"name":"","type":"bool","internalType":"bool"}],"stateMutability":"nonpayable"},{"type":"function","name":"zlp","inputs":[],"outputs":[{"name":"","type":"address","internalType":"address"}],"stateMutability":"view"},{"type":"function","name":"zlpManager","inputs":[],"outputs":[{"name":"","type":"address","internalType":"contract IZlpManager"}],"stateMutability":"view"},{"type":"event","name":"Approval","inputs":[{"name":"owner","type":"address","indexed":true,"internalType":"address"},{"name":"spender","type":"address","indexed":true,"internalType":"address"},{"name":"value","type":"uint256","indexed":false,"internalType":"uint256"}],"anonymous":false}],"bytecode":{"object":"0x608060405234801561001057600080fd5b50604051610eb9380380610eb98339818101604052608081101561003357600080fd5b50805160208201516040830151606090930151600080546001600160a01b039485166001600160a01b0319918216179091556001805493851693821693909317909255600280549484169483169490941790935560038054929093169116179055610e16806100a36000396000f3fe608060405234801561001057600080fd5b50600436106100ba5760003560e01c806306fdde03146100bf578063095ea7b31461013c57806317988a6a1461017c57806318160ddd146101a057806323b872dd146101ba578063313ce567146101f057806355b6ed5c1461020e57806370a082311461023c57806384347a331461026257806395d89b411461026a578063a9059cbb14610272578063b65565991461029e578063dd62ed3e146102a6578063fe9fe720146102d4575b600080fd5b6100c76102dc565b6040805160208082528351818301528351919283929083019185019080838360005b838110156101015781810151838201526020016100e9565b50505050905090810190601f16801561012e5780820380516001836020036101000a031916815260200191505b509250505060405180910390f35b6101686004803603604081101561015257600080fd5b506001600160a01b038135169060200135610301565b604080519115158252519081900360200190f35b610184610317565b604080516001600160a01b039092168252519081900360200190f35b6101a8610326565b60408051918252519081900360200190f35b610168600480360360608110156101d057600080fd5b506001600160a01b0381358116916020810135909116906040013561039c565b6101f861040a565b6040805160ff9092168252519081900360200190f35b6101a86004803603604081101561022457600080fd5b506001600160a01b038135811691602001351661040f565b6101a86004803603602081101561025257600080fd5b50356001600160a01b031661042c565b6101846104ba565b6100c76104c9565b6101686004803603604081101561028857600080fd5b506001600160a01b0381351690602001356104e9565b6101846104f6565b6101a8600480360360408110156102bc57600080fd5b506001600160a01b0381358116916020013516610505565b610184610530565b6040518060400160405280600981526020016805374616b65645a6c760bc1b81525081565b600061030e33848461053f565b50600192915050565b6002546001600160a01b031681565b600254604080516318160ddd60e01b815290516000926001600160a01b0316916318160ddd916004808301926020929190829003018186803b15801561036b57600080fd5b505afa15801561037f573d6000803e3d6000fd5b505050506040513d602081101561039557600080fd5b5051905090565b6000806103e7836040518060600160405280602c8152602001610d3a602c91396001600160a01b0388166000908152600460209081526040808320338452909152902054919061062b565b90506103f485338361053f565b6103ff8585856106c2565b506001949350505050565b601281565b600460209081526000928352604080842090915290825290205481565b6003546000805460408051637aeceb1f60e11b81526001600160a01b038681166004830152928316602482015290519293919091169163f5d9d63e91604480820192602092909190829003018186803b15801561048857600080fd5b505afa15801561049c573d6000803e3d6000fd5b505050506040513d60208110156104b257600080fd5b505192915050565b6003546001600160a01b031681565b604051806040016040528060048152602001630735a4c560e41b81525081565b600061030e3384846106c2565b6001546001600160a01b031681565b6001600160a01b03918216600090815260046020908152604080832093909416825291909152205490565b6000546001600160a01b031681565b6001600160a01b0383166105845760405162461bcd60e51b8152600401808060200182810382526028815260200180610cec6028913960400191505060405180910390fd5b6001600160a01b0382166105c95760405162461bcd60e51b8152600401808060200182810382526026815260200180610d146026913960400191505060405180910390fd5b6001600160a01b03808416600081815260046020908152604080832094871680845294825291829020859055815185815291517f8c5be1e5ebec7d5bd14f71427d1e84f3dd0314c0f7b2291e5b200ac8c7c3b9259281900390910190a3505050565b600081848411156106ba5760405162461bcd60e51b81526004018080602001828103825283818151815260200191508051906020019080838360005b8381101561067f578181015183820152602001610667565b50505050905090810190601f1680156106ac5780820380516001836020036101000a031916815260200191505b509250505060405180910390fd5b505050900390565b6001600160a01b0383166107075760405162461bcd60e51b8152600401808060200182810382526029815260200180610d666029913960400191505060405180910390fd5b6001600160a01b03821661074c5760405162461bcd60e51b8152600401808060200182810382526027815260200180610d8f6027913960400191505060405180910390fd5b4261084760008054906101000a90046001600160a01b03166001600160a01b031663352693156040518163ffffffff1660e01b815260040160206040518083038186803b15801561079c57600080fd5b505afa1580156107b0573d6000803e3d6000fd5b505050506040513d60208110156107c657600080fd5b505160005460408051638b770e1160e01b81526001600160a01b03898116600483015291519190921691638b770e11916024808301926020929190829003018186803b15801561081557600080fd5b505afa158015610829573d6000803e3d6000fd5b505050506040513d602081101561083f57600080fd5b505190610c8c565b11156108845760405162461bcd60e51b815260040180806020018281038252602b815260200180610db6602b913960400191505060405180910390fd5b6002546003546040805163098bf59d60e01b81526001600160a01b0387811660048301529283166024820152604481018590523060648201529051919092169163098bf59d91608480830192600092919082900301818387803b1580156108ea57600080fd5b505af11580156108fe573d6000803e3d6000fd5b50506003546040805163a9059cbb60e01b81526001600160a01b03888116600483015260248201879052915191909216935063a9059cbb925060448083019260209291908290030181600087803b15801561095857600080fd5b505af115801561096c573d6000803e3d6000fd5b505050506040513d602081101561098257600080fd5b5050600354600080546040805163098bf59d60e01b81526001600160a01b0388811660048301529283166024820152604481018690523060648201529051919093169263098bf59d92608480830193919282900301818387803b1580156109e857600080fd5b505af11580156109fc573d6000803e3d6000fd5b5050600080546003546040805163095ea7b360e01b81526001600160a01b03928316600482015260248101889052905191909216945063095ea7b3935060448083019360209383900390910190829087803b158015610a5a57600080fd5b505af1158015610a6e573d6000803e3d6000fd5b505050506040513d6020811015610a8457600080fd5b50506003546000805460408051631e42d69b60e21b81523060048201526001600160a01b0387811660248301529283166044820152606481018690529051919093169263790b5a6c92608480830193919282900301818387803b158015610aea57600080fd5b505af1158015610afe573d6000803e3d6000fd5b50506003546002546040805163095ea7b360e01b81526001600160a01b03928316600482015260248101879052905191909216935063095ea7b3925060448083019260209291908290030181600087803b158015610b5b57600080fd5b505af1158015610b6f573d6000803e3d6000fd5b505050506040513d6020811015610b8557600080fd5b505060025460035460408051631e42d69b60e21b81523060048201526001600160a01b0386811660248301529283166044820152606481018590529051919092169163790b5a6c91608480830192600092919082900301818387803b158015610bed57600080fd5b505af1158015610c01573d6000803e3d6000fd5b50506002546040805163a9059cbb60e01b81526001600160a01b03878116600483015260248201879052915191909216935063a9059cbb925060448083019260209291908290030181600087803b158015610c5b57600080fd5b505af1158015610c6f573d6000803e3d6000fd5b505050506040513d6020811015610c8557600080fd5b5050505050565b600082820183811015610ce4576040805162461bcd60e51b815260206004820152601b60248201527a536166654d6174683a206164646974696f6e206f766572666c6f7760281b604482015290519081900360640190fd5b939250505056fe5374616b65645a6c703a20617070726f76652066726f6d20746865207a65726f20616464726573735374616b65645a6c703a20617070726f766520746f20746865207a65726f20616464726573735374616b65645a6c703a207472616e7366657220616d6f756e74206578636565647320616c6c6f77616e63655374616b65645a6c703a207472616e736665722066726f6d20746865207a65726f20616464726573735374616b65645a6c703a207472616e7366657220746f20746865207a65726f20616464726573735374616b65645a6c703a20636f6f6c646f776e206475726174696f6e206e6f742079657420706173736564a26469706673582212209d4d8752087ecd518585fd03e0b718ebf12789ed6d7f951e15f6e2e00792836b64736f6c634300060c0033","linkReferences":{}},"methodIdentifiers":{"allowance(address,address)":"dd62ed3e","allowances(address,address)":"55b6ed5c","approve(address,uint256)":"095ea7b3","balanceOf(address)":"70a08231","decimals()":"313ce567","feeZlpTracker()":"84347a33","name()":"06fdde03","stakedZlpTracker()":"17988a6a","symbol()":"95d89b41","totalSupply()":"18160ddd","transfer(address,uint256)":"a9059cbb","transferFrom(address,address,uint256)":"23b872dd","zlp()":"fe9fe720","zlpManager()":"b6556599"},"id":86}