{"abi":[{"type":"constructor","inputs":[{"name":"_zlp","type":"address","internalType":"address"},{"name":"_zlpManager","type":"address","internalType":"contract IZlpManager"},{"name":"_stakedZlpTracker","type":"address","internalType":"address"},{"name":"_feeZlpTracker","type":"address","internalType":"address"}],"stateMutability":"nonpayable"},{"type":"function","name":"allowance","inputs":[{"name":"_owner","type":"address","internalType":"address"},{"name":"_spender","type":"address","internalType":"address"}],"outputs":[{"name":"","type":"uint256","internalType":"uint256"}],"stateMutability":"view"},{"type":"function","name":"approve","inputs":[{"name":"_spender","type":"address","internalType":"address"},{"name":"_amount","type":"uint256","internalType":"uint256"}],"outputs":[{"name":"","type":"bool","internalType":"bool"}],"stateMutability":"nonpayable"},{"type":"function","name":"balanceOf","inputs":[{"name":"_account","type":"address","internalType":"address"}],"outputs":[{"name":"","type":"uint256","internalType":"uint256"}],"stateMutability":"view"},{"type":"function","name":"decimals","inputs":[],"outputs":[{"name":"","type":"uint8","internalType":"uint8"}],"stateMutability":"view"},{"type":"function","name":"feeZlpTracker","inputs":[],"outputs":[{"name":"","type":"address","internalType":"address"}],"stateMutability":"view"},{"type":"function","name":"getStakingInfo","inputs":[{"name":"_account","type":"address","internalType":"address"}],"outputs":[{"name":"stakedZlpBalance","type":"uint256","internalType":"uint256"},{"name":"feeZlpBalance","type":"uint256","internalType":"uint256"},{"name":"stakedZlpDepositBalance","type":"uint256","internalType":"uint256"},{"name":"isValid","type":"bool","internalType":"bool"}],"stateMutability":"view"},{"type":"function","name":"isValidStaking","inputs":[{"name":"_account","type":"address","internalType":"address"}],"outputs":[{"name":"","type":"bool","internalType":"bool"}],"stateMutability":"view"},{"type":"function","name":"name","inputs":[],"outputs":[{"name":"","type":"string","internalType":"string"}],"stateMutability":"view"},{"type":"function","name":"stakedZlpTracker","inputs":[],"outputs":[{"name":"","type":"address","internalType":"address"}],"stateMutability":"view"},{"type":"function","name":"symbol","inputs":[],"outputs":[{"name":"","type":"string","internalType":"string"}],"stateMutability":"view"},{"type":"function","name":"totalSupply","inputs":[],"outputs":[{"name":"","type":"uint256","internalType":"uint256"}],"stateMutability":"view"},{"type":"function","name":"transfer","inputs":[{"name":"_recipient","type":"address","internalType":"address"},{"name":"_amount","type":"uint256","internalType":"uint256"}],"outputs":[{"name":"","type":"bool","internalType":"bool"}],"stateMutability":"nonpayable"},{"type":"function","name":"transferFrom","inputs":[{"name":"_sender","type":"address","internalType":"address"},{"name":"_recipient","type":"address","internalType":"address"},{"name":"_amount","type":"uint256","internalType":"uint256"}],"outputs":[{"name":"","type":"bool","internalType":"bool"}],"stateMutability":"nonpayable"},{"type":"function","name":"zlp","inputs":[],"outputs":[{"name":"","type":"address","internalType":"address"}],"stateMutability":"view"},{"type":"function","name":"zlpManager","inputs":[],"outputs":[{"name":"","type":"address","internalType":"contract IZlpManager"}],"stateMutability":"view"},{"type":"event","name":"Approval","inputs":[{"name":"owner","type":"address","indexed":true,"internalType":"address"},{"name":"spender","type":"address","indexed":true,"internalType":"address"},{"name":"value","type":"uint256","indexed":false,"internalType":"uint256"}],"anonymous":false}],"bytecode":{"object":"0x608060405234801561001057600080fd5b5060405161153c38038061153c8339818101604052608081101561003357600080fd5b50805160208201516040830151606090930151600080546001600160a01b039485166001600160a01b0319918216179091556001805493851693821693909317909255600280549484169483169490941790935560038054929093169116179055611499806100a36000396000f3fe608060405234801561001057600080fd5b50600436106100c55760003560e01c806306fdde03146100ca578063095ea7b31461014757806317988a6a1461018757806318160ddd146101ab57806323b872dd146101c5578063313ce567146101fb57806370a082311461021957806384347a331461023f57806395d89b4114610247578063a9059cbb1461024f578063aa4704f31461027b578063b6556599146102c9578063c625b23d146102d1578063dd62ed3e146102f7578063fe9fe72014610325575b600080fd5b6100d261032d565b6040805160208082528351818301528351919283929083019185019080838360005b8381101561010c5781810151838201526020016100f4565b50505050905090810190601f1680156101395780820380516001836020036101000a031916815260200191505b509250505060405180910390f35b6101736004803603604081101561015d57600080fd5b506001600160a01b038135169060200135610352565b604080519115158252519081900360200190f35b61018f610368565b604080516001600160a01b039092168252519081900360200190f35b6101b3610377565b60408051918252519081900360200190f35b610173600480360360608110156101db57600080fd5b506001600160a01b038135811691602081013590911690604001356103ed565b610203610487565b6040805160ff9092168252519081900360200190f35b6101b36004803603602081101561022f57600080fd5b50356001600160a01b031661048c565b61018f610511565b6100d2610520565b6101736004803603604081101561026557600080fd5b506001600160a01b038135169060200135610540565b6102a16004803603602081101561029157600080fd5b50356001600160a01b031661054d565b6040805194855260208501939093528383019190915215156060830152519081900360800190f35b61018f61075d565b610173600480360360208110156102e757600080fd5b50356001600160a01b031661076c565b6101b36004803603604081101561030d57600080fd5b506001600160a01b0381358116916020013516610925565b61018f610950565b6040518060400160405280600981526020016805374616b65645a6c760bc1b81525081565b600061035f33848461095f565b50600192915050565b6002546001600160a01b031681565b600254604080516318160ddd60e01b815290516000926001600160a01b0316916318160ddd916004808301926020929190829003018186803b1580156103bc57600080fd5b505afa1580156103d0573d6000803e3d6000fd5b505050506040513d60208110156103e657600080fd5b5051905090565b6001600160a01b038316600090815260046020908152604080832033845290915281205460001914610472576000610463836040518060600160405280602c8152602001611374602c91396001600160a01b03881660009081526004602090815260408083203384529091529020549190610a4b565b905061047085338361095f565b505b61047d848484610ae2565b5060019392505050565b601281565b600254604080516370a0823160e01b81526001600160a01b038481166004830152915160009392909216916370a0823191602480820192602092909190829003018186803b1580156104dd57600080fd5b505afa1580156104f1573d6000803e3d6000fd5b505050506040513d602081101561050757600080fd5b505190505b919050565b6003546001600160a01b031681565b604051806040016040528060048152602001630735a4c560e41b81525081565b600061035f338484610ae2565b600254604080516370a0823160e01b81526001600160a01b038481166004830152915160009384938493849391909216916370a08231916024808301926020929190829003018186803b1580156105a357600080fd5b505afa1580156105b7573d6000803e3d6000fd5b505050506040513d60208110156105cd57600080fd5b50516003546000546040805163178fede760e01b81526001600160a01b038a811660048301529283166024820152905193975091169163178fede791604480820192602092909190829003018186803b15801561062957600080fd5b505afa15801561063d573d6000803e3d6000fd5b505050506040513d602081101561065357600080fd5b50516002546003546040805163178fede760e01b81526001600160a01b038a811660048301529283166024820152905193965091169163178fede791604480820192602092909190829003018186803b1580156106af57600080fd5b505afa1580156106c3573d6000803e3d6000fd5b505050506040513d60208110156106d957600080fd5b50516040805163c625b23d60e01b81526001600160a01b03881660048201529051919350309163c625b23d91602480820192602092909190829003018186803b15801561072557600080fd5b505afa158015610739573d6000803e3d6000fd5b505050506040513d602081101561074f57600080fd5b505193959294509092919050565b6001546001600160a01b031681565b600254604080516370a0823160e01b81526001600160a01b0384811660048301529151600093849316916370a08231916024808301926020929190829003018186803b1580156107bb57600080fd5b505afa1580156107cf573d6000803e3d6000fd5b505050506040513d60208110156107e557600080fd5b50519050806107f857600191505061050c565b600354600080546040805163178fede760e01b81526001600160a01b038881166004830152928316602482015290519293919091169163178fede791604480820192602092909190829003018186803b15801561085457600080fd5b505afa158015610868573d6000803e3d6000fd5b505050506040513d602081101561087e57600080fd5b50516002546003546040805163178fede760e01b81526001600160a01b03898116600483015292831660248201529051939450600093919092169163178fede7916044808301926020929190829003018186803b1580156108de57600080fd5b505afa1580156108f2573d6000803e3d6000fd5b505050506040513d602081101561090857600080fd5b5051905082821080159061091c5750828110155b95945050505050565b6001600160a01b03918216600090815260046020908152604080832093909416825291909152205490565b6000546001600160a01b031681565b6001600160a01b0383166109a45760405162461bcd60e51b81526004018080602001828103825260288152602001806113266028913960400191505060405180910390fd5b6001600160a01b0382166109e95760405162461bcd60e51b815260040180806020018281038252602681526020018061134e6026913960400191505060405180910390fd5b6001600160a01b03808416600081815260046020908152604080832094871680845294825291829020859055815185815291517f8c5be1e5ebec7d5bd14f71427d1e84f3dd0314c0f7b2291e5b200ac8c7c3b9259281900390910190a3505050565b60008184841115610ada5760405162461bcd60e51b81526004018080602001828103825283818151815260200191508051906020019080838360005b83811015610a9f578181015183820152602001610a87565b50505050905090810190601f168015610acc5780820380516001836020036101000a031916815260200191505b509250505060405180910390fd5b505050900390565b6001600160a01b038316610b275760405162461bcd60e51b81526004018080602001828103825260298152602001806113a06029913960400191505060405180910390fd5b6001600160a01b038216610b6c5760405162461bcd60e51b81526004018080602001828103825260278152602001806113ec6027913960400191505060405180910390fd5b42610c6760008054906101000a90046001600160a01b03166001600160a01b031663352693156040518163ffffffff1660e01b815260040160206040518083038186803b158015610bbc57600080fd5b505afa158015610bd0573d6000803e3d6000fd5b505050506040513d6020811015610be657600080fd5b505160005460408051638b770e1160e01b81526001600160a01b03898116600483015291519190921691638b770e11916024808301926020929190829003018186803b158015610c3557600080fd5b505afa158015610c49573d6000803e3d6000fd5b505050506040513d6020811015610c5f57600080fd5b5051906112c6565b1115610ca45760405162461bcd60e51b815260040180806020018281038252602b815260200180611413602b913960400191505060405180910390fd5b600254604080516370a0823160e01b81526001600160a01b0386811660048301529151849392909216916370a0823191602480820192602092909190829003018186803b158015610cf457600080fd5b505afa158015610d08573d6000803e3d6000fd5b505050506040513d6020811015610d1e57600080fd5b50511015610d5d5760405162461bcd60e51b815260040180806020018281038252602681526020018061143e6026913960400191505060405180910390fd5b600354600080546040805163178fede760e01b81526001600160a01b038881166004830152928316602482015290519293919091169163178fede791604480820192602092909190829003018186803b158015610db957600080fd5b505afa158015610dcd573d6000803e3d6000fd5b505050506040513d6020811015610de357600080fd5b50516002546003546040805163178fede760e01b81526001600160a01b03898116600483015292831660248201529051939450600093919092169163178fede7916044808301926020929190829003018186803b158015610e4357600080fd5b505afa158015610e57573d6000803e3d6000fd5b505050506040513d6020811015610e6d57600080fd5b50519050828210801590610e815750828110155b610ebc5760405162461bcd60e51b81526004018080602001828103825260238152602001806113c96023913960400191505060405180910390fd5b6002546003546040805163098bf59d60e01b81526001600160a01b0389811660048301529283166024820152604481018790523060648201529051919092169163098bf59d91608480830192600092919082900301818387803b158015610f2257600080fd5b505af1158015610f36573d6000803e3d6000fd5b50506003546040805163a9059cbb60e01b81526001600160a01b038a8116600483015260248201899052915191909216935063a9059cbb925060448083019260209291908290030181600087803b158015610f9057600080fd5b505af1158015610fa4573d6000803e3d6000fd5b505050506040513d6020811015610fba57600080fd5b5050600354600080546040805163098bf59d60e01b81526001600160a01b038a811660048301529283166024820152604481018890523060648201529051919093169263098bf59d92608480830193919282900301818387803b15801561102057600080fd5b505af1158015611034573d6000803e3d6000fd5b5050600080546003546040805163095ea7b360e01b81526001600160a01b039283166004820152602481018a9052905191909216945063095ea7b3935060448083019360209383900390910190829087803b15801561109257600080fd5b505af11580156110a6573d6000803e3d6000fd5b505050506040513d60208110156110bc57600080fd5b50506003546000805460408051631e42d69b60e21b81523060048201526001600160a01b0389811660248301529283166044820152606481018890529051919093169263790b5a6c92608480830193919282900301818387803b15801561112257600080fd5b505af1158015611136573d6000803e3d6000fd5b50506003546002546040805163095ea7b360e01b81526001600160a01b03928316600482015260248101899052905191909216935063095ea7b3925060448083019260209291908290030181600087803b15801561119357600080fd5b505af11580156111a7573d6000803e3d6000fd5b505050506040513d60208110156111bd57600080fd5b505060025460035460408051631e42d69b60e21b81523060048201526001600160a01b0388811660248301529283166044820152606481018790529051919092169163790b5a6c91608480830192600092919082900301818387803b15801561122557600080fd5b505af1158015611239573d6000803e3d6000fd5b50506002546040805163a9059cbb60e01b81526001600160a01b03898116600483015260248201899052915191909216935063a9059cbb925060448083019260209291908290030181600087803b15801561129357600080fd5b505af11580156112a7573d6000803e3d6000fd5b505050506040513d60208110156112bd57600080fd5b50505050505050565b60008282018381101561131e576040805162461bcd60e51b815260206004820152601b60248201527a536166654d6174683a206164646974696f6e206f766572666c6f7760281b604482015290519081900360640190fd5b939250505056fe5374616b65645a6c703a20617070726f76652066726f6d20746865207a65726f20616464726573735374616b65645a6c703a20617070726f766520746f20746865207a65726f20616464726573735374616b65645a6c703a207472616e7366657220616d6f756e74206578636565647320616c6c6f77616e63655374616b65645a6c703a207472616e736665722066726f6d20746865207a65726f20616464726573735374616b65645a6c703a20696e636f6d706c657465207374616b696e6720737461636b5374616b65645a6c703a207472616e7366657220746f20746865207a65726f20616464726573735374616b65645a6c703a20636f6f6c646f776e206475726174696f6e206e6f7420796574207061737365645374616b65645a6c703a20696e73756666696369656e74207374616b65642062616c616e6365a2646970667358221220c75cceac100d604c6528757a7bb298dd8e695a0ff64e83d650b75d20072d23b364736f6c634300060c0033","linkReferences":{}},"methodIdentifiers":{"allowance(address,address)":"dd62ed3e","approve(address,uint256)":"095ea7b3","balanceOf(address)":"70a08231","decimals()":"313ce567","feeZlpTracker()":"84347a33","getStakingInfo(address)":"aa4704f3","isValidStaking(address)":"c625b23d","name()":"06fdde03","stakedZlpTracker()":"17988a6a","symbol()":"95d89b41","totalSupply()":"18160ddd","transfer(address,uint256)":"a9059cbb","transferFrom(address,address,uint256)":"23b872dd","zlp()":"fe9fe720","zlpManager()":"b6556599"},"id":83}