{"abi":[{"type":"constructor","inputs":[{"name":"_sender","type":"address","internalType":"address"},{"name":"_zlp","type":"address","internalType":"address"},{"name":"_stakedZlpTracker","type":"address","internalType":"address"},{"name":"_feeZlpTracker","type":"address","internalType":"address"}],"stateMutability":"nonpayable"},{"type":"function","name":"disable","inputs":[],"outputs":[],"stateMutability":"nonpayable"},{"type":"function","name":"feeZlpTracker","inputs":[],"outputs":[{"name":"","type":"address","internalType":"address"}],"stateMutability":"view"},{"type":"function","name":"gov","inputs":[],"outputs":[{"name":"","type":"address","internalType":"address"}],"stateMutability":"view"},{"type":"function","name":"isEnabled","inputs":[],"outputs":[{"name":"","type":"bool","internalType":"bool"}],"stateMutability":"view"},{"type":"function","name":"sender","inputs":[],"outputs":[{"name":"","type":"address","internalType":"address"}],"stateMutability":"view"},{"type":"function","name":"setGov","inputs":[{"name":"_gov","type":"address","internalType":"address"}],"outputs":[],"stateMutability":"nonpayable"},{"type":"function","name":"stakedZlpTracker","inputs":[],"outputs":[{"name":"","type":"address","internalType":"address"}],"stateMutability":"view"},{"type":"function","name":"transfer","inputs":[{"name":"_recipient","type":"address","internalType":"address"},{"name":"_amount","type":"uint256","internalType":"uint256"}],"outputs":[],"stateMutability":"nonpayable"},{"type":"function","name":"zlp","inputs":[],"outputs":[{"name":"","type":"address","internalType":"address"}],"stateMutability":"view"}],"bytecode":{"object":"0x60806040526004805460ff60a01b1916600160a01b17905534801561002357600080fd5b506040516109453803806109458339818101604052608081101561004657600080fd5b50805160208201516040830151606090930151600080546001600160a01b03199081163317909155600180546001600160a01b039586169083161790556002805493851693821693909317909255600380549484169483169490941790935560048054929093169116179055610884806100c16000396000f3fe608060405234801561001057600080fd5b50600436106100835760003560e01c806312d43a511461008857806317988a6a146100ac5780632f2770db146100b457806367e404ce146100be5780636aa633b6146100c657806384347a33146100e2578063a9059cbb146100ea578063cfad57a214610116578063fe9fe7201461013c575b600080fd5b610090610144565b604080516001600160a01b039092168252519081900360200190f35b610090610153565b6100bc610162565b005b6100906101c8565b6100ce6101d7565b604080519115158252519081900360200190f35b6100906101e7565b6100bc6004803603604081101561010057600080fd5b506001600160a01b0381351690602001356101f6565b6100bc6004803603602081101561012c57600080fd5b50356001600160a01b0316610268565b6100906102e1565b6000546001600160a01b031681565b6003546001600160a01b031681565b6000546001600160a01b031633146101b9576040805162461bcd60e51b815260206004820152601560248201527423b7bb32b93730b136329d103337b93134b23232b760591b604482015290519081900360640190fd5b6004805460ff60a01b19169055565b6001546001600160a01b031681565b600454600160a01b900460ff1681565b6004546001600160a01b031681565b6000546001600160a01b0316331461024d576040805162461bcd60e51b815260206004820152601560248201527423b7bb32b93730b136329d103337b93134b23232b760591b604482015290519081900360640190fd5b600154610264906001600160a01b031683836102f0565b5050565b6000546001600160a01b031633146102bf576040805162461bcd60e51b815260206004820152601560248201527423b7bb32b93730b136329d103337b93134b23232b760591b604482015290519081900360640190fd5b600080546001600160a01b0319166001600160a01b0392909216919091179055565b6002546001600160a01b031681565b600454600160a01b900460ff1661034e576040805162461bcd60e51b815260206004820152601e60248201527f5374616b65645a6c704d69677261746f723a206e6f7420656e61626c65640000604482015290519081900360640190fd5b6001600160a01b0383166103935760405162461bcd60e51b81526004018080602001828103825260318152602001806107ef6031913960400191505060405180910390fd5b6001600160a01b0382166103d85760405162461bcd60e51b815260040180806020018281038252602f815260200180610820602f913960400191505060405180910390fd5b600354600480546040805163098bf59d60e01b81526001600160a01b038881169482019490945291831660248301526044820185905230606483015251919092169163098bf59d91608480830192600092919082900301818387803b15801561044057600080fd5b505af1158015610454573d6000803e3d6000fd5b5050600480546040805163a9059cbb60e01b81526001600160a01b038981169482019490945260248101879052905192909116935063a9059cbb92506044808201926020929091908290030181600087803b1580156104b257600080fd5b505af11580156104c6573d6000803e3d6000fd5b505050506040513d60208110156104dc57600080fd5b5050600480546002546040805163098bf59d60e01b81526001600160a01b038881169582019590955291841660248301526044820185905230606483015251929091169163098bf59d9160848082019260009290919082900301818387803b15801561054757600080fd5b505af115801561055b573d6000803e3d6000fd5b5050600254600480546040805163095ea7b360e01b81526001600160a01b039283169381019390935260248301879052519216935063095ea7b392506044808201926020929091908290030181600087803b1580156105b957600080fd5b505af11580156105cd573d6000803e3d6000fd5b505050506040513d60208110156105e357600080fd5b50506004805460025460408051631e42d69b60e21b815230948101949094526001600160a01b0386811660248601529182166044850152606484018590525191169163790b5a6c91608480830192600092919082900301818387803b15801561064b57600080fd5b505af115801561065f573d6000803e3d6000fd5b5050600480546003546040805163095ea7b360e01b81526001600160a01b039283169481019490945260248401879052519116935063095ea7b3925060448083019260209291908290030181600087803b1580156106bc57600080fd5b505af11580156106d0573d6000803e3d6000fd5b505050506040513d60208110156106e657600080fd5b50506003546004805460408051631e42d69b60e21b815230938101939093526001600160a01b0386811660248501529182166044840152606483018590525192169163790b5a6c9160848082019260009290919082900301818387803b15801561074f57600080fd5b505af1158015610763573d6000803e3d6000fd5b50506003546040805163a9059cbb60e01b81526001600160a01b03878116600483015260248201879052915191909216935063a9059cbb925060448083019260209291908290030181600087803b1580156107bd57600080fd5b505af11580156107d1573d6000803e3d6000fd5b505050506040513d60208110156107e757600080fd5b505050505056fe5374616b65645a6c704d69677261746f723a207472616e736665722066726f6d20746865207a65726f20616464726573735374616b65645a6c704d69677261746f723a207472616e7366657220746f20746865207a65726f2061646472657373a26469706673582212207641fade3e4f9b7d70ea8648d85bae6c2279cb5783533e42bfe8bc554ad87e4864736f6c634300060c0033","linkReferences":{}},"methodIdentifiers":{"disable()":"2f2770db","feeZlpTracker()":"84347a33","gov()":"12d43a51","isEnabled()":"6aa633b6","sender()":"67e404ce","setGov(address)":"cfad57a2","stakedZlpTracker()":"17988a6a","transfer(address,uint256)":"a9059cbb","zlp()":"fe9fe720"},"id":130}