{"abi":[{"type":"constructor","inputs":[{"name":"_sender","type":"address","internalType":"address"},{"name":"_zlp","type":"address","internalType":"address"},{"name":"_stakedZlpTracker","type":"address","internalType":"address"},{"name":"_feeZlpTracker","type":"address","internalType":"address"}],"stateMutability":"nonpayable"},{"type":"function","name":"acceptGov","inputs":[],"outputs":[],"stateMutability":"nonpayable"},{"type":"function","name":"cancelGovProposal","inputs":[{"name":"_gov","type":"address","internalType":"address"}],"outputs":[],"stateMutability":"nonpayable"},{"type":"function","name":"disable","inputs":[],"outputs":[],"stateMutability":"nonpayable"},{"type":"function","name":"feeZlpTracker","inputs":[],"outputs":[{"name":"","type":"address","internalType":"address"}],"stateMutability":"view"},{"type":"function","name":"gov","inputs":[],"outputs":[{"name":"","type":"address","internalType":"address"}],"stateMutability":"view"},{"type":"function","name":"govProposals","inputs":[{"name":"","type":"address","internalType":"address"}],"outputs":[{"name":"deadline","type":"uint256","internalType":"uint256"},{"name":"isActive","type":"bool","internalType":"bool"}],"stateMutability":"view"},{"type":"function","name":"isEnabled","inputs":[],"outputs":[{"name":"","type":"bool","internalType":"bool"}],"stateMutability":"view"},{"type":"function","name":"sender","inputs":[],"outputs":[{"name":"","type":"address","internalType":"address"}],"stateMutability":"view"},{"type":"function","name":"setGov","inputs":[{"name":"_gov","type":"address","internalType":"address"}],"outputs":[],"stateMutability":"nonpayable"},{"type":"function","name":"setGovWithDeadline","inputs":[{"name":"_gov","type":"address","internalType":"address"},{"name":"_deadline","type":"uint256","internalType":"uint256"}],"outputs":[],"stateMutability":"nonpayable"},{"type":"function","name":"stakedZlpTracker","inputs":[],"outputs":[{"name":"","type":"address","internalType":"address"}],"stateMutability":"view"},{"type":"function","name":"transfer","inputs":[{"name":"_recipient","type":"address","internalType":"address"},{"name":"_amount","type":"uint256","internalType":"uint256"}],"outputs":[],"stateMutability":"nonpayable"},{"type":"function","name":"zlp","inputs":[],"outputs":[{"name":"","type":"address","internalType":"address"}],"stateMutability":"view"},{"type":"event","name":"GovProposalCanceled","inputs":[{"name":"proposedGov","type":"address","indexed":true,"internalType":"address"},{"name":"canceledBy","type":"address","indexed":true,"internalType":"address"}],"anonymous":false},{"type":"event","name":"GovernanceTransferRequested","inputs":[{"name":"newGov","type":"address","indexed":true,"internalType":"address"},{"name":"deadline","type":"uint256","indexed":false,"internalType":"uint256"}],"anonymous":false},{"type":"event","name":"GovernanceTransferred","inputs":[{"name":"oldGov","type":"address","indexed":true,"internalType":"address"},{"name":"newGov","type":"address","indexed":true,"internalType":"address"}],"anonymous":false}],"bytecode":{"object":"0x60806040526005805460ff60a01b1916600160a01b17905534801561002357600080fd5b50604051610e9f380380610e9f8339818101604052608081101561004657600080fd5b50805160208201516040830151606090930151600080546001600160a01b03199081163317909155600280546001600160a01b039586169083161790556003805493851693821693909317909255600480549484169483169490941790935560058054929093169116179055610dde806100c16000396000f3fe608060405234801561001057600080fd5b50600436106100af5760003560e01c806312d43a51146100b457806317988a6a146100d85780632f2770db146100e057806367e404ce146100ea5780636aa633b6146100f25780636bb22fd71461010e5780637bc6729b1461013a57806384347a33146101425780638d0fedb01461014a5780639c35b49714610189578063a9059cbb146101af578063cfad57a2146101db578063fe9fe72014610201575b600080fd5b6100bc610209565b604080516001600160a01b039092168252519081900360200190f35b6100bc610218565b6100e8610227565b005b6100bc610283565b6100fa610292565b604080519115158252519081900360200190f35b6100e86004803603604081101561012457600080fd5b506001600160a01b0381351690602001356102a2565b6100e86103b7565b6100bc6104cb565b6101706004803603602081101561016057600080fd5b50356001600160a01b03166104da565b6040805192835290151560208301528051918290030190f35b6100e86004803603602081101561019f57600080fd5b50356001600160a01b03166104f6565b6100e8600480360360408110156101c557600080fd5b506001600160a01b038135169060200135610607565b6100e8600480360360208110156101f157600080fd5b50356001600160a01b031661066b565b6100bc610781565b6000546001600160a01b031681565b6004546001600160a01b031681565b6000546001600160a01b03163314610274576040805162461bcd60e51b81526020600482015260156024820152600080516020610d38833981519152604482015290519081900360640190fd5b6005805460ff60a01b19169055565b6002546001600160a01b031681565b600554600160a01b900460ff1681565b6000546001600160a01b031633146102ef576040805162461bcd60e51b81526020600482015260156024820152600080516020610d38833981519152604482015290519081900360640190fd5b6001600160a01b038216610348576040805162461bcd60e51b815260206004820152601b60248201527a476f7665726e61626c653a20696e76616c6964206164647265737360281b604482015290519081900360640190fd5b6000546001600160a01b03838116911614156103a9576040805162461bcd60e51b815260206004820152601b60248201527a476f7665726e61626c653a2073616d6520676f7665726e616e636560281b604482015290519081900360640190fd5b6103b38282610790565b5050565b3360009081526001602052604090208054421061041a576040805162461bcd60e51b815260206004820152601c60248201527b11dbdd995c9b98589b194e88191958591b1a5b9948195e1c1a5c995960221b604482015290519081900360640190fd5b60018082015460ff161515146104615760405162461bcd60e51b8152600401808060200182810382526022815260200180610d586022913960400191505060405180910390fd5b6000805433808352600160208190526040808520858155909101805460ff1916905583546001600160a01b03191682178455516001600160a01b0390921692909183917f5f56bee8cffbe9a78652a74a60705edede02af10b0bbb888ca44b79a0d42ce8091a35050565b6005546001600160a01b031681565b6001602081905260009182526040909120805491015460ff1682565b6000546001600160a01b03163314610543576040805162461bcd60e51b81526020600482015260156024820152600080516020610d38833981519152604482015290519081900360640190fd5b6001600160a01b0381166000908152600160208190526040909120015460ff166105b4576040805162461bcd60e51b815260206004820152601f60248201527f476f7665726e61626c653a2070726f706f73616c206e6f742061637469766500604482015290519081900360640190fd5b6001600160a01b0381166000818152600160208190526040808320838155909101805460ff19169055513392917ffc6a2fa53abe2adfe8372a9495032d7e6458d3aed34fa880132b6c808da1e99c91a350565b6000546001600160a01b03163314610654576040805162461bcd60e51b81526020600482015260156024820152600080516020610d38833981519152604482015290519081900360640190fd5b6002546103b3906001600160a01b0316838361080b565b6000546001600160a01b031633146106b8576040805162461bcd60e51b81526020600482015260156024820152600080516020610d38833981519152604482015290519081900360640190fd5b6001600160a01b038116610711576040805162461bcd60e51b815260206004820152601b60248201527a476f7665726e61626c653a20696e76616c6964206164647265737360281b604482015290519081900360640190fd5b6000546001600160a01b0382811691161415610772576040805162461bcd60e51b815260206004820152601b60248201527a476f7665726e61626c653a2073616d6520676f7665726e616e636560281b604482015290519081900360640190fd5b61077e81600019610790565b50565b6003546001600160a01b031681565b604080518082018252828152600160208083018281526001600160a01b038716600081815284845286902094518555905193909201805460ff1916931515939093179092558251848152925190927f02dd0697be46e764c3ba81094158781c31b235d03bb27a0daf1bdef0ec1084dd92908290030190a25050565b600554600160a01b900460ff16610869576040805162461bcd60e51b815260206004820152601e60248201527f5374616b65645a6c704d69677261746f723a206e6f7420656e61626c65640000604482015290519081900360640190fd5b6001600160a01b0383166108ae5760405162461bcd60e51b8152600401808060200182810382526031815260200180610d076031913960400191505060405180910390fd5b6001600160a01b0382166108f35760405162461bcd60e51b815260040180806020018281038252602f815260200180610d7a602f913960400191505060405180910390fd5b600480546005546040805163098bf59d60e01b81526001600160a01b038881169582019590955291841660248301526044820185905230606483015251929091169163098bf59d9160848082019260009290919082900301818387803b15801561095c57600080fd5b505af1158015610970573d6000803e3d6000fd5b50506005546040805163a9059cbb60e01b81526001600160a01b03888116600483015260248201879052915191909216935063a9059cbb925060448083019260209291908290030181600087803b1580156109ca57600080fd5b505af11580156109de573d6000803e3d6000fd5b505050506040513d60208110156109f457600080fd5b50506005546003546040805163098bf59d60e01b81526001600160a01b0387811660048301529283166024820152604481018590523060648201529051919092169163098bf59d91608480830192600092919082900301818387803b158015610a5c57600080fd5b505af1158015610a70573d6000803e3d6000fd5b50506003546005546040805163095ea7b360e01b81526001600160a01b03928316600482015260248101879052905191909216935063095ea7b3925060448083019260209291908290030181600087803b158015610acd57600080fd5b505af1158015610ae1573d6000803e3d6000fd5b505050506040513d6020811015610af757600080fd5b505060055460035460408051631e42d69b60e21b81523060048201526001600160a01b0386811660248301529283166044820152606481018590529051919092169163790b5a6c91608480830192600092919082900301818387803b158015610b5f57600080fd5b505af1158015610b73573d6000803e3d6000fd5b5050600554600480546040805163095ea7b360e01b81526001600160a01b039283169381019390935260248301879052519216935063095ea7b392506044808201926020929091908290030181600087803b158015610bd157600080fd5b505af1158015610be5573d6000803e3d6000fd5b505050506040513d6020811015610bfb57600080fd5b50506004805460055460408051631e42d69b60e21b815230948101949094526001600160a01b0386811660248601529182166044850152606484018590525191169163790b5a6c91608480830192600092919082900301818387803b158015610c6357600080fd5b505af1158015610c77573d6000803e3d6000fd5b5050600480546040805163a9059cbb60e01b81526001600160a01b038881169482019490945260248101879052905192909116935063a9059cbb92506044808201926020929091908290030181600087803b158015610cd557600080fd5b505af1158015610ce9573d6000803e3d6000fd5b505050506040513d6020811015610cff57600080fd5b505050505056fe5374616b65645a6c704d69677261746f723a207472616e736665722066726f6d20746865207a65726f2061646472657373476f7665726e61626c653a20666f7262696464656e0000000000000000000000476f7665726e61626c653a2070726f706f73616c206973206e6f74206163746976655374616b65645a6c704d69677261746f723a207472616e7366657220746f20746865207a65726f2061646472657373a26469706673582212202d129c7863e6ea36cc9afb48d05c2e82532fe63db90eaf67e85dd58ea31eb8f064736f6c634300060c0033","linkReferences":{}},"methodIdentifiers":{"acceptGov()":"7bc6729b","cancelGovProposal(address)":"9c35b497","disable()":"2f2770db","feeZlpTracker()":"84347a33","gov()":"12d43a51","govProposals(address)":"8d0fedb0","isEnabled()":"6aa633b6","sender()":"67e404ce","setGov(address)":"cfad57a2","setGovWithDeadline(address,uint256)":"6bb22fd7","stakedZlpTracker()":"17988a6a","transfer(address,uint256)":"a9059cbb","zlp()":"fe9fe720"},"id":89}