{"abi":[{"type":"constructor","inputs":[{"name":"_addresses","type":"address[]","internalType":"address[]"}],"stateMutability":"nonpayable"},{"type":"function","name":"bnb","inputs":[],"outputs":[{"name":"","type":"address","internalType":"address"}],"stateMutability":"view"},{"type":"function","name":"bnbBusdPair","inputs":[],"outputs":[{"name":"","type":"address","internalType":"address"}],"stateMutability":"view"},{"type":"function","name":"btc","inputs":[],"outputs":[{"name":"","type":"address","internalType":"address"}],"stateMutability":"view"},{"type":"function","name":"btcBnbPair","inputs":[],"outputs":[{"name":"","type":"address","internalType":"address"}],"stateMutability":"view"},{"type":"function","name":"busd","inputs":[],"outputs":[{"name":"","type":"address","internalType":"address"}],"stateMutability":"view"},{"type":"function","name":"getPair","inputs":[{"name":"tokenA","type":"address","internalType":"address"},{"name":"tokenB","type":"address","internalType":"address"}],"outputs":[{"name":"","type":"address","internalType":"address"}],"stateMutability":"view"}],"bytecode":{"object":"0x608060405234801561001057600080fd5b506040516104183803806104188339818101604052602081101561003357600080fd5b810190808051604051939291908464010000000082111561005357600080fd5b90830190602082018581111561006857600080fd5b825186602082028301116401000000008211171561008557600080fd5b82525081516020918201928201910280838360005b838110156100b257818101518382015260200161009a565b50505050905001604052505050806000815181106100cc57fe5b60200260200101516000806101000a8154816001600160a01b0302191690836001600160a01b031602179055508060018151811061010657fe5b6020026020010151600160006101000a8154816001600160a01b0302191690836001600160a01b031602179055508060028151811061014157fe5b6020026020010151600260006101000a8154816001600160a01b0302191690836001600160a01b031602179055508060038151811061017c57fe5b6020026020010151600360006101000a8154816001600160a01b0302191690836001600160a01b03160217905550806004815181106101b757fe5b6020026020010151600460006101000a8154816001600160a01b0302191690836001600160a01b0316021790555050610223806101f56000396000f3fe608060405234801561001057600080fd5b50600436106100625760003560e01c80633ca5b2341461006757806349a876e41461008b578063a28d57d814610093578063e6a439051461009b578063f4a68087146100c9578063fddc93ca146100d1575b600080fd5b61006f6100d9565b604080516001600160a01b039092168252519081900360200190f35b61006f6100e8565b61006f6100f7565b61006f600480360360408110156100b157600080fd5b506001600160a01b0381358116916020013516610106565b61006f6101cf565b61006f6101de565b6002546001600160a01b031681565b6001546001600160a01b031681565b6000546001600160a01b031681565b6002546000906001600160a01b03848116911614801561013357506001546001600160a01b038381169116145b1561014a57506003546001600160a01b03166101c9565b6001546001600160a01b03848116911614801561017457506000546001600160a01b038381169116145b1561018b57506004546001600160a01b03166101c9565b6040805162461bcd60e51b815260206004820152600e60248201526d496e76616c696420746f6b656e7360901b604482015290519081900360640190fd5b92915050565b6004546001600160a01b031681565b6003546001600160a01b03168156fea26469706673582212203eda7f59e04c95485781ecb645119e83b100573a8096529fdce345ad498a3a4764736f6c634300060c0033","linkReferences":{}},"methodIdentifiers":{"bnb()":"49a876e4","bnbBusdPair()":"fddc93ca","btc()":"a28d57d8","btcBnbPair()":"f4a68087","busd()":"3ca5b234","getPair(address,address)":"e6a43905"},"id":32}