{"abi":[{"type":"constructor","inputs":[{"name":"name","type":"string","internalType":"string"},{"name":"symbol","type":"string","internalType":"string"}],"stateMutability":"nonpayable"},{"type":"function","name":"approve","inputs":[{"name":"to","type":"address","internalType":"address"},{"name":"tokenId","type":"uint256","internalType":"uint256"}],"outputs":[],"stateMutability":"nonpayable"},{"type":"function","name":"balanceOf","inputs":[{"name":"owner","type":"address","internalType":"address"}],"outputs":[{"name":"","type":"uint256","internalType":"uint256"}],"stateMutability":"view"},{"type":"function","name":"baseURI","inputs":[],"outputs":[{"name":"","type":"string","internalType":"string"}],"stateMutability":"view"},{"type":"function","name":"getApproved","inputs":[{"name":"tokenId","type":"uint256","internalType":"uint256"}],"outputs":[{"name":"","type":"address","internalType":"address"}],"stateMutability":"view"},{"type":"function","name":"isApprovedForAll","inputs":[{"name":"owner","type":"address","internalType":"address"},{"name":"operator","type":"address","internalType":"address"}],"outputs":[{"name":"","type":"bool","internalType":"bool"}],"stateMutability":"view"},{"type":"function","name":"mint","inputs":[{"name":"to","type":"address","internalType":"address"},{"name":"tokenId","type":"uint256","internalType":"uint256"}],"outputs":[],"stateMutability":"nonpayable"},{"type":"function","name":"name","inputs":[],"outputs":[{"name":"","type":"string","internalType":"string"}],"stateMutability":"view"},{"type":"function","name":"ownerOf","inputs":[{"name":"tokenId","type":"uint256","internalType":"uint256"}],"outputs":[{"name":"","type":"address","internalType":"address"}],"stateMutability":"view"},{"type":"function","name":"safeTransferFrom","inputs":[{"name":"from","type":"address","internalType":"address"},{"name":"to","type":"address","internalType":"address"},{"name":"tokenId","type":"uint256","internalType":"uint256"}],"outputs":[],"stateMutability":"nonpayable"},{"type":"function","name":"safeTransferFrom","inputs":[{"name":"from","type":"address","internalType":"address"},{"name":"to","type":"address","internalType":"address"},{"name":"tokenId","type":"uint256","internalType":"uint256"},{"name":"_data","type":"bytes","internalType":"bytes"}],"outputs":[],"stateMutability":"nonpayable"},{"type":"function","name":"setApprovalForAll","inputs":[{"name":"operator","type":"address","internalType":"address"},{"name":"approved","type":"bool","internalType":"bool"}],"outputs":[],"stateMutability":"nonpayable"},{"type":"function","name":"supportsInterface","inputs":[{"name":"interfaceId","type":"bytes4","internalType":"bytes4"}],"outputs":[{"name":"","type":"bool","internalType":"bool"}],"stateMutability":"view"},{"type":"function","name":"symbol","inputs":[],"outputs":[{"name":"","type":"string","internalType":"string"}],"stateMutability":"view"},{"type":"function","name":"tokenByIndex","inputs":[{"name":"index","type":"uint256","internalType":"uint256"}],"outputs":[{"name":"","type":"uint256","internalType":"uint256"}],"stateMutability":"view"},{"type":"function","name":"tokenOfOwnerByIndex","inputs":[{"name":"owner","type":"address","internalType":"address"},{"name":"index","type":"uint256","internalType":"uint256"}],"outputs":[{"name":"","type":"uint256","internalType":"uint256"}],"stateMutability":"view"},{"type":"function","name":"tokenURI","inputs":[{"name":"tokenId","type":"uint256","internalType":"uint256"}],"outputs":[{"name":"","type":"string","internalType":"string"}],"stateMutability":"view"},{"type":"function","name":"totalSupply","inputs":[],"outputs":[{"name":"","type":"uint256","internalType":"uint256"}],"stateMutability":"view"},{"type":"function","name":"transferFrom","inputs":[{"name":"from","type":"address","internalType":"address"},{"name":"to","type":"address","internalType":"address"},{"name":"tokenId","type":"uint256","internalType":"uint256"}],"outputs":[],"stateMutability":"nonpayable"},{"type":"event","name":"Approval","inputs":[{"name":"owner","type":"address","indexed":true,"internalType":"address"},{"name":"approved","type":"address","indexed":true,"internalType":"address"},{"name":"tokenId","type":"uint256","indexed":true,"internalType":"uint256"}],"anonymous":false},{"type":"event","name":"ApprovalForAll","inputs":[{"name":"owner","type":"address","indexed":true,"internalType":"address"},{"name":"operator","type":"address","indexed":true,"internalType":"address"},{"name":"approved","type":"bool","indexed":false,"internalType":"bool"}],"anonymous":false},{"type":"event","name":"Transfer","inputs":[{"name":"from","type":"address","indexed":true,"internalType":"address"},{"name":"to","type":"address","indexed":true,"internalType":"address"},{"name":"tokenId","type":"uint256","indexed":true,"internalType":"uint256"}],"anonymous":false}],"bytecode":{"object":"0x60806040523480156200001157600080fd5b5060405162001e4138038062001e41833981810160405260408110156200003757600080fd5b81019080805160405193929190846401000000008211156200005857600080fd5b9083019060208201858111156200006e57600080fd5b82516401000000008111828201881017156200008957600080fd5b82525081516020918201929091019080838360005b83811015620000b85781810151838201526020016200009e565b50505050905090810190601f168015620000e65780820380516001836020036101000a031916815260200191505b50604052602001805160405193929190846401000000008211156200010a57600080fd5b9083019060208201858111156200012057600080fd5b82516401000000008111828201881017156200013b57600080fd5b82525081516020918201929091019080838360005b838110156200016a57818101518382015260200162000150565b50505050905090810190601f168015620001985780820380516001836020036101000a031916815260200191505b5060405250620001b391506301ffc9a760e01b90506200021d565b8151620001c8906006906020850190620002a2565b508051620001de906007906020840190620002a2565b50620001f16380ac58cd60e01b6200021d565b62000203635b5e139f60e01b6200021d565b6200021563780e9d6360e01b6200021d565b50506200033e565b6001600160e01b031980821614156200027d576040805162461bcd60e51b815260206004820152601c60248201527f4552433136353a20696e76616c696420696e7465726661636520696400000000604482015290519081900360640190fd5b6001600160e01b0319166000908152602081905260409020805460ff19166001179055565b828054600181600116156101000203166002900490600052602060002090601f016020900481019282601f10620002e557805160ff191683800117855562000315565b8280016001018555821562000315579182015b8281111562000315578251825591602001919060010190620002f8565b506200032392915062000327565b5090565b5b8082111562000323576000815560010162000328565b611af3806200034e6000396000f3fe608060405234801561001057600080fd5b50600436106100e65760003560e01c806301ffc9a7146100eb57806306fdde0314610126578063081812fc146101a3578063095ea7b3146101dc57806318160ddd1461020a57806323b872dd146102245780632f745c591461025a57806340c10f191461028657806342842e0e146102b25780634f6ccce7146102e85780636352211e146103055780636c0360eb1461032257806370a082311461032a57806395d89b4114610350578063a22cb46514610358578063b88d4fde14610386578063c87b56dd1461044a578063e985e9c514610467575b600080fd5b6101126004803603602081101561010157600080fd5b50356001600160e01b031916610495565b604080519115158252519081900360200190f35b61012e6104b8565b6040805160208082528351818301528351919283929083019185019080838360005b83811015610168578181015183820152602001610150565b50505050905090810190601f1680156101955780820380516001836020036101000a031916815260200191505b509250505060405180910390f35b6101c0600480360360208110156101b957600080fd5b503561054e565b604080516001600160a01b039092168252519081900360200190f35b610208600480360360408110156101f257600080fd5b506001600160a01b0381351690602001356105b0565b005b61021261068b565b60408051918252519081900360200190f35b6102086004803603606081101561023a57600080fd5b506001600160a01b0381358116916020810135909116906040013561069c565b6102126004803603604081101561027057600080fd5b506001600160a01b0381351690602001356106f3565b6102086004803603604081101561029c57600080fd5b506001600160a01b03813516906020013561071e565b610208600480360360608110156102c857600080fd5b506001600160a01b0381358116916020810135909116906040013561072c565b610212600480360360208110156102fe57600080fd5b5035610747565b6101c06004803603602081101561031b57600080fd5b503561075d565b61012e610785565b6102126004803603602081101561034057600080fd5b50356001600160a01b03166107e6565b61012e61084e565b6102086004803603604081101561036e57600080fd5b506001600160a01b03813516906020013515156108af565b6102086004803603608081101561039c57600080fd5b6001600160a01b03823581169260208101359091169160408201359190810190608081016060820135600160201b8111156103d657600080fd5b8201836020820111156103e857600080fd5b803590602001918460018302840111600160201b8311171561040957600080fd5b91908080601f0160208091040260200160405190810160405280939291908181526020018383808284376000920191909152509295506109b0945050505050565b61012e6004803603602081101561046057600080fd5b5035610a0e565b6101126004803603604081101561047d57600080fd5b506001600160a01b0381358116916020013516610cb5565b6001600160e01b0319811660009081526020819052604090205460ff165b919050565b60068054604080516020601f60026000196101006001881615020190951694909404938401819004810282018101909252828152606093909290918301828280156105445780601f1061051957610100808354040283529160200191610544565b820191906000526020600020905b81548152906001019060200180831161052757829003601f168201915b5050505050905090565b600061055982610ce3565b6105945760405162461bcd60e51b815260040180806020018281038252602c8152602001806119e8602c913960400191505060405180910390fd5b506000908152600460205260409020546001600160a01b031690565b60006105bb8261075d565b9050806001600160a01b0316836001600160a01b0316141561060e5760405162461bcd60e51b8152600401808060200182810382526021815260200180611a6c6021913960400191505060405180910390fd5b806001600160a01b0316610620610cf0565b6001600160a01b0316148061064157506106418161063c610cf0565b610cb5565b61067c5760405162461bcd60e51b815260040180806020018281038252603881526020018061193b6038913960400191505060405180910390fd5b6106868383610cf4565b505050565b60006106976002610d62565b905090565b6106ad6106a7610cf0565b82610d6d565b6106e85760405162461bcd60e51b8152600401808060200182810382526031815260200180611a8d6031913960400191505060405180910390fd5b610686838383610e11565b6001600160a01b03821660009081526001602052604081206107159083610f5d565b90505b92915050565b6107288282610f69565b5050565b610686838383604051806020016040528060008152506109b0565b600080610755600284611096565b509392505050565b60006107188260405180606001604052806029815260200161199d60299139600291906110b2565b60098054604080516020601f60026000196101006001881615020190951694909404938401819004810282018101909252828152606093909290918301828280156105445780601f1061051957610100808354040283529160200191610544565b60006001600160a01b03821661082d5760405162461bcd60e51b815260040180806020018281038252602a815260200180611973602a913960400191505060405180910390fd5b6001600160a01b038216600090815260016020526040902061071890610d62565b60078054604080516020601f60026000196101006001881615020190951694909404938401819004810282018101909252828152606093909290918301828280156105445780601f1061051957610100808354040283529160200191610544565b6108b7610cf0565b6001600160a01b0316826001600160a01b03161415610919576040805162461bcd60e51b815260206004820152601960248201527822a9219b99189d1030b8383937bb32903a379031b0b63632b960391b604482015290519081900360640190fd5b8060056000610926610cf0565b6001600160a01b03908116825260208083019390935260409182016000908120918716808252919093529120805460ff19169215159290921790915561096a610cf0565b6001600160a01b03167f17307eab39ab6107e8899845ad3d59bd9653f200f220920489ca2b5937696c318360405180821515815260200191505060405180910390a35050565b6109c16109bb610cf0565b83610d6d565b6109fc5760405162461bcd60e51b8152600401808060200182810382526031815260200180611a8d6031913960400191505060405180910390fd5b610a08848484846110c9565b50505050565b6060610a1982610ce3565b610a545760405162461bcd60e51b815260040180806020018281038252602f815260200180611a3d602f913960400191505060405180910390fd5b60008281526008602090815260409182902080548351601f6002600019610100600186161502019093169290920491820184900484028101840190945280845260609392830182828015610ae95780601f10610abe57610100808354040283529160200191610ae9565b820191906000526020600020905b815481529060010190602001808311610acc57829003601f168201915b505060095493945050505060026000196101006001841615020190911604610b125790506104b3565b805115610be3576009816040516020018083805460018160011615610100020316600290048015610b7a5780601f10610b58576101008083540402835291820191610b7a565b820191906000526020600020905b815481529060010190602001808311610b66575b5050825160208401908083835b60208310610ba65780518252601f199092019160209182019101610b87565b6001836020036101000a038019825116818451168082178552505050505050905001925050506040516020818303038152906040529150506104b3565b6009610bee8461111b565b6040516020018083805460018160011615610100020316600290048015610c4c5780601f10610c2a576101008083540402835291820191610c4c565b820191906000526020600020905b815481529060010190602001808311610c38575b5050825160208401908083835b60208310610c785780518252601f199092019160209182019101610c59565b6001836020036101000a03801982511681845116808217855250505050505090500192505050604051602081830303815290604052915050919050565b6001600160a01b03918216600090815260056020908152604080832093909416825291909152205460ff1690565b60006107186002836111f6565b3390565b600081815260046020526040902080546001600160a01b0319166001600160a01b0384169081179091558190610d298261075d565b6001600160a01b03167f8c5be1e5ebec7d5bd14f71427d1e84f3dd0314c0f7b2291e5b200ac8c7c3b92560405160405180910390a45050565b600061071882611202565b6000610d7882610ce3565b610db35760405162461bcd60e51b815260040180806020018281038252602c81526020018061190f602c913960400191505060405180910390fd5b6000610dbe8361075d565b9050806001600160a01b0316846001600160a01b03161480610df95750836001600160a01b0316610dee8461054e565b6001600160a01b0316145b80610e095750610e098185610cb5565b949350505050565b826001600160a01b0316610e248261075d565b6001600160a01b031614610e695760405162461bcd60e51b8152600401808060200182810382526029815260200180611a146029913960400191505060405180910390fd5b6001600160a01b038216610eae5760405162461bcd60e51b81526004018080602001828103825260248152602001806118eb6024913960400191505060405180910390fd5b610eb9838383610686565b610ec4600082610cf4565b6001600160a01b0383166000908152600160205260409020610ee69082611206565b506001600160a01b0382166000908152600160205260409020610f099082611212565b50610f166002828461121e565b5080826001600160a01b0316846001600160a01b03167fddf252ad1be2c89b69c2b068fc378daa952ba7f163c4a11628f55a4df523b3ef60405160405180910390a4505050565b60006107158383611234565b6001600160a01b038216610fc4576040805162461bcd60e51b815260206004820181905260248201527f4552433732313a206d696e7420746f20746865207a65726f2061646472657373604482015290519081900360640190fd5b610fcd81610ce3565b1561101e576040805162461bcd60e51b815260206004820152601c60248201527b115490cdcc8c4e881d1bdad95b88185b1c9958591e481b5a5b9d195960221b604482015290519081900360640190fd5b61102a60008383610686565b6001600160a01b038216600090815260016020526040902061104c9082611212565b506110596002828461121e565b5060405181906001600160a01b038416906000907fddf252ad1be2c89b69c2b068fc378daa952ba7f163c4a11628f55a4df523b3ef908290a45050565b60008080806110a58686611298565b9097909650945050505050565b60006110bf848484611313565b90505b9392505050565b6110d4848484610e11565b6110e0848484846113dd565b610a085760405162461bcd60e51b81526004018080602001828103825260328152602001806118b96032913960400191505060405180910390fd5b60608161114057506040805180820190915260018152600360fc1b60208201526104b3565b8160005b811561115857600101600a82049150611144565b60608167ffffffffffffffff8111801561117157600080fd5b506040519080825280601f01601f19166020018201604052801561119c576020820181803683370190505b50859350905060001982015b83156111ed57600a840660300160f81b828280600190039350815181106111cb57fe5b60200101906001600160f81b031916908160001a905350600a840493506111a8565b50949350505050565b60006107158383611545565b5490565b6000610715838361155d565b60006107158383611623565b60006110bf84846001600160a01b03851661166d565b815460009082106112765760405162461bcd60e51b81526004018080602001828103825260228152602001806118976022913960400191505060405180910390fd5b82600001828154811061128557fe5b9060005260206000200154905092915050565b8154600090819083106112dc5760405162461bcd60e51b81526004018080602001828103825260228152602001806119c66022913960400191505060405180910390fd5b60008460000184815481106112ed57fe5b906000526020600020906002020190508060000154816001015492509250509250929050565b600082815260018401602052604081205482816113ae5760405162461bcd60e51b81526004018080602001828103825283818151815260200191508051906020019080838360005b8381101561137357818101518382015260200161135b565b50505050905090810190601f1680156113a05780820380516001836020036101000a031916815260200191505b509250505060405180910390fd5b508460000160018203815481106113c157fe5b9060005260206000209060020201600101549150509392505050565b60006113f1846001600160a01b0316611704565b6113fd57506001610e09565b606061150b630a85bd0160e11b611412610cf0565b88878760405160240180856001600160a01b03168152602001846001600160a01b0316815260200183815260200180602001828103825283818151815260200191508051906020019080838360005b83811015611479578181015183820152602001611461565b50505050905090810190601f1680156114a65780820380516001836020036101000a031916815260200191505b5095505050505050604051602081830303815290604052906001600160e01b0319166020820180516001600160e01b0383818316178352505050506040518060600160405280603281526020016118b9603291396001600160a01b038816919061170a565b9050600081806020019051602081101561152457600080fd5b50516001600160e01b031916630a85bd0160e11b1492505050949350505050565b60009081526001919091016020526040902054151590565b60008181526001830160205260408120548015611619578354600019808301919081019060009087908390811061159057fe5b90600052602060002001549050808760000184815481106115ad57fe5b6000918252602080832090910192909255828152600189810190925260409020908401905586548790806115dd57fe5b60019003818190600052602060002001600090559055866001016000878152602001908152602001600020600090556001945050505050610718565b6000915050610718565b600061162f8383611545565b61166557508154600181810184556000848152602080822090930184905584548482528286019093526040902091909155610718565b506000610718565b6000828152600184016020526040812054806116d25750506040805180820182528381526020808201848152865460018181018955600089815284812095516002909302909501918255915190820155865486845281880190925292909120556110c2565b828560000160018303815481106116e557fe5b90600052602060002090600202016001018190555060009150506110c2565b3b151590565b60606110bf84846000858561171e85611704565b61176f576040805162461bcd60e51b815260206004820152601d60248201527f416464726573733a2063616c6c20746f206e6f6e2d636f6e7472616374000000604482015290519081900360640190fd5b60006060866001600160a01b031685876040518082805190602001908083835b602083106117ae5780518252601f19909201916020918201910161178f565b6001836020036101000a03801982511681845116808217855250505050505090500191505060006040518083038185875af1925050503d8060008114611810576040519150601f19603f3d011682016040523d82523d6000602084013e611815565b606091505b5091509150611825828286611830565b979650505050505050565b6060831561183f5750816110c2565b82511561184f5782518084602001fd5b60405162461bcd60e51b815260206004820181815284516024840152845185939192839260440191908501908083836000831561137357818101518382015260200161135b56fe456e756d657261626c655365743a20696e646578206f7574206f6620626f756e64734552433732313a207472616e7366657220746f206e6f6e20455243373231526563656976657220696d706c656d656e7465724552433732313a207472616e7366657220746f20746865207a65726f20616464726573734552433732313a206f70657261746f7220717565727920666f72206e6f6e6578697374656e7420746f6b656e4552433732313a20617070726f76652063616c6c6572206973206e6f74206f776e6572206e6f7220617070726f76656420666f7220616c6c4552433732313a2062616c616e636520717565727920666f7220746865207a65726f20616464726573734552433732313a206f776e657220717565727920666f72206e6f6e6578697374656e7420746f6b656e456e756d657261626c654d61703a20696e646578206f7574206f6620626f756e64734552433732313a20617070726f76656420717565727920666f72206e6f6e6578697374656e7420746f6b656e4552433732313a207472616e73666572206f6620746f6b656e2074686174206973206e6f74206f776e4552433732314d657461646174613a2055524920717565727920666f72206e6f6e6578697374656e7420746f6b656e4552433732313a20617070726f76616c20746f2063757272656e74206f776e65724552433732313a207472616e736665722063616c6c6572206973206e6f74206f776e6572206e6f7220617070726f766564a264697066735822122045c8447c1d99e6872a7b69fc507b55c90702826171261bf094f05b0909f7388a64736f6c634300060c0033","linkReferences":{}},"methodIdentifiers":{"approve(address,uint256)":"095ea7b3","balanceOf(address)":"70a08231","baseURI()":"6c0360eb","getApproved(uint256)":"081812fc","isApprovedForAll(address,address)":"e985e9c5","mint(address,uint256)":"40c10f19","name()":"06fdde03","ownerOf(uint256)":"6352211e","safeTransferFrom(address,address,uint256)":"42842e0e","safeTransferFrom(address,address,uint256,bytes)":"b88d4fde","setApprovalForAll(address,bool)":"a22cb465","supportsInterface(bytes4)":"01ffc9a7","symbol()":"95d89b41","tokenByIndex(uint256)":"4f6ccce7","tokenOfOwnerByIndex(address,uint256)":"2f745c59","tokenURI(uint256)":"c87b56dd","totalSupply()":"18160ddd","transferFrom(address,address,uint256)":"23b872dd"},"id":75}