{"abi":[{"type":"constructor","inputs":[{"name":"_rewardToken","type":"address","internalType":"address"},{"name":"_rewardTracker","type":"address","internalType":"address"}],"stateMutability":"nonpayable"},{"type":"function","name":"acceptGov","inputs":[],"outputs":[],"stateMutability":"nonpayable"},{"type":"function","name":"admin","inputs":[],"outputs":[{"name":"","type":"address","internalType":"address"}],"stateMutability":"view"},{"type":"function","name":"cancelGovProposal","inputs":[{"name":"_gov","type":"address","internalType":"address"}],"outputs":[],"stateMutability":"nonpayable"},{"type":"function","name":"distribute","inputs":[],"outputs":[{"name":"","type":"uint256","internalType":"uint256"}],"stateMutability":"nonpayable"},{"type":"function","name":"gov","inputs":[],"outputs":[{"name":"","type":"address","internalType":"address"}],"stateMutability":"view"},{"type":"function","name":"govProposals","inputs":[{"name":"","type":"address","internalType":"address"}],"outputs":[{"name":"deadline","type":"uint256","internalType":"uint256"},{"name":"isActive","type":"bool","internalType":"bool"}],"stateMutability":"view"},{"type":"function","name":"lastDistributionTime","inputs":[],"outputs":[{"name":"","type":"uint256","internalType":"uint256"}],"stateMutability":"view"},{"type":"function","name":"pendingRewards","inputs":[],"outputs":[{"name":"","type":"uint256","internalType":"uint256"}],"stateMutability":"view"},{"type":"function","name":"rewardToken","inputs":[],"outputs":[{"name":"","type":"address","internalType":"address"}],"stateMutability":"view"},{"type":"function","name":"rewardTracker","inputs":[],"outputs":[{"name":"","type":"address","internalType":"address"}],"stateMutability":"view"},{"type":"function","name":"setAdmin","inputs":[{"name":"_admin","type":"address","internalType":"address"}],"outputs":[],"stateMutability":"nonpayable"},{"type":"function","name":"setGov","inputs":[{"name":"_gov","type":"address","internalType":"address"}],"outputs":[],"stateMutability":"nonpayable"},{"type":"function","name":"setGovWithDeadline","inputs":[{"name":"_gov","type":"address","internalType":"address"},{"name":"_deadline","type":"uint256","internalType":"uint256"}],"outputs":[],"stateMutability":"nonpayable"},{"type":"function","name":"setTokensPerInterval","inputs":[{"name":"_amount","type":"uint256","internalType":"uint256"}],"outputs":[],"stateMutability":"nonpayable"},{"type":"function","name":"tokensPerInterval","inputs":[],"outputs":[{"name":"","type":"uint256","internalType":"uint256"}],"stateMutability":"view"},{"type":"function","name":"updateLastDistributionTime","inputs":[],"outputs":[],"stateMutability":"nonpayable"},{"type":"function","name":"withdrawTokensOrETH","inputs":[{"name":"_tokenOrZero","type":"address","internalType":"address"},{"name":"_account","type":"address","internalType":"address"},{"name":"_amount","type":"uint256","internalType":"uint256"}],"outputs":[],"stateMutability":"nonpayable"},{"type":"event","name":"Distribute","inputs":[{"name":"amount","type":"uint256","indexed":false,"internalType":"uint256"}],"anonymous":false},{"type":"event","name":"GovProposalCanceled","inputs":[{"name":"proposedGov","type":"address","indexed":true,"internalType":"address"},{"name":"canceledBy","type":"address","indexed":true,"internalType":"address"}],"anonymous":false},{"type":"event","name":"GovernanceTransferRequested","inputs":[{"name":"newGov","type":"address","indexed":true,"internalType":"address"},{"name":"deadline","type":"uint256","indexed":false,"internalType":"uint256"}],"anonymous":false},{"type":"event","name":"GovernanceTransferred","inputs":[{"name":"oldGov","type":"address","indexed":true,"internalType":"address"},{"name":"newGov","type":"address","indexed":true,"internalType":"address"}],"anonymous":false},{"type":"event","name":"TokensPerIntervalChange","inputs":[{"name":"amount","type":"uint256","indexed":false,"internalType":"uint256"}],"anonymous":false}],"bytecode":{"object":"0x608060405234801561001057600080fd5b5060405161135b38038061135b8339818101604052604081101561003357600080fd5b50805160209091015160018054336001600160a01b031991821681179092556003805482166001600160a01b039586161790556006805482169490931693909317909155600780549092161790556112cb806100906000396000f3fe608060405234801561001057600080fd5b50600436106100db5760003560e01c806312d43a51146100e057806318e20a03146101045780633ae6d6eb1461012357806356edcea21461012b5780636bb22fd7146101615780636bcb411a1461018d578063704b6c021461019557806375b17350146101bb5780637bc6729b146101d55780638d0fedb0146101dd5780639c35b4971461021c578063a8d9362714610242578063cfad57a21461024a578063e4fc6b6d14610270578063eded3fda14610278578063f7c618c114610280578063f851a44014610288575b600080fd5b6100e8610290565b604080516001600160a01b039092168252519081900360200190f35b6101216004803603602081101561011a57600080fd5b503561029f565b005b6101216103de565b6101216004803603606081101561014157600080fd5b506001600160a01b03813581169160208101359091169060400135610442565b6101216004803603604081101561017757600080fd5b506001600160a01b038135169060200135610657565b6100e861076c565b610121600480360360208110156101ab57600080fd5b50356001600160a01b031661077b565b6101c36107ea565b60408051918252519081900360200190f35b6101216107f0565b610203600480360360208110156101f357600080fd5b50356001600160a01b0316610905565b6040805192835290151560208301528051918290030190f35b6101216004803603602081101561023257600080fd5b50356001600160a01b0316610921565b6101c3610a2f565b6101216004803603602081101561026057600080fd5b50356001600160a01b0316610a35565b6101c3610b4b565b6101c3610c8c565b6100e8610ccd565b6100e8610cdc565b6001546001600160a01b031681565b6007546001600160a01b031633146102fd576040805162461bcd60e51b815260206004820152601c60248201527b2932bbb0b9322234b9ba3934b13aba37b91d103337b93134b23232b760211b604482015290519081900360640190fd5b60055461033b5760405162461bcd60e51b815260040180806020018281038252602f81526020018061123d602f913960400191505060405180910390fd5b600660009054906101000a90046001600160a01b03166001600160a01b0316633e158b0c6040518163ffffffff1660e01b8152600401600060405180830381600087803b15801561038b57600080fd5b505af115801561039f573d6000803e3d6000fd5b5050506004829055506040805182815290517f98dc76c39aa5a5dcb749f8750a65db3dfa1e14bcc1591a9c16a7420e5da748f89181900360200190a150565b6007546001600160a01b0316331461043c576040805162461bcd60e51b815260206004820152601c60248201527b2932bbb0b9322234b9ba3934b13aba37b91d103337b93134b23232b760211b604482015290519081900360640190fd5b42600555565b6001546001600160a01b0316331461048f576040805162461bcd60e51b815260206004820152601560248201526000805160206111b4833981519152604482015290519081900360640190fd5b600260005414156104e7576040805162461bcd60e51b815260206004820152601f60248201527f5265656e7472616e637947756172643a207265656e7472616e742063616c6c00604482015290519081900360640190fd5b60026000556001600160a01b038316610639576001600160a01b038216610547576040805162461bcd60e51b815260206004820152600f60248201526e125b9d985b1a59081858d8dbdd5b9d608a1b604482015290519081900360640190fd5b47811115610597576040805162461bcd60e51b8152602060048201526018602482015277496e73756666696369656e74204554482062616c616e636560401b604482015290519081900360640190fd5b6040516000906001600160a01b0384169083908381818185875af1925050503d80600081146105e2576040519150601f19603f3d011682016040523d82523d6000602084013e6105e7565b606091505b5050905080610633576040805162461bcd60e51b8152602060048201526013602482015272115512081d1c985b9cd9995c8819985a5b1959606a1b604482015290519081900360640190fd5b5061064d565b61064d6001600160a01b0384168383610ceb565b5050600160005550565b6001546001600160a01b031633146106a4576040805162461bcd60e51b815260206004820152601560248201526000805160206111b4833981519152604482015290519081900360640190fd5b6001600160a01b0382166106fd576040805162461bcd60e51b815260206004820152601b60248201527a476f7665726e61626c653a20696e76616c6964206164647265737360281b604482015290519081900360640190fd5b6001546001600160a01b038381169116141561075e576040805162461bcd60e51b815260206004820152601b60248201527a476f7665726e61626c653a2073616d6520676f7665726e616e636560281b604482015290519081900360640190fd5b6107688282610d42565b5050565b6006546001600160a01b031681565b6001546001600160a01b031633146107c8576040805162461bcd60e51b815260206004820152601560248201526000805160206111b4833981519152604482015290519081900360640190fd5b600780546001600160a01b0319166001600160a01b0392909216919091179055565b60055481565b33600090815260026020526040902080544210610853576040805162461bcd60e51b815260206004820152601c60248201527b11dbdd995c9b98589b194e88191958591b1a5b9948195e1c1a5c995960221b604482015290519081900360640190fd5b60018082015460ff1615151461089a5760405162461bcd60e51b81526004018080602001828103825260228152602001806111fa6022913960400191505060405180910390fd5b60018054336000818152600260205260408082208281558501805460ff1916905584546001600160a01b031916831790945592516001600160a01b0390921692909183917f5f56bee8cffbe9a78652a74a60705edede02af10b0bbb888ca44b79a0d42ce8091a35050565b6002602052600090815260409020805460019091015460ff1682565b6001546001600160a01b0316331461096e576040805162461bcd60e51b815260206004820152601560248201526000805160206111b4833981519152604482015290519081900360640190fd5b6001600160a01b03811660009081526002602052604090206001015460ff166109de576040805162461bcd60e51b815260206004820152601f60248201527f476f7665726e61626c653a2070726f706f73616c206e6f742061637469766500604482015290519081900360640190fd5b6001600160a01b038116600081815260026020526040808220828155600101805460ff19169055513392917ffc6a2fa53abe2adfe8372a9495032d7e6458d3aed34fa880132b6c808da1e99c91a350565b60045481565b6001546001600160a01b03163314610a82576040805162461bcd60e51b815260206004820152601560248201526000805160206111b4833981519152604482015290519081900360640190fd5b6001600160a01b038116610adb576040805162461bcd60e51b815260206004820152601b60248201527a476f7665726e61626c653a20696e76616c6964206164647265737360281b604482015290519081900360640190fd5b6001546001600160a01b0382811691161415610b3c576040805162461bcd60e51b815260206004820152601b60248201527a476f7665726e61626c653a2073616d6520676f7665726e616e636560281b604482015290519081900360640190fd5b610b4881600019610d42565b50565b6006546000906001600160a01b03163314610b975760405162461bcd60e51b815260040180806020018281038252602581526020018061118f6025913960400191505060405180910390fd5b6000610ba1610c8c565b905080610bb2576000915050610c89565b42600555600354604080516370a0823160e01b815230600482015290516000926001600160a01b0316916370a08231916024808301926020929190829003018186803b158015610c0157600080fd5b505afa158015610c15573d6000803e3d6000fd5b505050506040513d6020811015610c2b57600080fd5b5051905080821115610c3b578091505b600354610c52906001600160a01b03163384610ceb565b6040805183815290517f4def474aca53bf221d07d9ab0f675b3f6d8d2494b8427271bcf43c018ef1eead9181900360200190a15090505b90565b6000600554421415610ca057506000610c89565b6000610cb760055442610dbe90919063ffffffff16565b600454909150610cc79082610e09565b91505090565b6003546001600160a01b031681565b6007546001600160a01b031681565b604080516001600160a01b038416602482015260448082018490528251808303909101815260649091019091526020810180516001600160e01b031663a9059cbb60e01b179052610d3d908490610e62565b505050565b604080518082018252828152600160208083018281526001600160a01b03871660008181526002845286902094518555905193909201805460ff1916931515939093179092558251848152925190927f02dd0697be46e764c3ba81094158781c31b235d03bb27a0daf1bdef0ec1084dd92908290030190a25050565b6000610e0083836040518060400160405280601e81526020017f536166654d6174683a207375627472616374696f6e206f766572666c6f770000815250610f13565b90505b92915050565b600082610e1857506000610e03565b82820282848281610e2557fe5b0414610e005760405162461bcd60e51b815260040180806020018281038252602181526020018061121c6021913960400191505060405180910390fd5b6060610eb7826040518060400160405280602081526020017f5361666545524332303a206c6f772d6c6576656c2063616c6c206661696c6564815250856001600160a01b0316610faf9092919063ffffffff16565b805190915015610d3d57808060200190516020811015610ed657600080fd5b5051610d3d5760405162461bcd60e51b815260040180806020018281038252602a81526020018061126c602a913960400191505060405180910390fd5b60008184841115610fa25760405162461bcd60e51b81526004018080602001828103825283818151815260200191508051906020019080838360005b83811015610f67578181015183820152602001610f4f565b50505050905090810190601f168015610f945780820380516001836020036101000a031916815260200191505b509250505060405180910390fd5b50508183035b9392505050565b6060610fbe8484600085610fc6565b949350505050565b6060824710156110075760405162461bcd60e51b81526004018080602001828103825260268152602001806111d46026913960400191505060405180910390fd5b61101085611122565b611061576040805162461bcd60e51b815260206004820152601d60248201527f416464726573733a2063616c6c20746f206e6f6e2d636f6e7472616374000000604482015290519081900360640190fd5b60006060866001600160a01b031685876040518082805190602001908083835b602083106110a05780518252601f199092019160209182019101611081565b6001836020036101000a03801982511681845116808217855250505050505090500191505060006040518083038185875af1925050503d8060008114611102576040519150601f19603f3d011682016040523d82523d6000602084013e611107565b606091505b5091509150611117828286611128565b979650505050505050565b3b151590565b60608315611137575081610fa8565b8251156111475782518084602001fd5b60405162461bcd60e51b8152602060048201818152845160248401528451859391928392604401919085019080838360008315610f67578181015183820152602001610f4f56fe5265776172644469737472696275746f723a20696e76616c6964206d73672e73656e646572476f7665726e61626c653a20666f7262696464656e0000000000000000000000416464726573733a20696e73756666696369656e742062616c616e636520666f722063616c6c476f7665726e61626c653a2070726f706f73616c206973206e6f7420616374697665536166654d6174683a206d756c7469706c69636174696f6e206f766572666c6f775265776172644469737472696275746f723a20696e76616c6964206c617374446973747269627574696f6e54696d655361666545524332303a204552433230206f7065726174696f6e20646964206e6f742073756363656564a26469706673582212207d3d18a7789f2096d680f4ef1d448294a0bf38fb31766cf1a09f41b96262bb8364736f6c634300060c0033","linkReferences":{}},"methodIdentifiers":{"acceptGov()":"7bc6729b","admin()":"f851a440","cancelGovProposal(address)":"9c35b497","distribute()":"e4fc6b6d","gov()":"12d43a51","govProposals(address)":"8d0fedb0","lastDistributionTime()":"75b17350","pendingRewards()":"eded3fda","rewardToken()":"f7c618c1","rewardTracker()":"6bcb411a","setAdmin(address)":"704b6c02","setGov(address)":"cfad57a2","setGovWithDeadline(address,uint256)":"6bb22fd7","setTokensPerInterval(uint256)":"18e20a03","tokensPerInterval()":"a8d93627","updateLastDistributionTime()":"3ae6d6eb","withdrawTokensOrETH(address,address,uint256)":"56edcea2"},"id":81}