{"abi":[{"type":"constructor","inputs":[{"name":"_rewardToken","type":"address","internalType":"address"},{"name":"_rewardTracker","type":"address","internalType":"address"}],"stateMutability":"nonpayable"},{"type":"function","name":"acceptGov","inputs":[],"outputs":[],"stateMutability":"nonpayable"},{"type":"function","name":"admin","inputs":[],"outputs":[{"name":"","type":"address","internalType":"address"}],"stateMutability":"view"},{"type":"function","name":"cancelGovProposal","inputs":[{"name":"_gov","type":"address","internalType":"address"}],"outputs":[],"stateMutability":"nonpayable"},{"type":"function","name":"distribute","inputs":[],"outputs":[{"name":"","type":"uint256","internalType":"uint256"}],"stateMutability":"nonpayable"},{"type":"function","name":"gov","inputs":[],"outputs":[{"name":"","type":"address","internalType":"address"}],"stateMutability":"view"},{"type":"function","name":"govProposals","inputs":[{"name":"","type":"address","internalType":"address"}],"outputs":[{"name":"deadline","type":"uint256","internalType":"uint256"},{"name":"isActive","type":"bool","internalType":"bool"}],"stateMutability":"view"},{"type":"function","name":"lastDistributionTime","inputs":[],"outputs":[{"name":"","type":"uint256","internalType":"uint256"}],"stateMutability":"view"},{"type":"function","name":"pendingRewards","inputs":[],"outputs":[{"name":"","type":"uint256","internalType":"uint256"}],"stateMutability":"view"},{"type":"function","name":"rewardToken","inputs":[],"outputs":[{"name":"","type":"address","internalType":"address"}],"stateMutability":"view"},{"type":"function","name":"rewardTracker","inputs":[],"outputs":[{"name":"","type":"address","internalType":"address"}],"stateMutability":"view"},{"type":"function","name":"setAdmin","inputs":[{"name":"_admin","type":"address","internalType":"address"}],"outputs":[],"stateMutability":"nonpayable"},{"type":"function","name":"setGov","inputs":[{"name":"_gov","type":"address","internalType":"address"}],"outputs":[],"stateMutability":"nonpayable"},{"type":"function","name":"setGovWithDeadline","inputs":[{"name":"_gov","type":"address","internalType":"address"},{"name":"_deadline","type":"uint256","internalType":"uint256"}],"outputs":[],"stateMutability":"nonpayable"},{"type":"function","name":"setTokensPerInterval","inputs":[{"name":"_amount","type":"uint256","internalType":"uint256"}],"outputs":[],"stateMutability":"nonpayable"},{"type":"function","name":"tokensPerInterval","inputs":[],"outputs":[{"name":"","type":"uint256","internalType":"uint256"}],"stateMutability":"view"},{"type":"function","name":"updateLastDistributionTime","inputs":[],"outputs":[],"stateMutability":"nonpayable"},{"type":"function","name":"withdrawToken","inputs":[{"name":"_token","type":"address","internalType":"address"},{"name":"_account","type":"address","internalType":"address"},{"name":"_amount","type":"uint256","internalType":"uint256"}],"outputs":[],"stateMutability":"nonpayable"},{"type":"event","name":"Distribute","inputs":[{"name":"amount","type":"uint256","indexed":false,"internalType":"uint256"}],"anonymous":false},{"type":"event","name":"GovProposalCanceled","inputs":[{"name":"proposedGov","type":"address","indexed":true,"internalType":"address"},{"name":"canceledBy","type":"address","indexed":true,"internalType":"address"}],"anonymous":false},{"type":"event","name":"GovernanceTransferRequested","inputs":[{"name":"newGov","type":"address","indexed":true,"internalType":"address"},{"name":"deadline","type":"uint256","indexed":false,"internalType":"uint256"}],"anonymous":false},{"type":"event","name":"GovernanceTransferred","inputs":[{"name":"oldGov","type":"address","indexed":true,"internalType":"address"},{"name":"newGov","type":"address","indexed":true,"internalType":"address"}],"anonymous":false},{"type":"event","name":"TokensPerIntervalChange","inputs":[{"name":"amount","type":"uint256","indexed":false,"internalType":"uint256"}],"anonymous":false}],"bytecode":{"object":"0x608060405234801561001057600080fd5b506040516111a73803806111a78339818101604052604081101561003357600080fd5b50805160209091015160018054336001600160a01b031991821681179092556003805482166001600160a01b03958616179055600680548216949093169390931790915560078054909216179055611117806100906000396000f3fe608060405234801561001057600080fd5b50600436106100db5760003560e01c806301e33667146100e057806312d43a511461011857806318e20a031461013c5780633ae6d6eb146101595780636bb22fd7146101615780636bcb411a1461018d578063704b6c021461019557806375b17350146101bb5780637bc6729b146101d55780638d0fedb0146101dd5780639c35b4971461021c578063a8d9362714610242578063cfad57a21461024a578063e4fc6b6d14610270578063eded3fda14610278578063f7c618c114610280578063f851a44014610288575b600080fd5b610116600480360360608110156100f657600080fd5b506001600160a01b03813581169160208101359091169060400135610290565b005b6101206102f6565b604080516001600160a01b039092168252519081900360200190f35b6101166004803603602081101561015257600080fd5b5035610305565b610116610444565b6101166004803603604081101561017757600080fd5b506001600160a01b0381351690602001356104a8565b6101206105bd565b610116600480360360208110156101ab57600080fd5b50356001600160a01b03166105cc565b6101c361063b565b60408051918252519081900360200190f35b610116610641565b610203600480360360208110156101f357600080fd5b50356001600160a01b0316610756565b6040805192835290151560208301528051918290030190f35b6101166004803603602081101561023257600080fd5b50356001600160a01b0316610772565b6101c3610880565b6101166004803603602081101561026057600080fd5b50356001600160a01b0316610886565b6101c361099c565b6101c3610add565b610120610b1e565b610120610b2d565b6001546001600160a01b031633146102dd576040805162461bcd60e51b81526020600482015260156024820152600080516020611000833981519152604482015290519081900360640190fd5b6102f16001600160a01b0384168383610b3c565b505050565b6001546001600160a01b031681565b6007546001600160a01b03163314610363576040805162461bcd60e51b815260206004820152601c60248201527b2932bbb0b9322234b9ba3934b13aba37b91d103337b93134b23232b760211b604482015290519081900360640190fd5b6005546103a15760405162461bcd60e51b815260040180806020018281038252602f815260200180611089602f913960400191505060405180910390fd5b600660009054906101000a90046001600160a01b03166001600160a01b0316633e158b0c6040518163ffffffff1660e01b8152600401600060405180830381600087803b1580156103f157600080fd5b505af1158015610405573d6000803e3d6000fd5b5050506004829055506040805182815290517f98dc76c39aa5a5dcb749f8750a65db3dfa1e14bcc1591a9c16a7420e5da748f89181900360200190a150565b6007546001600160a01b031633146104a2576040805162461bcd60e51b815260206004820152601c60248201527b2932bbb0b9322234b9ba3934b13aba37b91d103337b93134b23232b760211b604482015290519081900360640190fd5b42600555565b6001546001600160a01b031633146104f5576040805162461bcd60e51b81526020600482015260156024820152600080516020611000833981519152604482015290519081900360640190fd5b6001600160a01b03821661054e576040805162461bcd60e51b815260206004820152601b60248201527a476f7665726e61626c653a20696e76616c6964206164647265737360281b604482015290519081900360640190fd5b6001546001600160a01b03838116911614156105af576040805162461bcd60e51b815260206004820152601b60248201527a476f7665726e61626c653a2073616d6520676f7665726e616e636560281b604482015290519081900360640190fd5b6105b98282610b8e565b5050565b6006546001600160a01b031681565b6001546001600160a01b03163314610619576040805162461bcd60e51b81526020600482015260156024820152600080516020611000833981519152604482015290519081900360640190fd5b600780546001600160a01b0319166001600160a01b0392909216919091179055565b60055481565b336000908152600260205260409020805442106106a4576040805162461bcd60e51b815260206004820152601c60248201527b11dbdd995c9b98589b194e88191958591b1a5b9948195e1c1a5c995960221b604482015290519081900360640190fd5b60018082015460ff161515146106eb5760405162461bcd60e51b81526004018080602001828103825260228152602001806110466022913960400191505060405180910390fd5b60018054336000818152600260205260408082208281558501805460ff1916905584546001600160a01b031916831790945592516001600160a01b0390921692909183917f5f56bee8cffbe9a78652a74a60705edede02af10b0bbb888ca44b79a0d42ce8091a35050565b6002602052600090815260409020805460019091015460ff1682565b6001546001600160a01b031633146107bf576040805162461bcd60e51b81526020600482015260156024820152600080516020611000833981519152604482015290519081900360640190fd5b6001600160a01b03811660009081526002602052604090206001015460ff1661082f576040805162461bcd60e51b815260206004820152601f60248201527f476f7665726e61626c653a2070726f706f73616c206e6f742061637469766500604482015290519081900360640190fd5b6001600160a01b038116600081815260026020526040808220828155600101805460ff19169055513392917ffc6a2fa53abe2adfe8372a9495032d7e6458d3aed34fa880132b6c808da1e99c91a350565b60045481565b6001546001600160a01b031633146108d3576040805162461bcd60e51b81526020600482015260156024820152600080516020611000833981519152604482015290519081900360640190fd5b6001600160a01b03811661092c576040805162461bcd60e51b815260206004820152601b60248201527a476f7665726e61626c653a20696e76616c6964206164647265737360281b604482015290519081900360640190fd5b6001546001600160a01b038281169116141561098d576040805162461bcd60e51b815260206004820152601b60248201527a476f7665726e61626c653a2073616d6520676f7665726e616e636560281b604482015290519081900360640190fd5b61099981600019610b8e565b50565b6006546000906001600160a01b031633146109e85760405162461bcd60e51b8152600401808060200182810382526025815260200180610fdb6025913960400191505060405180910390fd5b60006109f2610add565b905080610a03576000915050610ada565b42600555600354604080516370a0823160e01b815230600482015290516000926001600160a01b0316916370a08231916024808301926020929190829003018186803b158015610a5257600080fd5b505afa158015610a66573d6000803e3d6000fd5b505050506040513d6020811015610a7c57600080fd5b5051905080821115610a8c578091505b600354610aa3906001600160a01b03163384610b3c565b6040805183815290517f4def474aca53bf221d07d9ab0f675b3f6d8d2494b8427271bcf43c018ef1eead9181900360200190a15090505b90565b6000600554421415610af157506000610ada565b6000610b0860055442610c0a90919063ffffffff16565b600454909150610b189082610c55565b91505090565b6003546001600160a01b031681565b6007546001600160a01b031681565b604080516001600160a01b038416602482015260448082018490528251808303909101815260649091019091526020810180516001600160e01b031663a9059cbb60e01b1790526102f1908490610cae565b604080518082018252828152600160208083018281526001600160a01b03871660008181526002845286902094518555905193909201805460ff1916931515939093179092558251848152925190927f02dd0697be46e764c3ba81094158781c31b235d03bb27a0daf1bdef0ec1084dd92908290030190a25050565b6000610c4c83836040518060400160405280601e81526020017f536166654d6174683a207375627472616374696f6e206f766572666c6f770000815250610d5f565b90505b92915050565b600082610c6457506000610c4f565b82820282848281610c7157fe5b0414610c4c5760405162461bcd60e51b81526004018080602001828103825260218152602001806110686021913960400191505060405180910390fd5b6060610d03826040518060400160405280602081526020017f5361666545524332303a206c6f772d6c6576656c2063616c6c206661696c6564815250856001600160a01b0316610dfb9092919063ffffffff16565b8051909150156102f157808060200190516020811015610d2257600080fd5b50516102f15760405162461bcd60e51b815260040180806020018281038252602a8152602001806110b8602a913960400191505060405180910390fd5b60008184841115610dee5760405162461bcd60e51b81526004018080602001828103825283818151815260200191508051906020019080838360005b83811015610db3578181015183820152602001610d9b565b50505050905090810190601f168015610de05780820380516001836020036101000a031916815260200191505b509250505060405180910390fd5b50508183035b9392505050565b6060610e0a8484600085610e12565b949350505050565b606082471015610e535760405162461bcd60e51b81526004018080602001828103825260268152602001806110206026913960400191505060405180910390fd5b610e5c85610f6e565b610ead576040805162461bcd60e51b815260206004820152601d60248201527f416464726573733a2063616c6c20746f206e6f6e2d636f6e7472616374000000604482015290519081900360640190fd5b60006060866001600160a01b031685876040518082805190602001908083835b60208310610eec5780518252601f199092019160209182019101610ecd565b6001836020036101000a03801982511681845116808217855250505050505090500191505060006040518083038185875af1925050503d8060008114610f4e576040519150601f19603f3d011682016040523d82523d6000602084013e610f53565b606091505b5091509150610f63828286610f74565b979650505050505050565b3b151590565b60608315610f83575081610df4565b825115610f935782518084602001fd5b60405162461bcd60e51b8152602060048201818152845160248401528451859391928392604401919085019080838360008315610db3578181015183820152602001610d9b56fe5265776172644469737472696275746f723a20696e76616c6964206d73672e73656e646572476f7665726e61626c653a20666f7262696464656e0000000000000000000000416464726573733a20696e73756666696369656e742062616c616e636520666f722063616c6c476f7665726e61626c653a2070726f706f73616c206973206e6f7420616374697665536166654d6174683a206d756c7469706c69636174696f6e206f766572666c6f775265776172644469737472696275746f723a20696e76616c6964206c617374446973747269627574696f6e54696d655361666545524332303a204552433230206f7065726174696f6e20646964206e6f742073756363656564a264697066735822122031ebd75bf7476ad0a1791a44e258c22ced7e1298f78f0a2c83d924971899769964736f6c634300060c0033","linkReferences":{}},"methodIdentifiers":{"acceptGov()":"7bc6729b","admin()":"f851a440","cancelGovProposal(address)":"9c35b497","distribute()":"e4fc6b6d","gov()":"12d43a51","govProposals(address)":"8d0fedb0","lastDistributionTime()":"75b17350","pendingRewards()":"eded3fda","rewardToken()":"f7c618c1","rewardTracker()":"6bcb411a","setAdmin(address)":"704b6c02","setGov(address)":"cfad57a2","setGovWithDeadline(address,uint256)":"6bb22fd7","setTokensPerInterval(uint256)":"18e20a03","tokensPerInterval()":"a8d93627","updateLastDistributionTime()":"3ae6d6eb","withdrawToken(address,address,uint256)":"01e33667"},"id":88}