{"abi":[{"type":"function","name":"acceptGov","inputs":[],"outputs":[],"stateMutability":"nonpayable"},{"type":"function","name":"cancelGovProposal","inputs":[{"name":"_gov","type":"address","internalType":"address"}],"outputs":[],"stateMutability":"nonpayable"},{"type":"function","name":"emitPriceEvent","inputs":[{"name":"_token","type":"address","internalType":"address"},{"name":"_price","type":"uint256","internalType":"uint256"}],"outputs":[],"stateMutability":"nonpayable"},{"type":"function","name":"gov","inputs":[],"outputs":[{"name":"","type":"address","internalType":"address"}],"stateMutability":"view"},{"type":"function","name":"govProposals","inputs":[{"name":"","type":"address","internalType":"address"}],"outputs":[{"name":"deadline","type":"uint256","internalType":"uint256"},{"name":"isActive","type":"bool","internalType":"bool"}],"stateMutability":"view"},{"type":"function","name":"isPriceFeed","inputs":[{"name":"","type":"address","internalType":"address"}],"outputs":[{"name":"","type":"bool","internalType":"bool"}],"stateMutability":"view"},{"type":"function","name":"setGov","inputs":[{"name":"_gov","type":"address","internalType":"address"}],"outputs":[],"stateMutability":"nonpayable"},{"type":"function","name":"setGovWithDeadline","inputs":[{"name":"_gov","type":"address","internalType":"address"},{"name":"_deadline","type":"uint256","internalType":"uint256"}],"outputs":[],"stateMutability":"nonpayable"},{"type":"function","name":"setIsPriceFeed","inputs":[{"name":"_priceFeed","type":"address","internalType":"address"},{"name":"_isPriceFeed","type":"bool","internalType":"bool"}],"outputs":[],"stateMutability":"nonpayable"},{"type":"event","name":"GovernanceTransferRequested","inputs":[{"name":"newGov","type":"address","indexed":true,"internalType":"address"},{"name":"deadline","type":"uint256","indexed":false,"internalType":"uint256"}],"anonymous":false},{"type":"event","name":"GovernanceTransferred","inputs":[{"name":"oldGov","type":"address","indexed":true,"internalType":"address"},{"name":"newGov","type":"address","indexed":true,"internalType":"address"}],"anonymous":false},{"type":"event","name":"PriceUpdate","inputs":[{"name":"token","type":"address","indexed":false,"internalType":"address"},{"name":"price","type":"uint256","indexed":false,"internalType":"uint256"},{"name":"priceFeed","type":"address","indexed":false,"internalType":"address"}],"anonymous":false}],"bytecode":{"object":"0x608060405234801561001057600080fd5b50600080546001600160a01b03191633179055610880806100326000396000f3fe608060405234801561001057600080fd5b50600436106100835760003560e01c806312d43a511461008857806357a94beb146100ac57806369d4c924146100e65780636bb22fd7146101165780637bc6729b146101425780638d0fedb01461014a5780639c35b49714610189578063cfad57a2146101af578063e0409c71146101d5575b600080fd5b610090610201565b604080516001600160a01b039092168252519081900360200190f35b6100d2600480360360208110156100c257600080fd5b50356001600160a01b0316610210565b604080519115158252519081900360200190f35b610114600480360360408110156100fc57600080fd5b506001600160a01b0381351690602001351515610225565b005b6101146004803603604081101561012c57600080fd5b506001600160a01b03813516906020013561029d565b6101146103b2565b6101706004803603602081101561016057600080fd5b50356001600160a01b03166104c6565b6040805192835290151560208301528051918290030190f35b6101146004803603602081101561019f57600080fd5b50356001600160a01b03166104e2565b610114600480360360208110156101c557600080fd5b50356001600160a01b03166105c7565b610114600480360360408110156101eb57600080fd5b506001600160a01b0381351690602001356106dd565b6000546001600160a01b031681565b60026020526000908152604090205460ff1681565b6000546001600160a01b03163314610272576040805162461bcd60e51b81526020600482015260156024820152600080516020610809833981519152604482015290519081900360640190fd5b6001600160a01b03919091166000908152600260205260409020805460ff1916911515919091179055565b6000546001600160a01b031633146102ea576040805162461bcd60e51b81526020600482015260156024820152600080516020610809833981519152604482015290519081900360640190fd5b6001600160a01b038216610343576040805162461bcd60e51b815260206004820152601b60248201527a476f7665726e61626c653a20696e76616c6964206164647265737360281b604482015290519081900360640190fd5b6000546001600160a01b03838116911614156103a4576040805162461bcd60e51b815260206004820152601b60248201527a476f7665726e61626c653a2073616d6520676f7665726e616e636560281b604482015290519081900360640190fd5b6103ae828261078d565b5050565b33600090815260016020526040902080544210610415576040805162461bcd60e51b815260206004820152601c60248201527b11dbdd995c9b98589b194e88191958591b1a5b9948195e1c1a5c995960221b604482015290519081900360640190fd5b60018082015460ff1615151461045c5760405162461bcd60e51b81526004018080602001828103825260228152602001806108296022913960400191505060405180910390fd5b6000805433808352600160208190526040808520858155909101805460ff1916905583546001600160a01b03191682178455516001600160a01b0390921692909183917f5f56bee8cffbe9a78652a74a60705edede02af10b0bbb888ca44b79a0d42ce8091a35050565b6001602081905260009182526040909120805491015460ff1682565b6000546001600160a01b0316331461052f576040805162461bcd60e51b81526020600482015260156024820152600080516020610809833981519152604482015290519081900360640190fd5b6001600160a01b0381166000908152600160208190526040909120015460ff166105a0576040805162461bcd60e51b815260206004820152601f60248201527f476f7665726e61626c653a2070726f706f73616c206e6f742061637469766500604482015290519081900360640190fd5b6001600160a01b03166000908152600160208190526040822091825501805460ff19169055565b6000546001600160a01b03163314610614576040805162461bcd60e51b81526020600482015260156024820152600080516020610809833981519152604482015290519081900360640190fd5b6001600160a01b03811661066d576040805162461bcd60e51b815260206004820152601b60248201527a476f7665726e61626c653a20696e76616c6964206164647265737360281b604482015290519081900360640190fd5b6000546001600160a01b03828116911614156106ce576040805162461bcd60e51b815260206004820152601b60248201527a476f7665726e61626c653a2073616d6520676f7665726e616e636560281b604482015290519081900360640190fd5b6106da8160001961078d565b50565b3360009081526002602052604090205460ff16610741576040805162461bcd60e51b815260206004820152601f60248201527f4661737450726963654576656e74733a20696e76616c69642073656e64657200604482015290519081900360640190fd5b604080516001600160a01b038416815260208101839052338183015290517fc37a77b91cc3fc2d0e4b43fd2f347ec67adda10e39215de4742836cc3e42c97a9181900360600190a15050565b604080518082018252828152600160208083018281526001600160a01b038716600081815284845286902094518555905193909201805460ff1916931515939093179092558251848152925190927f02dd0697be46e764c3ba81094158781c31b235d03bb27a0daf1bdef0ec1084dd92908290030190a2505056fe476f7665726e61626c653a20666f7262696464656e0000000000000000000000476f7665726e61626c653a2070726f706f73616c206973206e6f7420616374697665a2646970667358221220d105ca73bb0f1b5b6b145a086a368c1fccc09715658f6ab8d85db8874a73368864736f6c634300060c0033","linkReferences":{}},"methodIdentifiers":{"acceptGov()":"7bc6729b","cancelGovProposal(address)":"9c35b497","emitPriceEvent(address,uint256)":"e0409c71","gov()":"12d43a51","govProposals(address)":"8d0fedb0","isPriceFeed(address)":"57a94beb","setGov(address)":"cfad57a2","setGovWithDeadline(address,uint256)":"6bb22fd7","setIsPriceFeed(address,bool)":"69d4c924"},"id":66}