{"abi":[{"type":"constructor","inputs":[],"stateMutability":"nonpayable"},{"type":"function","name":"acceptGov","inputs":[],"outputs":[],"stateMutability":"nonpayable"},{"type":"function","name":"cancelGovProposal","inputs":[{"name":"_gov","type":"address","internalType":"address"}],"outputs":[],"stateMutability":"nonpayable"},{"type":"function","name":"gov","inputs":[],"outputs":[{"name":"","type":"address","internalType":"address"}],"stateMutability":"view"},{"type":"function","name":"govProposals","inputs":[{"name":"","type":"address","internalType":"address"}],"outputs":[{"name":"deadline","type":"uint256","internalType":"uint256"},{"name":"isActive","type":"bool","internalType":"bool"}],"stateMutability":"view"},{"type":"function","name":"isHandler","inputs":[{"name":"","type":"address","internalType":"address"}],"outputs":[{"name":"","type":"bool","internalType":"bool"}],"stateMutability":"view"},{"type":"function","name":"send","inputs":[{"name":"_token","type":"address","internalType":"contract IERC20"},{"name":"_accounts","type":"address[]","internalType":"address[]"},{"name":"_amounts","type":"uint256[]","internalType":"uint256[]"}],"outputs":[],"stateMutability":"nonpayable"},{"type":"function","name":"sendAndEmit","inputs":[{"name":"_token","type":"address","internalType":"contract IERC20"},{"name":"_accounts","type":"address[]","internalType":"address[]"},{"name":"_amounts","type":"uint256[]","internalType":"uint256[]"},{"name":"_typeId","type":"uint256","internalType":"uint256"}],"outputs":[],"stateMutability":"nonpayable"},{"type":"function","name":"setGov","inputs":[{"name":"_gov","type":"address","internalType":"address"}],"outputs":[],"stateMutability":"nonpayable"},{"type":"function","name":"setGovWithDeadline","inputs":[{"name":"_gov","type":"address","internalType":"address"},{"name":"_deadline","type":"uint256","internalType":"uint256"}],"outputs":[],"stateMutability":"nonpayable"},{"type":"function","name":"setHandler","inputs":[{"name":"_handler","type":"address","internalType":"address"},{"name":"_isActive","type":"bool","internalType":"bool"}],"outputs":[],"stateMutability":"nonpayable"},{"type":"event","name":"BatchSend","inputs":[{"name":"typeId","type":"uint256","indexed":true,"internalType":"uint256"},{"name":"token","type":"address","indexed":true,"internalType":"address"},{"name":"accounts","type":"address[]","indexed":false,"internalType":"address[]"},{"name":"amounts","type":"uint256[]","indexed":false,"internalType":"uint256[]"}],"anonymous":false},{"type":"event","name":"GovernanceTransferRequested","inputs":[{"name":"newGov","type":"address","indexed":true,"internalType":"address"},{"name":"deadline","type":"uint256","indexed":false,"internalType":"uint256"}],"anonymous":false},{"type":"event","name":"GovernanceTransferred","inputs":[{"name":"oldGov","type":"address","indexed":true,"internalType":"address"},{"name":"newGov","type":"address","indexed":true,"internalType":"address"}],"anonymous":false}],"bytecode":{"object":"0x608060405234801561001057600080fd5b50600080546001600160a01b0319163390811782558152600260205260409020805460ff19166001179055610c908061004a6000396000f3fe608060405234801561001057600080fd5b506004361061008e5760003560e01c806312d43a511461009357806346ea87af146100b75780636bb22fd7146100f1578063745ae40b1461011f5780637bc6729b146102545780638d0fedb01461025c5780639c35b4971461029b5780639cb7de4b146102c1578063cfad57a2146102ef578063f8129cd214610315575b600080fd5b61009b610448565b604080516001600160a01b039092168252519081900360200190f35b6100dd600480360360208110156100cd57600080fd5b50356001600160a01b0316610457565b604080519115158252519081900360200190f35b61011d6004803603604081101561010757600080fd5b506001600160a01b03813516906020013561046c565b005b61011d6004803603608081101561013557600080fd5b6001600160a01b038235169190810190604081016020820135600160201b81111561015f57600080fd5b82018360208201111561017157600080fd5b803590602001918460208302840111600160201b8311171561019257600080fd5b9190808060200260200160405190810160405280939291908181526020018383602002808284376000920191909152509295949360208101935035915050600160201b8111156101e157600080fd5b8201836020820111156101f357600080fd5b803590602001918460208302840111600160201b8311171561021457600080fd5b9190808060200260200160405190810160405280939291908181526020018383602002808284376000920191909152509295505091359250610581915050565b61011d6105f0565b6102826004803603602081101561027257600080fd5b50356001600160a01b0316610704565b6040805192835290151560208301528051918290030190f35b61011d600480360360208110156102b157600080fd5b50356001600160a01b0316610720565b61011d600480360360408110156102d757600080fd5b506001600160a01b0381351690602001351515610805565b61011d6004803603602081101561030557600080fd5b50356001600160a01b031661087d565b61011d6004803603606081101561032b57600080fd5b6001600160a01b038235169190810190604081016020820135600160201b81111561035557600080fd5b82018360208201111561036757600080fd5b803590602001918460208302840111600160201b8311171561038857600080fd5b9190808060200260200160405190810160405280939291908181526020018383602002808284376000920191909152509295949360208101935035915050600160201b8111156103d757600080fd5b8201836020820111156103e957600080fd5b803590602001918460208302840111600160201b8311171561040a57600080fd5b919080806020026020016040519081016040528093929190818152602001838360200280828437600092019190915250929550610993945050505050565b6000546001600160a01b031681565b60026020526000908152604090205460ff1681565b6000546001600160a01b031633146104b9576040805162461bcd60e51b81526020600482015260156024820152600080516020610c19833981519152604482015290519081900360640190fd5b6001600160a01b038216610512576040805162461bcd60e51b815260206004820152601b60248201527a476f7665726e61626c653a20696e76616c6964206164647265737360281b604482015290519081900360640190fd5b6000546001600160a01b0383811691161415610573576040805162461bcd60e51b815260206004820152601b60248201527a476f7665726e61626c653a2073616d6520676f7665726e616e636560281b604482015290519081900360640190fd5b61057d8282610a02565b5050565b3360009081526002602052604090205460ff166105de576040805162461bcd60e51b81526020600482015260166024820152752130ba31b429b2b73232b91d103337b93134b23232b760511b604482015290519081900360640190fd5b6105ea84848484610a7d565b50505050565b33600090815260016020526040902080544210610653576040805162461bcd60e51b815260206004820152601c60248201527b11dbdd995c9b98589b194e88191958591b1a5b9948195e1c1a5c995960221b604482015290519081900360640190fd5b60018082015460ff1615151461069a5760405162461bcd60e51b8152600401808060200182810382526022815260200180610c396022913960400191505060405180910390fd5b6000805433808352600160208190526040808520858155909101805460ff1916905583546001600160a01b03191682178455516001600160a01b0390921692909183917f5f56bee8cffbe9a78652a74a60705edede02af10b0bbb888ca44b79a0d42ce8091a35050565b6001602081905260009182526040909120805491015460ff1682565b6000546001600160a01b0316331461076d576040805162461bcd60e51b81526020600482015260156024820152600080516020610c19833981519152604482015290519081900360640190fd5b6001600160a01b0381166000908152600160208190526040909120015460ff166107de576040805162461bcd60e51b815260206004820152601f60248201527f476f7665726e61626c653a2070726f706f73616c206e6f742061637469766500604482015290519081900360640190fd5b6001600160a01b03166000908152600160208190526040822091825501805460ff19169055565b6000546001600160a01b03163314610852576040805162461bcd60e51b81526020600482015260156024820152600080516020610c19833981519152604482015290519081900360640190fd5b6001600160a01b03919091166000908152600260205260409020805460ff1916911515919091179055565b6000546001600160a01b031633146108ca576040805162461bcd60e51b81526020600482015260156024820152600080516020610c19833981519152604482015290519081900360640190fd5b6001600160a01b038116610923576040805162461bcd60e51b815260206004820152601b60248201527a476f7665726e61626c653a20696e76616c6964206164647265737360281b604482015290519081900360640190fd5b6000546001600160a01b0382811691161415610984576040805162461bcd60e51b815260206004820152601b60248201527a476f7665726e61626c653a2073616d6520676f7665726e616e636560281b604482015290519081900360640190fd5b61099081600019610a02565b50565b3360009081526002602052604090205460ff166109f0576040805162461bcd60e51b81526020600482015260166024820152752130ba31b429b2b73232b91d103337b93134b23232b760511b604482015290519081900360640190fd5b6109fd8383836000610a7d565b505050565b604080518082018252828152600160208083018281526001600160a01b038716600081815284845286902094518555905193909201805460ff1916931515939093179092558251848152925190927f02dd0697be46e764c3ba81094158781c31b235d03bb27a0daf1bdef0ec1084dd92908290030190a25050565b60005b8351811015610b4b576000848281518110610a9757fe5b602002602001015190506000848381518110610aaf57fe5b602090810291909101810151604080516323b872dd60e01b81523360048201526001600160a01b038681166024830152604482018490529151929450908a16926323b872dd926064808401938290030181600087803b158015610b1157600080fd5b505af1158015610b25573d6000803e3d6000fd5b505050506040513d6020811015610b3b57600080fd5b505060019092019150610a809050565b50836001600160a01b0316817fa1552778fd4edc5098fd82f614c100bf0f42c781e7926907643e2894679da0f38585604051808060200180602001838103835285818151815260200191508051906020019060200280838360005b83811015610bbe578181015183820152602001610ba6565b50505050905001838103825284818151815260200191508051906020019060200280838360005b83811015610bfd578181015183820152602001610be5565b5050505090500194505050505060405180910390a35050505056fe476f7665726e61626c653a20666f7262696464656e0000000000000000000000476f7665726e61626c653a2070726f706f73616c206973206e6f7420616374697665a26469706673582212207998dfe9c72fcc616af65f5dce1f1a2ab594467bad5f8f2a660b6c3e0dc5a0cf64736f6c634300060c0033","linkReferences":{}},"methodIdentifiers":{"acceptGov()":"7bc6729b","cancelGovProposal(address)":"9c35b497","gov()":"12d43a51","govProposals(address)":"8d0fedb0","isHandler(address)":"46ea87af","send(address,address[],uint256[])":"f8129cd2","sendAndEmit(address,address[],uint256[],uint256)":"745ae40b","setGov(address)":"cfad57a2","setGovWithDeadline(address,uint256)":"6bb22fd7","setHandler(address,bool)":"9cb7de4b"},"id":73}