{"abi":[{"type":"constructor","inputs":[{"name":"_minAuthorizations","type":"uint256","internalType":"uint256"}],"stateMutability":"nonpayable"},{"type":"function","name":"actionsNonce","inputs":[],"outputs":[{"name":"","type":"uint256","internalType":"uint256"}],"stateMutability":"view"},{"type":"function","name":"admin","inputs":[],"outputs":[{"name":"","type":"address","internalType":"address"}],"stateMutability":"view"},{"type":"function","name":"ammRouter","inputs":[],"outputs":[{"name":"","type":"address","internalType":"address"}],"stateMutability":"view"},{"type":"function","name":"approve","inputs":[{"name":"_token","type":"address","internalType":"address"},{"name":"_spender","type":"address","internalType":"address"},{"name":"_amount","type":"uint256","internalType":"uint256"},{"name":"_nonce","type":"uint256","internalType":"uint256"}],"outputs":[],"stateMutability":"nonpayable"},{"type":"function","name":"caps","inputs":[{"name":"","type":"address","internalType":"address"}],"outputs":[{"name":"","type":"uint256","internalType":"uint256"}],"stateMutability":"view"},{"type":"function","name":"endMigration","inputs":[],"outputs":[],"stateMutability":"nonpayable"},{"type":"function","name":"getIouToken","inputs":[{"name":"_token","type":"address","internalType":"address"}],"outputs":[{"name":"","type":"address","internalType":"address"}],"stateMutability":"view"},{"type":"function","name":"getTokenAmounts","inputs":[{"name":"_tokens","type":"address[]","internalType":"address[]"}],"outputs":[{"name":"","type":"uint256[]","internalType":"uint256[]"}],"stateMutability":"view"},{"type":"function","name":"getTokenPrice","inputs":[{"name":"_token","type":"address","internalType":"address"}],"outputs":[{"name":"","type":"uint256","internalType":"uint256"}],"stateMutability":"view"},{"type":"function","name":"hasMaxMigrationLimit","inputs":[],"outputs":[{"name":"","type":"bool","internalType":"bool"}],"stateMutability":"view"},{"type":"function","name":"initialize","inputs":[{"name":"_ammRouter","type":"address","internalType":"address"},{"name":"_zusPrice","type":"uint256","internalType":"uint256"},{"name":"_signers","type":"address[]","internalType":"address[]"},{"name":"_whitelistedTokens","type":"address[]","internalType":"address[]"},{"name":"_iouTokens","type":"address[]","internalType":"address[]"},{"name":"_prices","type":"uint256[]","internalType":"uint256[]"},{"name":"_caps","type":"uint256[]","internalType":"uint256[]"},{"name":"_lpTokens","type":"address[]","internalType":"address[]"},{"name":"_lpTokenAs","type":"address[]","internalType":"address[]"},{"name":"_lpTokenBs","type":"address[]","internalType":"address[]"}],"outputs":[],"stateMutability":"nonpayable"},{"type":"function","name":"iouTokens","inputs":[{"name":"","type":"address","internalType":"address"}],"outputs":[{"name":"","type":"address","internalType":"address"}],"stateMutability":"view"},{"type":"function","name":"isInitialized","inputs":[],"outputs":[{"name":"","type":"bool","internalType":"bool"}],"stateMutability":"view"},{"type":"function","name":"isMigrationActive","inputs":[],"outputs":[{"name":"","type":"bool","internalType":"bool"}],"stateMutability":"view"},{"type":"function","name":"isSigner","inputs":[{"name":"","type":"address","internalType":"address"}],"outputs":[{"name":"","type":"bool","internalType":"bool"}],"stateMutability":"view"},{"type":"function","name":"lpTokenAs","inputs":[{"name":"","type":"address","internalType":"address"}],"outputs":[{"name":"","type":"address","internalType":"address"}],"stateMutability":"view"},{"type":"function","name":"lpTokenBs","inputs":[{"name":"","type":"address","internalType":"address"}],"outputs":[{"name":"","type":"address","internalType":"address"}],"stateMutability":"view"},{"type":"function","name":"lpTokens","inputs":[{"name":"","type":"address","internalType":"address"}],"outputs":[{"name":"","type":"bool","internalType":"bool"}],"stateMutability":"view"},{"type":"function","name":"maxMigrationAmounts","inputs":[{"name":"","type":"address","internalType":"address"},{"name":"","type":"address","internalType":"address"}],"outputs":[{"name":"","type":"uint256","internalType":"uint256"}],"stateMutability":"view"},{"type":"function","name":"migrate","inputs":[{"name":"_token","type":"address","internalType":"address"},{"name":"_tokenAmount","type":"uint256","internalType":"uint256"}],"outputs":[],"stateMutability":"nonpayable"},{"type":"function","name":"migratedAmounts","inputs":[{"name":"","type":"address","internalType":"address"},{"name":"","type":"address","internalType":"address"}],"outputs":[{"name":"","type":"uint256","internalType":"uint256"}],"stateMutability":"view"},{"type":"function","name":"minAuthorizations","inputs":[],"outputs":[{"name":"","type":"uint256","internalType":"uint256"}],"stateMutability":"view"},{"type":"function","name":"pendingActions","inputs":[{"name":"","type":"bytes32","internalType":"bytes32"}],"outputs":[{"name":"","type":"bool","internalType":"bool"}],"stateMutability":"view"},{"type":"function","name":"prices","inputs":[{"name":"","type":"address","internalType":"address"}],"outputs":[{"name":"","type":"uint256","internalType":"uint256"}],"stateMutability":"view"},{"type":"function","name":"setHasMaxMigrationLimit","inputs":[{"name":"_hasMaxMigrationLimit","type":"bool","internalType":"bool"}],"outputs":[],"stateMutability":"nonpayable"},{"type":"function","name":"setMaxMigrationAmount","inputs":[{"name":"_account","type":"address","internalType":"address"},{"name":"_token","type":"address","internalType":"address"},{"name":"_maxMigrationAmount","type":"uint256","internalType":"uint256"}],"outputs":[],"stateMutability":"nonpayable"},{"type":"function","name":"signApprove","inputs":[{"name":"_token","type":"address","internalType":"address"},{"name":"_spender","type":"address","internalType":"address"},{"name":"_amount","type":"uint256","internalType":"uint256"},{"name":"_nonce","type":"uint256","internalType":"uint256"}],"outputs":[],"stateMutability":"nonpayable"},{"type":"function","name":"signalApprove","inputs":[{"name":"_token","type":"address","internalType":"address"},{"name":"_spender","type":"address","internalType":"address"},{"name":"_amount","type":"uint256","internalType":"uint256"}],"outputs":[],"stateMutability":"nonpayable"},{"type":"function","name":"signedActions","inputs":[{"name":"","type":"address","internalType":"address"},{"name":"","type":"bytes32","internalType":"bytes32"}],"outputs":[{"name":"","type":"bool","internalType":"bool"}],"stateMutability":"view"},{"type":"function","name":"signers","inputs":[{"name":"","type":"uint256","internalType":"uint256"}],"outputs":[{"name":"","type":"address","internalType":"address"}],"stateMutability":"view"},{"type":"function","name":"tokenAmounts","inputs":[{"name":"","type":"address","internalType":"address"}],"outputs":[{"name":"","type":"uint256","internalType":"uint256"}],"stateMutability":"view"},{"type":"function","name":"whitelistedTokens","inputs":[{"name":"","type":"address","internalType":"address"}],"outputs":[{"name":"","type":"bool","internalType":"bool"}],"stateMutability":"view"},{"type":"function","name":"zusPrice","inputs":[],"outputs":[{"name":"","type":"uint256","internalType":"uint256"}],"stateMutability":"view"},{"type":"event","name":"ClearAction","inputs":[{"name":"action","type":"bytes32","indexed":false,"internalType":"bytes32"},{"name":"nonce","type":"uint256","indexed":false,"internalType":"uint256"}],"anonymous":false},{"type":"event","name":"SignAction","inputs":[{"name":"action","type":"bytes32","indexed":false,"internalType":"bytes32"},{"name":"nonce","type":"uint256","indexed":false,"internalType":"uint256"}],"anonymous":false},{"type":"event","name":"SignalApprove","inputs":[{"name":"token","type":"address","indexed":false,"internalType":"address"},{"name":"spender","type":"address","indexed":false,"internalType":"address"},{"name":"amount","type":"uint256","indexed":false,"internalType":"uint256"},{"name":"action","type":"bytes32","indexed":false,"internalType":"bytes32"},{"name":"nonce","type":"uint256","indexed":false,"internalType":"uint256"}],"anonymous":false},{"type":"event","name":"SignalPendingAction","inputs":[{"name":"action","type":"bytes32","indexed":false,"internalType":"bytes32"},{"name":"nonce","type":"uint256","indexed":false,"internalType":"uint256"}],"anonymous":false}],"bytecode":{"object":"0x60806040526001805462ff00001961ff00199091166101001716905534801561002757600080fd5b506040516126603803806126608339818101604052602081101561004a57600080fd5b5051600680546001600160a01b031916331790556002556125f0806100706000396000f3fe608060405234801561001057600080fd5b506004361061019b5760003560e01c806387c6d4f9116100ea57806387c6d4f91461088057806390b3c4e7146108ac57806391835527146108b4578063a0e2e5f6146108ea578063a4c04bb714610910578063a758f6dd14610918578063ad68ebf714610946578063b17b658d14610972578063ceb6250e14610998578063cfed246b146109c6578063d02641a0146109ec578063daf9c21014610a12578063dce6e18d14610a38578063e30569e514610a6e578063e699e04814610a8b578063f52dc4f714610ab1578063f851a44014610aed5761019b565b80630122f868146101a05780630e913a6c146101c15780632079fb9a146101dd5780632396918d14610216578063287800c914610230578063392e53cd1461023857806341410d4a1461024057806343b45f35146102665780634dc5ecb31461028c5780635183a7ca146102c857806364d4b173146102d057806366d97b21146107155780636c525d041461073b5780637b0365a7146107435780637df73e27146108345780637efdec321461085a575b600080fd5b6101bf600480360360208110156101b657600080fd5b50351515610af5565b005b6101c9610b5e565b604080519115158252519081900360200190f35b6101fa600480360360208110156101f357600080fd5b5035610b6c565b604080516001600160a01b039092168252519081900360200190f35b61021e610b93565b60408051918252519081900360200190f35b61021e610b99565b6101c9610b9f565b6101fa6004803603602081101561025657600080fd5b50356001600160a01b0316610ba8565b6101fa6004803603602081101561027c57600080fd5b50356001600160a01b0316610bc3565b6101bf600480360360808110156102a257600080fd5b506001600160a01b03813581169160208101359091169060408101359060600135610bde565b6101c9610d7e565b6101bf60048036036101408110156102e757600080fd5b6001600160a01b0382351691602081013591810190606081016040820135600160201b81111561031657600080fd5b82018360208201111561032857600080fd5b803590602001918460208302840111600160201b8311171561034957600080fd5b9190808060200260200160405190810160405280939291908181526020018383602002808284376000920191909152509295949360208101935035915050600160201b81111561039857600080fd5b8201836020820111156103aa57600080fd5b803590602001918460208302840111600160201b831117156103cb57600080fd5b9190808060200260200160405190810160405280939291908181526020018383602002808284376000920191909152509295949360208101935035915050600160201b81111561041a57600080fd5b82018360208201111561042c57600080fd5b803590602001918460208302840111600160201b8311171561044d57600080fd5b9190808060200260200160405190810160405280939291908181526020018383602002808284376000920191909152509295949360208101935035915050600160201b81111561049c57600080fd5b8201836020820111156104ae57600080fd5b803590602001918460208302840111600160201b831117156104cf57600080fd5b9190808060200260200160405190810160405280939291908181526020018383602002808284376000920191909152509295949360208101935035915050600160201b81111561051e57600080fd5b82018360208201111561053057600080fd5b803590602001918460208302840111600160201b8311171561055157600080fd5b9190808060200260200160405190810160405280939291908181526020018383602002808284376000920191909152509295949360208101935035915050600160201b8111156105a057600080fd5b8201836020820111156105b257600080fd5b803590602001918460208302840111600160201b831117156105d357600080fd5b9190808060200260200160405190810160405280939291908181526020018383602002808284376000920191909152509295949360208101935035915050600160201b81111561062257600080fd5b82018360208201111561063457600080fd5b803590602001918460208302840111600160201b8311171561065557600080fd5b9190808060200260200160405190810160405280939291908181526020018383602002808284376000920191909152509295949360208101935035915050600160201b8111156106a457600080fd5b8201836020820111156106b657600080fd5b803590602001918460208302840111600160201b831117156106d757600080fd5b919080806020026020016040519081016040528093929190818152602001838360200280828437600092019190915250929550610d8d945050505050565b61021e6004803603602081101561072b57600080fd5b50356001600160a01b0316611236565b6101bf611248565b6107e46004803603602081101561075957600080fd5b810190602081018135600160201b81111561077357600080fd5b82018360208201111561078557600080fd5b803590602001918460208302840111600160201b831117156107a657600080fd5b9190808060200260200160405190810160405280939291908181526020018383602002808284376000920191909152509295506112a2945050505050565b60408051602080825283518183015283519192839290830191858101910280838360005b83811015610820578181015183820152602001610808565b505050509050019250505060405180910390f35b6101c96004803603602081101561084a57600080fd5b50356001600160a01b031661135b565b6101fa6004803603602081101561087057600080fd5b50356001600160a01b0316611370565b6101c96004803603604081101561089657600080fd5b506001600160a01b0381351690602001356113e5565b6101fa611405565b6101bf600480360360608110156108ca57600080fd5b506001600160a01b03813581169160208101359091169060400135611414565b61021e6004803603602081101561090057600080fd5b50356001600160a01b031661148d565b61021e61149f565b61021e6004803603604081101561092e57600080fd5b506001600160a01b03813581169160200135166114a5565b6101bf6004803603604081101561095c57600080fd5b506001600160a01b0381351690602001356114c2565b6101c96004803603602081101561098857600080fd5b50356001600160a01b0316611b18565b61021e600480360360408110156109ae57600080fd5b506001600160a01b0381358116916020013516611b2d565b61021e600480360360208110156109dc57600080fd5b50356001600160a01b0316611b4a565b61021e60048036036020811015610a0257600080fd5b50356001600160a01b0316611b5c565b6101c960048036036020811015610a2857600080fd5b50356001600160a01b0316611bc7565b6101bf60048036036060811015610a4e57600080fd5b506001600160a01b03813581169160208101359091169060400135611bdc565b6101c960048036036020811015610a8457600080fd5b5035611d49565b6101fa60048036036020811015610aa157600080fd5b50356001600160a01b0316611d5e565b6101bf60048036036080811015610ac757600080fd5b506001600160a01b03813581169160208101359091169060408101359060600135611d79565b6101fa611f52565b6006546001600160a01b03163314610b42576040805162461bcd60e51b815260206004820152601660248201526000805160206123e7833981519152604482015290519081900360640190fd5b60018054911515620100000262ff000019909216919091179055565b600154610100900460ff1681565b60078181548110610b7957fe5b6000918252602090912001546001600160a01b0316905081565b60045481565b60025481565b60015460ff1681565b600c602052600090815260409020546001600160a01b031681565b6010602052600090815260409020546001600160a01b031681565b60026000541415610c24576040805162461bcd60e51b815260206004820152601f6024820152600080516020612428833981519152604482015290519081900360640190fd5b60026000556006546001600160a01b03163314610c76576040805162461bcd60e51b815260206004820152601660248201526000805160206123e7833981519152604482015290519081900360640190fd5b6040805166617070726f766560c81b6020808301919091526001600160601b0319606088811b8216602785015287901b16603b830152604f8201859052606f80830185905283518084039091018152608f9092019092528051910120610cdb81611f61565b610ce481611fb1565b846001600160a01b031663095ea7b385856040518363ffffffff1660e01b815260040180836001600160a01b0316815260200182815260200192505050602060405180830381600087803b158015610d3b57600080fd5b505af1158015610d4f573d6000803e3d6000fd5b505050506040513d6020811015610d6557600080fd5b50610d7290508183612097565b50506001600055505050565b60015462010000900460ff1681565b6006546001600160a01b03163314610dda576040805162461bcd60e51b815260206004820152601660248201526000805160206123e7833981519152604482015290519081900360640190fd5b60015460ff1615610e32576040805162461bcd60e51b815260206004820181905260248201527f5a75734d69677261746f723a20616c726561647920696e697469616c697a6564604482015290519081900360640190fd5b8551875114610e725760405162461bcd60e51b81526004018080602001828103825260268152602001806125736026913960400191505060405180910390fd5b8451875114610eb25760405162461bcd60e51b815260040180806020018281038252602381526020018061252f6023913960400191505060405180910390fd5b8351875114610ef25760405162461bcd60e51b81526004018080602001828103825260218152602001806123c66021913960400191505060405180910390fd5b8151835114610f325760405162461bcd60e51b81526004018080602001828103825260268152602001806124486026913960400191505060405180910390fd5b8051835114610f725760405162461bcd60e51b81526004018080602001828103825260268152602001806124986026913960400191505060405180910390fd5b6001805460ff191681179055600380546001600160a01b0319166001600160a01b038c1617905560048990558751610fb19060079060208b0190612341565b5060005b8851811015611008576000898281518110610fcc57fe5b6020908102919091018101516001600160a01b03166000908152600890915260409020805460ff19166001908117909155919091019050610fb5565b5060005b875181101561112c57600088828151811061102357fe5b6020908102919091018101516001600160a01b0381166000908152600b9092526040909120805460ff19166001179055885190915088908390811061106457fe5b6020026020010151600c6000836001600160a01b03166001600160a01b0316815260200190815260200160002060006101000a8154816001600160a01b0302191690836001600160a01b031602179055508682815181106110c157fe5b6020026020010151600d6000836001600160a01b03166001600160a01b03168152602001908152602001600020819055508582815181106110fe57fe5b6020908102919091018101516001600160a01b039092166000908152600e909152604090205560010161100c565b5060005b835181101561122957600084828151811061114757fe5b6020908102919091018101516001600160a01b0381166000908152600f9092526040909120805460ff19166001179055845190915084908390811061118857fe5b602002602001015160106000836001600160a01b03166001600160a01b0316815260200190815260200160002060006101000a8154816001600160a01b0302191690836001600160a01b031602179055508282815181106111e557fe5b6020908102919091018101516001600160a01b0392831660009081526011909252604090912080546001600160a01b03191692909116919091179055600101611130565b5050505050505050505050565b600e6020526000908152604090205481565b6006546001600160a01b03163314611295576040805162461bcd60e51b815260206004820152601660248201526000805160206123e7833981519152604482015290519081900360640190fd5b6001805461ff0019169055565b606080825167ffffffffffffffff811180156112bd57600080fd5b506040519080825280602002602001820160405280156112e7578160200160208202803683370190505b50905060005b835181101561135457600084828151811061130457fe5b6020026020010151905060126000826001600160a01b03166001600160a01b031681526020019081526020016000205483838151811061134057fe5b6020908102919091010152506001016112ed565b5092915050565b60086020526000908152604090205460ff1681565b6001600160a01b038082166000908152600c6020526040812054909116806113df576040805162461bcd60e51b815260206004820152601e60248201527f5a75734d69677261746f723a20696e76616c696420696f7520746f6b656e0000604482015290519081900360640190fd5b92915050565b600a60209081526000928352604080842090915290825290205460ff1681565b6003546001600160a01b031681565b6006546001600160a01b03163314611461576040805162461bcd60e51b815260206004820152601660248201526000805160206123e7833981519152604482015290519081900360640190fd5b6001600160a01b0392831660009081526014602090815260408083209490951682529290925291902055565b60126020526000908152604090205481565b60055481565b601360209081526000928352604080842090915290825290205481565b60026000541415611508576040805162461bcd60e51b815260206004820152601f6024820152600080516020612428833981519152604482015290519081900360640190fd5b6002600055600154610100900460ff166115535760405162461bcd60e51b815260040180806020018281038252602a81526020018061246e602a913960400191505060405180910390fd5b6001600160a01b0382166000908152600b602052604090205460ff166115aa5760405162461bcd60e51b81526004018080602001828103825260228152602001806125996022913960400191505060405180910390fd5b600081116115ff576040805162461bcd60e51b815260206004820181905260248201527f5a75734d69677261746f723a20696e76616c696420746f6b656e416d6f756e74604482015290519081900360640190fd5b60015462010000900460ff16156116ba573360009081526013602090815260408083206001600160a01b038616845290915290205461163e908261214f565b3360008181526013602090815260408083206001600160a01b038816808552818452828520879055948452601483528184209484529382529091205491905210156116ba5760405162461bcd60e51b81526004018080602001828103825260288152602001806124e56028913960400191505060405180910390fd5b60006116c583611b5c565b905060006116e86004546116e284866121ae90919063ffffffff16565b90612207565b90506000811161173f576040805162461bcd60e51b815260206004820152601f60248201527f5a75734d69677261746f723a20696e76616c6964206d696e74416d6f756e7400604482015290519081900360640190fd5b6001600160a01b038416600090815260126020526040902054611762908461214f565b6001600160a01b0385166000908152601260208181526040808420859055600e8252909220549152116117dc576040805162461bcd60e51b815260206004820152601f60248201527f5a75734d69677261746f723a20746f6b656e2063617020657863656564656400604482015290519081900360640190fd5b604080516323b872dd60e01b81523360048201523060248201526044810185905290516001600160a01b038616916323b872dd9160648083019260209291908290030181600087803b15801561183157600080fd5b505af1158015611845573d6000803e3d6000fd5b505050506040513d602081101561185b57600080fd5b50506001600160a01b0384166000908152600f602052604090205460ff1615611a7c576001600160a01b038085166000908152601060209081526040808320546011909252909120549082169116816118f9576040805162461bcd60e51b815260206004820152601b60248201527a5a75734d69677261746f723a20696e76616c696420746f6b656e4160281b604482015290519081900360640190fd5b6001600160a01b038116611952576040805162461bcd60e51b815260206004820152601b60248201527a2d3ab9a6b4b3b930ba37b91d1034b73b30b634b2103a37b5b2b72160291b604482015290519081900360640190fd5b6003546040805163095ea7b360e01b81526001600160a01b0392831660048201526024810188905290519188169163095ea7b3916044808201926020929091908290030181600087803b1580156119a857600080fd5b505af11580156119bc573d6000803e3d6000fd5b505050506040513d60208110156119d257600080fd5b505060035460408051635d5155ef60e11b81526001600160a01b038581166004830152848116602483015260448201899052600060648301819052608483018190523060a48401524260c48401528351919094169363baa2abde9360e480850194919392918390030190829087803b158015611a4d57600080fd5b505af1158015611a61573d6000803e3d6000fd5b505050506040513d6040811015611a7757600080fd5b505050505b6000611a8785611370565b9050806001600160a01b03166340c10f1933846040518363ffffffff1660e01b815260040180836001600160a01b0316815260200182815260200192505050602060405180830381600087803b158015611ae057600080fd5b505af1158015611af4573d6000803e3d6000fd5b505050506040513d6020811015611b0a57600080fd5b505060016000555050505050565b600f6020526000908152604090205460ff1681565b601460209081526000928352604080842090915290825290205481565b600d6020526000908152604090205481565b6001600160a01b0381166000908152600d6020526040812054806113df576040805162461bcd60e51b815260206004820181905260248201527f5a75734d69677261746f723a20696e76616c696420746f6b656e207072696365604482015290519081900360640190fd5b600b6020526000908152604090205460ff1681565b60026000541415611c22576040805162461bcd60e51b815260206004820152601f6024820152600080516020612428833981519152604482015290519081900360640190fd5b60026000556006546001600160a01b03163314611c74576040805162461bcd60e51b815260206004820152601660248201526000805160206123e7833981519152604482015290519081900360640190fd5b60058054600101908190556040805166617070726f766560c81b6020808301919091526001600160601b0319606088811b8216602785015287901b16603b830152604f8201859052606f80830185905283518084039091018152608f9092019092528051910120611ce58183612246565b604080516001600160a01b03808816825286166020820152808201859052606081018390526080810184905290517fc19251bf5f704ddc3d5babe6f4e5bde0dded20b19f7844716861821ab3163cd79181900360a00190a150506001600055505050565b60096020526000908152604090205460ff1681565b6011602052600090815260409020546001600160a01b031681565b60026000541415611dbf576040805162461bcd60e51b815260206004820152601f6024820152600080516020612428833981519152604482015290519081900360640190fd5b600260009081553381526008602052604090205460ff16611e15576040805162461bcd60e51b815260206004820152601660248201526000805160206123e7833981519152604482015290519081900360640190fd5b6040805166617070726f766560c81b6020808301919091526001600160601b0319606088811b8216602785015287901b16603b830152604f8201859052606f80830185905283518084039091018152608f9092019092528051910120611e7a81611f61565b336000908152600a6020908152604080832084845290915290205460ff1615611ee8576040805162461bcd60e51b815260206004820152601b60248201527a169d5cd35a59dc985d1bdc8e88185b1c9958591e481cda59db9959602a1b604482015290519081900360640190fd5b336000908152600a60209081526040808320848452825291829020805460ff19166001179055815183815290810184905281517faae28fe5531fe5dfb8d12409392ec67b50c825dd06233312cb6aeaddd16cbd22929181900390910190a150506001600055505050565b6006546001600160a01b031681565b60008181526009602052604090205460ff16611fae5760405162461bcd60e51b81526004018080602001828103825260218152602001806124076021913960400191505060405180910390fd5b50565b6000805b60075481101561201557600060078281548110611fce57fe5b60009182526020808320909101546001600160a01b0316808352600a8252604080842088855290925291205490915060ff161561200c576001909201915b50600101611fb5565b50806120525760405162461bcd60e51b815260040180806020018281038252602281526020018061250d6022913960400191505060405180910390fd5b6002548110156120935760405162461bcd60e51b81526004018080602001828103825260278152602001806124be6027913960400191505060405180910390fd5b5050565b60008281526009602052604090205460ff166120f9576040805162461bcd60e51b815260206004820152601c60248201527b2d3ab9a6b4b3b930ba37b91d1034b73b30b634b2102fb0b1ba34b7b760211b604482015290519081900360640190fd5b600082815260096020908152604091829020805460ff19169055815184815290810183905281517ff4640d39061e643d9b802cb3725953405344555ad6dbb1cbdb0495f3eccb8e68929181900390910190a15050565b6000828201838110156121a7576040805162461bcd60e51b815260206004820152601b60248201527a536166654d6174683a206164646974696f6e206f766572666c6f7760281b604482015290519081900360640190fd5b9392505050565b6000826121bd575060006113df565b828202828482816121ca57fe5b04146121a75760405162461bcd60e51b81526004018080602001828103825260218152602001806125526021913960400191505060405180910390fd5b60006121a783836040518060400160405280601a815260200179536166654d6174683a206469766973696f6e206279207a65726f60301b81525061229f565b600082815260096020908152604091829020805460ff19166001179055815184815290810183905281517f64df01c46eb530dc540770a0b88cc32f0b8c2b371a546ae0b13cc8ca6671fff9929181900390910190a15050565b6000818361232b5760405162461bcd60e51b81526004018080602001828103825283818151815260200191508051906020019080838360005b838110156122f05781810151838201526020016122d8565b50505050905090810190601f16801561231d5780820380516001836020036101000a031916815260200191505b509250505060405180910390fd5b50600083858161233757fe5b0495945050505050565b828054828255906000526020600020908101928215612396579160200282015b8281111561239657825182546001600160a01b0319166001600160a01b03909116178255602090920191600190910190612361565b506123a29291506123a6565b5090565b5b808211156123a25780546001600160a01b03191681556001016123a756fe5a75734d69677261746f723a20696e76616c6964205f636170732e6c656e6774685a75734d69677261746f723a20666f7262696464656e000000000000000000005a75734d69677261746f723a20616374696f6e206e6f74207369676e616c6c65645265656e7472616e637947756172643a207265656e7472616e742063616c6c005a75734d69677261746f723a20696e76616c6964205f6c70546f6b656e41732e6c656e6774685a75734d69677261746f723a206d6967726174696f6e206973206e6f206c6f6e676572206163746976655a75734d69677261746f723a20696e76616c6964205f6c70546f6b656e42732e6c656e6774685a75734d69677261746f723a20696e73756666696369656e7420617574686f72697a6174696f6e5a75734d69677261746f723a206d61784d6967726174696f6e416d6f756e742065786365656465645a75734d69677261746f723a20616374696f6e206e6f7420617574686f72697a65645a75734d69677261746f723a20696e76616c6964205f7072696365732e6c656e677468536166654d6174683a206d756c7469706c69636174696f6e206f766572666c6f775a75734d69677261746f723a20696e76616c6964205f696f75546f6b656e732e6c656e6774685a75734d69677261746f723a20746f6b656e206e6f742077686974656c6973746564a2646970667358221220dced3ae98a042415fed6d22b6b4c91b1216eaca0eb239a31224a418fe5bb799a64736f6c634300060c0033","linkReferences":{}},"methodIdentifiers":{"actionsNonce()":"a4c04bb7","admin()":"f851a440","ammRouter()":"90b3c4e7","approve(address,address,uint256,uint256)":"4dc5ecb3","caps(address)":"66d97b21","endMigration()":"6c525d04","getIouToken(address)":"7efdec32","getTokenAmounts(address[])":"7b0365a7","getTokenPrice(address)":"d02641a0","hasMaxMigrationLimit()":"5183a7ca","initialize(address,uint256,address[],address[],address[],uint256[],uint256[],address[],address[],address[])":"64d4b173","iouTokens(address)":"41410d4a","isInitialized()":"392e53cd","isMigrationActive()":"0e913a6c","isSigner(address)":"7df73e27","lpTokenAs(address)":"43b45f35","lpTokenBs(address)":"e699e048","lpTokens(address)":"b17b658d","maxMigrationAmounts(address,address)":"ceb6250e","migrate(address,uint256)":"ad68ebf7","migratedAmounts(address,address)":"a758f6dd","minAuthorizations()":"287800c9","pendingActions(bytes32)":"e30569e5","prices(address)":"cfed246b","setHasMaxMigrationLimit(bool)":"0122f868","setMaxMigrationAmount(address,address,uint256)":"91835527","signApprove(address,address,uint256,uint256)":"f52dc4f7","signalApprove(address,address,uint256)":"dce6e18d","signedActions(address,bytes32)":"87c6d4f9","signers(uint256)":"2079fb9a","tokenAmounts(address)":"a0e2e5f6","whitelistedTokens(address)":"daf9c210","zusPrice()":"2396918d"},"id":169}