{"abi":[{"type":"constructor","inputs":[{"name":"_vault","type":"address","internalType":"address"},{"name":"_router","type":"address","internalType":"address"},{"name":"_shortsTracker","type":"address","internalType":"address"},{"name":"_weth","type":"address","internalType":"address"},{"name":"_depositFee","type":"uint256","internalType":"uint256"}],"stateMutability":"nonpayable"},{"type":"receive","stateMutability":"payable"},{"type":"function","name":"BASIS_POINTS_DIVISOR","inputs":[],"outputs":[{"name":"","type":"uint256","internalType":"uint256"}],"stateMutability":"view"},{"type":"function","name":"acceptGov","inputs":[],"outputs":[],"stateMutability":"nonpayable"},{"type":"function","name":"admin","inputs":[],"outputs":[{"name":"","type":"address","internalType":"address"}],"stateMutability":"view"},{"type":"function","name":"approve","inputs":[{"name":"_token","type":"address","internalType":"address"},{"name":"_spender","type":"address","internalType":"address"},{"name":"_amount","type":"uint256","internalType":"uint256"}],"outputs":[],"stateMutability":"nonpayable"},{"type":"function","name":"cancelGovProposal","inputs":[{"name":"_gov","type":"address","internalType":"address"}],"outputs":[],"stateMutability":"nonpayable"},{"type":"function","name":"depositFee","inputs":[],"outputs":[{"name":"","type":"uint256","internalType":"uint256"}],"stateMutability":"view"},{"type":"function","name":"ethTransferGasLimit","inputs":[],"outputs":[{"name":"","type":"uint256","internalType":"uint256"}],"stateMutability":"view"},{"type":"function","name":"feeReserves","inputs":[{"name":"","type":"address","internalType":"address"}],"outputs":[{"name":"","type":"uint256","internalType":"uint256"}],"stateMutability":"view"},{"type":"function","name":"gov","inputs":[],"outputs":[{"name":"","type":"address","internalType":"address"}],"stateMutability":"view"},{"type":"function","name":"govProposals","inputs":[{"name":"","type":"address","internalType":"address"}],"outputs":[{"name":"deadline","type":"uint256","internalType":"uint256"},{"name":"isActive","type":"bool","internalType":"bool"}],"stateMutability":"view"},{"type":"function","name":"increasePositionBufferBps","inputs":[],"outputs":[{"name":"","type":"uint256","internalType":"uint256"}],"stateMutability":"view"},{"type":"function","name":"maxGlobalLongSizes","inputs":[{"name":"","type":"address","internalType":"address"}],"outputs":[{"name":"","type":"uint256","internalType":"uint256"}],"stateMutability":"view"},{"type":"function","name":"maxGlobalShortSizes","inputs":[{"name":"","type":"address","internalType":"address"}],"outputs":[{"name":"","type":"uint256","internalType":"uint256"}],"stateMutability":"view"},{"type":"function","name":"referralStorage","inputs":[],"outputs":[{"name":"","type":"address","internalType":"address"}],"stateMutability":"view"},{"type":"function","name":"router","inputs":[],"outputs":[{"name":"","type":"address","internalType":"address"}],"stateMutability":"view"},{"type":"function","name":"sendValue","inputs":[{"name":"_receiver","type":"address","internalType":"address payable"},{"name":"_amount","type":"uint256","internalType":"uint256"}],"outputs":[],"stateMutability":"nonpayable"},{"type":"function","name":"setAdmin","inputs":[{"name":"_admin","type":"address","internalType":"address"}],"outputs":[],"stateMutability":"nonpayable"},{"type":"function","name":"setDepositFee","inputs":[{"name":"_depositFee","type":"uint256","internalType":"uint256"}],"outputs":[],"stateMutability":"nonpayable"},{"type":"function","name":"setEthTransferGasLimit","inputs":[{"name":"_ethTransferGasLimit","type":"uint256","internalType":"uint256"}],"outputs":[],"stateMutability":"nonpayable"},{"type":"function","name":"setGov","inputs":[{"name":"_gov","type":"address","internalType":"address"}],"outputs":[],"stateMutability":"nonpayable"},{"type":"function","name":"setGovWithDeadline","inputs":[{"name":"_gov","type":"address","internalType":"address"},{"name":"_deadline","type":"uint256","internalType":"uint256"}],"outputs":[],"stateMutability":"nonpayable"},{"type":"function","name":"setIncreasePositionBufferBps","inputs":[{"name":"_increasePositionBufferBps","type":"uint256","internalType":"uint256"}],"outputs":[],"stateMutability":"nonpayable"},{"type":"function","name":"setMaxGlobalSizes","inputs":[{"name":"_tokens","type":"address[]","internalType":"address[]"},{"name":"_longSizes","type":"uint256[]","internalType":"uint256[]"},{"name":"_shortSizes","type":"uint256[]","internalType":"uint256[]"}],"outputs":[],"stateMutability":"nonpayable"},{"type":"function","name":"setReferralStorage","inputs":[{"name":"_referralStorage","type":"address","internalType":"address"}],"outputs":[],"stateMutability":"nonpayable"},{"type":"function","name":"shortsTracker","inputs":[],"outputs":[{"name":"","type":"address","internalType":"address"}],"stateMutability":"view"},{"type":"function","name":"vault","inputs":[],"outputs":[{"name":"","type":"address","internalType":"address"}],"stateMutability":"view"},{"type":"function","name":"weth","inputs":[],"outputs":[{"name":"","type":"address","internalType":"address"}],"stateMutability":"view"},{"type":"function","name":"withdrawFees","inputs":[{"name":"_token","type":"address","internalType":"address"},{"name":"_receiver","type":"address","internalType":"address"}],"outputs":[],"stateMutability":"nonpayable"},{"type":"event","name":"DecreasePositionReferral","inputs":[{"name":"account","type":"address","indexed":false,"internalType":"address"},{"name":"sizeDelta","type":"uint256","indexed":false,"internalType":"uint256"},{"name":"marginFeeBasisPoints","type":"uint256","indexed":false,"internalType":"uint256"},{"name":"referralCode","type":"bytes32","indexed":false,"internalType":"bytes32"},{"name":"referrer","type":"address","indexed":false,"internalType":"address"}],"anonymous":false},{"type":"event","name":"GovProposalCanceled","inputs":[{"name":"proposedGov","type":"address","indexed":true,"internalType":"address"},{"name":"canceledBy","type":"address","indexed":true,"internalType":"address"}],"anonymous":false},{"type":"event","name":"GovernanceTransferRequested","inputs":[{"name":"newGov","type":"address","indexed":true,"internalType":"address"},{"name":"deadline","type":"uint256","indexed":false,"internalType":"uint256"}],"anonymous":false},{"type":"event","name":"GovernanceTransferred","inputs":[{"name":"oldGov","type":"address","indexed":true,"internalType":"address"},{"name":"newGov","type":"address","indexed":true,"internalType":"address"}],"anonymous":false},{"type":"event","name":"IncreasePositionReferral","inputs":[{"name":"account","type":"address","indexed":false,"internalType":"address"},{"name":"sizeDelta","type":"uint256","indexed":false,"internalType":"uint256"},{"name":"marginFeeBasisPoints","type":"uint256","indexed":false,"internalType":"uint256"},{"name":"referralCode","type":"bytes32","indexed":false,"internalType":"bytes32"},{"name":"referrer","type":"address","indexed":false,"internalType":"address"}],"anonymous":false},{"type":"event","name":"SetAdmin","inputs":[{"name":"admin","type":"address","indexed":false,"internalType":"address"}],"anonymous":false},{"type":"event","name":"SetDepositFee","inputs":[{"name":"depositFee","type":"uint256","indexed":false,"internalType":"uint256"}],"anonymous":false},{"type":"event","name":"SetEthTransferGasLimit","inputs":[{"name":"ethTransferGasLimit","type":"uint256","indexed":false,"internalType":"uint256"}],"anonymous":false},{"type":"event","name":"SetIncreasePositionBufferBps","inputs":[{"name":"increasePositionBufferBps","type":"uint256","indexed":false,"internalType":"uint256"}],"anonymous":false},{"type":"event","name":"SetMaxGlobalSizes","inputs":[{"name":"tokens","type":"address[]","indexed":false,"internalType":"address[]"},{"name":"longSizes","type":"uint256[]","indexed":false,"internalType":"uint256[]"},{"name":"shortSizes","type":"uint256[]","indexed":false,"internalType":"uint256[]"}],"anonymous":false},{"type":"event","name":"SetReferralStorage","inputs":[{"name":"referralStorage","type":"address","indexed":false,"internalType":"address"}],"anonymous":false},{"type":"event","name":"WithdrawFees","inputs":[{"name":"token","type":"address","indexed":false,"internalType":"address"},{"name":"receiver","type":"address","indexed":false,"internalType":"address"},{"name":"amount","type":"uint256","indexed":false,"internalType":"uint256"}],"anonymous":false}],"bytecode":{"object":"0x6101006040526207a120600455606460065534801561001d57600080fd5b50604051611a7a380380611a7a833981810160405260a081101561004057600080fd5b50805160208201516040830151606080850151608095860151600180546001600160a01b0319908116339081179092556001600160601b031997851b881690985294831b861660c05290821b851660e0526005551b90911660a0526003805490921617905560805160601c60a05160601c60c05160601c60e05160601c61198f6100eb6000398061015a528061097f5250806113c4525080610a295250806113e8525061198f6000f3fe60806040526004361061014a5760003560e01c80626cc35e146101c45780631045c74e146101f5578063126082cf1461023a57806312d43a511461024f5780631ce9cb8f14610264578063233bfe3b1461029757806324a084df146102c15780632d79cf42146102fa5780633a9b52ad1461030f5780633fc8cef314610339578063490ae2101461034e578063657bc5d01461037857806367a527931461038d5780636bb22fd7146103a2578063704b6c02146103db5780637bc6729b1461040e5780638d0fedb0146104235780639698d25a1461046f57806398d1e03a146104a25780639c35b497146104b7578063ae4d7f9a146104ea578063cfad57a21461051d578063e1f21c6714610550578063ef12c67e14610593578063f255527814610745578063f851a44014610780578063f887ea4014610795578063fbfa77cf146107aa576101bf565b366101bf57336001600160a01b037f000000000000000000000000000000000000000000000000000000000000000016146101bd576040805162461bcd60e51b815260206004820152600e60248201526d34b73b30b634b21039b2b73232b960911b604482015290519081900360640190fd5b005b600080fd5b3480156101d057600080fd5b506101d96107bf565b604080516001600160a01b039092168252519081900360200190f35b34801561020157600080fd5b506102286004803603602081101561021857600080fd5b50356001600160a01b03166107ce565b60408051918252519081900360200190f35b34801561024657600080fd5b506102286107e0565b34801561025b57600080fd5b506101d96107e6565b34801561027057600080fd5b506102286004803603602081101561028757600080fd5b50356001600160a01b03166107f5565b3480156102a357600080fd5b506101bd600480360360208110156102ba57600080fd5b5035610807565b3480156102cd57600080fd5b506101bd600480360360408110156102e457600080fd5b506001600160a01b03813516906020013561088d565b34801561030657600080fd5b506102286108f1565b34801561031b57600080fd5b506101bd6004803603602081101561033257600080fd5b50356108f7565b34801561034557600080fd5b506101d961097d565b34801561035a57600080fd5b506101bd6004803603602081101561037157600080fd5b50356109a1565b34801561038457600080fd5b506101d9610a27565b34801561039957600080fd5b50610228610a4b565b3480156103ae57600080fd5b506101bd600480360360408110156103c557600080fd5b506001600160a01b038135169060200135610a51565b3480156103e757600080fd5b506101bd600480360360208110156103fe57600080fd5b50356001600160a01b0316610b62565b34801561041a57600080fd5b506101bd610c03565b34801561042f57600080fd5b506104566004803603602081101561044657600080fd5b50356001600160a01b0316610d18565b6040805192835290151560208301528051918290030190f35b34801561047b57600080fd5b506102286004803603602081101561049257600080fd5b50356001600160a01b0316610d34565b3480156104ae57600080fd5b50610228610d46565b3480156104c357600080fd5b506101bd600480360360208110156104da57600080fd5b50356001600160a01b0316610d4c565b3480156104f657600080fd5b506101bd6004803603602081101561050d57600080fd5b50356001600160a01b0316610e5a565b34801561052957600080fd5b506101bd6004803603602081101561054057600080fd5b50356001600160a01b0316610ef9565b34801561055c57600080fd5b506101bd6004803603606081101561057357600080fd5b506001600160a01b0381358116916020810135909116906040013561100f565b34801561059f57600080fd5b506101bd600480360360608110156105b657600080fd5b810190602081018135600160201b8111156105d057600080fd5b8201836020820111156105e257600080fd5b803590602001918460208302840111600160201b8311171561060357600080fd5b9190808060200260200160405190810160405280939291908181526020018383602002808284376000920191909152509295949360208101935035915050600160201b81111561065257600080fd5b82018360208201111561066457600080fd5b803590602001918460208302840111600160201b8311171561068557600080fd5b9190808060200260200160405190810160405280939291908181526020018383602002808284376000920191909152509295949360208101935035915050600160201b8111156106d457600080fd5b8201836020820111156106e657600080fd5b803590602001918460208302840111600160201b8311171561070757600080fd5b9190808060200260200160405190810160405280939291908181526020018383602002808284376000920191909152509295506110e4945050505050565b34801561075157600080fd5b506101bd6004803603604081101561076857600080fd5b506001600160a01b03813581169160200135166112d1565b34801561078c57600080fd5b506101d96113b3565b3480156107a157600080fd5b506101d96113c2565b3480156107b657600080fd5b506101d96113e6565b6007546001600160a01b031681565b60096020526000908152604090205481565b61271081565b6001546001600160a01b031681565b60086020526000908152604090205481565b6003546001600160a01b03163314610852576040805162461bcd60e51b81526020600482015260096024820152683337b93134b23232b760b91b604482015290519081900360640190fd5b60068190556040805182815290517f21167d0d4661af93817ebce920f18986eed3d75d5e1c03f2aed05efcbafbc4529181900360200190a150565b6001546001600160a01b031633146108da576040805162461bcd60e51b8152602060048201526015602482015260008051602061188e833981519152604482015290519081900360640190fd5b6108ed6001600160a01b0383168261140a565b5050565b60045481565b6003546001600160a01b03163314610942576040805162461bcd60e51b81526020600482015260096024820152683337b93134b23232b760b91b604482015290519081900360640190fd5b60048190556040805182815290517f4d371d598d3a13f99ce992a17975bbaf1e1c256e072ec7d2f93ce88e40d9ba1c9181900360200190a150565b7f000000000000000000000000000000000000000000000000000000000000000081565b6003546001600160a01b031633146109ec576040805162461bcd60e51b81526020600482015260096024820152683337b93134b23232b760b91b604482015290519081900360640190fd5b60058190556040805182815290517f974fd3c1fcb4653dfc4fb740c4c692cd212d55c28f163f310128cb64d83006759181900360200190a150565b7f000000000000000000000000000000000000000000000000000000000000000081565b60055481565b6001546001600160a01b03163314610a9e576040805162461bcd60e51b8152602060048201526015602482015260008051602061188e833981519152604482015290519081900360640190fd5b6001600160a01b038216610af7576040805162461bcd60e51b815260206004820152601b60248201527a476f7665726e61626c653a20696e76616c6964206164647265737360281b604482015290519081900360640190fd5b6001546001600160a01b0383811691161415610b58576040805162461bcd60e51b815260206004820152601b60248201527a476f7665726e61626c653a2073616d6520676f7665726e616e636560281b604482015290519081900360640190fd5b6108ed82826114f4565b6001546001600160a01b03163314610baf576040805162461bcd60e51b8152602060048201526015602482015260008051602061188e833981519152604482015290519081900360640190fd5b600380546001600160a01b0383166001600160a01b0319909116811790915560408051918252517f5a272403b402d892977df56625f4164ccaf70ca3863991c43ecfe76a6905b0a19181900360200190a150565b33600090815260026020526040902080544210610c66576040805162461bcd60e51b815260206004820152601c60248201527b11dbdd995c9b98589b194e88191958591b1a5b9948195e1c1a5c995960221b604482015290519081900360640190fd5b60018082015460ff16151514610cad5760405162461bcd60e51b815260040180806020018281038252602281526020018061190e6022913960400191505060405180910390fd5b60018054336000818152600260205260408082208281558501805460ff1916905584546001600160a01b031916831790945592516001600160a01b0390921692909183917f5f56bee8cffbe9a78652a74a60705edede02af10b0bbb888ca44b79a0d42ce8091a35050565b6002602052600090815260409020805460019091015460ff1682565b600a6020526000908152604090205481565b60065481565b6001546001600160a01b03163314610d99576040805162461bcd60e51b8152602060048201526015602482015260008051602061188e833981519152604482015290519081900360640190fd5b6001600160a01b03811660009081526002602052604090206001015460ff16610e09576040805162461bcd60e51b815260206004820152601f60248201527f476f7665726e61626c653a2070726f706f73616c206e6f742061637469766500604482015290519081900360640190fd5b6001600160a01b038116600081815260026020526040808220828155600101805460ff19169055513392917ffc6a2fa53abe2adfe8372a9495032d7e6458d3aed34fa880132b6c808da1e99c91a350565b6003546001600160a01b03163314610ea5576040805162461bcd60e51b81526020600482015260096024820152683337b93134b23232b760b91b604482015290519081900360640190fd5b600780546001600160a01b0383166001600160a01b0319909116811790915560408051918252517f828abcccea18192c21d645e575652c49e20b986dab777906fc473d056b01b6a89181900360200190a150565b6001546001600160a01b03163314610f46576040805162461bcd60e51b8152602060048201526015602482015260008051602061188e833981519152604482015290519081900360640190fd5b6001600160a01b038116610f9f576040805162461bcd60e51b815260206004820152601b60248201527a476f7665726e61626c653a20696e76616c6964206164647265737360281b604482015290519081900360640190fd5b6001546001600160a01b0382811691161415611000576040805162461bcd60e51b815260206004820152601b60248201527a476f7665726e61626c653a2073616d6520676f7665726e616e636560281b604482015290519081900360640190fd5b61100c816000196114f4565b50565b6001546001600160a01b0316331461105c576040805162461bcd60e51b8152602060048201526015602482015260008051602061188e833981519152604482015290519081900360640190fd5b826001600160a01b031663095ea7b383836040518363ffffffff1660e01b815260040180836001600160a01b0316815260200182815260200192505050602060405180830381600087803b1580156110b357600080fd5b505af11580156110c7573d6000803e3d6000fd5b505050506040513d60208110156110dd57600080fd5b5050505050565b6003546001600160a01b0316331461112f576040805162461bcd60e51b81526020600482015260096024820152683337b93134b23232b760b91b604482015290519081900360640190fd5b60005b83518110156111ca57600084828151811061114957fe5b6020026020010151905083828151811061115f57fe5b602002602001015160096000836001600160a01b03166001600160a01b031681526020019081526020016000208190555082828151811061119c57fe5b6020908102919091018101516001600160a01b039092166000908152600a9091526040902055600101611132565b507fae32d569b058895b9620d6552b09aaffedc9a6f396be4d595a224ad09f8b213983838360405180806020018060200180602001848103845287818151815260200191508051906020019060200280838360005b8381101561123757818101518382015260200161121f565b50505050905001848103835286818151815260200191508051906020019060200280838360005b8381101561127657818101518382015260200161125e565b50505050905001848103825285818151815260200191508051906020019060200280838360005b838110156112b557818101518382015260200161129d565b50505050905001965050505050505060405180910390a1505050565b6003546001600160a01b0316331461131c576040805162461bcd60e51b81526020600482015260096024820152683337b93134b23232b760b91b604482015290519081900360640190fd5b6001600160a01b0382166000908152600860205260409020548061134057506108ed565b6001600160a01b038316600081815260086020526040812055611364908383611570565b604080516001600160a01b0380861682528416602082015280820183905290517f4f1b51dd7a2fcb861aa2670f668be66835c4ee12b4bbbf037e4d0018f39819e49181900360600190a1505050565b6003546001600160a01b031681565b7f000000000000000000000000000000000000000000000000000000000000000081565b7f000000000000000000000000000000000000000000000000000000000000000081565b8047101561145f576040805162461bcd60e51b815260206004820152601d60248201527f416464726573733a20696e73756666696369656e742062616c616e6365000000604482015290519081900360640190fd5b6040516000906001600160a01b0384169083908381818185875af1925050503d80600081146114aa576040519150601f19603f3d011682016040523d82523d6000602084013e6114af565b606091505b50509050806114ef5760405162461bcd60e51b815260040180806020018281038252603a8152602001806118ae603a913960400191505060405180910390fd5b505050565b604080518082018252828152600160208083018281526001600160a01b03871660008181526002845286902094518555905193909201805460ff1916931515939093179092558251848152925190927f02dd0697be46e764c3ba81094158781c31b235d03bb27a0daf1bdef0ec1084dd92908290030190a25050565b604080516001600160a01b038416602482015260448082018490528251808303909101815260649091019091526020810180516001600160e01b031663a9059cbb60e01b1790526114ef9084906060611612826040518060400160405280602081526020017f5361666545524332303a206c6f772d6c6576656c2063616c6c206661696c6564815250856001600160a01b031661166e9092919063ffffffff16565b8051909150156114ef5780806020019051602081101561163157600080fd5b50516114ef5760405162461bcd60e51b815260040180806020018281038252602a815260200180611930602a913960400191505060405180910390fd5b606061167d8484600085611687565b90505b9392505050565b6060824710156116c85760405162461bcd60e51b81526004018080602001828103825260268152602001806118e86026913960400191505060405180910390fd5b6116d1856117e3565b611722576040805162461bcd60e51b815260206004820152601d60248201527f416464726573733a2063616c6c20746f206e6f6e2d636f6e7472616374000000604482015290519081900360640190fd5b60006060866001600160a01b031685876040518082805190602001908083835b602083106117615780518252601f199092019160209182019101611742565b6001836020036101000a03801982511681845116808217855250505050505090500191505060006040518083038185875af1925050503d80600081146117c3576040519150601f19603f3d011682016040523d82523d6000602084013e6117c8565b606091505b50915091506117d88282866117e9565b979650505050505050565b3b151590565b606083156117f8575081611680565b8251156118085782518084602001fd5b8160405162461bcd60e51b81526004018080602001828103825283818151815260200191508051906020019080838360005b8381101561185257818101518382015260200161183a565b50505050905090810190601f16801561187f5780820380516001836020036101000a031916815260200191505b509250505060405180910390fdfe476f7665726e61626c653a20666f7262696464656e0000000000000000000000416464726573733a20756e61626c6520746f2073656e642076616c75652c20726563697069656e74206d61792068617665207265766572746564416464726573733a20696e73756666696369656e742062616c616e636520666f722063616c6c476f7665726e61626c653a2070726f706f73616c206973206e6f74206163746976655361666545524332303a204552433230206f7065726174696f6e20646964206e6f742073756363656564a26469706673582212205571f8218ee0c096bfe83038b12e6d1006276d278027a961684b17deed2c779d64736f6c634300060c0033","linkReferences":{}},"methodIdentifiers":{"BASIS_POINTS_DIVISOR()":"126082cf","acceptGov()":"7bc6729b","admin()":"f851a440","approve(address,address,uint256)":"e1f21c67","cancelGovProposal(address)":"9c35b497","depositFee()":"67a52793","ethTransferGasLimit()":"2d79cf42","feeReserves(address)":"1ce9cb8f","gov()":"12d43a51","govProposals(address)":"8d0fedb0","increasePositionBufferBps()":"98d1e03a","maxGlobalLongSizes(address)":"1045c74e","maxGlobalShortSizes(address)":"9698d25a","referralStorage()":"006cc35e","router()":"f887ea40","sendValue(address,uint256)":"24a084df","setAdmin(address)":"704b6c02","setDepositFee(uint256)":"490ae210","setEthTransferGasLimit(uint256)":"3a9b52ad","setGov(address)":"cfad57a2","setGovWithDeadline(address,uint256)":"6bb22fd7","setIncreasePositionBufferBps(uint256)":"233bfe3b","setMaxGlobalSizes(address[],uint256[],uint256[])":"ef12c67e","setReferralStorage(address)":"ae4d7f9a","shortsTracker()":"657bc5d0","vault()":"fbfa77cf","weth()":"3fc8cef3","withdrawFees(address,address)":"f2555278"},"id":34}