{"abi":[{"type":"constructor","inputs":[{"name":"_vault","type":"address","internalType":"address"},{"name":"_router","type":"address","internalType":"address"},{"name":"_shortsTracker","type":"address","internalType":"address"},{"name":"_weth","type":"address","internalType":"address"},{"name":"_depositFee","type":"uint256","internalType":"uint256"}],"stateMutability":"nonpayable"},{"type":"receive","stateMutability":"payable"},{"type":"function","name":"BASIS_POINTS_DIVISOR","inputs":[],"outputs":[{"name":"","type":"uint256","internalType":"uint256"}],"stateMutability":"view"},{"type":"function","name":"admin","inputs":[],"outputs":[{"name":"","type":"address","internalType":"address"}],"stateMutability":"view"},{"type":"function","name":"approve","inputs":[{"name":"_token","type":"address","internalType":"address"},{"name":"_spender","type":"address","internalType":"address"},{"name":"_amount","type":"uint256","internalType":"uint256"}],"outputs":[],"stateMutability":"nonpayable"},{"type":"function","name":"depositFee","inputs":[],"outputs":[{"name":"","type":"uint256","internalType":"uint256"}],"stateMutability":"view"},{"type":"function","name":"ethTransferGasLimit","inputs":[],"outputs":[{"name":"","type":"uint256","internalType":"uint256"}],"stateMutability":"view"},{"type":"function","name":"feeReserves","inputs":[{"name":"","type":"address","internalType":"address"}],"outputs":[{"name":"","type":"uint256","internalType":"uint256"}],"stateMutability":"view"},{"type":"function","name":"gov","inputs":[],"outputs":[{"name":"","type":"address","internalType":"address"}],"stateMutability":"view"},{"type":"function","name":"increasePositionBufferBps","inputs":[],"outputs":[{"name":"","type":"uint256","internalType":"uint256"}],"stateMutability":"view"},{"type":"function","name":"maxGlobalLongSizes","inputs":[{"name":"","type":"address","internalType":"address"}],"outputs":[{"name":"","type":"uint256","internalType":"uint256"}],"stateMutability":"view"},{"type":"function","name":"maxGlobalShortSizes","inputs":[{"name":"","type":"address","internalType":"address"}],"outputs":[{"name":"","type":"uint256","internalType":"uint256"}],"stateMutability":"view"},{"type":"function","name":"referralStorage","inputs":[],"outputs":[{"name":"","type":"address","internalType":"address"}],"stateMutability":"view"},{"type":"function","name":"router","inputs":[],"outputs":[{"name":"","type":"address","internalType":"address"}],"stateMutability":"view"},{"type":"function","name":"sendValue","inputs":[{"name":"_receiver","type":"address","internalType":"address payable"},{"name":"_amount","type":"uint256","internalType":"uint256"}],"outputs":[],"stateMutability":"nonpayable"},{"type":"function","name":"setAdmin","inputs":[{"name":"_admin","type":"address","internalType":"address"}],"outputs":[],"stateMutability":"nonpayable"},{"type":"function","name":"setDepositFee","inputs":[{"name":"_depositFee","type":"uint256","internalType":"uint256"}],"outputs":[],"stateMutability":"nonpayable"},{"type":"function","name":"setEthTransferGasLimit","inputs":[{"name":"_ethTransferGasLimit","type":"uint256","internalType":"uint256"}],"outputs":[],"stateMutability":"nonpayable"},{"type":"function","name":"setGov","inputs":[{"name":"_gov","type":"address","internalType":"address"}],"outputs":[],"stateMutability":"nonpayable"},{"type":"function","name":"setIncreasePositionBufferBps","inputs":[{"name":"_increasePositionBufferBps","type":"uint256","internalType":"uint256"}],"outputs":[],"stateMutability":"nonpayable"},{"type":"function","name":"setMaxGlobalSizes","inputs":[{"name":"_tokens","type":"address[]","internalType":"address[]"},{"name":"_longSizes","type":"uint256[]","internalType":"uint256[]"},{"name":"_shortSizes","type":"uint256[]","internalType":"uint256[]"}],"outputs":[],"stateMutability":"nonpayable"},{"type":"function","name":"setReferralStorage","inputs":[{"name":"_referralStorage","type":"address","internalType":"address"}],"outputs":[],"stateMutability":"nonpayable"},{"type":"function","name":"shortsTracker","inputs":[],"outputs":[{"name":"","type":"address","internalType":"address"}],"stateMutability":"view"},{"type":"function","name":"vault","inputs":[],"outputs":[{"name":"","type":"address","internalType":"address"}],"stateMutability":"view"},{"type":"function","name":"weth","inputs":[],"outputs":[{"name":"","type":"address","internalType":"address"}],"stateMutability":"view"},{"type":"function","name":"withdrawFees","inputs":[{"name":"_token","type":"address","internalType":"address"},{"name":"_receiver","type":"address","internalType":"address"}],"outputs":[],"stateMutability":"nonpayable"},{"type":"event","name":"DecreasePositionReferral","inputs":[{"name":"account","type":"address","indexed":false,"internalType":"address"},{"name":"sizeDelta","type":"uint256","indexed":false,"internalType":"uint256"},{"name":"marginFeeBasisPoints","type":"uint256","indexed":false,"internalType":"uint256"},{"name":"referralCode","type":"bytes32","indexed":false,"internalType":"bytes32"},{"name":"referrer","type":"address","indexed":false,"internalType":"address"}],"anonymous":false},{"type":"event","name":"IncreasePositionReferral","inputs":[{"name":"account","type":"address","indexed":false,"internalType":"address"},{"name":"sizeDelta","type":"uint256","indexed":false,"internalType":"uint256"},{"name":"marginFeeBasisPoints","type":"uint256","indexed":false,"internalType":"uint256"},{"name":"referralCode","type":"bytes32","indexed":false,"internalType":"bytes32"},{"name":"referrer","type":"address","indexed":false,"internalType":"address"}],"anonymous":false},{"type":"event","name":"SetAdmin","inputs":[{"name":"admin","type":"address","indexed":false,"internalType":"address"}],"anonymous":false},{"type":"event","name":"SetDepositFee","inputs":[{"name":"depositFee","type":"uint256","indexed":false,"internalType":"uint256"}],"anonymous":false},{"type":"event","name":"SetEthTransferGasLimit","inputs":[{"name":"ethTransferGasLimit","type":"uint256","indexed":false,"internalType":"uint256"}],"anonymous":false},{"type":"event","name":"SetIncreasePositionBufferBps","inputs":[{"name":"increasePositionBufferBps","type":"uint256","indexed":false,"internalType":"uint256"}],"anonymous":false},{"type":"event","name":"SetMaxGlobalSizes","inputs":[{"name":"tokens","type":"address[]","indexed":false,"internalType":"address[]"},{"name":"longSizes","type":"uint256[]","indexed":false,"internalType":"uint256[]"},{"name":"shortSizes","type":"uint256[]","indexed":false,"internalType":"uint256[]"}],"anonymous":false},{"type":"event","name":"SetReferralStorage","inputs":[{"name":"referralStorage","type":"address","indexed":false,"internalType":"address"}],"anonymous":false},{"type":"event","name":"WithdrawFees","inputs":[{"name":"token","type":"address","indexed":false,"internalType":"address"},{"name":"receiver","type":"address","indexed":false,"internalType":"address"},{"name":"amount","type":"uint256","indexed":false,"internalType":"uint256"}],"anonymous":false}],"bytecode":{"object":"0x60806040526207a120600755606460095534801561001c57600080fd5b5060405161145f38038061145f833981810160405260a081101561003f57600080fd5b50805160208201516040830151606084015160809094015160018054336001600160a01b031991821681179092556003805482166001600160a01b039788161790556005805482169587169590951790945560068054851696861696909617909555600855600480548316939091169290921790915560028054909116909117905561138f806100d06000396000f3fe60806040526004361061011e5760003560e01c80626cc35e1461017a5780631045c74e146101ab578063126082cf146101f057806312d43a51146102055780631ce9cb8f1461021a578063233bfe3b1461024d57806324a084df146102775780632d79cf42146102b05780633a9b52ad146102c55780633fc8cef3146102ef578063490ae21014610304578063657bc5d01461032e57806367a5279314610343578063704b6c02146103585780639698d25a1461038b57806398d1e03a146103be578063ae4d7f9a146103d3578063cfad57a214610406578063e1f21c6714610439578063ef12c67e1461047c578063f25552781461062e578063f851a44014610669578063f887ea401461067e578063fbfa77cf1461069357610175565b36610175576006546001600160a01b03163314610173576040805162461bcd60e51b815260206004820152600e60248201526d34b73b30b634b21039b2b73232b960911b604482015290519081900360640190fd5b005b600080fd5b34801561018657600080fd5b5061018f6106a8565b604080516001600160a01b039092168252519081900360200190f35b3480156101b757600080fd5b506101de600480360360208110156101ce57600080fd5b50356001600160a01b03166106b7565b60408051918252519081900360200190f35b3480156101fc57600080fd5b506101de6106c9565b34801561021157600080fd5b5061018f6106cf565b34801561022657600080fd5b506101de6004803603602081101561023d57600080fd5b50356001600160a01b03166106de565b34801561025957600080fd5b506101736004803603602081101561027057600080fd5b50356106f0565b34801561028357600080fd5b506101736004803603604081101561029a57600080fd5b506001600160a01b038135169060200135610776565b3480156102bc57600080fd5b506101de6107da565b3480156102d157600080fd5b50610173600480360360208110156102e857600080fd5b50356107e0565b3480156102fb57600080fd5b5061018f610866565b34801561031057600080fd5b506101736004803603602081101561032757600080fd5b5035610875565b34801561033a57600080fd5b5061018f6108fb565b34801561034f57600080fd5b506101de61090a565b34801561036457600080fd5b506101736004803603602081101561037b57600080fd5b50356001600160a01b0316610910565b34801561039757600080fd5b506101de600480360360208110156103ae57600080fd5b50356001600160a01b03166109b1565b3480156103ca57600080fd5b506101de6109c3565b3480156103df57600080fd5b50610173600480360360208110156103f657600080fd5b50356001600160a01b03166109c9565b34801561041257600080fd5b506101736004803603602081101561042957600080fd5b50356001600160a01b0316610a68565b34801561044557600080fd5b506101736004803603606081101561045c57600080fd5b506001600160a01b03813581169160208101359091169060400135610ad7565b34801561048857600080fd5b506101736004803603606081101561049f57600080fd5b810190602081018135600160201b8111156104b957600080fd5b8201836020820111156104cb57600080fd5b803590602001918460208302840111600160201b831117156104ec57600080fd5b9190808060200260200160405190810160405280939291908181526020018383602002808284376000920191909152509295949360208101935035915050600160201b81111561053b57600080fd5b82018360208201111561054d57600080fd5b803590602001918460208302840111600160201b8311171561056e57600080fd5b9190808060200260200160405190810160405280939291908181526020018383602002808284376000920191909152509295949360208101935035915050600160201b8111156105bd57600080fd5b8201836020820111156105cf57600080fd5b803590602001918460208302840111600160201b831117156105f057600080fd5b919080806020026020016040519081016040528093929190818152602001838360200280828437600092019190915250929550610bac945050505050565b34801561063a57600080fd5b506101736004803603604081101561065157600080fd5b506001600160a01b0381358116916020013516610d99565b34801561067557600080fd5b5061018f610e7b565b34801561068a57600080fd5b5061018f610e8a565b34801561069f57600080fd5b5061018f610e99565b600a546001600160a01b031681565b600c6020526000908152604090205481565b61271081565b6001546001600160a01b031681565b600b6020526000908152604090205481565b6002546001600160a01b0316331461073b576040805162461bcd60e51b81526020600482015260096024820152683337b93134b23232b760b91b604482015290519081900360640190fd5b60098190556040805182815290517f21167d0d4661af93817ebce920f18986eed3d75d5e1c03f2aed05efcbafbc4529181900360200190a150565b6001546001600160a01b031633146107c3576040805162461bcd60e51b815260206004820152601560248201526000805160206112b0833981519152604482015290519081900360640190fd5b6107d66001600160a01b03831682610ea8565b5050565b60075481565b6002546001600160a01b0316331461082b576040805162461bcd60e51b81526020600482015260096024820152683337b93134b23232b760b91b604482015290519081900360640190fd5b60078190556040805182815290517f4d371d598d3a13f99ce992a17975bbaf1e1c256e072ec7d2f93ce88e40d9ba1c9181900360200190a150565b6006546001600160a01b031681565b6002546001600160a01b031633146108c0576040805162461bcd60e51b81526020600482015260096024820152683337b93134b23232b760b91b604482015290519081900360640190fd5b60088190556040805182815290517f974fd3c1fcb4653dfc4fb740c4c692cd212d55c28f163f310128cb64d83006759181900360200190a150565b6004546001600160a01b031681565b60085481565b6001546001600160a01b0316331461095d576040805162461bcd60e51b815260206004820152601560248201526000805160206112b0833981519152604482015290519081900360640190fd5b600280546001600160a01b0383166001600160a01b0319909116811790915560408051918252517f5a272403b402d892977df56625f4164ccaf70ca3863991c43ecfe76a6905b0a19181900360200190a150565b600d6020526000908152604090205481565b60095481565b6002546001600160a01b03163314610a14576040805162461bcd60e51b81526020600482015260096024820152683337b93134b23232b760b91b604482015290519081900360640190fd5b600a80546001600160a01b0383166001600160a01b0319909116811790915560408051918252517f828abcccea18192c21d645e575652c49e20b986dab777906fc473d056b01b6a89181900360200190a150565b6001546001600160a01b03163314610ab5576040805162461bcd60e51b815260206004820152601560248201526000805160206112b0833981519152604482015290519081900360640190fd5b600180546001600160a01b0319166001600160a01b0392909216919091179055565b6001546001600160a01b03163314610b24576040805162461bcd60e51b815260206004820152601560248201526000805160206112b0833981519152604482015290519081900360640190fd5b826001600160a01b031663095ea7b383836040518363ffffffff1660e01b815260040180836001600160a01b0316815260200182815260200192505050602060405180830381600087803b158015610b7b57600080fd5b505af1158015610b8f573d6000803e3d6000fd5b505050506040513d6020811015610ba557600080fd5b5050505050565b6002546001600160a01b03163314610bf7576040805162461bcd60e51b81526020600482015260096024820152683337b93134b23232b760b91b604482015290519081900360640190fd5b60005b8351811015610c92576000848281518110610c1157fe5b60200260200101519050838281518110610c2757fe5b6020026020010151600c6000836001600160a01b03166001600160a01b0316815260200190815260200160002081905550828281518110610c6457fe5b6020908102919091018101516001600160a01b039092166000908152600d9091526040902055600101610bfa565b507fae32d569b058895b9620d6552b09aaffedc9a6f396be4d595a224ad09f8b213983838360405180806020018060200180602001848103845287818151815260200191508051906020019060200280838360005b83811015610cff578181015183820152602001610ce7565b50505050905001848103835286818151815260200191508051906020019060200280838360005b83811015610d3e578181015183820152602001610d26565b50505050905001848103825285818151815260200191508051906020019060200280838360005b83811015610d7d578181015183820152602001610d65565b50505050905001965050505050505060405180910390a1505050565b6002546001600160a01b03163314610de4576040805162461bcd60e51b81526020600482015260096024820152683337b93134b23232b760b91b604482015290519081900360640190fd5b6001600160a01b0382166000908152600b602052604090205480610e0857506107d6565b6001600160a01b0383166000818152600b6020526040812055610e2c908383610f92565b604080516001600160a01b0380861682528416602082015280820183905290517f4f1b51dd7a2fcb861aa2670f668be66835c4ee12b4bbbf037e4d0018f39819e49181900360600190a1505050565b6002546001600160a01b031681565b6005546001600160a01b031681565b6003546001600160a01b031681565b80471015610efd576040805162461bcd60e51b815260206004820152601d60248201527f416464726573733a20696e73756666696369656e742062616c616e6365000000604482015290519081900360640190fd5b6040516000906001600160a01b0384169083908381818185875af1925050503d8060008114610f48576040519150601f19603f3d011682016040523d82523d6000602084013e610f4d565b606091505b5050905080610f8d5760405162461bcd60e51b815260040180806020018281038252603a8152602001806112d0603a913960400191505060405180910390fd5b505050565b604080516001600160a01b038416602482015260448082018490528251808303909101815260649091019091526020810180516001600160e01b031663a9059cbb60e01b179052610f8d9084906060611034826040518060400160405280602081526020017f5361666545524332303a206c6f772d6c6576656c2063616c6c206661696c6564815250856001600160a01b03166110909092919063ffffffff16565b805190915015610f8d5780806020019051602081101561105357600080fd5b5051610f8d5760405162461bcd60e51b815260040180806020018281038252602a815260200180611330602a913960400191505060405180910390fd5b606061109f84846000856110a9565b90505b9392505050565b6060824710156110ea5760405162461bcd60e51b815260040180806020018281038252602681526020018061130a6026913960400191505060405180910390fd5b6110f385611205565b611144576040805162461bcd60e51b815260206004820152601d60248201527f416464726573733a2063616c6c20746f206e6f6e2d636f6e7472616374000000604482015290519081900360640190fd5b60006060866001600160a01b031685876040518082805190602001908083835b602083106111835780518252601f199092019160209182019101611164565b6001836020036101000a03801982511681845116808217855250505050505090500191505060006040518083038185875af1925050503d80600081146111e5576040519150601f19603f3d011682016040523d82523d6000602084013e6111ea565b606091505b50915091506111fa82828661120b565b979650505050505050565b3b151590565b6060831561121a5750816110a2565b82511561122a5782518084602001fd5b8160405162461bcd60e51b81526004018080602001828103825283818151815260200191508051906020019080838360005b8381101561127457818101518382015260200161125c565b50505050905090810190601f1680156112a15780820380516001836020036101000a031916815260200191505b509250505060405180910390fdfe476f7665726e61626c653a20666f7262696464656e0000000000000000000000416464726573733a20756e61626c6520746f2073656e642076616c75652c20726563697069656e74206d61792068617665207265766572746564416464726573733a20696e73756666696369656e742062616c616e636520666f722063616c6c5361666545524332303a204552433230206f7065726174696f6e20646964206e6f742073756363656564a2646970667358221220ee21412d501bd76e4a02f012aeb84d5ba3dd3d3d7726a557a852ea3e7d14aa9064736f6c634300060c0033","linkReferences":{}},"methodIdentifiers":{"BASIS_POINTS_DIVISOR()":"126082cf","admin()":"f851a440","approve(address,address,uint256)":"e1f21c67","depositFee()":"67a52793","ethTransferGasLimit()":"2d79cf42","feeReserves(address)":"1ce9cb8f","gov()":"12d43a51","increasePositionBufferBps()":"98d1e03a","maxGlobalLongSizes(address)":"1045c74e","maxGlobalShortSizes(address)":"9698d25a","referralStorage()":"006cc35e","router()":"f887ea40","sendValue(address,uint256)":"24a084df","setAdmin(address)":"704b6c02","setDepositFee(uint256)":"490ae210","setEthTransferGasLimit(uint256)":"3a9b52ad","setGov(address)":"cfad57a2","setIncreasePositionBufferBps(uint256)":"233bfe3b","setMaxGlobalSizes(address[],uint256[],uint256[])":"ef12c67e","setReferralStorage(address)":"ae4d7f9a","shortsTracker()":"657bc5d0","vault()":"fbfa77cf","weth()":"3fc8cef3","withdrawFees(address,address)":"f2555278"},"id":40}