{"abi":[{"type":"function","name":"BASIS_POINTS_DIVISOR","inputs":[],"outputs":[{"name":"","type":"uint256","internalType":"uint256"}],"stateMutability":"view"},{"type":"function","name":"FUNDING_RATE_PRECISION","inputs":[],"outputs":[{"name":"","type":"uint256","internalType":"uint256"}],"stateMutability":"view"},{"type":"function","name":"MAX_FEE_BASIS_POINTS","inputs":[],"outputs":[{"name":"","type":"uint256","internalType":"uint256"}],"stateMutability":"view"},{"type":"function","name":"MAX_FUNDING_RATE_FACTOR","inputs":[],"outputs":[{"name":"","type":"uint256","internalType":"uint256"}],"stateMutability":"view"},{"type":"function","name":"MAX_LIQUIDATION_FEE_USD","inputs":[],"outputs":[{"name":"","type":"uint256","internalType":"uint256"}],"stateMutability":"view"},{"type":"function","name":"MIN_FUNDING_RATE_INTERVAL","inputs":[],"outputs":[{"name":"","type":"uint256","internalType":"uint256"}],"stateMutability":"view"},{"type":"function","name":"MIN_LEVERAGE","inputs":[],"outputs":[{"name":"","type":"uint256","internalType":"uint256"}],"stateMutability":"view"},{"type":"function","name":"PRICE_PRECISION","inputs":[],"outputs":[{"name":"","type":"uint256","internalType":"uint256"}],"stateMutability":"view"},{"type":"function","name":"USDG_DECIMALS","inputs":[],"outputs":[{"name":"","type":"uint256","internalType":"uint256"}],"stateMutability":"view"},{"type":"function","name":"acceptGov","inputs":[],"outputs":[],"stateMutability":"nonpayable"},{"type":"function","name":"addRouter","inputs":[{"name":"_router","type":"address","internalType":"address"}],"outputs":[],"stateMutability":"nonpayable"},{"type":"function","name":"adjustForDecimals","inputs":[{"name":"_amount","type":"uint256","internalType":"uint256"},{"name":"_tokenDiv","type":"address","internalType":"address"},{"name":"_tokenMul","type":"address","internalType":"address"}],"outputs":[{"name":"","type":"uint256","internalType":"uint256"}],"stateMutability":"view"},{"type":"function","name":"allWhitelistedTokens","inputs":[{"name":"","type":"uint256","internalType":"uint256"}],"outputs":[{"name":"","type":"address","internalType":"address"}],"stateMutability":"view"},{"type":"function","name":"allWhitelistedTokensLength","inputs":[],"outputs":[{"name":"","type":"uint256","internalType":"uint256"}],"stateMutability":"view"},{"type":"function","name":"approvedRouters","inputs":[{"name":"","type":"address","internalType":"address"},{"name":"","type":"address","internalType":"address"}],"outputs":[{"name":"","type":"bool","internalType":"bool"}],"stateMutability":"view"},{"type":"function","name":"bufferAmounts","inputs":[{"name":"","type":"address","internalType":"address"}],"outputs":[{"name":"","type":"uint256","internalType":"uint256"}],"stateMutability":"view"},{"type":"function","name":"buyUSDG","inputs":[{"name":"_token","type":"address","internalType":"address"},{"name":"_receiver","type":"address","internalType":"address"}],"outputs":[{"name":"","type":"uint256","internalType":"uint256"}],"stateMutability":"nonpayable"},{"type":"function","name":"cancelGovProposal","inputs":[{"name":"_gov","type":"address","internalType":"address"}],"outputs":[],"stateMutability":"nonpayable"},{"type":"function","name":"clearTokenConfig","inputs":[{"name":"_token","type":"address","internalType":"address"}],"outputs":[],"stateMutability":"nonpayable"},{"type":"function","name":"cumulativeFundingRates","inputs":[{"name":"","type":"address","internalType":"address"}],"outputs":[{"name":"","type":"uint256","internalType":"uint256"}],"stateMutability":"view"},{"type":"function","name":"decreasePosition","inputs":[{"name":"_account","type":"address","internalType":"address"},{"name":"_collateralToken","type":"address","internalType":"address"},{"name":"_indexToken","type":"address","internalType":"address"},{"name":"_collateralDelta","type":"uint256","internalType":"uint256"},{"name":"_sizeDelta","type":"uint256","internalType":"uint256"},{"name":"_isLong","type":"bool","internalType":"bool"},{"name":"_receiver","type":"address","internalType":"address"}],"outputs":[{"name":"","type":"uint256","internalType":"uint256"}],"stateMutability":"nonpayable"},{"type":"function","name":"directPoolDeposit","inputs":[{"name":"_token","type":"address","internalType":"address"}],"outputs":[],"stateMutability":"nonpayable"},{"type":"function","name":"errorController","inputs":[],"outputs":[{"name":"","type":"address","internalType":"address"}],"stateMutability":"view"},{"type":"function","name":"errors","inputs":[{"name":"","type":"uint256","internalType":"uint256"}],"outputs":[{"name":"","type":"string","internalType":"string"}],"stateMutability":"view"},{"type":"function","name":"feeReserves","inputs":[{"name":"","type":"address","internalType":"address"}],"outputs":[{"name":"","type":"uint256","internalType":"uint256"}],"stateMutability":"view"},{"type":"function","name":"fundingInterval","inputs":[],"outputs":[{"name":"","type":"uint256","internalType":"uint256"}],"stateMutability":"view"},{"type":"function","name":"fundingRateFactor","inputs":[],"outputs":[{"name":"","type":"uint256","internalType":"uint256"}],"stateMutability":"view"},{"type":"function","name":"getDelta","inputs":[{"name":"_indexToken","type":"address","internalType":"address"},{"name":"_size","type":"uint256","internalType":"uint256"},{"name":"_averagePrice","type":"uint256","internalType":"uint256"},{"name":"_isLong","type":"bool","internalType":"bool"},{"name":"_lastIncreasedTime","type":"uint256","internalType":"uint256"}],"outputs":[{"name":"","type":"bool","internalType":"bool"},{"name":"","type":"uint256","internalType":"uint256"}],"stateMutability":"view"},{"type":"function","name":"getEntryFundingRate","inputs":[{"name":"_collateralToken","type":"address","internalType":"address"},{"name":"_indexToken","type":"address","internalType":"address"},{"name":"_isLong","type":"bool","internalType":"bool"}],"outputs":[{"name":"","type":"uint256","internalType":"uint256"}],"stateMutability":"view"},{"type":"function","name":"getFeeBasisPoints","inputs":[{"name":"_token","type":"address","internalType":"address"},{"name":"_usdgDelta","type":"uint256","internalType":"uint256"},{"name":"_feeBasisPoints","type":"uint256","internalType":"uint256"},{"name":"_taxBasisPoints","type":"uint256","internalType":"uint256"},{"name":"_increment","type":"bool","internalType":"bool"}],"outputs":[{"name":"","type":"uint256","internalType":"uint256"}],"stateMutability":"view"},{"type":"function","name":"getFundingFee","inputs":[{"name":"_account","type":"address","internalType":"address"},{"name":"_collateralToken","type":"address","internalType":"address"},{"name":"_indexToken","type":"address","internalType":"address"},{"name":"_isLong","type":"bool","internalType":"bool"},{"name":"_size","type":"uint256","internalType":"uint256"},{"name":"_entryFundingRate","type":"uint256","internalType":"uint256"}],"outputs":[{"name":"","type":"uint256","internalType":"uint256"}],"stateMutability":"view"},{"type":"function","name":"getGlobalShortDelta","inputs":[{"name":"_token","type":"address","internalType":"address"}],"outputs":[{"name":"","type":"bool","internalType":"bool"},{"name":"","type":"uint256","internalType":"uint256"}],"stateMutability":"view"},{"type":"function","name":"getMaxPrice","inputs":[{"name":"_token","type":"address","internalType":"address"}],"outputs":[{"name":"","type":"uint256","internalType":"uint256"}],"stateMutability":"view"},{"type":"function","name":"getMinPrice","inputs":[{"name":"_token","type":"address","internalType":"address"}],"outputs":[{"name":"","type":"uint256","internalType":"uint256"}],"stateMutability":"view"},{"type":"function","name":"getNextAveragePrice","inputs":[{"name":"_indexToken","type":"address","internalType":"address"},{"name":"_size","type":"uint256","internalType":"uint256"},{"name":"_averagePrice","type":"uint256","internalType":"uint256"},{"name":"_isLong","type":"bool","internalType":"bool"},{"name":"_nextPrice","type":"uint256","internalType":"uint256"},{"name":"_sizeDelta","type":"uint256","internalType":"uint256"},{"name":"_lastIncreasedTime","type":"uint256","internalType":"uint256"}],"outputs":[{"name":"","type":"uint256","internalType":"uint256"}],"stateMutability":"view"},{"type":"function","name":"getNextFundingRate","inputs":[{"name":"_token","type":"address","internalType":"address"}],"outputs":[{"name":"","type":"uint256","internalType":"uint256"}],"stateMutability":"view"},{"type":"function","name":"getNextGlobalShortAveragePrice","inputs":[{"name":"_indexToken","type":"address","internalType":"address"},{"name":"_nextPrice","type":"uint256","internalType":"uint256"},{"name":"_sizeDelta","type":"uint256","internalType":"uint256"}],"outputs":[{"name":"","type":"uint256","internalType":"uint256"}],"stateMutability":"view"},{"type":"function","name":"getPosition","inputs":[{"name":"_account","type":"address","internalType":"address"},{"name":"_collateralToken","type":"address","internalType":"address"},{"name":"_indexToken","type":"address","internalType":"address"},{"name":"_isLong","type":"bool","internalType":"bool"}],"outputs":[{"name":"","type":"uint256","internalType":"uint256"},{"name":"","type":"uint256","internalType":"uint256"},{"name":"","type":"uint256","internalType":"uint256"},{"name":"","type":"uint256","internalType":"uint256"},{"name":"","type":"uint256","internalType":"uint256"},{"name":"","type":"uint256","internalType":"uint256"},{"name":"","type":"bool","internalType":"bool"},{"name":"","type":"uint256","internalType":"uint256"}],"stateMutability":"view"},{"type":"function","name":"getPositionDelta","inputs":[{"name":"_account","type":"address","internalType":"address"},{"name":"_collateralToken","type":"address","internalType":"address"},{"name":"_indexToken","type":"address","internalType":"address"},{"name":"_isLong","type":"bool","internalType":"bool"}],"outputs":[{"name":"","type":"bool","internalType":"bool"},{"name":"","type":"uint256","internalType":"uint256"}],"stateMutability":"view"},{"type":"function","name":"getPositionFee","inputs":[{"name":"_account","type":"address","internalType":"address"},{"name":"_collateralToken","type":"address","internalType":"address"},{"name":"_indexToken","type":"address","internalType":"address"},{"name":"_isLong","type":"bool","internalType":"bool"},{"name":"_sizeDelta","type":"uint256","internalType":"uint256"}],"outputs":[{"name":"","type":"uint256","internalType":"uint256"}],"stateMutability":"view"},{"type":"function","name":"getPositionKey","inputs":[{"name":"_account","type":"address","internalType":"address"},{"name":"_collateralToken","type":"address","internalType":"address"},{"name":"_indexToken","type":"address","internalType":"address"},{"name":"_isLong","type":"bool","internalType":"bool"}],"outputs":[{"name":"","type":"bytes32","internalType":"bytes32"}],"stateMutability":"pure"},{"type":"function","name":"getPositionLeverage","inputs":[{"name":"_account","type":"address","internalType":"address"},{"name":"_collateralToken","type":"address","internalType":"address"},{"name":"_indexToken","type":"address","internalType":"address"},{"name":"_isLong","type":"bool","internalType":"bool"}],"outputs":[{"name":"","type":"uint256","internalType":"uint256"}],"stateMutability":"view"},{"type":"function","name":"getRedemptionAmount","inputs":[{"name":"_token","type":"address","internalType":"address"},{"name":"_usdgAmount","type":"uint256","internalType":"uint256"}],"outputs":[{"name":"","type":"uint256","internalType":"uint256"}],"stateMutability":"view"},{"type":"function","name":"getRedemptionCollateral","inputs":[{"name":"_token","type":"address","internalType":"address"}],"outputs":[{"name":"","type":"uint256","internalType":"uint256"}],"stateMutability":"view"},{"type":"function","name":"getRedemptionCollateralUsd","inputs":[{"name":"_token","type":"address","internalType":"address"}],"outputs":[{"name":"","type":"uint256","internalType":"uint256"}],"stateMutability":"view"},{"type":"function","name":"getTargetUsdgAmount","inputs":[{"name":"_token","type":"address","internalType":"address"}],"outputs":[{"name":"","type":"uint256","internalType":"uint256"}],"stateMutability":"view"},{"type":"function","name":"getUtilisation","inputs":[{"name":"_token","type":"address","internalType":"address"}],"outputs":[{"name":"","type":"uint256","internalType":"uint256"}],"stateMutability":"view"},{"type":"function","name":"globalShortAveragePrices","inputs":[{"name":"","type":"address","internalType":"address"}],"outputs":[{"name":"","type":"uint256","internalType":"uint256"}],"stateMutability":"view"},{"type":"function","name":"globalShortSizes","inputs":[{"name":"","type":"address","internalType":"address"}],"outputs":[{"name":"","type":"uint256","internalType":"uint256"}],"stateMutability":"view"},{"type":"function","name":"gov","inputs":[],"outputs":[{"name":"","type":"address","internalType":"address"}],"stateMutability":"view"},{"type":"function","name":"govProposals","inputs":[{"name":"","type":"address","internalType":"address"}],"outputs":[{"name":"deadline","type":"uint256","internalType":"uint256"},{"name":"isActive","type":"bool","internalType":"bool"}],"stateMutability":"view"},{"type":"function","name":"guaranteedUsd","inputs":[{"name":"","type":"address","internalType":"address"}],"outputs":[{"name":"","type":"uint256","internalType":"uint256"}],"stateMutability":"view"},{"type":"function","name":"hasDynamicFees","inputs":[],"outputs":[{"name":"","type":"bool","internalType":"bool"}],"stateMutability":"view"},{"type":"function","name":"inManagerMode","inputs":[],"outputs":[{"name":"","type":"bool","internalType":"bool"}],"stateMutability":"view"},{"type":"function","name":"inPrivateLiquidationMode","inputs":[],"outputs":[{"name":"","type":"bool","internalType":"bool"}],"stateMutability":"view"},{"type":"function","name":"includeAmmPrice","inputs":[],"outputs":[{"name":"","type":"bool","internalType":"bool"}],"stateMutability":"view"},{"type":"function","name":"increasePosition","inputs":[{"name":"_account","type":"address","internalType":"address"},{"name":"_collateralToken","type":"address","internalType":"address"},{"name":"_indexToken","type":"address","internalType":"address"},{"name":"_sizeDelta","type":"uint256","internalType":"uint256"},{"name":"_isLong","type":"bool","internalType":"bool"}],"outputs":[],"stateMutability":"nonpayable"},{"type":"function","name":"initialize2","inputs":[{"name":"_router","type":"address","internalType":"address"},{"name":"_usdg","type":"address","internalType":"address"},{"name":"_priceFeed","type":"address","internalType":"address"},{"name":"_liquidationFeeUsd","type":"uint256","internalType":"uint256"},{"name":"_fundingRateFactor","type":"uint256","internalType":"uint256"},{"name":"_stableFundingRateFactor","type":"uint256","internalType":"uint256"}],"outputs":[],"stateMutability":"nonpayable"},{"type":"function","name":"isInitialized","inputs":[],"outputs":[{"name":"","type":"bool","internalType":"bool"}],"stateMutability":"view"},{"type":"function","name":"isLeverageEnabled","inputs":[],"outputs":[{"name":"","type":"bool","internalType":"bool"}],"stateMutability":"view"},{"type":"function","name":"isLiquidator","inputs":[{"name":"","type":"address","internalType":"address"}],"outputs":[{"name":"","type":"bool","internalType":"bool"}],"stateMutability":"view"},{"type":"function","name":"isManager","inputs":[{"name":"","type":"address","internalType":"address"}],"outputs":[{"name":"","type":"bool","internalType":"bool"}],"stateMutability":"view"},{"type":"function","name":"isSwapEnabled","inputs":[],"outputs":[{"name":"","type":"bool","internalType":"bool"}],"stateMutability":"view"},{"type":"function","name":"lastFundingTimes","inputs":[{"name":"","type":"address","internalType":"address"}],"outputs":[{"name":"","type":"uint256","internalType":"uint256"}],"stateMutability":"view"},{"type":"function","name":"liquidatePosition","inputs":[{"name":"_account","type":"address","internalType":"address"},{"name":"_collateralToken","type":"address","internalType":"address"},{"name":"_indexToken","type":"address","internalType":"address"},{"name":"_isLong","type":"bool","internalType":"bool"},{"name":"_feeReceiver","type":"address","internalType":"address"}],"outputs":[],"stateMutability":"nonpayable"},{"type":"function","name":"liquidationFeeUsd","inputs":[],"outputs":[{"name":"","type":"uint256","internalType":"uint256"}],"stateMutability":"view"},{"type":"function","name":"marginFeeBasisPoints","inputs":[],"outputs":[{"name":"","type":"uint256","internalType":"uint256"}],"stateMutability":"view"},{"type":"function","name":"maxGasPrice","inputs":[],"outputs":[{"name":"","type":"uint256","internalType":"uint256"}],"stateMutability":"view"},{"type":"function","name":"maxGlobalShortSizes","inputs":[{"name":"","type":"address","internalType":"address"}],"outputs":[{"name":"","type":"uint256","internalType":"uint256"}],"stateMutability":"view"},{"type":"function","name":"maxLeverage","inputs":[],"outputs":[{"name":"","type":"uint256","internalType":"uint256"}],"stateMutability":"view"},{"type":"function","name":"maxUsdgAmounts","inputs":[{"name":"","type":"address","internalType":"address"}],"outputs":[{"name":"","type":"uint256","internalType":"uint256"}],"stateMutability":"view"},{"type":"function","name":"minProfitBasisPoints","inputs":[{"name":"","type":"address","internalType":"address"}],"outputs":[{"name":"","type":"uint256","internalType":"uint256"}],"stateMutability":"view"},{"type":"function","name":"minProfitTime","inputs":[],"outputs":[{"name":"","type":"uint256","internalType":"uint256"}],"stateMutability":"view"},{"type":"function","name":"mintBurnFeeBasisPoints","inputs":[],"outputs":[{"name":"","type":"uint256","internalType":"uint256"}],"stateMutability":"view"},{"type":"function","name":"poolAmounts","inputs":[{"name":"","type":"address","internalType":"address"}],"outputs":[{"name":"","type":"uint256","internalType":"uint256"}],"stateMutability":"view"},{"type":"function","name":"positions","inputs":[{"name":"","type":"bytes32","internalType":"bytes32"}],"outputs":[{"name":"size","type":"uint256","internalType":"uint256"},{"name":"collateral","type":"uint256","internalType":"uint256"},{"name":"averagePrice","type":"uint256","internalType":"uint256"},{"name":"entryFundingRate","type":"uint256","internalType":"uint256"},{"name":"reserveAmount","type":"uint256","internalType":"uint256"},{"name":"realisedPnl","type":"int256","internalType":"int256"},{"name":"lastIncreasedTime","type":"uint256","internalType":"uint256"}],"stateMutability":"view"},{"type":"function","name":"priceFeed","inputs":[],"outputs":[{"name":"","type":"address","internalType":"address"}],"stateMutability":"view"},{"type":"function","name":"removeRouter","inputs":[{"name":"_router","type":"address","internalType":"address"}],"outputs":[],"stateMutability":"nonpayable"},{"type":"function","name":"reservedAmounts","inputs":[{"name":"","type":"address","internalType":"address"}],"outputs":[{"name":"","type":"uint256","internalType":"uint256"}],"stateMutability":"view"},{"type":"function","name":"router","inputs":[],"outputs":[{"name":"","type":"address","internalType":"address"}],"stateMutability":"view"},{"type":"function","name":"sellUSDG","inputs":[{"name":"_token","type":"address","internalType":"address"},{"name":"_receiver","type":"address","internalType":"address"}],"outputs":[{"name":"","type":"uint256","internalType":"uint256"}],"stateMutability":"nonpayable"},{"type":"function","name":"setBufferAmount","inputs":[{"name":"_token","type":"address","internalType":"address"},{"name":"_amount","type":"uint256","internalType":"uint256"}],"outputs":[],"stateMutability":"nonpayable"},{"type":"function","name":"setError","inputs":[{"name":"_errorCode","type":"uint256","internalType":"uint256"},{"name":"_error","type":"string","internalType":"string"}],"outputs":[],"stateMutability":"nonpayable"},{"type":"function","name":"setErrorController","inputs":[{"name":"_errorController","type":"address","internalType":"address"}],"outputs":[],"stateMutability":"nonpayable"},{"type":"function","name":"setFees","inputs":[{"name":"_taxBasisPoints","type":"uint256","internalType":"uint256"},{"name":"_stableTaxBasisPoints","type":"uint256","internalType":"uint256"},{"name":"_mintBurnFeeBasisPoints","type":"uint256","internalType":"uint256"},{"name":"_swapFeeBasisPoints","type":"uint256","internalType":"uint256"},{"name":"_stableSwapFeeBasisPoints","type":"uint256","internalType":"uint256"},{"name":"_marginFeeBasisPoints","type":"uint256","internalType":"uint256"},{"name":"_liquidationFeeUsd","type":"uint256","internalType":"uint256"},{"name":"_minProfitTime","type":"uint256","internalType":"uint256"},{"name":"_hasDynamicFees","type":"bool","internalType":"bool"}],"outputs":[],"stateMutability":"nonpayable"},{"type":"function","name":"setFundingRate","inputs":[{"name":"_fundingInterval","type":"uint256","internalType":"uint256"},{"name":"_fundingRateFactor","type":"uint256","internalType":"uint256"},{"name":"_stableFundingRateFactor","type":"uint256","internalType":"uint256"}],"outputs":[],"stateMutability":"nonpayable"},{"type":"function","name":"setGov","inputs":[{"name":"_gov","type":"address","internalType":"address"}],"outputs":[],"stateMutability":"nonpayable"},{"type":"function","name":"setGovWithDeadline","inputs":[{"name":"_gov","type":"address","internalType":"address"},{"name":"_deadline","type":"uint256","internalType":"uint256"}],"outputs":[],"stateMutability":"nonpayable"},{"type":"function","name":"setInManagerMode","inputs":[{"name":"_inManagerMode","type":"bool","internalType":"bool"}],"outputs":[],"stateMutability":"nonpayable"},{"type":"function","name":"setInPrivateLiquidationMode","inputs":[{"name":"_inPrivateLiquidationMode","type":"bool","internalType":"bool"}],"outputs":[],"stateMutability":"nonpayable"},{"type":"function","name":"setIsLeverageEnabled","inputs":[{"name":"_isLeverageEnabled","type":"bool","internalType":"bool"}],"outputs":[],"stateMutability":"nonpayable"},{"type":"function","name":"setIsSwapEnabled","inputs":[{"name":"_isSwapEnabled","type":"bool","internalType":"bool"}],"outputs":[],"stateMutability":"nonpayable"},{"type":"function","name":"setLiquidator","inputs":[{"name":"_liquidator","type":"address","internalType":"address"},{"name":"_isActive","type":"bool","internalType":"bool"}],"outputs":[],"stateMutability":"nonpayable"},{"type":"function","name":"setManager","inputs":[{"name":"_manager","type":"address","internalType":"address"},{"name":"_isManager","type":"bool","internalType":"bool"}],"outputs":[],"stateMutability":"nonpayable"},{"type":"function","name":"setMaxGasPrice","inputs":[{"name":"_maxGasPrice","type":"uint256","internalType":"uint256"}],"outputs":[],"stateMutability":"nonpayable"},{"type":"function","name":"setMaxGlobalShortSize","inputs":[{"name":"_token","type":"address","internalType":"address"},{"name":"_amount","type":"uint256","internalType":"uint256"}],"outputs":[],"stateMutability":"nonpayable"},{"type":"function","name":"setMaxLeverage","inputs":[{"name":"_maxLeverage","type":"uint256","internalType":"uint256"}],"outputs":[],"stateMutability":"nonpayable"},{"type":"function","name":"setPriceFeed","inputs":[{"name":"_priceFeed","type":"address","internalType":"address"}],"outputs":[],"stateMutability":"nonpayable"},{"type":"function","name":"setTokenConfig","inputs":[{"name":"_token","type":"address","internalType":"address"},{"name":"_tokenDecimals","type":"uint256","internalType":"uint256"},{"name":"_tokenWeight","type":"uint256","internalType":"uint256"},{"name":"_minProfitBps","type":"uint256","internalType":"uint256"},{"name":"_maxUsdgAmount","type":"uint256","internalType":"uint256"},{"name":"_isStable","type":"bool","internalType":"bool"},{"name":"_isShortable","type":"bool","internalType":"bool"}],"outputs":[],"stateMutability":"nonpayable"},{"type":"function","name":"setUsdgAmount","inputs":[{"name":"_token","type":"address","internalType":"address"},{"name":"_amount","type":"uint256","internalType":"uint256"}],"outputs":[],"stateMutability":"nonpayable"},{"type":"function","name":"setVaultUtils","inputs":[{"name":"_vaultUtils","type":"address","internalType":"contract IVaultUtils"}],"outputs":[],"stateMutability":"nonpayable"},{"type":"function","name":"shortableTokens","inputs":[{"name":"","type":"address","internalType":"address"}],"outputs":[{"name":"","type":"bool","internalType":"bool"}],"stateMutability":"view"},{"type":"function","name":"stableFundingRateFactor","inputs":[],"outputs":[{"name":"","type":"uint256","internalType":"uint256"}],"stateMutability":"view"},{"type":"function","name":"stableSwapFeeBasisPoints","inputs":[],"outputs":[{"name":"","type":"uint256","internalType":"uint256"}],"stateMutability":"view"},{"type":"function","name":"stableTaxBasisPoints","inputs":[],"outputs":[{"name":"","type":"uint256","internalType":"uint256"}],"stateMutability":"view"},{"type":"function","name":"stableTokens","inputs":[{"name":"","type":"address","internalType":"address"}],"outputs":[{"name":"","type":"bool","internalType":"bool"}],"stateMutability":"view"},{"type":"function","name":"swap","inputs":[{"name":"_tokenIn","type":"address","internalType":"address"},{"name":"_tokenOut","type":"address","internalType":"address"},{"name":"_receiver","type":"address","internalType":"address"}],"outputs":[{"name":"","type":"uint256","internalType":"uint256"}],"stateMutability":"nonpayable"},{"type":"function","name":"swapFeeBasisPoints","inputs":[],"outputs":[{"name":"","type":"uint256","internalType":"uint256"}],"stateMutability":"view"},{"type":"function","name":"taxBasisPoints","inputs":[],"outputs":[{"name":"","type":"uint256","internalType":"uint256"}],"stateMutability":"view"},{"type":"function","name":"tokenBalances","inputs":[{"name":"","type":"address","internalType":"address"}],"outputs":[{"name":"","type":"uint256","internalType":"uint256"}],"stateMutability":"view"},{"type":"function","name":"tokenDecimals","inputs":[{"name":"","type":"address","internalType":"address"}],"outputs":[{"name":"","type":"uint256","internalType":"uint256"}],"stateMutability":"view"},{"type":"function","name":"tokenToUsdMin","inputs":[{"name":"_token","type":"address","internalType":"address"},{"name":"_tokenAmount","type":"uint256","internalType":"uint256"}],"outputs":[{"name":"","type":"uint256","internalType":"uint256"}],"stateMutability":"view"},{"type":"function","name":"tokenWeights","inputs":[{"name":"","type":"address","internalType":"address"}],"outputs":[{"name":"","type":"uint256","internalType":"uint256"}],"stateMutability":"view"},{"type":"function","name":"totalTokenWeights","inputs":[],"outputs":[{"name":"","type":"uint256","internalType":"uint256"}],"stateMutability":"view"},{"type":"function","name":"updateCumulativeFundingRate","inputs":[{"name":"_collateralToken","type":"address","internalType":"address"},{"name":"_indexToken","type":"address","internalType":"address"}],"outputs":[],"stateMutability":"nonpayable"},{"type":"function","name":"upgradeVault","inputs":[{"name":"_newVault","type":"address","internalType":"address"},{"name":"_token","type":"address","internalType":"address"},{"name":"_amount","type":"uint256","internalType":"uint256"}],"outputs":[],"stateMutability":"nonpayable"},{"type":"function","name":"usdToToken","inputs":[{"name":"_token","type":"address","internalType":"address"},{"name":"_usdAmount","type":"uint256","internalType":"uint256"},{"name":"_price","type":"uint256","internalType":"uint256"}],"outputs":[{"name":"","type":"uint256","internalType":"uint256"}],"stateMutability":"view"},{"type":"function","name":"usdToTokenMax","inputs":[{"name":"_token","type":"address","internalType":"address"},{"name":"_usdAmount","type":"uint256","internalType":"uint256"}],"outputs":[{"name":"","type":"uint256","internalType":"uint256"}],"stateMutability":"view"},{"type":"function","name":"usdToTokenMin","inputs":[{"name":"_token","type":"address","internalType":"address"},{"name":"_usdAmount","type":"uint256","internalType":"uint256"}],"outputs":[{"name":"","type":"uint256","internalType":"uint256"}],"stateMutability":"view"},{"type":"function","name":"usdg","inputs":[],"outputs":[{"name":"","type":"address","internalType":"address"}],"stateMutability":"view"},{"type":"function","name":"usdgAmounts","inputs":[{"name":"","type":"address","internalType":"address"}],"outputs":[{"name":"","type":"uint256","internalType":"uint256"}],"stateMutability":"view"},{"type":"function","name":"useSwapPricing","inputs":[],"outputs":[{"name":"","type":"bool","internalType":"bool"}],"stateMutability":"view"},{"type":"function","name":"validateLiquidation","inputs":[{"name":"_account","type":"address","internalType":"address"},{"name":"_collateralToken","type":"address","internalType":"address"},{"name":"_indexToken","type":"address","internalType":"address"},{"name":"_isLong","type":"bool","internalType":"bool"},{"name":"_raise","type":"bool","internalType":"bool"}],"outputs":[{"name":"","type":"uint256","internalType":"uint256"},{"name":"","type":"uint256","internalType":"uint256"}],"stateMutability":"view"},{"type":"function","name":"vaultUtils","inputs":[],"outputs":[{"name":"","type":"address","internalType":"contract IVaultUtils"}],"stateMutability":"view"},{"type":"function","name":"whitelistedTokenCount","inputs":[],"outputs":[{"name":"","type":"uint256","internalType":"uint256"}],"stateMutability":"view"},{"type":"function","name":"whitelistedTokens","inputs":[{"name":"","type":"address","internalType":"address"}],"outputs":[{"name":"","type":"bool","internalType":"bool"}],"stateMutability":"view"},{"type":"function","name":"withdrawFees","inputs":[{"name":"_token","type":"address","internalType":"address"},{"name":"_receiver","type":"address","internalType":"address"}],"outputs":[{"name":"","type":"uint256","internalType":"uint256"}],"stateMutability":"nonpayable"},{"type":"event","name":"BuyUSDG","inputs":[{"name":"account","type":"address","indexed":false,"internalType":"address"},{"name":"token","type":"address","indexed":false,"internalType":"address"},{"name":"tokenAmount","type":"uint256","indexed":false,"internalType":"uint256"},{"name":"usdgAmount","type":"uint256","indexed":false,"internalType":"uint256"},{"name":"feeBasisPoints","type":"uint256","indexed":false,"internalType":"uint256"}],"anonymous":false},{"type":"event","name":"ClosePosition","inputs":[{"name":"key","type":"bytes32","indexed":false,"internalType":"bytes32"},{"name":"size","type":"uint256","indexed":false,"internalType":"uint256"},{"name":"collateral","type":"uint256","indexed":false,"internalType":"uint256"},{"name":"averagePrice","type":"uint256","indexed":false,"internalType":"uint256"},{"name":"entryFundingRate","type":"uint256","indexed":false,"internalType":"uint256"},{"name":"reserveAmount","type":"uint256","indexed":false,"internalType":"uint256"},{"name":"realisedPnl","type":"int256","indexed":false,"internalType":"int256"}],"anonymous":false},{"type":"event","name":"CollectMarginFees","inputs":[{"name":"token","type":"address","indexed":false,"internalType":"address"},{"name":"feeUsd","type":"uint256","indexed":false,"internalType":"uint256"},{"name":"feeTokens","type":"uint256","indexed":false,"internalType":"uint256"}],"anonymous":false},{"type":"event","name":"CollectSwapFees","inputs":[{"name":"token","type":"address","indexed":false,"internalType":"address"},{"name":"feeUsd","type":"uint256","indexed":false,"internalType":"uint256"},{"name":"feeTokens","type":"uint256","indexed":false,"internalType":"uint256"}],"anonymous":false},{"type":"event","name":"DecreaseGuaranteedUsd","inputs":[{"name":"token","type":"address","indexed":false,"internalType":"address"},{"name":"amount","type":"uint256","indexed":false,"internalType":"uint256"}],"anonymous":false},{"type":"event","name":"DecreasePoolAmount","inputs":[{"name":"token","type":"address","indexed":false,"internalType":"address"},{"name":"amount","type":"uint256","indexed":false,"internalType":"uint256"}],"anonymous":false},{"type":"event","name":"DecreasePosition","inputs":[{"name":"key","type":"bytes32","indexed":false,"internalType":"bytes32"},{"name":"account","type":"address","indexed":false,"internalType":"address"},{"name":"collateralToken","type":"address","indexed":false,"internalType":"address"},{"name":"indexToken","type":"address","indexed":false,"internalType":"address"},{"name":"collateralDelta","type":"uint256","indexed":false,"internalType":"uint256"},{"name":"sizeDelta","type":"uint256","indexed":false,"internalType":"uint256"},{"name":"isLong","type":"bool","indexed":false,"internalType":"bool"},{"name":"price","type":"uint256","indexed":false,"internalType":"uint256"},{"name":"fee","type":"uint256","indexed":false,"internalType":"uint256"}],"anonymous":false},{"type":"event","name":"DecreaseReservedAmount","inputs":[{"name":"token","type":"address","indexed":false,"internalType":"address"},{"name":"amount","type":"uint256","indexed":false,"internalType":"uint256"}],"anonymous":false},{"type":"event","name":"DecreaseUsdgAmount","inputs":[{"name":"token","type":"address","indexed":false,"internalType":"address"},{"name":"amount","type":"uint256","indexed":false,"internalType":"uint256"}],"anonymous":false},{"type":"event","name":"DirectPoolDeposit","inputs":[{"name":"token","type":"address","indexed":false,"internalType":"address"},{"name":"amount","type":"uint256","indexed":false,"internalType":"uint256"}],"anonymous":false},{"type":"event","name":"GovernanceTransferRequested","inputs":[{"name":"newGov","type":"address","indexed":true,"internalType":"address"},{"name":"deadline","type":"uint256","indexed":false,"internalType":"uint256"}],"anonymous":false},{"type":"event","name":"GovernanceTransferred","inputs":[{"name":"oldGov","type":"address","indexed":true,"internalType":"address"},{"name":"newGov","type":"address","indexed":true,"internalType":"address"}],"anonymous":false},{"type":"event","name":"IncreaseGuaranteedUsd","inputs":[{"name":"token","type":"address","indexed":false,"internalType":"address"},{"name":"amount","type":"uint256","indexed":false,"internalType":"uint256"}],"anonymous":false},{"type":"event","name":"IncreasePoolAmount","inputs":[{"name":"token","type":"address","indexed":false,"internalType":"address"},{"name":"amount","type":"uint256","indexed":false,"internalType":"uint256"}],"anonymous":false},{"type":"event","name":"IncreasePosition","inputs":[{"name":"key","type":"bytes32","indexed":false,"internalType":"bytes32"},{"name":"account","type":"address","indexed":false,"internalType":"address"},{"name":"collateralToken","type":"address","indexed":false,"internalType":"address"},{"name":"indexToken","type":"address","indexed":false,"internalType":"address"},{"name":"collateralDelta","type":"uint256","indexed":false,"internalType":"uint256"},{"name":"sizeDelta","type":"uint256","indexed":false,"internalType":"uint256"},{"name":"isLong","type":"bool","indexed":false,"internalType":"bool"},{"name":"price","type":"uint256","indexed":false,"internalType":"uint256"},{"name":"fee","type":"uint256","indexed":false,"internalType":"uint256"}],"anonymous":false},{"type":"event","name":"IncreaseReservedAmount","inputs":[{"name":"token","type":"address","indexed":false,"internalType":"address"},{"name":"amount","type":"uint256","indexed":false,"internalType":"uint256"}],"anonymous":false},{"type":"event","name":"IncreaseUsdgAmount","inputs":[{"name":"token","type":"address","indexed":false,"internalType":"address"},{"name":"amount","type":"uint256","indexed":false,"internalType":"uint256"}],"anonymous":false},{"type":"event","name":"LiquidatePosition","inputs":[{"name":"key","type":"bytes32","indexed":false,"internalType":"bytes32"},{"name":"account","type":"address","indexed":false,"internalType":"address"},{"name":"collateralToken","type":"address","indexed":false,"internalType":"address"},{"name":"indexToken","type":"address","indexed":false,"internalType":"address"},{"name":"isLong","type":"bool","indexed":false,"internalType":"bool"},{"name":"size","type":"uint256","indexed":false,"internalType":"uint256"},{"name":"collateral","type":"uint256","indexed":false,"internalType":"uint256"},{"name":"reserveAmount","type":"uint256","indexed":false,"internalType":"uint256"},{"name":"realisedPnl","type":"int256","indexed":false,"internalType":"int256"},{"name":"markPrice","type":"uint256","indexed":false,"internalType":"uint256"}],"anonymous":false},{"type":"event","name":"SellUSDG","inputs":[{"name":"account","type":"address","indexed":false,"internalType":"address"},{"name":"token","type":"address","indexed":false,"internalType":"address"},{"name":"usdgAmount","type":"uint256","indexed":false,"internalType":"uint256"},{"name":"tokenAmount","type":"uint256","indexed":false,"internalType":"uint256"},{"name":"feeBasisPoints","type":"uint256","indexed":false,"internalType":"uint256"}],"anonymous":false},{"type":"event","name":"Swap","inputs":[{"name":"account","type":"address","indexed":false,"internalType":"address"},{"name":"tokenIn","type":"address","indexed":false,"internalType":"address"},{"name":"tokenOut","type":"address","indexed":false,"internalType":"address"},{"name":"amountIn","type":"uint256","indexed":false,"internalType":"uint256"},{"name":"amountOut","type":"uint256","indexed":false,"internalType":"uint256"},{"name":"amountOutAfterFees","type":"uint256","indexed":false,"internalType":"uint256"},{"name":"feeBasisPoints","type":"uint256","indexed":false,"internalType":"uint256"}],"anonymous":false},{"type":"event","name":"UpdateFundingRate","inputs":[{"name":"token","type":"address","indexed":false,"internalType":"address"},{"name":"fundingRate","type":"uint256","indexed":false,"internalType":"uint256"}],"anonymous":false},{"type":"event","name":"UpdatePnl","inputs":[{"name":"key","type":"bytes32","indexed":false,"internalType":"bytes32"},{"name":"hasProfit","type":"bool","indexed":false,"internalType":"bool"},{"name":"delta","type":"uint256","indexed":false,"internalType":"uint256"}],"anonymous":false},{"type":"event","name":"UpdatePosition","inputs":[{"name":"key","type":"bytes32","indexed":false,"internalType":"bytes32"},{"name":"size","type":"uint256","indexed":false,"internalType":"uint256"},{"name":"collateral","type":"uint256","indexed":false,"internalType":"uint256"},{"name":"averagePrice","type":"uint256","indexed":false,"internalType":"uint256"},{"name":"entryFundingRate","type":"uint256","indexed":false,"internalType":"uint256"},{"name":"reserveAmount","type":"uint256","indexed":false,"internalType":"uint256"},{"name":"realisedPnl","type":"int256","indexed":false,"internalType":"int256"},{"name":"markPrice","type":"uint256","indexed":false,"internalType":"uint256"}],"anonymous":false}],"bytecode":{"object":"0x608060405234801561001057600080fd5b5061629880620000216000396000f3fe608060405234801561001057600080fd5b50600436106105c55760003560e01c8063870d917c116102ff578063c7e074c31161019a578063c7e074c3146112a2578063cea0c328146112e2578063cfad57a214611318578063d2fa635e1461133e578063d3127e631461135b578063d54d5a9f14611378578063d66b000d146113d7578063d8f897c314611403578063d9ac422514611429578063da76524c14611431578063daf9c2101461147b578063db3555fb146114a1578063db97495f146114c7578063dc8f5fac14611513578063de2ea9481461151b578063df73a26714611563578063e124e6d21461156b578063e468baf014611591578063e67f59a7146115ae578063efa10a6e146115d4578063f07456ce14611600578063f07bbf7714611626578063f1675a8b14611645578063f25552781461168d578063f3ae2415146116bb578063f5b91b7b146116e1578063f887ea40146116e9578063fa12dbc0146116f1578063fbfded6d14611723578063fce28c1014611751578063fdaf6ac314611759578063fed1a6061461179d576105c5565b8063870d917c14610ed457806388b1fbdf14610edc5780638a27d46814610f025780638a39735a146106465780638a78daa814610f2b5780638d0fedb014610f515780638ee573ac14610f905780638f7b840414610fb65780639060b1ca14610fdc5780639331621214610fe457806395082d251461101c5780639698d25a146110245780639849e4121461104a5780639899cd02146110525780639c35b4971461107e5780639d7432ca146110a45780639f392eb3146110d6578063a22f2392146110de578063a42ab3d2146110e6578063a5e90eee14611112578063a93acac214611140578063ab08c1c614611166578063ab2f3ad41461116e578063ad1e4f8d14611194578063ae3302c2146111ba578063b06423f3146111c2578063b136ca49146111ca578063b1cc53ab146111f0578063b364accb14611228578063c3c7b9e91461124e578063c4f718bf14611274578063c65bc7b11461127c576105c5565b806345a6f3701161046f57806345a6f370146109ca57806348d91abf14610a2357806348f35cbb14610a675780634a3f088d14610a6f5780634a993ee914610af05780634befe2ca14610b165780634d47b30414610b1e578063514ea4bf14610b2657806351723e8214610b7b578063523fba7f14610bb9578063529a356f14610bdf57806352f55eed14610c055780635c07eaab14610c2b5780635f7bc11914610c6b5780636092219914610c9157806362287a3214610cbf5780636274980314610cc75780636abbe0c814610ced5780636ae0b15414610cf55780636bb22fd714610d1b5780636be6026b14610d4757806371089f4d14610d4f578063711e619014610d75578063724e78da14610da3578063741bef1a14610dc95780637a210a2b14610dd15780637bc6729b14610dd95780637c2eb9f714610de1578063817bb85714610e0057806381a612d614610e2e57806382a0849014610e545780638585f4d214610ea8576105c5565b806304fef1db146105ca57806307c58752146106025780630842b0761461060a5780630a48d5a91461061257806310eb56c21461063e578063126082cf1461064657806312d43a511461064e578063134ca63b14610672578063174d26941461067a578063181e210e146106825780631aa4ace51461069e5780631ce9cb8f146106c457806324b0c04d146106ea57806324ca984e1461070b57806328e67be51461073157806329ff9615146107a65780632c668ec1146107cc5780632d4b0576146107f857806330455ede14610836578063318bc6891461085557806334c1557d14610646578063351a964d1461085d578063392e53cd146108655780633a05dcc11461086d5780633c5a6e35146108935780633de39c11146108e15780633e72a262146108e957806340eb3802146108f1578063421528731461094257806342b60b03146109765780634453a3741461099c575b600080fd5b6105f0600480360360208110156105e057600080fd5b50356001600160a01b031661182f565b60408051918252519081900360200190f35b6105f0611892565b6105f06118a3565b6105f06004803603604081101561062857600080fd5b506001600160a01b0381351690602001356118a9565b6105f06118fc565b6105f0611902565b610656611908565b604080516001600160a01b039092168252519081900360200190f35b6105f0611917565b6105f061191d565b61068a611923565b604080519115158252519081900360200190f35b6105f0600480360360208110156106b457600080fd5b50356001600160a01b0316611933565b6105f0600480360360208110156106da57600080fd5b50356001600160a01b0316611945565b6107096004803603602081101561070057600080fd5b50351515611957565b005b6107096004803603602081101561072157600080fd5b50356001600160a01b031661197b565b6107096004803603604081101561074757600080fd5b81359190810190604081016020820135600160201b81111561076857600080fd5b82018360208201111561077a57600080fd5b803590602001918460018302840111600160201b8311171561079b57600080fd5b5090925090506119ac565b6105f0600480360360208110156107bc57600080fd5b50356001600160a01b0316611a2a565b6105f0600480360360408110156107e257600080fd5b506001600160a01b038135169060200135611a3e565b6105f06004803603608081101561080e57600080fd5b506001600160a01b038135811691602081013582169160408201351690606001351515611a83565b6107096004803603602081101561084c57600080fd5b50351515611ad9565b6105f0611afb565b61068a611b01565b61068a611b0f565b6105f06004803603602081101561088357600080fd5b50356001600160a01b0316611b18565b610709600480360360e08110156108a957600080fd5b506001600160a01b038135169060208101359060408101359060608101359060808101359060a081013515159060c001351515611bd8565b6105f0611d1b565b61068a611d21565b610709600480360361012081101561090857600080fd5b5080359060208101359060408101359060608101359060808101359060a08101359060c08101359060e08101359061010001351515611d30565b6105f06004803603606081101561095857600080fd5b508035906001600160a01b0360208201358116916040013516611d6f565b61068a6004803603602081101561098c57600080fd5b50356001600160a01b0316611e11565b610709600480360360408110156109b257600080fd5b506001600160a01b0381351690602001351515611e25565b610a08600480360360808110156109e057600080fd5b506001600160a01b038135811691602081013582169160408201351690606001351515611e58565b60408051921515835260208301919091528051918290030190f35b610709600480360360a0811015610a3957600080fd5b506001600160a01b038135811691602081013582169160408201351690606081013590608001351515611ef6565b6106566123c2565b610aad60048036036080811015610a8557600080fd5b506001600160a01b0381358116916020810135821691604082013516906060013515156123d1565b604080519889526020890197909752878701959095526060870193909352608086019190915260a0850152151560c084015260e083015251908190036101000190f35b6105f060048036036020811015610b0657600080fd5b50356001600160a01b03166124c7565b6105f06124d9565b6105f06124df565b610b4360048036036020811015610b3c57600080fd5b50356124e5565b604080519788526020880196909652868601949094526060860192909252608085015260a084015260c0830152519081900360e00190f35b6105f060048036036080811015610b9157600080fd5b506001600160a01b038135811691602081013582169160408201351690606001351515612522565b6105f060048036036020811015610bcf57600080fd5b50356001600160a01b03166125c8565b61068a60048036036020811015610bf557600080fd5b50356001600160a01b03166125da565b6105f060048036036020811015610c1b57600080fd5b50356001600160a01b03166125ef565b610a08600480360360a0811015610c4157600080fd5b506001600160a01b0381351690602081013590604081013590606081013515159060800135612601565b61070960048036036020811015610c8157600080fd5b50356001600160a01b03166126f9565b61068a60048036036040811015610ca757600080fd5b506001600160a01b03813581169160200135166127dc565b6105f06127fc565b6105f060048036036020811015610cdd57600080fd5b50356001600160a01b0316612802565b610656612814565b61070960048036036020811015610d0b57600080fd5b50356001600160a01b031661282a565b61070960048036036040811015610d3157600080fd5b506001600160a01b038135169060200135612858565b6105f06128a1565b61070960048036036020811015610d6557600080fd5b50356001600160a01b03166128a8565b6105f060048036036040811015610d8b57600080fd5b506001600160a01b03813581169160200135166128dc565b61070960048036036020811015610db957600080fd5b50356001600160a01b0316612b70565b610656612b9a565b6105f0612ba9565b610709612baf565b61070960048036036020811015610df757600080fd5b50351515612c52565b6105f060048036036040811015610e1657600080fd5b506001600160a01b0381358116916020013516612c76565b6105f060048036036020811015610e4457600080fd5b50356001600160a01b0316612f46565b6105f0600480360360e0811015610e6a57600080fd5b506001600160a01b0381358116916020810135821691604082013581169160608101359160808201359160a081013515159160c09091013516612ff1565b61070960048036036040811015610ebe57600080fd5b506001600160a01b03813516906020013561306f565b6105f0613093565b6105f060048036036020811015610ef257600080fd5b50356001600160a01b0316613098565b61070960048036036060811015610f1857600080fd5b50803590602081013590604001356130aa565b6105f060048036036020811015610f4157600080fd5b50356001600160a01b03166130f0565b610f7760048036036020811015610f6757600080fd5b50356001600160a01b0316613102565b6040805192835290151560208301528051918290030190f35b6105f060048036036020811015610fa657600080fd5b50356001600160a01b031661311e565b61070960048036036020811015610fcc57600080fd5b50356001600160a01b0316613130565b61068a61315a565b6105f060048036036060811015610ffa57600080fd5b506001600160a01b038135811691602081013582169160409091013516613169565b6105f0613451565b6105f06004803603602081101561103a57600080fd5b50356001600160a01b0316613461565b6105f0613473565b6105f06004803603604081101561106857600080fd5b506001600160a01b038135169060200135613479565b6107096004803603602081101561109457600080fd5b50356001600160a01b031661349b565b6105f0600480360360608110156110ba57600080fd5b506001600160a01b0381351690602081013590604001356134f4565b61068a61359d565b6105f06135a6565b6105f0600480360360408110156110fc57600080fd5b506001600160a01b0381351690602001356135ac565b6107096004803603604081101561112857600080fd5b506001600160a01b03813516906020013515156135c9565b6105f06004803603602081101561115657600080fd5b50356001600160a01b03166135fc565b61068a6136f9565b6105f06004803603602081101561118457600080fd5b50356001600160a01b0316613702565b6105f0600480360360208110156111aa57600080fd5b50356001600160a01b0316613714565b6105f0613726565b61068a61372c565b6105f0600480360360208110156111e057600080fd5b50356001600160a01b031661373a565b6105f06004803603606081101561120657600080fd5b506001600160a01b0381358116916020810135909116906040013515156137da565b610a086004803603602081101561123e57600080fd5b50356001600160a01b0316613875565b6105f06004803603602081101561126457600080fd5b50356001600160a01b031661390d565b6105f061391f565b6105f06004803603602081101561129257600080fd5b50356001600160a01b0316613925565b6105f0600480360360a08110156112b857600080fd5b506001600160a01b0381351690602081013590604081013590606081013590608001351515613937565b610709600480360360608110156112f857600080fd5b506001600160a01b038135811691602081013590911690604001356139e1565b6107096004803603602081101561132e57600080fd5b50356001600160a01b0316613a02565b6107096004803603602081101561135457600080fd5b5035613a4c565b6107096004803603602081101561137157600080fd5b5035613a59565b6113be600480360360a081101561138e57600080fd5b506001600160a01b0381358116916020810135821691604082013516906060810135151590608001351515613a75565b6040805192835260208301919091528051918290030190f35b610709600480360360408110156113ed57600080fd5b506001600160a01b038135169060200135613b2c565b6105f06004803603602081101561141957600080fd5b50356001600160a01b0316613b81565b6105f0613b93565b6105f0600480360360c081101561144757600080fd5b506001600160a01b038135811691602081013582169160408201351690606081013515159060808101359060a00135613b99565b61068a6004803603602081101561149157600080fd5b50356001600160a01b0316613c4d565b61068a600480360360208110156114b757600080fd5b50356001600160a01b0316613c62565b6105f0600480360360e08110156114dd57600080fd5b506001600160a01b0381351690602081013590604081013590606081013515159060808101359060a08101359060c00135613c77565b6105f0613d08565b610709600480360360a081101561153157600080fd5b506001600160a01b03813581169160208101358216916040820135811691606081013515159160809091013516613d0e565b6105f06140e6565b6105f06004803603602081101561158157600080fd5b50356001600160a01b03166140ec565b610656600480360360208110156115a757600080fd5b5035614164565b610709600480360360208110156115c457600080fd5b50356001600160a01b031661418b565b610709600480360360408110156115ea57600080fd5b506001600160a01b03813516906020013561425f565b6105f06004803603602081101561161657600080fd5b50356001600160a01b0316614283565b6107096004803603602081101561163c57600080fd5b50351515614295565b610709600480360360c081101561165b57600080fd5b506001600160a01b03813581169160208101358216916040820135169060608101359060808101359060a001356142bb565b6105f0600480360360408110156116a357600080fd5b506001600160a01b038135811691602001351661438e565b61068a600480360360208110156116d157600080fd5b50356001600160a01b03166143e4565b6106566143f9565b610656614408565b6105f06004803603606081101561170757600080fd5b506001600160a01b038135169060208101359060400135614417565b6107096004803603604081101561173957600080fd5b506001600160a01b0381358116916020013516614451565b6105f061462a565b6105f0600480360360a081101561176f57600080fd5b506001600160a01b038135811691602081013582169160408201351690606081013515159060800135614630565b6117ba600480360360208110156117b357600080fd5b50356146a6565b6040805160208082528351818301528351919283929083019185019080838360005b838110156117f45781810151838201526020016117dc565b50505050905090810190601f1680156118215780820380516001836020036101000a031916815260200191505b509250505060405180910390f35b6001600160a01b0381166000908152602660205260408120548061185757600091505061188d565b6001600160a01b03831660009081526027602052604090205461188990829061188390620f4240614741565b9061479a565b9150505b919050565b6904ee2d6d415b85acef8160201b81565b601c5490565b6000816118b8575060006118f6565b60006118c384612f46565b6001600160a01b0385166000908152601e60205260409020549091506118f1600a82900a6118838685614741565b925050505b92915050565b600c5481565b61271081565b6006546001600160a01b031681565b60155481565b600a5481565b6017546301000000900460ff1681565b60246020526000908152604090205481565b602d6020526000908152604090205481565b61195f6147d9565b60178054911515620100000262ff000019909216919091179055565b3360009081526019602090815260408083206001600160a01b0394909416835292905220805460ff19166001179055565b6002546001600160a01b03163314611a0b576040805162461bcd60e51b815260206004820152601e60248201527f5661756c743a20696e76616c6964206572726f72436f6e74726f6c6c65720000604482015290519081900360640190fd5b6000838152603160205260409020611a24908383616127565b50505050565b60006118f682611a398461373a565b6118a9565b600080611a4a846140ec565b90506000611a68826118838668327cb2734119d3b7a9601e1b614741565b6005549091506118f19082906001600160a01b031687611d6f565b604080516001600160601b0319606096871b811660208084019190915295871b811660348301529390951b9092166048850152151560f81b605c8401528051603d818503018152605d9093019052815191012090565b611ae16147d9565b600180549115156101000261ff0019909216919091179055565b60105481565b600154610100900460ff1681565b60015460ff1681565b600080600560009054906101000a90046001600160a01b03166001600160a01b03166318160ddd6040518163ffffffff1660e01b815260040160206040518083038186803b158015611b6957600080fd5b505afa158015611b7d573d6000803e3d6000fd5b505050506040513d6020811015611b9357600080fd5b5051905080611ba657600091505061188d565b6001600160a01b038316600090815260236020526040902054601654611bd0906118838385614741565b949350505050565b611be06147d9565b6001600160a01b0387166000908152601d602052604090205460ff16611c5d57600854611c0e9060016147f4565b600855601c80546001810182556000919091527f0e4562a10381dec21b205ed72637e6b1b523bdd0e4d4d50af5cd23dd4500a2110180546001600160a01b0319166001600160a01b0389161790555b6016546001600160a01b038816600090815260236020526040902054611c8490829061484c565b6001600160a01b0389166000908152601d602090815260408083208054600160ff1991821617909155601e83528184208c9055602383528184208b9055601f83528184208a90556025835281842089905582805281842080548216891515179055602190925290912080549091168415151790559050611d0481876147f4565b601655611d10886140ec565b505050505050505050565b60185481565b60015462010000900460ff1681565b611d386147d9565b600b98909855600c96909655600d94909455600e92909255600f55601055600a556011556012805460ff1916911515919091179055565b60055460009081906001600160a01b03858116911614611da7576001600160a01b0384166000908152601e6020526040902054611daa565b60125b6005549091506000906001600160a01b03858116911614611de3576001600160a01b0384166000908152601e6020526040902054611de6565b60125b9050611e0582600a0a61188383600a0a8961474190919063ffffffff16565b925050505b9392505050565b602080526000908152604090205460ff1681565b611e2d6147d9565b6001600160a01b03919091166000908152601a60205260409020805460ff1916911515919091179055565b6000806000611e6987878787611a83565b9050611e736161a5565b506000818152602c6020908152604091829020825160e081018452815480825260018301549382019390935260028201549381018490526003820154606082015260048201546080820152600582015460a082015260069091015460c082018190529092611ee79289929091908990612601565b93509350505094509492505050565b60026000541415611f3c576040805162461bcd60e51b815260206004820152601f60248201526000805160206161f8833981519152604482015290519081900360640190fd5b6002600055600154611f589062010000900460ff16601c61488e565b611f6061493a565b611f6985614956565b611f748484836149b6565b60015460408051634eae147d60e11b81526001600160a01b038881166004830152878116602483015286811660448301526064820186905284151560848301529151630100000090930490911691639d5c28fa9160a480820192600092909190829003018186803b158015611fe857600080fd5b505afa158015611ffc573d6000803e3d6000fd5b5050505061200a8484614451565b600061201886868685611a83565b6000818152602c602052604081209192508361203c5761203786612f46565b612045565b612045866140ec565b82549091506120e3576002820181905560015460408051632339ab6b60e21b8152600481018690526001600160a01b038b811660248301528a81166044830152898116606483015287151560848301529151630100000090930490911691638ce6adac9160a48082019260009290919082900301818387803b1580156120ca57600080fd5b505af11580156120de573d6000803e3d6000fd5b505050505b8154158015906120f35750600085115b1561211957612113868360000154846002015487858a8860060154613c77565b60028301555b6000612132898989888a88600001548960030154614ac9565b9050600061213f89614b97565b9050600061214d8a836118a9565b600186015490915061215f90826147f4565b6001860181905561217490841115601d61488e565b6001850154612183908461484c565b60018601556121938a8a896137da565b600386015584546121a490896147f4565b8086554260068701556121ba901515601e61488e565b6121cc85600001548660010154614c44565b6121da8b8b8b8a6001613a75565b505060006121e88b8a6135ac565b60048701549091506121fa90826147f4565b60048701556122098b82614c68565b871561224e576122228b61221d8b876147f4565b614d08565b61222c8b83614d87565b6122368b84614e06565b6122498b6122448d87613479565b614f1e565b6122ba565b6001600160a01b038a166000908152602e602052604090205461228b576001600160a01b038a166000908152602f602052604090208590556122b0565b6122968a868b6134f4565b6001600160a01b038b166000908152602f60205260409020555b6122ba8a8a614fe8565b604080518881526001600160a01b03808f166020830152808e16828401528c1660608201526080810184905260a081018b905289151560c082015260e08101879052610100810186905290517f2fe68525253654c21998f35787a8d0f361905ef647c854092430ab65f2f15022918190036101200190a1855460018701546002880154600389015460048a015460058b0154604080518e81526020810197909752868101959095526060860193909352608085019190915260a084015260c083015260e08201879052517f20853733b590dce729d9f4628682ebd9a34d2354e72679e66f43a008fc03b773918190036101000190a15050600160005550505050505050505050565b6002546001600160a01b031681565b60008060008060008060008060006123eb8d8d8d8d611a83565b90506123f56161a5565b602c60008381526020019081526020016000206040518060e001604052908160008201548152602001600182015481526020016002820154815260200160038201548152602001600482015481526020016005820154815260200160068201548152505090506000808260a0015113612475578160a0015160000361247b565b8160a001515b9050816000015182602001518360400151846060015185608001518560008860a0015112158860c001519a509a509a509a509a509a509a509a5050505094995094995094999196509450565b60286020526000908152604090205481565b6101f481565b600d5481565b602c602052600090815260409020805460018201546002830154600384015460048501546005860154600690960154949593949293919290919087565b60008061253186868686611a83565b905061253b6161a5565b506000818152602c6020908152604091829020825160e0810184528154815260018201549281018390526002820154938101939093526003810154606084015260048101546080840152600581015460a08401526006015460c08301526125a5901515602561488e565b602081015181516125bd919061188390612710614741565b979650505050505050565b60226020526000908152604090205481565b601a6020526000908152604090205460ff1681565b60266020526000908152604090205481565b60008061261260008611602661488e565b60008461262757612622886140ec565b612630565b61263088612f46565b9050600081871161264a57612645828861484c565b612654565b612654878361484c565b90506000612666886118838b85614741565b905060008715612679575087831161267e565b508288115b6000612695601154896147f490919063ffffffff16565b42116126b9576001600160a01b038c166000908152601f60205260409020546126bc565b60005b90508180156126df57506126d08b82614741565b6126dc84612710614741565b11155b156126e957600092505b509a909950975050505050505050565b6002600054141561273f576040805162461bcd60e51b815260206004820152601f60248201526000805160206161f8833981519152604482015290519081900360640190fd5b600260009081556001600160a01b0382168152601d602052604090205461276a9060ff16600e61488e565b600061277582614b97565b905061278560008211600f61488e565b61278f8282614e06565b604080516001600160a01b03841681526020810183905281517fa5a389190ebf6170a133bda5c769b77f4d6715b8aa172ec0ddf8473d0b4944bd929181900390910190a150506001600055565b601960209081526000928352604080842090915290825290205460ff1681565b60085481565b602f6020526000908152604090205481565b600154630100000090046001600160a01b031681565b3360009081526019602090815260408083206001600160a01b0394909416835292905220805460ff19169055565b6128606147d9565b6128766001600160a01b0383161515603861488e565b600654612893906001600160a01b0384811691161415603961488e565b61289d8282615097565b5050565b620f424081565b6128b06147d9565b600180546001600160a01b039092166301000000026301000000600160b81b0319909216919091179055565b600060026000541415612924576040805162461bcd60e51b815260206004820152601f60248201526000805160206161f8833981519152604482015290519081900360640190fd5b6002600055612931615113565b6001600160a01b0383166000908152601d60205260409020546129589060ff16601361488e565b6017805461ff00191661010017905560055460009061297f906001600160a01b0316614b97565b905061298f60008211601461488e565b6129998485614451565b60006129a58583611a3e565b90506129b560008211601561488e565b6129bf8583615142565b6129c98582614f1e565b60055460408051632770a7eb60e21b81523060048201526024810185905290516001600160a01b0390921691639dc29fac9160448082019260009290919082900301818387803b158015612a1c57600080fd5b505af1158015612a30573d6000803e3d6000fd5b5050600554612a4a92506001600160a01b03169050615224565b6001546040805163eb0835bf60e01b81526001600160a01b038881166004830152602482018690529151600093630100000090049092169163eb0835bf91604480820192602092909190829003018186803b158015612aa857600080fd5b505afa158015612abc573d6000803e3d6000fd5b505050506040513d6020811015612ad257600080fd5b505190506000612ae38784846152bf565b9050612af360008211601661488e565b612afe878288615387565b604080516001600160a01b03808916825289166020820152808201869052606081018390526080810184905290517fd732b7828fa6cee72c285eac756fc66a7477e3dc22e22e7c432f1c265d40b4839181900360a00190a16017805461ff001916905560016000559695505050505050565b612b786147d9565b600480546001600160a01b0319166001600160a01b0392909216919091179055565b6004546001600160a01b031681565b600b5481565b3360009081526007602052604090208054612bcd904210603a61488e565b600180820154612be69160ff909116151514603b61488e565b6006805433600081815260076020526040808220828155600101805460ff1916905584546001600160a01b031916831790945592516001600160a01b0390921692909183917f5f56bee8cffbe9a78652a74a60705edede02af10b0bbb888ca44b79a0d42ce8091a35050565b612c5a6147d9565b60018054911515620100000262ff000019909216919091179055565b600060026000541415612cbe576040805162461bcd60e51b815260206004820152601f60248201526000805160206161f8833981519152604482015290519081900360640190fd5b6002600055612ccb615113565b6001600160a01b0383166000908152601d6020526040902054612cf29060ff16601061488e565b6017805461ff0019166101001790556000612d0c84614b97565b9050612d1c60008211601161488e565b612d268485614451565b6000612d3185612f46565b90506000612d4f68327cb2734119d3b7a9601e1b6118838585614741565b600554909150612d6b90829088906001600160a01b0316611d6f565b9050612d7b60008211601261488e565b6001546040805163256f6ee360e11b81526001600160a01b0389811660048301526024820185905291516000936301000000900490921691634adeddc691604480820192602092909190829003018186803b158015612dd957600080fd5b505afa158015612ded573d6000803e3d6000fd5b505050506040513d6020811015612e0357600080fd5b505190506000612e148886846152bf565b90506000612e3268327cb2734119d3b7a9601e1b6118838488614741565b600554909150612e4e9082908b906001600160a01b0316611d6f565b9050612e5a898261542e565b612e648983614e06565b600554604080516340c10f1960e01b81526001600160a01b038b8116600483015260248201859052915191909216916340c10f1991604480830192600092919082900301818387803b158015612eb957600080fd5b505af1158015612ecd573d6000803e3d6000fd5b5050604080516001600160a01b03808d1682528d1660208201528082018a9052606081018590526080810187905290517fab4c77c74cd32c85f35416cf03e7ce9e2d4387f7b7f2c1f4bf53daaecf8ea72d93509081900360a0019150a16017805461ff0019169055600160005598975050505050505050565b60048054601754604080516317e1d38560e11b81526001600160a01b038681169582019590955260006024820181905260ff80851615156044840152610100909404909316151560648201529051919390921691632fc3a70a916084808301926020929190829003018186803b158015612fbf57600080fd5b505afa158015612fd3573d6000803e3d6000fd5b505050506040513d6020811015612fe957600080fd5b505192915050565b600060026000541415613039576040805162461bcd60e51b815260206004820152601f60248201526000805160206161f8833981519152604482015290519081900360640190fd5b600260005561304661493a565b61304f88614956565b61305e888888888888886154ec565b600160005598975050505050505050565b6130776147d9565b6001600160a01b03909116600090815260286020526040902055565b601281565b601f6020526000908152604090205481565b6130b26147d9565b6130c2610e10841015600a61488e565b6130d2612710831115600b61488e565b6130e2612710821115600c61488e565b601392909255601455601555565b602e6020526000908152604090205481565b6007602052600090815260409020805460019091015460ff1682565b601e6020526000908152604090205481565b6131386147d9565b600280546001600160a01b0319166001600160a01b0392909216919091179055565b60175462010000900460ff1681565b6000600260005414156131b1576040805162461bcd60e51b815260206004820152601f60248201526000805160206161f8833981519152604482015290519081900360640190fd5b60026000556001546131cc90610100900460ff16601761488e565b6001600160a01b0384166000908152601d60205260409020546131f39060ff16601861488e565b6001600160a01b0383166000908152601d602052604090205461321a9060ff16601961488e565b61323a836001600160a01b0316856001600160a01b03161415601a61488e565b6017805461ff0019166101001790556132538480614451565b61325d8384614451565b600061326885614b97565b905061327860008211601b61488e565b600061328386612f46565b90506000613290866140ec565b905060006132a2826118838686614741565b90506132af818989611d6f565b905060006132cd68327cb2734119d3b7a9601e1b6118838787614741565b6005549091506132e99082908b906001600160a01b0316611d6f565b60015460408051636d099c0b60e11b81526001600160a01b038d811660048301528c8116602483015260448201859052915193945060009363010000009093049091169163da13381691606480820192602092909190829003018186803b15801561335357600080fd5b505afa158015613367573d6000803e3d6000fd5b505050506040513d602081101561337d57600080fd5b50519050600061338e8a85846152bf565b905061339a8b8461542e565b6133a48a84615142565b6133ae8b88614e06565b6133b88a85614f1e565b6133c18a615a22565b6133cc8a828b615387565b604080516001600160a01b03808c168252808e1660208301528c1681830152606081018990526080810186905260a0810183905260c0810184905290517f0874b2d545cb271cdbda4e093020c452328b24af12382ed62c4d00f5c26709db9181900360e00190a16017805461ff001916905560016000559a9950505050505050505050565b68327cb2734119d3b7a9601e1b81565b60306020526000908152604090205481565b60135481565b600081613488575060006118f6565b611e0a8383613496866140ec565b614417565b6134a36147d9565b6001600160a01b0381166000908152600760205260409020600101546134cd9060ff16603c61488e565b6001600160a01b03166000908152600760205260408120908155600101805460ff19169055565b6001600160a01b0383166000908152602e6020908152604080832054602f9092528220548285821161352f5761352a868361484c565b613539565b613539828761484c565b9050600061354b836118838685614741565b9050868311600061355c86896147f4565b90506000826135745761356f82856147f4565b61357e565b61357e828561484c565b905061358e816118838c85614741565b9b9a5050505050505050505050565b60125460ff1681565b600e5481565b6000816135bb575060006118f6565b611e0a838361349686612f46565b6135d16147d9565b6001600160a01b03919091166000908152601b60205260409020805460ff1916911515919091179055565b6013546001600160a01b0382166000908152602b602052604081205490914291613625916147f4565b11156136335750600061188d565b6013546001600160a01b0383166000908152602b602052604081205490916136609161188390429061484c565b6001600160a01b0384166000908152602660205260409020549091508061368c5760009250505061188d565b6001600160a01b038416600090815260208052604081205460ff166136b3576014546136b7565b6015545b6001600160a01b0386166000908152602760205260409020549091506136f09083906118839086906136ea908690614741565b90614741565b95945050505050565b60175460ff1681565b60236020526000908152604090205481565b60256020526000908152604090205481565b60095481565b601754610100900460ff1681565b6001600160a01b038116600090815260208052604081205460ff161561377957506001600160a01b03811660009081526026602052604090205461188d565b6001600160a01b03821660009081526029602052604081205461379d908490613479565b6001600160a01b038416600090815260276020908152604080832054602690925290912054919250611889916137d49084906147f4565b9061484c565b6001546040805163b1cc53ab60e01b81526001600160a01b038681166004830152858116602483015284151560448301529151600093630100000090049092169163b1cc53ab91606480820192602092909190829003018186803b15801561384157600080fd5b505afa158015613855573d6000803e3d6000fd5b505050506040513d602081101561386b57600080fd5b5051949350505050565b6001600160a01b0381166000908152602e60205260408120548190806138a2576000809250925050613908565b60006138ad856140ec565b6001600160a01b0386166000908152602f60205260408120549192508282116138df576138da838361484c565b6138e9565b6138e9828461484c565b905060006138fb836118838785614741565b9390921195509193505050505b915091565b60276020526000908152604090205481565b60145481565b602a6020526000908152604090205481565b6001546040805163c7e074c360e01b81526001600160a01b03888116600483015260248201889052604482018790526064820186905284151560848301529151600093630100000090049092169163c7e074c39160a480820192602092909190829003018186803b1580156139ab57600080fd5b505afa1580156139bf573d6000803e3d6000fd5b505050506040513d60208110156139d557600080fd5b50519695505050505050565b6139e96147d9565b6139fd6001600160a01b0383168483615a8a565b505050565b613a0a6147d9565b613a206001600160a01b0382161515603861488e565b600654613a3d906001600160a01b0383811691161415603961488e565b613a4981600019615097565b50565b613a546147d9565b601855565b613a616147d9565b613a706127108211600261488e565b600955565b6001546040805163d54d5a9f60e01b81526001600160a01b03888116600483015287811660248301528681166044830152851515606483015284151560848301528251600094859463010000009091049092169263d54d5a9f9260a4808301939192829003018186803b158015613aeb57600080fd5b505afa158015613aff573d6000803e3d6000fd5b505050506040513d6040811015613b1557600080fd5b508051602090910151909890975095505050505050565b613b346147d9565b6001600160a01b03821660009081526024602052604090205480821115613b6e57613b6883613b63848461484c565b61542e565b5061289d565b6139fd83613b7c838561484c565b615142565b602b6020526000908152604090205481565b60115481565b6001546040805163369d949360e21b81526001600160a01b0389811660048301528881166024830152878116604483015286151560648301526084820186905260a482018590529151600093630100000090049092169163da76524c9160c480820192602092909190829003018186803b158015613c1657600080fd5b505afa158015613c2a573d6000803e3d6000fd5b505050506040513d6020811015613c4057600080fd5b5051979650505050505050565b601d6020526000908152604090205460ff1681565b60216020526000908152604090205460ff1681565b6000806000613c898a8a8a8a88612601565b90925090506000613c9a8a876147f4565b905060008815613cc95783613cb857613cb3828461484c565b613cc2565b613cc282846147f4565b9050613cea565b83613cdd57613cd882846147f4565b613ce7565b613ce7828461484c565b90505b613cf8816118838a85614741565b9c9b505050505050505050505050565b60165481565b60026000541415613d54576040805162461bcd60e51b815260206004820152601f60248201526000805160206161f8833981519152604482015290519081900360640190fd5b60026000556017546301000000900460ff1615613d8957336000908152601a6020526040902054613d899060ff16602261488e565b6017805460ff19169055613d9d8484614451565b6000613dab86868686611a83565b9050613db56161a5565b506000818152602c6020908152604091829020825160e08101845281548082526001830154938201939093526002820154938101939093526003810154606084015260048101546080840152600581015460a08401526006015460c0830152613e21901515602361488e565b600080613e32898989896000613a75565b91509150613e458260001415602461488e565b8160021415613e7a57613e62898989600087600001518b8f6154ec565b50506017805460ff19166001179055506140da915050565b6000613e868983613479565b6001600160a01b038a166000908152602d6020526040902054909150613eac90826147f4565b6001600160a01b038a166000818152602d602090815260409182902093909355805191825291810184905280820183905290517f5d0c0019d3d45fadeb74eff9d2c9924d146d000ac6bcf3c28bf0ac3c9baa011a9181900360600190a1613f17898560800151615adc565b8615613f465760208401518451613f38918b91613f339161484c565b614d87565b613f46896122448b85613479565b600087613f5b57613f56896140ec565b613f64565b613f6489612f46565b90507f2e1f85a64a2f22cf2f0c42584e7c919ed4abe8d53675cff0f62bf1e95a1c676f868c8c8c8c8a600001518b602001518c608001518d60a001518a604051808b81526020018a6001600160a01b03168152602001896001600160a01b03168152602001886001600160a01b0316815260200187151581526020018681526020018581526020018481526020018381526020018281526020019a505050505050505050505060405180910390a1871580156140235750846020015183105b1561405157602085015160009061403a908561484c565b905061404f8b61404a8d84613479565b614e06565b505b8761406457614064898660000151615b91565b6000868152602c60205260408120818155600181018290556002810182905560038101829055600481018290556005810182905560060155600a546140b0908b90612244908290613479565b6140c68a6140c08c600a54613479565b89615387565b50506017805460ff19166001179055505050505b50506001600055505050565b600f5481565b60048054601754604080516317e1d38560e11b81526001600160a01b03868116958201959095526001602482015260ff80841615156044830152610100909304909216151560648301525160009390921691632fc3a70a91608480820192602092909190829003018186803b158015612fbf57600080fd5b601c818154811061417157fe5b6000918252602090912001546001600160a01b0316905081565b6141936147d9565b6001600160a01b0381166000908152601d60205260409020546141ba9060ff16600d61488e565b6001600160a01b0381166000908152602360205260409020546016546141df9161484c565b6016556001600160a01b0381166000908152601d60209081526040808320805460ff19908116909155601e835281842084905560238352818420849055601f83528184208490556025835281842084905582805281842080548216905560219092529091208054909116905560085461425990600161484c565b60085550565b6142676147d9565b6001600160a01b03909116600090815260306020526040902055565b60296020526000908152604090205481565b61429d6147d9565b6017805491151563010000000263ff00000019909216919091179055565b600680546001600160a01b03191633179055600180546142e19160ff909116159061488e565b60018054600380546001600160a01b03199081166001600160a01b039a8b1617909155600580548216988a16989098179097556004805490971695909716949094178555600a92835560149182556015556201000061010060ff19968716851761ff0019161762ff000019161783556207a8f06009556032600b55600c55601e600d819055600e55600f92909255601091909155617080601355601780549092161763ffffff0019169055565b60006143986147d9565b6001600160a01b0383166000908152602d6020526040902054806143c05760009150506118f6565b6001600160a01b0384166000908152602d6020526040812055611e0a848285615387565b601b6020526000908152604090205460ff1681565b6005546001600160a01b031681565b6003546001600160a01b031681565b60008261442657506000611e0a565b6001600160a01b0384166000908152601e60205260409020546136f08361188386600a85900a614741565b6001546040805163fbfded6d60e01b81526001600160a01b03858116600483015284811660248301529151600093630100000090049092169163fbfded6d9160448082019260209290919082900301818787803b1580156144b157600080fd5b505af11580156144c5573d6000803e3d6000fd5b505050506040513d60208110156144db57600080fd5b50519050806144ea575061289d565b6001600160a01b0383166000908152602b602052604090205461453757601354614518906136ea428261479a565b6001600160a01b0384166000908152602b60205260409020555061289d565b6013546001600160a01b0384166000908152602b6020526040902054429161455f91906147f4565b111561456b575061289d565b6000614576846135fc565b6001600160a01b0385166000908152602a602052604090205490915061459c90826147f4565b6001600160a01b0385166000908152602a60205260409020556013546145c6906136ea428261479a565b6001600160a01b0385166000818152602b6020908152604080832094909455602a8152908390205483519283529082015281517fa146fc154e1913322e9817d49f0d5c37466c24326e15de10e739a948be815eab929181900390910190a150505050565b610e1081565b6001546040805163fdaf6ac360e01b81526001600160a01b038881166004830152878116602483015286811660448301528515156064830152608482018590529151600093630100000090049092169163fdaf6ac39160a480820192602092909190829003018186803b1580156139ab57600080fd5b60316020908152600091825260409182902080548351601f6002600019610100600186161502019093169290920491820184900484028101840190945280845290918301828280156147395780601f1061470e57610100808354040283529160200191614739565b820191906000526020600020905b81548152906001019060200180831161471c57829003601f168201915b505050505081565b600082614750575060006118f6565b8282028284828161475d57fe5b0414611e0a5760405162461bcd60e51b81526004018080602001828103825260218152602001806162186021913960400191505060405180910390fd5b6000611e0a83836040518060400160405280601a815260200179536166654d6174683a206469766973696f6e206279207a65726f60301b815250615bf9565b6006546147f2906001600160a01b03163314603561488e565b565b600082820183811015611e0a576040805162461bcd60e51b815260206004820152601b60248201527a536166654d6174683a206164646974696f6e206f766572666c6f7760281b604482015290519081900360640190fd5b6000611e0a83836040518060400160405280601e81526020017f536166654d6174683a207375627472616374696f6e206f766572666c6f770000815250615c9b565b6000818152603160205260409020826139fd5760405162461bcd60e51b815260206004820190815282546002600019610100600184161502019091160460248301819052909182916044909101908490801561492b5780601f106149005761010080835404028352916020019161492b565b820191906000526020600020905b81548152906001019060200180831161490e57829003601f168201915b50509250505060405180910390fd5b601854614946576147f2565b6147f26018543a1115603761488e565b336001600160a01b038216141561496c57613a49565b6003546001600160a01b031633141561498457613a49565b6001600160a01b0381166000908152601960209081526040808320338452909152902054613a499060ff16602961488e565b8015614a2e576149db826001600160a01b0316846001600160a01b031614602a61488e565b6001600160a01b0383166000908152601d6020526040902054614a029060ff16602b61488e565b6001600160a01b0383166000908152602080526040902054614a299060ff1615602c61488e565b6139fd565b6001600160a01b0383166000908152601d6020526040902054614a559060ff16602d61488e565b6001600160a01b0383166000908152602080526040902054614a7b9060ff16602e61488e565b6001600160a01b0382166000908152602080526040902054614aa29060ff1615602f61488e565b6001600160a01b0382166000908152602160205260409020546139fd9060ff16603061488e565b600080614ad98989898989614630565b90506000614aeb8a8a8a8a8989613b99565b9050614af782826147f4565b91506000614b058a84613479565b6001600160a01b038b166000908152602d6020526040902054909150614b2b90826147f4565b6001600160a01b038b166000818152602d602090815260409182902093909355805191825291810185905280820183905290517f5d0c0019d3d45fadeb74eff9d2c9924d146d000ac6bcf3c28bf0ac3c9baa011a9181900360600190a150909998505050505050505050565b6001600160a01b03811660008181526022602090815260408083205481516370a0823160e01b8152306004820152915193949093859391926370a08231926024808301939192829003018186803b158015614bf157600080fd5b505afa158015614c05573d6000803e3d6000fd5b505050506040513d6020811015614c1b57600080fd5b50516001600160a01b03851660009081526022602052604090208190559050611bd0818361484c565b81614c5a57614c558115602761488e565b61289d565b61289d81831015602861488e565b6001600160a01b038216600090815260276020526040902054614c8b90826147f4565b6001600160a01b038316600090815260276020818152604080842085905560268252909220549152614cc0911115603461488e565b604080516001600160a01b03841681526020810183905281517faa5649d82f5462be9d19b0f2b31a59b2259950a6076550bac9f3a1c07db9f66d929181900390910190a15050565b6001600160a01b038216600090815260296020526040902054614d2b90826147f4565b6001600160a01b03831660008181526029602090815260409182902093909355805191825291810183905281517fd9d4761f75e0d0103b5cbeab941eeb443d7a56a35b5baf2a0787c03f03f4e474929181900390910190a15050565b6001600160a01b038216600090815260296020526040902054614daa908261484c565b6001600160a01b03831660008181526029602090815260409182902093909355805191825291810183905281517f34e07158b9db50df5613e591c44ea2ebc82834eff4a4dc3a46e000e608261d68929181900390910190a15050565b6001600160a01b038216600090815260266020526040902054614e2990826147f4565b6001600160a01b03831660008181526026602090815260408083209490945583516370a0823160e01b8152306004820152935191936370a082319260248083019392829003018186803b158015614e7f57600080fd5b505afa158015614e93573d6000803e3d6000fd5b505050506040513d6020811015614ea957600080fd5b50516001600160a01b038416600090815260266020526040902054909150614ed590821015603161488e565b604080516001600160a01b03851681526020810184905281517f976177fbe09a15e5e43f848844963a42b41ef919ef17ff21a17a5421de8f4737929181900390910190a1505050565b604080518082018252601181527015985d5b1d0e881c1bdbdb105b5bdd5b9d607a1b6020808301919091526001600160a01b038516600090815260269091529190912054614f6d918390615c9b565b6001600160a01b03831660009081526026602090815260408083208490556027909152902054614fa0911015603261488e565b604080516001600160a01b03841681526020810183905281517f112726233fbeaeed0f5b1dba5cb0b2b81883dee49fb35ff99fd98ed9f6d31eb0929181900390910190a15050565b6001600160a01b0382166000908152602e602052604090205461500b90826147f4565b6001600160a01b0383166000908152602e602090815260408083209390935560309052205480156139fd576001600160a01b0383166000908152602e60205260409020548110156139fd576040805162461bcd60e51b81526020600482015260116024820152705661756c743a206d61782073686f72747360781b604482015290519081900360640190fd5b604080518082018252828152600160208083018281526001600160a01b03871660008181526007845286902094518555905193909201805460ff1916931515939093179092558251848152925190927f02dd0697be46e764c3ba81094158781c31b235d03bb27a0daf1bdef0ec1084dd92908290030190a25050565b60175462010000900460ff16156147f257336000908152601b60205260409020546147f29060ff16603661488e565b6001600160a01b0382166000908152602460205260409020548181116151bd576001600160a01b0383166000818152602460209081526040808320929092558151928352820183905280517fe1e812596aac93a06ecc4ca627014d18e30f5c33b825160cc9d5c0ba61e452279281900390910190a15061289d565b6151c7818361484c565b6001600160a01b03841660008181526024602090815260409182902093909355805191825291810184905281517fe1e812596aac93a06ecc4ca627014d18e30f5c33b825160cc9d5c0ba61e45227929181900390910190a1505050565b6000816001600160a01b03166370a08231306040518263ffffffff1660e01b815260040180826001600160a01b0316815260200191505060206040518083038186803b15801561527357600080fd5b505afa158015615287573d6000803e3d6000fd5b505050506040513d602081101561529d57600080fd5b50516001600160a01b0390921660009081526022602052604090209190915550565b6000806152dc6127106118836152d5828761484c565b8790614741565b905060006152ea858361484c565b6001600160a01b0387166000908152602d602052604090205490915061531090826147f4565b6001600160a01b0387166000908152602d60205260409020557f47cd9dda0e50ce30bcaaacd0488452b596221c07ac402a581cfae4d3933cac2b8661535581846118a9565b604080516001600160a01b0390931683526020830191909152818101849052519081900360600190a150949350505050565b61539b6001600160a01b0384168284615a8a565b604080516370a0823160e01b815230600482015290516001600160a01b038516916370a08231916024808301926020929190829003018186803b1580156153e157600080fd5b505afa1580156153f5573d6000803e3d6000fd5b505050506040513d602081101561540b57600080fd5b50516001600160a01b039093166000908152602260205260409020929092555050565b6001600160a01b03821660009081526024602052604090205461545190826147f4565b6001600160a01b03831660009081526024602090815260408083209390935560259052205480156154a3576001600160a01b0383166000908152602460205260409020546154a390821015603361488e565b604080516001600160a01b03851681526020810184905281517f64243679a443432e2293343b77d411ff6144370404618f00ca0d2025d9ca9882929181900390910190a1505050565b600154604080516381d11a2360e01b81526001600160a01b038a8116600483015289811660248301528881166044830152606482018890526084820187905285151560a483015284811660c4830152915160009363010000009004909216916381d11a239160e4808201928692909190829003018186803b15801561557057600080fd5b505afa158015615584573d6000803e3d6000fd5b505050506155928787614451565b60006155a089898987611a83565b6000818152602c602052604090208054919250906155c1901515601f61488e565b6155d38682600001541015602061488e565b6155e58782600101541015602161488e565b60018101548154600483015460009161560291611883908b614741565b6004840154909150615614908261484c565b60048401556156238b82615adc565b506000806156358d8d8d8d8d8d615cf5565b8554919350915089146157d95761564d8c8c8a6137da565b6003850155835461565e908a61484c565b80855560018501546156709190614c44565b61567e8d8d8d8b6001613a75565b505087156156ab576156a18c61221d86600101548661484c90919063ffffffff16565b6156ab8c8a614d87565b6000886156c0576156bb8c6140ec565b6156c9565b6156c98c612f46565b90507f93d75d64d1f84fc6f430a64fc578bdd4c1e090e90ea2d51773e626d19de56d30868f8f8f8f8f8f886156fe8c8c61484c565b60408051998a526001600160a01b0398891660208b015296881689880152949096166060880152608087019290925260a0860152151560c085015260e084019290925261010083019190915251908190036101200190a18454600186015460028701546003880154600489015460058a0154604080518d81526020810197909752868101959095526060860193909352608085019190915260a084015260c083015260e08201839052517f20853733b590dce729d9f4628682ebd9a34d2354e72679e66f43a008fc03b773918190036101000190a1506159c0565b87156157f3576157e98c84614d08565b6157f38c8a614d87565b600088615808576158038c6140ec565b615811565b6158118c612f46565b90507f93d75d64d1f84fc6f430a64fc578bdd4c1e090e90ea2d51773e626d19de56d30868f8f8f8f8f8f886158468c8c61484c565b60408051998a526001600160a01b0398891660208b015296881689880152949096166060880152608087019290925260a0860152151560c085015260e084019290925261010083019190915251908190036101200190a18454600186015460028701546003880154600489015460058a0154604080518d81526020810197909752868101959095526060860193909352608085019190915260a084015260c0830152517f73af1d417d82c240fdb6d319b34ad884487c6bf2845d98980cc52ad9171cb4559181900360e00190a1600160039054906101000a90046001600160a01b03166001600160a01b0316634c89b68d876040518263ffffffff1660e01b815260040180828152602001915050600060405180830381600087803b15801561596e57600080fd5b505af1158015615982573d6000803e3d6000fd5b5050506000878152602c6020526040812081815560018101829055600281018290556003810182905560048101829055600581018290556006015550505b876159cf576159cf8b8a615b91565b8115615a0f5787156159e9576159e98c6122448e85613479565b60006159f58d83613479565b9050615a028d828a615387565b95506125bd945050505050565b5060009c9b505050505050505050505050565b6001600160a01b0381166000908152602860209081526040808320546026909252909120541015613a49576040805162461bcd60e51b815260206004820152600d60248201526c2b30bab63a1d10313ab33332b960991b604482015290519081900360640190fd5b604080516001600160a01b038416602482015260448082018490528251808303909101815260649091019091526020810180516001600160e01b031663a9059cbb60e01b1790526139fd908490615eef565b604080518082018252601b81527a5661756c743a20696e73756666696369656e74207265736572766560281b6020808301919091526001600160a01b038516600090815260279091529190912054615b35918390615c9b565b6001600160a01b03831660008181526027602090815260409182902093909355805191825291810183905281517f533cb5ed32be6a90284e96b5747a1bfc2d38fdb5768a6b5f67ff7d62144ed67b929181900390910190a15050565b6001600160a01b0382166000908152602e602052604090205480821115615bd157506001600160a01b0382166000908152602e602052604081205561289d565b615bdb818361484c565b6001600160a01b0384166000908152602e6020526040902055505050565b60008183615c855760405162461bcd60e51b81526004018080602001828103825283818151815260200191508051906020019080838360005b83811015615c4a578181015183820152602001615c32565b50505050905090810190601f168015615c775780820380516001836020036101000a031916815260200191505b509250505060405180910390fd5b506000838581615c9157fe5b0495945050505050565b60008184841115615ced5760405162461bcd60e51b8152602060048201818152835160248401528351909283926044909101919085019080838360008315615c4a578181015183820152602001615c32565b505050900390565b6000806000615d0689898987611a83565b6000818152602c60205260408120805460038201549394509092615d33918d918d918d918b918d91614ac9565b9050600080600080615d548d876000015488600201548d8a60060154612601565b87549195508593509150615d6c906118838d84614741565b925050506000828015615d7f5750600082115b15615daf5750600584018054820190558088615daf576000615da18e84613479565b9050615dad8e82614f1e565b505b82158015615dbd5750600082115b15615e01576001850154615dd1908361484c565b600186015588615df5576000615de78e84613479565b9050615df38e82614e06565b505b60058501805483900390555b8a15615e2957615e11818c6147f4565b6001860154909150615e23908c61484c565b60018601555b84548a1415615e4c576001850154615e429082906147f4565b6000600187015590505b8084811115615e6657615e5f828661484c565b9050615e9a565b6001860154615e75908661484c565b60018701558915615e9a576000615e8c8f87613479565b9050615e988f82614f1e565b505b60408051888152851515602082015280820185905290517f3ff41bdde87755b687ae83d0221a232b6be51a803330ed9661c1b5d0105e0d8a9181900360600190a1909e909d509b505050505050505050505050565b6060615f44826040518060400160405280602081526020017f5361666545524332303a206c6f772d6c6576656c2063616c6c206661696c6564815250856001600160a01b0316615fa09092919063ffffffff16565b8051909150156139fd57808060200190516020811015615f6357600080fd5b50516139fd5760405162461bcd60e51b815260040180806020018281038252602a815260200180616239602a913960400191505060405180910390fd5b6060611bd0848460008585615fb4856160bb565b616005576040805162461bcd60e51b815260206004820152601d60248201527f416464726573733a2063616c6c20746f206e6f6e2d636f6e7472616374000000604482015290519081900360640190fd5b60006060866001600160a01b031685876040518082805190602001908083835b602083106160445780518252601f199092019160209182019101616025565b6001836020036101000a03801982511681845116808217855250505050505090500191505060006040518083038185875af1925050503d80600081146160a6576040519150601f19603f3d011682016040523d82523d6000602084013e6160ab565b606091505b50915091506125bd8282866160c1565b3b151590565b606083156160d0575081611e0a565b8251156160e05782518084602001fd5b60405162461bcd60e51b8152602060048201818152845160248401528451859391928392604401919085019080838360008315615c4a578181015183820152602001615c32565b828054600181600116156101000203166002900490600052602060002090601f016020900481019282601f106161685782800160ff19823516178555616195565b82800160010185558215616195579182015b8281111561619557823582559160200191906001019061617a565b506161a19291506161e2565b5090565b6040518060e00160405280600081526020016000815260200160008152602001600081526020016000815260200160008152602001600081525090565b5b808211156161a157600081556001016161e356fe5265656e7472616e637947756172643a207265656e7472616e742063616c6c00536166654d6174683a206d756c7469706c69636174696f6e206f766572666c6f775361666545524332303a204552433230206f7065726174696f6e20646964206e6f742073756363656564a26469706673582212207015f0212c9ea2a0ce1ded0c499c05bc910ddd3d71c3b63b9cfd4539b0d6491d64736f6c634300060c0033","linkReferences":{}},"methodIdentifiers":{"BASIS_POINTS_DIVISOR()":"126082cf","FUNDING_RATE_PRECISION()":"6be6026b","MAX_FEE_BASIS_POINTS()":"4befe2ca","MAX_FUNDING_RATE_FACTOR()":"8a39735a","MAX_LIQUIDATION_FEE_USD()":"07c58752","MIN_FUNDING_RATE_INTERVAL()":"fce28c10","MIN_LEVERAGE()":"34c1557d","PRICE_PRECISION()":"95082d25","USDG_DECIMALS()":"870d917c","acceptGov()":"7bc6729b","addRouter(address)":"24ca984e","adjustForDecimals(uint256,address,address)":"42152873","allWhitelistedTokens(uint256)":"e468baf0","allWhitelistedTokensLength()":"0842b076","approvedRouters(address,address)":"60922199","bufferAmounts(address)":"4a993ee9","buyUSDG(address,address)":"817bb857","cancelGovProposal(address)":"9c35b497","clearTokenConfig(address)":"e67f59a7","cumulativeFundingRates(address)":"c65bc7b1","decreasePosition(address,address,address,uint256,uint256,bool,address)":"82a08490","directPoolDeposit(address)":"5f7bc119","errorController()":"48f35cbb","errors(uint256)":"fed1a606","feeReserves(address)":"1ce9cb8f","fundingInterval()":"9849e412","fundingRateFactor()":"c4f718bf","getDelta(address,uint256,uint256,bool,uint256)":"5c07eaab","getEntryFundingRate(address,address,bool)":"b1cc53ab","getFeeBasisPoints(address,uint256,uint256,uint256,bool)":"c7e074c3","getFundingFee(address,address,address,bool,uint256,uint256)":"da76524c","getGlobalShortDelta(address)":"b364accb","getMaxPrice(address)":"e124e6d2","getMinPrice(address)":"81a612d6","getNextAveragePrice(address,uint256,uint256,bool,uint256,uint256,uint256)":"db97495f","getNextFundingRate(address)":"a93acac2","getNextGlobalShortAveragePrice(address,uint256,uint256)":"9d7432ca","getPosition(address,address,address,bool)":"4a3f088d","getPositionDelta(address,address,address,bool)":"45a6f370","getPositionFee(address,address,address,bool,uint256)":"fdaf6ac3","getPositionKey(address,address,address,bool)":"2d4b0576","getPositionLeverage(address,address,address,bool)":"51723e82","getRedemptionAmount(address,uint256)":"2c668ec1","getRedemptionCollateral(address)":"b136ca49","getRedemptionCollateralUsd(address)":"29ff9615","getTargetUsdgAmount(address)":"3a05dcc1","getUtilisation(address)":"04fef1db","globalShortAveragePrices(address)":"62749803","globalShortSizes(address)":"8a78daa8","gov()":"12d43a51","govProposals(address)":"8d0fedb0","guaranteedUsd(address)":"f07456ce","hasDynamicFees()":"9f392eb3","inManagerMode()":"9060b1ca","inPrivateLiquidationMode()":"181e210e","includeAmmPrice()":"ab08c1c6","increasePosition(address,address,address,uint256,bool)":"48d91abf","initialize2(address,address,address,uint256,uint256,uint256)":"f1675a8b","isInitialized()":"392e53cd","isLeverageEnabled()":"3e72a262","isLiquidator(address)":"529a356f","isManager(address)":"f3ae2415","isSwapEnabled()":"351a964d","lastFundingTimes(address)":"d8f897c3","liquidatePosition(address,address,address,bool,address)":"de2ea948","liquidationFeeUsd()":"174d2694","marginFeeBasisPoints()":"318bc689","maxGasPrice()":"3de39c11","maxGlobalShortSizes(address)":"9698d25a","maxLeverage()":"ae3302c2","maxUsdgAmounts(address)":"ad1e4f8d","minProfitBasisPoints(address)":"88b1fbdf","minProfitTime()":"d9ac4225","mintBurnFeeBasisPoints()":"4d47b304","poolAmounts(address)":"52f55eed","positions(bytes32)":"514ea4bf","priceFeed()":"741bef1a","removeRouter(address)":"6ae0b154","reservedAmounts(address)":"c3c7b9e9","router()":"f887ea40","sellUSDG(address,address)":"711e6190","setBufferAmount(address,uint256)":"8585f4d2","setError(uint256,string)":"28e67be5","setErrorController(address)":"8f7b8404","setFees(uint256,uint256,uint256,uint256,uint256,uint256,uint256,uint256,bool)":"40eb3802","setFundingRate(uint256,uint256,uint256)":"8a27d468","setGov(address)":"cfad57a2","setGovWithDeadline(address,uint256)":"6bb22fd7","setInManagerMode(bool)":"24b0c04d","setInPrivateLiquidationMode(bool)":"f07bbf77","setIsLeverageEnabled(bool)":"7c2eb9f7","setIsSwapEnabled(bool)":"30455ede","setLiquidator(address,bool)":"4453a374","setManager(address,bool)":"a5e90eee","setMaxGasPrice(uint256)":"d2fa635e","setMaxGlobalShortSize(address,uint256)":"efa10a6e","setMaxLeverage(uint256)":"d3127e63","setPriceFeed(address)":"724e78da","setTokenConfig(address,uint256,uint256,uint256,uint256,bool,bool)":"3c5a6e35","setUsdgAmount(address,uint256)":"d66b000d","setVaultUtils(address)":"71089f4d","shortableTokens(address)":"db3555fb","stableFundingRateFactor()":"134ca63b","stableSwapFeeBasisPoints()":"df73a267","stableTaxBasisPoints()":"10eb56c2","stableTokens(address)":"42b60b03","swap(address,address,address)":"93316212","swapFeeBasisPoints()":"a22f2392","taxBasisPoints()":"7a210a2b","tokenBalances(address)":"523fba7f","tokenDecimals(address)":"8ee573ac","tokenToUsdMin(address,uint256)":"0a48d5a9","tokenWeights(address)":"ab2f3ad4","totalTokenWeights()":"dc8f5fac","updateCumulativeFundingRate(address,address)":"fbfded6d","upgradeVault(address,address,uint256)":"cea0c328","usdToToken(address,uint256,uint256)":"fa12dbc0","usdToTokenMax(address,uint256)":"a42ab3d2","usdToTokenMin(address,uint256)":"9899cd02","usdg()":"f5b91b7b","usdgAmounts(address)":"1aa4ace5","useSwapPricing()":"b06423f3","validateLiquidation(address,address,address,bool,bool)":"d54d5a9f","vaultUtils()":"6abbe0c8","whitelistedTokenCount()":"62287a32","whitelistedTokens(address)":"daf9c210","withdrawFees(address,address)":"f2555278"},"id":41}