{"abi":[{"type":"function","name":"BASIS_POINTS_DIVISOR","inputs":[],"outputs":[{"name":"","type":"uint256","internalType":"uint256"}],"stateMutability":"view"},{"type":"function","name":"FUNDING_RATE_PRECISION","inputs":[],"outputs":[{"name":"","type":"uint256","internalType":"uint256"}],"stateMutability":"view"},{"type":"function","name":"MAX_FEE_BASIS_POINTS","inputs":[],"outputs":[{"name":"","type":"uint256","internalType":"uint256"}],"stateMutability":"view"},{"type":"function","name":"MAX_FUNDING_RATE_FACTOR","inputs":[],"outputs":[{"name":"","type":"uint256","internalType":"uint256"}],"stateMutability":"view"},{"type":"function","name":"MAX_LIQUIDATION_FEE_USD","inputs":[],"outputs":[{"name":"","type":"uint256","internalType":"uint256"}],"stateMutability":"view"},{"type":"function","name":"MIN_FUNDING_RATE_INTERVAL","inputs":[],"outputs":[{"name":"","type":"uint256","internalType":"uint256"}],"stateMutability":"view"},{"type":"function","name":"MIN_LEVERAGE","inputs":[],"outputs":[{"name":"","type":"uint256","internalType":"uint256"}],"stateMutability":"view"},{"type":"function","name":"PRICE_PRECISION","inputs":[],"outputs":[{"name":"","type":"uint256","internalType":"uint256"}],"stateMutability":"view"},{"type":"function","name":"USDG_DECIMALS","inputs":[],"outputs":[{"name":"","type":"uint256","internalType":"uint256"}],"stateMutability":"view"},{"type":"function","name":"addRouter","inputs":[{"name":"_router","type":"address","internalType":"address"}],"outputs":[],"stateMutability":"nonpayable"},{"type":"function","name":"adjustForDecimals","inputs":[{"name":"_amount","type":"uint256","internalType":"uint256"},{"name":"_tokenDiv","type":"address","internalType":"address"},{"name":"_tokenMul","type":"address","internalType":"address"}],"outputs":[{"name":"","type":"uint256","internalType":"uint256"}],"stateMutability":"view"},{"type":"function","name":"allWhitelistedTokens","inputs":[{"name":"","type":"uint256","internalType":"uint256"}],"outputs":[{"name":"","type":"address","internalType":"address"}],"stateMutability":"view"},{"type":"function","name":"allWhitelistedTokensLength","inputs":[],"outputs":[{"name":"","type":"uint256","internalType":"uint256"}],"stateMutability":"view"},{"type":"function","name":"approvedRouters","inputs":[{"name":"","type":"address","internalType":"address"},{"name":"","type":"address","internalType":"address"}],"outputs":[{"name":"","type":"bool","internalType":"bool"}],"stateMutability":"view"},{"type":"function","name":"bufferAmounts","inputs":[{"name":"","type":"address","internalType":"address"}],"outputs":[{"name":"","type":"uint256","internalType":"uint256"}],"stateMutability":"view"},{"type":"function","name":"buyUSDG","inputs":[{"name":"_token","type":"address","internalType":"address"},{"name":"_receiver","type":"address","internalType":"address"}],"outputs":[{"name":"","type":"uint256","internalType":"uint256"}],"stateMutability":"nonpayable"},{"type":"function","name":"clearTokenConfig","inputs":[{"name":"_token","type":"address","internalType":"address"}],"outputs":[],"stateMutability":"nonpayable"},{"type":"function","name":"cumulativeFundingRates","inputs":[{"name":"","type":"address","internalType":"address"}],"outputs":[{"name":"","type":"uint256","internalType":"uint256"}],"stateMutability":"view"},{"type":"function","name":"decreasePosition","inputs":[{"name":"_account","type":"address","internalType":"address"},{"name":"_collateralToken","type":"address","internalType":"address"},{"name":"_indexToken","type":"address","internalType":"address"},{"name":"_collateralDelta","type":"uint256","internalType":"uint256"},{"name":"_sizeDelta","type":"uint256","internalType":"uint256"},{"name":"_isLong","type":"bool","internalType":"bool"},{"name":"_receiver","type":"address","internalType":"address"}],"outputs":[{"name":"","type":"uint256","internalType":"uint256"}],"stateMutability":"nonpayable"},{"type":"function","name":"directPoolDeposit","inputs":[{"name":"_token","type":"address","internalType":"address"}],"outputs":[],"stateMutability":"nonpayable"},{"type":"function","name":"errorController","inputs":[],"outputs":[{"name":"","type":"address","internalType":"address"}],"stateMutability":"view"},{"type":"function","name":"errors","inputs":[{"name":"","type":"uint256","internalType":"uint256"}],"outputs":[{"name":"","type":"string","internalType":"string"}],"stateMutability":"view"},{"type":"function","name":"feeReserves","inputs":[{"name":"","type":"address","internalType":"address"}],"outputs":[{"name":"","type":"uint256","internalType":"uint256"}],"stateMutability":"view"},{"type":"function","name":"fundingInterval","inputs":[],"outputs":[{"name":"","type":"uint256","internalType":"uint256"}],"stateMutability":"view"},{"type":"function","name":"fundingRateFactor","inputs":[],"outputs":[{"name":"","type":"uint256","internalType":"uint256"}],"stateMutability":"view"},{"type":"function","name":"getDelta","inputs":[{"name":"_indexToken","type":"address","internalType":"address"},{"name":"_size","type":"uint256","internalType":"uint256"},{"name":"_averagePrice","type":"uint256","internalType":"uint256"},{"name":"_isLong","type":"bool","internalType":"bool"},{"name":"_lastIncreasedTime","type":"uint256","internalType":"uint256"}],"outputs":[{"name":"","type":"bool","internalType":"bool"},{"name":"","type":"uint256","internalType":"uint256"}],"stateMutability":"view"},{"type":"function","name":"getEntryFundingRate","inputs":[{"name":"_collateralToken","type":"address","internalType":"address"},{"name":"_indexToken","type":"address","internalType":"address"},{"name":"_isLong","type":"bool","internalType":"bool"}],"outputs":[{"name":"","type":"uint256","internalType":"uint256"}],"stateMutability":"view"},{"type":"function","name":"getFeeBasisPoints","inputs":[{"name":"_token","type":"address","internalType":"address"},{"name":"_usdgDelta","type":"uint256","internalType":"uint256"},{"name":"_feeBasisPoints","type":"uint256","internalType":"uint256"},{"name":"_taxBasisPoints","type":"uint256","internalType":"uint256"},{"name":"_increment","type":"bool","internalType":"bool"}],"outputs":[{"name":"","type":"uint256","internalType":"uint256"}],"stateMutability":"view"},{"type":"function","name":"getFundingFee","inputs":[{"name":"_account","type":"address","internalType":"address"},{"name":"_collateralToken","type":"address","internalType":"address"},{"name":"_indexToken","type":"address","internalType":"address"},{"name":"_isLong","type":"bool","internalType":"bool"},{"name":"_size","type":"uint256","internalType":"uint256"},{"name":"_entryFundingRate","type":"uint256","internalType":"uint256"}],"outputs":[{"name":"","type":"uint256","internalType":"uint256"}],"stateMutability":"view"},{"type":"function","name":"getGlobalShortDelta","inputs":[{"name":"_token","type":"address","internalType":"address"}],"outputs":[{"name":"","type":"bool","internalType":"bool"},{"name":"","type":"uint256","internalType":"uint256"}],"stateMutability":"view"},{"type":"function","name":"getMaxPrice","inputs":[{"name":"_token","type":"address","internalType":"address"}],"outputs":[{"name":"","type":"uint256","internalType":"uint256"}],"stateMutability":"view"},{"type":"function","name":"getMinPrice","inputs":[{"name":"_token","type":"address","internalType":"address"}],"outputs":[{"name":"","type":"uint256","internalType":"uint256"}],"stateMutability":"view"},{"type":"function","name":"getNextAveragePrice","inputs":[{"name":"_indexToken","type":"address","internalType":"address"},{"name":"_size","type":"uint256","internalType":"uint256"},{"name":"_averagePrice","type":"uint256","internalType":"uint256"},{"name":"_isLong","type":"bool","internalType":"bool"},{"name":"_nextPrice","type":"uint256","internalType":"uint256"},{"name":"_sizeDelta","type":"uint256","internalType":"uint256"},{"name":"_lastIncreasedTime","type":"uint256","internalType":"uint256"}],"outputs":[{"name":"","type":"uint256","internalType":"uint256"}],"stateMutability":"view"},{"type":"function","name":"getNextFundingRate","inputs":[{"name":"_token","type":"address","internalType":"address"}],"outputs":[{"name":"","type":"uint256","internalType":"uint256"}],"stateMutability":"view"},{"type":"function","name":"getNextGlobalShortAveragePrice","inputs":[{"name":"_indexToken","type":"address","internalType":"address"},{"name":"_nextPrice","type":"uint256","internalType":"uint256"},{"name":"_sizeDelta","type":"uint256","internalType":"uint256"}],"outputs":[{"name":"","type":"uint256","internalType":"uint256"}],"stateMutability":"view"},{"type":"function","name":"getPosition","inputs":[{"name":"_account","type":"address","internalType":"address"},{"name":"_collateralToken","type":"address","internalType":"address"},{"name":"_indexToken","type":"address","internalType":"address"},{"name":"_isLong","type":"bool","internalType":"bool"}],"outputs":[{"name":"","type":"uint256","internalType":"uint256"},{"name":"","type":"uint256","internalType":"uint256"},{"name":"","type":"uint256","internalType":"uint256"},{"name":"","type":"uint256","internalType":"uint256"},{"name":"","type":"uint256","internalType":"uint256"},{"name":"","type":"uint256","internalType":"uint256"},{"name":"","type":"bool","internalType":"bool"},{"name":"","type":"uint256","internalType":"uint256"}],"stateMutability":"view"},{"type":"function","name":"getPositionDelta","inputs":[{"name":"_account","type":"address","internalType":"address"},{"name":"_collateralToken","type":"address","internalType":"address"},{"name":"_indexToken","type":"address","internalType":"address"},{"name":"_isLong","type":"bool","internalType":"bool"}],"outputs":[{"name":"","type":"bool","internalType":"bool"},{"name":"","type":"uint256","internalType":"uint256"}],"stateMutability":"view"},{"type":"function","name":"getPositionFee","inputs":[{"name":"_account","type":"address","internalType":"address"},{"name":"_collateralToken","type":"address","internalType":"address"},{"name":"_indexToken","type":"address","internalType":"address"},{"name":"_isLong","type":"bool","internalType":"bool"},{"name":"_sizeDelta","type":"uint256","internalType":"uint256"}],"outputs":[{"name":"","type":"uint256","internalType":"uint256"}],"stateMutability":"view"},{"type":"function","name":"getPositionKey","inputs":[{"name":"_account","type":"address","internalType":"address"},{"name":"_collateralToken","type":"address","internalType":"address"},{"name":"_indexToken","type":"address","internalType":"address"},{"name":"_isLong","type":"bool","internalType":"bool"}],"outputs":[{"name":"","type":"bytes32","internalType":"bytes32"}],"stateMutability":"pure"},{"type":"function","name":"getPositionLeverage","inputs":[{"name":"_account","type":"address","internalType":"address"},{"name":"_collateralToken","type":"address","internalType":"address"},{"name":"_indexToken","type":"address","internalType":"address"},{"name":"_isLong","type":"bool","internalType":"bool"}],"outputs":[{"name":"","type":"uint256","internalType":"uint256"}],"stateMutability":"view"},{"type":"function","name":"getRedemptionAmount","inputs":[{"name":"_token","type":"address","internalType":"address"},{"name":"_usdgAmount","type":"uint256","internalType":"uint256"}],"outputs":[{"name":"","type":"uint256","internalType":"uint256"}],"stateMutability":"view"},{"type":"function","name":"getRedemptionCollateral","inputs":[{"name":"_token","type":"address","internalType":"address"}],"outputs":[{"name":"","type":"uint256","internalType":"uint256"}],"stateMutability":"view"},{"type":"function","name":"getRedemptionCollateralUsd","inputs":[{"name":"_token","type":"address","internalType":"address"}],"outputs":[{"name":"","type":"uint256","internalType":"uint256"}],"stateMutability":"view"},{"type":"function","name":"getTargetUsdgAmount","inputs":[{"name":"_token","type":"address","internalType":"address"}],"outputs":[{"name":"","type":"uint256","internalType":"uint256"}],"stateMutability":"view"},{"type":"function","name":"getUtilisation","inputs":[{"name":"_token","type":"address","internalType":"address"}],"outputs":[{"name":"","type":"uint256","internalType":"uint256"}],"stateMutability":"view"},{"type":"function","name":"globalShortAveragePrices","inputs":[{"name":"","type":"address","internalType":"address"}],"outputs":[{"name":"","type":"uint256","internalType":"uint256"}],"stateMutability":"view"},{"type":"function","name":"globalShortSizes","inputs":[{"name":"","type":"address","internalType":"address"}],"outputs":[{"name":"","type":"uint256","internalType":"uint256"}],"stateMutability":"view"},{"type":"function","name":"gov","inputs":[],"outputs":[{"name":"","type":"address","internalType":"address"}],"stateMutability":"view"},{"type":"function","name":"guaranteedUsd","inputs":[{"name":"","type":"address","internalType":"address"}],"outputs":[{"name":"","type":"uint256","internalType":"uint256"}],"stateMutability":"view"},{"type":"function","name":"hasDynamicFees","inputs":[],"outputs":[{"name":"","type":"bool","internalType":"bool"}],"stateMutability":"view"},{"type":"function","name":"inManagerMode","inputs":[],"outputs":[{"name":"","type":"bool","internalType":"bool"}],"stateMutability":"view"},{"type":"function","name":"inPrivateLiquidationMode","inputs":[],"outputs":[{"name":"","type":"bool","internalType":"bool"}],"stateMutability":"view"},{"type":"function","name":"includeAmmPrice","inputs":[],"outputs":[{"name":"","type":"bool","internalType":"bool"}],"stateMutability":"view"},{"type":"function","name":"increasePosition","inputs":[{"name":"_account","type":"address","internalType":"address"},{"name":"_collateralToken","type":"address","internalType":"address"},{"name":"_indexToken","type":"address","internalType":"address"},{"name":"_sizeDelta","type":"uint256","internalType":"uint256"},{"name":"_isLong","type":"bool","internalType":"bool"}],"outputs":[],"stateMutability":"nonpayable"},{"type":"function","name":"initialize2","inputs":[{"name":"_router","type":"address","internalType":"address"},{"name":"_usdg","type":"address","internalType":"address"},{"name":"_priceFeed","type":"address","internalType":"address"},{"name":"_liquidationFeeUsd","type":"uint256","internalType":"uint256"},{"name":"_fundingRateFactor","type":"uint256","internalType":"uint256"},{"name":"_stableFundingRateFactor","type":"uint256","internalType":"uint256"}],"outputs":[],"stateMutability":"nonpayable"},{"type":"function","name":"isInitialized","inputs":[],"outputs":[{"name":"","type":"bool","internalType":"bool"}],"stateMutability":"view"},{"type":"function","name":"isLeverageEnabled","inputs":[],"outputs":[{"name":"","type":"bool","internalType":"bool"}],"stateMutability":"view"},{"type":"function","name":"isLiquidator","inputs":[{"name":"","type":"address","internalType":"address"}],"outputs":[{"name":"","type":"bool","internalType":"bool"}],"stateMutability":"view"},{"type":"function","name":"isManager","inputs":[{"name":"","type":"address","internalType":"address"}],"outputs":[{"name":"","type":"bool","internalType":"bool"}],"stateMutability":"view"},{"type":"function","name":"isSwapEnabled","inputs":[],"outputs":[{"name":"","type":"bool","internalType":"bool"}],"stateMutability":"view"},{"type":"function","name":"lastFundingTimes","inputs":[{"name":"","type":"address","internalType":"address"}],"outputs":[{"name":"","type":"uint256","internalType":"uint256"}],"stateMutability":"view"},{"type":"function","name":"liquidatePosition","inputs":[{"name":"_account","type":"address","internalType":"address"},{"name":"_collateralToken","type":"address","internalType":"address"},{"name":"_indexToken","type":"address","internalType":"address"},{"name":"_isLong","type":"bool","internalType":"bool"},{"name":"_feeReceiver","type":"address","internalType":"address"}],"outputs":[],"stateMutability":"nonpayable"},{"type":"function","name":"liquidationFeeUsd","inputs":[],"outputs":[{"name":"","type":"uint256","internalType":"uint256"}],"stateMutability":"view"},{"type":"function","name":"marginFeeBasisPoints","inputs":[],"outputs":[{"name":"","type":"uint256","internalType":"uint256"}],"stateMutability":"view"},{"type":"function","name":"maxGasPrice","inputs":[],"outputs":[{"name":"","type":"uint256","internalType":"uint256"}],"stateMutability":"view"},{"type":"function","name":"maxGlobalShortSizes","inputs":[{"name":"","type":"address","internalType":"address"}],"outputs":[{"name":"","type":"uint256","internalType":"uint256"}],"stateMutability":"view"},{"type":"function","name":"maxLeverage","inputs":[],"outputs":[{"name":"","type":"uint256","internalType":"uint256"}],"stateMutability":"view"},{"type":"function","name":"maxUsdgAmounts","inputs":[{"name":"","type":"address","internalType":"address"}],"outputs":[{"name":"","type":"uint256","internalType":"uint256"}],"stateMutability":"view"},{"type":"function","name":"minProfitBasisPoints","inputs":[{"name":"","type":"address","internalType":"address"}],"outputs":[{"name":"","type":"uint256","internalType":"uint256"}],"stateMutability":"view"},{"type":"function","name":"minProfitTime","inputs":[],"outputs":[{"name":"","type":"uint256","internalType":"uint256"}],"stateMutability":"view"},{"type":"function","name":"mintBurnFeeBasisPoints","inputs":[],"outputs":[{"name":"","type":"uint256","internalType":"uint256"}],"stateMutability":"view"},{"type":"function","name":"poolAmounts","inputs":[{"name":"","type":"address","internalType":"address"}],"outputs":[{"name":"","type":"uint256","internalType":"uint256"}],"stateMutability":"view"},{"type":"function","name":"positions","inputs":[{"name":"","type":"bytes32","internalType":"bytes32"}],"outputs":[{"name":"size","type":"uint256","internalType":"uint256"},{"name":"collateral","type":"uint256","internalType":"uint256"},{"name":"averagePrice","type":"uint256","internalType":"uint256"},{"name":"entryFundingRate","type":"uint256","internalType":"uint256"},{"name":"reserveAmount","type":"uint256","internalType":"uint256"},{"name":"realisedPnl","type":"int256","internalType":"int256"},{"name":"lastIncreasedTime","type":"uint256","internalType":"uint256"}],"stateMutability":"view"},{"type":"function","name":"priceFeed","inputs":[],"outputs":[{"name":"","type":"address","internalType":"address"}],"stateMutability":"view"},{"type":"function","name":"removeRouter","inputs":[{"name":"_router","type":"address","internalType":"address"}],"outputs":[],"stateMutability":"nonpayable"},{"type":"function","name":"reservedAmounts","inputs":[{"name":"","type":"address","internalType":"address"}],"outputs":[{"name":"","type":"uint256","internalType":"uint256"}],"stateMutability":"view"},{"type":"function","name":"router","inputs":[],"outputs":[{"name":"","type":"address","internalType":"address"}],"stateMutability":"view"},{"type":"function","name":"sellUSDG","inputs":[{"name":"_token","type":"address","internalType":"address"},{"name":"_receiver","type":"address","internalType":"address"}],"outputs":[{"name":"","type":"uint256","internalType":"uint256"}],"stateMutability":"nonpayable"},{"type":"function","name":"setBufferAmount","inputs":[{"name":"_token","type":"address","internalType":"address"},{"name":"_amount","type":"uint256","internalType":"uint256"}],"outputs":[],"stateMutability":"nonpayable"},{"type":"function","name":"setError","inputs":[{"name":"_errorCode","type":"uint256","internalType":"uint256"},{"name":"_error","type":"string","internalType":"string"}],"outputs":[],"stateMutability":"nonpayable"},{"type":"function","name":"setErrorController","inputs":[{"name":"_errorController","type":"address","internalType":"address"}],"outputs":[],"stateMutability":"nonpayable"},{"type":"function","name":"setFees","inputs":[{"name":"_taxBasisPoints","type":"uint256","internalType":"uint256"},{"name":"_stableTaxBasisPoints","type":"uint256","internalType":"uint256"},{"name":"_mintBurnFeeBasisPoints","type":"uint256","internalType":"uint256"},{"name":"_swapFeeBasisPoints","type":"uint256","internalType":"uint256"},{"name":"_stableSwapFeeBasisPoints","type":"uint256","internalType":"uint256"},{"name":"_marginFeeBasisPoints","type":"uint256","internalType":"uint256"},{"name":"_liquidationFeeUsd","type":"uint256","internalType":"uint256"},{"name":"_minProfitTime","type":"uint256","internalType":"uint256"},{"name":"_hasDynamicFees","type":"bool","internalType":"bool"}],"outputs":[],"stateMutability":"nonpayable"},{"type":"function","name":"setFundingRate","inputs":[{"name":"_fundingInterval","type":"uint256","internalType":"uint256"},{"name":"_fundingRateFactor","type":"uint256","internalType":"uint256"},{"name":"_stableFundingRateFactor","type":"uint256","internalType":"uint256"}],"outputs":[],"stateMutability":"nonpayable"},{"type":"function","name":"setGov","inputs":[{"name":"_gov","type":"address","internalType":"address"}],"outputs":[],"stateMutability":"nonpayable"},{"type":"function","name":"setInManagerMode","inputs":[{"name":"_inManagerMode","type":"bool","internalType":"bool"}],"outputs":[],"stateMutability":"nonpayable"},{"type":"function","name":"setInPrivateLiquidationMode","inputs":[{"name":"_inPrivateLiquidationMode","type":"bool","internalType":"bool"}],"outputs":[],"stateMutability":"nonpayable"},{"type":"function","name":"setIsLeverageEnabled","inputs":[{"name":"_isLeverageEnabled","type":"bool","internalType":"bool"}],"outputs":[],"stateMutability":"nonpayable"},{"type":"function","name":"setIsSwapEnabled","inputs":[{"name":"_isSwapEnabled","type":"bool","internalType":"bool"}],"outputs":[],"stateMutability":"nonpayable"},{"type":"function","name":"setLiquidator","inputs":[{"name":"_liquidator","type":"address","internalType":"address"},{"name":"_isActive","type":"bool","internalType":"bool"}],"outputs":[],"stateMutability":"nonpayable"},{"type":"function","name":"setManager","inputs":[{"name":"_manager","type":"address","internalType":"address"},{"name":"_isManager","type":"bool","internalType":"bool"}],"outputs":[],"stateMutability":"nonpayable"},{"type":"function","name":"setMaxGasPrice","inputs":[{"name":"_maxGasPrice","type":"uint256","internalType":"uint256"}],"outputs":[],"stateMutability":"nonpayable"},{"type":"function","name":"setMaxGlobalShortSize","inputs":[{"name":"_token","type":"address","internalType":"address"},{"name":"_amount","type":"uint256","internalType":"uint256"}],"outputs":[],"stateMutability":"nonpayable"},{"type":"function","name":"setMaxLeverage","inputs":[{"name":"_maxLeverage","type":"uint256","internalType":"uint256"}],"outputs":[],"stateMutability":"nonpayable"},{"type":"function","name":"setPriceFeed","inputs":[{"name":"_priceFeed","type":"address","internalType":"address"}],"outputs":[],"stateMutability":"nonpayable"},{"type":"function","name":"setTokenConfig","inputs":[{"name":"_token","type":"address","internalType":"address"},{"name":"_tokenDecimals","type":"uint256","internalType":"uint256"},{"name":"_tokenWeight","type":"uint256","internalType":"uint256"},{"name":"_minProfitBps","type":"uint256","internalType":"uint256"},{"name":"_maxUsdgAmount","type":"uint256","internalType":"uint256"},{"name":"_isStable","type":"bool","internalType":"bool"},{"name":"_isShortable","type":"bool","internalType":"bool"}],"outputs":[],"stateMutability":"nonpayable"},{"type":"function","name":"setUsdgAmount","inputs":[{"name":"_token","type":"address","internalType":"address"},{"name":"_amount","type":"uint256","internalType":"uint256"}],"outputs":[],"stateMutability":"nonpayable"},{"type":"function","name":"setVaultUtils","inputs":[{"name":"_vaultUtils","type":"address","internalType":"contract IVaultUtils"}],"outputs":[],"stateMutability":"nonpayable"},{"type":"function","name":"shortableTokens","inputs":[{"name":"","type":"address","internalType":"address"}],"outputs":[{"name":"","type":"bool","internalType":"bool"}],"stateMutability":"view"},{"type":"function","name":"stableFundingRateFactor","inputs":[],"outputs":[{"name":"","type":"uint256","internalType":"uint256"}],"stateMutability":"view"},{"type":"function","name":"stableSwapFeeBasisPoints","inputs":[],"outputs":[{"name":"","type":"uint256","internalType":"uint256"}],"stateMutability":"view"},{"type":"function","name":"stableTaxBasisPoints","inputs":[],"outputs":[{"name":"","type":"uint256","internalType":"uint256"}],"stateMutability":"view"},{"type":"function","name":"stableTokens","inputs":[{"name":"","type":"address","internalType":"address"}],"outputs":[{"name":"","type":"bool","internalType":"bool"}],"stateMutability":"view"},{"type":"function","name":"swap","inputs":[{"name":"_tokenIn","type":"address","internalType":"address"},{"name":"_tokenOut","type":"address","internalType":"address"},{"name":"_receiver","type":"address","internalType":"address"}],"outputs":[{"name":"","type":"uint256","internalType":"uint256"}],"stateMutability":"nonpayable"},{"type":"function","name":"swapFeeBasisPoints","inputs":[],"outputs":[{"name":"","type":"uint256","internalType":"uint256"}],"stateMutability":"view"},{"type":"function","name":"taxBasisPoints","inputs":[],"outputs":[{"name":"","type":"uint256","internalType":"uint256"}],"stateMutability":"view"},{"type":"function","name":"tokenBalances","inputs":[{"name":"","type":"address","internalType":"address"}],"outputs":[{"name":"","type":"uint256","internalType":"uint256"}],"stateMutability":"view"},{"type":"function","name":"tokenDecimals","inputs":[{"name":"","type":"address","internalType":"address"}],"outputs":[{"name":"","type":"uint256","internalType":"uint256"}],"stateMutability":"view"},{"type":"function","name":"tokenToUsdMin","inputs":[{"name":"_token","type":"address","internalType":"address"},{"name":"_tokenAmount","type":"uint256","internalType":"uint256"}],"outputs":[{"name":"","type":"uint256","internalType":"uint256"}],"stateMutability":"view"},{"type":"function","name":"tokenWeights","inputs":[{"name":"","type":"address","internalType":"address"}],"outputs":[{"name":"","type":"uint256","internalType":"uint256"}],"stateMutability":"view"},{"type":"function","name":"totalTokenWeights","inputs":[],"outputs":[{"name":"","type":"uint256","internalType":"uint256"}],"stateMutability":"view"},{"type":"function","name":"updateCumulativeFundingRate","inputs":[{"name":"_collateralToken","type":"address","internalType":"address"},{"name":"_indexToken","type":"address","internalType":"address"}],"outputs":[],"stateMutability":"nonpayable"},{"type":"function","name":"upgradeVault","inputs":[{"name":"_newVault","type":"address","internalType":"address"},{"name":"_token","type":"address","internalType":"address"},{"name":"_amount","type":"uint256","internalType":"uint256"}],"outputs":[],"stateMutability":"nonpayable"},{"type":"function","name":"usdToToken","inputs":[{"name":"_token","type":"address","internalType":"address"},{"name":"_usdAmount","type":"uint256","internalType":"uint256"},{"name":"_price","type":"uint256","internalType":"uint256"}],"outputs":[{"name":"","type":"uint256","internalType":"uint256"}],"stateMutability":"view"},{"type":"function","name":"usdToTokenMax","inputs":[{"name":"_token","type":"address","internalType":"address"},{"name":"_usdAmount","type":"uint256","internalType":"uint256"}],"outputs":[{"name":"","type":"uint256","internalType":"uint256"}],"stateMutability":"view"},{"type":"function","name":"usdToTokenMin","inputs":[{"name":"_token","type":"address","internalType":"address"},{"name":"_usdAmount","type":"uint256","internalType":"uint256"}],"outputs":[{"name":"","type":"uint256","internalType":"uint256"}],"stateMutability":"view"},{"type":"function","name":"usdg","inputs":[],"outputs":[{"name":"","type":"address","internalType":"address"}],"stateMutability":"view"},{"type":"function","name":"usdgAmounts","inputs":[{"name":"","type":"address","internalType":"address"}],"outputs":[{"name":"","type":"uint256","internalType":"uint256"}],"stateMutability":"view"},{"type":"function","name":"useSwapPricing","inputs":[],"outputs":[{"name":"","type":"bool","internalType":"bool"}],"stateMutability":"view"},{"type":"function","name":"validateLiquidation","inputs":[{"name":"_account","type":"address","internalType":"address"},{"name":"_collateralToken","type":"address","internalType":"address"},{"name":"_indexToken","type":"address","internalType":"address"},{"name":"_isLong","type":"bool","internalType":"bool"},{"name":"_raise","type":"bool","internalType":"bool"}],"outputs":[{"name":"","type":"uint256","internalType":"uint256"},{"name":"","type":"uint256","internalType":"uint256"}],"stateMutability":"view"},{"type":"function","name":"vaultUtils","inputs":[],"outputs":[{"name":"","type":"address","internalType":"contract IVaultUtils"}],"stateMutability":"view"},{"type":"function","name":"whitelistedTokenCount","inputs":[],"outputs":[{"name":"","type":"uint256","internalType":"uint256"}],"stateMutability":"view"},{"type":"function","name":"whitelistedTokens","inputs":[{"name":"","type":"address","internalType":"address"}],"outputs":[{"name":"","type":"bool","internalType":"bool"}],"stateMutability":"view"},{"type":"function","name":"withdrawFees","inputs":[{"name":"_token","type":"address","internalType":"address"},{"name":"_receiver","type":"address","internalType":"address"}],"outputs":[{"name":"","type":"uint256","internalType":"uint256"}],"stateMutability":"nonpayable"},{"type":"event","name":"BuyUSDG","inputs":[{"name":"account","type":"address","indexed":false,"internalType":"address"},{"name":"token","type":"address","indexed":false,"internalType":"address"},{"name":"tokenAmount","type":"uint256","indexed":false,"internalType":"uint256"},{"name":"usdgAmount","type":"uint256","indexed":false,"internalType":"uint256"},{"name":"feeBasisPoints","type":"uint256","indexed":false,"internalType":"uint256"}],"anonymous":false},{"type":"event","name":"ClosePosition","inputs":[{"name":"key","type":"bytes32","indexed":false,"internalType":"bytes32"},{"name":"size","type":"uint256","indexed":false,"internalType":"uint256"},{"name":"collateral","type":"uint256","indexed":false,"internalType":"uint256"},{"name":"averagePrice","type":"uint256","indexed":false,"internalType":"uint256"},{"name":"entryFundingRate","type":"uint256","indexed":false,"internalType":"uint256"},{"name":"reserveAmount","type":"uint256","indexed":false,"internalType":"uint256"},{"name":"realisedPnl","type":"int256","indexed":false,"internalType":"int256"}],"anonymous":false},{"type":"event","name":"CollectMarginFees","inputs":[{"name":"token","type":"address","indexed":false,"internalType":"address"},{"name":"feeUsd","type":"uint256","indexed":false,"internalType":"uint256"},{"name":"feeTokens","type":"uint256","indexed":false,"internalType":"uint256"}],"anonymous":false},{"type":"event","name":"CollectSwapFees","inputs":[{"name":"token","type":"address","indexed":false,"internalType":"address"},{"name":"feeUsd","type":"uint256","indexed":false,"internalType":"uint256"},{"name":"feeTokens","type":"uint256","indexed":false,"internalType":"uint256"}],"anonymous":false},{"type":"event","name":"DecreaseGuaranteedUsd","inputs":[{"name":"token","type":"address","indexed":false,"internalType":"address"},{"name":"amount","type":"uint256","indexed":false,"internalType":"uint256"}],"anonymous":false},{"type":"event","name":"DecreasePoolAmount","inputs":[{"name":"token","type":"address","indexed":false,"internalType":"address"},{"name":"amount","type":"uint256","indexed":false,"internalType":"uint256"}],"anonymous":false},{"type":"event","name":"DecreasePosition","inputs":[{"name":"key","type":"bytes32","indexed":false,"internalType":"bytes32"},{"name":"account","type":"address","indexed":false,"internalType":"address"},{"name":"collateralToken","type":"address","indexed":false,"internalType":"address"},{"name":"indexToken","type":"address","indexed":false,"internalType":"address"},{"name":"collateralDelta","type":"uint256","indexed":false,"internalType":"uint256"},{"name":"sizeDelta","type":"uint256","indexed":false,"internalType":"uint256"},{"name":"isLong","type":"bool","indexed":false,"internalType":"bool"},{"name":"price","type":"uint256","indexed":false,"internalType":"uint256"},{"name":"fee","type":"uint256","indexed":false,"internalType":"uint256"}],"anonymous":false},{"type":"event","name":"DecreaseReservedAmount","inputs":[{"name":"token","type":"address","indexed":false,"internalType":"address"},{"name":"amount","type":"uint256","indexed":false,"internalType":"uint256"}],"anonymous":false},{"type":"event","name":"DecreaseUsdgAmount","inputs":[{"name":"token","type":"address","indexed":false,"internalType":"address"},{"name":"amount","type":"uint256","indexed":false,"internalType":"uint256"}],"anonymous":false},{"type":"event","name":"DirectPoolDeposit","inputs":[{"name":"token","type":"address","indexed":false,"internalType":"address"},{"name":"amount","type":"uint256","indexed":false,"internalType":"uint256"}],"anonymous":false},{"type":"event","name":"IncreaseGuaranteedUsd","inputs":[{"name":"token","type":"address","indexed":false,"internalType":"address"},{"name":"amount","type":"uint256","indexed":false,"internalType":"uint256"}],"anonymous":false},{"type":"event","name":"IncreasePoolAmount","inputs":[{"name":"token","type":"address","indexed":false,"internalType":"address"},{"name":"amount","type":"uint256","indexed":false,"internalType":"uint256"}],"anonymous":false},{"type":"event","name":"IncreasePosition","inputs":[{"name":"key","type":"bytes32","indexed":false,"internalType":"bytes32"},{"name":"account","type":"address","indexed":false,"internalType":"address"},{"name":"collateralToken","type":"address","indexed":false,"internalType":"address"},{"name":"indexToken","type":"address","indexed":false,"internalType":"address"},{"name":"collateralDelta","type":"uint256","indexed":false,"internalType":"uint256"},{"name":"sizeDelta","type":"uint256","indexed":false,"internalType":"uint256"},{"name":"isLong","type":"bool","indexed":false,"internalType":"bool"},{"name":"price","type":"uint256","indexed":false,"internalType":"uint256"},{"name":"fee","type":"uint256","indexed":false,"internalType":"uint256"}],"anonymous":false},{"type":"event","name":"IncreaseReservedAmount","inputs":[{"name":"token","type":"address","indexed":false,"internalType":"address"},{"name":"amount","type":"uint256","indexed":false,"internalType":"uint256"}],"anonymous":false},{"type":"event","name":"IncreaseUsdgAmount","inputs":[{"name":"token","type":"address","indexed":false,"internalType":"address"},{"name":"amount","type":"uint256","indexed":false,"internalType":"uint256"}],"anonymous":false},{"type":"event","name":"LiquidatePosition","inputs":[{"name":"key","type":"bytes32","indexed":false,"internalType":"bytes32"},{"name":"account","type":"address","indexed":false,"internalType":"address"},{"name":"collateralToken","type":"address","indexed":false,"internalType":"address"},{"name":"indexToken","type":"address","indexed":false,"internalType":"address"},{"name":"isLong","type":"bool","indexed":false,"internalType":"bool"},{"name":"size","type":"uint256","indexed":false,"internalType":"uint256"},{"name":"collateral","type":"uint256","indexed":false,"internalType":"uint256"},{"name":"reserveAmount","type":"uint256","indexed":false,"internalType":"uint256"},{"name":"realisedPnl","type":"int256","indexed":false,"internalType":"int256"},{"name":"markPrice","type":"uint256","indexed":false,"internalType":"uint256"}],"anonymous":false},{"type":"event","name":"SellUSDG","inputs":[{"name":"account","type":"address","indexed":false,"internalType":"address"},{"name":"token","type":"address","indexed":false,"internalType":"address"},{"name":"usdgAmount","type":"uint256","indexed":false,"internalType":"uint256"},{"name":"tokenAmount","type":"uint256","indexed":false,"internalType":"uint256"},{"name":"feeBasisPoints","type":"uint256","indexed":false,"internalType":"uint256"}],"anonymous":false},{"type":"event","name":"Swap","inputs":[{"name":"account","type":"address","indexed":false,"internalType":"address"},{"name":"tokenIn","type":"address","indexed":false,"internalType":"address"},{"name":"tokenOut","type":"address","indexed":false,"internalType":"address"},{"name":"amountIn","type":"uint256","indexed":false,"internalType":"uint256"},{"name":"amountOut","type":"uint256","indexed":false,"internalType":"uint256"},{"name":"amountOutAfterFees","type":"uint256","indexed":false,"internalType":"uint256"},{"name":"feeBasisPoints","type":"uint256","indexed":false,"internalType":"uint256"}],"anonymous":false},{"type":"event","name":"UpdateFundingRate","inputs":[{"name":"token","type":"address","indexed":false,"internalType":"address"},{"name":"fundingRate","type":"uint256","indexed":false,"internalType":"uint256"}],"anonymous":false},{"type":"event","name":"UpdatePnl","inputs":[{"name":"key","type":"bytes32","indexed":false,"internalType":"bytes32"},{"name":"hasProfit","type":"bool","indexed":false,"internalType":"bool"},{"name":"delta","type":"uint256","indexed":false,"internalType":"uint256"}],"anonymous":false},{"type":"event","name":"UpdatePosition","inputs":[{"name":"key","type":"bytes32","indexed":false,"internalType":"bytes32"},{"name":"size","type":"uint256","indexed":false,"internalType":"uint256"},{"name":"collateral","type":"uint256","indexed":false,"internalType":"uint256"},{"name":"averagePrice","type":"uint256","indexed":false,"internalType":"uint256"},{"name":"entryFundingRate","type":"uint256","indexed":false,"internalType":"uint256"},{"name":"reserveAmount","type":"uint256","indexed":false,"internalType":"uint256"},{"name":"realisedPnl","type":"int256","indexed":false,"internalType":"int256"},{"name":"markPrice","type":"uint256","indexed":false,"internalType":"uint256"}],"anonymous":false}],"bytecode":{"object":"0x608060405234801561001057600080fd5b50615fe580620000216000396000f3fe608060405234801561001057600080fd5b50600436106105995760003560e01c8063870d917c116102e9578063cea0c3281161018f578063cea0c3281461121d578063cfad57a214611253578063d2fa635e14611279578063d3127e6314611296578063d54d5a9f146112b3578063d66b000d14611312578063d8f897c31461133e578063d9ac422514611364578063da76524c1461136c578063daf9c210146113b6578063db3555fb146113dc578063db97495f14611402578063dc8f5fac1461144e578063de2ea94814611456578063df73a2671461149e578063e124e6d2146114a6578063e468baf0146114cc578063e67f59a7146114e9578063efa10a6e1461150f578063f07456ce1461153b578063f07bbf7714611561578063f1675a8b14611580578063f2555278146115c8578063f3ae2415146115f6578063f5b91b7b1461161c578063f887ea4014611624578063fa12dbc01461162c578063fbfded6d1461165e578063fce28c101461168c578063fdaf6ac314611694578063fed1a606146116d857610599565b8063870d917c14610e7457806388b1fbdf14610e7c5780638a27d46814610ea25780638a39735a1461061a5780638a78daa814610ecb5780638ee573ac14610ef15780638f7b840414610f175780639060b1ca14610f3d5780639331621214610f4557806395082d2514610f7d5780639698d25a14610f855780639849e41214610fab5780639899cd0214610fb35780639d7432ca14610fdf5780639f392eb314611011578063a22f239214611019578063a42ab3d214611021578063a5e90eee1461104d578063a93acac21461107b578063ab08c1c6146110a1578063ab2f3ad4146110a9578063ad1e4f8d146110cf578063ae3302c2146110f5578063b06423f3146110fd578063b136ca4914611105578063b1cc53ab1461112b578063b364accb14611163578063c3c7b9e914611189578063c4f718bf146111af578063c65bc7b1146111b7578063c7e074c3146111dd57610599565b80634453a3741161044e5780634453a3741461097057806345a6f3701461099e57806348d91abf146109f757806348f35cbb14610a3b5780634a3f088d14610a435780634a993ee914610ac45780634befe2ca14610aea5780634d47b30414610af2578063514ea4bf14610afa57806351723e8214610b4f578063523fba7f14610b8d578063529a356f14610bb357806352f55eed14610bd95780635c07eaab14610bff5780635f7bc11914610c3f5780636092219914610c6557806362287a3214610c935780636274980314610c9b5780636abbe0c814610cc15780636ae0b15414610cc95780636be6026b14610cef57806371089f4d14610cf7578063711e619014610d1d578063724e78da14610d4b578063741bef1a14610d715780637a210a2b14610d795780637c2eb9f714610d81578063817bb85714610da057806381a612d614610dce57806382a0849014610df45780638585f4d214610e4857610599565b806304fef1db1461059e57806307c58752146105d65780630842b076146105de5780630a48d5a9146105e657806310eb56c214610612578063126082cf1461061a57806312d43a5114610622578063134ca63b14610646578063174d26941461064e578063181e210e146106565780631aa4ace5146106725780631ce9cb8f1461069857806324b0c04d146106be57806324ca984e146106df57806328e67be51461070557806329ff96151461077a5780632c668ec1146107a05780632d4b0576146107cc57806330455ede1461080a578063318bc6891461082957806334c1557d1461061a578063351a964d14610831578063392e53cd146108395780633a05dcc1146108415780633c5a6e35146108675780633de39c11146108b55780633e72a262146108bd57806340eb3802146108c5578063421528731461091657806342b60b031461094a575b600080fd5b6105c4600480360360208110156105b457600080fd5b50356001600160a01b031661176a565b60408051918252519081900360200190f35b6105c46117cd565b6105c46117de565b6105c4600480360360408110156105fc57600080fd5b506001600160a01b0381351690602001356117e4565b6105c4611837565b6105c461183d565b61062a611843565b604080516001600160a01b039092168252519081900360200190f35b6105c4611852565b6105c4611858565b61065e61185e565b604080519115158252519081900360200190f35b6105c46004803603602081101561068857600080fd5b50356001600160a01b031661186e565b6105c4600480360360208110156106ae57600080fd5b50356001600160a01b0316611880565b6106dd600480360360208110156106d457600080fd5b50351515611892565b005b6106dd600480360360208110156106f557600080fd5b50356001600160a01b03166118b6565b6106dd6004803603604081101561071b57600080fd5b81359190810190604081016020820135600160201b81111561073c57600080fd5b82018360208201111561074e57600080fd5b803590602001918460018302840111600160201b8311171561076f57600080fd5b5090925090506118e7565b6105c46004803603602081101561079057600080fd5b50356001600160a01b0316611965565b6105c4600480360360408110156107b657600080fd5b506001600160a01b038135169060200135611979565b6105c4600480360360808110156107e257600080fd5b506001600160a01b0381358116916020810135821691604082013516906060013515156119be565b6106dd6004803603602081101561082057600080fd5b50351515611a14565b6105c4611a36565b61065e611a3c565b61065e611a4a565b6105c46004803603602081101561085757600080fd5b50356001600160a01b0316611a53565b6106dd600480360360e081101561087d57600080fd5b506001600160a01b038135169060208101359060408101359060608101359060808101359060a081013515159060c001351515611b13565b6105c4611c55565b61065e611c5b565b6106dd60048036036101208110156108dc57600080fd5b5080359060208101359060408101359060608101359060808101359060a08101359060c08101359060e08101359061010001351515611c6a565b6105c46004803603606081101561092c57600080fd5b508035906001600160a01b0360208201358116916040013516611ca9565b61065e6004803603602081101561096057600080fd5b50356001600160a01b0316611d4b565b6106dd6004803603604081101561098657600080fd5b506001600160a01b0381351690602001351515611d60565b6109dc600480360360808110156109b457600080fd5b506001600160a01b038135811691602081013582169160408201351690606001351515611d93565b60408051921515835260208301919091528051918290030190f35b6106dd600480360360a0811015610a0d57600080fd5b506001600160a01b038135811691602081013582169160408201351690606081013590608001351515611e31565b61062a6122fd565b610a8160048036036080811015610a5957600080fd5b506001600160a01b03813581169160208101358216916040820135169060600135151561230c565b604080519889526020890197909752878701959095526060870193909352608086019190915260a0850152151560c084015260e083015251908190036101000190f35b6105c460048036036020811015610ada57600080fd5b50356001600160a01b0316612402565b6105c4612414565b6105c461241a565b610b1760048036036020811015610b1057600080fd5b5035612420565b604080519788526020880196909652868601949094526060860192909252608085015260a084015260c0830152519081900360e00190f35b6105c460048036036080811015610b6557600080fd5b506001600160a01b03813581169160208101358216916040820135169060600135151561245d565b6105c460048036036020811015610ba357600080fd5b50356001600160a01b0316612503565b61065e60048036036020811015610bc957600080fd5b50356001600160a01b0316612515565b6105c460048036036020811015610bef57600080fd5b50356001600160a01b031661252a565b6109dc600480360360a0811015610c1557600080fd5b506001600160a01b038135169060208101359060408101359060608101351515906080013561253c565b6106dd60048036036020811015610c5557600080fd5b50356001600160a01b0316612634565b61065e60048036036040811015610c7b57600080fd5b506001600160a01b0381358116916020013516612717565b6105c4612737565b6105c460048036036020811015610cb157600080fd5b50356001600160a01b031661273d565b61062a61274f565b6106dd60048036036020811015610cdf57600080fd5b50356001600160a01b0316612765565b6105c4612793565b6106dd60048036036020811015610d0d57600080fd5b50356001600160a01b031661279a565b6105c460048036036040811015610d3357600080fd5b506001600160a01b03813581169160200135166127ce565b6106dd60048036036020811015610d6157600080fd5b50356001600160a01b0316612a62565b61062a612a8c565b6105c4612a9b565b6106dd60048036036020811015610d9757600080fd5b50351515612aa1565b6105c460048036036040811015610db657600080fd5b506001600160a01b0381358116916020013516612ac5565b6105c460048036036020811015610de457600080fd5b50356001600160a01b0316612d95565b6105c4600480360360e0811015610e0a57600080fd5b506001600160a01b0381358116916020810135821691604082013581169160608101359160808201359160a081013515159160c09091013516612e40565b6106dd60048036036040811015610e5e57600080fd5b506001600160a01b038135169060200135612ebe565b6105c4612ee2565b6105c460048036036020811015610e9257600080fd5b50356001600160a01b0316612ee7565b6106dd60048036036060811015610eb857600080fd5b5080359060208101359060400135612ef9565b6105c460048036036020811015610ee157600080fd5b50356001600160a01b0316612f3f565b6105c460048036036020811015610f0757600080fd5b50356001600160a01b0316612f51565b6106dd60048036036020811015610f2d57600080fd5b50356001600160a01b0316612f63565b61065e612f8d565b6105c460048036036060811015610f5b57600080fd5b506001600160a01b038135811691602081013582169160409091013516612f9c565b6105c4613284565b6105c460048036036020811015610f9b57600080fd5b50356001600160a01b0316613294565b6105c46132a6565b6105c460048036036040811015610fc957600080fd5b506001600160a01b0381351690602001356132ac565b6105c460048036036060811015610ff557600080fd5b506001600160a01b0381351690602081013590604001356132ce565b61065e613377565b6105c4613380565b6105c46004803603604081101561103757600080fd5b506001600160a01b038135169060200135613386565b6106dd6004803603604081101561106357600080fd5b506001600160a01b03813516906020013515156133a3565b6105c46004803603602081101561109157600080fd5b50356001600160a01b03166133d6565b61065e6134d4565b6105c4600480360360208110156110bf57600080fd5b50356001600160a01b03166134dd565b6105c4600480360360208110156110e557600080fd5b50356001600160a01b03166134ef565b6105c4613501565b61065e613507565b6105c46004803603602081101561111b57600080fd5b50356001600160a01b0316613515565b6105c46004803603606081101561114157600080fd5b506001600160a01b0381358116916020810135909116906040013515156135b6565b6109dc6004803603602081101561117957600080fd5b50356001600160a01b0316613651565b6105c46004803603602081101561119f57600080fd5b50356001600160a01b03166136e9565b6105c46136fb565b6105c4600480360360208110156111cd57600080fd5b50356001600160a01b0316613701565b6105c4600480360360a08110156111f357600080fd5b506001600160a01b0381351690602081013590604081013590606081013590608001351515613713565b6106dd6004803603606081101561123357600080fd5b506001600160a01b038135811691602081013590911690604001356137bd565b6106dd6004803603602081101561126957600080fd5b50356001600160a01b03166137de565b6106dd6004803603602081101561128f57600080fd5b5035613808565b6106dd600480360360208110156112ac57600080fd5b5035613815565b6112f9600480360360a08110156112c957600080fd5b506001600160a01b0381358116916020810135821691604082013516906060810135151590608001351515613831565b6040805192835260208301919091528051918290030190f35b6106dd6004803603604081101561132857600080fd5b506001600160a01b0381351690602001356138e8565b6105c46004803603602081101561135457600080fd5b50356001600160a01b0316613941565b6105c4613953565b6105c4600480360360c081101561138257600080fd5b506001600160a01b038135811691602081013582169160408201351690606081013515159060808101359060a00135613959565b61065e600480360360208110156113cc57600080fd5b50356001600160a01b0316613a0d565b61065e600480360360208110156113f257600080fd5b50356001600160a01b0316613a22565b6105c4600480360360e081101561141857600080fd5b506001600160a01b0381351690602081013590604081013590606081013515159060808101359060a08101359060c00135613a36565b6105c4613ac7565b6106dd600480360360a081101561146c57600080fd5b506001600160a01b03813581169160208101358216916040820135811691606081013515159160809091013516613acd565b6105c4613ea5565b6105c4600480360360208110156114bc57600080fd5b50356001600160a01b0316613eab565b61062a600480360360208110156114e257600080fd5b5035613f23565b6106dd600480360360208110156114ff57600080fd5b50356001600160a01b0316613f4a565b6106dd6004803603604081101561152557600080fd5b506001600160a01b03813516906020013561401d565b6105c46004803603602081101561155157600080fd5b50356001600160a01b0316614041565b6106dd6004803603602081101561157757600080fd5b50351515614053565b6106dd600480360360c081101561159657600080fd5b506001600160a01b03813581169160208101358216916040820135169060608101359060808101359060a00135614079565b6105c4600480360360408110156115de57600080fd5b506001600160a01b0381358116916020013516614152565b61065e6004803603602081101561160c57600080fd5b50356001600160a01b03166141a8565b61062a6141bd565b61062a6141cc565b6105c46004803603606081101561164257600080fd5b506001600160a01b0381351690602081013590604001356141db565b6106dd6004803603604081101561167457600080fd5b506001600160a01b0381358116916020013516614215565b6105c46143ee565b6105c4600480360360a08110156116aa57600080fd5b506001600160a01b0381358116916020810135821691604082013516906060810135151590608001356143f4565b6116f5600480360360208110156116ee57600080fd5b503561446a565b6040805160208082528351818301528351919283929083019185019080838360005b8381101561172f578181015183820152602001611717565b50505050905090810190601f16801561175c5780820380516001836020036101000a031916815260200191505b509250505060405180910390f35b6001600160a01b038116600090815260256020526040812054806117925760009150506117c8565b6001600160a01b0383166000908152602660205260409020546117c49082906117be90620f4240614505565b9061455e565b9150505b919050565b6904ee2d6d415b85acef8160201b81565b601b5490565b6000816117f357506000611831565b60006117fe84612d95565b6001600160a01b0385166000908152601d602052604090205490915061182c600a82900a6117be8685614505565b925050505b92915050565b600b5481565b61271081565b6006546001600160a01b031681565b60145481565b60095481565b6016546301000000900460ff1681565b60236020526000908152604090205481565b602c6020526000908152604090205481565b61189a61459d565b60168054911515620100000262ff000019909216919091179055565b3360009081526018602090815260408083206001600160a01b0394909416835292905220805460ff19166001179055565b6002546001600160a01b03163314611946576040805162461bcd60e51b815260206004820152601e60248201527f5661756c743a20696e76616c6964206572726f72436f6e74726f6c6c65720000604482015290519081900360640190fd5b600083815260306020526040902061195f908383615e74565b50505050565b60006118318261197484613515565b6117e4565b60008061198584613eab565b905060006119a3826117be8668327cb2734119d3b7a9601e1b614505565b60055490915061182c9082906001600160a01b031687611ca9565b604080516001600160601b0319606096871b811660208084019190915295871b811660348301529390951b9092166048850152151560f81b605c8401528051603d818503018152605d9093019052815191012090565b611a1c61459d565b600180549115156101000261ff0019909216919091179055565b600f5481565b600154610100900460ff1681565b60015460ff1681565b600080600560009054906101000a90046001600160a01b03166001600160a01b03166318160ddd6040518163ffffffff1660e01b815260040160206040518083038186803b158015611aa457600080fd5b505afa158015611ab8573d6000803e3d6000fd5b505050506040513d6020811015611ace57600080fd5b5051905080611ae15760009150506117c8565b6001600160a01b038316600090815260226020526040902054601554611b0b906117be8385614505565b949350505050565b611b1b61459d565b6001600160a01b0387166000908152601c602052604090205460ff16611b9857600754611b499060016145b8565b600755601b80546001810182556000919091527f3ad8aa4f87544323a9d1e5dd902f40c356527a7955687113db5f9a85ad579dc10180546001600160a01b0319166001600160a01b0389161790555b6015546001600160a01b038816600090815260226020526040902054611bbf908290614610565b6001600160a01b0389166000908152601c602090815260408083208054600160ff1991821617909155601d83528184208c9055602283528184208b9055601e83528184208a905560248352818420899055601f83528184208054821689151517905591805290912080549091168415151790559050611c3e81876145b8565b601555611c4a88613eab565b505050505050505050565b60175481565b60015462010000900460ff1681565b611c7261459d565b600a98909855600b96909655600c94909455600d92909255600e55600f556009556010556011805460ff1916911515919091179055565b60055460009081906001600160a01b03858116911614611ce1576001600160a01b0384166000908152601d6020526040902054611ce4565b60125b6005549091506000906001600160a01b03858116911614611d1d576001600160a01b0384166000908152601d6020526040902054611d20565b60125b9050611d3f82600a0a6117be83600a0a8961450590919063ffffffff16565b925050505b9392505050565b601f6020526000908152604090205460ff1681565b611d6861459d565b6001600160a01b03919091166000908152601960205260409020805460ff1916911515919091179055565b6000806000611da4878787876119be565b9050611dae615ef2565b506000818152602b6020908152604091829020825160e081018452815480825260018301549382019390935260028201549381018490526003820154606082015260048201546080820152600582015460a082015260069091015460c082018190529092611e22928992909190899061253c565b93509350505094509492505050565b60026000541415611e77576040805162461bcd60e51b815260206004820152601f6024820152600080516020615f45833981519152604482015290519081900360640190fd5b6002600055600154611e939062010000900460ff16601c614652565b611e9b6146fe565b611ea48561471a565b611eaf84848361477d565b60015460408051634eae147d60e11b81526001600160a01b038881166004830152878116602483015286811660448301526064820186905284151560848301529151630100000090930490911691639d5c28fa9160a480820192600092909190829003018186803b158015611f2357600080fd5b505afa158015611f37573d6000803e3d6000fd5b50505050611f458484614215565b6000611f53868686856119be565b6000818152602b6020526040812091925083611f7757611f7286612d95565b611f80565b611f8086613eab565b825490915061201e576002820181905560015460408051632339ab6b60e21b8152600481018690526001600160a01b038b811660248301528a81166044830152898116606483015287151560848301529151630100000090930490911691638ce6adac9160a48082019260009290919082900301818387803b15801561200557600080fd5b505af1158015612019573d6000803e3d6000fd5b505050505b81541580159061202e5750600085115b156120545761204e868360000154846002015487858a8860060154613a36565b60028301555b600061206d898989888a88600001548960030154614892565b9050600061207a89614960565b905060006120888a836117e4565b600186015490915061209a90826145b8565b600186018190556120af90841115601d614652565b60018501546120be9084614610565b60018601556120ce8a8a896135b6565b600386015584546120df90896145b8565b8086554260068701556120f5901515601e614652565b61210785600001548660010154614a0d565b6121158b8b8b8a6001613831565b505060006121238b8a613386565b600487015490915061213590826145b8565b60048701556121448b82614a31565b87156121895761215d8b6121588b876145b8565b614ad1565b6121678b83614b50565b6121718b84614bcf565b6121848b61217f8d876132ac565b614ce7565b6121f5565b6001600160a01b038a166000908152602d60205260409020546121c6576001600160a01b038a166000908152602e602052604090208590556121eb565b6121d18a868b6132ce565b6001600160a01b038b166000908152602e60205260409020555b6121f58a8a614db1565b604080518881526001600160a01b03808f166020830152808e16828401528c1660608201526080810184905260a081018b905289151560c082015260e08101879052610100810186905290517f2fe68525253654c21998f35787a8d0f361905ef647c854092430ab65f2f15022918190036101200190a1855460018701546002880154600389015460048a015460058b0154604080518e81526020810197909752868101959095526060860193909352608085019190915260a084015260c083015260e08201879052517f20853733b590dce729d9f4628682ebd9a34d2354e72679e66f43a008fc03b773918190036101000190a15050600160005550505050505050505050565b6002546001600160a01b031681565b60008060008060008060008060006123268d8d8d8d6119be565b9050612330615ef2565b602b60008381526020019081526020016000206040518060e001604052908160008201548152602001600182015481526020016002820154815260200160038201548152602001600482015481526020016005820154815260200160068201548152505090506000808260a00151136123b0578160a001516000036123b6565b8160a001515b9050816000015182602001518360400151846060015185608001518560008860a0015112158860c001519a509a509a509a509a509a509a509a5050505094995094995094999196509450565b60276020526000908152604090205481565b6101f481565b600c5481565b602b602052600090815260409020805460018201546002830154600384015460048501546005860154600690960154949593949293919290919087565b60008061246c868686866119be565b9050612476615ef2565b506000818152602b6020908152604091829020825160e0810184528154815260018201549281018390526002820154938101939093526003810154606084015260048101546080840152600581015460a08401526006015460c08301526124e09015156025614652565b602081015181516124f891906117be90612710614505565b979650505050505050565b60216020526000908152604090205481565b60196020526000908152604090205460ff1681565b60256020526000908152604090205481565b60008061254d600086116026614652565b6000846125625761255d88613eab565b61256b565b61256b88612d95565b90506000818711612585576125808288614610565b61258f565b61258f8783614610565b905060006125a1886117be8b85614505565b9050600087156125b457508783116125b9565b508288115b60006125d0601054896145b890919063ffffffff16565b42116125f4576001600160a01b038c166000908152601e60205260409020546125f7565b60005b905081801561261a575061260b8b82614505565b61261784612710614505565b11155b1561262457600092505b509a909950975050505050505050565b6002600054141561267a576040805162461bcd60e51b815260206004820152601f6024820152600080516020615f45833981519152604482015290519081900360640190fd5b600260009081556001600160a01b0382168152601c60205260409020546126a59060ff16600e614652565b60006126b082614960565b90506126c060008211600f614652565b6126ca8282614bcf565b604080516001600160a01b03841681526020810183905281517fa5a389190ebf6170a133bda5c769b77f4d6715b8aa172ec0ddf8473d0b4944bd929181900390910190a150506001600055565b601860209081526000928352604080842090915290825290205460ff1681565b60075481565b602e6020526000908152604090205481565b600154630100000090046001600160a01b031681565b3360009081526018602090815260408083206001600160a01b0394909416835292905220805460ff19169055565b620f424081565b6127a261459d565b600180546001600160a01b039092166301000000026301000000600160b81b0319909216919091179055565b600060026000541415612816576040805162461bcd60e51b815260206004820152601f6024820152600080516020615f45833981519152604482015290519081900360640190fd5b6002600055612823614e60565b6001600160a01b0383166000908152601c602052604090205461284a9060ff166013614652565b6016805461ff001916610100179055600554600090612871906001600160a01b0316614960565b9050612881600082116014614652565b61288b8485614215565b60006128978583611979565b90506128a7600082116015614652565b6128b18583614e8f565b6128bb8582614ce7565b60055460408051632770a7eb60e21b81523060048201526024810185905290516001600160a01b0390921691639dc29fac9160448082019260009290919082900301818387803b15801561290e57600080fd5b505af1158015612922573d6000803e3d6000fd5b505060055461293c92506001600160a01b03169050614f71565b6001546040805163eb0835bf60e01b81526001600160a01b038881166004830152602482018690529151600093630100000090049092169163eb0835bf91604480820192602092909190829003018186803b15801561299a57600080fd5b505afa1580156129ae573d6000803e3d6000fd5b505050506040513d60208110156129c457600080fd5b5051905060006129d587848461500c565b90506129e5600082116016614652565b6129f08782886150d4565b604080516001600160a01b03808916825289166020820152808201869052606081018390526080810184905290517fd732b7828fa6cee72c285eac756fc66a7477e3dc22e22e7c432f1c265d40b4839181900360a00190a16016805461ff001916905560016000559695505050505050565b612a6a61459d565b600480546001600160a01b0319166001600160a01b0392909216919091179055565b6004546001600160a01b031681565b600a5481565b612aa961459d565b60018054911515620100000262ff000019909216919091179055565b600060026000541415612b0d576040805162461bcd60e51b815260206004820152601f6024820152600080516020615f45833981519152604482015290519081900360640190fd5b6002600055612b1a614e60565b6001600160a01b0383166000908152601c6020526040902054612b419060ff166010614652565b6016805461ff0019166101001790556000612b5b84614960565b9050612b6b600082116011614652565b612b758485614215565b6000612b8085612d95565b90506000612b9e68327cb2734119d3b7a9601e1b6117be8585614505565b600554909150612bba90829088906001600160a01b0316611ca9565b9050612bca600082116012614652565b6001546040805163256f6ee360e11b81526001600160a01b0389811660048301526024820185905291516000936301000000900490921691634adeddc691604480820192602092909190829003018186803b158015612c2857600080fd5b505afa158015612c3c573d6000803e3d6000fd5b505050506040513d6020811015612c5257600080fd5b505190506000612c6388868461500c565b90506000612c8168327cb2734119d3b7a9601e1b6117be8488614505565b600554909150612c9d9082908b906001600160a01b0316611ca9565b9050612ca9898261517b565b612cb38983614bcf565b600554604080516340c10f1960e01b81526001600160a01b038b8116600483015260248201859052915191909216916340c10f1991604480830192600092919082900301818387803b158015612d0857600080fd5b505af1158015612d1c573d6000803e3d6000fd5b5050604080516001600160a01b03808d1682528d1660208201528082018a9052606081018590526080810187905290517fab4c77c74cd32c85f35416cf03e7ce9e2d4387f7b7f2c1f4bf53daaecf8ea72d93509081900360a0019150a16016805461ff0019169055600160005598975050505050505050565b60048054601654604080516317e1d38560e11b81526001600160a01b038681169582019590955260006024820181905260ff80851615156044840152610100909404909316151560648201529051919390921691632fc3a70a916084808301926020929190829003018186803b158015612e0e57600080fd5b505afa158015612e22573d6000803e3d6000fd5b505050506040513d6020811015612e3857600080fd5b505192915050565b600060026000541415612e88576040805162461bcd60e51b815260206004820152601f6024820152600080516020615f45833981519152604482015290519081900360640190fd5b6002600055612e956146fe565b612e9e8861471a565b612ead88888888888888615239565b600160005598975050505050505050565b612ec661459d565b6001600160a01b03909116600090815260276020526040902055565b601281565b601e6020526000908152604090205481565b612f0161459d565b612f11610e10841015600a614652565b612f21612710831115600b614652565b612f31612710821115600c614652565b601292909255601355601455565b602d6020526000908152604090205481565b601d6020526000908152604090205481565b612f6b61459d565b600280546001600160a01b0319166001600160a01b0392909216919091179055565b60165462010000900460ff1681565b600060026000541415612fe4576040805162461bcd60e51b815260206004820152601f6024820152600080516020615f45833981519152604482015290519081900360640190fd5b6002600055600154612fff90610100900460ff166017614652565b6001600160a01b0384166000908152601c60205260409020546130269060ff166018614652565b6001600160a01b0383166000908152601c602052604090205461304d9060ff166019614652565b61306d836001600160a01b0316856001600160a01b03161415601a614652565b6016805461ff0019166101001790556130868480614215565b6130908384614215565b600061309b85614960565b90506130ab60008211601b614652565b60006130b686612d95565b905060006130c386613eab565b905060006130d5826117be8686614505565b90506130e2818989611ca9565b9050600061310068327cb2734119d3b7a9601e1b6117be8787614505565b60055490915061311c9082908b906001600160a01b0316611ca9565b60015460408051636d099c0b60e11b81526001600160a01b038d811660048301528c8116602483015260448201859052915193945060009363010000009093049091169163da13381691606480820192602092909190829003018186803b15801561318657600080fd5b505afa15801561319a573d6000803e3d6000fd5b505050506040513d60208110156131b057600080fd5b5051905060006131c18a858461500c565b90506131cd8b8461517b565b6131d78a84614e8f565b6131e18b88614bcf565b6131eb8a85614ce7565b6131f48a61576f565b6131ff8a828b6150d4565b604080516001600160a01b03808c168252808e1660208301528c1681830152606081018990526080810186905260a0810183905260c0810184905290517f0874b2d545cb271cdbda4e093020c452328b24af12382ed62c4d00f5c26709db9181900360e00190a16016805461ff001916905560016000559a9950505050505050505050565b68327cb2734119d3b7a9601e1b81565b602f6020526000908152604090205481565b60125481565b6000816132bb57506000611831565b611d4483836132c986613eab565b6141db565b6001600160a01b0383166000908152602d6020908152604080832054602e90925282205482858211613309576133048683614610565b613313565b6133138287614610565b90506000613325836117be8685614505565b9050868311600061333686896145b8565b905060008261334e5761334982856145b8565b613358565b6133588285614610565b9050613368816117be8c85614505565b9b9a5050505050505050505050565b60115460ff1681565b600d5481565b60008161339557506000611831565b611d4483836132c986612d95565b6133ab61459d565b6001600160a01b03919091166000908152601a60205260409020805460ff1916911515919091179055565b6012546001600160a01b0382166000908152602a6020526040812054909142916133ff916145b8565b111561340d575060006117c8565b6012546001600160a01b0383166000908152602a6020526040812054909161343a916117be904290614610565b6001600160a01b03841660009081526025602052604090205490915080613466576000925050506117c8565b6001600160a01b0384166000908152601f602052604081205460ff1661348e57601354613492565b6014545b6001600160a01b0386166000908152602660205260409020549091506134cb9083906117be9086906134c5908690614505565b90614505565b95945050505050565b60165460ff1681565b60226020526000908152604090205481565b60246020526000908152604090205481565b60085481565b601654610100900460ff1681565b6001600160a01b0381166000908152601f602052604081205460ff161561355557506001600160a01b0381166000908152602560205260409020546117c8565b6001600160a01b0382166000908152602860205260408120546135799084906132ac565b6001600160a01b0384166000908152602660209081526040808320546025909252909120549192506117c4916135b09084906145b8565b90614610565b6001546040805163b1cc53ab60e01b81526001600160a01b038681166004830152858116602483015284151560448301529151600093630100000090049092169163b1cc53ab91606480820192602092909190829003018186803b15801561361d57600080fd5b505afa158015613631573d6000803e3d6000fd5b505050506040513d602081101561364757600080fd5b5051949350505050565b6001600160a01b0381166000908152602d602052604081205481908061367e5760008092509250506136e4565b600061368985613eab565b6001600160a01b0386166000908152602e60205260408120549192508282116136bb576136b68383614610565b6136c5565b6136c58284614610565b905060006136d7836117be8785614505565b9390921195509193505050505b915091565b60266020526000908152604090205481565b60135481565b60296020526000908152604090205481565b6001546040805163c7e074c360e01b81526001600160a01b03888116600483015260248201889052604482018790526064820186905284151560848301529151600093630100000090049092169163c7e074c39160a480820192602092909190829003018186803b15801561378757600080fd5b505afa15801561379b573d6000803e3d6000fd5b505050506040513d60208110156137b157600080fd5b50519695505050505050565b6137c561459d565b6137d96001600160a01b03831684836157d7565b505050565b6137e661459d565b600680546001600160a01b0319166001600160a01b0392909216919091179055565b61381061459d565b601755565b61381d61459d565b61382c61271082116002614652565b600855565b6001546040805163d54d5a9f60e01b81526001600160a01b03888116600483015287811660248301528681166044830152851515606483015284151560848301528251600094859463010000009091049092169263d54d5a9f9260a4808301939192829003018186803b1580156138a757600080fd5b505afa1580156138bb573d6000803e3d6000fd5b505050506040513d60408110156138d157600080fd5b508051602090910151909890975095505050505050565b6138f061459d565b6001600160a01b0382166000908152602360205260409020548082111561392a576139248361391f8484614610565b61517b565b5061393d565b6137d9836139388385614610565b614e8f565b5050565b602a6020526000908152604090205481565b60105481565b6001546040805163369d949360e21b81526001600160a01b0389811660048301528881166024830152878116604483015286151560648301526084820186905260a482018590529151600093630100000090049092169163da76524c9160c480820192602092909190829003018186803b1580156139d657600080fd5b505afa1580156139ea573d6000803e3d6000fd5b505050506040513d6020811015613a0057600080fd5b5051979650505050505050565b601c6020526000908152604090205460ff1681565b602080526000908152604090205460ff1681565b6000806000613a488a8a8a8a8861253c565b90925090506000613a598a876145b8565b905060008815613a885783613a7757613a728284614610565b613a81565b613a8182846145b8565b9050613aa9565b83613a9c57613a9782846145b8565b613aa6565b613aa68284614610565b90505b613ab7816117be8a85614505565b9c9b505050505050505050505050565b60155481565b60026000541415613b13576040805162461bcd60e51b815260206004820152601f6024820152600080516020615f45833981519152604482015290519081900360640190fd5b60026000556016546301000000900460ff1615613b485733600090815260196020526040902054613b489060ff166022614652565b6016805460ff19169055613b5c8484614215565b6000613b6a868686866119be565b9050613b74615ef2565b506000818152602b6020908152604091829020825160e08101845281548082526001830154938201939093526002820154938101939093526003810154606084015260048101546080840152600581015460a08401526006015460c0830152613be09015156023614652565b600080613bf1898989896000613831565b91509150613c0482600014156024614652565b8160021415613c3957613c21898989600087600001518b8f615239565b50506016805460ff1916600117905550613e99915050565b6000613c4589836132ac565b6001600160a01b038a166000908152602c6020526040902054909150613c6b90826145b8565b6001600160a01b038a166000818152602c602090815260409182902093909355805191825291810184905280820183905290517f5d0c0019d3d45fadeb74eff9d2c9924d146d000ac6bcf3c28bf0ac3c9baa011a9181900360600190a1613cd6898560800151615829565b8615613d055760208401518451613cf7918b91613cf291614610565b614b50565b613d058961217f8b856132ac565b600087613d1a57613d1589613eab565b613d23565b613d2389612d95565b90507f2e1f85a64a2f22cf2f0c42584e7c919ed4abe8d53675cff0f62bf1e95a1c676f868c8c8c8c8a600001518b602001518c608001518d60a001518a604051808b81526020018a6001600160a01b03168152602001896001600160a01b03168152602001886001600160a01b0316815260200187151581526020018681526020018581526020018481526020018381526020018281526020019a505050505050505050505060405180910390a187158015613de25750846020015183105b15613e10576020850151600090613df99085614610565b9050613e0e8b613e098d846132ac565b614bcf565b505b87613e2357613e238986600001516158de565b6000868152602b60205260408120818155600181018290556002810182905560038101829055600481018290556005810182905560060155600954613e6f908b9061217f9082906132ac565b613e858a613e7f8c6009546132ac565b896150d4565b50506016805460ff19166001179055505050505b50506001600055505050565b600e5481565b60048054601654604080516317e1d38560e11b81526001600160a01b03868116958201959095526001602482015260ff80841615156044830152610100909304909216151560648301525160009390921691632fc3a70a91608480820192602092909190829003018186803b158015612e0e57600080fd5b601b8181548110613f3057fe5b6000918252602090912001546001600160a01b0316905081565b613f5261459d565b6001600160a01b0381166000908152601c6020526040902054613f799060ff16600d614652565b6001600160a01b038116600090815260226020526040902054601554613f9e91614610565b6015556001600160a01b0381166000908152601c60209081526040808320805460ff19908116909155601d835281842084905560228352818420849055601e835281842084905560248352818420849055601f835281842080548216905591805290912080549091169055600754614017906001614610565b60075550565b61402561459d565b6001600160a01b039091166000908152602f6020526040902055565b60286020526000908152604090205481565b61405b61459d565b6016805491151563010000000263ff00000019909216919091179055565b600680546001600160a01b031916331790556001805461409f9160ff9091161590614652565b60018054600380546001600160a01b03199081166001600160a01b039a8b1617909155600580548216988a1698909817909755600480549097169590971694909417855560099290925560135560149081556201000061010060ff19958616841761ff0019161762ff000019161782556207a8f06008556032600a908155600b91909155601e600c819055600d55600e92909255600f91909155617080601255601680549092161763ffffff0019169055565b600061415c61459d565b6001600160a01b0383166000908152602c602052604090205480614184576000915050611831565b6001600160a01b0384166000908152602c6020526040812055611d448482856150d4565b601a6020526000908152604090205460ff1681565b6005546001600160a01b031681565b6003546001600160a01b031681565b6000826141ea57506000611d44565b6001600160a01b0384166000908152601d60205260409020546134cb836117be86600a85900a614505565b6001546040805163fbfded6d60e01b81526001600160a01b03858116600483015284811660248301529151600093630100000090049092169163fbfded6d9160448082019260209290919082900301818787803b15801561427557600080fd5b505af1158015614289573d6000803e3d6000fd5b505050506040513d602081101561429f57600080fd5b50519050806142ae575061393d565b6001600160a01b0383166000908152602a60205260409020546142fb576012546142dc906134c5428261455e565b6001600160a01b0384166000908152602a60205260409020555061393d565b6012546001600160a01b0384166000908152602a6020526040902054429161432391906145b8565b111561432f575061393d565b600061433a846133d6565b6001600160a01b03851660009081526029602052604090205490915061436090826145b8565b6001600160a01b03851660009081526029602052604090205560125461438a906134c5428261455e565b6001600160a01b0385166000818152602a602090815260408083209490945560298152908390205483519283529082015281517fa146fc154e1913322e9817d49f0d5c37466c24326e15de10e739a948be815eab929181900390910190a150505050565b610e1081565b6001546040805163fdaf6ac360e01b81526001600160a01b038881166004830152878116602483015286811660448301528515156064830152608482018590529151600093630100000090049092169163fdaf6ac39160a480820192602092909190829003018186803b15801561378757600080fd5b60306020908152600091825260409182902080548351601f6002600019610100600186161502019093169290920491820184900484028101840190945280845290918301828280156144fd5780601f106144d2576101008083540402835291602001916144fd565b820191906000526020600020905b8154815290600101906020018083116144e057829003601f168201915b505050505081565b60008261451457506000611831565b8282028284828161452157fe5b0414611d445760405162461bcd60e51b8152600401808060200182810382526021815260200180615f656021913960400191505060405180910390fd5b6000611d4483836040518060400160405280601a815260200179536166654d6174683a206469766973696f6e206279207a65726f60301b815250615946565b6006546145b6906001600160a01b031633146035614652565b565b600082820183811015611d44576040805162461bcd60e51b815260206004820152601b60248201527a536166654d6174683a206164646974696f6e206f766572666c6f7760281b604482015290519081900360640190fd5b6000611d4483836040518060400160405280601e81526020017f536166654d6174683a207375627472616374696f6e206f766572666c6f7700008152506159e8565b6000818152603060205260409020826137d95760405162461bcd60e51b81526020600482019081528254600260001961010060018416150201909116046024830181905290918291604490910190849080156146ef5780601f106146c4576101008083540402835291602001916146ef565b820191906000526020600020905b8154815290600101906020018083116146d257829003601f168201915b50509250505060405180910390fd5b60175461470a576145b6565b6145b66017543a11156037614652565b336001600160a01b03821614156147305761477a565b6003546001600160a01b03163314156147485761477a565b6001600160a01b038116600090815260186020908152604080832033845290915290205461477a9060ff166029614652565b50565b80156147f6576147a2826001600160a01b0316846001600160a01b031614602a614652565b6001600160a01b0383166000908152601c60205260409020546147c99060ff16602b614652565b6001600160a01b0383166000908152601f60205260409020546147f19060ff1615602c614652565b6137d9565b6001600160a01b0383166000908152601c602052604090205461481d9060ff16602d614652565b6001600160a01b0383166000908152601f60205260409020546148449060ff16602e614652565b6001600160a01b0382166000908152601f602052604090205461486c9060ff1615602f614652565b6001600160a01b03821660009081526020805260409020546137d99060ff166030614652565b6000806148a289898989896143f4565b905060006148b48a8a8a8a8989613959565b90506148c082826145b8565b915060006148ce8a846132ac565b6001600160a01b038b166000908152602c60205260409020549091506148f490826145b8565b6001600160a01b038b166000818152602c602090815260409182902093909355805191825291810185905280820183905290517f5d0c0019d3d45fadeb74eff9d2c9924d146d000ac6bcf3c28bf0ac3c9baa011a9181900360600190a150909998505050505050505050565b6001600160a01b03811660008181526021602090815260408083205481516370a0823160e01b8152306004820152915193949093859391926370a08231926024808301939192829003018186803b1580156149ba57600080fd5b505afa1580156149ce573d6000803e3d6000fd5b505050506040513d60208110156149e457600080fd5b50516001600160a01b03851660009081526021602052604090208190559050611b0b8183614610565b81614a2357614a1e81156027614652565b61393d565b61393d818310156028614652565b6001600160a01b038216600090815260266020526040902054614a5490826145b8565b6001600160a01b038316600090815260266020818152604080842085905560258252909220549152614a899111156034614652565b604080516001600160a01b03841681526020810183905281517faa5649d82f5462be9d19b0f2b31a59b2259950a6076550bac9f3a1c07db9f66d929181900390910190a15050565b6001600160a01b038216600090815260286020526040902054614af490826145b8565b6001600160a01b03831660008181526028602090815260409182902093909355805191825291810183905281517fd9d4761f75e0d0103b5cbeab941eeb443d7a56a35b5baf2a0787c03f03f4e474929181900390910190a15050565b6001600160a01b038216600090815260286020526040902054614b739082614610565b6001600160a01b03831660008181526028602090815260409182902093909355805191825291810183905281517f34e07158b9db50df5613e591c44ea2ebc82834eff4a4dc3a46e000e608261d68929181900390910190a15050565b6001600160a01b038216600090815260256020526040902054614bf290826145b8565b6001600160a01b03831660008181526025602090815260408083209490945583516370a0823160e01b8152306004820152935191936370a082319260248083019392829003018186803b158015614c4857600080fd5b505afa158015614c5c573d6000803e3d6000fd5b505050506040513d6020811015614c7257600080fd5b50516001600160a01b038416600090815260256020526040902054909150614c9e908210156031614652565b604080516001600160a01b03851681526020810184905281517f976177fbe09a15e5e43f848844963a42b41ef919ef17ff21a17a5421de8f4737929181900390910190a1505050565b604080518082018252601181527015985d5b1d0e881c1bdbdb105b5bdd5b9d607a1b6020808301919091526001600160a01b038516600090815260259091529190912054614d369183906159e8565b6001600160a01b03831660009081526025602090815260408083208490556026909152902054614d699110156032614652565b604080516001600160a01b03841681526020810183905281517f112726233fbeaeed0f5b1dba5cb0b2b81883dee49fb35ff99fd98ed9f6d31eb0929181900390910190a15050565b6001600160a01b0382166000908152602d6020526040902054614dd490826145b8565b6001600160a01b0383166000908152602d6020908152604080832093909355602f9052205480156137d9576001600160a01b0383166000908152602d60205260409020548110156137d9576040805162461bcd60e51b81526020600482015260116024820152705661756c743a206d61782073686f72747360781b604482015290519081900360640190fd5b60165462010000900460ff16156145b657336000908152601a60205260409020546145b69060ff166036614652565b6001600160a01b038216600090815260236020526040902054818111614f0a576001600160a01b0383166000818152602360209081526040808320929092558151928352820183905280517fe1e812596aac93a06ecc4ca627014d18e30f5c33b825160cc9d5c0ba61e452279281900390910190a15061393d565b614f148183614610565b6001600160a01b03841660008181526023602090815260409182902093909355805191825291810184905281517fe1e812596aac93a06ecc4ca627014d18e30f5c33b825160cc9d5c0ba61e45227929181900390910190a1505050565b6000816001600160a01b03166370a08231306040518263ffffffff1660e01b815260040180826001600160a01b0316815260200191505060206040518083038186803b158015614fc057600080fd5b505afa158015614fd4573d6000803e3d6000fd5b505050506040513d6020811015614fea57600080fd5b50516001600160a01b0390921660009081526021602052604090209190915550565b6000806150296127106117be6150228287614610565b8790614505565b905060006150378583614610565b6001600160a01b0387166000908152602c602052604090205490915061505d90826145b8565b6001600160a01b0387166000908152602c60205260409020557f47cd9dda0e50ce30bcaaacd0488452b596221c07ac402a581cfae4d3933cac2b866150a281846117e4565b604080516001600160a01b0390931683526020830191909152818101849052519081900360600190a150949350505050565b6150e86001600160a01b03841682846157d7565b604080516370a0823160e01b815230600482015290516001600160a01b038516916370a08231916024808301926020929190829003018186803b15801561512e57600080fd5b505afa158015615142573d6000803e3d6000fd5b505050506040513d602081101561515857600080fd5b50516001600160a01b039093166000908152602160205260409020929092555050565b6001600160a01b03821660009081526023602052604090205461519e90826145b8565b6001600160a01b03831660009081526023602090815260408083209390935560249052205480156151f0576001600160a01b0383166000908152602360205260409020546151f0908210156033614652565b604080516001600160a01b03851681526020810184905281517f64243679a443432e2293343b77d411ff6144370404618f00ca0d2025d9ca9882929181900390910190a1505050565b600154604080516381d11a2360e01b81526001600160a01b038a8116600483015289811660248301528881166044830152606482018890526084820187905285151560a483015284811660c4830152915160009363010000009004909216916381d11a239160e4808201928692909190829003018186803b1580156152bd57600080fd5b505afa1580156152d1573d6000803e3d6000fd5b505050506152df8787614215565b60006152ed898989876119be565b6000818152602b6020526040902080549192509061530e901515601f614652565b61532086826000015410156020614652565b61533287826001015410156021614652565b60018101548154600483015460009161534f916117be908b614505565b60048401549091506153619082614610565b60048401556153708b82615829565b506000806153828d8d8d8d8d8d615a42565b8554919350915089146155265761539a8c8c8a6135b6565b600385015583546153ab908a614610565b80855560018501546153bd9190614a0d565b6153cb8d8d8d8b6001613831565b505087156153f8576153ee8c61215886600101548661461090919063ffffffff16565b6153f88c8a614b50565b60008861540d576154088c613eab565b615416565b6154168c612d95565b90507f93d75d64d1f84fc6f430a64fc578bdd4c1e090e90ea2d51773e626d19de56d30868f8f8f8f8f8f8861544b8c8c614610565b60408051998a526001600160a01b0398891660208b015296881689880152949096166060880152608087019290925260a0860152151560c085015260e084019290925261010083019190915251908190036101200190a18454600186015460028701546003880154600489015460058a0154604080518d81526020810197909752868101959095526060860193909352608085019190915260a084015260c083015260e08201839052517f20853733b590dce729d9f4628682ebd9a34d2354e72679e66f43a008fc03b773918190036101000190a15061570d565b8715615540576155368c84614ad1565b6155408c8a614b50565b600088615555576155508c613eab565b61555e565b61555e8c612d95565b90507f93d75d64d1f84fc6f430a64fc578bdd4c1e090e90ea2d51773e626d19de56d30868f8f8f8f8f8f886155938c8c614610565b60408051998a526001600160a01b0398891660208b015296881689880152949096166060880152608087019290925260a0860152151560c085015260e084019290925261010083019190915251908190036101200190a18454600186015460028701546003880154600489015460058a0154604080518d81526020810197909752868101959095526060860193909352608085019190915260a084015260c0830152517f73af1d417d82c240fdb6d319b34ad884487c6bf2845d98980cc52ad9171cb4559181900360e00190a1600160039054906101000a90046001600160a01b03166001600160a01b0316634c89b68d876040518263ffffffff1660e01b815260040180828152602001915050600060405180830381600087803b1580156156bb57600080fd5b505af11580156156cf573d6000803e3d6000fd5b5050506000878152602b6020526040812081815560018101829055600281018290556003810182905560048101829055600581018290556006015550505b8761571c5761571c8b8a6158de565b811561575c578715615736576157368c61217f8e856132ac565b60006157428d836132ac565b905061574f8d828a6150d4565b95506124f8945050505050565b5060009c9b505050505050505050505050565b6001600160a01b038116600090815260276020908152604080832054602590925290912054101561477a576040805162461bcd60e51b815260206004820152600d60248201526c2b30bab63a1d10313ab33332b960991b604482015290519081900360640190fd5b604080516001600160a01b038416602482015260448082018490528251808303909101815260649091019091526020810180516001600160e01b031663a9059cbb60e01b1790526137d9908490615c3c565b604080518082018252601b81527a5661756c743a20696e73756666696369656e74207265736572766560281b6020808301919091526001600160a01b0385166000908152602690915291909120546158829183906159e8565b6001600160a01b03831660008181526026602090815260409182902093909355805191825291810183905281517f533cb5ed32be6a90284e96b5747a1bfc2d38fdb5768a6b5f67ff7d62144ed67b929181900390910190a15050565b6001600160a01b0382166000908152602d60205260409020548082111561591e57506001600160a01b0382166000908152602d602052604081205561393d565b6159288183614610565b6001600160a01b0384166000908152602d6020526040902055505050565b600081836159d25760405162461bcd60e51b81526004018080602001828103825283818151815260200191508051906020019080838360005b8381101561599757818101518382015260200161597f565b50505050905090810190601f1680156159c45780820380516001836020036101000a031916815260200191505b509250505060405180910390fd5b5060008385816159de57fe5b0495945050505050565b60008184841115615a3a5760405162461bcd60e51b815260206004820181815283516024840152835190928392604490910191908501908083836000831561599757818101518382015260200161597f565b505050900390565b6000806000615a53898989876119be565b6000818152602b60205260408120805460038201549394509092615a80918d918d918d918b918d91614892565b9050600080600080615aa18d876000015488600201548d8a6006015461253c565b87549195508593509150615ab9906117be8d84614505565b925050506000828015615acc5750600082115b15615afc5750600584018054820190558088615afc576000615aee8e846132ac565b9050615afa8e82614ce7565b505b82158015615b0a5750600082115b15615b4e576001850154615b1e9083614610565b600186015588615b42576000615b348e846132ac565b9050615b408e82614bcf565b505b60058501805483900390555b8a15615b7657615b5e818c6145b8565b6001860154909150615b70908c614610565b60018601555b84548a1415615b99576001850154615b8f9082906145b8565b6000600187015590505b8084811115615bb357615bac8286614610565b9050615be7565b6001860154615bc29086614610565b60018701558915615be7576000615bd98f876132ac565b9050615be58f82614ce7565b505b60408051888152851515602082015280820185905290517f3ff41bdde87755b687ae83d0221a232b6be51a803330ed9661c1b5d0105e0d8a9181900360600190a1909e909d509b505050505050505050505050565b6060615c91826040518060400160405280602081526020017f5361666545524332303a206c6f772d6c6576656c2063616c6c206661696c6564815250856001600160a01b0316615ced9092919063ffffffff16565b8051909150156137d957808060200190516020811015615cb057600080fd5b50516137d95760405162461bcd60e51b815260040180806020018281038252602a815260200180615f86602a913960400191505060405180910390fd5b6060611b0b848460008585615d0185615e08565b615d52576040805162461bcd60e51b815260206004820152601d60248201527f416464726573733a2063616c6c20746f206e6f6e2d636f6e7472616374000000604482015290519081900360640190fd5b60006060866001600160a01b031685876040518082805190602001908083835b60208310615d915780518252601f199092019160209182019101615d72565b6001836020036101000a03801982511681845116808217855250505050505090500191505060006040518083038185875af1925050503d8060008114615df3576040519150601f19603f3d011682016040523d82523d6000602084013e615df8565b606091505b50915091506124f8828286615e0e565b3b151590565b60608315615e1d575081611d44565b825115615e2d5782518084602001fd5b60405162461bcd60e51b815260206004820181815284516024840152845185939192839260440191908501908083836000831561599757818101518382015260200161597f565b828054600181600116156101000203166002900490600052602060002090601f016020900481019282601f10615eb55782800160ff19823516178555615ee2565b82800160010185558215615ee2579182015b82811115615ee2578235825591602001919060010190615ec7565b50615eee929150615f2f565b5090565b6040518060e00160405280600081526020016000815260200160008152602001600081526020016000815260200160008152602001600081525090565b5b80821115615eee5760008155600101615f3056fe5265656e7472616e637947756172643a207265656e7472616e742063616c6c00536166654d6174683a206d756c7469706c69636174696f6e206f766572666c6f775361666545524332303a204552433230206f7065726174696f6e20646964206e6f742073756363656564a264697066735822122048386f8ca03a44351fbda2d2cce75a4572002be58ee200d289cb89a10959d5b264736f6c634300060c0033","linkReferences":{}},"methodIdentifiers":{"BASIS_POINTS_DIVISOR()":"126082cf","FUNDING_RATE_PRECISION()":"6be6026b","MAX_FEE_BASIS_POINTS()":"4befe2ca","MAX_FUNDING_RATE_FACTOR()":"8a39735a","MAX_LIQUIDATION_FEE_USD()":"07c58752","MIN_FUNDING_RATE_INTERVAL()":"fce28c10","MIN_LEVERAGE()":"34c1557d","PRICE_PRECISION()":"95082d25","USDG_DECIMALS()":"870d917c","addRouter(address)":"24ca984e","adjustForDecimals(uint256,address,address)":"42152873","allWhitelistedTokens(uint256)":"e468baf0","allWhitelistedTokensLength()":"0842b076","approvedRouters(address,address)":"60922199","bufferAmounts(address)":"4a993ee9","buyUSDG(address,address)":"817bb857","clearTokenConfig(address)":"e67f59a7","cumulativeFundingRates(address)":"c65bc7b1","decreasePosition(address,address,address,uint256,uint256,bool,address)":"82a08490","directPoolDeposit(address)":"5f7bc119","errorController()":"48f35cbb","errors(uint256)":"fed1a606","feeReserves(address)":"1ce9cb8f","fundingInterval()":"9849e412","fundingRateFactor()":"c4f718bf","getDelta(address,uint256,uint256,bool,uint256)":"5c07eaab","getEntryFundingRate(address,address,bool)":"b1cc53ab","getFeeBasisPoints(address,uint256,uint256,uint256,bool)":"c7e074c3","getFundingFee(address,address,address,bool,uint256,uint256)":"da76524c","getGlobalShortDelta(address)":"b364accb","getMaxPrice(address)":"e124e6d2","getMinPrice(address)":"81a612d6","getNextAveragePrice(address,uint256,uint256,bool,uint256,uint256,uint256)":"db97495f","getNextFundingRate(address)":"a93acac2","getNextGlobalShortAveragePrice(address,uint256,uint256)":"9d7432ca","getPosition(address,address,address,bool)":"4a3f088d","getPositionDelta(address,address,address,bool)":"45a6f370","getPositionFee(address,address,address,bool,uint256)":"fdaf6ac3","getPositionKey(address,address,address,bool)":"2d4b0576","getPositionLeverage(address,address,address,bool)":"51723e82","getRedemptionAmount(address,uint256)":"2c668ec1","getRedemptionCollateral(address)":"b136ca49","getRedemptionCollateralUsd(address)":"29ff9615","getTargetUsdgAmount(address)":"3a05dcc1","getUtilisation(address)":"04fef1db","globalShortAveragePrices(address)":"62749803","globalShortSizes(address)":"8a78daa8","gov()":"12d43a51","guaranteedUsd(address)":"f07456ce","hasDynamicFees()":"9f392eb3","inManagerMode()":"9060b1ca","inPrivateLiquidationMode()":"181e210e","includeAmmPrice()":"ab08c1c6","increasePosition(address,address,address,uint256,bool)":"48d91abf","initialize2(address,address,address,uint256,uint256,uint256)":"f1675a8b","isInitialized()":"392e53cd","isLeverageEnabled()":"3e72a262","isLiquidator(address)":"529a356f","isManager(address)":"f3ae2415","isSwapEnabled()":"351a964d","lastFundingTimes(address)":"d8f897c3","liquidatePosition(address,address,address,bool,address)":"de2ea948","liquidationFeeUsd()":"174d2694","marginFeeBasisPoints()":"318bc689","maxGasPrice()":"3de39c11","maxGlobalShortSizes(address)":"9698d25a","maxLeverage()":"ae3302c2","maxUsdgAmounts(address)":"ad1e4f8d","minProfitBasisPoints(address)":"88b1fbdf","minProfitTime()":"d9ac4225","mintBurnFeeBasisPoints()":"4d47b304","poolAmounts(address)":"52f55eed","positions(bytes32)":"514ea4bf","priceFeed()":"741bef1a","removeRouter(address)":"6ae0b154","reservedAmounts(address)":"c3c7b9e9","router()":"f887ea40","sellUSDG(address,address)":"711e6190","setBufferAmount(address,uint256)":"8585f4d2","setError(uint256,string)":"28e67be5","setErrorController(address)":"8f7b8404","setFees(uint256,uint256,uint256,uint256,uint256,uint256,uint256,uint256,bool)":"40eb3802","setFundingRate(uint256,uint256,uint256)":"8a27d468","setGov(address)":"cfad57a2","setInManagerMode(bool)":"24b0c04d","setInPrivateLiquidationMode(bool)":"f07bbf77","setIsLeverageEnabled(bool)":"7c2eb9f7","setIsSwapEnabled(bool)":"30455ede","setLiquidator(address,bool)":"4453a374","setManager(address,bool)":"a5e90eee","setMaxGasPrice(uint256)":"d2fa635e","setMaxGlobalShortSize(address,uint256)":"efa10a6e","setMaxLeverage(uint256)":"d3127e63","setPriceFeed(address)":"724e78da","setTokenConfig(address,uint256,uint256,uint256,uint256,bool,bool)":"3c5a6e35","setUsdgAmount(address,uint256)":"d66b000d","setVaultUtils(address)":"71089f4d","shortableTokens(address)":"db3555fb","stableFundingRateFactor()":"134ca63b","stableSwapFeeBasisPoints()":"df73a267","stableTaxBasisPoints()":"10eb56c2","stableTokens(address)":"42b60b03","swap(address,address,address)":"93316212","swapFeeBasisPoints()":"a22f2392","taxBasisPoints()":"7a210a2b","tokenBalances(address)":"523fba7f","tokenDecimals(address)":"8ee573ac","tokenToUsdMin(address,uint256)":"0a48d5a9","tokenWeights(address)":"ab2f3ad4","totalTokenWeights()":"dc8f5fac","updateCumulativeFundingRate(address,address)":"fbfded6d","upgradeVault(address,address,uint256)":"cea0c328","usdToToken(address,uint256,uint256)":"fa12dbc0","usdToTokenMax(address,uint256)":"a42ab3d2","usdToTokenMin(address,uint256)":"9899cd02","usdg()":"f5b91b7b","usdgAmounts(address)":"1aa4ace5","useSwapPricing()":"b06423f3","validateLiquidation(address,address,address,bool,bool)":"d54d5a9f","vaultUtils()":"6abbe0c8","whitelistedTokenCount()":"62287a32","whitelistedTokens(address)":"daf9c210","withdrawFees(address,address)":"f2555278"},"id":48}