{"abi":[{"type":"function","name":"BASIS_POINTS_DIVISOR","inputs":[],"outputs":[{"name":"","type":"uint256","internalType":"uint256"}],"stateMutability":"view"},{"type":"function","name":"FUNDING_RATE_PRECISION","inputs":[],"outputs":[{"name":"","type":"uint256","internalType":"uint256"}],"stateMutability":"view"},{"type":"function","name":"MAX_FEE_BASIS_POINTS","inputs":[],"outputs":[{"name":"","type":"uint256","internalType":"uint256"}],"stateMutability":"view"},{"type":"function","name":"MAX_FUNDING_RATE_FACTOR","inputs":[],"outputs":[{"name":"","type":"uint256","internalType":"uint256"}],"stateMutability":"view"},{"type":"function","name":"MAX_LIQUIDATION_FEE_USD","inputs":[],"outputs":[{"name":"","type":"uint256","internalType":"uint256"}],"stateMutability":"view"},{"type":"function","name":"MIN_FUNDING_RATE_INTERVAL","inputs":[],"outputs":[{"name":"","type":"uint256","internalType":"uint256"}],"stateMutability":"view"},{"type":"function","name":"MIN_LEVERAGE","inputs":[],"outputs":[{"name":"","type":"uint256","internalType":"uint256"}],"stateMutability":"view"},{"type":"function","name":"PRICE_PRECISION","inputs":[],"outputs":[{"name":"","type":"uint256","internalType":"uint256"}],"stateMutability":"view"},{"type":"function","name":"USDG_DECIMALS","inputs":[],"outputs":[{"name":"","type":"uint256","internalType":"uint256"}],"stateMutability":"view"},{"type":"function","name":"acceptGov","inputs":[],"outputs":[],"stateMutability":"nonpayable"},{"type":"function","name":"addRouter","inputs":[{"name":"_router","type":"address","internalType":"address"}],"outputs":[],"stateMutability":"nonpayable"},{"type":"function","name":"adjustForDecimals","inputs":[{"name":"_amount","type":"uint256","internalType":"uint256"},{"name":"_tokenDiv","type":"address","internalType":"address"},{"name":"_tokenMul","type":"address","internalType":"address"}],"outputs":[{"name":"","type":"uint256","internalType":"uint256"}],"stateMutability":"view"},{"type":"function","name":"allWhitelistedTokens","inputs":[{"name":"","type":"uint256","internalType":"uint256"}],"outputs":[{"name":"","type":"address","internalType":"address"}],"stateMutability":"view"},{"type":"function","name":"allWhitelistedTokensLength","inputs":[],"outputs":[{"name":"","type":"uint256","internalType":"uint256"}],"stateMutability":"view"},{"type":"function","name":"approvedRouters","inputs":[{"name":"","type":"address","internalType":"address"},{"name":"","type":"address","internalType":"address"}],"outputs":[{"name":"","type":"bool","internalType":"bool"}],"stateMutability":"view"},{"type":"function","name":"bufferAmounts","inputs":[{"name":"","type":"address","internalType":"address"}],"outputs":[{"name":"","type":"uint256","internalType":"uint256"}],"stateMutability":"view"},{"type":"function","name":"buyUSDG","inputs":[{"name":"_token","type":"address","internalType":"address"},{"name":"_receiver","type":"address","internalType":"address"}],"outputs":[{"name":"","type":"uint256","internalType":"uint256"}],"stateMutability":"nonpayable"},{"type":"function","name":"cancelGovProposal","inputs":[{"name":"_gov","type":"address","internalType":"address"}],"outputs":[],"stateMutability":"nonpayable"},{"type":"function","name":"clearTokenConfig","inputs":[{"name":"_token","type":"address","internalType":"address"}],"outputs":[],"stateMutability":"nonpayable"},{"type":"function","name":"cumulativeFundingRates","inputs":[{"name":"","type":"address","internalType":"address"}],"outputs":[{"name":"","type":"uint256","internalType":"uint256"}],"stateMutability":"view"},{"type":"function","name":"decreasePosition","inputs":[{"name":"_account","type":"address","internalType":"address"},{"name":"_collateralToken","type":"address","internalType":"address"},{"name":"_indexToken","type":"address","internalType":"address"},{"name":"_collateralDelta","type":"uint256","internalType":"uint256"},{"name":"_sizeDelta","type":"uint256","internalType":"uint256"},{"name":"_isLong","type":"bool","internalType":"bool"},{"name":"_receiver","type":"address","internalType":"address"}],"outputs":[{"name":"","type":"uint256","internalType":"uint256"}],"stateMutability":"nonpayable"},{"type":"function","name":"directPoolDeposit","inputs":[{"name":"_token","type":"address","internalType":"address"}],"outputs":[],"stateMutability":"nonpayable"},{"type":"function","name":"errorController","inputs":[],"outputs":[{"name":"","type":"address","internalType":"address"}],"stateMutability":"view"},{"type":"function","name":"errors","inputs":[{"name":"","type":"uint256","internalType":"uint256"}],"outputs":[{"name":"","type":"string","internalType":"string"}],"stateMutability":"view"},{"type":"function","name":"feeReserves","inputs":[{"name":"","type":"address","internalType":"address"}],"outputs":[{"name":"","type":"uint256","internalType":"uint256"}],"stateMutability":"view"},{"type":"function","name":"fundingInterval","inputs":[],"outputs":[{"name":"","type":"uint256","internalType":"uint256"}],"stateMutability":"view"},{"type":"function","name":"fundingRateFactor","inputs":[],"outputs":[{"name":"","type":"uint256","internalType":"uint256"}],"stateMutability":"view"},{"type":"function","name":"getDelta","inputs":[{"name":"_indexToken","type":"address","internalType":"address"},{"name":"_size","type":"uint256","internalType":"uint256"},{"name":"_averagePrice","type":"uint256","internalType":"uint256"},{"name":"_isLong","type":"bool","internalType":"bool"},{"name":"_lastIncreasedTime","type":"uint256","internalType":"uint256"}],"outputs":[{"name":"","type":"bool","internalType":"bool"},{"name":"","type":"uint256","internalType":"uint256"}],"stateMutability":"view"},{"type":"function","name":"getEntryFundingRate","inputs":[{"name":"_collateralToken","type":"address","internalType":"address"},{"name":"_indexToken","type":"address","internalType":"address"},{"name":"_isLong","type":"bool","internalType":"bool"}],"outputs":[{"name":"","type":"uint256","internalType":"uint256"}],"stateMutability":"view"},{"type":"function","name":"getFeeBasisPoints","inputs":[{"name":"_token","type":"address","internalType":"address"},{"name":"_usdgDelta","type":"uint256","internalType":"uint256"},{"name":"_feeBasisPoints","type":"uint256","internalType":"uint256"},{"name":"_taxBasisPoints","type":"uint256","internalType":"uint256"},{"name":"_increment","type":"bool","internalType":"bool"}],"outputs":[{"name":"","type":"uint256","internalType":"uint256"}],"stateMutability":"view"},{"type":"function","name":"getFundingFee","inputs":[{"name":"_account","type":"address","internalType":"address"},{"name":"_collateralToken","type":"address","internalType":"address"},{"name":"_indexToken","type":"address","internalType":"address"},{"name":"_isLong","type":"bool","internalType":"bool"},{"name":"_size","type":"uint256","internalType":"uint256"},{"name":"_entryFundingRate","type":"uint256","internalType":"uint256"}],"outputs":[{"name":"","type":"uint256","internalType":"uint256"}],"stateMutability":"view"},{"type":"function","name":"getGlobalShortDelta","inputs":[{"name":"_token","type":"address","internalType":"address"}],"outputs":[{"name":"","type":"bool","internalType":"bool"},{"name":"","type":"uint256","internalType":"uint256"}],"stateMutability":"view"},{"type":"function","name":"getMaxPrice","inputs":[{"name":"_token","type":"address","internalType":"address"}],"outputs":[{"name":"","type":"uint256","internalType":"uint256"}],"stateMutability":"view"},{"type":"function","name":"getMinPrice","inputs":[{"name":"_token","type":"address","internalType":"address"}],"outputs":[{"name":"","type":"uint256","internalType":"uint256"}],"stateMutability":"view"},{"type":"function","name":"getNextAveragePrice","inputs":[{"name":"_indexToken","type":"address","internalType":"address"},{"name":"_size","type":"uint256","internalType":"uint256"},{"name":"_averagePrice","type":"uint256","internalType":"uint256"},{"name":"_isLong","type":"bool","internalType":"bool"},{"name":"_nextPrice","type":"uint256","internalType":"uint256"},{"name":"_sizeDelta","type":"uint256","internalType":"uint256"},{"name":"_lastIncreasedTime","type":"uint256","internalType":"uint256"}],"outputs":[{"name":"","type":"uint256","internalType":"uint256"}],"stateMutability":"view"},{"type":"function","name":"getNextFundingRate","inputs":[{"name":"_token","type":"address","internalType":"address"}],"outputs":[{"name":"","type":"uint256","internalType":"uint256"}],"stateMutability":"view"},{"type":"function","name":"getNextGlobalShortAveragePrice","inputs":[{"name":"_indexToken","type":"address","internalType":"address"},{"name":"_nextPrice","type":"uint256","internalType":"uint256"},{"name":"_sizeDelta","type":"uint256","internalType":"uint256"}],"outputs":[{"name":"","type":"uint256","internalType":"uint256"}],"stateMutability":"view"},{"type":"function","name":"getPosition","inputs":[{"name":"_account","type":"address","internalType":"address"},{"name":"_collateralToken","type":"address","internalType":"address"},{"name":"_indexToken","type":"address","internalType":"address"},{"name":"_isLong","type":"bool","internalType":"bool"}],"outputs":[{"name":"","type":"uint256","internalType":"uint256"},{"name":"","type":"uint256","internalType":"uint256"},{"name":"","type":"uint256","internalType":"uint256"},{"name":"","type":"uint256","internalType":"uint256"},{"name":"","type":"uint256","internalType":"uint256"},{"name":"","type":"uint256","internalType":"uint256"},{"name":"","type":"bool","internalType":"bool"},{"name":"","type":"uint256","internalType":"uint256"}],"stateMutability":"view"},{"type":"function","name":"getPositionDelta","inputs":[{"name":"_account","type":"address","internalType":"address"},{"name":"_collateralToken","type":"address","internalType":"address"},{"name":"_indexToken","type":"address","internalType":"address"},{"name":"_isLong","type":"bool","internalType":"bool"}],"outputs":[{"name":"","type":"bool","internalType":"bool"},{"name":"","type":"uint256","internalType":"uint256"}],"stateMutability":"view"},{"type":"function","name":"getPositionFee","inputs":[{"name":"_account","type":"address","internalType":"address"},{"name":"_collateralToken","type":"address","internalType":"address"},{"name":"_indexToken","type":"address","internalType":"address"},{"name":"_isLong","type":"bool","internalType":"bool"},{"name":"_sizeDelta","type":"uint256","internalType":"uint256"}],"outputs":[{"name":"","type":"uint256","internalType":"uint256"}],"stateMutability":"view"},{"type":"function","name":"getPositionKey","inputs":[{"name":"_account","type":"address","internalType":"address"},{"name":"_collateralToken","type":"address","internalType":"address"},{"name":"_indexToken","type":"address","internalType":"address"},{"name":"_isLong","type":"bool","internalType":"bool"}],"outputs":[{"name":"","type":"bytes32","internalType":"bytes32"}],"stateMutability":"pure"},{"type":"function","name":"getPositionLeverage","inputs":[{"name":"_account","type":"address","internalType":"address"},{"name":"_collateralToken","type":"address","internalType":"address"},{"name":"_indexToken","type":"address","internalType":"address"},{"name":"_isLong","type":"bool","internalType":"bool"}],"outputs":[{"name":"","type":"uint256","internalType":"uint256"}],"stateMutability":"view"},{"type":"function","name":"getRedemptionAmount","inputs":[{"name":"_token","type":"address","internalType":"address"},{"name":"_usdgAmount","type":"uint256","internalType":"uint256"}],"outputs":[{"name":"","type":"uint256","internalType":"uint256"}],"stateMutability":"view"},{"type":"function","name":"getRedemptionCollateral","inputs":[{"name":"_token","type":"address","internalType":"address"}],"outputs":[{"name":"","type":"uint256","internalType":"uint256"}],"stateMutability":"view"},{"type":"function","name":"getRedemptionCollateralUsd","inputs":[{"name":"_token","type":"address","internalType":"address"}],"outputs":[{"name":"","type":"uint256","internalType":"uint256"}],"stateMutability":"view"},{"type":"function","name":"getTargetUsdgAmount","inputs":[{"name":"_token","type":"address","internalType":"address"}],"outputs":[{"name":"","type":"uint256","internalType":"uint256"}],"stateMutability":"view"},{"type":"function","name":"getUtilisation","inputs":[{"name":"_token","type":"address","internalType":"address"}],"outputs":[{"name":"","type":"uint256","internalType":"uint256"}],"stateMutability":"view"},{"type":"function","name":"globalShortAveragePrices","inputs":[{"name":"","type":"address","internalType":"address"}],"outputs":[{"name":"","type":"uint256","internalType":"uint256"}],"stateMutability":"view"},{"type":"function","name":"globalShortSizes","inputs":[{"name":"","type":"address","internalType":"address"}],"outputs":[{"name":"","type":"uint256","internalType":"uint256"}],"stateMutability":"view"},{"type":"function","name":"gov","inputs":[],"outputs":[{"name":"","type":"address","internalType":"address"}],"stateMutability":"view"},{"type":"function","name":"govProposals","inputs":[{"name":"","type":"address","internalType":"address"}],"outputs":[{"name":"deadline","type":"uint256","internalType":"uint256"},{"name":"isActive","type":"bool","internalType":"bool"}],"stateMutability":"view"},{"type":"function","name":"guaranteedUsd","inputs":[{"name":"","type":"address","internalType":"address"}],"outputs":[{"name":"","type":"uint256","internalType":"uint256"}],"stateMutability":"view"},{"type":"function","name":"hasDynamicFees","inputs":[],"outputs":[{"name":"","type":"bool","internalType":"bool"}],"stateMutability":"view"},{"type":"function","name":"inManagerMode","inputs":[],"outputs":[{"name":"","type":"bool","internalType":"bool"}],"stateMutability":"view"},{"type":"function","name":"inPrivateLiquidationMode","inputs":[],"outputs":[{"name":"","type":"bool","internalType":"bool"}],"stateMutability":"view"},{"type":"function","name":"includeAmmPrice","inputs":[],"outputs":[{"name":"","type":"bool","internalType":"bool"}],"stateMutability":"view"},{"type":"function","name":"increasePosition","inputs":[{"name":"_account","type":"address","internalType":"address"},{"name":"_collateralToken","type":"address","internalType":"address"},{"name":"_indexToken","type":"address","internalType":"address"},{"name":"_sizeDelta","type":"uint256","internalType":"uint256"},{"name":"_isLong","type":"bool","internalType":"bool"}],"outputs":[],"stateMutability":"nonpayable"},{"type":"function","name":"initialize2","inputs":[{"name":"_router","type":"address","internalType":"address"},{"name":"_usdg","type":"address","internalType":"address"},{"name":"_priceFeed","type":"address","internalType":"address"},{"name":"_liquidationFeeUsd","type":"uint256","internalType":"uint256"},{"name":"_fundingRateFactor","type":"uint256","internalType":"uint256"},{"name":"_stableFundingRateFactor","type":"uint256","internalType":"uint256"}],"outputs":[],"stateMutability":"nonpayable"},{"type":"function","name":"isInitialized","inputs":[],"outputs":[{"name":"","type":"bool","internalType":"bool"}],"stateMutability":"view"},{"type":"function","name":"isLeverageEnabled","inputs":[],"outputs":[{"name":"","type":"bool","internalType":"bool"}],"stateMutability":"view"},{"type":"function","name":"isLiquidator","inputs":[{"name":"","type":"address","internalType":"address"}],"outputs":[{"name":"","type":"bool","internalType":"bool"}],"stateMutability":"view"},{"type":"function","name":"isManager","inputs":[{"name":"","type":"address","internalType":"address"}],"outputs":[{"name":"","type":"bool","internalType":"bool"}],"stateMutability":"view"},{"type":"function","name":"isSwapEnabled","inputs":[],"outputs":[{"name":"","type":"bool","internalType":"bool"}],"stateMutability":"view"},{"type":"function","name":"lastFundingTimes","inputs":[{"name":"","type":"address","internalType":"address"}],"outputs":[{"name":"","type":"uint256","internalType":"uint256"}],"stateMutability":"view"},{"type":"function","name":"liquidatePosition","inputs":[{"name":"_account","type":"address","internalType":"address"},{"name":"_collateralToken","type":"address","internalType":"address"},{"name":"_indexToken","type":"address","internalType":"address"},{"name":"_isLong","type":"bool","internalType":"bool"},{"name":"_feeReceiver","type":"address","internalType":"address"}],"outputs":[],"stateMutability":"nonpayable"},{"type":"function","name":"liquidationFeeUsd","inputs":[],"outputs":[{"name":"","type":"uint256","internalType":"uint256"}],"stateMutability":"view"},{"type":"function","name":"marginFeeBasisPoints","inputs":[],"outputs":[{"name":"","type":"uint256","internalType":"uint256"}],"stateMutability":"view"},{"type":"function","name":"maxGasPrice","inputs":[],"outputs":[{"name":"","type":"uint256","internalType":"uint256"}],"stateMutability":"view"},{"type":"function","name":"maxGlobalShortSizes","inputs":[{"name":"","type":"address","internalType":"address"}],"outputs":[{"name":"","type":"uint256","internalType":"uint256"}],"stateMutability":"view"},{"type":"function","name":"maxLeverage","inputs":[],"outputs":[{"name":"","type":"uint256","internalType":"uint256"}],"stateMutability":"view"},{"type":"function","name":"maxUsdgAmounts","inputs":[{"name":"","type":"address","internalType":"address"}],"outputs":[{"name":"","type":"uint256","internalType":"uint256"}],"stateMutability":"view"},{"type":"function","name":"minProfitBasisPoints","inputs":[{"name":"","type":"address","internalType":"address"}],"outputs":[{"name":"","type":"uint256","internalType":"uint256"}],"stateMutability":"view"},{"type":"function","name":"minProfitTime","inputs":[],"outputs":[{"name":"","type":"uint256","internalType":"uint256"}],"stateMutability":"view"},{"type":"function","name":"mintBurnFeeBasisPoints","inputs":[],"outputs":[{"name":"","type":"uint256","internalType":"uint256"}],"stateMutability":"view"},{"type":"function","name":"poolAmounts","inputs":[{"name":"","type":"address","internalType":"address"}],"outputs":[{"name":"","type":"uint256","internalType":"uint256"}],"stateMutability":"view"},{"type":"function","name":"positions","inputs":[{"name":"","type":"bytes32","internalType":"bytes32"}],"outputs":[{"name":"size","type":"uint256","internalType":"uint256"},{"name":"collateral","type":"uint256","internalType":"uint256"},{"name":"averagePrice","type":"uint256","internalType":"uint256"},{"name":"entryFundingRate","type":"uint256","internalType":"uint256"},{"name":"reserveAmount","type":"uint256","internalType":"uint256"},{"name":"realisedPnl","type":"int256","internalType":"int256"},{"name":"lastIncreasedTime","type":"uint256","internalType":"uint256"}],"stateMutability":"view"},{"type":"function","name":"priceFeed","inputs":[],"outputs":[{"name":"","type":"address","internalType":"address"}],"stateMutability":"view"},{"type":"function","name":"removeRouter","inputs":[{"name":"_router","type":"address","internalType":"address"}],"outputs":[],"stateMutability":"nonpayable"},{"type":"function","name":"reservedAmounts","inputs":[{"name":"","type":"address","internalType":"address"}],"outputs":[{"name":"","type":"uint256","internalType":"uint256"}],"stateMutability":"view"},{"type":"function","name":"router","inputs":[],"outputs":[{"name":"","type":"address","internalType":"address"}],"stateMutability":"view"},{"type":"function","name":"sellUSDG","inputs":[{"name":"_token","type":"address","internalType":"address"},{"name":"_receiver","type":"address","internalType":"address"}],"outputs":[{"name":"","type":"uint256","internalType":"uint256"}],"stateMutability":"nonpayable"},{"type":"function","name":"setBufferAmount","inputs":[{"name":"_token","type":"address","internalType":"address"},{"name":"_amount","type":"uint256","internalType":"uint256"}],"outputs":[],"stateMutability":"nonpayable"},{"type":"function","name":"setError","inputs":[{"name":"_errorCode","type":"uint256","internalType":"uint256"},{"name":"_error","type":"string","internalType":"string"}],"outputs":[],"stateMutability":"nonpayable"},{"type":"function","name":"setErrorController","inputs":[{"name":"_errorController","type":"address","internalType":"address"}],"outputs":[],"stateMutability":"nonpayable"},{"type":"function","name":"setFees","inputs":[{"name":"_taxBasisPoints","type":"uint256","internalType":"uint256"},{"name":"_stableTaxBasisPoints","type":"uint256","internalType":"uint256"},{"name":"_mintBurnFeeBasisPoints","type":"uint256","internalType":"uint256"},{"name":"_swapFeeBasisPoints","type":"uint256","internalType":"uint256"},{"name":"_stableSwapFeeBasisPoints","type":"uint256","internalType":"uint256"},{"name":"_marginFeeBasisPoints","type":"uint256","internalType":"uint256"},{"name":"_liquidationFeeUsd","type":"uint256","internalType":"uint256"},{"name":"_minProfitTime","type":"uint256","internalType":"uint256"},{"name":"_hasDynamicFees","type":"bool","internalType":"bool"}],"outputs":[],"stateMutability":"nonpayable"},{"type":"function","name":"setFundingRate","inputs":[{"name":"_fundingInterval","type":"uint256","internalType":"uint256"},{"name":"_fundingRateFactor","type":"uint256","internalType":"uint256"},{"name":"_stableFundingRateFactor","type":"uint256","internalType":"uint256"}],"outputs":[],"stateMutability":"nonpayable"},{"type":"function","name":"setGov","inputs":[{"name":"_gov","type":"address","internalType":"address"}],"outputs":[],"stateMutability":"nonpayable"},{"type":"function","name":"setGovWithDeadline","inputs":[{"name":"_gov","type":"address","internalType":"address"},{"name":"_deadline","type":"uint256","internalType":"uint256"}],"outputs":[],"stateMutability":"nonpayable"},{"type":"function","name":"setInManagerMode","inputs":[{"name":"_inManagerMode","type":"bool","internalType":"bool"}],"outputs":[],"stateMutability":"nonpayable"},{"type":"function","name":"setInPrivateLiquidationMode","inputs":[{"name":"_inPrivateLiquidationMode","type":"bool","internalType":"bool"}],"outputs":[],"stateMutability":"nonpayable"},{"type":"function","name":"setIsLeverageEnabled","inputs":[{"name":"_isLeverageEnabled","type":"bool","internalType":"bool"}],"outputs":[],"stateMutability":"nonpayable"},{"type":"function","name":"setIsSwapEnabled","inputs":[{"name":"_isSwapEnabled","type":"bool","internalType":"bool"}],"outputs":[],"stateMutability":"nonpayable"},{"type":"function","name":"setLiquidator","inputs":[{"name":"_liquidator","type":"address","internalType":"address"},{"name":"_isActive","type":"bool","internalType":"bool"}],"outputs":[],"stateMutability":"nonpayable"},{"type":"function","name":"setManager","inputs":[{"name":"_manager","type":"address","internalType":"address"},{"name":"_isManager","type":"bool","internalType":"bool"}],"outputs":[],"stateMutability":"nonpayable"},{"type":"function","name":"setMaxGasPrice","inputs":[{"name":"_maxGasPrice","type":"uint256","internalType":"uint256"}],"outputs":[],"stateMutability":"nonpayable"},{"type":"function","name":"setMaxGlobalShortSize","inputs":[{"name":"_token","type":"address","internalType":"address"},{"name":"_amount","type":"uint256","internalType":"uint256"}],"outputs":[],"stateMutability":"nonpayable"},{"type":"function","name":"setMaxLeverage","inputs":[{"name":"_maxLeverage","type":"uint256","internalType":"uint256"}],"outputs":[],"stateMutability":"nonpayable"},{"type":"function","name":"setPriceFeed","inputs":[{"name":"_priceFeed","type":"address","internalType":"address"}],"outputs":[],"stateMutability":"nonpayable"},{"type":"function","name":"setTokenConfig","inputs":[{"name":"_token","type":"address","internalType":"address"},{"name":"_tokenDecimals","type":"uint256","internalType":"uint256"},{"name":"_tokenWeight","type":"uint256","internalType":"uint256"},{"name":"_minProfitBps","type":"uint256","internalType":"uint256"},{"name":"_maxUsdgAmount","type":"uint256","internalType":"uint256"},{"name":"_isStable","type":"bool","internalType":"bool"},{"name":"_isShortable","type":"bool","internalType":"bool"}],"outputs":[],"stateMutability":"nonpayable"},{"type":"function","name":"setUsdgAmount","inputs":[{"name":"_token","type":"address","internalType":"address"},{"name":"_amount","type":"uint256","internalType":"uint256"}],"outputs":[],"stateMutability":"nonpayable"},{"type":"function","name":"setVaultUtils","inputs":[{"name":"_vaultUtils","type":"address","internalType":"contract IVaultUtils"}],"outputs":[],"stateMutability":"nonpayable"},{"type":"function","name":"shortableTokens","inputs":[{"name":"","type":"address","internalType":"address"}],"outputs":[{"name":"","type":"bool","internalType":"bool"}],"stateMutability":"view"},{"type":"function","name":"stableFundingRateFactor","inputs":[],"outputs":[{"name":"","type":"uint256","internalType":"uint256"}],"stateMutability":"view"},{"type":"function","name":"stableSwapFeeBasisPoints","inputs":[],"outputs":[{"name":"","type":"uint256","internalType":"uint256"}],"stateMutability":"view"},{"type":"function","name":"stableTaxBasisPoints","inputs":[],"outputs":[{"name":"","type":"uint256","internalType":"uint256"}],"stateMutability":"view"},{"type":"function","name":"stableTokens","inputs":[{"name":"","type":"address","internalType":"address"}],"outputs":[{"name":"","type":"bool","internalType":"bool"}],"stateMutability":"view"},{"type":"function","name":"swap","inputs":[{"name":"_tokenIn","type":"address","internalType":"address"},{"name":"_tokenOut","type":"address","internalType":"address"},{"name":"_receiver","type":"address","internalType":"address"}],"outputs":[{"name":"","type":"uint256","internalType":"uint256"}],"stateMutability":"nonpayable"},{"type":"function","name":"swapFeeBasisPoints","inputs":[],"outputs":[{"name":"","type":"uint256","internalType":"uint256"}],"stateMutability":"view"},{"type":"function","name":"taxBasisPoints","inputs":[],"outputs":[{"name":"","type":"uint256","internalType":"uint256"}],"stateMutability":"view"},{"type":"function","name":"tokenBalances","inputs":[{"name":"","type":"address","internalType":"address"}],"outputs":[{"name":"","type":"uint256","internalType":"uint256"}],"stateMutability":"view"},{"type":"function","name":"tokenDecimals","inputs":[{"name":"","type":"address","internalType":"address"}],"outputs":[{"name":"","type":"uint256","internalType":"uint256"}],"stateMutability":"view"},{"type":"function","name":"tokenToUsdMin","inputs":[{"name":"_token","type":"address","internalType":"address"},{"name":"_tokenAmount","type":"uint256","internalType":"uint256"}],"outputs":[{"name":"","type":"uint256","internalType":"uint256"}],"stateMutability":"view"},{"type":"function","name":"tokenWeights","inputs":[{"name":"","type":"address","internalType":"address"}],"outputs":[{"name":"","type":"uint256","internalType":"uint256"}],"stateMutability":"view"},{"type":"function","name":"totalTokenWeights","inputs":[],"outputs":[{"name":"","type":"uint256","internalType":"uint256"}],"stateMutability":"view"},{"type":"function","name":"updateCumulativeFundingRate","inputs":[{"name":"_collateralToken","type":"address","internalType":"address"},{"name":"_indexToken","type":"address","internalType":"address"}],"outputs":[],"stateMutability":"nonpayable"},{"type":"function","name":"upgradeVault","inputs":[{"name":"_newVault","type":"address","internalType":"address"},{"name":"_token","type":"address","internalType":"address"},{"name":"_amount","type":"uint256","internalType":"uint256"}],"outputs":[],"stateMutability":"nonpayable"},{"type":"function","name":"usdToToken","inputs":[{"name":"_token","type":"address","internalType":"address"},{"name":"_usdAmount","type":"uint256","internalType":"uint256"},{"name":"_price","type":"uint256","internalType":"uint256"}],"outputs":[{"name":"","type":"uint256","internalType":"uint256"}],"stateMutability":"view"},{"type":"function","name":"usdToTokenMax","inputs":[{"name":"_token","type":"address","internalType":"address"},{"name":"_usdAmount","type":"uint256","internalType":"uint256"}],"outputs":[{"name":"","type":"uint256","internalType":"uint256"}],"stateMutability":"view"},{"type":"function","name":"usdToTokenMin","inputs":[{"name":"_token","type":"address","internalType":"address"},{"name":"_usdAmount","type":"uint256","internalType":"uint256"}],"outputs":[{"name":"","type":"uint256","internalType":"uint256"}],"stateMutability":"view"},{"type":"function","name":"usdg","inputs":[],"outputs":[{"name":"","type":"address","internalType":"address"}],"stateMutability":"view"},{"type":"function","name":"usdgAmounts","inputs":[{"name":"","type":"address","internalType":"address"}],"outputs":[{"name":"","type":"uint256","internalType":"uint256"}],"stateMutability":"view"},{"type":"function","name":"useSwapPricing","inputs":[],"outputs":[{"name":"","type":"bool","internalType":"bool"}],"stateMutability":"view"},{"type":"function","name":"validateLiquidation","inputs":[{"name":"_account","type":"address","internalType":"address"},{"name":"_collateralToken","type":"address","internalType":"address"},{"name":"_indexToken","type":"address","internalType":"address"},{"name":"_isLong","type":"bool","internalType":"bool"},{"name":"_raise","type":"bool","internalType":"bool"}],"outputs":[{"name":"","type":"uint256","internalType":"uint256"},{"name":"","type":"uint256","internalType":"uint256"}],"stateMutability":"view"},{"type":"function","name":"vaultUtils","inputs":[],"outputs":[{"name":"","type":"address","internalType":"contract IVaultUtils"}],"stateMutability":"view"},{"type":"function","name":"whitelistedTokenCount","inputs":[],"outputs":[{"name":"","type":"uint256","internalType":"uint256"}],"stateMutability":"view"},{"type":"function","name":"whitelistedTokens","inputs":[{"name":"","type":"address","internalType":"address"}],"outputs":[{"name":"","type":"bool","internalType":"bool"}],"stateMutability":"view"},{"type":"function","name":"withdrawFees","inputs":[{"name":"_token","type":"address","internalType":"address"},{"name":"_receiver","type":"address","internalType":"address"}],"outputs":[{"name":"","type":"uint256","internalType":"uint256"}],"stateMutability":"nonpayable"},{"type":"event","name":"BufferAmountSet","inputs":[{"name":"token","type":"address","indexed":true,"internalType":"address"},{"name":"amount","type":"uint256","indexed":false,"internalType":"uint256"}],"anonymous":false},{"type":"event","name":"BuyUSDG","inputs":[{"name":"account","type":"address","indexed":false,"internalType":"address"},{"name":"token","type":"address","indexed":false,"internalType":"address"},{"name":"tokenAmount","type":"uint256","indexed":false,"internalType":"uint256"},{"name":"usdgAmount","type":"uint256","indexed":false,"internalType":"uint256"},{"name":"feeBasisPoints","type":"uint256","indexed":false,"internalType":"uint256"}],"anonymous":false},{"type":"event","name":"ClosePosition","inputs":[{"name":"key","type":"bytes32","indexed":false,"internalType":"bytes32"},{"name":"size","type":"uint256","indexed":false,"internalType":"uint256"},{"name":"collateral","type":"uint256","indexed":false,"internalType":"uint256"},{"name":"averagePrice","type":"uint256","indexed":false,"internalType":"uint256"},{"name":"entryFundingRate","type":"uint256","indexed":false,"internalType":"uint256"},{"name":"reserveAmount","type":"uint256","indexed":false,"internalType":"uint256"},{"name":"realisedPnl","type":"int256","indexed":false,"internalType":"int256"}],"anonymous":false},{"type":"event","name":"CollectMarginFees","inputs":[{"name":"token","type":"address","indexed":false,"internalType":"address"},{"name":"feeUsd","type":"uint256","indexed":false,"internalType":"uint256"},{"name":"feeTokens","type":"uint256","indexed":false,"internalType":"uint256"}],"anonymous":false},{"type":"event","name":"CollectSwapFees","inputs":[{"name":"token","type":"address","indexed":false,"internalType":"address"},{"name":"feeUsd","type":"uint256","indexed":false,"internalType":"uint256"},{"name":"feeTokens","type":"uint256","indexed":false,"internalType":"uint256"}],"anonymous":false},{"type":"event","name":"DecreaseGuaranteedUsd","inputs":[{"name":"token","type":"address","indexed":false,"internalType":"address"},{"name":"amount","type":"uint256","indexed":false,"internalType":"uint256"}],"anonymous":false},{"type":"event","name":"DecreasePoolAmount","inputs":[{"name":"token","type":"address","indexed":false,"internalType":"address"},{"name":"amount","type":"uint256","indexed":false,"internalType":"uint256"}],"anonymous":false},{"type":"event","name":"DecreasePosition","inputs":[{"name":"key","type":"bytes32","indexed":false,"internalType":"bytes32"},{"name":"account","type":"address","indexed":false,"internalType":"address"},{"name":"collateralToken","type":"address","indexed":false,"internalType":"address"},{"name":"indexToken","type":"address","indexed":false,"internalType":"address"},{"name":"collateralDelta","type":"uint256","indexed":false,"internalType":"uint256"},{"name":"sizeDelta","type":"uint256","indexed":false,"internalType":"uint256"},{"name":"isLong","type":"bool","indexed":false,"internalType":"bool"},{"name":"price","type":"uint256","indexed":false,"internalType":"uint256"},{"name":"fee","type":"uint256","indexed":false,"internalType":"uint256"}],"anonymous":false},{"type":"event","name":"DecreaseReservedAmount","inputs":[{"name":"token","type":"address","indexed":false,"internalType":"address"},{"name":"amount","type":"uint256","indexed":false,"internalType":"uint256"}],"anonymous":false},{"type":"event","name":"DecreaseUsdgAmount","inputs":[{"name":"token","type":"address","indexed":false,"internalType":"address"},{"name":"amount","type":"uint256","indexed":false,"internalType":"uint256"}],"anonymous":false},{"type":"event","name":"DirectPoolDeposit","inputs":[{"name":"token","type":"address","indexed":false,"internalType":"address"},{"name":"amount","type":"uint256","indexed":false,"internalType":"uint256"}],"anonymous":false},{"type":"event","name":"ErrorControllerSet","inputs":[{"name":"errorController","type":"address","indexed":false,"internalType":"address"}],"anonymous":false},{"type":"event","name":"ErrorSet","inputs":[{"name":"errorCode","type":"uint256","indexed":true,"internalType":"uint256"},{"name":"error","type":"string","indexed":false,"internalType":"string"}],"anonymous":false},{"type":"event","name":"FeesSet","inputs":[{"name":"taxBasisPoints","type":"uint256","indexed":false,"internalType":"uint256"},{"name":"stableTaxBasisPoints","type":"uint256","indexed":false,"internalType":"uint256"},{"name":"mintBurnFeeBasisPoints","type":"uint256","indexed":false,"internalType":"uint256"},{"name":"swapFeeBasisPoints","type":"uint256","indexed":false,"internalType":"uint256"},{"name":"stableSwapFeeBasisPoints","type":"uint256","indexed":false,"internalType":"uint256"},{"name":"marginFeeBasisPoints","type":"uint256","indexed":false,"internalType":"uint256"},{"name":"liquidationFeeUsd","type":"uint256","indexed":false,"internalType":"uint256"},{"name":"minProfitTime","type":"uint256","indexed":false,"internalType":"uint256"},{"name":"hasDynamicFees","type":"bool","indexed":false,"internalType":"bool"}],"anonymous":false},{"type":"event","name":"FeesWithdrawn","inputs":[{"name":"token","type":"address","indexed":true,"internalType":"address"},{"name":"receiver","type":"address","indexed":true,"internalType":"address"},{"name":"amount","type":"uint256","indexed":false,"internalType":"uint256"}],"anonymous":false},{"type":"event","name":"FundingRateSet","inputs":[{"name":"fundingInterval","type":"uint256","indexed":false,"internalType":"uint256"},{"name":"fundingRateFactor","type":"uint256","indexed":false,"internalType":"uint256"},{"name":"stableFundingRateFactor","type":"uint256","indexed":false,"internalType":"uint256"}],"anonymous":false},{"type":"event","name":"GovProposalCanceled","inputs":[{"name":"proposedGov","type":"address","indexed":true,"internalType":"address"},{"name":"canceledBy","type":"address","indexed":true,"internalType":"address"}],"anonymous":false},{"type":"event","name":"GovernanceTransferRequested","inputs":[{"name":"newGov","type":"address","indexed":true,"internalType":"address"},{"name":"deadline","type":"uint256","indexed":false,"internalType":"uint256"}],"anonymous":false},{"type":"event","name":"GovernanceTransferred","inputs":[{"name":"oldGov","type":"address","indexed":true,"internalType":"address"},{"name":"newGov","type":"address","indexed":true,"internalType":"address"}],"anonymous":false},{"type":"event","name":"InManagerModeSet","inputs":[{"name":"inManagerMode","type":"bool","indexed":false,"internalType":"bool"}],"anonymous":false},{"type":"event","name":"InPrivateLiquidationModeSet","inputs":[{"name":"inPrivateLiquidationMode","type":"bool","indexed":false,"internalType":"bool"}],"anonymous":false},{"type":"event","name":"IncreaseGuaranteedUsd","inputs":[{"name":"token","type":"address","indexed":false,"internalType":"address"},{"name":"amount","type":"uint256","indexed":false,"internalType":"uint256"}],"anonymous":false},{"type":"event","name":"IncreasePoolAmount","inputs":[{"name":"token","type":"address","indexed":false,"internalType":"address"},{"name":"amount","type":"uint256","indexed":false,"internalType":"uint256"}],"anonymous":false},{"type":"event","name":"IncreasePosition","inputs":[{"name":"key","type":"bytes32","indexed":false,"internalType":"bytes32"},{"name":"account","type":"address","indexed":false,"internalType":"address"},{"name":"collateralToken","type":"address","indexed":false,"internalType":"address"},{"name":"indexToken","type":"address","indexed":false,"internalType":"address"},{"name":"collateralDelta","type":"uint256","indexed":false,"internalType":"uint256"},{"name":"sizeDelta","type":"uint256","indexed":false,"internalType":"uint256"},{"name":"isLong","type":"bool","indexed":false,"internalType":"bool"},{"name":"price","type":"uint256","indexed":false,"internalType":"uint256"},{"name":"fee","type":"uint256","indexed":false,"internalType":"uint256"}],"anonymous":false},{"type":"event","name":"IncreaseReservedAmount","inputs":[{"name":"token","type":"address","indexed":false,"internalType":"address"},{"name":"amount","type":"uint256","indexed":false,"internalType":"uint256"}],"anonymous":false},{"type":"event","name":"IncreaseUsdgAmount","inputs":[{"name":"token","type":"address","indexed":false,"internalType":"address"},{"name":"amount","type":"uint256","indexed":false,"internalType":"uint256"}],"anonymous":false},{"type":"event","name":"IsLeverageEnabledSet","inputs":[{"name":"isLeverageEnabled","type":"bool","indexed":false,"internalType":"bool"}],"anonymous":false},{"type":"event","name":"IsSwapEnabledSet","inputs":[{"name":"isSwapEnabled","type":"bool","indexed":false,"internalType":"bool"}],"anonymous":false},{"type":"event","name":"LiquidatePosition","inputs":[{"name":"key","type":"bytes32","indexed":false,"internalType":"bytes32"},{"name":"account","type":"address","indexed":false,"internalType":"address"},{"name":"collateralToken","type":"address","indexed":false,"internalType":"address"},{"name":"indexToken","type":"address","indexed":false,"internalType":"address"},{"name":"isLong","type":"bool","indexed":false,"internalType":"bool"},{"name":"size","type":"uint256","indexed":false,"internalType":"uint256"},{"name":"collateral","type":"uint256","indexed":false,"internalType":"uint256"},{"name":"reserveAmount","type":"uint256","indexed":false,"internalType":"uint256"},{"name":"realisedPnl","type":"int256","indexed":false,"internalType":"int256"},{"name":"markPrice","type":"uint256","indexed":false,"internalType":"uint256"}],"anonymous":false},{"type":"event","name":"LiquidatorSet","inputs":[{"name":"liquidator","type":"address","indexed":true,"internalType":"address"},{"name":"isActive","type":"bool","indexed":false,"internalType":"bool"}],"anonymous":false},{"type":"event","name":"ManagerSet","inputs":[{"name":"manager","type":"address","indexed":true,"internalType":"address"},{"name":"isManager","type":"bool","indexed":false,"internalType":"bool"}],"anonymous":false},{"type":"event","name":"MaxGasPriceSet","inputs":[{"name":"maxGasPrice","type":"uint256","indexed":false,"internalType":"uint256"}],"anonymous":false},{"type":"event","name":"MaxGlobalShortSizeSet","inputs":[{"name":"token","type":"address","indexed":true,"internalType":"address"},{"name":"amount","type":"uint256","indexed":false,"internalType":"uint256"}],"anonymous":false},{"type":"event","name":"MaxLeverageSet","inputs":[{"name":"maxLeverage","type":"uint256","indexed":false,"internalType":"uint256"}],"anonymous":false},{"type":"event","name":"PriceFeedSet","inputs":[{"name":"priceFeed","type":"address","indexed":false,"internalType":"address"}],"anonymous":false},{"type":"event","name":"RouterAdded","inputs":[{"name":"account","type":"address","indexed":true,"internalType":"address"},{"name":"router","type":"address","indexed":true,"internalType":"address"}],"anonymous":false},{"type":"event","name":"RouterRemoved","inputs":[{"name":"account","type":"address","indexed":true,"internalType":"address"},{"name":"router","type":"address","indexed":true,"internalType":"address"}],"anonymous":false},{"type":"event","name":"SellUSDG","inputs":[{"name":"account","type":"address","indexed":false,"internalType":"address"},{"name":"token","type":"address","indexed":false,"internalType":"address"},{"name":"usdgAmount","type":"uint256","indexed":false,"internalType":"uint256"},{"name":"tokenAmount","type":"uint256","indexed":false,"internalType":"uint256"},{"name":"feeBasisPoints","type":"uint256","indexed":false,"internalType":"uint256"}],"anonymous":false},{"type":"event","name":"Swap","inputs":[{"name":"account","type":"address","indexed":false,"internalType":"address"},{"name":"tokenIn","type":"address","indexed":false,"internalType":"address"},{"name":"tokenOut","type":"address","indexed":false,"internalType":"address"},{"name":"amountIn","type":"uint256","indexed":false,"internalType":"uint256"},{"name":"amountOut","type":"uint256","indexed":false,"internalType":"uint256"},{"name":"amountOutAfterFees","type":"uint256","indexed":false,"internalType":"uint256"},{"name":"feeBasisPoints","type":"uint256","indexed":false,"internalType":"uint256"}],"anonymous":false},{"type":"event","name":"TokenConfigCleared","inputs":[{"name":"token","type":"address","indexed":true,"internalType":"address"}],"anonymous":false},{"type":"event","name":"TokenConfigSet","inputs":[{"name":"token","type":"address","indexed":true,"internalType":"address"},{"name":"tokenDecimals","type":"uint256","indexed":false,"internalType":"uint256"},{"name":"tokenWeight","type":"uint256","indexed":false,"internalType":"uint256"},{"name":"minProfitBps","type":"uint256","indexed":false,"internalType":"uint256"},{"name":"maxUsdgAmount","type":"uint256","indexed":false,"internalType":"uint256"},{"name":"isStable","type":"bool","indexed":false,"internalType":"bool"},{"name":"isShortable","type":"bool","indexed":false,"internalType":"bool"}],"anonymous":false},{"type":"event","name":"UpdateFundingRate","inputs":[{"name":"token","type":"address","indexed":false,"internalType":"address"},{"name":"fundingRate","type":"uint256","indexed":false,"internalType":"uint256"}],"anonymous":false},{"type":"event","name":"UpdatePnl","inputs":[{"name":"key","type":"bytes32","indexed":false,"internalType":"bytes32"},{"name":"hasProfit","type":"bool","indexed":false,"internalType":"bool"},{"name":"delta","type":"uint256","indexed":false,"internalType":"uint256"}],"anonymous":false},{"type":"event","name":"UpdatePosition","inputs":[{"name":"key","type":"bytes32","indexed":false,"internalType":"bytes32"},{"name":"size","type":"uint256","indexed":false,"internalType":"uint256"},{"name":"collateral","type":"uint256","indexed":false,"internalType":"uint256"},{"name":"averagePrice","type":"uint256","indexed":false,"internalType":"uint256"},{"name":"entryFundingRate","type":"uint256","indexed":false,"internalType":"uint256"},{"name":"reserveAmount","type":"uint256","indexed":false,"internalType":"uint256"},{"name":"realisedPnl","type":"int256","indexed":false,"internalType":"int256"},{"name":"markPrice","type":"uint256","indexed":false,"internalType":"uint256"}],"anonymous":false},{"type":"event","name":"UsdgAmountSet","inputs":[{"name":"token","type":"address","indexed":true,"internalType":"address"},{"name":"amount","type":"uint256","indexed":false,"internalType":"uint256"}],"anonymous":false},{"type":"event","name":"VaultUpgraded","inputs":[{"name":"newVault","type":"address","indexed":true,"internalType":"address"},{"name":"token","type":"address","indexed":true,"internalType":"address"},{"name":"amount","type":"uint256","indexed":false,"internalType":"uint256"}],"anonymous":false},{"type":"event","name":"VaultUtilsSet","inputs":[{"name":"vaultUtils","type":"address","indexed":false,"internalType":"address"}],"anonymous":false}],"bytecode":{"object":"0x608060405234801561001057600080fd5b5061691c80620000216000396000f3fe608060405234801561001057600080fd5b50600436106105c55760003560e01c8063870d917c116102ff578063c7e074c31161019a578063c7e074c3146112a2578063cea0c328146112e2578063cfad57a214611318578063d2fa635e1461133e578063d3127e631461135b578063d54d5a9f14611378578063d66b000d146113d7578063d8f897c314611403578063d9ac422514611429578063da76524c14611431578063daf9c2101461147b578063db3555fb146114a1578063db97495f146114c7578063dc8f5fac14611513578063de2ea9481461151b578063df73a26714611563578063e124e6d21461156b578063e468baf014611591578063e67f59a7146115ae578063efa10a6e146115d4578063f07456ce14611600578063f07bbf7714611626578063f1675a8b14611645578063f25552781461168d578063f3ae2415146116bb578063f5b91b7b146116e1578063f887ea40146116e9578063fa12dbc0146116f1578063fbfded6d14611723578063fce28c1014611751578063fdaf6ac314611759578063fed1a6061461179d576105c5565b8063870d917c14610ed457806388b1fbdf14610edc5780638a27d46814610f025780638a39735a146106465780638a78daa814610f2b5780638d0fedb014610f515780638ee573ac14610f905780638f7b840414610fb65780639060b1ca14610fdc5780639331621214610fe457806395082d251461101c5780639698d25a146110245780639849e4121461104a5780639899cd02146110525780639c35b4971461107e5780639d7432ca146110a45780639f392eb3146110d6578063a22f2392146110de578063a42ab3d2146110e6578063a5e90eee14611112578063a93acac214611140578063ab08c1c614611166578063ab2f3ad41461116e578063ad1e4f8d14611194578063ae3302c2146111ba578063b06423f3146111c2578063b136ca49146111ca578063b1cc53ab146111f0578063b364accb14611228578063c3c7b9e91461124e578063c4f718bf14611274578063c65bc7b11461127c576105c5565b806345a6f3701161046f57806345a6f370146109ca57806348d91abf14610a2357806348f35cbb14610a675780634a3f088d14610a6f5780634a993ee914610af05780634befe2ca14610b165780634d47b30414610b1e578063514ea4bf14610b2657806351723e8214610b7b578063523fba7f14610bb9578063529a356f14610bdf57806352f55eed14610c055780635c07eaab14610c2b5780635f7bc11914610c6b5780636092219914610c9157806362287a3214610cbf5780636274980314610cc75780636abbe0c814610ced5780636ae0b15414610cf55780636bb22fd714610d1b5780636be6026b14610d4757806371089f4d14610d4f578063711e619014610d75578063724e78da14610da3578063741bef1a14610dc95780637a210a2b14610dd15780637bc6729b14610dd95780637c2eb9f714610de1578063817bb85714610e0057806381a612d614610e2e57806382a0849014610e545780638585f4d214610ea8576105c5565b806304fef1db146105ca57806307c58752146106025780630842b0761461060a5780630a48d5a91461061257806310eb56c21461063e578063126082cf1461064657806312d43a511461064e578063134ca63b14610672578063174d26941461067a578063181e210e146106825780631aa4ace51461069e5780631ce9cb8f146106c457806324b0c04d146106ea57806324ca984e1461070b57806328e67be51461073157806329ff9615146107a65780632c668ec1146107cc5780632d4b0576146107f857806330455ede14610836578063318bc6891461085557806334c1557d14610646578063351a964d1461085d578063392e53cd146108655780633a05dcc11461086d5780633c5a6e35146108935780633de39c11146108e15780633e72a262146108e957806340eb3802146108f1578063421528731461094257806342b60b03146109765780634453a3741461099c575b600080fd5b6105f0600480360360208110156105e057600080fd5b50356001600160a01b031661182f565b60408051918252519081900360200190f35b6105f0611892565b6105f06118a3565b6105f06004803603604081101561062857600080fd5b506001600160a01b0381351690602001356118a9565b6105f06118fc565b6105f0611902565b610656611908565b604080516001600160a01b039092168252519081900360200190f35b6105f0611917565b6105f061191d565b61068a611923565b604080519115158252519081900360200190f35b6105f0600480360360208110156106b457600080fd5b50356001600160a01b0316611933565b6105f0600480360360208110156106da57600080fd5b50356001600160a01b0316611945565b6107096004803603602081101561070057600080fd5b50351515611957565b005b6107096004803603602081101561072157600080fd5b50356001600160a01b03166119b0565b6107096004803603604081101561074757600080fd5b81359190810190604081016020820135600160201b81111561076857600080fd5b82018360208201111561077a57600080fd5b803590602001918460018302840111600160201b8311171561079b57600080fd5b509092509050611a09565b6105f0600480360360208110156107bc57600080fd5b50356001600160a01b0316611ae8565b6105f0600480360360408110156107e257600080fd5b506001600160a01b038135169060200135611afc565b6105f06004803603608081101561080e57600080fd5b506001600160a01b038135811691602081013582169160408201351690606001351515611b41565b6107096004803603602081101561084c57600080fd5b50351515611b97565b6105f0611bee565b61068a611bf4565b61068a611c02565b6105f06004803603602081101561088357600080fd5b50356001600160a01b0316611c0b565b610709600480360360e08110156108a957600080fd5b506001600160a01b038135169060208101359060408101359060608101359060808101359060a081013515159060c001351515611ccb565b6105f0611e71565b61068a611e77565b610709600480360361012081101561090857600080fd5b5080359060208101359060408101359060608101359060808101359060a08101359060c08101359060e08101359061010001351515611e86565b6105f06004803603606081101561095857600080fd5b508035906001600160a01b0360208201358116916040013516611fba565b61068a6004803603602081101561098c57600080fd5b50356001600160a01b031661205c565b610709600480360360408110156109b257600080fd5b506001600160a01b0381351690602001351515612070565b610a08600480360360808110156109e057600080fd5b506001600160a01b0381358116916020810135821691604082013516906060013515156120d8565b60408051921515835260208301919091528051918290030190f35b610709600480360360a0811015610a3957600080fd5b506001600160a01b038135811691602081013582169160408201351690606081013590608001351515612176565b610656612642565b610aad60048036036080811015610a8557600080fd5b506001600160a01b038135811691602081013582169160408201351690606001351515612651565b604080519889526020890197909752878701959095526060870193909352608086019190915260a0850152151560c084015260e083015251908190036101000190f35b6105f060048036036020811015610b0657600080fd5b50356001600160a01b0316612747565b6105f0612759565b6105f061275f565b610b4360048036036020811015610b3c57600080fd5b5035612765565b604080519788526020880196909652868601949094526060860192909252608085015260a084015260c0830152519081900360e00190f35b6105f060048036036080811015610b9157600080fd5b506001600160a01b0381358116916020810135821691604082013516906060013515156127a2565b6105f060048036036020811015610bcf57600080fd5b50356001600160a01b0316612848565b61068a60048036036020811015610bf557600080fd5b50356001600160a01b031661285a565b6105f060048036036020811015610c1b57600080fd5b50356001600160a01b031661286f565b610a08600480360360a0811015610c4157600080fd5b506001600160a01b0381351690602081013590604081013590606081013515159060800135612881565b61070960048036036020811015610c8157600080fd5b50356001600160a01b0316612979565b61068a60048036036040811015610ca757600080fd5b506001600160a01b0381358116916020013516612a5c565b6105f0612a7c565b6105f060048036036020811015610cdd57600080fd5b50356001600160a01b0316612a82565b610656612a94565b61070960048036036020811015610d0b57600080fd5b50356001600160a01b0316612aaa565b61070960048036036040811015610d3157600080fd5b506001600160a01b038135169060200135612b00565b6105f0612b49565b61070960048036036020811015610d6557600080fd5b50356001600160a01b0316612b50565b6105f060048036036040811015610d8b57600080fd5b506001600160a01b0381358116916020013516612bb8565b61070960048036036020811015610db957600080fd5b50356001600160a01b0316612e4c565b610656612ea8565b6105f0612eb7565b610709612ebd565b61070960048036036020811015610df757600080fd5b50351515612f60565b6105f060048036036040811015610e1657600080fd5b506001600160a01b0381358116916020013516612fb9565b6105f060048036036020811015610e4457600080fd5b50356001600160a01b0316613289565b6105f0600480360360e0811015610e6a57600080fd5b506001600160a01b0381358116916020810135821691604082013581169160608101359160808201359160a081013515159160c09091013516613334565b61070960048036036040811015610ebe57600080fd5b506001600160a01b0381351690602001356133b2565b6105f061340e565b6105f060048036036020811015610ef257600080fd5b50356001600160a01b0316613413565b61070960048036036060811015610f1857600080fd5b5080359060208101359060400135613425565b6105f060048036036020811015610f4157600080fd5b50356001600160a01b03166134b1565b610f7760048036036020811015610f6757600080fd5b50356001600160a01b03166134c3565b6040805192835290151560208301528051918290030190f35b6105f060048036036020811015610fa657600080fd5b50356001600160a01b03166134df565b61070960048036036020811015610fcc57600080fd5b50356001600160a01b03166134f1565b61068a61354d565b6105f060048036036060811015610ffa57600080fd5b506001600160a01b03813581169160208101358216916040909101351661355c565b6105f0613844565b6105f06004803603602081101561103a57600080fd5b50356001600160a01b0316613854565b6105f0613866565b6105f06004803603604081101561106857600080fd5b506001600160a01b03813516906020013561386c565b6107096004803603602081101561109457600080fd5b50356001600160a01b031661388e565b6105f0600480360360608110156110ba57600080fd5b506001600160a01b038135169060208101359060400135613911565b61068a6139ba565b6105f06139c3565b6105f0600480360360408110156110fc57600080fd5b506001600160a01b0381351690602001356139c9565b6107096004803603604081101561112857600080fd5b506001600160a01b03813516906020013515156139e6565b6105f06004803603602081101561115657600080fd5b50356001600160a01b0316613a4e565b61068a613b4b565b6105f06004803603602081101561118457600080fd5b50356001600160a01b0316613b54565b6105f0600480360360208110156111aa57600080fd5b50356001600160a01b0316613b66565b6105f0613b78565b61068a613b7e565b6105f0600480360360208110156111e057600080fd5b50356001600160a01b0316613b8c565b6105f06004803603606081101561120657600080fd5b506001600160a01b038135811691602081013590911690604001351515613c2c565b610a086004803603602081101561123e57600080fd5b50356001600160a01b0316613cc7565b6105f06004803603602081101561126457600080fd5b50356001600160a01b0316613d5f565b6105f0613d71565b6105f06004803603602081101561129257600080fd5b50356001600160a01b0316613d77565b6105f0600480360360a08110156112b857600080fd5b506001600160a01b0381351690602081013590604081013590606081013590608001351515613d89565b610709600480360360608110156112f857600080fd5b506001600160a01b03813581169160208101359091169060400135613e33565b6107096004803603602081101561132e57600080fd5b50356001600160a01b0316613e9f565b6107096004803603602081101561135457600080fd5b5035613ee9565b6107096004803603602081101561137157600080fd5b5035613f2c565b6113be600480360360a081101561138e57600080fd5b506001600160a01b0381358116916020810135821691604082013516906060810135151590608001351515613f7e565b6040805192835260208301919091528051918290030190f35b610709600480360360408110156113ed57600080fd5b506001600160a01b038135169060200135614035565b6105f06004803603602081101561141957600080fd5b50356001600160a01b031661410d565b6105f061411f565b6105f0600480360360c081101561144757600080fd5b506001600160a01b038135811691602081013582169160408201351690606081013515159060808101359060a00135614125565b61068a6004803603602081101561149157600080fd5b50356001600160a01b03166141d9565b61068a600480360360208110156114b757600080fd5b50356001600160a01b03166141ee565b6105f0600480360360e08110156114dd57600080fd5b506001600160a01b0381351690602081013590604081013590606081013515159060808101359060a08101359060c00135614203565b6105f0614294565b610709600480360360a081101561153157600080fd5b506001600160a01b0381358116916020810135821691604082013581169160608101351515916080909101351661429a565b6105f0614672565b6105f06004803603602081101561158157600080fd5b50356001600160a01b0316614678565b610656600480360360208110156115a757600080fd5b50356146f0565b610709600480360360208110156115c457600080fd5b50356001600160a01b0316614717565b610709600480360360408110156115ea57600080fd5b506001600160a01b03813516906020013561481f565b6105f06004803603602081101561161657600080fd5b50356001600160a01b031661487b565b6107096004803603602081101561163c57600080fd5b5035151561488d565b610709600480360360c081101561165b57600080fd5b506001600160a01b03813581169160208101358216916040820135169060608101359060808101359060a001356148e8565b6105f0600480360360408110156116a357600080fd5b506001600160a01b03813581169160200135166149bb565b61068a600480360360208110156116d157600080fd5b50356001600160a01b0316614a63565b610656614a78565b610656614a87565b6105f06004803603606081101561170757600080fd5b506001600160a01b038135169060208101359060400135614a96565b6107096004803603604081101561173957600080fd5b506001600160a01b0381358116916020013516614ad0565b6105f0614ca9565b6105f0600480360360a081101561176f57600080fd5b506001600160a01b038135811691602081013582169160408201351690606081013515159060800135614caf565b6117ba600480360360208110156117b357600080fd5b5035614d25565b6040805160208082528351818301528351919283929083019185019080838360005b838110156117f45781810151838201526020016117dc565b50505050905090810190601f1680156118215780820380516001836020036101000a031916815260200191505b509250505060405180910390f35b6001600160a01b0381166000908152602660205260408120548061185757600091505061188d565b6001600160a01b03831660009081526027602052604090205461188990829061188390620f4240614dc0565b90614e19565b9150505b919050565b6904ee2d6d415b85acef8160201b81565b601c5490565b6000816118b8575060006118f6565b60006118c384613289565b6001600160a01b0385166000908152601e60205260409020549091506118f1600a82900a6118838685614dc0565b925050505b92915050565b600c5481565b61271081565b6006546001600160a01b031681565b60155481565b600a5481565b6017546301000000900460ff1681565b60246020526000908152604090205481565b602d6020526000908152604090205481565b61195f614e58565b6017805482151562010000810262ff0000199092169190911790915560408051918252517f8604225322a778d88a29d67c7bfdcc2ee389c4ffee90401fed0c893995f64e4c9181900360200190a150565b3360008181526019602090815260408083206001600160a01b0386168085529252808320805460ff19166001179055519092917fbc68405e644da2aaf25623ce2199da82c6dfd2e1de102b400eba6a091704d4f491a350565b6002546001600160a01b03163314611a68576040805162461bcd60e51b815260206004820152601e60248201527f5661756c743a20696e76616c6964206572726f72436f6e74726f6c6c65720000604482015290519081900360640190fd5b6000838152603160205260409020611a819083836167ab565b50827fcfec2a57418bef8eb60569540c9ad6089804190b2a3da58a7240458e73860f53838360405180806020018281038252848482818152602001925080828437600083820152604051601f909101601f19169092018290039550909350505050a2505050565b60006118f682611af784613b8c565b6118a9565b600080611b0884614678565b90506000611b26826118838668327cb2734119d3b7a9601e1b614dc0565b6005549091506118f19082906001600160a01b031687611fba565b604080516001600160601b0319606096871b811660208084019190915295871b811660348301529390951b9092166048850152151560f81b605c8401528051603d818503018152605d9093019052815191012090565b611b9f614e58565b60018054821515610100810261ff00199092169190911790915560408051918252517f8e47cf548a9fa1b6e80d28aa245ff6db6e7f1b88aff2beedeb5c494d604a5aa09181900360200190a150565b60105481565b600154610100900460ff1681565b60015460ff1681565b600080600560009054906101000a90046001600160a01b03166001600160a01b03166318160ddd6040518163ffffffff1660e01b815260040160206040518083038186803b158015611c5c57600080fd5b505afa158015611c70573d6000803e3d6000fd5b505050506040513d6020811015611c8657600080fd5b5051905080611c9957600091505061188d565b6001600160a01b038316600090815260236020526040902054601654611cc3906118838385614dc0565b949350505050565b611cd3614e58565b6001600160a01b0387166000908152601d602052604090205460ff16611d5057600854611d01906001614e73565b600855601c80546001810182556000919091527f0e4562a10381dec21b205ed72637e6b1b523bdd0e4d4d50af5cd23dd4500a2110180546001600160a01b0319166001600160a01b0389161790555b6016546001600160a01b038816600090815260236020526040902054611d77908290614ecb565b6001600160a01b0389166000908152601d602090815260408083208054600160ff1991821617909155601e83528184208c9055602383528184208b9055601f83528184208a90556025835281842089905582805281842080548216891515179055602190925290912080549091168415151790559050611df78187614e73565b601655611e0388614678565b50604080518881526020810188905280820187905260608101869052841515608082015283151560a082015290516001600160a01b038a16917f440e80ddfc94cac3c5f71d1f565167ab3b690c79425a1ead709e08984f5f8cd0919081900360c00190a25050505050505050565b60185481565b60015462010000900460ff1681565b611e8e614e58565b611e9e6101f48a11156003614f0d565b611eae6101f48911156004614f0d565b611ebe6101f48811156005614f0d565b611ece6101f48711156006614f0d565b611ede6101f48611156007614f0d565b611eee6101f48511156008614f0d565b611f096904ee2d6d415b85acef8160201b8411156009614f0d565b600b899055600c889055600d879055600e869055600f8590556010849055600a83905560118290556012805482151560ff199091168117909155604080518b8152602081018b90528082018a9052606081018990526080810188905260a0810187905260c0810186905260e08101859052610100810192909252517f233feadc526a0cc39f70b747d25c6843b9ae49f35500485f106eb585d20d185c918190036101200190a1505050505050505050565b60055460009081906001600160a01b03858116911614611ff2576001600160a01b0384166000908152601e6020526040902054611ff5565b60125b6005549091506000906001600160a01b0385811691161461202e576001600160a01b0384166000908152601e6020526040902054612031565b60125b905061205082600a0a61188383600a0a89614dc090919063ffffffff16565b925050505b9392505050565b602080526000908152604090205460ff1681565b612078614e58565b6001600160a01b0382166000818152601a6020908152604091829020805460ff1916851515908117909155825190815291517f81e020344174972c59f6c11a8f6c90b141866214e3d9b544d030f0b532f5a10f9281900390910190a25050565b60008060006120e987878787611b41565b90506120f3616829565b506000818152602c6020908152604091829020825160e081018452815480825260018301549382019390935260028201549381018490526003820154606082015260048201546080820152600582015460a082015260069091015460c0820181905290926121679289929091908990612881565b93509350505094509492505050565b600260005414156121bc576040805162461bcd60e51b815260206004820152601f602482015260008051602061687c833981519152604482015290519081900360640190fd5b60026000556001546121d89062010000900460ff16601c614f0d565b6121e0614fbe565b6121e985614fda565b6121f484848361503a565b60015460408051634eae147d60e11b81526001600160a01b038881166004830152878116602483015286811660448301526064820186905284151560848301529151630100000090930490911691639d5c28fa9160a480820192600092909190829003018186803b15801561226857600080fd5b505afa15801561227c573d6000803e3d6000fd5b5050505061228a8484614ad0565b600061229886868685611b41565b6000818152602c60205260408120919250836122bc576122b786613289565b6122c5565b6122c586614678565b8254909150612363576002820181905560015460408051632339ab6b60e21b8152600481018690526001600160a01b038b811660248301528a81166044830152898116606483015287151560848301529151630100000090930490911691638ce6adac9160a48082019260009290919082900301818387803b15801561234a57600080fd5b505af115801561235e573d6000803e3d6000fd5b505050505b8154158015906123735750600085115b1561239957612393868360000154846002015487858a8860060154614203565b60028301555b60006123b2898989888a8860000154896003015461514d565b905060006123bf8961521b565b905060006123cd8a836118a9565b60018601549091506123df9082614e73565b600186018190556123f490841115601d614f0d565b60018501546124039084614ecb565b60018601556124138a8a89613c2c565b600386015584546124249089614e73565b80865542600687015561243a901515601e614f0d565b61244c856000015486600101546152c8565b61245a8b8b8b8a6001613f7e565b505060006124688b8a6139c9565b600487015490915061247a9082614e73565b60048701556124898b826152ec565b87156124ce576124a28b61249d8b87614e73565b61538c565b6124ac8b8361540b565b6124b68b8461548a565b6124c98b6124c48d8761386c565b6155a2565b61253a565b6001600160a01b038a166000908152602e602052604090205461250b576001600160a01b038a166000908152602f60205260409020859055612530565b6125168a868b613911565b6001600160a01b038b166000908152602f60205260409020555b61253a8a8a61566c565b604080518881526001600160a01b03808f166020830152808e16828401528c1660608201526080810184905260a081018b905289151560c082015260e08101879052610100810186905290517f2fe68525253654c21998f35787a8d0f361905ef647c854092430ab65f2f15022918190036101200190a1855460018701546002880154600389015460048a015460058b0154604080518e81526020810197909752868101959095526060860193909352608085019190915260a084015260c083015260e08201879052517f20853733b590dce729d9f4628682ebd9a34d2354e72679e66f43a008fc03b773918190036101000190a15050600160005550505050505050505050565b6002546001600160a01b031681565b600080600080600080600080600061266b8d8d8d8d611b41565b9050612675616829565b602c60008381526020019081526020016000206040518060e001604052908160008201548152602001600182015481526020016002820154815260200160038201548152602001600482015481526020016005820154815260200160068201548152505090506000808260a00151136126f5578160a001516000036126fb565b8160a001515b9050816000015182602001518360400151846060015185608001518560008860a0015112158860c001519a509a509a509a509a509a509a509a5050505094995094995094999196509450565b60286020526000908152604090205481565b6101f481565b600d5481565b602c602052600090815260409020805460018201546002830154600384015460048501546005860154600690960154949593949293919290919087565b6000806127b186868686611b41565b90506127bb616829565b506000818152602c6020908152604091829020825160e0810184528154815260018201549281018390526002820154938101939093526003810154606084015260048101546080840152600581015460a08401526006015460c08301526128259015156025614f0d565b6020810151815161283d919061188390612710614dc0565b979650505050505050565b60226020526000908152604090205481565b601a6020526000908152604090205460ff1681565b60266020526000908152604090205481565b600080612892600086116026614f0d565b6000846128a7576128a288614678565b6128b0565b6128b088613289565b905060008187116128ca576128c58288614ecb565b6128d4565b6128d48783614ecb565b905060006128e6886118838b85614dc0565b9050600087156128f957508783116128fe565b508288115b600061291560115489614e7390919063ffffffff16565b4211612939576001600160a01b038c166000908152601f602052604090205461293c565b60005b905081801561295f57506129508b82614dc0565b61295c84612710614dc0565b11155b1561296957600092505b509a909950975050505050505050565b600260005414156129bf576040805162461bcd60e51b815260206004820152601f602482015260008051602061687c833981519152604482015290519081900360640190fd5b600260009081556001600160a01b0382168152601d60205260409020546129ea9060ff16600e614f0d565b60006129f58261521b565b9050612a0560008211600f614f0d565b612a0f828261548a565b604080516001600160a01b03841681526020810183905281517fa5a389190ebf6170a133bda5c769b77f4d6715b8aa172ec0ddf8473d0b4944bd929181900390910190a150506001600055565b601960209081526000928352604080842090915290825290205460ff1681565b60085481565b602f6020526000908152604090205481565b600154630100000090046001600160a01b031681565b3360008181526019602090815260408083206001600160a01b0386168085529252808320805460ff19169055519092917fbee3e974bb6a6f44f20096ede047c191eef60322e65e4ee4bd3392230a8716d591a350565b612b08614e58565b612b1e6001600160a01b03831615156038614f0d565b600654612b3b906001600160a01b03848116911614156039614f0d565b612b45828261571b565b5050565b620f424081565b612b58614e58565b600180546001600160a01b038316630100000081026301000000600160b81b03199092169190911790915560408051918252517fc396cb6d9f905e4303c2e7dceef2ae57b3175fea77537bfc2354babe808831ed9181900360200190a150565b600060026000541415612c00576040805162461bcd60e51b815260206004820152601f602482015260008051602061687c833981519152604482015290519081900360640190fd5b6002600055612c0d615797565b6001600160a01b0383166000908152601d6020526040902054612c349060ff166013614f0d565b6017805461ff001916610100179055600554600090612c5b906001600160a01b031661521b565b9050612c6b600082116014614f0d565b612c758485614ad0565b6000612c818583611afc565b9050612c91600082116015614f0d565b612c9b85836157c6565b612ca585826155a2565b60055460408051632770a7eb60e21b81523060048201526024810185905290516001600160a01b0390921691639dc29fac9160448082019260009290919082900301818387803b158015612cf857600080fd5b505af1158015612d0c573d6000803e3d6000fd5b5050600554612d2692506001600160a01b031690506158a8565b6001546040805163eb0835bf60e01b81526001600160a01b038881166004830152602482018690529151600093630100000090049092169163eb0835bf91604480820192602092909190829003018186803b158015612d8457600080fd5b505afa158015612d98573d6000803e3d6000fd5b505050506040513d6020811015612dae57600080fd5b505190506000612dbf878484615943565b9050612dcf600082116016614f0d565b612dda878288615a0b565b604080516001600160a01b03808916825289166020820152808201869052606081018390526080810184905290517fd732b7828fa6cee72c285eac756fc66a7477e3dc22e22e7c432f1c265d40b4839181900360a00190a16017805461ff001916905560016000559695505050505050565b612e54614e58565b600480546001600160a01b0383166001600160a01b0319909116811790915560408051918252517f40d8738b990e6ff9a2f56f11247e657a1e7070472260b020a4fc3ab1844787bd9181900360200190a150565b6004546001600160a01b031681565b600b5481565b3360009081526007602052604090208054612edb904210603a614f0d565b600180820154612ef49160ff909116151514603b614f0d565b6006805433600081815260076020526040808220828155600101805460ff1916905584546001600160a01b031916831790945592516001600160a01b0390921692909183917f5f56bee8cffbe9a78652a74a60705edede02af10b0bbb888ca44b79a0d42ce8091a35050565b612f68614e58565b6001805482151562010000810262ff0000199092169190911790915560408051918252517f2de4391e9889adc9fc7e3aca19eefeb5c979e8f2070d673621bc6d21bb4f15209181900360200190a150565b600060026000541415613001576040805162461bcd60e51b815260206004820152601f602482015260008051602061687c833981519152604482015290519081900360640190fd5b600260005561300e615797565b6001600160a01b0383166000908152601d60205260409020546130359060ff166010614f0d565b6017805461ff001916610100179055600061304f8461521b565b905061305f600082116011614f0d565b6130698485614ad0565b600061307485613289565b9050600061309268327cb2734119d3b7a9601e1b6118838585614dc0565b6005549091506130ae90829088906001600160a01b0316611fba565b90506130be600082116012614f0d565b6001546040805163256f6ee360e11b81526001600160a01b0389811660048301526024820185905291516000936301000000900490921691634adeddc691604480820192602092909190829003018186803b15801561311c57600080fd5b505afa158015613130573d6000803e3d6000fd5b505050506040513d602081101561314657600080fd5b505190506000613157888684615943565b9050600061317568327cb2734119d3b7a9601e1b6118838488614dc0565b6005549091506131919082908b906001600160a01b0316611fba565b905061319d8982615ab2565b6131a7898361548a565b600554604080516340c10f1960e01b81526001600160a01b038b8116600483015260248201859052915191909216916340c10f1991604480830192600092919082900301818387803b1580156131fc57600080fd5b505af1158015613210573d6000803e3d6000fd5b5050604080516001600160a01b03808d1682528d1660208201528082018a9052606081018590526080810187905290517fab4c77c74cd32c85f35416cf03e7ce9e2d4387f7b7f2c1f4bf53daaecf8ea72d93509081900360a0019150a16017805461ff0019169055600160005598975050505050505050565b60048054601754604080516317e1d38560e11b81526001600160a01b038681169582019590955260006024820181905260ff80851615156044840152610100909404909316151560648201529051919390921691632fc3a70a916084808301926020929190829003018186803b15801561330257600080fd5b505afa158015613316573d6000803e3d6000fd5b505050506040513d602081101561332c57600080fd5b505192915050565b60006002600054141561337c576040805162461bcd60e51b815260206004820152601f602482015260008051602061687c833981519152604482015290519081900360640190fd5b6002600055613389614fbe565b61339288614fda565b6133a188888888888888615b70565b600160005598975050505050505050565b6133ba614e58565b6001600160a01b038216600081815260286020908152604091829020849055815184815291517f353903ff62f3d637fe24bd36b8e8c98fe64b4800c768e4f575716328d4213ae39281900390910190a25050565b601281565b601f6020526000908152604090205481565b61342d614e58565b61343d610e10841015600a614f0d565b61344d612710831115600b614f0d565b61345d612710821115600c614f0d565b601383905560148290556015819055604080518481526020810184905280820183905290517fc6380af1a190f58aa0c39e80100ea619b8bec7ed9354b2f3b355d96a90b9f6e69181900360600190a1505050565b602e6020526000908152604090205481565b6007602052600090815260409020805460019091015460ff1682565b601e6020526000908152604090205481565b6134f9614e58565b600280546001600160a01b0383166001600160a01b0319909116811790915560408051918252517f05bc734bb488c8d942462278635ee88af10735003b8f95b85e6810e856d3b6169181900360200190a150565b60175462010000900460ff1681565b6000600260005414156135a4576040805162461bcd60e51b815260206004820152601f602482015260008051602061687c833981519152604482015290519081900360640190fd5b60026000556001546135bf90610100900460ff166017614f0d565b6001600160a01b0384166000908152601d60205260409020546135e69060ff166018614f0d565b6001600160a01b0383166000908152601d602052604090205461360d9060ff166019614f0d565b61362d836001600160a01b0316856001600160a01b03161415601a614f0d565b6017805461ff0019166101001790556136468480614ad0565b6136508384614ad0565b600061365b8561521b565b905061366b60008211601b614f0d565b600061367686613289565b9050600061368386614678565b90506000613695826118838686614dc0565b90506136a2818989611fba565b905060006136c068327cb2734119d3b7a9601e1b6118838787614dc0565b6005549091506136dc9082908b906001600160a01b0316611fba565b60015460408051636d099c0b60e11b81526001600160a01b038d811660048301528c8116602483015260448201859052915193945060009363010000009093049091169163da13381691606480820192602092909190829003018186803b15801561374657600080fd5b505afa15801561375a573d6000803e3d6000fd5b505050506040513d602081101561377057600080fd5b5051905060006137818a8584615943565b905061378d8b84615ab2565b6137978a846157c6565b6137a18b8861548a565b6137ab8a856155a2565b6137b48a6160a6565b6137bf8a828b615a0b565b604080516001600160a01b03808c168252808e1660208301528c1681830152606081018990526080810186905260a0810183905260c0810184905290517f0874b2d545cb271cdbda4e093020c452328b24af12382ed62c4d00f5c26709db9181900360e00190a16017805461ff001916905560016000559a9950505050505050505050565b68327cb2734119d3b7a9601e1b81565b60306020526000908152604090205481565b60135481565b60008161387b575060006118f6565b612055838361388986614678565b614a96565b613896614e58565b6001600160a01b0381166000908152600760205260409020600101546138c09060ff16603c614f0d565b6001600160a01b038116600081815260076020526040808220828155600101805460ff19169055513392917ffc6a2fa53abe2adfe8372a9495032d7e6458d3aed34fa880132b6c808da1e99c91a350565b6001600160a01b0383166000908152602e6020908152604080832054602f9092528220548285821161394c576139478683614ecb565b613956565b6139568287614ecb565b90506000613968836118838685614dc0565b905086831160006139798689614e73565b90506000826139915761398c8285614e73565b61399b565b61399b8285614ecb565b90506139ab816118838c85614dc0565b9b9a5050505050505050505050565b60125460ff1681565b600e5481565b6000816139d8575060006118f6565b612055838361388986613289565b6139ee614e58565b6001600160a01b0382166000818152601b6020908152604091829020805460ff1916851515908117909155825190815291517fff83ce179bad4fbdb0e98074011487cde624295a52d8189d92d5d8b06c914eda9281900390910190a25050565b6013546001600160a01b0382166000908152602b602052604081205490914291613a7791614e73565b1115613a855750600061188d565b6013546001600160a01b0383166000908152602b60205260408120549091613ab291611883904290614ecb565b6001600160a01b03841660009081526026602052604090205490915080613ade5760009250505061188d565b6001600160a01b038416600090815260208052604081205460ff16613b0557601454613b09565b6015545b6001600160a01b038616600090815260276020526040902054909150613b42908390611883908690613b3c908690614dc0565b90614dc0565b95945050505050565b60175460ff1681565b60236020526000908152604090205481565b60256020526000908152604090205481565b60095481565b601754610100900460ff1681565b6001600160a01b038116600090815260208052604081205460ff1615613bcb57506001600160a01b03811660009081526026602052604090205461188d565b6001600160a01b038216600090815260296020526040812054613bef90849061386c565b6001600160a01b03841660009081526027602090815260408083205460269092529091205491925061188991613c26908490614e73565b90614ecb565b6001546040805163b1cc53ab60e01b81526001600160a01b038681166004830152858116602483015284151560448301529151600093630100000090049092169163b1cc53ab91606480820192602092909190829003018186803b158015613c9357600080fd5b505afa158015613ca7573d6000803e3d6000fd5b505050506040513d6020811015613cbd57600080fd5b5051949350505050565b6001600160a01b0381166000908152602e6020526040812054819080613cf4576000809250925050613d5a565b6000613cff85614678565b6001600160a01b0386166000908152602f6020526040812054919250828211613d3157613d2c8383614ecb565b613d3b565b613d3b8284614ecb565b90506000613d4d836118838785614dc0565b9390921195509193505050505b915091565b60276020526000908152604090205481565b60145481565b602a6020526000908152604090205481565b6001546040805163c7e074c360e01b81526001600160a01b03888116600483015260248201889052604482018790526064820186905284151560848301529151600093630100000090049092169163c7e074c39160a480820192602092909190829003018186803b158015613dfd57600080fd5b505afa158015613e11573d6000803e3d6000fd5b505050506040513d6020811015613e2757600080fd5b50519695505050505050565b613e3b614e58565b613e4f6001600160a01b038316848361610e565b816001600160a01b0316836001600160a01b03167f3e2a14acc0fdcf12e05294203b3822d0d9b8b54f9d0977f8ef9e9392b6348545836040518082815260200191505060405180910390a3505050565b613ea7614e58565b613ebd6001600160a01b03821615156038614f0d565b600654613eda906001600160a01b03838116911614156039614f0d565b613ee68160001961571b565b50565b613ef1614e58565b60188190556040805182815290517f46a9321b7ebf95c579cb99b9008de9bdd310efaa558057ab7073d42e764d70c39181900360200190a150565b613f34614e58565b613f4361271082116002614f0d565b60098190556040805182815290517ff0aada89c1aeb5976a9e6fd505ec6dc3024f0e0b121fff9ce5bd4b40d54135a89181900360200190a150565b6001546040805163d54d5a9f60e01b81526001600160a01b03888116600483015287811660248301528681166044830152851515606483015284151560848301528251600094859463010000009091049092169263d54d5a9f9260a4808301939192829003018186803b158015613ff457600080fd5b505afa158015614008573d6000803e3d6000fd5b505050506040513d604081101561401e57600080fd5b508051602090910151909890975095505050505050565b61403d614e58565b6001600160a01b038216600090815260246020526040902054808211156140b6576140718361406c8484614ecb565b615ab2565b6040805183815290516001600160a01b038516917fe5af17d6478a3ad858d29f0d18482bdecee0d95ad36cfeeeefca420436a689ef919081900360200190a250612b45565b6140c9836140c48385614ecb565b6157c6565b6040805183815290516001600160a01b038516917fe5af17d6478a3ad858d29f0d18482bdecee0d95ad36cfeeeefca420436a689ef919081900360200190a2505050565b602b6020526000908152604090205481565b60115481565b6001546040805163369d949360e21b81526001600160a01b0389811660048301528881166024830152878116604483015286151560648301526084820186905260a482018590529151600093630100000090049092169163da76524c9160c480820192602092909190829003018186803b1580156141a257600080fd5b505afa1580156141b6573d6000803e3d6000fd5b505050506040513d60208110156141cc57600080fd5b5051979650505050505050565b601d6020526000908152604090205460ff1681565b60216020526000908152604090205460ff1681565b60008060006142158a8a8a8a88612881565b909250905060006142268a87614e73565b90506000881561425557836142445761423f8284614ecb565b61424e565b61424e8284614e73565b9050614276565b83614269576142648284614e73565b614273565b6142738284614ecb565b90505b614284816118838a85614dc0565b9c9b505050505050505050505050565b60165481565b600260005414156142e0576040805162461bcd60e51b815260206004820152601f602482015260008051602061687c833981519152604482015290519081900360640190fd5b60026000556017546301000000900460ff161561431557336000908152601a60205260409020546143159060ff166022614f0d565b6017805460ff191690556143298484614ad0565b600061433786868686611b41565b9050614341616829565b506000818152602c6020908152604091829020825160e08101845281548082526001830154938201939093526002820154938101939093526003810154606084015260048101546080840152600581015460a08401526006015460c08301526143ad9015156023614f0d565b6000806143be898989896000613f7e565b915091506143d182600014156024614f0d565b8160021415614406576143ee898989600087600001518b8f615b70565b50506017805460ff1916600117905550614666915050565b6000614412898361386c565b6001600160a01b038a166000908152602d60205260409020549091506144389082614e73565b6001600160a01b038a166000818152602d602090815260409182902093909355805191825291810184905280820183905290517f5d0c0019d3d45fadeb74eff9d2c9924d146d000ac6bcf3c28bf0ac3c9baa011a9181900360600190a16144a3898560800151616160565b86156144d257602084015184516144c4918b916144bf91614ecb565b61540b565b6144d2896124c48b8561386c565b6000876144e7576144e289614678565b6144f0565b6144f089613289565b90507f2e1f85a64a2f22cf2f0c42584e7c919ed4abe8d53675cff0f62bf1e95a1c676f868c8c8c8c8a600001518b602001518c608001518d60a001518a604051808b81526020018a6001600160a01b03168152602001896001600160a01b03168152602001886001600160a01b0316815260200187151581526020018681526020018581526020018481526020018381526020018281526020019a505050505050505050505060405180910390a1871580156145af5750846020015183105b156145dd5760208501516000906145c69085614ecb565b90506145db8b6145d68d8461386c565b61548a565b505b876145f0576145f0898660000151616215565b6000868152602c60205260408120818155600181018290556002810182905560038101829055600481018290556005810182905560060155600a5461463c908b906124c490829061386c565b6146528a61464c8c600a5461386c565b89615a0b565b50506017805460ff19166001179055505050505b50506001600055505050565b600f5481565b60048054601754604080516317e1d38560e11b81526001600160a01b03868116958201959095526001602482015260ff80841615156044830152610100909304909216151560648301525160009390921691632fc3a70a91608480820192602092909190829003018186803b15801561330257600080fd5b601c81815481106146fd57fe5b6000918252602090912001546001600160a01b0316905081565b61471f614e58565b6001600160a01b0381166000908152601d60205260409020546147469060ff16600d614f0d565b6001600160a01b03811660009081526023602052604090205460165461476b91614ecb565b6016556001600160a01b0381166000908152601d60209081526040808320805460ff19908116909155601e835281842084905560238352818420849055601f8352818420849055602583528184208490558280528184208054821690556021909252909120805490911690556008546147e5906001614ecb565b6008556040516001600160a01b038216907f40c99fa230c73ea426e0fd7fce25e2f0627d8d5dca16c0f92387c9583d0de01d90600090a250565b614827614e58565b6001600160a01b038216600081815260306020908152604091829020849055815184815291517faf0bd2f15075ba3d6f77aac90d32686473de962c7d9b66f43bd123130a7f4aec9281900390910190a25050565b60296020526000908152604090205481565b614895614e58565b601780548215156301000000810263ff000000199092169190911790915560408051918252517f53f0f07ea43dbe9cbfdb4cc3cf93b7ef7c85f4fb49d14c2507e5506aa82328e19181900360200190a150565b600680546001600160a01b031916331790556001805461490e9160ff9091161590614f0d565b60018054600380546001600160a01b03199081166001600160a01b039a8b1617909155600580548216988a16989098179097556004805490971695909716949094178555600a92835560149182556015556201000061010060ff19968716851761ff0019161762ff000019161783556207a8f06009556032600b55600c55601e600d819055600e55600f92909255601091909155617080601355601780549092161763ffffff0019169055565b60006149c5614e58565b6001600160a01b0383166000908152602d6020526040902054806149ed5760009150506118f6565b6001600160a01b0384166000908152602d6020526040812055614a11848285615a0b565b826001600160a01b0316846001600160a01b03167f5e110f8bc8a20b65dcc87f224bdf1cc039346e267118bae2739847f07321ffa8836040518082815260200191505060405180910390a39392505050565b601b6020526000908152604090205460ff1681565b6005546001600160a01b031681565b6003546001600160a01b031681565b600082614aa557506000612055565b6001600160a01b0384166000908152601e6020526040902054613b428361188386600a85900a614dc0565b6001546040805163fbfded6d60e01b81526001600160a01b03858116600483015284811660248301529151600093630100000090049092169163fbfded6d9160448082019260209290919082900301818787803b158015614b3057600080fd5b505af1158015614b44573d6000803e3d6000fd5b505050506040513d6020811015614b5a57600080fd5b5051905080614b695750612b45565b6001600160a01b0383166000908152602b6020526040902054614bb657601354614b9790613b3c4282614e19565b6001600160a01b0384166000908152602b602052604090205550612b45565b6013546001600160a01b0384166000908152602b60205260409020544291614bde9190614e73565b1115614bea5750612b45565b6000614bf584613a4e565b6001600160a01b0385166000908152602a6020526040902054909150614c1b9082614e73565b6001600160a01b0385166000908152602a6020526040902055601354614c4590613b3c4282614e19565b6001600160a01b0385166000818152602b6020908152604080832094909455602a8152908390205483519283529082015281517fa146fc154e1913322e9817d49f0d5c37466c24326e15de10e739a948be815eab929181900390910190a150505050565b610e1081565b6001546040805163fdaf6ac360e01b81526001600160a01b038881166004830152878116602483015286811660448301528515156064830152608482018590529151600093630100000090049092169163fdaf6ac39160a480820192602092909190829003018186803b158015613dfd57600080fd5b60316020908152600091825260409182902080548351601f600260001961010060018616150201909316929092049182018490048402810184019094528084529091830182828015614db85780601f10614d8d57610100808354040283529160200191614db8565b820191906000526020600020905b815481529060010190602001808311614d9b57829003601f168201915b505050505081565b600082614dcf575060006118f6565b82820282848281614ddc57fe5b04146120555760405162461bcd60e51b815260040180806020018281038252602181526020018061689c6021913960400191505060405180910390fd5b600061205583836040518060400160405280601a815260200179536166654d6174683a206469766973696f6e206279207a65726f60301b81525061627d565b600654614e71906001600160a01b031633146035614f0d565b565b600082820183811015612055576040805162461bcd60e51b815260206004820152601b60248201527a536166654d6174683a206164646974696f6e206f766572666c6f7760281b604482015290519081900360640190fd5b600061205583836040518060400160405280601e81526020017f536166654d6174683a207375627472616374696f6e206f766572666c6f77000081525061631f565b600081815260316020526040902082614fb95760405162461bcd60e51b8152602060048201908152825460026000196101006001841615020190911604602483018190529091829160449091019084908015614faa5780601f10614f7f57610100808354040283529160200191614faa565b820191906000526020600020905b815481529060010190602001808311614f8d57829003601f168201915b50509250505060405180910390fd5b505050565b601854614fca57614e71565b614e716018543a11156037614f0d565b336001600160a01b0382161415614ff057613ee6565b6003546001600160a01b031633141561500857613ee6565b6001600160a01b0381166000908152601960209081526040808320338452909152902054613ee69060ff166029614f0d565b80156150b25761505f826001600160a01b0316846001600160a01b031614602a614f0d565b6001600160a01b0383166000908152601d60205260409020546150869060ff16602b614f0d565b6001600160a01b03831660009081526020805260409020546150ad9060ff1615602c614f0d565b614fb9565b6001600160a01b0383166000908152601d60205260409020546150d99060ff16602d614f0d565b6001600160a01b03831660009081526020805260409020546150ff9060ff16602e614f0d565b6001600160a01b03821660009081526020805260409020546151269060ff1615602f614f0d565b6001600160a01b038216600090815260216020526040902054614fb99060ff166030614f0d565b60008061515d8989898989614caf565b9050600061516f8a8a8a8a8989614125565b905061517b8282614e73565b915060006151898a8461386c565b6001600160a01b038b166000908152602d60205260409020549091506151af9082614e73565b6001600160a01b038b166000818152602d602090815260409182902093909355805191825291810185905280820183905290517f5d0c0019d3d45fadeb74eff9d2c9924d146d000ac6bcf3c28bf0ac3c9baa011a9181900360600190a150909998505050505050505050565b6001600160a01b03811660008181526022602090815260408083205481516370a0823160e01b8152306004820152915193949093859391926370a08231926024808301939192829003018186803b15801561527557600080fd5b505afa158015615289573d6000803e3d6000fd5b505050506040513d602081101561529f57600080fd5b50516001600160a01b03851660009081526022602052604090208190559050611cc38183614ecb565b816152de576152d981156027614f0d565b612b45565b612b45818310156028614f0d565b6001600160a01b03821660009081526027602052604090205461530f9082614e73565b6001600160a01b0383166000908152602760208181526040808420859055602682529092205491526153449111156034614f0d565b604080516001600160a01b03841681526020810183905281517faa5649d82f5462be9d19b0f2b31a59b2259950a6076550bac9f3a1c07db9f66d929181900390910190a15050565b6001600160a01b0382166000908152602960205260409020546153af9082614e73565b6001600160a01b03831660008181526029602090815260409182902093909355805191825291810183905281517fd9d4761f75e0d0103b5cbeab941eeb443d7a56a35b5baf2a0787c03f03f4e474929181900390910190a15050565b6001600160a01b03821660009081526029602052604090205461542e9082614ecb565b6001600160a01b03831660008181526029602090815260409182902093909355805191825291810183905281517f34e07158b9db50df5613e591c44ea2ebc82834eff4a4dc3a46e000e608261d68929181900390910190a15050565b6001600160a01b0382166000908152602660205260409020546154ad9082614e73565b6001600160a01b03831660008181526026602090815260408083209490945583516370a0823160e01b8152306004820152935191936370a082319260248083019392829003018186803b15801561550357600080fd5b505afa158015615517573d6000803e3d6000fd5b505050506040513d602081101561552d57600080fd5b50516001600160a01b038416600090815260266020526040902054909150615559908210156031614f0d565b604080516001600160a01b03851681526020810184905281517f976177fbe09a15e5e43f848844963a42b41ef919ef17ff21a17a5421de8f4737929181900390910190a1505050565b604080518082018252601181527015985d5b1d0e881c1bdbdb105b5bdd5b9d607a1b6020808301919091526001600160a01b0385166000908152602690915291909120546155f191839061631f565b6001600160a01b038316600090815260266020908152604080832084905560279091529020546156249110156032614f0d565b604080516001600160a01b03841681526020810183905281517f112726233fbeaeed0f5b1dba5cb0b2b81883dee49fb35ff99fd98ed9f6d31eb0929181900390910190a15050565b6001600160a01b0382166000908152602e602052604090205461568f9082614e73565b6001600160a01b0383166000908152602e60209081526040808320939093556030905220548015614fb9576001600160a01b0383166000908152602e6020526040902054811015614fb9576040805162461bcd60e51b81526020600482015260116024820152705661756c743a206d61782073686f72747360781b604482015290519081900360640190fd5b604080518082018252828152600160208083018281526001600160a01b03871660008181526007845286902094518555905193909201805460ff1916931515939093179092558251848152925190927f02dd0697be46e764c3ba81094158781c31b235d03bb27a0daf1bdef0ec1084dd92908290030190a25050565b60175462010000900460ff1615614e7157336000908152601b6020526040902054614e719060ff166036614f0d565b6001600160a01b038216600090815260246020526040902054818111615841576001600160a01b0383166000818152602460209081526040808320929092558151928352820183905280517fe1e812596aac93a06ecc4ca627014d18e30f5c33b825160cc9d5c0ba61e452279281900390910190a150612b45565b61584b8183614ecb565b6001600160a01b03841660008181526024602090815260409182902093909355805191825291810184905281517fe1e812596aac93a06ecc4ca627014d18e30f5c33b825160cc9d5c0ba61e45227929181900390910190a1505050565b6000816001600160a01b03166370a08231306040518263ffffffff1660e01b815260040180826001600160a01b0316815260200191505060206040518083038186803b1580156158f757600080fd5b505afa15801561590b573d6000803e3d6000fd5b505050506040513d602081101561592157600080fd5b50516001600160a01b0390921660009081526022602052604090209190915550565b6000806159606127106118836159598287614ecb565b8790614dc0565b9050600061596e8583614ecb565b6001600160a01b0387166000908152602d60205260409020549091506159949082614e73565b6001600160a01b0387166000908152602d60205260409020557f47cd9dda0e50ce30bcaaacd0488452b596221c07ac402a581cfae4d3933cac2b866159d981846118a9565b604080516001600160a01b0390931683526020830191909152818101849052519081900360600190a150949350505050565b615a1f6001600160a01b038416828461610e565b604080516370a0823160e01b815230600482015290516001600160a01b038516916370a08231916024808301926020929190829003018186803b158015615a6557600080fd5b505afa158015615a79573d6000803e3d6000fd5b505050506040513d6020811015615a8f57600080fd5b50516001600160a01b039093166000908152602260205260409020929092555050565b6001600160a01b038216600090815260246020526040902054615ad59082614e73565b6001600160a01b0383166000908152602460209081526040808320939093556025905220548015615b27576001600160a01b038316600090815260246020526040902054615b27908210156033614f0d565b604080516001600160a01b03851681526020810184905281517f64243679a443432e2293343b77d411ff6144370404618f00ca0d2025d9ca9882929181900390910190a1505050565b600154604080516381d11a2360e01b81526001600160a01b038a8116600483015289811660248301528881166044830152606482018890526084820187905285151560a483015284811660c4830152915160009363010000009004909216916381d11a239160e4808201928692909190829003018186803b158015615bf457600080fd5b505afa158015615c08573d6000803e3d6000fd5b50505050615c168787614ad0565b6000615c2489898987611b41565b6000818152602c60205260409020805491925090615c45901515601f614f0d565b615c5786826000015410156020614f0d565b615c6987826001015410156021614f0d565b600181015481546004830154600091615c8691611883908b614dc0565b6004840154909150615c989082614ecb565b6004840155615ca78b82616160565b50600080615cb98d8d8d8d8d8d616379565b855491935091508914615e5d57615cd18c8c8a613c2c565b60038501558354615ce2908a614ecb565b8085556001850154615cf491906152c8565b615d028d8d8d8b6001613f7e565b50508715615d2f57615d258c61249d866001015486614ecb90919063ffffffff16565b615d2f8c8a61540b565b600088615d4457615d3f8c614678565b615d4d565b615d4d8c613289565b90507f93d75d64d1f84fc6f430a64fc578bdd4c1e090e90ea2d51773e626d19de56d30868f8f8f8f8f8f88615d828c8c614ecb565b60408051998a526001600160a01b0398891660208b015296881689880152949096166060880152608087019290925260a0860152151560c085015260e084019290925261010083019190915251908190036101200190a18454600186015460028701546003880154600489015460058a0154604080518d81526020810197909752868101959095526060860193909352608085019190915260a084015260c083015260e08201839052517f20853733b590dce729d9f4628682ebd9a34d2354e72679e66f43a008fc03b773918190036101000190a150616044565b8715615e7757615e6d8c8461538c565b615e778c8a61540b565b600088615e8c57615e878c614678565b615e95565b615e958c613289565b90507f93d75d64d1f84fc6f430a64fc578bdd4c1e090e90ea2d51773e626d19de56d30868f8f8f8f8f8f88615eca8c8c614ecb565b60408051998a526001600160a01b0398891660208b015296881689880152949096166060880152608087019290925260a0860152151560c085015260e084019290925261010083019190915251908190036101200190a18454600186015460028701546003880154600489015460058a0154604080518d81526020810197909752868101959095526060860193909352608085019190915260a084015260c0830152517f73af1d417d82c240fdb6d319b34ad884487c6bf2845d98980cc52ad9171cb4559181900360e00190a1600160039054906101000a90046001600160a01b03166001600160a01b0316634c89b68d876040518263ffffffff1660e01b815260040180828152602001915050600060405180830381600087803b158015615ff257600080fd5b505af1158015616006573d6000803e3d6000fd5b5050506000878152602c6020526040812081815560018101829055600281018290556003810182905560048101829055600581018290556006015550505b87616053576160538b8a616215565b811561609357871561606d5761606d8c6124c48e8561386c565b60006160798d8361386c565b90506160868d828a615a0b565b955061283d945050505050565b5060009c9b505050505050505050505050565b6001600160a01b0381166000908152602860209081526040808320546026909252909120541015613ee6576040805162461bcd60e51b815260206004820152600d60248201526c2b30bab63a1d10313ab33332b960991b604482015290519081900360640190fd5b604080516001600160a01b038416602482015260448082018490528251808303909101815260649091019091526020810180516001600160e01b031663a9059cbb60e01b179052614fb9908490616573565b604080518082018252601b81527a5661756c743a20696e73756666696369656e74207265736572766560281b6020808301919091526001600160a01b0385166000908152602790915291909120546161b991839061631f565b6001600160a01b03831660008181526027602090815260409182902093909355805191825291810183905281517f533cb5ed32be6a90284e96b5747a1bfc2d38fdb5768a6b5f67ff7d62144ed67b929181900390910190a15050565b6001600160a01b0382166000908152602e60205260409020548082111561625557506001600160a01b0382166000908152602e6020526040812055612b45565b61625f8183614ecb565b6001600160a01b0384166000908152602e6020526040902055505050565b600081836163095760405162461bcd60e51b81526004018080602001828103825283818151815260200191508051906020019080838360005b838110156162ce5781810151838201526020016162b6565b50505050905090810190601f1680156162fb5780820380516001836020036101000a031916815260200191505b509250505060405180910390fd5b50600083858161631557fe5b0495945050505050565b600081848411156163715760405162461bcd60e51b81526020600482018181528351602484015283519092839260449091019190850190808383600083156162ce5781810151838201526020016162b6565b505050900390565b600080600061638a89898987611b41565b6000818152602c602052604081208054600382015493945090926163b7918d918d918d918b918d9161514d565b90506000806000806163d88d876000015488600201548d8a60060154612881565b875491955085935091506163f0906118838d84614dc0565b9250505060008280156164035750600082115b1561643357506005840180548201905580886164335760006164258e8461386c565b90506164318e826155a2565b505b821580156164415750600082115b156164855760018501546164559083614ecb565b60018601558861647957600061646b8e8461386c565b90506164778e8261548a565b505b60058501805483900390555b8a156164ad57616495818c614e73565b60018601549091506164a7908c614ecb565b60018601555b84548a14156164d05760018501546164c6908290614e73565b6000600187015590505b80848111156164ea576164e38286614ecb565b905061651e565b60018601546164f99086614ecb565b6001870155891561651e5760006165108f8761386c565b905061651c8f826155a2565b505b60408051888152851515602082015280820185905290517f3ff41bdde87755b687ae83d0221a232b6be51a803330ed9661c1b5d0105e0d8a9181900360600190a1909e909d509b505050505050505050505050565b60606165c8826040518060400160405280602081526020017f5361666545524332303a206c6f772d6c6576656c2063616c6c206661696c6564815250856001600160a01b03166166249092919063ffffffff16565b805190915015614fb9578080602001905160208110156165e757600080fd5b5051614fb95760405162461bcd60e51b815260040180806020018281038252602a8152602001806168bd602a913960400191505060405180910390fd5b6060611cc38484600085856166388561673f565b616689576040805162461bcd60e51b815260206004820152601d60248201527f416464726573733a2063616c6c20746f206e6f6e2d636f6e7472616374000000604482015290519081900360640190fd5b60006060866001600160a01b031685876040518082805190602001908083835b602083106166c85780518252601f1990920191602091820191016166a9565b6001836020036101000a03801982511681845116808217855250505050505090500191505060006040518083038185875af1925050503d806000811461672a576040519150601f19603f3d011682016040523d82523d6000602084013e61672f565b606091505b509150915061283d828286616745565b3b151590565b60608315616754575081612055565b8251156167645782518084602001fd5b60405162461bcd60e51b81526020600482018181528451602484015284518593919283926044019190850190808383600083156162ce5781810151838201526020016162b6565b828054600181600116156101000203166002900490600052602060002090601f016020900481019282601f106167ec5782800160ff19823516178555616819565b82800160010185558215616819579182015b828111156168195782358255916020019190600101906167fe565b50616825929150616866565b5090565b6040518060e00160405280600081526020016000815260200160008152602001600081526020016000815260200160008152602001600081525090565b5b80821115616825576000815560010161686756fe5265656e7472616e637947756172643a207265656e7472616e742063616c6c00536166654d6174683a206d756c7469706c69636174696f6e206f766572666c6f775361666545524332303a204552433230206f7065726174696f6e20646964206e6f742073756363656564a264697066735822122040e44d8323ce85b12f404cc4bc347ea47d77bf1000a03d34bb358d71d63bc7a164736f6c634300060c0033","linkReferences":{}},"methodIdentifiers":{"BASIS_POINTS_DIVISOR()":"126082cf","FUNDING_RATE_PRECISION()":"6be6026b","MAX_FEE_BASIS_POINTS()":"4befe2ca","MAX_FUNDING_RATE_FACTOR()":"8a39735a","MAX_LIQUIDATION_FEE_USD()":"07c58752","MIN_FUNDING_RATE_INTERVAL()":"fce28c10","MIN_LEVERAGE()":"34c1557d","PRICE_PRECISION()":"95082d25","USDG_DECIMALS()":"870d917c","acceptGov()":"7bc6729b","addRouter(address)":"24ca984e","adjustForDecimals(uint256,address,address)":"42152873","allWhitelistedTokens(uint256)":"e468baf0","allWhitelistedTokensLength()":"0842b076","approvedRouters(address,address)":"60922199","bufferAmounts(address)":"4a993ee9","buyUSDG(address,address)":"817bb857","cancelGovProposal(address)":"9c35b497","clearTokenConfig(address)":"e67f59a7","cumulativeFundingRates(address)":"c65bc7b1","decreasePosition(address,address,address,uint256,uint256,bool,address)":"82a08490","directPoolDeposit(address)":"5f7bc119","errorController()":"48f35cbb","errors(uint256)":"fed1a606","feeReserves(address)":"1ce9cb8f","fundingInterval()":"9849e412","fundingRateFactor()":"c4f718bf","getDelta(address,uint256,uint256,bool,uint256)":"5c07eaab","getEntryFundingRate(address,address,bool)":"b1cc53ab","getFeeBasisPoints(address,uint256,uint256,uint256,bool)":"c7e074c3","getFundingFee(address,address,address,bool,uint256,uint256)":"da76524c","getGlobalShortDelta(address)":"b364accb","getMaxPrice(address)":"e124e6d2","getMinPrice(address)":"81a612d6","getNextAveragePrice(address,uint256,uint256,bool,uint256,uint256,uint256)":"db97495f","getNextFundingRate(address)":"a93acac2","getNextGlobalShortAveragePrice(address,uint256,uint256)":"9d7432ca","getPosition(address,address,address,bool)":"4a3f088d","getPositionDelta(address,address,address,bool)":"45a6f370","getPositionFee(address,address,address,bool,uint256)":"fdaf6ac3","getPositionKey(address,address,address,bool)":"2d4b0576","getPositionLeverage(address,address,address,bool)":"51723e82","getRedemptionAmount(address,uint256)":"2c668ec1","getRedemptionCollateral(address)":"b136ca49","getRedemptionCollateralUsd(address)":"29ff9615","getTargetUsdgAmount(address)":"3a05dcc1","getUtilisation(address)":"04fef1db","globalShortAveragePrices(address)":"62749803","globalShortSizes(address)":"8a78daa8","gov()":"12d43a51","govProposals(address)":"8d0fedb0","guaranteedUsd(address)":"f07456ce","hasDynamicFees()":"9f392eb3","inManagerMode()":"9060b1ca","inPrivateLiquidationMode()":"181e210e","includeAmmPrice()":"ab08c1c6","increasePosition(address,address,address,uint256,bool)":"48d91abf","initialize2(address,address,address,uint256,uint256,uint256)":"f1675a8b","isInitialized()":"392e53cd","isLeverageEnabled()":"3e72a262","isLiquidator(address)":"529a356f","isManager(address)":"f3ae2415","isSwapEnabled()":"351a964d","lastFundingTimes(address)":"d8f897c3","liquidatePosition(address,address,address,bool,address)":"de2ea948","liquidationFeeUsd()":"174d2694","marginFeeBasisPoints()":"318bc689","maxGasPrice()":"3de39c11","maxGlobalShortSizes(address)":"9698d25a","maxLeverage()":"ae3302c2","maxUsdgAmounts(address)":"ad1e4f8d","minProfitBasisPoints(address)":"88b1fbdf","minProfitTime()":"d9ac4225","mintBurnFeeBasisPoints()":"4d47b304","poolAmounts(address)":"52f55eed","positions(bytes32)":"514ea4bf","priceFeed()":"741bef1a","removeRouter(address)":"6ae0b154","reservedAmounts(address)":"c3c7b9e9","router()":"f887ea40","sellUSDG(address,address)":"711e6190","setBufferAmount(address,uint256)":"8585f4d2","setError(uint256,string)":"28e67be5","setErrorController(address)":"8f7b8404","setFees(uint256,uint256,uint256,uint256,uint256,uint256,uint256,uint256,bool)":"40eb3802","setFundingRate(uint256,uint256,uint256)":"8a27d468","setGov(address)":"cfad57a2","setGovWithDeadline(address,uint256)":"6bb22fd7","setInManagerMode(bool)":"24b0c04d","setInPrivateLiquidationMode(bool)":"f07bbf77","setIsLeverageEnabled(bool)":"7c2eb9f7","setIsSwapEnabled(bool)":"30455ede","setLiquidator(address,bool)":"4453a374","setManager(address,bool)":"a5e90eee","setMaxGasPrice(uint256)":"d2fa635e","setMaxGlobalShortSize(address,uint256)":"efa10a6e","setMaxLeverage(uint256)":"d3127e63","setPriceFeed(address)":"724e78da","setTokenConfig(address,uint256,uint256,uint256,uint256,bool,bool)":"3c5a6e35","setUsdgAmount(address,uint256)":"d66b000d","setVaultUtils(address)":"71089f4d","shortableTokens(address)":"db3555fb","stableFundingRateFactor()":"134ca63b","stableSwapFeeBasisPoints()":"df73a267","stableTaxBasisPoints()":"10eb56c2","stableTokens(address)":"42b60b03","swap(address,address,address)":"93316212","swapFeeBasisPoints()":"a22f2392","taxBasisPoints()":"7a210a2b","tokenBalances(address)":"523fba7f","tokenDecimals(address)":"8ee573ac","tokenToUsdMin(address,uint256)":"0a48d5a9","tokenWeights(address)":"ab2f3ad4","totalTokenWeights()":"dc8f5fac","updateCumulativeFundingRate(address,address)":"fbfded6d","upgradeVault(address,address,uint256)":"cea0c328","usdToToken(address,uint256,uint256)":"fa12dbc0","usdToTokenMax(address,uint256)":"a42ab3d2","usdToTokenMin(address,uint256)":"9899cd02","usdg()":"f5b91b7b","usdgAmounts(address)":"1aa4ace5","useSwapPricing()":"b06423f3","validateLiquidation(address,address,address,bool,bool)":"d54d5a9f","vaultUtils()":"6abbe0c8","whitelistedTokenCount()":"62287a32","whitelistedTokens(address)":"daf9c210","withdrawFees(address,address)":"f2555278"},"id":41}