{"abi":[{"type":"constructor","inputs":[{"name":"_cake","type":"address","internalType":"contract CakeToken"},{"name":"_syrup","type":"address","internalType":"contract SyrupBar"},{"name":"_devaddr","type":"address","internalType":"address"},{"name":"_cakePerBlock","type":"uint256","internalType":"uint256"},{"name":"_startBlock","type":"uint256","internalType":"uint256"}],"stateMutability":"nonpayable"},{"type":"function","name":"BONUS_MULTIPLIER","inputs":[],"outputs":[{"name":"","type":"uint256","internalType":"uint256"}],"stateMutability":"view"},{"type":"function","name":"add","inputs":[{"name":"_allocPoint","type":"uint256","internalType":"uint256"},{"name":"_lpToken","type":"address","internalType":"contract IERC20"},{"name":"_withUpdate","type":"bool","internalType":"bool"}],"outputs":[],"stateMutability":"nonpayable"},{"type":"function","name":"cake","inputs":[],"outputs":[{"name":"","type":"address","internalType":"contract CakeToken"}],"stateMutability":"view"},{"type":"function","name":"cakePerBlock","inputs":[],"outputs":[{"name":"","type":"uint256","internalType":"uint256"}],"stateMutability":"view"},{"type":"function","name":"deposit","inputs":[{"name":"_pid","type":"uint256","internalType":"uint256"},{"name":"_amount","type":"uint256","internalType":"uint256"}],"outputs":[],"stateMutability":"nonpayable"},{"type":"function","name":"dev","inputs":[{"name":"_devaddr","type":"address","internalType":"address"}],"outputs":[],"stateMutability":"nonpayable"},{"type":"function","name":"devaddr","inputs":[],"outputs":[{"name":"","type":"address","internalType":"address"}],"stateMutability":"view"},{"type":"function","name":"emergencyWithdraw","inputs":[{"name":"_pid","type":"uint256","internalType":"uint256"}],"outputs":[],"stateMutability":"nonpayable"},{"type":"function","name":"enterStaking","inputs":[{"name":"_amount","type":"uint256","internalType":"uint256"}],"outputs":[],"stateMutability":"nonpayable"},{"type":"function","name":"getMultiplier","inputs":[{"name":"_from","type":"uint256","internalType":"uint256"},{"name":"_to","type":"uint256","internalType":"uint256"}],"outputs":[{"name":"","type":"uint256","internalType":"uint256"}],"stateMutability":"view"},{"type":"function","name":"leaveStaking","inputs":[{"name":"_amount","type":"uint256","internalType":"uint256"}],"outputs":[],"stateMutability":"nonpayable"},{"type":"function","name":"massUpdatePools","inputs":[],"outputs":[],"stateMutability":"nonpayable"},{"type":"function","name":"migrate","inputs":[{"name":"_pid","type":"uint256","internalType":"uint256"}],"outputs":[],"stateMutability":"nonpayable"},{"type":"function","name":"migrator","inputs":[],"outputs":[{"name":"","type":"address","internalType":"contract IMigratorChef"}],"stateMutability":"view"},{"type":"function","name":"owner","inputs":[],"outputs":[{"name":"","type":"address","internalType":"address"}],"stateMutability":"view"},{"type":"function","name":"pendingCake","inputs":[{"name":"_pid","type":"uint256","internalType":"uint256"},{"name":"_user","type":"address","internalType":"address"}],"outputs":[{"name":"","type":"uint256","internalType":"uint256"}],"stateMutability":"view"},{"type":"function","name":"poolInfo","inputs":[{"name":"","type":"uint256","internalType":"uint256"}],"outputs":[{"name":"lpToken","type":"address","internalType":"contract IERC20"},{"name":"allocPoint","type":"uint256","internalType":"uint256"},{"name":"lastRewardBlock","type":"uint256","internalType":"uint256"},{"name":"accCakePerShare","type":"uint256","internalType":"uint256"}],"stateMutability":"view"},{"type":"function","name":"poolLength","inputs":[],"outputs":[{"name":"","type":"uint256","internalType":"uint256"}],"stateMutability":"view"},{"type":"function","name":"renounceOwnership","inputs":[],"outputs":[],"stateMutability":"nonpayable"},{"type":"function","name":"set","inputs":[{"name":"_pid","type":"uint256","internalType":"uint256"},{"name":"_allocPoint","type":"uint256","internalType":"uint256"},{"name":"_withUpdate","type":"bool","internalType":"bool"}],"outputs":[],"stateMutability":"nonpayable"},{"type":"function","name":"setMigrator","inputs":[{"name":"_migrator","type":"address","internalType":"contract IMigratorChef"}],"outputs":[],"stateMutability":"nonpayable"},{"type":"function","name":"startBlock","inputs":[],"outputs":[{"name":"","type":"uint256","internalType":"uint256"}],"stateMutability":"view"},{"type":"function","name":"syrup","inputs":[],"outputs":[{"name":"","type":"address","internalType":"contract SyrupBar"}],"stateMutability":"view"},{"type":"function","name":"totalAllocPoint","inputs":[],"outputs":[{"name":"","type":"uint256","internalType":"uint256"}],"stateMutability":"view"},{"type":"function","name":"transferOwnership","inputs":[{"name":"newOwner","type":"address","internalType":"address"}],"outputs":[],"stateMutability":"nonpayable"},{"type":"function","name":"updateMultiplier","inputs":[{"name":"multiplierNumber","type":"uint256","internalType":"uint256"}],"outputs":[],"stateMutability":"nonpayable"},{"type":"function","name":"updatePool","inputs":[{"name":"_pid","type":"uint256","internalType":"uint256"}],"outputs":[],"stateMutability":"nonpayable"},{"type":"function","name":"userInfo","inputs":[{"name":"","type":"uint256","internalType":"uint256"},{"name":"","type":"address","internalType":"address"}],"outputs":[{"name":"amount","type":"uint256","internalType":"uint256"},{"name":"rewardDebt","type":"uint256","internalType":"uint256"}],"stateMutability":"view"},{"type":"function","name":"withdraw","inputs":[{"name":"_pid","type":"uint256","internalType":"uint256"},{"name":"_amount","type":"uint256","internalType":"uint256"}],"outputs":[],"stateMutability":"nonpayable"},{"type":"event","name":"Deposit","inputs":[{"name":"user","type":"address","indexed":true,"internalType":"address"},{"name":"pid","type":"uint256","indexed":true,"internalType":"uint256"},{"name":"amount","type":"uint256","indexed":false,"internalType":"uint256"}],"anonymous":false},{"type":"event","name":"EmergencyWithdraw","inputs":[{"name":"user","type":"address","indexed":true,"internalType":"address"},{"name":"pid","type":"uint256","indexed":true,"internalType":"uint256"},{"name":"amount","type":"uint256","indexed":false,"internalType":"uint256"}],"anonymous":false},{"type":"event","name":"OwnershipTransferred","inputs":[{"name":"previousOwner","type":"address","indexed":true,"internalType":"address"},{"name":"newOwner","type":"address","indexed":true,"internalType":"address"}],"anonymous":false},{"type":"event","name":"Withdraw","inputs":[{"name":"user","type":"address","indexed":true,"internalType":"address"},{"name":"pid","type":"uint256","indexed":true,"internalType":"uint256"},{"name":"amount","type":"uint256","indexed":false,"internalType":"uint256"}],"anonymous":false}],"bytecode":{"object":"0x60806040526001600555600060095534801561001a57600080fd5b506040516122b83803806122b8833981810160405260a081101561003d57600080fd5b5080516020820151604083015160608401516080909401519293919290919060006100666101e0565b600080546001600160a01b0319166001600160a01b0383169081178255604051929350917f8be0079c531659141344cd1fd0a4f28419497f9722a3daafe3b4186f6b6457e0908290a350600180546001600160a01b03199081166001600160a01b03978816908117835560028054831697891697909717909655600380548216958816959095179094556004928355600a829055604080516080810182529586526103e86020870181815291870193845260006060880181815260078054958601815590915296517fa66cc928b5edb82af9bd49922954155ab7b0942694bea4ce44661d9a8736c688939095029283018054909616949097169390931790935590517fa66cc928b5edb82af9bd49922954155ab7b0942694bea4ce44661d9a8736c689830155517fa66cc928b5edb82af9bd49922954155ab7b0942694bea4ce44661d9a8736c68a82015590517fa66cc928b5edb82af9bd49922954155ab7b0942694bea4ce44661d9a8736c68b909101556009556101e4565b3390565b6120c5806101f36000396000f3fe608060405234801561001057600080fd5b506004361061015f5760003560e01c80630755e0b614610164578063081e3eda1461017e5780631058d281146101865780631175a1dd146101a55780631526fe27146101d157806317caf6f11461021e5780631eaaa0451461022657806323cf31181461025a57806341441d3b14610280578063441a3e701461029d578063454b0608146102c057806348cd4cb1146102dd57806351eb05a6146102e55780635312ea8e146103025780635ffe61461461031f578063630b5ba11461033c57806364482f7914610344578063715018a61461036f5780637cd07e471461037757806386a952c41461039b5780638aa28550146103a35780638d88a90e146103ab5780638da5cb5b146103d15780638dbb1e3a146103d957806393f1a40b146103fc578063d49e77cd14610441578063dce1748414610449578063e2bbb15814610451578063f2fde38b14610474575b600080fd5b61016c61049a565b60408051918252519081900360200190f35b61016c6104a0565b6101a36004803603602081101561019c57600080fd5b50356104a6565b005b61016c600480360360408110156101bb57600080fd5b50803590602001356001600160a01b031661068a565b6101ee600480360360208110156101e757600080fd5b50356107f4565b604080516001600160a01b0390951685526020850193909352838301919091526060830152519081900360800190f35b61016c610835565b6101a36004803603606081101561023c57600080fd5b508035906001600160a01b036020820135169060400135151561083b565b6101a36004803603602081101561027057600080fd5b50356001600160a01b03166109c1565b6101a36004803603602081101561029657600080fd5b5035610a3b565b6101a3600480360360408110156102b357600080fd5b5080359060200135610bcf565b6101a3600480360360208110156102d657600080fd5b5035610d71565b61016c610fcd565b6101a3600480360360208110156102fb57600080fd5b5035610fd3565b6101a36004803603602081101561031857600080fd5b50356111f9565b6101a36004803603602081101561033557600080fd5b5035611294565b6101a36112f1565b6101a36004803603606081101561035a57600080fd5b50803590602081013590604001351515611314565b6101a36113f1565b61037f611493565b604080516001600160a01b039092168252519081900360200190f35b61037f6114a2565b61016c6114b1565b6101a3600480360360208110156103c157600080fd5b50356001600160a01b03166114b7565b61037f611524565b61016c600480360360408110156103ef57600080fd5b5080359060200135611533565b6104286004803603604081101561041257600080fd5b50803590602001356001600160a01b031661154e565b6040805192835260208301919091528051918290030190f35b61037f611572565b61037f611581565b6101a36004803603604081101561046757600080fd5b5080359060200135611590565b6101a36004803603602081101561048a57600080fd5b50356001600160a01b03166116ee565b60045481565b60075490565b600060076000815481106104b657fe5b600091825260208083203384527f5eff886ea0ce6ca488a3d6e336d6c0f75f46d19b42c06ce5ee98e42c96d256c79091526040909220805460049092029092019250831115610541576040805162461bcd60e51b81526020600482015260126024820152711dda5d1a191c985dce881b9bdd0819dbdbd960721b604482015290519081900360640190fd5b61054b6000610fd3565b6000610585826001015461057f64e8d4a51000610579876003015487600001546117e690919063ffffffff16565b9061183f565b9061187e565b905080156105975761059733826118c0565b83156105c15781546105a9908561187e565b825582546105c1906001600160a01b03163386611931565b600383015482546105dc9164e8d4a5100091610579916117e6565b600183015560025460408051632770a7eb60e21b81523360048201526024810187905290516001600160a01b0390921691639dc29fac9160448082019260009290919082900301818387803b15801561063457600080fd5b505af1158015610648573d6000803e3d6000fd5b5050604080518781529051600093503392507ff279e6a1f5e320cca91135676d9cb6e44ca8a08c0b88342bcdb1144f6511b5689181900360200190a350505050565b6000806007848154811061069a57fe5b600091825260208083208784526008825260408085206001600160a01b03898116875290845281862060049586029093016003810154815484516370a0823160e01b81523098810198909852935191985093969395939492909116926370a08231926024808301939192829003018186803b15801561071857600080fd5b505afa15801561072c573d6000803e3d6000fd5b505050506040513d602081101561074257600080fd5b505160028501549091504311801561075957508015155b156107bf57600061076e856002015443611533565b9050600061079b6009546105798860010154610795600454876117e690919063ffffffff16565b906117e6565b90506107ba6107b3846105798464e8d4a510006117e6565b8590611988565b935050505b6107e7836001015461057f64e8d4a510006105798688600001546117e690919063ffffffff16565b9450505050505b92915050565b6007818154811061080157fe5b600091825260209091206004909102018054600182015460028301546003909301546001600160a01b039092169350919084565b60095481565b6108436119e0565b6000546001600160a01b03908116911614610893576040805162461bcd60e51b81526020600482018190526024820152600080516020612010833981519152604482015290519081900360640190fd5b80156108a1576108a16112f1565b6000600a5443116108b457600a546108b6565b435b6009549091506108c69085611988565b600955604080516080810182526001600160a01b0385811682526020820187815292820184815260006060840181815260078054600181018255925293517fa66cc928b5edb82af9bd49922954155ab7b0942694bea4ce44661d9a8736c688600490920291820180546001600160a01b031916919094161790925592517fa66cc928b5edb82af9bd49922954155ab7b0942694bea4ce44661d9a8736c68982015591517fa66cc928b5edb82af9bd49922954155ab7b0942694bea4ce44661d9a8736c68a830155517fa66cc928b5edb82af9bd49922954155ab7b0942694bea4ce44661d9a8736c68b909101556109bb6119e4565b50505050565b6109c96119e0565b6000546001600160a01b03908116911614610a19576040805162461bcd60e51b81526020600482018190526024820152600080516020612010833981519152604482015290519081900360640190fd5b600680546001600160a01b0319166001600160a01b0392909216919091179055565b60006007600081548110610a4b57fe5b600091825260208083203384527f5eff886ea0ce6ca488a3d6e336d6c0f75f46d19b42c06ce5ee98e42c96d256c790915260408320600490920201925090610a9290610fd3565b805415610adb576000610ac7826001015461057f64e8d4a51000610579876003015487600001546117e690919063ffffffff16565b90508015610ad957610ad933826118c0565b505b8215610b07578154610af8906001600160a01b0316333086611aa9565b8054610b049084611988565b81555b60038201548154610b229164e8d4a5100091610579916117e6565b6001820155600254604080516340c10f1960e01b81523360048201526024810186905290516001600160a01b03909216916340c10f199160448082019260009290919082900301818387803b158015610b7a57600080fd5b505af1158015610b8e573d6000803e3d6000fd5b5050604080518681529051600093503392507f90890809c654f11d6e72a28fa60149770a0d11ec6c92319d6ceb2bb0a4ea1a159181900360200190a3505050565b81610c1e576040805162461bcd60e51b815260206004820152601a60248201527977697468647261772043414b4520627920756e7374616b696e6760301b604482015290519081900360640190fd5b600060078381548110610c2d57fe5b600091825260208083208684526008825260408085203386529092529220805460049092029092019250831115610ca0576040805162461bcd60e51b81526020600482015260126024820152711dda5d1a191c985dce881b9bdd0819dbdbd960721b604482015290519081900360640190fd5b610ca984610fd3565b6000610cd7826001015461057f64e8d4a51000610579876003015487600001546117e690919063ffffffff16565b90508015610ce957610ce933826118c0565b8315610d13578154610cfb908561187e565b82558254610d13906001600160a01b03163386611931565b60038301548254610d2e9164e8d4a5100091610579916117e6565b6001830155604080518581529051869133917ff279e6a1f5e320cca91135676d9cb6e44ca8a08c0b88342bcdb1144f6511b5689181900360200190a35050505050565b6006546001600160a01b0316610dc5576040805162461bcd60e51b815260206004820152601460248201527336b4b3b930ba329d1037379036b4b3b930ba37b960611b604482015290519081900360640190fd5b600060078281548110610dd457fe5b600091825260208083206004928302018054604080516370a0823160e01b81523095810195909552519195506001600160a01b0316939284926370a0823192602480840193829003018186803b158015610e2d57600080fd5b505afa158015610e41573d6000803e3d6000fd5b505050506040513d6020811015610e5757600080fd5b5051600654909150610e76906001600160a01b03848116911683611b03565b6006546040805163ce5494bb60e01b81526001600160a01b0385811660048301529151600093929092169163ce5494bb9160248082019260209290919082900301818787803b158015610ec857600080fd5b505af1158015610edc573d6000803e3d6000fd5b505050506040513d6020811015610ef257600080fd5b5051604080516370a0823160e01b815230600482015290519192506001600160a01b038316916370a0823191602480820192602092909190829003018186803b158015610f3e57600080fd5b505afa158015610f52573d6000803e3d6000fd5b505050506040513d6020811015610f6857600080fd5b50518214610fac576040805162461bcd60e51b815260206004820152600c60248201526b1b5a59dc985d194e8818985960a21b604482015290519081900360640190fd5b83546001600160a01b0319166001600160a01b039190911617909255505050565b600a5481565b600060078281548110610fe257fe5b906000526020600020906004020190508060020154431161100357506111f6565b8054604080516370a0823160e01b815230600482015290516000926001600160a01b0316916370a08231916024808301926020929190829003018186803b15801561104d57600080fd5b505afa158015611061573d6000803e3d6000fd5b505050506040513d602081101561107757600080fd5b505190508061108d5750436002909101556111f6565b600061109d836002015443611533565b905060006110c46009546105798660010154610795600454876117e690919063ffffffff16565b6001546003549192506001600160a01b03908116916340c10f1991166110eb84600a61183f565b6040518363ffffffff1660e01b815260040180836001600160a01b0316815260200182815260200192505050600060405180830381600087803b15801561113157600080fd5b505af1158015611145573d6000803e3d6000fd5b5050600154600254604080516340c10f1960e01b81526001600160a01b0392831660048201526024810187905290519190921693506340c10f199250604480830192600092919082900301818387803b1580156111a157600080fd5b505af11580156111b5573d6000803e3d6000fd5b505050506111e36111d88461057964e8d4a51000856117e690919063ffffffff16565b600386015490611988565b6003850155505043600290920191909155505b50565b60006007828154811061120857fe5b6000918252602080832085845260088252604080852033808752935290932080546004909302909301805490945061124d926001600160a01b03919091169190611931565b80546040805191825251849133917fbb757047c2b5f3974fe26b7c10f732e7bce710b0952a71082702781e62ae05959181900360200190a360008082556001909101555050565b61129c6119e0565b6000546001600160a01b039081169116146112ec576040805162461bcd60e51b81526020600482018190526024820152600080516020612010833981519152604482015290519081900360640190fd5b600555565b60075460005b818110156113105761130881610fd3565b6001016112f7565b5050565b61131c6119e0565b6000546001600160a01b0390811691161461136c576040805162461bcd60e51b81526020600482018190526024820152600080516020612010833981519152604482015290519081900360640190fd5b801561137a5761137a6112f1565b60006007848154811061138957fe5b906000526020600020906004020160010154905082600785815481106113ab57fe5b9060005260206000209060040201600101819055508281146109bb576113e6836113e08360095461187e90919063ffffffff16565b90611988565b6009556109bb6119e4565b6113f96119e0565b6000546001600160a01b03908116911614611449576040805162461bcd60e51b81526020600482018190526024820152600080516020612010833981519152604482015290519081900360640190fd5b600080546040516001600160a01b03909116907f8be0079c531659141344cd1fd0a4f28419497f9722a3daafe3b4186f6b6457e0908390a3600080546001600160a01b0319169055565b6006546001600160a01b031681565b6002546001600160a01b031681565b60055481565b6003546001600160a01b03163314611502576040805162461bcd60e51b81526020600482015260096024820152686465763a207775743f60b81b604482015290519081900360640190fd5b600380546001600160a01b0319166001600160a01b0392909216919091179055565b6000546001600160a01b031690565b60055460009061154790610795848661187e565b9392505050565b60086020908152600092835260408084209091529082529020805460019091015482565b6003546001600160a01b031681565b6001546001600160a01b031681565b816115dc576040805162461bcd60e51b81526020600482015260176024820152766465706f7369742043414b45206279207374616b696e6760481b604482015290519081900360640190fd5b6000600783815481106115eb57fe5b6000918252602080832086845260088252604080852033865290925292206004909102909101915061161c84610fd3565b805415611665576000611651826001015461057f64e8d4a51000610579876003015487600001546117e690919063ffffffff16565b905080156116635761166333826118c0565b505b8215611691578154611682906001600160a01b0316333086611aa9565b805461168e9084611988565b81555b600382015481546116ac9164e8d4a5100091610579916117e6565b6001820155604080518481529051859133917f90890809c654f11d6e72a28fa60149770a0d11ec6c92319d6ceb2bb0a4ea1a159181900360200190a350505050565b6116f66119e0565b6000546001600160a01b03908116911614611746576040805162461bcd60e51b81526020600482018190526024820152600080516020612010833981519152604482015290519081900360640190fd5b6001600160a01b03811661178b5760405162461bcd60e51b8152600401808060200182810382526026815260200180611fa36026913960400191505060405180910390fd5b600080546040516001600160a01b03808516939216917f8be0079c531659141344cd1fd0a4f28419497f9722a3daafe3b4186f6b6457e091a3600080546001600160a01b0319166001600160a01b0392909216919091179055565b6000826117f5575060006107ee565b8282028284828161180257fe5b04146115475760405162461bcd60e51b8152600401808060200182810382526021815260200180611fef6021913960400191505060405180910390fd5b600061154783836040518060400160405280601a815260200179536166654d6174683a206469766973696f6e206279207a65726f60301b815250611c16565b600061154783836040518060400160405280601e81526020017f536166654d6174683a207375627472616374696f6e206f766572666c6f770000815250611cb8565b600254604080516328b9b77360e21b81526001600160a01b038581166004830152602482018590529151919092169163a2e6ddcc91604480830192600092919082900301818387803b15801561191557600080fd5b505af1158015611929573d6000803e3d6000fd5b505050505050565b604080516001600160a01b038416602482015260448082018490528251808303909101815260649091019091526020810180516001600160e01b031663a9059cbb60e01b179052611983908490611d12565b505050565b600082820183811015611547576040805162461bcd60e51b815260206004820152601b60248201527a536166654d6174683a206164646974696f6e206f766572666c6f7760281b604482015290519081900360640190fd5b3390565b600754600060015b82811015611a2f57611a2560078281548110611a0457fe5b9060005260206000209060040201600101548361198890919063ffffffff16565b91506001016119ec565b50801561131057611a4181600361183f565b9050611a7b816113e06007600081548110611a5857fe5b90600052602060002090600402016001015460095461187e90919063ffffffff16565b600981905550806007600081548110611a9057fe5b9060005260206000209060040201600101819055505050565b604080516001600160a01b0380861660248301528416604482015260648082018490528251808303909101815260849091019091526020810180516001600160e01b03166323b872dd60e01b1790526109bb908590611d12565b801580611b89575060408051636eb1769f60e11b81523060048201526001600160a01b03848116602483015291519185169163dd62ed3e91604480820192602092909190829003018186803b158015611b5b57600080fd5b505afa158015611b6f573d6000803e3d6000fd5b505050506040513d6020811015611b8557600080fd5b5051155b611bc45760405162461bcd60e51b815260040180806020018281038252603681526020018061205a6036913960400191505060405180910390fd5b604080516001600160a01b038416602482015260448082018490528251808303909101815260649091019091526020810180516001600160e01b031663095ea7b360e01b179052611983908490611d12565b60008183611ca25760405162461bcd60e51b81526004018080602001828103825283818151815260200191508051906020019080838360005b83811015611c67578181015183820152602001611c4f565b50505050905090810190601f168015611c945780820380516001836020036101000a031916815260200191505b509250505060405180910390fd5b506000838581611cae57fe5b0495945050505050565b60008184841115611d0a5760405162461bcd60e51b8152602060048201818152835160248401528351909283926044909101919085019080838360008315611c67578181015183820152602001611c4f565b505050900390565b6060611d67826040518060400160405280602081526020017f5361666545524332303a206c6f772d6c6576656c2063616c6c206661696c6564815250856001600160a01b0316611dc39092919063ffffffff16565b80519091501561198357808060200190516020811015611d8657600080fd5b50516119835760405162461bcd60e51b815260040180806020018281038252602a815260200180612030602a913960400191505060405180910390fd5b6060611dd28484600085611dda565b949350505050565b606082471015611e1b5760405162461bcd60e51b8152600401808060200182810382526026815260200180611fc96026913960400191505060405180910390fd5b611e2485611f36565b611e75576040805162461bcd60e51b815260206004820152601d60248201527f416464726573733a2063616c6c20746f206e6f6e2d636f6e7472616374000000604482015290519081900360640190fd5b60006060866001600160a01b031685876040518082805190602001908083835b60208310611eb45780518252601f199092019160209182019101611e95565b6001836020036101000a03801982511681845116808217855250505050505090500191505060006040518083038185875af1925050503d8060008114611f16576040519150601f19603f3d011682016040523d82523d6000602084013e611f1b565b606091505b5091509150611f2b828286611f3c565b979650505050505050565b3b151590565b60608315611f4b575081611547565b825115611f5b5782518084602001fd5b60405162461bcd60e51b8152602060048201818152845160248401528451859391928392604401919085019080838360008315611c67578181015183820152602001611c4f56fe4f776e61626c653a206e6577206f776e657220697320746865207a65726f2061646472657373416464726573733a20696e73756666696369656e742062616c616e636520666f722063616c6c536166654d6174683a206d756c7469706c69636174696f6e206f766572666c6f774f776e61626c653a2063616c6c6572206973206e6f7420746865206f776e65725361666545524332303a204552433230206f7065726174696f6e20646964206e6f7420737563636565645361666545524332303a20617070726f76652066726f6d206e6f6e2d7a65726f20746f206e6f6e2d7a65726f20616c6c6f77616e6365a264697066735822122026e949a9cbc4baf0d8dd778aa7e17e7da45e62f66a3b206f751abb7190869d7664736f6c634300060c0033","linkReferences":{}},"methodIdentifiers":{"BONUS_MULTIPLIER()":"8aa28550","add(uint256,address,bool)":"1eaaa045","cake()":"dce17484","cakePerBlock()":"0755e0b6","deposit(uint256,uint256)":"e2bbb158","dev(address)":"8d88a90e","devaddr()":"d49e77cd","emergencyWithdraw(uint256)":"5312ea8e","enterStaking(uint256)":"41441d3b","getMultiplier(uint256,uint256)":"8dbb1e3a","leaveStaking(uint256)":"1058d281","massUpdatePools()":"630b5ba1","migrate(uint256)":"454b0608","migrator()":"7cd07e47","owner()":"8da5cb5b","pendingCake(uint256,address)":"1175a1dd","poolInfo(uint256)":"1526fe27","poolLength()":"081e3eda","renounceOwnership()":"715018a6","set(uint256,uint256,bool)":"64482f79","setMigrator(address)":"23cf3118","startBlock()":"48cd4cb1","syrup()":"86a952c4","totalAllocPoint()":"17caf6f1","transferOwnership(address)":"f2fde38b","updateMultiplier(uint256)":"5ffe6146","updatePool(uint256)":"51eb05a6","userInfo(uint256,address)":"93f1a40b","withdraw(uint256,uint256)":"441a3e70"},"id":99}