{"abi":[{"type":"function","name":"getTransferTokenOfIncreasePositionRequests","inputs":[{"name":"_positionRouter","type":"address","internalType":"address"},{"name":"_endIndex","type":"uint256","internalType":"uint256"}],"outputs":[{"name":"","type":"uint256[]","internalType":"uint256[]"},{"name":"","type":"address[]","internalType":"address[]"}],"stateMutability":"view"}],"bytecode":{"object":"0x608060405234801561001057600080fd5b50610455806100206000396000f3fe608060405234801561001057600080fd5b506004361061002b5760003560e01c80630e0deb1a14610030575b600080fd5b61005c6004803603604081101561004657600080fd5b506001600160a01b0381351690602001356100f5565b604051808060200180602001838103835285818151815260200191508051906020019060200280838360005b838110156100a0578181015183820152602001610088565b50505050905001838103825284818151815260200191508051906020019060200280838360005b838110156100df5781810151838201526020016100c7565b5050505090500194505050505060405180910390f35b6060806000849050600080826001600160a01b031663f2cea6a56040518163ffffffff1660e01b815260040160806040518083038186803b15801561013957600080fd5b505afa15801561014d573d6000803e3d6000fd5b505050506040513d608081101561016357600080fd5b50805160209091015190925090508086111561017d578095505b60608287036001600160401b038111801561019757600080fd5b506040519080825280602002602001820160405280156101c1578160200160208202803683370190505b50905060608388036001600160401b03811180156101de57600080fd5b50604051908082528060200260200182016040528015610208578160200160208202803683370190505b50905060005b88851015610410576000866001600160a01b03166304225954876040518263ffffffff1660e01b81526004018082815260200191505060206040518083038186803b15801561025c57600080fd5b505afa158015610270573d6000803e3d6000fd5b505050506040513d602081101561028657600080fd5b5051604080516395e9bbd760e01b81526004810183905290519192506060916001600160a01b038a16916395e9bbd7916024808301926000929190829003018186803b1580156102d557600080fd5b505afa1580156102e9573d6000803e3d6000fd5b505050506040513d6000823e601f3d908101601f19168201604052602081101561031257600080fd5b8101908080516040519392919084600160201b82111561033157600080fd5b90830190602082018581111561034657600080fd5b82518660208202830111600160201b8211171561036257600080fd5b82525081516020918201928201910280838360005b8381101561038f578181015183820152602001610377565b5050505090500160405250505090506000815111156103ea57806000815181106103b557fe5b60200260200101518484815181106103c957fe5b60200260200101906001600160a01b031690816001600160a01b0316815250505b868584815181106103f757fe5b602090810291909101015250506001948501940161020e565b5090989097509550505050505056fea26469706673582212207f1837e4986048fb527fce0e930c4e43b2c7a43879cc51e5f43a019d67c2b8d264736f6c634300060c0033","linkReferences":{}},"methodIdentifiers":{"getTransferTokenOfIncreasePositionRequests(address,uint256)":"0e0deb1a"},"id":106}