{"abi":[{"type":"constructor","inputs":[{"name":"name","type":"string","internalType":"string"},{"name":"symbol","type":"string","internalType":"string"},{"name":"decimals","type":"uint8","internalType":"uint8"}],"stateMutability":"nonpayable"},{"type":"function","name":"allowance","inputs":[{"name":"owner","type":"address","internalType":"address"},{"name":"spender","type":"address","internalType":"address"}],"outputs":[{"name":"","type":"uint256","internalType":"uint256"}],"stateMutability":"view"},{"type":"function","name":"approve","inputs":[{"name":"spender","type":"address","internalType":"address"},{"name":"amount","type":"uint256","internalType":"uint256"}],"outputs":[{"name":"","type":"bool","internalType":"bool"}],"stateMutability":"nonpayable"},{"type":"function","name":"balanceOf","inputs":[{"name":"account","type":"address","internalType":"address"}],"outputs":[{"name":"","type":"uint256","internalType":"uint256"}],"stateMutability":"view"},{"type":"function","name":"decimals","inputs":[],"outputs":[{"name":"","type":"uint8","internalType":"uint8"}],"stateMutability":"view"},{"type":"function","name":"decreaseAllowance","inputs":[{"name":"spender","type":"address","internalType":"address"},{"name":"subtractedValue","type":"uint256","internalType":"uint256"}],"outputs":[{"name":"","type":"bool","internalType":"bool"}],"stateMutability":"nonpayable"},{"type":"function","name":"deposit","inputs":[],"outputs":[],"stateMutability":"payable"},{"type":"function","name":"increaseAllowance","inputs":[{"name":"spender","type":"address","internalType":"address"},{"name":"addedValue","type":"uint256","internalType":"uint256"}],"outputs":[{"name":"","type":"bool","internalType":"bool"}],"stateMutability":"nonpayable"},{"type":"function","name":"mint","inputs":[{"name":"account","type":"address","internalType":"address"},{"name":"amount","type":"uint256","internalType":"uint256"}],"outputs":[],"stateMutability":"nonpayable"},{"type":"function","name":"name","inputs":[],"outputs":[{"name":"","type":"string","internalType":"string"}],"stateMutability":"view"},{"type":"function","name":"symbol","inputs":[],"outputs":[{"name":"","type":"string","internalType":"string"}],"stateMutability":"view"},{"type":"function","name":"totalSupply","inputs":[],"outputs":[{"name":"","type":"uint256","internalType":"uint256"}],"stateMutability":"view"},{"type":"function","name":"transfer","inputs":[{"name":"recipient","type":"address","internalType":"address"},{"name":"amount","type":"uint256","internalType":"uint256"}],"outputs":[{"name":"","type":"bool","internalType":"bool"}],"stateMutability":"nonpayable"},{"type":"function","name":"transferFrom","inputs":[{"name":"sender","type":"address","internalType":"address"},{"name":"recipient","type":"address","internalType":"address"},{"name":"amount","type":"uint256","internalType":"uint256"}],"outputs":[{"name":"","type":"bool","internalType":"bool"}],"stateMutability":"nonpayable"},{"type":"function","name":"withdraw","inputs":[{"name":"amount","type":"uint256","internalType":"uint256"}],"outputs":[],"stateMutability":"nonpayable"},{"type":"event","name":"Approval","inputs":[{"name":"owner","type":"address","indexed":true,"internalType":"address"},{"name":"spender","type":"address","indexed":true,"internalType":"address"},{"name":"value","type":"uint256","indexed":false,"internalType":"uint256"}],"anonymous":false},{"type":"event","name":"Transfer","inputs":[{"name":"from","type":"address","indexed":true,"internalType":"address"},{"name":"to","type":"address","indexed":true,"internalType":"address"},{"name":"value","type":"uint256","indexed":false,"internalType":"uint256"}],"anonymous":false}],"bytecode":{"object":"0x60806040523480156200001157600080fd5b5060405162000f6838038062000f68833981810160405260608110156200003757600080fd5b81019080805160405193929190846401000000008211156200005857600080fd5b9083019060208201858111156200006e57600080fd5b82516401000000008111828201881017156200008957600080fd5b82525081516020918201929091019080838360005b83811015620000b85781810151838201526020016200009e565b50505050905090810190601f168015620000e65780820380516001836020036101000a031916815260200191505b50604052602001805160405193929190846401000000008211156200010a57600080fd5b9083019060208201858111156200012057600080fd5b82516401000000008111828201881017156200013b57600080fd5b82525081516020918201929091019080838360005b838110156200016a57818101518382015260200162000150565b50505050905090810190601f168015620001985780820380516001836020036101000a031916815260200191505b506040526020908101518551909350620001b99250600191860190620001ed565b508151620001cf906002906020850190620001ed565b506003805460ff191660ff9290921691909117905550620002899050565b828054600181600116156101000203166002900490600052602060002090601f016020900481019282601f106200023057805160ff191683800117855562000260565b8280016001018555821562000260579182015b828111156200026057825182559160200191906001019062000243565b506200026e92915062000272565b5090565b5b808211156200026e576000815560010162000273565b610ccf80620002996000396000f3fe6080604052600436106100ad5760003560e01c806306fdde03146100b2578063095ea7b31461013c57806318160ddd1461018957806323b872dd146101b05780632e1a7d4d146101f3578063313ce5671461021f578063395093511461024a57806340c10f191461028357806370a08231146102bc57806395d89b41146102ef578063a457c2d714610304578063a9059cbb1461033d578063d0e30db014610376578063dd62ed3e1461037e575b600080fd5b3480156100be57600080fd5b506100c76103b9565b6040805160208082528351818301528351919283929083019185019080838360005b838110156101015781810151838201526020016100e9565b50505050905090810190601f16801561012e5780820380516001836020036101000a031916815260200191505b509250505060405180910390f35b34801561014857600080fd5b506101756004803603604081101561015f57600080fd5b506001600160a01b03813516906020013561044e565b604080519115158252519081900360200190f35b34801561019557600080fd5b5061019e61046b565b60408051918252519081900360200190f35b3480156101bc57600080fd5b50610175600480360360608110156101d357600080fd5b506001600160a01b03813581169160208101359091169060400135610471565b3480156101ff57600080fd5b5061021d6004803603602081101561021657600080fd5b50356104f8565b005b34801561022b57600080fd5b50610234610570565b6040805160ff9092168252519081900360200190f35b34801561025657600080fd5b506101756004803603604081101561026d57600080fd5b506001600160a01b038135169060200135610579565b34801561028f57600080fd5b5061021d600480360360408110156102a657600080fd5b506001600160a01b0381351690602001356105c7565b3480156102c857600080fd5b5061019e600480360360208110156102df57600080fd5b50356001600160a01b03166105d1565b3480156102fb57600080fd5b506100c76105ec565b34801561031057600080fd5b506101756004803603604081101561032757600080fd5b506001600160a01b03813516906020013561064a565b34801561034957600080fd5b506101756004803603604081101561036057600080fd5b506001600160a01b0381351690602001356106b2565b61021d6106c6565b34801561038a57600080fd5b5061019e600480360360408110156103a157600080fd5b506001600160a01b03813581169160200135166106f2565b60018054604080516020601f600260001961010087891615020190951694909404938401819004810282018101909252828152606093909290918301828280156104445780601f1061041957610100808354040283529160200191610444565b820191906000526020600020905b81548152906001019060200180831161042757829003601f168201915b5050505050905090565b600061046261045b61071d565b8484610721565b50600192915050565b60005490565b600061047e84848461080d565b6104ee8461048a61071d565b6104e985604051806060016040528060288152602001610c04602891396001600160a01b038a166000908152600560205260408120906104c861071d565b6001600160a01b03168152602081019190915260400160002054919061096a565b610721565b5060019392505050565b3360009081526004602052604090205481111561051457600080fd5b3360009081526004602052604090205461052e9082610a01565b33600081815260046020526040808220939093559151909183156108fc02918491818181858888f1935050505015801561056c573d6000803e3d6000fd5b5050565b60035460ff1690565b600061046261058661071d565b846104e9856005600061059761071d565b6001600160a01b03908116825260208083019390935260409182016000908120918c168152925290205490610a4a565b61056c8282610aa2565b6001600160a01b031660009081526004602052604090205490565b60028054604080516020601f60001961010060018716150201909416859004938401819004810282018101909252828152606093909290918301828280156104445780601f1061041957610100808354040283529160200191610444565b600061046261065761071d565b846104e985604051806060016040528060258152602001610c75602591396005600061068161071d565b6001600160a01b03908116825260208083019390935260409182016000908120918d1681529252902054919061096a565b60006104626106bf61071d565b848461080d565b336000908152600460205260409020546106e09034610a4a565b33600090815260046020526040902055565b6001600160a01b03918216600090815260056020908152604080832093909416825291909152205490565b3390565b6001600160a01b0383166107665760405162461bcd60e51b8152600401808060200182810382526024815260200180610c516024913960400191505060405180910390fd5b6001600160a01b0382166107ab5760405162461bcd60e51b8152600401808060200182810382526022815260200180610bbc6022913960400191505060405180910390fd5b6001600160a01b03808416600081815260056020908152604080832094871680845294825291829020859055815185815291517f8c5be1e5ebec7d5bd14f71427d1e84f3dd0314c0f7b2291e5b200ac8c7c3b9259281900390910190a3505050565b6001600160a01b0383166108525760405162461bcd60e51b8152600401808060200182810382526025815260200180610c2c6025913960400191505060405180910390fd5b6001600160a01b0382166108975760405162461bcd60e51b8152600401808060200182810382526023815260200180610b996023913960400191505060405180910390fd5b6108a2838383610b93565b6108df81604051806060016040528060268152602001610bde602691396001600160a01b038616600090815260046020526040902054919061096a565b6001600160a01b03808516600090815260046020526040808220939093559084168152205461090e9082610a4a565b6001600160a01b0380841660008181526004602090815260409182902094909455805185815290519193928716927fddf252ad1be2c89b69c2b068fc378daa952ba7f163c4a11628f55a4df523b3ef92918290030190a3505050565b600081848411156109f95760405162461bcd60e51b81526004018080602001828103825283818151815260200191508051906020019080838360005b838110156109be5781810151838201526020016109a6565b50505050905090810190601f1680156109eb5780820380516001836020036101000a031916815260200191505b509250505060405180910390fd5b505050900390565b6000610a4383836040518060400160405280601e81526020017f536166654d6174683a207375627472616374696f6e206f766572666c6f77000081525061096a565b9392505050565b600082820183811015610a43576040805162461bcd60e51b815260206004820152601b60248201527a536166654d6174683a206164646974696f6e206f766572666c6f7760281b604482015290519081900360640190fd5b6001600160a01b038216610afd576040805162461bcd60e51b815260206004820152601f60248201527f45524332303a206d696e7420746f20746865207a65726f206164647265737300604482015290519081900360640190fd5b610b0960008383610b93565b600054610b169082610a4a565b60009081556001600160a01b038316815260046020526040902054610b3b9082610a4a565b6001600160a01b03831660008181526004602090815260408083209490945583518581529351929391927fddf252ad1be2c89b69c2b068fc378daa952ba7f163c4a11628f55a4df523b3ef9281900390910190a35050565b50505056fe45524332303a207472616e7366657220746f20746865207a65726f206164647265737345524332303a20617070726f766520746f20746865207a65726f206164647265737345524332303a207472616e7366657220616d6f756e7420657863656564732062616c616e636545524332303a207472616e7366657220616d6f756e74206578636565647320616c6c6f77616e636545524332303a207472616e736665722066726f6d20746865207a65726f206164647265737345524332303a20617070726f76652066726f6d20746865207a65726f206164647265737345524332303a2064656372656173656420616c6c6f77616e63652062656c6f77207a65726fa26469706673582212200da2b4ee40b0b571d55e22969426ec0ff10bba8396204ec1145e1d03d1cbb07764736f6c634300060c0033","linkReferences":{}},"methodIdentifiers":{"allowance(address,address)":"dd62ed3e","approve(address,uint256)":"095ea7b3","balanceOf(address)":"70a08231","decimals()":"313ce567","decreaseAllowance(address,uint256)":"a457c2d7","deposit()":"d0e30db0","increaseAllowance(address,uint256)":"39509351","mint(address,uint256)":"40c10f19","name()":"06fdde03","symbol()":"95d89b41","totalSupply()":"18160ddd","transfer(address,uint256)":"a9059cbb","transferFrom(address,address,uint256)":"23b872dd","withdraw(uint256)":"2e1a7d4d"},"id":148}