{"abi":[{"type":"constructor","inputs":[{"name":"_admin","type":"address","internalType":"address"},{"name":"_buffer","type":"uint256","internalType":"uint256"},{"name":"_tokenManager","type":"address","internalType":"address"},{"name":"_mintReceiver","type":"address","internalType":"address"},{"name":"_zlpManager","type":"address","internalType":"address"},{"name":"_zlpToken","type":"address","internalType":"address"},{"name":"_rewardRouter","type":"address","internalType":"address"},{"name":"_maxTokenSupply","type":"uint256","internalType":"uint256"},{"name":"_marginFeeBasisPoints","type":"uint256","internalType":"uint256"},{"name":"_maxMarginFeeBasisPoints","type":"uint256","internalType":"uint256"}],"stateMutability":"nonpayable"},{"type":"function","name":"MAX_BUFFER","inputs":[],"outputs":[{"name":"","type":"uint256","internalType":"uint256"}],"stateMutability":"view"},{"type":"function","name":"MAX_FUNDING_RATE_FACTOR","inputs":[],"outputs":[{"name":"","type":"uint256","internalType":"uint256"}],"stateMutability":"view"},{"type":"function","name":"MAX_LEVERAGE_VALIDATION","inputs":[],"outputs":[{"name":"","type":"uint256","internalType":"uint256"}],"stateMutability":"view"},{"type":"function","name":"PRICE_PRECISION","inputs":[],"outputs":[{"name":"","type":"uint256","internalType":"uint256"}],"stateMutability":"view"},{"type":"function","name":"admin","inputs":[],"outputs":[{"name":"","type":"address","internalType":"address"}],"stateMutability":"view"},{"type":"function","name":"approve","inputs":[{"name":"_token","type":"address","internalType":"address"},{"name":"_spender","type":"address","internalType":"address"},{"name":"_amount","type":"uint256","internalType":"uint256"}],"outputs":[],"stateMutability":"nonpayable"},{"type":"function","name":"batchSetBonusRewards","inputs":[{"name":"_vester","type":"address","internalType":"address"},{"name":"_accounts","type":"address[]","internalType":"address[]"},{"name":"_amounts","type":"uint256[]","internalType":"uint256[]"}],"outputs":[],"stateMutability":"nonpayable"},{"type":"function","name":"batchWithdrawFees","inputs":[{"name":"_vault","type":"address","internalType":"address"},{"name":"_tokens","type":"address[]","internalType":"address[]"}],"outputs":[],"stateMutability":"nonpayable"},{"type":"function","name":"buffer","inputs":[],"outputs":[{"name":"","type":"uint256","internalType":"uint256"}],"stateMutability":"view"},{"type":"function","name":"cancelAction","inputs":[{"name":"_action","type":"bytes32","internalType":"bytes32"}],"outputs":[],"stateMutability":"nonpayable"},{"type":"function","name":"disableLeverage","inputs":[{"name":"_vault","type":"address","internalType":"address"}],"outputs":[],"stateMutability":"nonpayable"},{"type":"function","name":"enableLeverage","inputs":[{"name":"_vault","type":"address","internalType":"address"}],"outputs":[],"stateMutability":"nonpayable"},{"type":"function","name":"govSetCodeOwner","inputs":[{"name":"_referralStorage","type":"address","internalType":"address"},{"name":"_code","type":"bytes32","internalType":"bytes32"},{"name":"_newAccount","type":"address","internalType":"address"}],"outputs":[],"stateMutability":"nonpayable"},{"type":"function","name":"initRewardRouter","inputs":[],"outputs":[],"stateMutability":"nonpayable"},{"type":"function","name":"initZlpManager","inputs":[],"outputs":[],"stateMutability":"nonpayable"},{"type":"function","name":"isHandler","inputs":[{"name":"","type":"address","internalType":"address"}],"outputs":[{"name":"","type":"bool","internalType":"bool"}],"stateMutability":"view"},{"type":"function","name":"isKeeper","inputs":[{"name":"","type":"address","internalType":"address"}],"outputs":[{"name":"","type":"bool","internalType":"bool"}],"stateMutability":"view"},{"type":"function","name":"marginFeeBasisPoints","inputs":[],"outputs":[{"name":"","type":"uint256","internalType":"uint256"}],"stateMutability":"view"},{"type":"function","name":"maxMarginFeeBasisPoints","inputs":[],"outputs":[{"name":"","type":"uint256","internalType":"uint256"}],"stateMutability":"view"},{"type":"function","name":"maxTokenSupply","inputs":[],"outputs":[{"name":"","type":"uint256","internalType":"uint256"}],"stateMutability":"view"},{"type":"function","name":"mintReceiver","inputs":[],"outputs":[{"name":"","type":"address","internalType":"address"}],"stateMutability":"view"},{"type":"function","name":"pendingActions","inputs":[{"name":"","type":"bytes32","internalType":"bytes32"}],"outputs":[{"name":"","type":"uint256","internalType":"uint256"}],"stateMutability":"view"},{"type":"function","name":"processMint","inputs":[{"name":"_token","type":"address","internalType":"address"},{"name":"_receiver","type":"address","internalType":"address"},{"name":"_amount","type":"uint256","internalType":"uint256"}],"outputs":[],"stateMutability":"nonpayable"},{"type":"function","name":"redeemUsdg","inputs":[{"name":"_vault","type":"address","internalType":"address"},{"name":"_token","type":"address","internalType":"address"},{"name":"_amount","type":"uint256","internalType":"uint256"}],"outputs":[],"stateMutability":"nonpayable"},{"type":"function","name":"removeAdmin","inputs":[{"name":"_token","type":"address","internalType":"address"},{"name":"_account","type":"address","internalType":"address"}],"outputs":[],"stateMutability":"nonpayable"},{"type":"function","name":"rewardRouter","inputs":[],"outputs":[{"name":"","type":"address","internalType":"address"}],"stateMutability":"view"},{"type":"function","name":"setAdmin","inputs":[{"name":"_admin","type":"address","internalType":"address"}],"outputs":[],"stateMutability":"nonpayable"},{"type":"function","name":"setBuffer","inputs":[{"name":"_buffer","type":"uint256","internalType":"uint256"}],"outputs":[],"stateMutability":"nonpayable"},{"type":"function","name":"setContractHandler","inputs":[{"name":"_handler","type":"address","internalType":"address"},{"name":"_isActive","type":"bool","internalType":"bool"}],"outputs":[],"stateMutability":"nonpayable"},{"type":"function","name":"setExternalAdmin","inputs":[{"name":"_target","type":"address","internalType":"address"},{"name":"_admin","type":"address","internalType":"address"}],"outputs":[],"stateMutability":"nonpayable"},{"type":"function","name":"setFees","inputs":[{"name":"_vault","type":"address","internalType":"address"},{"name":"_taxBasisPoints","type":"uint256","internalType":"uint256"},{"name":"_stableTaxBasisPoints","type":"uint256","internalType":"uint256"},{"name":"_mintBurnFeeBasisPoints","type":"uint256","internalType":"uint256"},{"name":"_swapFeeBasisPoints","type":"uint256","internalType":"uint256"},{"name":"_stableSwapFeeBasisPoints","type":"uint256","internalType":"uint256"},{"name":"_marginFeeBasisPoints","type":"uint256","internalType":"uint256"},{"name":"_liquidationFeeUsd","type":"uint256","internalType":"uint256"},{"name":"_minProfitTime","type":"uint256","internalType":"uint256"},{"name":"_hasDynamicFees","type":"bool","internalType":"bool"}],"outputs":[],"stateMutability":"nonpayable"},{"type":"function","name":"setFundingRate","inputs":[{"name":"_vault","type":"address","internalType":"address"},{"name":"_fundingInterval","type":"uint256","internalType":"uint256"},{"name":"_fundingRateFactor","type":"uint256","internalType":"uint256"},{"name":"_stableFundingRateFactor","type":"uint256","internalType":"uint256"}],"outputs":[],"stateMutability":"nonpayable"},{"type":"function","name":"setGov","inputs":[{"name":"_target","type":"address","internalType":"address"},{"name":"_gov","type":"address","internalType":"address"}],"outputs":[],"stateMutability":"nonpayable"},{"type":"function","name":"setHandler","inputs":[{"name":"_target","type":"address","internalType":"address"},{"name":"_handler","type":"address","internalType":"address"},{"name":"_isActive","type":"bool","internalType":"bool"}],"outputs":[],"stateMutability":"nonpayable"},{"type":"function","name":"setInPrivateLiquidationMode","inputs":[{"name":"_vault","type":"address","internalType":"address"},{"name":"_inPrivateLiquidationMode","type":"bool","internalType":"bool"}],"outputs":[],"stateMutability":"nonpayable"},{"type":"function","name":"setInPrivateTransferMode","inputs":[{"name":"_token","type":"address","internalType":"address"},{"name":"_inPrivateTransferMode","type":"bool","internalType":"bool"}],"outputs":[],"stateMutability":"nonpayable"},{"type":"function","name":"setIsLeverageEnabled","inputs":[{"name":"_vault","type":"address","internalType":"address"},{"name":"_isLeverageEnabled","type":"bool","internalType":"bool"}],"outputs":[],"stateMutability":"nonpayable"},{"type":"function","name":"setIsSwapEnabled","inputs":[{"name":"_vault","type":"address","internalType":"address"},{"name":"_isSwapEnabled","type":"bool","internalType":"bool"}],"outputs":[],"stateMutability":"nonpayable"},{"type":"function","name":"setKeeper","inputs":[{"name":"_keeper","type":"address","internalType":"address"},{"name":"_isActive","type":"bool","internalType":"bool"}],"outputs":[],"stateMutability":"nonpayable"},{"type":"function","name":"setLiquidator","inputs":[{"name":"_vault","type":"address","internalType":"address"},{"name":"_liquidator","type":"address","internalType":"address"},{"name":"_isActive","type":"bool","internalType":"bool"}],"outputs":[],"stateMutability":"nonpayable"},{"type":"function","name":"setMarginFeeBasisPoints","inputs":[{"name":"_marginFeeBasisPoints","type":"uint256","internalType":"uint256"},{"name":"_maxMarginFeeBasisPoints","type":"uint256","internalType":"uint256"}],"outputs":[],"stateMutability":"nonpayable"},{"type":"function","name":"setMaxGasPrice","inputs":[{"name":"_vault","type":"address","internalType":"address"},{"name":"_maxGasPrice","type":"uint256","internalType":"uint256"}],"outputs":[],"stateMutability":"nonpayable"},{"type":"function","name":"setMaxGlobalShortSize","inputs":[{"name":"_vault","type":"address","internalType":"address"},{"name":"_token","type":"address","internalType":"address"},{"name":"_amount","type":"uint256","internalType":"uint256"}],"outputs":[],"stateMutability":"nonpayable"},{"type":"function","name":"setMaxLeverage","inputs":[{"name":"_vault","type":"address","internalType":"address"},{"name":"_maxLeverage","type":"uint256","internalType":"uint256"}],"outputs":[],"stateMutability":"nonpayable"},{"type":"function","name":"setPriceFeed","inputs":[{"name":"_vault","type":"address","internalType":"address"},{"name":"_priceFeed","type":"address","internalType":"address"}],"outputs":[],"stateMutability":"nonpayable"},{"type":"function","name":"setReferrerTier","inputs":[{"name":"_referralStorage","type":"address","internalType":"address"},{"name":"_referrer","type":"address","internalType":"address"},{"name":"_tierId","type":"uint256","internalType":"uint256"}],"outputs":[],"stateMutability":"nonpayable"},{"type":"function","name":"setShortsTrackerAveragePriceWeight","inputs":[{"name":"_shortsTrackerAveragePriceWeight","type":"uint256","internalType":"uint256"}],"outputs":[],"stateMutability":"nonpayable"},{"type":"function","name":"setShouldToggleIsLeverageEnabled","inputs":[{"name":"_shouldToggleIsLeverageEnabled","type":"bool","internalType":"bool"}],"outputs":[],"stateMutability":"nonpayable"},{"type":"function","name":"setSwapFees","inputs":[{"name":"_vault","type":"address","internalType":"address"},{"name":"_taxBasisPoints","type":"uint256","internalType":"uint256"},{"name":"_stableTaxBasisPoints","type":"uint256","internalType":"uint256"},{"name":"_mintBurnFeeBasisPoints","type":"uint256","internalType":"uint256"},{"name":"_swapFeeBasisPoints","type":"uint256","internalType":"uint256"},{"name":"_stableSwapFeeBasisPoints","type":"uint256","internalType":"uint256"}],"outputs":[],"stateMutability":"nonpayable"},{"type":"function","name":"setTier","inputs":[{"name":"_referralStorage","type":"address","internalType":"address"},{"name":"_tierId","type":"uint256","internalType":"uint256"},{"name":"_totalRebate","type":"uint256","internalType":"uint256"},{"name":"_discountShare","type":"uint256","internalType":"uint256"}],"outputs":[],"stateMutability":"nonpayable"},{"type":"function","name":"setTokenConfig","inputs":[{"name":"_vault","type":"address","internalType":"address"},{"name":"_token","type":"address","internalType":"address"},{"name":"_tokenWeight","type":"uint256","internalType":"uint256"},{"name":"_minProfitBps","type":"uint256","internalType":"uint256"},{"name":"_maxUsdgAmount","type":"uint256","internalType":"uint256"},{"name":"_bufferAmount","type":"uint256","internalType":"uint256"},{"name":"_usdgAmount","type":"uint256","internalType":"uint256"}],"outputs":[],"stateMutability":"nonpayable"},{"type":"function","name":"setUsdgAmounts","inputs":[{"name":"_vault","type":"address","internalType":"address"},{"name":"_tokens","type":"address[]","internalType":"address[]"},{"name":"_usdgAmounts","type":"uint256[]","internalType":"uint256[]"}],"outputs":[],"stateMutability":"nonpayable"},{"type":"function","name":"setVaultUtils","inputs":[{"name":"_vault","type":"address","internalType":"address"},{"name":"_vaultUtils","type":"address","internalType":"contract IVaultUtils"}],"outputs":[],"stateMutability":"nonpayable"},{"type":"function","name":"setZlpCooldownDuration","inputs":[{"name":"_cooldownDuration","type":"uint256","internalType":"uint256"}],"outputs":[],"stateMutability":"nonpayable"},{"type":"function","name":"shouldToggleIsLeverageEnabled","inputs":[],"outputs":[{"name":"","type":"bool","internalType":"bool"}],"stateMutability":"view"},{"type":"function","name":"signalApprove","inputs":[{"name":"_token","type":"address","internalType":"address"},{"name":"_spender","type":"address","internalType":"address"},{"name":"_amount","type":"uint256","internalType":"uint256"}],"outputs":[],"stateMutability":"nonpayable"},{"type":"function","name":"signalMint","inputs":[{"name":"_token","type":"address","internalType":"address"},{"name":"_receiver","type":"address","internalType":"address"},{"name":"_amount","type":"uint256","internalType":"uint256"}],"outputs":[],"stateMutability":"nonpayable"},{"type":"function","name":"signalRedeemUsdg","inputs":[{"name":"_vault","type":"address","internalType":"address"},{"name":"_token","type":"address","internalType":"address"},{"name":"_amount","type":"uint256","internalType":"uint256"}],"outputs":[],"stateMutability":"nonpayable"},{"type":"function","name":"signalSetGov","inputs":[{"name":"_target","type":"address","internalType":"address"},{"name":"_gov","type":"address","internalType":"address"}],"outputs":[],"stateMutability":"nonpayable"},{"type":"function","name":"signalSetHandler","inputs":[{"name":"_target","type":"address","internalType":"address"},{"name":"_handler","type":"address","internalType":"address"},{"name":"_isActive","type":"bool","internalType":"bool"}],"outputs":[],"stateMutability":"nonpayable"},{"type":"function","name":"signalSetPriceFeed","inputs":[{"name":"_vault","type":"address","internalType":"address"},{"name":"_priceFeed","type":"address","internalType":"address"}],"outputs":[],"stateMutability":"nonpayable"},{"type":"function","name":"signalVaultSetTokenConfig","inputs":[{"name":"_vault","type":"address","internalType":"address"},{"name":"_token","type":"address","internalType":"address"},{"name":"_tokenDecimals","type":"uint256","internalType":"uint256"},{"name":"_tokenWeight","type":"uint256","internalType":"uint256"},{"name":"_minProfitBps","type":"uint256","internalType":"uint256"},{"name":"_maxUsdgAmount","type":"uint256","internalType":"uint256"},{"name":"_isStable","type":"bool","internalType":"bool"},{"name":"_isShortable","type":"bool","internalType":"bool"}],"outputs":[],"stateMutability":"nonpayable"},{"type":"function","name":"signalWithdrawToken","inputs":[{"name":"_target","type":"address","internalType":"address"},{"name":"_token","type":"address","internalType":"address"},{"name":"_receiver","type":"address","internalType":"address"},{"name":"_amount","type":"uint256","internalType":"uint256"}],"outputs":[],"stateMutability":"nonpayable"},{"type":"function","name":"tokenManager","inputs":[],"outputs":[{"name":"","type":"address","internalType":"address"}],"stateMutability":"view"},{"type":"function","name":"transferIn","inputs":[{"name":"_sender","type":"address","internalType":"address"},{"name":"_token","type":"address","internalType":"address"},{"name":"_amount","type":"uint256","internalType":"uint256"}],"outputs":[],"stateMutability":"nonpayable"},{"type":"function","name":"updateUsdgSupply","inputs":[{"name":"usdgAmount","type":"uint256","internalType":"uint256"}],"outputs":[],"stateMutability":"nonpayable"},{"type":"function","name":"vaultSetTokenConfig","inputs":[{"name":"_vault","type":"address","internalType":"address"},{"name":"_token","type":"address","internalType":"address"},{"name":"_tokenDecimals","type":"uint256","internalType":"uint256"},{"name":"_tokenWeight","type":"uint256","internalType":"uint256"},{"name":"_minProfitBps","type":"uint256","internalType":"uint256"},{"name":"_maxUsdgAmount","type":"uint256","internalType":"uint256"},{"name":"_isStable","type":"bool","internalType":"bool"},{"name":"_isShortable","type":"bool","internalType":"bool"}],"outputs":[],"stateMutability":"nonpayable"},{"type":"function","name":"withdrawFees","inputs":[{"name":"_vault","type":"address","internalType":"address"},{"name":"_token","type":"address","internalType":"address"},{"name":"_receiver","type":"address","internalType":"address"}],"outputs":[],"stateMutability":"nonpayable"},{"type":"function","name":"withdrawToken","inputs":[{"name":"_target","type":"address","internalType":"address"},{"name":"_token","type":"address","internalType":"address"},{"name":"_receiver","type":"address","internalType":"address"},{"name":"_amount","type":"uint256","internalType":"uint256"}],"outputs":[],"stateMutability":"nonpayable"},{"type":"function","name":"zlpManager","inputs":[],"outputs":[{"name":"","type":"address","internalType":"address"}],"stateMutability":"view"},{"type":"function","name":"zlpToken","inputs":[],"outputs":[{"name":"","type":"address","internalType":"address"}],"stateMutability":"view"},{"type":"event","name":"ClearAction","inputs":[{"name":"action","type":"bytes32","indexed":false,"internalType":"bytes32"}],"anonymous":false},{"type":"event","name":"SignalApprove","inputs":[{"name":"token","type":"address","indexed":false,"internalType":"address"},{"name":"spender","type":"address","indexed":false,"internalType":"address"},{"name":"amount","type":"uint256","indexed":false,"internalType":"uint256"},{"name":"action","type":"bytes32","indexed":false,"internalType":"bytes32"}],"anonymous":false},{"type":"event","name":"SignalMint","inputs":[{"name":"token","type":"address","indexed":false,"internalType":"address"},{"name":"receiver","type":"address","indexed":false,"internalType":"address"},{"name":"amount","type":"uint256","indexed":false,"internalType":"uint256"},{"name":"action","type":"bytes32","indexed":false,"internalType":"bytes32"}],"anonymous":false},{"type":"event","name":"SignalPendingAction","inputs":[{"name":"action","type":"bytes32","indexed":false,"internalType":"bytes32"}],"anonymous":false},{"type":"event","name":"SignalRedeemUsdg","inputs":[{"name":"vault","type":"address","indexed":false,"internalType":"address"},{"name":"token","type":"address","indexed":false,"internalType":"address"},{"name":"amount","type":"uint256","indexed":false,"internalType":"uint256"}],"anonymous":false},{"type":"event","name":"SignalSetGov","inputs":[{"name":"target","type":"address","indexed":false,"internalType":"address"},{"name":"gov","type":"address","indexed":false,"internalType":"address"},{"name":"action","type":"bytes32","indexed":false,"internalType":"bytes32"}],"anonymous":false},{"type":"event","name":"SignalSetHandler","inputs":[{"name":"target","type":"address","indexed":false,"internalType":"address"},{"name":"handler","type":"address","indexed":false,"internalType":"address"},{"name":"isActive","type":"bool","indexed":false,"internalType":"bool"},{"name":"action","type":"bytes32","indexed":false,"internalType":"bytes32"}],"anonymous":false},{"type":"event","name":"SignalSetPriceFeed","inputs":[{"name":"vault","type":"address","indexed":false,"internalType":"address"},{"name":"priceFeed","type":"address","indexed":false,"internalType":"address"},{"name":"action","type":"bytes32","indexed":false,"internalType":"bytes32"}],"anonymous":false},{"type":"event","name":"SignalVaultSetTokenConfig","inputs":[{"name":"vault","type":"address","indexed":false,"internalType":"address"},{"name":"token","type":"address","indexed":false,"internalType":"address"},{"name":"tokenDecimals","type":"uint256","indexed":false,"internalType":"uint256"},{"name":"tokenWeight","type":"uint256","indexed":false,"internalType":"uint256"},{"name":"minProfitBps","type":"uint256","indexed":false,"internalType":"uint256"},{"name":"maxUsdgAmount","type":"uint256","indexed":false,"internalType":"uint256"},{"name":"isStable","type":"bool","indexed":false,"internalType":"bool"},{"name":"isShortable","type":"bool","indexed":false,"internalType":"bool"}],"anonymous":false},{"type":"event","name":"SignalWithdrawToken","inputs":[{"name":"target","type":"address","indexed":false,"internalType":"address"},{"name":"token","type":"address","indexed":false,"internalType":"address"},{"name":"receiver","type":"address","indexed":false,"internalType":"address"},{"name":"amount","type":"uint256","indexed":false,"internalType":"uint256"},{"name":"action","type":"bytes32","indexed":false,"internalType":"bytes32"}],"anonymous":false}],"bytecode":{"object":"0x60806040523480156200001157600080fd5b5060405162005dba38038062005dba83398181016040526101408110156200003857600080fd5b508051602082015160408301516060840151608085015160a086015160c087015160e0880151610100890151610120909901519798969795969495939492939192909162069780891115620000d4576040805162461bcd60e51b815260206004820152601960248201527f54696d656c6f636b3a20696e76616c6964205f62756666657200000000000000604482015290519081900360640190fd5b600180546001600160a01b03199081166001600160a01b039c8d16179091556000998a55600280548216998c1699909917909855600380548916978b1697909717909655600480548816958a16959095179094556005805487169389169390931790925560068054909516961695909517909255600793909355600855600991909155615c529081906200016890396000f3fe608060405234801561001057600080fd5b506004361061035c5760003560e01c8063746ed59f116101cb578063bc8a8ab911610100578063bc8a8ab914610d64578063c142940a14610d9a578063c7bb26a014610dd0578063cd2b123014610dd8578063d1b9e85314610e06578063d3c87bbb14610e34578063da76231614610e5a578063db1c844114610e9e578063dce6e18d14610ef7578063df3a66d914610f2d578063e1f21c6714610f63578063e21b459114610f99578063e30569e514610fbc578063e3cbeb0f14610fd9578063e4652f4914611032578063e8ae227114611068578063edaafe2014611119578063f851a440146111215761035c565b8063746ed59f14610a4d57806376e1128614610a55578063781cc3d314610a835780637b6f775a14610aa057806380894d6214610acc57806381774b3d14610afa57806386803c7214610b175780638a39735a14610b455780638bf22c4614610b4d5780638e34c98f14610b7957806395082d2514610b98578063996a7a1e14610ba0578063996e2bc914610bce5780639b53ad2214610bd6578063adc7ea3714610d09578063afd14deb14610d26578063b655659914610d2e578063bc476dfd14610d365761035c565b8063318bc689116102a1578063318bc689146107b457806346ea87af146107bc57806347de43e2146107e25780634cd23f3b1461081a5780634f5f6b5e1461085657806350f7c2041461087357806351a6de0d1461087b57806355818294146108a957806355ef1395146108e15780635a284b9d1461090f5780635a3bb9891461092c57806361d07569146109345780636706b2741461093c5780636ba42aaa146109445780636d63c1d01461096a5780636e5227d414610990578063704b6c02146109f157806370ac0a9314610a175761035c565b80629a698e146103615780630191c2371461049657806309cc9a08146104cc5780630e0dc426146105025780630e9587f3146105505780631154e80814610588578063117cf204146105c0578063185051c1146105ee578063204bbc541461061c57806321754d9e1461065257806321bd05921461068e578063227f03eb146106bc57806323aaad12146106f457806324ccbe3014610710578063268959e5146107485780632a709b14146107765780632ba3725a1461079a575b600080fd5b6104946004803603606081101561037757600080fd5b6001600160a01b038235169190810190604081016020820135600160201b8111156103a157600080fd5b8201836020820111156103b357600080fd5b803590602001918460208302840111600160201b831117156103d457600080fd5b9190808060200260200160405190810160405280939291908181526020018383602002808284376000920191909152509295949360208101935035915050600160201b81111561042357600080fd5b82018360208201111561043557600080fd5b803590602001918460208302840111600160201b8311171561045657600080fd5b919080806020026020016040519081016040528093929190818152602001838360200280828437600092019190915250929550611129945050505050565b005b610494600480360360608110156104ac57600080fd5b506001600160a01b03813581169160208101359091169060400135611385565b610494600480360360608110156104e257600080fd5b506001600160a01b03813581169160208101359091169060400135611483565b610494600480360360e081101561051857600080fd5b506001600160a01b03813581169160208101359091169060408101359060608101359060808101359060a08101359060c00135611582565b6104946004803603606081101561056657600080fd5b506001600160a01b0381358116916020810135821691604090910135166119fb565b6104946004803603606081101561059e57600080fd5b506001600160a01b038135811691602081013590911690604001351515611ad9565b610494600480360360408110156105d657600080fd5b506001600160a01b0381351690602001351515611c0a565b6104946004803603604081101561060457600080fd5b506001600160a01b0381351690602001351515611cef565b6104946004803603606081101561063257600080fd5b506001600160a01b03813581169160208101359160409091013516611d67565b6104946004803603608081101561066857600080fd5b506001600160a01b03813581169160208101358216916040820135169060600135611e3f565b610494600480360360408110156106a457600080fd5b506001600160a01b0381351690602001351515611f8a565b610494600480360360808110156106d257600080fd5b506001600160a01b03813516906020810135906040810135906060013561201f565b6106fc612174565b604080519115158252519081900360200190f35b6104946004803603606081101561072657600080fd5b506001600160a01b03813581169160208101359091169060400135151561217d565b6104946004803603604081101561075e57600080fd5b506001600160a01b0381358116916020013516612286565b61077e612322565b604080516001600160a01b039092168252519081900360200190f35b6107a2612331565b60408051918252519081900360200190f35b6107a2612338565b6106fc600480360360208110156107d257600080fd5b50356001600160a01b031661233e565b610494600480360360608110156107f857600080fd5b506001600160a01b038135811691602081013590911690604001351515612353565b6104946004803603608081101561083057600080fd5b506001600160a01b038135811691602081013582169160408201351690606001356123f9565b6104946004803603602081101561086c57600080fd5b5035612514565b6107a26125c0565b6104946004803603604081101561089157600080fd5b506001600160a01b03813581169160200135166125c6565b610494600480360360808110156108bf57600080fd5b506001600160a01b0381351690602081013590604081013590606001356126c0565b610494600480360360408110156108f757600080fd5b506001600160a01b0381358116916020013516612797565b6104946004803603602081101561092557600080fd5b503561288d565b61077e612967565b6107a2612976565b61049461297d565b6106fc6004803603602081101561095a57600080fd5b50356001600160a01b0316612c41565b6104946004803603602081101561098057600080fd5b50356001600160a01b0316612c56565b61049460048036036101408110156109a757600080fd5b506001600160a01b038135169060208101359060408101359060608101359060808101359060a08101359060c08101359060e081013590610100810135906101200135151561310c565b61049460048036036020811015610a0757600080fd5b50356001600160a01b031661323c565b61049460048036036060811015610a2d57600080fd5b506001600160a01b038135811691602081013590911690604001356132ab565b61077e6136a9565b61049460048036036040811015610a6b57600080fd5b506001600160a01b03813581169160200135166136b8565b61049460048036036020811015610a9957600080fd5b50356137b7565b61049460048036036040811015610ab657600080fd5b506001600160a01b038135169060200135613810565b61049460048036036040811015610ae257600080fd5b506001600160a01b03813581169160200135166138fa565b61049460048036036020811015610b1057600080fd5b50356139f0565b61049460048036036040811015610b2d57600080fd5b506001600160a01b0381351690602001351515613d21565b6107a2613db6565b61049460048036036040811015610b6357600080fd5b506001600160a01b038135169060200135613dbb565b61049460048036036020811015610b8f57600080fd5b50351515613e9e565b6107a2613f18565b61049460048036036040811015610bb657600080fd5b506001600160a01b0381358116916020013516613f28565b6107a2614019565b61049460048036036060811015610bec57600080fd5b6001600160a01b038235169190810190604081016020820135600160201b811115610c1657600080fd5b820183602082011115610c2857600080fd5b803590602001918460208302840111600160201b83111715610c4957600080fd5b9190808060200260200160405190810160405280939291908181526020018383602002808284376000920191909152509295949360208101935035915050600160201b811115610c9857600080fd5b820183602082011115610caa57600080fd5b803590602001918460208302840111600160201b83111715610ccb57600080fd5b91908080602002602001604051908101604052809392919081815260200183836020028082843760009201919091525092955061401f945050505050565b61049460048036036020811015610d1f57600080fd5b5035614153565b610494614239565b61077e61448f565b61049460048036036040811015610d4c57600080fd5b506001600160a01b038135811691602001351661449e565b61049460048036036060811015610d7a57600080fd5b506001600160a01b0381358116916020810135909116906040013561453a565b61049460048036036060811015610db057600080fd5b506001600160a01b038135811691602081013590911690604001356145f6565b61077e6146ce565b61049460048036036040811015610dee57600080fd5b506001600160a01b03813516906020013515156146dd565b61049460048036036040811015610e1c57600080fd5b506001600160a01b038135169060200135151561478c565b61049460048036036020811015610e4a57600080fd5b50356001600160a01b0316614804565b610494600480360360c0811015610e7057600080fd5b506001600160a01b038135169060208101359060408101359060608101359060808101359060a00135614b3e565b6104946004803603610100811015610eb557600080fd5b506001600160a01b03813581169160208101359091169060408101359060608101359060808101359060a08101359060c081013515159060e001351515614daf565b61049460048036036060811015610f0d57600080fd5b506001600160a01b03813581169160208101359091169060400135614f0c565b61049460048036036060811015610f4357600080fd5b506001600160a01b0381358116916020810135909116906040013561500e565b61049460048036036060811015610f7957600080fd5b506001600160a01b038135811691602081013590911690604001356150b2565b61049460048036036040811015610faf57600080fd5b50803590602001356151e7565b6107a260048036036020811015610fd257600080fd5b5035615259565b6104946004803603610100811015610ff057600080fd5b506001600160a01b03813581169160208101359091169060408101359060608101359060808101359060a08101359060c081013515159060e00135151561526b565b6104946004803603606081101561104857600080fd5b506001600160a01b038135811691602081013590911690604001356153f0565b6104946004803603604081101561107e57600080fd5b6001600160a01b038235169190810190604081016020820135600160201b8111156110a857600080fd5b8201836020820111156110ba57600080fd5b803590602001918460208302840111600160201b831117156110db57600080fd5b919080806020026020016040519081016040528093929190818152602001838360200280828437600092019190915250929550615496945050505050565b6107a26155d2565b61077e6155d8565b6001546001600160a01b03163314806111515750336000908152600c602052604090205460ff165b8061116b5750336000908152600d602052604090205460ff165b6111aa576040805162461bcd60e51b81526020600482015260136024820152600080516020615bb2833981519152604482015290519081900360640190fd5b80518251146111fc576040805162461bcd60e51b815260206004820152601960248201527854696d656c6f636b3a20696e76616c6964206c656e6774687360381b604482015290519081900360640190fd5b60408051639cb7de4b60e01b81523060048201526001602482015290516001600160a01b03851691639cb7de4b91604480830192600092919082900301818387803b15801561124a57600080fd5b505af115801561125e573d6000803e3d6000fd5b5050505060005b825181101561131b57600083828151811061127c57fe5b60200260200101519050600083838151811061129457fe5b60200260200101519050856001600160a01b03166341f2272483836040518363ffffffff1660e01b815260040180836001600160a01b0316815260200182815260200192505050600060405180830381600087803b1580156112f557600080fd5b505af1158015611309573d6000803e3d6000fd5b50506001909401935061126592505050565b5060408051639cb7de4b60e01b815230600482015260006024820181905291516001600160a01b03861692639cb7de4b926044808201939182900301818387803b15801561136857600080fd5b505af115801561137c573d6000803e3d6000fd5b50505050505050565b6001546001600160a01b031633146113d2576040805162461bcd60e51b81526020600482015260136024820152600080516020615bb2833981519152604482015290519081900360640190fd5b604080516972656465656d5573646760b01b6020808301919091526001600160601b0319606087811b8216602a85015286901b16603e83015260528083018590528351808403909101815260729092019092528051910120611433816155e7565b604080516001600160a01b0380871682528516602082015280820184905290517fe6bd553b6ef21f3a22ebc877b3aaedc30fe15826b8156d4e8c8b373ebf11d78b9181900360600190a150505050565b6001546001600160a01b031633146114d0576040805162461bcd60e51b81526020600482015260136024820152600080516020615bb2833981519152604482015290519081900360640190fd5b60408051631b5a5b9d60e21b6020808301919091526001600160601b0319606087811b8216602485015286901b166038830152604c80830185905283518084039091018152606c909201909252805191012061152b816155e7565b604080516001600160a01b038087168252851660208201528082018490526060810183905290517f23d37bec99db82564427c9bbfe48ad7434bccf413a40fd357fb838c90a0d68289181900360800190a150505050565b6001546001600160a01b03163314806115aa5750336000908152600c602052604090205460ff165b806115c45750336000908152600d602052604090205460ff165b611603576040805162461bcd60e51b81526020600482015260136024820152600080516020615bb2833981519152604482015290519081900360640190fd5b6101f484111561165a576040805162461bcd60e51b815260206004820152601f60248201527f54696d656c6f636b3a20696e76616c6964205f6d696e50726f66697442707300604482015290519081900360640190fd5b60408051630daf9c2160e41b81526001600160a01b0388811660048301529151899283169163daf9c210916024808301926020929190829003018186803b1580156116a457600080fd5b505afa1580156116b8573d6000803e3d6000fd5b505050506040513d60208110156116ce57600080fd5b505161170b5760405162461bcd60e51b8152600401808060200182810382526023815260200180615b476023913960400191505060405180910390fd5b6000816001600160a01b0316638ee573ac896040518263ffffffff1660e01b815260040180826001600160a01b0316815260200191505060206040518083038186803b15801561175a57600080fd5b505afa15801561176e573d6000803e3d6000fd5b505050506040513d602081101561178457600080fd5b5051604080516342b60b0360e01b81526001600160a01b038b811660048301529151929350600092918516916342b60b0391602480820192602092909190829003018186803b1580156117d657600080fd5b505afa1580156117ea573d6000803e3d6000fd5b505050506040513d602081101561180057600080fd5b50516040805163db3555fb60e01b81526001600160a01b038c8116600483015291519293506000929186169163db3555fb91602480820192602092909190829003018186803b15801561185257600080fd5b505afa158015611866573d6000803e3d6000fd5b505050506040513d602081101561187c57600080fd5b505160408051633c5a6e3560e01b81526001600160a01b038d8116600483015260248201879052604482018d9052606482018c9052608482018b905285151560a483015283151560c48301529151929350908d1691633c5a6e359160e48082019260009290919082900301818387803b1580156118f857600080fd5b505af115801561190c573d6000803e3d6000fd5b505050508a6001600160a01b0316638585f4d28b886040518363ffffffff1660e01b815260040180836001600160a01b0316815260200182815260200192505050600060405180830381600087803b15801561196757600080fd5b505af115801561197b573d6000803e3d6000fd5b505050508a6001600160a01b031663d66b000d8b876040518363ffffffff1660e01b815260040180836001600160a01b0316815260200182815260200192505050600060405180830381600087803b1580156119d657600080fd5b505af11580156119ea573d6000803e3d6000fd5b505050505050505050505050505050565b6001546001600160a01b03163314611a48576040805162461bcd60e51b81526020600482015260136024820152600080516020615bb2833981519152604482015290519081900360640190fd5b826001600160a01b031663f255527883836040518363ffffffff1660e01b815260040180836001600160a01b03168152602001826001600160a01b0316815260200192505050602060405180830381600087803b158015611aa857600080fd5b505af1158015611abc573d6000803e3d6000fd5b505050506040513d6020811015611ad257600080fd5b5050505050565b6001546001600160a01b03163314611b26576040805162461bcd60e51b81526020600482015260136024820152600080516020615bb2833981519152604482015290519081900360640190fd5b604080516939b2ba2430b7323632b960b11b6020808301919091526001600160601b0319606087811b8216602a85015286901b16603e83015283151560f81b60528301528251603381840301815260539092019092528051910120611b8a8161568b565b611b9381615737565b836001600160a01b0316639cb7de4b84846040518363ffffffff1660e01b815260040180836001600160a01b03168152602001821515815260200192505050600060405180830381600087803b158015611bec57600080fd5b505af1158015611c00573d6000803e3d6000fd5b5050505050505050565b6001546001600160a01b0316331480611c325750336000908152600c602052604090205460ff165b80611c4c5750336000908152600d602052604090205460ff165b611c8b576040805162461bcd60e51b81526020600482015260136024820152600080516020615bb2833981519152604482015290519081900360640190fd5b816001600160a01b03166330455ede826040518263ffffffff1660e01b8152600401808215158152602001915050600060405180830381600087803b158015611cd357600080fd5b505af1158015611ce7573d6000803e3d6000fd5b505050505050565b6001546001600160a01b03163314611d3c576040805162461bcd60e51b81526020600482015260136024820152600080516020615bb2833981519152604482015290519081900360640190fd5b6001600160a01b03919091166000908152600c60205260409020805460ff1916911515919091179055565b6001546001600160a01b0316331480611d8f5750336000908152600c602052604090205460ff165b80611da95750336000908152600d602052604090205460ff165b611de8576040805162461bcd60e51b81526020600482015260136024820152600080516020615bb2833981519152604482015290519081900360640190fd5b826001600160a01b031663dfcfa25083836040518363ffffffff1660e01b815260040180838152602001826001600160a01b0316815260200192505050600060405180830381600087803b15801561136857600080fd5b6001546001600160a01b03163314611e8c576040805162461bcd60e51b81526020600482015260136024820152600080516020615bb2833981519152604482015290519081900360640190fd5b604080516c3bb4ba34323930bbaa37b5b2b760991b6020808301919091526001600160601b0319606088811b8216602d85015287811b8216604185015286901b16605583015260698083018590528351808403909101815260899092019092528051910120611efa8161568b565b611f0381615737565b846001600160a01b03166301e336678585856040518463ffffffff1660e01b815260040180846001600160a01b03168152602001836001600160a01b031681526020018281526020019350505050600060405180830381600087803b158015611f6b57600080fd5b505af1158015611f7f573d6000803e3d6000fd5b505050505050505050565b6001546001600160a01b03163314611fd7576040805162461bcd60e51b81526020600482015260136024820152600080516020615bb2833981519152604482015290519081900360640190fd5b816001600160a01b031663f07bbf77826040518263ffffffff1660e01b8152600401808215158152602001915050600060405180830381600087803b158015611cd357600080fd5b6001546001600160a01b03163314806120475750336000908152600c602052604090205460ff165b806120615750336000908152600d602052604090205460ff165b6120a0576040805162461bcd60e51b81526020600482015260136024820152600080516020615bb2833981519152604482015290519081900360640190fd5b60c882106120df5760405162461bcd60e51b8152600401808060200182810382526024815260200180615ade6024913960400191505060405180910390fd5b60c8811061211e5760405162461bcd60e51b815260040180806020018281038252602a815260200180615bf3602a913960400191505060405180910390fd5b836001600160a01b0316638a27d4688484846040518463ffffffff1660e01b8152600401808481526020018381526020018281526020019350505050600060405180830381600087803b158015611bec57600080fd5b600a5460ff1681565b6001546001600160a01b031633146121ca576040805162461bcd60e51b81526020600482015260136024820152600080516020615bb2833981519152604482015290519081900360640190fd5b604080516939b2ba2430b7323632b960b11b6020808301919091526001600160601b0319606087811b8216602a85015286901b16603e83015283151560f81b6052830152825160338184030181526053909201909252805191012061222e816155e7565b604080516001600160a01b03808716825285166020820152831515818301526060810183905290517f1929c4e13b0dbbad7856b9ce1fc9dca98c7bf7cedd56e22c04dd60ad1d34fe4b9181900360800190a150505050565b6001546001600160a01b031633146122d3576040805162461bcd60e51b81526020600482015260136024820152600080516020615bb2833981519152604482015290519081900360640190fd5b816001600160a01b0316631785f53c826040518263ffffffff1660e01b815260040180826001600160a01b03168152602001915050600060405180830381600087803b158015611cd357600080fd5b6002546001600160a01b031681565b6207a12081565b60085481565b600c6020526000908152604090205460ff1681565b6001546001600160a01b031633146123a0576040805162461bcd60e51b81526020600482015260136024820152600080516020615bb2833981519152604482015290519081900360640190fd5b826001600160a01b0316634453a37483836040518363ffffffff1660e01b815260040180836001600160a01b03168152602001821515815260200192505050600060405180830381600087803b15801561136857600080fd5b6001546001600160a01b03163314612446576040805162461bcd60e51b81526020600482015260136024820152600080516020615bb2833981519152604482015290519081900360640190fd5b604080516c3bb4ba34323930bbaa37b5b2b760991b6020808301919091526001600160601b0319606088811b8216602d85015287811b8216604185015286901b166055830152606980830185905283518084039091018152608990920190925280519101206124b4816155e7565b604080516001600160a01b0380881682528087166020830152851681830152606081018490526080810183905290517f9ed7b0f07a9eed51079fab67f6d0f141f167f5b17fdb5a23282280e15fcafed39181900360a00190a15050505050565b6001546001600160a01b03163314612561576040805162461bcd60e51b81526020600482015260136024820152600080516020615bb2833981519152604482015290519081900360640190fd5b60048054604080516327afb5af60e11b8152928301849052516001600160a01b0390911691634f5f6b5e91602480830192600092919082900301818387803b1580156125ac57600080fd5b505af1158015611ad2573d6000803e3d6000fd5b60075481565b6001546001600160a01b03163314612613576040805162461bcd60e51b81526020600482015260136024820152600080516020615bb2833981519152604482015290519081900360640190fd5b604080516539b2ba23b7bb60d11b6020808301919091526001600160601b0319606086811b8216602685015285901b16603a8301528251602e818403018152604e90920190925280519101206126688161568b565b61267181615737565b826001600160a01b031663cfad57a2836040518263ffffffff1660e01b815260040180826001600160a01b03168152602001915050600060405180830381600087803b15801561136857600080fd5b6001546001600160a01b03163314806126e85750336000908152600c602052604090205460ff165b806127025750336000908152600d602052604090205460ff165b612741576040805162461bcd60e51b81526020600482015260136024820152600080516020615bb2833981519152604482015290519081900360640190fd5b836001600160a01b031663836a01878484846040518463ffffffff1660e01b8152600401808481526020018381526020018281526020019350505050600060405180830381600087803b158015611bec57600080fd5b6001546001600160a01b031633146127e4576040805162461bcd60e51b81526020600482015260136024820152600080516020615bb2833981519152604482015290519081900360640190fd5b6001600160a01b03821630141561283e576040805162461bcd60e51b8152602060048201526019602482015278151a5b595b1bd8dace881a5b9d985b1a590817dd185c99d95d603a1b604482015290519081900360640190fd5b816001600160a01b031663704b6c02826040518263ffffffff1660e01b815260040180826001600160a01b03168152602001915050600060405180830381600087803b158015611cd357600080fd5b6001546001600160a01b031633146128da576040805162461bcd60e51b81526020600482015260136024820152600080516020615bb2833981519152604482015290519081900360640190fd5b611c20811061291a5760405162461bcd60e51b8152600401808060200182810382526023815260200180615b026023913960400191505060405180910390fd5b6005546040805163966be07560e01b81526004810184905290516001600160a01b039092169163966be0759160248082019260009290919082900301818387803b1580156125ac57600080fd5b6006546001600160a01b031681565b6206978081565b6001546001600160a01b031633146129ca576040805162461bcd60e51b81526020600482015260136024820152600080516020615bb2833981519152604482015290519081900360640190fd5b60048054604080516307f4ff3960e51b815290516001600160a01b0390921692600092849263fe9fe7209281810192602092909190829003018186803b158015612a1357600080fd5b505afa158015612a27573d6000803e3d6000fd5b505050506040513d6020811015612a3d57600080fd5b5051600480546040805163cf456ae760e01b81526001600160a01b0392831693810193909352600160248401525192935083169163cf456ae79160448082019260009290919082900301818387803b158015612a9857600080fd5b505af1158015612aac573d6000803e3d6000fd5b505050506000826001600160a01b031663f5b91b7b6040518163ffffffff1660e01b815260040160206040518083038186803b158015612aeb57600080fd5b505afa158015612aff573d6000803e3d6000fd5b505050506040513d6020811015612b1557600080fd5b505160048054604080516312b5ad0160e11b81526001600160a01b03928316938101939093525192935083169163256b5a029160248082019260009290919082900301818387803b158015612b6957600080fd5b505af1158015612b7d573d6000803e3d6000fd5b505050506000836001600160a01b031663fbfa77cf6040518163ffffffff1660e01b815260040160206040518083038186803b158015612bbc57600080fd5b505afa158015612bd0573d6000803e3d6000fd5b505050506040513d6020811015612be657600080fd5b505160048054604080516352f4877760e11b81526001600160a01b0392831693810193909352600160248401525192935083169163a5e90eee9160448082019260009290919082900301818387803b158015611bec57600080fd5b600d6020526000908152604090205460ff1681565b6001546001600160a01b0316331480612c7e5750336000908152600c602052604090205460ff165b612cbd576040805162461bcd60e51b81526020600482015260136024820152600080516020615bb2833981519152604482015290519081900360640190fd5b600a54819060ff1615612d2b5760408051637c2eb9f760e01b81526001600482015290516001600160a01b03831691637c2eb9f791602480830192600092919082900301818387803b158015612d1257600080fd5b505af1158015612d26573d6000803e3d6000fd5b505050505b806001600160a01b03166340eb3802826001600160a01b0316637a210a2b6040518163ffffffff1660e01b815260040160206040518083038186803b158015612d7357600080fd5b505afa158015612d87573d6000803e3d6000fd5b505050506040513d6020811015612d9d57600080fd5b505160408051630875ab6160e11b815290516001600160a01b038616916310eb56c2916004808301926020929190829003018186803b158015612ddf57600080fd5b505afa158015612df3573d6000803e3d6000fd5b505050506040513d6020811015612e0957600080fd5b505160408051631351ecc160e21b815290516001600160a01b03871691634d47b304916004808301926020929190829003018186803b158015612e4b57600080fd5b505afa158015612e5f573d6000803e3d6000fd5b505050506040513d6020811015612e7557600080fd5b50516040805163511791c960e11b815290516001600160a01b0388169163a22f2392916004808301926020929190829003018186803b158015612eb757600080fd5b505afa158015612ecb573d6000803e3d6000fd5b505050506040513d6020811015612ee157600080fd5b50516040805163df73a26760e01b815290516001600160a01b0389169163df73a267916004808301926020929190829003018186803b158015612f2357600080fd5b505afa158015612f37573d6000803e3d6000fd5b505050506040513d6020811015612f4d57600080fd5b5051600854604080516305d349a560e21b815290516001600160a01b038b169163174d2694916004808301926020929190829003018186803b158015612f9257600080fd5b505afa158015612fa6573d6000803e3d6000fd5b505050506040513d6020811015612fbc57600080fd5b50516040805163d9ac422560e01b815290516001600160a01b038c169163d9ac4225916004808301926020929190829003018186803b158015612ffe57600080fd5b505afa158015613012573d6000803e3d6000fd5b505050506040513d602081101561302857600080fd5b505160408051639f392eb360e01b815290516001600160a01b038d1691639f392eb3916004808301926020929190829003018186803b15801561306a57600080fd5b505afa15801561307e573d6000803e3d6000fd5b505050506040513d602081101561309457600080fd5b5051604080516001600160e01b031960e08d901b168152600481019a909a5260248a019890985260448901969096526064880194909452608487019290925260a486015260c485015260e484015215156101048301525161012480830192600092919082900301818387803b158015611cd357600080fd5b6001546001600160a01b03163314806131345750336000908152600c602052604090205460ff165b8061314e5750336000908152600d602052604090205460ff165b61318d576040805162461bcd60e51b81526020600482015260136024820152600080516020615bb2833981519152604482015290519081900360640190fd5b6008849055600954604080516320759c0160e11b8152600481018c9052602481018b9052604481018a9052606481018990526084810188905260a481019290925260c4820185905260e48201849052821515610104830152516001600160a01b038c16916340eb38029161012480830192600092919082900301818387803b15801561321857600080fd5b505af115801561322c573d6000803e3d6000fd5b5050505050505050505050505050565b6002546001600160a01b03163314613289576040805162461bcd60e51b81526020600482015260136024820152600080516020615bb2833981519152604482015290519081900360640190fd5b600180546001600160a01b0319166001600160a01b0392909216919091179055565b6001546001600160a01b031633146132f8576040805162461bcd60e51b81526020600482015260136024820152600080516020615bb2833981519152604482015290519081900360640190fd5b604080516972656465656d5573646760b01b6020808301919091526001600160601b0319606087811b8216602a85015286901b16603e830152605280830185905283518084039091018152607290920190925280519101206133598161568b565b61336281615737565b6000846001600160a01b031663f5b91b7b6040518163ffffffff1660e01b815260040160206040518083038186803b15801561339d57600080fd5b505afa1580156133b1573d6000803e3d6000fd5b505050506040513d60208110156133c757600080fd5b5051604080516352f4877760e11b81523060048201526001602482015290519192506001600160a01b0387169163a5e90eee9160448082019260009290919082900301818387803b15801561341b57600080fd5b505af115801561342f573d6000803e3d6000fd5b5050604080516312b5ad0160e11b815230600482015290516001600160a01b038516935063256b5a029250602480830192600092919082900301818387803b15801561347a57600080fd5b505af115801561348e573d6000803e3d6000fd5b5050604080516340c10f1960e01b81523060048201526024810187905290516001600160a01b03851693506340c10f199250604480830192600092919082900301818387803b1580156134e057600080fd5b505af11580156134f4573d6000803e3d6000fd5b50505050806001600160a01b031663a9059cbb86856040518363ffffffff1660e01b815260040180836001600160a01b0316815260200182815260200192505050602060405180830381600087803b15801561354f57600080fd5b505af1158015613563573d6000803e3d6000fd5b505050506040513d602081101561357957600080fd5b505060035460408051630711e61960e41b81526001600160a01b038781166004830152928316602482015290519187169163711e6190916044808201926020929091908290030181600087803b1580156135d257600080fd5b505af11580156135e6573d6000803e3d6000fd5b505050506040513d60208110156135fc57600080fd5b5050604080516352f4877760e11b815230600482015260006024820181905291516001600160a01b0388169263a5e90eee926044808201939182900301818387803b15801561364a57600080fd5b505af115801561365e573d6000803e3d6000fd5b50506040805163ceb68c2360e01b815230600482015290516001600160a01b038516935063ceb68c239250602480830192600092919082900301818387803b158015611f6b57600080fd5b6005546001600160a01b031681565b6001546001600160a01b03163314613705576040805162461bcd60e51b81526020600482015260136024820152600080516020615bb2833981519152604482015290519081900360640190fd5b604080516b1cd95d141c9a58d95199595960a21b6020808301919091526001600160601b0319606086811b8216602c85015285901b1682840152825160348184030181526054909201909252805191012061375f8161568b565b61376881615737565b826001600160a01b031663724e78da836040518263ffffffff1660e01b815260040180826001600160a01b03168152602001915050600060405180830381600087803b15801561136857600080fd5b6001546001600160a01b03163314613804576040805162461bcd60e51b81526020600482015260136024820152600080516020615bb2833981519152604482015290519081900360640190fd5b61380d81615737565b50565b6001546001600160a01b0316331461385d576040805162461bcd60e51b81526020600482015260136024820152600080516020615bb2833981519152604482015290519081900360640190fd5b6207a12081116138b4576040805162461bcd60e51b815260206004820152601e60248201527f54696d656c6f636b3a20696e76616c6964205f6d61784c657665726167650000604482015290519081900360640190fd5b816001600160a01b031663d3127e63826040518263ffffffff1660e01b815260040180828152602001915050600060405180830381600087803b158015611cd357600080fd5b6001546001600160a01b03163314613947576040805162461bcd60e51b81526020600482015260136024820152600080516020615bb2833981519152604482015290519081900360640190fd5b604080516b1cd95d141c9a58d95199595960a21b6020808301919091526001600160601b0319606086811b8216602c85015285901b168284015282516034818403018152605490920190925280519101206139a1816155e7565b604080516001600160a01b0380861682528416602082015280820183905290517fb878dd4b5762f4118ad54995be907dd2bcd915d942e4ac75580fba9b4ee4727f9181900360600190a1505050565b6001546001600160a01b0316331480613a185750336000908152600c602052604090205460ff165b80613a325750336000908152600d602052604090205460ff165b613a71576040805162461bcd60e51b81526020600482015260136024820152600080516020615bb2833981519152604482015290519081900360640190fd5b6000600460009054906101000a90046001600160a01b03166001600160a01b031663f5b91b7b6040518163ffffffff1660e01b815260040160206040518083038186803b158015613ac157600080fd5b505afa158015613ad5573d6000803e3d6000fd5b505050506040513d6020811015613aeb57600080fd5b505160048054604080516370a0823160e01b81526001600160a01b039283169381019390935251929350600092908416916370a08231916024808301926020929190829003018186803b158015613b4157600080fd5b505afa158015613b55573d6000803e3d6000fd5b505050506040513d6020811015613b6b57600080fd5b5051604080516312b5ad0160e11b815230600482015290519192506001600160a01b0384169163256b5a029160248082019260009290919082900301818387803b158015613bb857600080fd5b505af1158015613bcc573d6000803e3d6000fd5b5050505080831115613c5b576000613be484836157dc565b60048054604080516340c10f1960e01b81526001600160a01b039283169381019390935260248301849052519293508516916340c10f199160448082019260009290919082900301818387803b158015613c3d57600080fd5b505af1158015613c51573d6000803e3d6000fd5b5050505050613cda565b6000613c6782856157dc565b6004805460408051632770a7eb60e21b81526001600160a01b03928316938101939093526024830184905251929350851691639dc29fac9160448082019260009290919082900301818387803b158015613cc057600080fd5b505af1158015613cd4573d6000803e3d6000fd5b50505050505b6040805163ceb68c2360e01b815230600482015290516001600160a01b0384169163ceb68c2391602480830192600092919082900301818387803b15801561136857600080fd5b6001546001600160a01b03163314613d6e576040805162461bcd60e51b81526020600482015260136024820152600080516020615bb2833981519152604482015290519081900360640190fd5b816001600160a01b0316635a47a1a7826040518263ffffffff1660e01b8152600401808215158152602001915050600060405180830381600087803b158015611cd357600080fd5b60c881565b6001546001600160a01b03163314613e08576040805162461bcd60e51b81526020600482015260136024820152600080516020615bb2833981519152604482015290519081900360640190fd5b64012a05f2008111613e58576040805162461bcd60e51b8152602060048201526014602482015273496e76616c6964205f6d6178476173507269636560601b604482015290519081900360640190fd5b816001600160a01b031663d2fa635e826040518263ffffffff1660e01b815260040180828152602001915050600060405180830381600087803b158015611cd357600080fd5b6001546001600160a01b0316331480613ec65750336000908152600c602052604090205460ff165b613f05576040805162461bcd60e51b81526020600482015260136024820152600080516020615bb2833981519152604482015290519081900360640190fd5b600a805460ff1916911515919091179055565b68327cb2734119d3b7a9601e1b81565b6001546001600160a01b03163314613f75576040805162461bcd60e51b81526020600482015260136024820152600080516020615bb2833981519152604482015290519081900360640190fd5b604080516539b2ba23b7bb60d11b6020808301919091526001600160601b0319606086811b8216602685015285901b16603a8301528251602e818403018152604e9092019092528051910120613fca816155e7565b604080516001600160a01b0380861682528416602082015280820183905290517f2701a94fd55a560e291f3c54d36580040670d6fde558a77a75d619e38139f7139181900360600190a1505050565b60095481565b6001546001600160a01b03163314806140475750336000908152600c602052604090205460ff165b806140615750336000908152600d602052604090205460ff165b6140a0576040805162461bcd60e51b81526020600482015260136024820152600080516020615bb2833981519152604482015290519081900360640190fd5b60005b825181101561414d57836001600160a01b031663d66b000d8483815181106140c757fe5b60200260200101518484815181106140db57fe5b60200260200101516040518363ffffffff1660e01b815260040180836001600160a01b0316815260200182815260200192505050600060405180830381600087803b15801561412957600080fd5b505af115801561413d573d6000803e3d6000fd5b5050600190920191506140a39050565b50505050565b6001546001600160a01b031633146141a0576040805162461bcd60e51b81526020600482015260136024820152600080516020615bb2833981519152604482015290519081900360640190fd5b620697808111156141f4576040805162461bcd60e51b81526020600482015260196024820152782a34b6b2b637b1b59d1034b73b30b634b2102fb13ab33332b960391b604482015290519081900360640190fd5b60005481116142345760405162461bcd60e51b8152600401808060200182810382526024815260200180615b8e6024913960400191505060405180910390fd5b600055565b6001546001600160a01b03163314614286576040805162461bcd60e51b81526020600482015260136024820152600080516020615bb2833981519152604482015290519081900360640190fd5b600654604080516384347a3360e01b815290516001600160a01b039092169182916384347a33916004808301926020929190829003018186803b1580156142cc57600080fd5b505afa1580156142e0573d6000803e3d6000fd5b505050506040513d60208110156142f657600080fd5b505160065460408051639cb7de4b60e01b81526001600160a01b0392831660048201526001602482015290519190921691639cb7de4b91604480830192600092919082900301818387803b15801561434d57600080fd5b505af1158015614361573d6000803e3d6000fd5b50505050806001600160a01b03166317988a6a6040518163ffffffff1660e01b815260040160206040518083038186803b15801561439e57600080fd5b505afa1580156143b2573d6000803e3d6000fd5b505050506040513d60208110156143c857600080fd5b505160065460408051639cb7de4b60e01b81526001600160a01b0392831660048201526001602482015290519190921691639cb7de4b91604480830192600092919082900301818387803b15801561441f57600080fd5b505af1158015614433573d6000803e3d6000fd5b50506004805460065460408051639cb7de4b60e01b81526001600160a01b0392831694810194909452600160248501525191169350639cb7de4b9250604480830192600092919082900301818387803b1580156125ac57600080fd5b6004546001600160a01b031681565b6001546001600160a01b031633146144eb576040805162461bcd60e51b81526020600482015260136024820152600080516020615bb2833981519152604482015290519081900360640190fd5b816001600160a01b03166371089f4d826040518263ffffffff1660e01b815260040180826001600160a01b03168152602001915050600060405180830381600087803b158015611cd357600080fd5b6001546001600160a01b03163314614587576040805162461bcd60e51b81526020600482015260136024820152600080516020615bb2833981519152604482015290519081900360640190fd5b60408051631b5a5b9d60e21b6020808301919091526001600160601b0319606087811b8216602485015286901b166038830152604c80830185905283518084039091018152606c90920190925280519101206145e28161568b565b6145eb81615737565b61414d848484615825565b6001546001600160a01b031633148061461e5750336000908152600c602052604090205460ff165b806146385750336000908152600d602052604090205460ff165b614677576040805162461bcd60e51b81526020600482015260136024820152600080516020615bb2833981519152604482015290519081900360640190fd5b826001600160a01b0316633fb8b32383836040518363ffffffff1660e01b815260040180836001600160a01b0316815260200182815260200192505050600060405180830381600087803b15801561136857600080fd5b6003546001600160a01b031681565b6001546001600160a01b03163314806147055750336000908152600c602052604090205460ff165b614744576040805162461bcd60e51b81526020600482015260136024820152600080516020615bb2833981519152604482015290519081900360640190fd5b816001600160a01b0316637c2eb9f7826040518263ffffffff1660e01b8152600401808215158152602001915050600060405180830381600087803b158015611cd357600080fd5b6001546001600160a01b031633146147d9576040805162461bcd60e51b81526020600482015260136024820152600080516020615bb2833981519152604482015290519081900360640190fd5b6001600160a01b03919091166000908152600d60205260409020805460ff1916911515919091179055565b6001546001600160a01b031633148061482c5750336000908152600c602052604090205460ff165b61486b576040805162461bcd60e51b81526020600482015260136024820152600080516020615bb2833981519152604482015290519081900360640190fd5b600a54819060ff16156148d75760408051637c2eb9f760e01b815260006004820181905291516001600160a01b03841692637c2eb9f7926024808201939182900301818387803b1580156148be57600080fd5b505af11580156148d2573d6000803e3d6000fd5b505050505b806001600160a01b03166340eb3802826001600160a01b0316637a210a2b6040518163ffffffff1660e01b815260040160206040518083038186803b15801561491f57600080fd5b505afa158015614933573d6000803e3d6000fd5b505050506040513d602081101561494957600080fd5b505160408051630875ab6160e11b815290516001600160a01b038616916310eb56c2916004808301926020929190829003018186803b15801561498b57600080fd5b505afa15801561499f573d6000803e3d6000fd5b505050506040513d60208110156149b557600080fd5b505160408051631351ecc160e21b815290516001600160a01b03871691634d47b304916004808301926020929190829003018186803b1580156149f757600080fd5b505afa158015614a0b573d6000803e3d6000fd5b505050506040513d6020811015614a2157600080fd5b50516040805163511791c960e11b815290516001600160a01b0388169163a22f2392916004808301926020929190829003018186803b158015614a6357600080fd5b505afa158015614a77573d6000803e3d6000fd5b505050506040513d6020811015614a8d57600080fd5b50516040805163df73a26760e01b815290516001600160a01b0389169163df73a267916004808301926020929190829003018186803b158015614acf57600080fd5b505afa158015614ae3573d6000803e3d6000fd5b505050506040513d6020811015614af957600080fd5b5051600954604080516305d349a560e21b815290516001600160a01b038b169163174d2694916004808301926020929190829003018186803b158015612f9257600080fd5b6001546001600160a01b0316331480614b665750336000908152600c602052604090205460ff165b80614b805750336000908152600d602052604090205460ff165b614bbf576040805162461bcd60e51b81526020600482015260136024820152600080516020615bb2833981519152604482015290519081900360640190fd5b6000869050806001600160a01b03166340eb38028787878787600954886001600160a01b031663174d26946040518163ffffffff1660e01b815260040160206040518083038186803b158015614c1457600080fd5b505afa158015614c28573d6000803e3d6000fd5b505050506040513d6020811015614c3e57600080fd5b50516040805163d9ac422560e01b815290516001600160a01b038c169163d9ac4225916004808301926020929190829003018186803b158015614c8057600080fd5b505afa158015614c94573d6000803e3d6000fd5b505050506040513d6020811015614caa57600080fd5b505160408051639f392eb360e01b815290516001600160a01b038d1691639f392eb3916004808301926020929190829003018186803b158015614cec57600080fd5b505afa158015614d00573d6000803e3d6000fd5b505050506040513d6020811015614d1657600080fd5b5051604080516001600160e01b031960e08d901b168152600481019a909a5260248a019890985260448901969096526064880194909452608487019290925260a486015260c485015260e484015215156101048301525161012480830192600092919082900301818387803b158015614d8e57600080fd5b505af1158015614da2573d6000803e3d6000fd5b5050505050505050505050565b6001546001600160a01b03163314614dfc576040805162461bcd60e51b81526020600482015260136024820152600080516020615bb2833981519152604482015290519081900360640190fd5b60408051727661756c74536574546f6b656e436f6e66696760681b6020808301919091526001600160601b031960608c811b821660338501528b901b166047830152605b8201899052607b8201889052609b820187905260bb820186905284151560f890811b60db840152841515901b60dc830152825160bd81840301815260dd9092019092528051910120614e91816155e7565b604080516001600160a01b03808c1682528a166020820152808201899052606081018890526080810187905260a0810186905284151560c082015283151560e082015290517f3510e9d8245371c6c1061c33781ce16bd0eafa03cd3d0781865036520af4c743918190036101000190a1505050505050505050565b6001546001600160a01b03163314614f59576040805162461bcd60e51b81526020600482015260136024820152600080516020615bb2833981519152604482015290519081900360640190fd5b6040805166617070726f766560c81b6020808301919091526001600160601b0319606087811b8216602785015286901b16603b830152604f80830185905283518084039091018152606f9092019092528051910120614fb7816155e7565b604080516001600160a01b038087168252851660208201528082018490526060810183905290517f6af9d86ba7407a934e941ed8ae5f779369a88fe8ba2cd1c204185d6f8a8287fd9181900360800190a150505050565b6001546001600160a01b0316331461505b576040805162461bcd60e51b81526020600482015260136024820152600080516020615bb2833981519152604482015290519081900360640190fd5b826001600160a01b031663efa10a6e83836040518363ffffffff1660e01b815260040180836001600160a01b0316815260200182815260200192505050600060405180830381600087803b15801561136857600080fd5b6001546001600160a01b031633146150ff576040805162461bcd60e51b81526020600482015260136024820152600080516020615bb2833981519152604482015290519081900360640190fd5b6040805166617070726f766560c81b6020808301919091526001600160601b0319606087811b8216602785015286901b16603b830152604f80830185905283518084039091018152606f909201909252805191012061515d8161568b565b61516681615737565b836001600160a01b031663095ea7b384846040518363ffffffff1660e01b815260040180836001600160a01b0316815260200182815260200192505050602060405180830381600087803b1580156151bd57600080fd5b505af11580156151d1573d6000803e3d6000fd5b505050506040513d6020811015611ce757600080fd5b6001546001600160a01b031633148061520f5750336000908152600c602052604090205460ff165b61524e576040805162461bcd60e51b81526020600482015260136024820152600080516020615bb2833981519152604482015290519081900360640190fd5b600891909155600955565b600b6020526000908152604090205481565b6001546001600160a01b031633146152b8576040805162461bcd60e51b81526020600482015260136024820152600080516020615bb2833981519152604482015290519081900360640190fd5b60408051727661756c74536574546f6b656e436f6e66696760681b6020808301919091526001600160601b031960608c811b821660338501528b901b166047830152605b8201899052607b8201889052609b820187905260bb820186905284151560f890811b60db840152841515901b60dc830152825160bd81840301815260dd909201909252805191012061534d8161568b565b61535681615737565b60408051633c5a6e3560e01b81526001600160a01b038a81166004830152602482018a905260448201899052606482018890526084820187905285151560a483015284151560c48301529151918b1691633c5a6e359160e48082019260009290919082900301818387803b1580156153cd57600080fd5b505af11580156153e1573d6000803e3d6000fd5b50505050505050505050505050565b6001546001600160a01b0316331461543d576040805162461bcd60e51b81526020600482015260136024820152600080516020615bb2833981519152604482015290519081900360640190fd5b604080516323b872dd60e01b81526001600160a01b038581166004830152306024830152604482018490529151918416916323b872dd916064808201926020929091908290030181600087803b158015611aa857600080fd5b6001546001600160a01b03163314806154be5750336000908152600c602052604090205460ff165b806154d85750336000908152600d602052604090205460ff165b615517576040805162461bcd60e51b81526020600482015260136024820152600080516020615bb2833981519152604482015290519081900360640190fd5b60005b81518110156155cd57826001600160a01b031663f255527883838151811061553e57fe5b602090810291909101810151600154604080516001600160e01b031960e087901b1681526001600160a01b03938416600482015292909116602483015251604480830193928290030181600087803b15801561559957600080fd5b505af11580156155ad573d6000803e3d6000fd5b505050506040513d60208110156155c357600080fd5b505060010161551a565b505050565b60005481565b6001546001600160a01b031681565b6000818152600b6020526040902054156156325760405162461bcd60e51b8152600401808060200182810382526022815260200180615b256022913960400191505060405180910390fd5b6000546156409042906159ee565b6000828152600b602090815260409182902092909255805183815290517f5fb9c0ecf7b4a28c4c480212e868f9da7f373a2ed4d23498b0be6aadf35242fb929181900390910190a150565b6000818152600b60205260409020546156eb576040805162461bcd60e51b815260206004820152601e60248201527f54696d656c6f636b3a20616374696f6e206e6f74207369676e616c6c65640000604482015290519081900360640190fd5b6000818152600b6020526040902054421161380d5760405162461bcd60e51b8152600401808060200182810382526024815260200180615b6a6024913960400191505060405180910390fd5b6000818152600b6020526040902054615793576040805162461bcd60e51b81526020600482015260196024820152782a34b6b2b637b1b59d1034b73b30b634b2102fb0b1ba34b7b760391b604482015290519081900360640190fd5b6000818152600b6020908152604080832092909255815183815291517f194ed6dd5e37e2acc44a19455c3f208c4831ee695fe362d9c4ef2d316bc53aec9281900390910190a150565b600061581e83836040518060400160405280601e81526020017f536166654d6174683a207375627472616374696f6e206f766572666c6f770000815250615a46565b9392505050565b6040805163cf456ae760e01b815230600482015260016024820152905184916001600160a01b0383169163cf456ae79160448082019260009290919082900301818387803b15801561587657600080fd5b505af115801561588a573d6000803e3d6000fd5b50505050806001600160a01b03166340c10f1984846040518363ffffffff1660e01b815260040180836001600160a01b0316815260200182815260200192505050600060405180830381600087803b1580156158e557600080fd5b505af11580156158f9573d6000803e3d6000fd5b50505050600754846001600160a01b03166318160ddd6040518163ffffffff1660e01b815260040160206040518083038186803b15801561593957600080fd5b505afa15801561594d573d6000803e3d6000fd5b505050506040513d602081101561596357600080fd5b505111156159a25760405162461bcd60e51b8152600401808060200182810382526021815260200180615bd26021913960400191505060405180910390fd5b6040805163cf456ae760e01b815230600482015260006024820181905291516001600160a01b0384169263cf456ae7926044808201939182900301818387803b158015611bec57600080fd5b60008282018381101561581e576040805162461bcd60e51b815260206004820152601b60248201527a536166654d6174683a206164646974696f6e206f766572666c6f7760281b604482015290519081900360640190fd5b60008184841115615ad55760405162461bcd60e51b81526004018080602001828103825283818151815260200191508051906020019080838360005b83811015615a9a578181015183820152602001615a82565b50505050905090810190601f168015615ac75780820380516001836020036101000a031916815260200191505b509250505060405180910390fd5b50505090039056fe54696d656c6f636b3a20696e76616c6964205f66756e64696e6752617465466163746f7254696d656c6f636b3a20696e76616c6964205f636f6f6c646f776e4475726174696f6e54696d656c6f636b3a20616374696f6e20616c7265616479207369676e616c6c656454696d656c6f636b3a20746f6b656e206e6f74207965742077686974656c697374656454696d656c6f636b3a20616374696f6e2074696d65206e6f74207965742070617373656454696d656c6f636b3a206275666665722063616e6e6f742062652064656372656173656454696d656c6f636b3a20666f7262696464656e0000000000000000000000000054696d656c6f636b3a206d6178546f6b656e537570706c7920657863656564656454696d656c6f636b3a20696e76616c6964205f737461626c6546756e64696e6752617465466163746f72a26469706673582212206d93f6228c7b6fc1c81432df96d0e4154c53ce288d0013dd1167db0f3bc9b7f564736f6c634300060c0033","linkReferences":{}},"methodIdentifiers":{"MAX_BUFFER()":"61d07569","MAX_FUNDING_RATE_FACTOR()":"8a39735a","MAX_LEVERAGE_VALIDATION()":"2ba3725a","PRICE_PRECISION()":"95082d25","admin()":"f851a440","approve(address,address,uint256)":"e1f21c67","batchSetBonusRewards(address,address[],uint256[])":"009a698e","batchWithdrawFees(address,address[])":"e8ae2271","buffer()":"edaafe20","cancelAction(bytes32)":"781cc3d3","disableLeverage(address)":"d3c87bbb","enableLeverage(address)":"6d63c1d0","govSetCodeOwner(address,bytes32,address)":"204bbc54","initRewardRouter()":"afd14deb","initZlpManager()":"6706b274","isHandler(address)":"46ea87af","isKeeper(address)":"6ba42aaa","marginFeeBasisPoints()":"318bc689","maxMarginFeeBasisPoints()":"996e2bc9","maxTokenSupply()":"50f7c204","mintReceiver()":"c7bb26a0","pendingActions(bytes32)":"e30569e5","processMint(address,address,uint256)":"bc8a8ab9","redeemUsdg(address,address,uint256)":"70ac0a93","removeAdmin(address,address)":"268959e5","rewardRouter()":"5a3bb989","setAdmin(address)":"704b6c02","setBuffer(uint256)":"adc7ea37","setContractHandler(address,bool)":"185051c1","setExternalAdmin(address,address)":"55ef1395","setFees(address,uint256,uint256,uint256,uint256,uint256,uint256,uint256,uint256,bool)":"6e5227d4","setFundingRate(address,uint256,uint256,uint256)":"227f03eb","setGov(address,address)":"51a6de0d","setHandler(address,address,bool)":"1154e808","setInPrivateLiquidationMode(address,bool)":"21bd0592","setInPrivateTransferMode(address,bool)":"86803c72","setIsLeverageEnabled(address,bool)":"cd2b1230","setIsSwapEnabled(address,bool)":"117cf204","setKeeper(address,bool)":"d1b9e853","setLiquidator(address,address,bool)":"47de43e2","setMarginFeeBasisPoints(uint256,uint256)":"e21b4591","setMaxGasPrice(address,uint256)":"8bf22c46","setMaxGlobalShortSize(address,address,uint256)":"df3a66d9","setMaxLeverage(address,uint256)":"7b6f775a","setPriceFeed(address,address)":"76e11286","setReferrerTier(address,address,uint256)":"c142940a","setShortsTrackerAveragePriceWeight(uint256)":"4f5f6b5e","setShouldToggleIsLeverageEnabled(bool)":"8e34c98f","setSwapFees(address,uint256,uint256,uint256,uint256,uint256)":"da762316","setTier(address,uint256,uint256,uint256)":"55818294","setTokenConfig(address,address,uint256,uint256,uint256,uint256,uint256)":"0e0dc426","setUsdgAmounts(address,address[],uint256[])":"9b53ad22","setVaultUtils(address,address)":"bc476dfd","setZlpCooldownDuration(uint256)":"5a284b9d","shouldToggleIsLeverageEnabled()":"23aaad12","signalApprove(address,address,uint256)":"dce6e18d","signalMint(address,address,uint256)":"09cc9a08","signalRedeemUsdg(address,address,uint256)":"0191c237","signalSetGov(address,address)":"996a7a1e","signalSetHandler(address,address,bool)":"24ccbe30","signalSetPriceFeed(address,address)":"80894d62","signalVaultSetTokenConfig(address,address,uint256,uint256,uint256,uint256,bool,bool)":"db1c8441","signalWithdrawToken(address,address,address,uint256)":"4cd23f3b","tokenManager()":"2a709b14","transferIn(address,address,uint256)":"e4652f49","updateUsdgSupply(uint256)":"81774b3d","vaultSetTokenConfig(address,address,uint256,uint256,uint256,uint256,bool,bool)":"e3cbeb0f","withdrawFees(address,address,address)":"0e9587f3","withdrawToken(address,address,address,uint256)":"21754d9e","zlpManager()":"b6556599","zlpToken()":"746ed59f"},"id":72}