{"abi":[{"type":"constructor","inputs":[{"name":"_vault","type":"address","internalType":"address"},{"name":"_router","type":"address","internalType":"address"},{"name":"_weth","type":"address","internalType":"address"},{"name":"_shortsTracker","type":"address","internalType":"address"},{"name":"_depositFee","type":"uint256","internalType":"uint256"},{"name":"_minExecutionFee","type":"uint256","internalType":"uint256"}],"stateMutability":"nonpayable"},{"type":"receive","stateMutability":"payable"},{"type":"function","name":"BASIS_POINTS_DIVISOR","inputs":[],"outputs":[{"name":"","type":"uint256","internalType":"uint256"}],"stateMutability":"view"},{"type":"function","name":"admin","inputs":[],"outputs":[{"name":"","type":"address","internalType":"address"}],"stateMutability":"view"},{"type":"function","name":"approve","inputs":[{"name":"_token","type":"address","internalType":"address"},{"name":"_spender","type":"address","internalType":"address"},{"name":"_amount","type":"uint256","internalType":"uint256"}],"outputs":[],"stateMutability":"nonpayable"},{"type":"function","name":"callbackGasLimit","inputs":[],"outputs":[{"name":"","type":"uint256","internalType":"uint256"}],"stateMutability":"view"},{"type":"function","name":"cancelDecreasePosition","inputs":[{"name":"_key","type":"bytes32","internalType":"bytes32"},{"name":"_executionFeeReceiver","type":"address","internalType":"address payable"}],"outputs":[{"name":"","type":"bool","internalType":"bool"}],"stateMutability":"nonpayable"},{"type":"function","name":"cancelIncreasePosition","inputs":[{"name":"_key","type":"bytes32","internalType":"bytes32"},{"name":"_executionFeeReceiver","type":"address","internalType":"address payable"}],"outputs":[{"name":"","type":"bool","internalType":"bool"}],"stateMutability":"nonpayable"},{"type":"function","name":"createDecreasePosition","inputs":[{"name":"_path","type":"address[]","internalType":"address[]"},{"name":"_indexToken","type":"address","internalType":"address"},{"name":"_collateralDelta","type":"uint256","internalType":"uint256"},{"name":"_sizeDelta","type":"uint256","internalType":"uint256"},{"name":"_isLong","type":"bool","internalType":"bool"},{"name":"_receiver","type":"address","internalType":"address"},{"name":"_acceptablePrice","type":"uint256","internalType":"uint256"},{"name":"_minOut","type":"uint256","internalType":"uint256"},{"name":"_executionFee","type":"uint256","internalType":"uint256"},{"name":"_withdrawETH","type":"bool","internalType":"bool"},{"name":"_callbackTarget","type":"address","internalType":"address"}],"outputs":[{"name":"","type":"bytes32","internalType":"bytes32"}],"stateMutability":"payable"},{"type":"function","name":"createIncreasePosition","inputs":[{"name":"_path","type":"address[]","internalType":"address[]"},{"name":"_indexToken","type":"address","internalType":"address"},{"name":"_amountIn","type":"uint256","internalType":"uint256"},{"name":"_minOut","type":"uint256","internalType":"uint256"},{"name":"_sizeDelta","type":"uint256","internalType":"uint256"},{"name":"_isLong","type":"bool","internalType":"bool"},{"name":"_acceptablePrice","type":"uint256","internalType":"uint256"},{"name":"_executionFee","type":"uint256","internalType":"uint256"},{"name":"_referralCode","type":"bytes32","internalType":"bytes32"},{"name":"_callbackTarget","type":"address","internalType":"address"}],"outputs":[{"name":"","type":"bytes32","internalType":"bytes32"}],"stateMutability":"payable"},{"type":"function","name":"createIncreasePositionETH","inputs":[{"name":"_path","type":"address[]","internalType":"address[]"},{"name":"_indexToken","type":"address","internalType":"address"},{"name":"_minOut","type":"uint256","internalType":"uint256"},{"name":"_sizeDelta","type":"uint256","internalType":"uint256"},{"name":"_isLong","type":"bool","internalType":"bool"},{"name":"_acceptablePrice","type":"uint256","internalType":"uint256"},{"name":"_executionFee","type":"uint256","internalType":"uint256"},{"name":"_referralCode","type":"bytes32","internalType":"bytes32"},{"name":"_callbackTarget","type":"address","internalType":"address"}],"outputs":[{"name":"","type":"bytes32","internalType":"bytes32"}],"stateMutability":"payable"},{"type":"function","name":"customCallbackGasLimits","inputs":[{"name":"","type":"address","internalType":"address"}],"outputs":[{"name":"","type":"uint256","internalType":"uint256"}],"stateMutability":"view"},{"type":"function","name":"decreasePositionRequestKeys","inputs":[{"name":"","type":"uint256","internalType":"uint256"}],"outputs":[{"name":"","type":"bytes32","internalType":"bytes32"}],"stateMutability":"view"},{"type":"function","name":"decreasePositionRequestKeysStart","inputs":[],"outputs":[{"name":"","type":"uint256","internalType":"uint256"}],"stateMutability":"view"},{"type":"function","name":"decreasePositionRequests","inputs":[{"name":"","type":"bytes32","internalType":"bytes32"}],"outputs":[{"name":"account","type":"address","internalType":"address"},{"name":"indexToken","type":"address","internalType":"address"},{"name":"collateralDelta","type":"uint256","internalType":"uint256"},{"name":"sizeDelta","type":"uint256","internalType":"uint256"},{"name":"isLong","type":"bool","internalType":"bool"},{"name":"receiver","type":"address","internalType":"address"},{"name":"acceptablePrice","type":"uint256","internalType":"uint256"},{"name":"minOut","type":"uint256","internalType":"uint256"},{"name":"executionFee","type":"uint256","internalType":"uint256"},{"name":"blockNumber","type":"uint256","internalType":"uint256"},{"name":"blockTime","type":"uint256","internalType":"uint256"},{"name":"withdrawETH","type":"bool","internalType":"bool"},{"name":"callbackTarget","type":"address","internalType":"address"}],"stateMutability":"view"},{"type":"function","name":"decreasePositionsIndex","inputs":[{"name":"","type":"address","internalType":"address"}],"outputs":[{"name":"","type":"uint256","internalType":"uint256"}],"stateMutability":"view"},{"type":"function","name":"depositFee","inputs":[],"outputs":[{"name":"","type":"uint256","internalType":"uint256"}],"stateMutability":"view"},{"type":"function","name":"ethTransferGasLimit","inputs":[],"outputs":[{"name":"","type":"uint256","internalType":"uint256"}],"stateMutability":"view"},{"type":"function","name":"executeDecreasePosition","inputs":[{"name":"_key","type":"bytes32","internalType":"bytes32"},{"name":"_executionFeeReceiver","type":"address","internalType":"address payable"}],"outputs":[{"name":"","type":"bool","internalType":"bool"}],"stateMutability":"nonpayable"},{"type":"function","name":"executeDecreasePositions","inputs":[{"name":"_endIndex","type":"uint256","internalType":"uint256"},{"name":"_executionFeeReceiver","type":"address","internalType":"address payable"}],"outputs":[],"stateMutability":"nonpayable"},{"type":"function","name":"executeIncreasePosition","inputs":[{"name":"_key","type":"bytes32","internalType":"bytes32"},{"name":"_executionFeeReceiver","type":"address","internalType":"address payable"}],"outputs":[{"name":"","type":"bool","internalType":"bool"}],"stateMutability":"nonpayable"},{"type":"function","name":"executeIncreasePositions","inputs":[{"name":"_endIndex","type":"uint256","internalType":"uint256"},{"name":"_executionFeeReceiver","type":"address","internalType":"address payable"}],"outputs":[],"stateMutability":"nonpayable"},{"type":"function","name":"feeReserves","inputs":[{"name":"","type":"address","internalType":"address"}],"outputs":[{"name":"","type":"uint256","internalType":"uint256"}],"stateMutability":"view"},{"type":"function","name":"getDecreasePositionRequestPath","inputs":[{"name":"_key","type":"bytes32","internalType":"bytes32"}],"outputs":[{"name":"","type":"address[]","internalType":"address[]"}],"stateMutability":"view"},{"type":"function","name":"getIncreasePositionRequestPath","inputs":[{"name":"_key","type":"bytes32","internalType":"bytes32"}],"outputs":[{"name":"","type":"address[]","internalType":"address[]"}],"stateMutability":"view"},{"type":"function","name":"getRequestKey","inputs":[{"name":"_account","type":"address","internalType":"address"},{"name":"_index","type":"uint256","internalType":"uint256"}],"outputs":[{"name":"","type":"bytes32","internalType":"bytes32"}],"stateMutability":"pure"},{"type":"function","name":"getRequestQueueLengths","inputs":[],"outputs":[{"name":"","type":"uint256","internalType":"uint256"},{"name":"","type":"uint256","internalType":"uint256"},{"name":"","type":"uint256","internalType":"uint256"},{"name":"","type":"uint256","internalType":"uint256"}],"stateMutability":"view"},{"type":"function","name":"gov","inputs":[],"outputs":[{"name":"","type":"address","internalType":"address"}],"stateMutability":"view"},{"type":"function","name":"increasePositionBufferBps","inputs":[],"outputs":[{"name":"","type":"uint256","internalType":"uint256"}],"stateMutability":"view"},{"type":"function","name":"increasePositionRequestKeys","inputs":[{"name":"","type":"uint256","internalType":"uint256"}],"outputs":[{"name":"","type":"bytes32","internalType":"bytes32"}],"stateMutability":"view"},{"type":"function","name":"increasePositionRequestKeysStart","inputs":[],"outputs":[{"name":"","type":"uint256","internalType":"uint256"}],"stateMutability":"view"},{"type":"function","name":"increasePositionRequests","inputs":[{"name":"","type":"bytes32","internalType":"bytes32"}],"outputs":[{"name":"account","type":"address","internalType":"address"},{"name":"indexToken","type":"address","internalType":"address"},{"name":"amountIn","type":"uint256","internalType":"uint256"},{"name":"minOut","type":"uint256","internalType":"uint256"},{"name":"sizeDelta","type":"uint256","internalType":"uint256"},{"name":"isLong","type":"bool","internalType":"bool"},{"name":"acceptablePrice","type":"uint256","internalType":"uint256"},{"name":"executionFee","type":"uint256","internalType":"uint256"},{"name":"blockNumber","type":"uint256","internalType":"uint256"},{"name":"blockTime","type":"uint256","internalType":"uint256"},{"name":"hasCollateralInETH","type":"bool","internalType":"bool"},{"name":"callbackTarget","type":"address","internalType":"address"}],"stateMutability":"view"},{"type":"function","name":"increasePositionsIndex","inputs":[{"name":"","type":"address","internalType":"address"}],"outputs":[{"name":"","type":"uint256","internalType":"uint256"}],"stateMutability":"view"},{"type":"function","name":"isLeverageEnabled","inputs":[],"outputs":[{"name":"","type":"bool","internalType":"bool"}],"stateMutability":"view"},{"type":"function","name":"isPositionKeeper","inputs":[{"name":"","type":"address","internalType":"address"}],"outputs":[{"name":"","type":"bool","internalType":"bool"}],"stateMutability":"view"},{"type":"function","name":"maxGlobalLongSizes","inputs":[{"name":"","type":"address","internalType":"address"}],"outputs":[{"name":"","type":"uint256","internalType":"uint256"}],"stateMutability":"view"},{"type":"function","name":"maxGlobalShortSizes","inputs":[{"name":"","type":"address","internalType":"address"}],"outputs":[{"name":"","type":"uint256","internalType":"uint256"}],"stateMutability":"view"},{"type":"function","name":"maxTimeDelay","inputs":[],"outputs":[{"name":"","type":"uint256","internalType":"uint256"}],"stateMutability":"view"},{"type":"function","name":"minBlockDelayKeeper","inputs":[],"outputs":[{"name":"","type":"uint256","internalType":"uint256"}],"stateMutability":"view"},{"type":"function","name":"minExecutionFee","inputs":[],"outputs":[{"name":"","type":"uint256","internalType":"uint256"}],"stateMutability":"view"},{"type":"function","name":"minTimeDelayPublic","inputs":[],"outputs":[{"name":"","type":"uint256","internalType":"uint256"}],"stateMutability":"view"},{"type":"function","name":"referralStorage","inputs":[],"outputs":[{"name":"","type":"address","internalType":"address"}],"stateMutability":"view"},{"type":"function","name":"router","inputs":[],"outputs":[{"name":"","type":"address","internalType":"address"}],"stateMutability":"view"},{"type":"function","name":"sendValue","inputs":[{"name":"_receiver","type":"address","internalType":"address payable"},{"name":"_amount","type":"uint256","internalType":"uint256"}],"outputs":[],"stateMutability":"nonpayable"},{"type":"function","name":"setAdmin","inputs":[{"name":"_admin","type":"address","internalType":"address"}],"outputs":[],"stateMutability":"nonpayable"},{"type":"function","name":"setCallbackGasLimit","inputs":[{"name":"_callbackGasLimit","type":"uint256","internalType":"uint256"}],"outputs":[],"stateMutability":"nonpayable"},{"type":"function","name":"setCustomCallbackGasLimit","inputs":[{"name":"_callbackTarget","type":"address","internalType":"address"},{"name":"_callbackGasLimit","type":"uint256","internalType":"uint256"}],"outputs":[],"stateMutability":"nonpayable"},{"type":"function","name":"setDelayValues","inputs":[{"name":"_minBlockDelayKeeper","type":"uint256","internalType":"uint256"},{"name":"_minTimeDelayPublic","type":"uint256","internalType":"uint256"},{"name":"_maxTimeDelay","type":"uint256","internalType":"uint256"}],"outputs":[],"stateMutability":"nonpayable"},{"type":"function","name":"setDepositFee","inputs":[{"name":"_depositFee","type":"uint256","internalType":"uint256"}],"outputs":[],"stateMutability":"nonpayable"},{"type":"function","name":"setEthTransferGasLimit","inputs":[{"name":"_ethTransferGasLimit","type":"uint256","internalType":"uint256"}],"outputs":[],"stateMutability":"nonpayable"},{"type":"function","name":"setGov","inputs":[{"name":"_gov","type":"address","internalType":"address"}],"outputs":[],"stateMutability":"nonpayable"},{"type":"function","name":"setIncreasePositionBufferBps","inputs":[{"name":"_increasePositionBufferBps","type":"uint256","internalType":"uint256"}],"outputs":[],"stateMutability":"nonpayable"},{"type":"function","name":"setIsLeverageEnabled","inputs":[{"name":"_isLeverageEnabled","type":"bool","internalType":"bool"}],"outputs":[],"stateMutability":"nonpayable"},{"type":"function","name":"setMaxGlobalSizes","inputs":[{"name":"_tokens","type":"address[]","internalType":"address[]"},{"name":"_longSizes","type":"uint256[]","internalType":"uint256[]"},{"name":"_shortSizes","type":"uint256[]","internalType":"uint256[]"}],"outputs":[],"stateMutability":"nonpayable"},{"type":"function","name":"setMinExecutionFee","inputs":[{"name":"_minExecutionFee","type":"uint256","internalType":"uint256"}],"outputs":[],"stateMutability":"nonpayable"},{"type":"function","name":"setPositionKeeper","inputs":[{"name":"_account","type":"address","internalType":"address"},{"name":"_isActive","type":"bool","internalType":"bool"}],"outputs":[],"stateMutability":"nonpayable"},{"type":"function","name":"setReferralStorage","inputs":[{"name":"_referralStorage","type":"address","internalType":"address"}],"outputs":[],"stateMutability":"nonpayable"},{"type":"function","name":"setRequestKeysStartValues","inputs":[{"name":"_increasePositionRequestKeysStart","type":"uint256","internalType":"uint256"},{"name":"_decreasePositionRequestKeysStart","type":"uint256","internalType":"uint256"}],"outputs":[],"stateMutability":"nonpayable"},{"type":"function","name":"shortsTracker","inputs":[],"outputs":[{"name":"","type":"address","internalType":"address"}],"stateMutability":"view"},{"type":"function","name":"vault","inputs":[],"outputs":[{"name":"","type":"address","internalType":"address"}],"stateMutability":"view"},{"type":"function","name":"weth","inputs":[],"outputs":[{"name":"","type":"address","internalType":"address"}],"stateMutability":"view"},{"type":"function","name":"withdrawFees","inputs":[{"name":"_token","type":"address","internalType":"address"},{"name":"_receiver","type":"address","internalType":"address"}],"outputs":[],"stateMutability":"nonpayable"},{"type":"event","name":"Callback","inputs":[{"name":"callbackTarget","type":"address","indexed":false,"internalType":"address"},{"name":"success","type":"bool","indexed":false,"internalType":"bool"},{"name":"callbackGasLimit","type":"uint256","indexed":false,"internalType":"uint256"}],"anonymous":false},{"type":"event","name":"CancelDecreasePosition","inputs":[{"name":"account","type":"address","indexed":true,"internalType":"address"},{"name":"path","type":"address[]","indexed":false,"internalType":"address[]"},{"name":"indexToken","type":"address","indexed":false,"internalType":"address"},{"name":"collateralDelta","type":"uint256","indexed":false,"internalType":"uint256"},{"name":"sizeDelta","type":"uint256","indexed":false,"internalType":"uint256"},{"name":"isLong","type":"bool","indexed":false,"internalType":"bool"},{"name":"receiver","type":"address","indexed":false,"internalType":"address"},{"name":"acceptablePrice","type":"uint256","indexed":false,"internalType":"uint256"},{"name":"minOut","type":"uint256","indexed":false,"internalType":"uint256"},{"name":"executionFee","type":"uint256","indexed":false,"internalType":"uint256"},{"name":"blockGap","type":"uint256","indexed":false,"internalType":"uint256"},{"name":"timeGap","type":"uint256","indexed":false,"internalType":"uint256"}],"anonymous":false},{"type":"event","name":"CancelIncreasePosition","inputs":[{"name":"account","type":"address","indexed":true,"internalType":"address"},{"name":"path","type":"address[]","indexed":false,"internalType":"address[]"},{"name":"indexToken","type":"address","indexed":false,"internalType":"address"},{"name":"amountIn","type":"uint256","indexed":false,"internalType":"uint256"},{"name":"minOut","type":"uint256","indexed":false,"internalType":"uint256"},{"name":"sizeDelta","type":"uint256","indexed":false,"internalType":"uint256"},{"name":"isLong","type":"bool","indexed":false,"internalType":"bool"},{"name":"acceptablePrice","type":"uint256","indexed":false,"internalType":"uint256"},{"name":"executionFee","type":"uint256","indexed":false,"internalType":"uint256"},{"name":"blockGap","type":"uint256","indexed":false,"internalType":"uint256"},{"name":"timeGap","type":"uint256","indexed":false,"internalType":"uint256"}],"anonymous":false},{"type":"event","name":"CreateDecreasePosition","inputs":[{"name":"account","type":"address","indexed":true,"internalType":"address"},{"name":"path","type":"address[]","indexed":false,"internalType":"address[]"},{"name":"indexToken","type":"address","indexed":false,"internalType":"address"},{"name":"collateralDelta","type":"uint256","indexed":false,"internalType":"uint256"},{"name":"sizeDelta","type":"uint256","indexed":false,"internalType":"uint256"},{"name":"isLong","type":"bool","indexed":false,"internalType":"bool"},{"name":"receiver","type":"address","indexed":false,"internalType":"address"},{"name":"acceptablePrice","type":"uint256","indexed":false,"internalType":"uint256"},{"name":"minOut","type":"uint256","indexed":false,"internalType":"uint256"},{"name":"executionFee","type":"uint256","indexed":false,"internalType":"uint256"},{"name":"index","type":"uint256","indexed":false,"internalType":"uint256"},{"name":"queueIndex","type":"uint256","indexed":false,"internalType":"uint256"},{"name":"blockNumber","type":"uint256","indexed":false,"internalType":"uint256"},{"name":"blockTime","type":"uint256","indexed":false,"internalType":"uint256"}],"anonymous":false},{"type":"event","name":"CreateIncreasePosition","inputs":[{"name":"account","type":"address","indexed":true,"internalType":"address"},{"name":"path","type":"address[]","indexed":false,"internalType":"address[]"},{"name":"indexToken","type":"address","indexed":false,"internalType":"address"},{"name":"amountIn","type":"uint256","indexed":false,"internalType":"uint256"},{"name":"minOut","type":"uint256","indexed":false,"internalType":"uint256"},{"name":"sizeDelta","type":"uint256","indexed":false,"internalType":"uint256"},{"name":"isLong","type":"bool","indexed":false,"internalType":"bool"},{"name":"acceptablePrice","type":"uint256","indexed":false,"internalType":"uint256"},{"name":"executionFee","type":"uint256","indexed":false,"internalType":"uint256"},{"name":"index","type":"uint256","indexed":false,"internalType":"uint256"},{"name":"queueIndex","type":"uint256","indexed":false,"internalType":"uint256"},{"name":"blockNumber","type":"uint256","indexed":false,"internalType":"uint256"},{"name":"blockTime","type":"uint256","indexed":false,"internalType":"uint256"},{"name":"gasPrice","type":"uint256","indexed":false,"internalType":"uint256"}],"anonymous":false},{"type":"event","name":"DecreasePositionReferral","inputs":[{"name":"account","type":"address","indexed":false,"internalType":"address"},{"name":"sizeDelta","type":"uint256","indexed":false,"internalType":"uint256"},{"name":"marginFeeBasisPoints","type":"uint256","indexed":false,"internalType":"uint256"},{"name":"referralCode","type":"bytes32","indexed":false,"internalType":"bytes32"},{"name":"referrer","type":"address","indexed":false,"internalType":"address"}],"anonymous":false},{"type":"event","name":"ExecuteDecreasePosition","inputs":[{"name":"account","type":"address","indexed":true,"internalType":"address"},{"name":"path","type":"address[]","indexed":false,"internalType":"address[]"},{"name":"indexToken","type":"address","indexed":false,"internalType":"address"},{"name":"collateralDelta","type":"uint256","indexed":false,"internalType":"uint256"},{"name":"sizeDelta","type":"uint256","indexed":false,"internalType":"uint256"},{"name":"isLong","type":"bool","indexed":false,"internalType":"bool"},{"name":"receiver","type":"address","indexed":false,"internalType":"address"},{"name":"acceptablePrice","type":"uint256","indexed":false,"internalType":"uint256"},{"name":"minOut","type":"uint256","indexed":false,"internalType":"uint256"},{"name":"executionFee","type":"uint256","indexed":false,"internalType":"uint256"},{"name":"blockGap","type":"uint256","indexed":false,"internalType":"uint256"},{"name":"timeGap","type":"uint256","indexed":false,"internalType":"uint256"}],"anonymous":false},{"type":"event","name":"ExecuteIncreasePosition","inputs":[{"name":"account","type":"address","indexed":true,"internalType":"address"},{"name":"path","type":"address[]","indexed":false,"internalType":"address[]"},{"name":"indexToken","type":"address","indexed":false,"internalType":"address"},{"name":"amountIn","type":"uint256","indexed":false,"internalType":"uint256"},{"name":"minOut","type":"uint256","indexed":false,"internalType":"uint256"},{"name":"sizeDelta","type":"uint256","indexed":false,"internalType":"uint256"},{"name":"isLong","type":"bool","indexed":false,"internalType":"bool"},{"name":"acceptablePrice","type":"uint256","indexed":false,"internalType":"uint256"},{"name":"executionFee","type":"uint256","indexed":false,"internalType":"uint256"},{"name":"blockGap","type":"uint256","indexed":false,"internalType":"uint256"},{"name":"timeGap","type":"uint256","indexed":false,"internalType":"uint256"}],"anonymous":false},{"type":"event","name":"IncreasePositionReferral","inputs":[{"name":"account","type":"address","indexed":false,"internalType":"address"},{"name":"sizeDelta","type":"uint256","indexed":false,"internalType":"uint256"},{"name":"marginFeeBasisPoints","type":"uint256","indexed":false,"internalType":"uint256"},{"name":"referralCode","type":"bytes32","indexed":false,"internalType":"bytes32"},{"name":"referrer","type":"address","indexed":false,"internalType":"address"}],"anonymous":false},{"type":"event","name":"SetAdmin","inputs":[{"name":"admin","type":"address","indexed":false,"internalType":"address"}],"anonymous":false},{"type":"event","name":"SetCallbackGasLimit","inputs":[{"name":"callbackGasLimit","type":"uint256","indexed":false,"internalType":"uint256"}],"anonymous":false},{"type":"event","name":"SetCustomCallbackGasLimit","inputs":[{"name":"callbackTarget","type":"address","indexed":false,"internalType":"address"},{"name":"callbackGasLimit","type":"uint256","indexed":false,"internalType":"uint256"}],"anonymous":false},{"type":"event","name":"SetDelayValues","inputs":[{"name":"minBlockDelayKeeper","type":"uint256","indexed":false,"internalType":"uint256"},{"name":"minTimeDelayPublic","type":"uint256","indexed":false,"internalType":"uint256"},{"name":"maxTimeDelay","type":"uint256","indexed":false,"internalType":"uint256"}],"anonymous":false},{"type":"event","name":"SetDepositFee","inputs":[{"name":"depositFee","type":"uint256","indexed":false,"internalType":"uint256"}],"anonymous":false},{"type":"event","name":"SetEthTransferGasLimit","inputs":[{"name":"ethTransferGasLimit","type":"uint256","indexed":false,"internalType":"uint256"}],"anonymous":false},{"type":"event","name":"SetIncreasePositionBufferBps","inputs":[{"name":"increasePositionBufferBps","type":"uint256","indexed":false,"internalType":"uint256"}],"anonymous":false},{"type":"event","name":"SetIsLeverageEnabled","inputs":[{"name":"isLeverageEnabled","type":"bool","indexed":false,"internalType":"bool"}],"anonymous":false},{"type":"event","name":"SetMaxGlobalSizes","inputs":[{"name":"tokens","type":"address[]","indexed":false,"internalType":"address[]"},{"name":"longSizes","type":"uint256[]","indexed":false,"internalType":"uint256[]"},{"name":"shortSizes","type":"uint256[]","indexed":false,"internalType":"uint256[]"}],"anonymous":false},{"type":"event","name":"SetMinExecutionFee","inputs":[{"name":"minExecutionFee","type":"uint256","indexed":false,"internalType":"uint256"}],"anonymous":false},{"type":"event","name":"SetPositionKeeper","inputs":[{"name":"account","type":"address","indexed":true,"internalType":"address"},{"name":"isActive","type":"bool","indexed":false,"internalType":"bool"}],"anonymous":false},{"type":"event","name":"SetReferralStorage","inputs":[{"name":"referralStorage","type":"address","indexed":false,"internalType":"address"}],"anonymous":false},{"type":"event","name":"SetRequestKeysStartValues","inputs":[{"name":"increasePositionRequestKeysStart","type":"uint256","indexed":false,"internalType":"uint256"},{"name":"decreasePositionRequestKeysStart","type":"uint256","indexed":false,"internalType":"uint256"}],"anonymous":false},{"type":"event","name":"WithdrawFees","inputs":[{"name":"token","type":"address","indexed":false,"internalType":"address"},{"name":"receiver","type":"address","indexed":false,"internalType":"address"},{"name":"amount","type":"uint256","indexed":false,"internalType":"uint256"}],"anonymous":false}],"bytecode":{"object":"0x60806040526207a12060075560646009556012805460ff191660011790553480156200002a57600080fd5b5060405162005fb538038062005fb5833981810160405260c08110156200005057600080fd5b508051602082015160408301516060840151608085015160a09095015160018054336001600160a01b031991821681179092556003805482166001600160a01b0398891617905560058054821696881696909617909555600680548616948716949094179093556008959095556004805484169490911693909317909255600280549091169091179055600e55615ec880620000ed6000396000f3fe6080604052600436106102ba5760003560e01c8063633451de1161016c578063633451de1461098157806363ae2103146109b4578063657bc5d0146109c957806367a52793146109de578063704b6c02146109f35780637be7d14114610a265780637c2eb9f714610b11578063804fc70214610b3d5780638a54942f14610b7657806395e9bbd714610ba05780639698d25a14610bca57806398d1e03a14610bfd5780639a20810014610c125780639b57862014610c4b578063ae4d7f9a14610c60578063c4f38e3314610c93578063cb0269c914610cc6578063cfad57a214610cdb578063e1f21c6714610d0e578063ef12c67e14610d51578063f255527814610f03578063f2ae372f14610f3e578063f2cea6a51461101d578063f3883d8b14611058578063f851a44014611091578063f887ea40146110a6578063fa444577146110bb578063faf990f3146110ee578063fbfa77cf14611187578063fc2cee621461119c57610311565b80626cc35e1461031657806304225954146103475780630d4d003d146103835780631045c74e146103d0578063126082cf1461040357806312d43a51146104185780631bca8cf01461042d5780631ce9cb8f146104425780631f28510614610475578063225fc9fd14610517578063233bfe3b1461055057806324a084df1461057a57806324f74697146105b357806327b42c0f146105c85780632d79cf4214610601578063308aa81f146106165780633422ead11461064657806336eba48a146106815780633a2a80c7146106b45780633a9b52ad146106c95780633e72a262146106f35780633fc8cef3146107085780634067b1321461071d5780634278555f14610753578063490ae2101461077d5780635841fcaa146107a75780635b88e8c6146107bc5780635d5c22e81461089557806360a362e21461090f57806362f8a3fe1461094857610311565b36610311576006546001600160a01b0316331461030f576040805162461bcd60e51b815260206004820152600e60248201526d34b73b30b634b21039b2b73232b960911b604482015290519081900360640190fd5b005b600080fd5b34801561032257600080fd5b5061032b6111c6565b604080516001600160a01b039092168252519081900360200190f35b34801561035357600080fd5b506103716004803603602081101561036a57600080fd5b50356111d5565b60408051918252519081900360200190f35b34801561038f57600080fd5b506103bc600480360360408110156103a657600080fd5b50803590602001356001600160a01b03166111f3565b604080519115158252519081900360200190f35b3480156103dc57600080fd5b50610371600480360360208110156103f357600080fd5b50356001600160a01b0316611691565b34801561040f57600080fd5b506103716116a3565b34801561042457600080fd5b5061032b6116a9565b34801561043957600080fd5b506103716116b8565b34801561044e57600080fd5b506103716004803603602081101561046557600080fd5b50356001600160a01b03166116be565b34801561048157600080fd5b5061049f6004803603602081101561049857600080fd5b50356116d0565b604080516001600160a01b039e8f1681529c8e1660208e01528c81019b909b5260608c019990995296151560808b0152948a1660a08a015260c089019390935260e088019190915261010087015261012086015261014085015215156101608401529092166101808201529051908190036101a00190f35b34801561052357600080fd5b506103bc6004803603604081101561053a57600080fd5b50803590602001356001600160a01b0316611743565b34801561055c57600080fd5b5061030f6004803603602081101561057357600080fd5b5035611b0d565b34801561058657600080fd5b5061030f6004803603604081101561059d57600080fd5b506001600160a01b038135169060200135611b93565b3480156105bf57600080fd5b50610371611bf7565b3480156105d457600080fd5b506103bc600480360360408110156105eb57600080fd5b50803590602001356001600160a01b0316611bfd565b34801561060d57600080fd5b50610371612063565b34801561062257600080fd5b5061030f6004803603604081101561063957600080fd5b5080359060200135612069565b34801561065257600080fd5b5061030f6004803603604081101561066957600080fd5b506001600160a01b03813516906020013515156120fd565b34801561068d57600080fd5b506103bc600480360360208110156106a457600080fd5b50356001600160a01b03166121a8565b3480156106c057600080fd5b506103716121bd565b3480156106d557600080fd5b5061030f600480360360208110156106ec57600080fd5b50356121c3565b3480156106ff57600080fd5b506103bc612249565b34801561071457600080fd5b5061032b612252565b34801561072957600080fd5b5061030f6004803603606081101561074057600080fd5b5080359060208101359060400135612261565b34801561075f57600080fd5b506103716004803603602081101561077657600080fd5b5035612300565b34801561078957600080fd5b5061030f600480360360208110156107a057600080fd5b503561230d565b3480156107b357600080fd5b50610371612393565b61037160048036036101208110156107d357600080fd5b810190602081018135600160201b8111156107ed57600080fd5b8201836020820111156107ff57600080fd5b803590602001918460208302840111600160201b8311171561082057600080fd5b919080806020026020016040519081016040528093929190818152602001838360200280828437600092019190915250929550505081356001600160a01b03908116935060208301359260408101359250606081013515159160808201359160a08101359160c08201359160e0013516612399565b3480156108a157600080fd5b506108bf600480360360208110156108b857600080fd5b5035612555565b60408051602080825283518183015283519192839290830191858101910280838360005b838110156108fb5781810151838201526020016108e3565b505050509050019250505060405180910390f35b34801561091b57600080fd5b506103bc6004803603604081101561093257600080fd5b50803590602001356001600160a01b031661268b565b34801561095457600080fd5b506103716004803603604081101561096b57600080fd5b506001600160a01b038135169060200135612a29565b34801561098d57600080fd5b50610371600480360360208110156109a457600080fd5b50356001600160a01b0316612a6f565b3480156109c057600080fd5b50610371612a81565b3480156109d557600080fd5b5061032b612a87565b3480156109ea57600080fd5b50610371612a96565b3480156109ff57600080fd5b5061030f60048036036020811015610a1657600080fd5b50356001600160a01b0316612a9c565b6103716004803603610160811015610a3d57600080fd5b810190602081018135600160201b811115610a5757600080fd5b820183602082011115610a6957600080fd5b803590602001918460208302840111600160201b83111715610a8a57600080fd5b919080806020026020016040519081016040528093929190818152602001838360200280828437600092019190915250929550505081356001600160a01b039081169350602083013592604081013592506060810135151591608082013581169160a08101359160c08201359160e081013591610100820135151591610120013516612b3d565b348015610b1d57600080fd5b5061030f60048036036020811015610b3457600080fd5b50351515612ced565b348015610b4957600080fd5b5061030f60048036036040811015610b6057600080fd5b506001600160a01b038135169060200135612d7f565b348015610b8257600080fd5b5061030f60048036036020811015610b9957600080fd5b5035612e23565b348015610bac57600080fd5b506108bf60048036036020811015610bc357600080fd5b5035612ea9565b348015610bd657600080fd5b5061037160048036036020811015610bed57600080fd5b50356001600160a01b0316612fd7565b348015610c0957600080fd5b50610371612fe9565b348015610c1e57600080fd5b5061030f60048036036040811015610c3557600080fd5b50803590602001356001600160a01b0316612fef565b348015610c5757600080fd5b506103716131c7565b348015610c6c57600080fd5b5061030f60048036036020811015610c8357600080fd5b50356001600160a01b03166131cd565b348015610c9f57600080fd5b5061037160048036036020811015610cb657600080fd5b50356001600160a01b031661326c565b348015610cd257600080fd5b5061037161327e565b348015610ce757600080fd5b5061030f60048036036020811015610cfe57600080fd5b50356001600160a01b0316613284565b348015610d1a57600080fd5b5061030f60048036036060811015610d3157600080fd5b506001600160a01b038135811691602081013590911690604001356132f3565b348015610d5d57600080fd5b5061030f60048036036060811015610d7457600080fd5b810190602081018135600160201b811115610d8e57600080fd5b820183602082011115610da057600080fd5b803590602001918460208302840111600160201b83111715610dc157600080fd5b9190808060200260200160405190810160405280939291908181526020018383602002808284376000920191909152509295949360208101935035915050600160201b811115610e1057600080fd5b820183602082011115610e2257600080fd5b803590602001918460208302840111600160201b83111715610e4357600080fd5b9190808060200260200160405190810160405280939291908181526020018383602002808284376000920191909152509295949360208101935035915050600160201b811115610e9257600080fd5b820183602082011115610ea457600080fd5b803590602001918460208302840111600160201b83111715610ec557600080fd5b9190808060200260200160405190810160405280939291908181526020018383602002808284376000920191909152509295506133c8945050505050565b348015610f0f57600080fd5b5061030f60048036036040811015610f2657600080fd5b506001600160a01b03813581169160200135166135b5565b6103716004803603610140811015610f5557600080fd5b810190602081018135600160201b811115610f6f57600080fd5b820183602082011115610f8157600080fd5b803590602001918460208302840111600160201b83111715610fa257600080fd5b919080806020026020016040519081016040528093929190818152602001838360200280828437600092019190915250929550506001600160a01b038335811694506020840135936040810135935060608101359250608081013515159160a08201359160c08101359160e082013591610100013516613697565b34801561102957600080fd5b5061103261387a565b604080519485526020850193909352838301919091526060830152519081900360800190f35b34801561106457600080fd5b5061030f6004803603604081101561107b57600080fd5b50803590602001356001600160a01b031661388c565b34801561109d57600080fd5b5061032b613a64565b3480156110b257600080fd5b5061032b613a73565b3480156110c757600080fd5b50610371600480360360208110156110de57600080fd5b50356001600160a01b0316613a82565b3480156110fa57600080fd5b506111186004803603602081101561111157600080fd5b5035613a94565b604080516001600160a01b039d8e1681529b8d1660208d01528b81019a909a5260608b019890985260808a019690965293151560a089015260c088019290925260e087015261010086015261012085015215156101408401529092166101608201529051908190036101800190f35b34801561119357600080fd5b5061032b613b08565b3480156111a857600080fd5b5061030f600480360360208110156111bf57600080fd5b5035613b17565b600a546001600160a01b031681565b601381815481106111e257fe5b600091825260209091200154905081565b60006002600054141561123b576040805162461bcd60e51b815260206004820152601f6024820152600080516020615da8833981519152604482015290519081900360640190fd5b6002600055611248615bd2565b6000848152601d602090815260409182902082516101c08101845281546001600160a01b03168152600182018054855181860281018601909652808652919492938581019392908301828280156112c857602002820191906000526020600020905b81546001600160a01b031681526001909101906020018083116112aa575b505050918352505060028201546001600160a01b0390811660208301526003830154604083015260048301546060830152600583015460ff8082161515608085015261010091829004831660a0850152600685015460c0850152600785015460e08501526008850154828501526009850154610120850152600a850154610140850152600b90940154938416151561016084015290920482166101809091015281519192501661137c576001915050611686565b60006113978261014001518361016001518460000151613b9d565b9050806113a957600092505050611686565b6000858152601d6020526040812080546001600160a01b0319168155906113d36001830182615c69565b506002810180546001600160a01b0319169055600060038201819055600482018190556005820180546001600160a81b031990811690915560068301829055600783018290556008830182905560098301829055600a8301829055600b9092018054909216909155825160208401518051611479929190849061145257fe5b60200260200101518560400151866060015187608001518860a00151308a60e00151613c06565b9050801561152857600183602001515111156114e957600354602084015180516114d2926001600160a01b03169184916000906114b257fe5b60200260200101516001600160a01b03166140b39092919063ffffffff16565b6114e683602001518461010001513061410a565b90505b8261018001511561150757611502818460c00151614195565b611528565b6115288360c00151828560200151600187602001515103815181106114b257fe5b61153783610120015186614195565b82600001516001600160a01b03167f21435c5b618d77ff3657140cd3318e2cffaebc5e0e1b7318f56a9ba4044c3ed284602001518560400151866060015187608001518860a001518960c001518a60e001518b61010001518c61012001516115ad8e61014001514361433d90919063ffffffff16565b6101608f01516115be90429061433d565b60405180806020018c6001600160a01b031681526020018b81526020018a81526020018915158152602001886001600160a01b0316815260200187815260200186815260200185815260200184815260200183815260200182810382528d818151815260200191508051906020019060200280838360005b8381101561164e578181015183820152602001611636565b505050509050019c5050505050505050505050505060405180910390a261167e836101a00151876001600061437f565b600193505050505b600160005592915050565b600c6020526000908152604090205481565b61271081565b6001546001600160a01b031681565b60165481565b600b6020526000908152604090205481565b601d602052600090815260409020805460028201546003830154600484015460058501546006860154600787015460088801546009890154600a8a0154600b909a01546001600160a01b03998a169a988a16999798969760ff80881698610100988990048316989093918216929104168d565b60006002600054141561178b576040805162461bcd60e51b815260206004820152601f6024820152600080516020615da8833981519152604482015290519081900360640190fd5b6002600055611798615c87565b6000848152601b602090815260409182902082516101a08101845281546001600160a01b031681526001820180548551818602810186019096528086529194929385810193929083018282801561181857602002820191906000526020600020905b81546001600160a01b031681526001909101906020018083116117fa575b505050918352505060028201546001600160a01b039081166020830152600383015460408301526004830154606083015260058301546080830152600683015460ff908116151560a0840152600784015460c0840152600884015460e0840152600984015461010080850191909152600a850154610120850152600b909401549081161515610140840152929092048216610160909101528151919250166118c4576001915050611686565b60006118df82610120015183610140015184600001516144b1565b9050806118f157600092505050611686565b6000858152601b6020526040812080546001600160a01b03191681559061191b6001830182615c69565b506002810180546001600160a01b0319169055600060038201819055600482018190556005820181905560068201805460ff19169055600782018190556008820181905560098201819055600a820155600b0180546001600160a81b03191690556101608201511561199e5761199982606001518360000151614195565b6119bc565b6119bc8260000151836060015184602001516000815181106114b257fe5b6119cb82610100015185614195565b81600001516001600160a01b03167f35b638e650e2328786fb405bd69d2083dbedc018d086662e74b775b4f1dae4bf83602001518460400151856060015186608001518760a001518860c001518960e001518a6101000151611a3b8c61012001514361433d90919063ffffffff16565b6101408d0151611a4c90429061433d565b60405180806020018b6001600160a01b031681526020018a8152602001898152602001888152602001871515815260200186815260200185815260200184815260200183815260200182810382528c818151815260200191508051906020019060200280838360005b83811015611acd578181015183820152602001611ab5565b505050509050019b50505050505050505050505060405180910390a2611afc826101800151866000600161437f565b600192505050600160005592915050565b6002546001600160a01b03163314611b58576040805162461bcd60e51b81526020600482015260096024820152683337b93134b23232b760b91b604482015290519081900360640190fd5b60098190556040805182815290517f21167d0d4661af93817ebce920f18986eed3d75d5e1c03f2aed05efcbafbc4529181900360200190a150565b6001546001600160a01b03163314611be0576040805162461bcd60e51b81526020600482015260156024820152600080516020615dc8833981519152604482015290519081900360640190fd5b611bf36001600160a01b038316826144be565b5050565b60175481565b600060026000541415611c45576040805162461bcd60e51b815260206004820152601f6024820152600080516020615da8833981519152604482015290519081900360640190fd5b6002600055611c52615c87565b6000848152601b602090815260409182902082516101a08101845281546001600160a01b0316815260018201805485518186028101860190965280865291949293858101939290830182828015611cd257602002820191906000526020600020905b81546001600160a01b03168152600190910190602001808311611cb4575b505050918352505060028201546001600160a01b039081166020830152600383015460408301526004830154606083015260058301546080830152600683015460ff908116151560a0840152600784015460c0840152600884015460e0840152600984015461010080850191909152600a850154610120850152600b90940154908116151561014084015292909204821661016090910152815191925016611d7e576001915050611686565b6000611d998261012001518361014001518460000151613b9d565b905080611dab57600092505050611686565b6000858152601b6020526040812080546001600160a01b031916815590611dd56001830182615c69565b506002810180546001600160a01b0319169055600060038201819055600482018190556005820181905560068201805460ff19169055600782018190556008820181905560098201819055600a820155600b0180546001600160a81b0319169055606082015115611ee657606082015160208301515160011015611e9157600354606084015160208501518051611e7b936001600160a01b03169291906000906114b257fe5b611e8e836020015184608001513061410a565b90505b6000611eb5846000015185602001518487604001518860c001518960a001516145a3565b60035460208601518051929350611ee3926001600160a01b039092169184919060001981019081106114b257fe5b50505b815160208301518051611f249291906000198101908110611f0357fe5b602002602001015184604001518560a001518660c001518760e00151614799565b611f3382610100015185614195565b81600001516001600160a01b03167f1be316b94d38c07bd41cdb4913772d0a0a82802786a2f8b657b6e85dbcdfc64183602001518460400151856060015186608001518760a001518860c001518960e001518a6101000151611fa38c61012001514361433d90919063ffffffff16565b6101408d0151611fb490429061433d565b60405180806020018b6001600160a01b031681526020018a8152602001898152602001888152602001871515815260200186815260200185815260200184815260200183815260200182810382528c818151815260200191508051906020019060200280838360005b8381101561203557818101518382015260200161201d565b505050509050019b50505050505050505050505060405180910390a2611afc8261018001518660018061437f565b60075481565b6002546001600160a01b031633146120b4576040805162461bcd60e51b81526020600482015260096024820152683337b93134b23232b760b91b604482015290519081900360640190fd5b60158290556016819055604080518381526020810183905281517febb0f666150f4be5b60c45df8f3e49992510b0128027fe58eea6110f296493bc929181900390910190a15050565b6002546001600160a01b03163314612148576040805162461bcd60e51b81526020600482015260096024820152683337b93134b23232b760b91b604482015290519081900360640190fd5b6001600160a01b038216600081815260196020908152604091829020805460ff1916851515908117909155825190815291517ffbabc02389290a451c6e600d05bf9887b99bfad39d8e1237e4e3df042e4941fe9281900390910190a25050565b60196020526000908152604090205460ff1681565b60105481565b6002546001600160a01b0316331461220e576040805162461bcd60e51b81526020600482015260096024820152683337b93134b23232b760b91b604482015290519081900360640190fd5b60078190556040805182815290517f4d371d598d3a13f99ce992a17975bbaf1e1c256e072ec7d2f93ce88e40d9ba1c9181900360200190a150565b60125460ff1681565b6006546001600160a01b031681565b6002546001600160a01b031633146122ac576040805162461bcd60e51b81526020600482015260096024820152683337b93134b23232b760b91b604482015290519081900360640190fd5b600f83905560108290556011819055604080518481526020810184905280820183905290517fb98e759701eaca2e60c25e91109003c1c7442ef731b5d569037063005da8254d9181900360600190a1505050565b601481815481106111e257fe5b6002546001600160a01b03163314612358576040805162461bcd60e51b81526020600482015260096024820152683337b93134b23232b760b91b604482015290519081900360640190fd5b60088190556040805182815290517f974fd3c1fcb4653dfc4fb740c4c692cd212d55c28f163f310128cb64d83006759181900360200190a150565b600f5481565b6000600260005414156123e1576040805162461bcd60e51b815260206004820152601f6024820152600080516020615da8833981519152604482015290519081900360640190fd5b6002600055600e54841015612423576040805162461bcd60e51b815260206004820152600360248201526266656560e81b604482015290519081900360640190fd5b8334101561245e576040805162461bcd60e51b81526020600482015260036024820152621d985b60ea1b604482015290519081900360640190fd5b89516001148061246f575089516002145b6124a6576040805162461bcd60e51b81526020600482015260036024820152623632b760e91b604482015290519081900360640190fd5b6006548a516001600160a01b03909116908b906000906124c257fe5b60200260200101516001600160a01b03161461250e576040805162461bcd60e51b815260206004808301919091526024820152630e0c2e8d60e31b604482015290519081900360640190fd5b61251661486b565b61251f836148d7565b600061252b348661433d565b9050612541338c8c848d8d8d8d8d60018d61494b565b60016000559b9a5050505050505050505050565b606061255f615bd2565b6000838152601d602090815260409182902082516101c08101845281546001600160a01b03168152600182018054855181860281018601909652808652919492938581019392908301828280156125df57602002820191906000526020600020905b81546001600160a01b031681526001909101906020018083116125c1575b505050918352505060028201546001600160a01b039081166020808401919091526003840154604084015260048401546060840152600584015460ff8082161515608086015261010091829004841660a0860152600686015460c0860152600786015460e08601526008860154828601526009860154610120860152600a860154610140860152600b909501549485161515610160850152909304166101809091015201519392505050565b6000600260005414156126d3576040805162461bcd60e51b815260206004820152601f6024820152600080516020615da8833981519152604482015290519081900360640190fd5b60026000556126e0615bd2565b6000848152601d602090815260409182902082516101c08101845281546001600160a01b031681526001820180548551818602810186019096528086529194929385810193929083018282801561276057602002820191906000526020600020905b81546001600160a01b03168152600190910190602001808311612742575b505050918352505060028201546001600160a01b0390811660208301526003830154604083015260048301546060830152600583015460ff8082161515608085015261010091829004831660a0850152600685015460c0850152600785015460e08501526008850154828501526009850154610120850152600a850154610140850152600b909401549384161515610160840152909204821661018090910152815191925016612814576001915050611686565b600061282f82610140015183610160015184600001516144b1565b90508061284157600092505050611686565b6000858152601d6020526040812080546001600160a01b03191681559061286b6001830182615c69565b506002810180546001600160a01b0319169055600060038201819055600482018190556005820180546001600160a81b031990811690915560068301829055600783018290556008830182905560098301829055600a830191909155600b909101805490911690556101208201516128e39085614195565b81600001516001600160a01b03167f87abfd78e844f28318363bdf3da99eab2f4a2da9ff7ae365484507f7b6c3f80583602001518460400151856060015186608001518760a001518860c001518960e001518a61010001518b61012001516129598d61014001514361433d90919063ffffffff16565b6101608e015161296a90429061433d565b60405180806020018c6001600160a01b031681526020018b81526020018a81526020018915158152602001886001600160a01b0316815260200187815260200186815260200185815260200184815260200183815260200182810382528d818151815260200191508051906020019060200280838360005b838110156129fa5781810151838201526020016129e2565b505050509050019c5050505050505050505050505060405180910390a2611afc826101a001518660008061437f565b6000828260405160200180836001600160a01b031660601b8152601401828152602001925050506040516020818303038152906040528051906020012090505b92915050565b601a6020526000908152604090205481565b600e5481565b6004546001600160a01b031681565b60085481565b6001546001600160a01b03163314612ae9576040805162461bcd60e51b81526020600482015260156024820152600080516020615dc8833981519152604482015290519081900360640190fd5b600280546001600160a01b0383166001600160a01b0319909116811790915560408051918252517f5a272403b402d892977df56625f4164ccaf70ca3863991c43ecfe76a6905b0a19181900360200190a150565b600060026000541415612b85576040805162461bcd60e51b815260206004820152601f6024820152600080516020615da8833981519152604482015290519081900360640190fd5b6002600055600e54841015612bc7576040805162461bcd60e51b815260206004820152600360248201526266656560e81b604482015290519081900360640190fd5b833414612c01576040805162461bcd60e51b81526020600482015260036024820152621d985b60ea1b604482015290519081900360640190fd5b8b5160011480612c1257508b516002145b612c49576040805162461bcd60e51b81526020600482015260036024820152623632b760e91b604482015290519081900360640190fd5b8215612cbc576006548c516001600160a01b03909116908d906000198101908110612c7057fe5b60200260200101516001600160a01b031614612cbc576040805162461bcd60e51b815260206004808301919091526024820152630e0c2e8d60e31b604482015290519081900360640190fd5b612cc461486b565b612cd8338d8d8d8d8d8d8d8d8d8d8d614ae2565b60016000559c9b505050505050505050505050565b6002546001600160a01b03163314612d38576040805162461bcd60e51b81526020600482015260096024820152683337b93134b23232b760b91b604482015290519081900360640190fd5b6012805482151560ff19909116811790915560408051918252517f4eb87a5935d402aa24c01b45bfb30adefcd2328b480f2d967864de4b64ea929f9181900360200190a150565b6002546001600160a01b03163314612dca576040805162461bcd60e51b81526020600482015260096024820152683337b93134b23232b760b91b604482015290519081900360640190fd5b6001600160a01b0382166000818152601860209081526040918290208490558151928352820183905280517f0a585bcfd5f265014b902e5350c05f3a465468d433f13009dcf83f17dc1316be9281900390910190a15050565b6002546001600160a01b03163314612e6e576040805162461bcd60e51b81526020600482015260096024820152683337b93134b23232b760b91b604482015290519081900360640190fd5b60178190556040805182815290517f22bd2c9f980325d046be74aaef5fc76df4a2bc3fbc7c5a1200fcc79fe80dab6c9181900360200190a150565b6060612eb3615c87565b6000838152601b602090815260409182902082516101a08101845281546001600160a01b0316815260018201805485518186028101860190965280865291949293858101939290830182828015612f3357602002820191906000526020600020905b81546001600160a01b03168152600190910190602001808311612f15575b505050918352505060028201546001600160a01b03908116602080840191909152600384015460408401526004840154606084015260058401546080840152600684015460ff908116151560a0850152600785015460c0850152600885015460e0850152600985015461010080860191909152600a860154610120860152600b90950154908116151561014085015293909304166101609091015201519392505050565b600d6020526000908152604090205481565b60095481565b3360009081526019602052604090205460ff16613039576040805162461bcd60e51b815260206004820152600360248201526234303360e81b604482015290519081900360640190fd5b60155460135480821061304d575050611bf3565b80841115613059578093505b838210156131bf5760006013838154811061307057fe5b90600052602060002001549050306001600160a01b03166327b42c0f82866040518363ffffffff1660e01b815260040180838152602001826001600160a01b0316815260200192505050602060405180830381600087803b1580156130d457600080fd5b505af19250505080156130f957506040513d60208110156130f457600080fd5b505160015b61318d576040805163225fc9fd60e01b8152600481018390526001600160a01b03861660248201529051309163225fc9fd9160448083019260209291908290030181600087803b15801561314c57600080fd5b505af192505050801561317157506040513d602081101561316c57600080fd5b505160015b61317a57613188565b806131865750506131bf565b505b61319b565b806131995750506131bf565b505b601383815481106131a857fe5b600091825260208220015550600190910190613059565b506015555050565b60155481565b6002546001600160a01b03163314613218576040805162461bcd60e51b81526020600482015260096024820152683337b93134b23232b760b91b604482015290519081900360640190fd5b600a80546001600160a01b0383166001600160a01b0319909116811790915560408051918252517f828abcccea18192c21d645e575652c49e20b986dab777906fc473d056b01b6a89181900360200190a150565b60186020526000908152604090205481565b60115481565b6001546001600160a01b031633146132d1576040805162461bcd60e51b81526020600482015260156024820152600080516020615dc8833981519152604482015290519081900360640190fd5b600180546001600160a01b0319166001600160a01b0392909216919091179055565b6001546001600160a01b03163314613340576040805162461bcd60e51b81526020600482015260156024820152600080516020615dc8833981519152604482015290519081900360640190fd5b826001600160a01b031663095ea7b383836040518363ffffffff1660e01b815260040180836001600160a01b0316815260200182815260200192505050602060405180830381600087803b15801561339757600080fd5b505af11580156133ab573d6000803e3d6000fd5b505050506040513d60208110156133c157600080fd5b5050505050565b6002546001600160a01b03163314613413576040805162461bcd60e51b81526020600482015260096024820152683337b93134b23232b760b91b604482015290519081900360640190fd5b60005b83518110156134ae57600084828151811061342d57fe5b6020026020010151905083828151811061344357fe5b6020026020010151600c6000836001600160a01b03166001600160a01b031681526020019081526020016000208190555082828151811061348057fe5b6020908102919091018101516001600160a01b039092166000908152600d9091526040902055600101613416565b507fae32d569b058895b9620d6552b09aaffedc9a6f396be4d595a224ad09f8b213983838360405180806020018060200180602001848103845287818151815260200191508051906020019060200280838360005b8381101561351b578181015183820152602001613503565b50505050905001848103835286818151815260200191508051906020019060200280838360005b8381101561355a578181015183820152602001613542565b50505050905001848103825285818151815260200191508051906020019060200280838360005b83811015613599578181015183820152602001613581565b50505050905001965050505050505060405180910390a1505050565b6002546001600160a01b03163314613600576040805162461bcd60e51b81526020600482015260096024820152683337b93134b23232b760b91b604482015290519081900360640190fd5b6001600160a01b0382166000908152600b6020526040902054806136245750611bf3565b6001600160a01b0383166000818152600b60205260408120556136489083836140b3565b604080516001600160a01b0380861682528416602082015280820183905290517f4f1b51dd7a2fcb861aa2670f668be66835c4ee12b4bbbf037e4d0018f39819e49181900360600190a1505050565b6000600260005414156136df576040805162461bcd60e51b815260206004820152601f6024820152600080516020615da8833981519152604482015290519081900360640190fd5b6002600055600e54841015613721576040805162461bcd60e51b815260206004820152600360248201526266656560e81b604482015290519081900360640190fd5b83341461375b576040805162461bcd60e51b81526020600482015260036024820152621d985b60ea1b604482015290519081900360640190fd5b8a516001148061376c57508a516002145b6137a3576040805162461bcd60e51b81526020600482015260036024820152623632b760e91b604482015290519081900360640190fd5b6137ab61486b565b6137b4836148d7565b8815613866576005548b516001600160a01b0390911690631b827878908d906000906137dc57fe5b602002602001015133308d6040518563ffffffff1660e01b815260040180856001600160a01b03168152602001846001600160a01b03168152602001836001600160a01b03168152602001828152602001945050505050600060405180830381600087803b15801561384d57600080fd5b505af1158015613861573d6000803e3d6000fd5b505050505b612541338c8c8c8c8c8c8c8c60008c61494b565b60155460135460165460145490919293565b3360009081526019602052604090205460ff166138d6576040805162461bcd60e51b815260206004820152600360248201526234303360e81b604482015290519081900360640190fd5b6016546014548082106138ea575050611bf3565b808411156138f6578093505b83821015613a5c5760006014838154811061390d57fe5b90600052602060002001549050306001600160a01b0316630d4d003d82866040518363ffffffff1660e01b815260040180838152602001826001600160a01b0316815260200192505050602060405180830381600087803b15801561397157600080fd5b505af192505050801561399657506040513d602081101561399157600080fd5b505160015b613a2a5760408051633051b17160e11b8152600481018390526001600160a01b0386166024820152905130916360a362e29160448083019260209291908290030181600087803b1580156139e957600080fd5b505af1925050508015613a0e57506040513d6020811015613a0957600080fd5b505160015b613a1757613a25565b80613a23575050613a5c565b505b613a38565b80613a36575050613a5c565b505b60148381548110613a4557fe5b6000918252602082200155506001909101906138f6565b506016555050565b6002546001600160a01b031681565b6005546001600160a01b031681565b601c6020526000908152604090205481565b601b602052600090815260409020805460028201546003830154600484015460058501546006860154600787015460088801546009890154600a8a0154600b909a01546001600160a01b03998a169a988a169997989697959660ff958616969495939492939092908216916101009004168c565b6003546001600160a01b031681565b6002546001600160a01b03163314613b62576040805162461bcd60e51b81526020600482015260096024820152683337b93134b23232b760b91b604482015290519081900360640190fd5b600e8190556040805182815290517f52a8358457e20bbb36e4086b83fb0749599f1893fe4c35a876c46dc4886d12db9181900360200190a150565b600042613bb560115485614cbc90919063ffffffff16565b11613bf1576040805162461bcd60e51b8152602060048201526007602482015266195e1c1a5c995960ca1b604482015290519081900360640190fd5b613bfc848484614d14565b90505b9392505050565b6003546000906001600160a01b03168185613c9957816001600160a01b031663e124e6d28a6040518263ffffffff1660e01b815260040180826001600160a01b0316815260200191505060206040518083038186803b158015613c6857600080fd5b505afa158015613c7c573d6000803e3d6000fd5b505050506040513d6020811015613c9257600080fd5b5051613d13565b816001600160a01b03166381a612d68a6040518263ffffffff1660e01b815260040180826001600160a01b0316815260200191505060206040518083038186803b158015613ce657600080fd5b505afa158015613cfa573d6000803e3d6000fd5b505050506040513d6020811015613d1057600080fd5b50515b90508515613d695783811015613d64576040805162461bcd60e51b81526020600482015260116024820152706d61726b5072696365203c20707269636560781b604482015290519081900360640190fd5b613db2565b83811115613db2576040805162461bcd60e51b81526020600482015260116024820152706d61726b5072696365203e20707269636560781b604482015290519081900360640190fd5b6000826001600160a01b03166312d43a516040518163ffffffff1660e01b815260040160206040518083038186803b158015613ded57600080fd5b505afa158015613e01573d6000803e3d6000fd5b505050506040513d6020811015613e1757600080fd5b81019080805190602001909291905050509050600460009054906101000a90046001600160a01b03166001600160a01b031663f3238cec8d8d8d8b8d8860006040518863ffffffff1660e01b815260040180886001600160a01b03168152602001876001600160a01b03168152602001866001600160a01b0316815260200185151581526020018481526020018381526020018215158152602001975050505050505050600060405180830381600087803b158015613ed557600080fd5b505af1158015613ee9573d6000803e3d6000fd5b50505050806001600160a01b0316636d63c1d0846040518263ffffffff1660e01b815260040180826001600160a01b03168152602001915050600060405180830381600087803b158015613f3c57600080fd5b505af1158015613f50573d6000803e3d6000fd5b505050506000600560009054906101000a90046001600160a01b03166001600160a01b0316632662166b8e8e8e8e8e8e8e6040518863ffffffff1660e01b815260040180886001600160a01b03168152602001876001600160a01b03168152602001866001600160a01b031681526020018581526020018481526020018315158152602001826001600160a01b03168152602001975050505050505050602060405180830381600087803b15801561400757600080fd5b505af115801561401b573d6000803e3d6000fd5b505050506040513d602081101561403157600080fd5b50516040805163d3c87bbb60e01b81526001600160a01b03878116600483015291519293509084169163d3c87bbb9160248082019260009290919082900301818387803b15801561408157600080fd5b505af1158015614095573d6000803e3d6000fd5b505050506140a38d8a614e45565b9c9b505050505050505050505050565b604080516001600160a01b038416602482015260448082018490528251808303909101815260649091019091526020810180516001600160e01b031663a9059cbb60e01b17905261410590849061503a565b505050565b60008351600214156141515761414a8460008151811061412657fe5b60200260200101518560018151811061413b57fe5b602002602001015185856150eb565b9050613bff565b6040805162461bcd60e51b81526020600482015260146024820152730d2dcecc2d8d2c840bee0c2e8d05cd8cadccee8d60631b604482015290519081900360640190fd5b60065460408051632e1a7d4d60e01b81526004810185905290516001600160a01b03909216918291632e1a7d4d91602480830192600092919082900301818387803b1580156141e357600080fd5b505af11580156141f7573d6000803e3d6000fd5b5050600754604051600093506001600160a01b0386169250869084818181858888f193505050503d806000811461424a576040519150601f19603f3d011682016040523d82523d6000602084013e61424f565b606091505b505090508015614260575050611bf3565b816001600160a01b031663d0e30db0856040518263ffffffff1660e01b81526004016000604051808303818588803b15801561429b57600080fd5b505af11580156142af573d6000803e3d6000fd5b5050505050816001600160a01b031663a9059cbb84866040518363ffffffff1660e01b815260040180836001600160a01b0316815260200182815260200192505050602060405180830381600087803b15801561430b57600080fd5b505af115801561431f573d6000803e3d6000fd5b505050506040513d602081101561433557600080fd5b505050505050565b6000613bff83836040518060400160405280601e81526020017f536166654d6174683a207375627472616374696f6e206f766572666c6f7700008152506151d0565b6001600160a01b038416614392576144ab565b6143a4846001600160a01b0316615267565b6143ad576144ab565b6017546001600160a01b038516600090815260186020526040902054818111156143d5578091505b816143e15750506144ab565b6000866001600160a01b0316636c9a14a3848888886040518563ffffffff1660e01b815260040180848152602001831515815260200182151581526020019350505050600060405180830381600088803b15801561443e57600080fd5b5087f193505050508015614450575060015b6144595761445d565b5060015b604080516001600160a01b0389168152821515602082015280820185905290517fc9123a2a8e16684aa24686f2bf8a6d0eb0c601bdc109140c9729916865a58bc49181900360600190a15050505b50505050565b6000613bfc848484614d14565b80471015614513576040805162461bcd60e51b815260206004820152601d60248201527f416464726573733a20696e73756666696369656e742062616c616e6365000000604482015290519081900360640190fd5b6040516000906001600160a01b0384169083908381818185875af1925050503d806000811461455e576040519150601f19603f3d011682016040523d82523d6000602084013e614563565b606091505b50509050806141055760405162461bcd60e51b815260040180806020018281038252603a815260200180615de8603a913960400191505060405180910390fd5b60008073__$56718d642b85600d0b97533a10e33dc7c4$__63e0cab550600360009054906101000a90046001600160a01b03168a8a8a8a8a8a6009546040518963ffffffff1660e01b815260040180896001600160a01b03168152602001886001600160a01b0316815260200180602001878152602001866001600160a01b031681526020018515158152602001848152602001838152602001828103825288818151815260200191508051906020019060200280838360005b8381101561467557818101518382015260200161465d565b50505050905001995050505050505050505060206040518083038186803b15801561469f57600080fd5b505af41580156146b3573d6000803e3d6000fd5b505050506040513d60208110156146c957600080fd5b50519050801561478a5760006147026127106146fc6146f560085461271061433d90919063ffffffff16565b8a9061526d565b906152c6565b90506000614710888361433d565b905060008960018b51038151811061472457fe5b6020026020010151905061476682600b6000846001600160a01b03166001600160a01b0316815260200190815260200160002054614cbc90919063ffffffff16565b6001600160a01b039091166000908152600b602052604090205550915061478f9050565b859150505b9695505050505050565b6147a4848385615305565b60035460055460048054604080516317c3cf0f60e31b81526001600160a01b03958616938101939093529284166024830152831660448201528883166064820152878316608482015291861660a483015260c4820185905283151560e483015261010482018390525173__$56718d642b85600d0b97533a10e33dc7c4$__9163be1e787891610124808301926000929190829003018186803b15801561484957600080fd5b505af415801561485d573d6000803e3d6000fd5b5050505061433586846154ce565b34156148d557600660009054906101000a90046001600160a01b03166001600160a01b031663d0e30db0346040518263ffffffff1660e01b81526004016000604051808303818588803b1580156148c157600080fd5b505af11580156133c1573d6000803e3d6000fd5b565b80158015906148f05750600a546001600160a01b031615155b1561494857600a54604080516356b4b2ad60e01b81523360048201526024810184905290516001600160a01b03909216916356b4b2ad9160448082019260009290919082900301818387803b1580156148c157600080fd5b50565b6000614955615c87565b604051806101a001604052808e6001600160a01b031681526020018d81526020018c6001600160a01b031681526020018b81526020018a815260200189815260200188151581526020018781526020018681526020014381526020014281526020018515158152602001846001600160a01b031681525090506000806149da83615655565b915091508e6001600160a01b03167f5265bc4952da402633b3fc35f67ab4245493a0ab94dd8ab123667c8d45a4485c8f8f8f8f8f8f8f8f8b60016013805490500343423a60405180806020018e6001600160a01b031681526020018d81526020018c81526020018b81526020018a1515815260200189815260200188815260200187815260200186815260200185815260200184815260200183815260200182810382528f818151815260200191508051906020019060200280838360005b83811015614ab1578181015183820152602001614a99565b505050509050019e50505050505050505050505050505060405180910390a29e9d5050505050505050505050505050565b6000614aec615bd2565b604051806101c001604052808f6001600160a01b031681526020018e81526020018d6001600160a01b031681526020018c81526020018b81526020018a15158152602001896001600160a01b031681526020018881526020018781526020018681526020014381526020014281526020018515158152602001846001600160a01b03168152509050600080614b80836157f3565b9150915082600001516001600160a01b03167f81ed0476a7e785a9e4728fffd679ea97176ca1ac85e1003462558bb5677da57b84602001518560400151866060015187608001518860a001518960c001518a60e001518b61010001518c61012001518c600160148054905003434260405180806020018e6001600160a01b031681526020018d81526020018c81526020018b151581526020018a6001600160a01b0316815260200189815260200188815260200187815260200186815260200185815260200184815260200183815260200182810382528f818151815260200191508051906020019060200280838360005b83811015614c8a578181015183820152602001614c72565b505050509050019e50505050505050505050505050505060405180910390a29f9e505050505050505050505050505050565b600082820183811015613bff576040805162461bcd60e51b815260206004820152601b60248201527a536166654d6174683a206164646974696f6e206f766572666c6f7760281b604482015290519081900360640190fd5b60008033301480614d3457503360009081526019602052604090205460ff165b60125490915060ff16158015614d48575080155b15614d80576040805162461bcd60e51b815260206004820152600360248201526234303360e81b604482015290519081900360640190fd5b8015614da65743614d9c600f5487614cbc90919063ffffffff16565b1115915050613bff565b336001600160a01b03841614614de9576040805162461bcd60e51b815260206004820152600360248201526234303360e81b604482015290519081900360640190fd5b42614dff60105486614cbc90919063ffffffff16565b1115614e3a576040805162461bcd60e51b815260206004820152600560248201526464656c617960d81b604482015290519081900360640190fd5b506001949350505050565b600a546001600160a01b031680614e5c5750611bf3565b600080826001600160a01b031663534ef883866040518263ffffffff1660e01b815260040180826001600160a01b03168152602001915050604080518083038186803b158015614eab57600080fd5b505afa158015614ebf573d6000803e3d6000fd5b505050506040513d6040811015614ed557600080fd5b508051602090910151909250905081614ef057505050611bf3565b600354604080516312d43a5160e01b815290516000926001600160a01b0316916312d43a51916004808301926020929190829003018186803b158015614f3557600080fd5b505afa158015614f49573d6000803e3d6000fd5b505050506040513d6020811015614f5f57600080fd5b50516040805163318bc68960e01b815290519192507f474c763ff84bf2c2039a6d9fea955ecd0f724030e3c365b91169c6a16fe751b791889188916001600160a01b0386169163318bc6899160048083019260209291908290030181600087803b158015614fcc57600080fd5b505af1158015614fe0573d6000803e3d6000fd5b505050506040513d6020811015614ff657600080fd5b5051604080516001600160a01b03948516815260208101939093528281019190915260608201879052918516608082015290519081900360a00190a1505050505050565b606061508f826040518060400160405280602081526020017f5361666545524332303a206c6f772d6c6576656c2063616c6c206661696c6564815250856001600160a01b031661599c9092919063ffffffff16565b805190915015614105578080602001905160208110156150ae57600080fd5b50516141055760405162461bcd60e51b815260040180806020018281038252602a815260200180615e69602a913960400191505060405180910390fd5b60035460408051634998b10960e11b81526001600160a01b03878116600483015286811660248301528481166044830152915160009384931691639331621291606480830192602092919082900301818787803b15801561514b57600080fd5b505af115801561515f573d6000803e3d6000fd5b505050506040513d602081101561517557600080fd5b50519050838110156151c7576040805162461bcd60e51b81526020600482015260166024820152751a5b9cdd59999a58da595b9d08185b5bdd5b9d13dd5d60521b604482015290519081900360640190fd5b95945050505050565b6000818484111561525f5760405162461bcd60e51b81526004018080602001828103825283818151815260200191508051906020019080838360005b8381101561522457818101518382015260200161520c565b50505050905090810190601f1680156152515780820380516001836020036101000a031916815260200191505b509250505060405180910390fd5b505050900390565b3b151590565b60008261527c57506000612a69565b8282028284828161528957fe5b0414613bff5760405162461bcd60e51b8152600401808060200182810382526021815260200180615e486021913960400191505060405180910390fd5b6000613bff83836040518060400160405280601a815260200179536166654d6174683a206469766973696f6e206279207a65726f60301b8152506159ab565b8061530f57614105565b811561540d576001600160a01b0383166000908152600c602052604090205480158015906153c057506003546040805163783a2b6760e11b81526001600160a01b038781166004830152915184936153be93879391169163f07456ce91602480820192602092909190829003018186803b15801561538c57600080fd5b505afa1580156153a0573d6000803e3d6000fd5b505050506040513d60208110156153b657600080fd5b505190614cbc565b115b15615407576040805162461bcd60e51b81526020600482015260126024820152711b585e081b1bdb99dcc8195e18d95959195960721b604482015290519081900360640190fd5b50614105565b6001600160a01b0383166000908152600d6020526040902054801580159061548657506003546040805163114f1b5560e31b81526001600160a01b03878116600483015291518493615484938793911691638a78daa891602480820192602092909190829003018186803b15801561538c57600080fd5b115b156144ab576040805162461bcd60e51b81526020600482015260136024820152721b585e081cda1bdc9d1cc8195e18d959591959606a1b604482015290519081900360640190fd5b600a546001600160a01b0316806154e55750611bf3565b600080826001600160a01b031663534ef883866040518263ffffffff1660e01b815260040180826001600160a01b03168152602001915050604080518083038186803b15801561553457600080fd5b505afa158015615548573d6000803e3d6000fd5b505050506040513d604081101561555e57600080fd5b50805160209091015190925090508161557957505050611bf3565b600354604080516312d43a5160e01b815290516000926001600160a01b0316916312d43a51916004808301926020929190829003018186803b1580156155be57600080fd5b505afa1580156155d2573d6000803e3d6000fd5b505050506040513d60208110156155e857600080fd5b50516040805163318bc68960e01b815290519192507fc2414023ce7002ee98557d1e7be21e5559073336f2217ee5f9b2e50fd85f71ee91889188916001600160a01b0386169163318bc6899160048083019260209291908290030181600087803b158015614fcc57600080fd5b80516001600160a01b0381166000908152601a6020526040812054909182918290615681906001614cbc565b6001600160a01b0383166000908152601a602052604081208290559091506156a98383612a29565b6000818152601b60209081526040909120885181546001600160a01b0319166001600160a01b03909116178155888201518051939450899391926156f592600185019290910190615d0e565b5060408201516002820180546001600160a01b039283166001600160a01b0319909116179055606083015160038301556080830151600483015560a0830151600583015560c083015160068301805491151560ff1992831617905560e084015160078401556101008085015160088501556101208501516009850155610140850151600a850155610160850151600b90940180546101809096015190931602610100600160a81b0319931515949091169390931791909116919091179055601380546001810182556000919091527f66de8ffda797e3de9c05e8fc57b3bf0ec28a930d40b0d285d93c06501cf6a09001819055909350915050915091565b80516001600160a01b0381166000908152601c602052604081205490918291829061581f906001614cbc565b6001600160a01b0383166000908152601c602052604081208290559091506158478383612a29565b6000818152601d60209081526040909120885181546001600160a01b0319166001600160a01b039091161781558882015180519394508993919261589392600185019290910190615d0e565b5060408201516002820180546001600160a01b039283166001600160a01b0319909116179055606083015160038301556080830151600483015560a083015160058301805460c08601518416610100908102610100600160a81b031994151560ff199384161785161790925560e0860151600686015581860151600786015561012086015160088601556101408601516009860155610160860151600a860155610180860151600b90950180546101a090970151909416909102931515941693909317909216179055601480546001810182556000919091527fce6d7b5282bd9a3661ae061feed1dbda4e52ab073b1f9285be6e155d9c38d4ec01819055909350915050915091565b6060613bfc8484600085615a10565b600081836159fa5760405162461bcd60e51b815260206004820181815283516024840152835190928392604490910191908501908083836000831561522457818101518382015260200161520c565b506000838581615a0657fe5b0495945050505050565b606082471015615a515760405162461bcd60e51b8152600401808060200182810382526026815260200180615e226026913960400191505060405180910390fd5b615a5a85615267565b615aab576040805162461bcd60e51b815260206004820152601d60248201527f416464726573733a2063616c6c20746f206e6f6e2d636f6e7472616374000000604482015290519081900360640190fd5b60006060866001600160a01b031685876040518082805190602001908083835b60208310615aea5780518252601f199092019160209182019101615acb565b6001836020036101000a03801982511681845116808217855250505050505090500191505060006040518083038185875af1925050503d8060008114615b4c576040519150601f19603f3d011682016040523d82523d6000602084013e615b51565b606091505b5091509150615b61828286615b6c565b979650505050505050565b60608315615b7b575081613bff565b825115615b8b5782518084602001fd5b60405162461bcd60e51b815260206004820181815284516024840152845185939192839260440191908501908083836000831561522457818101518382015260200161520c565b604051806101c0016040528060006001600160a01b031681526020016060815260200160006001600160a01b03168152602001600081526020016000815260200160001515815260200160006001600160a01b03168152602001600081526020016000815260200160008152602001600081526020016000815260200160001515815260200160006001600160a01b031681525090565b50805460008255906000526020600020908101906149489190615d73565b604051806101a0016040528060006001600160a01b031681526020016060815260200160006001600160a01b031681526020016000815260200160008152602001600081526020016000151581526020016000815260200160008152602001600081526020016000815260200160001515815260200160006001600160a01b031681525090565b828054828255906000526020600020908101928215615d63579160200282015b82811115615d6357825182546001600160a01b0319166001600160a01b03909116178255602090920191600190910190615d2e565b50615d6f929150615d88565b5090565b5b80821115615d6f5760008155600101615d74565b5b80821115615d6f5780546001600160a01b0319168155600101615d8956fe5265656e7472616e637947756172643a207265656e7472616e742063616c6c00476f7665726e61626c653a20666f7262696464656e0000000000000000000000416464726573733a20756e61626c6520746f2073656e642076616c75652c20726563697069656e74206d61792068617665207265766572746564416464726573733a20696e73756666696369656e742062616c616e636520666f722063616c6c536166654d6174683a206d756c7469706c69636174696f6e206f766572666c6f775361666545524332303a204552433230206f7065726174696f6e20646964206e6f742073756363656564a26469706673582212201e49f0f26e4d043d45016f68437941f70e4938180130d16f4ca2542c7165084a64736f6c634300060c0033","linkReferences":{"contracts/exchange/core/PositionUtils.sol":{"PositionUtils":[{"start":18069,"length":20},{"start":18684,"length":20}]}}},"methodIdentifiers":{"BASIS_POINTS_DIVISOR()":"126082cf","admin()":"f851a440","approve(address,address,uint256)":"e1f21c67","callbackGasLimit()":"24f74697","cancelDecreasePosition(bytes32,address)":"60a362e2","cancelIncreasePosition(bytes32,address)":"225fc9fd","createDecreasePosition(address[],address,uint256,uint256,bool,address,uint256,uint256,uint256,bool,address)":"7be7d141","createIncreasePosition(address[],address,uint256,uint256,uint256,bool,uint256,uint256,bytes32,address)":"f2ae372f","createIncreasePositionETH(address[],address,uint256,uint256,bool,uint256,uint256,bytes32,address)":"5b88e8c6","customCallbackGasLimits(address)":"c4f38e33","decreasePositionRequestKeys(uint256)":"4278555f","decreasePositionRequestKeysStart()":"1bca8cf0","decreasePositionRequests(bytes32)":"1f285106","decreasePositionsIndex(address)":"fa444577","depositFee()":"67a52793","ethTransferGasLimit()":"2d79cf42","executeDecreasePosition(bytes32,address)":"0d4d003d","executeDecreasePositions(uint256,address)":"f3883d8b","executeIncreasePosition(bytes32,address)":"27b42c0f","executeIncreasePositions(uint256,address)":"9a208100","feeReserves(address)":"1ce9cb8f","getDecreasePositionRequestPath(bytes32)":"5d5c22e8","getIncreasePositionRequestPath(bytes32)":"95e9bbd7","getRequestKey(address,uint256)":"62f8a3fe","getRequestQueueLengths()":"f2cea6a5","gov()":"12d43a51","increasePositionBufferBps()":"98d1e03a","increasePositionRequestKeys(uint256)":"04225954","increasePositionRequestKeysStart()":"9b578620","increasePositionRequests(bytes32)":"faf990f3","increasePositionsIndex(address)":"633451de","isLeverageEnabled()":"3e72a262","isPositionKeeper(address)":"36eba48a","maxGlobalLongSizes(address)":"1045c74e","maxGlobalShortSizes(address)":"9698d25a","maxTimeDelay()":"cb0269c9","minBlockDelayKeeper()":"5841fcaa","minExecutionFee()":"63ae2103","minTimeDelayPublic()":"3a2a80c7","referralStorage()":"006cc35e","router()":"f887ea40","sendValue(address,uint256)":"24a084df","setAdmin(address)":"704b6c02","setCallbackGasLimit(uint256)":"8a54942f","setCustomCallbackGasLimit(address,uint256)":"804fc702","setDelayValues(uint256,uint256,uint256)":"4067b132","setDepositFee(uint256)":"490ae210","setEthTransferGasLimit(uint256)":"3a9b52ad","setGov(address)":"cfad57a2","setIncreasePositionBufferBps(uint256)":"233bfe3b","setIsLeverageEnabled(bool)":"7c2eb9f7","setMaxGlobalSizes(address[],uint256[],uint256[])":"ef12c67e","setMinExecutionFee(uint256)":"fc2cee62","setPositionKeeper(address,bool)":"3422ead1","setReferralStorage(address)":"ae4d7f9a","setRequestKeysStartValues(uint256,uint256)":"308aa81f","shortsTracker()":"657bc5d0","vault()":"fbfa77cf","weth()":"3fc8cef3","withdrawFees(address,address)":"f2555278"},"id":43}