{"abi":[{"type":"constructor","inputs":[{"name":"_vault","type":"address","internalType":"address"},{"name":"_router","type":"address","internalType":"address"},{"name":"_weth","type":"address","internalType":"address"},{"name":"_shortsTracker","type":"address","internalType":"address"},{"name":"_depositFee","type":"uint256","internalType":"uint256"},{"name":"_minExecutionFee","type":"uint256","internalType":"uint256"}],"stateMutability":"nonpayable"},{"type":"receive","stateMutability":"payable"},{"type":"function","name":"BASIS_POINTS_DIVISOR","inputs":[],"outputs":[{"name":"","type":"uint256","internalType":"uint256"}],"stateMutability":"view"},{"type":"function","name":"acceptGov","inputs":[],"outputs":[],"stateMutability":"nonpayable"},{"type":"function","name":"admin","inputs":[],"outputs":[{"name":"","type":"address","internalType":"address"}],"stateMutability":"view"},{"type":"function","name":"approve","inputs":[{"name":"_token","type":"address","internalType":"address"},{"name":"_spender","type":"address","internalType":"address"},{"name":"_amount","type":"uint256","internalType":"uint256"}],"outputs":[],"stateMutability":"nonpayable"},{"type":"function","name":"callbackGasLimit","inputs":[],"outputs":[{"name":"","type":"uint256","internalType":"uint256"}],"stateMutability":"view"},{"type":"function","name":"cancelDecreasePosition","inputs":[{"name":"_key","type":"bytes32","internalType":"bytes32"},{"name":"_executionFeeReceiver","type":"address","internalType":"address payable"}],"outputs":[{"name":"","type":"bool","internalType":"bool"}],"stateMutability":"nonpayable"},{"type":"function","name":"cancelGovProposal","inputs":[{"name":"_gov","type":"address","internalType":"address"}],"outputs":[],"stateMutability":"nonpayable"},{"type":"function","name":"cancelIncreasePosition","inputs":[{"name":"_key","type":"bytes32","internalType":"bytes32"},{"name":"_executionFeeReceiver","type":"address","internalType":"address payable"}],"outputs":[{"name":"","type":"bool","internalType":"bool"}],"stateMutability":"nonpayable"},{"type":"function","name":"createDecreasePosition","inputs":[{"name":"_path","type":"address[]","internalType":"address[]"},{"name":"_indexToken","type":"address","internalType":"address"},{"name":"_collateralDelta","type":"uint256","internalType":"uint256"},{"name":"_sizeDelta","type":"uint256","internalType":"uint256"},{"name":"_isLong","type":"bool","internalType":"bool"},{"name":"_receiver","type":"address","internalType":"address"},{"name":"_acceptablePrice","type":"uint256","internalType":"uint256"},{"name":"_minOut","type":"uint256","internalType":"uint256"},{"name":"_executionFee","type":"uint256","internalType":"uint256"},{"name":"_withdrawETH","type":"bool","internalType":"bool"},{"name":"_callbackTarget","type":"address","internalType":"address"}],"outputs":[{"name":"","type":"bytes32","internalType":"bytes32"}],"stateMutability":"payable"},{"type":"function","name":"createIncreasePosition","inputs":[{"name":"_path","type":"address[]","internalType":"address[]"},{"name":"_indexToken","type":"address","internalType":"address"},{"name":"_amountIn","type":"uint256","internalType":"uint256"},{"name":"_minOut","type":"uint256","internalType":"uint256"},{"name":"_sizeDelta","type":"uint256","internalType":"uint256"},{"name":"_isLong","type":"bool","internalType":"bool"},{"name":"_acceptablePrice","type":"uint256","internalType":"uint256"},{"name":"_executionFee","type":"uint256","internalType":"uint256"},{"name":"_referralCode","type":"bytes32","internalType":"bytes32"},{"name":"_callbackTarget","type":"address","internalType":"address"}],"outputs":[{"name":"","type":"bytes32","internalType":"bytes32"}],"stateMutability":"payable"},{"type":"function","name":"createIncreasePositionETH","inputs":[{"name":"_path","type":"address[]","internalType":"address[]"},{"name":"_indexToken","type":"address","internalType":"address"},{"name":"_minOut","type":"uint256","internalType":"uint256"},{"name":"_sizeDelta","type":"uint256","internalType":"uint256"},{"name":"_isLong","type":"bool","internalType":"bool"},{"name":"_acceptablePrice","type":"uint256","internalType":"uint256"},{"name":"_executionFee","type":"uint256","internalType":"uint256"},{"name":"_referralCode","type":"bytes32","internalType":"bytes32"},{"name":"_callbackTarget","type":"address","internalType":"address"}],"outputs":[{"name":"","type":"bytes32","internalType":"bytes32"}],"stateMutability":"payable"},{"type":"function","name":"customCallbackGasLimits","inputs":[{"name":"","type":"address","internalType":"address"}],"outputs":[{"name":"","type":"uint256","internalType":"uint256"}],"stateMutability":"view"},{"type":"function","name":"decreasePositionRequestKeys","inputs":[{"name":"","type":"uint256","internalType":"uint256"}],"outputs":[{"name":"","type":"bytes32","internalType":"bytes32"}],"stateMutability":"view"},{"type":"function","name":"decreasePositionRequestKeysStart","inputs":[],"outputs":[{"name":"","type":"uint256","internalType":"uint256"}],"stateMutability":"view"},{"type":"function","name":"decreasePositionRequests","inputs":[{"name":"","type":"bytes32","internalType":"bytes32"}],"outputs":[{"name":"account","type":"address","internalType":"address"},{"name":"indexToken","type":"address","internalType":"address"},{"name":"collateralDelta","type":"uint256","internalType":"uint256"},{"name":"sizeDelta","type":"uint256","internalType":"uint256"},{"name":"isLong","type":"bool","internalType":"bool"},{"name":"receiver","type":"address","internalType":"address"},{"name":"acceptablePrice","type":"uint256","internalType":"uint256"},{"name":"minOut","type":"uint256","internalType":"uint256"},{"name":"executionFee","type":"uint256","internalType":"uint256"},{"name":"blockNumber","type":"uint256","internalType":"uint256"},{"name":"blockTime","type":"uint256","internalType":"uint256"},{"name":"withdrawETH","type":"bool","internalType":"bool"},{"name":"callbackTarget","type":"address","internalType":"address"}],"stateMutability":"view"},{"type":"function","name":"decreasePositionsIndex","inputs":[{"name":"","type":"address","internalType":"address"}],"outputs":[{"name":"","type":"uint256","internalType":"uint256"}],"stateMutability":"view"},{"type":"function","name":"depositFee","inputs":[],"outputs":[{"name":"","type":"uint256","internalType":"uint256"}],"stateMutability":"view"},{"type":"function","name":"ethTransferGasLimit","inputs":[],"outputs":[{"name":"","type":"uint256","internalType":"uint256"}],"stateMutability":"view"},{"type":"function","name":"executeDecreasePosition","inputs":[{"name":"_key","type":"bytes32","internalType":"bytes32"},{"name":"_executionFeeReceiver","type":"address","internalType":"address payable"}],"outputs":[{"name":"","type":"bool","internalType":"bool"}],"stateMutability":"nonpayable"},{"type":"function","name":"executeDecreasePositions","inputs":[{"name":"_endIndex","type":"uint256","internalType":"uint256"},{"name":"_executionFeeReceiver","type":"address","internalType":"address payable"}],"outputs":[],"stateMutability":"nonpayable"},{"type":"function","name":"executeIncreasePosition","inputs":[{"name":"_key","type":"bytes32","internalType":"bytes32"},{"name":"_executionFeeReceiver","type":"address","internalType":"address payable"}],"outputs":[{"name":"","type":"bool","internalType":"bool"}],"stateMutability":"nonpayable"},{"type":"function","name":"executeIncreasePositions","inputs":[{"name":"_endIndex","type":"uint256","internalType":"uint256"},{"name":"_executionFeeReceiver","type":"address","internalType":"address payable"}],"outputs":[],"stateMutability":"nonpayable"},{"type":"function","name":"feeReserves","inputs":[{"name":"","type":"address","internalType":"address"}],"outputs":[{"name":"","type":"uint256","internalType":"uint256"}],"stateMutability":"view"},{"type":"function","name":"getDecreasePositionRequestPath","inputs":[{"name":"_key","type":"bytes32","internalType":"bytes32"}],"outputs":[{"name":"","type":"address[]","internalType":"address[]"}],"stateMutability":"view"},{"type":"function","name":"getIncreasePositionRequestPath","inputs":[{"name":"_key","type":"bytes32","internalType":"bytes32"}],"outputs":[{"name":"","type":"address[]","internalType":"address[]"}],"stateMutability":"view"},{"type":"function","name":"getRequestKey","inputs":[{"name":"_account","type":"address","internalType":"address"},{"name":"_index","type":"uint256","internalType":"uint256"}],"outputs":[{"name":"","type":"bytes32","internalType":"bytes32"}],"stateMutability":"pure"},{"type":"function","name":"getRequestQueueLengths","inputs":[],"outputs":[{"name":"","type":"uint256","internalType":"uint256"},{"name":"","type":"uint256","internalType":"uint256"},{"name":"","type":"uint256","internalType":"uint256"},{"name":"","type":"uint256","internalType":"uint256"}],"stateMutability":"view"},{"type":"function","name":"gov","inputs":[],"outputs":[{"name":"","type":"address","internalType":"address"}],"stateMutability":"view"},{"type":"function","name":"govProposals","inputs":[{"name":"","type":"address","internalType":"address"}],"outputs":[{"name":"deadline","type":"uint256","internalType":"uint256"},{"name":"isActive","type":"bool","internalType":"bool"}],"stateMutability":"view"},{"type":"function","name":"increasePositionBufferBps","inputs":[],"outputs":[{"name":"","type":"uint256","internalType":"uint256"}],"stateMutability":"view"},{"type":"function","name":"increasePositionRequestKeys","inputs":[{"name":"","type":"uint256","internalType":"uint256"}],"outputs":[{"name":"","type":"bytes32","internalType":"bytes32"}],"stateMutability":"view"},{"type":"function","name":"increasePositionRequestKeysStart","inputs":[],"outputs":[{"name":"","type":"uint256","internalType":"uint256"}],"stateMutability":"view"},{"type":"function","name":"increasePositionRequests","inputs":[{"name":"","type":"bytes32","internalType":"bytes32"}],"outputs":[{"name":"account","type":"address","internalType":"address"},{"name":"indexToken","type":"address","internalType":"address"},{"name":"amountIn","type":"uint256","internalType":"uint256"},{"name":"minOut","type":"uint256","internalType":"uint256"},{"name":"sizeDelta","type":"uint256","internalType":"uint256"},{"name":"isLong","type":"bool","internalType":"bool"},{"name":"acceptablePrice","type":"uint256","internalType":"uint256"},{"name":"executionFee","type":"uint256","internalType":"uint256"},{"name":"blockNumber","type":"uint256","internalType":"uint256"},{"name":"blockTime","type":"uint256","internalType":"uint256"},{"name":"hasCollateralInETH","type":"bool","internalType":"bool"},{"name":"callbackTarget","type":"address","internalType":"address"}],"stateMutability":"view"},{"type":"function","name":"increasePositionsIndex","inputs":[{"name":"","type":"address","internalType":"address"}],"outputs":[{"name":"","type":"uint256","internalType":"uint256"}],"stateMutability":"view"},{"type":"function","name":"isLeverageEnabled","inputs":[],"outputs":[{"name":"","type":"bool","internalType":"bool"}],"stateMutability":"view"},{"type":"function","name":"isPositionKeeper","inputs":[{"name":"","type":"address","internalType":"address"}],"outputs":[{"name":"","type":"bool","internalType":"bool"}],"stateMutability":"view"},{"type":"function","name":"maxGlobalLongSizes","inputs":[{"name":"","type":"address","internalType":"address"}],"outputs":[{"name":"","type":"uint256","internalType":"uint256"}],"stateMutability":"view"},{"type":"function","name":"maxGlobalShortSizes","inputs":[{"name":"","type":"address","internalType":"address"}],"outputs":[{"name":"","type":"uint256","internalType":"uint256"}],"stateMutability":"view"},{"type":"function","name":"maxTimeDelay","inputs":[],"outputs":[{"name":"","type":"uint256","internalType":"uint256"}],"stateMutability":"view"},{"type":"function","name":"minBlockDelayKeeper","inputs":[],"outputs":[{"name":"","type":"uint256","internalType":"uint256"}],"stateMutability":"view"},{"type":"function","name":"minExecutionFee","inputs":[],"outputs":[{"name":"","type":"uint256","internalType":"uint256"}],"stateMutability":"view"},{"type":"function","name":"minTimeDelayPublic","inputs":[],"outputs":[{"name":"","type":"uint256","internalType":"uint256"}],"stateMutability":"view"},{"type":"function","name":"referralStorage","inputs":[],"outputs":[{"name":"","type":"address","internalType":"address"}],"stateMutability":"view"},{"type":"function","name":"router","inputs":[],"outputs":[{"name":"","type":"address","internalType":"address"}],"stateMutability":"view"},{"type":"function","name":"sendValue","inputs":[{"name":"_receiver","type":"address","internalType":"address payable"},{"name":"_amount","type":"uint256","internalType":"uint256"}],"outputs":[],"stateMutability":"nonpayable"},{"type":"function","name":"setAdmin","inputs":[{"name":"_admin","type":"address","internalType":"address"}],"outputs":[],"stateMutability":"nonpayable"},{"type":"function","name":"setCallbackGasLimit","inputs":[{"name":"_callbackGasLimit","type":"uint256","internalType":"uint256"}],"outputs":[],"stateMutability":"nonpayable"},{"type":"function","name":"setCustomCallbackGasLimit","inputs":[{"name":"_callbackTarget","type":"address","internalType":"address"},{"name":"_callbackGasLimit","type":"uint256","internalType":"uint256"}],"outputs":[],"stateMutability":"nonpayable"},{"type":"function","name":"setDelayValues","inputs":[{"name":"_minBlockDelayKeeper","type":"uint256","internalType":"uint256"},{"name":"_minTimeDelayPublic","type":"uint256","internalType":"uint256"},{"name":"_maxTimeDelay","type":"uint256","internalType":"uint256"}],"outputs":[],"stateMutability":"nonpayable"},{"type":"function","name":"setDepositFee","inputs":[{"name":"_depositFee","type":"uint256","internalType":"uint256"}],"outputs":[],"stateMutability":"nonpayable"},{"type":"function","name":"setEthTransferGasLimit","inputs":[{"name":"_ethTransferGasLimit","type":"uint256","internalType":"uint256"}],"outputs":[],"stateMutability":"nonpayable"},{"type":"function","name":"setGov","inputs":[{"name":"_gov","type":"address","internalType":"address"}],"outputs":[],"stateMutability":"nonpayable"},{"type":"function","name":"setGovWithDeadline","inputs":[{"name":"_gov","type":"address","internalType":"address"},{"name":"_deadline","type":"uint256","internalType":"uint256"}],"outputs":[],"stateMutability":"nonpayable"},{"type":"function","name":"setIncreasePositionBufferBps","inputs":[{"name":"_increasePositionBufferBps","type":"uint256","internalType":"uint256"}],"outputs":[],"stateMutability":"nonpayable"},{"type":"function","name":"setIsLeverageEnabled","inputs":[{"name":"_isLeverageEnabled","type":"bool","internalType":"bool"}],"outputs":[],"stateMutability":"nonpayable"},{"type":"function","name":"setMaxGlobalSizes","inputs":[{"name":"_tokens","type":"address[]","internalType":"address[]"},{"name":"_longSizes","type":"uint256[]","internalType":"uint256[]"},{"name":"_shortSizes","type":"uint256[]","internalType":"uint256[]"}],"outputs":[],"stateMutability":"nonpayable"},{"type":"function","name":"setMinExecutionFee","inputs":[{"name":"_minExecutionFee","type":"uint256","internalType":"uint256"}],"outputs":[],"stateMutability":"nonpayable"},{"type":"function","name":"setPositionKeeper","inputs":[{"name":"_account","type":"address","internalType":"address"},{"name":"_isActive","type":"bool","internalType":"bool"}],"outputs":[],"stateMutability":"nonpayable"},{"type":"function","name":"setReferralStorage","inputs":[{"name":"_referralStorage","type":"address","internalType":"address"}],"outputs":[],"stateMutability":"nonpayable"},{"type":"function","name":"setRequestKeysStartValues","inputs":[{"name":"_increasePositionRequestKeysStart","type":"uint256","internalType":"uint256"},{"name":"_decreasePositionRequestKeysStart","type":"uint256","internalType":"uint256"}],"outputs":[],"stateMutability":"nonpayable"},{"type":"function","name":"shortsTracker","inputs":[],"outputs":[{"name":"","type":"address","internalType":"address"}],"stateMutability":"view"},{"type":"function","name":"vault","inputs":[],"outputs":[{"name":"","type":"address","internalType":"address"}],"stateMutability":"view"},{"type":"function","name":"weth","inputs":[],"outputs":[{"name":"","type":"address","internalType":"address"}],"stateMutability":"view"},{"type":"function","name":"withdrawFees","inputs":[{"name":"_token","type":"address","internalType":"address"},{"name":"_receiver","type":"address","internalType":"address"}],"outputs":[],"stateMutability":"nonpayable"},{"type":"event","name":"Callback","inputs":[{"name":"callbackTarget","type":"address","indexed":false,"internalType":"address"},{"name":"success","type":"bool","indexed":false,"internalType":"bool"},{"name":"callbackGasLimit","type":"uint256","indexed":false,"internalType":"uint256"}],"anonymous":false},{"type":"event","name":"CancelDecreasePosition","inputs":[{"name":"account","type":"address","indexed":true,"internalType":"address"},{"name":"path","type":"address[]","indexed":false,"internalType":"address[]"},{"name":"indexToken","type":"address","indexed":false,"internalType":"address"},{"name":"collateralDelta","type":"uint256","indexed":false,"internalType":"uint256"},{"name":"sizeDelta","type":"uint256","indexed":false,"internalType":"uint256"},{"name":"isLong","type":"bool","indexed":false,"internalType":"bool"},{"name":"receiver","type":"address","indexed":false,"internalType":"address"},{"name":"acceptablePrice","type":"uint256","indexed":false,"internalType":"uint256"},{"name":"minOut","type":"uint256","indexed":false,"internalType":"uint256"},{"name":"executionFee","type":"uint256","indexed":false,"internalType":"uint256"},{"name":"blockGap","type":"uint256","indexed":false,"internalType":"uint256"},{"name":"timeGap","type":"uint256","indexed":false,"internalType":"uint256"}],"anonymous":false},{"type":"event","name":"CancelIncreasePosition","inputs":[{"name":"account","type":"address","indexed":true,"internalType":"address"},{"name":"path","type":"address[]","indexed":false,"internalType":"address[]"},{"name":"indexToken","type":"address","indexed":false,"internalType":"address"},{"name":"amountIn","type":"uint256","indexed":false,"internalType":"uint256"},{"name":"minOut","type":"uint256","indexed":false,"internalType":"uint256"},{"name":"sizeDelta","type":"uint256","indexed":false,"internalType":"uint256"},{"name":"isLong","type":"bool","indexed":false,"internalType":"bool"},{"name":"acceptablePrice","type":"uint256","indexed":false,"internalType":"uint256"},{"name":"executionFee","type":"uint256","indexed":false,"internalType":"uint256"},{"name":"blockGap","type":"uint256","indexed":false,"internalType":"uint256"},{"name":"timeGap","type":"uint256","indexed":false,"internalType":"uint256"}],"anonymous":false},{"type":"event","name":"CreateDecreasePosition","inputs":[{"name":"account","type":"address","indexed":true,"internalType":"address"},{"name":"path","type":"address[]","indexed":false,"internalType":"address[]"},{"name":"indexToken","type":"address","indexed":false,"internalType":"address"},{"name":"collateralDelta","type":"uint256","indexed":false,"internalType":"uint256"},{"name":"sizeDelta","type":"uint256","indexed":false,"internalType":"uint256"},{"name":"isLong","type":"bool","indexed":false,"internalType":"bool"},{"name":"receiver","type":"address","indexed":false,"internalType":"address"},{"name":"acceptablePrice","type":"uint256","indexed":false,"internalType":"uint256"},{"name":"minOut","type":"uint256","indexed":false,"internalType":"uint256"},{"name":"executionFee","type":"uint256","indexed":false,"internalType":"uint256"},{"name":"index","type":"uint256","indexed":false,"internalType":"uint256"},{"name":"queueIndex","type":"uint256","indexed":false,"internalType":"uint256"},{"name":"blockNumber","type":"uint256","indexed":false,"internalType":"uint256"},{"name":"blockTime","type":"uint256","indexed":false,"internalType":"uint256"}],"anonymous":false},{"type":"event","name":"CreateIncreasePosition","inputs":[{"name":"account","type":"address","indexed":true,"internalType":"address"},{"name":"path","type":"address[]","indexed":false,"internalType":"address[]"},{"name":"indexToken","type":"address","indexed":false,"internalType":"address"},{"name":"amountIn","type":"uint256","indexed":false,"internalType":"uint256"},{"name":"minOut","type":"uint256","indexed":false,"internalType":"uint256"},{"name":"sizeDelta","type":"uint256","indexed":false,"internalType":"uint256"},{"name":"isLong","type":"bool","indexed":false,"internalType":"bool"},{"name":"acceptablePrice","type":"uint256","indexed":false,"internalType":"uint256"},{"name":"executionFee","type":"uint256","indexed":false,"internalType":"uint256"},{"name":"index","type":"uint256","indexed":false,"internalType":"uint256"},{"name":"queueIndex","type":"uint256","indexed":false,"internalType":"uint256"},{"name":"blockNumber","type":"uint256","indexed":false,"internalType":"uint256"},{"name":"blockTime","type":"uint256","indexed":false,"internalType":"uint256"},{"name":"gasPrice","type":"uint256","indexed":false,"internalType":"uint256"}],"anonymous":false},{"type":"event","name":"DecreasePositionReferral","inputs":[{"name":"account","type":"address","indexed":false,"internalType":"address"},{"name":"sizeDelta","type":"uint256","indexed":false,"internalType":"uint256"},{"name":"marginFeeBasisPoints","type":"uint256","indexed":false,"internalType":"uint256"},{"name":"referralCode","type":"bytes32","indexed":false,"internalType":"bytes32"},{"name":"referrer","type":"address","indexed":false,"internalType":"address"}],"anonymous":false},{"type":"event","name":"ExecuteDecreasePosition","inputs":[{"name":"account","type":"address","indexed":true,"internalType":"address"},{"name":"path","type":"address[]","indexed":false,"internalType":"address[]"},{"name":"indexToken","type":"address","indexed":false,"internalType":"address"},{"name":"collateralDelta","type":"uint256","indexed":false,"internalType":"uint256"},{"name":"sizeDelta","type":"uint256","indexed":false,"internalType":"uint256"},{"name":"isLong","type":"bool","indexed":false,"internalType":"bool"},{"name":"receiver","type":"address","indexed":false,"internalType":"address"},{"name":"acceptablePrice","type":"uint256","indexed":false,"internalType":"uint256"},{"name":"minOut","type":"uint256","indexed":false,"internalType":"uint256"},{"name":"executionFee","type":"uint256","indexed":false,"internalType":"uint256"},{"name":"blockGap","type":"uint256","indexed":false,"internalType":"uint256"},{"name":"timeGap","type":"uint256","indexed":false,"internalType":"uint256"}],"anonymous":false},{"type":"event","name":"ExecuteIncreasePosition","inputs":[{"name":"account","type":"address","indexed":true,"internalType":"address"},{"name":"path","type":"address[]","indexed":false,"internalType":"address[]"},{"name":"indexToken","type":"address","indexed":false,"internalType":"address"},{"name":"amountIn","type":"uint256","indexed":false,"internalType":"uint256"},{"name":"minOut","type":"uint256","indexed":false,"internalType":"uint256"},{"name":"sizeDelta","type":"uint256","indexed":false,"internalType":"uint256"},{"name":"isLong","type":"bool","indexed":false,"internalType":"bool"},{"name":"acceptablePrice","type":"uint256","indexed":false,"internalType":"uint256"},{"name":"executionFee","type":"uint256","indexed":false,"internalType":"uint256"},{"name":"blockGap","type":"uint256","indexed":false,"internalType":"uint256"},{"name":"timeGap","type":"uint256","indexed":false,"internalType":"uint256"}],"anonymous":false},{"type":"event","name":"GovernanceTransferRequested","inputs":[{"name":"newGov","type":"address","indexed":true,"internalType":"address"},{"name":"deadline","type":"uint256","indexed":false,"internalType":"uint256"}],"anonymous":false},{"type":"event","name":"GovernanceTransferred","inputs":[{"name":"oldGov","type":"address","indexed":true,"internalType":"address"},{"name":"newGov","type":"address","indexed":true,"internalType":"address"}],"anonymous":false},{"type":"event","name":"IncreasePositionReferral","inputs":[{"name":"account","type":"address","indexed":false,"internalType":"address"},{"name":"sizeDelta","type":"uint256","indexed":false,"internalType":"uint256"},{"name":"marginFeeBasisPoints","type":"uint256","indexed":false,"internalType":"uint256"},{"name":"referralCode","type":"bytes32","indexed":false,"internalType":"bytes32"},{"name":"referrer","type":"address","indexed":false,"internalType":"address"}],"anonymous":false},{"type":"event","name":"SetAdmin","inputs":[{"name":"admin","type":"address","indexed":false,"internalType":"address"}],"anonymous":false},{"type":"event","name":"SetCallbackGasLimit","inputs":[{"name":"callbackGasLimit","type":"uint256","indexed":false,"internalType":"uint256"}],"anonymous":false},{"type":"event","name":"SetCustomCallbackGasLimit","inputs":[{"name":"callbackTarget","type":"address","indexed":false,"internalType":"address"},{"name":"callbackGasLimit","type":"uint256","indexed":false,"internalType":"uint256"}],"anonymous":false},{"type":"event","name":"SetDelayValues","inputs":[{"name":"minBlockDelayKeeper","type":"uint256","indexed":false,"internalType":"uint256"},{"name":"minTimeDelayPublic","type":"uint256","indexed":false,"internalType":"uint256"},{"name":"maxTimeDelay","type":"uint256","indexed":false,"internalType":"uint256"}],"anonymous":false},{"type":"event","name":"SetDepositFee","inputs":[{"name":"depositFee","type":"uint256","indexed":false,"internalType":"uint256"}],"anonymous":false},{"type":"event","name":"SetEthTransferGasLimit","inputs":[{"name":"ethTransferGasLimit","type":"uint256","indexed":false,"internalType":"uint256"}],"anonymous":false},{"type":"event","name":"SetIncreasePositionBufferBps","inputs":[{"name":"increasePositionBufferBps","type":"uint256","indexed":false,"internalType":"uint256"}],"anonymous":false},{"type":"event","name":"SetIsLeverageEnabled","inputs":[{"name":"isLeverageEnabled","type":"bool","indexed":false,"internalType":"bool"}],"anonymous":false},{"type":"event","name":"SetMaxGlobalSizes","inputs":[{"name":"tokens","type":"address[]","indexed":false,"internalType":"address[]"},{"name":"longSizes","type":"uint256[]","indexed":false,"internalType":"uint256[]"},{"name":"shortSizes","type":"uint256[]","indexed":false,"internalType":"uint256[]"}],"anonymous":false},{"type":"event","name":"SetMinExecutionFee","inputs":[{"name":"minExecutionFee","type":"uint256","indexed":false,"internalType":"uint256"}],"anonymous":false},{"type":"event","name":"SetPositionKeeper","inputs":[{"name":"account","type":"address","indexed":true,"internalType":"address"},{"name":"isActive","type":"bool","indexed":false,"internalType":"bool"}],"anonymous":false},{"type":"event","name":"SetReferralStorage","inputs":[{"name":"referralStorage","type":"address","indexed":false,"internalType":"address"}],"anonymous":false},{"type":"event","name":"SetRequestKeysStartValues","inputs":[{"name":"increasePositionRequestKeysStart","type":"uint256","indexed":false,"internalType":"uint256"},{"name":"decreasePositionRequestKeysStart","type":"uint256","indexed":false,"internalType":"uint256"}],"anonymous":false},{"type":"event","name":"WithdrawFees","inputs":[{"name":"token","type":"address","indexed":false,"internalType":"address"},{"name":"receiver","type":"address","indexed":false,"internalType":"address"},{"name":"amount","type":"uint256","indexed":false,"internalType":"uint256"}],"anonymous":false}],"bytecode":{"object":"0x6101006040526207a1206004556064600655600f805460ff191660011790553480156200002b57600080fd5b50604051620067aa380380620067aa833981810160405260c08110156200005157600080fd5b5080516020820151604083015160608085015160808087015160a097880151600180546001600160a01b0319908116339081179092556001600160601b031999871b8a1690945296851b881660c05294841b871660e052600555911b90931690935260038054909216179055600b5560805160601c60a05160601c60c05160601c60e05160601c61663f6200016b600039806102f652806123a1528061260a528061300952806147515280614ea8525080613d34528061400752806145055280614dc4525080612c06528061443d5280614dec5250806115ab5280611f825280611ff852806140b152806141c65280614b975280614d9c52806155ad52806157bf5280615a425280615b585280615cbc525061663f6000f3fe6080604052600436106102e65760003560e01c8063657bc5d011610182578063657bc5d014610a1357806367a5279314610a285780636bb22fd714610a3d578063704b6c0214610a765780637bc6729b14610aa95780637be7d14114610abe5780637c2eb9f714610ba9578063804fc70214610bd55780638a54942f14610c0e5780638d0fedb014610c3857806395e9bbd714610c845780639698d25a14610cae57806398d1e03a14610ce15780639a20810014610cf65780639b57862014610d2f5780639c35b49714610d44578063ae4d7f9a14610d77578063c4f38e3314610daa578063cb0269c914610ddd578063cfad57a214610df2578063e1f21c6714610e25578063ef12c67e14610e68578063f25552781461101a578063f2ae372f14611055578063f2cea6a514611134578063f3883d8b1461116f578063f851a440146111a8578063f887ea40146111bd578063fa444577146111d2578063faf990f314611205578063fbfa77cf1461129e578063fc2cee62146112b35761035b565b80626cc35e1461036057806304225954146103915780630d4d003d146103cd5780631045c74e1461041a578063126082cf1461044d57806312d43a51146104625780631bca8cf0146104775780631ce9cb8f1461048c5780631f285106146104bf578063225fc9fd14610561578063233bfe3b1461059a57806324a084df146105c457806324f74697146105fd57806327b42c0f146106125780632d79cf421461064b578063308aa81f146106605780633422ead11461069057806336eba48a146106cb5780633a2a80c7146106fe5780633a9b52ad146107135780633e72a2621461073d5780633fc8cef3146107525780634067b132146107675780634278555f1461079d578063490ae210146107c75780635841fcaa146107f15780635b88e8c6146108065780635d5c22e8146108df57806360a362e21461095957806362f8a3fe14610992578063633451de146109cb57806363ae2103146109fe5761035b565b3661035b57336001600160a01b037f00000000000000000000000000000000000000000000000000000000000000001614610359576040805162461bcd60e51b815260206004820152600e60248201526d34b73b30b634b21039b2b73232b960911b604482015290519081900360640190fd5b005b600080fd5b34801561036c57600080fd5b506103756112dd565b604080516001600160a01b039092168252519081900360200190f35b34801561039d57600080fd5b506103bb600480360360208110156103b457600080fd5b50356112ec565b60408051918252519081900360200190f35b3480156103d957600080fd5b50610406600480360360408110156103f057600080fd5b50803590602001356001600160a01b031661130a565b604080519115158252519081900360200190f35b34801561042657600080fd5b506103bb6004803603602081101561043d57600080fd5b50356001600160a01b03166117bb565b34801561045957600080fd5b506103bb6117cd565b34801561046e57600080fd5b506103756117d3565b34801561048357600080fd5b506103bb6117e2565b34801561049857600080fd5b506103bb600480360360208110156104af57600080fd5b50356001600160a01b03166117e8565b3480156104cb57600080fd5b506104e9600480360360208110156104e257600080fd5b50356117fa565b604080516001600160a01b039e8f1681529c8e1660208e01528c81019b909b5260608c019990995296151560808b0152948a1660a08a015260c089019390935260e088019190915261010087015261012086015261014085015215156101608401529092166101808201529051908190036101a00190f35b34801561056d57600080fd5b506104066004803603604081101561058457600080fd5b50803590602001356001600160a01b031661186d565b3480156105a657600080fd5b50610359600480360360208110156105bd57600080fd5b5035611c37565b3480156105d057600080fd5b50610359600480360360408110156105e757600080fd5b506001600160a01b038135169060200135611cbd565b34801561060957600080fd5b506103bb611d21565b34801561061e57600080fd5b506104066004803603604081101561063557600080fd5b50803590602001356001600160a01b0316611d27565b34801561065757600080fd5b506103bb6121b0565b34801561066c57600080fd5b506103596004803603604081101561068357600080fd5b50803590602001356121b6565b34801561069c57600080fd5b50610359600480360360408110156106b357600080fd5b506001600160a01b038135169060200135151561224a565b3480156106d757600080fd5b50610406600480360360208110156106ee57600080fd5b50356001600160a01b03166122f5565b34801561070a57600080fd5b506103bb61230a565b34801561071f57600080fd5b506103596004803603602081101561073657600080fd5b5035612310565b34801561074957600080fd5b50610406612396565b34801561075e57600080fd5b5061037561239f565b34801561077357600080fd5b506103596004803603606081101561078a57600080fd5b50803590602081013590604001356123c3565b3480156107a957600080fd5b506103bb600480360360208110156107c057600080fd5b5035612462565b3480156107d357600080fd5b50610359600480360360208110156107ea57600080fd5b503561246f565b3480156107fd57600080fd5b506103bb6124f5565b6103bb600480360361012081101561081d57600080fd5b810190602081018135600160201b81111561083757600080fd5b82018360208201111561084957600080fd5b803590602001918460208302840111600160201b8311171561086a57600080fd5b919080806020026020016040519081016040528093929190818152602001838360200280828437600092019190915250929550505081356001600160a01b03908116935060208301359260408101359250606081013515159160808201359160a08101359160c08201359160e00135166124fb565b3480156108eb57600080fd5b506109096004803603602081101561090257600080fd5b50356126d2565b60408051602080825283518183015283519192839290830191858101910280838360005b8381101561094557818101518382015260200161092d565b505050509050019250505060405180910390f35b34801561096557600080fd5b506104066004803603604081101561097c57600080fd5b50803590602001356001600160a01b0316612808565b34801561099e57600080fd5b506103bb600480360360408110156109b557600080fd5b506001600160a01b038135169060200135612ba6565b3480156109d757600080fd5b506103bb600480360360208110156109ee57600080fd5b50356001600160a01b0316612bec565b348015610a0a57600080fd5b506103bb612bfe565b348015610a1f57600080fd5b50610375612c04565b348015610a3457600080fd5b506103bb612c28565b348015610a4957600080fd5b5061035960048036036040811015610a6057600080fd5b506001600160a01b038135169060200135612c2e565b348015610a8257600080fd5b5061035960048036036020811015610a9957600080fd5b50356001600160a01b0316612d3f565b348015610ab557600080fd5b50610359612de0565b6103bb6004803603610160811015610ad557600080fd5b810190602081018135600160201b811115610aef57600080fd5b820183602082011115610b0157600080fd5b803590602001918460208302840111600160201b83111715610b2257600080fd5b919080806020026020016040519081016040528093929190818152602001838360200280828437600092019190915250929550505081356001600160a01b039081169350602083013592604081013592506060810135151591608082013581169160a08101359160c08201359160e081013591610100820135151591610120013516612ef5565b348015610bb557600080fd5b5061035960048036036020811015610bcc57600080fd5b503515156130be565b348015610be157600080fd5b5061035960048036036040811015610bf857600080fd5b506001600160a01b038135169060200135613150565b348015610c1a57600080fd5b5061035960048036036020811015610c3157600080fd5b50356131f4565b348015610c4457600080fd5b50610c6b60048036036020811015610c5b57600080fd5b50356001600160a01b031661327a565b6040805192835290151560208301528051918290030190f35b348015610c9057600080fd5b5061090960048036036020811015610ca757600080fd5b5035613296565b348015610cba57600080fd5b506103bb60048036036020811015610cd157600080fd5b50356001600160a01b03166133c4565b348015610ced57600080fd5b506103bb6133d6565b348015610d0257600080fd5b5061035960048036036040811015610d1957600080fd5b50803590602001356001600160a01b03166133dc565b348015610d3b57600080fd5b506103bb6135b4565b348015610d5057600080fd5b5061035960048036036020811015610d6757600080fd5b50356001600160a01b03166135ba565b348015610d8357600080fd5b5061035960048036036020811015610d9a57600080fd5b50356001600160a01b031661369e565b348015610db657600080fd5b506103bb60048036036020811015610dcd57600080fd5b50356001600160a01b031661373d565b348015610de957600080fd5b506103bb61374f565b348015610dfe57600080fd5b5061035960048036036020811015610e1557600080fd5b50356001600160a01b0316613755565b348015610e3157600080fd5b5061035960048036036060811015610e4857600080fd5b506001600160a01b0381358116916020810135909116906040013561386b565b348015610e7457600080fd5b5061035960048036036060811015610e8b57600080fd5b810190602081018135600160201b811115610ea557600080fd5b820183602082011115610eb757600080fd5b803590602001918460208302840111600160201b83111715610ed857600080fd5b9190808060200260200160405190810160405280939291908181526020018383602002808284376000920191909152509295949360208101935035915050600160201b811115610f2757600080fd5b820183602082011115610f3957600080fd5b803590602001918460208302840111600160201b83111715610f5a57600080fd5b9190808060200260200160405190810160405280939291908181526020018383602002808284376000920191909152509295949360208101935035915050600160201b811115610fa957600080fd5b820183602082011115610fbb57600080fd5b803590602001918460208302840111600160201b83111715610fdc57600080fd5b919080806020026020016040519081016040528093929190818152602001838360200280828437600092019190915250929550613940945050505050565b34801561102657600080fd5b506103596004803603604081101561103d57600080fd5b506001600160a01b0381358116916020013516613b2d565b6103bb600480360361014081101561106c57600080fd5b810190602081018135600160201b81111561108657600080fd5b82018360208201111561109857600080fd5b803590602001918460208302840111600160201b831117156110b957600080fd5b919080806020026020016040519081016040528093929190818152602001838360200280828437600092019190915250929550506001600160a01b038335811694506020840135936040810135935060608101359250608081013515159160a08201359160c08101359160e082013591610100013516613c0f565b34801561114057600080fd5b50611149613e0c565b604080519485526020850193909352838301919091526060830152519081900360800190f35b34801561117b57600080fd5b506103596004803603604081101561119257600080fd5b50803590602001356001600160a01b0316613e1e565b3480156111b457600080fd5b50610375613ff6565b3480156111c957600080fd5b50610375614005565b3480156111de57600080fd5b506103bb600480360360208110156111f557600080fd5b50356001600160a01b0316614029565b34801561121157600080fd5b5061122f6004803603602081101561122857600080fd5b503561403b565b604080516001600160a01b039d8e1681529b8d1660208d01528b81019a909a5260608b019890985260808a019690965293151560a089015260c088019290925260e087015261010086015261012085015215156101408401529092166101608201529051908190036101800190f35b3480156112aa57600080fd5b506103756140af565b3480156112bf57600080fd5b50610359600480360360208110156112d657600080fd5b50356140d3565b6007546001600160a01b031681565b601081815481106112f957fe5b600091825260209091200154905081565b600060026000541415611352576040805162461bcd60e51b815260206004820152601f60248201526000805160206164fd833981519152604482015290519081900360640190fd5b600260005561135f616327565b6000848152601a602090815260409182902082516101c08101845281546001600160a01b03168152600182018054855181860281018601909652808652919492938581019392908301828280156113df57602002820191906000526020600020905b81546001600160a01b031681526001909101906020018083116113c1575b505050918352505060028201546001600160a01b0390811660208301526003830154604083015260048301546060830152600583015460ff8082161515608085015261010091829004831660a0850152600685015460c0850152600785015460e08501526008850154828501526009850154610120850152600a850154610140850152600b9094015493841615156101608401529092048216610180909101528151919250166114935760019150506117b0565b60006114ae8261014001518361016001518460000151614159565b9050806114c0576000925050506117b0565b6000858152601a6020526040812080546001600160a01b0319168155906114ea60018301826163be565b506002810180546001600160a01b0319169055600060038201819055600482018190556005820180546001600160a81b031990811690915560068301829055600783018290556008830182905560098301829055600a8301829055600b9092018054909216909155825160208401518051611590929190849061156957fe5b60200260200101518560400151866060015187608001518860a00151308a60e001516141c2565b905080156116525760018360200151511115611613576115fc7f00000000000000000000000000000000000000000000000000000000000000008285602001516000815181106115dc57fe5b60200260200101516001600160a01b031661466b9092919063ffffffff16565b6116108360200151846101000151306146c2565b90505b826101800151156116315761162c818460c0015161474d565b611652565b6116528360c00151828560200151600187602001515103815181106115dc57fe5b6116618361012001518661474d565b82600001516001600160a01b03167f21435c5b618d77ff3657140cd3318e2cffaebc5e0e1b7318f56a9ba4044c3ed284602001518560400151866060015187608001518860a001518960c001518a60e001518b61010001518c61012001516116d78e61014001514361491290919063ffffffff16565b6101608f01516116e8904290614912565b60405180806020018c6001600160a01b031681526020018b81526020018a81526020018915158152602001886001600160a01b0316815260200187815260200186815260200185815260200184815260200183815260200182810382528d818151815260200191508051906020019060200280838360005b83811015611778578181015183820152602001611760565b505050509050019c5050505050505050505050505060405180910390a26117a8836101a001518760016000614954565b600193505050505b600160005592915050565b60096020526000908152604090205481565b61271081565b6001546001600160a01b031681565b60135481565b60086020526000908152604090205481565b601a602052600090815260409020805460028201546003830154600484015460058501546006860154600787015460088801546009890154600a8a0154600b909a01546001600160a01b03998a169a988a16999798969760ff80881698610100988990048316989093918216929104168d565b6000600260005414156118b5576040805162461bcd60e51b815260206004820152601f60248201526000805160206164fd833981519152604482015290519081900360640190fd5b60026000556118c26163dc565b60008481526018602090815260409182902082516101a08101845281546001600160a01b031681526001820180548551818602810186019096528086529194929385810193929083018282801561194257602002820191906000526020600020905b81546001600160a01b03168152600190910190602001808311611924575b505050918352505060028201546001600160a01b039081166020830152600383015460408301526004830154606083015260058301546080830152600683015460ff908116151560a0840152600784015460c0840152600884015460e0840152600984015461010080850191909152600a850154610120850152600b909401549081161515610140840152929092048216610160909101528151919250166119ee5760019150506117b0565b6000611a098261012001518361014001518460000151614a86565b905080611a1b576000925050506117b0565b600085815260186020526040812080546001600160a01b031916815590611a4560018301826163be565b506002810180546001600160a01b0319169055600060038201819055600482018190556005820181905560068201805460ff19169055600782018190556008820181905560098201819055600a820155600b0180546001600160a81b031916905561016082015115611ac857611ac38260600151836000015161474d565b611ae6565b611ae68260000151836060015184602001516000815181106115dc57fe5b611af58261010001518561474d565b81600001516001600160a01b03167f35b638e650e2328786fb405bd69d2083dbedc018d086662e74b775b4f1dae4bf83602001518460400151856060015186608001518760a001518860c001518960e001518a6101000151611b658c61012001514361491290919063ffffffff16565b6101408d0151611b76904290614912565b60405180806020018b6001600160a01b031681526020018a8152602001898152602001888152602001871515815260200186815260200185815260200184815260200183815260200182810382528c818151815260200191508051906020019060200280838360005b83811015611bf7578181015183820152602001611bdf565b505050509050019b50505050505050505050505060405180910390a2611c268261018001518660006001614954565b600192505050600160005592915050565b6003546001600160a01b03163314611c82576040805162461bcd60e51b81526020600482015260096024820152683337b93134b23232b760b91b604482015290519081900360640190fd5b60068190556040805182815290517f21167d0d4661af93817ebce920f18986eed3d75d5e1c03f2aed05efcbafbc4529181900360200190a150565b6001546001600160a01b03163314611d0a576040805162461bcd60e51b8152602060048201526015602482015260008051602061651d833981519152604482015290519081900360640190fd5b611d1d6001600160a01b03831682614a93565b5050565b60145481565b600060026000541415611d6f576040805162461bcd60e51b815260206004820152601f60248201526000805160206164fd833981519152604482015290519081900360640190fd5b6002600055611d7c6163dc565b60008481526018602090815260409182902082516101a08101845281546001600160a01b0316815260018201805485518186028101860190965280865291949293858101939290830182828015611dfc57602002820191906000526020600020905b81546001600160a01b03168152600190910190602001808311611dde575b505050918352505060028201546001600160a01b039081166020830152600383015460408301526004830154606083015260058301546080830152600683015460ff908116151560a0840152600784015460c0840152600884015460e0840152600984015461010080850191909152600a850154610120850152600b90940154908116151561014084015292909204821661016090910152815191925016611ea85760019150506117b0565b6000611ec38261012001518361014001518460000151614159565b905080611ed5576000925050506117b0565b600085815260186020526040812080546001600160a01b031916815590611eff60018301826163be565b506002810180546001600160a01b0319169055600060038201819055600482018190556005820181905560068201805460ff19169055600782018190556008820181905560098201819055600a820155600b0180546001600160a81b031916905560608201511561203357606082015160208301515160011015611fcd57611fb77f0000000000000000000000000000000000000000000000000000000000000000846060015185602001516000815181106115dc57fe5b611fca83602001518460800151306146c2565b90505b6000611ff1846000015185602001518487604001518860c001518960a00151614b78565b90506120307f0000000000000000000000000000000000000000000000000000000000000000828660200151600188602001515103815181106115dc57fe5b50505b815160208301518051612071929190600019810190811061205057fe5b602002602001015184604001518560a001518660c001518760e00151614d79565b6120808261010001518561474d565b81600001516001600160a01b03167f1be316b94d38c07bd41cdb4913772d0a0a82802786a2f8b657b6e85dbcdfc64183602001518460400151856060015186608001518760a001518860c001518960e001518a61010001516120f08c61012001514361491290919063ffffffff16565b6101408d0151612101904290614912565b60405180806020018b6001600160a01b031681526020018a8152602001898152602001888152602001871515815260200186815260200185815260200184815260200183815260200182810382528c818151815260200191508051906020019060200280838360005b8381101561218257818101518382015260200161216a565b505050509050019b50505050505050505050505060405180910390a2611c2682610180015186600180614954565b60045481565b6003546001600160a01b03163314612201576040805162461bcd60e51b81526020600482015260096024820152683337b93134b23232b760b91b604482015290519081900360640190fd5b60128290556013819055604080518381526020810183905281517febb0f666150f4be5b60c45df8f3e49992510b0128027fe58eea6110f296493bc929181900390910190a15050565b6003546001600160a01b03163314612295576040805162461bcd60e51b81526020600482015260096024820152683337b93134b23232b760b91b604482015290519081900360640190fd5b6001600160a01b038216600081815260166020908152604091829020805460ff1916851515908117909155825190815291517ffbabc02389290a451c6e600d05bf9887b99bfad39d8e1237e4e3df042e4941fe9281900390910190a25050565b60166020526000908152604090205460ff1681565b600d5481565b6003546001600160a01b0316331461235b576040805162461bcd60e51b81526020600482015260096024820152683337b93134b23232b760b91b604482015290519081900360640190fd5b60048190556040805182815290517f4d371d598d3a13f99ce992a17975bbaf1e1c256e072ec7d2f93ce88e40d9ba1c9181900360200190a150565b600f5460ff1681565b7f000000000000000000000000000000000000000000000000000000000000000081565b6003546001600160a01b0316331461240e576040805162461bcd60e51b81526020600482015260096024820152683337b93134b23232b760b91b604482015290519081900360640190fd5b600c839055600d829055600e819055604080518481526020810184905280820183905290517fb98e759701eaca2e60c25e91109003c1c7442ef731b5d569037063005da8254d9181900360600190a1505050565b601181815481106112f957fe5b6003546001600160a01b031633146124ba576040805162461bcd60e51b81526020600482015260096024820152683337b93134b23232b760b91b604482015290519081900360640190fd5b60058190556040805182815290517f974fd3c1fcb4653dfc4fb740c4c692cd212d55c28f163f310128cb64d83006759181900360200190a150565b600c5481565b600060026000541415612543576040805162461bcd60e51b815260206004820152601f60248201526000805160206164fd833981519152604482015290519081900360640190fd5b6002600055600b54841015612585576040805162461bcd60e51b815260206004820152600360248201526266656560e81b604482015290519081900360640190fd5b833410156125c0576040805162461bcd60e51b81526020600482015260036024820152621d985b60ea1b604482015290519081900360640190fd5b8951600114806125d1575089516002145b612608576040805162461bcd60e51b81526020600482015260036024820152623632b760e91b604482015290519081900360640190fd5b7f00000000000000000000000000000000000000000000000000000000000000006001600160a01b03168a60008151811061263f57fe5b60200260200101516001600160a01b03161461268b576040805162461bcd60e51b815260206004808301919091526024820152630e0c2e8d60e31b604482015290519081900360640190fd5b612693614ea0565b61269c83614f17565b60006126a83486614912565b90506126be338c8c848d8d8d8d8d60018d614f88565b60016000559b9a5050505050505050505050565b60606126dc616327565b6000838152601a602090815260409182902082516101c08101845281546001600160a01b031681526001820180548551818602810186019096528086529194929385810193929083018282801561275c57602002820191906000526020600020905b81546001600160a01b0316815260019091019060200180831161273e575b505050918352505060028201546001600160a01b039081166020808401919091526003840154604084015260048401546060840152600584015460ff8082161515608086015261010091829004841660a0860152600686015460c0860152600786015460e08601526008860154828601526009860154610120860152600a860154610140860152600b909501549485161515610160850152909304166101809091015201519392505050565b600060026000541415612850576040805162461bcd60e51b815260206004820152601f60248201526000805160206164fd833981519152604482015290519081900360640190fd5b600260005561285d616327565b6000848152601a602090815260409182902082516101c08101845281546001600160a01b03168152600182018054855181860281018601909652808652919492938581019392908301828280156128dd57602002820191906000526020600020905b81546001600160a01b031681526001909101906020018083116128bf575b505050918352505060028201546001600160a01b0390811660208301526003830154604083015260048301546060830152600583015460ff8082161515608085015261010091829004831660a0850152600685015460c0850152600785015460e08501526008850154828501526009850154610120850152600a850154610140850152600b9094015493841615156101608401529092048216610180909101528151919250166129915760019150506117b0565b60006129ac8261014001518361016001518460000151614a86565b9050806129be576000925050506117b0565b6000858152601a6020526040812080546001600160a01b0319168155906129e860018301826163be565b506002810180546001600160a01b0319169055600060038201819055600482018190556005820180546001600160a81b031990811690915560068301829055600783018290556008830182905560098301829055600a830191909155600b90910180549091169055610120820151612a60908561474d565b81600001516001600160a01b03167f87abfd78e844f28318363bdf3da99eab2f4a2da9ff7ae365484507f7b6c3f80583602001518460400151856060015186608001518760a001518860c001518960e001518a61010001518b6101200151612ad68d61014001514361491290919063ffffffff16565b6101608e0151612ae7904290614912565b60405180806020018c6001600160a01b031681526020018b81526020018a81526020018915158152602001886001600160a01b0316815260200187815260200186815260200185815260200184815260200183815260200182810382528d818151815260200191508051906020019060200280838360005b83811015612b77578181015183820152602001612b5f565b505050509050019c5050505050505050505050505060405180910390a2611c26826101a0015186600080614954565b6000828260405160200180836001600160a01b031660601b8152601401828152602001925050506040516020818303038152906040528051906020012090505b92915050565b60176020526000908152604090205481565b600b5481565b7f000000000000000000000000000000000000000000000000000000000000000081565b60055481565b6001546001600160a01b03163314612c7b576040805162461bcd60e51b8152602060048201526015602482015260008051602061651d833981519152604482015290519081900360640190fd5b6001600160a01b038216612cd4576040805162461bcd60e51b815260206004820152601b60248201527a476f7665726e61626c653a20696e76616c6964206164647265737360281b604482015290519081900360640190fd5b6001546001600160a01b0383811691161415612d35576040805162461bcd60e51b815260206004820152601b60248201527a476f7665726e61626c653a2073616d6520676f7665726e616e636560281b604482015290519081900360640190fd5b611d1d828261511f565b6001546001600160a01b03163314612d8c576040805162461bcd60e51b8152602060048201526015602482015260008051602061651d833981519152604482015290519081900360640190fd5b600380546001600160a01b0383166001600160a01b0319909116811790915560408051918252517f5a272403b402d892977df56625f4164ccaf70ca3863991c43ecfe76a6905b0a19181900360200190a150565b33600090815260026020526040902080544210612e43576040805162461bcd60e51b815260206004820152601c60248201527b11dbdd995c9b98589b194e88191958591b1a5b9948195e1c1a5c995960221b604482015290519081900360640190fd5b60018082015460ff16151514612e8a5760405162461bcd60e51b815260040180806020018281038252602281526020018061659d6022913960400191505060405180910390fd5b60018054336000818152600260205260408082208281558501805460ff1916905584546001600160a01b031916831790945592516001600160a01b0390921692909183917f5f56bee8cffbe9a78652a74a60705edede02af10b0bbb888ca44b79a0d42ce8091a35050565b600060026000541415612f3d576040805162461bcd60e51b815260206004820152601f60248201526000805160206164fd833981519152604482015290519081900360640190fd5b6002600055600b54841015612f7f576040805162461bcd60e51b815260206004820152600360248201526266656560e81b604482015290519081900360640190fd5b833414612fb9576040805162461bcd60e51b81526020600482015260036024820152621d985b60ea1b604482015290519081900360640190fd5b8b5160011480612fca57508b516002145b613001576040805162461bcd60e51b81526020600482015260036024820152623632b760e91b604482015290519081900360640190fd5b821561308d577f00000000000000000000000000000000000000000000000000000000000000006001600160a01b03168c60018e51038151811061304157fe5b60200260200101516001600160a01b03161461308d576040805162461bcd60e51b815260206004808301919091526024820152630e0c2e8d60e31b604482015290519081900360640190fd5b613095614ea0565b6130a9338d8d8d8d8d8d8d8d8d8d8d61519b565b60016000559c9b505050505050505050505050565b6003546001600160a01b03163314613109576040805162461bcd60e51b81526020600482015260096024820152683337b93134b23232b760b91b604482015290519081900360640190fd5b600f805482151560ff19909116811790915560408051918252517f4eb87a5935d402aa24c01b45bfb30adefcd2328b480f2d967864de4b64ea929f9181900360200190a150565b6003546001600160a01b0316331461319b576040805162461bcd60e51b81526020600482015260096024820152683337b93134b23232b760b91b604482015290519081900360640190fd5b6001600160a01b0382166000818152601560209081526040918290208490558151928352820183905280517f0a585bcfd5f265014b902e5350c05f3a465468d433f13009dcf83f17dc1316be9281900390910190a15050565b6003546001600160a01b0316331461323f576040805162461bcd60e51b81526020600482015260096024820152683337b93134b23232b760b91b604482015290519081900360640190fd5b60148190556040805182815290517f22bd2c9f980325d046be74aaef5fc76df4a2bc3fbc7c5a1200fcc79fe80dab6c9181900360200190a150565b6002602052600090815260409020805460019091015460ff1682565b60606132a06163dc565b60008381526018602090815260409182902082516101a08101845281546001600160a01b031681526001820180548551818602810186019096528086529194929385810193929083018282801561332057602002820191906000526020600020905b81546001600160a01b03168152600190910190602001808311613302575b505050918352505060028201546001600160a01b03908116602080840191909152600384015460408401526004840154606084015260058401546080840152600684015460ff908116151560a0850152600785015460c0850152600885015460e0850152600985015461010080860191909152600a860154610120860152600b90950154908116151561014085015293909304166101609091015201519392505050565b600a6020526000908152604090205481565b60065481565b3360009081526016602052604090205460ff16613426576040805162461bcd60e51b815260206004820152600360248201526234303360e81b604482015290519081900360640190fd5b60125460105480821061343a575050611d1d565b80841115613446578093505b838210156135ac5760006010838154811061345d57fe5b90600052602060002001549050306001600160a01b03166327b42c0f82866040518363ffffffff1660e01b815260040180838152602001826001600160a01b0316815260200192505050602060405180830381600087803b1580156134c157600080fd5b505af19250505080156134e657506040513d60208110156134e157600080fd5b505160015b61357a576040805163225fc9fd60e01b8152600481018390526001600160a01b03861660248201529051309163225fc9fd9160448083019260209291908290030181600087803b15801561353957600080fd5b505af192505050801561355e57506040513d602081101561355957600080fd5b505160015b61356757613575565b806135735750506135ac565b505b613588565b806135865750506135ac565b505b6010838154811061359557fe5b600091825260208220015550600190910190613446565b506012555050565b60125481565b6001546001600160a01b03163314613607576040805162461bcd60e51b8152602060048201526015602482015260008051602061651d833981519152604482015290519081900360640190fd5b6001600160a01b03811660009081526002602052604090206001015460ff16613677576040805162461bcd60e51b815260206004820152601f60248201527f476f7665726e61626c653a2070726f706f73616c206e6f742061637469766500604482015290519081900360640190fd5b6001600160a01b03166000908152600260205260408120908155600101805460ff19169055565b6003546001600160a01b031633146136e9576040805162461bcd60e51b81526020600482015260096024820152683337b93134b23232b760b91b604482015290519081900360640190fd5b600780546001600160a01b0383166001600160a01b0319909116811790915560408051918252517f828abcccea18192c21d645e575652c49e20b986dab777906fc473d056b01b6a89181900360200190a150565b60156020526000908152604090205481565b600e5481565b6001546001600160a01b031633146137a2576040805162461bcd60e51b8152602060048201526015602482015260008051602061651d833981519152604482015290519081900360640190fd5b6001600160a01b0381166137fb576040805162461bcd60e51b815260206004820152601b60248201527a476f7665726e61626c653a20696e76616c6964206164647265737360281b604482015290519081900360640190fd5b6001546001600160a01b038281169116141561385c576040805162461bcd60e51b815260206004820152601b60248201527a476f7665726e61626c653a2073616d6520676f7665726e616e636560281b604482015290519081900360640190fd5b6138688160001961511f565b50565b6001546001600160a01b031633146138b8576040805162461bcd60e51b8152602060048201526015602482015260008051602061651d833981519152604482015290519081900360640190fd5b826001600160a01b031663095ea7b383836040518363ffffffff1660e01b815260040180836001600160a01b0316815260200182815260200192505050602060405180830381600087803b15801561390f57600080fd5b505af1158015613923573d6000803e3d6000fd5b505050506040513d602081101561393957600080fd5b5050505050565b6003546001600160a01b0316331461398b576040805162461bcd60e51b81526020600482015260096024820152683337b93134b23232b760b91b604482015290519081900360640190fd5b60005b8351811015613a265760008482815181106139a557fe5b602002602001015190508382815181106139bb57fe5b602002602001015160096000836001600160a01b03166001600160a01b03168152602001908152602001600020819055508282815181106139f857fe5b6020908102919091018101516001600160a01b039092166000908152600a909152604090205560010161398e565b507fae32d569b058895b9620d6552b09aaffedc9a6f396be4d595a224ad09f8b213983838360405180806020018060200180602001848103845287818151815260200191508051906020019060200280838360005b83811015613a93578181015183820152602001613a7b565b50505050905001848103835286818151815260200191508051906020019060200280838360005b83811015613ad2578181015183820152602001613aba565b50505050905001848103825285818151815260200191508051906020019060200280838360005b83811015613b11578181015183820152602001613af9565b50505050905001965050505050505060405180910390a1505050565b6003546001600160a01b03163314613b78576040805162461bcd60e51b81526020600482015260096024820152683337b93134b23232b760b91b604482015290519081900360640190fd5b6001600160a01b03821660009081526008602052604090205480613b9c5750611d1d565b6001600160a01b038316600081815260086020526040812055613bc090838361466b565b604080516001600160a01b0380861682528416602082015280820183905290517f4f1b51dd7a2fcb861aa2670f668be66835c4ee12b4bbbf037e4d0018f39819e49181900360600190a1505050565b600060026000541415613c57576040805162461bcd60e51b815260206004820152601f60248201526000805160206164fd833981519152604482015290519081900360640190fd5b6002600055600b54841015613c99576040805162461bcd60e51b815260206004820152600360248201526266656560e81b604482015290519081900360640190fd5b833414613cd3576040805162461bcd60e51b81526020600482015260036024820152621d985b60ea1b604482015290519081900360640190fd5b8a5160011480613ce457508a516002145b613d1b576040805162461bcd60e51b81526020600482015260036024820152623632b760e91b604482015290519081900360640190fd5b613d23614ea0565b613d2c83614f17565b8815613df8577f00000000000000000000000000000000000000000000000000000000000000006001600160a01b0316631b8278788c600081518110613d6e57fe5b602002602001015133308d6040518563ffffffff1660e01b815260040180856001600160a01b03168152602001846001600160a01b03168152602001836001600160a01b03168152602001828152602001945050505050600060405180830381600087803b158015613ddf57600080fd5b505af1158015613df3573d6000803e3d6000fd5b505050505b6126be338c8c8c8c8c8c8c8c60008c614f88565b60125460105460135460115490919293565b3360009081526016602052604090205460ff16613e68576040805162461bcd60e51b815260206004820152600360248201526234303360e81b604482015290519081900360640190fd5b601354601154808210613e7c575050611d1d565b80841115613e88578093505b83821015613fee57600060118381548110613e9f57fe5b90600052602060002001549050306001600160a01b0316630d4d003d82866040518363ffffffff1660e01b815260040180838152602001826001600160a01b0316815260200192505050602060405180830381600087803b158015613f0357600080fd5b505af1925050508015613f2857506040513d6020811015613f2357600080fd5b505160015b613fbc5760408051633051b17160e11b8152600481018390526001600160a01b0386166024820152905130916360a362e29160448083019260209291908290030181600087803b158015613f7b57600080fd5b505af1925050508015613fa057506040513d6020811015613f9b57600080fd5b505160015b613fa957613fb7565b80613fb5575050613fee565b505b613fca565b80613fc8575050613fee565b505b60118381548110613fd757fe5b600091825260208220015550600190910190613e88565b506013555050565b6003546001600160a01b031681565b7f000000000000000000000000000000000000000000000000000000000000000081565b60196020526000908152604090205481565b6018602052600090815260409020805460028201546003830154600484015460058501546006860154600787015460088801546009890154600a8a0154600b909a01546001600160a01b03998a169a988a169997989697959660ff958616969495939492939092908216916101009004168c565b7f000000000000000000000000000000000000000000000000000000000000000081565b6003546001600160a01b0316331461411e576040805162461bcd60e51b81526020600482015260096024820152683337b93134b23232b760b91b604482015290519081900360640190fd5b600b8190556040805182815290517f52a8358457e20bbb36e4086b83fb0749599f1893fe4c35a876c46dc4886d12db9181900360200190a150565b600042614171600e548561537590919063ffffffff16565b116141ad576040805162461bcd60e51b8152602060048201526007602482015266195e1c1a5c995960ca1b604482015290519081900360640190fd5b6141b88484846153cd565b90505b9392505050565b60007f0000000000000000000000000000000000000000000000000000000000000000818561426957816001600160a01b031663e124e6d28a6040518263ffffffff1660e01b815260040180826001600160a01b0316815260200191505060206040518083038186803b15801561423857600080fd5b505afa15801561424c573d6000803e3d6000fd5b505050506040513d602081101561426257600080fd5b50516142e3565b816001600160a01b03166381a612d68a6040518263ffffffff1660e01b815260040180826001600160a01b0316815260200191505060206040518083038186803b1580156142b657600080fd5b505afa1580156142ca573d6000803e3d6000fd5b505050506040513d60208110156142e057600080fd5b50515b905085156143395783811015614334576040805162461bcd60e51b81526020600482015260116024820152706d61726b5072696365203c20707269636560781b604482015290519081900360640190fd5b614382565b83811115614382576040805162461bcd60e51b81526020600482015260116024820152706d61726b5072696365203e20707269636560781b604482015290519081900360640190fd5b6000826001600160a01b03166312d43a516040518163ffffffff1660e01b815260040160206040518083038186803b1580156143bd57600080fd5b505afa1580156143d1573d6000803e3d6000fd5b505050506040513d60208110156143e757600080fd5b505160408051633cc8e33b60e21b81526001600160a01b038f811660048301528e811660248301528d811660448301528a15156064830152608482018c905260a48201869052600060c4830181905292519394507f0000000000000000000000000000000000000000000000000000000000000000169263f3238cec9260e48084019391929182900301818387803b15801561448257600080fd5b505af1158015614496573d6000803e3d6000fd5b50505050806001600160a01b0316636d63c1d0846040518263ffffffff1660e01b815260040180826001600160a01b03168152602001915050600060405180830381600087803b1580156144e957600080fd5b505af11580156144fd573d6000803e3d6000fd5b5050505060007f00000000000000000000000000000000000000000000000000000000000000006001600160a01b0316632662166b8e8e8e8e8e8e8e6040518863ffffffff1660e01b815260040180886001600160a01b03168152602001876001600160a01b03168152602001866001600160a01b031681526020018581526020018481526020018315158152602001826001600160a01b03168152602001975050505050505050602060405180830381600087803b1580156145bf57600080fd5b505af11580156145d3573d6000803e3d6000fd5b505050506040513d60208110156145e957600080fd5b50516040805163d3c87bbb60e01b81526001600160a01b03878116600483015291519293509084169163d3c87bbb9160248082019260009290919082900301818387803b15801561463957600080fd5b505af115801561464d573d6000803e3d6000fd5b5050505061465b8d8a6154fe565b9c9b505050505050505050505050565b604080516001600160a01b038416602482015260448082018490528251808303909101815260649091019091526020810180516001600160e01b031663a9059cbb60e01b1790526146bd908490615709565b505050565b600083516002141561470957614702846000815181106146de57fe5b6020026020010151856001815181106146f357fe5b602002602001015185856157ba565b90506141bb565b6040805162461bcd60e51b81526020600482015260146024820152730d2dcecc2d8d2c840bee0c2e8d05cd8cadccee8d60631b604482015290519081900360640190fd5b60007f00000000000000000000000000000000000000000000000000000000000000009050806001600160a01b0316632e1a7d4d846040518263ffffffff1660e01b815260040180828152602001915050600060405180830381600087803b1580156147b857600080fd5b505af11580156147cc573d6000803e3d6000fd5b5050600454604051600093506001600160a01b0386169250869084818181858888f193505050503d806000811461481f576040519150601f19603f3d011682016040523d82523d6000602084013e614824565b606091505b505090508015614835575050611d1d565b816001600160a01b031663d0e30db0856040518263ffffffff1660e01b81526004016000604051808303818588803b15801561487057600080fd5b505af1158015614884573d6000803e3d6000fd5b5050505050816001600160a01b031663a9059cbb84866040518363ffffffff1660e01b815260040180836001600160a01b0316815260200182815260200192505050602060405180830381600087803b1580156148e057600080fd5b505af11580156148f4573d6000803e3d6000fd5b505050506040513d602081101561490a57600080fd5b505050505050565b60006141bb83836040518060400160405280601e81526020017f536166654d6174683a207375627472616374696f6e206f766572666c6f7700008152506158d3565b6001600160a01b03841661496757614a80565b614979846001600160a01b031661596a565b61498257614a80565b6014546001600160a01b038516600090815260156020526040902054818111156149aa578091505b816149b6575050614a80565b6000866001600160a01b0316636c9a14a3848888886040518563ffffffff1660e01b815260040180848152602001831515815260200182151581526020019350505050600060405180830381600088803b158015614a1357600080fd5b5087f193505050508015614a25575060015b614a2e57614a32565b5060015b604080516001600160a01b0389168152821515602082015280820185905290517fc9123a2a8e16684aa24686f2bf8a6d0eb0c601bdc109140c9729916865a58bc49181900360600190a15050505b50505050565b60006141b88484846153cd565b80471015614ae8576040805162461bcd60e51b815260206004820152601d60248201527f416464726573733a20696e73756666696369656e742062616c616e6365000000604482015290519081900360640190fd5b6040516000906001600160a01b0384169083908381818185875af1925050503d8060008114614b33576040519150601f19603f3d011682016040523d82523d6000602084013e614b38565b606091505b50509050806146bd5760405162461bcd60e51b815260040180806020018281038252603a81526020018061653d603a913960400191505060405180910390fd5b60008073__$56718d642b85600d0b97533a10e33dc7c4$__63e0cab5507f00000000000000000000000000000000000000000000000000000000000000008a8a8a8a8a8a6006546040518963ffffffff1660e01b815260040180896001600160a01b03168152602001886001600160a01b0316815260200180602001878152602001866001600160a01b031681526020018515158152602001848152602001838152602001828103825288818151815260200191508051906020019060200280838360005b83811015614c55578181015183820152602001614c3d565b50505050905001995050505050505050505060206040518083038186803b158015614c7f57600080fd5b505af4158015614c93573d6000803e3d6000fd5b505050506040513d6020811015614ca957600080fd5b505190508015614d6a576000614ce2612710614cdc614cd560055461271061491290919063ffffffff16565b8a90615970565b906159c9565b90506000614cf08883614912565b905060008960018b510381518110614d0457fe5b60200260200101519050614d468260086000846001600160a01b03166001600160a01b031681526020019081526020016000205461537590919063ffffffff16565b6001600160a01b03909116600090815260086020526040902055509150614d6f9050565b859150505b9695505050505050565b614d84848385615a08565b604080516317c3cf0f60e31b81526001600160a01b037f0000000000000000000000000000000000000000000000000000000000000000811660048301527f0000000000000000000000000000000000000000000000000000000000000000811660248301527f00000000000000000000000000000000000000000000000000000000000000008116604483015280891660648301528088166084830152861660a482015260c4810185905283151560e48201526101048101839052905173__$56718d642b85600d0b97533a10e33dc7c4$__9163be1e787891610124808301926000929190829003018186803b158015614e7e57600080fd5b505af4158015614e92573d6000803e3d6000fd5b5050505061490a8684615c0d565b3415614f15577f00000000000000000000000000000000000000000000000000000000000000006001600160a01b031663d0e30db0346040518263ffffffff1660e01b81526004016000604051808303818588803b158015614f0157600080fd5b505af1158015613939573d6000803e3d6000fd5b565b8015801590614f3057506007546001600160a01b031615155b1561386857600754604080516356b4b2ad60e01b81523360048201526024810184905290516001600160a01b03909216916356b4b2ad9160448082019260009290919082900301818387803b158015614f0157600080fd5b6000614f926163dc565b604051806101a001604052808e6001600160a01b031681526020018d81526020018c6001600160a01b031681526020018b81526020018a815260200189815260200188151581526020018781526020018681526020014381526020014281526020018515158152602001846001600160a01b0316815250905060008061501783615daa565b915091508e6001600160a01b03167f5265bc4952da402633b3fc35f67ab4245493a0ab94dd8ab123667c8d45a4485c8f8f8f8f8f8f8f8f8b60016010805490500343423a60405180806020018e6001600160a01b031681526020018d81526020018c81526020018b81526020018a1515815260200189815260200188815260200187815260200186815260200185815260200184815260200183815260200182810382528f818151815260200191508051906020019060200280838360005b838110156150ee5781810151838201526020016150d6565b505050509050019e50505050505050505050505050505060405180910390a29e9d5050505050505050505050505050565b604080518082018252828152600160208083018281526001600160a01b03871660008181526002845286902094518555905193909201805460ff1916931515939093179092558251848152925190927f02dd0697be46e764c3ba81094158781c31b235d03bb27a0daf1bdef0ec1084dd92908290030190a25050565b60006151a5616327565b604051806101c001604052808f6001600160a01b031681526020018e81526020018d6001600160a01b031681526020018c81526020018b81526020018a15158152602001896001600160a01b031681526020018881526020018781526020018681526020014381526020014281526020018515158152602001846001600160a01b0316815250905060008061523983615f48565b9150915082600001516001600160a01b03167f81ed0476a7e785a9e4728fffd679ea97176ca1ac85e1003462558bb5677da57b84602001518560400151866060015187608001518860a001518960c001518a60e001518b61010001518c61012001518c600160118054905003434260405180806020018e6001600160a01b031681526020018d81526020018c81526020018b151581526020018a6001600160a01b0316815260200189815260200188815260200187815260200186815260200185815260200184815260200183815260200182810382528f818151815260200191508051906020019060200280838360005b8381101561534357818101518382015260200161532b565b505050509050019e50505050505050505050505050505060405180910390a29f9e505050505050505050505050505050565b6000828201838110156141bb576040805162461bcd60e51b815260206004820152601b60248201527a536166654d6174683a206164646974696f6e206f766572666c6f7760281b604482015290519081900360640190fd5b600080333014806153ed57503360009081526016602052604090205460ff165b600f5490915060ff16158015615401575080155b15615439576040805162461bcd60e51b815260206004820152600360248201526234303360e81b604482015290519081900360640190fd5b801561545f5743615455600c548761537590919063ffffffff16565b11159150506141bb565b336001600160a01b038416146154a2576040805162461bcd60e51b815260206004820152600360248201526234303360e81b604482015290519081900360640190fd5b426154b8600d548661537590919063ffffffff16565b11156154f3576040805162461bcd60e51b815260206004820152600560248201526464656c617960d81b604482015290519081900360640190fd5b506001949350505050565b6007546001600160a01b0316806155155750611d1d565b600080826001600160a01b031663534ef883866040518263ffffffff1660e01b815260040180826001600160a01b03168152602001915050604080518083038186803b15801561556457600080fd5b505afa158015615578573d6000803e3d6000fd5b505050506040513d604081101561558e57600080fd5b5080516020909101519092509050816155a957505050611d1d565b60007f00000000000000000000000000000000000000000000000000000000000000006001600160a01b03166312d43a516040518163ffffffff1660e01b815260040160206040518083038186803b15801561560457600080fd5b505afa158015615618573d6000803e3d6000fd5b505050506040513d602081101561562e57600080fd5b50516040805163318bc68960e01b815290519192507f474c763ff84bf2c2039a6d9fea955ecd0f724030e3c365b91169c6a16fe751b791889188916001600160a01b0386169163318bc6899160048083019260209291908290030181600087803b15801561569b57600080fd5b505af11580156156af573d6000803e3d6000fd5b505050506040513d60208110156156c557600080fd5b5051604080516001600160a01b03948516815260208101939093528281019190915260608201879052918516608082015290519081900360a00190a1505050505050565b606061575e826040518060400160405280602081526020017f5361666545524332303a206c6f772d6c6576656c2063616c6c206661696c6564815250856001600160a01b03166160f19092919063ffffffff16565b8051909150156146bd5780806020019051602081101561577d57600080fd5b50516146bd5760405162461bcd60e51b815260040180806020018281038252602a8152602001806165e0602a913960400191505060405180910390fd5b6000807f00000000000000000000000000000000000000000000000000000000000000006001600160a01b031663933162128787866040518463ffffffff1660e01b815260040180846001600160a01b03168152602001836001600160a01b03168152602001826001600160a01b031681526020019350505050602060405180830381600087803b15801561584e57600080fd5b505af1158015615862573d6000803e3d6000fd5b505050506040513d602081101561587857600080fd5b50519050838110156158ca576040805162461bcd60e51b81526020600482015260166024820152751a5b9cdd59999a58da595b9d08185b5bdd5b9d13dd5d60521b604482015290519081900360640190fd5b95945050505050565b600081848411156159625760405162461bcd60e51b81526004018080602001828103825283818151815260200191508051906020019080838360005b8381101561592757818101518382015260200161590f565b50505050905090810190601f1680156159545780820380516001836020036101000a031916815260200191505b509250505060405180910390fd5b505050900390565b3b151590565b60008261597f57506000612be6565b8282028284828161598c57fe5b04146141bb5760405162461bcd60e51b81526004018080602001828103825260218152602001806165bf6021913960400191505060405180910390fd5b60006141bb83836040518060400160405280601a815260200179536166654d6174683a206469766973696f6e206279207a65726f60301b815250616100565b80615a12576146bd565b8115615b2e576001600160a01b0383166000908152600960205260409020548015801590615ae1575080615adf837f00000000000000000000000000000000000000000000000000000000000000006001600160a01b031663f07456ce886040518263ffffffff1660e01b815260040180826001600160a01b0316815260200191505060206040518083038186803b158015615aad57600080fd5b505afa158015615ac1573d6000803e3d6000fd5b505050506040513d6020811015615ad757600080fd5b505190615375565b115b15615b28576040805162461bcd60e51b81526020600482015260126024820152711b585e081b1bdb99dcc8195e18d95959195960721b604482015290519081900360640190fd5b506146bd565b6001600160a01b0383166000908152600a60205260409020548015801590615bc5575080615bc3837f00000000000000000000000000000000000000000000000000000000000000006001600160a01b0316638a78daa8886040518263ffffffff1660e01b815260040180826001600160a01b0316815260200191505060206040518083038186803b158015615aad57600080fd5b115b15614a80576040805162461bcd60e51b81526020600482015260136024820152721b585e081cda1bdc9d1cc8195e18d959591959606a1b604482015290519081900360640190fd5b6007546001600160a01b031680615c245750611d1d565b600080826001600160a01b031663534ef883866040518263ffffffff1660e01b815260040180826001600160a01b03168152602001915050604080518083038186803b158015615c7357600080fd5b505afa158015615c87573d6000803e3d6000fd5b505050506040513d6040811015615c9d57600080fd5b508051602090910151909250905081615cb857505050611d1d565b60007f00000000000000000000000000000000000000000000000000000000000000006001600160a01b03166312d43a516040518163ffffffff1660e01b815260040160206040518083038186803b158015615d1357600080fd5b505afa158015615d27573d6000803e3d6000fd5b505050506040513d6020811015615d3d57600080fd5b50516040805163318bc68960e01b815290519192507fc2414023ce7002ee98557d1e7be21e5559073336f2217ee5f9b2e50fd85f71ee91889188916001600160a01b0386169163318bc6899160048083019260209291908290030181600087803b15801561569b57600080fd5b80516001600160a01b038116600090815260176020526040812054909182918290615dd6906001615375565b6001600160a01b0383166000908152601760205260408120829055909150615dfe8383612ba6565b6000818152601860209081526040909120885181546001600160a01b0319166001600160a01b0390911617815588820151805193945089939192615e4a92600185019290910190616463565b5060408201516002820180546001600160a01b039283166001600160a01b0319909116179055606083015160038301556080830151600483015560a0830151600583015560c083015160068301805491151560ff1992831617905560e084015160078401556101008085015160088501556101208501516009850155610140850151600a850155610160850151600b90940180546101809096015190931602610100600160a81b0319931515949091169390931791909116919091179055601080546001810182556000919091527f1b6847dc741a1b0cd08d278845f9d819d87b734759afb55fe2de5cb82a9ae67201819055909350915050915091565b80516001600160a01b038116600090815260196020526040812054909182918290615f74906001615375565b6001600160a01b0383166000908152601960205260408120829055909150615f9c8383612ba6565b6000818152601a60209081526040909120885181546001600160a01b0319166001600160a01b0390911617815588820151805193945089939192615fe892600185019290910190616463565b5060408201516002820180546001600160a01b039283166001600160a01b0319909116179055606083015160038301556080830151600483015560a083015160058301805460c08601518416610100908102610100600160a81b031994151560ff199384161785161790925560e0860151600686015581860151600786015561012086015160088601556101408601516009860155610160860151600a860155610180860151600b90950180546101a090970151909416909102931515941693909317909216179055601180546001810182556000919091527f31ecc21a745e3968a04e9570e4425bc18fa8019c68028196b546d1669c200c6801819055909350915050915091565b60606141b88484600085616165565b6000818361614f5760405162461bcd60e51b815260206004820181815283516024840152835190928392604490910191908501908083836000831561592757818101518382015260200161590f565b50600083858161615b57fe5b0495945050505050565b6060824710156161a65760405162461bcd60e51b81526004018080602001828103825260268152602001806165776026913960400191505060405180910390fd5b6161af8561596a565b616200576040805162461bcd60e51b815260206004820152601d60248201527f416464726573733a2063616c6c20746f206e6f6e2d636f6e7472616374000000604482015290519081900360640190fd5b60006060866001600160a01b031685876040518082805190602001908083835b6020831061623f5780518252601f199092019160209182019101616220565b6001836020036101000a03801982511681845116808217855250505050505090500191505060006040518083038185875af1925050503d80600081146162a1576040519150601f19603f3d011682016040523d82523d6000602084013e6162a6565b606091505b50915091506162b68282866162c1565b979650505050505050565b606083156162d05750816141bb565b8251156162e05782518084602001fd5b60405162461bcd60e51b815260206004820181815284516024840152845185939192839260440191908501908083836000831561592757818101518382015260200161590f565b604051806101c0016040528060006001600160a01b031681526020016060815260200160006001600160a01b03168152602001600081526020016000815260200160001515815260200160006001600160a01b03168152602001600081526020016000815260200160008152602001600081526020016000815260200160001515815260200160006001600160a01b031681525090565b508054600082559060005260206000209081019061386891906164c8565b604051806101a0016040528060006001600160a01b031681526020016060815260200160006001600160a01b031681526020016000815260200160008152602001600081526020016000151581526020016000815260200160008152602001600081526020016000815260200160001515815260200160006001600160a01b031681525090565b8280548282559060005260206000209081019282156164b8579160200282015b828111156164b857825182546001600160a01b0319166001600160a01b03909116178255602090920191600190910190616483565b506164c49291506164dd565b5090565b5b808211156164c457600081556001016164c9565b5b808211156164c45780546001600160a01b03191681556001016164de56fe5265656e7472616e637947756172643a207265656e7472616e742063616c6c00476f7665726e61626c653a20666f7262696464656e0000000000000000000000416464726573733a20756e61626c6520746f2073656e642076616c75652c20726563697069656e74206d61792068617665207265766572746564416464726573733a20696e73756666696369656e742062616c616e636520666f722063616c6c476f7665726e61626c653a2070726f706f73616c206973206e6f7420616374697665536166654d6174683a206d756c7469706c69636174696f6e206f766572666c6f775361666545524332303a204552433230206f7065726174696f6e20646964206e6f742073756363656564a2646970667358221220a1fddd10a820a3c80eddc85ae1a7c48d16af9b15ed9fcad38088b40e100bc2bc64736f6c634300060c0033","linkReferences":{"contracts/exchange/core/PositionUtils.sol":{"PositionUtils":[{"start":19688,"length":20},{"start":20399,"length":20}]}}},"methodIdentifiers":{"BASIS_POINTS_DIVISOR()":"126082cf","acceptGov()":"7bc6729b","admin()":"f851a440","approve(address,address,uint256)":"e1f21c67","callbackGasLimit()":"24f74697","cancelDecreasePosition(bytes32,address)":"60a362e2","cancelGovProposal(address)":"9c35b497","cancelIncreasePosition(bytes32,address)":"225fc9fd","createDecreasePosition(address[],address,uint256,uint256,bool,address,uint256,uint256,uint256,bool,address)":"7be7d141","createIncreasePosition(address[],address,uint256,uint256,uint256,bool,uint256,uint256,bytes32,address)":"f2ae372f","createIncreasePositionETH(address[],address,uint256,uint256,bool,uint256,uint256,bytes32,address)":"5b88e8c6","customCallbackGasLimits(address)":"c4f38e33","decreasePositionRequestKeys(uint256)":"4278555f","decreasePositionRequestKeysStart()":"1bca8cf0","decreasePositionRequests(bytes32)":"1f285106","decreasePositionsIndex(address)":"fa444577","depositFee()":"67a52793","ethTransferGasLimit()":"2d79cf42","executeDecreasePosition(bytes32,address)":"0d4d003d","executeDecreasePositions(uint256,address)":"f3883d8b","executeIncreasePosition(bytes32,address)":"27b42c0f","executeIncreasePositions(uint256,address)":"9a208100","feeReserves(address)":"1ce9cb8f","getDecreasePositionRequestPath(bytes32)":"5d5c22e8","getIncreasePositionRequestPath(bytes32)":"95e9bbd7","getRequestKey(address,uint256)":"62f8a3fe","getRequestQueueLengths()":"f2cea6a5","gov()":"12d43a51","govProposals(address)":"8d0fedb0","increasePositionBufferBps()":"98d1e03a","increasePositionRequestKeys(uint256)":"04225954","increasePositionRequestKeysStart()":"9b578620","increasePositionRequests(bytes32)":"faf990f3","increasePositionsIndex(address)":"633451de","isLeverageEnabled()":"3e72a262","isPositionKeeper(address)":"36eba48a","maxGlobalLongSizes(address)":"1045c74e","maxGlobalShortSizes(address)":"9698d25a","maxTimeDelay()":"cb0269c9","minBlockDelayKeeper()":"5841fcaa","minExecutionFee()":"63ae2103","minTimeDelayPublic()":"3a2a80c7","referralStorage()":"006cc35e","router()":"f887ea40","sendValue(address,uint256)":"24a084df","setAdmin(address)":"704b6c02","setCallbackGasLimit(uint256)":"8a54942f","setCustomCallbackGasLimit(address,uint256)":"804fc702","setDelayValues(uint256,uint256,uint256)":"4067b132","setDepositFee(uint256)":"490ae210","setEthTransferGasLimit(uint256)":"3a9b52ad","setGov(address)":"cfad57a2","setGovWithDeadline(address,uint256)":"6bb22fd7","setIncreasePositionBufferBps(uint256)":"233bfe3b","setIsLeverageEnabled(bool)":"7c2eb9f7","setMaxGlobalSizes(address[],uint256[],uint256[])":"ef12c67e","setMinExecutionFee(uint256)":"fc2cee62","setPositionKeeper(address,bool)":"3422ead1","setReferralStorage(address)":"ae4d7f9a","setRequestKeysStartValues(uint256,uint256)":"308aa81f","shortsTracker()":"657bc5d0","vault()":"fbfa77cf","weth()":"3fc8cef3","withdrawFees(address,address)":"f2555278"},"id":37}