{"abi":[{"type":"constructor","inputs":[{"name":"_name","type":"string","internalType":"string"},{"name":"_symbol","type":"string","internalType":"string"}],"stateMutability":"nonpayable"},{"type":"function","name":"BASIS_POINTS_DIVISOR","inputs":[],"outputs":[{"name":"","type":"uint256","internalType":"uint256"}],"stateMutability":"view"},{"type":"function","name":"PRECISION","inputs":[],"outputs":[{"name":"","type":"uint256","internalType":"uint256"}],"stateMutability":"view"},{"type":"function","name":"allowance","inputs":[{"name":"_owner","type":"address","internalType":"address"},{"name":"_spender","type":"address","internalType":"address"}],"outputs":[{"name":"","type":"uint256","internalType":"uint256"}],"stateMutability":"view"},{"type":"function","name":"allowances","inputs":[{"name":"","type":"address","internalType":"address"},{"name":"","type":"address","internalType":"address"}],"outputs":[{"name":"","type":"uint256","internalType":"uint256"}],"stateMutability":"view"},{"type":"function","name":"approve","inputs":[{"name":"_spender","type":"address","internalType":"address"},{"name":"_amount","type":"uint256","internalType":"uint256"}],"outputs":[{"name":"","type":"bool","internalType":"bool"}],"stateMutability":"nonpayable"},{"type":"function","name":"averageStakedAmounts","inputs":[{"name":"","type":"address","internalType":"address"}],"outputs":[{"name":"","type":"uint256","internalType":"uint256"}],"stateMutability":"view"},{"type":"function","name":"balanceOf","inputs":[{"name":"_account","type":"address","internalType":"address"}],"outputs":[{"name":"","type":"uint256","internalType":"uint256"}],"stateMutability":"view"},{"type":"function","name":"balances","inputs":[{"name":"","type":"address","internalType":"address"}],"outputs":[{"name":"","type":"uint256","internalType":"uint256"}],"stateMutability":"view"},{"type":"function","name":"claim","inputs":[{"name":"_receiver","type":"address","internalType":"address"}],"outputs":[{"name":"","type":"uint256","internalType":"uint256"}],"stateMutability":"nonpayable"},{"type":"function","name":"claimForAccount","inputs":[{"name":"_account","type":"address","internalType":"address"},{"name":"_receiver","type":"address","internalType":"address"}],"outputs":[{"name":"","type":"uint256","internalType":"uint256"}],"stateMutability":"nonpayable"},{"type":"function","name":"claimable","inputs":[{"name":"_account","type":"address","internalType":"address"}],"outputs":[{"name":"","type":"uint256","internalType":"uint256"}],"stateMutability":"view"},{"type":"function","name":"claimableReward","inputs":[{"name":"","type":"address","internalType":"address"}],"outputs":[{"name":"","type":"uint256","internalType":"uint256"}],"stateMutability":"view"},{"type":"function","name":"cumulativeRewardPerToken","inputs":[],"outputs":[{"name":"","type":"uint256","internalType":"uint256"}],"stateMutability":"view"},{"type":"function","name":"cumulativeRewards","inputs":[{"name":"","type":"address","internalType":"address"}],"outputs":[{"name":"","type":"uint256","internalType":"uint256"}],"stateMutability":"view"},{"type":"function","name":"decimals","inputs":[],"outputs":[{"name":"","type":"uint8","internalType":"uint8"}],"stateMutability":"view"},{"type":"function","name":"depositBalances","inputs":[{"name":"","type":"address","internalType":"address"},{"name":"","type":"address","internalType":"address"}],"outputs":[{"name":"","type":"uint256","internalType":"uint256"}],"stateMutability":"view"},{"type":"function","name":"distributor","inputs":[],"outputs":[{"name":"","type":"address","internalType":"address"}],"stateMutability":"view"},{"type":"function","name":"gov","inputs":[],"outputs":[{"name":"","type":"address","internalType":"address"}],"stateMutability":"view"},{"type":"function","name":"inPrivateClaimingMode","inputs":[],"outputs":[{"name":"","type":"bool","internalType":"bool"}],"stateMutability":"view"},{"type":"function","name":"inPrivateStakingMode","inputs":[],"outputs":[{"name":"","type":"bool","internalType":"bool"}],"stateMutability":"view"},{"type":"function","name":"inPrivateTransferMode","inputs":[],"outputs":[{"name":"","type":"bool","internalType":"bool"}],"stateMutability":"view"},{"type":"function","name":"initialize","inputs":[{"name":"_depositTokens","type":"address[]","internalType":"address[]"},{"name":"_distributor","type":"address","internalType":"address"}],"outputs":[],"stateMutability":"nonpayable"},{"type":"function","name":"isDepositToken","inputs":[{"name":"","type":"address","internalType":"address"}],"outputs":[{"name":"","type":"bool","internalType":"bool"}],"stateMutability":"view"},{"type":"function","name":"isHandler","inputs":[{"name":"","type":"address","internalType":"address"}],"outputs":[{"name":"","type":"bool","internalType":"bool"}],"stateMutability":"view"},{"type":"function","name":"isInitialized","inputs":[],"outputs":[{"name":"","type":"bool","internalType":"bool"}],"stateMutability":"view"},{"type":"function","name":"name","inputs":[],"outputs":[{"name":"","type":"string","internalType":"string"}],"stateMutability":"view"},{"type":"function","name":"previousCumulatedRewardPerToken","inputs":[{"name":"","type":"address","internalType":"address"}],"outputs":[{"name":"","type":"uint256","internalType":"uint256"}],"stateMutability":"view"},{"type":"function","name":"rewardToken","inputs":[],"outputs":[{"name":"","type":"address","internalType":"address"}],"stateMutability":"view"},{"type":"function","name":"setDepositToken","inputs":[{"name":"_depositToken","type":"address","internalType":"address"},{"name":"_isDepositToken","type":"bool","internalType":"bool"}],"outputs":[],"stateMutability":"nonpayable"},{"type":"function","name":"setGov","inputs":[{"name":"_gov","type":"address","internalType":"address"}],"outputs":[],"stateMutability":"nonpayable"},{"type":"function","name":"setHandler","inputs":[{"name":"_handler","type":"address","internalType":"address"},{"name":"_isActive","type":"bool","internalType":"bool"}],"outputs":[],"stateMutability":"nonpayable"},{"type":"function","name":"setInPrivateClaimingMode","inputs":[{"name":"_inPrivateClaimingMode","type":"bool","internalType":"bool"}],"outputs":[],"stateMutability":"nonpayable"},{"type":"function","name":"setInPrivateStakingMode","inputs":[{"name":"_inPrivateStakingMode","type":"bool","internalType":"bool"}],"outputs":[],"stateMutability":"nonpayable"},{"type":"function","name":"setInPrivateTransferMode","inputs":[{"name":"_inPrivateTransferMode","type":"bool","internalType":"bool"}],"outputs":[],"stateMutability":"nonpayable"},{"type":"function","name":"stake","inputs":[{"name":"_depositToken","type":"address","internalType":"address"},{"name":"_amount","type":"uint256","internalType":"uint256"}],"outputs":[],"stateMutability":"nonpayable"},{"type":"function","name":"stakeForAccount","inputs":[{"name":"_fundingAccount","type":"address","internalType":"address"},{"name":"_account","type":"address","internalType":"address"},{"name":"_depositToken","type":"address","internalType":"address"},{"name":"_amount","type":"uint256","internalType":"uint256"}],"outputs":[],"stateMutability":"nonpayable"},{"type":"function","name":"stakedAmounts","inputs":[{"name":"","type":"address","internalType":"address"}],"outputs":[{"name":"","type":"uint256","internalType":"uint256"}],"stateMutability":"view"},{"type":"function","name":"symbol","inputs":[],"outputs":[{"name":"","type":"string","internalType":"string"}],"stateMutability":"view"},{"type":"function","name":"tokensPerInterval","inputs":[],"outputs":[{"name":"","type":"uint256","internalType":"uint256"}],"stateMutability":"view"},{"type":"function","name":"totalDepositSupply","inputs":[{"name":"","type":"address","internalType":"address"}],"outputs":[{"name":"","type":"uint256","internalType":"uint256"}],"stateMutability":"view"},{"type":"function","name":"totalSupply","inputs":[],"outputs":[{"name":"","type":"uint256","internalType":"uint256"}],"stateMutability":"view"},{"type":"function","name":"transfer","inputs":[{"name":"_recipient","type":"address","internalType":"address"},{"name":"_amount","type":"uint256","internalType":"uint256"}],"outputs":[{"name":"","type":"bool","internalType":"bool"}],"stateMutability":"nonpayable"},{"type":"function","name":"transferFrom","inputs":[{"name":"_sender","type":"address","internalType":"address"},{"name":"_recipient","type":"address","internalType":"address"},{"name":"_amount","type":"uint256","internalType":"uint256"}],"outputs":[{"name":"","type":"bool","internalType":"bool"}],"stateMutability":"nonpayable"},{"type":"function","name":"unstake","inputs":[{"name":"_depositToken","type":"address","internalType":"address"},{"name":"_amount","type":"uint256","internalType":"uint256"}],"outputs":[],"stateMutability":"nonpayable"},{"type":"function","name":"unstakeForAccount","inputs":[{"name":"_account","type":"address","internalType":"address"},{"name":"_depositToken","type":"address","internalType":"address"},{"name":"_amount","type":"uint256","internalType":"uint256"},{"name":"_receiver","type":"address","internalType":"address"}],"outputs":[],"stateMutability":"nonpayable"},{"type":"function","name":"updateRewards","inputs":[],"outputs":[],"stateMutability":"nonpayable"},{"type":"function","name":"withdrawToken","inputs":[{"name":"_token","type":"address","internalType":"address"},{"name":"_account","type":"address","internalType":"address"},{"name":"_amount","type":"uint256","internalType":"uint256"}],"outputs":[],"stateMutability":"nonpayable"},{"type":"event","name":"Approval","inputs":[{"name":"owner","type":"address","indexed":true,"internalType":"address"},{"name":"spender","type":"address","indexed":true,"internalType":"address"},{"name":"value","type":"uint256","indexed":false,"internalType":"uint256"}],"anonymous":false},{"type":"event","name":"Claim","inputs":[{"name":"receiver","type":"address","indexed":false,"internalType":"address"},{"name":"amount","type":"uint256","indexed":false,"internalType":"uint256"}],"anonymous":false},{"type":"event","name":"Transfer","inputs":[{"name":"from","type":"address","indexed":true,"internalType":"address"},{"name":"to","type":"address","indexed":true,"internalType":"address"},{"name":"value","type":"uint256","indexed":false,"internalType":"uint256"}],"anonymous":false}],"bytecode":{"object":"0x60806040523480156200001157600080fd5b5060405162002c3638038062002c36833981810160405260408110156200003757600080fd5b81019080805160405193929190846401000000008211156200005857600080fd5b9083019060208201858111156200006e57600080fd5b82516401000000008111828201881017156200008957600080fd5b82525081516020918201929091019080838360005b83811015620000b85781810151838201526020016200009e565b50505050905090810190601f168015620000e65780820380516001836020036101000a031916815260200191505b50604052602001805160405193929190846401000000008211156200010a57600080fd5b9083019060208201858111156200012057600080fd5b82516401000000008111828201881017156200013b57600080fd5b82525081516020918201929091019080838360005b838110156200016a57818101518382015260200162000150565b50505050905090810190601f168015620001985780820380516001836020036101000a031916815260200191505b506040525050600180546001600160a01b03191633179055508151620001c6906002906020850190620001e5565b508051620001dc906003906020840190620001e5565b50505062000281565b828054600181600116156101000203166002900490600052602060002090601f016020900481019282601f106200022857805160ff191683800117855562000258565b8280016001018555821562000258579182015b82811115620002585782518255916020019190600101906200023b565b50620002669291506200026a565b5090565b5b808211156200026657600081556001016200026b565b6129a580620002916000396000f3fe608060405234801561001057600080fd5b50600436106102355760003560e01c806355b6ed5c1161013757806355b6ed5c1461065d5780635a47a1a71461068b57806370a08231146106aa578063790b5a6c146106d057806395d89b411461070c5780639cb7de4b14610714578063a318021714610742578063a8d9362714610768578063a9059cbb14610770578063aaf5eb681461079c578063adc9772e146107a4578063b89e45b3146107d0578063bfe10928146107f6578063c2a672e0146107fe578063c5fa27301461082a578063cfad57a214610832578063dd62ed3e14610858578063dfbaefb114610886578063e44b75581461088e578063e9503425146108bc578063f5d9d63e146108e2578063f5fc507614610910578063f76033d314610918578063f7c618c11461092057610235565b806301e336671461023a57806306fdde0314610272578063095ea7b3146102ef578063098bf59d1461032f57806310c1c1031461036b578063126082cf146103a357806312d43a51146103ab57806313e82e7a146103cf57806318160ddd146103fd5780631d30d5bc146104055780631e83409a1461042457806323b872dd1461044a57806327e235e314610480578063313ce567146104a65780633792def3146104c4578063392e53cd146104ea5780633cd7f700146104f25780633e158b0c14610511578063402914f51461051957806344a084111461053f578063462d0b2e1461056557806346ea87af14610611578063552ce1dc14610637575b600080fd5b6102706004803603606081101561025057600080fd5b506001600160a01b03813581169160208101359091169060400135610928565b005b61027a61098e565b6040805160208082528351818301528351919283929083019185019080838360005b838110156102b457818101518382015260200161029c565b50505050905090810190601f1680156102e15780820380516001836020036101000a031916815260200191505b509250505060405180910390f35b61031b6004803603604081101561030557600080fd5b506001600160a01b038135169060200135610a19565b604080519115158252519081900360200190f35b6102706004803603608081101561034557600080fd5b506001600160a01b03813581169160208101358216916040820135916060013516610a30565b6103916004803603602081101561038157600080fd5b50356001600160a01b0316610a9a565b60408051918252519081900360200190f35b610391610aac565b6103b3610ab2565b604080516001600160a01b039092168252519081900360200190f35b610391600480360360408110156103e557600080fd5b506001600160a01b0381358116916020013516610ac1565b610391610b2c565b6102706004803603602081101561041b57600080fd5b50351515610b32565b6103916004803603602081101561043a57600080fd5b50356001600160a01b0316610b99565b61031b6004803603606081101561046057600080fd5b506001600160a01b03813581169160208101359091169060400135610c43565b6103916004803603602081101561049657600080fd5b50356001600160a01b0316610cdd565b6104ae610cef565b6040805160ff9092168252519081900360200190f35b610391600480360360208110156104da57600080fd5b50356001600160a01b0316610cf4565b61031b610d06565b6102706004803603602081101561050857600080fd5b50351515610d16565b610270610d7f565b6103916004803603602081101561052f57600080fd5b50356001600160a01b0316610ddc565b6103916004803603602081101561055557600080fd5b50356001600160a01b0316610f3a565b6102706004803603604081101561057b57600080fd5b810190602081018135600160201b81111561059557600080fd5b8201836020820111156105a757600080fd5b803590602001918460208302840111600160201b831117156105c857600080fd5b919080806020026020016040519081016040528093929190818152602001838360200280828437600092019190915250929550505090356001600160a01b03169150610f4c9050565b61031b6004803603602081101561062757600080fd5b50356001600160a01b031661106f565b6103916004803603602081101561064d57600080fd5b50356001600160a01b0316611084565b6103916004803603604081101561067357600080fd5b506001600160a01b0381358116916020013516611096565b610270600480360360208110156106a157600080fd5b503515156110b3565b610391600480360360208110156106c057600080fd5b50356001600160a01b0316611113565b610270600480360360808110156106e657600080fd5b506001600160a01b0381358116916020810135821691604082013516906060013561112e565b61027a61118d565b6102706004803603604081101561072a57600080fd5b506001600160a01b03813516906020013515156111e8565b6103916004803603602081101561075857600080fd5b50356001600160a01b0316611260565b610391611272565b61031b6004803603604081101561078657600080fd5b506001600160a01b0381351690602001356112f3565b610391611300565b610270600480360360408110156107ba57600080fd5b506001600160a01b038135169060200135611310565b61031b600480360360208110156107e657600080fd5b50356001600160a01b03166113b7565b6103b36113cc565b6102706004803603604081101561081457600080fd5b506001600160a01b0381351690602001356113db565b61031b611479565b6102706004803603602081101561084857600080fd5b50356001600160a01b0316611487565b6103916004803603604081101561086e57600080fd5b506001600160a01b03813581169160200135166114f6565b61031b611521565b610270600480360360408110156108a457600080fd5b506001600160a01b038135169060200135151561152a565b610391600480360360208110156108d257600080fd5b50356001600160a01b03166115a2565b610391600480360360408110156108f857600080fd5b506001600160a01b03813581169160200135166115b4565b6103916115d1565b61031b6115d7565b6103b36115e6565b6001546001600160a01b03163314610975576040805162461bcd60e51b81526020600482015260156024820152600080516020612724833981519152604482015290519081900360640190fd5b6109896001600160a01b0384168383611636565b505050565b6002805460408051602060018416156101000260001901909316849004601f81018490048402820184019092528181529291830182828015610a115780601f106109e657610100808354040283529160200191610a11565b820191906000526020600020905b8154815290600101906020018083116109f457829003601f168201915b505050505081565b6000610a26338484611688565b5060015b92915050565b60026000541415610a76576040805162461bcd60e51b815260206004820152601f6024820152600080516020612684833981519152604482015290519081900360640190fd5b6002600055610a83611774565b610a8f848484846117d5565b505060016000555050565b600c6020526000908152604090205481565b61271081565b6001546001600160a01b031681565b600060026000541415610b09576040805162461bcd60e51b815260206004820152601f6024820152600080516020612684833981519152604482015290519081900360640190fd5b6002600055610b16611774565b610b2083836119e3565b60016000559392505050565b60085481565b6001546001600160a01b03163314610b7f576040805162461bcd60e51b81526020600482015260156024820152600080516020612724833981519152604482015290519081900360640190fd5b601180549115156101000261ff0019909216919091179055565b600060026000541415610be1576040805162461bcd60e51b815260206004820152601f6024820152600080516020612684833981519152604482015290519081900360640190fd5b600260005560115462010000900460ff1615610c2e5760405162461bcd60e51b81526004018080602001828103825260218152602001806128f46021913960400191505060405180910390fd5b610c3833836119e3565b600160005592915050565b3360009081526012602052604081205460ff1615610c6e57610c66848484611a79565b506001610cd6565b6000610cb88360405180606001604052806030815260200161289a603091396001600160a01b0388166000908152600a602090815260408083203384529091529020549190611bcc565b9050610cc5853383611688565b610cd0858585611a79565b60019150505b9392505050565b60096020526000908152604090205481565b601281565b600f6020526000908152604090205481565b600154600160a01b900460ff1681565b6001546001600160a01b03163314610d63576040805162461bcd60e51b81526020600482015260156024820152600080516020612724833981519152604482015290519081900360640190fd5b60118054911515620100000262ff000019909216919091179055565b60026000541415610dc5576040805162461bcd60e51b815260206004820152601f6024820152600080516020612684833981519152604482015290519081900360640190fd5b60026000908155610dd590611c63565b6001600055565b6001600160a01b0381166000908152600c602052604081205480610e1a5750506001600160a01b0381166000908152600d6020526040902054610f35565b60085460048054604080516376f69fed60e11b81529051600093610ea79368327cb2734119d3b7a9601e1b936001600160a01b039091169263eded3fda92828101926020929190829003018186803b158015610e7557600080fd5b505afa158015610e89573d6000803e3d6000fd5b505050506040513d6020811015610e9f57600080fd5b505190611eb3565b90506000610ec1610eb88385611f0c565b600b5490611f4b565b6001600160a01b0387166000908152600e6020526040902054909150610f2e90610f0f9068327cb2734119d3b7a9601e1b90610f0990610f02908690611fa3565b8890611eb3565b90611f0c565b6001600160a01b0388166000908152600d602052604090205490611f4b565b9450505050505b919050565b600e6020526000908152604090205481565b6001546001600160a01b03163314610f99576040805162461bcd60e51b81526020600482015260156024820152600080516020612724833981519152604482015290519081900360640190fd5b600154600160a01b900460ff1615610fe25760405162461bcd60e51b81526004018080602001828103825260228152602001806128046022913960400191505060405180910390fd5b6001805460ff60a01b1916600160a01b17905560005b825181101561104b57600083828151811061100f57fe5b6020908102919091018101516001600160a01b03166000908152600590915260409020805460ff19166001908117909155919091019050610ff8565b50600480546001600160a01b0319166001600160a01b039290921691909117905550565b60126020526000908152604090205460ff1681565b60076020526000908152604090205481565b600a60209081526000928352604080842090915290825290205481565b6001546001600160a01b03163314611100576040805162461bcd60e51b81526020600482015260156024820152600080516020612724833981519152604482015290519081900360640190fd5b6011805460ff1916911515919091179055565b6001600160a01b031660009081526009602052604090205490565b60026000541415611174576040805162461bcd60e51b815260206004820152601f6024820152600080516020612684833981519152604482015290519081900360640190fd5b6002600055611181611774565b610a8f84848484611fe5565b6003805460408051602060026001851615610100026000190190941693909304601f81018490048402820184019092528181529291830182828015610a115780601f106109e657610100808354040283529160200191610a11565b6001546001600160a01b03163314611235576040805162461bcd60e51b81526020600482015260156024820152600080516020612724833981519152604482015290519081900360640190fd5b6001600160a01b03919091166000908152601260205260409020805460ff1916911515919091179055565b60106020526000908152604090205481565b6000600460009054906101000a90046001600160a01b03166001600160a01b031663a8d936276040518163ffffffff1660e01b815260040160206040518083038186803b1580156112c257600080fd5b505afa1580156112d6573d6000803e3d6000fd5b505050506040513d60208110156112ec57600080fd5b5051905090565b6000610a26338484611a79565b68327cb2734119d3b7a9601e1b81565b60026000541415611356576040805162461bcd60e51b815260206004820152601f6024820152600080516020612684833981519152604482015290519081900360640190fd5b6002600055601154610100900460ff16156113a25760405162461bcd60e51b81526004018080602001828103825260218152602001806128f46021913960400191505060405180910390fd5b6113ae33338484611fe5565b50506001600055565b60056020526000908152604090205460ff1681565b6004546001600160a01b031681565b60026000541415611421576040805162461bcd60e51b815260206004820152601f6024820152600080516020612684833981519152604482015290519081900360640190fd5b6002600055601154610100900460ff161561146d5760405162461bcd60e51b81526004018080602001828103825260218152602001806128f46021913960400191505060405180910390fd5b6113ae338383336117d5565b601154610100900460ff1681565b6001546001600160a01b031633146114d4576040805162461bcd60e51b81526020600482015260156024820152600080516020612724833981519152604482015290519081900360640190fd5b600180546001600160a01b0319166001600160a01b0392909216919091179055565b6001600160a01b039182166000908152600a6020908152604080832093909416825291909152205490565b60115460ff1681565b6001546001600160a01b03163314611577576040805162461bcd60e51b81526020600482015260156024820152600080516020612724833981519152604482015290519081900360640190fd5b6001600160a01b03919091166000908152600560205260409020805460ff1916911515919091179055565b600d6020526000908152604090205481565b600660209081526000928352604080842090915290825290205481565b600b5481565b60115462010000900460ff1681565b6000600460009054906101000a90046001600160a01b03166001600160a01b031663f7c618c16040518163ffffffff1660e01b815260040160206040518083038186803b1580156112c257600080fd5b604080516001600160a01b038416602482015260448082018490528251808303909101815260649091019091526020810180516001600160e01b031663a9059cbb60e01b17905261098990849061216e565b6001600160a01b0383166116cd5760405162461bcd60e51b815260040180806020018281038252602c8152602001806126cf602c913960400191505060405180910390fd5b6001600160a01b0382166117125760405162461bcd60e51b815260040180806020018281038252602a8152602001806127b9602a913960400191505060405180910390fd5b6001600160a01b038084166000818152600a6020908152604080832094871680845294825291829020859055815185815291517f8c5be1e5ebec7d5bd14f71427d1e84f3dd0314c0f7b2291e5b200ac8c7c3b9259281900390910190a3505050565b3360009081526012602052604090205460ff166117d3576040805162461bcd60e51b81526020600482015260186024820152772932bbb0b9322a3930b1b5b2b91d103337b93134b23232b760411b604482015290519081900360640190fd5b565b6000821161182a576040805162461bcd60e51b815260206004820152601e60248201527f526577617264547261636b65723a20696e76616c6964205f616d6f756e740000604482015290519081900360640190fd5b6001600160a01b03831660009081526005602052604090205460ff166118815760405162461bcd60e51b81526004018080602001828103825260248152602001806127956024913960400191505060405180910390fd5b61188a84611c63565b6001600160a01b0384166000908152600c6020526040902054828110156118e25760405162461bcd60e51b815260040180806020018281038252602b8152602001806126a4602b913960400191505060405180910390fd5b6118ec8184611fa3565b6001600160a01b038087166000908152600c60209081526040808320949094556006815283822092881682529190915220548381101561195d5760405162461bcd60e51b815260040180806020018281038252602d815260200180612915602d913960400191505060405180910390fd5b6119678185611fa3565b6001600160a01b038088166000908152600660209081526040808320938a1683529281528282209390935560079092529020546119a49085611fa3565b6001600160a01b0386166000908152600760205260409020556119c7868561221f565b6119db6001600160a01b0386168486611636565b505050505050565b60006119ee83611c63565b6001600160a01b0383166000908152600d6020526040812080549190558015610cd657611a2e8382611a1e6115e6565b6001600160a01b03169190611636565b604080516001600160a01b03861681526020810183905281517f47cee97cb7acd717b3c0aa1435d004cd5b3c8c57d70dbceb4e4458bbd60e39d4929181900390910190a19392505050565b6001600160a01b038316611abe5760405162461bcd60e51b815260040180806020018281038252602d815260200180612826602d913960400191505060405180910390fd5b6001600160a01b038216611b035760405162461bcd60e51b815260040180806020018281038252602b815260200180612744602b913960400191505060405180910390fd5b60115460ff1615611b1657611b16611774565b611b53816040518060600160405280602e8152602001612942602e91396001600160a01b0386166000908152600960205260409020549190611bcc565b6001600160a01b038085166000908152600960205260408082209390935590841681522054611b829082611f4b565b6001600160a01b03808416600081815260096020908152604091829020949094558051858152905191939287169260008051602061287a83398151915292918290030190a3505050565b60008184841115611c5b5760405162461bcd60e51b81526004018080602001828103825283818151815260200191508051906020019080838360005b83811015611c20578181015183820152602001611c08565b50505050905090810190601f168015611c4d5780820380516001836020036101000a031916815260200191505b509250505060405180910390fd5b505050900390565b6000600460009054906101000a90046001600160a01b03166001600160a01b031663e4fc6b6d6040518163ffffffff1660e01b8152600401602060405180830381600087803b158015611cb557600080fd5b505af1158015611cc9573d6000803e3d6000fd5b505050506040513d6020811015611cdf57600080fd5b5051600854600b54919250908115801590611cfa5750600083115b15611d2b57611d23611d1c83610f098668327cb2734119d3b7a9601e1b611eb3565b8290611f4b565b600b81905590505b80611d3857505050611eb0565b6001600160a01b03841615611eac576001600160a01b0384166000908152600c6020908152604080832054600e909252822054909190611d969068327cb2734119d3b7a9601e1b90610f0990611d8f908790611fa3565b8590611eb3565b6001600160a01b0387166000908152600d602052604081205491925090611dbd9083611f4b565b6001600160a01b0388166000908152600d60209081526040808320849055600e909152902085905590508015801590611e0d57506001600160a01b0387166000908152600c602052604090205415155b15611ea8576001600160a01b0387166000908152600f6020526040812054611e359084611f4b565b9050611e82611e4882610f098787611eb3565b6001600160a01b038a166000908152600f6020908152604080832054601090925290912054611e7c918591610f0991611eb3565b90611f4b565b6001600160a01b038916600090815260106020908152604080832093909355600f905220555b5050505b5050505b50565b600082611ec257506000610a2a565b82820282848281611ecf57fe5b0414610cd65760405162461bcd60e51b81526004018080602001828103825260218152602001806127e36021913960400191505060405180910390fd5b6000610cd683836040518060400160405280601a815260200179536166654d6174683a206469766973696f6e206279207a65726f60301b8152506122fd565b600082820183811015610cd6576040805162461bcd60e51b815260206004820152601b60248201527a536166654d6174683a206164646974696f6e206f766572666c6f7760281b604482015290519081900360640190fd5b6000610cd683836040518060400160405280601e81526020017f536166654d6174683a207375627472616374696f6e206f766572666c6f770000815250611bcc565b6000811161203a576040805162461bcd60e51b815260206004820152601e60248201527f526577617264547261636b65723a20696e76616c6964205f616d6f756e740000604482015290519081900360640190fd5b6001600160a01b03821660009081526005602052604090205460ff166120915760405162461bcd60e51b81526004018080602001828103825260248152602001806127956024913960400191505060405180910390fd5b6120a66001600160a01b038316853084612362565b6120af83611c63565b6001600160a01b0383166000908152600c60205260409020546120d29082611f4b565b6001600160a01b038085166000908152600c602090815260408083209490945560068152838220928616825291909152205461210e9082611f4b565b6001600160a01b038085166000908152600660209081526040808320938716835292815282822093909355600790925290205461214b9082611f4b565b6001600160a01b038316600090815260076020526040902055611eac84826123bc565b60606121c3826040518060400160405280602081526020017f5361666545524332303a206c6f772d6c6576656c2063616c6c206661696c6564815250856001600160a01b031661247a9092919063ffffffff16565b805190915015610989578080602001905160208110156121e257600080fd5b50516109895760405162461bcd60e51b815260040180806020018281038252602a8152602001806128ca602a913960400191505060405180910390fd5b6001600160a01b0382166122645760405162461bcd60e51b81526004018080602001828103825260298152602001806126fb6029913960400191505060405180910390fd5b6122a1816040518060600160405280602a815260200161265a602a91396001600160a01b0385166000908152600960205260409020549190611bcc565b6001600160a01b0383166000908152600960205260409020556008546122c79082611fa3565b6008556040805182815290516000916001600160a01b0385169160008051602061287a8339815191529181900360200190a35050565b6000818361234c5760405162461bcd60e51b8152602060048201818152835160248401528351909283926044909101919085019080838360008315611c20578181015183820152602001611c08565b50600083858161235857fe5b0495945050505050565b604080516001600160a01b0380861660248301528416604482015260648082018490528251808303909101815260849091019091526020810180516001600160e01b03166323b872dd60e01b179052611eac90859061216e565b6001600160a01b0382166124015760405162461bcd60e51b81526004018080602001828103825260278152602001806128536027913960400191505060405180910390fd5b60085461240e9082611f4b565b6008556001600160a01b0382166000908152600960205260409020546124349082611f4b565b6001600160a01b038316600081815260096020908152604080832094909455835185815293519293919260008051602061287a8339815191529281900390910190a35050565b60606124898484600085612491565b949350505050565b6060824710156124d25760405162461bcd60e51b815260040180806020018281038252602681526020018061276f6026913960400191505060405180910390fd5b6124db856125ed565b61252c576040805162461bcd60e51b815260206004820152601d60248201527f416464726573733a2063616c6c20746f206e6f6e2d636f6e7472616374000000604482015290519081900360640190fd5b60006060866001600160a01b031685876040518082805190602001908083835b6020831061256b5780518252601f19909201916020918201910161254c565b6001836020036101000a03801982511681845116808217855250505050505090500191505060006040518083038185875af1925050503d80600081146125cd576040519150601f19603f3d011682016040523d82523d6000602084013e6125d2565b606091505b50915091506125e28282866125f3565b979650505050505050565b3b151590565b60608315612602575081610cd6565b8251156126125782518084602001fd5b60405162461bcd60e51b8152602060048201818152845160248401528451859391928392604401919085019080838360008315611c20578181015183820152602001611c0856fe526577617264547261636b65723a206275726e20616d6f756e7420657863656564732062616c616e63655265656e7472616e637947756172643a207265656e7472616e742063616c6c00526577617264547261636b65723a205f616d6f756e742065786365656473207374616b6564416d6f756e74526577617264547261636b65723a20617070726f76652066726f6d20746865207a65726f2061646472657373526577617264547261636b65723a206275726e2066726f6d20746865207a65726f2061646472657373476f7665726e61626c653a20666f7262696464656e0000000000000000000000526577617264547261636b65723a207472616e7366657220746f20746865207a65726f2061646472657373416464726573733a20696e73756666696369656e742062616c616e636520666f722063616c6c526577617264547261636b65723a20696e76616c6964205f6465706f736974546f6b656e526577617264547261636b65723a20617070726f766520746f20746865207a65726f2061646472657373536166654d6174683a206d756c7469706c69636174696f6e206f766572666c6f77526577617264547261636b65723a20616c726561647920696e697469616c697a6564526577617264547261636b65723a207472616e736665722066726f6d20746865207a65726f2061646472657373526577617264547261636b65723a206d696e7420746f20746865207a65726f2061646472657373ddf252ad1be2c89b69c2b068fc378daa952ba7f163c4a11628f55a4df523b3ef526577617264547261636b65723a207472616e7366657220616d6f756e74206578636565647320616c6c6f77616e63655361666545524332303a204552433230206f7065726174696f6e20646964206e6f742073756363656564526577617264547261636b65723a20616374696f6e206e6f7420656e61626c6564526577617264547261636b65723a205f616d6f756e742065786365656473206465706f73697442616c616e6365526577617264547261636b65723a207472616e7366657220616d6f756e7420657863656564732062616c616e6365a264697066735822122003886de5131dd93ec1509b4440c569f71be503395dc9701f3e8fb7c638c7610864736f6c634300060c0033","linkReferences":{}},"methodIdentifiers":{"BASIS_POINTS_DIVISOR()":"126082cf","PRECISION()":"aaf5eb68","allowance(address,address)":"dd62ed3e","allowances(address,address)":"55b6ed5c","approve(address,uint256)":"095ea7b3","averageStakedAmounts(address)":"a3180217","balanceOf(address)":"70a08231","balances(address)":"27e235e3","claim(address)":"1e83409a","claimForAccount(address,address)":"13e82e7a","claimable(address)":"402914f5","claimableReward(address)":"e9503425","cumulativeRewardPerToken()":"f5fc5076","cumulativeRewards(address)":"3792def3","decimals()":"313ce567","depositBalances(address,address)":"f5d9d63e","distributor()":"bfe10928","gov()":"12d43a51","inPrivateClaimingMode()":"f76033d3","inPrivateStakingMode()":"c5fa2730","inPrivateTransferMode()":"dfbaefb1","initialize(address[],address)":"462d0b2e","isDepositToken(address)":"b89e45b3","isHandler(address)":"46ea87af","isInitialized()":"392e53cd","name()":"06fdde03","previousCumulatedRewardPerToken(address)":"44a08411","rewardToken()":"f7c618c1","setDepositToken(address,bool)":"e44b7558","setGov(address)":"cfad57a2","setHandler(address,bool)":"9cb7de4b","setInPrivateClaimingMode(bool)":"3cd7f700","setInPrivateStakingMode(bool)":"1d30d5bc","setInPrivateTransferMode(bool)":"5a47a1a7","stake(address,uint256)":"adc9772e","stakeForAccount(address,address,address,uint256)":"790b5a6c","stakedAmounts(address)":"10c1c103","symbol()":"95d89b41","tokensPerInterval()":"a8d93627","totalDepositSupply(address)":"552ce1dc","totalSupply()":"18160ddd","transfer(address,uint256)":"a9059cbb","transferFrom(address,address,uint256)":"23b872dd","unstake(address,uint256)":"c2a672e0","unstakeForAccount(address,address,uint256,address)":"098bf59d","updateRewards()":"3e158b0c","withdrawToken(address,address,uint256)":"01e33667"},"id":127}