{"abi":[{"type":"constructor","inputs":[{"name":"_name","type":"string","internalType":"string"},{"name":"_symbol","type":"string","internalType":"string"}],"stateMutability":"nonpayable"},{"type":"function","name":"BASIS_POINTS_DIVISOR","inputs":[],"outputs":[{"name":"","type":"uint256","internalType":"uint256"}],"stateMutability":"view"},{"type":"function","name":"PRECISION","inputs":[],"outputs":[{"name":"","type":"uint256","internalType":"uint256"}],"stateMutability":"view"},{"type":"function","name":"acceptGov","inputs":[],"outputs":[],"stateMutability":"nonpayable"},{"type":"function","name":"allowance","inputs":[{"name":"_owner","type":"address","internalType":"address"},{"name":"_spender","type":"address","internalType":"address"}],"outputs":[{"name":"","type":"uint256","internalType":"uint256"}],"stateMutability":"view"},{"type":"function","name":"allowances","inputs":[{"name":"","type":"address","internalType":"address"},{"name":"","type":"address","internalType":"address"}],"outputs":[{"name":"","type":"uint256","internalType":"uint256"}],"stateMutability":"view"},{"type":"function","name":"approve","inputs":[{"name":"_spender","type":"address","internalType":"address"},{"name":"_amount","type":"uint256","internalType":"uint256"}],"outputs":[{"name":"","type":"bool","internalType":"bool"}],"stateMutability":"nonpayable"},{"type":"function","name":"averageStakedAmounts","inputs":[{"name":"","type":"address","internalType":"address"}],"outputs":[{"name":"","type":"uint256","internalType":"uint256"}],"stateMutability":"view"},{"type":"function","name":"balanceOf","inputs":[{"name":"_account","type":"address","internalType":"address"}],"outputs":[{"name":"","type":"uint256","internalType":"uint256"}],"stateMutability":"view"},{"type":"function","name":"balances","inputs":[{"name":"","type":"address","internalType":"address"}],"outputs":[{"name":"","type":"uint256","internalType":"uint256"}],"stateMutability":"view"},{"type":"function","name":"cancelGovProposal","inputs":[{"name":"_gov","type":"address","internalType":"address"}],"outputs":[],"stateMutability":"nonpayable"},{"type":"function","name":"claim","inputs":[{"name":"_receiver","type":"address","internalType":"address"}],"outputs":[{"name":"","type":"uint256","internalType":"uint256"}],"stateMutability":"nonpayable"},{"type":"function","name":"claimForAccount","inputs":[{"name":"_account","type":"address","internalType":"address"},{"name":"_receiver","type":"address","internalType":"address"}],"outputs":[{"name":"","type":"uint256","internalType":"uint256"}],"stateMutability":"nonpayable"},{"type":"function","name":"claimable","inputs":[{"name":"_account","type":"address","internalType":"address"}],"outputs":[{"name":"","type":"uint256","internalType":"uint256"}],"stateMutability":"view"},{"type":"function","name":"claimableReward","inputs":[{"name":"","type":"address","internalType":"address"}],"outputs":[{"name":"","type":"uint256","internalType":"uint256"}],"stateMutability":"view"},{"type":"function","name":"cumulativeRewardPerToken","inputs":[],"outputs":[{"name":"","type":"uint256","internalType":"uint256"}],"stateMutability":"view"},{"type":"function","name":"cumulativeRewards","inputs":[{"name":"","type":"address","internalType":"address"}],"outputs":[{"name":"","type":"uint256","internalType":"uint256"}],"stateMutability":"view"},{"type":"function","name":"decimals","inputs":[],"outputs":[{"name":"","type":"uint8","internalType":"uint8"}],"stateMutability":"view"},{"type":"function","name":"depositBalances","inputs":[{"name":"","type":"address","internalType":"address"},{"name":"","type":"address","internalType":"address"}],"outputs":[{"name":"","type":"uint256","internalType":"uint256"}],"stateMutability":"view"},{"type":"function","name":"distributor","inputs":[],"outputs":[{"name":"","type":"address","internalType":"address"}],"stateMutability":"view"},{"type":"function","name":"gov","inputs":[],"outputs":[{"name":"","type":"address","internalType":"address"}],"stateMutability":"view"},{"type":"function","name":"govProposals","inputs":[{"name":"","type":"address","internalType":"address"}],"outputs":[{"name":"deadline","type":"uint256","internalType":"uint256"},{"name":"isActive","type":"bool","internalType":"bool"}],"stateMutability":"view"},{"type":"function","name":"inPrivateClaimingMode","inputs":[],"outputs":[{"name":"","type":"bool","internalType":"bool"}],"stateMutability":"view"},{"type":"function","name":"inPrivateStakingMode","inputs":[],"outputs":[{"name":"","type":"bool","internalType":"bool"}],"stateMutability":"view"},{"type":"function","name":"inPrivateTransferMode","inputs":[],"outputs":[{"name":"","type":"bool","internalType":"bool"}],"stateMutability":"view"},{"type":"function","name":"initialize","inputs":[{"name":"_depositTokens","type":"address[]","internalType":"address[]"},{"name":"_distributor","type":"address","internalType":"address"}],"outputs":[],"stateMutability":"nonpayable"},{"type":"function","name":"isDepositToken","inputs":[{"name":"","type":"address","internalType":"address"}],"outputs":[{"name":"","type":"bool","internalType":"bool"}],"stateMutability":"view"},{"type":"function","name":"isHandler","inputs":[{"name":"","type":"address","internalType":"address"}],"outputs":[{"name":"","type":"bool","internalType":"bool"}],"stateMutability":"view"},{"type":"function","name":"isInitialized","inputs":[],"outputs":[{"name":"","type":"bool","internalType":"bool"}],"stateMutability":"view"},{"type":"function","name":"name","inputs":[],"outputs":[{"name":"","type":"string","internalType":"string"}],"stateMutability":"view"},{"type":"function","name":"previousCumulatedRewardPerToken","inputs":[{"name":"","type":"address","internalType":"address"}],"outputs":[{"name":"","type":"uint256","internalType":"uint256"}],"stateMutability":"view"},{"type":"function","name":"rewardToken","inputs":[],"outputs":[{"name":"","type":"address","internalType":"address"}],"stateMutability":"view"},{"type":"function","name":"setDepositToken","inputs":[{"name":"_depositToken","type":"address","internalType":"address"},{"name":"_isDepositToken","type":"bool","internalType":"bool"}],"outputs":[],"stateMutability":"nonpayable"},{"type":"function","name":"setGov","inputs":[{"name":"_gov","type":"address","internalType":"address"}],"outputs":[],"stateMutability":"nonpayable"},{"type":"function","name":"setGovWithDeadline","inputs":[{"name":"_gov","type":"address","internalType":"address"},{"name":"_deadline","type":"uint256","internalType":"uint256"}],"outputs":[],"stateMutability":"nonpayable"},{"type":"function","name":"setHandler","inputs":[{"name":"_handler","type":"address","internalType":"address"},{"name":"_isActive","type":"bool","internalType":"bool"}],"outputs":[],"stateMutability":"nonpayable"},{"type":"function","name":"setInPrivateClaimingMode","inputs":[{"name":"_inPrivateClaimingMode","type":"bool","internalType":"bool"}],"outputs":[],"stateMutability":"nonpayable"},{"type":"function","name":"setInPrivateStakingMode","inputs":[{"name":"_inPrivateStakingMode","type":"bool","internalType":"bool"}],"outputs":[],"stateMutability":"nonpayable"},{"type":"function","name":"setInPrivateTransferMode","inputs":[{"name":"_inPrivateTransferMode","type":"bool","internalType":"bool"}],"outputs":[],"stateMutability":"nonpayable"},{"type":"function","name":"stake","inputs":[{"name":"_depositToken","type":"address","internalType":"address"},{"name":"_amount","type":"uint256","internalType":"uint256"}],"outputs":[],"stateMutability":"nonpayable"},{"type":"function","name":"stakeForAccount","inputs":[{"name":"_fundingAccount","type":"address","internalType":"address"},{"name":"_account","type":"address","internalType":"address"},{"name":"_depositToken","type":"address","internalType":"address"},{"name":"_amount","type":"uint256","internalType":"uint256"}],"outputs":[],"stateMutability":"nonpayable"},{"type":"function","name":"stakedAmounts","inputs":[{"name":"","type":"address","internalType":"address"}],"outputs":[{"name":"","type":"uint256","internalType":"uint256"}],"stateMutability":"view"},{"type":"function","name":"symbol","inputs":[],"outputs":[{"name":"","type":"string","internalType":"string"}],"stateMutability":"view"},{"type":"function","name":"tokensPerInterval","inputs":[],"outputs":[{"name":"","type":"uint256","internalType":"uint256"}],"stateMutability":"view"},{"type":"function","name":"totalDepositSupply","inputs":[{"name":"","type":"address","internalType":"address"}],"outputs":[{"name":"","type":"uint256","internalType":"uint256"}],"stateMutability":"view"},{"type":"function","name":"totalSupply","inputs":[],"outputs":[{"name":"","type":"uint256","internalType":"uint256"}],"stateMutability":"view"},{"type":"function","name":"transfer","inputs":[{"name":"_recipient","type":"address","internalType":"address"},{"name":"_amount","type":"uint256","internalType":"uint256"}],"outputs":[{"name":"","type":"bool","internalType":"bool"}],"stateMutability":"nonpayable"},{"type":"function","name":"transferFrom","inputs":[{"name":"_sender","type":"address","internalType":"address"},{"name":"_recipient","type":"address","internalType":"address"},{"name":"_amount","type":"uint256","internalType":"uint256"}],"outputs":[{"name":"","type":"bool","internalType":"bool"}],"stateMutability":"nonpayable"},{"type":"function","name":"unstake","inputs":[{"name":"_depositToken","type":"address","internalType":"address"},{"name":"_amount","type":"uint256","internalType":"uint256"}],"outputs":[],"stateMutability":"nonpayable"},{"type":"function","name":"unstakeForAccount","inputs":[{"name":"_account","type":"address","internalType":"address"},{"name":"_depositToken","type":"address","internalType":"address"},{"name":"_amount","type":"uint256","internalType":"uint256"},{"name":"_receiver","type":"address","internalType":"address"}],"outputs":[],"stateMutability":"nonpayable"},{"type":"function","name":"updateRewards","inputs":[],"outputs":[],"stateMutability":"nonpayable"},{"type":"function","name":"withdrawToken","inputs":[{"name":"_token","type":"address","internalType":"address"},{"name":"_account","type":"address","internalType":"address"},{"name":"_amount","type":"uint256","internalType":"uint256"}],"outputs":[],"stateMutability":"nonpayable"},{"type":"event","name":"Approval","inputs":[{"name":"owner","type":"address","indexed":true,"internalType":"address"},{"name":"spender","type":"address","indexed":true,"internalType":"address"},{"name":"value","type":"uint256","indexed":false,"internalType":"uint256"}],"anonymous":false},{"type":"event","name":"Claim","inputs":[{"name":"receiver","type":"address","indexed":false,"internalType":"address"},{"name":"amount","type":"uint256","indexed":false,"internalType":"uint256"}],"anonymous":false},{"type":"event","name":"GovProposalCanceled","inputs":[{"name":"proposedGov","type":"address","indexed":true,"internalType":"address"},{"name":"canceledBy","type":"address","indexed":true,"internalType":"address"}],"anonymous":false},{"type":"event","name":"GovernanceTransferRequested","inputs":[{"name":"newGov","type":"address","indexed":true,"internalType":"address"},{"name":"deadline","type":"uint256","indexed":false,"internalType":"uint256"}],"anonymous":false},{"type":"event","name":"GovernanceTransferred","inputs":[{"name":"oldGov","type":"address","indexed":true,"internalType":"address"},{"name":"newGov","type":"address","indexed":true,"internalType":"address"}],"anonymous":false},{"type":"event","name":"Transfer","inputs":[{"name":"from","type":"address","indexed":true,"internalType":"address"},{"name":"to","type":"address","indexed":true,"internalType":"address"},{"name":"value","type":"uint256","indexed":false,"internalType":"uint256"}],"anonymous":false}],"bytecode":{"object":"0x60806040523480156200001157600080fd5b506040516200316c3803806200316c833981810160405260408110156200003757600080fd5b81019080805160405193929190846401000000008211156200005857600080fd5b9083019060208201858111156200006e57600080fd5b82516401000000008111828201881017156200008957600080fd5b82525081516020918201929091019080838360005b83811015620000b85781810151838201526020016200009e565b50505050905090810190601f168015620000e65780820380516001836020036101000a031916815260200191505b50604052602001805160405193929190846401000000008211156200010a57600080fd5b9083019060208201858111156200012057600080fd5b82516401000000008111828201881017156200013b57600080fd5b82525081516020918201929091019080838360005b838110156200016a57818101518382015260200162000150565b50505050905090810190601f168015620001985780820380516001836020036101000a031916815260200191505b506040525050600180546001600160a01b03191633179055508151620001c6906004906020850190620001e5565b508051620001dc906005906020840190620001e5565b50505062000281565b828054600181600116156101000203166002900490600052602060002090601f016020900481019282601f106200022857805160ff191683800117855562000258565b8280016001018555821562000258579182015b82811115620002585782518255916020019190600101906200023b565b50620002669291506200026a565b5090565b5b808211156200026657600081556001016200026b565b612edb80620002916000396000f3fe608060405234801561001057600080fd5b50600436106102615760003560e01c80636bb22fd71161014d5780636bb22fd7146106d657806370a0823114610702578063790b5a6c146107285780637bc6729b146107645780638d0fedb01461076c57806395d89b41146107ab5780639c35b497146107b35780639cb7de4b146107d9578063a318021714610807578063a8d936271461082d578063a9059cbb14610835578063aaf5eb6814610861578063adc9772e14610869578063b89e45b314610895578063bfe10928146108bb578063c2a672e0146108c3578063c5fa2730146108ef578063cfad57a2146108f7578063dd62ed3e1461091d578063dfbaefb11461094b578063e44b755814610953578063e950342514610981578063f5d9d63e146109a7578063f5fc5076146109d5578063f76033d3146109dd578063f7c618c1146109e557610261565b806301e336671461026657806306fdde031461029e578063095ea7b31461031b578063098bf59d1461035b57806310c1c10314610397578063126082cf146103cf57806312d43a51146103d757806313e82e7a146103fb57806318160ddd146104295780631d30d5bc146104315780631e83409a1461045057806323b872dd1461047657806327e235e3146104ac578063313ce567146104d25780633792def3146104f0578063392e53cd146105165780633cd7f7001461051e5780633e158b0c1461053d578063402914f51461054557806344a084111461056b578063462d0b2e1461059157806346ea87af1461063d578063552ce1dc1461066357806355b6ed5c146106895780635a47a1a7146106b7575b600080fd5b61029c6004803603606081101561027c57600080fd5b506001600160a01b038135811691602081013590911690604001356109ed565b005b6102a6610a53565b6040805160208082528351818301528351919283929083019185019080838360005b838110156102e05781810151838201526020016102c8565b50505050905090810190601f16801561030d5780820380516001836020036101000a031916815260200191505b509250505060405180910390f35b6103476004803603604081101561033157600080fd5b506001600160a01b038135169060200135610ae1565b604080519115158252519081900360200190f35b61029c6004803603608081101561037157600080fd5b506001600160a01b03813581169160208101358216916040820135916060013516610af8565b6103bd600480360360208110156103ad57600080fd5b50356001600160a01b0316610b62565b60408051918252519081900360200190f35b6103bd610b74565b6103df610b7a565b604080516001600160a01b039092168252519081900360200190f35b6103bd6004803603604081101561041157600080fd5b506001600160a01b0381358116916020013516610b89565b6103bd610bf4565b61029c6004803603602081101561044757600080fd5b50351515610bfa565b6103bd6004803603602081101561046657600080fd5b50356001600160a01b0316610c61565b6103476004803603606081101561048c57600080fd5b506001600160a01b03813581169160208101359091169060400135610d0b565b6103bd600480360360208110156104c257600080fd5b50356001600160a01b0316610da5565b6104da610db7565b6040805160ff9092168252519081900360200190f35b6103bd6004803603602081101561050657600080fd5b50356001600160a01b0316610dbc565b610347610dce565b61029c6004803603602081101561053457600080fd5b50351515610dd7565b61029c610e40565b6103bd6004803603602081101561055b57600080fd5b50356001600160a01b0316610e9d565b6103bd6004803603602081101561058157600080fd5b50356001600160a01b0316611007565b61029c600480360360408110156105a757600080fd5b810190602081018135600160201b8111156105c157600080fd5b8201836020820111156105d357600080fd5b803590602001918460208302840111600160201b831117156105f457600080fd5b919080806020026020016040519081016040528093929190818152602001838360200280828437600092019190915250929550505090356001600160a01b031691506110199050565b6103476004803603602081101561065357600080fd5b50356001600160a01b031661112f565b6103bd6004803603602081101561067957600080fd5b50356001600160a01b0316611144565b6103bd6004803603604081101561069f57600080fd5b506001600160a01b0381358116916020013516611156565b61029c600480360360208110156106cd57600080fd5b50351515611173565b61029c600480360360408110156106ec57600080fd5b506001600160a01b0381351690602001356111d3565b6103bd6004803603602081101561071857600080fd5b50356001600160a01b03166112e8565b61029c6004803603608081101561073e57600080fd5b506001600160a01b03813581169160208101358216916040820135169060600135611303565b61029c611362565b6107926004803603602081101561078257600080fd5b50356001600160a01b0316611477565b6040805192835290151560208301528051918290030190f35b6102a6611493565b61029c600480360360208110156107c957600080fd5b50356001600160a01b03166114ee565b61029c600480360360408110156107ef57600080fd5b506001600160a01b03813516906020013515156115fc565b6103bd6004803603602081101561081d57600080fd5b50356001600160a01b0316611674565b6103bd611686565b6103476004803603604081101561084b57600080fd5b506001600160a01b0381351690602001356116fc565b6103bd611709565b61029c6004803603604081101561087f57600080fd5b506001600160a01b038135169060200135611719565b610347600480360360208110156108ab57600080fd5b50356001600160a01b03166117c0565b6103df6117d5565b61029c600480360360408110156108d957600080fd5b506001600160a01b0381351690602001356117e4565b610347611882565b61029c6004803603602081101561090d57600080fd5b50356001600160a01b0316611890565b6103bd6004803603604081101561093357600080fd5b506001600160a01b03813581169160200135166119a6565b6103476119d1565b61029c6004803603604081101561096957600080fd5b506001600160a01b03813516906020013515156119da565b6103bd6004803603602081101561099757600080fd5b50356001600160a01b0316611a52565b6103bd600480360360408110156109bd57600080fd5b506001600160a01b0381358116916020013516611a64565b6103bd611a81565b610347611a87565b6103df611a96565b6001546001600160a01b03163314610a3a576040805162461bcd60e51b81526020600482015260156024820152600080516020612c38833981519152604482015290519081900360640190fd5b610a4e6001600160a01b0384168383611adb565b505050565b6004805460408051602060026001851615610100026000190190941693909304601f81018490048402820184019092528181529291830182828015610ad95780601f10610aae57610100808354040283529160200191610ad9565b820191906000526020600020905b815481529060010190602001808311610abc57829003601f168201915b505050505081565b6000610aee338484611b2d565b5060015b92915050565b60026000541415610b3e576040805162461bcd60e51b815260206004820152601f6024820152600080516020612b98833981519152604482015290519081900360640190fd5b6002600055610b4b611c19565b610b5784848484611c7a565b505060016000555050565b600e6020526000908152604090205481565b61271081565b6001546001600160a01b031681565b600060026000541415610bd1576040805162461bcd60e51b815260206004820152601f6024820152600080516020612b98833981519152604482015290519081900360640190fd5b6002600055610bde611c19565b610be88383611e88565b60016000559392505050565b600a5481565b6001546001600160a01b03163314610c47576040805162461bcd60e51b81526020600482015260156024820152600080516020612c38833981519152604482015290519081900360640190fd5b601380549115156101000261ff0019909216919091179055565b600060026000541415610ca9576040805162461bcd60e51b815260206004820152601f6024820152600080516020612b98833981519152604482015290519081900360640190fd5b600260005560135462010000900460ff1615610cf65760405162461bcd60e51b8152600401808060200182810382526021815260200180612e2a6021913960400191505060405180910390fd5b610d003383611e88565b600160005592915050565b3360009081526014602052604081205460ff1615610d3657610d2e848484611f1e565b506001610d9e565b6000610d8083604051806060016040528060308152602001612dd0603091396001600160a01b0388166000908152600c602090815260408083203384529091529020549190612071565b9050610d8d853383611b2d565b610d98858585611f1e565b60019150505b9392505050565b600b6020526000908152604090205481565b601281565b60116020526000908152604090205481565b60035460ff1681565b6001546001600160a01b03163314610e24576040805162461bcd60e51b81526020600482015260156024820152600080516020612c38833981519152604482015290519081900360640190fd5b60138054911515620100000262ff000019909216919091179055565b60026000541415610e86576040805162461bcd60e51b815260206004820152601f6024820152600080516020612b98833981519152604482015290519081900360640190fd5b60026000908155610e9690612108565b6001600055565b6001600160a01b0381166000908152600e602052604081205480610edb5750506001600160a01b0381166000908152600f6020526040902054611002565b6000600a5490506000610f7468327cb2734119d3b7a9601e1b600660009054906101000a90046001600160a01b03166001600160a01b031663eded3fda6040518163ffffffff1660e01b815260040160206040518083038186803b158015610f4257600080fd5b505afa158015610f56573d6000803e3d6000fd5b505050506040513d6020811015610f6c57600080fd5b50519061234b565b90506000610f8e610f8583856123a4565b600d54906123e3565b6001600160a01b038716600090815260106020526040902054909150610ffb90610fdc9068327cb2734119d3b7a9601e1b90610fd690610fcf90869061243b565b889061234b565b906123a4565b6001600160a01b0388166000908152600f6020526040902054906123e3565b9450505050505b919050565b60106020526000908152604090205481565b6001546001600160a01b03163314611066576040805162461bcd60e51b81526020600482015260156024820152600080516020612c38833981519152604482015290519081900360640190fd5b60035460ff16156110a85760405162461bcd60e51b8152600401808060200182810382526022815260200180612d3a6022913960400191505060405180910390fd5b6003805460ff1916600117905560005b825181101561110b5760008382815181106110cf57fe5b6020908102919091018101516001600160a01b03166000908152600790915260409020805460ff191660019081179091559190910190506110b8565b50600680546001600160a01b0319166001600160a01b039290921691909117905550565b60146020526000908152604090205460ff1681565b60096020526000908152604090205481565b600c60209081526000928352604080842090915290825290205481565b6001546001600160a01b031633146111c0576040805162461bcd60e51b81526020600482015260156024820152600080516020612c38833981519152604482015290519081900360640190fd5b6013805460ff1916911515919091179055565b6001546001600160a01b03163314611220576040805162461bcd60e51b81526020600482015260156024820152600080516020612c38833981519152604482015290519081900360640190fd5b6001600160a01b038216611279576040805162461bcd60e51b815260206004820152601b60248201527a476f7665726e61626c653a20696e76616c6964206164647265737360281b604482015290519081900360640190fd5b6001546001600160a01b03838116911614156112da576040805162461bcd60e51b815260206004820152601b60248201527a476f7665726e61626c653a2073616d6520676f7665726e616e636560281b604482015290519081900360640190fd5b6112e4828261247d565b5050565b6001600160a01b03166000908152600b602052604090205490565b60026000541415611349576040805162461bcd60e51b815260206004820152601f6024820152600080516020612b98833981519152604482015290519081900360640190fd5b6002600055611356611c19565b610b57848484846124f9565b336000908152600260205260409020805442106113c5576040805162461bcd60e51b815260206004820152601c60248201527b11dbdd995c9b98589b194e88191958591b1a5b9948195e1c1a5c995960221b604482015290519081900360640190fd5b60018082015460ff1615151461140c5760405162461bcd60e51b8152600401808060200182810382526022815260200180612cf76022913960400191505060405180910390fd5b60018054336000818152600260205260408082208281558501805460ff1916905584546001600160a01b031916831790945592516001600160a01b0390921692909183917f5f56bee8cffbe9a78652a74a60705edede02af10b0bbb888ca44b79a0d42ce8091a35050565b6002602052600090815260409020805460019091015460ff1682565b6005805460408051602060026001851615610100026000190190941693909304601f81018490048402820184019092528181529291830182828015610ad95780601f10610aae57610100808354040283529160200191610ad9565b6001546001600160a01b0316331461153b576040805162461bcd60e51b81526020600482015260156024820152600080516020612c38833981519152604482015290519081900360640190fd5b6001600160a01b03811660009081526002602052604090206001015460ff166115ab576040805162461bcd60e51b815260206004820152601f60248201527f476f7665726e61626c653a2070726f706f73616c206e6f742061637469766500604482015290519081900360640190fd5b6001600160a01b038116600081815260026020526040808220828155600101805460ff19169055513392917ffc6a2fa53abe2adfe8372a9495032d7e6458d3aed34fa880132b6c808da1e99c91a350565b6001546001600160a01b03163314611649576040805162461bcd60e51b81526020600482015260156024820152600080516020612c38833981519152604482015290519081900360640190fd5b6001600160a01b03919091166000908152601460205260409020805460ff1916911515919091179055565b60126020526000908152604090205481565b6006546040805163a8d9362760e01b815290516000926001600160a01b03169163a8d93627916004808301926020929190829003018186803b1580156116cb57600080fd5b505afa1580156116df573d6000803e3d6000fd5b505050506040513d60208110156116f557600080fd5b5051905090565b6000610aee338484611f1e565b68327cb2734119d3b7a9601e1b81565b6002600054141561175f576040805162461bcd60e51b815260206004820152601f6024820152600080516020612b98833981519152604482015290519081900360640190fd5b6002600055601354610100900460ff16156117ab5760405162461bcd60e51b8152600401808060200182810382526021815260200180612e2a6021913960400191505060405180910390fd5b6117b7333384846124f9565b50506001600055565b60076020526000908152604090205460ff1681565b6006546001600160a01b031681565b6002600054141561182a576040805162461bcd60e51b815260206004820152601f6024820152600080516020612b98833981519152604482015290519081900360640190fd5b6002600055601354610100900460ff16156118765760405162461bcd60e51b8152600401808060200182810382526021815260200180612e2a6021913960400191505060405180910390fd5b6117b733838333611c7a565b601354610100900460ff1681565b6001546001600160a01b031633146118dd576040805162461bcd60e51b81526020600482015260156024820152600080516020612c38833981519152604482015290519081900360640190fd5b6001600160a01b038116611936576040805162461bcd60e51b815260206004820152601b60248201527a476f7665726e61626c653a20696e76616c6964206164647265737360281b604482015290519081900360640190fd5b6001546001600160a01b0382811691161415611997576040805162461bcd60e51b815260206004820152601b60248201527a476f7665726e61626c653a2073616d6520676f7665726e616e636560281b604482015290519081900360640190fd5b6119a38160001961247d565b50565b6001600160a01b039182166000908152600c6020908152604080832093909416825291909152205490565b60135460ff1681565b6001546001600160a01b03163314611a27576040805162461bcd60e51b81526020600482015260156024820152600080516020612c38833981519152604482015290519081900360640190fd5b6001600160a01b03919091166000908152600760205260409020805460ff1916911515919091179055565b600f6020526000908152604090205481565b600860209081526000928352604080842090915290825290205481565b600d5481565b60135462010000900460ff1681565b6006546040805163f7c618c160e01b815290516000926001600160a01b03169163f7c618c1916004808301926020929190829003018186803b1580156116cb57600080fd5b604080516001600160a01b038416602482015260448082018490528251808303909101815260649091019091526020810180516001600160e01b031663a9059cbb60e01b179052610a4e908490612682565b6001600160a01b038316611b725760405162461bcd60e51b815260040180806020018281038252602c815260200180612be3602c913960400191505060405180910390fd5b6001600160a01b038216611bb75760405162461bcd60e51b815260040180806020018281038252602a815260200180612ccd602a913960400191505060405180910390fd5b6001600160a01b038084166000818152600c6020908152604080832094871680845294825291829020859055815185815291517f8c5be1e5ebec7d5bd14f71427d1e84f3dd0314c0f7b2291e5b200ac8c7c3b9259281900390910190a3505050565b3360009081526014602052604090205460ff16611c78576040805162461bcd60e51b81526020600482015260186024820152772932bbb0b9322a3930b1b5b2b91d103337b93134b23232b760411b604482015290519081900360640190fd5b565b60008211611ccf576040805162461bcd60e51b815260206004820152601e60248201527f526577617264547261636b65723a20696e76616c6964205f616d6f756e740000604482015290519081900360640190fd5b6001600160a01b03831660009081526007602052604090205460ff16611d265760405162461bcd60e51b8152600401808060200182810382526024815260200180612ca96024913960400191505060405180910390fd5b611d2f84612108565b6001600160a01b0384166000908152600e602052604090205482811015611d875760405162461bcd60e51b815260040180806020018281038252602b815260200180612bb8602b913960400191505060405180910390fd5b611d91818461243b565b6001600160a01b038087166000908152600e602090815260408083209490945560088152838220928816825291909152205483811015611e025760405162461bcd60e51b815260040180806020018281038252602d815260200180612e4b602d913960400191505060405180910390fd5b611e0c818561243b565b6001600160a01b038088166000908152600860209081526040808320938a168352928152828220939093556009909252902054611e49908561243b565b6001600160a01b038616600090815260096020526040902055611e6c8685612733565b611e806001600160a01b0386168486611adb565b505050505050565b6000611e9383612108565b6001600160a01b0383166000908152600f6020526040812080549190558015610d9e57611ed38382611ec3611a96565b6001600160a01b03169190611adb565b604080516001600160a01b03861681526020810183905281517f47cee97cb7acd717b3c0aa1435d004cd5b3c8c57d70dbceb4e4458bbd60e39d4929181900390910190a19392505050565b6001600160a01b038316611f635760405162461bcd60e51b815260040180806020018281038252602d815260200180612d5c602d913960400191505060405180910390fd5b6001600160a01b038216611fa85760405162461bcd60e51b815260040180806020018281038252602b815260200180612c58602b913960400191505060405180910390fd5b60135460ff1615611fbb57611fbb611c19565b611ff8816040518060600160405280602e8152602001612e78602e91396001600160a01b0386166000908152600b60205260409020549190612071565b6001600160a01b038085166000908152600b6020526040808220939093559084168152205461202790826123e3565b6001600160a01b038084166000818152600b60209081526040918290209490945580518581529051919392871692600080516020612db083398151915292918290030190a3505050565b600081848411156121005760405162461bcd60e51b81526004018080602001828103825283818151815260200191508051906020019080838360005b838110156120c55781810151838201526020016120ad565b50505050905090810190601f1680156120f25780820380516001836020036101000a031916815260200191505b509250505060405180910390fd5b505050900390565b6006546040805163e4fc6b6d60e01b815290516000926001600160a01b03169163e4fc6b6d91600480830192602092919082900301818787803b15801561214e57600080fd5b505af1158015612162573d6000803e3d6000fd5b505050506040513d602081101561217857600080fd5b5051600a54600d549192509081158015906121935750600083115b156121c4576121bc6121b583610fd68668327cb2734119d3b7a9601e1b61234b565b82906123e3565b600d81905590505b806121d1575050506119a3565b6001600160a01b03841615612345576001600160a01b0384166000908152600e6020908152604080832054601090925282205490919061222f9068327cb2734119d3b7a9601e1b90610fd69061222890879061243b565b859061234b565b6001600160a01b0387166000908152600f60205260408120549192509061225690836123e3565b6001600160a01b0388166000908152600f6020908152604080832084905560109091529020859055905080158015906122a657506001600160a01b0387166000908152600e602052604090205415155b15612341576001600160a01b0387166000908152601160205260408120546122ce90846123e3565b905061231b6122e182610fd6878761234b565b6001600160a01b038a16600090815260116020908152604080832054601290925290912054612315918591610fd69161234b565b906123e3565b6001600160a01b0389166000908152601260209081526040808320939093556011905220555b5050505b50505050565b60008261235a57506000610af2565b8282028284828161236757fe5b0414610d9e5760405162461bcd60e51b8152600401808060200182810382526021815260200180612d196021913960400191505060405180910390fd5b6000610d9e83836040518060400160405280601a815260200179536166654d6174683a206469766973696f6e206279207a65726f60301b815250612811565b600082820183811015610d9e576040805162461bcd60e51b815260206004820152601b60248201527a536166654d6174683a206164646974696f6e206f766572666c6f7760281b604482015290519081900360640190fd5b6000610d9e83836040518060400160405280601e81526020017f536166654d6174683a207375627472616374696f6e206f766572666c6f770000815250612071565b604080518082018252828152600160208083018281526001600160a01b03871660008181526002845286902094518555905193909201805460ff1916931515939093179092558251848152925190927f02dd0697be46e764c3ba81094158781c31b235d03bb27a0daf1bdef0ec1084dd92908290030190a25050565b6000811161254e576040805162461bcd60e51b815260206004820152601e60248201527f526577617264547261636b65723a20696e76616c6964205f616d6f756e740000604482015290519081900360640190fd5b6001600160a01b03821660009081526007602052604090205460ff166125a55760405162461bcd60e51b8152600401808060200182810382526024815260200180612ca96024913960400191505060405180910390fd5b6125ba6001600160a01b038316853084612876565b6125c383612108565b6001600160a01b0383166000908152600e60205260409020546125e690826123e3565b6001600160a01b038085166000908152600e602090815260408083209490945560088152838220928616825291909152205461262290826123e3565b6001600160a01b038085166000908152600860209081526040808320938716835292815282822093909355600990925290205461265f90826123e3565b6001600160a01b03831660009081526009602052604090205561234584826128d0565b60606126d7826040518060400160405280602081526020017f5361666545524332303a206c6f772d6c6576656c2063616c6c206661696c6564815250856001600160a01b031661298e9092919063ffffffff16565b805190915015610a4e578080602001905160208110156126f657600080fd5b5051610a4e5760405162461bcd60e51b815260040180806020018281038252602a815260200180612e00602a913960400191505060405180910390fd5b6001600160a01b0382166127785760405162461bcd60e51b8152600401808060200182810382526029815260200180612c0f6029913960400191505060405180910390fd5b6127b5816040518060600160405280602a8152602001612b6e602a91396001600160a01b0385166000908152600b60205260409020549190612071565b6001600160a01b0383166000908152600b6020526040902055600a546127db908261243b565b600a556040805182815290516000916001600160a01b03851691600080516020612db08339815191529181900360200190a35050565b600081836128605760405162461bcd60e51b81526020600482018181528351602484015283519092839260449091019190850190808383600083156120c55781810151838201526020016120ad565b50600083858161286c57fe5b0495945050505050565b604080516001600160a01b0380861660248301528416604482015260648082018490528251808303909101815260849091019091526020810180516001600160e01b03166323b872dd60e01b179052612345908590612682565b6001600160a01b0382166129155760405162461bcd60e51b8152600401808060200182810382526027815260200180612d896027913960400191505060405180910390fd5b600a5461292290826123e3565b600a556001600160a01b0382166000908152600b602052604090205461294890826123e3565b6001600160a01b0383166000818152600b60209081526040808320949094558351858152935192939192600080516020612db08339815191529281900390910190a35050565b606061299d84846000856129a5565b949350505050565b6060824710156129e65760405162461bcd60e51b8152600401808060200182810382526026815260200180612c836026913960400191505060405180910390fd5b6129ef85612b01565b612a40576040805162461bcd60e51b815260206004820152601d60248201527f416464726573733a2063616c6c20746f206e6f6e2d636f6e7472616374000000604482015290519081900360640190fd5b60006060866001600160a01b031685876040518082805190602001908083835b60208310612a7f5780518252601f199092019160209182019101612a60565b6001836020036101000a03801982511681845116808217855250505050505090500191505060006040518083038185875af1925050503d8060008114612ae1576040519150601f19603f3d011682016040523d82523d6000602084013e612ae6565b606091505b5091509150612af6828286612b07565b979650505050505050565b3b151590565b60608315612b16575081610d9e565b825115612b265782518084602001fd5b60405162461bcd60e51b81526020600482018181528451602484015284518593919283926044019190850190808383600083156120c55781810151838201526020016120ad56fe526577617264547261636b65723a206275726e20616d6f756e7420657863656564732062616c616e63655265656e7472616e637947756172643a207265656e7472616e742063616c6c00526577617264547261636b65723a205f616d6f756e742065786365656473207374616b6564416d6f756e74526577617264547261636b65723a20617070726f76652066726f6d20746865207a65726f2061646472657373526577617264547261636b65723a206275726e2066726f6d20746865207a65726f2061646472657373476f7665726e61626c653a20666f7262696464656e0000000000000000000000526577617264547261636b65723a207472616e7366657220746f20746865207a65726f2061646472657373416464726573733a20696e73756666696369656e742062616c616e636520666f722063616c6c526577617264547261636b65723a20696e76616c6964205f6465706f736974546f6b656e526577617264547261636b65723a20617070726f766520746f20746865207a65726f2061646472657373476f7665726e61626c653a2070726f706f73616c206973206e6f7420616374697665536166654d6174683a206d756c7469706c69636174696f6e206f766572666c6f77526577617264547261636b65723a20616c726561647920696e697469616c697a6564526577617264547261636b65723a207472616e736665722066726f6d20746865207a65726f2061646472657373526577617264547261636b65723a206d696e7420746f20746865207a65726f2061646472657373ddf252ad1be2c89b69c2b068fc378daa952ba7f163c4a11628f55a4df523b3ef526577617264547261636b65723a207472616e7366657220616d6f756e74206578636565647320616c6c6f77616e63655361666545524332303a204552433230206f7065726174696f6e20646964206e6f742073756363656564526577617264547261636b65723a20616374696f6e206e6f7420656e61626c6564526577617264547261636b65723a205f616d6f756e742065786365656473206465706f73697442616c616e6365526577617264547261636b65723a207472616e7366657220616d6f756e7420657863656564732062616c616e6365a26469706673582212209c683ce58545fc21d5cb2da9a85eedcb6da13ebd5360eb60d061caa7953b848164736f6c634300060c0033","linkReferences":{}},"methodIdentifiers":{"BASIS_POINTS_DIVISOR()":"126082cf","PRECISION()":"aaf5eb68","acceptGov()":"7bc6729b","allowance(address,address)":"dd62ed3e","allowances(address,address)":"55b6ed5c","approve(address,uint256)":"095ea7b3","averageStakedAmounts(address)":"a3180217","balanceOf(address)":"70a08231","balances(address)":"27e235e3","cancelGovProposal(address)":"9c35b497","claim(address)":"1e83409a","claimForAccount(address,address)":"13e82e7a","claimable(address)":"402914f5","claimableReward(address)":"e9503425","cumulativeRewardPerToken()":"f5fc5076","cumulativeRewards(address)":"3792def3","decimals()":"313ce567","depositBalances(address,address)":"f5d9d63e","distributor()":"bfe10928","gov()":"12d43a51","govProposals(address)":"8d0fedb0","inPrivateClaimingMode()":"f76033d3","inPrivateStakingMode()":"c5fa2730","inPrivateTransferMode()":"dfbaefb1","initialize(address[],address)":"462d0b2e","isDepositToken(address)":"b89e45b3","isHandler(address)":"46ea87af","isInitialized()":"392e53cd","name()":"06fdde03","previousCumulatedRewardPerToken(address)":"44a08411","rewardToken()":"f7c618c1","setDepositToken(address,bool)":"e44b7558","setGov(address)":"cfad57a2","setGovWithDeadline(address,uint256)":"6bb22fd7","setHandler(address,bool)":"9cb7de4b","setInPrivateClaimingMode(bool)":"3cd7f700","setInPrivateStakingMode(bool)":"1d30d5bc","setInPrivateTransferMode(bool)":"5a47a1a7","stake(address,uint256)":"adc9772e","stakeForAccount(address,address,address,uint256)":"790b5a6c","stakedAmounts(address)":"10c1c103","symbol()":"95d89b41","tokensPerInterval()":"a8d93627","totalDepositSupply(address)":"552ce1dc","totalSupply()":"18160ddd","transfer(address,uint256)":"a9059cbb","transferFrom(address,address,uint256)":"23b872dd","unstake(address,uint256)":"c2a672e0","unstakeForAccount(address,address,uint256,address)":"098bf59d","updateRewards()":"3e158b0c","withdrawToken(address,address,uint256)":"01e33667"},"id":127}