{"abi":[{"type":"constructor","inputs":[{"name":"_name","type":"string","internalType":"string"},{"name":"_symbol","type":"string","internalType":"string"}],"stateMutability":"nonpayable"},{"type":"function","name":"BASIS_POINTS_DIVISOR","inputs":[],"outputs":[{"name":"","type":"uint256","internalType":"uint256"}],"stateMutability":"view"},{"type":"function","name":"PRECISION","inputs":[],"outputs":[{"name":"","type":"uint256","internalType":"uint256"}],"stateMutability":"view"},{"type":"function","name":"acceptGov","inputs":[],"outputs":[],"stateMutability":"nonpayable"},{"type":"function","name":"allowance","inputs":[{"name":"_owner","type":"address","internalType":"address"},{"name":"_spender","type":"address","internalType":"address"}],"outputs":[{"name":"","type":"uint256","internalType":"uint256"}],"stateMutability":"view"},{"type":"function","name":"allowances","inputs":[{"name":"","type":"address","internalType":"address"},{"name":"","type":"address","internalType":"address"}],"outputs":[{"name":"","type":"uint256","internalType":"uint256"}],"stateMutability":"view"},{"type":"function","name":"approve","inputs":[{"name":"_spender","type":"address","internalType":"address"},{"name":"_amount","type":"uint256","internalType":"uint256"}],"outputs":[{"name":"","type":"bool","internalType":"bool"}],"stateMutability":"nonpayable"},{"type":"function","name":"averageStakedAmounts","inputs":[{"name":"","type":"address","internalType":"address"}],"outputs":[{"name":"","type":"uint256","internalType":"uint256"}],"stateMutability":"view"},{"type":"function","name":"balanceOf","inputs":[{"name":"_account","type":"address","internalType":"address"}],"outputs":[{"name":"","type":"uint256","internalType":"uint256"}],"stateMutability":"view"},{"type":"function","name":"balances","inputs":[{"name":"","type":"address","internalType":"address"}],"outputs":[{"name":"","type":"uint256","internalType":"uint256"}],"stateMutability":"view"},{"type":"function","name":"cancelGovProposal","inputs":[{"name":"_gov","type":"address","internalType":"address"}],"outputs":[],"stateMutability":"nonpayable"},{"type":"function","name":"claim","inputs":[{"name":"_receiver","type":"address","internalType":"address"}],"outputs":[{"name":"","type":"uint256","internalType":"uint256"}],"stateMutability":"nonpayable"},{"type":"function","name":"claimForAccount","inputs":[{"name":"_account","type":"address","internalType":"address"},{"name":"_receiver","type":"address","internalType":"address"}],"outputs":[{"name":"","type":"uint256","internalType":"uint256"}],"stateMutability":"nonpayable"},{"type":"function","name":"claimable","inputs":[{"name":"_account","type":"address","internalType":"address"}],"outputs":[{"name":"","type":"uint256","internalType":"uint256"}],"stateMutability":"view"},{"type":"function","name":"claimableReward","inputs":[{"name":"","type":"address","internalType":"address"}],"outputs":[{"name":"","type":"uint256","internalType":"uint256"}],"stateMutability":"view"},{"type":"function","name":"cumulativeRewardPerToken","inputs":[],"outputs":[{"name":"","type":"uint256","internalType":"uint256"}],"stateMutability":"view"},{"type":"function","name":"cumulativeRewards","inputs":[{"name":"","type":"address","internalType":"address"}],"outputs":[{"name":"","type":"uint256","internalType":"uint256"}],"stateMutability":"view"},{"type":"function","name":"decimals","inputs":[],"outputs":[{"name":"","type":"uint8","internalType":"uint8"}],"stateMutability":"view"},{"type":"function","name":"depositedBalances","inputs":[{"name":"","type":"address","internalType":"address"},{"name":"","type":"address","internalType":"address"}],"outputs":[{"name":"","type":"uint256","internalType":"uint256"}],"stateMutability":"view"},{"type":"function","name":"distributor","inputs":[],"outputs":[{"name":"","type":"address","internalType":"address"}],"stateMutability":"view"},{"type":"function","name":"gov","inputs":[],"outputs":[{"name":"","type":"address","internalType":"address"}],"stateMutability":"view"},{"type":"function","name":"govProposals","inputs":[{"name":"","type":"address","internalType":"address"}],"outputs":[{"name":"deadline","type":"uint256","internalType":"uint256"},{"name":"isActive","type":"bool","internalType":"bool"}],"stateMutability":"view"},{"type":"function","name":"inPrivateClaimingMode","inputs":[],"outputs":[{"name":"","type":"bool","internalType":"bool"}],"stateMutability":"view"},{"type":"function","name":"inPrivateStakingMode","inputs":[],"outputs":[{"name":"","type":"bool","internalType":"bool"}],"stateMutability":"view"},{"type":"function","name":"inPrivateTransferMode","inputs":[],"outputs":[{"name":"","type":"bool","internalType":"bool"}],"stateMutability":"view"},{"type":"function","name":"initialize","inputs":[{"name":"_depositTokens","type":"address[]","internalType":"address[]"},{"name":"_distributor","type":"address","internalType":"address"}],"outputs":[],"stateMutability":"nonpayable"},{"type":"function","name":"isDepositToken","inputs":[{"name":"","type":"address","internalType":"address"}],"outputs":[{"name":"","type":"bool","internalType":"bool"}],"stateMutability":"view"},{"type":"function","name":"isHandler","inputs":[{"name":"","type":"address","internalType":"address"}],"outputs":[{"name":"","type":"bool","internalType":"bool"}],"stateMutability":"view"},{"type":"function","name":"isInitialized","inputs":[],"outputs":[{"name":"","type":"bool","internalType":"bool"}],"stateMutability":"view"},{"type":"function","name":"name","inputs":[],"outputs":[{"name":"","type":"string","internalType":"string"}],"stateMutability":"view"},{"type":"function","name":"previousCumulatedRewardPerToken","inputs":[{"name":"","type":"address","internalType":"address"}],"outputs":[{"name":"","type":"uint256","internalType":"uint256"}],"stateMutability":"view"},{"type":"function","name":"rewardToken","inputs":[],"outputs":[{"name":"","type":"address","internalType":"address"}],"stateMutability":"view"},{"type":"function","name":"setDepositToken","inputs":[{"name":"_depositToken","type":"address","internalType":"address"},{"name":"_isDepositToken","type":"bool","internalType":"bool"}],"outputs":[],"stateMutability":"nonpayable"},{"type":"function","name":"setGov","inputs":[{"name":"_gov","type":"address","internalType":"address"}],"outputs":[],"stateMutability":"nonpayable"},{"type":"function","name":"setGovWithDeadline","inputs":[{"name":"_gov","type":"address","internalType":"address"},{"name":"_deadline","type":"uint256","internalType":"uint256"}],"outputs":[],"stateMutability":"nonpayable"},{"type":"function","name":"setHandler","inputs":[{"name":"_handler","type":"address","internalType":"address"},{"name":"_isActive","type":"bool","internalType":"bool"}],"outputs":[],"stateMutability":"nonpayable"},{"type":"function","name":"setInPrivateClaimingMode","inputs":[{"name":"_inPrivateClaimingMode","type":"bool","internalType":"bool"}],"outputs":[],"stateMutability":"nonpayable"},{"type":"function","name":"setInPrivateStakingMode","inputs":[{"name":"_inPrivateStakingMode","type":"bool","internalType":"bool"}],"outputs":[],"stateMutability":"nonpayable"},{"type":"function","name":"setInPrivateTransferMode","inputs":[{"name":"_inPrivateTransferMode","type":"bool","internalType":"bool"}],"outputs":[],"stateMutability":"nonpayable"},{"type":"function","name":"stake","inputs":[{"name":"_depositToken","type":"address","internalType":"address"},{"name":"_amount","type":"uint256","internalType":"uint256"}],"outputs":[],"stateMutability":"nonpayable"},{"type":"function","name":"stakeForAccount","inputs":[{"name":"_fundingAccount","type":"address","internalType":"address"},{"name":"_account","type":"address","internalType":"address"},{"name":"_depositToken","type":"address","internalType":"address"},{"name":"_amount","type":"uint256","internalType":"uint256"}],"outputs":[],"stateMutability":"nonpayable"},{"type":"function","name":"stakedAmounts","inputs":[{"name":"","type":"address","internalType":"address"}],"outputs":[{"name":"","type":"uint256","internalType":"uint256"}],"stateMutability":"view"},{"type":"function","name":"symbol","inputs":[],"outputs":[{"name":"","type":"string","internalType":"string"}],"stateMutability":"view"},{"type":"function","name":"tokensPerInterval","inputs":[],"outputs":[{"name":"","type":"uint256","internalType":"uint256"}],"stateMutability":"view"},{"type":"function","name":"totalDepositSupply","inputs":[{"name":"","type":"address","internalType":"address"}],"outputs":[{"name":"","type":"uint256","internalType":"uint256"}],"stateMutability":"view"},{"type":"function","name":"totalSupply","inputs":[],"outputs":[{"name":"","type":"uint256","internalType":"uint256"}],"stateMutability":"view"},{"type":"function","name":"transfer","inputs":[{"name":"_recipient","type":"address","internalType":"address"},{"name":"_amount","type":"uint256","internalType":"uint256"}],"outputs":[{"name":"","type":"bool","internalType":"bool"}],"stateMutability":"nonpayable"},{"type":"function","name":"transferFrom","inputs":[{"name":"_sender","type":"address","internalType":"address"},{"name":"_recipient","type":"address","internalType":"address"},{"name":"_amount","type":"uint256","internalType":"uint256"}],"outputs":[{"name":"","type":"bool","internalType":"bool"}],"stateMutability":"nonpayable"},{"type":"function","name":"unstake","inputs":[{"name":"_depositToken","type":"address","internalType":"address"},{"name":"_amount","type":"uint256","internalType":"uint256"}],"outputs":[],"stateMutability":"nonpayable"},{"type":"function","name":"unstakeForAccount","inputs":[{"name":"_account","type":"address","internalType":"address"},{"name":"_depositToken","type":"address","internalType":"address"},{"name":"_amount","type":"uint256","internalType":"uint256"},{"name":"_receiver","type":"address","internalType":"address"}],"outputs":[],"stateMutability":"nonpayable"},{"type":"function","name":"updateRewards","inputs":[],"outputs":[],"stateMutability":"nonpayable"},{"type":"function","name":"withdrawTokensOrETH","inputs":[{"name":"_tokenOrZero","type":"address","internalType":"address"},{"name":"_account","type":"address","internalType":"address"},{"name":"_amount","type":"uint256","internalType":"uint256"}],"outputs":[],"stateMutability":"nonpayable"},{"type":"event","name":"Approval","inputs":[{"name":"owner","type":"address","indexed":true,"internalType":"address"},{"name":"spender","type":"address","indexed":true,"internalType":"address"},{"name":"value","type":"uint256","indexed":false,"internalType":"uint256"}],"anonymous":false},{"type":"event","name":"Claim","inputs":[{"name":"receiver","type":"address","indexed":false,"internalType":"address"},{"name":"amount","type":"uint256","indexed":false,"internalType":"uint256"}],"anonymous":false},{"type":"event","name":"GovProposalCanceled","inputs":[{"name":"proposedGov","type":"address","indexed":true,"internalType":"address"},{"name":"canceledBy","type":"address","indexed":true,"internalType":"address"}],"anonymous":false},{"type":"event","name":"GovernanceTransferRequested","inputs":[{"name":"newGov","type":"address","indexed":true,"internalType":"address"},{"name":"deadline","type":"uint256","indexed":false,"internalType":"uint256"}],"anonymous":false},{"type":"event","name":"GovernanceTransferred","inputs":[{"name":"oldGov","type":"address","indexed":true,"internalType":"address"},{"name":"newGov","type":"address","indexed":true,"internalType":"address"}],"anonymous":false},{"type":"event","name":"Transfer","inputs":[{"name":"from","type":"address","indexed":true,"internalType":"address"},{"name":"to","type":"address","indexed":true,"internalType":"address"},{"name":"value","type":"uint256","indexed":false,"internalType":"uint256"}],"anonymous":false}],"bytecode":{"object":"0x60806040523480156200001157600080fd5b50604051620032f5380380620032f5833981810160405260408110156200003757600080fd5b81019080805160405193929190846401000000008211156200005857600080fd5b9083019060208201858111156200006e57600080fd5b82516401000000008111828201881017156200008957600080fd5b82525081516020918201929091019080838360005b83811015620000b85781810151838201526020016200009e565b50505050905090810190601f168015620000e65780820380516001836020036101000a031916815260200191505b50604052602001805160405193929190846401000000008211156200010a57600080fd5b9083019060208201858111156200012057600080fd5b82516401000000008111828201881017156200013b57600080fd5b82525081516020918201929091019080838360005b838110156200016a57818101518382015260200162000150565b50505050905090810190601f168015620001985780820380516001836020036101000a031916815260200191505b506040525050600180546001600160a01b03191633179055508151620001c6906004906020850190620001e5565b508051620001dc906005906020840190620001e5565b50505062000281565b828054600181600116156101000203166002900490600052602060002090601f016020900481019282601f106200022857805160ff191683800117855562000258565b8280016001018555821562000258579182015b82811115620002585782518255916020019190600101906200023b565b50620002669291506200026a565b5090565b5b808211156200026657600081556001016200026b565b61306480620002916000396000f3fe608060405234801561001057600080fd5b50600436106102615760003560e01c80635a47a1a71161014d5780635a47a1a7146106e55780636bb22fd71461070457806370a0823114610730578063790b5a6c146107565780637bc6729b146107925780638d0fedb01461079a57806395d89b41146107d95780639c35b497146107e15780639cb7de4b14610807578063a318021714610835578063a8d936271461085b578063a9059cbb14610863578063aaf5eb681461088f578063adc9772e14610897578063b89e45b3146108c3578063bfe10928146108e9578063c2a672e0146108f1578063c5fa27301461091d578063cfad57a214610925578063dd62ed3e1461094b578063dfbaefb114610979578063e44b755814610981578063e9503425146109af578063f5fc5076146109d5578063f76033d3146109dd578063f7c618c1146109e557610261565b806306fdde0314610266578063095ea7b3146102e3578063098bf59d1461032357806310c1c10314610361578063126082cf1461039957806312d43a51146103a157806313e82e7a146103c5578063178fede7146103f357806318160ddd146104215780631d30d5bc146104295780631e83409a1461044857806323b872dd1461046e57806327e235e3146104a4578063313ce567146104ca5780633792def3146104e8578063392e53cd1461050e5780633cd7f700146105165780633e158b0c14610535578063402914f51461053d57806344a0841114610563578063462d0b2e1461058957806346ea87af14610635578063552ce1dc1461065b57806355b6ed5c1461068157806356edcea2146106af575b600080fd5b61026e6109ed565b6040805160208082528351818301528351919283929083019185019080838360005b838110156102a8578181015183820152602001610290565b50505050905090810190601f1680156102d55780820380516001836020036101000a031916815260200191505b509250505060405180910390f35b61030f600480360360408110156102f957600080fd5b506001600160a01b038135169060200135610a7b565b604080519115158252519081900360200190f35b61035f6004803603608081101561033957600080fd5b506001600160a01b03813581169160208101358216916040820135916060013516610a92565b005b6103876004803603602081101561037757600080fd5b50356001600160a01b0316610afc565b60408051918252519081900360200190f35b610387610b0e565b6103a9610b14565b604080516001600160a01b039092168252519081900360200190f35b610387600480360360408110156103db57600080fd5b506001600160a01b0381358116916020013516610b23565b6103876004803603604081101561040957600080fd5b506001600160a01b0381358116916020013516610b8e565b610387610bab565b61035f6004803603602081101561043f57600080fd5b50351515610bb1565b6103876004803603602081101561045e57600080fd5b50356001600160a01b0316610c18565b61030f6004803603606081101561048457600080fd5b506001600160a01b03813581169160208101359091169060400135610cc2565b610387600480360360208110156104ba57600080fd5b50356001600160a01b0316610d5c565b6104d2610d6e565b6040805160ff9092168252519081900360200190f35b610387600480360360208110156104fe57600080fd5b50356001600160a01b0316610d73565b61030f610d85565b61035f6004803603602081101561052c57600080fd5b50351515610d8e565b61035f610df7565b6103876004803603602081101561055357600080fd5b50356001600160a01b0316610e54565b6103876004803603602081101561057957600080fd5b50356001600160a01b0316610fbe565b61035f6004803603604081101561059f57600080fd5b810190602081018135600160201b8111156105b957600080fd5b8201836020820111156105cb57600080fd5b803590602001918460208302840111600160201b831117156105ec57600080fd5b919080806020026020016040519081016040528093929190818152602001838360200280828437600092019190915250929550505090356001600160a01b03169150610fd09050565b61030f6004803603602081101561064b57600080fd5b50356001600160a01b03166110e6565b6103876004803603602081101561067157600080fd5b50356001600160a01b03166110fb565b6103876004803603604081101561069757600080fd5b506001600160a01b038135811691602001351661110d565b61035f600480360360608110156106c557600080fd5b506001600160a01b0381358116916020810135909116906040013561112a565b61035f600480360360208110156106fb57600080fd5b5035151561132d565b61035f6004803603604081101561071a57600080fd5b506001600160a01b03813516906020013561138d565b6103876004803603602081101561074657600080fd5b50356001600160a01b03166114a2565b61035f6004803603608081101561076c57600080fd5b506001600160a01b038135811691602081013582169160408201351690606001356114bd565b61035f61151c565b6107c0600480360360208110156107b057600080fd5b50356001600160a01b0316611631565b6040805192835290151560208301528051918290030190f35b61026e61164d565b61035f600480360360208110156107f757600080fd5b50356001600160a01b03166116a8565b61035f6004803603604081101561081d57600080fd5b506001600160a01b03813516906020013515156117b6565b6103876004803603602081101561084b57600080fd5b50356001600160a01b031661182e565b610387611840565b61030f6004803603604081101561087957600080fd5b506001600160a01b0381351690602001356118b6565b6103876118c3565b61035f600480360360408110156108ad57600080fd5b506001600160a01b0381351690602001356118d3565b61030f600480360360208110156108d957600080fd5b50356001600160a01b031661197a565b6103a961198f565b61035f6004803603604081101561090757600080fd5b506001600160a01b03813516906020013561199e565b61030f611a3c565b61035f6004803603602081101561093b57600080fd5b50356001600160a01b0316611a4a565b6103876004803603604081101561096157600080fd5b506001600160a01b0381358116916020013516611b60565b61030f611b8b565b61035f6004803603604081101561099757600080fd5b506001600160a01b0381351690602001351515611b94565b610387600480360360208110156109c557600080fd5b50356001600160a01b0316611c0c565b610387611c1e565b61030f611c24565b6103a9611c33565b6004805460408051602060026001851615610100026000190190941693909304601f81018490048402820184019092528181529291830182828015610a735780601f10610a4857610100808354040283529160200191610a73565b820191906000526020600020905b815481529060010190602001808311610a5657829003601f168201915b505050505081565b6000610a88338484611c78565b5060015b92915050565b60026000541415610ad8576040805162461bcd60e51b815260206004820152601f6024820152600080516020612d1f833981519152604482015290519081900360640190fd5b6002600055610ae5611d64565b610af184848484611dc5565b505060016000555050565b600e6020526000908152604090205481565b61271081565b6001546001600160a01b031681565b600060026000541415610b6b576040805162461bcd60e51b815260206004820152601f6024820152600080516020612d1f833981519152604482015290519081900360640190fd5b6002600055610b78611d64565b610b828383611fd3565b60016000559392505050565b600860209081526000928352604080842090915290825290205481565b600a5481565b6001546001600160a01b03163314610bfe576040805162461bcd60e51b81526020600482015260156024820152600080516020612dbf833981519152604482015290519081900360640190fd5b601380549115156101000261ff0019909216919091179055565b600060026000541415610c60576040805162461bcd60e51b815260206004820152601f6024820152600080516020612d1f833981519152604482015290519081900360640190fd5b600260005560135462010000900460ff1615610cad5760405162461bcd60e51b8152600401808060200182810382526021815260200180612fb16021913960400191505060405180910390fd5b610cb73383611fd3565b600160005592915050565b3360009081526014602052604081205460ff1615610ced57610ce5848484612069565b506001610d55565b6000610d3783604051806060016040528060308152602001612f57603091396001600160a01b0388166000908152600c6020908152604080832033845290915290205491906121bc565b9050610d44853383611c78565b610d4f858585612069565b60019150505b9392505050565b600b6020526000908152604090205481565b601281565b60116020526000908152604090205481565b60035460ff1681565b6001546001600160a01b03163314610ddb576040805162461bcd60e51b81526020600482015260156024820152600080516020612dbf833981519152604482015290519081900360640190fd5b60138054911515620100000262ff000019909216919091179055565b60026000541415610e3d576040805162461bcd60e51b815260206004820152601f6024820152600080516020612d1f833981519152604482015290519081900360640190fd5b60026000908155610e4d90612253565b6001600055565b6001600160a01b0381166000908152600e602052604081205480610e925750506001600160a01b0381166000908152600f6020526040902054610fb9565b6000600a5490506000610f2b68327cb2734119d3b7a9601e1b600660009054906101000a90046001600160a01b03166001600160a01b031663eded3fda6040518163ffffffff1660e01b815260040160206040518083038186803b158015610ef957600080fd5b505afa158015610f0d573d6000803e3d6000fd5b505050506040513d6020811015610f2357600080fd5b50519061247b565b90506000610f45610f3c83856124d4565b600d5490612513565b6001600160a01b038716600090815260106020526040902054909150610fb290610f939068327cb2734119d3b7a9601e1b90610f8d90610f8690869061256b565b889061247b565b906124d4565b6001600160a01b0388166000908152600f602052604090205490612513565b9450505050505b919050565b60106020526000908152604090205481565b6001546001600160a01b0316331461101d576040805162461bcd60e51b81526020600482015260156024820152600080516020612dbf833981519152604482015290519081900360640190fd5b60035460ff161561105f5760405162461bcd60e51b8152600401808060200182810382526022815260200180612ec16022913960400191505060405180910390fd5b6003805460ff1916600117905560005b82518110156110c257600083828151811061108657fe5b6020908102919091018101516001600160a01b03166000908152600790915260409020805460ff1916600190811790915591909101905061106f565b50600680546001600160a01b0319166001600160a01b039290921691909117905550565b60146020526000908152604090205460ff1681565b60096020526000908152604090205481565b600c60209081526000928352604080842090915290825290205481565b6001546001600160a01b03163314611177576040805162461bcd60e51b81526020600482015260156024820152600080516020612dbf833981519152604482015290519081900360640190fd5b600260005414156111bd576040805162461bcd60e51b815260206004820152601f6024820152600080516020612d1f833981519152604482015290519081900360640190fd5b60026000556001600160a01b03831661130f576001600160a01b03821661121d576040805162461bcd60e51b815260206004820152600f60248201526e125b9d985b1a59081858d8dbdd5b9d608a1b604482015290519081900360640190fd5b4781111561126d576040805162461bcd60e51b8152602060048201526018602482015277496e73756666696369656e74204554482062616c616e636560401b604482015290519081900360640190fd5b6040516000906001600160a01b0384169083908381818185875af1925050503d80600081146112b8576040519150601f19603f3d011682016040523d82523d6000602084013e6112bd565b606091505b5050905080611309576040805162461bcd60e51b8152602060048201526013602482015272115512081d1c985b9cd9995c8819985a5b1959606a1b604482015290519081900360640190fd5b50611323565b6113236001600160a01b03841683836125ad565b5050600160005550565b6001546001600160a01b0316331461137a576040805162461bcd60e51b81526020600482015260156024820152600080516020612dbf833981519152604482015290519081900360640190fd5b6013805460ff1916911515919091179055565b6001546001600160a01b031633146113da576040805162461bcd60e51b81526020600482015260156024820152600080516020612dbf833981519152604482015290519081900360640190fd5b6001600160a01b038216611433576040805162461bcd60e51b815260206004820152601b60248201527a476f7665726e61626c653a20696e76616c6964206164647265737360281b604482015290519081900360640190fd5b6001546001600160a01b0383811691161415611494576040805162461bcd60e51b815260206004820152601b60248201527a476f7665726e61626c653a2073616d6520676f7665726e616e636560281b604482015290519081900360640190fd5b61149e8282612604565b5050565b6001600160a01b03166000908152600b602052604090205490565b60026000541415611503576040805162461bcd60e51b815260206004820152601f6024820152600080516020612d1f833981519152604482015290519081900360640190fd5b6002600055611510611d64565b610af184848484612680565b3360009081526002602052604090208054421061157f576040805162461bcd60e51b815260206004820152601c60248201527b11dbdd995c9b98589b194e88191958591b1a5b9948195e1c1a5c995960221b604482015290519081900360640190fd5b60018082015460ff161515146115c65760405162461bcd60e51b8152600401808060200182810382526022815260200180612e7e6022913960400191505060405180910390fd5b60018054336000818152600260205260408082208281558501805460ff1916905584546001600160a01b031916831790945592516001600160a01b0390921692909183917f5f56bee8cffbe9a78652a74a60705edede02af10b0bbb888ca44b79a0d42ce8091a35050565b6002602052600090815260409020805460019091015460ff1682565b6005805460408051602060026001851615610100026000190190941693909304601f81018490048402820184019092528181529291830182828015610a735780601f10610a4857610100808354040283529160200191610a73565b6001546001600160a01b031633146116f5576040805162461bcd60e51b81526020600482015260156024820152600080516020612dbf833981519152604482015290519081900360640190fd5b6001600160a01b03811660009081526002602052604090206001015460ff16611765576040805162461bcd60e51b815260206004820152601f60248201527f476f7665726e61626c653a2070726f706f73616c206e6f742061637469766500604482015290519081900360640190fd5b6001600160a01b038116600081815260026020526040808220828155600101805460ff19169055513392917ffc6a2fa53abe2adfe8372a9495032d7e6458d3aed34fa880132b6c808da1e99c91a350565b6001546001600160a01b03163314611803576040805162461bcd60e51b81526020600482015260156024820152600080516020612dbf833981519152604482015290519081900360640190fd5b6001600160a01b03919091166000908152601460205260409020805460ff1916911515919091179055565b60126020526000908152604090205481565b6006546040805163a8d9362760e01b815290516000926001600160a01b03169163a8d93627916004808301926020929190829003018186803b15801561188557600080fd5b505afa158015611899573d6000803e3d6000fd5b505050506040513d60208110156118af57600080fd5b5051905090565b6000610a88338484612069565b68327cb2734119d3b7a9601e1b81565b60026000541415611919576040805162461bcd60e51b815260206004820152601f6024820152600080516020612d1f833981519152604482015290519081900360640190fd5b6002600055601354610100900460ff16156119655760405162461bcd60e51b8152600401808060200182810382526021815260200180612fb16021913960400191505060405180910390fd5b61197133338484612680565b50506001600055565b60076020526000908152604090205460ff1681565b6006546001600160a01b031681565b600260005414156119e4576040805162461bcd60e51b815260206004820152601f6024820152600080516020612d1f833981519152604482015290519081900360640190fd5b6002600055601354610100900460ff1615611a305760405162461bcd60e51b8152600401808060200182810382526021815260200180612fb16021913960400191505060405180910390fd5b61197133838333611dc5565b601354610100900460ff1681565b6001546001600160a01b03163314611a97576040805162461bcd60e51b81526020600482015260156024820152600080516020612dbf833981519152604482015290519081900360640190fd5b6001600160a01b038116611af0576040805162461bcd60e51b815260206004820152601b60248201527a476f7665726e61626c653a20696e76616c6964206164647265737360281b604482015290519081900360640190fd5b6001546001600160a01b0382811691161415611b51576040805162461bcd60e51b815260206004820152601b60248201527a476f7665726e61626c653a2073616d6520676f7665726e616e636560281b604482015290519081900360640190fd5b611b5d81600019612604565b50565b6001600160a01b039182166000908152600c6020908152604080832093909416825291909152205490565b60135460ff1681565b6001546001600160a01b03163314611be1576040805162461bcd60e51b81526020600482015260156024820152600080516020612dbf833981519152604482015290519081900360640190fd5b6001600160a01b03919091166000908152600760205260409020805460ff1916911515919091179055565b600f6020526000908152604090205481565b600d5481565b60135462010000900460ff1681565b6006546040805163f7c618c160e01b815290516000926001600160a01b03169163f7c618c1916004808301926020929190829003018186803b15801561188557600080fd5b6001600160a01b038316611cbd5760405162461bcd60e51b815260040180806020018281038252602c815260200180612d6a602c913960400191505060405180910390fd5b6001600160a01b038216611d025760405162461bcd60e51b815260040180806020018281038252602a815260200180612e54602a913960400191505060405180910390fd5b6001600160a01b038084166000818152600c6020908152604080832094871680845294825291829020859055815185815291517f8c5be1e5ebec7d5bd14f71427d1e84f3dd0314c0f7b2291e5b200ac8c7c3b9259281900390910190a3505050565b3360009081526014602052604090205460ff16611dc3576040805162461bcd60e51b81526020600482015260186024820152772932bbb0b9322a3930b1b5b2b91d103337b93134b23232b760411b604482015290519081900360640190fd5b565b60008211611e1a576040805162461bcd60e51b815260206004820152601e60248201527f526577617264547261636b65723a20696e76616c6964205f616d6f756e740000604482015290519081900360640190fd5b6001600160a01b03831660009081526007602052604090205460ff16611e715760405162461bcd60e51b8152600401808060200182810382526024815260200180612e306024913960400191505060405180910390fd5b611e7a84612253565b6001600160a01b0384166000908152600e602052604090205482811015611ed25760405162461bcd60e51b815260040180806020018281038252602b815260200180612d3f602b913960400191505060405180910390fd5b611edc818461256b565b6001600160a01b038087166000908152600e602090815260408083209490945560088152838220928816825291909152205483811015611f4d5760405162461bcd60e51b815260040180806020018281038252602f815260200180612fd2602f913960400191505060405180910390fd5b611f57818561256b565b6001600160a01b038088166000908152600860209081526040808320938a168352928152828220939093556009909252902054611f94908561256b565b6001600160a01b038616600090815260096020526040902055611fb78685612809565b611fcb6001600160a01b03861684866125ad565b505050505050565b6000611fde83612253565b6001600160a01b0383166000908152600f6020526040812080549190558015610d555761201e838261200e611c33565b6001600160a01b031691906125ad565b604080516001600160a01b03861681526020810183905281517f47cee97cb7acd717b3c0aa1435d004cd5b3c8c57d70dbceb4e4458bbd60e39d4929181900390910190a19392505050565b6001600160a01b0383166120ae5760405162461bcd60e51b815260040180806020018281038252602d815260200180612ee3602d913960400191505060405180910390fd5b6001600160a01b0382166120f35760405162461bcd60e51b815260040180806020018281038252602b815260200180612ddf602b913960400191505060405180910390fd5b60135460ff161561210657612106611d64565b612143816040518060600160405280602e8152602001613001602e91396001600160a01b0386166000908152600b602052604090205491906121bc565b6001600160a01b038085166000908152600b602052604080822093909355908416815220546121729082612513565b6001600160a01b038084166000818152600b60209081526040918290209490945580518581529051919392871692600080516020612f3783398151915292918290030190a3505050565b6000818484111561224b5760405162461bcd60e51b81526004018080602001828103825283818151815260200191508051906020019080838360005b838110156122105781810151838201526020016121f8565b50505050905090810190601f16801561223d5780820380516001836020036101000a031916815260200191505b509250505060405180910390fd5b505050900390565b600a54806122615750611b5d565b6006546040805163e4fc6b6d60e01b815290516000926001600160a01b03169163e4fc6b6d91600480830192602092919082900301818787803b1580156122a757600080fd5b505af11580156122bb573d6000803e3d6000fd5b505050506040513d60208110156122d157600080fd5b5051600d54909150811561230b576123036122fc84610f8d8568327cb2734119d3b7a9601e1b61247b565b8290612513565b600d81905590505b8061231857505050611b5d565b6001600160a01b03841615612475576001600160a01b0384166000908152600e602090815260408083205460109092528220549091906123769068327cb2734119d3b7a9601e1b90610f8d9061236f90879061256b565b859061247b565b6001600160a01b0387166000908152600f60205260408120549192509061239d9083612513565b6001600160a01b0388166000908152600f6020908152604080832084905560109091529020859055905080158015906123d65750600083115b15612471576001600160a01b0387166000908152601160205260408120546123fe9084612513565b905061244b61241182610f8d878761247b565b6001600160a01b038a16600090815260116020908152604080832054601290925290912054612445918591610f8d9161247b565b90612513565b6001600160a01b0389166000908152601260209081526040808320939093556011905220555b5050505b50505050565b60008261248a57506000610a8c565b8282028284828161249757fe5b0414610d555760405162461bcd60e51b8152600401808060200182810382526021815260200180612ea06021913960400191505060405180910390fd5b6000610d5583836040518060400160405280601a815260200179536166654d6174683a206469766973696f6e206279207a65726f60301b8152506128e7565b600082820183811015610d55576040805162461bcd60e51b815260206004820152601b60248201527a536166654d6174683a206164646974696f6e206f766572666c6f7760281b604482015290519081900360640190fd5b6000610d5583836040518060400160405280601e81526020017f536166654d6174683a207375627472616374696f6e206f766572666c6f7700008152506121bc565b604080516001600160a01b038416602482015260448082018490528251808303909101815260649091019091526020810180516001600160e01b031663a9059cbb60e01b1790526125ff90849061294c565b505050565b604080518082018252828152600160208083018281526001600160a01b03871660008181526002845286902094518555905193909201805460ff1916931515939093179092558251848152925190927f02dd0697be46e764c3ba81094158781c31b235d03bb27a0daf1bdef0ec1084dd92908290030190a25050565b600081116126d5576040805162461bcd60e51b815260206004820152601e60248201527f526577617264547261636b65723a20696e76616c6964205f616d6f756e740000604482015290519081900360640190fd5b6001600160a01b03821660009081526007602052604090205460ff1661272c5760405162461bcd60e51b8152600401808060200182810382526024815260200180612e306024913960400191505060405180910390fd5b6127416001600160a01b0383168530846129fd565b61274a83612253565b6001600160a01b0383166000908152600e602052604090205461276d9082612513565b6001600160a01b038085166000908152600e60209081526040808320949094556008815283822092861682529190915220546127a99082612513565b6001600160a01b03808516600090815260086020908152604080832093871683529281528282209390935560099092529020546127e69082612513565b6001600160a01b0383166000908152600960205260409020556124758482612a57565b6001600160a01b03821661284e5760405162461bcd60e51b8152600401808060200182810382526029815260200180612d966029913960400191505060405180910390fd5b61288b816040518060600160405280602a8152602001612cf5602a91396001600160a01b0385166000908152600b602052604090205491906121bc565b6001600160a01b0383166000908152600b6020526040902055600a546128b1908261256b565b600a556040805182815290516000916001600160a01b03851691600080516020612f378339815191529181900360200190a35050565b600081836129365760405162461bcd60e51b81526020600482018181528351602484015283519092839260449091019190850190808383600083156122105781810151838201526020016121f8565b50600083858161294257fe5b0495945050505050565b60606129a1826040518060400160405280602081526020017f5361666545524332303a206c6f772d6c6576656c2063616c6c206661696c6564815250856001600160a01b0316612b159092919063ffffffff16565b8051909150156125ff578080602001905160208110156129c057600080fd5b50516125ff5760405162461bcd60e51b815260040180806020018281038252602a815260200180612f87602a913960400191505060405180910390fd5b604080516001600160a01b0380861660248301528416604482015260648082018490528251808303909101815260849091019091526020810180516001600160e01b03166323b872dd60e01b17905261247590859061294c565b6001600160a01b038216612a9c5760405162461bcd60e51b8152600401808060200182810382526027815260200180612f106027913960400191505060405180910390fd5b600a54612aa99082612513565b600a556001600160a01b0382166000908152600b6020526040902054612acf9082612513565b6001600160a01b0383166000818152600b60209081526040808320949094558351858152935192939192600080516020612f378339815191529281900390910190a35050565b6060612b248484600085612b2c565b949350505050565b606082471015612b6d5760405162461bcd60e51b8152600401808060200182810382526026815260200180612e0a6026913960400191505060405180910390fd5b612b7685612c88565b612bc7576040805162461bcd60e51b815260206004820152601d60248201527f416464726573733a2063616c6c20746f206e6f6e2d636f6e7472616374000000604482015290519081900360640190fd5b60006060866001600160a01b031685876040518082805190602001908083835b60208310612c065780518252601f199092019160209182019101612be7565b6001836020036101000a03801982511681845116808217855250505050505090500191505060006040518083038185875af1925050503d8060008114612c68576040519150601f19603f3d011682016040523d82523d6000602084013e612c6d565b606091505b5091509150612c7d828286612c8e565b979650505050505050565b3b151590565b60608315612c9d575081610d55565b825115612cad5782518084602001fd5b60405162461bcd60e51b81526020600482018181528451602484015284518593919283926044019190850190808383600083156122105781810151838201526020016121f856fe526577617264547261636b65723a206275726e20616d6f756e7420657863656564732062616c616e63655265656e7472616e637947756172643a207265656e7472616e742063616c6c00526577617264547261636b65723a205f616d6f756e742065786365656473207374616b6564416d6f756e74526577617264547261636b65723a20617070726f76652066726f6d20746865207a65726f2061646472657373526577617264547261636b65723a206275726e2066726f6d20746865207a65726f2061646472657373476f7665726e61626c653a20666f7262696464656e0000000000000000000000526577617264547261636b65723a207472616e7366657220746f20746865207a65726f2061646472657373416464726573733a20696e73756666696369656e742062616c616e636520666f722063616c6c526577617264547261636b65723a20696e76616c6964205f6465706f736974546f6b656e526577617264547261636b65723a20617070726f766520746f20746865207a65726f2061646472657373476f7665726e61626c653a2070726f706f73616c206973206e6f7420616374697665536166654d6174683a206d756c7469706c69636174696f6e206f766572666c6f77526577617264547261636b65723a20616c726561647920696e697469616c697a6564526577617264547261636b65723a207472616e736665722066726f6d20746865207a65726f2061646472657373526577617264547261636b65723a206d696e7420746f20746865207a65726f2061646472657373ddf252ad1be2c89b69c2b068fc378daa952ba7f163c4a11628f55a4df523b3ef526577617264547261636b65723a207472616e7366657220616d6f756e74206578636565647320616c6c6f77616e63655361666545524332303a204552433230206f7065726174696f6e20646964206e6f742073756363656564526577617264547261636b65723a20616374696f6e206e6f7420656e61626c6564526577617264547261636b65723a205f616d6f756e742065786365656473206465706f736974656442616c616e6365526577617264547261636b65723a207472616e7366657220616d6f756e7420657863656564732062616c616e6365a2646970667358221220eac12e275aeb89c7c0c5f013b29108f20c5fa088d83f96b665af34d6ffbf7aef64736f6c634300060c0033","linkReferences":{}},"methodIdentifiers":{"BASIS_POINTS_DIVISOR()":"126082cf","PRECISION()":"aaf5eb68","acceptGov()":"7bc6729b","allowance(address,address)":"dd62ed3e","allowances(address,address)":"55b6ed5c","approve(address,uint256)":"095ea7b3","averageStakedAmounts(address)":"a3180217","balanceOf(address)":"70a08231","balances(address)":"27e235e3","cancelGovProposal(address)":"9c35b497","claim(address)":"1e83409a","claimForAccount(address,address)":"13e82e7a","claimable(address)":"402914f5","claimableReward(address)":"e9503425","cumulativeRewardPerToken()":"f5fc5076","cumulativeRewards(address)":"3792def3","decimals()":"313ce567","depositedBalances(address,address)":"178fede7","distributor()":"bfe10928","gov()":"12d43a51","govProposals(address)":"8d0fedb0","inPrivateClaimingMode()":"f76033d3","inPrivateStakingMode()":"c5fa2730","inPrivateTransferMode()":"dfbaefb1","initialize(address[],address)":"462d0b2e","isDepositToken(address)":"b89e45b3","isHandler(address)":"46ea87af","isInitialized()":"392e53cd","name()":"06fdde03","previousCumulatedRewardPerToken(address)":"44a08411","rewardToken()":"f7c618c1","setDepositToken(address,bool)":"e44b7558","setGov(address)":"cfad57a2","setGovWithDeadline(address,uint256)":"6bb22fd7","setHandler(address,bool)":"9cb7de4b","setInPrivateClaimingMode(bool)":"3cd7f700","setInPrivateStakingMode(bool)":"1d30d5bc","setInPrivateTransferMode(bool)":"5a47a1a7","stake(address,uint256)":"adc9772e","stakeForAccount(address,address,address,uint256)":"790b5a6c","stakedAmounts(address)":"10c1c103","symbol()":"95d89b41","tokensPerInterval()":"a8d93627","totalDepositSupply(address)":"552ce1dc","totalSupply()":"18160ddd","transfer(address,uint256)":"a9059cbb","transferFrom(address,address,uint256)":"23b872dd","unstake(address,uint256)":"c2a672e0","unstakeForAccount(address,address,uint256,address)":"098bf59d","updateRewards()":"3e158b0c","withdrawTokensOrETH(address,address,uint256)":"56edcea2"},"id":28}