{"abi":[{"type":"constructor","inputs":[{"name":"_vault","type":"address","internalType":"contract IVault"}],"stateMutability":"nonpayable"},{"type":"function","name":"BASIS_POINTS_DIVISOR","inputs":[],"outputs":[{"name":"","type":"uint256","internalType":"uint256"}],"stateMutability":"view"},{"type":"function","name":"FUNDING_RATE_PRECISION","inputs":[],"outputs":[{"name":"","type":"uint256","internalType":"uint256"}],"stateMutability":"view"},{"type":"function","name":"addPosition","inputs":[{"name":"pos","type":"bytes32","internalType":"bytes32"},{"name":"_account","type":"address","internalType":"address"},{"name":"_collateralToken","type":"address","internalType":"address"},{"name":"_indexToken","type":"address","internalType":"address"},{"name":"_isLong","type":"bool","internalType":"bool"}],"outputs":[],"stateMutability":"nonpayable"},{"type":"function","name":"getBuyUsdgFeeBasisPoints","inputs":[{"name":"_token","type":"address","internalType":"address"},{"name":"_usdgAmount","type":"uint256","internalType":"uint256"}],"outputs":[{"name":"","type":"uint256","internalType":"uint256"}],"stateMutability":"view"},{"type":"function","name":"getEntryFundingRate","inputs":[{"name":"_collateralToken","type":"address","internalType":"address"},{"name":"","type":"address","internalType":"address"},{"name":"","type":"bool","internalType":"bool"}],"outputs":[{"name":"","type":"uint256","internalType":"uint256"}],"stateMutability":"view"},{"type":"function","name":"getFeeBasisPoints","inputs":[{"name":"_token","type":"address","internalType":"address"},{"name":"_usdgDelta","type":"uint256","internalType":"uint256"},{"name":"_feeBasisPoints","type":"uint256","internalType":"uint256"},{"name":"_taxBasisPoints","type":"uint256","internalType":"uint256"},{"name":"_increment","type":"bool","internalType":"bool"}],"outputs":[{"name":"","type":"uint256","internalType":"uint256"}],"stateMutability":"view"},{"type":"function","name":"getFundingFee","inputs":[{"name":"","type":"address","internalType":"address"},{"name":"_collateralToken","type":"address","internalType":"address"},{"name":"","type":"address","internalType":"address"},{"name":"","type":"bool","internalType":"bool"},{"name":"_size","type":"uint256","internalType":"uint256"},{"name":"_entryFundingRate","type":"uint256","internalType":"uint256"}],"outputs":[{"name":"","type":"uint256","internalType":"uint256"}],"stateMutability":"view"},{"type":"function","name":"getPositionFee","inputs":[{"name":"","type":"address","internalType":"address"},{"name":"","type":"address","internalType":"address"},{"name":"","type":"address","internalType":"address"},{"name":"","type":"bool","internalType":"bool"},{"name":"_sizeDelta","type":"uint256","internalType":"uint256"}],"outputs":[{"name":"","type":"uint256","internalType":"uint256"}],"stateMutability":"view"},{"type":"function","name":"getPositionKeyByIndex","inputs":[{"name":"index","type":"uint256","internalType":"uint256"}],"outputs":[{"name":"","type":"bytes32","internalType":"bytes32"}],"stateMutability":"view"},{"type":"function","name":"getPositionsAmount","inputs":[],"outputs":[{"name":"","type":"uint256","internalType":"uint256"}],"stateMutability":"view"},{"type":"function","name":"getPositionsPaginated","inputs":[{"name":"cursor","type":"uint256","internalType":"uint256"},{"name":"howMany","type":"uint256","internalType":"uint256"}],"outputs":[{"name":"","type":"bytes32[]","internalType":"bytes32[]"},{"name":"newCursor","type":"uint256","internalType":"uint256"}],"stateMutability":"view"},{"type":"function","name":"getSellUsdgFeeBasisPoints","inputs":[{"name":"_token","type":"address","internalType":"address"},{"name":"_usdgAmount","type":"uint256","internalType":"uint256"}],"outputs":[{"name":"","type":"uint256","internalType":"uint256"}],"stateMutability":"view"},{"type":"function","name":"getSwapFeeBasisPoints","inputs":[{"name":"_tokenIn","type":"address","internalType":"address"},{"name":"_tokenOut","type":"address","internalType":"address"},{"name":"_usdgAmount","type":"uint256","internalType":"uint256"}],"outputs":[{"name":"","type":"uint256","internalType":"uint256"}],"stateMutability":"view"},{"type":"function","name":"gov","inputs":[],"outputs":[{"name":"","type":"address","internalType":"address"}],"stateMutability":"view"},{"type":"function","name":"removePosition","inputs":[{"name":"pos","type":"bytes32","internalType":"bytes32"}],"outputs":[],"stateMutability":"nonpayable"},{"type":"function","name":"setGov","inputs":[{"name":"_gov","type":"address","internalType":"address"}],"outputs":[],"stateMutability":"nonpayable"},{"type":"function","name":"updateCumulativeFundingRate","inputs":[{"name":"","type":"address","internalType":"address"},{"name":"","type":"address","internalType":"address"}],"outputs":[{"name":"","type":"bool","internalType":"bool"}],"stateMutability":"nonpayable"},{"type":"function","name":"userPositions","inputs":[{"name":"","type":"bytes32","internalType":"bytes32"}],"outputs":[{"name":"account","type":"address","internalType":"address"},{"name":"collateralToken","type":"address","internalType":"address"},{"name":"indexToken","type":"address","internalType":"address"},{"name":"isLong","type":"bool","internalType":"bool"}],"stateMutability":"view"},{"type":"function","name":"validateDecreasePosition","inputs":[{"name":"","type":"address","internalType":"address"},{"name":"","type":"address","internalType":"address"},{"name":"","type":"address","internalType":"address"},{"name":"","type":"uint256","internalType":"uint256"},{"name":"","type":"uint256","internalType":"uint256"},{"name":"","type":"bool","internalType":"bool"},{"name":"","type":"address","internalType":"address"}],"outputs":[],"stateMutability":"view"},{"type":"function","name":"validateIncreasePosition","inputs":[{"name":"","type":"address","internalType":"address"},{"name":"","type":"address","internalType":"address"},{"name":"","type":"address","internalType":"address"},{"name":"","type":"uint256","internalType":"uint256"},{"name":"","type":"bool","internalType":"bool"}],"outputs":[],"stateMutability":"view"},{"type":"function","name":"validateLiquidation","inputs":[{"name":"_account","type":"address","internalType":"address"},{"name":"_collateralToken","type":"address","internalType":"address"},{"name":"_indexToken","type":"address","internalType":"address"},{"name":"_isLong","type":"bool","internalType":"bool"},{"name":"_raise","type":"bool","internalType":"bool"}],"outputs":[{"name":"","type":"uint256","internalType":"uint256"},{"name":"","type":"uint256","internalType":"uint256"}],"stateMutability":"view"},{"type":"function","name":"vault","inputs":[],"outputs":[{"name":"","type":"address","internalType":"contract IVault"}],"stateMutability":"view"}],"bytecode":{"object":"0x608060405234801561001057600080fd5b50604051611cf4380380611cf48339818101604052602081101561003357600080fd5b5051600080546001600160a01b03199081163317909155600180546001600160a01b0390931692909116919091179055611c82806100726000396000f3fe608060405234801561001057600080fd5b50600436106101125760003560e01c8063053dfe2814610117578063126082cf1461019557806312d43a51146101af5780631c35257d146101d357806337fa9836146101f05780634adeddc6146101f85780634c89b68d146102245780636be6026b14610243578063725ede311461024b57806381d11a231461029d5780638ce6adac146102f15780639d5c28fa14610335578063b1cc53ab14610379578063c7e074c3146103b1578063cfad57a2146103f1578063d54d5a9f14610417578063da13381614610476578063da76524c146104ac578063eb0835bf146104f6578063fbfa77cf14610522578063fbfded6d1461052a578063fdaf6ac31461056c575b600080fd5b61013a6004803603604081101561012d57600080fd5b50803590602001356105b0565b6040518080602001838152602001828103825284818151815260200191508051906020019060200280838360005b83811015610180578181015183820152602001610168565b50505050905001935050505060405180910390f35b61019d610662565b60408051918252519081900360200190f35b6101b7610668565b604080516001600160a01b039092168252519081900360200190f35b61019d600480360360208110156101e957600080fd5b5035610677565b61019d61068a565b61019d6004803603604081101561020e57600080fd5b506001600160a01b03813516906020013561069b565b6102416004803603602081101561023a57600080fd5b503561079b565b005b61019d610836565b6102686004803603602081101561026157600080fd5b503561083d565b604080516001600160a01b03958616815293851660208501529190931682820152911515606082015290519081900360800190f35b610241600480360360e08110156102b357600080fd5b506001600160a01b0381358116916020810135821691604082013581169160608101359160808201359160a081013515159160c09091013516610877565b610241600480360360a081101561030757600080fd5b508035906001600160a01b036020820135811691604081013582169160608201351690608001351515610880565b610241600480360360a081101561034b57600080fd5b506001600160a01b038135811691602081013582169160408201351690606081013590608001351515610971565b61019d6004803603606081101561038f57600080fd5b506001600160a01b038135811691602081013590911690604001351515610978565b61019d600480360360a08110156103c757600080fd5b506001600160a01b03813516906020810135906040810135906060810135906080013515156109fd565b6102416004803603602081101561040757600080fd5b50356001600160a01b0316610c91565b61045d600480360360a081101561042d57600080fd5b506001600160a01b0381358116916020810135821691604082013516906060810135151590608001351515610d0a565b6040805192835260208301919091528051918290030190f35b61019d6004803603606081101561048c57600080fd5b506001600160a01b038135811691602081013590911690604001356110d2565b61019d600480360360c08110156104c257600080fd5b506001600160a01b038135811691602081013582169160408201351690606081013515159060808101359060a00135611416565b61019d6004803603604081101561050c57600080fd5b506001600160a01b0381351690602001356114dc565b6101b76115d5565b6105586004803603604081101561054057600080fd5b506001600160a01b03813581169160200135166115e4565b604080519115158252519081900360200190f35b61019d600480360360a081101561058257600080fd5b506001600160a01b0381358116916020810135821691604082013516906060810135151590608001356115ec565b6060600082846105c060026116aa565b038111156105d757846105d360026116aa565b0390505b60608167ffffffffffffffff811180156105f057600080fd5b5060405190808252806020026020018201604052801561061a578160200160208202803683370190505b50905060005b828110156106575761063560028883016116b5565b60001b82828151811061064457fe5b6020908102919091010152600101610620565b509594019392505050565b61271081565b6000546001600160a01b031681565b60006106846002836116b5565b92915050565b600061069660026116aa565b905090565b60006107948383600160009054906101000a90046001600160a01b03166001600160a01b0316634d47b3046040518163ffffffff1660e01b815260040160206040518083038186803b1580156106f057600080fd5b505afa158015610704573d6000803e3d6000fd5b505050506040513d602081101561071a57600080fd5b505160015460408051637a210a2b60e01b815290516001600160a01b0390921691637a210a2b91600480820192602092909190829003018186803b15801561076157600080fd5b505afa158015610775573d6000803e3d6000fd5b505050506040513d602081101561078b57600080fd5b505160016109fd565b9392505050565b6001546001600160a01b031633146107ee576040805162461bcd60e51b815260206004820152601160248201527015985d5b1d0e881bdb9b1e481d985d5b1d607a1b604482015290519081900360640190fd5b6107f96002826116c1565b50600090815260046020526040902080546001600160a01b03199081168255600182018054909116905560020180546001600160a81b0319169055565b620f424081565b6004602052600090815260409020805460018201546002909201546001600160a01b0391821692821691811690600160a01b900460ff1684565b50505050505050565b6001546001600160a01b031633146108d3576040805162461bcd60e51b815260206004820152601160248201527015985d5b1d0e881bdb9b1e481d985d5b1d607a1b604482015290519081900360640190fd5b6108de6002866116cd565b50604080516080810182526001600160a01b039586168152938516602080860191825293861685830190815292151560608601908152600097885260049094529520925183549085166001600160a01b03199182161784559451600184018054918616918716919091179055516002909201805491511515600160a01b0260ff60a01b1993909416919094161716179055565b5050505050565b6001546040805163c65bc7b160e01b81526001600160a01b0386811660048301529151600093929092169163c65bc7b191602480820192602092909190829003018186803b1580156109c957600080fd5b505afa1580156109dd573d6000803e3d6000fd5b505050506040513d60208110156109f357600080fd5b5051949350505050565b60015460408051639f392eb360e01b815290516000926001600160a01b031691639f392eb3916004808301926020929190829003018186803b158015610a4257600080fd5b505afa158015610a56573d6000803e3d6000fd5b505050506040513d6020811015610a6c57600080fd5b5051610a79575082610c88565b60015460408051631aa4ace560e01b81526001600160a01b03898116600483015291516000939290921691631aa4ace591602480820192602092909190829003018186803b158015610aca57600080fd5b505afa158015610ade573d6000803e3d6000fd5b505050506040513d6020811015610af457600080fd5b505190506000610b0482886116d9565b905083610b2757818711610b2157610b1c8288611731565b610b24565b60005b90505b60015460408051633a05dcc160e01b81526001600160a01b038b8116600483015291516000939290921691633a05dcc191602480820192602092909190829003018186803b158015610b7857600080fd5b505afa158015610b8c573d6000803e3d6000fd5b505050506040513d6020811015610ba257600080fd5b5051905080610bb657869350505050610c88565b6000818411610bce57610bc98285611731565b610bd8565b610bd88483611731565b90506000828411610bf257610bed8385611731565b610bfc565b610bfc8484611731565b905081811015610c44576000610c1c84610c168b86611773565b906117cc565b9050898111610c3457610c2f8a82611731565b610c37565b60005b9650505050505050610c88565b6000610c556002610c1685856116d9565b905083811115610c625750825b6000610c7285610c168c85611773565b9050610c7e8b826116d9565b9750505050505050505b95945050505050565b6000546001600160a01b03163314610ce8576040805162461bcd60e51b815260206004820152601560248201527423b7bb32b93730b136329d103337b93134b23232b760591b604482015290519081900360640190fd5b600080546001600160a01b0319166001600160a01b0392909216919091179055565b600080610d15611ba3565b610d218888888861180b565b600154815160408084015160c08501518251635c07eaab60e01b81526001600160a01b038d81166004830152602482019590955260448101929092528a1515606483015260848201528151949550919092169260009283928592635c07eaab9260a480840193919291829003018186803b158015610d9e57600080fd5b505afa158015610db2573d6000803e3d6000fd5b505050506040513d6040811015610dc857600080fd5b50805160209091015185516060870151929450909250600091610df3918e918e918e918e9190611416565b9050610e10610e098d8d8d8d8a600001516115ec565b82906116d9565b905082158015610e235750818560200151105b15610e8b578715610e7b576040805162461bcd60e51b815260206004820152601f60248201527f5661756c743a206c6f737365732065786365656420636f6c6c61746572616c00604482015290519081900360640190fd5b6001965094506110c89350505050565b602085015183610ea7576020860151610ea49084611731565b90505b81811015610f13578815610f02576040805162461bcd60e51b815260206004820152601d60248201527f5661756c743a20666565732065786365656420636f6c6c61746572616c000000604482015290519081900360640190fd5b6001975095506110c8945050505050565b610f82856001600160a01b031663174d26946040518163ffffffff1660e01b815260040160206040518083038186803b158015610f4f57600080fd5b505afa158015610f63573d6000803e3d6000fd5b505050506040513d6020811015610f7957600080fd5b505183906116d9565b811015610fd7578815610fc65760405162461bcd60e51b8152600401808060200182810382526029815260200180611c036029913960400191505060405180910390fd5b506001965094506110c89350505050565b8551610fe590612710611773565b611054866001600160a01b031663ae3302c26040518163ffffffff1660e01b815260040160206040518083038186803b15801561102157600080fd5b505afa158015611035573d6000803e3d6000fd5b505050506040513d602081101561104b57600080fd5b50518390611773565b10156110bc5788156110ab576040805162461bcd60e51b815260206004820152601b60248201527a15985d5b1d0e881b585e13195d995c9859d948195e18d959591959602a1b604482015290519081900360640190fd5b506002965094506110c89350505050565b50600096509450505050505b9550959350505050565b600154604080516342b60b0360e01b81526001600160a01b0386811660048301529151600093849316916342b60b03916024808301926020929190829003018186803b15801561112157600080fd5b505afa158015611135573d6000803e3d6000fd5b505050506040513d602081101561114b57600080fd5b505180156111ce5750600154604080516342b60b0360e01b81526001600160a01b038781166004830152915191909216916342b60b03916024808301926020929190829003018186803b1580156111a157600080fd5b505afa1580156111b5573d6000803e3d6000fd5b505050506040513d60208110156111cb57600080fd5b50515b905060008161125657600160009054906101000a90046001600160a01b03166001600160a01b031663a22f23926040518163ffffffff1660e01b815260040160206040518083038186803b15801561122557600080fd5b505afa158015611239573d6000803e3d6000fd5b505050506040513d602081101561124f57600080fd5b50516112d1565b600160009054906101000a90046001600160a01b03166001600160a01b031663df73a2676040518163ffffffff1660e01b815260040160206040518083038186803b1580156112a457600080fd5b505afa1580156112b8573d6000803e3d6000fd5b505050506040513d60208110156112ce57600080fd5b50515b905060008261135957600160009054906101000a90046001600160a01b03166001600160a01b0316637a210a2b6040518163ffffffff1660e01b815260040160206040518083038186803b15801561132857600080fd5b505afa15801561133c573d6000803e3d6000fd5b505050506040513d602081101561135257600080fd5b50516113d4565b600160009054906101000a90046001600160a01b03166001600160a01b03166310eb56c26040518163ffffffff1660e01b815260040160206040518083038186803b1580156113a757600080fd5b505afa1580156113bb573d6000803e3d6000fd5b505050506040513d60208110156113d157600080fd5b50515b905060006113e68887858560016109fd565b905060006113f88888868660006109fd565b90508082116114075780611409565b815b9998505050505050505050565b600082611425575060006114d2565b6001546040805163c65bc7b160e01b81526001600160a01b03898116600483015291516000936114ac93879391169163c65bc7b191602480820192602092909190829003018186803b15801561147a57600080fd5b505afa15801561148e573d6000803e3d6000fd5b505050506040513d60208110156114a457600080fd5b505190611731565b9050806114bd5760009150506114d2565b6114ce620f4240610c168684611773565b9150505b9695505050505050565b60006107948383600160009054906101000a90046001600160a01b03166001600160a01b0316634d47b3046040518163ffffffff1660e01b815260040160206040518083038186803b15801561153157600080fd5b505afa158015611545573d6000803e3d6000fd5b505050506040513d602081101561155b57600080fd5b505160015460408051637a210a2b60e01b815290516001600160a01b0390921691637a210a2b91600480820192602092909190829003018186803b1580156115a257600080fd5b505afa1580156115b6573d6000803e3d6000fd5b505050506040513d60208110156115cc57600080fd5b505160006109fd565b6001546001600160a01b031681565b600192915050565b6000816115fb57506000610c88565b6000611693612710610c1661168c600160009054906101000a90046001600160a01b03166001600160a01b031663318bc6896040518163ffffffff1660e01b815260040160206040518083038186803b15801561165757600080fd5b505afa15801561166b573d6000803e3d6000fd5b505050506040513d602081101561168157600080fd5b505161271090611731565b8690611773565b905061169f8382611731565b979650505050505050565b600061068482611917565b6000610794838361191b565b6000610794838361197f565b60006107948383611a45565b600082820183811015610794576040805162461bcd60e51b815260206004820152601b60248201527a536166654d6174683a206164646974696f6e206f766572666c6f7760281b604482015290519081900360640190fd5b600061079483836040518060400160405280601e81526020017f536166654d6174683a207375627472616374696f6e206f766572666c6f770000815250611a8f565b60008261178257506000610684565b8282028284828161178f57fe5b04146107945760405162461bcd60e51b8152600401808060200182810382526021815260200180611c2c6021913960400191505060405180910390fd5b600061079483836040518060400160405280601a815260200179536166654d6174683a206469766973696f6e206279207a65726f60301b815250611b26565b611813611ba3565b6001546001600160a01b0316611827611ba3565b6000806000806000866001600160a01b0316634a3f088d8d8d8d8d6040518563ffffffff1660e01b815260040180856001600160a01b03168152602001846001600160a01b03168152602001836001600160a01b0316815260200182151581526020019450505050506101006040518083038186803b1580156118a957600080fd5b505afa1580156118bd573d6000803e3d6000fd5b505050506040513d6101008110156118d457600080fd5b50805160208083015160408085015160608087015160e090970151958d52938c01929092528a015288019190915260c087015250939a9950505050505050505050565b5490565b8154600090821061195d5760405162461bcd60e51b8152600401808060200182810382526022815260200180611be16022913960400191505060405180910390fd5b82600001828154811061196c57fe5b9060005260206000200154905092915050565b60008181526001830160205260408120548015611a3b57835460001980830191908101906000908790839081106119b257fe5b90600052602060002001549050808760000184815481106119cf57fe5b6000918252602080832090910192909255828152600189810190925260409020908401905586548790806119ff57fe5b60019003818190600052602060002001600090559055866001016000878152602001908152602001600020600090556001945050505050610684565b6000915050610684565b6000611a518383611b8b565b611a8757508154600181810184556000848152602080822090930184905584548482528286019093526040902091909155610684565b506000610684565b60008184841115611b1e5760405162461bcd60e51b81526004018080602001828103825283818151815260200191508051906020019080838360005b83811015611ae3578181015183820152602001611acb565b50505050905090810190601f168015611b105780820380516001836020036101000a031916815260200191505b509250505060405180910390fd5b505050900390565b60008183611b755760405162461bcd60e51b8152602060048201818152835160248401528351909283926044909101919085019080838360008315611ae3578181015183820152602001611acb565b506000838581611b8157fe5b0495945050505050565b60009081526001919091016020526040902054151590565b6040518060e0016040528060008152602001600081526020016000815260200160008152602001600081526020016000815260200160008152509056fe456e756d657261626c655365743a20696e646578206f7574206f6620626f756e64735661756c743a206c69717569646174696f6e20666565732065786365656420636f6c6c61746572616c536166654d6174683a206d756c7469706c69636174696f6e206f766572666c6f77a264697066735822122022cc0305033c711aab01a5b4b8bc04e52e4ff4a54a45a79d1d02391a5b49775c64736f6c634300060c0033","linkReferences":{}},"methodIdentifiers":{"BASIS_POINTS_DIVISOR()":"126082cf","FUNDING_RATE_PRECISION()":"6be6026b","addPosition(bytes32,address,address,address,bool)":"8ce6adac","getBuyUsdgFeeBasisPoints(address,uint256)":"4adeddc6","getEntryFundingRate(address,address,bool)":"b1cc53ab","getFeeBasisPoints(address,uint256,uint256,uint256,bool)":"c7e074c3","getFundingFee(address,address,address,bool,uint256,uint256)":"da76524c","getPositionFee(address,address,address,bool,uint256)":"fdaf6ac3","getPositionKeyByIndex(uint256)":"1c35257d","getPositionsAmount()":"37fa9836","getPositionsPaginated(uint256,uint256)":"053dfe28","getSellUsdgFeeBasisPoints(address,uint256)":"eb0835bf","getSwapFeeBasisPoints(address,address,uint256)":"da133816","gov()":"12d43a51","removePosition(bytes32)":"4c89b68d","setGov(address)":"cfad57a2","updateCumulativeFundingRate(address,address)":"fbfded6d","userPositions(bytes32)":"725ede31","validateDecreasePosition(address,address,address,uint256,uint256,bool,address)":"81d11a23","validateIncreasePosition(address,address,address,uint256,bool)":"9d5c28fa","validateLiquidation(address,address,address,bool,bool)":"d54d5a9f","vault()":"fbfa77cf"},"id":51}