{"abi":[{"type":"constructor","inputs":[{"name":"_vault","type":"address","internalType":"contract IVault"}],"stateMutability":"nonpayable"},{"type":"function","name":"BASIS_POINTS_DIVISOR","inputs":[],"outputs":[{"name":"","type":"uint256","internalType":"uint256"}],"stateMutability":"view"},{"type":"function","name":"FUNDING_RATE_PRECISION","inputs":[],"outputs":[{"name":"","type":"uint256","internalType":"uint256"}],"stateMutability":"view"},{"type":"function","name":"addPosition","inputs":[{"name":"pos","type":"bytes32","internalType":"bytes32"},{"name":"_account","type":"address","internalType":"address"},{"name":"_collateralToken","type":"address","internalType":"address"},{"name":"_indexToken","type":"address","internalType":"address"},{"name":"_isLong","type":"bool","internalType":"bool"}],"outputs":[],"stateMutability":"nonpayable"},{"type":"function","name":"getBuyUsdgFeeBasisPoints","inputs":[{"name":"_token","type":"address","internalType":"address"},{"name":"_usdgAmount","type":"uint256","internalType":"uint256"}],"outputs":[{"name":"","type":"uint256","internalType":"uint256"}],"stateMutability":"view"},{"type":"function","name":"getEntryFundingRate","inputs":[{"name":"_collateralToken","type":"address","internalType":"address"},{"name":"","type":"address","internalType":"address"},{"name":"","type":"bool","internalType":"bool"}],"outputs":[{"name":"","type":"uint256","internalType":"uint256"}],"stateMutability":"view"},{"type":"function","name":"getFeeBasisPoints","inputs":[{"name":"_token","type":"address","internalType":"address"},{"name":"_usdgDelta","type":"uint256","internalType":"uint256"},{"name":"_feeBasisPoints","type":"uint256","internalType":"uint256"},{"name":"_taxBasisPoints","type":"uint256","internalType":"uint256"},{"name":"_increment","type":"bool","internalType":"bool"}],"outputs":[{"name":"","type":"uint256","internalType":"uint256"}],"stateMutability":"view"},{"type":"function","name":"getFundingFee","inputs":[{"name":"","type":"address","internalType":"address"},{"name":"_collateralToken","type":"address","internalType":"address"},{"name":"","type":"address","internalType":"address"},{"name":"","type":"bool","internalType":"bool"},{"name":"_size","type":"uint256","internalType":"uint256"},{"name":"_entryFundingRate","type":"uint256","internalType":"uint256"}],"outputs":[{"name":"","type":"uint256","internalType":"uint256"}],"stateMutability":"view"},{"type":"function","name":"getPositionFee","inputs":[{"name":"","type":"address","internalType":"address"},{"name":"","type":"address","internalType":"address"},{"name":"","type":"address","internalType":"address"},{"name":"","type":"bool","internalType":"bool"},{"name":"_sizeDelta","type":"uint256","internalType":"uint256"}],"outputs":[{"name":"","type":"uint256","internalType":"uint256"}],"stateMutability":"view"},{"type":"function","name":"getPositionKeyByIndex","inputs":[{"name":"index","type":"uint256","internalType":"uint256"}],"outputs":[{"name":"","type":"bytes32","internalType":"bytes32"}],"stateMutability":"view"},{"type":"function","name":"getPositionsAmount","inputs":[],"outputs":[{"name":"","type":"uint256","internalType":"uint256"}],"stateMutability":"view"},{"type":"function","name":"getPositionsPaginated","inputs":[{"name":"cursor","type":"uint256","internalType":"uint256"},{"name":"howMany","type":"uint256","internalType":"uint256"}],"outputs":[{"name":"","type":"bytes32[]","internalType":"bytes32[]"},{"name":"newCursor","type":"uint256","internalType":"uint256"}],"stateMutability":"view"},{"type":"function","name":"getSellUsdgFeeBasisPoints","inputs":[{"name":"_token","type":"address","internalType":"address"},{"name":"_usdgAmount","type":"uint256","internalType":"uint256"}],"outputs":[{"name":"","type":"uint256","internalType":"uint256"}],"stateMutability":"view"},{"type":"function","name":"getSwapFeeBasisPoints","inputs":[{"name":"_tokenIn","type":"address","internalType":"address"},{"name":"_tokenOut","type":"address","internalType":"address"},{"name":"_usdgAmount","type":"uint256","internalType":"uint256"}],"outputs":[{"name":"","type":"uint256","internalType":"uint256"}],"stateMutability":"view"},{"type":"function","name":"removePosition","inputs":[{"name":"pos","type":"bytes32","internalType":"bytes32"}],"outputs":[],"stateMutability":"nonpayable"},{"type":"function","name":"updateCumulativeFundingRate","inputs":[{"name":"","type":"address","internalType":"address"},{"name":"","type":"address","internalType":"address"}],"outputs":[{"name":"","type":"bool","internalType":"bool"}],"stateMutability":"nonpayable"},{"type":"function","name":"userPositions","inputs":[{"name":"","type":"bytes32","internalType":"bytes32"}],"outputs":[{"name":"account","type":"address","internalType":"address"},{"name":"collateralToken","type":"address","internalType":"address"},{"name":"indexToken","type":"address","internalType":"address"},{"name":"isLong","type":"bool","internalType":"bool"}],"stateMutability":"view"},{"type":"function","name":"validateDecreasePosition","inputs":[{"name":"","type":"address","internalType":"address"},{"name":"","type":"address","internalType":"address"},{"name":"","type":"address","internalType":"address"},{"name":"","type":"uint256","internalType":"uint256"},{"name":"","type":"uint256","internalType":"uint256"},{"name":"","type":"bool","internalType":"bool"},{"name":"","type":"address","internalType":"address"}],"outputs":[],"stateMutability":"view"},{"type":"function","name":"validateIncreasePosition","inputs":[{"name":"","type":"address","internalType":"address"},{"name":"","type":"address","internalType":"address"},{"name":"","type":"address","internalType":"address"},{"name":"","type":"uint256","internalType":"uint256"},{"name":"","type":"bool","internalType":"bool"}],"outputs":[],"stateMutability":"view"},{"type":"function","name":"validateLiquidation","inputs":[{"name":"_account","type":"address","internalType":"address"},{"name":"_collateralToken","type":"address","internalType":"address"},{"name":"_indexToken","type":"address","internalType":"address"},{"name":"_isLong","type":"bool","internalType":"bool"},{"name":"_raise","type":"bool","internalType":"bool"}],"outputs":[{"name":"","type":"uint256","internalType":"uint256"},{"name":"","type":"uint256","internalType":"uint256"}],"stateMutability":"view"},{"type":"function","name":"vault","inputs":[],"outputs":[{"name":"","type":"address","internalType":"contract IVault"}],"stateMutability":"view"}],"bytecode":{"object":"0x60a060405234801561001057600080fd5b50604051611e58380380611e588339818101604052602081101561003357600080fd5b5051606081901b6001600160601b0319166080526001600160a01b0316611d8d6100cb6000398061064f52806106ec5280610777528061087e52806109905280610a335280610ac55280610b915280610d7952806110fc528061119c528061123f52806112c9528061135852806113e252806114bf5280611595528061163252806116ad52806116f6528061190b5250611d8d6000f3fe608060405234801561001057600080fd5b50600436106100fc5760003560e01c8063053dfe2814610101578063126082cf1461017f5780631c35257d1461019957806337fa9836146101b65780634adeddc6146101be5780634c89b68d146101ea5780636be6026b14610209578063725ede311461021157806381d11a23146102635780638ce6adac146102b75780639d5c28fa146102fb578063b1cc53ab1461033f578063c7e074c314610377578063d54d5a9f146103b7578063da13381614610416578063da76524c1461044c578063eb0835bf14610496578063fbfa77cf146104c2578063fbfded6d146104e6578063fdaf6ac314610528575b600080fd5b6101246004803603604081101561011757600080fd5b508035906020013561056c565b6040518080602001838152602001828103825284818151815260200191508051906020019060200280838360005b8381101561016a578181015183820152602001610152565b50505050905001935050505060405180910390f35b61018761061d565b60408051918252519081900360200190f35b610187600480360360208110156101af57600080fd5b5035610623565b610187610635565b610187600480360360408110156101d457600080fd5b506001600160a01b038135169060200135610646565b6102076004803603602081101561020057600080fd5b503561076c565b005b610187610826565b61022e6004803603602081101561022757600080fd5b503561082d565b604080516001600160a01b03958616815293851660208501529190931682820152911515606082015290519081900360800190f35b610207600480360360e081101561027957600080fd5b506001600160a01b0381358116916020810135821691604082013581169160608101359160808201359160a081013515159160c0909101351661086a565b610207600480360360a08110156102cd57600080fd5b508035906001600160a01b036020820135811691604081013582169160608201351690608001351515610873565b610207600480360360a081101561031157600080fd5b506001600160a01b038135811691602081013582169160408201351690606081013590608001351515610985565b6101876004803603606081101561035557600080fd5b506001600160a01b03813581169160208101359091169060400135151561098c565b610187600480360360a081101561038d57600080fd5b506001600160a01b0381351690602081013590604081013590606081013590608001351515610a2f565b6103fd600480360360a08110156103cd57600080fd5b506001600160a01b0381358116916020810135821691604082013516906060810135151590608001351515610d15565b6040805192835260208301919091528051918290030190f35b6101876004803603606081101561042c57600080fd5b506001600160a01b038135811691602081013590911690604001356110f7565b610187600480360360c081101561046257600080fd5b506001600160a01b038135811691602081013582169160408201351690606081013515159060808101359060a001356114a8565b610187600480360360408110156104ac57600080fd5b506001600160a01b03813516906020013561158c565b6104ca6116ab565b604080516001600160a01b039092168252519081900360200190f35b610514600480360360408110156104fc57600080fd5b506001600160a01b03813581169160200135166116cf565b604080519115158252519081900360200190f35b610187600480360360a081101561053e57600080fd5b506001600160a01b0381358116916020810135821691604082013516906060810135151590608001356116d7565b60606000828461057b836117a0565b03811115610592578461058e60006117a0565b0390505b60608167ffffffffffffffff811180156105ab57600080fd5b506040519080825280602002602001820160405280156105d5578160200160208202803683370190505b50905060005b82811015610612576105f060008883016117ab565b60001b8282815181106105ff57fe5b60209081029190910101526001016105db565b509594019392505050565b61271081565b600061062f81836117ab565b92915050565b600061064160006117a0565b905090565b600061076583837f00000000000000000000000000000000000000000000000000000000000000006001600160a01b0316634d47b3046040518163ffffffff1660e01b815260040160206040518083038186803b1580156106a657600080fd5b505afa1580156106ba573d6000803e3d6000fd5b505050506040513d60208110156106d057600080fd5b505160408051637a210a2b60e01b815290516001600160a01b037f00000000000000000000000000000000000000000000000000000000000000001691637a210a2b916004808301926020929190829003018186803b15801561073257600080fd5b505afa158015610746573d6000803e3d6000fd5b505050506040513d602081101561075c57600080fd5b50516001610a2f565b9392505050565b336001600160a01b037f000000000000000000000000000000000000000000000000000000000000000016146107dd576040805162461bcd60e51b815260206004820152601160248201527015985d5b1d0e881bdb9b1e481d985d5b1d607a1b604482015290519081900360640190fd5b6107e86000826117b7565b50600090815260026020819052604090912080546001600160a01b0319908116825560018201805490911690550180546001600160a81b0319169055565b620f424081565b60026020819052600091825260409091208054600182015491909201546001600160a01b039283169291821691811690600160a01b900460ff1684565b50505050505050565b336001600160a01b037f000000000000000000000000000000000000000000000000000000000000000016146108e4576040805162461bcd60e51b815260206004820152601160248201527015985d5b1d0e881bdb9b1e481d985d5b1d607a1b604482015290519081900360640190fd5b6108ef6000866117c3565b50604080516080810182526001600160a01b039586168152938516602080860191825293861685830190815292151560608601908152600097885260029485905291909620935184549086166001600160a01b03199182161785559551600185018054918716918816919091179055905192909101805491511515600160a01b0260ff60a01b1993909416919094161716179055565b5050505050565b60007f00000000000000000000000000000000000000000000000000000000000000006001600160a01b031663c65bc7b1856040518263ffffffff1660e01b815260040180826001600160a01b0316815260200191505060206040518083038186803b1580156109fb57600080fd5b505afa158015610a0f573d6000803e3d6000fd5b505050506040513d6020811015610a2557600080fd5b5051949350505050565b60007f00000000000000000000000000000000000000000000000000000000000000006001600160a01b0316639f392eb36040518163ffffffff1660e01b815260040160206040518083038186803b158015610a8a57600080fd5b505afa158015610a9e573d6000803e3d6000fd5b505050506040513d6020811015610ab457600080fd5b5051610ac1575082610d0c565b60007f00000000000000000000000000000000000000000000000000000000000000006001600160a01b0316631aa4ace5886040518263ffffffff1660e01b815260040180826001600160a01b0316815260200191505060206040518083038186803b158015610b3057600080fd5b505afa158015610b44573d6000803e3d6000fd5b505050506040513d6020811015610b5a57600080fd5b505190506000610b6a82886117cf565b905083610b8d57818711610b8757610b828288611827565b610b8a565b60005b90505b60007f00000000000000000000000000000000000000000000000000000000000000006001600160a01b0316633a05dcc18a6040518263ffffffff1660e01b815260040180826001600160a01b0316815260200191505060206040518083038186803b158015610bfc57600080fd5b505afa158015610c10573d6000803e3d6000fd5b505050506040513d6020811015610c2657600080fd5b5051905080610c3a57869350505050610d0c565b6000818411610c5257610c4d8285611827565b610c5c565b610c5c8483611827565b90506000828411610c7657610c718385611827565b610c80565b610c808484611827565b905081811015610cc8576000610ca084610c9a8b86611869565b906118c2565b9050898111610cb857610cb38a82611827565b610cbb565b60005b9650505050505050610d0c565b6000610cd96002610c9a85856117cf565b905083811115610ce65750825b6000610cf685610c9a8c85611869565b9050610d028b826117cf565b9750505050505050505b95945050505050565b600080610d20611cae565b610d2c88888888611901565b805160408083015160c08401518251635c07eaab60e01b81526001600160a01b038c81166004830152602482019590955260448101929092528915156064830152608482015281519394507f000000000000000000000000000000000000000000000000000000000000000093600093849390861692635c07eaab9260a48083019392829003018186803b158015610dc357600080fd5b505afa158015610dd7573d6000803e3d6000fd5b505050506040513d6040811015610ded57600080fd5b50805160209091015185516060870151929450909250600091610e18918e918e918e918e91906114a8565b9050610e35610e2e8d8d8d8d8a600001516116d7565b82906117cf565b905082158015610e485750818560200151105b15610eb0578715610ea0576040805162461bcd60e51b815260206004820152601f60248201527f5661756c743a206c6f737365732065786365656420636f6c6c61746572616c00604482015290519081900360640190fd5b6001965094506110ed9350505050565b602085015183610ecc576020860151610ec99084611827565b90505b81811015610f38578815610f27576040805162461bcd60e51b815260206004820152601d60248201527f5661756c743a20666565732065786365656420636f6c6c61746572616c000000604482015290519081900360640190fd5b6001975095506110ed945050505050565b610fa7856001600160a01b031663174d26946040518163ffffffff1660e01b815260040160206040518083038186803b158015610f7457600080fd5b505afa158015610f88573d6000803e3d6000fd5b505050506040513d6020811015610f9e57600080fd5b505183906117cf565b811015610ffc578815610feb5760405162461bcd60e51b8152600401808060200182810382526029815260200180611d0e6029913960400191505060405180910390fd5b506001965094506110ed9350505050565b855161100a90612710611869565b611079866001600160a01b031663ae3302c26040518163ffffffff1660e01b815260040160206040518083038186803b15801561104657600080fd5b505afa15801561105a573d6000803e3d6000fd5b505050506040513d602081101561107057600080fd5b50518390611869565b10156110e15788156110d0576040805162461bcd60e51b815260206004820152601b60248201527a15985d5b1d0e881b585e13195d995c9859d948195e18d959591959602a1b604482015290519081900360640190fd5b506002965094506110ed9350505050565b50600096509450505050505b9550959350505050565b6000807f00000000000000000000000000000000000000000000000000000000000000006001600160a01b03166342b60b03866040518263ffffffff1660e01b815260040180826001600160a01b0316815260200191505060206040518083038186803b15801561116757600080fd5b505afa15801561117b573d6000803e3d6000fd5b505050506040513d602081101561119157600080fd5b5051801561123457507f00000000000000000000000000000000000000000000000000000000000000006001600160a01b03166342b60b03856040518263ffffffff1660e01b815260040180826001600160a01b0316815260200191505060206040518083038186803b15801561120757600080fd5b505afa15801561121b573d6000803e3d6000fd5b505050506040513d602081101561123157600080fd5b50515b90506000816112c7577f00000000000000000000000000000000000000000000000000000000000000006001600160a01b031663a22f23926040518163ffffffff1660e01b815260040160206040518083038186803b15801561129657600080fd5b505afa1580156112aa573d6000803e3d6000fd5b505050506040513d60208110156112c057600080fd5b505161134d565b7f00000000000000000000000000000000000000000000000000000000000000006001600160a01b031663df73a2676040518163ffffffff1660e01b815260040160206040518083038186803b15801561132057600080fd5b505afa158015611334573d6000803e3d6000fd5b505050506040513d602081101561134a57600080fd5b50515b90506000826113e0577f00000000000000000000000000000000000000000000000000000000000000006001600160a01b0316637a210a2b6040518163ffffffff1660e01b815260040160206040518083038186803b1580156113af57600080fd5b505afa1580156113c3573d6000803e3d6000fd5b505050506040513d60208110156113d957600080fd5b5051611466565b7f00000000000000000000000000000000000000000000000000000000000000006001600160a01b03166310eb56c26040518163ffffffff1660e01b815260040160206040518083038186803b15801561143957600080fd5b505afa15801561144d573d6000803e3d6000fd5b505050506040513d602081101561146357600080fd5b50515b90506000611478888785856001610a2f565b9050600061148a888886866000610a2f565b9050808211611499578061149b565b815b9998505050505050505050565b6000826114b757506000611582565b600061155c837f00000000000000000000000000000000000000000000000000000000000000006001600160a01b031663c65bc7b18a6040518263ffffffff1660e01b815260040180826001600160a01b0316815260200191505060206040518083038186803b15801561152a57600080fd5b505afa15801561153e573d6000803e3d6000fd5b505050506040513d602081101561155457600080fd5b505190611827565b90508061156d576000915050611582565b61157e620f4240610c9a8684611869565b9150505b9695505050505050565b600061076583837f00000000000000000000000000000000000000000000000000000000000000006001600160a01b0316634d47b3046040518163ffffffff1660e01b815260040160206040518083038186803b1580156115ec57600080fd5b505afa158015611600573d6000803e3d6000fd5b505050506040513d602081101561161657600080fd5b505160408051637a210a2b60e01b815290516001600160a01b037f00000000000000000000000000000000000000000000000000000000000000001691637a210a2b916004808301926020929190829003018186803b15801561167857600080fd5b505afa15801561168c573d6000803e3d6000fd5b505050506040513d60208110156116a257600080fd5b50516000610a2f565b7f000000000000000000000000000000000000000000000000000000000000000081565b600192915050565b6000816116e657506000610d0c565b6000611789612710610c9a6117827f00000000000000000000000000000000000000000000000000000000000000006001600160a01b031663318bc6896040518163ffffffff1660e01b815260040160206040518083038186803b15801561174d57600080fd5b505afa158015611761573d6000803e3d6000fd5b505050506040513d602081101561177757600080fd5b505161271090611827565b8690611869565b90506117958382611827565b979650505050505050565b600061062f82611a22565b60006107658383611a26565b60006107658383611a8a565b60006107658383611b50565b600082820183811015610765576040805162461bcd60e51b815260206004820152601b60248201527a536166654d6174683a206164646974696f6e206f766572666c6f7760281b604482015290519081900360640190fd5b600061076583836040518060400160405280601e81526020017f536166654d6174683a207375627472616374696f6e206f766572666c6f770000815250611b9a565b6000826118785750600061062f565b8282028284828161188557fe5b04146107655760405162461bcd60e51b8152600401808060200182810382526021815260200180611d376021913960400191505060405180910390fd5b600061076583836040518060400160405280601a815260200179536166654d6174683a206469766973696f6e206279207a65726f60301b815250611c31565b611909611cae565b7f0000000000000000000000000000000000000000000000000000000000000000611932611cae565b6000806000806000866001600160a01b0316634a3f088d8d8d8d8d6040518563ffffffff1660e01b815260040180856001600160a01b03168152602001846001600160a01b03168152602001836001600160a01b0316815260200182151581526020019450505050506101006040518083038186803b1580156119b457600080fd5b505afa1580156119c8573d6000803e3d6000fd5b505050506040513d6101008110156119df57600080fd5b50805160208083015160408085015160608087015160e090970151958d52938c01929092528a015288019190915260c087015250939a9950505050505050505050565b5490565b81546000908210611a685760405162461bcd60e51b8152600401808060200182810382526022815260200180611cec6022913960400191505060405180910390fd5b826000018281548110611a7757fe5b9060005260206000200154905092915050565b60008181526001830160205260408120548015611b465783546000198083019190810190600090879083908110611abd57fe5b9060005260206000200154905080876000018481548110611ada57fe5b600091825260208083209091019290925582815260018981019092526040902090840190558654879080611b0a57fe5b6001900381819060005260206000200160009055905586600101600087815260200190815260200160002060009055600194505050505061062f565b600091505061062f565b6000611b5c8383611c96565b611b925750815460018181018455600084815260208082209093018490558454848252828601909352604090209190915561062f565b50600061062f565b60008184841115611c295760405162461bcd60e51b81526004018080602001828103825283818151815260200191508051906020019080838360005b83811015611bee578181015183820152602001611bd6565b50505050905090810190601f168015611c1b5780820380516001836020036101000a031916815260200191505b509250505060405180910390fd5b505050900390565b60008183611c805760405162461bcd60e51b8152602060048201818152835160248401528351909283926044909101919085019080838360008315611bee578181015183820152602001611bd6565b506000838581611c8c57fe5b0495945050505050565b60009081526001919091016020526040902054151590565b6040518060e0016040528060008152602001600081526020016000815260200160008152602001600081526020016000815260200160008152509056fe456e756d657261626c655365743a20696e646578206f7574206f6620626f756e64735661756c743a206c69717569646174696f6e20666565732065786365656420636f6c6c61746572616c536166654d6174683a206d756c7469706c69636174696f6e206f766572666c6f77a26469706673582212202b9edaab395c57912c9e332d5045557d0f4b208f35851874fd3cc08744724bbe64736f6c634300060c0033","linkReferences":{}},"methodIdentifiers":{"BASIS_POINTS_DIVISOR()":"126082cf","FUNDING_RATE_PRECISION()":"6be6026b","addPosition(bytes32,address,address,address,bool)":"8ce6adac","getBuyUsdgFeeBasisPoints(address,uint256)":"4adeddc6","getEntryFundingRate(address,address,bool)":"b1cc53ab","getFeeBasisPoints(address,uint256,uint256,uint256,bool)":"c7e074c3","getFundingFee(address,address,address,bool,uint256,uint256)":"da76524c","getPositionFee(address,address,address,bool,uint256)":"fdaf6ac3","getPositionKeyByIndex(uint256)":"1c35257d","getPositionsAmount()":"37fa9836","getPositionsPaginated(uint256,uint256)":"053dfe28","getSellUsdgFeeBasisPoints(address,uint256)":"eb0835bf","getSwapFeeBasisPoints(address,address,uint256)":"da133816","removePosition(bytes32)":"4c89b68d","updateCumulativeFundingRate(address,address)":"fbfded6d","userPositions(bytes32)":"725ede31","validateDecreasePosition(address,address,address,uint256,uint256,bool,address)":"81d11a23","validateIncreasePosition(address,address,address,uint256,bool)":"9d5c28fa","validateLiquidation(address,address,address,bool,bool)":"d54d5a9f","vault()":"fbfa77cf"},"id":44}