{"abi":[{"type":"constructor","inputs":[{"name":"_vault","type":"address","internalType":"contract IVault"}],"stateMutability":"nonpayable"},{"type":"function","name":"BASIS_POINTS_DIVISOR","inputs":[],"outputs":[{"name":"","type":"uint256","internalType":"uint256"}],"stateMutability":"view"},{"type":"function","name":"FUNDING_RATE_PRECISION","inputs":[],"outputs":[{"name":"","type":"uint256","internalType":"uint256"}],"stateMutability":"view"},{"type":"function","name":"addPosition","inputs":[{"name":"pos","type":"bytes32","internalType":"bytes32"},{"name":"_account","type":"address","internalType":"address"},{"name":"_collateralToken","type":"address","internalType":"address"},{"name":"_indexToken","type":"address","internalType":"address"},{"name":"_isLong","type":"bool","internalType":"bool"}],"outputs":[],"stateMutability":"nonpayable"},{"type":"function","name":"getBuyUsdgFeeBasisPoints","inputs":[{"name":"_token","type":"address","internalType":"address"},{"name":"_usdgAmount","type":"uint256","internalType":"uint256"}],"outputs":[{"name":"","type":"uint256","internalType":"uint256"}],"stateMutability":"view"},{"type":"function","name":"getEntryFundingRate","inputs":[{"name":"_collateralToken","type":"address","internalType":"address"},{"name":"","type":"address","internalType":"address"},{"name":"","type":"bool","internalType":"bool"}],"outputs":[{"name":"","type":"uint256","internalType":"uint256"}],"stateMutability":"view"},{"type":"function","name":"getFeeBasisPoints","inputs":[{"name":"_token","type":"address","internalType":"address"},{"name":"_usdgDelta","type":"uint256","internalType":"uint256"},{"name":"_feeBasisPoints","type":"uint256","internalType":"uint256"},{"name":"_taxBasisPoints","type":"uint256","internalType":"uint256"},{"name":"_increment","type":"bool","internalType":"bool"}],"outputs":[{"name":"","type":"uint256","internalType":"uint256"}],"stateMutability":"view"},{"type":"function","name":"getFundingFee","inputs":[{"name":"","type":"address","internalType":"address"},{"name":"_collateralToken","type":"address","internalType":"address"},{"name":"","type":"address","internalType":"address"},{"name":"","type":"bool","internalType":"bool"},{"name":"_size","type":"uint256","internalType":"uint256"},{"name":"_entryFundingRate","type":"uint256","internalType":"uint256"}],"outputs":[{"name":"","type":"uint256","internalType":"uint256"}],"stateMutability":"view"},{"type":"function","name":"getPositionFee","inputs":[{"name":"","type":"address","internalType":"address"},{"name":"","type":"address","internalType":"address"},{"name":"","type":"address","internalType":"address"},{"name":"","type":"bool","internalType":"bool"},{"name":"_sizeDelta","type":"uint256","internalType":"uint256"}],"outputs":[{"name":"","type":"uint256","internalType":"uint256"}],"stateMutability":"view"},{"type":"function","name":"getPositionKeyByIndex","inputs":[{"name":"index","type":"uint256","internalType":"uint256"}],"outputs":[{"name":"","type":"bytes32","internalType":"bytes32"}],"stateMutability":"view"},{"type":"function","name":"getPositionsAmount","inputs":[],"outputs":[{"name":"","type":"uint256","internalType":"uint256"}],"stateMutability":"view"},{"type":"function","name":"getPositionsPaginated","inputs":[{"name":"cursor","type":"uint256","internalType":"uint256"},{"name":"howMany","type":"uint256","internalType":"uint256"}],"outputs":[{"name":"","type":"bytes32[]","internalType":"bytes32[]"},{"name":"newCursor","type":"uint256","internalType":"uint256"}],"stateMutability":"view"},{"type":"function","name":"getSellUsdgFeeBasisPoints","inputs":[{"name":"_token","type":"address","internalType":"address"},{"name":"_usdgAmount","type":"uint256","internalType":"uint256"}],"outputs":[{"name":"","type":"uint256","internalType":"uint256"}],"stateMutability":"view"},{"type":"function","name":"getSwapFeeBasisPoints","inputs":[{"name":"_tokenIn","type":"address","internalType":"address"},{"name":"_tokenOut","type":"address","internalType":"address"},{"name":"_usdgAmount","type":"uint256","internalType":"uint256"}],"outputs":[{"name":"","type":"uint256","internalType":"uint256"}],"stateMutability":"view"},{"type":"function","name":"removePosition","inputs":[{"name":"pos","type":"bytes32","internalType":"bytes32"}],"outputs":[],"stateMutability":"nonpayable"},{"type":"function","name":"updateCumulativeFundingRate","inputs":[{"name":"","type":"address","internalType":"address"},{"name":"","type":"address","internalType":"address"}],"outputs":[{"name":"","type":"bool","internalType":"bool"}],"stateMutability":"nonpayable"},{"type":"function","name":"userPositions","inputs":[{"name":"","type":"bytes32","internalType":"bytes32"}],"outputs":[{"name":"account","type":"address","internalType":"address"},{"name":"collateralToken","type":"address","internalType":"address"},{"name":"indexToken","type":"address","internalType":"address"},{"name":"isLong","type":"bool","internalType":"bool"}],"stateMutability":"view"},{"type":"function","name":"validateDecreasePosition","inputs":[{"name":"","type":"address","internalType":"address"},{"name":"","type":"address","internalType":"address"},{"name":"","type":"address","internalType":"address"},{"name":"","type":"uint256","internalType":"uint256"},{"name":"","type":"uint256","internalType":"uint256"},{"name":"","type":"bool","internalType":"bool"},{"name":"","type":"address","internalType":"address"}],"outputs":[],"stateMutability":"view"},{"type":"function","name":"validateIncreasePosition","inputs":[{"name":"","type":"address","internalType":"address"},{"name":"","type":"address","internalType":"address"},{"name":"","type":"address","internalType":"address"},{"name":"","type":"uint256","internalType":"uint256"},{"name":"","type":"bool","internalType":"bool"}],"outputs":[],"stateMutability":"view"},{"type":"function","name":"validateLiquidation","inputs":[{"name":"_account","type":"address","internalType":"address"},{"name":"_collateralToken","type":"address","internalType":"address"},{"name":"_indexToken","type":"address","internalType":"address"},{"name":"_isLong","type":"bool","internalType":"bool"},{"name":"_raise","type":"bool","internalType":"bool"}],"outputs":[{"name":"","type":"uint256","internalType":"uint256"},{"name":"","type":"uint256","internalType":"uint256"}],"stateMutability":"view"},{"type":"function","name":"vault","inputs":[],"outputs":[{"name":"","type":"address","internalType":"contract IVault"}],"stateMutability":"view"},{"type":"event","name":"PositionAdded","inputs":[{"name":"key","type":"bytes32","indexed":true,"internalType":"bytes32"},{"name":"account","type":"address","indexed":true,"internalType":"address"},{"name":"collateralToken","type":"address","indexed":true,"internalType":"address"},{"name":"indexToken","type":"address","indexed":false,"internalType":"address"},{"name":"isLong","type":"bool","indexed":false,"internalType":"bool"}],"anonymous":false},{"type":"event","name":"PositionRemoved","inputs":[{"name":"key","type":"bytes32","indexed":true,"internalType":"bytes32"}],"anonymous":false}],"bytecode":{"object":"0x60a060405234801561001057600080fd5b50604051611f4d380380611f4d8339818101604052602081101561003357600080fd5b5051606081901b6001600160601b0319166080526001600160a01b0316611e826100cb6000398061064f52806106ec528061077752806108a75280610a855280610b285280610bba5280610c865280610e6e52806111f15280611291528061133452806113be528061144d52806114d752806115b4528061168a528061172752806117a252806117eb5280611a005250611e826000f3fe608060405234801561001057600080fd5b50600436106100fc5760003560e01c8063053dfe2814610101578063126082cf1461017f5780631c35257d1461019957806337fa9836146101b65780634adeddc6146101be5780634c89b68d146101ea5780636be6026b14610209578063725ede311461021157806381d11a23146102635780638ce6adac146102b75780639d5c28fa146102fb578063b1cc53ab1461033f578063c7e074c314610377578063d54d5a9f146103b7578063da13381614610416578063da76524c1461044c578063eb0835bf14610496578063fbfa77cf146104c2578063fbfded6d146104e6578063fdaf6ac314610528575b600080fd5b6101246004803603604081101561011757600080fd5b508035906020013561056c565b6040518080602001838152602001828103825284818151815260200191508051906020019060200280838360005b8381101561016a578181015183820152602001610152565b50505050905001935050505060405180910390f35b61018761061d565b60408051918252519081900360200190f35b610187600480360360208110156101af57600080fd5b5035610623565b610187610635565b610187600480360360408110156101d457600080fd5b506001600160a01b038135169060200135610646565b6102076004803603602081101561020057600080fd5b503561076c565b005b61018761084f565b61022e6004803603602081101561022757600080fd5b5035610856565b604080516001600160a01b03958616815293851660208501529190931682820152911515606082015290519081900360800190f35b610207600480360360e081101561027957600080fd5b506001600160a01b0381358116916020810135821691604082013581169160608101359160808201359160a081013515159160c09091013516610893565b610207600480360360a08110156102cd57600080fd5b508035906001600160a01b03602082013581169160408101358216916060820135169060800135151561089c565b610207600480360360a081101561031157600080fd5b506001600160a01b038135811691602081013582169160408201351690606081013590608001351515610a7a565b6101876004803603606081101561035557600080fd5b506001600160a01b038135811691602081013590911690604001351515610a81565b610187600480360360a081101561038d57600080fd5b506001600160a01b0381351690602081013590604081013590606081013590608001351515610b24565b6103fd600480360360a08110156103cd57600080fd5b506001600160a01b0381358116916020810135821691604082013516906060810135151590608001351515610e0a565b6040805192835260208301919091528051918290030190f35b6101876004803603606081101561042c57600080fd5b506001600160a01b038135811691602081013590911690604001356111ec565b610187600480360360c081101561046257600080fd5b506001600160a01b038135811691602081013582169160408201351690606081013515159060808101359060a0013561159d565b610187600480360360408110156104ac57600080fd5b506001600160a01b038135169060200135611681565b6104ca6117a0565b604080516001600160a01b039092168252519081900360200190f35b610514600480360360408110156104fc57600080fd5b506001600160a01b03813581169160200135166117c4565b604080519115158252519081900360200190f35b610187600480360360a081101561053e57600080fd5b506001600160a01b0381358116916020810135821691604082013516906060810135151590608001356117cc565b60606000828461057b83611895565b03811115610592578461058e6000611895565b0390505b60608167ffffffffffffffff811180156105ab57600080fd5b506040519080825280602002602001820160405280156105d5578160200160208202803683370190505b50905060005b82811015610612576105f060008883016118a0565b60001b8282815181106105ff57fe5b60209081029190910101526001016105db565b509594019392505050565b61271081565b600061062f81836118a0565b92915050565b60006106416000611895565b905090565b600061076583837f00000000000000000000000000000000000000000000000000000000000000006001600160a01b0316634d47b3046040518163ffffffff1660e01b815260040160206040518083038186803b1580156106a657600080fd5b505afa1580156106ba573d6000803e3d6000fd5b505050506040513d60208110156106d057600080fd5b505160408051637a210a2b60e01b815290516001600160a01b037f00000000000000000000000000000000000000000000000000000000000000001691637a210a2b916004808301926020929190829003018186803b15801561073257600080fd5b505afa158015610746573d6000803e3d6000fd5b505050506040513d602081101561075c57600080fd5b50516001610b24565b9392505050565b336001600160a01b037f000000000000000000000000000000000000000000000000000000000000000016146107dd576040805162461bcd60e51b815260206004820152601160248201527015985d5b1d0e881bdb9b1e481d985d5b1d607a1b604482015290519081900360640190fd5b6107e86000826118ac565b50600081815260026020819052604080832080546001600160a01b03199081168255600182018054909116905590910180546001600160a81b03191690555182917fe1a01da1652fb84ab7e19a641ec49c040bd7de1fcece9916cb67745334ab0fa091a250565b620f424081565b60026020819052600091825260409091208054600182015491909201546001600160a01b039283169291821691811690600160a01b900460ff1684565b50505050505050565b336001600160a01b037f0000000000000000000000000000000000000000000000000000000000000000161461090d576040805162461bcd60e51b815260206004820152601160248201527015985d5b1d0e881bdb9b1e481d985d5b1d607a1b604482015290519081900360640190fd5b6109186000866118b8565b506040518060800160405280856001600160a01b03168152602001846001600160a01b03168152602001836001600160a01b031681526020018215158152506002600087815260200190815260200160002060008201518160000160006101000a8154816001600160a01b0302191690836001600160a01b0316021790555060208201518160010160006101000a8154816001600160a01b0302191690836001600160a01b0316021790555060408201518160020160006101000a8154816001600160a01b0302191690836001600160a01b0316021790555060608201518160020160146101000a81548160ff021916908315150217905550905050826001600160a01b0316846001600160a01b0316867ffb5579ccd7d074e42669f62512ec46febe818d450499442c7cf4a75ad025a275858560405180836001600160a01b0316815260200182151581526020019250505060405180910390a45050505050565b5050505050565b60007f00000000000000000000000000000000000000000000000000000000000000006001600160a01b031663c65bc7b1856040518263ffffffff1660e01b815260040180826001600160a01b0316815260200191505060206040518083038186803b158015610af057600080fd5b505afa158015610b04573d6000803e3d6000fd5b505050506040513d6020811015610b1a57600080fd5b5051949350505050565b60007f00000000000000000000000000000000000000000000000000000000000000006001600160a01b0316639f392eb36040518163ffffffff1660e01b815260040160206040518083038186803b158015610b7f57600080fd5b505afa158015610b93573d6000803e3d6000fd5b505050506040513d6020811015610ba957600080fd5b5051610bb6575082610e01565b60007f00000000000000000000000000000000000000000000000000000000000000006001600160a01b0316631aa4ace5886040518263ffffffff1660e01b815260040180826001600160a01b0316815260200191505060206040518083038186803b158015610c2557600080fd5b505afa158015610c39573d6000803e3d6000fd5b505050506040513d6020811015610c4f57600080fd5b505190506000610c5f82886118c4565b905083610c8257818711610c7c57610c77828861191c565b610c7f565b60005b90505b60007f00000000000000000000000000000000000000000000000000000000000000006001600160a01b0316633a05dcc18a6040518263ffffffff1660e01b815260040180826001600160a01b0316815260200191505060206040518083038186803b158015610cf157600080fd5b505afa158015610d05573d6000803e3d6000fd5b505050506040513d6020811015610d1b57600080fd5b5051905080610d2f57869350505050610e01565b6000818411610d4757610d42828561191c565b610d51565b610d51848361191c565b90506000828411610d6b57610d66838561191c565b610d75565b610d75848461191c565b905081811015610dbd576000610d9584610d8f8b8661195e565b906119b7565b9050898111610dad57610da88a8261191c565b610db0565b60005b9650505050505050610e01565b6000610dce6002610d8f85856118c4565b905083811115610ddb5750825b6000610deb85610d8f8c8561195e565b9050610df78b826118c4565b9750505050505050505b95945050505050565b600080610e15611da3565b610e21888888886119f6565b805160408083015160c08401518251635c07eaab60e01b81526001600160a01b038c81166004830152602482019590955260448101929092528915156064830152608482015281519394507f000000000000000000000000000000000000000000000000000000000000000093600093849390861692635c07eaab9260a48083019392829003018186803b158015610eb857600080fd5b505afa158015610ecc573d6000803e3d6000fd5b505050506040513d6040811015610ee257600080fd5b50805160209091015185516060870151929450909250600091610f0d918e918e918e918e919061159d565b9050610f2a610f238d8d8d8d8a600001516117cc565b82906118c4565b905082158015610f3d5750818560200151105b15610fa5578715610f95576040805162461bcd60e51b815260206004820152601f60248201527f5661756c743a206c6f737365732065786365656420636f6c6c61746572616c00604482015290519081900360640190fd5b6001965094506111e29350505050565b602085015183610fc1576020860151610fbe908461191c565b90505b8181101561102d57881561101c576040805162461bcd60e51b815260206004820152601d60248201527f5661756c743a20666565732065786365656420636f6c6c61746572616c000000604482015290519081900360640190fd5b6001975095506111e2945050505050565b61109c856001600160a01b031663174d26946040518163ffffffff1660e01b815260040160206040518083038186803b15801561106957600080fd5b505afa15801561107d573d6000803e3d6000fd5b505050506040513d602081101561109357600080fd5b505183906118c4565b8110156110f15788156110e05760405162461bcd60e51b8152600401808060200182810382526029815260200180611e036029913960400191505060405180910390fd5b506001965094506111e29350505050565b85516110ff9061271061195e565b61116e866001600160a01b031663ae3302c26040518163ffffffff1660e01b815260040160206040518083038186803b15801561113b57600080fd5b505afa15801561114f573d6000803e3d6000fd5b505050506040513d602081101561116557600080fd5b5051839061195e565b10156111d65788156111c5576040805162461bcd60e51b815260206004820152601b60248201527a15985d5b1d0e881b585e13195d995c9859d948195e18d959591959602a1b604482015290519081900360640190fd5b506002965094506111e29350505050565b50600096509450505050505b9550959350505050565b6000807f00000000000000000000000000000000000000000000000000000000000000006001600160a01b03166342b60b03866040518263ffffffff1660e01b815260040180826001600160a01b0316815260200191505060206040518083038186803b15801561125c57600080fd5b505afa158015611270573d6000803e3d6000fd5b505050506040513d602081101561128657600080fd5b5051801561132957507f00000000000000000000000000000000000000000000000000000000000000006001600160a01b03166342b60b03856040518263ffffffff1660e01b815260040180826001600160a01b0316815260200191505060206040518083038186803b1580156112fc57600080fd5b505afa158015611310573d6000803e3d6000fd5b505050506040513d602081101561132657600080fd5b50515b90506000816113bc577f00000000000000000000000000000000000000000000000000000000000000006001600160a01b031663a22f23926040518163ffffffff1660e01b815260040160206040518083038186803b15801561138b57600080fd5b505afa15801561139f573d6000803e3d6000fd5b505050506040513d60208110156113b557600080fd5b5051611442565b7f00000000000000000000000000000000000000000000000000000000000000006001600160a01b031663df73a2676040518163ffffffff1660e01b815260040160206040518083038186803b15801561141557600080fd5b505afa158015611429573d6000803e3d6000fd5b505050506040513d602081101561143f57600080fd5b50515b90506000826114d5577f00000000000000000000000000000000000000000000000000000000000000006001600160a01b0316637a210a2b6040518163ffffffff1660e01b815260040160206040518083038186803b1580156114a457600080fd5b505afa1580156114b8573d6000803e3d6000fd5b505050506040513d60208110156114ce57600080fd5b505161155b565b7f00000000000000000000000000000000000000000000000000000000000000006001600160a01b03166310eb56c26040518163ffffffff1660e01b815260040160206040518083038186803b15801561152e57600080fd5b505afa158015611542573d6000803e3d6000fd5b505050506040513d602081101561155857600080fd5b50515b9050600061156d888785856001610b24565b9050600061157f888886866000610b24565b905080821161158e5780611590565b815b9998505050505050505050565b6000826115ac57506000611677565b6000611651837f00000000000000000000000000000000000000000000000000000000000000006001600160a01b031663c65bc7b18a6040518263ffffffff1660e01b815260040180826001600160a01b0316815260200191505060206040518083038186803b15801561161f57600080fd5b505afa158015611633573d6000803e3d6000fd5b505050506040513d602081101561164957600080fd5b50519061191c565b905080611662576000915050611677565b611673620f4240610d8f868461195e565b9150505b9695505050505050565b600061076583837f00000000000000000000000000000000000000000000000000000000000000006001600160a01b0316634d47b3046040518163ffffffff1660e01b815260040160206040518083038186803b1580156116e157600080fd5b505afa1580156116f5573d6000803e3d6000fd5b505050506040513d602081101561170b57600080fd5b505160408051637a210a2b60e01b815290516001600160a01b037f00000000000000000000000000000000000000000000000000000000000000001691637a210a2b916004808301926020929190829003018186803b15801561176d57600080fd5b505afa158015611781573d6000803e3d6000fd5b505050506040513d602081101561179757600080fd5b50516000610b24565b7f000000000000000000000000000000000000000000000000000000000000000081565b600192915050565b6000816117db57506000610e01565b600061187e612710610d8f6118777f00000000000000000000000000000000000000000000000000000000000000006001600160a01b031663318bc6896040518163ffffffff1660e01b815260040160206040518083038186803b15801561184257600080fd5b505afa158015611856573d6000803e3d6000fd5b505050506040513d602081101561186c57600080fd5b50516127109061191c565b869061195e565b905061188a838261191c565b979650505050505050565b600061062f82611b17565b60006107658383611b1b565b60006107658383611b7f565b60006107658383611c45565b600082820183811015610765576040805162461bcd60e51b815260206004820152601b60248201527a536166654d6174683a206164646974696f6e206f766572666c6f7760281b604482015290519081900360640190fd5b600061076583836040518060400160405280601e81526020017f536166654d6174683a207375627472616374696f6e206f766572666c6f770000815250611c8f565b60008261196d5750600061062f565b8282028284828161197a57fe5b04146107655760405162461bcd60e51b8152600401808060200182810382526021815260200180611e2c6021913960400191505060405180910390fd5b600061076583836040518060400160405280601a815260200179536166654d6174683a206469766973696f6e206279207a65726f60301b815250611d26565b6119fe611da3565b7f0000000000000000000000000000000000000000000000000000000000000000611a27611da3565b6000806000806000866001600160a01b0316634a3f088d8d8d8d8d6040518563ffffffff1660e01b815260040180856001600160a01b03168152602001846001600160a01b03168152602001836001600160a01b0316815260200182151581526020019450505050506101006040518083038186803b158015611aa957600080fd5b505afa158015611abd573d6000803e3d6000fd5b505050506040513d610100811015611ad457600080fd5b50805160208083015160408085015160608087015160e090970151958d52938c01929092528a015288019190915260c087015250939a9950505050505050505050565b5490565b81546000908210611b5d5760405162461bcd60e51b8152600401808060200182810382526022815260200180611de16022913960400191505060405180910390fd5b826000018281548110611b6c57fe5b9060005260206000200154905092915050565b60008181526001830160205260408120548015611c3b5783546000198083019190810190600090879083908110611bb257fe5b9060005260206000200154905080876000018481548110611bcf57fe5b600091825260208083209091019290925582815260018981019092526040902090840190558654879080611bff57fe5b6001900381819060005260206000200160009055905586600101600087815260200190815260200160002060009055600194505050505061062f565b600091505061062f565b6000611c518383611d8b565b611c875750815460018181018455600084815260208082209093018490558454848252828601909352604090209190915561062f565b50600061062f565b60008184841115611d1e5760405162461bcd60e51b81526004018080602001828103825283818151815260200191508051906020019080838360005b83811015611ce3578181015183820152602001611ccb565b50505050905090810190601f168015611d105780820380516001836020036101000a031916815260200191505b509250505060405180910390fd5b505050900390565b60008183611d755760405162461bcd60e51b8152602060048201818152835160248401528351909283926044909101919085019080838360008315611ce3578181015183820152602001611ccb565b506000838581611d8157fe5b0495945050505050565b60009081526001919091016020526040902054151590565b6040518060e0016040528060008152602001600081526020016000815260200160008152602001600081526020016000815260200160008152509056fe456e756d657261626c655365743a20696e646578206f7574206f6620626f756e64735661756c743a206c69717569646174696f6e20666565732065786365656420636f6c6c61746572616c536166654d6174683a206d756c7469706c69636174696f6e206f766572666c6f77a2646970667358221220401869f76d21b3ae3c51d6add3d89dcdb06061c4c75b434771cbca88d6bb525164736f6c634300060c0033","linkReferences":{}},"methodIdentifiers":{"BASIS_POINTS_DIVISOR()":"126082cf","FUNDING_RATE_PRECISION()":"6be6026b","addPosition(bytes32,address,address,address,bool)":"8ce6adac","getBuyUsdgFeeBasisPoints(address,uint256)":"4adeddc6","getEntryFundingRate(address,address,bool)":"b1cc53ab","getFeeBasisPoints(address,uint256,uint256,uint256,bool)":"c7e074c3","getFundingFee(address,address,address,bool,uint256,uint256)":"da76524c","getPositionFee(address,address,address,bool,uint256)":"fdaf6ac3","getPositionKeyByIndex(uint256)":"1c35257d","getPositionsAmount()":"37fa9836","getPositionsPaginated(uint256,uint256)":"053dfe28","getSellUsdgFeeBasisPoints(address,uint256)":"eb0835bf","getSwapFeeBasisPoints(address,address,uint256)":"da133816","removePosition(bytes32)":"4c89b68d","updateCumulativeFundingRate(address,address)":"fbfded6d","userPositions(bytes32)":"725ede31","validateDecreasePosition(address,address,address,uint256,uint256,bool,address)":"81d11a23","validateIncreasePosition(address,address,address,uint256,bool)":"9d5c28fa","validateLiquidation(address,address,address,bool,bool)":"d54d5a9f","vault()":"fbfa77cf"},"id":44}