{"abi":[{"type":"constructor","inputs":[{"name":"_admin","type":"address","internalType":"address"},{"name":"_buffer","type":"uint256","internalType":"uint256"},{"name":"_tokenManager","type":"address","internalType":"address"}],"stateMutability":"nonpayable"},{"type":"function","name":"MAX_BUFFER","inputs":[],"outputs":[{"name":"","type":"uint256","internalType":"uint256"}],"stateMutability":"view"},{"type":"function","name":"admin","inputs":[],"outputs":[{"name":"","type":"address","internalType":"address"}],"stateMutability":"view"},{"type":"function","name":"approve","inputs":[{"name":"_token","type":"address","internalType":"address"},{"name":"_spender","type":"address","internalType":"address"},{"name":"_amount","type":"uint256","internalType":"uint256"}],"outputs":[],"stateMutability":"nonpayable"},{"type":"function","name":"buffer","inputs":[],"outputs":[{"name":"","type":"uint256","internalType":"uint256"}],"stateMutability":"view"},{"type":"function","name":"cancelAction","inputs":[{"name":"_action","type":"bytes32","internalType":"bytes32"}],"outputs":[],"stateMutability":"nonpayable"},{"type":"function","name":"isHandler","inputs":[{"name":"","type":"address","internalType":"address"}],"outputs":[{"name":"","type":"bool","internalType":"bool"}],"stateMutability":"view"},{"type":"function","name":"isKeeper","inputs":[{"name":"","type":"address","internalType":"address"}],"outputs":[{"name":"","type":"bool","internalType":"bool"}],"stateMutability":"view"},{"type":"function","name":"pendingActions","inputs":[{"name":"","type":"bytes32","internalType":"bytes32"}],"outputs":[{"name":"","type":"uint256","internalType":"uint256"}],"stateMutability":"view"},{"type":"function","name":"priceFeedSetTokenConfig","inputs":[{"name":"_vaultPriceFeed","type":"address","internalType":"address"},{"name":"_token","type":"address","internalType":"address"},{"name":"_priceFeed","type":"address","internalType":"address"},{"name":"_priceDecimals","type":"uint256","internalType":"uint256"},{"name":"_isStrictStable","type":"bool","internalType":"bool"}],"outputs":[],"stateMutability":"nonpayable"},{"type":"function","name":"setAdjustment","inputs":[{"name":"_priceFeed","type":"address","internalType":"address"},{"name":"_token","type":"address","internalType":"address"},{"name":"_isAdditive","type":"bool","internalType":"bool"},{"name":"_adjustmentBps","type":"uint256","internalType":"uint256"}],"outputs":[],"stateMutability":"nonpayable"},{"type":"function","name":"setAdmin","inputs":[{"name":"_admin","type":"address","internalType":"address"}],"outputs":[],"stateMutability":"nonpayable"},{"type":"function","name":"setBuffer","inputs":[{"name":"_buffer","type":"uint256","internalType":"uint256"}],"outputs":[],"stateMutability":"nonpayable"},{"type":"function","name":"setContractHandler","inputs":[{"name":"_handler","type":"address","internalType":"address"},{"name":"_isActive","type":"bool","internalType":"bool"}],"outputs":[],"stateMutability":"nonpayable"},{"type":"function","name":"setExternalAdmin","inputs":[{"name":"_target","type":"address","internalType":"address"},{"name":"_admin","type":"address","internalType":"address"}],"outputs":[],"stateMutability":"nonpayable"},{"type":"function","name":"setGov","inputs":[{"name":"_target","type":"address","internalType":"address"},{"name":"_gov","type":"address","internalType":"address"}],"outputs":[],"stateMutability":"nonpayable"},{"type":"function","name":"setIsAmmEnabled","inputs":[{"name":"_priceFeed","type":"address","internalType":"address"},{"name":"_isEnabled","type":"bool","internalType":"bool"}],"outputs":[],"stateMutability":"nonpayable"},{"type":"function","name":"setIsSecondaryPriceEnabled","inputs":[{"name":"_priceFeed","type":"address","internalType":"address"},{"name":"_isEnabled","type":"bool","internalType":"bool"}],"outputs":[],"stateMutability":"nonpayable"},{"type":"function","name":"setIsSpreadEnabled","inputs":[{"name":"_fastPriceFeed","type":"address","internalType":"address"},{"name":"_isSpreadEnabled","type":"bool","internalType":"bool"}],"outputs":[],"stateMutability":"nonpayable"},{"type":"function","name":"setKeeper","inputs":[{"name":"_keeper","type":"address","internalType":"address"},{"name":"_isActive","type":"bool","internalType":"bool"}],"outputs":[],"stateMutability":"nonpayable"},{"type":"function","name":"setMaxStrictPriceDeviation","inputs":[{"name":"_priceFeed","type":"address","internalType":"address"},{"name":"_maxStrictPriceDeviation","type":"uint256","internalType":"uint256"}],"outputs":[],"stateMutability":"nonpayable"},{"type":"function","name":"setPriceFeedUpdater","inputs":[{"name":"_fastPriceFeed","type":"address","internalType":"address"},{"name":"_account","type":"address","internalType":"address"},{"name":"_isActive","type":"bool","internalType":"bool"}],"outputs":[],"stateMutability":"nonpayable"},{"type":"function","name":"setPriceFeedWatcher","inputs":[{"name":"_fastPriceFeed","type":"address","internalType":"address"},{"name":"_account","type":"address","internalType":"address"},{"name":"_isActive","type":"bool","internalType":"bool"}],"outputs":[],"stateMutability":"nonpayable"},{"type":"function","name":"setPriceSampleSpace","inputs":[{"name":"_priceFeed","type":"address","internalType":"address"},{"name":"_priceSampleSpace","type":"uint256","internalType":"uint256"}],"outputs":[],"stateMutability":"nonpayable"},{"type":"function","name":"setSpreadBasisPoints","inputs":[{"name":"_priceFeed","type":"address","internalType":"address"},{"name":"_token","type":"address","internalType":"address"},{"name":"_spreadBasisPoints","type":"uint256","internalType":"uint256"}],"outputs":[],"stateMutability":"nonpayable"},{"type":"function","name":"setUseV2Pricing","inputs":[{"name":"_priceFeed","type":"address","internalType":"address"},{"name":"_useV2Pricing","type":"bool","internalType":"bool"}],"outputs":[],"stateMutability":"nonpayable"},{"type":"function","name":"signalApprove","inputs":[{"name":"_token","type":"address","internalType":"address"},{"name":"_spender","type":"address","internalType":"address"},{"name":"_amount","type":"uint256","internalType":"uint256"}],"outputs":[],"stateMutability":"nonpayable"},{"type":"function","name":"signalPriceFeedSetTokenConfig","inputs":[{"name":"_vaultPriceFeed","type":"address","internalType":"address"},{"name":"_token","type":"address","internalType":"address"},{"name":"_priceFeed","type":"address","internalType":"address"},{"name":"_priceDecimals","type":"uint256","internalType":"uint256"},{"name":"_isStrictStable","type":"bool","internalType":"bool"}],"outputs":[],"stateMutability":"nonpayable"},{"type":"function","name":"signalSetGov","inputs":[{"name":"_target","type":"address","internalType":"address"},{"name":"_gov","type":"address","internalType":"address"}],"outputs":[],"stateMutability":"nonpayable"},{"type":"function","name":"signalSetPriceFeedUpdater","inputs":[{"name":"_fastPriceFeed","type":"address","internalType":"address"},{"name":"_account","type":"address","internalType":"address"},{"name":"_isActive","type":"bool","internalType":"bool"}],"outputs":[],"stateMutability":"nonpayable"},{"type":"function","name":"signalSetPriceFeedWatcher","inputs":[{"name":"_fastPriceFeed","type":"address","internalType":"address"},{"name":"_account","type":"address","internalType":"address"},{"name":"_isActive","type":"bool","internalType":"bool"}],"outputs":[],"stateMutability":"nonpayable"},{"type":"function","name":"signalWithdrawToken","inputs":[{"name":"_target","type":"address","internalType":"address"},{"name":"_token","type":"address","internalType":"address"},{"name":"_receiver","type":"address","internalType":"address"},{"name":"_amount","type":"uint256","internalType":"uint256"}],"outputs":[],"stateMutability":"nonpayable"},{"type":"function","name":"tokenManager","inputs":[],"outputs":[{"name":"","type":"address","internalType":"address"}],"stateMutability":"view"},{"type":"function","name":"transferIn","inputs":[{"name":"_sender","type":"address","internalType":"address"},{"name":"_token","type":"address","internalType":"address"},{"name":"_amount","type":"uint256","internalType":"uint256"}],"outputs":[],"stateMutability":"nonpayable"},{"type":"function","name":"withdrawToken","inputs":[{"name":"_target","type":"address","internalType":"address"},{"name":"_token","type":"address","internalType":"address"},{"name":"_receiver","type":"address","internalType":"address"},{"name":"_amount","type":"uint256","internalType":"uint256"}],"outputs":[],"stateMutability":"nonpayable"},{"type":"event","name":"ClearAction","inputs":[{"name":"action","type":"bytes32","indexed":false,"internalType":"bytes32"}],"anonymous":false},{"type":"event","name":"SignalApprove","inputs":[{"name":"token","type":"address","indexed":false,"internalType":"address"},{"name":"spender","type":"address","indexed":false,"internalType":"address"},{"name":"amount","type":"uint256","indexed":false,"internalType":"uint256"},{"name":"action","type":"bytes32","indexed":false,"internalType":"bytes32"}],"anonymous":false},{"type":"event","name":"SignalPendingAction","inputs":[{"name":"action","type":"bytes32","indexed":false,"internalType":"bytes32"}],"anonymous":false},{"type":"event","name":"SignalPriceFeedSetTokenConfig","inputs":[{"name":"vaultPriceFeed","type":"address","indexed":false,"internalType":"address"},{"name":"token","type":"address","indexed":false,"internalType":"address"},{"name":"priceFeed","type":"address","indexed":false,"internalType":"address"},{"name":"priceDecimals","type":"uint256","indexed":false,"internalType":"uint256"},{"name":"isStrictStable","type":"bool","indexed":false,"internalType":"bool"}],"anonymous":false},{"type":"event","name":"SignalSetGov","inputs":[{"name":"target","type":"address","indexed":false,"internalType":"address"},{"name":"gov","type":"address","indexed":false,"internalType":"address"},{"name":"action","type":"bytes32","indexed":false,"internalType":"bytes32"}],"anonymous":false},{"type":"event","name":"SignalSetPriceFeedWatcher","inputs":[{"name":"fastPriceFeed","type":"address","indexed":false,"internalType":"address"},{"name":"account","type":"address","indexed":false,"internalType":"address"},{"name":"isActive","type":"bool","indexed":false,"internalType":"bool"}],"anonymous":false},{"type":"event","name":"SignalWithdrawToken","inputs":[{"name":"target","type":"address","indexed":false,"internalType":"address"},{"name":"token","type":"address","indexed":false,"internalType":"address"},{"name":"receiver","type":"address","indexed":false,"internalType":"address"},{"name":"amount","type":"uint256","indexed":false,"internalType":"uint256"},{"name":"action","type":"bytes32","indexed":false,"internalType":"bytes32"}],"anonymous":false}],"bytecode":{"object":"0x608060405234801561001057600080fd5b506040516122ce3803806122ce8339818101604052606081101561003357600080fd5b50805160208201516040909201519091906206978082111561009c576040805162461bcd60e51b815260206004820152601960248201527f54696d656c6f636b3a20696e76616c6964205f62756666657200000000000000604482015290519081900360640190fd5b600180546001600160a01b039485166001600160a01b031991821617909155600092909255600280549190931691161790556121f1806100dd6000396000f3fe608060405234801561001057600080fd5b50600436106101a65760003560e01c80635843752f116100ea5780635843752f1461053157806361d075691461055f5780636ba42aaa14610579578063704b6c021461059f578063781cc3d3146105c5578063996a7a1e146105e2578063a0a316a214610610578063adc7ea371461063c578063d1b9e85314610659578063db5c875f14610687578063dce6e18d146106bf578063e1f21c67146106f5578063e30569e51461072b578063e4652f4914610748578063e7b0a3a11461077e578063edaafe20146107b4578063f851a440146107bc576101a6565b8063185051c1146101ab57806321754d9e146101db5780632877f4c3146102175780632965c8c714610243578063296b07e5146102715780632a709b14146102af5780632a72e8ba146102d35780633335e38a1461030b5780633799c6181461034f578063384cae731461038757806343ec6619146103cb578063454ffa46146103f957806346ea87af146104275780634cd23f3b1461046157806350e32d1d1461049d57806351a6de0d146104d557806355ef139514610503575b600080fd5b6101d9600480360360408110156101c157600080fd5b506001600160a01b03813516906020013515156107c4565b005b6101d9600480360360808110156101f157600080fd5b506001600160a01b0381358116916020810135821691604082013516906060013561083c565b6101d96004803603604081101561022d57600080fd5b506001600160a01b038135169060200135610987565b6101d96004803603604081101561025957600080fd5b506001600160a01b0381351690602001351515610aa2565b6101d96004803603608081101561028757600080fd5b506001600160a01b038135811691602081013590911690604081013515159060600135610b37565b6102b7610c37565b604080516001600160a01b039092168252519081900360200190f35b6101d9600480360360608110156102e957600080fd5b506001600160a01b038135811691602081013590911690604001351515610c46565b6101d9600480360360a081101561032157600080fd5b506001600160a01b038135811691602081013582169160408201351690606081013590608001351515610d62565b6101d96004803603606081101561036557600080fd5b506001600160a01b038135811691602081013590911690604001351515610ebc565b6101d9600480360360a081101561039d57600080fd5b506001600160a01b038135811691602081013582169160408201351690606081013590608001351515610fc7565b6101d9600480360360408110156103e157600080fd5b506001600160a01b03813516906020013515156110f8565b6101d96004803603604081101561040f57600080fd5b506001600160a01b038135169060200135151561118d565b61044d6004803603602081101561043d57600080fd5b50356001600160a01b0316611222565b604080519115158252519081900360200190f35b6101d96004803603608081101561047757600080fd5b506001600160a01b03813581169160208101358216916040820135169060600135611237565b6101d9600480360360608110156104b357600080fd5b506001600160a01b038135811691602081013590911690604001351515611352565b6101d9600480360360408110156104eb57600080fd5b506001600160a01b038135811691602001351661141b565b6101d96004803603604081101561051957600080fd5b506001600160a01b0381358116916020013516611532565b6101d96004803603604081101561054757600080fd5b506001600160a01b0381351690602001351515611628565b6105676116bd565b60408051918252519081900360200190f35b61044d6004803603602081101561058f57600080fd5b50356001600160a01b03166116c4565b6101d9600480360360208110156105b557600080fd5b50356001600160a01b03166116d9565b6101d9600480360360208110156105db57600080fd5b5035611748565b6101d9600480360360408110156105f857600080fd5b506001600160a01b03813581169160200135166117a1565b6101d96004803603604081101561062657600080fd5b506001600160a01b038135169060200135611892565b6101d96004803603602081101561065257600080fd5b5035611925565b6101d96004803603604081101561066f57600080fd5b506001600160a01b0381351690602001351515611a0b565b6101d96004803603606081101561069d57600080fd5b506001600160a01b038135811691602081013590911690604001351515611a83565b6101d9600480360360608110156106d557600080fd5b506001600160a01b03813581169160208101359091169060400135611b3d565b6101d96004803603606081101561070b57600080fd5b506001600160a01b03813581169160208101359091169060400135611c3f565b6105676004803603602081101561074157600080fd5b5035611d74565b6101d96004803603606081101561075e57600080fd5b506001600160a01b03813581169160208101359091169060400135611d86565b6101d96004803603606081101561079457600080fd5b506001600160a01b03813581169160208101359091169060400135611e5d565b610567611f35565b6102b7611f3b565b6001546001600160a01b03163314610811576040805162461bcd60e51b8152602060048201526013602482015260008051602061219c833981519152604482015290519081900360640190fd5b6001600160a01b03919091166000908152600460205260409020805460ff1916911515919091179055565b6001546001600160a01b03163314610889576040805162461bcd60e51b8152602060048201526013602482015260008051602061219c833981519152604482015290519081900360640190fd5b604080516c3bb4ba34323930bbaa37b5b2b760991b6020808301919091526001600160601b0319606088811b8216602d85015287811b8216604185015286901b166055830152606980830185905283518084039091018152608990920190925280519101206108f781611f4a565b61090081611ff6565b846001600160a01b03166301e336678585856040518463ffffffff1660e01b815260040180846001600160a01b03168152602001836001600160a01b031681526020018281526020019350505050600060405180830381600087803b15801561096857600080fd5b505af115801561097c573d6000803e3d6000fd5b505050505050505050565b6001546001600160a01b03163314806109af57503360009081526004602052604090205460ff165b6109ee576040805162461bcd60e51b8152602060048201526013602482015260008051602061219c833981519152604482015290519081900360640190fd5b6005811115610a40576040805162461bcd60e51b8152602060048201526019602482015278496e76616c6964205f707269636553616d706c65537061636560381b604482015290519081900360640190fd5b816001600160a01b0316632fa03b8f826040518263ffffffff1660e01b815260040180828152602001915050600060405180830381600087803b158015610a8657600080fd5b505af1158015610a9a573d6000803e3d6000fd5b505050505050565b6001546001600160a01b03163314610aef576040805162461bcd60e51b8152602060048201526013602482015260008051602061219c833981519152604482015290519081900360640190fd5b816001600160a01b031663eb1c92a9826040518263ffffffff1660e01b8152600401808215158152602001915050600060405180830381600087803b158015610a8657600080fd5b6001546001600160a01b0316331480610b5f57503360009081526004602052604090205460ff165b80610b7957503360009081526005602052604090205460ff165b610bb8576040805162461bcd60e51b8152602060048201526013602482015260008051602061219c833981519152604482015290519081900360640190fd5b836001600160a01b031663d694376c8484846040518463ffffffff1660e01b815260040180846001600160a01b0316815260200183151581526020018281526020019350505050600060405180830381600087803b158015610c1957600080fd5b505af1158015610c2d573d6000803e3d6000fd5b5050505050505050565b6002546001600160a01b031681565b6001546001600160a01b03163314610c93576040805162461bcd60e51b8152602060048201526013602482015260008051602061219c833981519152604482015290519081900360640190fd5b604080517239b2ba283934b1b2a332b2b22bb0ba31b432b960691b6020808301919091526001600160601b0319606087811b8216603385015286901b16604783015283151560f81b605b8301528251603c818403018152605c9092019092528051910120610d0081611f4a565b610d0981611ff6565b836001600160a01b03166331cb610584846040518363ffffffff1660e01b815260040180836001600160a01b03168152602001821515815260200192505050600060405180830381600087803b158015610c1957600080fd5b6001546001600160a01b03163314610daf576040805162461bcd60e51b8152602060048201526013602482015260008051602061219c833981519152604482015290519081900360640190fd5b6040805176707269636546656564536574546f6b656e436f6e66696760481b6020808301919091526001600160601b0319606089811b8216603785015288811b8216604b85015287901b16605f8301526073820185905283151560f81b60938301528251607481840301815260949092019092528051910120610e3181611f4a565b610e3a81611ff6565b60408051634b9ade4760e01b81526001600160a01b0387811660048301528681166024830152604482018690528415156064830152915191881691634b9ade479160848082019260009290919082900301818387803b158015610e9c57600080fd5b505af1158015610eb0573d6000803e3d6000fd5b50505050505050505050565b6001546001600160a01b03163314610f09576040805162461bcd60e51b8152602060048201526013602482015260008051602061219c833981519152604482015290519081900360640190fd5b604080517239b2ba283934b1b2a332b2b22bb0ba31b432b960691b6020808301919091526001600160601b0319606087811b8216603385015286901b16604783015283151560f81b605b8301528251603c818403018152605c9092019092528051910120610f768161209b565b604080516001600160a01b038087168252851660208201528315158183015290517f6ab3018654d3055eae2cb61d3dffe4cbb30f257d54ec966059b4d00b325a36699181900360600190a150505050565b6001546001600160a01b03163314611014576040805162461bcd60e51b8152602060048201526013602482015260008051602061219c833981519152604482015290519081900360640190fd5b6040805176707269636546656564536574546f6b656e436f6e66696760481b6020808301919091526001600160601b0319606089811b8216603785015288811b8216604b85015287901b16605f8301526073820185905283151560f81b609383015282516074818403018152609490920190925280519101206110968161209b565b604080516001600160a01b038089168252808816602083015286168183015260608101859052831515608082015290517f1b2ddf357ae016d8c127dcd3a73c34744fdeaeeb4b7ef1e04490cebf7f4816fe9181900360a00190a1505050505050565b6001546001600160a01b03163314611145576040805162461bcd60e51b8152602060048201526013602482015260008051602061219c833981519152604482015290519081900360640190fd5b816001600160a01b031663ce98dfa8826040518263ffffffff1660e01b8152600401808215158152602001915050600060405180830381600087803b158015610a8657600080fd5b6001546001600160a01b031633146111da576040805162461bcd60e51b8152602060048201526013602482015260008051602061219c833981519152604482015290519081900360640190fd5b816001600160a01b031663fd34ec40826040518263ffffffff1660e01b8152600401808215158152602001915050600060405180830381600087803b158015610a8657600080fd5b60046020526000908152604090205460ff1681565b6001546001600160a01b03163314611284576040805162461bcd60e51b8152602060048201526013602482015260008051602061219c833981519152604482015290519081900360640190fd5b604080516c3bb4ba34323930bbaa37b5b2b760991b6020808301919091526001600160601b0319606088811b8216602d85015287811b8216604185015286901b166055830152606980830185905283518084039091018152608990920190925280519101206112f28161209b565b604080516001600160a01b0380881682528087166020830152851681830152606081018490526080810183905290517f9ed7b0f07a9eed51079fab67f6d0f141f167f5b17fdb5a23282280e15fcafed39181900360a00190a15050505050565b6001546001600160a01b0316331461139f576040805162461bcd60e51b8152602060048201526013602482015260008051602061219c833981519152604482015290519081900360640190fd5b604080517239b2ba283934b1b2a332b2b22ab83230ba32b960691b6020808301919091526001600160601b0319606087811b8216603385015286901b16604783015283151560f81b605b8301528251603c818403018152605c909201909252805191012061140c81611f4a565b61141581611ff6565b50505050565b6001546001600160a01b03163314611468576040805162461bcd60e51b8152602060048201526013602482015260008051602061219c833981519152604482015290519081900360640190fd5b604080516539b2ba23b7bb60d11b6020808301919091526001600160601b0319606086811b8216602685015285901b16603a8301528251602e818403018152604e90920190925280519101206114bd81611f4a565b6114c681611ff6565b826001600160a01b031663cfad57a2836040518263ffffffff1660e01b815260040180826001600160a01b03168152602001915050600060405180830381600087803b15801561151557600080fd5b505af1158015611529573d6000803e3d6000fd5b50505050505050565b6001546001600160a01b0316331461157f576040805162461bcd60e51b8152602060048201526013602482015260008051602061219c833981519152604482015290519081900360640190fd5b6001600160a01b0382163014156115d9576040805162461bcd60e51b8152602060048201526019602482015278151a5b595b1bd8dace881a5b9d985b1a590817dd185c99d95d603a1b604482015290519081900360640190fd5b816001600160a01b031663704b6c02826040518263ffffffff1660e01b815260040180826001600160a01b03168152602001915050600060405180830381600087803b158015610a8657600080fd5b6001546001600160a01b03163314611675576040805162461bcd60e51b8152602060048201526013602482015260008051602061219c833981519152604482015290519081900360640190fd5b816001600160a01b0316639917dc74826040518263ffffffff1660e01b8152600401808215158152602001915050600060405180830381600087803b158015610a8657600080fd5b6206978081565b60056020526000908152604090205460ff1681565b6002546001600160a01b03163314611726576040805162461bcd60e51b8152602060048201526013602482015260008051602061219c833981519152604482015290519081900360640190fd5b600180546001600160a01b0319166001600160a01b0392909216919091179055565b6001546001600160a01b03163314611795576040805162461bcd60e51b8152602060048201526013602482015260008051602061219c833981519152604482015290519081900360640190fd5b61179e81611ff6565b50565b6001546001600160a01b031633146117ee576040805162461bcd60e51b8152602060048201526013602482015260008051602061219c833981519152604482015290519081900360640190fd5b604080516539b2ba23b7bb60d11b6020808301919091526001600160601b0319606086811b8216602685015285901b16603a8301528251602e818403018152604e90920190925280519101206118438161209b565b604080516001600160a01b0380861682528416602082015280820183905290517f2701a94fd55a560e291f3c54d36580040670d6fde558a77a75d619e38139f7139181900360600190a1505050565b6001546001600160a01b031633146118df576040805162461bcd60e51b8152602060048201526013602482015260008051602061219c833981519152604482015290519081900360640190fd5b816001600160a01b0316632fbfe3d3826040518263ffffffff1660e01b815260040180828152602001915050600060405180830381600087803b158015610a8657600080fd5b6001546001600160a01b03163314611972576040805162461bcd60e51b8152602060048201526013602482015260008051602061219c833981519152604482015290519081900360640190fd5b620697808111156119c6576040805162461bcd60e51b81526020600482015260196024820152782a34b6b2b637b1b59d1034b73b30b634b2102fb13ab33332b960391b604482015290519081900360640190fd5b6000548111611a065760405162461bcd60e51b81526004018080602001828103825260248152602001806121786024913960400191505060405180910390fd5b600055565b6001546001600160a01b03163314611a58576040805162461bcd60e51b8152602060048201526013602482015260008051602061219c833981519152604482015290519081900360640190fd5b6001600160a01b03919091166000908152600560205260409020805460ff1916911515919091179055565b6001546001600160a01b03163314611ad0576040805162461bcd60e51b8152602060048201526013602482015260008051602061219c833981519152604482015290519081900360640190fd5b604080517239b2ba283934b1b2a332b2b22ab83230ba32b960691b6020808301919091526001600160601b0319606087811b8216603385015286901b16604783015283151560f81b605b8301528251603c818403018152605c9092019092528051910120610f768161209b565b6001546001600160a01b03163314611b8a576040805162461bcd60e51b8152602060048201526013602482015260008051602061219c833981519152604482015290519081900360640190fd5b6040805166617070726f766560c81b6020808301919091526001600160601b0319606087811b8216602785015286901b16603b830152604f80830185905283518084039091018152606f9092019092528051910120611be88161209b565b604080516001600160a01b038087168252851660208201528082018490526060810183905290517f6af9d86ba7407a934e941ed8ae5f779369a88fe8ba2cd1c204185d6f8a8287fd9181900360800190a150505050565b6001546001600160a01b03163314611c8c576040805162461bcd60e51b8152602060048201526013602482015260008051602061219c833981519152604482015290519081900360640190fd5b6040805166617070726f766560c81b6020808301919091526001600160601b0319606087811b8216602785015286901b16603b830152604f80830185905283518084039091018152606f9092019092528051910120611cea81611f4a565b611cf381611ff6565b836001600160a01b031663095ea7b384846040518363ffffffff1660e01b815260040180836001600160a01b0316815260200182815260200192505050602060405180830381600087803b158015611d4a57600080fd5b505af1158015611d5e573d6000803e3d6000fd5b505050506040513d6020811015610a9a57600080fd5b60036020526000908152604090205481565b6001546001600160a01b03163314611dd3576040805162461bcd60e51b8152602060048201526013602482015260008051602061219c833981519152604482015290519081900360640190fd5b604080516323b872dd60e01b81526001600160a01b038581166004830152306024830152604482018490529151918416916323b872dd916064808201926020929091908290030181600087803b158015611e2c57600080fd5b505af1158015611e40573d6000803e3d6000fd5b505050506040513d6020811015611e5657600080fd5b5050505050565b6001546001600160a01b0316331480611e8557503360009081526004602052604090205460ff165b80611e9f57503360009081526005602052604090205460ff165b611ede576040805162461bcd60e51b8152602060048201526013602482015260008051602061219c833981519152604482015290519081900360640190fd5b826001600160a01b0316639b88938083836040518363ffffffff1660e01b815260040180836001600160a01b0316815260200182815260200192505050600060405180830381600087803b15801561151557600080fd5b60005481565b6001546001600160a01b031681565b600081815260036020526040902054611faa576040805162461bcd60e51b815260206004820152601e60248201527f54696d656c6f636b3a20616374696f6e206e6f74207369676e616c6c65640000604482015290519081900360640190fd5b600081815260036020526040902054421161179e5760405162461bcd60e51b81526004018080602001828103825260248152602001806121546024913960400191505060405180910390fd5b600081815260036020526040902054612052576040805162461bcd60e51b81526020600482015260196024820152782a34b6b2b637b1b59d1034b73b30b634b2102fb0b1ba34b7b760391b604482015290519081900360640190fd5b600081815260036020908152604080832092909255815183815291517f194ed6dd5e37e2acc44a19455c3f208c4831ee695fe362d9c4ef2d316bc53aec9281900390910190a150565b6000546120a99042906120f4565b60008281526003602090815260409182902092909255805183815290517f5fb9c0ecf7b4a28c4c480212e868f9da7f373a2ed4d23498b0be6aadf35242fb929181900390910190a150565b60008282018381101561214c576040805162461bcd60e51b815260206004820152601b60248201527a536166654d6174683a206164646974696f6e206f766572666c6f7760281b604482015290519081900360640190fd5b939250505056fe54696d656c6f636b3a20616374696f6e2074696d65206e6f74207965742070617373656454696d656c6f636b3a206275666665722063616e6e6f742062652064656372656173656454696d656c6f636b3a20666f7262696464656e00000000000000000000000000a26469706673582212209be1a553afc06edd357673373ea084a79d1ccf351f8cf9fe06afaea076a5a5fc64736f6c634300060c0033","linkReferences":{}},"methodIdentifiers":{"MAX_BUFFER()":"61d07569","admin()":"f851a440","approve(address,address,uint256)":"e1f21c67","buffer()":"edaafe20","cancelAction(bytes32)":"781cc3d3","isHandler(address)":"46ea87af","isKeeper(address)":"6ba42aaa","pendingActions(bytes32)":"e30569e5","priceFeedSetTokenConfig(address,address,address,uint256,bool)":"3335e38a","setAdjustment(address,address,bool,uint256)":"296b07e5","setAdmin(address)":"704b6c02","setBuffer(uint256)":"adc7ea37","setContractHandler(address,bool)":"185051c1","setExternalAdmin(address,address)":"55ef1395","setGov(address,address)":"51a6de0d","setIsAmmEnabled(address,bool)":"5843752f","setIsSecondaryPriceEnabled(address,bool)":"2965c8c7","setIsSpreadEnabled(address,bool)":"43ec6619","setKeeper(address,bool)":"d1b9e853","setMaxStrictPriceDeviation(address,uint256)":"a0a316a2","setPriceFeedUpdater(address,address,bool)":"50e32d1d","setPriceFeedWatcher(address,address,bool)":"2a72e8ba","setPriceSampleSpace(address,uint256)":"2877f4c3","setSpreadBasisPoints(address,address,uint256)":"e7b0a3a1","setUseV2Pricing(address,bool)":"454ffa46","signalApprove(address,address,uint256)":"dce6e18d","signalPriceFeedSetTokenConfig(address,address,address,uint256,bool)":"384cae73","signalSetGov(address,address)":"996a7a1e","signalSetPriceFeedUpdater(address,address,bool)":"db5c875f","signalSetPriceFeedWatcher(address,address,bool)":"3799c618","signalWithdrawToken(address,address,address,uint256)":"4cd23f3b","tokenManager()":"2a709b14","transferIn(address,address,uint256)":"e4652f49","withdrawToken(address,address,address,uint256)":"21754d9e"},"id":106}