{"abi":[{"type":"constructor","inputs":[{"name":"_admin","type":"address","internalType":"address"},{"name":"_buffer","type":"uint256","internalType":"uint256"},{"name":"_averagePriceUpdateDelay","type":"uint256","internalType":"uint256"},{"name":"_maxAveragePriceChange","type":"uint256","internalType":"uint256"}],"stateMutability":"nonpayable"},{"type":"function","name":"BASIS_POINTS_DIVISOR","inputs":[],"outputs":[{"name":"","type":"uint256","internalType":"uint256"}],"stateMutability":"view"},{"type":"function","name":"MAX_BUFFER","inputs":[],"outputs":[{"name":"","type":"uint256","internalType":"uint256"}],"stateMutability":"view"},{"type":"function","name":"admin","inputs":[],"outputs":[{"name":"","type":"address","internalType":"address"}],"stateMutability":"view"},{"type":"function","name":"averagePriceUpdateDelay","inputs":[],"outputs":[{"name":"","type":"uint256","internalType":"uint256"}],"stateMutability":"view"},{"type":"function","name":"buffer","inputs":[],"outputs":[{"name":"","type":"uint256","internalType":"uint256"}],"stateMutability":"view"},{"type":"function","name":"cancelAction","inputs":[{"name":"_action","type":"bytes32","internalType":"bytes32"}],"outputs":[],"stateMutability":"nonpayable"},{"type":"function","name":"disableIsGlobalShortDataReady","inputs":[{"name":"_shortsTracker","type":"address","internalType":"contract IShortsTracker"}],"outputs":[],"stateMutability":"nonpayable"},{"type":"function","name":"isHandler","inputs":[{"name":"","type":"address","internalType":"address"}],"outputs":[{"name":"","type":"bool","internalType":"bool"}],"stateMutability":"view"},{"type":"function","name":"lastUpdated","inputs":[{"name":"","type":"address","internalType":"address"}],"outputs":[{"name":"","type":"uint256","internalType":"uint256"}],"stateMutability":"view"},{"type":"function","name":"maxAveragePriceChange","inputs":[],"outputs":[{"name":"","type":"uint256","internalType":"uint256"}],"stateMutability":"view"},{"type":"function","name":"pendingActions","inputs":[{"name":"","type":"bytes32","internalType":"bytes32"}],"outputs":[{"name":"","type":"uint256","internalType":"uint256"}],"stateMutability":"view"},{"type":"function","name":"setAdmin","inputs":[{"name":"_admin","type":"address","internalType":"address"}],"outputs":[],"stateMutability":"nonpayable"},{"type":"function","name":"setAveragePriceUpdateDelay","inputs":[{"name":"_averagePriceUpdateDelay","type":"uint256","internalType":"uint256"}],"outputs":[],"stateMutability":"nonpayable"},{"type":"function","name":"setBuffer","inputs":[{"name":"_buffer","type":"uint256","internalType":"uint256"}],"outputs":[],"stateMutability":"nonpayable"},{"type":"function","name":"setContractHandler","inputs":[{"name":"_handler","type":"address","internalType":"address"},{"name":"_isActive","type":"bool","internalType":"bool"}],"outputs":[],"stateMutability":"nonpayable"},{"type":"function","name":"setGlobalShortAveragePrices","inputs":[{"name":"_shortsTracker","type":"address","internalType":"contract IShortsTracker"},{"name":"_tokens","type":"address[]","internalType":"address[]"},{"name":"_averagePrices","type":"uint256[]","internalType":"uint256[]"}],"outputs":[],"stateMutability":"nonpayable"},{"type":"function","name":"setGov","inputs":[{"name":"_shortsTracker","type":"address","internalType":"address"},{"name":"_gov","type":"address","internalType":"address"}],"outputs":[],"stateMutability":"nonpayable"},{"type":"function","name":"setHandler","inputs":[{"name":"_target","type":"address","internalType":"address"},{"name":"_handler","type":"address","internalType":"address"},{"name":"_isActive","type":"bool","internalType":"bool"}],"outputs":[],"stateMutability":"nonpayable"},{"type":"function","name":"setIsGlobalShortDataReady","inputs":[{"name":"_shortsTracker","type":"address","internalType":"contract IShortsTracker"},{"name":"_value","type":"bool","internalType":"bool"}],"outputs":[],"stateMutability":"nonpayable"},{"type":"function","name":"setMaxAveragePriceChange","inputs":[{"name":"_maxAveragePriceChange","type":"uint256","internalType":"uint256"}],"outputs":[],"stateMutability":"nonpayable"},{"type":"function","name":"signalSetAdmin","inputs":[{"name":"_admin","type":"address","internalType":"address"}],"outputs":[],"stateMutability":"nonpayable"},{"type":"function","name":"signalSetAveragePriceUpdateDelay","inputs":[{"name":"_averagePriceUpdateDelay","type":"uint256","internalType":"uint256"}],"outputs":[],"stateMutability":"nonpayable"},{"type":"function","name":"signalSetGov","inputs":[{"name":"_shortsTracker","type":"address","internalType":"address"},{"name":"_gov","type":"address","internalType":"address"}],"outputs":[],"stateMutability":"nonpayable"},{"type":"function","name":"signalSetHandler","inputs":[{"name":"_target","type":"address","internalType":"address"},{"name":"_handler","type":"address","internalType":"address"},{"name":"_isActive","type":"bool","internalType":"bool"}],"outputs":[],"stateMutability":"nonpayable"},{"type":"function","name":"signalSetIsGlobalShortDataReady","inputs":[{"name":"_shortsTracker","type":"address","internalType":"contract IShortsTracker"},{"name":"_value","type":"bool","internalType":"bool"}],"outputs":[],"stateMutability":"nonpayable"},{"type":"function","name":"signalSetMaxAveragePriceChange","inputs":[{"name":"_maxAveragePriceChange","type":"uint256","internalType":"uint256"}],"outputs":[],"stateMutability":"nonpayable"},{"type":"event","name":"ClearAction","inputs":[{"name":"action","type":"bytes32","indexed":false,"internalType":"bytes32"}],"anonymous":false},{"type":"event","name":"GlobalShortAveragePriceUpdated","inputs":[{"name":"token","type":"address","indexed":true,"internalType":"address"},{"name":"oldAveragePrice","type":"uint256","indexed":false,"internalType":"uint256"},{"name":"newAveragePrice","type":"uint256","indexed":false,"internalType":"uint256"}],"anonymous":false},{"type":"event","name":"SetAdmin","inputs":[{"name":"admin","type":"address","indexed":false,"internalType":"address"}],"anonymous":false},{"type":"event","name":"SetAveragePriceUpdateDelay","inputs":[{"name":"averagePriceUpdateDelay","type":"uint256","indexed":false,"internalType":"uint256"}],"anonymous":false},{"type":"event","name":"SetContractHandler","inputs":[{"name":"handler","type":"address","indexed":true,"internalType":"address"},{"name":"isHandler","type":"bool","indexed":false,"internalType":"bool"}],"anonymous":false},{"type":"event","name":"SetGov","inputs":[{"name":"target","type":"address","indexed":false,"internalType":"address"},{"name":"gov","type":"address","indexed":false,"internalType":"address"}],"anonymous":false},{"type":"event","name":"SetIsGlobalShortDataReady","inputs":[{"name":"target","type":"address","indexed":false,"internalType":"address"},{"name":"isGlobalShortDataReady","type":"bool","indexed":false,"internalType":"bool"}],"anonymous":false},{"type":"event","name":"SetMaxAveragePriceChange","inputs":[{"name":"maxAveragePriceChange","type":"uint256","indexed":false,"internalType":"uint256"}],"anonymous":false},{"type":"event","name":"SignalPendingAction","inputs":[{"name":"action","type":"bytes32","indexed":false,"internalType":"bytes32"}],"anonymous":false},{"type":"event","name":"SignalSetAdmin","inputs":[{"name":"admin","type":"address","indexed":false,"internalType":"address"}],"anonymous":false},{"type":"event","name":"SignalSetAveragePriceUpdateDelay","inputs":[{"name":"averagePriceUpdateDelay","type":"uint256","indexed":false,"internalType":"uint256"}],"anonymous":false},{"type":"event","name":"SignalSetGov","inputs":[{"name":"target","type":"address","indexed":false,"internalType":"address"},{"name":"gov","type":"address","indexed":false,"internalType":"address"}],"anonymous":false},{"type":"event","name":"SignalSetHandler","inputs":[{"name":"target","type":"address","indexed":false,"internalType":"address"},{"name":"handler","type":"address","indexed":false,"internalType":"address"},{"name":"isActive","type":"bool","indexed":false,"internalType":"bool"},{"name":"action","type":"bytes32","indexed":false,"internalType":"bytes32"}],"anonymous":false},{"type":"event","name":"SignalSetIsGlobalShortDataReady","inputs":[{"name":"target","type":"address","indexed":false,"internalType":"address"},{"name":"isGlobalShortDataReady","type":"bool","indexed":false,"internalType":"bool"}],"anonymous":false},{"type":"event","name":"SignalSetMaxAveragePriceChange","inputs":[{"name":"maxAveragePriceChange","type":"uint256","indexed":false,"internalType":"uint256"}],"anonymous":false}],"bytecode":{"object":"0x608060405234801561001057600080fd5b50604051611f4a380380611f4a8339818101604052608081101561003357600080fd5b50805160208201516040830151606090930151600180546001600160a01b0319166001600160a01b0390941693909317909255600255600591909155600655611ec9806100816000396000f3fe608060405234801561001057600080fd5b506004361061013e5760003560e01c80630a6f93e6146101435780631154e8081461017b578063126082cf146101b5578063185051c1146101bd5780631ab8fe04146101eb57806324ccbe30146101f35780632591d4831461022b5780632c166c411461025957806333156639146102765780633976e5661461029357806342588a671461036157806342773c2c1461037e57806346ea87af146103865780634882fa13146103c057806351a6de0d146103ee5780635c3bca361461041c57806361d0756914610439578063627395eb14610441578063704b6c0214610467578063717cf5d61461048d578063781cc3d3146104b3578063996a7a1e146104d0578063adc7ea37146104fe578063e30569e51461051b578063edaafe2014610538578063f851a44014610540575b600080fd5b6101696004803603602081101561015957600080fd5b50356001600160a01b0316610564565b60408051918252519081900360200190f35b6101b36004803603606081101561019157600080fd5b506001600160a01b038135811691602081013590911690604001351515610576565b005b6101696106a3565b6101b3600480360360408110156101d357600080fd5b506001600160a01b03813516906020013515156106a9565b610169610752565b6101b36004803603606081101561020957600080fd5b506001600160a01b038135811691602081013590911690604001351515610758565b6101b36004803603604081101561024157600080fd5b506001600160a01b038135169060200135151561085d565b6101b36004803603602081101561026f57600080fd5b50356109c2565b6101b36004803603602081101561028c57600080fd5b5035610aa1565b6101b3600480360360608110156102a957600080fd5b6001600160a01b038235169190810190604081016020820135600160201b8111156102d357600080fd5b8201836020820111156102e557600080fd5b803590602001918460208302840111600160201b8311171561030657600080fd5b919390929091602081019035600160201b81111561032357600080fd5b82018360208201111561033557600080fd5b803590602001918460208302840111600160201b8311171561035657600080fd5b509092509050610b82565b6101b36004803603602081101561037757600080fd5b5035610f21565b610169610ff4565b6103ac6004803603602081101561039c57600080fd5b50356001600160a01b0316610ffa565b604080519115158252519081900360200190f35b6101b3600480360360408110156103d657600080fd5b506001600160a01b038135169060200135151561100f565b6101b36004803603604081101561040457600080fd5b506001600160a01b038135811691602001351661110b565b6101b36004803603602081101561043257600080fd5b5035611263565b610169611334565b6101b36004803603602081101561045757600080fd5b50356001600160a01b031661133b565b6101b36004803603602081101561047d57600080fd5b50356001600160a01b0316611429565b6101b3600480360360208110156104a357600080fd5b50356001600160a01b031661151d565b6101b3600480360360208110156104c957600080fd5b5035611638565b6101b3600480360360408110156104e657600080fd5b506001600160a01b038135811691602001351661168d565b6101b36004803603602081101561051457600080fd5b50356117ba565b6101696004803603602081101561053157600080fd5b503561188a565b61016961189c565b6105486118a2565b604080516001600160a01b039092168252519081900360200190f35b60046020526000908152604090205481565b6001546001600160a01b031633146105bf5760405162461bcd60e51b8152600401808060200182810382526026815260200180611d266026913960400191505060405180910390fd5b604080516939b2ba2430b7323632b960b11b6020808301919091526001600160601b0319606087811b8216602a85015286901b16603e83015283151560f81b60528301528251603381840301815260539092019092528051910120610623816118b1565b61062c81611948565b836001600160a01b0316639cb7de4b84846040518363ffffffff1660e01b815260040180836001600160a01b03168152602001821515815260200192505050600060405180830381600087803b15801561068557600080fd5b505af1158015610699573d6000803e3d6000fd5b5050505050505050565b61271081565b6001546001600160a01b031633146106f25760405162461bcd60e51b8152600401808060200182810382526026815260200180611d266026913960400191505060405180910390fd5b6001600160a01b038216600081815260036020908152604091829020805460ff1916851515908117909155825190815291517f0c7e57410cc008b0b1abd8a03240abc3921d41be4ca09611330825622d5866cf9281900390910190a25050565b60055481565b6001546001600160a01b031633146107a15760405162461bcd60e51b8152600401808060200182810382526026815260200180611d266026913960400191505060405180910390fd5b604080516939b2ba2430b7323632b960b11b6020808301919091526001600160601b0319606087811b8216602a85015286901b16603e83015283151560f81b60528301528251603381840301815260539092019092528051910120610805816119d9565b604080516001600160a01b03808716825285166020820152831515818301526060810183905290517f1929c4e13b0dbbad7856b9ce1fc9dca98c7bf7cedd56e22c04dd60ad1d34fe4b9181900360800190a150505050565b6001546001600160a01b031633146108a65760405162461bcd60e51b8152600401808060200182810382526026815260200180611d266026913960400191505060405180910390fd5b60408051787365744973476c6f62616c53686f727444617461526561647960381b6020808301919091526001600160601b0319606086901b16603983015283151560f81b604d8301528251602e818403018152604e909201909252805191012061090f816118b1565b61091881611948565b826001600160a01b0316633d30cabf836040518263ffffffff1660e01b8152600401808215158152602001915050600060405180830381600087803b15801561096057600080fd5b505af1158015610974573d6000803e3d6000fd5b5050604080516001600160a01b0387168152851515602082015281517f177de4361fc37a0e8defe8ac0c685d3472789b507959897eec32350c9d2c36669450908190039091019150a1505050565b6001546001600160a01b03163314610a0b5760405162461bcd60e51b8152600401808060200182810382526026815260200180611d266026913960400191505060405180910390fd5b60408051777365744d61784176657261676550726963654368616e676560401b60208083019190915260388083018590528351808403909101815260589092019092528051910120610a5c816118b1565b610a6581611948565b60068290556040805183815290517fe846c28c10eef345d8d4fea8b403bfac624c32c3e64ce0b666f23404f2edb5149181900360200190a15050565b6001546001600160a01b03163314610aea5760405162461bcd60e51b8152600401808060200182810382526026815260200180611d266026913960400191505060405180910390fd5b604080517973657441766572616765507269636555706461746544656c617960301b602080830191909152603a80830185905283518084039091018152605a9092019092528051910120610b3d816118b1565b610b4681611948565b60058290556040805183815290517fa043b6b847902bb85c2a2575e9bce3a077bcaad8ec888ac941f50a6f4acdbb3d9181900360200190a15050565b3360009081526003602052604090205460ff1680610baa57506001546001600160a01b031633145b610be55760405162461bcd60e51b8152600401808060200182810382526028815260200180611d4c6028913960400191505060405180910390fd5b60408051633d30cabf60e01b815260006004820181905291516001600160a01b03881692633d30cabf926024808201939182900301818387803b158015610c2b57600080fd5b505af1158015610c3f573d6000803e3d6000fd5b5050505060005b83811015610e5c576000858583818110610c5c57fe5b905060200201356001600160a01b031690506000876001600160a01b03166362749803836040518263ffffffff1660e01b815260040180826001600160a01b0316815260200191505060206040518083038186803b158015610cbd57600080fd5b505afa158015610cd1573d6000803e3d6000fd5b505050506040513d6020811015610ce757600080fd5b505190506000858585818110610cf957fe5b9050602002013590506000828211610d1a57610d158383611a7b565b610d24565b610d248284611a7b565b600654909150610d4084610d3a84612710611ac6565b90611b1f565b10610d7c5760405162461bcd60e51b8152600401808060200182810382526025815260200180611e6f6025913960400191505060405180910390fd5b6005546001600160a01b038516600090815260046020526040902054610da191611b5e565b421015610df5576040805162461bcd60e51b815260206004820181905260248201527f53686f727473547261636b657254696d656c6f636b3a20746f6f206561726c79604482015290519081900360640190fd5b6001600160a01b038416600081815260046020908152604091829020429055815186815290810185905281517fa6a58ff784b1e07988de90568885d7bbd8e5485c3ec4344195c7306108553256929181900390910190a2505060019092019150610c469050565b50846001600160a01b031663bbd97187858585856040518563ffffffff1660e01b81526004018080602001806020018381038352878782818152602001925060200280828437600083820152601f01601f19169091018481038352858152602090810191508690860280828437600081840152601f19601f8201169050808301925050509650505050505050600060405180830381600087803b158015610f0257600080fd5b505af1158015610f16573d6000803e3d6000fd5b505050505050505050565b6001546001600160a01b03163314610f6a5760405162461bcd60e51b8152600401808060200182810382526026815260200180611d266026913960400191505060405180910390fd5b604080517973657441766572616765507269636555706461746544656c617960301b602080830191909152603a80830185905283518084039091018152605a9092019092528051910120610fbd816119d9565b6040805183815290517fc226c48cee6a025ab009e01969a2e89f1ce4d455cfa2900745b2237cb0bb8d619181900360200190a15050565b60065481565b60036020526000908152604090205460ff1681565b6001546001600160a01b031633146110585760405162461bcd60e51b8152600401808060200182810382526026815260200180611d266026913960400191505060405180910390fd5b60408051787365744973476c6f62616c53686f727444617461526561647960381b6020808301919091526001600160601b0319606086901b16603983015283151560f81b604d8301528251602e818403018152604e90920190925280519101206110c1816119d9565b604080516001600160a01b0385168152831515602082015281517f362e5bba25647700de1a7562fc07672df837bef17125e07a6f79abea31ee5a48929181900390910190a1505050565b6001546001600160a01b031633146111545760405162461bcd60e51b8152600401808060200182810382526026815260200180611d266026913960400191505060405180910390fd5b604080516539b2ba23b7bb60d11b6020808301919091526001600160601b0319606086811b8216602685015285901b16603a8301528251602e818403018152604e90920190925280519101206111a9816118b1565b6111b281611948565b826001600160a01b031663cfad57a2836040518263ffffffff1660e01b815260040180826001600160a01b03168152602001915050600060405180830381600087803b15801561120157600080fd5b505af1158015611215573d6000803e3d6000fd5b5050604080516001600160a01b0380881682528616602082015281517f53351836099c03ffc3b1727d8abd4b0222afa87d4ed76ae3102d51369ef7f7859450908190039091019150a1505050565b6001546001600160a01b031633146112ac5760405162461bcd60e51b8152600401808060200182810382526026815260200180611d266026913960400191505060405180910390fd5b60408051777365744d61784176657261676550726963654368616e676560401b602080830191909152603880830185905283518084039091018152605890920190925280519101206112fd816119d9565b6040805183815290517f21f68305d262b9ce144019f5d9f755a2dd1b5c2d35996cd4b649c285d7525cd19181900360200190a15050565b6206978081565b6001546001600160a01b031633146113845760405162461bcd60e51b8152600401808060200182810382526026815260200180611d266026913960400191505060405180910390fd5b60408051633d30cabf60e01b815260006004820181905291516001600160a01b03841692633d30cabf926024808201939182900301818387803b1580156113ca57600080fd5b505af11580156113de573d6000803e3d6000fd5b5050604080516001600160a01b03851681526000602082015281517f177de4361fc37a0e8defe8ac0c685d3472789b507959897eec32350c9d2c36669450908190039091019150a150565b6001546001600160a01b031633146114725760405162461bcd60e51b8152600401808060200182810382526026815260200180611d266026913960400191505060405180910390fd5b604080516739b2ba20b236b4b760c11b6020808301919091526001600160601b0319606085901b1660288301528251601c818403018152603c90920190925280519101206114bf816118b1565b6114c881611948565b600180546001600160a01b0384166001600160a01b0319909116811790915560408051918252517f5a272403b402d892977df56625f4164ccaf70ca3863991c43ecfe76a6905b0a19181900360200190a15050565b6001546001600160a01b031633146115665760405162461bcd60e51b8152600401808060200182810382526026815260200180611d266026913960400191505060405180910390fd5b6001600160a01b0381166115ab5760405162461bcd60e51b8152600401808060200182810382526024815260200180611df56024913960400191505060405180910390fd5b604080516739b2ba20b236b4b760c11b6020808301919091526001600160601b0319606085901b1660288301528251601c818403018152603c90920190925280519101206115f8816119d9565b604080516001600160a01b038416815290517fbccacda50126e9efa231593d2a9d4394d7cda7909ab2e14d2ae878ab2a306b3f9181900360200190a15050565b6001546001600160a01b031633146116815760405162461bcd60e51b8152600401808060200182810382526026815260200180611d266026913960400191505060405180910390fd5b61168a81611948565b50565b6001546001600160a01b031633146116d65760405162461bcd60e51b8152600401808060200182810382526026815260200180611d266026913960400191505060405180910390fd5b6001600160a01b03811661171b5760405162461bcd60e51b8152600401808060200182810382526022815260200180611cb36022913960400191505060405180910390fd5b604080516539b2ba23b7bb60d11b6020808301919091526001600160601b0319606086811b8216602685015285901b16603a8301528251602e818403018152604e9092019092528051910120611770816119d9565b604080516001600160a01b0380861682528416602082015281517f84f5d90471bb5811423318895e49ef4de52f5a6f4dac67af85e4202410bb66a4929181900390910190a1505050565b6001546001600160a01b031633146118035760405162461bcd60e51b8152600401808060200182810382526026815260200180611d266026913960400191505060405180910390fd5b620697808111156118455760405162461bcd60e51b8152600401808060200182810382526025815260200180611e196025913960400191505060405180910390fd5b60025481116118855760405162461bcd60e51b8152600401808060200182810382526031815260200180611e3e6031913960400191505060405180910390fd5b600255565b60006020819052908152604090205481565b60025481565b6001546001600160a01b031681565b6000818152602081905260409020546118fb5760405162461bcd60e51b815260040180806020018281038252602b815260200180611cfb602b913960400191505060405180910390fd5b60008181526020819052604090205442101561168a5760405162461bcd60e51b8152600401808060200182810382526031815260200180611dc46031913960400191505060405180910390fd5b6000818152602081905260409020546119925760405162461bcd60e51b8152600401808060200182810382526026815260200180611cd56026913960400191505060405180910390fd5b60008181526020818152604080832092909255815183815291517f194ed6dd5e37e2acc44a19455c3f208c4831ee695fe362d9c4ef2d316bc53aec9281900390910190a150565b60008181526020819052604090205415611a245760405162461bcd60e51b815260040180806020018281038252602f815260200180611d74602f913960400191505060405180910390fd5b600254611a32904290611b5e565b6000828152602081815260409182902092909255805183815290517f5fb9c0ecf7b4a28c4c480212e868f9da7f373a2ed4d23498b0be6aadf35242fb929181900390910190a150565b6000611abd83836040518060400160405280601e81526020017f536166654d6174683a207375627472616374696f6e206f766572666c6f770000815250611bb6565b90505b92915050565b600082611ad557506000611ac0565b82820282848281611ae257fe5b0414611abd5760405162461bcd60e51b8152600401808060200182810382526021815260200180611da36021913960400191505060405180910390fd5b6000611abd83836040518060400160405280601a815260200179536166654d6174683a206469766973696f6e206279207a65726f60301b815250611c4d565b600082820183811015611abd576040805162461bcd60e51b815260206004820152601b60248201527a536166654d6174683a206164646974696f6e206f766572666c6f7760281b604482015290519081900360640190fd5b60008184841115611c455760405162461bcd60e51b81526004018080602001828103825283818151815260200191508051906020019080838360005b83811015611c0a578181015183820152602001611bf2565b50505050905090810190601f168015611c375780820380516001836020036101000a031916815260200191505b509250505060405180910390fd5b505050900390565b60008183611c9c5760405162461bcd60e51b8152602060048201818152835160248401528351909283926044909101919085019080838360008315611c0a578181015183820152602001611bf2565b506000838581611ca857fe5b049594505050505056fe53686f727473547261636b657254696d656c6f636b3a20696e76616c696420676f7653686f727473547261636b657254696d656c6f636b3a20696e76616c6964205f616374696f6e53686f727473547261636b657254696d656c6f636b3a20616374696f6e206e6f74207369676e616c6c656453686f727473547261636b657254696d656c6f636b3a2061646d696e20666f7262696464656e53686f727473547261636b657254696d656c6f636b3a2068616e646c657220666f7262696464656e53686f727473547261636b657254696d656c6f636b3a20616374696f6e20616c7265616479207369676e616c6c6564536166654d6174683a206d756c7469706c69636174696f6e206f766572666c6f7753686f727473547261636b657254696d656c6f636b3a20616374696f6e2074696d65206e6f74207965742070617373656453686f727473547261636b657254696d656c6f636b3a20696e76616c69642061646d696e53686f727473547261636b657254696d656c6f636b3a20696e76616c69642062756666657253686f727473547261636b657254696d656c6f636b3a206275666665722063616e6e6f742062652064656372656173656453686f727473547261636b657254696d656c6f636b3a20746f6f20626967206368616e6765a2646970667358221220375eb02148a92ccaf14b56d8fa567bef2d193ac3d6c027041cfd51d7c3cd2f4164736f6c634300060c0033","linkReferences":{}},"methodIdentifiers":{"BASIS_POINTS_DIVISOR()":"126082cf","MAX_BUFFER()":"61d07569","admin()":"f851a440","averagePriceUpdateDelay()":"1ab8fe04","buffer()":"edaafe20","cancelAction(bytes32)":"781cc3d3","disableIsGlobalShortDataReady(address)":"627395eb","isHandler(address)":"46ea87af","lastUpdated(address)":"0a6f93e6","maxAveragePriceChange()":"42773c2c","pendingActions(bytes32)":"e30569e5","setAdmin(address)":"704b6c02","setAveragePriceUpdateDelay(uint256)":"33156639","setBuffer(uint256)":"adc7ea37","setContractHandler(address,bool)":"185051c1","setGlobalShortAveragePrices(address,address[],uint256[])":"3976e566","setGov(address,address)":"51a6de0d","setHandler(address,address,bool)":"1154e808","setIsGlobalShortDataReady(address,bool)":"2591d483","setMaxAveragePriceChange(uint256)":"2c166c41","signalSetAdmin(address)":"717cf5d6","signalSetAveragePriceUpdateDelay(uint256)":"42588a67","signalSetGov(address,address)":"996a7a1e","signalSetHandler(address,address,bool)":"24ccbe30","signalSetIsGlobalShortDataReady(address,bool)":"4882fa13","signalSetMaxAveragePriceChange(uint256)":"5c3bca36"},"id":76}