{"abi":[{"type":"function","name":"BASIS_POINTS","inputs":[],"outputs":[{"name":"","type":"uint256","internalType":"uint256"}],"stateMutability":"view"},{"type":"function","name":"acceptGov","inputs":[],"outputs":[],"stateMutability":"nonpayable"},{"type":"function","name":"cancelGovProposal","inputs":[{"name":"_gov","type":"address","internalType":"address"}],"outputs":[],"stateMutability":"nonpayable"},{"type":"function","name":"codeOwners","inputs":[{"name":"","type":"bytes32","internalType":"bytes32"}],"outputs":[{"name":"","type":"address","internalType":"address"}],"stateMutability":"view"},{"type":"function","name":"getTraderReferralInfo","inputs":[{"name":"_account","type":"address","internalType":"address"}],"outputs":[{"name":"","type":"bytes32","internalType":"bytes32"},{"name":"","type":"address","internalType":"address"}],"stateMutability":"view"},{"type":"function","name":"gov","inputs":[],"outputs":[{"name":"","type":"address","internalType":"address"}],"stateMutability":"view"},{"type":"function","name":"govProposals","inputs":[{"name":"","type":"address","internalType":"address"}],"outputs":[{"name":"deadline","type":"uint256","internalType":"uint256"},{"name":"isActive","type":"bool","internalType":"bool"}],"stateMutability":"view"},{"type":"function","name":"govSetCodeOwner","inputs":[{"name":"_code","type":"bytes32","internalType":"bytes32"},{"name":"_newAccount","type":"address","internalType":"address"}],"outputs":[],"stateMutability":"nonpayable"},{"type":"function","name":"isHandler","inputs":[{"name":"","type":"address","internalType":"address"}],"outputs":[{"name":"","type":"bool","internalType":"bool"}],"stateMutability":"view"},{"type":"function","name":"ownerToCode","inputs":[{"name":"","type":"address","internalType":"address"}],"outputs":[{"name":"","type":"bytes32","internalType":"bytes32"}],"stateMutability":"view"},{"type":"function","name":"referrerTiers","inputs":[{"name":"","type":"address","internalType":"address"}],"outputs":[{"name":"","type":"uint256","internalType":"uint256"}],"stateMutability":"view"},{"type":"function","name":"registerCode","inputs":[{"name":"_code","type":"bytes32","internalType":"bytes32"}],"outputs":[],"stateMutability":"nonpayable"},{"type":"function","name":"setGov","inputs":[{"name":"_gov","type":"address","internalType":"address"}],"outputs":[],"stateMutability":"nonpayable"},{"type":"function","name":"setGovWithDeadline","inputs":[{"name":"_gov","type":"address","internalType":"address"},{"name":"_deadline","type":"uint256","internalType":"uint256"}],"outputs":[],"stateMutability":"nonpayable"},{"type":"function","name":"setHandler","inputs":[{"name":"_handler","type":"address","internalType":"address"},{"name":"_isActive","type":"bool","internalType":"bool"}],"outputs":[],"stateMutability":"nonpayable"},{"type":"function","name":"setReferrerTier","inputs":[{"name":"_referrer","type":"address","internalType":"address"},{"name":"_tierId","type":"uint256","internalType":"uint256"}],"outputs":[],"stateMutability":"nonpayable"},{"type":"function","name":"setTier","inputs":[{"name":"_tierId","type":"uint256","internalType":"uint256"},{"name":"_traderDiscount","type":"uint256","internalType":"uint256"},{"name":"_referrerDiscount","type":"uint256","internalType":"uint256"}],"outputs":[],"stateMutability":"nonpayable"},{"type":"function","name":"setTraderReferralCode","inputs":[{"name":"_account","type":"address","internalType":"address"},{"name":"_code","type":"bytes32","internalType":"bytes32"}],"outputs":[],"stateMutability":"nonpayable"},{"type":"function","name":"setTraderReferralCodeByUser","inputs":[{"name":"_code","type":"bytes32","internalType":"bytes32"}],"outputs":[],"stateMutability":"nonpayable"},{"type":"function","name":"tiers","inputs":[{"name":"","type":"uint256","internalType":"uint256"}],"outputs":[{"name":"traderDiscount","type":"uint256","internalType":"uint256"},{"name":"referrerDiscount","type":"uint256","internalType":"uint256"}],"stateMutability":"view"},{"type":"function","name":"traderReferralCodes","inputs":[{"name":"","type":"address","internalType":"address"}],"outputs":[{"name":"","type":"bytes32","internalType":"bytes32"}],"stateMutability":"view"},{"type":"event","name":"GovProposalCanceled","inputs":[{"name":"proposedGov","type":"address","indexed":true,"internalType":"address"},{"name":"canceledBy","type":"address","indexed":true,"internalType":"address"}],"anonymous":false},{"type":"event","name":"GovSetCodeOwner","inputs":[{"name":"code","type":"bytes32","indexed":false,"internalType":"bytes32"},{"name":"newAccount","type":"address","indexed":false,"internalType":"address"}],"anonymous":false},{"type":"event","name":"GovernanceTransferRequested","inputs":[{"name":"newGov","type":"address","indexed":true,"internalType":"address"},{"name":"deadline","type":"uint256","indexed":false,"internalType":"uint256"}],"anonymous":false},{"type":"event","name":"GovernanceTransferred","inputs":[{"name":"oldGov","type":"address","indexed":true,"internalType":"address"},{"name":"newGov","type":"address","indexed":true,"internalType":"address"}],"anonymous":false},{"type":"event","name":"RegisterCode","inputs":[{"name":"account","type":"address","indexed":false,"internalType":"address"},{"name":"code","type":"bytes32","indexed":false,"internalType":"bytes32"}],"anonymous":false},{"type":"event","name":"SetHandler","inputs":[{"name":"handler","type":"address","indexed":false,"internalType":"address"},{"name":"isActive","type":"bool","indexed":false,"internalType":"bool"}],"anonymous":false},{"type":"event","name":"SetReferrerTier","inputs":[{"name":"referrer","type":"address","indexed":false,"internalType":"address"},{"name":"tierId","type":"uint256","indexed":false,"internalType":"uint256"}],"anonymous":false},{"type":"event","name":"SetTier","inputs":[{"name":"tierId","type":"uint256","indexed":false,"internalType":"uint256"},{"name":"totalRebate","type":"uint256","indexed":false,"internalType":"uint256"},{"name":"discountShare","type":"uint256","indexed":false,"internalType":"uint256"}],"anonymous":false},{"type":"event","name":"SetTraderReferralCode","inputs":[{"name":"account","type":"address","indexed":false,"internalType":"address"},{"name":"code","type":"bytes32","indexed":false,"internalType":"bytes32"}],"anonymous":false}],"bytecode":{"object":"0x608060405234801561001057600080fd5b50600080546001600160a01b031916331790556111d1806100326000396000f3fe608060405234801561001057600080fd5b50600436106101075760003560e01c8063039af9eb1461010c57806312d43a51146101425780631582a0181461016657806336def2c81461019e5780633fb8b323146101bd57806346ea87af146101e9578063534ef8831461022357806356b4b2ad1461026a5780636bb22fd7146102965780637bc6729b146102c2578063836a0187146102ca57806385725b58146102f35780638d0fedb0146103195780639c35b497146103585780639cb7de4b1461037e578063c8b3c460146103ac578063cfad57a2146103c9578063dfcfa250146103ef578063e1e01bf31461041b578063e1f1c4a714610438578063f858d07f14610440575b600080fd5b6101296004803603602081101561012257600080fd5b5035610466565b6040805192835260208301919091528051918290030190f35b61014a61047f565b604080516001600160a01b039092168252519081900360200190f35b61018c6004803603602081101561017c57600080fd5b50356001600160a01b031661048e565b60408051918252519081900360200190f35b6101bb600480360360208110156101b457600080fd5b50356104a0565b005b6101bb600480360360408110156101d357600080fd5b506001600160a01b0381351690602001356105b2565b61020f600480360360208110156101ff57600080fd5b50356001600160a01b0316610658565b604080519115158252519081900360200190f35b6102496004803603602081101561023957600080fd5b50356001600160a01b031661066d565b604080519283526001600160a01b0390911660208301528051918290030190f35b6101bb6004803603604081101561028057600080fd5b506001600160a01b0381351690602001356106b3565b6101bb600480360360408110156102ac57600080fd5b506001600160a01b03813516906020013561076a565b6101bb61087b565b6101bb600480360360608110156102e057600080fd5b508035906020810135906040013561098f565b61018c6004803603602081101561030957600080fd5b50356001600160a01b0316610ae4565b61033f6004803603602081101561032f57600080fd5b50356001600160a01b0316610af6565b6040805192835290151560208301528051918290030190f35b6101bb6004803603602081101561036e57600080fd5b50356001600160a01b0316610b12565b6101bb6004803603604081101561039457600080fd5b506001600160a01b0381351690602001351515610c23565b61014a600480360360208110156103c257600080fd5b5035610cd4565b6101bb600480360360208110156103df57600080fd5b50356001600160a01b0316610cef565b6101bb6004803603604081101561040557600080fd5b50803590602001356001600160a01b0316610e05565b6101bb6004803603602081101561043157600080fd5b5035610fdb565b61018c610fe5565b61018c6004803603602081101561045657600080fd5b50356001600160a01b0316610feb565b6002602052600090815260409020805460019091015482565b6000546001600160a01b031681565b60036020526000908152604090205481565b806104f2576040805162461bcd60e51b815260206004820152601e60248201527f526566657272616c53746f726167653a20696e76616c6964205f636f64650000604482015290519081900360640190fd5b6000818152600560205260409020546001600160a01b0316156105465760405162461bcd60e51b81526004018080602001828103825260248152602001806111526024913960400191505060405180910390fd5b600081815260056020908152604080832080546001600160a01b031916339081179091558084526006835292819020849055805192835290820183905280517f04f82286a2a3b2ee5c8555de8304dfe2ea70991613213184b73a9e408d2d80299281900390910190a150565b6000546001600160a01b031633146105ff576040805162461bcd60e51b815260206004820152601560248201526000805160206110ec833981519152604482015290519081900360640190fd5b6001600160a01b0382166000818152600360209081526040918290208490558151928352820183905280517f7696855cdbb94bb5a44cb0a95caff6f29173aa1cbfba193834b12b90827ce2bc9281900390910190a15050565b60046020526000908152604090205460ff1681565b6001600160a01b03811660009081526007602052604081205481908181156106a957506000818152600560205260409020546001600160a01b03165b9092509050915091565b3360009081526004602052604090205460ff16610714576040805162461bcd60e51b815260206004820152601a6024820152792932b332b93930b629ba37b930b3b29d103337b93134b23232b760311b604482015290519081900360640190fd5b6000818152600560205260409020546001600160a01b038381169116141561073b57610766565b6000818152600560205260409020546001600160a01b031661075c57610766565b6107668282610ffd565b5050565b6000546001600160a01b031633146107b7576040805162461bcd60e51b815260206004820152601560248201526000805160206110ec833981519152604482015290519081900360640190fd5b6001600160a01b038216610810576040805162461bcd60e51b815260206004820152601b60248201527a476f7665726e61626c653a20696e76616c6964206164647265737360281b604482015290519081900360640190fd5b6000546001600160a01b0383811691161415610871576040805162461bcd60e51b815260206004820152601b60248201527a476f7665726e61626c653a2073616d6520676f7665726e616e636560281b604482015290519081900360640190fd5b6107668282611056565b336000908152600160205260409020805442106108de576040805162461bcd60e51b815260206004820152601c60248201527b11dbdd995c9b98589b194e88191958591b1a5b9948195e1c1a5c995960221b604482015290519081900360640190fd5b60018082015460ff161515146109255760405162461bcd60e51b81526004018080602001828103825260228152602001806111306022913960400191505060405180910390fd5b6000805433808352600160208190526040808520858155909101805460ff1916905583546001600160a01b03191682178455516001600160a01b0390921692909183917f5f56bee8cffbe9a78652a74a60705edede02af10b0bbb888ca44b79a0d42ce8091a35050565b6000546001600160a01b031633146109dc576040805162461bcd60e51b815260206004820152601560248201526000805160206110ec833981519152604482015290519081900360640190fd5b612710821115610a1d5760405162461bcd60e51b815260040180806020018281038252602481526020018061110c6024913960400191505060405180910390fd5b612710811115610a5e5760405162461bcd60e51b81526004018080602001828103825260268152602001806111766026913960400191505060405180910390fd5b610a666110d1565b50600083815260026020818152604080842081518083018352878152808401878152958990529383528351815593516001909401939093558251868152908101859052808301849052915190917f4ebd23a492b2bd79586cb57cae40d7793408265f20320f68b478b971e696f4c7919081900360600190a150505050565b60076020526000908152604090205481565b6001602081905260009182526040909120805491015460ff1682565b6000546001600160a01b03163314610b5f576040805162461bcd60e51b815260206004820152601560248201526000805160206110ec833981519152604482015290519081900360640190fd5b6001600160a01b0381166000908152600160208190526040909120015460ff16610bd0576040805162461bcd60e51b815260206004820152601f60248201527f476f7665726e61626c653a2070726f706f73616c206e6f742061637469766500604482015290519081900360640190fd5b6001600160a01b0381166000818152600160208190526040808320838155909101805460ff19169055513392917ffc6a2fa53abe2adfe8372a9495032d7e6458d3aed34fa880132b6c808da1e99c91a350565b6000546001600160a01b03163314610c70576040805162461bcd60e51b815260206004820152601560248201526000805160206110ec833981519152604482015290519081900360640190fd5b6001600160a01b038216600081815260046020908152604091829020805460ff191685151590811790915582519384529083015280517fd373464a39404e5f98fdb4b152b8ba9a094561e97e5c4b4ea11eb18cd9e6695e9281900390910190a15050565b6005602052600090815260409020546001600160a01b031681565b6000546001600160a01b03163314610d3c576040805162461bcd60e51b815260206004820152601560248201526000805160206110ec833981519152604482015290519081900360640190fd5b6001600160a01b038116610d95576040805162461bcd60e51b815260206004820152601b60248201527a476f7665726e61626c653a20696e76616c6964206164647265737360281b604482015290519081900360640190fd5b6000546001600160a01b0382811691161415610df6576040805162461bcd60e51b815260206004820152601b60248201527a476f7665726e61626c653a2073616d6520676f7665726e616e636560281b604482015290519081900360640190fd5b610e0281600019611056565b50565b6000546001600160a01b03163314610e52576040805162461bcd60e51b815260206004820152601560248201526000805160206110ec833981519152604482015290519081900360640190fd5b81610ea4576040805162461bcd60e51b815260206004820152601e60248201527f526566657272616c53746f726167653a20696e76616c6964205f636f64650000604482015290519081900360640190fd5b6001600160a01b03811660009081526006602052604090205415610f0f576040805162461bcd60e51b815260206004820152601f60248201527f526566657272616c53746f726167653a20616c72656164792065786973747300604482015290519081900360640190fd5b6000828152600560205260409020546001600160a01b031615610f635760405162461bcd60e51b81526004018080602001828103825260248152602001806111526024913960400191505060405180910390fd5b600082815260056020908152604080832080546001600160a01b0319166001600160a01b038616908117909155808452600683529281902085905580518581529182019290925281517f6431f88c655dd0e2b8d09b6405c007c515c66d67f2998e69c902873a8c8f3e97929181900390910190a15050565b610e023382610ffd565b61271081565b60066020526000908152604090205481565b6001600160a01b0382166000818152600760209081526040918290208490558151928352820183905280517f43825f14567dda057e821be2e51a5aa79aa51f3907a647e3ed2bd486a01050f19281900390910190a15050565b604080518082018252828152600160208083018281526001600160a01b038716600081815284845286902094518555905193909201805460ff1916931515939093179092558251848152925190927f02dd0697be46e764c3ba81094158781c31b235d03bb27a0daf1bdef0ec1084dd92908290030190a25050565b60405180604001604052806000815260200160008152509056fe476f7665726e61626c653a20666f7262696464656e0000000000000000000000526566657272616c53746f726167653a20696e76616c696420746f74616c526562617465476f7665726e61626c653a2070726f706f73616c206973206e6f7420616374697665526566657272616c53746f726167653a20636f646520616c726561647920657869737473526566657272616c53746f726167653a20696e76616c696420646973636f756e745368617265a2646970667358221220e28b31dc7b1eb93bd94e4924cfcfbaf31cdc7f195f99d40c8622f1bb41bf7c3564736f6c634300060c0033","linkReferences":{}},"methodIdentifiers":{"BASIS_POINTS()":"e1f1c4a7","acceptGov()":"7bc6729b","cancelGovProposal(address)":"9c35b497","codeOwners(bytes32)":"c8b3c460","getTraderReferralInfo(address)":"534ef883","gov()":"12d43a51","govProposals(address)":"8d0fedb0","govSetCodeOwner(bytes32,address)":"dfcfa250","isHandler(address)":"46ea87af","ownerToCode(address)":"f858d07f","referrerTiers(address)":"1582a018","registerCode(bytes32)":"36def2c8","setGov(address)":"cfad57a2","setGovWithDeadline(address,uint256)":"6bb22fd7","setHandler(address,bool)":"9cb7de4b","setReferrerTier(address,uint256)":"3fb8b323","setTier(uint256,uint256,uint256)":"836a0187","setTraderReferralCode(address,bytes32)":"56b4b2ad","setTraderReferralCodeByUser(bytes32)":"e1e01bf3","tiers(uint256)":"039af9eb","traderReferralCodes(address)":"85725b58"},"id":84}