{"abi":[{"type":"function","name":"BASIS_POINTS","inputs":[],"outputs":[{"name":"","type":"uint256","internalType":"uint256"}],"stateMutability":"view"},{"type":"function","name":"codeOwners","inputs":[{"name":"","type":"bytes32","internalType":"bytes32"}],"outputs":[{"name":"","type":"address","internalType":"address"}],"stateMutability":"view"},{"type":"function","name":"getTraderReferralInfo","inputs":[{"name":"_account","type":"address","internalType":"address"}],"outputs":[{"name":"","type":"bytes32","internalType":"bytes32"},{"name":"","type":"address","internalType":"address"}],"stateMutability":"view"},{"type":"function","name":"gov","inputs":[],"outputs":[{"name":"","type":"address","internalType":"address"}],"stateMutability":"view"},{"type":"function","name":"govSetCodeOwner","inputs":[{"name":"_code","type":"bytes32","internalType":"bytes32"},{"name":"_newAccount","type":"address","internalType":"address"}],"outputs":[],"stateMutability":"nonpayable"},{"type":"function","name":"isHandler","inputs":[{"name":"","type":"address","internalType":"address"}],"outputs":[{"name":"","type":"bool","internalType":"bool"}],"stateMutability":"view"},{"type":"function","name":"ownerToCode","inputs":[{"name":"","type":"address","internalType":"address"}],"outputs":[{"name":"","type":"bytes32","internalType":"bytes32"}],"stateMutability":"view"},{"type":"function","name":"referrerTiers","inputs":[{"name":"","type":"address","internalType":"address"}],"outputs":[{"name":"","type":"uint256","internalType":"uint256"}],"stateMutability":"view"},{"type":"function","name":"registerCode","inputs":[{"name":"_code","type":"bytes32","internalType":"bytes32"}],"outputs":[],"stateMutability":"nonpayable"},{"type":"function","name":"setGov","inputs":[{"name":"_gov","type":"address","internalType":"address"}],"outputs":[],"stateMutability":"nonpayable"},{"type":"function","name":"setHandler","inputs":[{"name":"_handler","type":"address","internalType":"address"},{"name":"_isActive","type":"bool","internalType":"bool"}],"outputs":[],"stateMutability":"nonpayable"},{"type":"function","name":"setReferrerTier","inputs":[{"name":"_referrer","type":"address","internalType":"address"},{"name":"_tierId","type":"uint256","internalType":"uint256"}],"outputs":[],"stateMutability":"nonpayable"},{"type":"function","name":"setTier","inputs":[{"name":"_tierId","type":"uint256","internalType":"uint256"},{"name":"_traderDiscount","type":"uint256","internalType":"uint256"},{"name":"_referrerDiscount","type":"uint256","internalType":"uint256"}],"outputs":[],"stateMutability":"nonpayable"},{"type":"function","name":"setTraderReferralCode","inputs":[{"name":"_account","type":"address","internalType":"address"},{"name":"_code","type":"bytes32","internalType":"bytes32"}],"outputs":[],"stateMutability":"nonpayable"},{"type":"function","name":"setTraderReferralCodeByUser","inputs":[{"name":"_code","type":"bytes32","internalType":"bytes32"}],"outputs":[],"stateMutability":"nonpayable"},{"type":"function","name":"tiers","inputs":[{"name":"","type":"uint256","internalType":"uint256"}],"outputs":[{"name":"traderDiscount","type":"uint256","internalType":"uint256"},{"name":"referrerDiscount","type":"uint256","internalType":"uint256"}],"stateMutability":"view"},{"type":"function","name":"traderReferralCodes","inputs":[{"name":"","type":"address","internalType":"address"}],"outputs":[{"name":"","type":"bytes32","internalType":"bytes32"}],"stateMutability":"view"},{"type":"event","name":"GovSetCodeOwner","inputs":[{"name":"code","type":"bytes32","indexed":false,"internalType":"bytes32"},{"name":"newAccount","type":"address","indexed":false,"internalType":"address"}],"anonymous":false},{"type":"event","name":"RegisterCode","inputs":[{"name":"account","type":"address","indexed":false,"internalType":"address"},{"name":"code","type":"bytes32","indexed":false,"internalType":"bytes32"}],"anonymous":false},{"type":"event","name":"SetHandler","inputs":[{"name":"handler","type":"address","indexed":false,"internalType":"address"},{"name":"isActive","type":"bool","indexed":false,"internalType":"bool"}],"anonymous":false},{"type":"event","name":"SetReferrerTier","inputs":[{"name":"referrer","type":"address","indexed":false,"internalType":"address"},{"name":"tierId","type":"uint256","indexed":false,"internalType":"uint256"}],"anonymous":false},{"type":"event","name":"SetTier","inputs":[{"name":"tierId","type":"uint256","indexed":false,"internalType":"uint256"},{"name":"totalRebate","type":"uint256","indexed":false,"internalType":"uint256"},{"name":"discountShare","type":"uint256","indexed":false,"internalType":"uint256"}],"anonymous":false},{"type":"event","name":"SetTraderReferralCode","inputs":[{"name":"account","type":"address","indexed":false,"internalType":"address"},{"name":"code","type":"bytes32","indexed":false,"internalType":"bytes32"}],"anonymous":false}],"bytecode":{"object":"0x608060405234801561001057600080fd5b50600080546001600160a01b03191633179055610c73806100326000396000f3fe608060405234801561001057600080fd5b50600436106100db5760003560e01c8063039af9eb146100e057806312d43a51146101165780631582a0181461013a57806336def2c8146101725780633fb8b3231461019157806346ea87af146101bd578063534ef883146101f757806356b4b2ad1461023e578063836a01871461026a57806385725b58146102935780639cb7de4b146102b9578063c8b3c460146102e7578063cfad57a214610304578063dfcfa2501461032a578063e1e01bf314610356578063e1f1c4a714610373578063f858d07f1461037b575b600080fd5b6100fd600480360360208110156100f657600080fd5b50356103a1565b6040805192835260208301919091528051918290030190f35b61011e6103ba565b604080516001600160a01b039092168252519081900360200190f35b6101606004803603602081101561015057600080fd5b50356001600160a01b03166103c9565b60408051918252519081900360200190f35b61018f6004803603602081101561018857600080fd5b50356103db565b005b61018f600480360360408110156101a757600080fd5b506001600160a01b0381351690602001356104ed565b6101e3600480360360208110156101d357600080fd5b50356001600160a01b0316610593565b604080519115158252519081900360200190f35b61021d6004803603602081101561020d57600080fd5b50356001600160a01b03166105a8565b604080519283526001600160a01b0390911660208301528051918290030190f35b61018f6004803603604081101561025457600080fd5b506001600160a01b0381351690602001356105ee565b61018f6004803603606081101561028057600080fd5b50803590602081013590604001356106a5565b610160600480360360208110156102a957600080fd5b50356001600160a01b03166107f4565b61018f600480360360408110156102cf57600080fd5b506001600160a01b0381351690602001351515610806565b61011e600480360360208110156102fd57600080fd5b50356108b7565b61018f6004803603602081101561031a57600080fd5b50356001600160a01b03166108d2565b61018f6004803603604081101561034057600080fd5b50803590602001356001600160a01b0316610941565b61018f6004803603602081101561036c57600080fd5b5035610b17565b610160610b24565b6101606004803603602081101561039157600080fd5b50356001600160a01b0316610b2a565b6001602081905260009182526040909120805491015482565b6000546001600160a01b031681565b60026020526000908152604090205481565b8061042d576040805162461bcd60e51b815260206004820152601e60248201527f526566657272616c53746f726167653a20696e76616c6964205f636f64650000604482015290519081900360640190fd5b6000818152600460205260409020546001600160a01b0316156104815760405162461bcd60e51b8152600401808060200182810382526024815260200180610bf46024913960400191505060405180910390fd5b600081815260046020908152604080832080546001600160a01b031916339081179091558084526005835292819020849055805192835290820183905280517f04f82286a2a3b2ee5c8555de8304dfe2ea70991613213184b73a9e408d2d80299281900390910190a150565b6000546001600160a01b0316331461053a576040805162461bcd60e51b81526020600482015260156024820152600080516020610bb0833981519152604482015290519081900360640190fd5b6001600160a01b0382166000818152600260209081526040918290208490558151928352820183905280517f7696855cdbb94bb5a44cb0a95caff6f29173aa1cbfba193834b12b90827ce2bc9281900390910190a15050565b60036020526000908152604090205460ff1681565b6001600160a01b03811660009081526006602052604081205481908181156105e457506000818152600460205260409020546001600160a01b03165b9092509050915091565b3360009081526003602052604090205460ff1661064f576040805162461bcd60e51b815260206004820152601a6024820152792932b332b93930b629ba37b930b3b29d103337b93134b23232b760311b604482015290519081900360640190fd5b6000818152600460205260409020546001600160a01b0383811691161415610676576106a1565b6000818152600460205260409020546001600160a01b0316610697576106a1565b6106a18282610b3c565b5050565b6000546001600160a01b031633146106f2576040805162461bcd60e51b81526020600482015260156024820152600080516020610bb0833981519152604482015290519081900360640190fd5b6127108211156107335760405162461bcd60e51b8152600401808060200182810382526024815260200180610bd06024913960400191505060405180910390fd5b6127108111156107745760405162461bcd60e51b8152600401808060200182810382526026815260200180610c186026913960400191505060405180910390fd5b61077c610b95565b5060008381526001602081815260408084208151808301835287815280840187815295899052848452805182559451930192909255815186815290810185905280820184905290517f4ebd23a492b2bd79586cb57cae40d7793408265f20320f68b478b971e696f4c79181900360600190a150505050565b60066020526000908152604090205481565b6000546001600160a01b03163314610853576040805162461bcd60e51b81526020600482015260156024820152600080516020610bb0833981519152604482015290519081900360640190fd5b6001600160a01b038216600081815260036020908152604091829020805460ff191685151590811790915582519384529083015280517fd373464a39404e5f98fdb4b152b8ba9a094561e97e5c4b4ea11eb18cd9e6695e9281900390910190a15050565b6004602052600090815260409020546001600160a01b031681565b6000546001600160a01b0316331461091f576040805162461bcd60e51b81526020600482015260156024820152600080516020610bb0833981519152604482015290519081900360640190fd5b600080546001600160a01b0319166001600160a01b0392909216919091179055565b6000546001600160a01b0316331461098e576040805162461bcd60e51b81526020600482015260156024820152600080516020610bb0833981519152604482015290519081900360640190fd5b816109e0576040805162461bcd60e51b815260206004820152601e60248201527f526566657272616c53746f726167653a20696e76616c6964205f636f64650000604482015290519081900360640190fd5b6001600160a01b03811660009081526005602052604090205415610a4b576040805162461bcd60e51b815260206004820152601f60248201527f526566657272616c53746f726167653a20616c72656164792065786973747300604482015290519081900360640190fd5b6000828152600460205260409020546001600160a01b031615610a9f5760405162461bcd60e51b8152600401808060200182810382526024815260200180610bf46024913960400191505060405180910390fd5b600082815260046020908152604080832080546001600160a01b0319166001600160a01b038616908117909155808452600583529281902085905580518581529182019290925281517f6431f88c655dd0e2b8d09b6405c007c515c66d67f2998e69c902873a8c8f3e97929181900390910190a15050565b610b213382610b3c565b50565b61271081565b60056020526000908152604090205481565b6001600160a01b0382166000818152600660209081526040918290208490558151928352820183905280517f43825f14567dda057e821be2e51a5aa79aa51f3907a647e3ed2bd486a01050f19281900390910190a15050565b60405180604001604052806000815260200160008152509056fe476f7665726e61626c653a20666f7262696464656e0000000000000000000000526566657272616c53746f726167653a20696e76616c696420746f74616c526562617465526566657272616c53746f726167653a20636f646520616c726561647920657869737473526566657272616c53746f726167653a20696e76616c696420646973636f756e745368617265a264697066735822122007278b9cb9bd7bb7278c55efef29b75f979f62827c01deef658890d85dd4aaba64736f6c634300060c0033","linkReferences":{}},"methodIdentifiers":{"BASIS_POINTS()":"e1f1c4a7","codeOwners(bytes32)":"c8b3c460","getTraderReferralInfo(address)":"534ef883","gov()":"12d43a51","govSetCodeOwner(bytes32,address)":"dfcfa250","isHandler(address)":"46ea87af","ownerToCode(address)":"f858d07f","referrerTiers(address)":"1582a018","registerCode(bytes32)":"36def2c8","setGov(address)":"cfad57a2","setHandler(address,bool)":"9cb7de4b","setReferrerTier(address,uint256)":"3fb8b323","setTier(uint256,uint256,uint256)":"836a0187","setTraderReferralCode(address,bytes32)":"56b4b2ad","setTraderReferralCodeByUser(bytes32)":"e1e01bf3","tiers(uint256)":"039af9eb","traderReferralCodes(address)":"85725b58"},"id":120}