{"abi":[{"type":"function","name":"DATA_UPDATER_ROLE","inputs":[],"outputs":[{"name":"","type":"bytes32","internalType":"bytes32"}],"stateMutability":"view"},{"type":"function","name":"DEFAULT_ADMIN_ROLE","inputs":[],"outputs":[{"name":"","type":"bytes32","internalType":"bytes32"}],"stateMutability":"view"},{"type":"function","name":"decreasePnl","inputs":[{"name":"tokenId","type":"uint256","internalType":"uint256"},{"name":"value","type":"int256","internalType":"int256"}],"outputs":[],"stateMutability":"nonpayable"},{"type":"function","name":"getData","inputs":[{"name":"tokenId","type":"uint256","internalType":"uint256"}],"outputs":[{"name":"","type":"tuple","internalType":"struct ISBTData.Data","components":[{"name":"trades","type":"uint256","internalType":"uint256"},{"name":"referrals","type":"uint256","internalType":"uint256"},{"name":"swaps","type":"uint256","internalType":"uint256"},{"name":"tradingVolume","type":"uint256","internalType":"uint256"},{"name":"orders","type":"uint256","internalType":"uint256"},{"name":"pnl","type":"int256","internalType":"int256"}]}],"stateMutability":"view"},{"type":"function","name":"getOrders","inputs":[{"name":"tokenId","type":"uint256","internalType":"uint256"}],"outputs":[{"name":"","type":"uint256","internalType":"uint256"}],"stateMutability":"view"},{"type":"function","name":"getPnl","inputs":[{"name":"tokenId","type":"uint256","internalType":"uint256"}],"outputs":[{"name":"","type":"int256","internalType":"int256"}],"stateMutability":"view"},{"type":"function","name":"getReferrals","inputs":[{"name":"tokenId","type":"uint256","internalType":"uint256"}],"outputs":[{"name":"","type":"uint256","internalType":"uint256"}],"stateMutability":"view"},{"type":"function","name":"getRoleAdmin","inputs":[{"name":"role","type":"bytes32","internalType":"bytes32"}],"outputs":[{"name":"","type":"bytes32","internalType":"bytes32"}],"stateMutability":"view"},{"type":"function","name":"getSwaps","inputs":[{"name":"tokenId","type":"uint256","internalType":"uint256"}],"outputs":[{"name":"","type":"uint256","internalType":"uint256"}],"stateMutability":"view"},{"type":"function","name":"getTrades","inputs":[{"name":"tokenId","type":"uint256","internalType":"uint256"}],"outputs":[{"name":"","type":"uint256","internalType":"uint256"}],"stateMutability":"view"},{"type":"function","name":"getTradingVolume","inputs":[{"name":"tokenId","type":"uint256","internalType":"uint256"}],"outputs":[{"name":"","type":"uint256","internalType":"uint256"}],"stateMutability":"view"},{"type":"function","name":"grantRole","inputs":[{"name":"role","type":"bytes32","internalType":"bytes32"},{"name":"account","type":"address","internalType":"address"}],"outputs":[],"stateMutability":"nonpayable"},{"type":"function","name":"hasRole","inputs":[{"name":"role","type":"bytes32","internalType":"bytes32"},{"name":"account","type":"address","internalType":"address"}],"outputs":[{"name":"","type":"bool","internalType":"bool"}],"stateMutability":"view"},{"type":"function","name":"increasePnl","inputs":[{"name":"tokenId","type":"uint256","internalType":"uint256"},{"name":"value","type":"int256","internalType":"int256"}],"outputs":[],"stateMutability":"nonpayable"},{"type":"function","name":"increaseTradingVolume","inputs":[{"name":"tokenId","type":"uint256","internalType":"uint256"},{"name":"value","type":"uint256","internalType":"uint256"}],"outputs":[],"stateMutability":"nonpayable"},{"type":"function","name":"incrementOrders","inputs":[{"name":"tokenId","type":"uint256","internalType":"uint256"}],"outputs":[],"stateMutability":"nonpayable"},{"type":"function","name":"incrementReferrals","inputs":[{"name":"tokenId","type":"uint256","internalType":"uint256"}],"outputs":[],"stateMutability":"nonpayable"},{"type":"function","name":"incrementSwaps","inputs":[{"name":"tokenId","type":"uint256","internalType":"uint256"}],"outputs":[],"stateMutability":"nonpayable"},{"type":"function","name":"incrementTrades","inputs":[{"name":"tokenId","type":"uint256","internalType":"uint256"}],"outputs":[],"stateMutability":"nonpayable"},{"type":"function","name":"initialize","inputs":[{"name":"_sbt","type":"address","internalType":"contract IERC721"},{"name":"admin","type":"address","internalType":"address"}],"outputs":[],"stateMutability":"nonpayable"},{"type":"function","name":"renounceRole","inputs":[{"name":"role","type":"bytes32","internalType":"bytes32"},{"name":"callerConfirmation","type":"address","internalType":"address"}],"outputs":[],"stateMutability":"nonpayable"},{"type":"function","name":"revokeRole","inputs":[{"name":"role","type":"bytes32","internalType":"bytes32"},{"name":"account","type":"address","internalType":"address"}],"outputs":[],"stateMutability":"nonpayable"},{"type":"function","name":"sbt","inputs":[],"outputs":[{"name":"","type":"address","internalType":"contract IERC721"}],"stateMutability":"view"},{"type":"function","name":"supportsInterface","inputs":[{"name":"interfaceId","type":"bytes4","internalType":"bytes4"}],"outputs":[{"name":"","type":"bool","internalType":"bool"}],"stateMutability":"view"},{"type":"event","name":"Initialized","inputs":[{"name":"version","type":"uint64","indexed":false,"internalType":"uint64"}],"anonymous":false},{"type":"event","name":"RoleAdminChanged","inputs":[{"name":"role","type":"bytes32","indexed":true,"internalType":"bytes32"},{"name":"previousAdminRole","type":"bytes32","indexed":true,"internalType":"bytes32"},{"name":"newAdminRole","type":"bytes32","indexed":true,"internalType":"bytes32"}],"anonymous":false},{"type":"event","name":"RoleGranted","inputs":[{"name":"role","type":"bytes32","indexed":true,"internalType":"bytes32"},{"name":"account","type":"address","indexed":true,"internalType":"address"},{"name":"sender","type":"address","indexed":true,"internalType":"address"}],"anonymous":false},{"type":"event","name":"RoleRevoked","inputs":[{"name":"role","type":"bytes32","indexed":true,"internalType":"bytes32"},{"name":"account","type":"address","indexed":true,"internalType":"address"},{"name":"sender","type":"address","indexed":true,"internalType":"address"}],"anonymous":false},{"type":"error","name":"AccessControlBadConfirmation","inputs":[]},{"type":"error","name":"AccessControlUnauthorizedAccount","inputs":[{"name":"account","type":"address","internalType":"address"},{"name":"neededRole","type":"bytes32","internalType":"bytes32"}]},{"type":"error","name":"InvalidInitialization","inputs":[]},{"type":"error","name":"NotInitializing","inputs":[]}],"bytecode":{"object":"0x608060405234801561000f575f80fd5b50610b9a8061001d5f395ff3fe608060405234801561000f575f80fd5b5060043610610126575f3560e01c80630178fe3f1461012a57806301ffc9a7146101915780630584311a146101b457806305e0141d146101e4578063248a9ca3146102065780632f2ff15d14610219578063322bc07b1461022e57806336568abe14610251578063485cc955146102645780634ea546b61461027757806357edfffc1461029657806362c9d70e146102b8578063718e3eef146102cb5780637251e5ee146102de57806391d14854146102f1578063a18e2b5614610304578063a217fddf14610317578063b1324f7b1461031e578063bbb2415214610348578063d02cec6a1461035b578063d1a7090a1461036e578063d547741f14610381578063de61ab3c14610394578063fcd222a3146103b6575b5f80fd5b61013d6101383660046109ec565b6103ca565b60405161018891905f60c082019050825182526020830151602083015260408301516040830152606083015160608301526080830151608083015260a083015160a083015292915050565b60405180910390f35b6101a461019f366004610a03565b610454565b6040519015158152602001610188565b6101d66101c23660046109ec565b5f9081526001602052604090206003015490565b604051908152602001610188565b6101d66101f23660046109ec565b5f9081526001602052604090206004015490565b6101d66102143660046109ec565b61048a565b61022c610227366004610a45565b6104a8565b005b6101d661023c3660046109ec565b5f908152600160208190526040909120015490565b61022c61025f366004610a45565b6104ca565b61022c610272366004610a73565b610502565b6101d66102853660046109ec565b5f9081526001602052604090205490565b6101d66102a43660046109ec565b5f9081526001602052604090206002015490565b61022c6102c63660046109ec565b61061e565b61022c6102d9366004610a9f565b610657565b61022c6102ec366004610a9f565b610698565b6101a46102ff366004610a45565b6106cf565b61022c6103123660046109ec565b610703565b6101d65f81565b5f54610330906001600160a01b031681565b6040516001600160a01b039091168152602001610188565b61022c6103563660046109ec565b610736565b61022c610369366004610a9f565b610769565b61022c61037c3660046109ec565b6107a0565b61022c61038f366004610a45565b6107d3565b6101d66103a23660046109ec565b5f9081526001602052604090206005015490565b6101d65f80516020610b4583398151915281565b6103fd6040518060c001604052805f81526020015f81526020015f81526020015f81526020015f81526020015f81525090565b505f90815260016020818152604092839020835160c081018552815481529281015491830191909152600281015492820192909252600382015460608201526004820154608082015260059091015460a082015290565b5f6001600160e01b03198216637965db0b60e01b148061048457506301ffc9a760e01b6001600160e01b03198316145b92915050565b5f806104946107ef565b5f9384526020525050604090206001015490565b6104b18261048a565b6104ba81610813565b6104c48383610820565b50505050565b6001600160a01b03811633146104f35760405163334bd91960e11b815260040160405180910390fd5b6104fd82826108c5565b505050565b5f61050b61093b565b805490915060ff600160401b82041615906001600160401b03165f811580156105315750825b90505f826001600160401b0316600114801561054c5750303b155b90508115801561055a575080155b156105785760405163f92ee8a960e01b815260040160405180910390fd5b845467ffffffffffffffff1916600117855583156105a257845460ff60401b1916600160401b1785555b5f80546001600160a01b0319166001600160a01b0389161790556105c4610963565b6105ce5f87610820565b50831561061557845460ff60401b19168555604051600181527fc7f505b2f371ae2175ee4913f4499e1f2633a7b5936321eed1cdaeb6115181d29060200160405180910390a15b50505050505050565b5f80516020610b4583398151915261063581610813565b5f82815260016020526040812080549161064e83610ad3565b91905055505050565b5f80516020610b4583398151915261066e81610813565b5f838152600160205260408120600301805484929061068e908490610aeb565b9091555050505050565b5f80516020610b458339815191526106af81610813565b5f838152600160205260408120600501805484929061068e908490610afe565b5f806106d96107ef565b5f948552602090815260408086206001600160a01b03959095168652939052505090205460ff1690565b5f80516020610b4583398151915261071a81610813565b5f82815260016020526040812060040180549161064e83610ad3565b5f80516020610b4583398151915261074d81610813565b5f82815260016020526040812060020180549161064e83610ad3565b5f80516020610b4583398151915261078081610813565b5f838152600160205260408120600501805484929061068e908490610b25565b5f80516020610b458339815191526107b781610813565b5f82815260016020819052604082200180549161064e83610ad3565b6107dc8261048a565b6107e581610813565b6104c483836108c5565b7f02dd7bc7dec4dceedda775e58dd541e08a116c6c53815c0bd028192f7b62680090565b61081d813361096d565b50565b5f8061082a6107ef565b905061083684846106cf565b6108b5575f848152602082815260408083206001600160a01b03871684529091529020805460ff1916600117905561086b3390565b6001600160a01b0316836001600160a01b0316857f2f8788117e7eff1d82e926ec794901d17c78024a50270940304540a733656f0d60405160405180910390a46001915050610484565b5f915050610484565b5092915050565b5f806108cf6107ef565b90506108db84846106cf565b156108b5575f848152602082815260408083206001600160a01b0387168085529252808320805460ff1916905551339287917ff6391f5c32d9c69d2a47ea670b442974b53935d1edc7fd64eb21e047a839171b9190a46001915050610484565b5f807ff0c57e16840df040f15088dc2f81fe391c3923bec73e23a9662efc9c229c6a00610484565b61096b6109ae565b565b61097782826106cf565b6109aa5760405163e2517d3f60e01b81526001600160a01b03821660048201526024810183905260440160405180910390fd5b5050565b6109b66109d3565b61096b57604051631afcd79f60e31b815260040160405180910390fd5b5f6109dc61093b565b54600160401b900460ff16919050565b5f602082840312156109fc575f80fd5b5035919050565b5f60208284031215610a13575f80fd5b81356001600160e01b031981168114610a2a575f80fd5b9392505050565b6001600160a01b038116811461081d575f80fd5b5f8060408385031215610a56575f80fd5b823591506020830135610a6881610a31565b809150509250929050565b5f8060408385031215610a84575f80fd5b8235610a8f81610a31565b91506020830135610a6881610a31565b5f8060408385031215610ab0575f80fd5b50508035926020909101359150565b634e487b7160e01b5f52601160045260245ffd5b5f60018201610ae457610ae4610abf565b5060010190565b8082018082111561048457610484610abf565b8082018281125f831280158216821582161715610b1d57610b1d610abf565b505092915050565b8181035f8312801583831316838312821617156108be576108be610abf56fe58a091b35f80bf54631090022328af78163c65b6b8fe6a4f19b69534d179fed0a2646970667358221220ecd6afa66f11c547b644564bbe858c53d3aa7f2066e1ce0423796c28df8bb4df64736f6c63430008140033","linkReferences":{}},"methodIdentifiers":{"DATA_UPDATER_ROLE()":"fcd222a3","DEFAULT_ADMIN_ROLE()":"a217fddf","decreasePnl(uint256,int256)":"d02cec6a","getData(uint256)":"0178fe3f","getOrders(uint256)":"05e0141d","getPnl(uint256)":"de61ab3c","getReferrals(uint256)":"322bc07b","getRoleAdmin(bytes32)":"248a9ca3","getSwaps(uint256)":"57edfffc","getTrades(uint256)":"4ea546b6","getTradingVolume(uint256)":"0584311a","grantRole(bytes32,address)":"2f2ff15d","hasRole(bytes32,address)":"91d14854","increasePnl(uint256,int256)":"7251e5ee","increaseTradingVolume(uint256,uint256)":"718e3eef","incrementOrders(uint256)":"a18e2b56","incrementReferrals(uint256)":"d1a7090a","incrementSwaps(uint256)":"bbb24152","incrementTrades(uint256)":"62c9d70e","initialize(address,address)":"485cc955","renounceRole(bytes32,address)":"36568abe","revokeRole(bytes32,address)":"d547741f","sbt()":"b1324f7b","supportsInterface(bytes4)":"01ffc9a7"},"id":1}