{"abi":[{"type":"function","name":"DATA_UPDATER_ROLE","inputs":[],"outputs":[{"name":"","type":"bytes32","internalType":"bytes32"}],"stateMutability":"view"},{"type":"function","name":"DEFAULT_ADMIN_ROLE","inputs":[],"outputs":[{"name":"","type":"bytes32","internalType":"bytes32"}],"stateMutability":"view"},{"type":"function","name":"decreasePnl","inputs":[{"name":"tokenId","type":"uint256","internalType":"uint256"},{"name":"value","type":"int256","internalType":"int256"}],"outputs":[],"stateMutability":"nonpayable"},{"type":"function","name":"getData","inputs":[{"name":"tokenId","type":"uint256","internalType":"uint256"}],"outputs":[{"name":"","type":"tuple","internalType":"struct ISBTData.Data","components":[{"name":"trades","type":"uint256","internalType":"uint256"},{"name":"referrals","type":"uint256","internalType":"uint256"},{"name":"swaps","type":"uint256","internalType":"uint256"},{"name":"tradingVolume","type":"uint256","internalType":"uint256"},{"name":"orders","type":"uint256","internalType":"uint256"},{"name":"pnl","type":"int256","internalType":"int256"}]}],"stateMutability":"view"},{"type":"function","name":"getOrders","inputs":[{"name":"tokenId","type":"uint256","internalType":"uint256"}],"outputs":[{"name":"","type":"uint256","internalType":"uint256"}],"stateMutability":"view"},{"type":"function","name":"getPnl","inputs":[{"name":"tokenId","type":"uint256","internalType":"uint256"}],"outputs":[{"name":"","type":"int256","internalType":"int256"}],"stateMutability":"view"},{"type":"function","name":"getReferrals","inputs":[{"name":"tokenId","type":"uint256","internalType":"uint256"}],"outputs":[{"name":"","type":"uint256","internalType":"uint256"}],"stateMutability":"view"},{"type":"function","name":"getRoleAdmin","inputs":[{"name":"role","type":"bytes32","internalType":"bytes32"}],"outputs":[{"name":"","type":"bytes32","internalType":"bytes32"}],"stateMutability":"view"},{"type":"function","name":"getSwaps","inputs":[{"name":"tokenId","type":"uint256","internalType":"uint256"}],"outputs":[{"name":"","type":"uint256","internalType":"uint256"}],"stateMutability":"view"},{"type":"function","name":"getTrades","inputs":[{"name":"tokenId","type":"uint256","internalType":"uint256"}],"outputs":[{"name":"","type":"uint256","internalType":"uint256"}],"stateMutability":"view"},{"type":"function","name":"getTradingVolume","inputs":[{"name":"tokenId","type":"uint256","internalType":"uint256"}],"outputs":[{"name":"","type":"uint256","internalType":"uint256"}],"stateMutability":"view"},{"type":"function","name":"grantRole","inputs":[{"name":"role","type":"bytes32","internalType":"bytes32"},{"name":"account","type":"address","internalType":"address"}],"outputs":[],"stateMutability":"nonpayable"},{"type":"function","name":"hasRole","inputs":[{"name":"role","type":"bytes32","internalType":"bytes32"},{"name":"account","type":"address","internalType":"address"}],"outputs":[{"name":"","type":"bool","internalType":"bool"}],"stateMutability":"view"},{"type":"function","name":"increasePnl","inputs":[{"name":"tokenId","type":"uint256","internalType":"uint256"},{"name":"value","type":"int256","internalType":"int256"}],"outputs":[],"stateMutability":"nonpayable"},{"type":"function","name":"increaseTradingVolume","inputs":[{"name":"tokenId","type":"uint256","internalType":"uint256"},{"name":"value","type":"uint256","internalType":"uint256"}],"outputs":[],"stateMutability":"nonpayable"},{"type":"function","name":"incrementOrders","inputs":[{"name":"tokenId","type":"uint256","internalType":"uint256"}],"outputs":[],"stateMutability":"nonpayable"},{"type":"function","name":"incrementReferrals","inputs":[{"name":"tokenId","type":"uint256","internalType":"uint256"}],"outputs":[],"stateMutability":"nonpayable"},{"type":"function","name":"incrementSwaps","inputs":[{"name":"tokenId","type":"uint256","internalType":"uint256"}],"outputs":[],"stateMutability":"nonpayable"},{"type":"function","name":"incrementTrades","inputs":[{"name":"tokenId","type":"uint256","internalType":"uint256"}],"outputs":[],"stateMutability":"nonpayable"},{"type":"function","name":"initialize","inputs":[{"name":"_sbt","type":"address","internalType":"contract IERC721"},{"name":"admin","type":"address","internalType":"address"}],"outputs":[],"stateMutability":"nonpayable"},{"type":"function","name":"renounceRole","inputs":[{"name":"role","type":"bytes32","internalType":"bytes32"},{"name":"callerConfirmation","type":"address","internalType":"address"}],"outputs":[],"stateMutability":"nonpayable"},{"type":"function","name":"revokeRole","inputs":[{"name":"role","type":"bytes32","internalType":"bytes32"},{"name":"account","type":"address","internalType":"address"}],"outputs":[],"stateMutability":"nonpayable"},{"type":"function","name":"sbt","inputs":[],"outputs":[{"name":"","type":"address","internalType":"contract IERC721"}],"stateMutability":"view"},{"type":"function","name":"supportsInterface","inputs":[{"name":"interfaceId","type":"bytes4","internalType":"bytes4"}],"outputs":[{"name":"","type":"bool","internalType":"bool"}],"stateMutability":"view"},{"type":"event","name":"Initialized","inputs":[{"name":"version","type":"uint64","indexed":false,"internalType":"uint64"}],"anonymous":false},{"type":"event","name":"RoleAdminChanged","inputs":[{"name":"role","type":"bytes32","indexed":true,"internalType":"bytes32"},{"name":"previousAdminRole","type":"bytes32","indexed":true,"internalType":"bytes32"},{"name":"newAdminRole","type":"bytes32","indexed":true,"internalType":"bytes32"}],"anonymous":false},{"type":"event","name":"RoleGranted","inputs":[{"name":"role","type":"bytes32","indexed":true,"internalType":"bytes32"},{"name":"account","type":"address","indexed":true,"internalType":"address"},{"name":"sender","type":"address","indexed":true,"internalType":"address"}],"anonymous":false},{"type":"event","name":"RoleRevoked","inputs":[{"name":"role","type":"bytes32","indexed":true,"internalType":"bytes32"},{"name":"account","type":"address","indexed":true,"internalType":"address"},{"name":"sender","type":"address","indexed":true,"internalType":"address"}],"anonymous":false},{"type":"error","name":"AccessControlBadConfirmation","inputs":[]},{"type":"error","name":"AccessControlUnauthorizedAccount","inputs":[{"name":"account","type":"address","internalType":"address"},{"name":"neededRole","type":"bytes32","internalType":"bytes32"}]},{"type":"error","name":"InvalidInitialization","inputs":[]},{"type":"error","name":"NotInitializing","inputs":[]}],"bytecode":{"object":"0x6080806040523461001657610b29908161001b8239f35b5f80fdfe60406080815260049081361015610014575f80fd5b5f91823560e01c9081630178fe3f1461074957816301ffc9a7146106f35781630584311a146106c857816305e0141d1461069f578163248a9ca3146106685781632f2ff15d1461063e578163322bc07b1461061457816336568abe146105ce578163485cc9551461046f5781634ea546b61461044757816357edfffc1461041c57816362c9d70e146103ed578163718e3eef146103af5781637251e5ee1461036b57816391d1485414610318578163a18e2b56146102e6578163a217fddf146102cb578163b1324f7b146102a3578163bbb241521461026f578163d02cec6a14610218578163d1a7090a146101e0578163d547741f14610194578163de61ab3c14610165575063fcd222a314610128575f80fd5b34610161578160031936011261016157602090517f58a091b35f80bf54631090022328af78163c65b6b8fe6a4f19b69534d179fed08152f35b5080fd5b9050346101905760203660031901126101905781602093600592358152600185522001549051908152f35b8280fd5b919050346101905780600319360112610190576101dc91356101d760016101b96107ff565b938387525f80516020610ad4833981519152602052862001546108fd565b610a53565b5080f35b91905034610190576020366003190112610190576001916101ff610884565b358352816020528220016102138154610862565b905580f35b90503461019057600561022a36610819565b9390610234610884565b8552600160205284200190815484848203941281851281169185139015161761025c57505580f35b634e487b7160e01b845260119052602483fd5b919050346101905760203660031901126101905760029161028e610884565b35835260016020528220016102138154610862565b505034610161578160031936011261016157905490516001600160a01b039091168152602090f35b50503461016157816003193601126101615751908152602090f35b9190503461019057602036600319011261019057610302610884565b8135835260016020528220016102138154610862565b9050346101905781600319360112610190578160209360ff926103396107ff565b903582525f80516020610ad483398151915286528282206001600160a01b039091168252855220549151911615158152f35b90503461019057600561037d36610819565b9390610387610884565b8552600160205284200190815484848201948512911290801582169115161761025c57505580f35b919050346101905780600319360112610190576003906103cd610884565b823584526001602052832001805491602435830180931161025c57505580f35b90503461019057602036600319011261019057610408610884565b358252600160205281206102138154610862565b9050346101905760203660031901126101905781602093600292358152600185522001549051908152f35b9050346101905760203660031901126101905760209282913581526001845220549051908152f35b90503461019057816003193601126101905780356001600160a01b038116908190036105ca5761049d6107ff565b7ff0c57e16840df040f15088dc2f81fe391c3923bec73e23a9662efc9c229c6a009283549260ff84871c1615936001600160401b038116801590816105c2575b60011490816105b8575b1590816105af575b5061059f5767ffffffffffffffff198116600117865584610584575b5086546001600160a01b0319161786558354851c60ff161561057657506105319061092b565b5061053a578280f35b805460ff60401b1916905551600181527fc7f505b2f371ae2175ee4913f4499e1f2633a7b5936321eed1cdaeb6115181d290602090a15f808280f35b8451631afcd79f60e31b8152fd5b6001600160481b0319166001600160401b011785555f61050b565b865163f92ee8a960e01b81528390fd5b9050155f6104ef565b303b1591506104e7565b8691506104dd565b8380fd5b8383346101615780600319360112610161576105e86107ff565b90336001600160a01b0383160361060557506101dc919235610a53565b5163334bd91960e11b81528390fd5b90503461019057602036600319011261019057816020936001923581528285522001549051908152f35b919050346101905780600319360112610190576101dc913561066360016101b96107ff565b6109c9565b90503461019057602036600319011261019057816020936001923581525f80516020610ad483398151915285522001549051908152f35b905034610190576020366003190112610190578160209382358152600185522001549051908152f35b9050346101905760203660031901126101905781602093600392358152600185522001549051908152f35b90503461019057602036600319011261019057359063ffffffff60e01b82168092036101905760209250637965db0b60e01b8214918215610738575b50519015158152f35b6301ffc9a760e01b1491505f61072f565b90503461019057602036600319011261019057818360c09460a061076b61082f565b828152826020820152828582015282606082015282608082015201528235815260016020522061079961082f565b9181549384845260018301546020850190815260028401549082860191825260a0600560038701549560608901968752870154966080890197885201549601958652825196875251602087015251908501525160608401525160808301525160a0820152f35b602435906001600160a01b038216820361081557565b5f80fd5b6040906003190112610815576004359060243590565b6040519060c082018281106001600160401b0382111761084e57604052565b634e487b7160e01b5f52604160045260245ffd5b5f1981146108705760010190565b634e487b7160e01b5f52601160045260245ffd5b335f9081527fb5e0e9d48f8f873c223b8fe38d370b761781210b9b9abe9c6139d5ea10d016a560205260409020547f58a091b35f80bf54631090022328af78163c65b6b8fe6a4f19b69534d179fed09060ff16156108df5750565b6044906040519063e2517d3f60e01b82523360048301526024820152fd5b805f525f80516020610ad483398151915260205260405f20335f5260205260ff60405f205416156108df5750565b6001600160a01b03165f8181527fb7db2dd08fcb62d0c9e08c51941cae53c267786a0b75803fb7960902fc8ef97d60205260408120549091905f80516020610ad48339815191529060ff166109c4578280526020526040822081835260205260408220600160ff1982541617905533917f2f8788117e7eff1d82e926ec794901d17c78024a50270940304540a733656f0d8180a4600190565b505090565b905f918083525f80516020610ad483398151915280602052604084209260018060a01b03169283855260205260ff604085205416155f14610a4d578184526020526040832082845260205260408320600160ff198254161790557f2f8788117e7eff1d82e926ec794901d17c78024a50270940304540a733656f0d339380a4600190565b50505090565b905f918083525f80516020610ad483398151915280602052604084209260018060a01b03169283855260205260ff6040852054165f14610a4d57818452602052604083208284526020526040832060ff1981541690557ff6391f5c32d9c69d2a47ea670b442974b53935d1edc7fd64eb21e047a839171b339380a460019056fe02dd7bc7dec4dceedda775e58dd541e08a116c6c53815c0bd028192f7b626800a26469706673582212200fa37f1efc75a8874bd211cfdb7fe7fa0435aed88eb847e33acf7e42e46a38b664736f6c63430008140033","linkReferences":{}},"methodIdentifiers":{"DATA_UPDATER_ROLE()":"fcd222a3","DEFAULT_ADMIN_ROLE()":"a217fddf","decreasePnl(uint256,int256)":"d02cec6a","getData(uint256)":"0178fe3f","getOrders(uint256)":"05e0141d","getPnl(uint256)":"de61ab3c","getReferrals(uint256)":"322bc07b","getRoleAdmin(bytes32)":"248a9ca3","getSwaps(uint256)":"57edfffc","getTrades(uint256)":"4ea546b6","getTradingVolume(uint256)":"0584311a","grantRole(bytes32,address)":"2f2ff15d","hasRole(bytes32,address)":"91d14854","increasePnl(uint256,int256)":"7251e5ee","increaseTradingVolume(uint256,uint256)":"718e3eef","incrementOrders(uint256)":"a18e2b56","incrementReferrals(uint256)":"d1a7090a","incrementSwaps(uint256)":"bbb24152","incrementTrades(uint256)":"62c9d70e","initialize(address,address)":"485cc955","renounceRole(bytes32,address)":"36568abe","revokeRole(bytes32,address)":"d547741f","sbt()":"b1324f7b","supportsInterface(bytes4)":"01ffc9a7"},"id":1}