{"abi":[{"type":"constructor","inputs":[{"name":"name","type":"string","internalType":"string"},{"name":"symbol","type":"string","internalType":"string"},{"name":"initialSupply","type":"uint256","internalType":"uint256"},{"name":"decimals","type":"uint8","internalType":"uint8"}],"stateMutability":"nonpayable"},{"type":"function","name":"allowance","inputs":[{"name":"owner","type":"address","internalType":"address"},{"name":"spender","type":"address","internalType":"address"}],"outputs":[{"name":"","type":"uint256","internalType":"uint256"}],"stateMutability":"view"},{"type":"function","name":"approve","inputs":[{"name":"spender","type":"address","internalType":"address"},{"name":"amount","type":"uint256","internalType":"uint256"}],"outputs":[{"name":"","type":"bool","internalType":"bool"}],"stateMutability":"nonpayable"},{"type":"function","name":"balanceOf","inputs":[{"name":"account","type":"address","internalType":"address"}],"outputs":[{"name":"","type":"uint256","internalType":"uint256"}],"stateMutability":"view"},{"type":"function","name":"decimals","inputs":[],"outputs":[{"name":"","type":"uint8","internalType":"uint8"}],"stateMutability":"view"},{"type":"function","name":"decreaseAllowance","inputs":[{"name":"spender","type":"address","internalType":"address"},{"name":"subtractedValue","type":"uint256","internalType":"uint256"}],"outputs":[{"name":"","type":"bool","internalType":"bool"}],"stateMutability":"nonpayable"},{"type":"function","name":"deposit","inputs":[],"outputs":[],"stateMutability":"payable"},{"type":"function","name":"increaseAllowance","inputs":[{"name":"spender","type":"address","internalType":"address"},{"name":"addedValue","type":"uint256","internalType":"uint256"}],"outputs":[{"name":"","type":"bool","internalType":"bool"}],"stateMutability":"nonpayable"},{"type":"function","name":"mint","inputs":[{"name":"account","type":"address","internalType":"address"},{"name":"amount","type":"uint256","internalType":"uint256"}],"outputs":[],"stateMutability":"nonpayable"},{"type":"function","name":"name","inputs":[],"outputs":[{"name":"","type":"string","internalType":"string"}],"stateMutability":"view"},{"type":"function","name":"symbol","inputs":[],"outputs":[{"name":"","type":"string","internalType":"string"}],"stateMutability":"view"},{"type":"function","name":"totalSupply","inputs":[],"outputs":[{"name":"","type":"uint256","internalType":"uint256"}],"stateMutability":"view"},{"type":"function","name":"transfer","inputs":[{"name":"recipient","type":"address","internalType":"address"},{"name":"amount","type":"uint256","internalType":"uint256"}],"outputs":[{"name":"","type":"bool","internalType":"bool"}],"stateMutability":"nonpayable"},{"type":"function","name":"transferFrom","inputs":[{"name":"sender","type":"address","internalType":"address"},{"name":"recipient","type":"address","internalType":"address"},{"name":"amount","type":"uint256","internalType":"uint256"}],"outputs":[{"name":"","type":"bool","internalType":"bool"}],"stateMutability":"nonpayable"},{"type":"function","name":"withdraw","inputs":[{"name":"amount","type":"uint256","internalType":"uint256"}],"outputs":[],"stateMutability":"nonpayable"},{"type":"function","name":"withdrawToken","inputs":[{"name":"token","type":"address","internalType":"address"},{"name":"account","type":"address","internalType":"address"},{"name":"amount","type":"uint256","internalType":"uint256"}],"outputs":[],"stateMutability":"nonpayable"},{"type":"event","name":"Approval","inputs":[{"name":"owner","type":"address","indexed":true,"internalType":"address"},{"name":"spender","type":"address","indexed":true,"internalType":"address"},{"name":"value","type":"uint256","indexed":false,"internalType":"uint256"}],"anonymous":false},{"type":"event","name":"Transfer","inputs":[{"name":"from","type":"address","indexed":true,"internalType":"address"},{"name":"to","type":"address","indexed":true,"internalType":"address"},{"name":"value","type":"uint256","indexed":false,"internalType":"uint256"}],"anonymous":false}],"bytecode":{"object":"0x60806040523480156200001157600080fd5b50604051620012f3380380620012f3833981810160405260808110156200003757600080fd5b81019080805160405193929190846401000000008211156200005857600080fd5b9083019060208201858111156200006e57600080fd5b82516401000000008111828201881017156200008957600080fd5b82525081516020918201929091019080838360005b83811015620000b85781810151838201526020016200009e565b50505050905090810190601f168015620000e65780820380516001836020036101000a031916815260200191505b50604052602001805160405193929190846401000000008211156200010a57600080fd5b9083019060208201858111156200012057600080fd5b82516401000000008111828201881017156200013b57600080fd5b82525081516020918201929091019080838360005b838110156200016a57818101518382015260200162000150565b50505050905090810190601f168015620001985780820380516001836020036101000a031916815260200191505b506040908152602082810151929091015186519294509250620001c19160039187019062000373565b508251620001d790600490602086019062000373565b506005805460ff191660ff8316179055620001f33383620001fd565b505050506200040f565b6001600160a01b03821662000259576040805162461bcd60e51b815260206004820152601f60248201527f45524332303a206d696e7420746f20746865207a65726f206164647265737300604482015290519081900360640190fd5b62000267600083836200030c565b62000283816002546200031160201b620007fc1790919060201c565b6002556001600160a01b03821660009081526020818152604090912054620002b6918390620007fc62000311821b17901c565b6001600160a01b0383166000818152602081815260408083209490945583518581529351929391927fddf252ad1be2c89b69c2b068fc378daa952ba7f163c4a11628f55a4df523b3ef9281900390910190a35050565b505050565b6000828201838110156200036c576040805162461bcd60e51b815260206004820152601b60248201527f536166654d6174683a206164646974696f6e206f766572666c6f770000000000604482015290519081900360640190fd5b9392505050565b828054600181600116156101000203166002900490600052602060002090601f016020900481019282601f10620003b657805160ff1916838001178555620003e6565b82800160010185558215620003e6579182015b82811115620003e6578251825591602001919060010190620003c9565b50620003f4929150620003f8565b5090565b5b80821115620003f45760008155600101620003f9565b610ed4806200041f6000396000f3fe6080604052600436106100b85760003560e01c806301e33667146100bd57806306fdde0314610102578063095ea7b31461018c57806318160ddd146101d957806323b872dd146102005780632e1a7d4d14610243578063313ce5671461026d578063395093511461029857806340c10f19146102d157806370a082311461030a57806395d89b411461033d578063a457c2d714610352578063a9059cbb1461038b578063d0e30db0146103c4578063dd62ed3e146103cc575b600080fd5b3480156100c957600080fd5b50610100600480360360608110156100e057600080fd5b506001600160a01b03813581169160208101359091169060400135610407565b005b34801561010e57600080fd5b5061011761048f565b6040805160208082528351818301528351919283929083019185019080838360005b83811015610151578181015183820152602001610139565b50505050905090810190601f16801561017e5780820380516001836020036101000a031916815260200191505b509250505060405180910390f35b34801561019857600080fd5b506101c5600480360360408110156101af57600080fd5b506001600160a01b038135169060200135610525565b604080519115158252519081900360200190f35b3480156101e557600080fd5b506101ee610542565b60408051918252519081900360200190f35b34801561020c57600080fd5b506101c56004803603606081101561022357600080fd5b506001600160a01b03813581169160208101359091169060400135610548565b34801561024f57600080fd5b506101006004803603602081101561026657600080fd5b50356105cf565b34801561027957600080fd5b5061028261066c565b6040805160ff9092168252519081900360200190f35b3480156102a457600080fd5b506101c5600480360360408110156102bb57600080fd5b506001600160a01b038135169060200135610675565b3480156102dd57600080fd5b50610100600480360360408110156102f457600080fd5b506001600160a01b0381351690602001356106c3565b34801561031657600080fd5b506101ee6004803603602081101561032d57600080fd5b50356001600160a01b03166106cd565b34801561034957600080fd5b506101176106e8565b34801561035e57600080fd5b506101c56004803603604081101561037557600080fd5b506001600160a01b038135169060200135610749565b34801561039757600080fd5b506101c5600480360360408110156103ae57600080fd5b506001600160a01b0381351690602001356107b1565b6101006107c5565b3480156103d857600080fd5b506101ee600480360360408110156103ef57600080fd5b506001600160a01b03813581169160200135166107d1565b826001600160a01b031663a9059cbb83836040518363ffffffff1660e01b815260040180836001600160a01b0316815260200182815260200192505050602060405180830381600087803b15801561045e57600080fd5b505af1158015610472573d6000803e3d6000fd5b505050506040513d602081101561048857600080fd5b5050505050565b60038054604080516020601f600260001961010060018816150201909516949094049384018190048102820181019092528281526060939092909183018282801561051b5780601f106104f05761010080835404028352916020019161051b565b820191906000526020600020905b8154815290600101906020018083116104fe57829003601f168201915b5050505050905090565b600061053961053261085b565b848461085f565b50600192915050565b60025490565b600061055584848461094b565b6105c58461056161085b565b6105c085604051806060016040528060288152602001610dc8602891396001600160a01b038a1660009081526001602052604081209061059f61085b565b6001600160a01b031681526020810191909152604001600020549190610a94565b61085f565b5060019392505050565b33600090815260208190526040902054811115610631576040805162461bcd60e51b815260206004820152601b60248201527a546f6b656e3a20696e73756666696369656e742062616c616e636560281b604482015290519081900360640190fd5b61063b3382610b2b565b604051339082156108fc029083906000818181858888f19350505050158015610668573d6000803e3d6000fd5b5050565b60055460ff1690565b600061053961068261085b565b846105c0856001600061069361085b565b6001600160a01b03908116825260208083019390935260409182016000908120918c1681529252902054906107fc565b6106688282610c15565b6001600160a01b031660009081526020819052604090205490565b60048054604080516020601f600260001961010060018816150201909516949094049384018190048102820181019092528281526060939092909183018282801561051b5780601f106104f05761010080835404028352916020019161051b565b600061053961075661085b565b846105c085604051806060016040528060258152602001610e7a602591396001600061078061085b565b6001600160a01b03908116825260208083019390935260409182016000908120918d16815292529020549190610a94565b60006105396107be61085b565b848461094b565b6107cf3334610c15565b565b6001600160a01b03918216600090815260016020908152604080832093909416825291909152205490565b600082820183811015610854576040805162461bcd60e51b815260206004820152601b60248201527a536166654d6174683a206164646974696f6e206f766572666c6f7760281b604482015290519081900360640190fd5b9392505050565b3390565b6001600160a01b0383166108a45760405162461bcd60e51b8152600401808060200182810382526024815260200180610e566024913960400191505060405180910390fd5b6001600160a01b0382166108e95760405162461bcd60e51b8152600401808060200182810382526022815260200180610d806022913960400191505060405180910390fd5b6001600160a01b03808416600081815260016020908152604080832094871680845294825291829020859055815185815291517f8c5be1e5ebec7d5bd14f71427d1e84f3dd0314c0f7b2291e5b200ac8c7c3b9259281900390910190a3505050565b6001600160a01b0383166109905760405162461bcd60e51b8152600401808060200182810382526025815260200180610e316025913960400191505060405180910390fd5b6001600160a01b0382166109d55760405162461bcd60e51b8152600401808060200182810382526023815260200180610d3b6023913960400191505060405180910390fd5b6109e0838383610cf3565b610a1d81604051806060016040528060268152602001610da2602691396001600160a01b0386166000908152602081905260409020549190610a94565b6001600160a01b038085166000908152602081905260408082209390935590841681522054610a4c90826107fc565b6001600160a01b03808416600081815260208181526040918290209490945580518581529051919392871692600080516020610df083398151915292918290030190a3505050565b60008184841115610b235760405162461bcd60e51b81526004018080602001828103825283818151815260200191508051906020019080838360005b83811015610ae8578181015183820152602001610ad0565b50505050905090810190601f168015610b155780820380516001836020036101000a031916815260200191505b509250505060405180910390fd5b505050900390565b6001600160a01b038216610b705760405162461bcd60e51b8152600401808060200182810382526021815260200180610e106021913960400191505060405180910390fd5b610b7c82600083610cf3565b610bb981604051806060016040528060228152602001610d5e602291396001600160a01b0385166000908152602081905260409020549190610a94565b6001600160a01b038316600090815260208190526040902055600254610bdf9082610cf8565b6002556040805182815290516000916001600160a01b03851691600080516020610df08339815191529181900360200190a35050565b6001600160a01b038216610c70576040805162461bcd60e51b815260206004820152601f60248201527f45524332303a206d696e7420746f20746865207a65726f206164647265737300604482015290519081900360640190fd5b610c7c60008383610cf3565b600254610c8990826107fc565b6002556001600160a01b038216600090815260208190526040902054610caf90826107fc565b6001600160a01b038316600081815260208181526040808320949094558351858152935192939192600080516020610df08339815191529281900390910190a35050565b505050565b600061085483836040518060400160405280601e81526020017f536166654d6174683a207375627472616374696f6e206f766572666c6f770000815250610a9456fe45524332303a207472616e7366657220746f20746865207a65726f206164647265737345524332303a206275726e20616d6f756e7420657863656564732062616c616e636545524332303a20617070726f766520746f20746865207a65726f206164647265737345524332303a207472616e7366657220616d6f756e7420657863656564732062616c616e636545524332303a207472616e7366657220616d6f756e74206578636565647320616c6c6f77616e6365ddf252ad1be2c89b69c2b068fc378daa952ba7f163c4a11628f55a4df523b3ef45524332303a206275726e2066726f6d20746865207a65726f206164647265737345524332303a207472616e736665722066726f6d20746865207a65726f206164647265737345524332303a20617070726f76652066726f6d20746865207a65726f206164647265737345524332303a2064656372656173656420616c6c6f77616e63652062656c6f77207a65726fa264697066735822122064dd22a20e5722e5953f0306831a4b8b39204080a4c79a38e35942cd5332822364736f6c634300060c0033","linkReferences":{}},"methodIdentifiers":{"allowance(address,address)":"dd62ed3e","approve(address,uint256)":"095ea7b3","balanceOf(address)":"70a08231","decimals()":"313ce567","decreaseAllowance(address,uint256)":"a457c2d7","deposit()":"d0e30db0","increaseAllowance(address,uint256)":"39509351","mint(address,uint256)":"40c10f19","name()":"06fdde03","symbol()":"95d89b41","totalSupply()":"18160ddd","transfer(address,uint256)":"a9059cbb","transferFrom(address,address,uint256)":"23b872dd","withdraw(uint256)":"2e1a7d4d","withdrawToken(address,address,uint256)":"01e33667"},"id":143}