{"abi":[{"type":"constructor","inputs":[{"name":"_cake","type":"address","internalType":"contract CakeToken"}],"stateMutability":"nonpayable"},{"type":"function","name":"DELEGATION_TYPEHASH","inputs":[],"outputs":[{"name":"","type":"bytes32","internalType":"bytes32"}],"stateMutability":"view"},{"type":"function","name":"DOMAIN_TYPEHASH","inputs":[],"outputs":[{"name":"","type":"bytes32","internalType":"bytes32"}],"stateMutability":"view"},{"type":"function","name":"allowance","inputs":[{"name":"owner","type":"address","internalType":"address"},{"name":"spender","type":"address","internalType":"address"}],"outputs":[{"name":"","type":"uint256","internalType":"uint256"}],"stateMutability":"view"},{"type":"function","name":"approve","inputs":[{"name":"spender","type":"address","internalType":"address"},{"name":"amount","type":"uint256","internalType":"uint256"}],"outputs":[{"name":"","type":"bool","internalType":"bool"}],"stateMutability":"nonpayable"},{"type":"function","name":"balanceOf","inputs":[{"name":"account","type":"address","internalType":"address"}],"outputs":[{"name":"","type":"uint256","internalType":"uint256"}],"stateMutability":"view"},{"type":"function","name":"burn","inputs":[{"name":"_from","type":"address","internalType":"address"},{"name":"_amount","type":"uint256","internalType":"uint256"}],"outputs":[],"stateMutability":"nonpayable"},{"type":"function","name":"cake","inputs":[],"outputs":[{"name":"","type":"address","internalType":"contract CakeToken"}],"stateMutability":"view"},{"type":"function","name":"checkpoints","inputs":[{"name":"","type":"address","internalType":"address"},{"name":"","type":"uint32","internalType":"uint32"}],"outputs":[{"name":"fromBlock","type":"uint32","internalType":"uint32"},{"name":"votes","type":"uint256","internalType":"uint256"}],"stateMutability":"view"},{"type":"function","name":"decimals","inputs":[],"outputs":[{"name":"","type":"uint8","internalType":"uint8"}],"stateMutability":"view"},{"type":"function","name":"decreaseAllowance","inputs":[{"name":"spender","type":"address","internalType":"address"},{"name":"subtractedValue","type":"uint256","internalType":"uint256"}],"outputs":[{"name":"","type":"bool","internalType":"bool"}],"stateMutability":"nonpayable"},{"type":"function","name":"delegate","inputs":[{"name":"delegatee","type":"address","internalType":"address"}],"outputs":[],"stateMutability":"nonpayable"},{"type":"function","name":"delegateBySig","inputs":[{"name":"delegatee","type":"address","internalType":"address"},{"name":"nonce","type":"uint256","internalType":"uint256"},{"name":"expiry","type":"uint256","internalType":"uint256"},{"name":"v","type":"uint8","internalType":"uint8"},{"name":"r","type":"bytes32","internalType":"bytes32"},{"name":"s","type":"bytes32","internalType":"bytes32"}],"outputs":[],"stateMutability":"nonpayable"},{"type":"function","name":"delegates","inputs":[{"name":"delegator","type":"address","internalType":"address"}],"outputs":[{"name":"","type":"address","internalType":"address"}],"stateMutability":"view"},{"type":"function","name":"getCurrentVotes","inputs":[{"name":"account","type":"address","internalType":"address"}],"outputs":[{"name":"","type":"uint256","internalType":"uint256"}],"stateMutability":"view"},{"type":"function","name":"getPriorVotes","inputs":[{"name":"account","type":"address","internalType":"address"},{"name":"blockNumber","type":"uint256","internalType":"uint256"}],"outputs":[{"name":"","type":"uint256","internalType":"uint256"}],"stateMutability":"view"},{"type":"function","name":"increaseAllowance","inputs":[{"name":"spender","type":"address","internalType":"address"},{"name":"addedValue","type":"uint256","internalType":"uint256"}],"outputs":[{"name":"","type":"bool","internalType":"bool"}],"stateMutability":"nonpayable"},{"type":"function","name":"mint","inputs":[{"name":"_to","type":"address","internalType":"address"},{"name":"_amount","type":"uint256","internalType":"uint256"}],"outputs":[],"stateMutability":"nonpayable"},{"type":"function","name":"name","inputs":[],"outputs":[{"name":"","type":"string","internalType":"string"}],"stateMutability":"view"},{"type":"function","name":"nonces","inputs":[{"name":"","type":"address","internalType":"address"}],"outputs":[{"name":"","type":"uint256","internalType":"uint256"}],"stateMutability":"view"},{"type":"function","name":"numCheckpoints","inputs":[{"name":"","type":"address","internalType":"address"}],"outputs":[{"name":"","type":"uint32","internalType":"uint32"}],"stateMutability":"view"},{"type":"function","name":"owner","inputs":[],"outputs":[{"name":"","type":"address","internalType":"address"}],"stateMutability":"view"},{"type":"function","name":"renounceOwnership","inputs":[],"outputs":[],"stateMutability":"nonpayable"},{"type":"function","name":"safeCakeTransfer","inputs":[{"name":"_to","type":"address","internalType":"address"},{"name":"_amount","type":"uint256","internalType":"uint256"}],"outputs":[],"stateMutability":"nonpayable"},{"type":"function","name":"symbol","inputs":[],"outputs":[{"name":"","type":"string","internalType":"string"}],"stateMutability":"view"},{"type":"function","name":"totalSupply","inputs":[],"outputs":[{"name":"","type":"uint256","internalType":"uint256"}],"stateMutability":"view"},{"type":"function","name":"transfer","inputs":[{"name":"recipient","type":"address","internalType":"address"},{"name":"amount","type":"uint256","internalType":"uint256"}],"outputs":[{"name":"","type":"bool","internalType":"bool"}],"stateMutability":"nonpayable"},{"type":"function","name":"transferFrom","inputs":[{"name":"sender","type":"address","internalType":"address"},{"name":"recipient","type":"address","internalType":"address"},{"name":"amount","type":"uint256","internalType":"uint256"}],"outputs":[{"name":"","type":"bool","internalType":"bool"}],"stateMutability":"nonpayable"},{"type":"function","name":"transferOwnership","inputs":[{"name":"newOwner","type":"address","internalType":"address"}],"outputs":[],"stateMutability":"nonpayable"},{"type":"event","name":"Approval","inputs":[{"name":"owner","type":"address","indexed":true,"internalType":"address"},{"name":"spender","type":"address","indexed":true,"internalType":"address"},{"name":"value","type":"uint256","indexed":false,"internalType":"uint256"}],"anonymous":false},{"type":"event","name":"DelegateChanged","inputs":[{"name":"delegator","type":"address","indexed":true,"internalType":"address"},{"name":"fromDelegate","type":"address","indexed":true,"internalType":"address"},{"name":"toDelegate","type":"address","indexed":true,"internalType":"address"}],"anonymous":false},{"type":"event","name":"DelegateVotesChanged","inputs":[{"name":"delegate","type":"address","indexed":true,"internalType":"address"},{"name":"previousBalance","type":"uint256","indexed":false,"internalType":"uint256"},{"name":"newBalance","type":"uint256","indexed":false,"internalType":"uint256"}],"anonymous":false},{"type":"event","name":"OwnershipTransferred","inputs":[{"name":"previousOwner","type":"address","indexed":true,"internalType":"address"},{"name":"newOwner","type":"address","indexed":true,"internalType":"address"}],"anonymous":false},{"type":"event","name":"Transfer","inputs":[{"name":"from","type":"address","indexed":true,"internalType":"address"},{"name":"to","type":"address","indexed":true,"internalType":"address"},{"name":"value","type":"uint256","indexed":false,"internalType":"uint256"}],"anonymous":false}],"bytecode":{"object":"0x60806040523480156200001157600080fd5b50604051620020ac380380620020ac833981810160405260208110156200003757600080fd5b5051604080518082018252600e81526d29bcb93ab82130b9102a37b5b2b760911b602082810191825283518085019094526005845264053595255560dc1b9084015281519192916200008c916003916200013e565b508051620000a29060049060208401906200013e565b50506005805460ff19166012179055506000620000be6200013a565b60058054610100600160a81b0319166101006001600160a01b03841690810291909117909155604051919250906000907f8be0079c531659141344cd1fd0a4f28419497f9722a3daafe3b4186f6b6457e0908290a350600680546001600160a01b0319166001600160a01b0392909216919091179055620001da565b3390565b828054600181600116156101000203166002900490600052602060002090601f016020900481019282601f106200018157805160ff1916838001178555620001b1565b82800160010185558215620001b1579182015b82811115620001b157825182559160200191906001019062000194565b50620001bf929150620001c3565b5090565b5b80821115620001bf5760008155600101620001c4565b611ec280620001ea6000396000f3fe608060405234801561001057600080fd5b50600436106101545760003560e01c806306fdde0314610159578063095ea7b3146101d657806318160ddd1461021657806320606b701461023057806323b872dd14610238578063313ce5671461026e578063395093511461028c57806340c10f19146102b8578063587cde1e146102e65780635c19a95c146103285780636fcfff451461034e57806370a082311461038d578063715018a6146103b3578063782d6fe1146103bb5780637ecebe00146103e75780638da5cb5b1461040d57806395d89b41146104155780639dc29fac1461041d578063a2e6ddcc14610449578063a457c2d714610475578063a9059cbb146104a1578063b4b5ea57146104cd578063c3cda520146104f3578063dce174841461053a578063dd62ed3e14610542578063e7a324dc14610570578063f1127ed814610578578063f2fde38b146105ca575b600080fd5b6101616105f0565b6040805160208082528351818301528351919283929083019185019080838360005b8381101561019b578181015183820152602001610183565b50505050905090810190601f1680156101c85780820380516001836020036101000a031916815260200191505b509250505060405180910390f35b610202600480360360408110156101ec57600080fd5b506001600160a01b038135169060200135610686565b604080519115158252519081900360200190f35b61021e6106a4565b60408051918252519081900360200190f35b61021e6106aa565b6102026004803603606081101561024e57600080fd5b506001600160a01b038135811691602081013590911690604001356106ce565b610276610755565b6040805160ff9092168252519081900360200190f35b610202600480360360408110156102a257600080fd5b506001600160a01b03813516906020013561075e565b6102e4600480360360408110156102ce57600080fd5b506001600160a01b0381351690602001356107ac565b005b61030c600480360360208110156102fc57600080fd5b50356001600160a01b031661083c565b604080516001600160a01b039092168252519081900360200190f35b6102e46004803603602081101561033e57600080fd5b50356001600160a01b031661085a565b6103746004803603602081101561036457600080fd5b50356001600160a01b0316610867565b6040805163ffffffff9092168252519081900360200190f35b61021e600480360360208110156103a357600080fd5b50356001600160a01b031661087f565b6102e461089a565b61021e600480360360408110156103d157600080fd5b506001600160a01b038135169060200135610947565b61021e600480360360208110156103fd57600080fd5b50356001600160a01b0316610b4f565b61030c610b61565b610161610b75565b6102e46004803603604081101561043357600080fd5b506001600160a01b038135169060200135610bd6565b6102e46004803603604081101561045f57600080fd5b506001600160a01b038135169060200135610c63565b6102026004803603604081101561048b57600080fd5b506001600160a01b038135169060200135610e51565b610202600480360360408110156104b757600080fd5b506001600160a01b038135169060200135610eb9565b61021e600480360360208110156104e357600080fd5b50356001600160a01b0316610ecd565b6102e4600480360360c081101561050957600080fd5b506001600160a01b038135169060208101359060408101359060ff6060820135169060808101359060a00135610f31565b61030c6111a4565b61021e6004803603604081101561055857600080fd5b506001600160a01b03813581169160200135166111b3565b61021e6111de565b6105aa6004803603604081101561058e57600080fd5b5080356001600160a01b0316906020013563ffffffff16611202565b6040805163ffffffff909316835260208301919091528051918290030190f35b6102e4600480360360208110156105e057600080fd5b50356001600160a01b031661122f565b60038054604080516020601f600260001961010060018816150201909516949094049384018190048102820181019092528281526060939092909183018282801561067c5780601f106106515761010080835404028352916020019161067c565b820191906000526020600020905b81548152906001019060200180831161065f57829003601f168201915b5050505050905090565b600061069a610693611338565b848461133c565b5060015b92915050565b60025490565b7f8cad95687ba82c2ce50e74f7b754645e5117c3a5bec8151c0726d5857980a86681565b60006106db848484611428565b61074b846106e7611338565b61074685604051806060016040528060288152602001611d19602891396001600160a01b038a16600090815260016020526040812090610725611338565b6001600160a01b031681526020810191909152604001600020549190611571565b61133c565b5060019392505050565b60055460ff1690565b600061069a61076b611338565b84610746856001600061077c611338565b6001600160a01b03908116825260208083019390935260409182016000908120918c168152925290205490611608565b6107b4611338565b60055461010090046001600160a01b03908116911614610809576040805162461bcd60e51b81526020600482018190526024820152600080516020611d41833981519152604482015290519081900360640190fd5b6108138282611660565b6001600160a01b0380831660009081526007602052604081205461083892168361173e565b5050565b6001600160a01b039081166000908152600760205260409020541690565b610864338261187b565b50565b60096020526000908152604090205463ffffffff1681565b6001600160a01b031660009081526020819052604090205490565b6108a2611338565b60055461010090046001600160a01b039081169116146108f7576040805162461bcd60e51b81526020600482018190526024820152600080516020611d41833981519152604482015290519081900360640190fd5b60055460405160009161010090046001600160a01b0316907f8be0079c531659141344cd1fd0a4f28419497f9722a3daafe3b4186f6b6457e0908390a360058054610100600160a81b0319169055565b60004382106109875760405162461bcd60e51b8152600401808060200182810382526027815260200180611d956027913960400191505060405180910390fd5b6001600160a01b03831660009081526009602052604090205463ffffffff16806109b557600091505061069e565b6001600160a01b038416600090815260086020908152604080832063ffffffff600019860181168552925290912054168310610a24576001600160a01b03841660009081526008602090815260408083206000199490940163ffffffff1683529290522060010154905061069e565b6001600160a01b038416600090815260086020908152604080832083805290915290205463ffffffff16831015610a5f57600091505061069e565b600060001982015b8163ffffffff168163ffffffff161115610b1857600282820363ffffffff16048103610a91611c02565b506001600160a01b038716600090815260086020908152604080832063ffffffff808616855290835292819020815180830190925280549093168082526001909301549181019190915290871415610af35760200151945061069e9350505050565b805163ffffffff16871115610b0a57819350610b11565b6001820392505b5050610a67565b506001600160a01b038516600090815260086020908152604080832063ffffffff9094168352929052206001015491505092915050565b600a6020526000908152604090205481565b60055461010090046001600160a01b031690565b60048054604080516020601f600260001961010060018816150201909516949094049384018190048102820181019092528281526060939092909183018282801561067c5780601f106106515761010080835404028352916020019161067c565b610bde611338565b60055461010090046001600160a01b03908116911614610c33576040805162461bcd60e51b81526020600482018190526024820152600080516020611d41833981519152604482015290519081900360640190fd5b610c3d8282611910565b6001600160a01b038083166000908152600760205260408120546108389216908361173e565b610c6b611338565b60055461010090046001600160a01b03908116911614610cc0576040805162461bcd60e51b81526020600482018190526024820152600080516020611d41833981519152604482015290519081900360640190fd5b600654604080516370a0823160e01b815230600482015290516000926001600160a01b0316916370a08231916024808301926020929190829003018186803b158015610d0b57600080fd5b505afa158015610d1f573d6000803e3d6000fd5b505050506040513d6020811015610d3557600080fd5b5051905080821115610dc9576006546040805163a9059cbb60e01b81526001600160a01b038681166004830152602482018590529151919092169163a9059cbb9160448083019260209291908290030181600087803b158015610d9757600080fd5b505af1158015610dab573d6000803e3d6000fd5b505050506040513d6020811015610dc157600080fd5b50610e4c9050565b6006546040805163a9059cbb60e01b81526001600160a01b038681166004830152602482018690529151919092169163a9059cbb9160448083019260209291908290030181600087803b158015610e1f57600080fd5b505af1158015610e33573d6000803e3d6000fd5b505050506040513d6020811015610e4957600080fd5b50505b505050565b600061069a610e5e611338565b8461074685604051806060016040528060258152602001611e686025913960016000610e88611338565b6001600160a01b03908116825260208083019390935260409182016000908120918d16815292529020549190611571565b600061069a610ec6611338565b8484611428565b6001600160a01b03811660009081526009602052604081205463ffffffff1680610ef8576000610f2a565b6001600160a01b038316600090815260086020908152604080832063ffffffff60001986011684529091529020600101545b9392505050565b60007f8cad95687ba82c2ce50e74f7b754645e5117c3a5bec8151c0726d5857980a866610f5c6105f0565b80519060200120610f6b6119fa565b60408051602080820195909552808201939093526060830191909152306080808401919091528151808403909101815260a0830182528051908401207fe48329057bfd03d55e49b547132e39cffd9c1820ad7b9d4c5307691425d15adf60c08401526001600160a01b038b1660e084015261010083018a90526101208084018a9052825180850390910181526101408401835280519085012061190160f01b6101608501526101628401829052610182808501829052835180860390910181526101a285018085528151918701919091206000918290526101c2860180865281905260ff8b166101e287015261020286018a90526102228601899052935192965090949293909260019261024280840193601f198301929081900390910190855afa15801561109e573d6000803e3d6000fd5b5050604051601f1901519150506001600160a01b0381166110f05760405162461bcd60e51b8152600401808060200182810382526026815260200180611cf36026913960400191505060405180910390fd5b6001600160a01b0381166000908152600a60205260409020805460018101909155891461114e5760405162461bcd60e51b8152600401808060200182810382526022815260200180611dbc6022913960400191505060405180910390fd5b8742111561118d5760405162461bcd60e51b8152600401808060200182810382526026815260200180611ca76026913960400191505060405180910390fd5b611197818b61187b565b505050505b505050505050565b6006546001600160a01b031681565b6001600160a01b03918216600090815260016020908152604080832093909416825291909152205490565b7fe48329057bfd03d55e49b547132e39cffd9c1820ad7b9d4c5307691425d15adf81565b60086020908152600092835260408084209091529082529020805460019091015463ffffffff9091169082565b611237611338565b60055461010090046001600160a01b0390811691161461128c576040805162461bcd60e51b81526020600482018190526024820152600080516020611d41833981519152604482015290519081900360640190fd5b6001600160a01b0381166112d15760405162461bcd60e51b8152600401808060200182810382526026815260200180611c5f6026913960400191505060405180910390fd5b6005546040516001600160a01b0380841692610100900416907f8be0079c531659141344cd1fd0a4f28419497f9722a3daafe3b4186f6b6457e090600090a3600580546001600160a01b0390921661010002610100600160a81b0319909216919091179055565b3390565b6001600160a01b0383166113815760405162461bcd60e51b8152600401808060200182810382526024815260200180611e446024913960400191505060405180910390fd5b6001600160a01b0382166113c65760405162461bcd60e51b8152600401808060200182810382526022815260200180611c856022913960400191505060405180910390fd5b6001600160a01b03808416600081815260016020908152604080832094871680845294825291829020859055815185815291517f8c5be1e5ebec7d5bd14f71427d1e84f3dd0314c0f7b2291e5b200ac8c7c3b9259281900390910190a3505050565b6001600160a01b03831661146d5760405162461bcd60e51b8152600401808060200182810382526025815260200180611e1f6025913960400191505060405180910390fd5b6001600160a01b0382166114b25760405162461bcd60e51b8152600401808060200182810382526023815260200180611c1a6023913960400191505060405180910390fd5b6114bd838383610e4c565b6114fa81604051806060016040528060268152602001611ccd602691396001600160a01b0386166000908152602081905260409020549190611571565b6001600160a01b0380851660009081526020819052604080822093909355908416815220546115299082611608565b6001600160a01b03808416600081815260208181526040918290209490945580518581529051919392871692600080516020611dde83398151915292918290030190a3505050565b600081848411156116005760405162461bcd60e51b81526004018080602001828103825283818151815260200191508051906020019080838360005b838110156115c55781810151838201526020016115ad565b50505050905090810190601f1680156115f25780820380516001836020036101000a031916815260200191505b509250505060405180910390fd5b505050900390565b600082820183811015610f2a576040805162461bcd60e51b815260206004820152601b60248201527a536166654d6174683a206164646974696f6e206f766572666c6f7760281b604482015290519081900360640190fd5b6001600160a01b0382166116bb576040805162461bcd60e51b815260206004820152601f60248201527f45524332303a206d696e7420746f20746865207a65726f206164647265737300604482015290519081900360640190fd5b6116c760008383610e4c565b6002546116d49082611608565b6002556001600160a01b0382166000908152602081905260409020546116fa9082611608565b6001600160a01b038316600081815260208181526040808320949094558351858152935192939192600080516020611dde8339815191529281900390910190a35050565b816001600160a01b0316836001600160a01b0316141580156117605750600081115b15610e4c576001600160a01b038316156117f2576001600160a01b03831660009081526009602052604081205463ffffffff1690816117a05760006117d2565b6001600160a01b038516600090815260086020908152604080832063ffffffff60001987011684529091529020600101545b905060006117e082856119fe565b90506117ee86848484611a40565b5050505b6001600160a01b03821615610e4c576001600160a01b03821660009081526009602052604081205463ffffffff16908161182d57600061185f565b6001600160a01b038416600090815260086020908152604080832063ffffffff60001987011684529091529020600101545b9050600061186d8285611608565b905061119c85848484611a40565b6001600160a01b03808316600090815260076020526040812054909116906118a28461087f565b6001600160a01b0385811660008181526007602052604080822080546001600160a01b031916898616908117909155905194955093928616927f3134e8a2e6d97e929a7e54011ea5485d7d196dd5f0ba4d4ef95803e8e3fc257f9190a461190a82848361173e565b50505050565b6001600160a01b0382166119555760405162461bcd60e51b8152600401808060200182810382526021815260200180611dfe6021913960400191505060405180910390fd5b61196182600083610e4c565b61199e81604051806060016040528060228152602001611c3d602291396001600160a01b0385166000908152602081905260409020549190611571565b6001600160a01b0383166000908152602081905260409020556002546119c490826119fe565b6002556040805182815290516000916001600160a01b03851691600080516020611dde8339815191529181900360200190a35050565b4690565b6000610f2a83836040518060400160405280601e81526020017f536166654d6174683a207375627472616374696f6e206f766572666c6f770000815250611571565b6000611a6443604051806060016040528060348152602001611d6160349139611ba5565b905060008463ffffffff16118015611aad57506001600160a01b038516600090815260086020908152604080832063ffffffff6000198901811685529252909120548282169116145b15611aea576001600160a01b038516600090815260086020908152604080832063ffffffff60001989011684529091529020600101829055611b5b565b60408051808201825263ffffffff808416825260208083018681526001600160a01b038a166000818152600884528681208b8616825284528681209551865490861663ffffffff19918216178755925160019687015590815260099092529390208054928801909116919092161790555b604080518481526020810184905281516001600160a01b038816927fdec2bacdd2f05b59de34da9b523dff8be42e5e38e818c82fdb0bae774387a724928290030190a25050505050565b600081600160201b8410611bfa5760405162461bcd60e51b81526020600482018181528351602484015283519092839260449091019190850190808383600083156115c55781810151838201526020016115ad565b509192915050565b60408051808201909152600080825260208201529056fe45524332303a207472616e7366657220746f20746865207a65726f206164647265737345524332303a206275726e20616d6f756e7420657863656564732062616c616e63654f776e61626c653a206e6577206f776e657220697320746865207a65726f206164647265737345524332303a20617070726f766520746f20746865207a65726f206164647265737343414b453a3a64656c656761746542795369673a207369676e6174757265206578706972656445524332303a207472616e7366657220616d6f756e7420657863656564732062616c616e636543414b453a3a64656c656761746542795369673a20696e76616c6964207369676e617475726545524332303a207472616e7366657220616d6f756e74206578636565647320616c6c6f77616e63654f776e61626c653a2063616c6c6572206973206e6f7420746865206f776e657243414b453a3a5f7772697465436865636b706f696e743a20626c6f636b206e756d6265722065786365656473203332206269747343414b453a3a6765745072696f72566f7465733a206e6f74207965742064657465726d696e656443414b453a3a64656c656761746542795369673a20696e76616c6964206e6f6e6365ddf252ad1be2c89b69c2b068fc378daa952ba7f163c4a11628f55a4df523b3ef45524332303a206275726e2066726f6d20746865207a65726f206164647265737345524332303a207472616e736665722066726f6d20746865207a65726f206164647265737345524332303a20617070726f76652066726f6d20746865207a65726f206164647265737345524332303a2064656372656173656420616c6c6f77616e63652062656c6f77207a65726fa26469706673582212206034faaa34692d60a55c328dd79ea8bdab72046a2f1ba0cf26df9a90026b312e64736f6c634300060c0033","linkReferences":{}},"methodIdentifiers":{"DELEGATION_TYPEHASH()":"e7a324dc","DOMAIN_TYPEHASH()":"20606b70","allowance(address,address)":"dd62ed3e","approve(address,uint256)":"095ea7b3","balanceOf(address)":"70a08231","burn(address,uint256)":"9dc29fac","cake()":"dce17484","checkpoints(address,uint32)":"f1127ed8","decimals()":"313ce567","decreaseAllowance(address,uint256)":"a457c2d7","delegate(address)":"5c19a95c","delegateBySig(address,uint256,uint256,uint8,bytes32,bytes32)":"c3cda520","delegates(address)":"587cde1e","getCurrentVotes(address)":"b4b5ea57","getPriorVotes(address,uint256)":"782d6fe1","increaseAllowance(address,uint256)":"39509351","mint(address,uint256)":"40c10f19","name()":"06fdde03","nonces(address)":"7ecebe00","numCheckpoints(address)":"6fcfff45","owner()":"8da5cb5b","renounceOwnership()":"715018a6","safeCakeTransfer(address,uint256)":"a2e6ddcc","symbol()":"95d89b41","totalSupply()":"18160ddd","transfer(address,uint256)":"a9059cbb","transferFrom(address,address,uint256)":"23b872dd","transferOwnership(address)":"f2fde38b"},"id":101}