{"abi":[{"type":"constructor","inputs":[{"name":"_vault","type":"address","internalType":"address"},{"name":"_usdg","type":"address","internalType":"address"},{"name":"_zlp","type":"address","internalType":"address"},{"name":"_shortsTracker","type":"address","internalType":"address"},{"name":"_cooldownDuration","type":"uint256","internalType":"uint256"}],"stateMutability":"nonpayable"},{"type":"function","name":"BASIS_POINTS_DIVISOR","inputs":[],"outputs":[{"name":"","type":"uint256","internalType":"uint256"}],"stateMutability":"view"},{"type":"function","name":"MAX_COOLDOWN_DURATION","inputs":[],"outputs":[{"name":"","type":"uint256","internalType":"uint256"}],"stateMutability":"view"},{"type":"function","name":"PRICE_PRECISION","inputs":[],"outputs":[{"name":"","type":"uint256","internalType":"uint256"}],"stateMutability":"view"},{"type":"function","name":"USDG_DECIMALS","inputs":[],"outputs":[{"name":"","type":"uint256","internalType":"uint256"}],"stateMutability":"view"},{"type":"function","name":"ZLP_PRECISION","inputs":[],"outputs":[{"name":"","type":"uint256","internalType":"uint256"}],"stateMutability":"view"},{"type":"function","name":"addLiquidity","inputs":[{"name":"_token","type":"address","internalType":"address"},{"name":"_amount","type":"uint256","internalType":"uint256"},{"name":"_minUsdg","type":"uint256","internalType":"uint256"},{"name":"_minZlp","type":"uint256","internalType":"uint256"}],"outputs":[{"name":"","type":"uint256","internalType":"uint256"}],"stateMutability":"nonpayable"},{"type":"function","name":"addLiquidityForAccount","inputs":[{"name":"_fundingAccount","type":"address","internalType":"address"},{"name":"_account","type":"address","internalType":"address"},{"name":"_token","type":"address","internalType":"address"},{"name":"_amount","type":"uint256","internalType":"uint256"},{"name":"_minUsdg","type":"uint256","internalType":"uint256"},{"name":"_minZlp","type":"uint256","internalType":"uint256"}],"outputs":[{"name":"","type":"uint256","internalType":"uint256"}],"stateMutability":"nonpayable"},{"type":"function","name":"aumAddition","inputs":[],"outputs":[{"name":"","type":"uint256","internalType":"uint256"}],"stateMutability":"view"},{"type":"function","name":"aumDeduction","inputs":[],"outputs":[{"name":"","type":"uint256","internalType":"uint256"}],"stateMutability":"view"},{"type":"function","name":"cooldownDuration","inputs":[],"outputs":[{"name":"","type":"uint256","internalType":"uint256"}],"stateMutability":"view"},{"type":"function","name":"getAum","inputs":[{"name":"maximise","type":"bool","internalType":"bool"}],"outputs":[{"name":"","type":"uint256","internalType":"uint256"}],"stateMutability":"view"},{"type":"function","name":"getAumInUsdg","inputs":[{"name":"maximise","type":"bool","internalType":"bool"}],"outputs":[{"name":"","type":"uint256","internalType":"uint256"}],"stateMutability":"view"},{"type":"function","name":"getAums","inputs":[],"outputs":[{"name":"","type":"uint256[]","internalType":"uint256[]"}],"stateMutability":"view"},{"type":"function","name":"getGlobalShortAveragePrice","inputs":[{"name":"_token","type":"address","internalType":"address"}],"outputs":[{"name":"","type":"uint256","internalType":"uint256"}],"stateMutability":"view"},{"type":"function","name":"getGlobalShortDelta","inputs":[{"name":"_token","type":"address","internalType":"address"},{"name":"_price","type":"uint256","internalType":"uint256"},{"name":"_size","type":"uint256","internalType":"uint256"}],"outputs":[{"name":"","type":"uint256","internalType":"uint256"},{"name":"","type":"bool","internalType":"bool"}],"stateMutability":"view"},{"type":"function","name":"getPrice","inputs":[{"name":"_maximise","type":"bool","internalType":"bool"}],"outputs":[{"name":"","type":"uint256","internalType":"uint256"}],"stateMutability":"view"},{"type":"function","name":"gov","inputs":[],"outputs":[{"name":"","type":"address","internalType":"address"}],"stateMutability":"view"},{"type":"function","name":"inPrivateMode","inputs":[],"outputs":[{"name":"","type":"bool","internalType":"bool"}],"stateMutability":"view"},{"type":"function","name":"isHandler","inputs":[{"name":"","type":"address","internalType":"address"}],"outputs":[{"name":"","type":"bool","internalType":"bool"}],"stateMutability":"view"},{"type":"function","name":"lastAddedAt","inputs":[{"name":"","type":"address","internalType":"address"}],"outputs":[{"name":"","type":"uint256","internalType":"uint256"}],"stateMutability":"view"},{"type":"function","name":"removeLiquidity","inputs":[{"name":"_tokenOut","type":"address","internalType":"address"},{"name":"_zlpAmount","type":"uint256","internalType":"uint256"},{"name":"_minOut","type":"uint256","internalType":"uint256"},{"name":"_receiver","type":"address","internalType":"address"}],"outputs":[{"name":"","type":"uint256","internalType":"uint256"}],"stateMutability":"nonpayable"},{"type":"function","name":"removeLiquidityForAccount","inputs":[{"name":"_account","type":"address","internalType":"address"},{"name":"_tokenOut","type":"address","internalType":"address"},{"name":"_zlpAmount","type":"uint256","internalType":"uint256"},{"name":"_minOut","type":"uint256","internalType":"uint256"},{"name":"_receiver","type":"address","internalType":"address"}],"outputs":[{"name":"","type":"uint256","internalType":"uint256"}],"stateMutability":"nonpayable"},{"type":"function","name":"setAumAdjustment","inputs":[{"name":"_aumAddition","type":"uint256","internalType":"uint256"},{"name":"_aumDeduction","type":"uint256","internalType":"uint256"}],"outputs":[],"stateMutability":"nonpayable"},{"type":"function","name":"setCooldownDuration","inputs":[{"name":"_cooldownDuration","type":"uint256","internalType":"uint256"}],"outputs":[],"stateMutability":"nonpayable"},{"type":"function","name":"setGov","inputs":[{"name":"_gov","type":"address","internalType":"address"}],"outputs":[],"stateMutability":"nonpayable"},{"type":"function","name":"setHandler","inputs":[{"name":"_handler","type":"address","internalType":"address"},{"name":"_isActive","type":"bool","internalType":"bool"}],"outputs":[],"stateMutability":"nonpayable"},{"type":"function","name":"setInPrivateMode","inputs":[{"name":"_inPrivateMode","type":"bool","internalType":"bool"}],"outputs":[],"stateMutability":"nonpayable"},{"type":"function","name":"setShortsTracker","inputs":[{"name":"_shortsTracker","type":"address","internalType":"contract IShortsTracker"}],"outputs":[],"stateMutability":"nonpayable"},{"type":"function","name":"setShortsTrackerAveragePriceWeight","inputs":[{"name":"_shortsTrackerAveragePriceWeight","type":"uint256","internalType":"uint256"}],"outputs":[],"stateMutability":"nonpayable"},{"type":"function","name":"shortsTracker","inputs":[],"outputs":[{"name":"","type":"address","internalType":"contract IShortsTracker"}],"stateMutability":"view"},{"type":"function","name":"shortsTrackerAveragePriceWeight","inputs":[],"outputs":[{"name":"","type":"uint256","internalType":"uint256"}],"stateMutability":"view"},{"type":"function","name":"usdg","inputs":[],"outputs":[{"name":"","type":"address","internalType":"address"}],"stateMutability":"view"},{"type":"function","name":"vault","inputs":[],"outputs":[{"name":"","type":"address","internalType":"contract IVault"}],"stateMutability":"view"},{"type":"function","name":"zlp","inputs":[],"outputs":[{"name":"","type":"address","internalType":"address"}],"stateMutability":"view"},{"type":"event","name":"AddLiquidity","inputs":[{"name":"account","type":"address","indexed":false,"internalType":"address"},{"name":"token","type":"address","indexed":false,"internalType":"address"},{"name":"amount","type":"uint256","indexed":false,"internalType":"uint256"},{"name":"aumInUsdg","type":"uint256","indexed":false,"internalType":"uint256"},{"name":"zlpSupply","type":"uint256","indexed":false,"internalType":"uint256"},{"name":"usdgAmount","type":"uint256","indexed":false,"internalType":"uint256"},{"name":"mintAmount","type":"uint256","indexed":false,"internalType":"uint256"}],"anonymous":false},{"type":"event","name":"RemoveLiquidity","inputs":[{"name":"account","type":"address","indexed":false,"internalType":"address"},{"name":"token","type":"address","indexed":false,"internalType":"address"},{"name":"zlpAmount","type":"uint256","indexed":false,"internalType":"uint256"},{"name":"aumInUsdg","type":"uint256","indexed":false,"internalType":"uint256"},{"name":"zlpSupply","type":"uint256","indexed":false,"internalType":"uint256"},{"name":"usdgAmount","type":"uint256","indexed":false,"internalType":"uint256"},{"name":"amountOut","type":"uint256","indexed":false,"internalType":"uint256"}],"anonymous":false}],"bytecode":{"object":"0x608060405234801561001057600080fd5b506040516126cf3803806126cf833981810160405260a081101561003357600080fd5b50805160208201516040830151606084015160809094015160018054336001600160a01b031991821681178216179091556002805482166001600160a01b0396871617905560048054821694861694909417909355600580548416928516929092179091556003805490921692909316919091179055600655612614806100bb6000396000f3fe608060405234801561001057600080fd5b50600436106101a65760003560e01c806371d597ad116100ea57806371d597ad1461037d578063870d917c146103c15780638b770e11146103c95780638fed0b2c146103ef5780639116c4ae1461042957806395082d251461044c578063966be075146104545780639cb7de4b14610471578063a1acd3d51461049f578063b172bb0c146104ea578063cfad57a2146104f2578063d34ee09314610518578063e245b5af1461053e578063ed0d1c041461055d578063f5b91b7b146105b5578063fbfa77cf146105bd578063fe9fe720146105c5576101a6565b806303391476146101ab578063070eacee146101dc578063088ec8c3146101f8578063126082cf1461020057806312d43a511461020857806317eb2a151461022c578063196b68cb146102745780631e9049cf1461027c5780631ece366a1461028457806335269315146102bc578063440d828a146102c457806346ea87af146102ea5780634f5f6b5e1461031057806364e6617f1461032f578063657bc5d01461033757806368a0a3e01461033f5780636a86da191461035e575b600080fd5b6101ca600480360360208110156101c157600080fd5b503515156105cd565b60408051918252519081900360200190f35b6101e4610c81565b604080519115158252519081900360200190f35b6101ca610c8a565b6101ca610c96565b610210610c9c565b604080516001600160a01b039092168252519081900360200190f35b6101ca600480360360c081101561024257600080fd5b506001600160a01b03813581169160208101358216916040820135169060608101359060808101359060a00135610cab565b6101ca610d1e565b6101ca610d24565b6101ca6004803603608081101561029a57600080fd5b506001600160a01b038135169060208101359060408101359060600135610d2b565b6101ca610dec565b6101ca600480360360208110156102da57600080fd5b50356001600160a01b0316610df2565b6101e46004803603602081101561030057600080fd5b50356001600160a01b0316611103565b61032d6004803603602081101561032657600080fd5b5035611118565b005b6101ca6111be565b6102106111c4565b6101ca6004803603602081101561035557600080fd5b503515156111d3565b61032d6004803603602081101561037457600080fd5b5035151561120a565b6101ca600480360360a081101561039357600080fd5b506001600160a01b03813581169160208101358216916040820135916060810135916080909101351661126a565b6101ca6112db565b6101ca600480360360208110156103df57600080fd5b50356001600160a01b03166112e0565b6101ca6004803603608081101561040557600080fd5b506001600160a01b03813581169160208101359160408201359160600135166112f2565b61032d6004803603604081101561043f57600080fd5b50803590602001356113a4565b6101ca6113fc565b61032d6004803603602081101561046a57600080fd5b503561140c565b61032d6004803603604081101561048757600080fd5b506001600160a01b03813516906020013515156114a0565b6104d1600480360360608110156104b557600080fd5b506001600160a01b038135169060208101359060400135611518565b6040805192835290151560208301528051918290030190f35b6101ca61158f565b61032d6004803603602081101561050857600080fd5b50356001600160a01b0316611595565b61032d6004803603602081101561052e57600080fd5b50356001600160a01b0316611604565b6101ca6004803603602081101561055457600080fd5b50351515611673565b61056561172d565b60408051602080825283518183015283519192839290830191858101910280838360005b838110156105a1578181015183820152602001610589565b505050509050019250505060405180910390f35b61021061179b565b6102106117aa565b6102106117b9565b600080600260009054906101000a90046001600160a01b03166001600160a01b0316630842b0766040518163ffffffff1660e01b815260040160206040518083038186803b15801561061e57600080fd5b505afa158015610632573d6000803e3d6000fd5b505050506040513d602081101561064857600080fd5b50516008549091506001600160ff1b0381111561068757806009541161067b576009546106769082906117c8565b61067e565b60005b92505050610c7c565b6002546000906001600160a01b0316815b84811015610c3a5760025460408051630e468baf60e41b81526004810184905290516000926001600160a01b03169163e468baf0916024808301926020929190829003018186803b1580156106ec57600080fd5b505afa158015610700573d6000803e3d6000fd5b505050506040513d602081101561071657600080fd5b505160025460408051630daf9c2160e41b81526001600160a01b0380851660048301529151939450600093919092169163daf9c210916024808301926020929190829003018186803b15801561076b57600080fd5b505afa15801561077f573d6000803e3d6000fd5b505050506040513d602081101561079557600080fd5b50519050806107a5575050610c32565b60008961082a57846001600160a01b03166381a612d6846040518263ffffffff1660e01b815260040180826001600160a01b0316815260200191505060206040518083038186803b1580156107f957600080fd5b505afa15801561080d573d6000803e3d6000fd5b505050506040513d602081101561082357600080fd5b50516108a4565b846001600160a01b031663e124e6d2846040518263ffffffff1660e01b815260040180826001600160a01b0316815260200191505060206040518083038186803b15801561087757600080fd5b505afa15801561088b573d6000803e3d6000fd5b505050506040513d60208110156108a157600080fd5b50515b90506000856001600160a01b03166352f55eed856040518263ffffffff1660e01b815260040180826001600160a01b0316815260200191505060206040518083038186803b1580156108f557600080fd5b505afa158015610909573d6000803e3d6000fd5b505050506040513d602081101561091f57600080fd5b5051604080516323b95ceb60e21b81526001600160a01b038781166004830152915192935060009291891691638ee573ac91602480820192602092909190829003018186803b15801561097157600080fd5b505afa158015610985573d6000803e3d6000fd5b505050506040513d602081101561099b57600080fd5b5051604080516342b60b0360e01b81526001600160a01b0388811660048301529151929350908916916342b60b0391602480820192602092909190829003018186803b1580156109ea57600080fd5b505afa1580156109fe573d6000803e3d6000fd5b505050506040513d6020811015610a1457600080fd5b505115610a4457610a3d610a36600a83900a610a308587611813565b9061186c565b8a906118ab565b9850610c2c565b6000876001600160a01b0316638a78daa8876040518263ffffffff1660e01b815260040180826001600160a01b0316815260200191505060206040518083038186803b158015610a9357600080fd5b505afa158015610aa7573d6000803e3d6000fd5b505050506040513d6020811015610abd57600080fd5b505190508015610aff57600080610ad5888785611518565b9150915080610aef57610ae88c836118ab565b9b50610afc565b610af98b836118ab565b9a505b50505b610b82886001600160a01b031663f07456ce886040518263ffffffff1660e01b815260040180826001600160a01b0316815260200191505060206040518083038186803b158015610b4f57600080fd5b505afa158015610b63573d6000803e3d6000fd5b505050506040513d6020811015610b7957600080fd5b50518b906118ab565b99506000886001600160a01b031663c3c7b9e9886040518263ffffffff1660e01b815260040180826001600160a01b0316815260200191505060206040518083038186803b158015610bd357600080fd5b505afa158015610be7573d6000803e3d6000fd5b505050506040513d6020811015610bfd57600080fd5b50519050610c27610c20600a85900a610a3088610c1a89876117c8565b90611813565b8c906118ab565b9a5050505b50505050505b600101610698565b50828211610c5157610c4c83836117c8565b610c54565b60005b92508260095411610c7257600954610c6d9084906117c8565b610c75565b60005b9450505050505b919050565b600a5460ff1681565b670de0b6b3a764000081565b61271081565b6001546001600160a01b031681565b600060026000541415610cf3576040805162461bcd60e51b815260206004820152601f60248201526000805160206124bc833981519152604482015290519081900360640190fd5b6002600055610d00611903565b610d0e878787878787611961565b6001600055979650505050505050565b60085481565b6202a30081565b600060026000541415610d73576040805162461bcd60e51b815260206004820152601f60248201526000805160206124bc833981519152604482015290519081900360640190fd5b6002600055600a5460ff1615610dd0576040805162461bcd60e51b815260206004820152601e60248201527f5a6c704d616e616765723a20616374696f6e206e6f7420656e61626c65640000604482015290519081900360640190fd5b610dde333387878787611961565b600160005595945050505050565b60065481565b6003546000906001600160a01b0316801580610e705750806001600160a01b0316639a11178f6040518163ffffffff1660e01b815260040160206040518083038186803b158015610e4257600080fd5b505afa158015610e56573d6000803e3d6000fd5b505050506040513d6020811015610e6c57600080fd5b5051155b15610ef75760025460408051636274980360e01b81526001600160a01b038681166004830152915191909216916362749803916024808301926020929190829003018186803b158015610ec257600080fd5b505afa158015610ed6573d6000803e3d6000fd5b505050506040513d6020811015610eec57600080fd5b50519150610c7c9050565b600b5480610f825760025460408051636274980360e01b81526001600160a01b038781166004830152915191909216916362749803916024808301926020929190829003018186803b158015610f4c57600080fd5b505afa158015610f60573d6000803e3d6000fd5b505050506040513d6020811015610f7657600080fd5b50519250610c7c915050565b612710811415610fd957816001600160a01b03166362749803856040518263ffffffff1660e01b815260040180826001600160a01b0316815260200191505060206040518083038186803b158015610f4c57600080fd5b60025460408051636274980360e01b81526001600160a01b03878116600483015291516000939290921691636274980391602480820192602092909190829003018186803b15801561102a57600080fd5b505afa15801561103e573d6000803e3d6000fd5b505050506040513d602081101561105457600080fd5b505160408051636274980360e01b81526001600160a01b038881166004830152915192935060009291861691636274980391602480820192602092909190829003018186803b1580156110a657600080fd5b505afa1580156110ba573d6000803e3d6000fd5b505050506040513d60208110156110d057600080fd5b50519050610c75612710610a306110e78487611813565b6110fd6110f6612710896117c8565b8790611813565b906118ab565b600c6020526000908152604090205460ff1681565b6001546001600160a01b03163314611165576040805162461bcd60e51b81526020600482015260156024820152600080516020612508833981519152604482015290519081900360640190fd5b6127108111156111b9576040805162461bcd60e51b815260206004820152601a602482015279169b1c13585b9859d95c8e881a5b9d985b1a59081dd95a59da1d60321b604482015290519081900360640190fd5b600b55565b600b5481565b6003546001600160a01b031681565b6000806111df836105cd565b905061120368327cb2734119d3b7a9601e1b610a3083670de0b6b3a7640000611813565b9392505050565b6001546001600160a01b03163314611257576040805162461bcd60e51b81526020600482015260156024820152600080516020612508833981519152604482015290519081900360640190fd5b600a805460ff1916911515919091179055565b6000600260005414156112b2576040805162461bcd60e51b815260206004820152601f60248201526000805160206124bc833981519152604482015290519081900360640190fd5b60026000556112bf611903565b6112cc8686868686611c7a565b60016000559695505050505050565b601281565b60076020526000908152604090205481565b60006002600054141561133a576040805162461bcd60e51b815260206004820152601f60248201526000805160206124bc833981519152604482015290519081900360640190fd5b6002600055600a5460ff1615611397576040805162461bcd60e51b815260206004820152601e60248201527f5a6c704d616e616765723a20616374696f6e206e6f7420656e61626c65640000604482015290519081900360640190fd5b610dde3386868686611c7a565b6001546001600160a01b031633146113f1576040805162461bcd60e51b81526020600482015260156024820152600080516020612508833981519152604482015290519081900360640190fd5b600891909155600955565b68327cb2734119d3b7a9601e1b81565b6001546001600160a01b03163314611459576040805162461bcd60e51b81526020600482015260156024820152600080516020612508833981519152604482015290519081900360640190fd5b6202a30081111561149b5760405162461bcd60e51b81526004018080602001828103825260258152602001806125906025913960400191505060405180910390fd5b600655565b6001546001600160a01b031633146114ed576040805162461bcd60e51b81526020600482015260156024820152600080516020612508833981519152604482015290519081900360640190fd5b6001600160a01b03919091166000908152600c60205260409020805460ff1916911515919091179055565b6000808261152b57506000905080611587565b600061153686610df2565b90508061154a576000809250925050611587565b60008582116115625761155d86836117c8565b61156c565b61156c82876117c8565b9050600061157e83610a308885611813565b94505050841090505b935093915050565b60095481565b6001546001600160a01b031633146115e2576040805162461bcd60e51b81526020600482015260156024820152600080516020612508833981519152604482015290519081900360640190fd5b600180546001600160a01b0319166001600160a01b0392909216919091179055565b6001546001600160a01b03163314611651576040805162461bcd60e51b81526020600482015260156024820152600080516020612508833981519152604482015290519081900360640190fd5b600380546001600160a01b0319166001600160a01b0392909216919091179055565b60008061167f836105cd565b90506000600560009054906101000a90046001600160a01b03166001600160a01b03166318160ddd6040518163ffffffff1660e01b815260040160206040518083038186803b1580156116d157600080fd5b505afa1580156116e5573d6000803e3d6000fd5b505050506040513d60208110156116fb57600080fd5b505190508061170f57600092505050610c7c565b61172581610a3084670de0b6b3a7640000611813565b949350505050565b60408051600280825260608083018452928392919060208301908036833701905050905061175b60016105cd565b8160008151811061176857fe5b60200260200101818152505061177e60006105cd565b8160018151811061178b57fe5b6020908102919091010152905090565b6004546001600160a01b031681565b6002546001600160a01b031681565b6005546001600160a01b031681565b600061180a83836040518060400160405280601e81526020017f536166654d6174683a207375627472616374696f6e206f766572666c6f770000815250612117565b90505b92915050565b6000826118225750600061180d565b8282028284828161182f57fe5b041461180a5760405162461bcd60e51b815260040180806020018281038252602181526020018061254b6021913960400191505060405180910390fd5b600061180a83836040518060400160405280601a815260200179536166654d6174683a206469766973696f6e206279207a65726f60301b8152506121ae565b60008282018381101561180a576040805162461bcd60e51b815260206004820152601b60248201527a536166654d6174683a206164646974696f6e206f766572666c6f7760281b604482015290519081900360640190fd5b336000908152600c602052604090205460ff1661195f576040805162461bcd60e51b81526020600482015260156024820152742d363826b0b730b3b2b91d103337b93134b23232b760591b604482015290519081900360640190fd5b565b60008084116119b5576040805162461bcd60e51b815260206004820152601b60248201527a169b1c13585b9859d95c8e881a5b9d985b1a590817d85b5bdd5b9d602a1b604482015290519081900360640190fd5b60006119c160016111d3565b90506000600560009054906101000a90046001600160a01b03166001600160a01b03166318160ddd6040518163ffffffff1660e01b815260040160206040518083038186803b158015611a1357600080fd5b505afa158015611a27573d6000803e3d6000fd5b505050506040513d6020811015611a3d57600080fd5b5051600254909150611a5e906001600160a01b03898116918c911689612213565b6002546040805163817bb85760e01b81526001600160a01b038a811660048301523060248301529151600093929092169163817bb8579160448082019260209290919082900301818787803b158015611ab657600080fd5b505af1158015611aca573d6000803e3d6000fd5b505050506040513d6020811015611ae057600080fd5b5051905085811015611b235760405162461bcd60e51b815260040180806020018281038252602481526020018061256c6024913960400191505060405180910390fd5b60008315611b3e57611b3984610a308486611813565b611b40565b815b905085811015611b815760405162461bcd60e51b81526004018080602001828103825260238152602001806125286023913960400191505060405180910390fd5b600554604080516340c10f1960e01b81526001600160a01b038d8116600483015260248201859052915191909216916340c10f1991604480830192600092919082900301818387803b158015611bd657600080fd5b505af1158015611bea573d6000803e3d6000fd5b5050506001600160a01b03808c166000818152600760209081526040918290204290558151928352928d16928201929092528082018b9052606081018790526080810186905260a0810185905260c0810184905290517f38dc38b96482be64113daffd8d464ebda93e856b70ccfc605e69ccf892ab981e92509081900360e00190a19a9950505050505050505050565b6000808411611cd0576040805162461bcd60e51b815260206004820152601e60248201527f5a6c704d616e616765723a20696e76616c6964205f7a6c70416d6f756e740000604482015290519081900360640190fd5b6006546001600160a01b0387166000908152600760205260409020544291611cf891906118ab565b1115611d355760405162461bcd60e51b815260040180806020018281038252602c8152602001806124dc602c913960400191505060405180910390fd5b6000611d4160006111d3565b90506000600560009054906101000a90046001600160a01b03166001600160a01b03166318160ddd6040518163ffffffff1660e01b815260040160206040518083038186803b158015611d9357600080fd5b505afa158015611da7573d6000803e3d6000fd5b505050506040513d6020811015611dbd57600080fd5b505190506000611dd182610a308986611813565b60048054604080516370a0823160e01b81523093810193909352519293506000926001600160a01b03909116916370a08231916024808301926020929190829003018186803b158015611e2357600080fd5b505afa158015611e37573d6000803e3d6000fd5b505050506040513d6020811015611e4d57600080fd5b5051905080821115611ed4576004546001600160a01b03166340c10f1930611e7585856117c8565b6040518363ffffffff1660e01b815260040180836001600160a01b0316815260200182815260200192505050600060405180830381600087803b158015611ebb57600080fd5b505af1158015611ecf573d6000803e3d6000fd5b505050505b60055460408051632770a7eb60e21b81526001600160a01b038d81166004830152602482018c905291519190921691639dc29fac91604480830192600092919082900301818387803b158015611f2957600080fd5b505af1158015611f3d573d6000803e3d6000fd5b5050600480546002546040805163a9059cbb60e01b81526001600160a01b039283169481019490945260248401889052519116935063a9059cbb925060448083019260209291908290030181600087803b158015611f9a57600080fd5b505af1158015611fae573d6000803e3d6000fd5b505050506040513d6020811015611fc457600080fd5b505060025460408051630711e61960e41b81526001600160a01b038c8116600483015289811660248301529151600093929092169163711e61909160448082019260209290919082900301818787803b15801561202057600080fd5b505af1158015612034573d6000803e3d6000fd5b505050506040513d602081101561204a57600080fd5b50519050878110156120a3576040805162461bcd60e51b815260206004820152601f60248201527f5a6c704d616e616765723a20696e73756666696369656e74206f757470757400604482015290519081900360640190fd5b604080516001600160a01b03808e1682528c1660208201528082018b9052606081018790526080810186905260a0810185905260c0810183905290517f87b9679bb9a4944bafa98c267e7cd4a00ab29fed48afdefae25f0fca5da279409181900360e00190a19a9950505050505050505050565b600081848411156121a65760405162461bcd60e51b81526004018080602001828103825283818151815260200191508051906020019080838360005b8381101561216b578181015183820152602001612153565b50505050905090810190601f1680156121985780820380516001836020036101000a031916815260200191505b509250505060405180910390fd5b505050900390565b600081836121fd5760405162461bcd60e51b815260206004820181815283516024840152835190928392604490910191908501908083836000831561216b578181015183820152602001612153565b50600083858161220957fe5b0495945050505050565b604080516001600160a01b0380861660248301528416604482015260648082018490528251808303909101815260849091019091526020810180516001600160e01b03166323b872dd60e01b17905261226d908590612273565b50505050565b60606122c8826040518060400160405280602081526020017f5361666545524332303a206c6f772d6c6576656c2063616c6c206661696c6564815250856001600160a01b03166123299092919063ffffffff16565b805190915015612324578080602001905160208110156122e757600080fd5b50516123245760405162461bcd60e51b815260040180806020018281038252602a8152602001806125b5602a913960400191505060405180910390fd5b505050565b606061172584846000858561233d8561244f565b61238e576040805162461bcd60e51b815260206004820152601d60248201527f416464726573733a2063616c6c20746f206e6f6e2d636f6e7472616374000000604482015290519081900360640190fd5b60006060866001600160a01b031685876040518082805190602001908083835b602083106123cd5780518252601f1990920191602091820191016123ae565b6001836020036101000a03801982511681845116808217855250505050505090500191505060006040518083038185875af1925050503d806000811461242f576040519150601f19603f3d011682016040523d82523d6000602084013e612434565b606091505b5091509150612444828286612455565b979650505050505050565b3b151590565b60608315612464575081611203565b8251156124745782518084602001fd5b60405162461bcd60e51b815260206004820181815284516024840152845185939192839260440191908501908083836000831561216b57818101518382015260200161215356fe5265656e7472616e637947756172643a207265656e7472616e742063616c6c005a6c704d616e616765723a20636f6f6c646f776e206475726174696f6e206e6f742079657420706173736564476f7665726e61626c653a20666f7262696464656e00000000000000000000005a6c704d616e616765723a20696e73756666696369656e74205a4c50206f7574707574536166654d6174683a206d756c7469706c69636174696f6e206f766572666c6f775a6c704d616e616765723a20696e73756666696369656e742055534447206f75747075745a6c704d616e616765723a20696e76616c6964205f636f6f6c646f776e4475726174696f6e5361666545524332303a204552433230206f7065726174696f6e20646964206e6f742073756363656564a2646970667358221220380a7e661b25221be26d923291d9aa45f585ae25ee98c3ab09d6fca7cbdfa83364736f6c634300060c0033","linkReferences":{}},"methodIdentifiers":{"BASIS_POINTS_DIVISOR()":"126082cf","MAX_COOLDOWN_DURATION()":"1e9049cf","PRICE_PRECISION()":"95082d25","USDG_DECIMALS()":"870d917c","ZLP_PRECISION()":"088ec8c3","addLiquidity(address,uint256,uint256,uint256)":"1ece366a","addLiquidityForAccount(address,address,address,uint256,uint256,uint256)":"17eb2a15","aumAddition()":"196b68cb","aumDeduction()":"b172bb0c","cooldownDuration()":"35269315","getAum(bool)":"03391476","getAumInUsdg(bool)":"68a0a3e0","getAums()":"ed0d1c04","getGlobalShortAveragePrice(address)":"440d828a","getGlobalShortDelta(address,uint256,uint256)":"a1acd3d5","getPrice(bool)":"e245b5af","gov()":"12d43a51","inPrivateMode()":"070eacee","isHandler(address)":"46ea87af","lastAddedAt(address)":"8b770e11","removeLiquidity(address,uint256,uint256,address)":"8fed0b2c","removeLiquidityForAccount(address,address,uint256,uint256,address)":"71d597ad","setAumAdjustment(uint256,uint256)":"9116c4ae","setCooldownDuration(uint256)":"966be075","setGov(address)":"cfad57a2","setHandler(address,bool)":"9cb7de4b","setInPrivateMode(bool)":"6a86da19","setShortsTracker(address)":"d34ee093","setShortsTrackerAveragePriceWeight(uint256)":"4f5f6b5e","shortsTracker()":"657bc5d0","shortsTrackerAveragePriceWeight()":"64e6617f","usdg()":"f5b91b7b","vault()":"fbfa77cf","zlp()":"fe9fe720"},"id":52}