{"abi":[{"type":"constructor","inputs":[{"name":"_vault","type":"address","internalType":"address"},{"name":"_usdg","type":"address","internalType":"address"},{"name":"_zlp","type":"address","internalType":"address"},{"name":"_shortsTracker","type":"address","internalType":"address"},{"name":"_cooldownDuration","type":"uint256","internalType":"uint256"}],"stateMutability":"nonpayable"},{"type":"function","name":"BASIS_POINTS_DIVISOR","inputs":[],"outputs":[{"name":"","type":"uint256","internalType":"uint256"}],"stateMutability":"view"},{"type":"function","name":"MAX_COOLDOWN_DURATION","inputs":[],"outputs":[{"name":"","type":"uint256","internalType":"uint256"}],"stateMutability":"view"},{"type":"function","name":"PRICE_PRECISION","inputs":[],"outputs":[{"name":"","type":"uint256","internalType":"uint256"}],"stateMutability":"view"},{"type":"function","name":"USDG_DECIMALS","inputs":[],"outputs":[{"name":"","type":"uint256","internalType":"uint256"}],"stateMutability":"view"},{"type":"function","name":"ZLP_PRECISION","inputs":[],"outputs":[{"name":"","type":"uint256","internalType":"uint256"}],"stateMutability":"view"},{"type":"function","name":"acceptGov","inputs":[],"outputs":[],"stateMutability":"nonpayable"},{"type":"function","name":"addLiquidity","inputs":[{"name":"_token","type":"address","internalType":"address"},{"name":"_amount","type":"uint256","internalType":"uint256"},{"name":"_minUsdg","type":"uint256","internalType":"uint256"},{"name":"_minZlp","type":"uint256","internalType":"uint256"}],"outputs":[{"name":"","type":"uint256","internalType":"uint256"}],"stateMutability":"nonpayable"},{"type":"function","name":"addLiquidityForAccount","inputs":[{"name":"_fundingAccount","type":"address","internalType":"address"},{"name":"_account","type":"address","internalType":"address"},{"name":"_token","type":"address","internalType":"address"},{"name":"_amount","type":"uint256","internalType":"uint256"},{"name":"_minUsdg","type":"uint256","internalType":"uint256"},{"name":"_minZlp","type":"uint256","internalType":"uint256"}],"outputs":[{"name":"","type":"uint256","internalType":"uint256"}],"stateMutability":"nonpayable"},{"type":"function","name":"aumAddition","inputs":[],"outputs":[{"name":"","type":"uint256","internalType":"uint256"}],"stateMutability":"view"},{"type":"function","name":"aumDeduction","inputs":[],"outputs":[{"name":"","type":"uint256","internalType":"uint256"}],"stateMutability":"view"},{"type":"function","name":"cancelGovProposal","inputs":[{"name":"_gov","type":"address","internalType":"address"}],"outputs":[],"stateMutability":"nonpayable"},{"type":"function","name":"cooldownDuration","inputs":[],"outputs":[{"name":"","type":"uint256","internalType":"uint256"}],"stateMutability":"view"},{"type":"function","name":"getAum","inputs":[{"name":"maximise","type":"bool","internalType":"bool"}],"outputs":[{"name":"","type":"uint256","internalType":"uint256"}],"stateMutability":"view"},{"type":"function","name":"getAumInUsdg","inputs":[{"name":"maximise","type":"bool","internalType":"bool"}],"outputs":[{"name":"","type":"uint256","internalType":"uint256"}],"stateMutability":"view"},{"type":"function","name":"getAums","inputs":[],"outputs":[{"name":"","type":"uint256[]","internalType":"uint256[]"}],"stateMutability":"view"},{"type":"function","name":"getGlobalShortAveragePrice","inputs":[{"name":"_token","type":"address","internalType":"address"}],"outputs":[{"name":"","type":"uint256","internalType":"uint256"}],"stateMutability":"view"},{"type":"function","name":"getGlobalShortDelta","inputs":[{"name":"_token","type":"address","internalType":"address"},{"name":"_price","type":"uint256","internalType":"uint256"},{"name":"_size","type":"uint256","internalType":"uint256"}],"outputs":[{"name":"","type":"uint256","internalType":"uint256"},{"name":"","type":"bool","internalType":"bool"}],"stateMutability":"view"},{"type":"function","name":"getPrice","inputs":[{"name":"_maximise","type":"bool","internalType":"bool"}],"outputs":[{"name":"","type":"uint256","internalType":"uint256"}],"stateMutability":"view"},{"type":"function","name":"gov","inputs":[],"outputs":[{"name":"","type":"address","internalType":"address"}],"stateMutability":"view"},{"type":"function","name":"govProposals","inputs":[{"name":"","type":"address","internalType":"address"}],"outputs":[{"name":"deadline","type":"uint256","internalType":"uint256"},{"name":"isActive","type":"bool","internalType":"bool"}],"stateMutability":"view"},{"type":"function","name":"inPrivateMode","inputs":[],"outputs":[{"name":"","type":"bool","internalType":"bool"}],"stateMutability":"view"},{"type":"function","name":"isHandler","inputs":[{"name":"","type":"address","internalType":"address"}],"outputs":[{"name":"","type":"bool","internalType":"bool"}],"stateMutability":"view"},{"type":"function","name":"lastAddedAt","inputs":[{"name":"","type":"address","internalType":"address"}],"outputs":[{"name":"","type":"uint256","internalType":"uint256"}],"stateMutability":"view"},{"type":"function","name":"removeLiquidity","inputs":[{"name":"_tokenOut","type":"address","internalType":"address"},{"name":"_zlpAmount","type":"uint256","internalType":"uint256"},{"name":"_minOut","type":"uint256","internalType":"uint256"},{"name":"_receiver","type":"address","internalType":"address"}],"outputs":[{"name":"","type":"uint256","internalType":"uint256"}],"stateMutability":"nonpayable"},{"type":"function","name":"removeLiquidityForAccount","inputs":[{"name":"_account","type":"address","internalType":"address"},{"name":"_tokenOut","type":"address","internalType":"address"},{"name":"_zlpAmount","type":"uint256","internalType":"uint256"},{"name":"_minOut","type":"uint256","internalType":"uint256"},{"name":"_receiver","type":"address","internalType":"address"}],"outputs":[{"name":"","type":"uint256","internalType":"uint256"}],"stateMutability":"nonpayable"},{"type":"function","name":"setAumAdjustment","inputs":[{"name":"_aumAddition","type":"uint256","internalType":"uint256"},{"name":"_aumDeduction","type":"uint256","internalType":"uint256"}],"outputs":[],"stateMutability":"nonpayable"},{"type":"function","name":"setCooldownDuration","inputs":[{"name":"_cooldownDuration","type":"uint256","internalType":"uint256"}],"outputs":[],"stateMutability":"nonpayable"},{"type":"function","name":"setGov","inputs":[{"name":"_gov","type":"address","internalType":"address"}],"outputs":[],"stateMutability":"nonpayable"},{"type":"function","name":"setGovWithDeadline","inputs":[{"name":"_gov","type":"address","internalType":"address"},{"name":"_deadline","type":"uint256","internalType":"uint256"}],"outputs":[],"stateMutability":"nonpayable"},{"type":"function","name":"setHandler","inputs":[{"name":"_handler","type":"address","internalType":"address"},{"name":"_isActive","type":"bool","internalType":"bool"}],"outputs":[],"stateMutability":"nonpayable"},{"type":"function","name":"setInPrivateMode","inputs":[{"name":"_inPrivateMode","type":"bool","internalType":"bool"}],"outputs":[],"stateMutability":"nonpayable"},{"type":"function","name":"setShortsTracker","inputs":[{"name":"_shortsTracker","type":"address","internalType":"contract IShortsTracker"}],"outputs":[],"stateMutability":"nonpayable"},{"type":"function","name":"setShortsTrackerAveragePriceWeight","inputs":[{"name":"_shortsTrackerAveragePriceWeight","type":"uint256","internalType":"uint256"}],"outputs":[],"stateMutability":"nonpayable"},{"type":"function","name":"shortsTracker","inputs":[],"outputs":[{"name":"","type":"address","internalType":"contract IShortsTracker"}],"stateMutability":"view"},{"type":"function","name":"shortsTrackerAveragePriceWeight","inputs":[],"outputs":[{"name":"","type":"uint256","internalType":"uint256"}],"stateMutability":"view"},{"type":"function","name":"usdg","inputs":[],"outputs":[{"name":"","type":"address","internalType":"address"}],"stateMutability":"view"},{"type":"function","name":"vault","inputs":[],"outputs":[{"name":"","type":"address","internalType":"contract IVault"}],"stateMutability":"view"},{"type":"function","name":"zlp","inputs":[],"outputs":[{"name":"","type":"address","internalType":"address"}],"stateMutability":"view"},{"type":"event","name":"AddLiquidity","inputs":[{"name":"account","type":"address","indexed":false,"internalType":"address"},{"name":"token","type":"address","indexed":false,"internalType":"address"},{"name":"amount","type":"uint256","indexed":false,"internalType":"uint256"},{"name":"aumInUsdg","type":"uint256","indexed":false,"internalType":"uint256"},{"name":"zlpSupply","type":"uint256","indexed":false,"internalType":"uint256"},{"name":"usdgAmount","type":"uint256","indexed":false,"internalType":"uint256"},{"name":"mintAmount","type":"uint256","indexed":false,"internalType":"uint256"}],"anonymous":false},{"type":"event","name":"GovernanceTransferRequested","inputs":[{"name":"newGov","type":"address","indexed":true,"internalType":"address"},{"name":"deadline","type":"uint256","indexed":false,"internalType":"uint256"}],"anonymous":false},{"type":"event","name":"GovernanceTransferred","inputs":[{"name":"oldGov","type":"address","indexed":true,"internalType":"address"},{"name":"newGov","type":"address","indexed":true,"internalType":"address"}],"anonymous":false},{"type":"event","name":"RemoveLiquidity","inputs":[{"name":"account","type":"address","indexed":false,"internalType":"address"},{"name":"token","type":"address","indexed":false,"internalType":"address"},{"name":"zlpAmount","type":"uint256","indexed":false,"internalType":"uint256"},{"name":"aumInUsdg","type":"uint256","indexed":false,"internalType":"uint256"},{"name":"zlpSupply","type":"uint256","indexed":false,"internalType":"uint256"},{"name":"usdgAmount","type":"uint256","indexed":false,"internalType":"uint256"},{"name":"amountOut","type":"uint256","indexed":false,"internalType":"uint256"}],"anonymous":false}],"bytecode":{"object":"0x60e060405234801561001057600080fd5b50604051612e7f380380612e7f833981810160405260a081101561003357600080fd5b5080516020820151604083015160608085015160809586015160018054336001600160a01b0319918216811782161790915586841b6001600160601b031990811690985285841b881660a0529284901b90961660c052600380549092166001600160a01b0391821617909155600494909455918316929081169116612d4f61013060003980611bb75280611d225280611f43528061213c528061239e5280612575525080611cda528061243952806124e4528061260452508061067e5280610742528061076f52806108255280610f7a528061102452806111205280611cfe5280611fd85280612028528061263352806126f25250612d4f6000f3fe608060405234801561001057600080fd5b50600436106101d25760003560e01c80637bc6729b116101005780637bc6729b14610419578063870d917c146104215780638b770e11146104295780638d0fedb01461044f5780638fed0b2c1461048e5780639116c4ae146104c857806395082d25146104eb578063966be075146104f35780639c35b497146105105780639cb7de4b14610536578063a1acd3d514610564578063b172bb0c14610596578063cfad57a21461059e578063d34ee093146105c4578063e245b5af146105ea578063ed0d1c0414610609578063f5b91b7b14610661578063fbfa77cf14610669578063fe9fe72014610671576101d2565b806303391476146101d7578063070eacee14610208578063088ec8c314610224578063126082cf1461022c57806312d43a511461023457806317eb2a1514610258578063196b68cb146102a05780631e9049cf146102a85780631ece366a146102b057806335269315146102e8578063440d828a146102f057806346ea87af146103165780634f5f6b5e1461033c57806364e6617f1461035b578063657bc5d01461036357806368a0a3e01461036b5780636a86da191461038a5780636bb22fd7146103a957806371d597ad146103d5575b600080fd5b6101f6600480360360208110156101ed57600080fd5b50351515610679565b60408051918252519081900360200190f35b610210610d84565b604080519115158252519081900360200190f35b6101f6610d8d565b6101f6610d99565b61023c610d9f565b604080516001600160a01b039092168252519081900360200190f35b6101f6600480360360c081101561026e57600080fd5b506001600160a01b03813581169160208101358216916040820135169060608101359060808101359060a00135610dae565b6101f6610e21565b6101f6610e27565b6101f6600480360360808110156102c657600080fd5b506001600160a01b038135169060208101359060408101359060600135610e2e565b6101f6610eef565b6101f66004803603602081101561030657600080fd5b50356001600160a01b0316610ef5565b6102106004803603602081101561032c57600080fd5b50356001600160a01b0316611264565b6103596004803603602081101561035257600080fd5b5035611279565b005b6101f661131f565b61023c611325565b6101f66004803603602081101561038157600080fd5b50351515611334565b610359600480360360208110156103a057600080fd5b5035151561136b565b610359600480360360408110156103bf57600080fd5b506001600160a01b0381351690602001356113cb565b6101f6600480360360a08110156103eb57600080fd5b506001600160a01b0381358116916020810135821691604082013591606081013591608090910135166114e0565b610359611551565b6101f6611666565b6101f66004803603602081101561043f57600080fd5b50356001600160a01b031661166b565b6104756004803603602081101561046557600080fd5b50356001600160a01b031661167d565b6040805192835290151560208301528051918290030190f35b6101f6600480360360808110156104a457600080fd5b506001600160a01b0381358116916020810135916040820135916060013516611699565b610359600480360360408110156104de57600080fd5b508035906020013561174b565b6101f66117a3565b6103596004803603602081101561050957600080fd5b50356117b3565b6103596004803603602081101561052657600080fd5b50356001600160a01b0316611847565b6103596004803603604081101561054c57600080fd5b506001600160a01b038135169060200135151561192b565b6104756004803603606081101561057a57600080fd5b506001600160a01b0381351690602081013590604001356119a3565b6101f6611a1a565b610359600480360360208110156105b457600080fd5b50356001600160a01b0316611a20565b610359600480360360208110156105da57600080fd5b50356001600160a01b0316611b36565b6101f66004803603602081101561060057600080fd5b50351515611ba5565b610611611c6a565b60408051602080825283518183015283519192839290830191858101910280838360005b8381101561064d578181015183820152602001610635565b505050509050019250505060405180910390f35b61023c611cd8565b61023c611cfc565b61023c611d20565b6000807f00000000000000000000000000000000000000000000000000000000000000006001600160a01b0316630842b0766040518163ffffffff1660e01b815260040160206040518083038186803b1580156106d557600080fd5b505afa1580156106e9573d6000803e3d6000fd5b505050506040513d60208110156106ff57600080fd5b50516006549091506001600160ff1b0381111561073e5780600754116107325760075461072d908290611d44565b610735565b60005b92505050610d7f565b60007f0000000000000000000000000000000000000000000000000000000000000000815b84811015610d3d5760007f00000000000000000000000000000000000000000000000000000000000000006001600160a01b031663e468baf0836040518263ffffffff1660e01b81526004018082815260200191505060206040518083038186803b1580156107d157600080fd5b505afa1580156107e5573d6000803e3d6000fd5b505050506040513d60208110156107fb57600080fd5b505160408051630daf9c2160e41b81526001600160a01b03808416600483015291519293506000927f00000000000000000000000000000000000000000000000000000000000000009092169163daf9c21091602480820192602092909190829003018186803b15801561086e57600080fd5b505afa158015610882573d6000803e3d6000fd5b505050506040513d602081101561089857600080fd5b50519050806108a8575050610d35565b60008961092d57846001600160a01b03166381a612d6846040518263ffffffff1660e01b815260040180826001600160a01b0316815260200191505060206040518083038186803b1580156108fc57600080fd5b505afa158015610910573d6000803e3d6000fd5b505050506040513d602081101561092657600080fd5b50516109a7565b846001600160a01b031663e124e6d2846040518263ffffffff1660e01b815260040180826001600160a01b0316815260200191505060206040518083038186803b15801561097a57600080fd5b505afa15801561098e573d6000803e3d6000fd5b505050506040513d60208110156109a457600080fd5b50515b90506000856001600160a01b03166352f55eed856040518263ffffffff1660e01b815260040180826001600160a01b0316815260200191505060206040518083038186803b1580156109f857600080fd5b505afa158015610a0c573d6000803e3d6000fd5b505050506040513d6020811015610a2257600080fd5b5051604080516323b95ceb60e21b81526001600160a01b038781166004830152915192935060009291891691638ee573ac91602480820192602092909190829003018186803b158015610a7457600080fd5b505afa158015610a88573d6000803e3d6000fd5b505050506040513d6020811015610a9e57600080fd5b5051604080516342b60b0360e01b81526001600160a01b0388811660048301529151929350908916916342b60b0391602480820192602092909190829003018186803b158015610aed57600080fd5b505afa158015610b01573d6000803e3d6000fd5b505050506040513d6020811015610b1757600080fd5b505115610b4757610b40610b39600a83900a610b338587611d8f565b90611de8565b8a90611e27565b9850610d2f565b6000876001600160a01b0316638a78daa8876040518263ffffffff1660e01b815260040180826001600160a01b0316815260200191505060206040518083038186803b158015610b9657600080fd5b505afa158015610baa573d6000803e3d6000fd5b505050506040513d6020811015610bc057600080fd5b505190508015610c0257600080610bd88887856119a3565b9150915080610bf257610beb8c83611e27565b9b50610bff565b610bfc8b83611e27565b9a505b50505b610c85886001600160a01b031663f07456ce886040518263ffffffff1660e01b815260040180826001600160a01b0316815260200191505060206040518083038186803b158015610c5257600080fd5b505afa158015610c66573d6000803e3d6000fd5b505050506040513d6020811015610c7c57600080fd5b50518b90611e27565b99506000886001600160a01b031663c3c7b9e9886040518263ffffffff1660e01b815260040180826001600160a01b0316815260200191505060206040518083038186803b158015610cd657600080fd5b505afa158015610cea573d6000803e3d6000fd5b505050506040513d6020811015610d0057600080fd5b50519050610d2a610d23600a85900a610b3388610d1d8987611d44565b90611d8f565b8c90611e27565b9a5050505b50505050505b600101610763565b50828211610d5457610d4f8383611d44565b610d57565b60005b92508260075411610d7557600754610d70908490611d44565b610d78565b60005b9450505050505b919050565b60085460ff1681565b670de0b6b3a764000081565b61271081565b6001546001600160a01b031681565b600060026000541415610df6576040805162461bcd60e51b815260206004820152601f6024820152600080516020612bd5833981519152604482015290519081900360640190fd5b6002600055610e03611e7f565b610e11878787878787611edd565b6001600055979650505050505050565b60065481565b6202a30081565b600060026000541415610e76576040805162461bcd60e51b815260206004820152601f6024820152600080516020612bd5833981519152604482015290519081900360640190fd5b600260005560085460ff1615610ed3576040805162461bcd60e51b815260206004820152601e60248201527f5a6c704d616e616765723a20616374696f6e206e6f7420656e61626c65640000604482015290519081900360640190fd5b610ee1333387878787611edd565b600160005595945050505050565b60045481565b6003546000906001600160a01b0316801580610f735750806001600160a01b0316639a11178f6040518163ffffffff1660e01b815260040160206040518083038186803b158015610f4557600080fd5b505afa158015610f59573d6000803e3d6000fd5b505050506040513d6020811015610f6f57600080fd5b5051155b1561101a577f00000000000000000000000000000000000000000000000000000000000000006001600160a01b03166362749803846040518263ffffffff1660e01b815260040180826001600160a01b0316815260200191505060206040518083038186803b158015610fe557600080fd5b505afa158015610ff9573d6000803e3d6000fd5b505050506040513d602081101561100f57600080fd5b50519150610d7f9050565b600954806110c5577f00000000000000000000000000000000000000000000000000000000000000006001600160a01b03166362749803856040518263ffffffff1660e01b815260040180826001600160a01b0316815260200191505060206040518083038186803b15801561108f57600080fd5b505afa1580156110a3573d6000803e3d6000fd5b505050506040513d60208110156110b957600080fd5b50519250610d7f915050565b61271081141561111c57816001600160a01b03166362749803856040518263ffffffff1660e01b815260040180826001600160a01b0316815260200191505060206040518083038186803b15801561108f57600080fd5b60007f00000000000000000000000000000000000000000000000000000000000000006001600160a01b03166362749803866040518263ffffffff1660e01b815260040180826001600160a01b0316815260200191505060206040518083038186803b15801561118b57600080fd5b505afa15801561119f573d6000803e3d6000fd5b505050506040513d60208110156111b557600080fd5b505160408051636274980360e01b81526001600160a01b038881166004830152915192935060009291861691636274980391602480820192602092909190829003018186803b15801561120757600080fd5b505afa15801561121b573d6000803e3d6000fd5b505050506040513d602081101561123157600080fd5b50519050610d78612710610b336112488487611d8f565b61125e61125761271089611d44565b8790611d8f565b90611e27565b600a6020526000908152604090205460ff1681565b6001546001600160a01b031633146112c6576040805162461bcd60e51b81526020600482015260156024820152600080516020612c21833981519152604482015290519081900360640190fd5b61271081111561131a576040805162461bcd60e51b815260206004820152601a602482015279169b1c13585b9859d95c8e881a5b9d985b1a59081dd95a59da1d60321b604482015290519081900360640190fd5b600955565b60095481565b6003546001600160a01b031681565b60008061134083610679565b905061136468327cb2734119d3b7a9601e1b610b3383670de0b6b3a7640000611d8f565b9392505050565b6001546001600160a01b031633146113b8576040805162461bcd60e51b81526020600482015260156024820152600080516020612c21833981519152604482015290519081900360640190fd5b6008805460ff1916911515919091179055565b6001546001600160a01b03163314611418576040805162461bcd60e51b81526020600482015260156024820152600080516020612c21833981519152604482015290519081900360640190fd5b6001600160a01b038216611471576040805162461bcd60e51b815260206004820152601b60248201527a476f7665726e61626c653a20696e76616c6964206164647265737360281b604482015290519081900360640190fd5b6001546001600160a01b03838116911614156114d2576040805162461bcd60e51b815260206004820152601b60248201527a476f7665726e61626c653a2073616d6520676f7665726e616e636560281b604482015290519081900360640190fd5b6114dc8282612255565b5050565b600060026000541415611528576040805162461bcd60e51b815260206004820152601f6024820152600080516020612bd5833981519152604482015290519081900360640190fd5b6002600055611535611e7f565b61154286868686866122d1565b60016000559695505050505050565b336000908152600260205260409020805442106115b4576040805162461bcd60e51b815260206004820152601c60248201527b11dbdd995c9b98589b194e88191958591b1a5b9948195e1c1a5c995960221b604482015290519081900360640190fd5b60018082015460ff161515146115fb5760405162461bcd60e51b8152600401808060200182810382526022815260200180612c646022913960400191505060405180910390fd5b60018054336000818152600260205260408082208281558501805460ff1916905584546001600160a01b031916831790945592516001600160a01b0390921692909183917f5f56bee8cffbe9a78652a74a60705edede02af10b0bbb888ca44b79a0d42ce8091a35050565b601281565b60056020526000908152604090205481565b6002602052600090815260409020805460019091015460ff1682565b6000600260005414156116e1576040805162461bcd60e51b815260206004820152601f6024820152600080516020612bd5833981519152604482015290519081900360640190fd5b600260005560085460ff161561173e576040805162461bcd60e51b815260206004820152601e60248201527f5a6c704d616e616765723a20616374696f6e206e6f7420656e61626c65640000604482015290519081900360640190fd5b610ee133868686866122d1565b6001546001600160a01b03163314611798576040805162461bcd60e51b81526020600482015260156024820152600080516020612c21833981519152604482015290519081900360640190fd5b600691909155600755565b68327cb2734119d3b7a9601e1b81565b6001546001600160a01b03163314611800576040805162461bcd60e51b81526020600482015260156024820152600080516020612c21833981519152604482015290519081900360640190fd5b6202a3008111156118425760405162461bcd60e51b8152600401808060200182810382526025815260200180612ccb6025913960400191505060405180910390fd5b600455565b6001546001600160a01b03163314611894576040805162461bcd60e51b81526020600482015260156024820152600080516020612c21833981519152604482015290519081900360640190fd5b6001600160a01b03811660009081526002602052604090206001015460ff16611904576040805162461bcd60e51b815260206004820152601f60248201527f476f7665726e61626c653a2070726f706f73616c206e6f742061637469766500604482015290519081900360640190fd5b6001600160a01b03166000908152600260205260408120908155600101805460ff19169055565b6001546001600160a01b03163314611978576040805162461bcd60e51b81526020600482015260156024820152600080516020612c21833981519152604482015290519081900360640190fd5b6001600160a01b03919091166000908152600a60205260409020805460ff1916911515919091179055565b600080826119b657506000905080611a12565b60006119c186610ef5565b9050806119d5576000809250925050611a12565b60008582116119ed576119e88683611d44565b6119f7565b6119f78287611d44565b90506000611a0983610b338885611d8f565b94505050841090505b935093915050565b60075481565b6001546001600160a01b03163314611a6d576040805162461bcd60e51b81526020600482015260156024820152600080516020612c21833981519152604482015290519081900360640190fd5b6001600160a01b038116611ac6576040805162461bcd60e51b815260206004820152601b60248201527a476f7665726e61626c653a20696e76616c6964206164647265737360281b604482015290519081900360640190fd5b6001546001600160a01b0382811691161415611b27576040805162461bcd60e51b815260206004820152601b60248201527a476f7665726e61626c653a2073616d6520676f7665726e616e636560281b604482015290519081900360640190fd5b611b3381600019612255565b50565b6001546001600160a01b03163314611b83576040805162461bcd60e51b81526020600482015260156024820152600080516020612c21833981519152604482015290519081900360640190fd5b600380546001600160a01b0319166001600160a01b0392909216919091179055565b600080611bb183610679565b905060007f00000000000000000000000000000000000000000000000000000000000000006001600160a01b03166318160ddd6040518163ffffffff1660e01b815260040160206040518083038186803b158015611c0e57600080fd5b505afa158015611c22573d6000803e3d6000fd5b505050506040513d6020811015611c3857600080fd5b5051905080611c4c57600092505050610d7f565b611c6281610b3384670de0b6b3a7640000611d8f565b949350505050565b604080516002808252606080830184529283929190602083019080368337019050509050611c986001610679565b81600081518110611ca557fe5b602002602001018181525050611cbb6000610679565b81600181518110611cc857fe5b6020908102919091010152905090565b7f000000000000000000000000000000000000000000000000000000000000000081565b7f000000000000000000000000000000000000000000000000000000000000000081565b7f000000000000000000000000000000000000000000000000000000000000000081565b6000611d8683836040518060400160405280601e81526020017f536166654d6174683a207375627472616374696f6e206f766572666c6f770000815250612830565b90505b92915050565b600082611d9e57506000611d89565b82820282848281611dab57fe5b0414611d865760405162461bcd60e51b8152600401808060200182810382526021815260200180612c866021913960400191505060405180910390fd5b6000611d8683836040518060400160405280601a815260200179536166654d6174683a206469766973696f6e206279207a65726f60301b8152506128c7565b600082820183811015611d86576040805162461bcd60e51b815260206004820152601b60248201527a536166654d6174683a206164646974696f6e206f766572666c6f7760281b604482015290519081900360640190fd5b336000908152600a602052604090205460ff16611edb576040805162461bcd60e51b81526020600482015260156024820152742d363826b0b730b3b2b91d103337b93134b23232b760591b604482015290519081900360640190fd5b565b6000808411611f31576040805162461bcd60e51b815260206004820152601b60248201527a169b1c13585b9859d95c8e881a5b9d985b1a590817d85b5bdd5b9d602a1b604482015290519081900360640190fd5b6000611f3d6001611334565b905060007f00000000000000000000000000000000000000000000000000000000000000006001600160a01b03166318160ddd6040518163ffffffff1660e01b815260040160206040518083038186803b158015611f9a57600080fd5b505afa158015611fae573d6000803e3d6000fd5b505050506040513d6020811015611fc457600080fd5b50519050611ffd6001600160a01b0388168a7f00000000000000000000000000000000000000000000000000000000000000008961292c565b6040805163817bb85760e01b81526001600160a01b03898116600483015230602483015291516000927f0000000000000000000000000000000000000000000000000000000000000000169163817bb85791604480830192602092919082900301818787803b15801561206f57600080fd5b505af1158015612083573d6000803e3d6000fd5b505050506040513d602081101561209957600080fd5b50519050858110156120dc5760405162461bcd60e51b8152600401808060200182810382526024815260200180612ca76024913960400191505060405180910390fd5b600083156120f7576120f284610b338486611d8f565b6120f9565b815b90508581101561213a5760405162461bcd60e51b8152600401808060200182810382526023815260200180612c416023913960400191505060405180910390fd5b7f00000000000000000000000000000000000000000000000000000000000000006001600160a01b03166340c10f198b836040518363ffffffff1660e01b815260040180836001600160a01b0316815260200182815260200192505050600060405180830381600087803b1580156121b157600080fd5b505af11580156121c5573d6000803e3d6000fd5b5050506001600160a01b03808c166000818152600560209081526040918290204290558151928352928d16928201929092528082018b9052606081018790526080810186905260a0810185905260c0810184905290517f38dc38b96482be64113daffd8d464ebda93e856b70ccfc605e69ccf892ab981e92509081900360e00190a19a9950505050505050505050565b604080518082018252828152600160208083018281526001600160a01b03871660008181526002845286902094518555905193909201805460ff1916931515939093179092558251848152925190927f02dd0697be46e764c3ba81094158781c31b235d03bb27a0daf1bdef0ec1084dd92908290030190a25050565b6000808411612327576040805162461bcd60e51b815260206004820152601e60248201527f5a6c704d616e616765723a20696e76616c6964205f7a6c70416d6f756e740000604482015290519081900360640190fd5b6004546001600160a01b038716600090815260056020526040902054429161234f9190611e27565b111561238c5760405162461bcd60e51b815260040180806020018281038252602c815260200180612bf5602c913960400191505060405180910390fd5b60006123986000611334565b905060007f00000000000000000000000000000000000000000000000000000000000000006001600160a01b03166318160ddd6040518163ffffffff1660e01b815260040160206040518083038186803b1580156123f557600080fd5b505afa158015612409573d6000803e3d6000fd5b505050506040513d602081101561241f57600080fd5b50519050600061243382610b338986611d8f565b905060007f00000000000000000000000000000000000000000000000000000000000000006001600160a01b03166370a08231306040518263ffffffff1660e01b815260040180826001600160a01b0316815260200191505060206040518083038186803b1580156124a457600080fd5b505afa1580156124b8573d6000803e3d6000fd5b505050506040513d60208110156124ce57600080fd5b5051905080821115612573576001600160a01b037f0000000000000000000000000000000000000000000000000000000000000000166340c10f19306125148585611d44565b6040518363ffffffff1660e01b815260040180836001600160a01b0316815260200182815260200192505050600060405180830381600087803b15801561255a57600080fd5b505af115801561256e573d6000803e3d6000fd5b505050505b7f00000000000000000000000000000000000000000000000000000000000000006001600160a01b0316639dc29fac8b8a6040518363ffffffff1660e01b815260040180836001600160a01b0316815260200182815260200192505050600060405180830381600087803b1580156125ea57600080fd5b505af11580156125fe573d6000803e3d6000fd5b505050507f00000000000000000000000000000000000000000000000000000000000000006001600160a01b031663a9059cbb7f0000000000000000000000000000000000000000000000000000000000000000846040518363ffffffff1660e01b815260040180836001600160a01b0316815260200182815260200192505050602060405180830381600087803b15801561269957600080fd5b505af11580156126ad573d6000803e3d6000fd5b505050506040513d60208110156126c357600080fd5b505060408051630711e61960e41b81526001600160a01b038b81166004830152888116602483015291516000927f0000000000000000000000000000000000000000000000000000000000000000169163711e619091604480830192602092919082900301818787803b15801561273957600080fd5b505af115801561274d573d6000803e3d6000fd5b505050506040513d602081101561276357600080fd5b50519050878110156127bc576040805162461bcd60e51b815260206004820152601f60248201527f5a6c704d616e616765723a20696e73756666696369656e74206f757470757400604482015290519081900360640190fd5b604080516001600160a01b03808e1682528c1660208201528082018b9052606081018790526080810186905260a0810185905260c0810183905290517f87b9679bb9a4944bafa98c267e7cd4a00ab29fed48afdefae25f0fca5da279409181900360e00190a19a9950505050505050505050565b600081848411156128bf5760405162461bcd60e51b81526004018080602001828103825283818151815260200191508051906020019080838360005b8381101561288457818101518382015260200161286c565b50505050905090810190601f1680156128b15780820380516001836020036101000a031916815260200191505b509250505060405180910390fd5b505050900390565b600081836129165760405162461bcd60e51b815260206004820181815283516024840152835190928392604490910191908501908083836000831561288457818101518382015260200161286c565b50600083858161292257fe5b0495945050505050565b604080516001600160a01b0380861660248301528416604482015260648082018490528251808303909101815260849091019091526020810180516001600160e01b03166323b872dd60e01b17905261298690859061298c565b50505050565b60606129e1826040518060400160405280602081526020017f5361666545524332303a206c6f772d6c6576656c2063616c6c206661696c6564815250856001600160a01b0316612a429092919063ffffffff16565b805190915015612a3d57808060200190516020811015612a0057600080fd5b5051612a3d5760405162461bcd60e51b815260040180806020018281038252602a815260200180612cf0602a913960400191505060405180910390fd5b505050565b6060611c62848460008585612a5685612b68565b612aa7576040805162461bcd60e51b815260206004820152601d60248201527f416464726573733a2063616c6c20746f206e6f6e2d636f6e7472616374000000604482015290519081900360640190fd5b60006060866001600160a01b031685876040518082805190602001908083835b60208310612ae65780518252601f199092019160209182019101612ac7565b6001836020036101000a03801982511681845116808217855250505050505090500191505060006040518083038185875af1925050503d8060008114612b48576040519150601f19603f3d011682016040523d82523d6000602084013e612b4d565b606091505b5091509150612b5d828286612b6e565b979650505050505050565b3b151590565b60608315612b7d575081611364565b825115612b8d5782518084602001fd5b60405162461bcd60e51b815260206004820181815284516024840152845185939192839260440191908501908083836000831561288457818101518382015260200161286c56fe5265656e7472616e637947756172643a207265656e7472616e742063616c6c005a6c704d616e616765723a20636f6f6c646f776e206475726174696f6e206e6f742079657420706173736564476f7665726e61626c653a20666f7262696464656e00000000000000000000005a6c704d616e616765723a20696e73756666696369656e74205a4c50206f7574707574476f7665726e61626c653a2070726f706f73616c206973206e6f7420616374697665536166654d6174683a206d756c7469706c69636174696f6e206f766572666c6f775a6c704d616e616765723a20696e73756666696369656e742055534447206f75747075745a6c704d616e616765723a20696e76616c6964205f636f6f6c646f776e4475726174696f6e5361666545524332303a204552433230206f7065726174696f6e20646964206e6f742073756363656564a2646970667358221220677641e3f401674d050870689e6c45cf77ee1a7e84f864d3e7d6ab058de06ee264736f6c634300060c0033","linkReferences":{}},"methodIdentifiers":{"BASIS_POINTS_DIVISOR()":"126082cf","MAX_COOLDOWN_DURATION()":"1e9049cf","PRICE_PRECISION()":"95082d25","USDG_DECIMALS()":"870d917c","ZLP_PRECISION()":"088ec8c3","acceptGov()":"7bc6729b","addLiquidity(address,uint256,uint256,uint256)":"1ece366a","addLiquidityForAccount(address,address,address,uint256,uint256,uint256)":"17eb2a15","aumAddition()":"196b68cb","aumDeduction()":"b172bb0c","cancelGovProposal(address)":"9c35b497","cooldownDuration()":"35269315","getAum(bool)":"03391476","getAumInUsdg(bool)":"68a0a3e0","getAums()":"ed0d1c04","getGlobalShortAveragePrice(address)":"440d828a","getGlobalShortDelta(address,uint256,uint256)":"a1acd3d5","getPrice(bool)":"e245b5af","gov()":"12d43a51","govProposals(address)":"8d0fedb0","inPrivateMode()":"070eacee","isHandler(address)":"46ea87af","lastAddedAt(address)":"8b770e11","removeLiquidity(address,uint256,uint256,address)":"8fed0b2c","removeLiquidityForAccount(address,address,uint256,uint256,address)":"71d597ad","setAumAdjustment(uint256,uint256)":"9116c4ae","setCooldownDuration(uint256)":"966be075","setGov(address)":"cfad57a2","setGovWithDeadline(address,uint256)":"6bb22fd7","setHandler(address,bool)":"9cb7de4b","setInPrivateMode(bool)":"6a86da19","setShortsTracker(address)":"d34ee093","setShortsTrackerAveragePriceWeight(uint256)":"4f5f6b5e","shortsTracker()":"657bc5d0","shortsTrackerAveragePriceWeight()":"64e6617f","usdg()":"f5b91b7b","vault()":"fbfa77cf","zlp()":"fe9fe720"},"id":45}