{"abi":[{"type":"constructor","inputs":[{"name":"_vault","type":"address","internalType":"address"},{"name":"_usdg","type":"address","internalType":"address"},{"name":"_zlp","type":"address","internalType":"address"},{"name":"_shortsTracker","type":"address","internalType":"address"}],"stateMutability":"nonpayable"},{"type":"function","name":"BASIS_POINTS_DIVISOR","inputs":[],"outputs":[{"name":"","type":"uint256","internalType":"uint256"}],"stateMutability":"view"},{"type":"function","name":"MAX_COOLDOWN_DURATION","inputs":[],"outputs":[{"name":"","type":"uint256","internalType":"uint256"}],"stateMutability":"view"},{"type":"function","name":"PRICE_PRECISION","inputs":[],"outputs":[{"name":"","type":"uint256","internalType":"uint256"}],"stateMutability":"view"},{"type":"function","name":"USDG_DECIMALS","inputs":[],"outputs":[{"name":"","type":"uint256","internalType":"uint256"}],"stateMutability":"view"},{"type":"function","name":"ZLP_PRECISION","inputs":[],"outputs":[{"name":"","type":"uint256","internalType":"uint256"}],"stateMutability":"view"},{"type":"function","name":"acceptGov","inputs":[],"outputs":[],"stateMutability":"nonpayable"},{"type":"function","name":"addLiquidity","inputs":[{"name":"_token","type":"address","internalType":"address"},{"name":"_amount","type":"uint256","internalType":"uint256"},{"name":"_minUsdg","type":"uint256","internalType":"uint256"},{"name":"_minZlp","type":"uint256","internalType":"uint256"}],"outputs":[{"name":"","type":"uint256","internalType":"uint256"}],"stateMutability":"nonpayable"},{"type":"function","name":"addLiquidityForAccount","inputs":[{"name":"_fundingAccount","type":"address","internalType":"address"},{"name":"_account","type":"address","internalType":"address"},{"name":"_token","type":"address","internalType":"address"},{"name":"_amount","type":"uint256","internalType":"uint256"},{"name":"_minUsdg","type":"uint256","internalType":"uint256"},{"name":"_minZlp","type":"uint256","internalType":"uint256"}],"outputs":[{"name":"","type":"uint256","internalType":"uint256"}],"stateMutability":"nonpayable"},{"type":"function","name":"aumAddition","inputs":[],"outputs":[{"name":"","type":"uint256","internalType":"uint256"}],"stateMutability":"view"},{"type":"function","name":"aumDeduction","inputs":[],"outputs":[{"name":"","type":"uint256","internalType":"uint256"}],"stateMutability":"view"},{"type":"function","name":"cancelGovProposal","inputs":[{"name":"_gov","type":"address","internalType":"address"}],"outputs":[],"stateMutability":"nonpayable"},{"type":"function","name":"getAum","inputs":[{"name":"maximise","type":"bool","internalType":"bool"}],"outputs":[{"name":"","type":"uint256","internalType":"uint256"}],"stateMutability":"view"},{"type":"function","name":"getAumInUsdg","inputs":[{"name":"maximise","type":"bool","internalType":"bool"}],"outputs":[{"name":"","type":"uint256","internalType":"uint256"}],"stateMutability":"view"},{"type":"function","name":"getAums","inputs":[],"outputs":[{"name":"","type":"uint256[]","internalType":"uint256[]"}],"stateMutability":"view"},{"type":"function","name":"getGlobalShortAveragePrice","inputs":[{"name":"_token","type":"address","internalType":"address"}],"outputs":[{"name":"","type":"uint256","internalType":"uint256"}],"stateMutability":"view"},{"type":"function","name":"getGlobalShortDelta","inputs":[{"name":"_token","type":"address","internalType":"address"},{"name":"_price","type":"uint256","internalType":"uint256"},{"name":"_size","type":"uint256","internalType":"uint256"}],"outputs":[{"name":"","type":"uint256","internalType":"uint256"},{"name":"","type":"bool","internalType":"bool"}],"stateMutability":"view"},{"type":"function","name":"getPrice","inputs":[{"name":"_maximise","type":"bool","internalType":"bool"}],"outputs":[{"name":"","type":"uint256","internalType":"uint256"}],"stateMutability":"view"},{"type":"function","name":"gov","inputs":[],"outputs":[{"name":"","type":"address","internalType":"address"}],"stateMutability":"view"},{"type":"function","name":"govProposals","inputs":[{"name":"","type":"address","internalType":"address"}],"outputs":[{"name":"deadline","type":"uint256","internalType":"uint256"},{"name":"isActive","type":"bool","internalType":"bool"}],"stateMutability":"view"},{"type":"function","name":"inPrivateMode","inputs":[],"outputs":[{"name":"","type":"bool","internalType":"bool"}],"stateMutability":"view"},{"type":"function","name":"isHandler","inputs":[{"name":"","type":"address","internalType":"address"}],"outputs":[{"name":"","type":"bool","internalType":"bool"}],"stateMutability":"view"},{"type":"function","name":"removeLiquidity","inputs":[{"name":"_tokenOut","type":"address","internalType":"address"},{"name":"_zlpAmount","type":"uint256","internalType":"uint256"},{"name":"_minOut","type":"uint256","internalType":"uint256"},{"name":"_receiver","type":"address","internalType":"address"}],"outputs":[{"name":"","type":"uint256","internalType":"uint256"}],"stateMutability":"nonpayable"},{"type":"function","name":"removeLiquidityForAccount","inputs":[{"name":"_account","type":"address","internalType":"address"},{"name":"_tokenOut","type":"address","internalType":"address"},{"name":"_zlpAmount","type":"uint256","internalType":"uint256"},{"name":"_minOut","type":"uint256","internalType":"uint256"},{"name":"_receiver","type":"address","internalType":"address"}],"outputs":[{"name":"","type":"uint256","internalType":"uint256"}],"stateMutability":"nonpayable"},{"type":"function","name":"setAumAdjustment","inputs":[{"name":"_aumAddition","type":"uint256","internalType":"uint256"},{"name":"_aumDeduction","type":"uint256","internalType":"uint256"}],"outputs":[],"stateMutability":"nonpayable"},{"type":"function","name":"setGov","inputs":[{"name":"_gov","type":"address","internalType":"address"}],"outputs":[],"stateMutability":"nonpayable"},{"type":"function","name":"setGovWithDeadline","inputs":[{"name":"_gov","type":"address","internalType":"address"},{"name":"_deadline","type":"uint256","internalType":"uint256"}],"outputs":[],"stateMutability":"nonpayable"},{"type":"function","name":"setHandler","inputs":[{"name":"_handler","type":"address","internalType":"address"},{"name":"_isActive","type":"bool","internalType":"bool"}],"outputs":[],"stateMutability":"nonpayable"},{"type":"function","name":"setInPrivateMode","inputs":[{"name":"_inPrivateMode","type":"bool","internalType":"bool"}],"outputs":[],"stateMutability":"nonpayable"},{"type":"function","name":"setShortsTracker","inputs":[{"name":"_shortsTracker","type":"address","internalType":"contract IShortsTracker"}],"outputs":[],"stateMutability":"nonpayable"},{"type":"function","name":"setShortsTrackerAveragePriceWeight","inputs":[{"name":"_shortsTrackerAveragePriceWeight","type":"uint256","internalType":"uint256"}],"outputs":[],"stateMutability":"nonpayable"},{"type":"function","name":"shortsTracker","inputs":[],"outputs":[{"name":"","type":"address","internalType":"contract IShortsTracker"}],"stateMutability":"view"},{"type":"function","name":"shortsTrackerAveragePriceWeight","inputs":[],"outputs":[{"name":"","type":"uint256","internalType":"uint256"}],"stateMutability":"view"},{"type":"function","name":"usdg","inputs":[],"outputs":[{"name":"","type":"address","internalType":"address"}],"stateMutability":"view"},{"type":"function","name":"vault","inputs":[],"outputs":[{"name":"","type":"address","internalType":"contract IVault"}],"stateMutability":"view"},{"type":"function","name":"zlp","inputs":[],"outputs":[{"name":"","type":"address","internalType":"address"}],"stateMutability":"view"},{"type":"event","name":"AddLiquidity","inputs":[{"name":"account","type":"address","indexed":false,"internalType":"address"},{"name":"token","type":"address","indexed":false,"internalType":"address"},{"name":"amount","type":"uint256","indexed":false,"internalType":"uint256"},{"name":"aumInUsdg","type":"uint256","indexed":false,"internalType":"uint256"},{"name":"zlpSupply","type":"uint256","indexed":false,"internalType":"uint256"},{"name":"usdgAmount","type":"uint256","indexed":false,"internalType":"uint256"},{"name":"mintAmount","type":"uint256","indexed":false,"internalType":"uint256"}],"anonymous":false},{"type":"event","name":"AumAdjustmentSet","inputs":[{"name":"aumAddition","type":"uint256","indexed":false,"internalType":"uint256"},{"name":"aumDeduction","type":"uint256","indexed":false,"internalType":"uint256"}],"anonymous":false},{"type":"event","name":"CooldownDurationSet","inputs":[{"name":"cooldownDuration","type":"uint256","indexed":false,"internalType":"uint256"}],"anonymous":false},{"type":"event","name":"GovProposalCanceled","inputs":[{"name":"proposedGov","type":"address","indexed":true,"internalType":"address"},{"name":"canceledBy","type":"address","indexed":true,"internalType":"address"}],"anonymous":false},{"type":"event","name":"GovernanceTransferRequested","inputs":[{"name":"newGov","type":"address","indexed":true,"internalType":"address"},{"name":"deadline","type":"uint256","indexed":false,"internalType":"uint256"}],"anonymous":false},{"type":"event","name":"GovernanceTransferred","inputs":[{"name":"oldGov","type":"address","indexed":true,"internalType":"address"},{"name":"newGov","type":"address","indexed":true,"internalType":"address"}],"anonymous":false},{"type":"event","name":"HandlerSet","inputs":[{"name":"handler","type":"address","indexed":true,"internalType":"address"},{"name":"isActive","type":"bool","indexed":false,"internalType":"bool"}],"anonymous":false},{"type":"event","name":"InPrivateModeSet","inputs":[{"name":"inPrivateMode","type":"bool","indexed":false,"internalType":"bool"}],"anonymous":false},{"type":"event","name":"RemoveLiquidity","inputs":[{"name":"account","type":"address","indexed":false,"internalType":"address"},{"name":"token","type":"address","indexed":false,"internalType":"address"},{"name":"zlpAmount","type":"uint256","indexed":false,"internalType":"uint256"},{"name":"aumInUsdg","type":"uint256","indexed":false,"internalType":"uint256"},{"name":"zlpSupply","type":"uint256","indexed":false,"internalType":"uint256"},{"name":"usdgAmount","type":"uint256","indexed":false,"internalType":"uint256"},{"name":"amountOut","type":"uint256","indexed":false,"internalType":"uint256"}],"anonymous":false},{"type":"event","name":"ShortsTrackerAveragePriceWeightSet","inputs":[{"name":"weight","type":"uint256","indexed":false,"internalType":"uint256"}],"anonymous":false},{"type":"event","name":"ShortsTrackerSet","inputs":[{"name":"shortsTracker","type":"address","indexed":false,"internalType":"address"}],"anonymous":false}],"bytecode":{"object":"0x60e060405234801561001057600080fd5b50604051612edd380380612edd8339818101604052608081101561003357600080fd5b5080516020820151604083015160609384015160018054336001600160a01b0319918216811782161790915584861b6001600160601b031990811660805284871b811660a0529583901b90951660c052600380549095166001600160a01b0391821617909455918316929081169116612db461012960003980611bd85280611d435280611f64528061215d5280612334528061241a52806125f1525080611cfb52806124b55280612560528061268052508061061252806106d6528061070352806107b95280610f085280610fb252806110ae5280611d1f5280611ff9528061204952806126af528061276e5250612db46000f3fe608060405234801561001057600080fd5b50600436106101b15760003560e01c806371d597ad116100f557806371d597ad146103ac5780637bc6729b146103f0578063870d917c146103f85780638d0fedb0146104005780638fed0b2c1461043f5780639116c4ae1461047957806395082d251461049c5780639c35b497146104a45780639cb7de4b146104ca578063a1acd3d5146104f8578063b172bb0c1461052a578063cfad57a214610532578063d34ee09314610558578063e245b5af1461057e578063ed0d1c041461059d578063f5b91b7b146105f5578063fbfa77cf146105fd578063fe9fe72014610605576101b1565b806303391476146101b6578063070eacee146101e7578063088ec8c314610203578063126082cf1461020b57806312d43a511461021357806317eb2a1514610237578063196b68cb1461027f5780631e9049cf146102875780631ece366a1461028f578063440d828a146102c757806346ea87af146102ed5780634f5f6b5e1461031357806364e6617f14610332578063657bc5d01461033a57806368a0a3e0146103425780636a86da19146103615780636bb22fd714610380575b600080fd5b6101d5600480360360208110156101cc57600080fd5b5035151561060d565b60408051918252519081900360200190f35b6101ef610d18565b604080519115158252519081900360200190f35b6101d5610d21565b6101d5610d2d565b61021b610d33565b604080516001600160a01b039092168252519081900360200190f35b6101d5600480360360c081101561024d57600080fd5b506001600160a01b03813581169160208101358216916040820135169060608101359060808101359060a00135610d42565b6101d5610db5565b6101d5610dbb565b6101d5600480360360808110156102a557600080fd5b506001600160a01b038135169060208101359060408101359060600135610dc2565b6101d5600480360360208110156102dd57600080fd5b50356001600160a01b0316610e83565b6101ef6004803603602081101561030357600080fd5b50356001600160a01b03166111f2565b6103306004803603602081101561032957600080fd5b5035611207565b005b6101d56112e3565b61021b6112e9565b6101d56004803603602081101561035857600080fd5b503515156112f8565b6103306004803603602081101561037757600080fd5b5035151561132f565b6103306004803603604081101561039657600080fd5b506001600160a01b0381351690602001356113c3565b6101d5600480360360a08110156103c257600080fd5b506001600160a01b0381358116916020810135821691604082013591606081013591608090910135166114d8565b610330611549565b6101d561165e565b6104266004803603602081101561041657600080fd5b50356001600160a01b0316611663565b6040805192835290151560208301528051918290030190f35b6101d56004803603608081101561045557600080fd5b506001600160a01b038135811691602081013591604082013591606001351661167f565b6103306004803603604081101561048f57600080fd5b5080359060200135611731565b6101d56117c7565b610330600480360360208110156104ba57600080fd5b50356001600160a01b03166117d7565b610330600480360360408110156104e057600080fd5b506001600160a01b03813516906020013515156118e5565b6104266004803603606081101561050e57600080fd5b506001600160a01b038135169060208101359060400135611992565b6101d5611a09565b6103306004803603602081101561054857600080fd5b50356001600160a01b0316611a0f565b6103306004803603602081101561056e57600080fd5b50356001600160a01b0316611b25565b6101d56004803603602081101561059457600080fd5b50351515611bc6565b6105a5611c8b565b60408051602080825283518183015283519192839290830191858101910280838360005b838110156105e15781810151838201526020016105c9565b505050509050019250505060405180910390f35b61021b611cf9565b61021b611d1d565b61021b611d41565b6000807f00000000000000000000000000000000000000000000000000000000000000006001600160a01b0316630842b0766040518163ffffffff1660e01b815260040160206040518083038186803b15801561066957600080fd5b505afa15801561067d573d6000803e3d6000fd5b505050506040513d602081101561069357600080fd5b50516004549091506001600160ff1b038111156106d25780600554116106c6576005546106c1908290611d65565b6106c9565b60005b92505050610d13565b60007f0000000000000000000000000000000000000000000000000000000000000000815b84811015610cd15760007f00000000000000000000000000000000000000000000000000000000000000006001600160a01b031663e468baf0836040518263ffffffff1660e01b81526004018082815260200191505060206040518083038186803b15801561076557600080fd5b505afa158015610779573d6000803e3d6000fd5b505050506040513d602081101561078f57600080fd5b505160408051630daf9c2160e41b81526001600160a01b03808416600483015291519293506000927f00000000000000000000000000000000000000000000000000000000000000009092169163daf9c21091602480820192602092909190829003018186803b15801561080257600080fd5b505afa158015610816573d6000803e3d6000fd5b505050506040513d602081101561082c57600080fd5b505190508061083c575050610cc9565b6000896108c157846001600160a01b03166381a612d6846040518263ffffffff1660e01b815260040180826001600160a01b0316815260200191505060206040518083038186803b15801561089057600080fd5b505afa1580156108a4573d6000803e3d6000fd5b505050506040513d60208110156108ba57600080fd5b505161093b565b846001600160a01b031663e124e6d2846040518263ffffffff1660e01b815260040180826001600160a01b0316815260200191505060206040518083038186803b15801561090e57600080fd5b505afa158015610922573d6000803e3d6000fd5b505050506040513d602081101561093857600080fd5b50515b90506000856001600160a01b03166352f55eed856040518263ffffffff1660e01b815260040180826001600160a01b0316815260200191505060206040518083038186803b15801561098c57600080fd5b505afa1580156109a0573d6000803e3d6000fd5b505050506040513d60208110156109b657600080fd5b5051604080516323b95ceb60e21b81526001600160a01b038781166004830152915192935060009291891691638ee573ac91602480820192602092909190829003018186803b158015610a0857600080fd5b505afa158015610a1c573d6000803e3d6000fd5b505050506040513d6020811015610a3257600080fd5b5051604080516342b60b0360e01b81526001600160a01b0388811660048301529151929350908916916342b60b0391602480820192602092909190829003018186803b158015610a8157600080fd5b505afa158015610a95573d6000803e3d6000fd5b505050506040513d6020811015610aab57600080fd5b505115610adb57610ad4610acd600a83900a610ac78587611db0565b90611e09565b8a90611e48565b9850610cc3565b6000876001600160a01b0316638a78daa8876040518263ffffffff1660e01b815260040180826001600160a01b0316815260200191505060206040518083038186803b158015610b2a57600080fd5b505afa158015610b3e573d6000803e3d6000fd5b505050506040513d6020811015610b5457600080fd5b505190508015610b9657600080610b6c888785611992565b9150915080610b8657610b7f8c83611e48565b9b50610b93565b610b908b83611e48565b9a505b50505b610c19886001600160a01b031663f07456ce886040518263ffffffff1660e01b815260040180826001600160a01b0316815260200191505060206040518083038186803b158015610be657600080fd5b505afa158015610bfa573d6000803e3d6000fd5b505050506040513d6020811015610c1057600080fd5b50518b90611e48565b99506000886001600160a01b031663c3c7b9e9886040518263ffffffff1660e01b815260040180826001600160a01b0316815260200191505060206040518083038186803b158015610c6a57600080fd5b505afa158015610c7e573d6000803e3d6000fd5b505050506040513d6020811015610c9457600080fd5b50519050610cbe610cb7600a85900a610ac788610cb18987611d65565b90611db0565b8c90611e48565b9a5050505b50505050505b6001016106f7565b50828211610ce857610ce38383611d65565b610ceb565b60005b92508260055411610d0957600554610d04908490611d65565b610d0c565b60005b9450505050505b919050565b60065460ff1681565b670de0b6b3a764000081565b61271081565b6001546001600160a01b031681565b600060026000541415610d8a576040805162461bcd60e51b815260206004820152601f6024820152600080516020612c51833981519152604482015290519081900360640190fd5b6002600055610d97611ea0565b610da5878787878787611efe565b6001600055979650505050505050565b60045481565b6202a30081565b600060026000541415610e0a576040805162461bcd60e51b815260206004820152601f6024820152600080516020612c51833981519152604482015290519081900360640190fd5b600260005560065460ff1615610e67576040805162461bcd60e51b815260206004820152601e60248201527f5a6c704d616e616765723a20616374696f6e206e6f7420656e61626c65640000604482015290519081900360640190fd5b610e75333387878787611efe565b600160005595945050505050565b6003546000906001600160a01b0316801580610f015750806001600160a01b0316639a11178f6040518163ffffffff1660e01b815260040160206040518083038186803b158015610ed357600080fd5b505afa158015610ee7573d6000803e3d6000fd5b505050506040513d6020811015610efd57600080fd5b5051155b15610fa8577f00000000000000000000000000000000000000000000000000000000000000006001600160a01b03166362749803846040518263ffffffff1660e01b815260040180826001600160a01b0316815260200191505060206040518083038186803b158015610f7357600080fd5b505afa158015610f87573d6000803e3d6000fd5b505050506040513d6020811015610f9d57600080fd5b50519150610d139050565b60075480611053577f00000000000000000000000000000000000000000000000000000000000000006001600160a01b03166362749803856040518263ffffffff1660e01b815260040180826001600160a01b0316815260200191505060206040518083038186803b15801561101d57600080fd5b505afa158015611031573d6000803e3d6000fd5b505050506040513d602081101561104757600080fd5b50519250610d13915050565b6127108114156110aa57816001600160a01b03166362749803856040518263ffffffff1660e01b815260040180826001600160a01b0316815260200191505060206040518083038186803b15801561101d57600080fd5b60007f00000000000000000000000000000000000000000000000000000000000000006001600160a01b03166362749803866040518263ffffffff1660e01b815260040180826001600160a01b0316815260200191505060206040518083038186803b15801561111957600080fd5b505afa15801561112d573d6000803e3d6000fd5b505050506040513d602081101561114357600080fd5b505160408051636274980360e01b81526001600160a01b038881166004830152915192935060009291861691636274980391602480820192602092909190829003018186803b15801561119557600080fd5b505afa1580156111a9573d6000803e3d6000fd5b505050506040513d60208110156111bf57600080fd5b50519050610d0c612710610ac76111d68487611db0565b6111ec6111e561271089611d65565b8790611db0565b90611e48565b60086020526000908152604090205460ff1681565b6001546001600160a01b03163314611254576040805162461bcd60e51b81526020600482015260156024820152600080516020612c71833981519152604482015290519081900360640190fd5b6127108111156112a8576040805162461bcd60e51b815260206004820152601a602482015279169b1c13585b9859d95c8e881a5b9d985b1a59081dd95a59da1d60321b604482015290519081900360640190fd5b60078190556040805182815290517f52a69eb631fabe4f5c2ab49d942264addcb4527358af43b4f18316573c008db09181900360200190a150565b60075481565b6003546001600160a01b031681565b6000806113048361060d565b905061132868327cb2734119d3b7a9601e1b610ac783670de0b6b3a7640000611db0565b9392505050565b6001546001600160a01b0316331461137c576040805162461bcd60e51b81526020600482015260156024820152600080516020612c71833981519152604482015290519081900360640190fd5b6006805482151560ff19909116811790915560408051918252517f6d6910bda96d053dacc191a744ad8710ec810616f31eaf51ea4df7e510d471949181900360200190a150565b6001546001600160a01b03163314611410576040805162461bcd60e51b81526020600482015260156024820152600080516020612c71833981519152604482015290519081900360640190fd5b6001600160a01b038216611469576040805162461bcd60e51b815260206004820152601b60248201527a476f7665726e61626c653a20696e76616c6964206164647265737360281b604482015290519081900360640190fd5b6001546001600160a01b03838116911614156114ca576040805162461bcd60e51b815260206004820152601b60248201527a476f7665726e61626c653a2073616d6520676f7665726e616e636560281b604482015290519081900360640190fd5b6114d4828261225f565b5050565b600060026000541415611520576040805162461bcd60e51b815260206004820152601f6024820152600080516020612c51833981519152604482015290519081900360640190fd5b600260005561152d611ea0565b61153a86868686866122db565b60016000559695505050505050565b336000908152600260205260409020805442106115ac576040805162461bcd60e51b815260206004820152601c60248201527b11dbdd995c9b98589b194e88191958591b1a5b9948195e1c1a5c995960221b604482015290519081900360640190fd5b60018082015460ff161515146115f35760405162461bcd60e51b8152600401808060200182810382526022815260200180612cb46022913960400191505060405180910390fd5b60018054336000818152600260205260408082208281558501805460ff1916905584546001600160a01b031916831790945592516001600160a01b0390921692909183917f5f56bee8cffbe9a78652a74a60705edede02af10b0bbb888ca44b79a0d42ce8091a35050565b601281565b6002602052600090815260409020805460019091015460ff1682565b6000600260005414156116c7576040805162461bcd60e51b815260206004820152601f6024820152600080516020612c51833981519152604482015290519081900360640190fd5b600260005560065460ff1615611724576040805162461bcd60e51b815260206004820152601e60248201527f5a6c704d616e616765723a20616374696f6e206e6f7420656e61626c65640000604482015290519081900360640190fd5b610e7533868686866122db565b6001546001600160a01b0316331461177e576040805162461bcd60e51b81526020600482015260156024820152600080516020612c71833981519152604482015290519081900360640190fd5b60048290556005819055604080518381526020810183905281517f326e719fe9f62c3f29172bb155860ca9190957435c63034ecbe8039b4660a4aa929181900390910190a15050565b68327cb2734119d3b7a9601e1b81565b6001546001600160a01b03163314611824576040805162461bcd60e51b81526020600482015260156024820152600080516020612c71833981519152604482015290519081900360640190fd5b6001600160a01b03811660009081526002602052604090206001015460ff16611894576040805162461bcd60e51b815260206004820152601f60248201527f476f7665726e61626c653a2070726f706f73616c206e6f742061637469766500604482015290519081900360640190fd5b6001600160a01b038116600081815260026020526040808220828155600101805460ff19169055513392917ffc6a2fa53abe2adfe8372a9495032d7e6458d3aed34fa880132b6c808da1e99c91a350565b6001546001600160a01b03163314611932576040805162461bcd60e51b81526020600482015260156024820152600080516020612c71833981519152604482015290519081900360640190fd5b6001600160a01b038216600081815260086020908152604091829020805460ff1916851515908117909155825190815291517f6cc67219f62a9e5d66cc9f2a62e16634cffcf48facd698a829bafcc1ad2c5c839281900390910190a25050565b600080826119a557506000905080611a01565b60006119b086610e83565b9050806119c4576000809250925050611a01565b60008582116119dc576119d78683611d65565b6119e6565b6119e68287611d65565b905060006119f883610ac78885611db0565b94505050841090505b935093915050565b60055481565b6001546001600160a01b03163314611a5c576040805162461bcd60e51b81526020600482015260156024820152600080516020612c71833981519152604482015290519081900360640190fd5b6001600160a01b038116611ab5576040805162461bcd60e51b815260206004820152601b60248201527a476f7665726e61626c653a20696e76616c6964206164647265737360281b604482015290519081900360640190fd5b6001546001600160a01b0382811691161415611b16576040805162461bcd60e51b815260206004820152601b60248201527a476f7665726e61626c653a2073616d6520676f7665726e616e636560281b604482015290519081900360640190fd5b611b228160001961225f565b50565b6001546001600160a01b03163314611b72576040805162461bcd60e51b81526020600482015260156024820152600080516020612c71833981519152604482015290519081900360640190fd5b600380546001600160a01b0383166001600160a01b0319909116811790915560408051918252517f261aa214630c5263461143daefbae1c16a5acab34551e31713c145bf8c1eb6b69181900360200190a150565b600080611bd28361060d565b905060007f00000000000000000000000000000000000000000000000000000000000000006001600160a01b03166318160ddd6040518163ffffffff1660e01b815260040160206040518083038186803b158015611c2f57600080fd5b505afa158015611c43573d6000803e3d6000fd5b505050506040513d6020811015611c5957600080fd5b5051905080611c6d57600092505050610d13565b611c8381610ac784670de0b6b3a7640000611db0565b949350505050565b604080516002808252606080830184529283929190602083019080368337019050509050611cb9600161060d565b81600081518110611cc657fe5b602002602001018181525050611cdc600061060d565b81600181518110611ce957fe5b6020908102919091010152905090565b7f000000000000000000000000000000000000000000000000000000000000000081565b7f000000000000000000000000000000000000000000000000000000000000000081565b7f000000000000000000000000000000000000000000000000000000000000000081565b6000611da783836040518060400160405280601e81526020017f536166654d6174683a207375627472616374696f6e206f766572666c6f7700008152506128ac565b90505b92915050565b600082611dbf57506000611daa565b82820282848281611dcc57fe5b0414611da75760405162461bcd60e51b8152600401808060200182810382526021815260200180612cd66021913960400191505060405180910390fd5b6000611da783836040518060400160405280601a815260200179536166654d6174683a206469766973696f6e206279207a65726f60301b815250612943565b600082820183811015611da7576040805162461bcd60e51b815260206004820152601b60248201527a536166654d6174683a206164646974696f6e206f766572666c6f7760281b604482015290519081900360640190fd5b3360009081526008602052604090205460ff16611efc576040805162461bcd60e51b81526020600482015260156024820152742d363826b0b730b3b2b91d103337b93134b23232b760591b604482015290519081900360640190fd5b565b6000808411611f52576040805162461bcd60e51b815260206004820152601b60248201527a169b1c13585b9859d95c8e881a5b9d985b1a590817d85b5bdd5b9d602a1b604482015290519081900360640190fd5b6000611f5e60016112f8565b905060007f00000000000000000000000000000000000000000000000000000000000000006001600160a01b03166318160ddd6040518163ffffffff1660e01b815260040160206040518083038186803b158015611fbb57600080fd5b505afa158015611fcf573d6000803e3d6000fd5b505050506040513d6020811015611fe557600080fd5b5051905061201e6001600160a01b0388168a7f0000000000000000000000000000000000000000000000000000000000000000896129a8565b6040805163817bb85760e01b81526001600160a01b03898116600483015230602483015291516000927f0000000000000000000000000000000000000000000000000000000000000000169163817bb85791604480830192602092919082900301818787803b15801561209057600080fd5b505af11580156120a4573d6000803e3d6000fd5b505050506040513d60208110156120ba57600080fd5b50519050858110156120fd5760405162461bcd60e51b8152600401808060200182810382526024815260200180612cf76024913960400191505060405180910390fd5b600083156121185761211384610ac78486611db0565b61211a565b815b90508581101561215b5760405162461bcd60e51b8152600401808060200182810382526023815260200180612c916023913960400191505060405180910390fd5b7f00000000000000000000000000000000000000000000000000000000000000006001600160a01b03166340c10f198b836040518363ffffffff1660e01b815260040180836001600160a01b0316815260200182815260200192505050600060405180830381600087803b1580156121d257600080fd5b505af11580156121e6573d6000803e3d6000fd5b5050604080516001600160a01b03808f1682528d1660208201528082018c9052606081018890526080810187905260a0810186905260c0810185905290517f38dc38b96482be64113daffd8d464ebda93e856b70ccfc605e69ccf892ab981e93509081900360e0019150a19a9950505050505050505050565b604080518082018252828152600160208083018281526001600160a01b03871660008181526002845286902094518555905193909201805460ff1916931515939093179092558251848152925190927f02dd0697be46e764c3ba81094158781c31b235d03bb27a0daf1bdef0ec1084dd92908290030190a25050565b6000808411612331576040805162461bcd60e51b815260206004820152601e60248201527f5a6c704d616e616765723a20696e76616c6964205f7a6c70416d6f756e740000604482015290519081900360640190fd5b837f00000000000000000000000000000000000000000000000000000000000000006001600160a01b0316636c24a76f886040518263ffffffff1660e01b815260040180826001600160a01b0316815260200191505060206040518083038186803b15801561239f57600080fd5b505afa1580156123b3573d6000803e3d6000fd5b505050506040513d60208110156123c957600080fd5b505110156124085760405162461bcd60e51b815260040180806020018281038252603a815260200180612d45603a913960400191505060405180910390fd5b600061241460006112f8565b905060007f00000000000000000000000000000000000000000000000000000000000000006001600160a01b03166318160ddd6040518163ffffffff1660e01b815260040160206040518083038186803b15801561247157600080fd5b505afa158015612485573d6000803e3d6000fd5b505050506040513d602081101561249b57600080fd5b5051905060006124af82610ac78986611db0565b905060007f00000000000000000000000000000000000000000000000000000000000000006001600160a01b03166370a08231306040518263ffffffff1660e01b815260040180826001600160a01b0316815260200191505060206040518083038186803b15801561252057600080fd5b505afa158015612534573d6000803e3d6000fd5b505050506040513d602081101561254a57600080fd5b50519050808211156125ef576001600160a01b037f0000000000000000000000000000000000000000000000000000000000000000166340c10f19306125908585611d65565b6040518363ffffffff1660e01b815260040180836001600160a01b0316815260200182815260200192505050600060405180830381600087803b1580156125d657600080fd5b505af11580156125ea573d6000803e3d6000fd5b505050505b7f00000000000000000000000000000000000000000000000000000000000000006001600160a01b0316639dc29fac8b8a6040518363ffffffff1660e01b815260040180836001600160a01b0316815260200182815260200192505050600060405180830381600087803b15801561266657600080fd5b505af115801561267a573d6000803e3d6000fd5b505050507f00000000000000000000000000000000000000000000000000000000000000006001600160a01b031663a9059cbb7f0000000000000000000000000000000000000000000000000000000000000000846040518363ffffffff1660e01b815260040180836001600160a01b0316815260200182815260200192505050602060405180830381600087803b15801561271557600080fd5b505af1158015612729573d6000803e3d6000fd5b505050506040513d602081101561273f57600080fd5b505060408051630711e61960e41b81526001600160a01b038b81166004830152888116602483015291516000927f0000000000000000000000000000000000000000000000000000000000000000169163711e619091604480830192602092919082900301818787803b1580156127b557600080fd5b505af11580156127c9573d6000803e3d6000fd5b505050506040513d60208110156127df57600080fd5b5051905087811015612838576040805162461bcd60e51b815260206004820152601f60248201527f5a6c704d616e616765723a20696e73756666696369656e74206f757470757400604482015290519081900360640190fd5b604080516001600160a01b03808e1682528c1660208201528082018b9052606081018790526080810186905260a0810185905260c0810183905290517f87b9679bb9a4944bafa98c267e7cd4a00ab29fed48afdefae25f0fca5da279409181900360e00190a19a9950505050505050505050565b6000818484111561293b5760405162461bcd60e51b81526004018080602001828103825283818151815260200191508051906020019080838360005b838110156129005781810151838201526020016128e8565b50505050905090810190601f16801561292d5780820380516001836020036101000a031916815260200191505b509250505060405180910390fd5b505050900390565b600081836129925760405162461bcd60e51b81526020600482018181528351602484015283519092839260449091019190850190808383600083156129005781810151838201526020016128e8565b50600083858161299e57fe5b0495945050505050565b604080516001600160a01b0380861660248301528416604482015260648082018490528251808303909101815260849091019091526020810180516001600160e01b03166323b872dd60e01b179052612a02908590612a08565b50505050565b6060612a5d826040518060400160405280602081526020017f5361666545524332303a206c6f772d6c6576656c2063616c6c206661696c6564815250856001600160a01b0316612abe9092919063ffffffff16565b805190915015612ab957808060200190516020811015612a7c57600080fd5b5051612ab95760405162461bcd60e51b815260040180806020018281038252602a815260200180612d1b602a913960400191505060405180910390fd5b505050565b6060611c83848460008585612ad285612be4565b612b23576040805162461bcd60e51b815260206004820152601d60248201527f416464726573733a2063616c6c20746f206e6f6e2d636f6e7472616374000000604482015290519081900360640190fd5b60006060866001600160a01b031685876040518082805190602001908083835b60208310612b625780518252601f199092019160209182019101612b43565b6001836020036101000a03801982511681845116808217855250505050505090500191505060006040518083038185875af1925050503d8060008114612bc4576040519150601f19603f3d011682016040523d82523d6000602084013e612bc9565b606091505b5091509150612bd9828286612bea565b979650505050505050565b3b151590565b60608315612bf9575081611328565b825115612c095782518084602001fd5b60405162461bcd60e51b81526020600482018181528451602484015284518593919283926044019190850190808383600083156129005781810151838201526020016128e856fe5265656e7472616e637947756172643a207265656e7472616e742063616c6c00476f7665726e61626c653a20666f7262696464656e00000000000000000000005a6c704d616e616765723a20696e73756666696369656e74205a4c50206f7574707574476f7665726e61626c653a2070726f706f73616c206973206e6f7420616374697665536166654d6174683a206d756c7469706c69636174696f6e206f766572666c6f775a6c704d616e616765723a20696e73756666696369656e742055534447206f75747075745361666545524332303a204552433230206f7065726174696f6e20646964206e6f7420737563636565645a6c704d616e616765723a20696e73756666696369656e7420617661696c61626c652062616c616e63652064756520746f20636f6f6c646f776ea2646970667358221220af81ce47cab68cb7eb386a05eca08585e47f1f27bc85670dc29631f0129ae26d64736f6c634300060c0033","linkReferences":{}},"methodIdentifiers":{"BASIS_POINTS_DIVISOR()":"126082cf","MAX_COOLDOWN_DURATION()":"1e9049cf","PRICE_PRECISION()":"95082d25","USDG_DECIMALS()":"870d917c","ZLP_PRECISION()":"088ec8c3","acceptGov()":"7bc6729b","addLiquidity(address,uint256,uint256,uint256)":"1ece366a","addLiquidityForAccount(address,address,address,uint256,uint256,uint256)":"17eb2a15","aumAddition()":"196b68cb","aumDeduction()":"b172bb0c","cancelGovProposal(address)":"9c35b497","getAum(bool)":"03391476","getAumInUsdg(bool)":"68a0a3e0","getAums()":"ed0d1c04","getGlobalShortAveragePrice(address)":"440d828a","getGlobalShortDelta(address,uint256,uint256)":"a1acd3d5","getPrice(bool)":"e245b5af","gov()":"12d43a51","govProposals(address)":"8d0fedb0","inPrivateMode()":"070eacee","isHandler(address)":"46ea87af","removeLiquidity(address,uint256,uint256,address)":"8fed0b2c","removeLiquidityForAccount(address,address,uint256,uint256,address)":"71d597ad","setAumAdjustment(uint256,uint256)":"9116c4ae","setGov(address)":"cfad57a2","setGovWithDeadline(address,uint256)":"6bb22fd7","setHandler(address,bool)":"9cb7de4b","setInPrivateMode(bool)":"6a86da19","setShortsTracker(address)":"d34ee093","setShortsTrackerAveragePriceWeight(uint256)":"4f5f6b5e","shortsTracker()":"657bc5d0","shortsTrackerAveragePriceWeight()":"64e6617f","usdg()":"f5b91b7b","vault()":"fbfa77cf","zlp()":"fe9fe720"},"id":45}