{"abi":[{"type":"constructor","inputs":[{"name":"_lp","type":"address","internalType":"contract IERC20"},{"name":"_rewardToken","type":"address","internalType":"contract IERC20"},{"name":"_rewardPerBlock","type":"uint256","internalType":"uint256"},{"name":"_startBlock","type":"uint256","internalType":"uint256"},{"name":"_bonusEndBlock","type":"uint256","internalType":"uint256"},{"name":"_adminAddress","type":"address","internalType":"address"}],"stateMutability":"nonpayable"},{"type":"function","name":"adminAddress","inputs":[],"outputs":[{"name":"","type":"address","internalType":"address"}],"stateMutability":"view"},{"type":"function","name":"bonusEndBlock","inputs":[],"outputs":[{"name":"","type":"uint256","internalType":"uint256"}],"stateMutability":"view"},{"type":"function","name":"deposit","inputs":[{"name":"_amount","type":"uint256","internalType":"uint256"}],"outputs":[],"stateMutability":"nonpayable"},{"type":"function","name":"emergencyRewardWithdraw","inputs":[{"name":"_amount","type":"uint256","internalType":"uint256"}],"outputs":[],"stateMutability":"nonpayable"},{"type":"function","name":"emergencyWithdraw","inputs":[],"outputs":[],"stateMutability":"nonpayable"},{"type":"function","name":"getMultiplier","inputs":[{"name":"_from","type":"uint256","internalType":"uint256"},{"name":"_to","type":"uint256","internalType":"uint256"}],"outputs":[{"name":"","type":"uint256","internalType":"uint256"}],"stateMutability":"view"},{"type":"function","name":"owner","inputs":[],"outputs":[{"name":"","type":"address","internalType":"address"}],"stateMutability":"view"},{"type":"function","name":"pendingReward","inputs":[{"name":"_user","type":"address","internalType":"address"}],"outputs":[{"name":"","type":"uint256","internalType":"uint256"}],"stateMutability":"view"},{"type":"function","name":"poolInfo","inputs":[],"outputs":[{"name":"lpToken","type":"address","internalType":"contract IERC20"},{"name":"lastRewardBlock","type":"uint256","internalType":"uint256"},{"name":"accCakePerShare","type":"uint256","internalType":"uint256"}],"stateMutability":"view"},{"type":"function","name":"removeBlackList","inputs":[{"name":"_blacklistAddress","type":"address","internalType":"address"}],"outputs":[],"stateMutability":"nonpayable"},{"type":"function","name":"renounceOwnership","inputs":[],"outputs":[],"stateMutability":"nonpayable"},{"type":"function","name":"rewardPerBlock","inputs":[],"outputs":[{"name":"","type":"uint256","internalType":"uint256"}],"stateMutability":"view"},{"type":"function","name":"rewardToken","inputs":[],"outputs":[{"name":"","type":"address","internalType":"contract IERC20"}],"stateMutability":"view"},{"type":"function","name":"setAdmin","inputs":[{"name":"_adminAddress","type":"address","internalType":"address"}],"outputs":[],"stateMutability":"nonpayable"},{"type":"function","name":"setBlackList","inputs":[{"name":"_blacklistAddress","type":"address","internalType":"address"}],"outputs":[],"stateMutability":"nonpayable"},{"type":"function","name":"startBlock","inputs":[],"outputs":[{"name":"","type":"uint256","internalType":"uint256"}],"stateMutability":"view"},{"type":"function","name":"transferOwnership","inputs":[{"name":"newOwner","type":"address","internalType":"address"}],"outputs":[],"stateMutability":"nonpayable"},{"type":"function","name":"updatePool","inputs":[],"outputs":[],"stateMutability":"nonpayable"},{"type":"function","name":"userInfo","inputs":[{"name":"","type":"address","internalType":"address"}],"outputs":[{"name":"amount","type":"uint256","internalType":"uint256"},{"name":"rewardDebt","type":"uint256","internalType":"uint256"},{"name":"inBlackList","type":"bool","internalType":"bool"}],"stateMutability":"view"},{"type":"function","name":"withdraw","inputs":[{"name":"_amount","type":"uint256","internalType":"uint256"}],"outputs":[],"stateMutability":"nonpayable"},{"type":"event","name":"Deposit","inputs":[{"name":"user","type":"address","indexed":true,"internalType":"address"},{"name":"amount","type":"uint256","indexed":false,"internalType":"uint256"}],"anonymous":false},{"type":"event","name":"EmergencyWithdraw","inputs":[{"name":"user","type":"address","indexed":true,"internalType":"address"},{"name":"amount","type":"uint256","indexed":false,"internalType":"uint256"}],"anonymous":false},{"type":"event","name":"OwnershipTransferred","inputs":[{"name":"previousOwner","type":"address","indexed":true,"internalType":"address"},{"name":"newOwner","type":"address","indexed":true,"internalType":"address"}],"anonymous":false},{"type":"event","name":"Withdraw","inputs":[{"name":"user","type":"address","indexed":true,"internalType":"address"},{"name":"amount","type":"uint256","indexed":false,"internalType":"uint256"}],"anonymous":false}],"bytecode":{"object":"0x608060405234801561001057600080fd5b506040516114d93803806114d9833981810160405260c081101561003357600080fd5b508051602082015160408301516060840151608085015160a09095015193949293919290916000610062610123565b600080546001600160a01b0319166001600160a01b0383169081178255604051929350917f8be0079c531659141344cd1fd0a4f28419497f9722a3daafe3b4186f6b6457e0908290a350600180546001600160a01b03199081166001600160a01b03978816179091556003949094556008839055600991909155600280548416918516919091179055604080516060810182529490931680855260208501829052600094909301849052600480549092169092179055600555600655610127565b3390565b6113a3806101366000396000f3fe608060405234801561001057600080fd5b50600436106100fc5760003560e01c80631959a002146101015780631aed6553146101475780632e1a7d4d146101615780633279beab1461018057806348cd4cb11461019d5780635a2f3d09146101a5578063704b6c02146101d5578063715018a6146101fb57806372700241146102035780638ae39cac146102295780638da5cb5b146102315780638dbb1e3a14610255578063b6b55f2514610278578063db2e21bc14610295578063e3161ddd1461029d578063e4997dc5146102a5578063f2fde38b146102cb578063f40f0f52146102f1578063f7c618c114610317578063fc6f94681461031f575b600080fd5b6101276004803603602081101561011757600080fd5b50356001600160a01b0316610327565b604080519384526020840192909252151582820152519081900360600190f35b61014f61034b565b60408051918252519081900360200190f35b61017e6004803603602081101561017757600080fd5b5035610351565b005b61017e6004803603602081101561019657600080fd5b50356104aa565b61014f6105d9565b6101ad6105df565b604080516001600160a01b039094168452602084019290925282820152519081900360600190f35b61017e600480360360208110156101eb57600080fd5b50356001600160a01b03166105f7565b61017e610671565b61017e6004803603602081101561021957600080fd5b50356001600160a01b0316610713565b61014f610787565b61023961078d565b604080516001600160a01b039092168252519081900360200190f35b61014f6004803603604081101561026b57600080fd5b508035906020013561079c565b61017e6004803603602081101561028e57600080fd5b50356107dc565b61017e610916565b61017e610987565b61017e600480360360208110156102bb57600080fd5b50356001600160a01b0316610a84565b61017e600480360360208110156102e157600080fd5b50356001600160a01b0316610af5565b61014f6004803603602081101561030757600080fd5b50356001600160a01b0316610bed565b610239610d18565b610239610d27565b60076020526000908152604090208054600182015460029092015490919060ff1683565b60095481565b3360009081526007602052604090208054600491908311156103af576040805162461bcd60e51b81526020600482015260126024820152711dda5d1a191c985dce881b9bdd0819dbdbd960721b604482015290519081900360640190fd5b6103b7610987565b60006103f182600101546103eb64e8d4a510006103e587600201548760000154610d3690919063ffffffff16565b90610d96565b90610dd5565b90506000811180156104085750600282015460ff16155b1561042457600154610424906001600160a01b03163383610e17565b831561044e5781546104369085610dd5565b8255825461044e906001600160a01b03163386610e17565b600283015482546104699164e8d4a51000916103e591610d36565b600183015560408051858152905133917f884edad9ce6fa2440d8a54cc123490eb96d2768479d49ff9c7366125a9424364919081900360200190a250505050565b6104b2610e6e565b6000546001600160a01b03908116911614610502576040805162461bcd60e51b81526020600482018190526024820152600080516020611324833981519152604482015290519081900360640190fd5b600154604080516370a0823160e01b815230600482015290516001600160a01b03909216916370a0823191602480820192602092909190829003018186803b15801561054d57600080fd5b505afa158015610561573d6000803e3d6000fd5b505050506040513d602081101561057757600080fd5b505181106105bf576040805162461bcd60e51b815260206004820152601060248201526f3737ba1032b737bab3b4103a37b5b2b760811b604482015290519081900360640190fd5b6001546105d6906001600160a01b03163383610e17565b50565b60085481565b6004546005546006546001600160a01b039092169183565b6105ff610e6e565b6000546001600160a01b0390811691161461064f576040805162461bcd60e51b81526020600482018190526024820152600080516020611324833981519152604482015290519081900360640190fd5b600280546001600160a01b0319166001600160a01b0392909216919091179055565b610679610e6e565b6000546001600160a01b039081169116146106c9576040805162461bcd60e51b81526020600482018190526024820152600080516020611324833981519152604482015290519081900360640190fd5b600080546040516001600160a01b03909116907f8be0079c531659141344cd1fd0a4f28419497f9722a3daafe3b4186f6b6457e0908390a3600080546001600160a01b0319169055565b6002546001600160a01b03163314610760576040805162461bcd60e51b815260206004820152600b60248201526a61646d696e3a207775743f60a81b604482015290519081900360640190fd5b6001600160a01b03166000908152600760205260409020600201805460ff19166001179055565b60035481565b6000546001600160a01b031690565b600060095482116107b8576107b18284610dd5565b90506107d6565b60095483106107c9575060006107d6565b6009546107b19084610dd5565b92915050565b33600090815260076020526040902060028101546004919060ff1615610839576040805162461bcd60e51b815260206004820152600d60248201526c1a5b88189b1858dac81b1a5cdd609a1b604482015290519081900360640190fd5b610841610987565b821561086d57815461085e906001600160a01b0316333086610e72565b805461086a9084610ed2565b81555b600061089b82600101546103eb64e8d4a510006103e587600201548760000154610d3690919063ffffffff16565b905080156108ba576001546108ba906001600160a01b03163383610e17565b600283015482546108d59164e8d4a51000916103e591610d36565b600183015560408051858152905133917fe1fffcc4923d04b559f4d29a8bfc6cda04eb5b0d3c460751c2402c5c5cc9109c919081900360200190a250505050565b3360008181526007602052604090208054600480549093610942926001600160a01b0390921691610e17565b8054604080519182525133917f5fafa99d0643513820be26656b45130b01e1c03062e1266bf36f88cbd3bd9695919081900360200190a2600080825560019091015550565b60055460049043116109995750610a82565b8054604080516370a0823160e01b815230600482015290516000926001600160a01b0316916370a08231916024808301926020929190829003018186803b1580156109e357600080fd5b505afa1580156109f7573d6000803e3d6000fd5b505050506040513d6020811015610a0d57600080fd5b5051905080610a23575043600190910155610a82565b6000610a3383600101544361079c565b90506000610a4c60035483610d3690919063ffffffff16565b9050610a6f610a64846103e58464e8d4a51000610d36565b600286015490610ed2565b6002850155505043600190920191909155505b565b6002546001600160a01b03163314610ad1576040805162461bcd60e51b815260206004820152600b60248201526a61646d696e3a207775743f60a81b604482015290519081900360640190fd5b6001600160a01b03166000908152600760205260409020600201805460ff19169055565b610afd610e6e565b6000546001600160a01b03908116911614610b4d576040805162461bcd60e51b81526020600482018190526024820152600080516020611324833981519152604482015290519081900360640190fd5b6001600160a01b038116610b925760405162461bcd60e51b81526004018080602001828103825260268152602001806112b76026913960400191505060405180910390fd5b600080546040516001600160a01b03808516939216917f8be0079c531659141344cd1fd0a4f28419497f9722a3daafe3b4186f6b6457e091a3600080546001600160a01b0319166001600160a01b0392909216919091179055565b6001600160a01b0380821660009081526007602090815260408083206006546004805484516370a0823160e01b8152308184015294519697919693959294889491909216926370a082319260248082019391829003018186803b158015610c5357600080fd5b505afa158015610c67573d6000803e3d6000fd5b505050506040513d6020811015610c7d57600080fd5b5051600185015490915043118015610c9457508015155b15610ce6576000610ca985600101544361079c565b90506000610cc260035483610d3690919063ffffffff16565b9050610ce1610cda846103e58464e8d4a51000610d36565b8590610ed2565b935050505b610d0e83600101546103eb64e8d4a510006103e5868860000154610d3690919063ffffffff16565b9695505050505050565b6001546001600160a01b031681565b6002546001600160a01b031681565b600082610d45575060006107d6565b82820282848281610d5257fe5b0414610d8f5760405162461bcd60e51b81526004018080602001828103825260218152602001806113036021913960400191505060405180910390fd5b9392505050565b6000610d8f83836040518060400160405280601a815260200179536166654d6174683a206469766973696f6e206279207a65726f60301b815250610f2a565b6000610d8f83836040518060400160405280601e81526020017f536166654d6174683a207375627472616374696f6e206f766572666c6f770000815250610fcc565b604080516001600160a01b038416602482015260448082018490528251808303909101815260649091019091526020810180516001600160e01b031663a9059cbb60e01b179052610e69908490611026565b505050565b3390565b604080516001600160a01b0380861660248301528416604482015260648082018490528251808303909101815260849091019091526020810180516001600160e01b03166323b872dd60e01b179052610ecc908590611026565b50505050565b600082820183811015610d8f576040805162461bcd60e51b815260206004820152601b60248201527a536166654d6174683a206164646974696f6e206f766572666c6f7760281b604482015290519081900360640190fd5b60008183610fb65760405162461bcd60e51b81526004018080602001828103825283818151815260200191508051906020019080838360005b83811015610f7b578181015183820152602001610f63565b50505050905090810190601f168015610fa85780820380516001836020036101000a031916815260200191505b509250505060405180910390fd5b506000838581610fc257fe5b0495945050505050565b6000818484111561101e5760405162461bcd60e51b8152602060048201818152835160248401528351909283926044909101919085019080838360008315610f7b578181015183820152602001610f63565b505050900390565b606061107b826040518060400160405280602081526020017f5361666545524332303a206c6f772d6c6576656c2063616c6c206661696c6564815250856001600160a01b03166110d79092919063ffffffff16565b805190915015610e695780806020019051602081101561109a57600080fd5b5051610e695760405162461bcd60e51b815260040180806020018281038252602a815260200180611344602a913960400191505060405180910390fd5b60606110e684846000856110ee565b949350505050565b60608247101561112f5760405162461bcd60e51b81526004018080602001828103825260268152602001806112dd6026913960400191505060405180910390fd5b6111388561124a565b611189576040805162461bcd60e51b815260206004820152601d60248201527f416464726573733a2063616c6c20746f206e6f6e2d636f6e7472616374000000604482015290519081900360640190fd5b60006060866001600160a01b031685876040518082805190602001908083835b602083106111c85780518252601f1990920191602091820191016111a9565b6001836020036101000a03801982511681845116808217855250505050505090500191505060006040518083038185875af1925050503d806000811461122a576040519150601f19603f3d011682016040523d82523d6000602084013e61122f565b606091505b509150915061123f828286611250565b979650505050505050565b3b151590565b6060831561125f575081610d8f565b82511561126f5782518084602001fd5b60405162461bcd60e51b8152602060048201818152845160248401528451859391928392604401919085019080838360008315610f7b578181015183820152602001610f6356fe4f776e61626c653a206e6577206f776e657220697320746865207a65726f2061646472657373416464726573733a20696e73756666696369656e742062616c616e636520666f722063616c6c536166654d6174683a206d756c7469706c69636174696f6e206f766572666c6f774f776e61626c653a2063616c6c6572206973206e6f7420746865206f776e65725361666545524332303a204552433230206f7065726174696f6e20646964206e6f742073756363656564a2646970667358221220dab5f41eab0212754412ada385c9c4906636a0bc0ea71e621b205bc97075a73a64736f6c634300060c0033","linkReferences":{}},"methodIdentifiers":{"adminAddress()":"fc6f9468","bonusEndBlock()":"1aed6553","deposit(uint256)":"b6b55f25","emergencyRewardWithdraw(uint256)":"3279beab","emergencyWithdraw()":"db2e21bc","getMultiplier(uint256,uint256)":"8dbb1e3a","owner()":"8da5cb5b","pendingReward(address)":"f40f0f52","poolInfo()":"5a2f3d09","removeBlackList(address)":"e4997dc5","renounceOwnership()":"715018a6","rewardPerBlock()":"8ae39cac","rewardToken()":"f7c618c1","setAdmin(address)":"704b6c02","setBlackList(address)":"72700241","startBlock()":"48cd4cb1","transferOwnership(address)":"f2fde38b","updatePool()":"e3161ddd","userInfo(address)":"1959a002","withdraw(uint256)":"2e1a7d4d"},"id":98}