{"abi":[{"type":"constructor","inputs":[],"stateMutability":"nonpayable"},{"type":"function","name":"USDG_PRECISION","inputs":[],"outputs":[{"name":"","type":"uint256","internalType":"uint256"}],"stateMutability":"view"},{"type":"function","name":"admin","inputs":[],"outputs":[{"name":"","type":"address","internalType":"address"}],"stateMutability":"view"},{"type":"function","name":"ammRouterV1","inputs":[],"outputs":[{"name":"","type":"address","internalType":"address"}],"stateMutability":"view"},{"type":"function","name":"ammRouterV2","inputs":[],"outputs":[{"name":"","type":"address","internalType":"address"}],"stateMutability":"view"},{"type":"function","name":"bnb","inputs":[],"outputs":[{"name":"","type":"address","internalType":"address"}],"stateMutability":"view"},{"type":"function","name":"busd","inputs":[],"outputs":[{"name":"","type":"address","internalType":"address"}],"stateMutability":"view"},{"type":"function","name":"initialize","inputs":[{"name":"_ammRouterV1","type":"address","internalType":"address"},{"name":"_ammRouterV2","type":"address","internalType":"address"},{"name":"_vault","type":"address","internalType":"address"},{"name":"_zmt","type":"address","internalType":"address"},{"name":"_xzmt","type":"address","internalType":"address"},{"name":"_usdg","type":"address","internalType":"address"},{"name":"_bnb","type":"address","internalType":"address"},{"name":"_busd","type":"address","internalType":"address"}],"outputs":[],"stateMutability":"nonpayable"},{"type":"function","name":"isInitialized","inputs":[],"outputs":[{"name":"","type":"bool","internalType":"bool"}],"stateMutability":"view"},{"type":"function","name":"redeemUsdg","inputs":[{"name":"_migrator","type":"address","internalType":"address"},{"name":"_redemptionToken","type":"address","internalType":"address"},{"name":"_usdgAmount","type":"uint256","internalType":"uint256"}],"outputs":[],"stateMutability":"nonpayable"},{"type":"function","name":"refund","inputs":[{"name":"_migrator","type":"address","internalType":"address"},{"name":"_account","type":"address","internalType":"address"},{"name":"_token","type":"address","internalType":"address"},{"name":"_usdgAmount","type":"uint256","internalType":"uint256"}],"outputs":[],"stateMutability":"nonpayable"},{"type":"function","name":"refundedAmounts","inputs":[{"name":"","type":"address","internalType":"address"},{"name":"","type":"address","internalType":"address"}],"outputs":[{"name":"","type":"uint256","internalType":"uint256"}],"stateMutability":"view"},{"type":"function","name":"swap","inputs":[{"name":"_migrator","type":"address","internalType":"address"},{"name":"_zmtAmountForUsdg","type":"uint256","internalType":"uint256"},{"name":"_xzmtAmountForUsdg","type":"uint256","internalType":"uint256"},{"name":"_zmtAmountForBusd","type":"uint256","internalType":"uint256"}],"outputs":[],"stateMutability":"nonpayable"},{"type":"function","name":"usdg","inputs":[],"outputs":[{"name":"","type":"address","internalType":"address"}],"stateMutability":"view"},{"type":"function","name":"vault","inputs":[],"outputs":[{"name":"","type":"address","internalType":"address"}],"stateMutability":"view"},{"type":"function","name":"xzmt","inputs":[],"outputs":[{"name":"","type":"address","internalType":"address"}],"stateMutability":"view"},{"type":"function","name":"zmt","inputs":[],"outputs":[{"name":"","type":"address","internalType":"address"}],"stateMutability":"view"}],"bytecode":{"object":"0x608060405234801561001057600080fd5b5060018054610100600160a81b03191633610100021790556116c7806100376000396000f3fe608060405234801561001057600080fd5b50600436106100d05760003560e01c806320e35783146100d5578063252c3222146100f9578063392e53cd146101395780633ca5b2341461015557806349a876e41461015d5780634a686d671461016557806370ac0a931461016d5780638a29e2de146101a5578063a1f791e214610204578063a53064d11461020c578063ade027f614610214578063c9ec92481461021c578063ccc362e714610254578063f5b91b7b14610290578063f851a44014610298578063fbfa77cf146102a0575b600080fd5b6100dd6102a8565b604080516001600160a01b039092168252519081900360200190f35b6101276004803603604081101561010f57600080fd5b506001600160a01b03813581169160200135166102b7565b60408051918252519081900360200190f35b6101416102d4565b604080519115158252519081900360200190f35b6100dd6102dd565b6100dd6102ec565b6101276102fb565b6101a36004803603606081101561018357600080fd5b506001600160a01b03813581169160208101359091169060400135610307565b005b6101a360048036036101008110156101bc57600080fd5b506001600160a01b038135811691602081013582169160408201358116916060810135821691608082013581169160a081013582169160c082013581169160e00135166107f6565b6100dd610924565b6100dd610933565b6100dd610942565b6101a36004803603608081101561023257600080fd5b506001600160a01b038135169060208101359060408101359060600135610951565b6101a36004803603608081101561026a57600080fd5b506001600160a01b038135811691602081013582169160408201351690606001356111b6565b6100dd61148e565b6100dd61149d565b6100dd6114b1565b6006546001600160a01b031681565b600a60209081526000928352604080842090915290825290205481565b60015460ff1681565b6009546001600160a01b031681565b6008546001600160a01b031681565b670de0b6b3a764000081565b60015461010090046001600160a01b03163314610359576040805162461bcd60e51b815260206004820152601b6024820152600080516020611621833981519152604482015290519081900360640190fd5b6002600054141561039f576040805162461bcd60e51b815260206004820152601f6024820152600080516020611601833981519152604482015290519081900360640190fd5b6002600090815560075460048054604080516323b872dd60e01b81526001600160a01b03898116948201949094529183166024830152604482018690525191909216926323b872dd92606480820193602093909283900390910190829087803b15801561040b57600080fd5b505af115801561041f573d6000803e3d6000fd5b505050506040513d602081101561043557600080fd5b50506004805460408051630711e61960e41b81526001600160a01b038681169482019490945230602482015290516000939092169163711e61909160448082019260209290919082900301818787803b15801561049157600080fd5b505af11580156104a5573d6000803e3d6000fd5b505050506040513d60208110156104bb57600080fd5b5051604080516002808252606080830184529394509091602083019080368337505060085482519293506001600160a01b0316918391506000906104fb57fe5b6001600160a01b03928316602091820292909201015260095482519116908290600190811061052657fe5b6001600160a01b0392831660209182029290920101526008548582169116146105ef57604080516003808252608082019092529060208201606080368337019050509050838160008151811061057857fe5b6001600160a01b0392831660209182029290920101526008548251911690829060019081106105a357fe5b6001600160a01b0392831660209182029290920101526009548251911690829060029081106105ce57fe5b60200260200101906001600160a01b031690816001600160a01b0316815250505b6003546040805163095ea7b360e01b81526001600160a01b0392831660048201526024810185905290519186169163095ea7b3916044808201926020929091908290030181600087803b15801561064557600080fd5b505af1158015610659573d6000803e3d6000fd5b505050506040513d602081101561066f57600080fd5b50506003546040516338ed173960e01b8152600481018481526000602483018190526001600160a01b038981166064850152426084850181905260a060448601908152875160a4870152875192909616956338ed173995899589948e9493919260c40190602087810191028083838b5b838110156106f75781810151838201526020016106df565b505050509050019650505050505050600060405180830381600087803b15801561072057600080fd5b505af1158015610734573d6000803e3d6000fd5b505050506040513d6000823e601f3d908101601f19168201604052602081101561075d57600080fd5b8101908080516040519392919084600160201b82111561077c57600080fd5b90830190602082018581111561079157600080fd5b82518660208202830111600160201b821117156107ad57600080fd5b82525081516020918201928201910280838360005b838110156107da5781810151838201526020016107c2565b5050505091909101604052505060016000555050505050505050565b60015461010090046001600160a01b03163314610848576040805162461bcd60e51b815260206004820152601b6024820152600080516020611621833981519152604482015290519081900360640190fd5b60015460ff161561088a5760405162461bcd60e51b81526004018080602001828103825260258152602001806116416025913960400191505060405180910390fd5b6001805460ff191681179055600280546001600160a01b03199081166001600160a01b039a8b1617909155600380548216988a1698909817909755600480548816968916969096179095556005805487169488169490941790935560068054861692871692909217909155600780548516918616919091179055600880548416918516919091179055600980549092169216919091179055565b6005546001600160a01b031681565b6002546001600160a01b031681565b6003546001600160a01b031681565b60015461010090046001600160a01b031633146109a3576040805162461bcd60e51b815260206004820152601b6024820152600080516020611621833981519152604482015290519081900360640190fd5b600260005414156109e9576040805162461bcd60e51b815260206004820152601f6024820152600080516020611601833981519152604482015290519081900360640190fd5b600260008190556040805182815260608082018352929091602083019080368337505060055482519293506001600160a01b031691839150600090610a2a57fe5b6001600160a01b039283166020918202929092010152600754825191169082906001908110610a5557fe5b6001600160a01b03928316602091820292909201810191909152600554604080516323b872dd60e01b8152898516600482015230602482015260448101899052905191909316926323b872dd9260648083019391928290030181600087803b158015610ac057600080fd5b505af1158015610ad4573d6000803e3d6000fd5b505050506040513d6020811015610aea57600080fd5b50506005546003546040805163095ea7b360e01b81526001600160a01b039283166004820152602481018890529051919092169163095ea7b39160448083019260209291908290030181600087803b158015610b4557600080fd5b505af1158015610b59573d6000803e3d6000fd5b505050506040513d6020811015610b6f57600080fd5b50506003546040516338ed173960e01b8152600481018681526000602483018190526001600160a01b038981166064850152426084850181905260a060448601908152875160a4870152875192909616956338ed1739958b9589948e9493919260c40190602087810191028083838b5b83811015610bf7578181015183820152602001610bdf565b505050509050019650505050505050600060405180830381600087803b158015610c2057600080fd5b505af1158015610c34573d6000803e3d6000fd5b505050506040513d6000823e601f3d908101601f191682016040526020811015610c5d57600080fd5b8101908080516040519392919084600160201b821115610c7c57600080fd5b908301906020820185811115610c9157600080fd5b82518660208202830111600160201b82111715610cad57600080fd5b82525081516020918201928201910280838360005b83811015610cda578181015183820152602001610cc2565b5050505090500160405250505050600660009054906101000a90046001600160a01b031681600081518110610d0b57fe5b6001600160a01b039283166020918202929092010152600754825191169082906001908110610d3657fe5b6001600160a01b03928316602091820292909201810191909152600654604080516323b872dd60e01b8152898516600482015230602482015260448101889052905191909316926323b872dd9260648083019391928290030181600087803b158015610da157600080fd5b505af1158015610db5573d6000803e3d6000fd5b505050506040513d6020811015610dcb57600080fd5b50506006546003546040805163095ea7b360e01b81526001600160a01b039283166004820152602481018790529051919092169163095ea7b39160448083019260209291908290030181600087803b158015610e2657600080fd5b505af1158015610e3a573d6000803e3d6000fd5b505050506040513d6020811015610e5057600080fd5b50506003546040516338ed173960e01b8152600481018581526000602483018190526001600160a01b038981166064850152426084850181905260a060448601908152875160a4870152875192909616956338ed1739958a9589948e9493919260c40190602087810191028083838b5b83811015610ed8578181015183820152602001610ec0565b505050509050019650505050505050600060405180830381600087803b158015610f0157600080fd5b505af1158015610f15573d6000803e3d6000fd5b505050506040513d6000823e601f3d908101601f191682016040526020811015610f3e57600080fd5b8101908080516040519392919084600160201b821115610f5d57600080fd5b908301906020820185811115610f7257600080fd5b82518660208202830111600160201b82111715610f8e57600080fd5b82525081516020918201928201910280838360005b83811015610fbb578181015183820152602001610fa3565b5050505090500160405250505050600560009054906101000a90046001600160a01b031681600081518110610fec57fe5b6001600160a01b03928316602091820292909201015260095482519116908290600190811061101757fe5b6001600160a01b03928316602091820292909201810191909152600554604080516323b872dd60e01b8152898516600482015230602482015260448101879052905191909316926323b872dd9260648083019391928290030181600087803b15801561108257600080fd5b505af1158015611096573d6000803e3d6000fd5b505050506040513d60208110156110ac57600080fd5b50506005546002546040805163095ea7b360e01b81526001600160a01b039283166004820152602481018690529051919092169163095ea7b39160448083019260209291908290030181600087803b15801561110757600080fd5b505af115801561111b573d6000803e3d6000fd5b505050506040513d602081101561113157600080fd5b50506002546040516338ed173960e01b8152600481018481526000602483018190526001600160a01b038981166064850152426084850181905260a060448601908152875160a4870152875192909616956338ed173995899589948e9493919260c40190602087810191028083838b83156106f75781810151838201526020016106df565b60015461010090046001600160a01b03163314611208576040805162461bcd60e51b815260206004820152601b6024820152600080516020611621833981519152604482015290519081900360640190fd5b6002600054141561124e576040805162461bcd60e51b815260206004820152601f6024820152600080516020611601833981519152604482015290519081900360640190fd5b60026000819055506000846001600160a01b03166341410d4a846040518263ffffffff1660e01b815260040180826001600160a01b0316815260200191505060206040518083038186803b1580156112a557600080fd5b505afa1580156112b9573d6000803e3d6000fd5b505050506040513d60208110156112cf57600080fd5b5051604080516370a0823160e01b81526001600160a01b0387811660048301529151929350600092918416916370a0823191602480820192602092909190829003018186803b15801561132157600080fd5b505afa158015611335573d6000803e3d6000fd5b505050506040513d602081101561134b57600080fd5b50519050600061135c8460026114c0565b6001600160a01b038088166000908152600a602090815260408083209388168352929052205490915061138f8183611506565b6001600160a01b038881166000908152600a602090815260408083209389168352929052208190558310156113f55760405162461bcd60e51b815260040180806020018281038252602c815260200180611666602c913960400191505060405180910390fd5b600754604080516323b872dd60e01b81526001600160a01b038b811660048301528a8116602483015260448201899052915191909216916323b872dd9160648083019260209291908290030181600087803b15801561145357600080fd5b505af1158015611467573d6000803e3d6000fd5b505050506040513d602081101561147d57600080fd5b505060016000555050505050505050565b6007546001600160a01b031681565b60015461010090046001600160a01b031681565b6004546001600160a01b031681565b60006114ff83836040518060400160405280601a815260200179536166654d6174683a206469766973696f6e206279207a65726f60301b81525061155e565b9392505050565b6000828201838110156114ff576040805162461bcd60e51b815260206004820152601b60248201527a536166654d6174683a206164646974696f6e206f766572666c6f7760281b604482015290519081900360640190fd5b600081836115ea5760405162461bcd60e51b81526004018080602001828103825283818151815260200191508051906020019080838360005b838110156115af578181015183820152602001611597565b50505050905090810190601f1680156115dc5780820380516001836020036101000a031916815260200191505b509250505060405180910390fd5b5060008385816115f657fe5b049594505050505056fe5265656e7472616e637947756172643a207265656e7472616e742063616c6c004d6967726174696f6e48616e646c65723a20666f7262696464656e00000000004d6967726174696f6e48616e646c65723a20616c726561647920696e697469616c697a65644d6967726174696f6e48616e646c65723a20726566756e6461626c6520616d6f756e74206578636565646564a26469706673582212209776f21151526629a4fe20e15f2ffa4ca0c5fc7bbb941e999b217a3745f0131964736f6c634300060c0033","linkReferences":{}},"methodIdentifiers":{"USDG_PRECISION()":"4a686d67","admin()":"f851a440","ammRouterV1()":"a53064d1","ammRouterV2()":"ade027f6","bnb()":"49a876e4","busd()":"3ca5b234","initialize(address,address,address,address,address,address,address,address)":"8a29e2de","isInitialized()":"392e53cd","redeemUsdg(address,address,uint256)":"70ac0a93","refund(address,address,address,uint256)":"ccc362e7","refundedAmounts(address,address)":"252c3222","swap(address,uint256,uint256,uint256)":"c9ec9248","usdg()":"f5b91b7b","vault()":"fbfa77cf","xzmt()":"20e35783","zmt()":"a1f791e2"},"id":165}