{"abi":[{"type":"constructor","inputs":[{"name":"_name","type":"string","internalType":"string"},{"name":"_symbol","type":"string","internalType":"string"},{"name":"_initialSupply","type":"uint256","internalType":"uint256"}],"stateMutability":"nonpayable"},{"type":"function","name":"addAdmin","inputs":[{"name":"_account","type":"address","internalType":"address"}],"outputs":[],"stateMutability":"nonpayable"},{"type":"function","name":"addNonStakingAccount","inputs":[{"name":"_account","type":"address","internalType":"address"}],"outputs":[],"stateMutability":"nonpayable"},{"type":"function","name":"admins","inputs":[{"name":"","type":"address","internalType":"address"}],"outputs":[{"name":"","type":"bool","internalType":"bool"}],"stateMutability":"view"},{"type":"function","name":"allowance","inputs":[{"name":"_owner","type":"address","internalType":"address"},{"name":"_spender","type":"address","internalType":"address"}],"outputs":[{"name":"","type":"uint256","internalType":"uint256"}],"stateMutability":"view"},{"type":"function","name":"allowances","inputs":[{"name":"","type":"address","internalType":"address"},{"name":"","type":"address","internalType":"address"}],"outputs":[{"name":"","type":"uint256","internalType":"uint256"}],"stateMutability":"view"},{"type":"function","name":"approve","inputs":[{"name":"_spender","type":"address","internalType":"address"},{"name":"_amount","type":"uint256","internalType":"uint256"}],"outputs":[{"name":"","type":"bool","internalType":"bool"}],"stateMutability":"nonpayable"},{"type":"function","name":"balanceOf","inputs":[{"name":"_account","type":"address","internalType":"address"}],"outputs":[{"name":"","type":"uint256","internalType":"uint256"}],"stateMutability":"view"},{"type":"function","name":"balances","inputs":[{"name":"","type":"address","internalType":"address"}],"outputs":[{"name":"","type":"uint256","internalType":"uint256"}],"stateMutability":"view"},{"type":"function","name":"batchMint","inputs":[{"name":"_accounts","type":"address[]","internalType":"address[]"},{"name":"_amounts","type":"uint256[]","internalType":"uint256[]"}],"outputs":[],"stateMutability":"nonpayable"},{"type":"function","name":"burn","inputs":[{"name":"_account","type":"address","internalType":"address"},{"name":"_amount","type":"uint256","internalType":"uint256"}],"outputs":[],"stateMutability":"nonpayable"},{"type":"function","name":"claim","inputs":[{"name":"_receiver","type":"address","internalType":"address"}],"outputs":[],"stateMutability":"nonpayable"},{"type":"function","name":"decimals","inputs":[],"outputs":[{"name":"","type":"uint8","internalType":"uint8"}],"stateMutability":"view"},{"type":"function","name":"gov","inputs":[],"outputs":[{"name":"","type":"address","internalType":"address"}],"stateMutability":"view"},{"type":"function","name":"inPrivateTransferMode","inputs":[],"outputs":[{"name":"","type":"bool","internalType":"bool"}],"stateMutability":"view"},{"type":"function","name":"isHandler","inputs":[{"name":"","type":"address","internalType":"address"}],"outputs":[{"name":"","type":"bool","internalType":"bool"}],"stateMutability":"view"},{"type":"function","name":"isMinter","inputs":[{"name":"","type":"address","internalType":"address"}],"outputs":[{"name":"","type":"bool","internalType":"bool"}],"stateMutability":"view"},{"type":"function","name":"mint","inputs":[{"name":"_account","type":"address","internalType":"address"},{"name":"_amount","type":"uint256","internalType":"uint256"}],"outputs":[],"stateMutability":"nonpayable"},{"type":"function","name":"name","inputs":[],"outputs":[{"name":"","type":"string","internalType":"string"}],"stateMutability":"view"},{"type":"function","name":"nonStakingAccounts","inputs":[{"name":"","type":"address","internalType":"address"}],"outputs":[{"name":"","type":"bool","internalType":"bool"}],"stateMutability":"view"},{"type":"function","name":"nonStakingSupply","inputs":[],"outputs":[{"name":"","type":"uint256","internalType":"uint256"}],"stateMutability":"view"},{"type":"function","name":"recoverClaim","inputs":[{"name":"_account","type":"address","internalType":"address"},{"name":"_receiver","type":"address","internalType":"address"}],"outputs":[],"stateMutability":"nonpayable"},{"type":"function","name":"removeAdmin","inputs":[{"name":"_account","type":"address","internalType":"address"}],"outputs":[],"stateMutability":"nonpayable"},{"type":"function","name":"removeNonStakingAccount","inputs":[{"name":"_account","type":"address","internalType":"address"}],"outputs":[],"stateMutability":"nonpayable"},{"type":"function","name":"setGov","inputs":[{"name":"_gov","type":"address","internalType":"address"}],"outputs":[],"stateMutability":"nonpayable"},{"type":"function","name":"setHandler","inputs":[{"name":"_handler","type":"address","internalType":"address"},{"name":"_isActive","type":"bool","internalType":"bool"}],"outputs":[],"stateMutability":"nonpayable"},{"type":"function","name":"setInPrivateTransferMode","inputs":[{"name":"_inPrivateTransferMode","type":"bool","internalType":"bool"}],"outputs":[],"stateMutability":"nonpayable"},{"type":"function","name":"setInfo","inputs":[{"name":"_name","type":"string","internalType":"string"},{"name":"_symbol","type":"string","internalType":"string"}],"outputs":[],"stateMutability":"nonpayable"},{"type":"function","name":"setMinter","inputs":[{"name":"_minter","type":"address","internalType":"address"},{"name":"_isActive","type":"bool","internalType":"bool"}],"outputs":[],"stateMutability":"nonpayable"},{"type":"function","name":"setYieldTrackers","inputs":[{"name":"_yieldTrackers","type":"address[]","internalType":"address[]"}],"outputs":[],"stateMutability":"nonpayable"},{"type":"function","name":"stakedBalance","inputs":[{"name":"_account","type":"address","internalType":"address"}],"outputs":[{"name":"","type":"uint256","internalType":"uint256"}],"stateMutability":"view"},{"type":"function","name":"symbol","inputs":[],"outputs":[{"name":"","type":"string","internalType":"string"}],"stateMutability":"view"},{"type":"function","name":"totalStaked","inputs":[],"outputs":[{"name":"","type":"uint256","internalType":"uint256"}],"stateMutability":"view"},{"type":"function","name":"totalSupply","inputs":[],"outputs":[{"name":"","type":"uint256","internalType":"uint256"}],"stateMutability":"view"},{"type":"function","name":"transfer","inputs":[{"name":"_recipient","type":"address","internalType":"address"},{"name":"_amount","type":"uint256","internalType":"uint256"}],"outputs":[{"name":"","type":"bool","internalType":"bool"}],"stateMutability":"nonpayable"},{"type":"function","name":"transferFrom","inputs":[{"name":"_sender","type":"address","internalType":"address"},{"name":"_recipient","type":"address","internalType":"address"},{"name":"_amount","type":"uint256","internalType":"uint256"}],"outputs":[{"name":"","type":"bool","internalType":"bool"}],"stateMutability":"nonpayable"},{"type":"function","name":"withdrawToken","inputs":[{"name":"_token","type":"address","internalType":"address"},{"name":"_account","type":"address","internalType":"address"},{"name":"_amount","type":"uint256","internalType":"uint256"}],"outputs":[],"stateMutability":"nonpayable"},{"type":"function","name":"yieldTrackers","inputs":[{"name":"","type":"uint256","internalType":"uint256"}],"outputs":[{"name":"","type":"address","internalType":"address"}],"stateMutability":"view"},{"type":"event","name":"Approval","inputs":[{"name":"owner","type":"address","indexed":true,"internalType":"address"},{"name":"spender","type":"address","indexed":true,"internalType":"address"},{"name":"value","type":"uint256","indexed":false,"internalType":"uint256"}],"anonymous":false},{"type":"event","name":"Transfer","inputs":[{"name":"from","type":"address","indexed":true,"internalType":"address"},{"name":"to","type":"address","indexed":true,"internalType":"address"},{"name":"value","type":"uint256","indexed":false,"internalType":"uint256"}],"anonymous":false}],"bytecode":{"object":"0x60806040523480156200001157600080fd5b506040516200286538038062002865833981810160405260608110156200003757600080fd5b81019080805160405193929190846401000000008211156200005857600080fd5b9083019060208201858111156200006e57600080fd5b82516401000000008111828201881017156200008957600080fd5b82525081516020918201929091019080838360005b83811015620000b85781810151838201526020016200009e565b50505050905090810190601f168015620000e65780820380516001836020036101000a031916815260200191505b50604052602001805160405193929190846401000000008211156200010a57600080fd5b9083019060208201858111156200012057600080fd5b82516401000000008111828201881017156200013b57600080fd5b82525081516020918201929091019080838360005b838110156200016a57818101518382015260200162000150565b50505050905090810190601f168015620001985780820380516001836020036101000a031916815260200191505b50604052602090810151855190935085925084918491849184918491620001c59160009186019062000443565b508151620001db90600190602085019062000443565b50600480546001600160a01b03191633908117909155620001fd90826200020c565b505050505050505050620004df565b6001600160a01b038216620002535760405162461bcd60e51b8152600401808060200182810382526023815260200180620028426023913960400191505060405180910390fd5b6200025e8262000342565b6200027a81600254620003e160201b620015fb1790919060201c565b6002556001600160a01b038216600090815260056020908152604090912054620002af918390620015fb620003e1821b17901c565b6001600160a01b03831660009081526005602090815260408083209390935560089052205460ff1615620002fd57620002f981600354620003e160201b620015fb1790919060201c565b6003555b6040805182815290516001600160a01b038416916000917fddf252ad1be2c89b69c2b068fc378daa952ba7f163c4a11628f55a4df523b3ef9181900360200190a35050565b60005b600754811015620003dd576000600782815481106200036057fe5b600091825260208220015460408051635fd6196560e01b81526001600160a01b03878116600483015291519190921693508392635fd61965926024808201939182900301818387803b158015620003b657600080fd5b505af1158015620003cb573d6000803e3d6000fd5b50506001909301925062000345915050565b5050565b6000828201838110156200043c576040805162461bcd60e51b815260206004820152601b60248201527f536166654d6174683a206164646974696f6e206f766572666c6f770000000000604482015290519081900360640190fd5b9392505050565b828054600181600116156101000203166002900490600052602060002090601f016020900481019282601f106200048657805160ff1916838001178555620004b6565b82800160010185558215620004b6579182015b82811115620004b657825182559160200191906001019062000499565b50620004c4929150620004c8565b5090565b5b80821115620004c45760008155600101620004c9565b61235380620004ef6000396000f3fe608060405234801561001057600080fd5b50600436106101c75760003560e01c80636228907711610100578063622890771461056e578063685731071461059457806370480275146106b757806370a08231146106dd578063817b1cd2146107035780639554381a1461070b57806395d89b4114610731578063996f11ee146107395780639cb7de4b146107675780639dc29fac14610795578063a9059cbb146107c1578063a923fc40146107ed578063aa271e1a14610916578063c93be6361461093c578063cf456ae714610944578063cfad57a214610972578063dd62ed3e14610998578063dfbaefb1146109c6578063fb30d916146109ce576101c7565b806301e33667146101cc57806306fdde0314610204578063095ea7b31461028157806312d43a51146102c15780631785f53c146102e557806318160ddd1461030b5780631e83409a1461032557806323b872dd1461034b578063276eab4e1461038157806327e235e314610422578063313ce5671461044857806340c10f1914610466578063429b62e51461049257806346ea87af146104b857806352cd38d9146104de57806355b6ed5c146104fb5780635a47a1a7146105295780636021726714610548575b600080fd5b610202600480360360608110156101e257600080fd5b506001600160a01b038135811691602081013590911690604001356109f4565b005b61020c610a5a565b6040805160208082528351818301528351919283929083019185019080838360005b8381101561024657818101518382015260200161022e565b50505050905090810190601f1680156102735780820380516001836020036101000a031916815260200191505b509250505060405180910390f35b6102ad6004803603604081101561029757600080fd5b506001600160a01b038135169060200135610ae8565b604080519115158252519081900360200190f35b6102c9610afe565b604080516001600160a01b039092168252519081900360200190f35b610202600480360360208110156102fb57600080fd5b50356001600160a01b0316610b0d565b610313610b7b565b60408051918252519081900360200190f35b6102026004803603602081101561033b57600080fd5b50356001600160a01b0316610b81565b6102ad6004803603606081101561036157600080fd5b506001600160a01b03813581169160208101359091169060400135610c38565b6102026004803603602081101561039757600080fd5b810190602081018135600160201b8111156103b157600080fd5b8201836020820111156103c357600080fd5b803590602001918460208302840111600160201b831117156103e457600080fd5b919080806020026020016040519081016040528093929190818152602001838360200280828437600092019190915250929550610cd2945050505050565b6103136004803603602081101561043857600080fd5b50356001600160a01b0316610d32565b610450610d44565b6040805160ff9092168252519081900360200190f35b6102026004803603604081101561047c57600080fd5b506001600160a01b038135169060200135610d49565b6102ad600480360360208110156104a857600080fd5b50356001600160a01b0316610da5565b6102ad600480360360208110156104ce57600080fd5b50356001600160a01b0316610dba565b6102c9600480360360208110156104f457600080fd5b5035610dcf565b6103136004803603604081101561051157600080fd5b506001600160a01b0381358116916020013516610df6565b6102026004803603602081101561053f57600080fd5b50351515610e13565b6103136004803603602081101561055e57600080fd5b50356001600160a01b0316610e73565b6102026004803603602081101561058457600080fd5b50356001600160a01b0316610ebc565b610202600480360360408110156105aa57600080fd5b810190602081018135600160201b8111156105c457600080fd5b8201836020820111156105d657600080fd5b803590602001918460208302840111600160201b831117156105f757600080fd5b9190808060200260200160405190810160405280939291908181526020018383602002808284376000920191909152509295949360208101935035915050600160201b81111561064657600080fd5b82018360208201111561065857600080fd5b803590602001918460208302840111600160201b8311171561067957600080fd5b919080806020026020016040519081016040528093929190818152602001838360200280828437600092019190915250929550610faf945050505050565b610202600480360360208110156106cd57600080fd5b50356001600160a01b0316611051565b610313600480360360208110156106f357600080fd5b50356001600160a01b03166110c2565b6103136110dd565b6102ad6004803603602081101561072157600080fd5b50356001600160a01b03166110fb565b61020c611110565b6102026004803603604081101561074f57600080fd5b506001600160a01b038135811691602001351661116a565b6102026004803603604081101561077d57600080fd5b506001600160a01b0381351690602001351515611271565b610202600480360360408110156107ab57600080fd5b506001600160a01b0381351690602001356112e9565b6102ad600480360360408110156107d757600080fd5b506001600160a01b038135169060200135611345565b6102026004803603604081101561080357600080fd5b810190602081018135600160201b81111561081d57600080fd5b82018360208201111561082f57600080fd5b803590602001918460018302840111600160201b8311171561085057600080fd5b91908080601f0160208091040260200160405190810160405280939291908181526020018383808284376000920191909152509295949360208101935035915050600160201b8111156108a257600080fd5b8201836020820111156108b457600080fd5b803590602001918460018302840111600160201b831117156108d557600080fd5b91908080601f016020809104026020016040519081016040528093929190818152602001838380828437600092019190915250929550611352945050505050565b6102ad6004803603602081101561092c57600080fd5b50356001600160a01b03166113c6565b6103136113db565b6102026004803603604081101561095a57600080fd5b506001600160a01b03813516906020013515156113e1565b6102026004803603602081101561098857600080fd5b50356001600160a01b0316611459565b610313600480360360408110156109ae57600080fd5b506001600160a01b03813581169160200135166114c8565b6102ad6114f3565b610202600480360360208110156109e457600080fd5b50356001600160a01b03166114fc565b6004546001600160a01b03163314610a41576040805162461bcd60e51b815260206004820152601460248201526000805160206121cc833981519152604482015290519081900360640190fd5b610a556001600160a01b0384168383611653565b505050565b6000805460408051602060026001851615610100026000190190941693909304601f81018490048402820184019092528181529291830182828015610ae05780601f10610ab557610100808354040283529160200191610ae0565b820191906000526020600020905b815481529060010190602001808311610ac357829003601f168201915b505050505081565b6000610af53384846116a5565b50600192915050565b6004546001600160a01b031681565b6004546001600160a01b03163314610b5a576040805162461bcd60e51b815260206004820152601460248201526000805160206121cc833981519152604482015290519081900360640190fd5b6001600160a01b03166000908152600960205260409020805460ff19169055565b60025481565b60005b600754811015610c3457600060078281548110610b9d57fe5b6000918252602080832090910154604080516310e059a160e11b81523360048201526001600160a01b038881166024830152915191909216945084936321c0b34293604480850194919392918390030190829087803b158015610bff57600080fd5b505af1158015610c13573d6000803e3d6000fd5b505050506040513d6020811015610c2957600080fd5b505050600101610b84565b5050565b336000908152600b602052604081205460ff1615610c6357610c5b848484611791565b506001610ccb565b6000610cad836040518060600160405280602c815260200161215a602c91396001600160a01b038816600090815260066020908152604080832033845290915290205491906119a7565b9050610cba8533836116a5565b610cc5858585611791565b60019150505b9392505050565b6004546001600160a01b03163314610d1f576040805162461bcd60e51b815260206004820152601460248201526000805160206121cc833981519152604482015290519081900360640190fd5b8051610c34906007906020840190611fb1565b60056020526000908152604090205481565b601281565b336000908152600c602052604090205460ff16610d9b576040805162461bcd60e51b815260206004820152601c6024820152600080516020612186833981519152604482015290519081900360640190fd5b610c348282611a3e565b60096020526000908152604090205460ff1681565b600b6020526000908152604090205460ff1681565b60078181548110610ddc57fe5b6000918252602090912001546001600160a01b0316905081565b600660209081526000928352604080842090915290825290205481565b6004546001600160a01b03163314610e60576040805162461bcd60e51b815260206004820152601460248201526000805160206121cc833981519152604482015290519081900360640190fd5b600a805460ff1916911515919091179055565b6001600160a01b03811660009081526008602052604081205460ff1615610e9c57506000610eb7565b506001600160a01b0381166000908152600560205260409020545b919050565b3360009081526009602052604090205460ff16610f0e576040805162461bcd60e51b815260206004820152601460248201526000805160206121cc833981519152604482015290519081900360640190fd5b6001600160a01b03811660009081526008602052604090205460ff1615610f665760405162461bcd60e51b815260040180806020018281038252602281526020018061225e6022913960400191505060405180910390fd5b610f6f81611b30565b6001600160a01b0381166000908152600860209081526040808320805460ff191660011790556005909152902054600354610fa9916115fb565b60035550565b336000908152600c602052604090205460ff16611001576040805162461bcd60e51b815260206004820152601c6024820152600080516020612186833981519152604482015290519081900360640190fd5b60005b8251811015610a5557600083828151811061101b57fe5b60200260200101519050600083838151811061103357fe5b602002602001015190506110478282611a3e565b5050600101611004565b6004546001600160a01b0316331461109e576040805162461bcd60e51b815260206004820152601460248201526000805160206121cc833981519152604482015290519081900360640190fd5b6001600160a01b03166000908152600960205260409020805460ff19166001179055565b6001600160a01b031660009081526005602052604090205490565b60006110f6600354600254611bc690919063ffffffff16565b905090565b60086020526000908152604090205460ff1681565b60018054604080516020600284861615610100026000190190941693909304601f81018490048402820184019092528181529291830182828015610ae05780601f10610ab557610100808354040283529160200191610ae0565b3360009081526009602052604090205460ff166111bc576040805162461bcd60e51b815260206004820152601460248201526000805160206121cc833981519152604482015290519081900360640190fd5b60005b600754811015610a55576000600782815481106111d857fe5b6000918252602080832090910154604080516310e059a160e11b81526001600160a01b0389811660048301528881166024830152915191909216945084936321c0b34293604480850194919392918390030190829087803b15801561123c57600080fd5b505af1158015611250573d6000803e3d6000fd5b505050506040513d602081101561126657600080fd5b5050506001016111bf565b6004546001600160a01b031633146112be576040805162461bcd60e51b815260206004820152601460248201526000805160206121cc833981519152604482015290519081900360640190fd5b6001600160a01b03919091166000908152600b60205260409020805460ff1916911515919091179055565b336000908152600c602052604090205460ff1661133b576040805162461bcd60e51b815260206004820152601c6024820152600080516020612186833981519152604482015290519081900360640190fd5b610c348282611c08565b6000610af5338484611791565b6004546001600160a01b0316331461139f576040805162461bcd60e51b815260206004820152601460248201526000805160206121cc833981519152604482015290519081900360640190fd5b81516113b2906000906020850190612016565b508051610a55906001906020840190612016565b600c6020526000908152604090205460ff1681565b60035481565b6004546001600160a01b0316331461142e576040805162461bcd60e51b815260206004820152601460248201526000805160206121cc833981519152604482015290519081900360640190fd5b6001600160a01b03919091166000908152600c60205260409020805460ff1916911515919091179055565b6004546001600160a01b031633146114a6576040805162461bcd60e51b815260206004820152601460248201526000805160206121cc833981519152604482015290519081900360640190fd5b600480546001600160a01b0319166001600160a01b0392909216919091179055565b6001600160a01b03918216600090815260066020908152604080832093909416825291909152205490565b600a5460ff1681565b3360009081526009602052604090205460ff1661154e576040805162461bcd60e51b815260206004820152601460248201526000805160206121cc833981519152604482015290519081900360640190fd5b6001600160a01b03811660009081526008602052604090205460ff166115bb576040805162461bcd60e51b815260206004820152601e60248201527f42617365546f6b656e3a205f6163636f756e74206e6f74206d61726b65640000604482015290519081900360640190fd5b6115c481611b30565b6001600160a01b0381166000908152600860209081526040808320805460ff191690556005909152902054600354610fa991611bc6565b600082820183811015610ccb576040805162461bcd60e51b815260206004820152601b60248201527a536166654d6174683a206164646974696f6e206f766572666c6f7760281b604482015290519081900360640190fd5b604080516001600160a01b038416602482015260448082018490528251808303909101815260649091019091526020810180516001600160e01b031663a9059cbb60e01b179052610a55908490611d21565b6001600160a01b0383166116ea5760405162461bcd60e51b81526004018080602001828103825260288152602001806121ec6028913960400191505060405180910390fd5b6001600160a01b03821661172f5760405162461bcd60e51b81526004018080602001828103825260268152602001806121346026913960400191505060405180910390fd5b6001600160a01b03808416600081815260066020908152604080832094871680845294825291829020859055815185815291517f8c5be1e5ebec7d5bd14f71427d1e84f3dd0314c0f7b2291e5b200ac8c7c3b9259281900390910190a3505050565b6001600160a01b0383166117d65760405162461bcd60e51b81526004018080602001828103825260298152602001806122f56029913960400191505060405180910390fd5b6001600160a01b03821661181b5760405162461bcd60e51b81526004018080602001828103825260278152602001806120ea6027913960400191505060405180910390fd5b600a5460ff161561187457336000908152600b602052604090205460ff166118745760405162461bcd60e51b81526004018080602001828103825260258152602001806120c56025913960400191505060405180910390fd5b61187d83611b30565b61188682611b30565b6118c3816040518060600160405280602a8152602001612214602a91396001600160a01b03861660009081526005602052604090205491906119a7565b6001600160a01b0380851660009081526005602052604080822093909355908416815220546118f290826115fb565b6001600160a01b0380841660009081526005602090815260408083209490945591861681526008909152205460ff1615611937576003546119339082611bc6565b6003555b6001600160a01b03821660009081526008602052604090205460ff16156119695760035461196590826115fb565b6003555b816001600160a01b0316836001600160a01b031660008051602061223e833981519152836040518082815260200191505060405180910390a3505050565b60008184841115611a365760405162461bcd60e51b81526004018080602001828103825283818151815260200191508051906020019080838360005b838110156119fb5781810151838201526020016119e3565b50505050905090810190601f168015611a285780820380516001836020036101000a031916815260200191505b509250505060405180910390fd5b505050900390565b6001600160a01b038216611a835760405162461bcd60e51b81526004018080602001828103825260238152602001806121116023913960400191505060405180910390fd5b611a8c82611b30565b600254611a9990826115fb565b6002556001600160a01b038216600090815260056020526040902054611abf90826115fb565b6001600160a01b03831660009081526005602090815260408083209390935560089052205460ff1615611afd57600354611af990826115fb565b6003555b6040805182815290516001600160a01b0384169160009160008051602061223e8339815191529181900360200190a35050565b60005b600754811015610c3457600060078281548110611b4c57fe5b600091825260208220015460408051635fd6196560e01b81526001600160a01b03878116600483015291519190921693508392635fd61965926024808201939182900301818387803b158015611ba157600080fd5b505af1158015611bb5573d6000803e3d6000fd5b505060019093019250611b33915050565b6000610ccb83836040518060400160405280601e81526020017f536166654d6174683a207375627472616374696f6e206f766572666c6f7700008152506119a7565b6001600160a01b038216611c4d5760405162461bcd60e51b81526004018080602001828103825260258152602001806122d06025913960400191505060405180910390fd5b611c5682611b30565b611c9381604051806060016040528060268152602001612280602691396001600160a01b03851660009081526005602052604090205491906119a7565b6001600160a01b038316600090815260056020526040902055600254611cb99082611bc6565b6002556001600160a01b03821660009081526008602052604090205460ff1615611cee57600354611cea9082611bc6565b6003555b6040805182815290516000916001600160a01b0385169160008051602061223e8339815191529181900360200190a35050565b6060611d76826040518060400160405280602081526020017f5361666545524332303a206c6f772d6c6576656c2063616c6c206661696c6564815250856001600160a01b0316611dd29092919063ffffffff16565b805190915015610a5557808060200190516020811015611d9557600080fd5b5051610a555760405162461bcd60e51b815260040180806020018281038252602a8152602001806122a6602a913960400191505060405180910390fd5b6060611de18484600085611de9565b949350505050565b606082471015611e2a5760405162461bcd60e51b81526004018080602001828103825260268152602001806121a66026913960400191505060405180910390fd5b611e3385611f45565b611e84576040805162461bcd60e51b815260206004820152601d60248201527f416464726573733a2063616c6c20746f206e6f6e2d636f6e7472616374000000604482015290519081900360640190fd5b60006060866001600160a01b031685876040518082805190602001908083835b60208310611ec35780518252601f199092019160209182019101611ea4565b6001836020036101000a03801982511681845116808217855250505050505090500191505060006040518083038185875af1925050503d8060008114611f25576040519150601f19603f3d011682016040523d82523d6000602084013e611f2a565b606091505b5091509150611f3a828286611f4b565b979650505050505050565b3b151590565b60608315611f5a575081610ccb565b825115611f6a5782518084602001fd5b60405162461bcd60e51b81526020600482018181528451602484015284518593919283926044019190850190808383600083156119fb5781810151838201526020016119e3565b828054828255906000526020600020908101928215612006579160200282015b8281111561200657825182546001600160a01b0319166001600160a01b03909116178255602090920191600190910190611fd1565b50612012929150612090565b5090565b828054600181600116156101000203166002900490600052602060002090601f016020900481019282601f1061205757805160ff1916838001178555612084565b82800160010185558215612084579182015b82811115612084578251825591602001919060010190612069565b506120129291506120af565b5b808211156120125780546001600160a01b0319168155600101612091565b5b8082111561201257600081556001016120b056fe42617365546f6b656e3a206d73672e73656e646572206e6f742077686974656c697374656442617365546f6b656e3a207472616e7366657220746f20746865207a65726f206164647265737342617365546f6b656e3a206d696e7420746f20746865207a65726f206164647265737342617365546f6b656e3a20617070726f766520746f20746865207a65726f206164647265737342617365546f6b656e3a207472616e7366657220616d6f756e74206578636565647320616c6c6f77616e63654d696e7461626c6542617365546f6b656e3a20666f7262696464656e00000000416464726573733a20696e73756666696369656e742062616c616e636520666f722063616c6c42617365546f6b656e3a20666f7262696464656e00000000000000000000000042617365546f6b656e3a20617070726f76652066726f6d20746865207a65726f206164647265737342617365546f6b656e3a207472616e7366657220616d6f756e7420657863656564732062616c616e6365ddf252ad1be2c89b69c2b068fc378daa952ba7f163c4a11628f55a4df523b3ef42617365546f6b656e3a205f6163636f756e7420616c7265616479206d61726b656442617365546f6b656e3a206275726e20616d6f756e7420657863656564732062616c616e63655361666545524332303a204552433230206f7065726174696f6e20646964206e6f74207375636365656442617365546f6b656e3a206275726e2066726f6d20746865207a65726f206164647265737342617365546f6b656e3a207472616e736665722066726f6d20746865207a65726f2061646472657373a2646970667358221220542d36e19ef8775e3a30f49d1e1aa3779b8667fb89c629821b66830ff5fa1b3164736f6c634300060c003342617365546f6b656e3a206d696e7420746f20746865207a65726f2061646472657373","linkReferences":{}},"methodIdentifiers":{"addAdmin(address)":"70480275","addNonStakingAccount(address)":"62289077","admins(address)":"429b62e5","allowance(address,address)":"dd62ed3e","allowances(address,address)":"55b6ed5c","approve(address,uint256)":"095ea7b3","balanceOf(address)":"70a08231","balances(address)":"27e235e3","batchMint(address[],uint256[])":"68573107","burn(address,uint256)":"9dc29fac","claim(address)":"1e83409a","decimals()":"313ce567","gov()":"12d43a51","inPrivateTransferMode()":"dfbaefb1","isHandler(address)":"46ea87af","isMinter(address)":"aa271e1a","mint(address,uint256)":"40c10f19","name()":"06fdde03","nonStakingAccounts(address)":"9554381a","nonStakingSupply()":"c93be636","recoverClaim(address,address)":"996f11ee","removeAdmin(address)":"1785f53c","removeNonStakingAccount(address)":"fb30d916","setGov(address)":"cfad57a2","setHandler(address,bool)":"9cb7de4b","setInPrivateTransferMode(bool)":"5a47a1a7","setInfo(string,string)":"a923fc40","setMinter(address,bool)":"cf456ae7","setYieldTrackers(address[])":"276eab4e","stakedBalance(address)":"60217267","symbol()":"95d89b41","totalStaked()":"817b1cd2","totalSupply()":"18160ddd","transfer(address,uint256)":"a9059cbb","transferFrom(address,address,uint256)":"23b872dd","withdrawToken(address,address,uint256)":"01e33667","yieldTrackers(uint256)":"52cd38d9"},"id":96}