{"abi":[{"type":"constructor","inputs":[{"name":"_positionRouter","type":"address","internalType":"address"}],"stateMutability":"nonpayable"},{"type":"receive","stateMutability":"payable"},{"type":"function","name":"createIncreasePositionETH","inputs":[{"name":"_path","type":"address[]","internalType":"address[]"},{"name":"_indexToken","type":"address","internalType":"address"},{"name":"_minOut","type":"uint256","internalType":"uint256"},{"name":"_sizeDelta","type":"uint256","internalType":"uint256"},{"name":"_isLong","type":"bool","internalType":"bool"},{"name":"_acceptablePrice","type":"uint256","internalType":"uint256"},{"name":"_executionFee","type":"uint256","internalType":"uint256"},{"name":"_referralCode","type":"bytes32","internalType":"bytes32"},{"name":"_callbackTarget","type":"address","internalType":"address"}],"outputs":[],"stateMutability":"payable"},{"type":"function","name":"positionRouter","inputs":[],"outputs":[{"name":"","type":"address","internalType":"address"}],"stateMutability":"view"},{"type":"event","name":"Received","inputs":[],"anonymous":false}],"bytecode":{"object":"0x608060405234801561001057600080fd5b506040516104683803806104688339818101604052602081101561003357600080fd5b5051600080546001600160a01b039092166001600160a01b0319909216919091179055610403806100656000396000f3fe60806040526004361061002d5760003560e01c80635b88e8c61461007f57806361ef161f1461015a5761007a565b3661007a576000805b620f424081101561004d5790810290600101610036565b506040517f544c765b33ca411cce832250371569244f765a17fcd217832be093f0fd5fa45b90600090a150005b600080fd5b610158600480360361012081101561009657600080fd5b810190602081018135600160201b8111156100b057600080fd5b8201836020820111156100c257600080fd5b803590602001918460208302840111600160201b831117156100e357600080fd5b919080806020026020016040519081016040528093929190818152602001838360200280828437600092019190915250929550505081356001600160a01b03908116935060208301359260408101359250606081013515159160808201359160a08101359160c08201359160e001351661018b565b005b34801561016657600080fd5b5061016f6103be565b604080516001600160a01b039092168252519081900360200190f35b6000606060008054906101000a90046001600160a01b03166001600160a01b0316348c8c8c8c8c8c8c8c8c60405160240180806020018a6001600160a01b031681526020018981526020018881526020018715158152602001868152602001858152602001848152602001836001600160a01b0316815260200182810382528b818151815260200191508051906020019060200280838360005b8381101561023d578181015183820152602001610225565b505050509050019a5050505050505050505050604051602081830303815290604052632dc4746360e11b6001600160e01b0319166020820180516001600160e01b0383818316178352505050506040518082805190602001908083835b602083106102b95780518252601f19909201916020918201910161029a565b6001836020036101000a03801982511681845116808217855250505050505090500191505060006040518083038185875af1925050503d806000811461031b576040519150601f19603f3d011682016040523d82523d6000602084013e610320565b606091505b50915091508181906103b05760405162461bcd60e51b81526004018080602001828103825283818151815260200191508051906020019080838360005b8381101561037557818101518382015260200161035d565b50505050905090810190601f1680156103a25780820380516001836020036101000a031916815260200191505b509250505060405180910390fd5b505050505050505050505050565b6000546001600160a01b03168156fea26469706673582212205233f5f1966830b41a02464d3a0c05ecfaf756ba3e86cce69d463053c9e861c364736f6c634300060c0033","linkReferences":{}},"methodIdentifiers":{"createIncreasePositionETH(address[],address,uint256,uint256,bool,uint256,uint256,bytes32,address)":"5b88e8c6","positionRouter()":"61ef161f"},"id":63}