{"abi":[{"type":"constructor","inputs":[{"name":"_vault","type":"address","internalType":"address"},{"name":"_router","type":"address","internalType":"address"},{"name":"_shortsTracker","type":"address","internalType":"address"},{"name":"_weth","type":"address","internalType":"address"},{"name":"_depositFee","type":"uint256","internalType":"uint256"},{"name":"_orderBook","type":"address","internalType":"address"}],"stateMutability":"nonpayable"},{"type":"receive","stateMutability":"payable"},{"type":"function","name":"BASIS_POINTS_DIVISOR","inputs":[],"outputs":[{"name":"","type":"uint256","internalType":"uint256"}],"stateMutability":"view"},{"type":"function","name":"acceptGov","inputs":[],"outputs":[],"stateMutability":"nonpayable"},{"type":"function","name":"admin","inputs":[],"outputs":[{"name":"","type":"address","internalType":"address"}],"stateMutability":"view"},{"type":"function","name":"approve","inputs":[{"name":"_token","type":"address","internalType":"address"},{"name":"_spender","type":"address","internalType":"address"},{"name":"_amount","type":"uint256","internalType":"uint256"}],"outputs":[],"stateMutability":"nonpayable"},{"type":"function","name":"cancelGovProposal","inputs":[{"name":"_gov","type":"address","internalType":"address"}],"outputs":[],"stateMutability":"nonpayable"},{"type":"function","name":"decreasePosition","inputs":[{"name":"_collateralToken","type":"address","internalType":"address"},{"name":"_indexToken","type":"address","internalType":"address"},{"name":"_collateralDelta","type":"uint256","internalType":"uint256"},{"name":"_sizeDelta","type":"uint256","internalType":"uint256"},{"name":"_isLong","type":"bool","internalType":"bool"},{"name":"_receiver","type":"address","internalType":"address"},{"name":"_price","type":"uint256","internalType":"uint256"}],"outputs":[],"stateMutability":"nonpayable"},{"type":"function","name":"decreasePositionAndSwap","inputs":[{"name":"_path","type":"address[]","internalType":"address[]"},{"name":"_indexToken","type":"address","internalType":"address"},{"name":"_collateralDelta","type":"uint256","internalType":"uint256"},{"name":"_sizeDelta","type":"uint256","internalType":"uint256"},{"name":"_isLong","type":"bool","internalType":"bool"},{"name":"_receiver","type":"address","internalType":"address"},{"name":"_price","type":"uint256","internalType":"uint256"},{"name":"_minOut","type":"uint256","internalType":"uint256"}],"outputs":[],"stateMutability":"nonpayable"},{"type":"function","name":"decreasePositionAndSwapETH","inputs":[{"name":"_path","type":"address[]","internalType":"address[]"},{"name":"_indexToken","type":"address","internalType":"address"},{"name":"_collateralDelta","type":"uint256","internalType":"uint256"},{"name":"_sizeDelta","type":"uint256","internalType":"uint256"},{"name":"_isLong","type":"bool","internalType":"bool"},{"name":"_receiver","type":"address","internalType":"address payable"},{"name":"_price","type":"uint256","internalType":"uint256"},{"name":"_minOut","type":"uint256","internalType":"uint256"}],"outputs":[],"stateMutability":"nonpayable"},{"type":"function","name":"decreasePositionETH","inputs":[{"name":"_collateralToken","type":"address","internalType":"address"},{"name":"_indexToken","type":"address","internalType":"address"},{"name":"_collateralDelta","type":"uint256","internalType":"uint256"},{"name":"_sizeDelta","type":"uint256","internalType":"uint256"},{"name":"_isLong","type":"bool","internalType":"bool"},{"name":"_receiver","type":"address","internalType":"address payable"},{"name":"_price","type":"uint256","internalType":"uint256"}],"outputs":[],"stateMutability":"nonpayable"},{"type":"function","name":"depositFee","inputs":[],"outputs":[{"name":"","type":"uint256","internalType":"uint256"}],"stateMutability":"view"},{"type":"function","name":"ethTransferGasLimit","inputs":[],"outputs":[{"name":"","type":"uint256","internalType":"uint256"}],"stateMutability":"view"},{"type":"function","name":"executeDecreaseOrder","inputs":[{"name":"_account","type":"address","internalType":"address"},{"name":"_orderIndex","type":"uint256","internalType":"uint256"},{"name":"_feeReceiver","type":"address","internalType":"address payable"}],"outputs":[],"stateMutability":"nonpayable"},{"type":"function","name":"executeIncreaseOrder","inputs":[{"name":"_account","type":"address","internalType":"address"},{"name":"_orderIndex","type":"uint256","internalType":"uint256"},{"name":"_feeReceiver","type":"address","internalType":"address payable"}],"outputs":[],"stateMutability":"nonpayable"},{"type":"function","name":"executeSwapOrder","inputs":[{"name":"_account","type":"address","internalType":"address"},{"name":"_orderIndex","type":"uint256","internalType":"uint256"},{"name":"_feeReceiver","type":"address","internalType":"address payable"}],"outputs":[],"stateMutability":"nonpayable"},{"type":"function","name":"feeReserves","inputs":[{"name":"","type":"address","internalType":"address"}],"outputs":[{"name":"","type":"uint256","internalType":"uint256"}],"stateMutability":"view"},{"type":"function","name":"gov","inputs":[],"outputs":[{"name":"","type":"address","internalType":"address"}],"stateMutability":"view"},{"type":"function","name":"govProposals","inputs":[{"name":"","type":"address","internalType":"address"}],"outputs":[{"name":"deadline","type":"uint256","internalType":"uint256"},{"name":"isActive","type":"bool","internalType":"bool"}],"stateMutability":"view"},{"type":"function","name":"inLegacyMode","inputs":[],"outputs":[{"name":"","type":"bool","internalType":"bool"}],"stateMutability":"view"},{"type":"function","name":"increasePosition","inputs":[{"name":"_path","type":"address[]","internalType":"address[]"},{"name":"_indexToken","type":"address","internalType":"address"},{"name":"_amountIn","type":"uint256","internalType":"uint256"},{"name":"_minOut","type":"uint256","internalType":"uint256"},{"name":"_sizeDelta","type":"uint256","internalType":"uint256"},{"name":"_isLong","type":"bool","internalType":"bool"},{"name":"_price","type":"uint256","internalType":"uint256"}],"outputs":[],"stateMutability":"nonpayable"},{"type":"function","name":"increasePositionBufferBps","inputs":[],"outputs":[{"name":"","type":"uint256","internalType":"uint256"}],"stateMutability":"view"},{"type":"function","name":"increasePositionETH","inputs":[{"name":"_path","type":"address[]","internalType":"address[]"},{"name":"_indexToken","type":"address","internalType":"address"},{"name":"_minOut","type":"uint256","internalType":"uint256"},{"name":"_sizeDelta","type":"uint256","internalType":"uint256"},{"name":"_isLong","type":"bool","internalType":"bool"},{"name":"_price","type":"uint256","internalType":"uint256"}],"outputs":[],"stateMutability":"payable"},{"type":"function","name":"isLiquidator","inputs":[{"name":"","type":"address","internalType":"address"}],"outputs":[{"name":"","type":"bool","internalType":"bool"}],"stateMutability":"view"},{"type":"function","name":"isOrderKeeper","inputs":[{"name":"","type":"address","internalType":"address"}],"outputs":[{"name":"","type":"bool","internalType":"bool"}],"stateMutability":"view"},{"type":"function","name":"isPartner","inputs":[{"name":"","type":"address","internalType":"address"}],"outputs":[{"name":"","type":"bool","internalType":"bool"}],"stateMutability":"view"},{"type":"function","name":"liquidatePosition","inputs":[{"name":"_account","type":"address","internalType":"address"},{"name":"_collateralToken","type":"address","internalType":"address"},{"name":"_indexToken","type":"address","internalType":"address"},{"name":"_isLong","type":"bool","internalType":"bool"},{"name":"_feeReceiver","type":"address","internalType":"address"}],"outputs":[],"stateMutability":"nonpayable"},{"type":"function","name":"maxGlobalLongSizes","inputs":[{"name":"","type":"address","internalType":"address"}],"outputs":[{"name":"","type":"uint256","internalType":"uint256"}],"stateMutability":"view"},{"type":"function","name":"maxGlobalShortSizes","inputs":[{"name":"","type":"address","internalType":"address"}],"outputs":[{"name":"","type":"uint256","internalType":"uint256"}],"stateMutability":"view"},{"type":"function","name":"orderBook","inputs":[],"outputs":[{"name":"","type":"address","internalType":"address"}],"stateMutability":"view"},{"type":"function","name":"referralStorage","inputs":[],"outputs":[{"name":"","type":"address","internalType":"address"}],"stateMutability":"view"},{"type":"function","name":"router","inputs":[],"outputs":[{"name":"","type":"address","internalType":"address"}],"stateMutability":"view"},{"type":"function","name":"sendValue","inputs":[{"name":"_receiver","type":"address","internalType":"address payable"},{"name":"_amount","type":"uint256","internalType":"uint256"}],"outputs":[],"stateMutability":"nonpayable"},{"type":"function","name":"setAdmin","inputs":[{"name":"_admin","type":"address","internalType":"address"}],"outputs":[],"stateMutability":"nonpayable"},{"type":"function","name":"setDepositFee","inputs":[{"name":"_depositFee","type":"uint256","internalType":"uint256"}],"outputs":[],"stateMutability":"nonpayable"},{"type":"function","name":"setEthTransferGasLimit","inputs":[{"name":"_ethTransferGasLimit","type":"uint256","internalType":"uint256"}],"outputs":[],"stateMutability":"nonpayable"},{"type":"function","name":"setGov","inputs":[{"name":"_gov","type":"address","internalType":"address"}],"outputs":[],"stateMutability":"nonpayable"},{"type":"function","name":"setGovWithDeadline","inputs":[{"name":"_gov","type":"address","internalType":"address"},{"name":"_deadline","type":"uint256","internalType":"uint256"}],"outputs":[],"stateMutability":"nonpayable"},{"type":"function","name":"setInLegacyMode","inputs":[{"name":"_inLegacyMode","type":"bool","internalType":"bool"}],"outputs":[],"stateMutability":"nonpayable"},{"type":"function","name":"setIncreasePositionBufferBps","inputs":[{"name":"_increasePositionBufferBps","type":"uint256","internalType":"uint256"}],"outputs":[],"stateMutability":"nonpayable"},{"type":"function","name":"setLiquidator","inputs":[{"name":"_account","type":"address","internalType":"address"},{"name":"_isActive","type":"bool","internalType":"bool"}],"outputs":[],"stateMutability":"nonpayable"},{"type":"function","name":"setMaxGlobalSizes","inputs":[{"name":"_tokens","type":"address[]","internalType":"address[]"},{"name":"_longSizes","type":"uint256[]","internalType":"uint256[]"},{"name":"_shortSizes","type":"uint256[]","internalType":"uint256[]"}],"outputs":[],"stateMutability":"nonpayable"},{"type":"function","name":"setOrderKeeper","inputs":[{"name":"_account","type":"address","internalType":"address"},{"name":"_isActive","type":"bool","internalType":"bool"}],"outputs":[],"stateMutability":"nonpayable"},{"type":"function","name":"setPartner","inputs":[{"name":"_account","type":"address","internalType":"address"},{"name":"_isActive","type":"bool","internalType":"bool"}],"outputs":[],"stateMutability":"nonpayable"},{"type":"function","name":"setReferralStorage","inputs":[{"name":"_referralStorage","type":"address","internalType":"address"}],"outputs":[],"stateMutability":"nonpayable"},{"type":"function","name":"setShouldValidateIncreaseOrder","inputs":[{"name":"_shouldValidateIncreaseOrder","type":"bool","internalType":"bool"}],"outputs":[],"stateMutability":"nonpayable"},{"type":"function","name":"shortsTracker","inputs":[],"outputs":[{"name":"","type":"address","internalType":"address"}],"stateMutability":"view"},{"type":"function","name":"shouldValidateIncreaseOrder","inputs":[],"outputs":[{"name":"","type":"bool","internalType":"bool"}],"stateMutability":"view"},{"type":"function","name":"vault","inputs":[],"outputs":[{"name":"","type":"address","internalType":"address"}],"stateMutability":"view"},{"type":"function","name":"weth","inputs":[],"outputs":[{"name":"","type":"address","internalType":"address"}],"stateMutability":"view"},{"type":"function","name":"withdrawFees","inputs":[{"name":"_token","type":"address","internalType":"address"},{"name":"_receiver","type":"address","internalType":"address"}],"outputs":[],"stateMutability":"nonpayable"},{"type":"event","name":"DecreasePositionReferral","inputs":[{"name":"account","type":"address","indexed":false,"internalType":"address"},{"name":"sizeDelta","type":"uint256","indexed":false,"internalType":"uint256"},{"name":"marginFeeBasisPoints","type":"uint256","indexed":false,"internalType":"uint256"},{"name":"referralCode","type":"bytes32","indexed":false,"internalType":"bytes32"},{"name":"referrer","type":"address","indexed":false,"internalType":"address"}],"anonymous":false},{"type":"event","name":"GovernanceTransferRequested","inputs":[{"name":"newGov","type":"address","indexed":true,"internalType":"address"},{"name":"deadline","type":"uint256","indexed":false,"internalType":"uint256"}],"anonymous":false},{"type":"event","name":"GovernanceTransferred","inputs":[{"name":"oldGov","type":"address","indexed":true,"internalType":"address"},{"name":"newGov","type":"address","indexed":true,"internalType":"address"}],"anonymous":false},{"type":"event","name":"IncreasePositionReferral","inputs":[{"name":"account","type":"address","indexed":false,"internalType":"address"},{"name":"sizeDelta","type":"uint256","indexed":false,"internalType":"uint256"},{"name":"marginFeeBasisPoints","type":"uint256","indexed":false,"internalType":"uint256"},{"name":"referralCode","type":"bytes32","indexed":false,"internalType":"bytes32"},{"name":"referrer","type":"address","indexed":false,"internalType":"address"}],"anonymous":false},{"type":"event","name":"SetAdmin","inputs":[{"name":"admin","type":"address","indexed":false,"internalType":"address"}],"anonymous":false},{"type":"event","name":"SetDepositFee","inputs":[{"name":"depositFee","type":"uint256","indexed":false,"internalType":"uint256"}],"anonymous":false},{"type":"event","name":"SetEthTransferGasLimit","inputs":[{"name":"ethTransferGasLimit","type":"uint256","indexed":false,"internalType":"uint256"}],"anonymous":false},{"type":"event","name":"SetInLegacyMode","inputs":[{"name":"inLegacyMode","type":"bool","indexed":false,"internalType":"bool"}],"anonymous":false},{"type":"event","name":"SetIncreasePositionBufferBps","inputs":[{"name":"increasePositionBufferBps","type":"uint256","indexed":false,"internalType":"uint256"}],"anonymous":false},{"type":"event","name":"SetLiquidator","inputs":[{"name":"account","type":"address","indexed":true,"internalType":"address"},{"name":"isActive","type":"bool","indexed":false,"internalType":"bool"}],"anonymous":false},{"type":"event","name":"SetMaxGlobalSizes","inputs":[{"name":"tokens","type":"address[]","indexed":false,"internalType":"address[]"},{"name":"longSizes","type":"uint256[]","indexed":false,"internalType":"uint256[]"},{"name":"shortSizes","type":"uint256[]","indexed":false,"internalType":"uint256[]"}],"anonymous":false},{"type":"event","name":"SetOrderKeeper","inputs":[{"name":"account","type":"address","indexed":true,"internalType":"address"},{"name":"isActive","type":"bool","indexed":false,"internalType":"bool"}],"anonymous":false},{"type":"event","name":"SetPartner","inputs":[{"name":"account","type":"address","indexed":false,"internalType":"address"},{"name":"isActive","type":"bool","indexed":false,"internalType":"bool"}],"anonymous":false},{"type":"event","name":"SetReferralStorage","inputs":[{"name":"referralStorage","type":"address","indexed":false,"internalType":"address"}],"anonymous":false},{"type":"event","name":"SetShouldValidateIncreaseOrder","inputs":[{"name":"shouldValidateIncreaseOrder","type":"bool","indexed":false,"internalType":"bool"}],"anonymous":false},{"type":"event","name":"WithdrawFees","inputs":[{"name":"token","type":"address","indexed":false,"internalType":"address"},{"name":"receiver","type":"address","indexed":false,"internalType":"address"},{"name":"amount","type":"uint256","indexed":false,"internalType":"uint256"}],"anonymous":false}],"bytecode":{"object":"0x6101006040526207a1206004556064600655600b805460ff60a81b1916600160a81b1790553480156200003157600080fd5b50604051620058b1380380620058b1833981810160405260c08110156200005757600080fd5b5080516020820151604083015160608085015160808087015160a097880151600180546001600160a01b0319908116339081179092556001600160601b031999871b8a1690945296851b881660c05292841b871660e0526005559290911b9093169093526003805484169091179055600b80546001600160a01b039092169190921617905560805160601c60a05160601c60c05160601c60e05160601c6156e4620001cd60003980610251528061195d5280611b395280611c0d52806126685280612727528061426952806144ae52508061290652806129d0528061399d528061401b52806147695250806113a65280611f425280612f37528061342a5280613f5352806147915250806111235280611a255280611f08528061274952806127935280612a155280612ad85280612cb35280613196528061325e52806139c15280613a925280613cdc528061453c528061474152806149c15280614c335280614dd75280615060528061517652506156e46000f3fe6080604052600436106102415760003560e01c806367a527931161013557806367a52793146108955780636bb22fd7146108aa578063704b6c02146108e3578063776af5ba146109165780637bc6729b1461092b5780638c0f9aac146109405780638d0fedb01461097357806390205d8c146109bf5780639698d25a14610a1e57806398d1e03a14610a515780639c35b49714610a665780639c95332f14610a99578063ae4d7f9a14610ac5578063b32755de14610af8578063b7ddc99214610bbb578063cfad57a214610c91578063d38ab51914610cc4578063d4ca83f914610d07578063de2ea94814610d1c578063e1f21c6714610d71578063ef12c67e14610db4578063f255527814610f66578063f851a44014610fa1578063f887ea4014610fb6578063fbfa77cf14610fcb576102b6565b80626cc35e146102bb57806307c7edc3146102ec5780631045c74e1461032f57806311d9444a14610374578063126082cf146103b757806312d43a51146103cc5780631b904359146103e15780631ce9cb8f1461040d5780631e2615381461044057806321acf6591461047b578063233bfe3b146104b657806324a084df146104e05780632d79cf42146105195780633039e37f1461052e5780633833f5f51461060e5780633a9b52ad146106555780633fc8cef31461067f578063430ed37c146106945780634453a374146106f35780634584bd4b1461072e578063490ae21014610743578063529a356f1461076d5780635fc8500e146107a0578063657bc5d014610880576102b6565b366102b657336001600160a01b037f000000000000000000000000000000000000000000000000000000000000000016146102b4576040805162461bcd60e51b815260206004820152600e60248201526d34b73b30b634b21039b2b73232b960911b604482015290519081900360640190fd5b005b600080fd5b3480156102c757600080fd5b506102d0610fe0565b604080516001600160a01b039092168252519081900360200190f35b3480156102f857600080fd5b506102b46004803603606081101561030f57600080fd5b506001600160a01b03813581169160208101359160409091013516610fef565b34801561033b57600080fd5b506103626004803603602081101561035257600080fd5b50356001600160a01b03166110bb565b60408051918252519081900360200190f35b34801561038057600080fd5b506102b46004803603606081101561039757600080fd5b506001600160a01b038135811691602081013591604090910135166110cd565b3480156103c357600080fd5b5061036261155c565b3480156103d857600080fd5b506102d0611562565b3480156103ed57600080fd5b506102b46004803603602081101561040457600080fd5b50351515611571565b34801561041957600080fd5b506103626004803603602081101561043057600080fd5b50356001600160a01b031661160f565b34801561044c57600080fd5b506102b46004803603604081101561046357600080fd5b506001600160a01b0381351690602001351515611621565b34801561048757600080fd5b506102b46004803603604081101561049e57600080fd5b506001600160a01b03813516906020013515156116cc565b3480156104c257600080fd5b506102b4600480360360208110156104d957600080fd5b503561177b565b3480156104ec57600080fd5b506102b46004803603604081101561050357600080fd5b506001600160a01b038135169060200135611801565b34801561052557600080fd5b50610362611865565b34801561053a57600080fd5b506102b4600480360361010081101561055257600080fd5b810190602081018135600160201b81111561056c57600080fd5b82018360208201111561057e57600080fd5b803590602001918460208302840111600160201b8311171561059f57600080fd5b919080806020026020016040519081016040528093929190818152602001838360200280828437600092019190915250929550505081356001600160a01b0390811693506020830135926040810135925060608101351515916080820135169060a08101359060c0013561186b565b34801561061a57600080fd5b506106416004803603602081101561063157600080fd5b50356001600160a01b0316611a9c565b604080519115158252519081900360200190f35b34801561066157600080fd5b506102b46004803603602081101561067857600080fd5b5035611ab1565b34801561068b57600080fd5b506102d0611b37565b3480156106a057600080fd5b506102b4600480360360e08110156106b757600080fd5b506001600160a01b0381358116916020810135821691604082013591606081013591608082013515159160a08101359091169060c00135611b5b565b3480156106ff57600080fd5b506102b46004803603604081101561071657600080fd5b506001600160a01b0381351690602001351515611ca8565b34801561073a57600080fd5b50610641611d53565b34801561074f57600080fd5b506102b46004803603602081101561076657600080fd5b5035611d63565b34801561077957600080fd5b506106416004803603602081101561079057600080fd5b50356001600160a01b0316611de9565b3480156107ac57600080fd5b506102b460048036036101008110156107c457600080fd5b810190602081018135600160201b8111156107de57600080fd5b8201836020820111156107f057600080fd5b803590602001918460208302840111600160201b8311171561081157600080fd5b919080806020026020016040519081016040528093929190818152602001838360200280828437600092019190915250929550505081356001600160a01b0390811693506020830135926040810135925060608101351515916080820135169060a08101359060c00135611dfe565b34801561088c57600080fd5b506102d0611f40565b3480156108a157600080fd5b50610362611f64565b3480156108b657600080fd5b506102b4600480360360408110156108cd57600080fd5b506001600160a01b038135169060200135611f6a565b3480156108ef57600080fd5b506102b46004803603602081101561090657600080fd5b50356001600160a01b031661207b565b34801561092257600080fd5b506102d061211c565b34801561093757600080fd5b506102b461212b565b34801561094c57600080fd5b506106416004803603602081101561096357600080fd5b50356001600160a01b0316612240565b34801561097f57600080fd5b506109a66004803603602081101561099657600080fd5b50356001600160a01b0316612255565b6040805192835290151560208301528051918290030190f35b3480156109cb57600080fd5b506102b4600480360360e08110156109e257600080fd5b506001600160a01b0381358116916020810135821691604082013591606081013591608082013515159160a08101359091169060c00135612271565b348015610a2a57600080fd5b5061036260048036036020811015610a4157600080fd5b50356001600160a01b0316612331565b348015610a5d57600080fd5b50610362612343565b348015610a7257600080fd5b506102b460048036036020811015610a8957600080fd5b50356001600160a01b0316612349565b348015610aa557600080fd5b506102b460048036036020811015610abc57600080fd5b5035151561242d565b348015610ad157600080fd5b506102b460048036036020811015610ae857600080fd5b50356001600160a01b03166124cb565b6102b4600480360360c0811015610b0e57600080fd5b810190602081018135600160201b811115610b2857600080fd5b820183602082011115610b3a57600080fd5b803590602001918460208302840111600160201b83111715610b5b57600080fd5b919080806020026020016040519081016040528093929190818152602001838360200280828437600092019190915250929550506001600160a01b038335169350505060208101359060408101359060608101351515906080013561256a565b348015610bc757600080fd5b506102b4600480360360e0811015610bde57600080fd5b810190602081018135600160201b811115610bf857600080fd5b820183602082011115610c0a57600080fd5b803590602001918460208302840111600160201b83111715610c2b57600080fd5b919080806020026020016040519081016040528093929190818152602001838360200280828437600092019190915250929550506001600160a01b0383351693505050602081013590604081013590606081013590608081013515159060a001356127f8565b348015610c9d57600080fd5b506102b460048036036020811015610cb457600080fd5b50356001600160a01b0316612b3d565b348015610cd057600080fd5b506102b460048036036060811015610ce757600080fd5b506001600160a01b03813581169160208101359160409091013516612c53565b348015610d1357600080fd5b506106416130e6565b348015610d2857600080fd5b506102b4600480360360a0811015610d3f57600080fd5b506001600160a01b038135811691602081013582169160408201358116916060810135151591608090910135166130f6565b348015610d7d57600080fd5b506102b460048036036060811015610d9457600080fd5b506001600160a01b038135811691602081013590911690604001356135e8565b348015610dc057600080fd5b506102b460048036036060811015610dd757600080fd5b810190602081018135600160201b811115610df157600080fd5b820183602082011115610e0357600080fd5b803590602001918460208302840111600160201b83111715610e2457600080fd5b9190808060200260200160405190810160405280939291908181526020018383602002808284376000920191909152509295949360208101935035915050600160201b811115610e7357600080fd5b820183602082011115610e8557600080fd5b803590602001918460208302840111600160201b83111715610ea657600080fd5b9190808060200260200160405190810160405280939291908181526020018383602002808284376000920191909152509295949360208101935035915050600160201b811115610ef557600080fd5b820183602082011115610f0757600080fd5b803590602001918460208302840111600160201b83111715610f2857600080fd5b9190808060200260200160405190810160405280939291908181526020018383602002808284376000920191909152509295506136bd945050505050565b348015610f7257600080fd5b506102b460048036036040811015610f8957600080fd5b506001600160a01b03813581169160200135166138aa565b348015610fad57600080fd5b506102d061398c565b348015610fc257600080fd5b506102d061399b565b348015610fd757600080fd5b506102d06139bf565b6007546001600160a01b031681565b336000908152600c602052604090205460ff16611041576040805162461bcd60e51b815260206004820152601a60248201526000805160206155f0833981519152604482015290519081900360640190fd5b600b54604080516307c7edc360e01b81526001600160a01b038681166004830152602482018690528481166044830152915191909216916307c7edc391606480830192600092919082900301818387803b15801561109e57600080fd5b505af11580156110b2573d6000803e3d6000fd5b50505050505050565b60096020526000908152604090205481565b336000908152600c602052604090205460ff1661111f576040805162461bcd60e51b815260206004820152601a60248201526000805160206155f0833981519152604482015290519081900360640190fd5b60007f000000000000000000000000000000000000000000000000000000000000000090506000816001600160a01b03166312d43a516040518163ffffffff1660e01b815260040160206040518083038186803b15801561117f57600080fd5b505afa158015611193573d6000803e3d6000fd5b505050506040513d60208110156111a957600080fd5b5051600b5460408051630130197760e11b81526001600160a01b03898116600483015260248201899052915193945060009384938493849391169163026032ee9160448082019261010092909190829003018186803b15801561120b57600080fd5b505afa15801561121f573d6000803e3d6000fd5b505050506040513d61010081101561123657600080fd5b50805160408201516060830151608090930151919650945090925090506000816112d857866001600160a01b031663e124e6d2856040518263ffffffff1660e01b815260040180826001600160a01b0316815260200191505060206040518083038186803b1580156112a757600080fd5b505afa1580156112bb573d6000803e3d6000fd5b505050506040513d60208110156112d157600080fd5b5051611352565b866001600160a01b03166381a612d6856040518263ffffffff1660e01b815260040180826001600160a01b0316815260200191505060206040518083038186803b15801561132557600080fd5b505afa158015611339573d6000803e3d6000fd5b505050506040513d602081101561134f57600080fd5b50515b60408051633cc8e33b60e21b81526001600160a01b038d811660048301528881166024830152878116604483015285151560648301526084820187905260a48201849052600060c4830181905292519394507f0000000000000000000000000000000000000000000000000000000000000000169263f3238cec9260e48084019391929182900301818387803b1580156113eb57600080fd5b505af11580156113ff573d6000803e3d6000fd5b50505050856001600160a01b0316636d63c1d0886040518263ffffffff1660e01b815260040180826001600160a01b03168152602001915050600060405180830381600087803b15801561145257600080fd5b505af1158015611466573d6000803e3d6000fd5b5050600b54604080516308eca22560e11b81526001600160a01b038f81166004830152602482018f90528d8116604483015291519190921693506311d9444a9250606480830192600092919082900301818387803b1580156114c757600080fd5b505af11580156114db573d6000803e3d6000fd5b50505050856001600160a01b031663d3c87bbb886040518263ffffffff1660e01b815260040180826001600160a01b03168152602001915050600060405180830381600087803b15801561152e57600080fd5b505af1158015611542573d6000803e3d6000fd5b505050506115508a846139e3565b50505050505050505050565b61271081565b6001546001600160a01b031681565b6003546001600160a01b031633146115bc576040805162461bcd60e51b81526020600482015260096024820152683337b93134b23232b760b91b604482015290519081900360640190fd5b600b8054821515600160a81b810260ff60a81b199092169190911790915560408051918252517fa956222e37fe025ff51e5440ac729a9bd417ff91e485e14dcffa2c0ba8894f409181900360200190a150565b60086020526000908152604090205481565b6003546001600160a01b0316331461166c576040805162461bcd60e51b81526020600482015260096024820152683337b93134b23232b760b91b604482015290519081900360640190fd5b6001600160a01b0382166000818152600c6020908152604091829020805460ff1916851515908117909155825190815291517f1d5bc0255b943d6a5b5279e8a55d74d620baccbceecb25e87a3558f14c4c118e9281900390910190a25050565b6003546001600160a01b03163314611717576040805162461bcd60e51b81526020600482015260096024820152683337b93134b23232b760b91b604482015290519081900360640190fd5b6001600160a01b0382166000818152600d6020908152604091829020805460ff191685151590811790915582519384529083015280517fa4e46c70ff429a91de7d1716d736e877c7cca1c22ac850b23d242530dd95e4749281900390910190a15050565b6003546001600160a01b031633146117c6576040805162461bcd60e51b81526020600482015260096024820152683337b93134b23232b760b91b604482015290519081900360640190fd5b60068190556040805182815290517f21167d0d4661af93817ebce920f18986eed3d75d5e1c03f2aed05efcbafbc4529181900360200190a150565b6001546001600160a01b0316331461184e576040805162461bcd60e51b8152602060048201526015602482015260008051602061552d833981519152604482015290519081900360640190fd5b6118616001600160a01b03831682613bee565b5050565b60045481565b600260005414156118b1576040805162461bcd60e51b815260206004820152601f602482015260008051602061550d833981519152604482015290519081900360640190fd5b60026000908155338152600d602052604090205460ff16806118dc5750600b54600160a01b900460ff165b61191b576040805162461bcd60e51b815260206004820152601a60248201526000805160206155f0833981519152604482015290519081900360640190fd5b875160021461195b5760405162461bcd60e51b815260040180806020018281038252602581526020018061568a6025913960400191505060405180910390fd5b7f00000000000000000000000000000000000000000000000000000000000000006001600160a01b03168860018a51038151811061199557fe5b60200260200101516001600160a01b0316146119f8576040805162461bcd60e51b815260206004820152601e60248201527f506f736974696f6e4d616e616765723a20696e76616c6964205f706174680000604482015290519081900360640190fd5b6000611a1e338a600081518110611a0b57fe5b60200260200101518a8a8a8a308a613cd8565b9050611a727f0000000000000000000000000000000000000000000000000000000000000000828b600081518110611a5257fe5b60200260200101516001600160a01b03166141819092919063ffffffff16565b6000611a7f8a84306141d3565b9050611a8b8186614265565b505060016000555050505050505050565b600c6020526000908152604090205460ff1681565b6003546001600160a01b03163314611afc576040805162461bcd60e51b81526020600482015260096024820152683337b93134b23232b760b91b604482015290519081900360640190fd5b60048190556040805182815290517f4d371d598d3a13f99ce992a17975bbaf1e1c256e072ec7d2f93ce88e40d9ba1c9181900360200190a150565b7f000000000000000000000000000000000000000000000000000000000000000081565b60026000541415611ba1576040805162461bcd60e51b815260206004820152601f602482015260008051602061550d833981519152604482015290519081900360640190fd5b60026000908155338152600d602052604090205460ff1680611bcc5750600b54600160a01b900460ff165b611c0b576040805162461bcd60e51b815260206004820152601a60248201526000805160206155f0833981519152604482015290519081900360640190fd5b7f00000000000000000000000000000000000000000000000000000000000000006001600160a01b0316876001600160a01b031614611c7b5760405162461bcd60e51b81526004018080602001828103825260298152602001806156376029913960400191505060405180910390fd5b6000611c8d3389898989893089613cd8565b9050611c998184614265565b50506001600055505050505050565b6003546001600160a01b03163314611cf3576040805162461bcd60e51b81526020600482015260096024820152683337b93134b23232b760b91b604482015290519081900360640190fd5b6001600160a01b0382166000818152600e6020908152604091829020805460ff1916851515908117909155825190815291517f8c0d56805c3b43d441481229dc64bee168253ffe4305f37ab7cfe63b1c4268c69281900390910190a25050565b600b54600160a81b900460ff1681565b6003546001600160a01b03163314611dae576040805162461bcd60e51b81526020600482015260096024820152683337b93134b23232b760b91b604482015290519081900360640190fd5b60058190556040805182815290517f974fd3c1fcb4653dfc4fb740c4c692cd212d55c28f163f310128cb64d83006759181900360200190a150565b600e6020526000908152604090205460ff1681565b60026000541415611e44576040805162461bcd60e51b815260206004820152601f602482015260008051602061550d833981519152604482015290519081900360640190fd5b60026000908155338152600d602052604090205460ff1680611e6f5750600b54600160a01b900460ff165b611eae576040805162461bcd60e51b815260206004820152601a60248201526000805160206155f0833981519152604482015290519081900360640190fd5b8751600214611eee5760405162461bcd60e51b815260040180806020018281038252602581526020018061568a6025913960400191505060405180910390fd5b6000611f01338a600081518110611a0b57fe5b9050611f357f0000000000000000000000000000000000000000000000000000000000000000828b600081518110611a5257fe5b611a8b8983866141d3565b7f000000000000000000000000000000000000000000000000000000000000000081565b60055481565b6001546001600160a01b03163314611fb7576040805162461bcd60e51b8152602060048201526015602482015260008051602061552d833981519152604482015290519081900360640190fd5b6001600160a01b038216612010576040805162461bcd60e51b815260206004820152601b60248201527a476f7665726e61626c653a20696e76616c6964206164647265737360281b604482015290519081900360640190fd5b6001546001600160a01b0383811691161415612071576040805162461bcd60e51b815260206004820152601b60248201527a476f7665726e61626c653a2073616d6520676f7665726e616e636560281b604482015290519081900360640190fd5b611861828261442a565b6001546001600160a01b031633146120c8576040805162461bcd60e51b8152602060048201526015602482015260008051602061552d833981519152604482015290519081900360640190fd5b600380546001600160a01b0383166001600160a01b0319909116811790915560408051918252517f5a272403b402d892977df56625f4164ccaf70ca3863991c43ecfe76a6905b0a19181900360200190a150565b600b546001600160a01b031681565b3360009081526002602052604090208054421061218e576040805162461bcd60e51b815260206004820152601c60248201527b11dbdd995c9b98589b194e88191958591b1a5b9948195e1c1a5c995960221b604482015290519081900360640190fd5b60018082015460ff161515146121d55760405162461bcd60e51b81526004018080602001828103825260228152602001806155ad6022913960400191505060405180910390fd5b60018054336000818152600260205260408082208281558501805460ff1916905584546001600160a01b031916831790945592516001600160a01b0390921692909183917f5f56bee8cffbe9a78652a74a60705edede02af10b0bbb888ca44b79a0d42ce8091a35050565b600d6020526000908152604090205460ff1681565b6002602052600090815260409020805460019091015460ff1682565b600260005414156122b7576040805162461bcd60e51b815260206004820152601f602482015260008051602061550d833981519152604482015290519081900360640190fd5b60026000908155338152600d602052604090205460ff16806122e25750600b54600160a01b900460ff165b612321576040805162461bcd60e51b815260206004820152601a60248201526000805160206155f0833981519152604482015290519081900360640190fd5b611c993388888888888888613cd8565b600a6020526000908152604090205481565b60065481565b6001546001600160a01b03163314612396576040805162461bcd60e51b8152602060048201526015602482015260008051602061552d833981519152604482015290519081900360640190fd5b6001600160a01b03811660009081526002602052604090206001015460ff16612406576040805162461bcd60e51b815260206004820152601f60248201527f476f7665726e61626c653a2070726f706f73616c206e6f742061637469766500604482015290519081900360640190fd5b6001600160a01b03166000908152600260205260408120908155600101805460ff19169055565b6003546001600160a01b03163314612478576040805162461bcd60e51b81526020600482015260096024820152683337b93134b23232b760b91b604482015290519081900360640190fd5b600b8054821515600160a01b810260ff60a01b199092169190911790915560408051918252517feac6b3611e79ff0d8ea5daa8439f6b1ab7eea4ebf95f1dd360417f712c3fc3049181900360200190a150565b6003546001600160a01b03163314612516576040805162461bcd60e51b81526020600482015260096024820152683337b93134b23232b760b91b604482015290519081900360640190fd5b600780546001600160a01b0383166001600160a01b0319909116811790915560408051918252517f828abcccea18192c21d645e575652c49e20b986dab777906fc473d056b01b6a89181900360200190a150565b600260005414156125b0576040805162461bcd60e51b815260206004820152601f602482015260008051602061550d833981519152604482015290519081900360640190fd5b60026000908155338152600d602052604090205460ff16806125db5750600b54600160a01b900460ff165b61261a576040805162461bcd60e51b815260206004820152601a60248201526000805160206155f0833981519152604482015290519081900360640190fd5b85516001148061262b575085516002145b6126665760405162461bcd60e51b815260040180806020018281038252602581526020018061568a6025913960400191505060405180910390fd5b7f00000000000000000000000000000000000000000000000000000000000000006001600160a01b03168660008151811061269d57fe5b60200260200101516001600160a01b031614612700576040805162461bcd60e51b815260206004820152601e60248201527f506f736974696f6e4d616e616765723a20696e76616c6964205f706174680000604482015290519081900360640190fd5b34156127c65761270e6144a6565b855134906001101561277c5761276e6001600160a01b037f0000000000000000000000000000000000000000000000000000000000000000167f000000000000000000000000000000000000000000000000000000000000000034614181565b6127798786306141d3565b90505b600061278c3389848a888a61451d565b90506127c37f0000000000000000000000000000000000000000000000000000000000000000828a60018c510381518110611a5257fe5b50505b6127eb33876001895103815181106127da57fe5b60200260200101518786868661471e565b5050600160005550505050565b6002600054141561283e576040805162461bcd60e51b815260206004820152601f602482015260008051602061550d833981519152604482015290519081900360640190fd5b60026000908155338152600d602052604090205460ff16806128695750600b54600160a01b900460ff165b6128a8576040805162461bcd60e51b815260206004820152601a60248201526000805160206155f0833981519152604482015290519081900360640190fd5b8651600114806128b9575086516002145b6128f45760405162461bcd60e51b815260040180806020018281038252602581526020018061568a6025913960400191505060405180910390fd5b8415612b0a578651600114156129ce577f00000000000000000000000000000000000000000000000000000000000000006001600160a01b0316631b8278788860008151811061294057fe5b60200260200101513330896040518563ffffffff1660e01b815260040180856001600160a01b03168152602001846001600160a01b03168152602001836001600160a01b03168152602001828152602001945050505050600060405180830381600087803b1580156129b157600080fd5b505af11580156129c5573d6000803e3d6000fd5b50505050612ac1565b7f00000000000000000000000000000000000000000000000000000000000000006001600160a01b0316631b82787888600081518110612a0a57fe5b6020026020010151337f0000000000000000000000000000000000000000000000000000000000000000896040518563ffffffff1660e01b815260040180856001600160a01b03168152602001846001600160a01b03168152602001836001600160a01b03168152602001828152602001945050505050600060405180830381600087803b158015612a9b57600080fd5b505af1158015612aaf573d6000803e3d6000fd5b50505050612abe8785306141d3565b94505b6000612ad13389888a878961451d565b9050612b087f0000000000000000000000000000000000000000000000000000000000000000828a60018c510381518110611a5257fe5b505b612b2f338860018a510381518110612b1e57fe5b60200260200101518886868661471e565b505060016000555050505050565b6001546001600160a01b03163314612b8a576040805162461bcd60e51b8152602060048201526015602482015260008051602061552d833981519152604482015290519081900360640190fd5b6001600160a01b038116612be3576040805162461bcd60e51b815260206004820152601b60248201527a476f7665726e61626c653a20696e76616c6964206164647265737360281b604482015290519081900360640190fd5b6001546001600160a01b0382811691161415612c44576040805162461bcd60e51b815260206004820152601b60248201527a476f7665726e61626c653a2073616d6520676f7665726e616e636560281b604482015290519081900360640190fd5b612c508160001961442a565b50565b336000908152600c602052604090205460ff16612ca5576040805162461bcd60e51b815260206004820152601a60248201526000805160206155f0833981519152604482015290519081900360640190fd5b612caf8383614845565b60007f000000000000000000000000000000000000000000000000000000000000000090506000816001600160a01b03166312d43a516040518163ffffffff1660e01b815260040160206040518083038186803b158015612d0f57600080fd5b505afa158015612d23573d6000803e3d6000fd5b505050506040513d6020811015612d3957600080fd5b5051600b546040805163d3bab1d160e01b81526001600160a01b03898116600483015260248201899052915193945060009384938493849391169163d3bab1d19160448082019261012092909190829003018186803b158015612d9b57600080fd5b505afa158015612daf573d6000803e3d6000fd5b505050506040513d610120811015612dc657600080fd5b5060408101516060820151608083015160a09093015191965094509092509050600081612e6b57866001600160a01b03166381a612d6856040518263ffffffff1660e01b815260040180826001600160a01b0316815260200191505060206040518083038186803b158015612e3a57600080fd5b505afa158015612e4e573d6000803e3d6000fd5b505050506040513d6020811015612e6457600080fd5b5051612ee5565b866001600160a01b031663e124e6d2856040518263ffffffff1660e01b815260040180826001600160a01b0316815260200191505060206040518083038186803b158015612eb857600080fd5b505afa158015612ecc573d6000803e3d6000fd5b505050506040513d6020811015612ee257600080fd5b50515b60408051633cc8e33b60e21b81526001600160a01b038d811660048301528881166024830152878116604483015285151560648301526084820187905260a48201849052600160c483015291519293507f00000000000000000000000000000000000000000000000000000000000000009091169163f3238cec9160e48082019260009290919082900301818387803b158015612f8157600080fd5b505af1158015612f95573d6000803e3d6000fd5b50505050856001600160a01b0316636d63c1d0886040518263ffffffff1660e01b815260040180826001600160a01b03168152602001915050600060405180830381600087803b158015612fe857600080fd5b505af1158015612ffc573d6000803e3d6000fd5b5050600b546040805163d38ab51960e01b81526001600160a01b038f81166004830152602482018f90528d81166044830152915191909216935063d38ab5199250606480830192600092919082900301818387803b15801561305d57600080fd5b505af1158015613071573d6000803e3d6000fd5b50505050856001600160a01b031663d3c87bbb886040518263ffffffff1660e01b815260040180826001600160a01b03168152602001915050600060405180830381600087803b1580156130c457600080fd5b505af11580156130d8573d6000803e3d6000fd5b505050506115508a84614b84565b600b54600160a01b900460ff1681565b6002600054141561313c576040805162461bcd60e51b815260206004820152601f602482015260008051602061550d833981519152604482015290519081900360640190fd5b60026000908155338152600e602052604090205460ff16613192576040805162461bcd60e51b815260206004820152601a60248201526000805160206155f0833981519152604482015290519081900360640190fd5b60007f000000000000000000000000000000000000000000000000000000000000000090506000816001600160a01b03166312d43a516040518163ffffffff1660e01b815260040160206040518083038186803b1580156131f257600080fd5b505afa158015613206573d6000803e3d6000fd5b505050506040513d602081101561321c57600080fd5b505160408051634a3f088d60e01b81526001600160a01b038a8116600483015289811660248301528881166044830152871515606483015291519293506000927f000000000000000000000000000000000000000000000000000000000000000090921691634a3f088d9160848082019261010092909190829003018186803b1580156132a857600080fd5b505afa1580156132bc573d6000803e3d6000fd5b505050506040513d6101008110156132d357600080fd5b5051905060008561335c57836001600160a01b031663e124e6d2886040518263ffffffff1660e01b815260040180826001600160a01b0316815260200191505060206040518083038186803b15801561332b57600080fd5b505afa15801561333f573d6000803e3d6000fd5b505050506040513d602081101561335557600080fd5b50516133d6565b836001600160a01b03166381a612d6886040518263ffffffff1660e01b815260040180826001600160a01b0316815260200191505060206040518083038186803b1580156133a957600080fd5b505afa1580156133bd573d6000803e3d6000fd5b505050506040513d60208110156133d357600080fd5b50515b60408051633cc8e33b60e21b81526001600160a01b038c811660048301528b811660248301528a8116604483015289151560648301526084820186905260a48201849052600060c4830181905292519394507f0000000000000000000000000000000000000000000000000000000000000000169263f3238cec9260e48084019391929182900301818387803b15801561346f57600080fd5b505af1158015613483573d6000803e3d6000fd5b50505050826001600160a01b0316636d63c1d0856040518263ffffffff1660e01b815260040180826001600160a01b03168152602001915050600060405180830381600087803b1580156134d657600080fd5b505af11580156134ea573d6000803e3d6000fd5b505060408051631bc5d52960e31b81526001600160a01b038d811660048301528c811660248301528b811660448301528a1515606483015289811660848301529151918816935063de2ea948925060a48082019260009290919082900301818387803b15801561355957600080fd5b505af115801561356d573d6000803e3d6000fd5b50505050826001600160a01b031663d3c87bbb856040518263ffffffff1660e01b815260040180826001600160a01b03168152602001915050600060405180830381600087803b1580156135c057600080fd5b505af11580156135d4573d6000803e3d6000fd5b505060016000555050505050505050505050565b6001546001600160a01b03163314613635576040805162461bcd60e51b8152602060048201526015602482015260008051602061552d833981519152604482015290519081900360640190fd5b826001600160a01b031663095ea7b383836040518363ffffffff1660e01b815260040180836001600160a01b0316815260200182815260200192505050602060405180830381600087803b15801561368c57600080fd5b505af11580156136a0573d6000803e3d6000fd5b505050506040513d60208110156136b657600080fd5b5050505050565b6003546001600160a01b03163314613708576040805162461bcd60e51b81526020600482015260096024820152683337b93134b23232b760b91b604482015290519081900360640190fd5b60005b83518110156137a357600084828151811061372257fe5b6020026020010151905083828151811061373857fe5b602002602001015160096000836001600160a01b03166001600160a01b031681526020019081526020016000208190555082828151811061377557fe5b6020908102919091018101516001600160a01b039092166000908152600a909152604090205560010161370b565b507fae32d569b058895b9620d6552b09aaffedc9a6f396be4d595a224ad09f8b213983838360405180806020018060200180602001848103845287818151815260200191508051906020019060200280838360005b838110156138105781810151838201526020016137f8565b50505050905001848103835286818151815260200191508051906020019060200280838360005b8381101561384f578181015183820152602001613837565b50505050905001848103825285818151815260200191508051906020019060200280838360005b8381101561388e578181015183820152602001613876565b50505050905001965050505050505060405180910390a1505050565b6003546001600160a01b031633146138f5576040805162461bcd60e51b81526020600482015260096024820152683337b93134b23232b760b91b604482015290519081900360640190fd5b6001600160a01b038216600090815260086020526040902054806139195750611861565b6001600160a01b03831660008181526008602052604081205561393d908383614181565b604080516001600160a01b0380861682528416602082015280820183905290517f4f1b51dd7a2fcb861aa2670f668be66835c4ee12b4bbbf037e4d0018f39819e49181900360600190a1505050565b6003546001600160a01b031681565b7f000000000000000000000000000000000000000000000000000000000000000081565b7f000000000000000000000000000000000000000000000000000000000000000081565b6007546001600160a01b0316806139fa5750611861565b600080826001600160a01b031663534ef883866040518263ffffffff1660e01b815260040180826001600160a01b03168152602001915050604080518083038186803b158015613a4957600080fd5b505afa158015613a5d573d6000803e3d6000fd5b505050506040513d6040811015613a7357600080fd5b508051602090910151909250905081613a8e57505050611861565b60007f00000000000000000000000000000000000000000000000000000000000000006001600160a01b03166312d43a516040518163ffffffff1660e01b815260040160206040518083038186803b158015613ae957600080fd5b505afa158015613afd573d6000803e3d6000fd5b505050506040513d6020811015613b1357600080fd5b50516040805163318bc68960e01b815290519192507f474c763ff84bf2c2039a6d9fea955ecd0f724030e3c365b91169c6a16fe751b791889188916001600160a01b0386169163318bc6899160048083019260209291908290030181600087803b158015613b8057600080fd5b505af1158015613b94573d6000803e3d6000fd5b505050506040513d6020811015613baa57600080fd5b5051604080516001600160a01b03948516815260208101939093528281019190915260608201879052918516608082015290519081900360a00190a1505050505050565b80471015613c43576040805162461bcd60e51b815260206004820152601d60248201527f416464726573733a20696e73756666696369656e742062616c616e6365000000604482015290519081900360640190fd5b6040516000906001600160a01b0384169083908381818185875af1925050503d8060008114613c8e576040519150601f19603f3d011682016040523d82523d6000602084013e613c93565b606091505b5050905080613cd35760405162461bcd60e51b815260040180806020018281038252603a81526020018061554d603a913960400191505060405180910390fd5b505050565b60007f00000000000000000000000000000000000000000000000000000000000000008185613d7f57816001600160a01b031663e124e6d28a6040518263ffffffff1660e01b815260040180826001600160a01b0316815260200191505060206040518083038186803b158015613d4e57600080fd5b505afa158015613d62573d6000803e3d6000fd5b505050506040513d6020811015613d7857600080fd5b5051613df9565b816001600160a01b03166381a612d68a6040518263ffffffff1660e01b815260040180826001600160a01b0316815260200191505060206040518083038186803b158015613dcc57600080fd5b505afa158015613de0573d6000803e3d6000fd5b505050506040513d6020811015613df657600080fd5b50515b90508515613e4f5783811015613e4a576040805162461bcd60e51b81526020600482015260116024820152706d61726b5072696365203c20707269636560781b604482015290519081900360640190fd5b613e98565b83811115613e98576040805162461bcd60e51b81526020600482015260116024820152706d61726b5072696365203e20707269636560781b604482015290519081900360640190fd5b6000826001600160a01b03166312d43a516040518163ffffffff1660e01b815260040160206040518083038186803b158015613ed357600080fd5b505afa158015613ee7573d6000803e3d6000fd5b505050506040513d6020811015613efd57600080fd5b505160408051633cc8e33b60e21b81526001600160a01b038f811660048301528e811660248301528d811660448301528a15156064830152608482018c905260a48201869052600060c4830181905292519394507f0000000000000000000000000000000000000000000000000000000000000000169263f3238cec9260e48084019391929182900301818387803b158015613f9857600080fd5b505af1158015613fac573d6000803e3d6000fd5b50505050806001600160a01b0316636d63c1d0846040518263ffffffff1660e01b815260040180826001600160a01b03168152602001915050600060405180830381600087803b158015613fff57600080fd5b505af1158015614013573d6000803e3d6000fd5b5050505060007f00000000000000000000000000000000000000000000000000000000000000006001600160a01b0316632662166b8e8e8e8e8e8e8e6040518863ffffffff1660e01b815260040180886001600160a01b03168152602001876001600160a01b03168152602001866001600160a01b031681526020018581526020018481526020018315158152602001826001600160a01b03168152602001975050505050505050602060405180830381600087803b1580156140d557600080fd5b505af11580156140e9573d6000803e3d6000fd5b505050506040513d60208110156140ff57600080fd5b50516040805163d3c87bbb60e01b81526001600160a01b03878116600483015291519293509084169163d3c87bbb9160248082019260009290919082900301818387803b15801561414f57600080fd5b505af1158015614163573d6000803e3d6000fd5b505050506141718d8a6139e3565b9c9b505050505050505050505050565b604080516001600160a01b038416602482015260448082018490528251808303909101815260649091019091526020810180516001600160e01b031663a9059cbb60e01b179052613cd3908490614d21565b600083516002141561421a57614213846000815181106141ef57fe5b60200260200101518560018151811061420457fe5b60200260200101518585614dd2565b905061425e565b6040805162461bcd60e51b81526020600482015260146024820152730d2dcecc2d8d2c840bee0c2e8d05cd8cadccee8d60631b604482015290519081900360640190fd5b9392505050565b60007f00000000000000000000000000000000000000000000000000000000000000009050806001600160a01b0316632e1a7d4d846040518263ffffffff1660e01b815260040180828152602001915050600060405180830381600087803b1580156142d057600080fd5b505af11580156142e4573d6000803e3d6000fd5b5050600454604051600093506001600160a01b0386169250869084818181858888f193505050503d8060008114614337576040519150601f19603f3d011682016040523d82523d6000602084013e61433c565b606091505b50509050801561434d575050611861565b816001600160a01b031663d0e30db0856040518263ffffffff1660e01b81526004016000604051808303818588803b15801561438857600080fd5b505af115801561439c573d6000803e3d6000fd5b5050505050816001600160a01b031663a9059cbb84866040518363ffffffff1660e01b815260040180836001600160a01b0316815260200182815260200192505050602060405180830381600087803b1580156143f857600080fd5b505af115801561440c573d6000803e3d6000fd5b505050506040513d602081101561442257600080fd5b505050505050565b604080518082018252828152600160208083018281526001600160a01b03871660008181526002845286902094518555905193909201805460ff1916931515939093179092558251848152925190927f02dd0697be46e764c3ba81094158781c31b235d03bb27a0daf1bdef0ec1084dd92908290030190a25050565b341561451b577f00000000000000000000000000000000000000000000000000000000000000006001600160a01b031663d0e30db0346040518263ffffffff1660e01b81526004016000604051808303818588803b15801561450757600080fd5b505af11580156136b6573d6000803e3d6000fd5b565b60008073__$56718d642b85600d0b97533a10e33dc7c4$__63e0cab5507f00000000000000000000000000000000000000000000000000000000000000008a8a8a8a8a8a6006546040518963ffffffff1660e01b815260040180896001600160a01b03168152602001886001600160a01b0316815260200180602001878152602001866001600160a01b031681526020018515158152602001848152602001838152602001828103825288818151815260200191508051906020019060200280838360005b838110156145fa5781810151838201526020016145e2565b50505050905001995050505050505050505060206040518083038186803b15801561462457600080fd5b505af4158015614638573d6000803e3d6000fd5b505050506040513d602081101561464e57600080fd5b50519050801561470f57600061468761271061468161467a600554612710614eeb90919063ffffffff16565b8a90614f36565b90614f8f565b905060006146958883614eeb565b905060008960018b5103815181106146a957fe5b602002602001015190506146eb8260086000846001600160a01b03166001600160a01b0316815260200190815260200160002054614fce90919063ffffffff16565b6001600160a01b039091166000908152600860205260409020555091506147149050565b859150505b9695505050505050565b614729848385615026565b604080516317c3cf0f60e31b81526001600160a01b037f0000000000000000000000000000000000000000000000000000000000000000811660048301527f0000000000000000000000000000000000000000000000000000000000000000811660248301527f00000000000000000000000000000000000000000000000000000000000000008116604483015280891660648301528088166084830152861660a482015260c4810185905283151560e48201526101048101839052905173__$56718d642b85600d0b97533a10e33dc7c4$__9163be1e787891610124808301926000929190829003018186803b15801561482357600080fd5b505af4158015614837573d6000803e3d6000fd5b505050506144228684614b84565b600b546040805163d3bab1d160e01b81526001600160a01b03858116600483015260248201859052915160009384938493849384938493169163d3bab1d191604480830192610120929190829003018186803b1580156148a457600080fd5b505afa1580156148b8573d6000803e3d6000fd5b505050506040513d6101208110156148cf57600080fd5b508051602082015160408301516060840151608085015160a090950151939a50919850965094509092509050614906838284615026565b600b54600160a81b900460ff1661492257505050505050611861565b8061493257505050505050611861565b60008211614987576040805162461bcd60e51b815260206004820152601d60248201527f506f736974696f6e4d616e616765723a206c6f6e67206465706f736974000000604482015290519081900360640190fd5b60408051634a3f088d60e01b81526001600160a01b038a8116600483015286811660248301528581166044830152831515606483015291517f000000000000000000000000000000000000000000000000000000000000000092600092839291851691634a3f088d9160848082019261010092909190829003018186803b158015614a1157600080fd5b505afa158015614a25573d6000803e3d6000fd5b505050506040513d610100811015614a3c57600080fd5b508051602090910151909250905081614a5d57505050505050505050611861565b6000614a698387614fce565b90506000846001600160a01b0316630a48d5a98c8c6040518363ffffffff1660e01b815260040180836001600160a01b031681526020018281526020019250505060206040518083038186803b158015614ac257600080fd5b505afa158015614ad6573d6000803e3d6000fd5b505050506040513d6020811015614aec57600080fd5b505190506000614afc8483614fce565b90506000614b108561468188612710614f36565b90506000614b31836146816006546127100188614f3690919063ffffffff16565b905081811015614b725760405162461bcd60e51b81526004018080602001828103825260278152602001806156106027913960400191505060405180910390fd5b50505050505050505050505050505050565b6007546001600160a01b031680614b9b5750611861565b600080826001600160a01b031663534ef883866040518263ffffffff1660e01b815260040180826001600160a01b03168152602001915050604080518083038186803b158015614bea57600080fd5b505afa158015614bfe573d6000803e3d6000fd5b505050506040513d6040811015614c1457600080fd5b508051602090910151909250905081614c2f57505050611861565b60007f00000000000000000000000000000000000000000000000000000000000000006001600160a01b03166312d43a516040518163ffffffff1660e01b815260040160206040518083038186803b158015614c8a57600080fd5b505afa158015614c9e573d6000803e3d6000fd5b505050506040513d6020811015614cb457600080fd5b50516040805163318bc68960e01b815290519192507fc2414023ce7002ee98557d1e7be21e5559073336f2217ee5f9b2e50fd85f71ee91889188916001600160a01b0386169163318bc6899160048083019260209291908290030181600087803b158015613b8057600080fd5b6060614d76826040518060400160405280602081526020017f5361666545524332303a206c6f772d6c6576656c2063616c6c206661696c6564815250856001600160a01b03166152319092919063ffffffff16565b805190915015613cd357808060200190516020811015614d9557600080fd5b5051613cd35760405162461bcd60e51b815260040180806020018281038252602a815260200180615660602a913960400191505060405180910390fd5b6000807f00000000000000000000000000000000000000000000000000000000000000006001600160a01b031663933162128787866040518463ffffffff1660e01b815260040180846001600160a01b03168152602001836001600160a01b03168152602001826001600160a01b031681526020019350505050602060405180830381600087803b158015614e6657600080fd5b505af1158015614e7a573d6000803e3d6000fd5b505050506040513d6020811015614e9057600080fd5b5051905083811015614ee2576040805162461bcd60e51b81526020600482015260166024820152751a5b9cdd59999a58da595b9d08185b5bdd5b9d13dd5d60521b604482015290519081900360640190fd5b95945050505050565b6000614f2d83836040518060400160405280601e81526020017f536166654d6174683a207375627472616374696f6e206f766572666c6f770000815250615248565b90505b92915050565b600082614f4557506000614f30565b82820282848281614f5257fe5b0414614f2d5760405162461bcd60e51b81526004018080602001828103825260218152602001806155cf6021913960400191505060405180910390fd5b6000614f2d83836040518060400160405280601a815260200179536166654d6174683a206469766973696f6e206279207a65726f60301b8152506152df565b600082820183811015614f2d576040805162461bcd60e51b815260206004820152601b60248201527a536166654d6174683a206164646974696f6e206f766572666c6f7760281b604482015290519081900360640190fd5b8061503057613cd3565b811561514c576001600160a01b03831660009081526009602052604090205480158015906150ff5750806150fd837f00000000000000000000000000000000000000000000000000000000000000006001600160a01b031663f07456ce886040518263ffffffff1660e01b815260040180826001600160a01b0316815260200191505060206040518083038186803b1580156150cb57600080fd5b505afa1580156150df573d6000803e3d6000fd5b505050506040513d60208110156150f557600080fd5b505190614fce565b115b15615146576040805162461bcd60e51b81526020600482015260126024820152711b585e081b1bdb99dcc8195e18d95959195960721b604482015290519081900360640190fd5b50613cd3565b6001600160a01b0383166000908152600a602052604090205480158015906151e35750806151e1837f00000000000000000000000000000000000000000000000000000000000000006001600160a01b0316638a78daa8886040518263ffffffff1660e01b815260040180826001600160a01b0316815260200191505060206040518083038186803b1580156150cb57600080fd5b115b1561522b576040805162461bcd60e51b81526020600482015260136024820152721b585e081cda1bdc9d1cc8195e18d959591959606a1b604482015290519081900360640190fd5b50505050565b60606152408484600085615344565b949350505050565b600081848411156152d75760405162461bcd60e51b81526004018080602001828103825283818151815260200191508051906020019080838360005b8381101561529c578181015183820152602001615284565b50505050905090810190601f1680156152c95780820380516001836020036101000a031916815260200191505b509250505060405180910390fd5b505050900390565b6000818361532e5760405162461bcd60e51b815260206004820181815283516024840152835190928392604490910191908501908083836000831561529c578181015183820152602001615284565b50600083858161533a57fe5b0495945050505050565b6060824710156153855760405162461bcd60e51b81526004018080602001828103825260268152602001806155876026913960400191505060405180910390fd5b61538e856154a0565b6153df576040805162461bcd60e51b815260206004820152601d60248201527f416464726573733a2063616c6c20746f206e6f6e2d636f6e7472616374000000604482015290519081900360640190fd5b60006060866001600160a01b031685876040518082805190602001908083835b6020831061541e5780518252601f1990920191602091820191016153ff565b6001836020036101000a03801982511681845116808217855250505050505090500191505060006040518083038185875af1925050503d8060008114615480576040519150601f19603f3d011682016040523d82523d6000602084013e615485565b606091505b50915091506154958282866154a6565b979650505050505050565b3b151590565b606083156154b557508161425e565b8251156154c55782518084602001fd5b60405162461bcd60e51b815260206004820181815284516024840152845185939192839260440191908501908083836000831561529c57818101518382015260200161528456fe5265656e7472616e637947756172643a207265656e7472616e742063616c6c00476f7665726e61626c653a20666f7262696464656e0000000000000000000000416464726573733a20756e61626c6520746f2073656e642076616c75652c20726563697069656e74206d61792068617665207265766572746564416464726573733a20696e73756666696369656e742062616c616e636520666f722063616c6c476f7665726e61626c653a2070726f706f73616c206973206e6f7420616374697665536166654d6174683a206d756c7469706c69636174696f6e206f766572666c6f77506f736974696f6e4d616e616765723a20666f7262696464656e000000000000506f736974696f6e4d616e616765723a206c6f6e67206c65766572616765206465637265617365506f736974696f6e4d616e616765723a20696e76616c6964205f636f6c6c61746572616c546f6b656e5361666545524332303a204552433230206f7065726174696f6e20646964206e6f742073756363656564506f736974696f6e4d616e616765723a20696e76616c6964205f706174682e6c656e677468a26469706673582212203b99bf27b37db39990e7af40304aee6b9acf9b41bbfd307bc7747fc28904bdd064736f6c634300060c0033","linkReferences":{"contracts/exchange/core/PositionUtils.sol":{"PositionUtils":[{"start":18159,"length":20},{"start":18870,"length":20}]}}},"methodIdentifiers":{"BASIS_POINTS_DIVISOR()":"126082cf","acceptGov()":"7bc6729b","admin()":"f851a440","approve(address,address,uint256)":"e1f21c67","cancelGovProposal(address)":"9c35b497","decreasePosition(address,address,uint256,uint256,bool,address,uint256)":"90205d8c","decreasePositionAndSwap(address[],address,uint256,uint256,bool,address,uint256,uint256)":"5fc8500e","decreasePositionAndSwapETH(address[],address,uint256,uint256,bool,address,uint256,uint256)":"3039e37f","decreasePositionETH(address,address,uint256,uint256,bool,address,uint256)":"430ed37c","depositFee()":"67a52793","ethTransferGasLimit()":"2d79cf42","executeDecreaseOrder(address,uint256,address)":"11d9444a","executeIncreaseOrder(address,uint256,address)":"d38ab519","executeSwapOrder(address,uint256,address)":"07c7edc3","feeReserves(address)":"1ce9cb8f","gov()":"12d43a51","govProposals(address)":"8d0fedb0","inLegacyMode()":"d4ca83f9","increasePosition(address[],address,uint256,uint256,uint256,bool,uint256)":"b7ddc992","increasePositionBufferBps()":"98d1e03a","increasePositionETH(address[],address,uint256,uint256,bool,uint256)":"b32755de","isLiquidator(address)":"529a356f","isOrderKeeper(address)":"3833f5f5","isPartner(address)":"8c0f9aac","liquidatePosition(address,address,address,bool,address)":"de2ea948","maxGlobalLongSizes(address)":"1045c74e","maxGlobalShortSizes(address)":"9698d25a","orderBook()":"776af5ba","referralStorage()":"006cc35e","router()":"f887ea40","sendValue(address,uint256)":"24a084df","setAdmin(address)":"704b6c02","setDepositFee(uint256)":"490ae210","setEthTransferGasLimit(uint256)":"3a9b52ad","setGov(address)":"cfad57a2","setGovWithDeadline(address,uint256)":"6bb22fd7","setInLegacyMode(bool)":"9c95332f","setIncreasePositionBufferBps(uint256)":"233bfe3b","setLiquidator(address,bool)":"4453a374","setMaxGlobalSizes(address[],uint256[],uint256[])":"ef12c67e","setOrderKeeper(address,bool)":"1e261538","setPartner(address,bool)":"21acf659","setReferralStorage(address)":"ae4d7f9a","setShouldValidateIncreaseOrder(bool)":"1b904359","shortsTracker()":"657bc5d0","shouldValidateIncreaseOrder()":"4584bd4b","vault()":"fbfa77cf","weth()":"3fc8cef3","withdrawFees(address,address)":"f2555278"},"id":36}