{"abi":[{"type":"constructor","inputs":[{"name":"_vault","type":"address","internalType":"address"},{"name":"_router","type":"address","internalType":"address"},{"name":"_shortsTracker","type":"address","internalType":"address"},{"name":"_weth","type":"address","internalType":"address"},{"name":"_depositFee","type":"uint256","internalType":"uint256"},{"name":"_orderBook","type":"address","internalType":"address"}],"stateMutability":"nonpayable"},{"type":"receive","stateMutability":"payable"},{"type":"function","name":"BASIS_POINTS_DIVISOR","inputs":[],"outputs":[{"name":"","type":"uint256","internalType":"uint256"}],"stateMutability":"view"},{"type":"function","name":"admin","inputs":[],"outputs":[{"name":"","type":"address","internalType":"address"}],"stateMutability":"view"},{"type":"function","name":"approve","inputs":[{"name":"_token","type":"address","internalType":"address"},{"name":"_spender","type":"address","internalType":"address"},{"name":"_amount","type":"uint256","internalType":"uint256"}],"outputs":[],"stateMutability":"nonpayable"},{"type":"function","name":"decreasePosition","inputs":[{"name":"_collateralToken","type":"address","internalType":"address"},{"name":"_indexToken","type":"address","internalType":"address"},{"name":"_collateralDelta","type":"uint256","internalType":"uint256"},{"name":"_sizeDelta","type":"uint256","internalType":"uint256"},{"name":"_isLong","type":"bool","internalType":"bool"},{"name":"_receiver","type":"address","internalType":"address"},{"name":"_price","type":"uint256","internalType":"uint256"}],"outputs":[],"stateMutability":"nonpayable"},{"type":"function","name":"decreasePositionAndSwap","inputs":[{"name":"_path","type":"address[]","internalType":"address[]"},{"name":"_indexToken","type":"address","internalType":"address"},{"name":"_collateralDelta","type":"uint256","internalType":"uint256"},{"name":"_sizeDelta","type":"uint256","internalType":"uint256"},{"name":"_isLong","type":"bool","internalType":"bool"},{"name":"_receiver","type":"address","internalType":"address"},{"name":"_price","type":"uint256","internalType":"uint256"},{"name":"_minOut","type":"uint256","internalType":"uint256"}],"outputs":[],"stateMutability":"nonpayable"},{"type":"function","name":"decreasePositionAndSwapETH","inputs":[{"name":"_path","type":"address[]","internalType":"address[]"},{"name":"_indexToken","type":"address","internalType":"address"},{"name":"_collateralDelta","type":"uint256","internalType":"uint256"},{"name":"_sizeDelta","type":"uint256","internalType":"uint256"},{"name":"_isLong","type":"bool","internalType":"bool"},{"name":"_receiver","type":"address","internalType":"address payable"},{"name":"_price","type":"uint256","internalType":"uint256"},{"name":"_minOut","type":"uint256","internalType":"uint256"}],"outputs":[],"stateMutability":"nonpayable"},{"type":"function","name":"decreasePositionETH","inputs":[{"name":"_collateralToken","type":"address","internalType":"address"},{"name":"_indexToken","type":"address","internalType":"address"},{"name":"_collateralDelta","type":"uint256","internalType":"uint256"},{"name":"_sizeDelta","type":"uint256","internalType":"uint256"},{"name":"_isLong","type":"bool","internalType":"bool"},{"name":"_receiver","type":"address","internalType":"address payable"},{"name":"_price","type":"uint256","internalType":"uint256"}],"outputs":[],"stateMutability":"nonpayable"},{"type":"function","name":"depositFee","inputs":[],"outputs":[{"name":"","type":"uint256","internalType":"uint256"}],"stateMutability":"view"},{"type":"function","name":"ethTransferGasLimit","inputs":[],"outputs":[{"name":"","type":"uint256","internalType":"uint256"}],"stateMutability":"view"},{"type":"function","name":"executeDecreaseOrder","inputs":[{"name":"_account","type":"address","internalType":"address"},{"name":"_orderIndex","type":"uint256","internalType":"uint256"},{"name":"_feeReceiver","type":"address","internalType":"address payable"}],"outputs":[],"stateMutability":"nonpayable"},{"type":"function","name":"executeIncreaseOrder","inputs":[{"name":"_account","type":"address","internalType":"address"},{"name":"_orderIndex","type":"uint256","internalType":"uint256"},{"name":"_feeReceiver","type":"address","internalType":"address payable"}],"outputs":[],"stateMutability":"nonpayable"},{"type":"function","name":"executeSwapOrder","inputs":[{"name":"_account","type":"address","internalType":"address"},{"name":"_orderIndex","type":"uint256","internalType":"uint256"},{"name":"_feeReceiver","type":"address","internalType":"address payable"}],"outputs":[],"stateMutability":"nonpayable"},{"type":"function","name":"feeReserves","inputs":[{"name":"","type":"address","internalType":"address"}],"outputs":[{"name":"","type":"uint256","internalType":"uint256"}],"stateMutability":"view"},{"type":"function","name":"gov","inputs":[],"outputs":[{"name":"","type":"address","internalType":"address"}],"stateMutability":"view"},{"type":"function","name":"inLegacyMode","inputs":[],"outputs":[{"name":"","type":"bool","internalType":"bool"}],"stateMutability":"view"},{"type":"function","name":"increasePosition","inputs":[{"name":"_path","type":"address[]","internalType":"address[]"},{"name":"_indexToken","type":"address","internalType":"address"},{"name":"_amountIn","type":"uint256","internalType":"uint256"},{"name":"_minOut","type":"uint256","internalType":"uint256"},{"name":"_sizeDelta","type":"uint256","internalType":"uint256"},{"name":"_isLong","type":"bool","internalType":"bool"},{"name":"_price","type":"uint256","internalType":"uint256"}],"outputs":[],"stateMutability":"nonpayable"},{"type":"function","name":"increasePositionBufferBps","inputs":[],"outputs":[{"name":"","type":"uint256","internalType":"uint256"}],"stateMutability":"view"},{"type":"function","name":"increasePositionETH","inputs":[{"name":"_path","type":"address[]","internalType":"address[]"},{"name":"_indexToken","type":"address","internalType":"address"},{"name":"_minOut","type":"uint256","internalType":"uint256"},{"name":"_sizeDelta","type":"uint256","internalType":"uint256"},{"name":"_isLong","type":"bool","internalType":"bool"},{"name":"_price","type":"uint256","internalType":"uint256"}],"outputs":[],"stateMutability":"payable"},{"type":"function","name":"isLiquidator","inputs":[{"name":"","type":"address","internalType":"address"}],"outputs":[{"name":"","type":"bool","internalType":"bool"}],"stateMutability":"view"},{"type":"function","name":"isOrderKeeper","inputs":[{"name":"","type":"address","internalType":"address"}],"outputs":[{"name":"","type":"bool","internalType":"bool"}],"stateMutability":"view"},{"type":"function","name":"isPartner","inputs":[{"name":"","type":"address","internalType":"address"}],"outputs":[{"name":"","type":"bool","internalType":"bool"}],"stateMutability":"view"},{"type":"function","name":"liquidatePosition","inputs":[{"name":"_account","type":"address","internalType":"address"},{"name":"_collateralToken","type":"address","internalType":"address"},{"name":"_indexToken","type":"address","internalType":"address"},{"name":"_isLong","type":"bool","internalType":"bool"},{"name":"_feeReceiver","type":"address","internalType":"address"}],"outputs":[],"stateMutability":"nonpayable"},{"type":"function","name":"maxGlobalLongSizes","inputs":[{"name":"","type":"address","internalType":"address"}],"outputs":[{"name":"","type":"uint256","internalType":"uint256"}],"stateMutability":"view"},{"type":"function","name":"maxGlobalShortSizes","inputs":[{"name":"","type":"address","internalType":"address"}],"outputs":[{"name":"","type":"uint256","internalType":"uint256"}],"stateMutability":"view"},{"type":"function","name":"orderBook","inputs":[],"outputs":[{"name":"","type":"address","internalType":"address"}],"stateMutability":"view"},{"type":"function","name":"referralStorage","inputs":[],"outputs":[{"name":"","type":"address","internalType":"address"}],"stateMutability":"view"},{"type":"function","name":"router","inputs":[],"outputs":[{"name":"","type":"address","internalType":"address"}],"stateMutability":"view"},{"type":"function","name":"sendValue","inputs":[{"name":"_receiver","type":"address","internalType":"address payable"},{"name":"_amount","type":"uint256","internalType":"uint256"}],"outputs":[],"stateMutability":"nonpayable"},{"type":"function","name":"setAdmin","inputs":[{"name":"_admin","type":"address","internalType":"address"}],"outputs":[],"stateMutability":"nonpayable"},{"type":"function","name":"setDepositFee","inputs":[{"name":"_depositFee","type":"uint256","internalType":"uint256"}],"outputs":[],"stateMutability":"nonpayable"},{"type":"function","name":"setEthTransferGasLimit","inputs":[{"name":"_ethTransferGasLimit","type":"uint256","internalType":"uint256"}],"outputs":[],"stateMutability":"nonpayable"},{"type":"function","name":"setGov","inputs":[{"name":"_gov","type":"address","internalType":"address"}],"outputs":[],"stateMutability":"nonpayable"},{"type":"function","name":"setInLegacyMode","inputs":[{"name":"_inLegacyMode","type":"bool","internalType":"bool"}],"outputs":[],"stateMutability":"nonpayable"},{"type":"function","name":"setIncreasePositionBufferBps","inputs":[{"name":"_increasePositionBufferBps","type":"uint256","internalType":"uint256"}],"outputs":[],"stateMutability":"nonpayable"},{"type":"function","name":"setLiquidator","inputs":[{"name":"_account","type":"address","internalType":"address"},{"name":"_isActive","type":"bool","internalType":"bool"}],"outputs":[],"stateMutability":"nonpayable"},{"type":"function","name":"setMaxGlobalSizes","inputs":[{"name":"_tokens","type":"address[]","internalType":"address[]"},{"name":"_longSizes","type":"uint256[]","internalType":"uint256[]"},{"name":"_shortSizes","type":"uint256[]","internalType":"uint256[]"}],"outputs":[],"stateMutability":"nonpayable"},{"type":"function","name":"setOrderKeeper","inputs":[{"name":"_account","type":"address","internalType":"address"},{"name":"_isActive","type":"bool","internalType":"bool"}],"outputs":[],"stateMutability":"nonpayable"},{"type":"function","name":"setPartner","inputs":[{"name":"_account","type":"address","internalType":"address"},{"name":"_isActive","type":"bool","internalType":"bool"}],"outputs":[],"stateMutability":"nonpayable"},{"type":"function","name":"setReferralStorage","inputs":[{"name":"_referralStorage","type":"address","internalType":"address"}],"outputs":[],"stateMutability":"nonpayable"},{"type":"function","name":"setShouldValidateIncreaseOrder","inputs":[{"name":"_shouldValidateIncreaseOrder","type":"bool","internalType":"bool"}],"outputs":[],"stateMutability":"nonpayable"},{"type":"function","name":"shortsTracker","inputs":[],"outputs":[{"name":"","type":"address","internalType":"address"}],"stateMutability":"view"},{"type":"function","name":"shouldValidateIncreaseOrder","inputs":[],"outputs":[{"name":"","type":"bool","internalType":"bool"}],"stateMutability":"view"},{"type":"function","name":"vault","inputs":[],"outputs":[{"name":"","type":"address","internalType":"address"}],"stateMutability":"view"},{"type":"function","name":"weth","inputs":[],"outputs":[{"name":"","type":"address","internalType":"address"}],"stateMutability":"view"},{"type":"function","name":"withdrawFees","inputs":[{"name":"_token","type":"address","internalType":"address"},{"name":"_receiver","type":"address","internalType":"address"}],"outputs":[],"stateMutability":"nonpayable"},{"type":"event","name":"DecreasePositionReferral","inputs":[{"name":"account","type":"address","indexed":false,"internalType":"address"},{"name":"sizeDelta","type":"uint256","indexed":false,"internalType":"uint256"},{"name":"marginFeeBasisPoints","type":"uint256","indexed":false,"internalType":"uint256"},{"name":"referralCode","type":"bytes32","indexed":false,"internalType":"bytes32"},{"name":"referrer","type":"address","indexed":false,"internalType":"address"}],"anonymous":false},{"type":"event","name":"IncreasePositionReferral","inputs":[{"name":"account","type":"address","indexed":false,"internalType":"address"},{"name":"sizeDelta","type":"uint256","indexed":false,"internalType":"uint256"},{"name":"marginFeeBasisPoints","type":"uint256","indexed":false,"internalType":"uint256"},{"name":"referralCode","type":"bytes32","indexed":false,"internalType":"bytes32"},{"name":"referrer","type":"address","indexed":false,"internalType":"address"}],"anonymous":false},{"type":"event","name":"SetAdmin","inputs":[{"name":"admin","type":"address","indexed":false,"internalType":"address"}],"anonymous":false},{"type":"event","name":"SetDepositFee","inputs":[{"name":"depositFee","type":"uint256","indexed":false,"internalType":"uint256"}],"anonymous":false},{"type":"event","name":"SetEthTransferGasLimit","inputs":[{"name":"ethTransferGasLimit","type":"uint256","indexed":false,"internalType":"uint256"}],"anonymous":false},{"type":"event","name":"SetInLegacyMode","inputs":[{"name":"inLegacyMode","type":"bool","indexed":false,"internalType":"bool"}],"anonymous":false},{"type":"event","name":"SetIncreasePositionBufferBps","inputs":[{"name":"increasePositionBufferBps","type":"uint256","indexed":false,"internalType":"uint256"}],"anonymous":false},{"type":"event","name":"SetLiquidator","inputs":[{"name":"account","type":"address","indexed":true,"internalType":"address"},{"name":"isActive","type":"bool","indexed":false,"internalType":"bool"}],"anonymous":false},{"type":"event","name":"SetMaxGlobalSizes","inputs":[{"name":"tokens","type":"address[]","indexed":false,"internalType":"address[]"},{"name":"longSizes","type":"uint256[]","indexed":false,"internalType":"uint256[]"},{"name":"shortSizes","type":"uint256[]","indexed":false,"internalType":"uint256[]"}],"anonymous":false},{"type":"event","name":"SetOrderKeeper","inputs":[{"name":"account","type":"address","indexed":true,"internalType":"address"},{"name":"isActive","type":"bool","indexed":false,"internalType":"bool"}],"anonymous":false},{"type":"event","name":"SetPartner","inputs":[{"name":"account","type":"address","indexed":false,"internalType":"address"},{"name":"isActive","type":"bool","indexed":false,"internalType":"bool"}],"anonymous":false},{"type":"event","name":"SetReferralStorage","inputs":[{"name":"referralStorage","type":"address","indexed":false,"internalType":"address"}],"anonymous":false},{"type":"event","name":"SetShouldValidateIncreaseOrder","inputs":[{"name":"shouldValidateIncreaseOrder","type":"bool","indexed":false,"internalType":"bool"}],"anonymous":false},{"type":"event","name":"WithdrawFees","inputs":[{"name":"token","type":"address","indexed":false,"internalType":"address"},{"name":"receiver","type":"address","indexed":false,"internalType":"address"},{"name":"amount","type":"uint256","indexed":false,"internalType":"uint256"}],"anonymous":false}],"bytecode":{"object":"0x60806040526207a1206007556064600955600e805460ff60a81b1916600160a81b17905534801561002f57600080fd5b5060405162004f0838038062004f08833981810160405260c081101561005457600080fd5b508051602082015160408301516060840151608085015160a09095015160018054336001600160a01b031991821681179092556003805482166001600160a01b039889161790556005805482169688169690961790955560068054861693871693909317909255600895909555600480548416928516929092179091556002805483169091179055600e805490911691909216179055614e0e80620000fa6000396000f3fe6080604052600436106102155760003560e01c80635fc8500e1161011f5780635fc8500e14610756578063657bc5d01461083657806367a527931461084b578063704b6c0214610860578063776af5ba146108935780638c0f9aac146108a857806390205d8c146108db5780639698d25a1461093a57806398d1e03a1461096d5780639c95332f14610982578063ae4d7f9a146109ae578063b32755de146109e1578063b7ddc99214610aa4578063cfad57a214610b7a578063d38ab51914610bad578063d4ca83f914610bf0578063de2ea94814610c05578063e1f21c6714610c5a578063ef12c67e14610c9d578063f255527814610e4f578063f851a44014610e8a578063f887ea4014610e9f578063fbfa77cf14610eb45761026c565b80626cc35e1461027157806307c7edc3146102a25780631045c74e146102e557806311d9444a1461032a578063126082cf1461036d57806312d43a51146103825780631b904359146103975780631ce9cb8f146103c35780631e261538146103f657806321acf65914610431578063233bfe3b1461046c57806324a084df146104965780632d79cf42146104cf5780633039e37f146104e45780633833f5f5146105c45780633a9b52ad1461060b5780633fc8cef314610635578063430ed37c1461064a5780634453a374146106a95780634584bd4b146106e4578063490ae210146106f9578063529a356f146107235761026c565b3661026c576006546001600160a01b0316331461026a576040805162461bcd60e51b815260206004820152600e60248201526d34b73b30b634b21039b2b73232b960911b604482015290519081900360640190fd5b005b600080fd5b34801561027d57600080fd5b50610286610ec9565b604080516001600160a01b039092168252519081900360200190f35b3480156102ae57600080fd5b5061026a600480360360608110156102c557600080fd5b506001600160a01b03813581169160208101359160409091013516610ed8565b3480156102f157600080fd5b506103186004803603602081101561030857600080fd5b50356001600160a01b0316610fa4565b60408051918252519081900360200190f35b34801561033657600080fd5b5061026a6004803603606081101561034d57600080fd5b506001600160a01b03813581169160208101359160409091013516610fb6565b34801561037957600080fd5b50610318611416565b34801561038e57600080fd5b5061028661141c565b3480156103a357600080fd5b5061026a600480360360208110156103ba57600080fd5b5035151561142b565b3480156103cf57600080fd5b50610318600480360360208110156103e657600080fd5b50356001600160a01b03166114c9565b34801561040257600080fd5b5061026a6004803603604081101561041957600080fd5b506001600160a01b03813516906020013515156114db565b34801561043d57600080fd5b5061026a6004803603604081101561045457600080fd5b506001600160a01b0381351690602001351515611586565b34801561047857600080fd5b5061026a6004803603602081101561048f57600080fd5b5035611635565b3480156104a257600080fd5b5061026a600480360360408110156104b957600080fd5b506001600160a01b0381351690602001356116bb565b3480156104db57600080fd5b5061031861171f565b3480156104f057600080fd5b5061026a600480360361010081101561050857600080fd5b810190602081018135600160201b81111561052257600080fd5b82018360208201111561053457600080fd5b803590602001918460208302840111600160201b8311171561055557600080fd5b919080806020026020016040519081016040528093929190818152602001838360200280828437600092019190915250929550505081356001600160a01b0390811693506020830135926040810135925060608101351515916080820135169060a08101359060c00135611725565b3480156105d057600080fd5b506105f7600480360360208110156105e757600080fd5b50356001600160a01b0316611932565b604080519115158252519081900360200190f35b34801561061757600080fd5b5061026a6004803603602081101561062e57600080fd5b5035611947565b34801561064157600080fd5b506102866119cd565b34801561065657600080fd5b5061026a600480360360e081101561066d57600080fd5b506001600160a01b0381358116916020810135821691604082013591606081013591608082013515159160a08101359091169060c001356119dc565b3480156106b557600080fd5b5061026a600480360360408110156106cc57600080fd5b506001600160a01b0381351690602001351515611b05565b3480156106f057600080fd5b506105f7611bb0565b34801561070557600080fd5b5061026a6004803603602081101561071c57600080fd5b5035611bc0565b34801561072f57600080fd5b506105f76004803603602081101561074657600080fd5b50356001600160a01b0316611c46565b34801561076257600080fd5b5061026a600480360361010081101561077a57600080fd5b810190602081018135600160201b81111561079457600080fd5b8201836020820111156107a657600080fd5b803590602001918460208302840111600160201b831117156107c757600080fd5b919080806020026020016040519081016040528093929190818152602001838360200280828437600092019190915250929550505081356001600160a01b0390811693506020830135926040810135925060608101351515916080820135169060a08101359060c00135611c5b565b34801561084257600080fd5b50610286611d92565b34801561085757600080fd5b50610318611da1565b34801561086c57600080fd5b5061026a6004803603602081101561088357600080fd5b50356001600160a01b0316611da7565b34801561089f57600080fd5b50610286611e48565b3480156108b457600080fd5b506105f7600480360360208110156108cb57600080fd5b50356001600160a01b0316611e57565b3480156108e757600080fd5b5061026a600480360360e08110156108fe57600080fd5b506001600160a01b0381358116916020810135821691604082013591606081013591608082013515159160a08101359091169060c00135611e6c565b34801561094657600080fd5b506103186004803603602081101561095d57600080fd5b50356001600160a01b0316611f2c565b34801561097957600080fd5b50610318611f3e565b34801561098e57600080fd5b5061026a600480360360208110156109a557600080fd5b50351515611f44565b3480156109ba57600080fd5b5061026a600480360360208110156109d157600080fd5b50356001600160a01b0316611fe2565b61026a600480360360c08110156109f757600080fd5b810190602081018135600160201b811115610a1157600080fd5b820183602082011115610a2357600080fd5b803590602001918460208302840111600160201b83111715610a4457600080fd5b919080806020026020016040519081016040528093929190818152602001838360200280828437600092019190915250929550506001600160a01b0383351693505050602081013590604081013590606081013515159060800135612081565b348015610ab057600080fd5b5061026a600480360360e0811015610ac757600080fd5b810190602081018135600160201b811115610ae157600080fd5b820183602082011115610af357600080fd5b803590602001918460208302840111600160201b83111715610b1457600080fd5b919080806020026020016040519081016040528093929190818152602001838360200280828437600092019190915250929550506001600160a01b0383351693505050602081013590604081013590606081013590608081013515159060a001356122b2565b348015610b8657600080fd5b5061026a60048036036020811015610b9d57600080fd5b50356001600160a01b0316612591565b348015610bb957600080fd5b5061026a60048036036060811015610bd057600080fd5b506001600160a01b03813581169160208101359160409091013516612600565b348015610bfc57600080fd5b506105f7612a61565b348015610c1157600080fd5b5061026a600480360360a0811015610c2857600080fd5b506001600160a01b03813581169160208101358216916040820135811691606081013515159160809091013516612a71565b348015610c6657600080fd5b5061026a60048036036060811015610c7d57600080fd5b506001600160a01b03813581169160208101359091169060400135612f16565b348015610ca957600080fd5b5061026a60048036036060811015610cc057600080fd5b810190602081018135600160201b811115610cda57600080fd5b820183602082011115610cec57600080fd5b803590602001918460208302840111600160201b83111715610d0d57600080fd5b9190808060200260200160405190810160405280939291908181526020018383602002808284376000920191909152509295949360208101935035915050600160201b811115610d5c57600080fd5b820183602082011115610d6e57600080fd5b803590602001918460208302840111600160201b83111715610d8f57600080fd5b9190808060200260200160405190810160405280939291908181526020018383602002808284376000920191909152509295949360208101935035915050600160201b811115610dde57600080fd5b820183602082011115610df057600080fd5b803590602001918460208302840111600160201b83111715610e1157600080fd5b919080806020026020016040519081016040528093929190818152602001838360200280828437600092019190915250929550612feb945050505050565b348015610e5b57600080fd5b5061026a60048036036040811015610e7257600080fd5b506001600160a01b03813581169160200135166131d8565b348015610e9657600080fd5b506102866132ba565b348015610eab57600080fd5b506102866132c9565b348015610ec057600080fd5b506102866132d8565b600a546001600160a01b031681565b336000908152600f602052604090205460ff16610f2a576040805162461bcd60e51b815260206004820152601a6024820152600080516020614d1a833981519152604482015290519081900360640190fd5b600e54604080516307c7edc360e01b81526001600160a01b038681166004830152602482018690528481166044830152915191909216916307c7edc391606480830192600092919082900301818387803b158015610f8757600080fd5b505af1158015610f9b573d6000803e3d6000fd5b50505050505050565b600c6020526000908152604090205481565b336000908152600f602052604090205460ff16611008576040805162461bcd60e51b815260206004820152601a6024820152600080516020614d1a833981519152604482015290519081900360640190fd5b600354604080516312d43a5160e01b815290516001600160a01b039092169160009183916312d43a5191600480820192602092909190829003018186803b15801561105257600080fd5b505afa158015611066573d6000803e3d6000fd5b505050506040513d602081101561107c57600080fd5b5051600e5460408051630130197760e11b81526001600160a01b03898116600483015260248201899052915193945060009384938493849391169163026032ee9160448082019261010092909190829003018186803b1580156110de57600080fd5b505afa1580156110f2573d6000803e3d6000fd5b505050506040513d61010081101561110957600080fd5b50805160408201516060830151608090930151919650945090925090506000816111ab57866001600160a01b031663e124e6d2856040518263ffffffff1660e01b815260040180826001600160a01b0316815260200191505060206040518083038186803b15801561117a57600080fd5b505afa15801561118e573d6000803e3d6000fd5b505050506040513d60208110156111a457600080fd5b5051611225565b866001600160a01b03166381a612d6856040518263ffffffff1660e01b815260040180826001600160a01b0316815260200191505060206040518083038186803b1580156111f857600080fd5b505afa15801561120c573d6000803e3d6000fd5b505050506040513d602081101561122257600080fd5b50515b6004805460408051633cc8e33b60e21b81526001600160a01b038f8116948201949094528984166024820152888416604482015286151560648201526084810188905260a48101859052600060c482018190529151949550929091169263f3238cec9260e480820193929182900301818387803b1580156112a557600080fd5b505af11580156112b9573d6000803e3d6000fd5b50505050856001600160a01b0316636d63c1d0886040518263ffffffff1660e01b815260040180826001600160a01b03168152602001915050600060405180830381600087803b15801561130c57600080fd5b505af1158015611320573d6000803e3d6000fd5b5050600e54604080516308eca22560e11b81526001600160a01b038f81166004830152602482018f90528d8116604483015291519190921693506311d9444a9250606480830192600092919082900301818387803b15801561138157600080fd5b505af1158015611395573d6000803e3d6000fd5b50505050856001600160a01b031663d3c87bbb886040518263ffffffff1660e01b815260040180826001600160a01b03168152602001915050600060405180830381600087803b1580156113e857600080fd5b505af11580156113fc573d6000803e3d6000fd5b5050505061140a8a846132e7565b50505050505050505050565b61271081565b6001546001600160a01b031681565b6002546001600160a01b03163314611476576040805162461bcd60e51b81526020600482015260096024820152683337b93134b23232b760b91b604482015290519081900360640190fd5b600e8054821515600160a81b810260ff60a81b199092169190911790915560408051918252517fa956222e37fe025ff51e5440ac729a9bd417ff91e485e14dcffa2c0ba8894f409181900360200190a150565b600b6020526000908152604090205481565b6002546001600160a01b03163314611526576040805162461bcd60e51b81526020600482015260096024820152683337b93134b23232b760b91b604482015290519081900360640190fd5b6001600160a01b0382166000818152600f6020908152604091829020805460ff1916851515908117909155825190815291517f1d5bc0255b943d6a5b5279e8a55d74d620baccbceecb25e87a3558f14c4c118e9281900390910190a25050565b6002546001600160a01b031633146115d1576040805162461bcd60e51b81526020600482015260096024820152683337b93134b23232b760b91b604482015290519081900360640190fd5b6001600160a01b038216600081815260106020908152604091829020805460ff191685151590811790915582519384529083015280517fa4e46c70ff429a91de7d1716d736e877c7cca1c22ac850b23d242530dd95e4749281900390910190a15050565b6002546001600160a01b03163314611680576040805162461bcd60e51b81526020600482015260096024820152683337b93134b23232b760b91b604482015290519081900360640190fd5b60098190556040805182815290517f21167d0d4661af93817ebce920f18986eed3d75d5e1c03f2aed05efcbafbc4529181900360200190a150565b6001546001600160a01b03163314611708576040805162461bcd60e51b81526020600482015260156024820152600080516020614c79833981519152604482015290519081900360640190fd5b61171b6001600160a01b038316826134dc565b5050565b60075481565b6002600054141561176b576040805162461bcd60e51b815260206004820152601f6024820152600080516020614c59833981519152604482015290519081900360640190fd5b600260009081553381526010602052604090205460ff16806117965750600e54600160a01b900460ff165b6117d5576040805162461bcd60e51b815260206004820152601a6024820152600080516020614d1a833981519152604482015290519081900360640190fd5b87516002146118155760405162461bcd60e51b8152600401808060200182810382526025815260200180614db46025913960400191505060405180910390fd5b60065488516001600160a01b03909116908990600019810190811061183657fe5b60200260200101516001600160a01b031614611899576040805162461bcd60e51b815260206004820152601e60248201527f506f736974696f6e4d616e616765723a20696e76616c6964205f706174680000604482015290519081900360640190fd5b60006118bf338a6000815181106118ac57fe5b60200260200101518a8a8a8a308a6135c6565b9050611908600360009054906101000a90046001600160a01b0316828b6000815181106118e857fe5b60200260200101516001600160a01b0316613a739092919063ffffffff16565b60006119158a8430613ac5565b90506119218186613b57565b505060016000555050505050505050565b600f6020526000908152604090205460ff1681565b6002546001600160a01b03163314611992576040805162461bcd60e51b81526020600482015260096024820152683337b93134b23232b760b91b604482015290519081900360640190fd5b60078190556040805182815290517f4d371d598d3a13f99ce992a17975bbaf1e1c256e072ec7d2f93ce88e40d9ba1c9181900360200190a150565b6006546001600160a01b031681565b60026000541415611a22576040805162461bcd60e51b815260206004820152601f6024820152600080516020614c59833981519152604482015290519081900360640190fd5b600260009081553381526010602052604090205460ff1680611a4d5750600e54600160a01b900460ff165b611a8c576040805162461bcd60e51b815260206004820152601a6024820152600080516020614d1a833981519152604482015290519081900360640190fd5b6006546001600160a01b03888116911614611ad85760405162461bcd60e51b8152600401808060200182810382526029815260200180614d616029913960400191505060405180910390fd5b6000611aea33898989898930896135c6565b9050611af68184613b57565b50506001600055505050505050565b6002546001600160a01b03163314611b50576040805162461bcd60e51b81526020600482015260096024820152683337b93134b23232b760b91b604482015290519081900360640190fd5b6001600160a01b038216600081815260116020908152604091829020805460ff1916851515908117909155825190815291517f8c0d56805c3b43d441481229dc64bee168253ffe4305f37ab7cfe63b1c4268c69281900390910190a25050565b600e54600160a81b900460ff1681565b6002546001600160a01b03163314611c0b576040805162461bcd60e51b81526020600482015260096024820152683337b93134b23232b760b91b604482015290519081900360640190fd5b60088190556040805182815290517f974fd3c1fcb4653dfc4fb740c4c692cd212d55c28f163f310128cb64d83006759181900360200190a150565b60116020526000908152604090205460ff1681565b60026000541415611ca1576040805162461bcd60e51b815260206004820152601f6024820152600080516020614c59833981519152604482015290519081900360640190fd5b600260009081553381526010602052604090205460ff1680611ccc5750600e54600160a01b900460ff165b611d0b576040805162461bcd60e51b815260206004820152601a6024820152600080516020614d1a833981519152604482015290519081900360640190fd5b8751600214611d4b5760405162461bcd60e51b8152600401808060200182810382526025815260200180614db46025913960400191505060405180910390fd5b6000611d5e338a6000815181106118ac57fe5b9050611d87600360009054906101000a90046001600160a01b0316828b6000815181106118e857fe5b611921898386613ac5565b6004546001600160a01b031681565b60085481565b6001546001600160a01b03163314611df4576040805162461bcd60e51b81526020600482015260156024820152600080516020614c79833981519152604482015290519081900360640190fd5b600280546001600160a01b0383166001600160a01b0319909116811790915560408051918252517f5a272403b402d892977df56625f4164ccaf70ca3863991c43ecfe76a6905b0a19181900360200190a150565b600e546001600160a01b031681565b60106020526000908152604090205460ff1681565b60026000541415611eb2576040805162461bcd60e51b815260206004820152601f6024820152600080516020614c59833981519152604482015290519081900360640190fd5b600260009081553381526010602052604090205460ff1680611edd5750600e54600160a01b900460ff165b611f1c576040805162461bcd60e51b815260206004820152601a6024820152600080516020614d1a833981519152604482015290519081900360640190fd5b611af633888888888888886135c6565b600d6020526000908152604090205481565b60095481565b6002546001600160a01b03163314611f8f576040805162461bcd60e51b81526020600482015260096024820152683337b93134b23232b760b91b604482015290519081900360640190fd5b600e8054821515600160a01b810260ff60a01b199092169190911790915560408051918252517feac6b3611e79ff0d8ea5daa8439f6b1ab7eea4ebf95f1dd360417f712c3fc3049181900360200190a150565b6002546001600160a01b0316331461202d576040805162461bcd60e51b81526020600482015260096024820152683337b93134b23232b760b91b604482015290519081900360640190fd5b600a80546001600160a01b0383166001600160a01b0319909116811790915560408051918252517f828abcccea18192c21d645e575652c49e20b986dab777906fc473d056b01b6a89181900360200190a150565b600260005414156120c7576040805162461bcd60e51b815260206004820152601f6024820152600080516020614c59833981519152604482015290519081900360640190fd5b600260009081553381526010602052604090205460ff16806120f25750600e54600160a01b900460ff165b612131576040805162461bcd60e51b815260206004820152601a6024820152600080516020614d1a833981519152604482015290519081900360640190fd5b855160011480612142575085516002145b61217d5760405162461bcd60e51b8152600401808060200182810382526025815260200180614db46025913960400191505060405180910390fd5b60065486516001600160a01b0390911690879060009061219957fe5b60200260200101516001600160a01b0316146121fc576040805162461bcd60e51b815260206004820152601e60248201527f506f736974696f6e4d616e616765723a20696e76616c6964205f706174680000604482015290519081900360640190fd5b34156122805761220a613cff565b855134906001101561224157600354600654612233916001600160a01b03918216911634613a73565b61223e878630613ac5565b90505b60006122513389848a888a613d6b565b905061227d600360009054906101000a90046001600160a01b0316828a60018c5103815181106118e857fe5b50505b6122a5338760018951038151811061229457fe5b602002602001015187868686613f61565b5050600160005550505050565b600260005414156122f8576040805162461bcd60e51b815260206004820152601f6024820152600080516020614c59833981519152604482015290519081900360640190fd5b600260009081553381526010602052604090205460ff16806123235750600e54600160a01b900460ff165b612362576040805162461bcd60e51b815260206004820152601a6024820152600080516020614d1a833981519152604482015290519081900360640190fd5b865160011480612373575086516002145b6123ae5760405162461bcd60e51b8152600401808060200182810382526025815260200180614db46025913960400191505060405180910390fd5b841561255e5786516001141561246e5760055487516001600160a01b0390911690631b8278789089906000906123e057fe5b60200260200101513330896040518563ffffffff1660e01b815260040180856001600160a01b03168152602001846001600160a01b03168152602001836001600160a01b03168152602001828152602001945050505050600060405180830381600087803b15801561245157600080fd5b505af1158015612465573d6000803e3d6000fd5b50505050612520565b60055487516001600160a01b0390911690631b82787890899060009061249057fe5b6020908102919091010151600354604080516001600160e01b031960e086901b1681526001600160a01b0393841660048201523360248201529290911660448301526064820189905251608480830192600092919082900301818387803b1580156124fa57600080fd5b505af115801561250e573d6000803e3d6000fd5b5050505061251d878530613ac5565b94505b60006125303389888a8789613d6b565b905061255c600360009054906101000a90046001600160a01b0316828a60018c5103815181106118e857fe5b505b612583338860018a51038151811061257257fe5b602002602001015188868686613f61565b505060016000555050505050565b6001546001600160a01b031633146125de576040805162461bcd60e51b81526020600482015260156024820152600080516020614c79833981519152604482015290519081900360640190fd5b600180546001600160a01b0319166001600160a01b0392909216919091179055565b336000908152600f602052604090205460ff16612652576040805162461bcd60e51b815260206004820152601a6024820152600080516020614d1a833981519152604482015290519081900360640190fd5b61265c8383614033565b600354604080516312d43a5160e01b815290516001600160a01b039092169160009183916312d43a5191600480820192602092909190829003018186803b1580156126a657600080fd5b505afa1580156126ba573d6000803e3d6000fd5b505050506040513d60208110156126d057600080fd5b5051600e546040805163d3bab1d160e01b81526001600160a01b03898116600483015260248201899052915193945060009384938493849391169163d3bab1d19160448082019261012092909190829003018186803b15801561273257600080fd5b505afa158015612746573d6000803e3d6000fd5b505050506040513d61012081101561275d57600080fd5b5060408101516060820151608083015160a0909301519196509450909250905060008161280257866001600160a01b03166381a612d6856040518263ffffffff1660e01b815260040180826001600160a01b0316815260200191505060206040518083038186803b1580156127d157600080fd5b505afa1580156127e5573d6000803e3d6000fd5b505050506040513d60208110156127fb57600080fd5b505161287c565b866001600160a01b031663e124e6d2856040518263ffffffff1660e01b815260040180826001600160a01b0316815260200191505060206040518083038186803b15801561284f57600080fd5b505afa158015612863573d6000803e3d6000fd5b505050506040513d602081101561287957600080fd5b50515b6004805460408051633cc8e33b60e21b81526001600160a01b038f8116948201949094528984166024820152888416604482015286151560648201526084810188905260a48101859052600160c4820152905193945091169163f3238cec9160e48082019260009290919082900301818387803b1580156128fc57600080fd5b505af1158015612910573d6000803e3d6000fd5b50505050856001600160a01b0316636d63c1d0886040518263ffffffff1660e01b815260040180826001600160a01b03168152602001915050600060405180830381600087803b15801561296357600080fd5b505af1158015612977573d6000803e3d6000fd5b5050600e546040805163d38ab51960e01b81526001600160a01b038f81166004830152602482018f90528d81166044830152915191909216935063d38ab5199250606480830192600092919082900301818387803b1580156129d857600080fd5b505af11580156129ec573d6000803e3d6000fd5b50505050856001600160a01b031663d3c87bbb886040518263ffffffff1660e01b815260040180826001600160a01b03168152602001915050600060405180830381600087803b158015612a3f57600080fd5b505af1158015612a53573d6000803e3d6000fd5b5050505061140a8a84614356565b600e54600160a01b900460ff1681565b60026000541415612ab7576040805162461bcd60e51b815260206004820152601f6024820152600080516020614c59833981519152604482015290519081900360640190fd5b600260009081553381526011602052604090205460ff16612b0d576040805162461bcd60e51b815260206004820152601a6024820152600080516020614d1a833981519152604482015290519081900360640190fd5b600354604080516312d43a5160e01b815290516001600160a01b039092169160009183916312d43a5191600480820192602092909190829003018186803b158015612b5757600080fd5b505afa158015612b6b573d6000803e3d6000fd5b505050506040513d6020811015612b8157600080fd5b505160035460408051634a3f088d60e01b81526001600160a01b038b811660048301528a811660248301528981166044830152881515606483015291519394506000939190921691634a3f088d91608480830192610100929190829003018186803b158015612bef57600080fd5b505afa158015612c03573d6000803e3d6000fd5b505050506040513d610100811015612c1a57600080fd5b50519050600085612ca357836001600160a01b031663e124e6d2886040518263ffffffff1660e01b815260040180826001600160a01b0316815260200191505060206040518083038186803b158015612c7257600080fd5b505afa158015612c86573d6000803e3d6000fd5b505050506040513d6020811015612c9c57600080fd5b5051612d1d565b836001600160a01b03166381a612d6886040518263ffffffff1660e01b815260040180826001600160a01b0316815260200191505060206040518083038186803b158015612cf057600080fd5b505afa158015612d04573d6000803e3d6000fd5b505050506040513d6020811015612d1a57600080fd5b50515b6004805460408051633cc8e33b60e21b81526001600160a01b038e8116948201949094528c841660248201528b841660448201528a151560648201526084810187905260a48101859052600060c482018190529151949550929091169263f3238cec9260e480820193929182900301818387803b158015612d9d57600080fd5b505af1158015612db1573d6000803e3d6000fd5b50505050826001600160a01b0316636d63c1d0856040518263ffffffff1660e01b815260040180826001600160a01b03168152602001915050600060405180830381600087803b158015612e0457600080fd5b505af1158015612e18573d6000803e3d6000fd5b505060408051631bc5d52960e31b81526001600160a01b038d811660048301528c811660248301528b811660448301528a1515606483015289811660848301529151918816935063de2ea948925060a48082019260009290919082900301818387803b158015612e8757600080fd5b505af1158015612e9b573d6000803e3d6000fd5b50505050826001600160a01b031663d3c87bbb856040518263ffffffff1660e01b815260040180826001600160a01b03168152602001915050600060405180830381600087803b158015612eee57600080fd5b505af1158015612f02573d6000803e3d6000fd5b505060016000555050505050505050505050565b6001546001600160a01b03163314612f63576040805162461bcd60e51b81526020600482015260156024820152600080516020614c79833981519152604482015290519081900360640190fd5b826001600160a01b031663095ea7b383836040518363ffffffff1660e01b815260040180836001600160a01b0316815260200182815260200192505050602060405180830381600087803b158015612fba57600080fd5b505af1158015612fce573d6000803e3d6000fd5b505050506040513d6020811015612fe457600080fd5b5050505050565b6002546001600160a01b03163314613036576040805162461bcd60e51b81526020600482015260096024820152683337b93134b23232b760b91b604482015290519081900360640190fd5b60005b83518110156130d157600084828151811061305057fe5b6020026020010151905083828151811061306657fe5b6020026020010151600c6000836001600160a01b03166001600160a01b03168152602001908152602001600020819055508282815181106130a357fe5b6020908102919091018101516001600160a01b039092166000908152600d9091526040902055600101613039565b507fae32d569b058895b9620d6552b09aaffedc9a6f396be4d595a224ad09f8b213983838360405180806020018060200180602001848103845287818151815260200191508051906020019060200280838360005b8381101561313e578181015183820152602001613126565b50505050905001848103835286818151815260200191508051906020019060200280838360005b8381101561317d578181015183820152602001613165565b50505050905001848103825285818151815260200191508051906020019060200280838360005b838110156131bc5781810151838201526020016131a4565b50505050905001965050505050505060405180910390a1505050565b6002546001600160a01b03163314613223576040805162461bcd60e51b81526020600482015260096024820152683337b93134b23232b760b91b604482015290519081900360640190fd5b6001600160a01b0382166000908152600b602052604090205480613247575061171b565b6001600160a01b0383166000818152600b602052604081205561326b908383613a73565b604080516001600160a01b0380861682528416602082015280820183905290517f4f1b51dd7a2fcb861aa2670f668be66835c4ee12b4bbbf037e4d0018f39819e49181900360600190a1505050565b6002546001600160a01b031681565b6005546001600160a01b031681565b6003546001600160a01b031681565b600a546001600160a01b0316806132fe575061171b565b600080826001600160a01b031663534ef883866040518263ffffffff1660e01b815260040180826001600160a01b03168152602001915050604080518083038186803b15801561334d57600080fd5b505afa158015613361573d6000803e3d6000fd5b505050506040513d604081101561337757600080fd5b5080516020909101519092509050816133925750505061171b565b600354604080516312d43a5160e01b815290516000926001600160a01b0316916312d43a51916004808301926020929190829003018186803b1580156133d757600080fd5b505afa1580156133eb573d6000803e3d6000fd5b505050506040513d602081101561340157600080fd5b50516040805163318bc68960e01b815290519192507f474c763ff84bf2c2039a6d9fea955ecd0f724030e3c365b91169c6a16fe751b791889188916001600160a01b0386169163318bc6899160048083019260209291908290030181600087803b15801561346e57600080fd5b505af1158015613482573d6000803e3d6000fd5b505050506040513d602081101561349857600080fd5b5051604080516001600160a01b03948516815260208101939093528281019190915260608201879052918516608082015290519081900360a00190a1505050505050565b80471015613531576040805162461bcd60e51b815260206004820152601d60248201527f416464726573733a20696e73756666696369656e742062616c616e6365000000604482015290519081900360640190fd5b6040516000906001600160a01b0384169083908381818185875af1925050503d806000811461357c576040519150601f19603f3d011682016040523d82523d6000602084013e613581565b606091505b50509050806135c15760405162461bcd60e51b815260040180806020018281038252603a815260200180614c99603a913960400191505060405180910390fd5b505050565b6003546000906001600160a01b0316818561365957816001600160a01b031663e124e6d28a6040518263ffffffff1660e01b815260040180826001600160a01b0316815260200191505060206040518083038186803b15801561362857600080fd5b505afa15801561363c573d6000803e3d6000fd5b505050506040513d602081101561365257600080fd5b50516136d3565b816001600160a01b03166381a612d68a6040518263ffffffff1660e01b815260040180826001600160a01b0316815260200191505060206040518083038186803b1580156136a657600080fd5b505afa1580156136ba573d6000803e3d6000fd5b505050506040513d60208110156136d057600080fd5b50515b905085156137295783811015613724576040805162461bcd60e51b81526020600482015260116024820152706d61726b5072696365203c20707269636560781b604482015290519081900360640190fd5b613772565b83811115613772576040805162461bcd60e51b81526020600482015260116024820152706d61726b5072696365203e20707269636560781b604482015290519081900360640190fd5b6000826001600160a01b03166312d43a516040518163ffffffff1660e01b815260040160206040518083038186803b1580156137ad57600080fd5b505afa1580156137c1573d6000803e3d6000fd5b505050506040513d60208110156137d757600080fd5b81019080805190602001909291905050509050600460009054906101000a90046001600160a01b03166001600160a01b031663f3238cec8d8d8d8b8d8860006040518863ffffffff1660e01b815260040180886001600160a01b03168152602001876001600160a01b03168152602001866001600160a01b0316815260200185151581526020018481526020018381526020018215158152602001975050505050505050600060405180830381600087803b15801561389557600080fd5b505af11580156138a9573d6000803e3d6000fd5b50505050806001600160a01b0316636d63c1d0846040518263ffffffff1660e01b815260040180826001600160a01b03168152602001915050600060405180830381600087803b1580156138fc57600080fd5b505af1158015613910573d6000803e3d6000fd5b505050506000600560009054906101000a90046001600160a01b03166001600160a01b0316632662166b8e8e8e8e8e8e8e6040518863ffffffff1660e01b815260040180886001600160a01b03168152602001876001600160a01b03168152602001866001600160a01b031681526020018581526020018481526020018315158152602001826001600160a01b03168152602001975050505050505050602060405180830381600087803b1580156139c757600080fd5b505af11580156139db573d6000803e3d6000fd5b505050506040513d60208110156139f157600080fd5b50516040805163d3c87bbb60e01b81526001600160a01b03878116600483015291519293509084169163d3c87bbb9160248082019260009290919082900301818387803b158015613a4157600080fd5b505af1158015613a55573d6000803e3d6000fd5b50505050613a638d8a6132e7565b9c9b505050505050505050505050565b604080516001600160a01b038416602482015260448082018490528251808303909101815260649091019091526020810180516001600160e01b031663a9059cbb60e01b1790526135c19084906144dd565b6000835160021415613b0c57613b0584600081518110613ae157fe5b602002602001015185600181518110613af657fe5b6020026020010151858561458e565b9050613b50565b6040805162461bcd60e51b81526020600482015260146024820152730d2dcecc2d8d2c840bee0c2e8d05cd8cadccee8d60631b604482015290519081900360640190fd5b9392505050565b60065460408051632e1a7d4d60e01b81526004810185905290516001600160a01b03909216918291632e1a7d4d91602480830192600092919082900301818387803b158015613ba557600080fd5b505af1158015613bb9573d6000803e3d6000fd5b5050600754604051600093506001600160a01b0386169250869084818181858888f193505050503d8060008114613c0c576040519150601f19603f3d011682016040523d82523d6000602084013e613c11565b606091505b505090508015613c2257505061171b565b816001600160a01b031663d0e30db0856040518263ffffffff1660e01b81526004016000604051808303818588803b158015613c5d57600080fd5b505af1158015613c71573d6000803e3d6000fd5b5050505050816001600160a01b031663a9059cbb84866040518363ffffffff1660e01b815260040180836001600160a01b0316815260200182815260200192505050602060405180830381600087803b158015613ccd57600080fd5b505af1158015613ce1573d6000803e3d6000fd5b505050506040513d6020811015613cf757600080fd5b505050505050565b3415613d6957600660009054906101000a90046001600160a01b03166001600160a01b031663d0e30db0346040518263ffffffff1660e01b81526004016000604051808303818588803b158015613d5557600080fd5b505af1158015612fe4573d6000803e3d6000fd5b565b60008073__$56718d642b85600d0b97533a10e33dc7c4$__63e0cab550600360009054906101000a90046001600160a01b03168a8a8a8a8a8a6009546040518963ffffffff1660e01b815260040180896001600160a01b03168152602001886001600160a01b0316815260200180602001878152602001866001600160a01b031681526020018515158152602001848152602001838152602001828103825288818151815260200191508051906020019060200280838360005b83811015613e3d578181015183820152602001613e25565b50505050905001995050505050505050505060206040518083038186803b158015613e6757600080fd5b505af4158015613e7b573d6000803e3d6000fd5b505050506040513d6020811015613e9157600080fd5b505190508015613f52576000613eca612710613ec4613ebd60085461271061467390919063ffffffff16565b8a906146be565b90614717565b90506000613ed88883614673565b905060008960018b510381518110613eec57fe5b60200260200101519050613f2e82600b6000846001600160a01b03166001600160a01b031681526020019081526020016000205461475690919063ffffffff16565b6001600160a01b039091166000908152600b6020526040902055509150613f579050565b859150505b9695505050505050565b613f6c8483856147ae565b60035460055460048054604080516317c3cf0f60e31b81526001600160a01b03958616938101939093529284166024830152831660448201528883166064820152878316608482015291861660a483015260c4820185905283151560e483015261010482018390525173__$56718d642b85600d0b97533a10e33dc7c4$__9163be1e787891610124808301926000929190829003018186803b15801561401157600080fd5b505af4158015614025573d6000803e3d6000fd5b50505050613cf78684614356565b600e546040805163d3bab1d160e01b81526001600160a01b03858116600483015260248201859052915160009384938493849384938493169163d3bab1d191604480830192610120929190829003018186803b15801561409257600080fd5b505afa1580156140a6573d6000803e3d6000fd5b505050506040513d6101208110156140bd57600080fd5b508051602082015160408301516060840151608085015160a090950151939a509198509650945090925090506140f48382846147ae565b600e54600160a81b900460ff166141105750505050505061171b565b806141205750505050505061171b565b60008211614175576040805162461bcd60e51b815260206004820152601d60248201527f506f736974696f6e4d616e616765723a206c6f6e67206465706f736974000000604482015290519081900360640190fd5b60035460408051634a3f088d60e01b81526001600160a01b038b811660048301528781166024830152868116604483015284151560648301529151919092169160009182918491634a3f088d9160848082019261010092909190829003018186803b1580156141e357600080fd5b505afa1580156141f7573d6000803e3d6000fd5b505050506040513d61010081101561420e57600080fd5b50805160209091015190925090508161422f5750505050505050505061171b565b600061423b8387614756565b90506000846001600160a01b0316630a48d5a98c8c6040518363ffffffff1660e01b815260040180836001600160a01b031681526020018281526020019250505060206040518083038186803b15801561429457600080fd5b505afa1580156142a8573d6000803e3d6000fd5b505050506040513d60208110156142be57600080fd5b5051905060006142ce8483614756565b905060006142e285613ec4886127106146be565b9050600061430383613ec460095461271001886146be90919063ffffffff16565b9050818110156143445760405162461bcd60e51b8152600401808060200182810382526027815260200180614d3a6027913960400191505060405180910390fd5b50505050505050505050505050505050565b600a546001600160a01b03168061436d575061171b565b600080826001600160a01b031663534ef883866040518263ffffffff1660e01b815260040180826001600160a01b03168152602001915050604080518083038186803b1580156143bc57600080fd5b505afa1580156143d0573d6000803e3d6000fd5b505050506040513d60408110156143e657600080fd5b5080516020909101519092509050816144015750505061171b565b600354604080516312d43a5160e01b815290516000926001600160a01b0316916312d43a51916004808301926020929190829003018186803b15801561444657600080fd5b505afa15801561445a573d6000803e3d6000fd5b505050506040513d602081101561447057600080fd5b50516040805163318bc68960e01b815290519192507fc2414023ce7002ee98557d1e7be21e5559073336f2217ee5f9b2e50fd85f71ee91889188916001600160a01b0386169163318bc6899160048083019260209291908290030181600087803b15801561346e57600080fd5b6060614532826040518060400160405280602081526020017f5361666545524332303a206c6f772d6c6576656c2063616c6c206661696c6564815250856001600160a01b031661497d9092919063ffffffff16565b8051909150156135c15780806020019051602081101561455157600080fd5b50516135c15760405162461bcd60e51b815260040180806020018281038252602a815260200180614d8a602a913960400191505060405180910390fd5b60035460408051634998b10960e11b81526001600160a01b03878116600483015286811660248301528481166044830152915160009384931691639331621291606480830192602092919082900301818787803b1580156145ee57600080fd5b505af1158015614602573d6000803e3d6000fd5b505050506040513d602081101561461857600080fd5b505190508381101561466a576040805162461bcd60e51b81526020600482015260166024820152751a5b9cdd59999a58da595b9d08185b5bdd5b9d13dd5d60521b604482015290519081900360640190fd5b95945050505050565b60006146b583836040518060400160405280601e81526020017f536166654d6174683a207375627472616374696f6e206f766572666c6f770000815250614994565b90505b92915050565b6000826146cd575060006146b8565b828202828482816146da57fe5b04146146b55760405162461bcd60e51b8152600401808060200182810382526021815260200180614cf96021913960400191505060405180910390fd5b60006146b583836040518060400160405280601a815260200179536166654d6174683a206469766973696f6e206279207a65726f60301b815250614a2b565b6000828201838110156146b5576040805162461bcd60e51b815260206004820152601b60248201527a536166654d6174683a206164646974696f6e206f766572666c6f7760281b604482015290519081900360640190fd5b806147b8576135c1565b81156148b6576001600160a01b0383166000908152600c6020526040902054801580159061486957506003546040805163783a2b6760e11b81526001600160a01b0387811660048301529151849361486793879391169163f07456ce91602480820192602092909190829003018186803b15801561483557600080fd5b505afa158015614849573d6000803e3d6000fd5b505050506040513d602081101561485f57600080fd5b505190614756565b115b156148b0576040805162461bcd60e51b81526020600482015260126024820152711b585e081b1bdb99dcc8195e18d95959195960721b604482015290519081900360640190fd5b506135c1565b6001600160a01b0383166000908152600d6020526040902054801580159061492f57506003546040805163114f1b5560e31b81526001600160a01b0387811660048301529151849361492d938793911691638a78daa891602480820192602092909190829003018186803b15801561483557600080fd5b115b15614977576040805162461bcd60e51b81526020600482015260136024820152721b585e081cda1bdc9d1cc8195e18d959591959606a1b604482015290519081900360640190fd5b50505050565b606061498c8484600085614a90565b949350505050565b60008184841115614a235760405162461bcd60e51b81526004018080602001828103825283818151815260200191508051906020019080838360005b838110156149e85781810151838201526020016149d0565b50505050905090810190601f168015614a155780820380516001836020036101000a031916815260200191505b509250505060405180910390fd5b505050900390565b60008183614a7a5760405162461bcd60e51b81526020600482018181528351602484015283519092839260449091019190850190808383600083156149e85781810151838201526020016149d0565b506000838581614a8657fe5b0495945050505050565b606082471015614ad15760405162461bcd60e51b8152600401808060200182810382526026815260200180614cd36026913960400191505060405180910390fd5b614ada85614bec565b614b2b576040805162461bcd60e51b815260206004820152601d60248201527f416464726573733a2063616c6c20746f206e6f6e2d636f6e7472616374000000604482015290519081900360640190fd5b60006060866001600160a01b031685876040518082805190602001908083835b60208310614b6a5780518252601f199092019160209182019101614b4b565b6001836020036101000a03801982511681845116808217855250505050505090500191505060006040518083038185875af1925050503d8060008114614bcc576040519150601f19603f3d011682016040523d82523d6000602084013e614bd1565b606091505b5091509150614be1828286614bf2565b979650505050505050565b3b151590565b60608315614c01575081613b50565b825115614c115782518084602001fd5b60405162461bcd60e51b81526020600482018181528451602484015284518593919283926044019190850190808383600083156149e85781810151838201526020016149d056fe5265656e7472616e637947756172643a207265656e7472616e742063616c6c00476f7665726e61626c653a20666f7262696464656e0000000000000000000000416464726573733a20756e61626c6520746f2073656e642076616c75652c20726563697069656e74206d61792068617665207265766572746564416464726573733a20696e73756666696369656e742062616c616e636520666f722063616c6c536166654d6174683a206d756c7469706c69636174696f6e206f766572666c6f77506f736974696f6e4d616e616765723a20666f7262696464656e000000000000506f736974696f6e4d616e616765723a206c6f6e67206c65766572616765206465637265617365506f736974696f6e4d616e616765723a20696e76616c6964205f636f6c6c61746572616c546f6b656e5361666545524332303a204552433230206f7065726174696f6e20646964206e6f742073756363656564506f736974696f6e4d616e616765723a20696e76616c6964205f706174682e6c656e677468a2646970667358221220badca251ce8c0bdebceac7d660d1d57216d9351dec74e302f9adeb8ad37c76a564736f6c634300060c0033","linkReferences":{"contracts/exchange/core/PositionUtils.sol":{"PositionUtils":[{"start":15978,"length":20},{"start":16593,"length":20}]}}},"methodIdentifiers":{"BASIS_POINTS_DIVISOR()":"126082cf","admin()":"f851a440","approve(address,address,uint256)":"e1f21c67","decreasePosition(address,address,uint256,uint256,bool,address,uint256)":"90205d8c","decreasePositionAndSwap(address[],address,uint256,uint256,bool,address,uint256,uint256)":"5fc8500e","decreasePositionAndSwapETH(address[],address,uint256,uint256,bool,address,uint256,uint256)":"3039e37f","decreasePositionETH(address,address,uint256,uint256,bool,address,uint256)":"430ed37c","depositFee()":"67a52793","ethTransferGasLimit()":"2d79cf42","executeDecreaseOrder(address,uint256,address)":"11d9444a","executeIncreaseOrder(address,uint256,address)":"d38ab519","executeSwapOrder(address,uint256,address)":"07c7edc3","feeReserves(address)":"1ce9cb8f","gov()":"12d43a51","inLegacyMode()":"d4ca83f9","increasePosition(address[],address,uint256,uint256,uint256,bool,uint256)":"b7ddc992","increasePositionBufferBps()":"98d1e03a","increasePositionETH(address[],address,uint256,uint256,bool,uint256)":"b32755de","isLiquidator(address)":"529a356f","isOrderKeeper(address)":"3833f5f5","isPartner(address)":"8c0f9aac","liquidatePosition(address,address,address,bool,address)":"de2ea948","maxGlobalLongSizes(address)":"1045c74e","maxGlobalShortSizes(address)":"9698d25a","orderBook()":"776af5ba","referralStorage()":"006cc35e","router()":"f887ea40","sendValue(address,uint256)":"24a084df","setAdmin(address)":"704b6c02","setDepositFee(uint256)":"490ae210","setEthTransferGasLimit(uint256)":"3a9b52ad","setGov(address)":"cfad57a2","setInLegacyMode(bool)":"9c95332f","setIncreasePositionBufferBps(uint256)":"233bfe3b","setLiquidator(address,bool)":"4453a374","setMaxGlobalSizes(address[],uint256[],uint256[])":"ef12c67e","setOrderKeeper(address,bool)":"1e261538","setPartner(address,bool)":"21acf659","setReferralStorage(address)":"ae4d7f9a","setShouldValidateIncreaseOrder(bool)":"1b904359","shortsTracker()":"657bc5d0","shouldValidateIncreaseOrder()":"4584bd4b","vault()":"fbfa77cf","weth()":"3fc8cef3","withdrawFees(address,address)":"f2555278"},"id":42}