{"abi":[{"type":"constructor","inputs":[{"name":"_vault","type":"address","internalType":"address"}],"stateMutability":"nonpayable"},{"type":"function","name":"MAX_INT256","inputs":[],"outputs":[{"name":"","type":"uint256","internalType":"uint256"}],"stateMutability":"view"},{"type":"function","name":"_getNextGlobalAveragePrice","inputs":[{"name":"_averagePrice","type":"uint256","internalType":"uint256"},{"name":"_nextPrice","type":"uint256","internalType":"uint256"},{"name":"_nextSize","type":"uint256","internalType":"uint256"},{"name":"_delta","type":"uint256","internalType":"uint256"},{"name":"_realisedPnl","type":"int256","internalType":"int256"}],"outputs":[{"name":"","type":"uint256","internalType":"uint256"}],"stateMutability":"pure"},{"type":"function","name":"acceptGov","inputs":[],"outputs":[],"stateMutability":"nonpayable"},{"type":"function","name":"cancelGovProposal","inputs":[{"name":"_gov","type":"address","internalType":"address"}],"outputs":[],"stateMutability":"nonpayable"},{"type":"function","name":"data","inputs":[{"name":"","type":"bytes32","internalType":"bytes32"}],"outputs":[{"name":"","type":"bytes32","internalType":"bytes32"}],"stateMutability":"view"},{"type":"function","name":"getGlobalShortDelta","inputs":[{"name":"_token","type":"address","internalType":"address"}],"outputs":[{"name":"","type":"bool","internalType":"bool"},{"name":"","type":"uint256","internalType":"uint256"}],"stateMutability":"view"},{"type":"function","name":"getNextGlobalShortData","inputs":[{"name":"_account","type":"address","internalType":"address"},{"name":"_collateralToken","type":"address","internalType":"address"},{"name":"_indexToken","type":"address","internalType":"address"},{"name":"_nextPrice","type":"uint256","internalType":"uint256"},{"name":"_sizeDelta","type":"uint256","internalType":"uint256"},{"name":"_isIncrease","type":"bool","internalType":"bool"}],"outputs":[{"name":"","type":"uint256","internalType":"uint256"},{"name":"","type":"uint256","internalType":"uint256"}],"stateMutability":"view"},{"type":"function","name":"getRealisedPnl","inputs":[{"name":"_account","type":"address","internalType":"address"},{"name":"_collateralToken","type":"address","internalType":"address"},{"name":"_indexToken","type":"address","internalType":"address"},{"name":"_sizeDelta","type":"uint256","internalType":"uint256"},{"name":"_isIncrease","type":"bool","internalType":"bool"}],"outputs":[{"name":"","type":"int256","internalType":"int256"}],"stateMutability":"view"},{"type":"function","name":"globalShortAveragePrices","inputs":[{"name":"","type":"address","internalType":"address"}],"outputs":[{"name":"","type":"uint256","internalType":"uint256"}],"stateMutability":"view"},{"type":"function","name":"gov","inputs":[],"outputs":[{"name":"","type":"address","internalType":"address"}],"stateMutability":"view"},{"type":"function","name":"govProposals","inputs":[{"name":"","type":"address","internalType":"address"}],"outputs":[{"name":"deadline","type":"uint256","internalType":"uint256"},{"name":"isActive","type":"bool","internalType":"bool"}],"stateMutability":"view"},{"type":"function","name":"isGlobalShortDataReady","inputs":[],"outputs":[{"name":"","type":"bool","internalType":"bool"}],"stateMutability":"view"},{"type":"function","name":"isHandler","inputs":[{"name":"","type":"address","internalType":"address"}],"outputs":[{"name":"","type":"bool","internalType":"bool"}],"stateMutability":"view"},{"type":"function","name":"setGov","inputs":[{"name":"_gov","type":"address","internalType":"address"}],"outputs":[],"stateMutability":"nonpayable"},{"type":"function","name":"setGovWithDeadline","inputs":[{"name":"_gov","type":"address","internalType":"address"},{"name":"_deadline","type":"uint256","internalType":"uint256"}],"outputs":[],"stateMutability":"nonpayable"},{"type":"function","name":"setHandler","inputs":[{"name":"_handler","type":"address","internalType":"address"},{"name":"_isActive","type":"bool","internalType":"bool"}],"outputs":[],"stateMutability":"nonpayable"},{"type":"function","name":"setInitData","inputs":[{"name":"_tokens","type":"address[]","internalType":"address[]"},{"name":"_averagePrices","type":"uint256[]","internalType":"uint256[]"}],"outputs":[],"stateMutability":"nonpayable"},{"type":"function","name":"setIsGlobalShortDataReady","inputs":[{"name":"value","type":"bool","internalType":"bool"}],"outputs":[],"stateMutability":"nonpayable"},{"type":"function","name":"updateGlobalShortData","inputs":[{"name":"_account","type":"address","internalType":"address"},{"name":"_collateralToken","type":"address","internalType":"address"},{"name":"_indexToken","type":"address","internalType":"address"},{"name":"_isLong","type":"bool","internalType":"bool"},{"name":"_sizeDelta","type":"uint256","internalType":"uint256"},{"name":"_markPrice","type":"uint256","internalType":"uint256"},{"name":"_isIncrease","type":"bool","internalType":"bool"}],"outputs":[],"stateMutability":"nonpayable"},{"type":"function","name":"vault","inputs":[],"outputs":[{"name":"","type":"address","internalType":"contract IVault"}],"stateMutability":"view"},{"type":"event","name":"GlobalShortDataUpdated","inputs":[{"name":"token","type":"address","indexed":true,"internalType":"address"},{"name":"globalShortSize","type":"uint256","indexed":false,"internalType":"uint256"},{"name":"globalShortAveragePrice","type":"uint256","indexed":false,"internalType":"uint256"}],"anonymous":false},{"type":"event","name":"GovernanceTransferRequested","inputs":[{"name":"newGov","type":"address","indexed":true,"internalType":"address"},{"name":"deadline","type":"uint256","indexed":false,"internalType":"uint256"}],"anonymous":false},{"type":"event","name":"GovernanceTransferred","inputs":[{"name":"oldGov","type":"address","indexed":true,"internalType":"address"},{"name":"newGov","type":"address","indexed":true,"internalType":"address"}],"anonymous":false}],"bytecode":{"object":"0x60a060405234801561001057600080fd5b506040516117253803806117258339818101604052602081101561003357600080fd5b5051600080546001600160a01b031916331790556001600160601b031960609190911b1660805260805160601c61169a61008b60003980610a6e5280610bd65280610d915280610e5b5280611254525061169a6000f3fe608060405234801561001057600080fd5b50600436106100fc5760003560e01c80630147fb0c14610101578063122e7b071461013057806312d43a51146101385780633d30cabf1461015c57806346ea87af1461017d5780635886b711146101b757806362749803146101ec5780636bb22fd7146102125780637bc6729b1461023e5780638d0fedb0146102465780639a11178f146102855780639c35b4971461028d5780639cb7de4b146102b35780639cdeb593146102e1578063a83b75fd14610344578063b364accb14610388578063bbd97187146103c9578063cfad57a214610487578063f3238cec146104ad578063fbfa77cf146104ff575b600080fd5b61011e6004803603602081101561011757600080fd5b5035610507565b60408051918252519081900360200190f35b61011e610519565b610140610524565b604080516001600160a01b039092168252519081900360200190f35b61017b6004803603602081101561017257600080fd5b50351515610533565b005b6101a36004803603602081101561019357600080fd5b50356001600160a01b0316610593565b604080519115158252519081900360200190f35b61011e600480360360a08110156101cd57600080fd5b50803590602081013590604081013590606081013590608001356105a8565b61011e6004803603602081101561020257600080fd5b50356001600160a01b03166105ff565b61017b6004803603604081101561022857600080fd5b506001600160a01b038135169060200135610611565b61017b610726565b61026c6004803603602081101561025c57600080fd5b50356001600160a01b031661083a565b6040805192835290151560208301528051918290030190f35b6101a3610856565b61017b600480360360208110156102a357600080fd5b50356001600160a01b031661085f565b61017b600480360360408110156102c957600080fd5b506001600160a01b0381351690602001351515610944565b61032b600480360360c08110156102f757600080fd5b506001600160a01b03813581169160208101358216916040820135169060608101359060808101359060a001351515610a17565b6040805192835260208301919091528051918290030190f35b61011e600480360360a081101561035a57600080fd5b506001600160a01b038135811691602081013582169160408201351690606081013590608001351515610b8b565b6103ae6004803603602081101561039e57600080fd5b50356001600160a01b0316610d8a565b60408051921515835260208301919091528051918290030190f35b61017b600480360360408110156103df57600080fd5b810190602081018135600160201b8111156103f957600080fd5b82018360208201111561040b57600080fd5b803590602001918460208302840111600160201b8311171561042c57600080fd5b919390929091602081019035600160201b81111561044957600080fd5b82018360208201111561045b57600080fd5b803590602001918460208302840111600160201b8311171561047c57600080fd5b509092509050610f3a565b61017b6004803603602081101561049d57600080fd5b50356001600160a01b031661104c565b61017b600480360360e08110156104c357600080fd5b506001600160a01b038135811691602081013582169160408201351690606081013515159060808101359060a08101359060c001351515611162565b610140611252565b60036020526000908152604090205481565b6001600160ff1b0381565b6000546001600160a01b031681565b6000546001600160a01b03163314610580576040805162461bcd60e51b81526020600482015260156024820152600080516020611602833981519152604482015290519081900360640190fd5b6005805460ff1916911515919091179055565b60026020526000908152604090205460ff1681565b60008060006105b985898987611276565b9150915060006105f0836105d6576105d18884611333565b6105e0565b6105e08884611394565b6105ea8a8a6113d6565b9061142f565b93505050505b95945050505050565b60046020526000908152604090205481565b6000546001600160a01b0316331461065e576040805162461bcd60e51b81526020600482015260156024820152600080516020611602833981519152604482015290519081900360640190fd5b6001600160a01b0382166106b7576040805162461bcd60e51b815260206004820152601b60248201527a476f7665726e61626c653a20696e76616c6964206164647265737360281b604482015290519081900360640190fd5b6000546001600160a01b0383811691161415610718576040805162461bcd60e51b815260206004820152601b60248201527a476f7665726e61626c653a2073616d6520676f7665726e616e636560281b604482015290519081900360640190fd5b610722828261146e565b5050565b33600090815260016020526040902080544210610789576040805162461bcd60e51b815260206004820152601c60248201527b11dbdd995c9b98589b194e88191958591b1a5b9948195e1c1a5c995960221b604482015290519081900360640190fd5b60018082015460ff161515146107d05760405162461bcd60e51b81526004018080602001828103825260228152602001806116226022913960400191505060405180910390fd5b6000805433808352600160208190526040808520858155909101805460ff1916905583546001600160a01b03191682178455516001600160a01b0390921692909183917f5f56bee8cffbe9a78652a74a60705edede02af10b0bbb888ca44b79a0d42ce8091a35050565b6001602081905260009182526040909120805491015460ff1682565b60055460ff1681565b6000546001600160a01b031633146108ac576040805162461bcd60e51b81526020600482015260156024820152600080516020611602833981519152604482015290519081900360640190fd5b6001600160a01b0381166000908152600160208190526040909120015460ff1661091d576040805162461bcd60e51b815260206004820152601f60248201527f476f7665726e61626c653a2070726f706f73616c206e6f742061637469766500604482015290519081900360640190fd5b6001600160a01b03166000908152600160208190526040822091825501805460ff19169055565b6000546001600160a01b03163314610991576040805162461bcd60e51b81526020600482015260156024820152600080516020611602833981519152604482015290519081900360640190fd5b6001600160a01b0382166109ec576040805162461bcd60e51b815260206004820152601f60248201527f53686f727473547261636b65723a20696e76616c6964205f68616e646c657200604482015290519081900360640190fd5b6001600160a01b03919091166000908152600260205260409020805460ff1916911515919091179055565b6000806000610a298989898888610b8b565b6001600160a01b038816600090815260046020526040812054919250878211610a5b57610a568883611394565b610a65565b610a658289611394565b905060008060007f00000000000000000000000000000000000000000000000000000000000000006001600160a01b0316638a78daa88d6040518263ffffffff1660e01b815260040180826001600160a01b0316815260200191505060206040518083038186803b158015610ad957600080fd5b505afa158015610aed573d6000803e3d6000fd5b505050506040513d6020811015610b0357600080fd5b5051905088610b1b57610b16818b611394565b610b25565b610b25818b611333565b925082610b3e5760008097509750505050505050610b80565b84610b5457828b97509750505050505050610b80565b610b62856105ea83876113d6565b9150506000610b74858c85858a6105a8565b92975091955050505050505b965096945050505050565b60008115610b9b575060006105f6565b60408051634a3f088d60e01b81526001600160a01b0388811660048301528781166024830152868116604483015260006064830181905292517f000000000000000000000000000000000000000000000000000000000000000093928392839290861691634a3f088d91608480830192610100929190829003018186803b158015610c2557600080fd5b505afa158015610c39573d6000803e3d6000fd5b505050506040513d610100811015610c5057600080fd5b50805160408083015160e0909301518151635c07eaab60e01b81526001600160a01b038d811660048301526024820185905260448201869052600060648301819052608483018490528451959950959750919550849391891692635c07eaab9260a480840193829003018186803b158015610cca57600080fd5b505afa158015610cde573d6000803e3d6000fd5b505050506040513d6040811015610cf457600080fd5b50805160209091015190925090506000610d12866105ea8c856113d6565b90506001600160ff1b038110610d69576040805162461bcd60e51b815260206004820152601760248201527653686f727473547261636b65723a206f766572666c6f7760481b604482015290519081900360640190fd5b82610d775780600003610d79565b805b9d9c50505050505050505050505050565b60008060007f00000000000000000000000000000000000000000000000000000000000000006001600160a01b0316638a78daa8856040518263ffffffff1660e01b815260040180826001600160a01b0316815260200191505060206040518083038186803b158015610dfc57600080fd5b505afa158015610e10573d6000803e3d6000fd5b505050506040513d6020811015610e2657600080fd5b50516001600160a01b03851660009081526004602052604090205490915081610e5757600080935093505050610f35565b60007f00000000000000000000000000000000000000000000000000000000000000006001600160a01b031663e124e6d2876040518263ffffffff1660e01b815260040180826001600160a01b0316815260200191505060206040518083038186803b158015610ec657600080fd5b505afa158015610eda573d6000803e3d6000fd5b505050506040513d6020811015610ef057600080fd5b505190506000818311610f0c57610f078284611394565b610f16565b610f168383611394565b90506000610f28846105ea87856113d6565b9290931195509093505050505b915091565b6000546001600160a01b03163314610f87576040805162461bcd60e51b81526020600482015260156024820152600080516020611602833981519152604482015290519081900360640190fd5b60055460ff1615610fdf576040805162461bcd60e51b815260206004820152601f60248201527f53686f727473547261636b65723a20616c7265616479206d6967726174656400604482015290519081900360640190fd5b60005b8381101561103857828282818110610ff657fe5b905060200201356004600087878581811061100d57fe5b602090810292909201356001600160a01b031683525081019190915260400160002055600101610fe2565b50506005805460ff19166001179055505050565b6000546001600160a01b03163314611099576040805162461bcd60e51b81526020600482015260156024820152600080516020611602833981519152604482015290519081900360640190fd5b6001600160a01b0381166110f2576040805162461bcd60e51b815260206004820152601b60248201527a476f7665726e61626c653a20696e76616c6964206164647265737360281b604482015290519081900360640190fd5b6000546001600160a01b0382811691161415611153576040805162461bcd60e51b815260206004820152601b60248201527a476f7665726e61626c653a2073616d6520676f7665726e616e636560281b604482015290519081900360640190fd5b61115f8160001961146e565b50565b3360009081526002602052604090205460ff166111c1576040805162461bcd60e51b815260206004820152601860248201527729b437b93a39aa3930b1b5b2b91d103337b93134b23232b760411b604482015290519081900360640190fd5b83806111cb575082155b156111d557611249565b60055460ff166111e457611249565b6000806111f5898989878988610a17565b9150915061120387826114e9565b604080518381526020810183905281516001600160a01b038a16927fd6137be44db128ffcf1ea1821dbe8f889f67f949be7656c2d8acba2a4a891a02928290030190a250505b50505050505050565b7f000000000000000000000000000000000000000000000000000000000000000081565b60008083851180156112d55760008413156112ba57868411156112a85761129d8488611394565b9650600090506112b5565b6112b28785611394565b96505b6112cb565b6112c8876000869003611333565b96505b915085905061132a565b60008413156112ef576112e88785611333565b9650611324565b8684600003111561131357611308600085900388611394565b965060019050611324565b611321876000869003611394565b96505b91508590505b94509492505050565b60008282018381101561138b576040805162461bcd60e51b815260206004820152601b60248201527a536166654d6174683a206164646974696f6e206f766572666c6f7760281b604482015290519081900360640190fd5b90505b92915050565b600061138b83836040518060400160405280601e81526020017f536166654d6174683a207375627472616374696f6e206f766572666c6f770000815250611505565b6000826113e55750600061138e565b828202828482816113f257fe5b041461138b5760405162461bcd60e51b81526004018080602001828103825260218152602001806116446021913960400191505060405180910390fd5b600061138b83836040518060400160405280601a815260200179536166654d6174683a206469766973696f6e206279207a65726f60301b81525061159c565b604080518082018252828152600160208083018281526001600160a01b038716600081815284845286902094518555905193909201805460ff1916931515939093179092558251848152925190927f02dd0697be46e764c3ba81094158781c31b235d03bb27a0daf1bdef0ec1084dd92908290030190a25050565b6001600160a01b03909116600090815260046020526040902055565b600081848411156115945760405162461bcd60e51b81526004018080602001828103825283818151815260200191508051906020019080838360005b83811015611559578181015183820152602001611541565b50505050905090810190601f1680156115865780820380516001836020036101000a031916815260200191505b509250505060405180910390fd5b505050900390565b600081836115eb5760405162461bcd60e51b8152602060048201818152835160248401528351909283926044909101919085019080838360008315611559578181015183820152602001611541565b5060008385816115f757fe5b049594505050505056fe476f7665726e61626c653a20666f7262696464656e0000000000000000000000476f7665726e61626c653a2070726f706f73616c206973206e6f7420616374697665536166654d6174683a206d756c7469706c69636174696f6e206f766572666c6f77a264697066735822122089fa3315ed17840687e500fb129173bb70014e059d1683aebd21a478124d926d64736f6c634300060c0033","linkReferences":{}},"methodIdentifiers":{"MAX_INT256()":"122e7b07","_getNextGlobalAveragePrice(uint256,uint256,uint256,uint256,int256)":"5886b711","acceptGov()":"7bc6729b","cancelGovProposal(address)":"9c35b497","data(bytes32)":"0147fb0c","getGlobalShortDelta(address)":"b364accb","getNextGlobalShortData(address,address,address,uint256,uint256,bool)":"9cdeb593","getRealisedPnl(address,address,address,uint256,bool)":"a83b75fd","globalShortAveragePrices(address)":"62749803","gov()":"12d43a51","govProposals(address)":"8d0fedb0","isGlobalShortDataReady()":"9a11178f","isHandler(address)":"46ea87af","setGov(address)":"cfad57a2","setGovWithDeadline(address,uint256)":"6bb22fd7","setHandler(address,bool)":"9cb7de4b","setInitData(address[],uint256[])":"bbd97187","setIsGlobalShortDataReady(bool)":"3d30cabf","updateGlobalShortData(address,address,address,bool,uint256,uint256,bool)":"f3238cec","vault()":"fbfa77cf"},"id":40}