{"abi":[{"type":"constructor","inputs":[{"name":"_name","type":"string","internalType":"string"},{"name":"_symbol","type":"string","internalType":"string"},{"name":"_initialSupply","type":"uint256","internalType":"uint256"}],"stateMutability":"nonpayable"},{"type":"function","name":"addAdmin","inputs":[{"name":"_account","type":"address","internalType":"address"}],"outputs":[],"stateMutability":"nonpayable"},{"type":"function","name":"addNonStakingAccount","inputs":[{"name":"_account","type":"address","internalType":"address"}],"outputs":[],"stateMutability":"nonpayable"},{"type":"function","name":"admins","inputs":[{"name":"","type":"address","internalType":"address"}],"outputs":[{"name":"","type":"bool","internalType":"bool"}],"stateMutability":"view"},{"type":"function","name":"allowance","inputs":[{"name":"_owner","type":"address","internalType":"address"},{"name":"_spender","type":"address","internalType":"address"}],"outputs":[{"name":"","type":"uint256","internalType":"uint256"}],"stateMutability":"view"},{"type":"function","name":"allowances","inputs":[{"name":"","type":"address","internalType":"address"},{"name":"","type":"address","internalType":"address"}],"outputs":[{"name":"","type":"uint256","internalType":"uint256"}],"stateMutability":"view"},{"type":"function","name":"approve","inputs":[{"name":"_spender","type":"address","internalType":"address"},{"name":"_amount","type":"uint256","internalType":"uint256"}],"outputs":[{"name":"","type":"bool","internalType":"bool"}],"stateMutability":"nonpayable"},{"type":"function","name":"balanceOf","inputs":[{"name":"_account","type":"address","internalType":"address"}],"outputs":[{"name":"","type":"uint256","internalType":"uint256"}],"stateMutability":"view"},{"type":"function","name":"balances","inputs":[{"name":"","type":"address","internalType":"address"}],"outputs":[{"name":"","type":"uint256","internalType":"uint256"}],"stateMutability":"view"},{"type":"function","name":"burn","inputs":[{"name":"_account","type":"address","internalType":"address"},{"name":"_amount","type":"uint256","internalType":"uint256"}],"outputs":[],"stateMutability":"nonpayable"},{"type":"function","name":"claim","inputs":[{"name":"_receiver","type":"address","internalType":"address"}],"outputs":[],"stateMutability":"nonpayable"},{"type":"function","name":"decimals","inputs":[],"outputs":[{"name":"","type":"uint8","internalType":"uint8"}],"stateMutability":"view"},{"type":"function","name":"gov","inputs":[],"outputs":[{"name":"","type":"address","internalType":"address"}],"stateMutability":"view"},{"type":"function","name":"inPrivateTransferMode","inputs":[],"outputs":[{"name":"","type":"bool","internalType":"bool"}],"stateMutability":"view"},{"type":"function","name":"isHandler","inputs":[{"name":"","type":"address","internalType":"address"}],"outputs":[{"name":"","type":"bool","internalType":"bool"}],"stateMutability":"view"},{"type":"function","name":"isMinter","inputs":[{"name":"","type":"address","internalType":"address"}],"outputs":[{"name":"","type":"bool","internalType":"bool"}],"stateMutability":"view"},{"type":"function","name":"mint","inputs":[{"name":"_account","type":"address","internalType":"address"},{"name":"_amount","type":"uint256","internalType":"uint256"}],"outputs":[],"stateMutability":"nonpayable"},{"type":"function","name":"name","inputs":[],"outputs":[{"name":"","type":"string","internalType":"string"}],"stateMutability":"view"},{"type":"function","name":"nonStakingAccounts","inputs":[{"name":"","type":"address","internalType":"address"}],"outputs":[{"name":"","type":"bool","internalType":"bool"}],"stateMutability":"view"},{"type":"function","name":"nonStakingSupply","inputs":[],"outputs":[{"name":"","type":"uint256","internalType":"uint256"}],"stateMutability":"view"},{"type":"function","name":"recoverClaim","inputs":[{"name":"_account","type":"address","internalType":"address"},{"name":"_receiver","type":"address","internalType":"address"}],"outputs":[],"stateMutability":"nonpayable"},{"type":"function","name":"removeAdmin","inputs":[{"name":"_account","type":"address","internalType":"address"}],"outputs":[],"stateMutability":"nonpayable"},{"type":"function","name":"removeNonStakingAccount","inputs":[{"name":"_account","type":"address","internalType":"address"}],"outputs":[],"stateMutability":"nonpayable"},{"type":"function","name":"setGov","inputs":[{"name":"_gov","type":"address","internalType":"address"}],"outputs":[],"stateMutability":"nonpayable"},{"type":"function","name":"setHandler","inputs":[{"name":"_handler","type":"address","internalType":"address"},{"name":"_isActive","type":"bool","internalType":"bool"}],"outputs":[],"stateMutability":"nonpayable"},{"type":"function","name":"setInPrivateTransferMode","inputs":[{"name":"_inPrivateTransferMode","type":"bool","internalType":"bool"}],"outputs":[],"stateMutability":"nonpayable"},{"type":"function","name":"setInfo","inputs":[{"name":"_name","type":"string","internalType":"string"},{"name":"_symbol","type":"string","internalType":"string"}],"outputs":[],"stateMutability":"nonpayable"},{"type":"function","name":"setMinter","inputs":[{"name":"_minter","type":"address","internalType":"address"},{"name":"_isActive","type":"bool","internalType":"bool"}],"outputs":[],"stateMutability":"nonpayable"},{"type":"function","name":"setYieldTrackers","inputs":[{"name":"_yieldTrackers","type":"address[]","internalType":"address[]"}],"outputs":[],"stateMutability":"nonpayable"},{"type":"function","name":"stakedBalance","inputs":[{"name":"_account","type":"address","internalType":"address"}],"outputs":[{"name":"","type":"uint256","internalType":"uint256"}],"stateMutability":"view"},{"type":"function","name":"symbol","inputs":[],"outputs":[{"name":"","type":"string","internalType":"string"}],"stateMutability":"view"},{"type":"function","name":"totalStaked","inputs":[],"outputs":[{"name":"","type":"uint256","internalType":"uint256"}],"stateMutability":"view"},{"type":"function","name":"totalSupply","inputs":[],"outputs":[{"name":"","type":"uint256","internalType":"uint256"}],"stateMutability":"view"},{"type":"function","name":"transfer","inputs":[{"name":"_recipient","type":"address","internalType":"address"},{"name":"_amount","type":"uint256","internalType":"uint256"}],"outputs":[{"name":"","type":"bool","internalType":"bool"}],"stateMutability":"nonpayable"},{"type":"function","name":"transferFrom","inputs":[{"name":"_sender","type":"address","internalType":"address"},{"name":"_recipient","type":"address","internalType":"address"},{"name":"_amount","type":"uint256","internalType":"uint256"}],"outputs":[{"name":"","type":"bool","internalType":"bool"}],"stateMutability":"nonpayable"},{"type":"function","name":"withdrawToken","inputs":[{"name":"_token","type":"address","internalType":"address"},{"name":"_account","type":"address","internalType":"address"},{"name":"_amount","type":"uint256","internalType":"uint256"}],"outputs":[],"stateMutability":"nonpayable"},{"type":"function","name":"yieldTrackers","inputs":[{"name":"","type":"uint256","internalType":"uint256"}],"outputs":[{"name":"","type":"address","internalType":"address"}],"stateMutability":"view"},{"type":"event","name":"Approval","inputs":[{"name":"owner","type":"address","indexed":true,"internalType":"address"},{"name":"spender","type":"address","indexed":true,"internalType":"address"},{"name":"value","type":"uint256","indexed":false,"internalType":"uint256"}],"anonymous":false},{"type":"event","name":"Transfer","inputs":[{"name":"from","type":"address","indexed":true,"internalType":"address"},{"name":"to","type":"address","indexed":true,"internalType":"address"},{"name":"value","type":"uint256","indexed":false,"internalType":"uint256"}],"anonymous":false}],"bytecode":{"object":"0x60806040523480156200001157600080fd5b506040516200268f3803806200268f833981810160405260608110156200003757600080fd5b81019080805160405193929190846401000000008211156200005857600080fd5b9083019060208201858111156200006e57600080fd5b82516401000000008111828201881017156200008957600080fd5b82525081516020918201929091019080838360005b83811015620000b85781810151838201526020016200009e565b50505050905090810190601f168015620000e65780820380516001836020036101000a031916815260200191505b50604052602001805160405193929190846401000000008211156200010a57600080fd5b9083019060208201858111156200012057600080fd5b82516401000000008111828201881017156200013b57600080fd5b82525081516020918201929091019080838360005b838110156200016a57818101518382015260200162000150565b50505050905090810190601f168015620001985780820380516001836020036101000a031916815260200191505b50604052602090810151855190935085925084918491620001c091600091908601906200043b565b508151620001d69060019060208501906200043b565b50600480546001600160a01b03191633908117909155620001f8908262000204565b505050505050620004d7565b6001600160a01b0382166200024b5760405162461bcd60e51b81526004018080602001828103825260238152602001806200266c6023913960400191505060405180910390fd5b62000256826200033a565b6200027281600254620003d960201b6200144d1790919060201c565b6002556001600160a01b038216600090815260056020908152604090912054620002a79183906200144d620003d9821b17901c565b6001600160a01b03831660009081526005602090815260408083209390935560089052205460ff1615620002f557620002f181600354620003d960201b6200144d1790919060201c565b6003555b6040805182815290516001600160a01b038416916000917fddf252ad1be2c89b69c2b068fc378daa952ba7f163c4a11628f55a4df523b3ef9181900360200190a35050565b60005b600754811015620003d5576000600782815481106200035857fe5b600091825260208220015460408051635fd6196560e01b81526001600160a01b03878116600483015291519190921693508392635fd61965926024808201939182900301818387803b158015620003ae57600080fd5b505af1158015620003c3573d6000803e3d6000fd5b5050600190930192506200033d915050565b5050565b60008282018381101562000434576040805162461bcd60e51b815260206004820152601b60248201527f536166654d6174683a206164646974696f6e206f766572666c6f770000000000604482015290519081900360640190fd5b9392505050565b828054600181600116156101000203166002900490600052602060002090601f016020900481019282601f106200047e57805160ff1916838001178555620004ae565b82800160010185558215620004ae579182015b82811115620004ae57825182559160200191906001019062000491565b50620004bc929150620004c0565b5090565b5b80821115620004bc5760008155600101620004c1565b61218580620004e76000396000f3fe608060405234801561001057600080fd5b50600436106101bc5760003560e01c806362289077116100f55780636228907714610563578063704802751461058957806370a08231146105af578063817b1cd2146105d55780639554381a146105dd57806395d89b4114610603578063996f11ee1461060b5780639cb7de4b146106395780639dc29fac14610667578063a9059cbb14610693578063a923fc40146106bf578063aa271e1a146107e8578063c93be6361461080e578063cf456ae714610816578063cfad57a214610844578063dd62ed3e1461086a578063dfbaefb114610898578063fb30d916146108a0576101bc565b806301e33667146101c157806306fdde03146101f9578063095ea7b31461027657806312d43a51146102b65780631785f53c146102da57806318160ddd146103005780631e83409a1461031a57806323b872dd14610340578063276eab4e1461037657806327e235e314610417578063313ce5671461043d57806340c10f191461045b578063429b62e51461048757806346ea87af146104ad57806352cd38d9146104d357806355b6ed5c146104f05780635a47a1a71461051e578063602172671461053d575b600080fd5b6101f7600480360360608110156101d757600080fd5b506001600160a01b038135811691602081013590911690604001356108c6565b005b61020161092c565b6040805160208082528351818301528351919283929083019185019080838360005b8381101561023b578181015183820152602001610223565b50505050905090810190601f1680156102685780820380516001836020036101000a031916815260200191505b509250505060405180910390f35b6102a26004803603604081101561028c57600080fd5b506001600160a01b0381351690602001356109ba565b604080519115158252519081900360200190f35b6102be6109d0565b604080516001600160a01b039092168252519081900360200190f35b6101f7600480360360208110156102f057600080fd5b50356001600160a01b03166109df565b610308610a4d565b60408051918252519081900360200190f35b6101f76004803603602081101561033057600080fd5b50356001600160a01b0316610a53565b6102a26004803603606081101561035657600080fd5b506001600160a01b03813581169160208101359091169060400135610b0a565b6101f76004803603602081101561038c57600080fd5b810190602081018135600160201b8111156103a657600080fd5b8201836020820111156103b857600080fd5b803590602001918460208302840111600160201b831117156103d957600080fd5b919080806020026020016040519081016040528093929190818152602001838360200280828437600092019190915250929550610ba4945050505050565b6103086004803603602081101561042d57600080fd5b50356001600160a01b0316610c04565b610445610c16565b6040805160ff9092168252519081900360200190f35b6101f76004803603604081101561047157600080fd5b506001600160a01b038135169060200135610c1b565b6102a26004803603602081101561049d57600080fd5b50356001600160a01b0316610c88565b6102a2600480360360208110156104c357600080fd5b50356001600160a01b0316610c9d565b6102be600480360360208110156104e957600080fd5b5035610cb2565b6103086004803603604081101561050657600080fd5b506001600160a01b0381358116916020013516610cd9565b6101f76004803603602081101561053457600080fd5b50351515610cf6565b6103086004803603602081101561055357600080fd5b50356001600160a01b0316610d56565b6101f76004803603602081101561057957600080fd5b50356001600160a01b0316610d9f565b6101f76004803603602081101561059f57600080fd5b50356001600160a01b0316610e92565b610308600480360360208110156105c557600080fd5b50356001600160a01b0316610f03565b610308610f1e565b6102a2600480360360208110156105f357600080fd5b50356001600160a01b0316610f3c565b610201610f51565b6101f76004803603604081101561062157600080fd5b506001600160a01b0381358116916020013516610fab565b6101f76004803603604081101561064f57600080fd5b506001600160a01b03813516906020013515156110b2565b6101f76004803603604081101561067d57600080fd5b506001600160a01b03813516906020013561112a565b6102a2600480360360408110156106a957600080fd5b506001600160a01b038135169060200135611197565b6101f7600480360360408110156106d557600080fd5b810190602081018135600160201b8111156106ef57600080fd5b82018360208201111561070157600080fd5b803590602001918460018302840111600160201b8311171561072257600080fd5b91908080601f0160208091040260200160405190810160405280939291908181526020018383808284376000920191909152509295949360208101935035915050600160201b81111561077457600080fd5b82018360208201111561078657600080fd5b803590602001918460018302840111600160201b831117156107a757600080fd5b91908080601f0160208091040260200160405190810160405280939291908181526020018383808284376000920191909152509295506111a4945050505050565b6102a2600480360360208110156107fe57600080fd5b50356001600160a01b0316611218565b61030861122d565b6101f76004803603604081101561082c57600080fd5b506001600160a01b0381351690602001351515611233565b6101f76004803603602081101561085a57600080fd5b50356001600160a01b03166112ab565b6103086004803603604081101561088057600080fd5b506001600160a01b038135811691602001351661131a565b6102a2611345565b6101f7600480360360208110156108b657600080fd5b50356001600160a01b031661134e565b6004546001600160a01b03163314610913576040805162461bcd60e51b81526020600482015260146024820152600080516020611ffe833981519152604482015290519081900360640190fd5b6109276001600160a01b03841683836114a5565b505050565b6000805460408051602060026001851615610100026000190190941693909304601f810184900484028201840190925281815292918301828280156109b25780601f10610987576101008083540402835291602001916109b2565b820191906000526020600020905b81548152906001019060200180831161099557829003601f168201915b505050505081565b60006109c73384846114f7565b50600192915050565b6004546001600160a01b031681565b6004546001600160a01b03163314610a2c576040805162461bcd60e51b81526020600482015260146024820152600080516020611ffe833981519152604482015290519081900360640190fd5b6001600160a01b03166000908152600960205260409020805460ff19169055565b60025481565b60005b600754811015610b0657600060078281548110610a6f57fe5b6000918252602080832090910154604080516310e059a160e11b81523360048201526001600160a01b038881166024830152915191909216945084936321c0b34293604480850194919392918390030190829087803b158015610ad157600080fd5b505af1158015610ae5573d6000803e3d6000fd5b505050506040513d6020811015610afb57600080fd5b505050600101610a56565b5050565b336000908152600b602052604081205460ff1615610b3557610b2d8484846115e3565b506001610b9d565b6000610b7f836040518060600160405280602c8152602001611fac602c91396001600160a01b038816600090815260066020908152604080832033845290915290205491906117f9565b9050610b8c8533836114f7565b610b978585856115e3565b60019150505b9392505050565b6004546001600160a01b03163314610bf1576040805162461bcd60e51b81526020600482015260146024820152600080516020611ffe833981519152604482015290519081900360640190fd5b8051610b06906007906020840190611e03565b60056020526000908152604090205481565b601281565b336000908152600c602052604090205460ff16610c7e576040805162461bcd60e51b815260206004820152601c60248201527b26b4b73a30b13632a130b9b2aa37b5b2b71d103337b93134b23232b760211b604482015290519081900360640190fd5b610b068282611890565b60096020526000908152604090205460ff1681565b600b6020526000908152604090205460ff1681565b60078181548110610cbf57fe5b6000918252602090912001546001600160a01b0316905081565b600660209081526000928352604080842090915290825290205481565b6004546001600160a01b03163314610d43576040805162461bcd60e51b81526020600482015260146024820152600080516020611ffe833981519152604482015290519081900360640190fd5b600a805460ff1916911515919091179055565b6001600160a01b03811660009081526008602052604081205460ff1615610d7f57506000610d9a565b506001600160a01b0381166000908152600560205260409020545b919050565b3360009081526009602052604090205460ff16610df1576040805162461bcd60e51b81526020600482015260146024820152600080516020611ffe833981519152604482015290519081900360640190fd5b6001600160a01b03811660009081526008602052604090205460ff1615610e495760405162461bcd60e51b81526004018080602001828103825260228152602001806120906022913960400191505060405180910390fd5b610e5281611982565b6001600160a01b0381166000908152600860209081526040808320805460ff191660011790556005909152902054600354610e8c9161144d565b60035550565b6004546001600160a01b03163314610edf576040805162461bcd60e51b81526020600482015260146024820152600080516020611ffe833981519152604482015290519081900360640190fd5b6001600160a01b03166000908152600960205260409020805460ff19166001179055565b6001600160a01b031660009081526005602052604090205490565b6000610f37600354600254611a1890919063ffffffff16565b905090565b60086020526000908152604090205460ff1681565b60018054604080516020600284861615610100026000190190941693909304601f810184900484028201840190925281815292918301828280156109b25780601f10610987576101008083540402835291602001916109b2565b3360009081526009602052604090205460ff16610ffd576040805162461bcd60e51b81526020600482015260146024820152600080516020611ffe833981519152604482015290519081900360640190fd5b60005b6007548110156109275760006007828154811061101957fe5b6000918252602080832090910154604080516310e059a160e11b81526001600160a01b0389811660048301528881166024830152915191909216945084936321c0b34293604480850194919392918390030190829087803b15801561107d57600080fd5b505af1158015611091573d6000803e3d6000fd5b505050506040513d60208110156110a757600080fd5b505050600101611000565b6004546001600160a01b031633146110ff576040805162461bcd60e51b81526020600482015260146024820152600080516020611ffe833981519152604482015290519081900360640190fd5b6001600160a01b03919091166000908152600b60205260409020805460ff1916911515919091179055565b336000908152600c602052604090205460ff1661118d576040805162461bcd60e51b815260206004820152601c60248201527b26b4b73a30b13632a130b9b2aa37b5b2b71d103337b93134b23232b760211b604482015290519081900360640190fd5b610b068282611a5a565b60006109c73384846115e3565b6004546001600160a01b031633146111f1576040805162461bcd60e51b81526020600482015260146024820152600080516020611ffe833981519152604482015290519081900360640190fd5b8151611204906000906020850190611e68565b508051610927906001906020840190611e68565b600c6020526000908152604090205460ff1681565b60035481565b6004546001600160a01b03163314611280576040805162461bcd60e51b81526020600482015260146024820152600080516020611ffe833981519152604482015290519081900360640190fd5b6001600160a01b03919091166000908152600c60205260409020805460ff1916911515919091179055565b6004546001600160a01b031633146112f8576040805162461bcd60e51b81526020600482015260146024820152600080516020611ffe833981519152604482015290519081900360640190fd5b600480546001600160a01b0319166001600160a01b0392909216919091179055565b6001600160a01b03918216600090815260066020908152604080832093909416825291909152205490565b600a5460ff1681565b3360009081526009602052604090205460ff166113a0576040805162461bcd60e51b81526020600482015260146024820152600080516020611ffe833981519152604482015290519081900360640190fd5b6001600160a01b03811660009081526008602052604090205460ff1661140d576040805162461bcd60e51b815260206004820152601e60248201527f42617365546f6b656e3a205f6163636f756e74206e6f74206d61726b65640000604482015290519081900360640190fd5b61141681611982565b6001600160a01b0381166000908152600860209081526040808320805460ff191690556005909152902054600354610e8c91611a18565b600082820183811015610b9d576040805162461bcd60e51b815260206004820152601b60248201527a536166654d6174683a206164646974696f6e206f766572666c6f7760281b604482015290519081900360640190fd5b604080516001600160a01b038416602482015260448082018490528251808303909101815260649091019091526020810180516001600160e01b031663a9059cbb60e01b179052610927908490611b73565b6001600160a01b03831661153c5760405162461bcd60e51b815260040180806020018281038252602881526020018061201e6028913960400191505060405180910390fd5b6001600160a01b0382166115815760405162461bcd60e51b8152600401808060200182810382526026815260200180611f866026913960400191505060405180910390fd5b6001600160a01b03808416600081815260066020908152604080832094871680845294825291829020859055815185815291517f8c5be1e5ebec7d5bd14f71427d1e84f3dd0314c0f7b2291e5b200ac8c7c3b9259281900390910190a3505050565b6001600160a01b0383166116285760405162461bcd60e51b81526004018080602001828103825260298152602001806121276029913960400191505060405180910390fd5b6001600160a01b03821661166d5760405162461bcd60e51b8152600401808060200182810382526027815260200180611f3c6027913960400191505060405180910390fd5b600a5460ff16156116c657336000908152600b602052604090205460ff166116c65760405162461bcd60e51b8152600401808060200182810382526025815260200180611f176025913960400191505060405180910390fd5b6116cf83611982565b6116d882611982565b611715816040518060600160405280602a8152602001612046602a91396001600160a01b03861660009081526005602052604090205491906117f9565b6001600160a01b038085166000908152600560205260408082209390935590841681522054611744908261144d565b6001600160a01b0380841660009081526005602090815260408083209490945591861681526008909152205460ff1615611789576003546117859082611a18565b6003555b6001600160a01b03821660009081526008602052604090205460ff16156117bb576003546117b7908261144d565b6003555b816001600160a01b0316836001600160a01b0316600080516020612070833981519152836040518082815260200191505060405180910390a3505050565b600081848411156118885760405162461bcd60e51b81526004018080602001828103825283818151815260200191508051906020019080838360005b8381101561184d578181015183820152602001611835565b50505050905090810190601f16801561187a5780820380516001836020036101000a031916815260200191505b509250505060405180910390fd5b505050900390565b6001600160a01b0382166118d55760405162461bcd60e51b8152600401808060200182810382526023815260200180611f636023913960400191505060405180910390fd5b6118de82611982565b6002546118eb908261144d565b6002556001600160a01b038216600090815260056020526040902054611911908261144d565b6001600160a01b03831660009081526005602090815260408083209390935560089052205460ff161561194f5760035461194b908261144d565b6003555b6040805182815290516001600160a01b038416916000916000805160206120708339815191529181900360200190a35050565b60005b600754811015610b065760006007828154811061199e57fe5b600091825260208220015460408051635fd6196560e01b81526001600160a01b03878116600483015291519190921693508392635fd61965926024808201939182900301818387803b1580156119f357600080fd5b505af1158015611a07573d6000803e3d6000fd5b505060019093019250611985915050565b6000610b9d83836040518060400160405280601e81526020017f536166654d6174683a207375627472616374696f6e206f766572666c6f7700008152506117f9565b6001600160a01b038216611a9f5760405162461bcd60e51b81526004018080602001828103825260258152602001806121026025913960400191505060405180910390fd5b611aa882611982565b611ae5816040518060600160405280602681526020016120b2602691396001600160a01b03851660009081526005602052604090205491906117f9565b6001600160a01b038316600090815260056020526040902055600254611b0b9082611a18565b6002556001600160a01b03821660009081526008602052604090205460ff1615611b4057600354611b3c9082611a18565b6003555b6040805182815290516000916001600160a01b038516916000805160206120708339815191529181900360200190a35050565b6060611bc8826040518060400160405280602081526020017f5361666545524332303a206c6f772d6c6576656c2063616c6c206661696c6564815250856001600160a01b0316611c249092919063ffffffff16565b80519091501561092757808060200190516020811015611be757600080fd5b50516109275760405162461bcd60e51b815260040180806020018281038252602a8152602001806120d8602a913960400191505060405180910390fd5b6060611c338484600085611c3b565b949350505050565b606082471015611c7c5760405162461bcd60e51b8152600401808060200182810382526026815260200180611fd86026913960400191505060405180910390fd5b611c8585611d97565b611cd6576040805162461bcd60e51b815260206004820152601d60248201527f416464726573733a2063616c6c20746f206e6f6e2d636f6e7472616374000000604482015290519081900360640190fd5b60006060866001600160a01b031685876040518082805190602001908083835b60208310611d155780518252601f199092019160209182019101611cf6565b6001836020036101000a03801982511681845116808217855250505050505090500191505060006040518083038185875af1925050503d8060008114611d77576040519150601f19603f3d011682016040523d82523d6000602084013e611d7c565b606091505b5091509150611d8c828286611d9d565b979650505050505050565b3b151590565b60608315611dac575081610b9d565b825115611dbc5782518084602001fd5b60405162461bcd60e51b815260206004820181815284516024840152845185939192839260440191908501908083836000831561184d578181015183820152602001611835565b828054828255906000526020600020908101928215611e58579160200282015b82811115611e5857825182546001600160a01b0319166001600160a01b03909116178255602090920191600190910190611e23565b50611e64929150611ee2565b5090565b828054600181600116156101000203166002900490600052602060002090601f016020900481019282601f10611ea957805160ff1916838001178555611ed6565b82800160010185558215611ed6579182015b82811115611ed6578251825591602001919060010190611ebb565b50611e64929150611f01565b5b80821115611e645780546001600160a01b0319168155600101611ee3565b5b80821115611e645760008155600101611f0256fe42617365546f6b656e3a206d73672e73656e646572206e6f742077686974656c697374656442617365546f6b656e3a207472616e7366657220746f20746865207a65726f206164647265737342617365546f6b656e3a206d696e7420746f20746865207a65726f206164647265737342617365546f6b656e3a20617070726f766520746f20746865207a65726f206164647265737342617365546f6b656e3a207472616e7366657220616d6f756e74206578636565647320616c6c6f77616e6365416464726573733a20696e73756666696369656e742062616c616e636520666f722063616c6c42617365546f6b656e3a20666f7262696464656e00000000000000000000000042617365546f6b656e3a20617070726f76652066726f6d20746865207a65726f206164647265737342617365546f6b656e3a207472616e7366657220616d6f756e7420657863656564732062616c616e6365ddf252ad1be2c89b69c2b068fc378daa952ba7f163c4a11628f55a4df523b3ef42617365546f6b656e3a205f6163636f756e7420616c7265616479206d61726b656442617365546f6b656e3a206275726e20616d6f756e7420657863656564732062616c616e63655361666545524332303a204552433230206f7065726174696f6e20646964206e6f74207375636365656442617365546f6b656e3a206275726e2066726f6d20746865207a65726f206164647265737342617365546f6b656e3a207472616e736665722066726f6d20746865207a65726f2061646472657373a2646970667358221220208566a308a6e1182d4cf974c7b1d352ec5dbec9dddd8d6162f887db052c83a664736f6c634300060c003342617365546f6b656e3a206d696e7420746f20746865207a65726f2061646472657373","linkReferences":{}},"methodIdentifiers":{"addAdmin(address)":"70480275","addNonStakingAccount(address)":"62289077","admins(address)":"429b62e5","allowance(address,address)":"dd62ed3e","allowances(address,address)":"55b6ed5c","approve(address,uint256)":"095ea7b3","balanceOf(address)":"70a08231","balances(address)":"27e235e3","burn(address,uint256)":"9dc29fac","claim(address)":"1e83409a","decimals()":"313ce567","gov()":"12d43a51","inPrivateTransferMode()":"dfbaefb1","isHandler(address)":"46ea87af","isMinter(address)":"aa271e1a","mint(address,uint256)":"40c10f19","name()":"06fdde03","nonStakingAccounts(address)":"9554381a","nonStakingSupply()":"c93be636","recoverClaim(address,address)":"996f11ee","removeAdmin(address)":"1785f53c","removeNonStakingAccount(address)":"fb30d916","setGov(address)":"cfad57a2","setHandler(address,bool)":"9cb7de4b","setInPrivateTransferMode(bool)":"5a47a1a7","setInfo(string,string)":"a923fc40","setMinter(address,bool)":"cf456ae7","setYieldTrackers(address[])":"276eab4e","stakedBalance(address)":"60217267","symbol()":"95d89b41","totalStaked()":"817b1cd2","totalSupply()":"18160ddd","transfer(address,uint256)":"a9059cbb","transferFrom(address,address,uint256)":"23b872dd","withdrawToken(address,address,uint256)":"01e33667","yieldTrackers(uint256)":"52cd38d9"},"id":141}