{"abi":[{"type":"function","name":"observe","inputs":[{"name":"","type":"uint32[]","internalType":"uint32[]"}],"outputs":[{"name":"tickCumulatives","type":"int56[]","internalType":"int56[]"},{"name":"secondsPerLiquidityCumulativeX128s","type":"uint160[]","internalType":"uint160[]"}],"stateMutability":"pure"},{"type":"function","name":"slot0","inputs":[],"outputs":[{"name":"sqrtPriceX96","type":"uint160","internalType":"uint160"},{"name":"tick","type":"int24","internalType":"int24"},{"name":"observationIndex","type":"uint16","internalType":"uint16"},{"name":"observationCardinality","type":"uint16","internalType":"uint16"},{"name":"observationCardinalityNext","type":"uint16","internalType":"uint16"},{"name":"feeProtocol","type":"uint8","internalType":"uint8"},{"name":"unlocked","type":"bool","internalType":"bool"}],"stateMutability":"view"},{"type":"function","name":"tickSpacing","inputs":[],"outputs":[{"name":"","type":"int24","internalType":"int24"}],"stateMutability":"pure"}],"bytecode":{"object":"0x608060405234801561001057600080fd5b50610259806100206000396000f3fe608060405234801561001057600080fd5b50600436106100415760003560e01c80633850c7bd14610046578063883bdbfd1461009f578063d0c93a7c146101a6575b600080fd5b61004e6101c5565b604080516001600160a01b03909816885260029690960b602088015261ffff9485168787015292841660608701529216608085015260ff90911660a0840152151560c0830152519081900360e00190f35b61010d600480360360208110156100b557600080fd5b810190602081018135600160201b8111156100cf57600080fd5b8201836020820111156100e157600080fd5b803590602001918460208302840111600160201b8311171561010257600080fd5b509092509050610215565b604051808060200180602001838103835285818151815260200191508051906020019060200280838360005b83811015610151578181015183820152602001610139565b50505050905001838103825284818151815260200191508051906020019060200280838360005b83811015610190578181015183820152602001610178565b5050505090500194505050505060405180910390f35b6101ae61021e565b6040805160029290920b8252519081900360200190f35b6000546001600160a01b03811690600160a01b810460020b9061ffff600160b81b8204811691600160c81b8104821691600160d81b8204169060ff600160e81b8204811691600160f01b90041687565b50606091829150565b60009056fea264697066735822122031108ee5f984b254e1c46ffe8825dc3d0689a71a86097858af1b9dce6a961e4d64736f6c634300060c0033","linkReferences":{}},"methodIdentifiers":{"observe(uint32[])":"883bdbfd","slot0()":"3850c7bd","tickSpacing()":"d0c93a7c"},"id":37}