{"abi":[{"type":"constructor","inputs":[{"name":"_vault","type":"address","internalType":"address"},{"name":"_usdg","type":"address","internalType":"address"},{"name":"_weth","type":"address","internalType":"address"}],"stateMutability":"nonpayable"},{"type":"receive","stateMutability":"payable"},{"type":"function","name":"acceptGov","inputs":[],"outputs":[],"stateMutability":"nonpayable"},{"type":"function","name":"addPlugin","inputs":[{"name":"_plugin","type":"address","internalType":"address"}],"outputs":[],"stateMutability":"nonpayable"},{"type":"function","name":"approvePlugin","inputs":[{"name":"_plugin","type":"address","internalType":"address"}],"outputs":[],"stateMutability":"nonpayable"},{"type":"function","name":"approvedPlugins","inputs":[{"name":"","type":"address","internalType":"address"},{"name":"","type":"address","internalType":"address"}],"outputs":[{"name":"","type":"bool","internalType":"bool"}],"stateMutability":"view"},{"type":"function","name":"cancelGovProposal","inputs":[{"name":"_gov","type":"address","internalType":"address"}],"outputs":[],"stateMutability":"nonpayable"},{"type":"function","name":"decreasePosition","inputs":[{"name":"_collateralToken","type":"address","internalType":"address"},{"name":"_indexToken","type":"address","internalType":"address"},{"name":"_collateralDelta","type":"uint256","internalType":"uint256"},{"name":"_sizeDelta","type":"uint256","internalType":"uint256"},{"name":"_isLong","type":"bool","internalType":"bool"},{"name":"_receiver","type":"address","internalType":"address"},{"name":"_price","type":"uint256","internalType":"uint256"}],"outputs":[],"stateMutability":"nonpayable"},{"type":"function","name":"decreasePositionAndSwap","inputs":[{"name":"_path","type":"address[]","internalType":"address[]"},{"name":"_indexToken","type":"address","internalType":"address"},{"name":"_collateralDelta","type":"uint256","internalType":"uint256"},{"name":"_sizeDelta","type":"uint256","internalType":"uint256"},{"name":"_isLong","type":"bool","internalType":"bool"},{"name":"_receiver","type":"address","internalType":"address"},{"name":"_price","type":"uint256","internalType":"uint256"},{"name":"_minOut","type":"uint256","internalType":"uint256"}],"outputs":[],"stateMutability":"nonpayable"},{"type":"function","name":"decreasePositionAndSwapETH","inputs":[{"name":"_path","type":"address[]","internalType":"address[]"},{"name":"_indexToken","type":"address","internalType":"address"},{"name":"_collateralDelta","type":"uint256","internalType":"uint256"},{"name":"_sizeDelta","type":"uint256","internalType":"uint256"},{"name":"_isLong","type":"bool","internalType":"bool"},{"name":"_receiver","type":"address","internalType":"address payable"},{"name":"_price","type":"uint256","internalType":"uint256"},{"name":"_minOut","type":"uint256","internalType":"uint256"}],"outputs":[],"stateMutability":"nonpayable"},{"type":"function","name":"decreasePositionETH","inputs":[{"name":"_collateralToken","type":"address","internalType":"address"},{"name":"_indexToken","type":"address","internalType":"address"},{"name":"_collateralDelta","type":"uint256","internalType":"uint256"},{"name":"_sizeDelta","type":"uint256","internalType":"uint256"},{"name":"_isLong","type":"bool","internalType":"bool"},{"name":"_receiver","type":"address","internalType":"address payable"},{"name":"_price","type":"uint256","internalType":"uint256"}],"outputs":[],"stateMutability":"nonpayable"},{"type":"function","name":"denyPlugin","inputs":[{"name":"_plugin","type":"address","internalType":"address"}],"outputs":[],"stateMutability":"nonpayable"},{"type":"function","name":"directPoolDeposit","inputs":[{"name":"_token","type":"address","internalType":"address"},{"name":"_amount","type":"uint256","internalType":"uint256"}],"outputs":[],"stateMutability":"nonpayable"},{"type":"function","name":"gov","inputs":[],"outputs":[{"name":"","type":"address","internalType":"address"}],"stateMutability":"view"},{"type":"function","name":"govProposals","inputs":[{"name":"","type":"address","internalType":"address"}],"outputs":[{"name":"deadline","type":"uint256","internalType":"uint256"},{"name":"isActive","type":"bool","internalType":"bool"}],"stateMutability":"view"},{"type":"function","name":"increasePosition","inputs":[{"name":"_path","type":"address[]","internalType":"address[]"},{"name":"_indexToken","type":"address","internalType":"address"},{"name":"_amountIn","type":"uint256","internalType":"uint256"},{"name":"_minOut","type":"uint256","internalType":"uint256"},{"name":"_sizeDelta","type":"uint256","internalType":"uint256"},{"name":"_isLong","type":"bool","internalType":"bool"},{"name":"_price","type":"uint256","internalType":"uint256"}],"outputs":[],"stateMutability":"nonpayable"},{"type":"function","name":"increasePositionETH","inputs":[{"name":"_path","type":"address[]","internalType":"address[]"},{"name":"_indexToken","type":"address","internalType":"address"},{"name":"_minOut","type":"uint256","internalType":"uint256"},{"name":"_sizeDelta","type":"uint256","internalType":"uint256"},{"name":"_isLong","type":"bool","internalType":"bool"},{"name":"_price","type":"uint256","internalType":"uint256"}],"outputs":[],"stateMutability":"payable"},{"type":"function","name":"pluginDecreasePosition","inputs":[{"name":"_account","type":"address","internalType":"address"},{"name":"_collateralToken","type":"address","internalType":"address"},{"name":"_indexToken","type":"address","internalType":"address"},{"name":"_collateralDelta","type":"uint256","internalType":"uint256"},{"name":"_sizeDelta","type":"uint256","internalType":"uint256"},{"name":"_isLong","type":"bool","internalType":"bool"},{"name":"_receiver","type":"address","internalType":"address"}],"outputs":[{"name":"","type":"uint256","internalType":"uint256"}],"stateMutability":"nonpayable"},{"type":"function","name":"pluginIncreasePosition","inputs":[{"name":"_account","type":"address","internalType":"address"},{"name":"_collateralToken","type":"address","internalType":"address"},{"name":"_indexToken","type":"address","internalType":"address"},{"name":"_sizeDelta","type":"uint256","internalType":"uint256"},{"name":"_isLong","type":"bool","internalType":"bool"}],"outputs":[],"stateMutability":"nonpayable"},{"type":"function","name":"pluginTransfer","inputs":[{"name":"_token","type":"address","internalType":"address"},{"name":"_account","type":"address","internalType":"address"},{"name":"_receiver","type":"address","internalType":"address"},{"name":"_amount","type":"uint256","internalType":"uint256"}],"outputs":[],"stateMutability":"nonpayable"},{"type":"function","name":"plugins","inputs":[{"name":"","type":"address","internalType":"address"}],"outputs":[{"name":"","type":"bool","internalType":"bool"}],"stateMutability":"view"},{"type":"function","name":"removePlugin","inputs":[{"name":"_plugin","type":"address","internalType":"address"}],"outputs":[],"stateMutability":"nonpayable"},{"type":"function","name":"setGov","inputs":[{"name":"_gov","type":"address","internalType":"address"}],"outputs":[],"stateMutability":"nonpayable"},{"type":"function","name":"setGovWithDeadline","inputs":[{"name":"_gov","type":"address","internalType":"address"},{"name":"_deadline","type":"uint256","internalType":"uint256"}],"outputs":[],"stateMutability":"nonpayable"},{"type":"function","name":"swap","inputs":[{"name":"_path","type":"address[]","internalType":"address[]"},{"name":"_amountIn","type":"uint256","internalType":"uint256"},{"name":"_minOut","type":"uint256","internalType":"uint256"},{"name":"_receiver","type":"address","internalType":"address"}],"outputs":[],"stateMutability":"nonpayable"},{"type":"function","name":"swapETHToTokens","inputs":[{"name":"_path","type":"address[]","internalType":"address[]"},{"name":"_minOut","type":"uint256","internalType":"uint256"},{"name":"_receiver","type":"address","internalType":"address"}],"outputs":[],"stateMutability":"payable"},{"type":"function","name":"swapTokensToETH","inputs":[{"name":"_path","type":"address[]","internalType":"address[]"},{"name":"_amountIn","type":"uint256","internalType":"uint256"},{"name":"_minOut","type":"uint256","internalType":"uint256"},{"name":"_receiver","type":"address","internalType":"address payable"}],"outputs":[],"stateMutability":"nonpayable"},{"type":"function","name":"usdg","inputs":[],"outputs":[{"name":"","type":"address","internalType":"address"}],"stateMutability":"view"},{"type":"function","name":"vault","inputs":[],"outputs":[{"name":"","type":"address","internalType":"address"}],"stateMutability":"view"},{"type":"function","name":"weth","inputs":[],"outputs":[{"name":"","type":"address","internalType":"address"}],"stateMutability":"view"},{"type":"event","name":"DecreasePositionAndSwapCalled","inputs":[{"name":"sender","type":"address","indexed":true,"internalType":"address"},{"name":"collateralToken","type":"address","indexed":true,"internalType":"address"},{"name":"indexToken","type":"address","indexed":true,"internalType":"address"},{"name":"collateralDelta","type":"uint256","indexed":false,"internalType":"uint256"},{"name":"sizeDelta","type":"uint256","indexed":false,"internalType":"uint256"},{"name":"isLong","type":"bool","indexed":false,"internalType":"bool"},{"name":"receiver","type":"address","indexed":false,"internalType":"address"},{"name":"price","type":"uint256","indexed":false,"internalType":"uint256"},{"name":"minOut","type":"uint256","indexed":false,"internalType":"uint256"}],"anonymous":false},{"type":"event","name":"DecreasePositionAndSwapETHCalled","inputs":[{"name":"sender","type":"address","indexed":true,"internalType":"address"},{"name":"collateralToken","type":"address","indexed":true,"internalType":"address"},{"name":"indexToken","type":"address","indexed":true,"internalType":"address"},{"name":"collateralDelta","type":"uint256","indexed":false,"internalType":"uint256"},{"name":"sizeDelta","type":"uint256","indexed":false,"internalType":"uint256"},{"name":"isLong","type":"bool","indexed":false,"internalType":"bool"},{"name":"receiver","type":"address","indexed":false,"internalType":"address"},{"name":"price","type":"uint256","indexed":false,"internalType":"uint256"},{"name":"minOut","type":"uint256","indexed":false,"internalType":"uint256"}],"anonymous":false},{"type":"event","name":"DecreasePositionCalled","inputs":[{"name":"sender","type":"address","indexed":true,"internalType":"address"},{"name":"collateralToken","type":"address","indexed":true,"internalType":"address"},{"name":"indexToken","type":"address","indexed":true,"internalType":"address"},{"name":"collateralDelta","type":"uint256","indexed":false,"internalType":"uint256"},{"name":"sizeDelta","type":"uint256","indexed":false,"internalType":"uint256"},{"name":"isLong","type":"bool","indexed":false,"internalType":"bool"},{"name":"receiver","type":"address","indexed":false,"internalType":"address"},{"name":"price","type":"uint256","indexed":false,"internalType":"uint256"}],"anonymous":false},{"type":"event","name":"DecreasePositionETHCalled","inputs":[{"name":"sender","type":"address","indexed":true,"internalType":"address"},{"name":"collateralToken","type":"address","indexed":true,"internalType":"address"},{"name":"indexToken","type":"address","indexed":true,"internalType":"address"},{"name":"collateralDelta","type":"uint256","indexed":false,"internalType":"uint256"},{"name":"sizeDelta","type":"uint256","indexed":false,"internalType":"uint256"},{"name":"isLong","type":"bool","indexed":false,"internalType":"bool"},{"name":"receiver","type":"address","indexed":false,"internalType":"address"},{"name":"price","type":"uint256","indexed":false,"internalType":"uint256"}],"anonymous":false},{"type":"event","name":"DirectPoolDepositCalled","inputs":[{"name":"token","type":"address","indexed":true,"internalType":"address"},{"name":"sender","type":"address","indexed":true,"internalType":"address"},{"name":"amount","type":"uint256","indexed":false,"internalType":"uint256"}],"anonymous":false},{"type":"event","name":"GovProposalCanceled","inputs":[{"name":"proposedGov","type":"address","indexed":true,"internalType":"address"},{"name":"canceledBy","type":"address","indexed":true,"internalType":"address"}],"anonymous":false},{"type":"event","name":"GovernanceTransferRequested","inputs":[{"name":"newGov","type":"address","indexed":true,"internalType":"address"},{"name":"deadline","type":"uint256","indexed":false,"internalType":"uint256"}],"anonymous":false},{"type":"event","name":"GovernanceTransferred","inputs":[{"name":"oldGov","type":"address","indexed":true,"internalType":"address"},{"name":"newGov","type":"address","indexed":true,"internalType":"address"}],"anonymous":false},{"type":"event","name":"IncreasePositionCalled","inputs":[{"name":"sender","type":"address","indexed":true,"internalType":"address"},{"name":"collateralToken","type":"address","indexed":true,"internalType":"address"},{"name":"indexToken","type":"address","indexed":true,"internalType":"address"},{"name":"amountIn","type":"uint256","indexed":false,"internalType":"uint256"},{"name":"sizeDelta","type":"uint256","indexed":false,"internalType":"uint256"},{"name":"isLong","type":"bool","indexed":false,"internalType":"bool"},{"name":"price","type":"uint256","indexed":false,"internalType":"uint256"}],"anonymous":false},{"type":"event","name":"IncreasePositionETHCalled","inputs":[{"name":"sender","type":"address","indexed":true,"internalType":"address"},{"name":"collateralToken","type":"address","indexed":true,"internalType":"address"},{"name":"indexToken","type":"address","indexed":true,"internalType":"address"},{"name":"msgValue","type":"uint256","indexed":false,"internalType":"uint256"},{"name":"sizeDelta","type":"uint256","indexed":false,"internalType":"uint256"},{"name":"isLong","type":"bool","indexed":false,"internalType":"bool"},{"name":"price","type":"uint256","indexed":false,"internalType":"uint256"}],"anonymous":false},{"type":"event","name":"PluginAdded","inputs":[{"name":"plugin","type":"address","indexed":true,"internalType":"address"}],"anonymous":false},{"type":"event","name":"PluginApproved","inputs":[{"name":"account","type":"address","indexed":true,"internalType":"address"},{"name":"plugin","type":"address","indexed":true,"internalType":"address"}],"anonymous":false},{"type":"event","name":"PluginDecreasePosition","inputs":[{"name":"plugin","type":"address","indexed":true,"internalType":"address"},{"name":"account","type":"address","indexed":true,"internalType":"address"},{"name":"collateralToken","type":"address","indexed":true,"internalType":"address"},{"name":"indexToken","type":"address","indexed":false,"internalType":"address"},{"name":"collateralDelta","type":"uint256","indexed":false,"internalType":"uint256"},{"name":"sizeDelta","type":"uint256","indexed":false,"internalType":"uint256"},{"name":"isLong","type":"bool","indexed":false,"internalType":"bool"},{"name":"receiver","type":"address","indexed":false,"internalType":"address"}],"anonymous":false},{"type":"event","name":"PluginDenied","inputs":[{"name":"account","type":"address","indexed":true,"internalType":"address"},{"name":"plugin","type":"address","indexed":true,"internalType":"address"}],"anonymous":false},{"type":"event","name":"PluginIncreasePosition","inputs":[{"name":"plugin","type":"address","indexed":true,"internalType":"address"},{"name":"account","type":"address","indexed":true,"internalType":"address"},{"name":"collateralToken","type":"address","indexed":true,"internalType":"address"},{"name":"indexToken","type":"address","indexed":false,"internalType":"address"},{"name":"sizeDelta","type":"uint256","indexed":false,"internalType":"uint256"},{"name":"isLong","type":"bool","indexed":false,"internalType":"bool"}],"anonymous":false},{"type":"event","name":"PluginRemoved","inputs":[{"name":"plugin","type":"address","indexed":true,"internalType":"address"}],"anonymous":false},{"type":"event","name":"PluginTransfer","inputs":[{"name":"plugin","type":"address","indexed":true,"internalType":"address"},{"name":"token","type":"address","indexed":true,"internalType":"address"},{"name":"account","type":"address","indexed":true,"internalType":"address"},{"name":"receiver","type":"address","indexed":false,"internalType":"address"},{"name":"amount","type":"uint256","indexed":false,"internalType":"uint256"}],"anonymous":false},{"type":"event","name":"Swap","inputs":[{"name":"account","type":"address","indexed":false,"internalType":"address"},{"name":"tokenIn","type":"address","indexed":false,"internalType":"address"},{"name":"tokenOut","type":"address","indexed":false,"internalType":"address"},{"name":"amountIn","type":"uint256","indexed":false,"internalType":"uint256"},{"name":"amountOut","type":"uint256","indexed":false,"internalType":"uint256"}],"anonymous":false}],"bytecode":{"object":"0x60e060405234801561001057600080fd5b5060405161332c38038061332c8339818101604052606081101561003357600080fd5b50805160208201516040909201516001600160601b0319606092831b811660c05292821b831660a052901b16608052600080546001600160a01b0319163317905560805160601c60a05160601c60c05160601c6131e861014460003980610ce55280610e015280610f805280611130528061135b5280611743528061176a5280611bf45280611cdf5280611d36528061203e5280612226528061237f528061245b5280612531528061278952806127bb5280612897528061296d5280612b165280612c035280612c8352508061201a5280612adc5280612bc952508061015b5280610eea528061107b52806112835280611a065280611b3652806122e452806126e7528061276552506131e86000f3fe60806040526004361061014b5760003560e01c806312d43a51146101cd5780631b827878146101fe5780631f1dd176146102475780632662166b146102985780632d4ba6a71461030b5780633039e37f146103cd57806338c74dd9146104ad5780633fc8cef3146104e0578063430ed37c146104f55780634b12e643146105545780635fc8500e1461059b5780636023e9661461067b5780636bb22fd71461073d5780637bc6729b146107765780638d0fedb01461078b57806390205d8c146107d757806390b64ad314610836578063956f285e1461086f5780639c35b497146108aa578063a4d95b64146108dd578063abe68eaa14610910578063b32755de146109bf578063b7ddc99214610a82578063cedd437514610b58578063cfad57a214610b8b578063d8867fc814610bbe578063f5b91b7b14610bf1578063fbfa77cf14610c06576101c8565b366101c857336001600160a01b037f000000000000000000000000000000000000000000000000000000000000000016146101c6576040805162461bcd60e51b81526020600482015260166024820152752937baba32b91d1034b73b30b634b21039b2b73232b960511b604482015290519081900360640190fd5b005b600080fd5b3480156101d957600080fd5b506101e2610c1b565b604080516001600160a01b039092168252519081900360200190f35b34801561020a57600080fd5b506101c66004803603608081101561022157600080fd5b506001600160a01b03813581169160208101358216916040820135169060600135610c2a565b34801561025357600080fd5b506101c6600480360360a081101561026a57600080fd5b506001600160a01b038135811691602081013582169160408201351690606081013590608001351515610c9b565b3480156102a457600080fd5b506102f9600480360360e08110156102bb57600080fd5b506001600160a01b0381358116916020810135821691604082013581169160608101359160808201359160a081013515159160c09091013516610da3565b60408051918252519081900360200190f35b34801561031757600080fd5b506101c66004803603608081101561032e57600080fd5b810190602081018135600160201b81111561034857600080fd5b82018360208201111561035a57600080fd5b803590602001918460208302840111600160201b8311171561037b57600080fd5b91908080602002602001604051908101604052809392919081815260200183836020028082843760009201919091525092955050823593505050602081013590604001356001600160a01b0316610ee8565b3480156103d957600080fd5b506101c660048036036101008110156103f157600080fd5b810190602081018135600160201b81111561040b57600080fd5b82018360208201111561041d57600080fd5b803590602001918460208302840111600160201b8311171561043e57600080fd5b919080806020026020016040519081016040528093929190818152602001838360200280828437600092019190915250929550505081356001600160a01b0390811693506020830135926040810135925060608101351515916080820135169060a08101359060c00135611079565b3480156104b957600080fd5b506101c6600480360360208110156104d057600080fd5b50356001600160a01b0316611228565b3480156104ec57600080fd5b506101e2611281565b34801561050157600080fd5b506101c6600480360360e081101561051857600080fd5b506001600160a01b0381358116916020810135821691604082013591606081013591608082013515159160a08101359091169060c001356112a5565b34801561056057600080fd5b506105876004803603602081101561057757600080fd5b50356001600160a01b031661132d565b604080519115158252519081900360200190f35b3480156105a757600080fd5b506101c660048036036101008110156105bf57600080fd5b810190602081018135600160201b8111156105d957600080fd5b8201836020820111156105eb57600080fd5b803590602001918460208302840111600160201b8311171561060c57600080fd5b919080806020026020016040519081016040528093929190818152602001838360200280828437600092019190915250929550505081356001600160a01b0390811693506020830135926040810135925060608101351515916080820135169060a08101359060c00135611342565b34801561068757600080fd5b506101c66004803603608081101561069e57600080fd5b810190602081018135600160201b8111156106b857600080fd5b8201836020820111156106ca57600080fd5b803590602001918460208302840111600160201b831117156106eb57600080fd5b91908080602002602001604051908101604052809392919081815260200183836020028082843760009201919091525092955050823593505050602081013590604001356001600160a01b0316611425565b34801561074957600080fd5b506101c66004803603604081101561076057600080fd5b506001600160a01b03813516906020013561145c565b34801561078257600080fd5b506101c661156f565b34801561079757600080fd5b506107be600480360360208110156107ae57600080fd5b50356001600160a01b0316611695565b6040805192835290151560208301528051918290030190f35b3480156107e357600080fd5b506101c6600480360360e08110156107fa57600080fd5b506001600160a01b0381358116916020810135821691604082013591606081013591608082013515159160a08101359091169060c001356116b1565b34801561084257600080fd5b506101c66004803603604081101561085957600080fd5b506001600160a01b03813516906020013561172b565b34801561087b57600080fd5b506105876004803603604081101561089257600080fd5b506001600160a01b0381358116916020013516611833565b3480156108b657600080fd5b506101c6600480360360208110156108cd57600080fd5b50356001600160a01b0316611853565b3480156108e957600080fd5b506101c66004803603602081101561090057600080fd5b50356001600160a01b0316611968565b6101c66004803603606081101561092657600080fd5b810190602081018135600160201b81111561094057600080fd5b82018360208201111561095257600080fd5b803590602001918460208302840111600160201b8311171561097357600080fd5b91908080602002602001604051908101604052809392919081815260200183836020028082843760009201919091525092955050823593505050602001356001600160a01b0316611a04565b6101c6600480360360c08110156109d557600080fd5b810190602081018135600160201b8111156109ef57600080fd5b820183602082011115610a0157600080fd5b803590602001918460208302840111600160201b83111715610a2257600080fd5b919080806020026020016040519081016040528093929190818152602001838360200280828437600092019190915250929550506001600160a01b0383351693505050602081013590604081013590606081013515159060800135611b34565b348015610a8e57600080fd5b506101c6600480360360e0811015610aa557600080fd5b810190602081018135600160201b811115610abf57600080fd5b820183602082011115610ad157600080fd5b803590602001918460208302840111600160201b83111715610af257600080fd5b919080806020026020016040519081016040528093929190818152602001838360200280828437600092019190915250929550506001600160a01b0383351693505050602081013590604081013590606081013590608081013515159060a00135611ccc565b348015610b6457600080fd5b506101c660048036036020811015610b7b57600080fd5b50356001600160a01b0316611e0f565b348015610b9757600080fd5b506101c660048036036020811015610bae57600080fd5b50356001600160a01b0316611e65565b348015610bca57600080fd5b506101c660048036036020811015610be157600080fd5b50356001600160a01b0316611f79565b348015610bfd57600080fd5b506101e2612018565b348015610c1257600080fd5b506101e261203c565b6000546001600160a01b031681565b610c3383612060565b610c486001600160a01b038516848484612133565b604080516001600160a01b038481168252602082018490528251818716939188169233927fbf585167593446d6c094bd2e3d1cddf589fc1b324f4acab68e97adf8bd8eccd392918290030190a450505050565b610ca485612060565b604080516348d91abf60e01b81526001600160a01b0387811660048301528681166024830152858116604483015260648201859052831515608483015291517f0000000000000000000000000000000000000000000000000000000000000000909216916348d91abf9160a48082019260009290919082900301818387803b158015610d2f57600080fd5b505af1158015610d43573d6000803e3d6000fd5b5050604080516001600160a01b038781168252602082018790528515158284015291518289169450918916925033917f53b54175ca2b66787503550d2d0cf88bd5ad9612896a4f67099ca6e7a4c8626f9181900360600190a45050505050565b6000610dae88612060565b6040805163082a084960e41b81526001600160a01b038a8116600483015289811660248301528881166044830152606482018890526084820187905285151560a483015284811660c483015291516000927f000000000000000000000000000000000000000000000000000000000000000016916382a084909160e480830192602092919082900301818787803b158015610e4857600080fd5b505af1158015610e5c573d6000803e3d6000fd5b505050506040513d6020811015610e7257600080fd5b5051604080516001600160a01b038a81168252602082018a9052818301899052871515606083015286811660808301529151929350818b1692918c169133917f0bede3e7b3d20631d9608c557c26b4d702ee10d91a3ea400c8540ef48620a695919081900360a00190a498975050505050505050565b7f00000000000000000000000000000000000000000000000000000000000000006001600160a01b031684600186510381518110610f2257fe5b60200260200101516001600160a01b031614610f73576040805162461bcd60e51b815260206004820152601560248201526000805160206130a2833981519152604482015290519081900360640190fd5b610fce610f7e612193565b7f00000000000000000000000000000000000000000000000000000000000000008587600081518110610fad57fe5b60200260200101516001600160a01b0316612133909392919063ffffffff16565b6000610fdb858430612197565b9050610fe781836122e2565b600080516020613145833981519152338660008151811061100457fe5b60200260200101518760018951038151811061101c57fe5b6020026020010151878560405180866001600160a01b03168152602001856001600160a01b03168152602001846001600160a01b031681526020018381526020018281526020019550505050505060405180910390a15050505050565b7f00000000000000000000000000000000000000000000000000000000000000006001600160a01b03168860018a5103815181106110b357fe5b60200260200101516001600160a01b031614611104576040805162461bcd60e51b815260206004820152601560248201526000805160206130a2833981519152604482015290519081900360640190fd5b60006111298960008151811061111657fe5b6020026020010151898989893089612374565b905061117d7f0000000000000000000000000000000000000000000000000000000000000000828b60008151811061115d57fe5b60200260200101516001600160a01b03166126139092919063ffffffff16565b600061118a8a8430612197565b905061119681866122e2565b886001600160a01b03168a6000815181106111ad57fe5b602090810291909101810151604080518c81529283018b9052891515838201526001600160a01b0389811660608501526080840189905260a08401889052905191169133917fe9b00ae8c600ee76ed1795587b535d7d5fcafd0eca57a88b68e7a639e47c816a9181900360c00190a450505050505050505050565b3360008181526003602090815260408083206001600160a01b0386168085529252808320805460ff19166001179055519092917f66075e2684e8cbbd5dd40f4ecfa3cb7e9903d1b492d8484496b579070dd080b491a350565b7f000000000000000000000000000000000000000000000000000000000000000081565b60006112b688888888883088612374565b90506112c281846122e2565b6040805187815260208101879052851515818301526001600160a01b038581166060830152608082018590529151828a16928b169133917fc47e5d361a9113773ae3fd28702ee3ab41dd7905d51bbf4002d06152422fc39d9181900360a00190a45050505050505050565b60026020526000908152604090205460ff1681565b60006113548960008151811061111657fe5b90506113887f0000000000000000000000000000000000000000000000000000000000000000828b60008151811061115d57fe5b611393898386612197565b50876001600160a01b0316896000815181106113ab57fe5b602090810291909101810151604080518b81529283018a9052881515838201526001600160a01b0388811660608501526080840188905260a08401879052905191169133917f1a3cac47c954a786bae7e432583985a229d10f7617afdcf31bea85eb054e6caa9181900360c00190a4505050505050505050565b611430610f7e612193565b600061143d858484612197565b9050600080516020613145833981519152338660008151811061100457fe5b6000546001600160a01b031633146114af576040805162461bcd60e51b81526020600482015260116024820152702937baba32b91d103337b93134b23232b760791b604482015290519081900360640190fd5b6001600160a01b038216611504576040805162461bcd60e51b8152602060048201526017602482015276526f757465723a20696e76616c6964206164647265737360481b604482015290519081900360640190fd5b6000546001600160a01b0383811691161415611561576040805162461bcd60e51b8152602060048201526017602482015276526f757465723a2073616d6520676f7665726e616e636560481b604482015290519081900360640190fd5b61156b828261266a565b5050565b336000908152600160205260409020805442106115ce576040805162461bcd60e51b8152602060048201526018602482015277149bdd5d195c8e88191958591b1a5b9948195e1c1a5c995960421b604482015290519081900360640190fd5b60018082015460ff1615151461162b576040805162461bcd60e51b815260206004820152601e60248201527f526f757465723a2070726f706f73616c206973206e6f74206163746976650000604482015290519081900360640190fd5b6000805433808352600160208190526040808520858155909101805460ff1916905583546001600160a01b03191682178455516001600160a01b0390921692909183917f5f56bee8cffbe9a78652a74a60705edede02af10b0bbb888ca44b79a0d42ce8091a35050565b6001602081905260009182526040909120805491015460ff1682565b6116c087878787878787612374565b506040805186815260208101869052841515818301526001600160a01b038481166060830152608082018490529151828916928a169133917fefeab04ce3a19cef71c6b9e554ff43737f658f495f30b15e94a6660c4a4967619181900360a00190a450505050505050565b611768611736612193565b6001600160a01b038416907f000000000000000000000000000000000000000000000000000000000000000084612133565b7f00000000000000000000000000000000000000000000000000000000000000006001600160a01b0316635f7bc119836040518263ffffffff1660e01b815260040180826001600160a01b03168152602001915050600060405180830381600087803b1580156117d757600080fd5b505af11580156117eb573d6000803e3d6000fd5b50506040805184815290513393506001600160a01b03861692507f6295ea7917b8f249c6f3a5772900bca1eb6169275bfc0baa24d2e32f1ab5e9f59181900360200190a35050565b600360209081526000928352604080842090915290825290205460ff1681565b6000546001600160a01b031633146118a6576040805162461bcd60e51b81526020600482015260116024820152702937baba32b91d103337b93134b23232b760791b604482015290519081900360640190fd5b6001600160a01b0381166000908152600160208190526040909120015460ff16611915576040805162461bcd60e51b815260206004820152601b60248201527a526f757465723a2070726f706f73616c206e6f742061637469766560281b604482015290519081900360640190fd5b6001600160a01b0381166000818152600160208190526040808320838155909101805460ff19169055513392917ffc6a2fa53abe2adfe8372a9495032d7e6458d3aed34fa880132b6c808da1e99c91a350565b6000546001600160a01b031633146119bb576040805162461bcd60e51b81526020600482015260116024820152702937baba32b91d103337b93134b23232b760791b604482015290519081900360640190fd5b6001600160a01b038116600081815260026020526040808220805460ff19169055517f51284fda28afcf93bd679c4a813b5933700648505545b368f84bc5697a63e82b9190a250565b7f00000000000000000000000000000000000000000000000000000000000000006001600160a01b031683600081518110611a3b57fe5b60200260200101516001600160a01b031614611a8c576040805162461bcd60e51b815260206004820152601560248201526000805160206130a2833981519152604482015290519081900360640190fd5b611a946126e5565b6000611aa1848484612197565b90506000805160206131458339815191523385600081518110611ac057fe5b602002602001015186600188510381518110611ad857fe5b6020026020010151348560405180866001600160a01b03168152602001856001600160a01b03168152602001846001600160a01b031681526020018381526020018281526020019550505050505060405180910390a150505050565b7f00000000000000000000000000000000000000000000000000000000000000006001600160a01b031686600081518110611b6b57fe5b60200260200101516001600160a01b031614611bbc576040805162461bcd60e51b815260206004820152601560248201526000805160206130a2833981519152604482015290519081900360640190fd5b3415611bca57611bca6126e5565b60018651118015611bdb5750600034115b15611c26576000611bed878630612197565b9050611c247f0000000000000000000000000000000000000000000000000000000000000000828960018b51038151811061115d57fe5b505b611c4a86600188510381518110611c3957fe5b6020026020010151868585856127b2565b846001600160a01b031686600188510381518110611c6457fe5b602090810291909101810151604080513481529283018790528515158382015260608301859052516001600160a01b039091169133917f6ef4cfa8651fe937e0bfe154440fd84dcb03ef96766b26379d146c036df4f4c99181900360800190a4505050505050565b8415611d0c57611d0c611cdd612193565b7f0000000000000000000000000000000000000000000000000000000000000000878a600081518110610fad57fe5b60018751118015611d1d5750600085115b15611d68576000611d2f888630612197565b9050611d667f0000000000000000000000000000000000000000000000000000000000000000828a60018c51038151811061115d57fe5b505b611d8c87600189510381518110611d7b57fe5b6020026020010151878585856127b2565b856001600160a01b031687600189510381518110611da657fe5b602090810291909101810151604080518981529283018790528515158382015260608301859052516001600160a01b039091169133917fb2e22327a62dc460e82f2fb3d4e9da12ef056caa29589fc13b5ffe29a32581799181900360800190a450505050505050565b3360008181526003602090815260408083206001600160a01b0386168085529252808320805460ff19169055519092917fddbed2d3551fc3cfc02c168d24e596ba45a8e49ea75a5c0928fcbcb7e02b0ecb91a350565b6000546001600160a01b03163314611eb8576040805162461bcd60e51b81526020600482015260116024820152702937baba32b91d103337b93134b23232b760791b604482015290519081900360640190fd5b6001600160a01b038116611f0d576040805162461bcd60e51b8152602060048201526017602482015276526f757465723a20696e76616c6964206164647265737360481b604482015290519081900360640190fd5b6000546001600160a01b0382811691161415611f6a576040805162461bcd60e51b8152602060048201526017602482015276526f757465723a2073616d6520676f7665726e616e636560481b604482015290519081900360640190fd5b611f768160001961266a565b50565b6000546001600160a01b03163314611fcc576040805162461bcd60e51b81526020600482015260116024820152702937baba32b91d103337b93134b23232b760791b604482015290519081900360640190fd5b6001600160a01b038116600081815260026020526040808220805460ff19166001179055517f49c5bdfe3f492f82069fd409e316805f181989678a8f5e036fa91c572900184c9190a250565b7f000000000000000000000000000000000000000000000000000000000000000081565b7f000000000000000000000000000000000000000000000000000000000000000081565b3360009081526002602052604090205460ff166120bd576040805162461bcd60e51b81526020600482015260166024820152752937baba32b91d1034b73b30b634b21038363ab3b4b760511b604482015290519081900360640190fd5b6001600160a01b038116600090815260036020908152604080832033845290915290205460ff16611f76576040805162461bcd60e51b815260206004820152601b60248201527a149bdd5d195c8e881c1b1d59da5b881b9bdd08185c1c1c9bdd9959602a1b604482015290519081900360640190fd5b604080516001600160a01b0380861660248301528416604482015260648082018490528251808303909101815260849091019091526020810180516001600160e01b03166323b872dd60e01b17905261218d908590612a26565b50505050565b3390565b60008351600214156121de576121d7846000815181106121b357fe5b6020026020010151856001815181106121c857fe5b60200260200101518585612ad7565b90506122db565b83516003141561228f57600061221f856000815181106121fa57fe5b60200260200101518660018151811061220f57fe5b6020026020010151600030612ad7565b90506122537f0000000000000000000000000000000000000000000000000000000000000000828760018151811061115d57fe5b6122878560018151811061226357fe5b60200260200101518660028151811061227857fe5b60200260200101518686612ad7565b9150506122db565b6040805162461bcd60e51b815260206004820152601c60248201527b0a4deeae8cae47440d2dcecc2d8d2c840bee0c2e8d05cd8cadccee8d60231b604482015290519081900360640190fd5b9392505050565b7f00000000000000000000000000000000000000000000000000000000000000006001600160a01b0316632e1a7d4d836040518263ffffffff1660e01b815260040180828152602001915050600060405180830381600087803b15801561234857600080fd5b505af115801561235c573d6000803e3d6000fd5b5061156b925050506001600160a01b03821683612d9f565b6000831561245857817f00000000000000000000000000000000000000000000000000000000000000006001600160a01b03166381a612d6896040518263ffffffff1660e01b815260040180826001600160a01b0316815260200191505060206040518083038186803b1580156123ea57600080fd5b505afa1580156123fe573d6000803e3d6000fd5b505050506040513d602081101561241457600080fd5b505110156124535760405162461bcd60e51b81526004018080602001828103825260238152602001806131226023913960400191505060405180910390fd5b61252f565b817f00000000000000000000000000000000000000000000000000000000000000006001600160a01b031663e124e6d2896040518263ffffffff1660e01b815260040180826001600160a01b0316815260200191505060206040518083038186803b1580156124c657600080fd5b505afa1580156124da573d6000803e3d6000fd5b505050506040513d60208110156124f057600080fd5b5051111561252f5760405162461bcd60e51b815260040180806020018281038252602481526020018061318f6024913960400191505060405180910390fd5b7f00000000000000000000000000000000000000000000000000000000000000006001600160a01b03166382a08490612566612193565b604080516001600160e01b031960e085901b1681526001600160a01b039283166004820152828d166024820152828c166044820152606481018b9052608481018a905288151560a482015291871660c48301525160e48083019260209291908290030181600087803b1580156125db57600080fd5b505af11580156125ef573d6000803e3d6000fd5b505050506040513d602081101561260557600080fd5b505198975050505050505050565b604080516001600160a01b038416602482015260448082018490528251808303909101815260649091019091526020810180516001600160e01b031663a9059cbb60e01b179052612665908490612a26565b505050565b604080518082018252828152600160208083018281526001600160a01b038716600081815284845286902094518555905193909201805460ff1916931515939093179092558251848152925190927f02dd0697be46e764c3ba81094158781c31b235d03bb27a0daf1bdef0ec1084dd92908290030190a25050565b7f00000000000000000000000000000000000000000000000000000000000000006001600160a01b031663d0e30db0346040518263ffffffff1660e01b81526004016000604051808303818588803b15801561274057600080fd5b505af1158015612754573d6000803e3d6000fd5b506127b09350506001600160a01b037f00000000000000000000000000000000000000000000000000000000000000001691507f0000000000000000000000000000000000000000000000000000000000000000905034612613565b565b811561289457807f00000000000000000000000000000000000000000000000000000000000000006001600160a01b031663e124e6d2866040518263ffffffff1660e01b815260040180826001600160a01b0316815260200191505060206040518083038186803b15801561282657600080fd5b505afa15801561283a573d6000803e3d6000fd5b505050506040513d602081101561285057600080fd5b5051111561288f5760405162461bcd60e51b815260040180806020018281038252602481526020018061318f6024913960400191505060405180910390fd5b61296b565b807f00000000000000000000000000000000000000000000000000000000000000006001600160a01b03166381a612d6866040518263ffffffff1660e01b815260040180826001600160a01b0316815260200191505060206040518083038186803b15801561290257600080fd5b505afa158015612916573d6000803e3d6000fd5b505050506040513d602081101561292c57600080fd5b5051101561296b5760405162461bcd60e51b81526004018080602001828103825260238152602001806131226023913960400191505060405180910390fd5b7f00000000000000000000000000000000000000000000000000000000000000006001600160a01b03166348d91abf6129a2612193565b604080516001600160e01b031960e085901b1681526001600160a01b039283166004820152828a16602482015291881660448301526064820187905285151560848301525160a480830192600092919082900301818387803b158015612a0757600080fd5b505af1158015612a1b573d6000803e3d6000fd5b505050505050505050565b6060612a7b826040518060400160405280602081526020017f5361666545524332303a206c6f772d6c6576656c2063616c6c206661696c6564815250856001600160a01b0316612e849092919063ffffffff16565b80519091501561266557808060200190516020811015612a9a57600080fd5b50516126655760405162461bcd60e51b815260040180806020018281038252602a815260200180613165602a913960400191505060405180910390fd5b6000807f00000000000000000000000000000000000000000000000000000000000000006001600160a01b0316856001600160a01b03161415612bc7577f00000000000000000000000000000000000000000000000000000000000000006001600160a01b031663817bb85787856040518363ffffffff1660e01b815260040180836001600160a01b03168152602001826001600160a01b0316815260200192505050602060405180830381600087803b158015612b9457600080fd5b505af1158015612ba8573d6000803e3d6000fd5b505050506040513d6020811015612bbe57600080fd5b50519050612d41565b7f00000000000000000000000000000000000000000000000000000000000000006001600160a01b0316866001600160a01b03161415612c81577f00000000000000000000000000000000000000000000000000000000000000006001600160a01b031663711e619086856040518363ffffffff1660e01b815260040180836001600160a01b03168152602001826001600160a01b0316815260200192505050602060405180830381600087803b158015612b9457600080fd5b7f00000000000000000000000000000000000000000000000000000000000000006001600160a01b031663933162128787866040518463ffffffff1660e01b815260040180846001600160a01b03168152602001836001600160a01b03168152602001826001600160a01b031681526020019350505050602060405180830381600087803b158015612d1257600080fd5b505af1158015612d26573d6000803e3d6000fd5b505050506040513d6020811015612d3c57600080fd5b505190505b83811015612d96576040805162461bcd60e51b815260206004820152601e60248201527f526f757465723a20696e73756666696369656e7420616d6f756e744f75740000604482015290519081900360640190fd5b95945050505050565b80471015612df4576040805162461bcd60e51b815260206004820152601d60248201527f416464726573733a20696e73756666696369656e742062616c616e6365000000604482015290519081900360640190fd5b6040516000906001600160a01b0384169083908381818185875af1925050503d8060008114612e3f576040519150601f19603f3d011682016040523d82523d6000602084013e612e44565b606091505b50509050806126655760405162461bcd60e51b815260040180806020018281038252603a8152602001806130c2603a913960400191505060405180910390fd5b6060612e938484600085612e9b565b949350505050565b606082471015612edc5760405162461bcd60e51b81526004018080602001828103825260268152602001806130fc6026913960400191505060405180910390fd5b612ee585612ff7565b612f36576040805162461bcd60e51b815260206004820152601d60248201527f416464726573733a2063616c6c20746f206e6f6e2d636f6e7472616374000000604482015290519081900360640190fd5b60006060866001600160a01b031685876040518082805190602001908083835b60208310612f755780518252601f199092019160209182019101612f56565b6001836020036101000a03801982511681845116808217855250505050505090500191505060006040518083038185875af1925050503d8060008114612fd7576040519150601f19603f3d011682016040523d82523d6000602084013e612fdc565b606091505b5091509150612fec828286612ffd565b979650505050505050565b3b151590565b6060831561300c5750816122db565b82511561301c5782518084602001fd5b8160405162461bcd60e51b81526004018080602001828103825283818151815260200191508051906020019080838360005b8381101561306657818101518382015260200161304e565b50505050905090810190601f1680156130935780820380516001836020036101000a031916815260200191505b509250505060405180910390fdfe526f757465723a20696e76616c6964205f706174680000000000000000000000416464726573733a20756e61626c6520746f2073656e642076616c75652c20726563697069656e74206d61792068617665207265766572746564416464726573733a20696e73756666696369656e742062616c616e636520666f722063616c6c526f757465723a206d61726b207072696365206c6f776572207468616e206c696d6974cd3829a3813dc3cdd188fd3d01dcf3268c16be2fdd2dd21d0665418816e460625361666545524332303a204552433230206f7065726174696f6e20646964206e6f742073756363656564526f757465723a206d61726b20707269636520686967686572207468616e206c696d6974a2646970667358221220effee3e1cd1ed6928a4ea150d5d020687872894079fa0c98c3d94cef05d9d05d64736f6c634300060c0033","linkReferences":{}},"methodIdentifiers":{"acceptGov()":"7bc6729b","addPlugin(address)":"d8867fc8","approvePlugin(address)":"38c74dd9","approvedPlugins(address,address)":"956f285e","cancelGovProposal(address)":"9c35b497","decreasePosition(address,address,uint256,uint256,bool,address,uint256)":"90205d8c","decreasePositionAndSwap(address[],address,uint256,uint256,bool,address,uint256,uint256)":"5fc8500e","decreasePositionAndSwapETH(address[],address,uint256,uint256,bool,address,uint256,uint256)":"3039e37f","decreasePositionETH(address,address,uint256,uint256,bool,address,uint256)":"430ed37c","denyPlugin(address)":"cedd4375","directPoolDeposit(address,uint256)":"90b64ad3","gov()":"12d43a51","govProposals(address)":"8d0fedb0","increasePosition(address[],address,uint256,uint256,uint256,bool,uint256)":"b7ddc992","increasePositionETH(address[],address,uint256,uint256,bool,uint256)":"b32755de","pluginDecreasePosition(address,address,address,uint256,uint256,bool,address)":"2662166b","pluginIncreasePosition(address,address,address,uint256,bool)":"1f1dd176","pluginTransfer(address,address,address,uint256)":"1b827878","plugins(address)":"4b12e643","removePlugin(address)":"a4d95b64","setGov(address)":"cfad57a2","setGovWithDeadline(address,uint256)":"6bb22fd7","swap(address[],uint256,uint256,address)":"6023e966","swapETHToTokens(address[],uint256,address)":"abe68eaa","swapTokensToETH(address[],uint256,uint256,address)":"2d4ba6a7","usdg()":"f5b91b7b","vault()":"fbfa77cf","weth()":"3fc8cef3"},"id":39}