{"abi":[{"type":"function","name":"acceptGov","inputs":[],"outputs":[],"stateMutability":"nonpayable"},{"type":"function","name":"cancelGovProposal","inputs":[{"name":"_gov","type":"address","internalType":"address"}],"outputs":[],"stateMutability":"nonpayable"},{"type":"function","name":"gov","inputs":[],"outputs":[{"name":"","type":"address","internalType":"address"}],"stateMutability":"view"},{"type":"function","name":"govProposals","inputs":[{"name":"","type":"address","internalType":"address"}],"outputs":[{"name":"deadline","type":"uint256","internalType":"uint256"},{"name":"isActive","type":"bool","internalType":"bool"}],"stateMutability":"view"},{"type":"function","name":"setErrors","inputs":[{"name":"_vault","type":"address","internalType":"contract IVault"},{"name":"_errors","type":"string[]","internalType":"string[]"}],"outputs":[],"stateMutability":"nonpayable"},{"type":"function","name":"setGov","inputs":[{"name":"_gov","type":"address","internalType":"address"}],"outputs":[],"stateMutability":"nonpayable"},{"type":"function","name":"setGovWithDeadline","inputs":[{"name":"_gov","type":"address","internalType":"address"},{"name":"_deadline","type":"uint256","internalType":"uint256"}],"outputs":[],"stateMutability":"nonpayable"},{"type":"event","name":"ErrorsSet","inputs":[{"name":"vault","type":"address","indexed":true,"internalType":"address"},{"name":"count","type":"uint256","indexed":false,"internalType":"uint256"}],"anonymous":false},{"type":"event","name":"GovernanceTransferRequested","inputs":[{"name":"newGov","type":"address","indexed":true,"internalType":"address"},{"name":"deadline","type":"uint256","indexed":false,"internalType":"uint256"}],"anonymous":false},{"type":"event","name":"GovernanceTransferred","inputs":[{"name":"oldGov","type":"address","indexed":true,"internalType":"address"},{"name":"newGov","type":"address","indexed":true,"internalType":"address"}],"anonymous":false}],"bytecode":{"object":"0x608060405234801561001057600080fd5b50600080546001600160a01b0319163317905561083b806100326000396000f3fe608060405234801561001057600080fd5b506004361061006d5760003560e01c806312d43a51146100725780636216c01b146100905780636bb22fd7146100a55780637bc6729b146100b85780638d0fedb0146100c05780639c35b497146100e1578063cfad57a2146100f4575b600080fd5b61007a610107565b60405161008791906105fa565b60405180910390f35b6100a361009e366004610579565b610116565b005b6100a36100b336600461054e565b610227565b6100a36102b3565b6100d36100ce36600461052b565b610374565b60405161008792919061075f565b6100a36100ef36600461052b565b610390565b6100a361010236600461052b565b61041d565b6000546001600160a01b031681565b6000546001600160a01b031633146101495760405162461bcd60e51b8152600401610140906106e5565b60405180910390fd5b60005b818110156101de57836001600160a01b03166328e67be58285858581811061017057fe5b905060200281019061018291906107a5565b6040518463ffffffff1660e01b81526004016101a09392919061076f565b600060405180830381600087803b1580156101ba57600080fd5b505af11580156101ce573d6000803e3d6000fd5b50506001909201915061014c9050565b506040516001600160a01b038416907f8b5098852aac57cbccd695eaf58ec8a8220573ae7a843e8a861c5566f044c85c9061021a908490610756565b60405180910390a2505050565b6000546001600160a01b031633146102515760405162461bcd60e51b8152600401610140906106e5565b6001600160a01b0382166102775760405162461bcd60e51b815260040161014090610679565b6000546001600160a01b03838116911614156102a55760405162461bcd60e51b81526004016101409061060e565b6102af82826104aa565b5050565b336000908152600160205260409020805442106102e25760405162461bcd60e51b815260040161014090610643565b60018082015460ff1615151461030a5760405162461bcd60e51b815260040161014090610714565b6000805433808352600160208190526040808520858155909101805460ff1916905583546001600160a01b03191682178455516001600160a01b0390921692909183917f5f56bee8cffbe9a78652a74a60705edede02af10b0bbb888ca44b79a0d42ce8091a35050565b6001602081905260009182526040909120805491015460ff1682565b6000546001600160a01b031633146103ba5760405162461bcd60e51b8152600401610140906106e5565b6001600160a01b0381166000908152600160208190526040909120015460ff166103f65760405162461bcd60e51b8152600401610140906106ae565b6001600160a01b03166000908152600160208190526040822091825501805460ff19169055565b6000546001600160a01b031633146104475760405162461bcd60e51b8152600401610140906106e5565b6001600160a01b03811661046d5760405162461bcd60e51b815260040161014090610679565b6000546001600160a01b038281169116141561049b5760405162461bcd60e51b81526004016101409061060e565b6104a7816000196104aa565b50565b604080518082018252828152600160208083018281526001600160a01b03871660008181529284905291859020935184555192909101805460ff19169215159290921790915590517f02dd0697be46e764c3ba81094158781c31b235d03bb27a0daf1bdef0ec1084dd9061051f908490610756565b60405180910390a25050565b60006020828403121561053c578081fd5b8135610547816107f0565b9392505050565b60008060408385031215610560578081fd5b823561056b816107f0565b946020939093013593505050565b60008060006040848603121561058d578081fd5b8335610598816107f0565b925060208401356001600160401b03808211156105b3578283fd5b818601915086601f8301126105c6578283fd5b8135818111156105d4578384fd5b87602080830285010111156105e7578384fd5b6020830194508093505050509250925092565b6001600160a01b0391909116815260200190565b6020808252601b908201527a476f7665726e61626c653a2073616d6520676f7665726e616e636560281b604082015260600190565b6020808252601c908201527b11dbdd995c9b98589b194e88191958591b1a5b9948195e1c1a5c995960221b604082015260600190565b6020808252601b908201527a476f7665726e61626c653a20696e76616c6964206164647265737360281b604082015260600190565b6020808252601f908201527f476f7665726e61626c653a2070726f706f73616c206e6f742061637469766500604082015260600190565b60208082526015908201527423b7bb32b93730b136329d103337b93134b23232b760591b604082015260600190565b60208082526022908201527f476f7665726e61626c653a2070726f706f73616c206973206e6f742061637469604082015261766560f01b606082015260800190565b90815260200190565b9182521515602082015260400190565b60008482526040602083015282604083015282846060840137818301606090810191909152601f909201601f1916010192915050565b6000808335601e198436030181126107bb578283fd5b8301803591506001600160401b038211156107d4578283fd5b6020019150368190038213156107e957600080fd5b9250929050565b6001600160a01b03811681146104a757600080fdfea2646970667358221220b4cd3b0929bba5c1d69c46cb6d65ee8569c083cea0ba468a599255981bc543c564736f6c634300060c0033","linkReferences":{}},"methodIdentifiers":{"acceptGov()":"7bc6729b","cancelGovProposal(address)":"9c35b497","gov()":"12d43a51","govProposals(address)":"8d0fedb0","setErrors(address,string[])":"6216c01b","setGov(address)":"cfad57a2","setGovWithDeadline(address,uint256)":"6bb22fd7"},"id":42}