{"abi":[{"type":"function","name":"acceptGov","inputs":[],"outputs":[],"stateMutability":"nonpayable"},{"type":"function","name":"cancelGovProposal","inputs":[{"name":"_gov","type":"address","internalType":"address"}],"outputs":[],"stateMutability":"nonpayable"},{"type":"function","name":"gov","inputs":[],"outputs":[{"name":"","type":"address","internalType":"address"}],"stateMutability":"view"},{"type":"function","name":"govProposals","inputs":[{"name":"","type":"address","internalType":"address"}],"outputs":[{"name":"deadline","type":"uint256","internalType":"uint256"},{"name":"isActive","type":"bool","internalType":"bool"}],"stateMutability":"view"},{"type":"function","name":"setErrors","inputs":[{"name":"_vault","type":"address","internalType":"contract IVault"},{"name":"_errors","type":"string[]","internalType":"string[]"}],"outputs":[],"stateMutability":"nonpayable"},{"type":"function","name":"setGov","inputs":[{"name":"_gov","type":"address","internalType":"address"}],"outputs":[],"stateMutability":"nonpayable"},{"type":"function","name":"setGovWithDeadline","inputs":[{"name":"_gov","type":"address","internalType":"address"},{"name":"_deadline","type":"uint256","internalType":"uint256"}],"outputs":[],"stateMutability":"nonpayable"},{"type":"event","name":"GovernanceTransferRequested","inputs":[{"name":"newGov","type":"address","indexed":true,"internalType":"address"},{"name":"deadline","type":"uint256","indexed":false,"internalType":"uint256"}],"anonymous":false},{"type":"event","name":"GovernanceTransferred","inputs":[{"name":"oldGov","type":"address","indexed":true,"internalType":"address"},{"name":"newGov","type":"address","indexed":true,"internalType":"address"}],"anonymous":false}],"bytecode":{"object":"0x608060405234801561001057600080fd5b50600080546001600160a01b031916331790556107f8806100326000396000f3fe608060405234801561001057600080fd5b506004361061006d5760003560e01c806312d43a51146100725780636216c01b146100905780636bb22fd7146100a55780637bc6729b146100b85780638d0fedb0146100c05780639c35b497146100e1578063cfad57a2146100f4575b600080fd5b61007a610107565b60405161008791906105b7565b60405180910390f35b6100a361009e366004610536565b610116565b005b6100a36100b336600461050b565b6101e4565b6100a3610270565b6100d36100ce3660046104e8565b610331565b60405161008792919061071c565b6100a36100ef3660046104e8565b61034d565b6100a36101023660046104e8565b6103da565b6000546001600160a01b031681565b6000546001600160a01b031633146101495760405162461bcd60e51b8152600401610140906106a2565b60405180910390fd5b60005b818110156101de57836001600160a01b03166328e67be58285858581811061017057fe5b90506020028101906101829190610762565b6040518463ffffffff1660e01b81526004016101a09392919061072c565b600060405180830381600087803b1580156101ba57600080fd5b505af11580156101ce573d6000803e3d6000fd5b50506001909201915061014c9050565b50505050565b6000546001600160a01b0316331461020e5760405162461bcd60e51b8152600401610140906106a2565b6001600160a01b0382166102345760405162461bcd60e51b815260040161014090610636565b6000546001600160a01b03838116911614156102625760405162461bcd60e51b8152600401610140906105cb565b61026c8282610467565b5050565b3360009081526001602052604090208054421061029f5760405162461bcd60e51b815260040161014090610600565b60018082015460ff161515146102c75760405162461bcd60e51b8152600401610140906106d1565b6000805433808352600160208190526040808520858155909101805460ff1916905583546001600160a01b03191682178455516001600160a01b0390921692909183917f5f56bee8cffbe9a78652a74a60705edede02af10b0bbb888ca44b79a0d42ce8091a35050565b6001602081905260009182526040909120805491015460ff1682565b6000546001600160a01b031633146103775760405162461bcd60e51b8152600401610140906106a2565b6001600160a01b0381166000908152600160208190526040909120015460ff166103b35760405162461bcd60e51b81526004016101409061066b565b6001600160a01b03166000908152600160208190526040822091825501805460ff19169055565b6000546001600160a01b031633146104045760405162461bcd60e51b8152600401610140906106a2565b6001600160a01b03811661042a5760405162461bcd60e51b815260040161014090610636565b6000546001600160a01b03828116911614156104585760405162461bcd60e51b8152600401610140906105cb565b61046481600019610467565b50565b604080518082018252828152600160208083018281526001600160a01b03871660008181529284905291859020935184555192909101805460ff19169215159290921790915590517f02dd0697be46e764c3ba81094158781c31b235d03bb27a0daf1bdef0ec1084dd906104dc908490610713565b60405180910390a25050565b6000602082840312156104f9578081fd5b8135610504816107ad565b9392505050565b6000806040838503121561051d578081fd5b8235610528816107ad565b946020939093013593505050565b60008060006040848603121561054a578081fd5b8335610555816107ad565b925060208401356001600160401b0380821115610570578283fd5b818601915086601f830112610583578283fd5b813581811115610591578384fd5b87602080830285010111156105a4578384fd5b6020830194508093505050509250925092565b6001600160a01b0391909116815260200190565b6020808252601b908201527a476f7665726e61626c653a2073616d6520676f7665726e616e636560281b604082015260600190565b6020808252601c908201527b11dbdd995c9b98589b194e88191958591b1a5b9948195e1c1a5c995960221b604082015260600190565b6020808252601b908201527a476f7665726e61626c653a20696e76616c6964206164647265737360281b604082015260600190565b6020808252601f908201527f476f7665726e61626c653a2070726f706f73616c206e6f742061637469766500604082015260600190565b60208082526015908201527423b7bb32b93730b136329d103337b93134b23232b760591b604082015260600190565b60208082526022908201527f476f7665726e61626c653a2070726f706f73616c206973206e6f742061637469604082015261766560f01b606082015260800190565b90815260200190565b9182521515602082015260400190565b60008482526040602083015282604083015282846060840137818301606090810191909152601f909201601f1916010192915050565b6000808335601e19843603018112610778578283fd5b8301803591506001600160401b03821115610791578283fd5b6020019150368190038213156107a657600080fd5b9250929050565b6001600160a01b038116811461046457600080fdfea26469706673582212201a47cf601bdd8849ce94092e5d4561cd7a4aeac5b64797ec250049c70586569764736f6c634300060c0033","linkReferences":{}},"methodIdentifiers":{"acceptGov()":"7bc6729b","cancelGovProposal(address)":"9c35b497","gov()":"12d43a51","govProposals(address)":"8d0fedb0","setErrors(address,string[])":"6216c01b","setGov(address)":"cfad57a2","setGovWithDeadline(address,uint256)":"6bb22fd7"},"id":42}