{"abi":[{"type":"function","name":"getReserves","inputs":[],"outputs":[{"name":"_reserve0","type":"uint112","internalType":"uint112"},{"name":"_reserve1","type":"uint112","internalType":"uint112"},{"name":"_blockTimestampLast","type":"uint32","internalType":"uint32"}],"stateMutability":"view"},{"type":"function","name":"setReserves","inputs":[{"name":"balance0","type":"uint256","internalType":"uint256"},{"name":"balance1","type":"uint256","internalType":"uint256"}],"outputs":[],"stateMutability":"nonpayable"}],"bytecode":{"object":"0x608060405234801561001057600080fd5b5061014b806100206000396000f3fe608060405234801561001057600080fd5b50600436106100365760003560e01c80630902f1ac1461003b5780638392b8c014610073575b600080fd5b610043610098565b604080516001600160701b03948516815292909316602083015263ffffffff168183015290519081900360600190f35b6100966004803603604081101561008957600080fd5b50803590602001356100c2565b005b6000546001600160701b0380821692600160701b830490911691600160e01b900463ffffffff1690565b600080546001600160701b0319166001600160701b0393841617600160701b600160e01b031916600160701b9290931691909102919091176001600160e01b0316600160e01b4263ffffffff160217905556fea26469706673582212204308fc96f865435325d96d4df914fd86fc5d880fa55d8e9d93da3095cfa38b6d64736f6c634300060c0033","linkReferences":{}},"methodIdentifiers":{"getReserves()":"0902f1ac","setReserves(uint256,uint256)":"8392b8c0"},"id":33}