{"abi":[{"type":"function","name":"BASIS_POINTS_DIVISOR","inputs":[],"outputs":[{"name":"","type":"uint256","internalType":"uint256"}],"stateMutability":"view"},{"type":"function","name":"FUNDING_RATE_PRECISION","inputs":[],"outputs":[{"name":"","type":"uint256","internalType":"uint256"}],"stateMutability":"view"},{"type":"function","name":"MAX_FEE_BASIS_POINTS","inputs":[],"outputs":[{"name":"","type":"uint256","internalType":"uint256"}],"stateMutability":"view"},{"type":"function","name":"MAX_FUNDING_RATE_FACTOR","inputs":[],"outputs":[{"name":"","type":"uint256","internalType":"uint256"}],"stateMutability":"view"},{"type":"function","name":"MAX_LIQUIDATION_FEE_USD","inputs":[],"outputs":[{"name":"","type":"uint256","internalType":"uint256"}],"stateMutability":"view"},{"type":"function","name":"MIN_FUNDING_RATE_INTERVAL","inputs":[],"outputs":[{"name":"","type":"uint256","internalType":"uint256"}],"stateMutability":"view"},{"type":"function","name":"MIN_LEVERAGE","inputs":[],"outputs":[{"name":"","type":"uint256","internalType":"uint256"}],"stateMutability":"view"},{"type":"function","name":"PRICE_PRECISION","inputs":[],"outputs":[{"name":"","type":"uint256","internalType":"uint256"}],"stateMutability":"view"},{"type":"function","name":"USDG_DECIMALS","inputs":[],"outputs":[{"name":"","type":"uint256","internalType":"uint256"}],"stateMutability":"view"},{"type":"function","name":"acceptGov","inputs":[],"outputs":[],"stateMutability":"nonpayable"},{"type":"function","name":"addRouter","inputs":[{"name":"_router","type":"address","internalType":"address"}],"outputs":[],"stateMutability":"nonpayable"},{"type":"function","name":"adjustForDecimals","inputs":[{"name":"_amount","type":"uint256","internalType":"uint256"},{"name":"_tokenDiv","type":"address","internalType":"address"},{"name":"_tokenMul","type":"address","internalType":"address"}],"outputs":[{"name":"","type":"uint256","internalType":"uint256"}],"stateMutability":"view"},{"type":"function","name":"allWhitelistedTokens","inputs":[{"name":"","type":"uint256","internalType":"uint256"}],"outputs":[{"name":"","type":"address","internalType":"address"}],"stateMutability":"view"},{"type":"function","name":"allWhitelistedTokensLength","inputs":[],"outputs":[{"name":"","type":"uint256","internalType":"uint256"}],"stateMutability":"view"},{"type":"function","name":"approvedRouters","inputs":[{"name":"","type":"address","internalType":"address"},{"name":"","type":"address","internalType":"address"}],"outputs":[{"name":"","type":"bool","internalType":"bool"}],"stateMutability":"view"},{"type":"function","name":"bufferAmounts","inputs":[{"name":"","type":"address","internalType":"address"}],"outputs":[{"name":"","type":"uint256","internalType":"uint256"}],"stateMutability":"view"},{"type":"function","name":"buyUSDG","inputs":[{"name":"_token","type":"address","internalType":"address"},{"name":"_receiver","type":"address","internalType":"address"}],"outputs":[{"name":"","type":"uint256","internalType":"uint256"}],"stateMutability":"nonpayable"},{"type":"function","name":"cancelGovProposal","inputs":[{"name":"_gov","type":"address","internalType":"address"}],"outputs":[],"stateMutability":"nonpayable"},{"type":"function","name":"clearTokenConfig","inputs":[{"name":"_token","type":"address","internalType":"address"}],"outputs":[],"stateMutability":"nonpayable"},{"type":"function","name":"cumulativeFundingRates","inputs":[{"name":"","type":"address","internalType":"address"}],"outputs":[{"name":"","type":"uint256","internalType":"uint256"}],"stateMutability":"view"},{"type":"function","name":"decreasePosition","inputs":[{"name":"_account","type":"address","internalType":"address"},{"name":"_collateralToken","type":"address","internalType":"address"},{"name":"_indexToken","type":"address","internalType":"address"},{"name":"_collateralDelta","type":"uint256","internalType":"uint256"},{"name":"_sizeDelta","type":"uint256","internalType":"uint256"},{"name":"_isLong","type":"bool","internalType":"bool"},{"name":"_receiver","type":"address","internalType":"address"}],"outputs":[{"name":"","type":"uint256","internalType":"uint256"}],"stateMutability":"nonpayable"},{"type":"function","name":"directPoolDeposit","inputs":[{"name":"_token","type":"address","internalType":"address"}],"outputs":[],"stateMutability":"nonpayable"},{"type":"function","name":"errorController","inputs":[],"outputs":[{"name":"","type":"address","internalType":"address"}],"stateMutability":"view"},{"type":"function","name":"errors","inputs":[{"name":"","type":"uint256","internalType":"uint256"}],"outputs":[{"name":"","type":"string","internalType":"string"}],"stateMutability":"view"},{"type":"function","name":"feeReserves","inputs":[{"name":"","type":"address","internalType":"address"}],"outputs":[{"name":"","type":"uint256","internalType":"uint256"}],"stateMutability":"view"},{"type":"function","name":"fundingInterval","inputs":[],"outputs":[{"name":"","type":"uint256","internalType":"uint256"}],"stateMutability":"view"},{"type":"function","name":"fundingRateFactor","inputs":[],"outputs":[{"name":"","type":"uint256","internalType":"uint256"}],"stateMutability":"view"},{"type":"function","name":"getDelta","inputs":[{"name":"_indexToken","type":"address","internalType":"address"},{"name":"_size","type":"uint256","internalType":"uint256"},{"name":"_averagePrice","type":"uint256","internalType":"uint256"},{"name":"_isLong","type":"bool","internalType":"bool"},{"name":"_lastIncreasedTime","type":"uint256","internalType":"uint256"}],"outputs":[{"name":"","type":"bool","internalType":"bool"},{"name":"","type":"uint256","internalType":"uint256"}],"stateMutability":"view"},{"type":"function","name":"getEntryFundingRate","inputs":[{"name":"_collateralToken","type":"address","internalType":"address"},{"name":"_indexToken","type":"address","internalType":"address"},{"name":"_isLong","type":"bool","internalType":"bool"}],"outputs":[{"name":"","type":"uint256","internalType":"uint256"}],"stateMutability":"view"},{"type":"function","name":"getFeeBasisPoints","inputs":[{"name":"_token","type":"address","internalType":"address"},{"name":"_usdgDelta","type":"uint256","internalType":"uint256"},{"name":"_feeBasisPoints","type":"uint256","internalType":"uint256"},{"name":"_taxBasisPoints","type":"uint256","internalType":"uint256"},{"name":"_increment","type":"bool","internalType":"bool"}],"outputs":[{"name":"","type":"uint256","internalType":"uint256"}],"stateMutability":"view"},{"type":"function","name":"getFundingFee","inputs":[{"name":"_account","type":"address","internalType":"address"},{"name":"_collateralToken","type":"address","internalType":"address"},{"name":"_indexToken","type":"address","internalType":"address"},{"name":"_isLong","type":"bool","internalType":"bool"},{"name":"_size","type":"uint256","internalType":"uint256"},{"name":"_entryFundingRate","type":"uint256","internalType":"uint256"}],"outputs":[{"name":"","type":"uint256","internalType":"uint256"}],"stateMutability":"view"},{"type":"function","name":"getGlobalShortDelta","inputs":[{"name":"_token","type":"address","internalType":"address"}],"outputs":[{"name":"","type":"bool","internalType":"bool"},{"name":"","type":"uint256","internalType":"uint256"}],"stateMutability":"view"},{"type":"function","name":"getMaxPrice","inputs":[{"name":"_token","type":"address","internalType":"address"}],"outputs":[{"name":"","type":"uint256","internalType":"uint256"}],"stateMutability":"view"},{"type":"function","name":"getMinPrice","inputs":[{"name":"_token","type":"address","internalType":"address"}],"outputs":[{"name":"","type":"uint256","internalType":"uint256"}],"stateMutability":"view"},{"type":"function","name":"getNextAveragePrice","inputs":[{"name":"_indexToken","type":"address","internalType":"address"},{"name":"_size","type":"uint256","internalType":"uint256"},{"name":"_averagePrice","type":"uint256","internalType":"uint256"},{"name":"_isLong","type":"bool","internalType":"bool"},{"name":"_nextPrice","type":"uint256","internalType":"uint256"},{"name":"_sizeDelta","type":"uint256","internalType":"uint256"},{"name":"_lastIncreasedTime","type":"uint256","internalType":"uint256"}],"outputs":[{"name":"","type":"uint256","internalType":"uint256"}],"stateMutability":"view"},{"type":"function","name":"getNextFundingRate","inputs":[{"name":"_token","type":"address","internalType":"address"}],"outputs":[{"name":"","type":"uint256","internalType":"uint256"}],"stateMutability":"view"},{"type":"function","name":"getNextGlobalShortAveragePrice","inputs":[{"name":"_indexToken","type":"address","internalType":"address"},{"name":"_nextPrice","type":"uint256","internalType":"uint256"},{"name":"_sizeDelta","type":"uint256","internalType":"uint256"}],"outputs":[{"name":"","type":"uint256","internalType":"uint256"}],"stateMutability":"view"},{"type":"function","name":"getPosition","inputs":[{"name":"_account","type":"address","internalType":"address"},{"name":"_collateralToken","type":"address","internalType":"address"},{"name":"_indexToken","type":"address","internalType":"address"},{"name":"_isLong","type":"bool","internalType":"bool"}],"outputs":[{"name":"","type":"uint256","internalType":"uint256"},{"name":"","type":"uint256","internalType":"uint256"},{"name":"","type":"uint256","internalType":"uint256"},{"name":"","type":"uint256","internalType":"uint256"},{"name":"","type":"uint256","internalType":"uint256"},{"name":"","type":"uint256","internalType":"uint256"},{"name":"","type":"bool","internalType":"bool"},{"name":"","type":"uint256","internalType":"uint256"}],"stateMutability":"view"},{"type":"function","name":"getPositionDelta","inputs":[{"name":"_account","type":"address","internalType":"address"},{"name":"_collateralToken","type":"address","internalType":"address"},{"name":"_indexToken","type":"address","internalType":"address"},{"name":"_isLong","type":"bool","internalType":"bool"}],"outputs":[{"name":"","type":"bool","internalType":"bool"},{"name":"","type":"uint256","internalType":"uint256"}],"stateMutability":"view"},{"type":"function","name":"getPositionFee","inputs":[{"name":"_account","type":"address","internalType":"address"},{"name":"_collateralToken","type":"address","internalType":"address"},{"name":"_indexToken","type":"address","internalType":"address"},{"name":"_isLong","type":"bool","internalType":"bool"},{"name":"_sizeDelta","type":"uint256","internalType":"uint256"}],"outputs":[{"name":"","type":"uint256","internalType":"uint256"}],"stateMutability":"view"},{"type":"function","name":"getPositionKey","inputs":[{"name":"_account","type":"address","internalType":"address"},{"name":"_collateralToken","type":"address","internalType":"address"},{"name":"_indexToken","type":"address","internalType":"address"},{"name":"_isLong","type":"bool","internalType":"bool"}],"outputs":[{"name":"","type":"bytes32","internalType":"bytes32"}],"stateMutability":"pure"},{"type":"function","name":"getPositionLeverage","inputs":[{"name":"_account","type":"address","internalType":"address"},{"name":"_collateralToken","type":"address","internalType":"address"},{"name":"_indexToken","type":"address","internalType":"address"},{"name":"_isLong","type":"bool","internalType":"bool"}],"outputs":[{"name":"","type":"uint256","internalType":"uint256"}],"stateMutability":"view"},{"type":"function","name":"getRedemptionAmount","inputs":[{"name":"_token","type":"address","internalType":"address"},{"name":"_usdgAmount","type":"uint256","internalType":"uint256"}],"outputs":[{"name":"","type":"uint256","internalType":"uint256"}],"stateMutability":"view"},{"type":"function","name":"getRedemptionCollateral","inputs":[{"name":"_token","type":"address","internalType":"address"}],"outputs":[{"name":"","type":"uint256","internalType":"uint256"}],"stateMutability":"view"},{"type":"function","name":"getRedemptionCollateralUsd","inputs":[{"name":"_token","type":"address","internalType":"address"}],"outputs":[{"name":"","type":"uint256","internalType":"uint256"}],"stateMutability":"view"},{"type":"function","name":"getTargetUsdgAmount","inputs":[{"name":"_token","type":"address","internalType":"address"}],"outputs":[{"name":"","type":"uint256","internalType":"uint256"}],"stateMutability":"view"},{"type":"function","name":"getUtilisation","inputs":[{"name":"_token","type":"address","internalType":"address"}],"outputs":[{"name":"","type":"uint256","internalType":"uint256"}],"stateMutability":"view"},{"type":"function","name":"globalShortAveragePrices","inputs":[{"name":"","type":"address","internalType":"address"}],"outputs":[{"name":"","type":"uint256","internalType":"uint256"}],"stateMutability":"view"},{"type":"function","name":"globalShortSizes","inputs":[{"name":"","type":"address","internalType":"address"}],"outputs":[{"name":"","type":"uint256","internalType":"uint256"}],"stateMutability":"view"},{"type":"function","name":"gov","inputs":[],"outputs":[{"name":"","type":"address","internalType":"address"}],"stateMutability":"view"},{"type":"function","name":"govProposals","inputs":[{"name":"","type":"address","internalType":"address"}],"outputs":[{"name":"deadline","type":"uint256","internalType":"uint256"},{"name":"isActive","type":"bool","internalType":"bool"}],"stateMutability":"view"},{"type":"function","name":"guaranteedUsd","inputs":[{"name":"","type":"address","internalType":"address"}],"outputs":[{"name":"","type":"uint256","internalType":"uint256"}],"stateMutability":"view"},{"type":"function","name":"hasDynamicFees","inputs":[],"outputs":[{"name":"","type":"bool","internalType":"bool"}],"stateMutability":"view"},{"type":"function","name":"inManagerMode","inputs":[],"outputs":[{"name":"","type":"bool","internalType":"bool"}],"stateMutability":"view"},{"type":"function","name":"inPrivateLiquidationMode","inputs":[],"outputs":[{"name":"","type":"bool","internalType":"bool"}],"stateMutability":"view"},{"type":"function","name":"includeAmmPrice","inputs":[],"outputs":[{"name":"","type":"bool","internalType":"bool"}],"stateMutability":"view"},{"type":"function","name":"increaseGlobalShortSize","inputs":[{"name":"token","type":"address","internalType":"address"},{"name":"amount","type":"uint256","internalType":"uint256"}],"outputs":[],"stateMutability":"nonpayable"},{"type":"function","name":"increasePosition","inputs":[{"name":"_account","type":"address","internalType":"address"},{"name":"_collateralToken","type":"address","internalType":"address"},{"name":"_indexToken","type":"address","internalType":"address"},{"name":"_sizeDelta","type":"uint256","internalType":"uint256"},{"name":"_isLong","type":"bool","internalType":"bool"}],"outputs":[],"stateMutability":"nonpayable"},{"type":"function","name":"initialize2","inputs":[{"name":"_router","type":"address","internalType":"address"},{"name":"_usdg","type":"address","internalType":"address"},{"name":"_priceFeed","type":"address","internalType":"address"},{"name":"_liquidationFeeUsd","type":"uint256","internalType":"uint256"},{"name":"_fundingRateFactor","type":"uint256","internalType":"uint256"},{"name":"_stableFundingRateFactor","type":"uint256","internalType":"uint256"}],"outputs":[],"stateMutability":"nonpayable"},{"type":"function","name":"isInitialized","inputs":[],"outputs":[{"name":"","type":"bool","internalType":"bool"}],"stateMutability":"view"},{"type":"function","name":"isLeverageEnabled","inputs":[],"outputs":[{"name":"","type":"bool","internalType":"bool"}],"stateMutability":"view"},{"type":"function","name":"isLiquidator","inputs":[{"name":"","type":"address","internalType":"address"}],"outputs":[{"name":"","type":"bool","internalType":"bool"}],"stateMutability":"view"},{"type":"function","name":"isManager","inputs":[{"name":"","type":"address","internalType":"address"}],"outputs":[{"name":"","type":"bool","internalType":"bool"}],"stateMutability":"view"},{"type":"function","name":"isSwapEnabled","inputs":[],"outputs":[{"name":"","type":"bool","internalType":"bool"}],"stateMutability":"view"},{"type":"function","name":"lastFundingTimes","inputs":[{"name":"","type":"address","internalType":"address"}],"outputs":[{"name":"","type":"uint256","internalType":"uint256"}],"stateMutability":"view"},{"type":"function","name":"liquidatePosition","inputs":[{"name":"_account","type":"address","internalType":"address"},{"name":"_collateralToken","type":"address","internalType":"address"},{"name":"_indexToken","type":"address","internalType":"address"},{"name":"_isLong","type":"bool","internalType":"bool"},{"name":"_feeReceiver","type":"address","internalType":"address"}],"outputs":[],"stateMutability":"nonpayable"},{"type":"function","name":"liquidationFeeUsd","inputs":[],"outputs":[{"name":"","type":"uint256","internalType":"uint256"}],"stateMutability":"view"},{"type":"function","name":"marginFeeBasisPoints","inputs":[],"outputs":[{"name":"","type":"uint256","internalType":"uint256"}],"stateMutability":"view"},{"type":"function","name":"maxGasPrice","inputs":[],"outputs":[{"name":"","type":"uint256","internalType":"uint256"}],"stateMutability":"view"},{"type":"function","name":"maxGlobalShortSizes","inputs":[{"name":"","type":"address","internalType":"address"}],"outputs":[{"name":"","type":"uint256","internalType":"uint256"}],"stateMutability":"view"},{"type":"function","name":"maxLeverage","inputs":[],"outputs":[{"name":"","type":"uint256","internalType":"uint256"}],"stateMutability":"view"},{"type":"function","name":"maxUsdgAmounts","inputs":[{"name":"","type":"address","internalType":"address"}],"outputs":[{"name":"","type":"uint256","internalType":"uint256"}],"stateMutability":"view"},{"type":"function","name":"minProfitBasisPoints","inputs":[{"name":"","type":"address","internalType":"address"}],"outputs":[{"name":"","type":"uint256","internalType":"uint256"}],"stateMutability":"view"},{"type":"function","name":"minProfitTime","inputs":[],"outputs":[{"name":"","type":"uint256","internalType":"uint256"}],"stateMutability":"view"},{"type":"function","name":"mintBurnFeeBasisPoints","inputs":[],"outputs":[{"name":"","type":"uint256","internalType":"uint256"}],"stateMutability":"view"},{"type":"function","name":"poolAmounts","inputs":[{"name":"","type":"address","internalType":"address"}],"outputs":[{"name":"","type":"uint256","internalType":"uint256"}],"stateMutability":"view"},{"type":"function","name":"positions","inputs":[{"name":"","type":"bytes32","internalType":"bytes32"}],"outputs":[{"name":"size","type":"uint256","internalType":"uint256"},{"name":"collateral","type":"uint256","internalType":"uint256"},{"name":"averagePrice","type":"uint256","internalType":"uint256"},{"name":"entryFundingRate","type":"uint256","internalType":"uint256"},{"name":"reserveAmount","type":"uint256","internalType":"uint256"},{"name":"realisedPnl","type":"int256","internalType":"int256"},{"name":"lastIncreasedTime","type":"uint256","internalType":"uint256"}],"stateMutability":"view"},{"type":"function","name":"priceFeed","inputs":[],"outputs":[{"name":"","type":"address","internalType":"address"}],"stateMutability":"view"},{"type":"function","name":"removeRouter","inputs":[{"name":"_router","type":"address","internalType":"address"}],"outputs":[],"stateMutability":"nonpayable"},{"type":"function","name":"reservedAmounts","inputs":[{"name":"","type":"address","internalType":"address"}],"outputs":[{"name":"","type":"uint256","internalType":"uint256"}],"stateMutability":"view"},{"type":"function","name":"router","inputs":[],"outputs":[{"name":"","type":"address","internalType":"address"}],"stateMutability":"view"},{"type":"function","name":"sellUSDG","inputs":[{"name":"_token","type":"address","internalType":"address"},{"name":"_receiver","type":"address","internalType":"address"}],"outputs":[{"name":"","type":"uint256","internalType":"uint256"}],"stateMutability":"nonpayable"},{"type":"function","name":"setBufferAmount","inputs":[{"name":"_token","type":"address","internalType":"address"},{"name":"_amount","type":"uint256","internalType":"uint256"}],"outputs":[],"stateMutability":"nonpayable"},{"type":"function","name":"setError","inputs":[{"name":"_errorCode","type":"uint256","internalType":"uint256"},{"name":"_error","type":"string","internalType":"string"}],"outputs":[],"stateMutability":"nonpayable"},{"type":"function","name":"setErrorController","inputs":[{"name":"_errorController","type":"address","internalType":"address"}],"outputs":[],"stateMutability":"nonpayable"},{"type":"function","name":"setFees","inputs":[{"name":"_taxBasisPoints","type":"uint256","internalType":"uint256"},{"name":"_stableTaxBasisPoints","type":"uint256","internalType":"uint256"},{"name":"_mintBurnFeeBasisPoints","type":"uint256","internalType":"uint256"},{"name":"_swapFeeBasisPoints","type":"uint256","internalType":"uint256"},{"name":"_stableSwapFeeBasisPoints","type":"uint256","internalType":"uint256"},{"name":"_marginFeeBasisPoints","type":"uint256","internalType":"uint256"},{"name":"_liquidationFeeUsd","type":"uint256","internalType":"uint256"},{"name":"_minProfitTime","type":"uint256","internalType":"uint256"},{"name":"_hasDynamicFees","type":"bool","internalType":"bool"}],"outputs":[],"stateMutability":"nonpayable"},{"type":"function","name":"setFundingRate","inputs":[{"name":"_fundingInterval","type":"uint256","internalType":"uint256"},{"name":"_fundingRateFactor","type":"uint256","internalType":"uint256"},{"name":"_stableFundingRateFactor","type":"uint256","internalType":"uint256"}],"outputs":[],"stateMutability":"nonpayable"},{"type":"function","name":"setGov","inputs":[{"name":"_gov","type":"address","internalType":"address"}],"outputs":[],"stateMutability":"nonpayable"},{"type":"function","name":"setGovWithDeadline","inputs":[{"name":"_gov","type":"address","internalType":"address"},{"name":"_deadline","type":"uint256","internalType":"uint256"}],"outputs":[],"stateMutability":"nonpayable"},{"type":"function","name":"setInManagerMode","inputs":[{"name":"_inManagerMode","type":"bool","internalType":"bool"}],"outputs":[],"stateMutability":"nonpayable"},{"type":"function","name":"setInPrivateLiquidationMode","inputs":[{"name":"_inPrivateLiquidationMode","type":"bool","internalType":"bool"}],"outputs":[],"stateMutability":"nonpayable"},{"type":"function","name":"setIsLeverageEnabled","inputs":[{"name":"_isLeverageEnabled","type":"bool","internalType":"bool"}],"outputs":[],"stateMutability":"nonpayable"},{"type":"function","name":"setIsSwapEnabled","inputs":[{"name":"_isSwapEnabled","type":"bool","internalType":"bool"}],"outputs":[],"stateMutability":"nonpayable"},{"type":"function","name":"setLiquidator","inputs":[{"name":"_liquidator","type":"address","internalType":"address"},{"name":"_isActive","type":"bool","internalType":"bool"}],"outputs":[],"stateMutability":"nonpayable"},{"type":"function","name":"setManager","inputs":[{"name":"_manager","type":"address","internalType":"address"},{"name":"_isManager","type":"bool","internalType":"bool"}],"outputs":[],"stateMutability":"nonpayable"},{"type":"function","name":"setMaxGasPrice","inputs":[{"name":"_maxGasPrice","type":"uint256","internalType":"uint256"}],"outputs":[],"stateMutability":"nonpayable"},{"type":"function","name":"setMaxGlobalShortSize","inputs":[{"name":"_token","type":"address","internalType":"address"},{"name":"_amount","type":"uint256","internalType":"uint256"}],"outputs":[],"stateMutability":"nonpayable"},{"type":"function","name":"setMaxLeverage","inputs":[{"name":"_maxLeverage","type":"uint256","internalType":"uint256"}],"outputs":[],"stateMutability":"nonpayable"},{"type":"function","name":"setPriceFeed","inputs":[{"name":"_priceFeed","type":"address","internalType":"address"}],"outputs":[],"stateMutability":"nonpayable"},{"type":"function","name":"setTokenConfig","inputs":[{"name":"_token","type":"address","internalType":"address"},{"name":"_tokenDecimals","type":"uint256","internalType":"uint256"},{"name":"_tokenWeight","type":"uint256","internalType":"uint256"},{"name":"_minProfitBps","type":"uint256","internalType":"uint256"},{"name":"_maxUsdgAmount","type":"uint256","internalType":"uint256"},{"name":"_isStable","type":"bool","internalType":"bool"},{"name":"_isShortable","type":"bool","internalType":"bool"}],"outputs":[],"stateMutability":"nonpayable"},{"type":"function","name":"setUsdgAmount","inputs":[{"name":"_token","type":"address","internalType":"address"},{"name":"_amount","type":"uint256","internalType":"uint256"}],"outputs":[],"stateMutability":"nonpayable"},{"type":"function","name":"setVaultUtils","inputs":[{"name":"_vaultUtils","type":"address","internalType":"contract IVaultUtils"}],"outputs":[],"stateMutability":"nonpayable"},{"type":"function","name":"shortableTokens","inputs":[{"name":"","type":"address","internalType":"address"}],"outputs":[{"name":"","type":"bool","internalType":"bool"}],"stateMutability":"view"},{"type":"function","name":"stableFundingRateFactor","inputs":[],"outputs":[{"name":"","type":"uint256","internalType":"uint256"}],"stateMutability":"view"},{"type":"function","name":"stableSwapFeeBasisPoints","inputs":[],"outputs":[{"name":"","type":"uint256","internalType":"uint256"}],"stateMutability":"view"},{"type":"function","name":"stableTaxBasisPoints","inputs":[],"outputs":[{"name":"","type":"uint256","internalType":"uint256"}],"stateMutability":"view"},{"type":"function","name":"stableTokens","inputs":[{"name":"","type":"address","internalType":"address"}],"outputs":[{"name":"","type":"bool","internalType":"bool"}],"stateMutability":"view"},{"type":"function","name":"swap","inputs":[{"name":"_tokenIn","type":"address","internalType":"address"},{"name":"_tokenOut","type":"address","internalType":"address"},{"name":"_receiver","type":"address","internalType":"address"}],"outputs":[{"name":"","type":"uint256","internalType":"uint256"}],"stateMutability":"nonpayable"},{"type":"function","name":"swapFeeBasisPoints","inputs":[],"outputs":[{"name":"","type":"uint256","internalType":"uint256"}],"stateMutability":"view"},{"type":"function","name":"taxBasisPoints","inputs":[],"outputs":[{"name":"","type":"uint256","internalType":"uint256"}],"stateMutability":"view"},{"type":"function","name":"tokenBalances","inputs":[{"name":"","type":"address","internalType":"address"}],"outputs":[{"name":"","type":"uint256","internalType":"uint256"}],"stateMutability":"view"},{"type":"function","name":"tokenDecimals","inputs":[{"name":"","type":"address","internalType":"address"}],"outputs":[{"name":"","type":"uint256","internalType":"uint256"}],"stateMutability":"view"},{"type":"function","name":"tokenToUsdMin","inputs":[{"name":"_token","type":"address","internalType":"address"},{"name":"_tokenAmount","type":"uint256","internalType":"uint256"}],"outputs":[{"name":"","type":"uint256","internalType":"uint256"}],"stateMutability":"view"},{"type":"function","name":"tokenWeights","inputs":[{"name":"","type":"address","internalType":"address"}],"outputs":[{"name":"","type":"uint256","internalType":"uint256"}],"stateMutability":"view"},{"type":"function","name":"totalTokenWeights","inputs":[],"outputs":[{"name":"","type":"uint256","internalType":"uint256"}],"stateMutability":"view"},{"type":"function","name":"updateCumulativeFundingRate","inputs":[{"name":"_collateralToken","type":"address","internalType":"address"},{"name":"_indexToken","type":"address","internalType":"address"}],"outputs":[],"stateMutability":"nonpayable"},{"type":"function","name":"upgradeVault","inputs":[{"name":"_newVault","type":"address","internalType":"address"},{"name":"_token","type":"address","internalType":"address"},{"name":"_amount","type":"uint256","internalType":"uint256"}],"outputs":[],"stateMutability":"nonpayable"},{"type":"function","name":"usdToToken","inputs":[{"name":"_token","type":"address","internalType":"address"},{"name":"_usdAmount","type":"uint256","internalType":"uint256"},{"name":"_price","type":"uint256","internalType":"uint256"}],"outputs":[{"name":"","type":"uint256","internalType":"uint256"}],"stateMutability":"view"},{"type":"function","name":"usdToTokenMax","inputs":[{"name":"_token","type":"address","internalType":"address"},{"name":"_usdAmount","type":"uint256","internalType":"uint256"}],"outputs":[{"name":"","type":"uint256","internalType":"uint256"}],"stateMutability":"view"},{"type":"function","name":"usdToTokenMin","inputs":[{"name":"_token","type":"address","internalType":"address"},{"name":"_usdAmount","type":"uint256","internalType":"uint256"}],"outputs":[{"name":"","type":"uint256","internalType":"uint256"}],"stateMutability":"view"},{"type":"function","name":"usdg","inputs":[],"outputs":[{"name":"","type":"address","internalType":"address"}],"stateMutability":"view"},{"type":"function","name":"usdgAmounts","inputs":[{"name":"","type":"address","internalType":"address"}],"outputs":[{"name":"","type":"uint256","internalType":"uint256"}],"stateMutability":"view"},{"type":"function","name":"useSwapPricing","inputs":[],"outputs":[{"name":"","type":"bool","internalType":"bool"}],"stateMutability":"view"},{"type":"function","name":"validateLiquidation","inputs":[{"name":"_account","type":"address","internalType":"address"},{"name":"_collateralToken","type":"address","internalType":"address"},{"name":"_indexToken","type":"address","internalType":"address"},{"name":"_isLong","type":"bool","internalType":"bool"},{"name":"_raise","type":"bool","internalType":"bool"}],"outputs":[{"name":"","type":"uint256","internalType":"uint256"},{"name":"","type":"uint256","internalType":"uint256"}],"stateMutability":"view"},{"type":"function","name":"vaultUtils","inputs":[],"outputs":[{"name":"","type":"address","internalType":"contract IVaultUtils"}],"stateMutability":"view"},{"type":"function","name":"whitelistedTokenCount","inputs":[],"outputs":[{"name":"","type":"uint256","internalType":"uint256"}],"stateMutability":"view"},{"type":"function","name":"whitelistedTokens","inputs":[{"name":"","type":"address","internalType":"address"}],"outputs":[{"name":"","type":"bool","internalType":"bool"}],"stateMutability":"view"},{"type":"function","name":"withdrawFees","inputs":[{"name":"_token","type":"address","internalType":"address"},{"name":"_receiver","type":"address","internalType":"address"}],"outputs":[{"name":"","type":"uint256","internalType":"uint256"}],"stateMutability":"nonpayable"},{"type":"event","name":"BufferAmountSet","inputs":[{"name":"token","type":"address","indexed":true,"internalType":"address"},{"name":"amount","type":"uint256","indexed":false,"internalType":"uint256"}],"anonymous":false},{"type":"event","name":"BuyUSDG","inputs":[{"name":"account","type":"address","indexed":false,"internalType":"address"},{"name":"token","type":"address","indexed":false,"internalType":"address"},{"name":"tokenAmount","type":"uint256","indexed":false,"internalType":"uint256"},{"name":"usdgAmount","type":"uint256","indexed":false,"internalType":"uint256"},{"name":"feeBasisPoints","type":"uint256","indexed":false,"internalType":"uint256"}],"anonymous":false},{"type":"event","name":"ClosePosition","inputs":[{"name":"key","type":"bytes32","indexed":false,"internalType":"bytes32"},{"name":"size","type":"uint256","indexed":false,"internalType":"uint256"},{"name":"collateral","type":"uint256","indexed":false,"internalType":"uint256"},{"name":"averagePrice","type":"uint256","indexed":false,"internalType":"uint256"},{"name":"entryFundingRate","type":"uint256","indexed":false,"internalType":"uint256"},{"name":"reserveAmount","type":"uint256","indexed":false,"internalType":"uint256"},{"name":"realisedPnl","type":"int256","indexed":false,"internalType":"int256"}],"anonymous":false},{"type":"event","name":"CollectMarginFees","inputs":[{"name":"token","type":"address","indexed":false,"internalType":"address"},{"name":"feeUsd","type":"uint256","indexed":false,"internalType":"uint256"},{"name":"feeTokens","type":"uint256","indexed":false,"internalType":"uint256"}],"anonymous":false},{"type":"event","name":"CollectSwapFees","inputs":[{"name":"token","type":"address","indexed":false,"internalType":"address"},{"name":"feeUsd","type":"uint256","indexed":false,"internalType":"uint256"},{"name":"feeTokens","type":"uint256","indexed":false,"internalType":"uint256"}],"anonymous":false},{"type":"event","name":"DecreaseGuaranteedUsd","inputs":[{"name":"token","type":"address","indexed":false,"internalType":"address"},{"name":"amount","type":"uint256","indexed":false,"internalType":"uint256"}],"anonymous":false},{"type":"event","name":"DecreasePoolAmount","inputs":[{"name":"token","type":"address","indexed":false,"internalType":"address"},{"name":"amount","type":"uint256","indexed":false,"internalType":"uint256"}],"anonymous":false},{"type":"event","name":"DecreasePosition","inputs":[{"name":"key","type":"bytes32","indexed":false,"internalType":"bytes32"},{"name":"account","type":"address","indexed":false,"internalType":"address"},{"name":"collateralToken","type":"address","indexed":false,"internalType":"address"},{"name":"indexToken","type":"address","indexed":false,"internalType":"address"},{"name":"collateralDelta","type":"uint256","indexed":false,"internalType":"uint256"},{"name":"sizeDelta","type":"uint256","indexed":false,"internalType":"uint256"},{"name":"isLong","type":"bool","indexed":false,"internalType":"bool"},{"name":"price","type":"uint256","indexed":false,"internalType":"uint256"},{"name":"fee","type":"uint256","indexed":false,"internalType":"uint256"}],"anonymous":false},{"type":"event","name":"DecreaseReservedAmount","inputs":[{"name":"token","type":"address","indexed":false,"internalType":"address"},{"name":"amount","type":"uint256","indexed":false,"internalType":"uint256"}],"anonymous":false},{"type":"event","name":"DecreaseUsdgAmount","inputs":[{"name":"token","type":"address","indexed":false,"internalType":"address"},{"name":"amount","type":"uint256","indexed":false,"internalType":"uint256"}],"anonymous":false},{"type":"event","name":"DirectPoolDeposit","inputs":[{"name":"token","type":"address","indexed":false,"internalType":"address"},{"name":"amount","type":"uint256","indexed":false,"internalType":"uint256"}],"anonymous":false},{"type":"event","name":"ErrorControllerSet","inputs":[{"name":"errorController","type":"address","indexed":false,"internalType":"address"}],"anonymous":false},{"type":"event","name":"ErrorSet","inputs":[{"name":"errorCode","type":"uint256","indexed":true,"internalType":"uint256"},{"name":"error","type":"string","indexed":false,"internalType":"string"}],"anonymous":false},{"type":"event","name":"FeesSet","inputs":[{"name":"taxBasisPoints","type":"uint256","indexed":false,"internalType":"uint256"},{"name":"stableTaxBasisPoints","type":"uint256","indexed":false,"internalType":"uint256"},{"name":"mintBurnFeeBasisPoints","type":"uint256","indexed":false,"internalType":"uint256"},{"name":"swapFeeBasisPoints","type":"uint256","indexed":false,"internalType":"uint256"},{"name":"stableSwapFeeBasisPoints","type":"uint256","indexed":false,"internalType":"uint256"},{"name":"marginFeeBasisPoints","type":"uint256","indexed":false,"internalType":"uint256"},{"name":"liquidationFeeUsd","type":"uint256","indexed":false,"internalType":"uint256"},{"name":"minProfitTime","type":"uint256","indexed":false,"internalType":"uint256"},{"name":"hasDynamicFees","type":"bool","indexed":false,"internalType":"bool"}],"anonymous":false},{"type":"event","name":"FeesWithdrawn","inputs":[{"name":"token","type":"address","indexed":true,"internalType":"address"},{"name":"receiver","type":"address","indexed":true,"internalType":"address"},{"name":"amount","type":"uint256","indexed":false,"internalType":"uint256"}],"anonymous":false},{"type":"event","name":"FundingRateSet","inputs":[{"name":"fundingInterval","type":"uint256","indexed":false,"internalType":"uint256"},{"name":"fundingRateFactor","type":"uint256","indexed":false,"internalType":"uint256"},{"name":"stableFundingRateFactor","type":"uint256","indexed":false,"internalType":"uint256"}],"anonymous":false},{"type":"event","name":"GovernanceTransferRequested","inputs":[{"name":"newGov","type":"address","indexed":true,"internalType":"address"},{"name":"deadline","type":"uint256","indexed":false,"internalType":"uint256"}],"anonymous":false},{"type":"event","name":"GovernanceTransferred","inputs":[{"name":"oldGov","type":"address","indexed":true,"internalType":"address"},{"name":"newGov","type":"address","indexed":true,"internalType":"address"}],"anonymous":false},{"type":"event","name":"InManagerModeSet","inputs":[{"name":"inManagerMode","type":"bool","indexed":false,"internalType":"bool"}],"anonymous":false},{"type":"event","name":"InPrivateLiquidationModeSet","inputs":[{"name":"inPrivateLiquidationMode","type":"bool","indexed":false,"internalType":"bool"}],"anonymous":false},{"type":"event","name":"IncreaseGuaranteedUsd","inputs":[{"name":"token","type":"address","indexed":false,"internalType":"address"},{"name":"amount","type":"uint256","indexed":false,"internalType":"uint256"}],"anonymous":false},{"type":"event","name":"IncreasePoolAmount","inputs":[{"name":"token","type":"address","indexed":false,"internalType":"address"},{"name":"amount","type":"uint256","indexed":false,"internalType":"uint256"}],"anonymous":false},{"type":"event","name":"IncreasePosition","inputs":[{"name":"key","type":"bytes32","indexed":false,"internalType":"bytes32"},{"name":"account","type":"address","indexed":false,"internalType":"address"},{"name":"collateralToken","type":"address","indexed":false,"internalType":"address"},{"name":"indexToken","type":"address","indexed":false,"internalType":"address"},{"name":"collateralDelta","type":"uint256","indexed":false,"internalType":"uint256"},{"name":"sizeDelta","type":"uint256","indexed":false,"internalType":"uint256"},{"name":"isLong","type":"bool","indexed":false,"internalType":"bool"},{"name":"price","type":"uint256","indexed":false,"internalType":"uint256"},{"name":"fee","type":"uint256","indexed":false,"internalType":"uint256"}],"anonymous":false},{"type":"event","name":"IncreaseReservedAmount","inputs":[{"name":"token","type":"address","indexed":false,"internalType":"address"},{"name":"amount","type":"uint256","indexed":false,"internalType":"uint256"}],"anonymous":false},{"type":"event","name":"IncreaseUsdgAmount","inputs":[{"name":"token","type":"address","indexed":false,"internalType":"address"},{"name":"amount","type":"uint256","indexed":false,"internalType":"uint256"}],"anonymous":false},{"type":"event","name":"IsLeverageEnabledSet","inputs":[{"name":"isLeverageEnabled","type":"bool","indexed":false,"internalType":"bool"}],"anonymous":false},{"type":"event","name":"IsSwapEnabledSet","inputs":[{"name":"isSwapEnabled","type":"bool","indexed":false,"internalType":"bool"}],"anonymous":false},{"type":"event","name":"LiquidatePosition","inputs":[{"name":"key","type":"bytes32","indexed":false,"internalType":"bytes32"},{"name":"account","type":"address","indexed":false,"internalType":"address"},{"name":"collateralToken","type":"address","indexed":false,"internalType":"address"},{"name":"indexToken","type":"address","indexed":false,"internalType":"address"},{"name":"isLong","type":"bool","indexed":false,"internalType":"bool"},{"name":"size","type":"uint256","indexed":false,"internalType":"uint256"},{"name":"collateral","type":"uint256","indexed":false,"internalType":"uint256"},{"name":"reserveAmount","type":"uint256","indexed":false,"internalType":"uint256"},{"name":"realisedPnl","type":"int256","indexed":false,"internalType":"int256"},{"name":"markPrice","type":"uint256","indexed":false,"internalType":"uint256"}],"anonymous":false},{"type":"event","name":"LiquidatorSet","inputs":[{"name":"liquidator","type":"address","indexed":true,"internalType":"address"},{"name":"isActive","type":"bool","indexed":false,"internalType":"bool"}],"anonymous":false},{"type":"event","name":"ManagerSet","inputs":[{"name":"manager","type":"address","indexed":true,"internalType":"address"},{"name":"isManager","type":"bool","indexed":false,"internalType":"bool"}],"anonymous":false},{"type":"event","name":"MaxGasPriceSet","inputs":[{"name":"maxGasPrice","type":"uint256","indexed":false,"internalType":"uint256"}],"anonymous":false},{"type":"event","name":"MaxGlobalShortSizeSet","inputs":[{"name":"token","type":"address","indexed":true,"internalType":"address"},{"name":"amount","type":"uint256","indexed":false,"internalType":"uint256"}],"anonymous":false},{"type":"event","name":"MaxLeverageSet","inputs":[{"name":"maxLeverage","type":"uint256","indexed":false,"internalType":"uint256"}],"anonymous":false},{"type":"event","name":"PriceFeedSet","inputs":[{"name":"priceFeed","type":"address","indexed":false,"internalType":"address"}],"anonymous":false},{"type":"event","name":"RouterAdded","inputs":[{"name":"account","type":"address","indexed":true,"internalType":"address"},{"name":"router","type":"address","indexed":true,"internalType":"address"}],"anonymous":false},{"type":"event","name":"RouterRemoved","inputs":[{"name":"account","type":"address","indexed":true,"internalType":"address"},{"name":"router","type":"address","indexed":true,"internalType":"address"}],"anonymous":false},{"type":"event","name":"SellUSDG","inputs":[{"name":"account","type":"address","indexed":false,"internalType":"address"},{"name":"token","type":"address","indexed":false,"internalType":"address"},{"name":"usdgAmount","type":"uint256","indexed":false,"internalType":"uint256"},{"name":"tokenAmount","type":"uint256","indexed":false,"internalType":"uint256"},{"name":"feeBasisPoints","type":"uint256","indexed":false,"internalType":"uint256"}],"anonymous":false},{"type":"event","name":"Swap","inputs":[{"name":"account","type":"address","indexed":false,"internalType":"address"},{"name":"tokenIn","type":"address","indexed":false,"internalType":"address"},{"name":"tokenOut","type":"address","indexed":false,"internalType":"address"},{"name":"amountIn","type":"uint256","indexed":false,"internalType":"uint256"},{"name":"amountOut","type":"uint256","indexed":false,"internalType":"uint256"},{"name":"amountOutAfterFees","type":"uint256","indexed":false,"internalType":"uint256"},{"name":"feeBasisPoints","type":"uint256","indexed":false,"internalType":"uint256"}],"anonymous":false},{"type":"event","name":"TokenConfigCleared","inputs":[{"name":"token","type":"address","indexed":true,"internalType":"address"}],"anonymous":false},{"type":"event","name":"TokenConfigSet","inputs":[{"name":"token","type":"address","indexed":true,"internalType":"address"},{"name":"tokenDecimals","type":"uint256","indexed":false,"internalType":"uint256"},{"name":"tokenWeight","type":"uint256","indexed":false,"internalType":"uint256"},{"name":"minProfitBps","type":"uint256","indexed":false,"internalType":"uint256"},{"name":"maxUsdgAmount","type":"uint256","indexed":false,"internalType":"uint256"},{"name":"isStable","type":"bool","indexed":false,"internalType":"bool"},{"name":"isShortable","type":"bool","indexed":false,"internalType":"bool"}],"anonymous":false},{"type":"event","name":"UpdateFundingRate","inputs":[{"name":"token","type":"address","indexed":false,"internalType":"address"},{"name":"fundingRate","type":"uint256","indexed":false,"internalType":"uint256"}],"anonymous":false},{"type":"event","name":"UpdatePnl","inputs":[{"name":"key","type":"bytes32","indexed":false,"internalType":"bytes32"},{"name":"hasProfit","type":"bool","indexed":false,"internalType":"bool"},{"name":"delta","type":"uint256","indexed":false,"internalType":"uint256"}],"anonymous":false},{"type":"event","name":"UpdatePosition","inputs":[{"name":"key","type":"bytes32","indexed":false,"internalType":"bytes32"},{"name":"size","type":"uint256","indexed":false,"internalType":"uint256"},{"name":"collateral","type":"uint256","indexed":false,"internalType":"uint256"},{"name":"averagePrice","type":"uint256","indexed":false,"internalType":"uint256"},{"name":"entryFundingRate","type":"uint256","indexed":false,"internalType":"uint256"},{"name":"reserveAmount","type":"uint256","indexed":false,"internalType":"uint256"},{"name":"realisedPnl","type":"int256","indexed":false,"internalType":"int256"},{"name":"markPrice","type":"uint256","indexed":false,"internalType":"uint256"}],"anonymous":false},{"type":"event","name":"UsdgAmountSet","inputs":[{"name":"token","type":"address","indexed":true,"internalType":"address"},{"name":"amount","type":"uint256","indexed":false,"internalType":"uint256"}],"anonymous":false},{"type":"event","name":"VaultUpgraded","inputs":[{"name":"newVault","type":"address","indexed":true,"internalType":"address"},{"name":"token","type":"address","indexed":true,"internalType":"address"},{"name":"amount","type":"uint256","indexed":false,"internalType":"uint256"}],"anonymous":false},{"type":"event","name":"VaultUtilsSet","inputs":[{"name":"vaultUtils","type":"address","indexed":false,"internalType":"address"}],"anonymous":false}],"bytecode":{"object":"0x608060405234801561001057600080fd5b5061693380620000216000396000f3fe608060405234801561001057600080fd5b50600436106105d05760003560e01c8063870d917c116102ff578063c7e074c31161019a578063c7e074c3146112d9578063cea0c32814611319578063cfad57a21461134f578063d2fa635e14611375578063d3127e6314611392578063d54d5a9f146113af578063d66b000d1461140e578063d8f897c31461143a578063d9ac422514611460578063da76524c14611468578063daf9c210146114b2578063db3555fb146114d8578063db97495f146114fe578063dc8f5fac1461154a578063de2ea94814611552578063df73a2671461159a578063e124e6d2146115a2578063e468baf0146115c8578063e67f59a7146115e5578063efa10a6e1461160b578063f07456ce14611637578063f07bbf771461165d578063f1675a8b1461167c578063f2555278146116c4578063f3ae2415146116f2578063f5b91b7b14611718578063f887ea4014611720578063fa12dbc014611728578063fbfded6d1461175a578063fce28c1014611788578063fdaf6ac314611790578063fed1a606146117d4576105d0565b8063870d917c14610f0b57806388b1fbdf14610f135780638a27d46814610f395780638a39735a146106515780638a78daa814610f625780638d0fedb014610f885780638ee573ac14610fc75780638f7b840414610fed5780639060b1ca14611013578063933162121461101b57806395082d25146110535780639698d25a1461105b5780639849e412146110815780639899cd02146110895780639c35b497146110b55780639d7432ca146110db5780639f392eb31461110d578063a22f239214611115578063a42ab3d21461111d578063a5e90eee14611149578063a93acac214611177578063ab08c1c61461119d578063ab2f3ad4146111a5578063ad1e4f8d146111cb578063ae3302c2146111f1578063b06423f3146111f9578063b136ca4914611201578063b1cc53ab14611227578063b364accb1461125f578063c3c7b9e914611285578063c4f718bf146112ab578063c65bc7b1146112b3576105d0565b806348d91abf1161046f57806348d91abf14610a2e57806348f35cbb14610a725780634a3f088d14610a7a5780634a993ee914610afb5780634befe2ca14610b215780634d47b30414610b29578063514ea4bf14610b3157806351723e8214610b86578063523fba7f14610bc4578063529a356f14610bea57806352f55eed14610c105780635c07eaab14610c365780635f7bc11914610c765780636092219914610c9c57806362287a3214610cca5780636274980314610cd25780636a6f342414610cf85780636abbe0c814610d245780636ae0b15414610d2c5780636bb22fd714610d525780636be6026b14610d7e57806371089f4d14610d86578063711e619014610dac578063724e78da14610dda578063741bef1a14610e005780637a210a2b14610e085780637bc6729b14610e105780637c2eb9f714610e18578063817bb85714610e3757806381a612d614610e6557806382a0849014610e8b5780638585f4d214610edf576105d0565b806304fef1db146105d557806307c587521461060d5780630842b076146106155780630a48d5a91461061d57806310eb56c214610649578063126082cf1461065157806312d43a5114610659578063134ca63b1461067d578063174d269414610685578063181e210e1461068d5780631aa4ace5146106a95780631ce9cb8f146106cf57806324b0c04d146106f557806324ca984e1461071657806328e67be51461073c57806329ff9615146107b15780632c668ec1146107d75780632d4b05761461080357806330455ede14610841578063318bc6891461086057806334c1557d14610651578063351a964d14610868578063392e53cd146108705780633a05dcc1146108785780633c5a6e351461089e5780633de39c11146108ec5780633e72a262146108f457806340eb3802146108fc578063421528731461094d57806342b60b03146109815780634453a374146109a757806345a6f370146109d5575b600080fd5b6105fb600480360360208110156105eb57600080fd5b50356001600160a01b0316611866565b60408051918252519081900360200190f35b6105fb6118c9565b6105fb6118da565b6105fb6004803603604081101561063357600080fd5b506001600160a01b0381351690602001356118e0565b6105fb611933565b6105fb611939565b61066161193f565b604080516001600160a01b039092168252519081900360200190f35b6105fb61194e565b6105fb611954565b61069561195a565b604080519115158252519081900360200190f35b6105fb600480360360208110156106bf57600080fd5b50356001600160a01b031661196a565b6105fb600480360360208110156106e557600080fd5b50356001600160a01b031661197c565b6107146004803603602081101561070b57600080fd5b5035151561198e565b005b6107146004803603602081101561072c57600080fd5b50356001600160a01b03166119e7565b6107146004803603604081101561075257600080fd5b81359190810190604081016020820135600160201b81111561077357600080fd5b82018360208201111561078557600080fd5b803590602001918460018302840111600160201b831117156107a657600080fd5b509092509050611a40565b6105fb600480360360208110156107c757600080fd5b50356001600160a01b0316611b1f565b6105fb600480360360408110156107ed57600080fd5b506001600160a01b038135169060200135611b33565b6105fb6004803603608081101561081957600080fd5b506001600160a01b038135811691602081013582169160408201351690606001351515611b78565b6107146004803603602081101561085757600080fd5b50351515611bce565b6105fb611c25565b610695611c2b565b610695611c39565b6105fb6004803603602081101561088e57600080fd5b50356001600160a01b0316611c42565b610714600480360360e08110156108b457600080fd5b506001600160a01b038135169060208101359060408101359060608101359060808101359060a081013515159060c001351515611d02565b6105fb611ea8565b610695611eae565b610714600480360361012081101561091357600080fd5b5080359060208101359060408101359060608101359060808101359060a08101359060c08101359060e08101359061010001351515611ebd565b6105fb6004803603606081101561096357600080fd5b508035906001600160a01b0360208201358116916040013516611ff1565b6106956004803603602081101561099757600080fd5b50356001600160a01b0316612093565b610714600480360360408110156109bd57600080fd5b506001600160a01b03813516906020013515156120a7565b610a13600480360360808110156109eb57600080fd5b506001600160a01b03813581169160208101358216916040820135169060600135151561210f565b60408051921515835260208301919091528051918290030190f35b610714600480360360a0811015610a4457600080fd5b506001600160a01b0381358116916020810135821691604082013516906060810135906080013515156121ad565b610661612679565b610ab860048036036080811015610a9057600080fd5b506001600160a01b038135811691602081013582169160408201351690606001351515612688565b604080519889526020890197909752878701959095526060870193909352608086019190915260a0850152151560c084015260e083015251908190036101000190f35b6105fb60048036036020811015610b1157600080fd5b50356001600160a01b031661277e565b6105fb612790565b6105fb612796565b610b4e60048036036020811015610b4757600080fd5b503561279c565b604080519788526020880196909652868601949094526060860192909252608085015260a084015260c0830152519081900360e00190f35b6105fb60048036036080811015610b9c57600080fd5b506001600160a01b0381358116916020810135821691604082013516906060013515156127d9565b6105fb60048036036020811015610bda57600080fd5b50356001600160a01b031661287f565b61069560048036036020811015610c0057600080fd5b50356001600160a01b0316612891565b6105fb60048036036020811015610c2657600080fd5b50356001600160a01b03166128a6565b610a13600480360360a0811015610c4c57600080fd5b506001600160a01b03813516906020810135906040810135906060810135151590608001356128b8565b61071460048036036020811015610c8c57600080fd5b50356001600160a01b03166129b0565b61069560048036036040811015610cb257600080fd5b506001600160a01b0381358116916020013516612a93565b6105fb612ab3565b6105fb60048036036020811015610ce857600080fd5b50356001600160a01b0316612ab9565b61071460048036036040811015610d0e57600080fd5b506001600160a01b038135169060200135612acb565b610661612ad9565b61071460048036036020811015610d4257600080fd5b50356001600160a01b0316612aef565b61071460048036036040811015610d6857600080fd5b506001600160a01b038135169060200135612b45565b6105fb612b8a565b61071460048036036020811015610d9c57600080fd5b50356001600160a01b0316612b91565b6105fb60048036036040811015610dc257600080fd5b506001600160a01b0381358116916020013516612bf9565b61071460048036036020811015610df057600080fd5b50356001600160a01b0316612e8d565b610661612ee9565b6105fb612ef8565b610714612efe565b61071460048036036020811015610e2e57600080fd5b50351515612fa1565b6105fb60048036036040811015610e4d57600080fd5b506001600160a01b0381358116916020013516612ffa565b6105fb60048036036020811015610e7b57600080fd5b50356001600160a01b03166132ca565b6105fb600480360360e0811015610ea157600080fd5b506001600160a01b0381358116916020810135821691604082013581169160608101359160808201359160a081013515159160c09091013516613375565b61071460048036036040811015610ef557600080fd5b506001600160a01b0381351690602001356133f3565b6105fb61344f565b6105fb60048036036020811015610f2957600080fd5b50356001600160a01b0316613454565b61071460048036036060811015610f4f57600080fd5b5080359060208101359060400135613466565b6105fb60048036036020811015610f7857600080fd5b50356001600160a01b03166134f2565b610fae60048036036020811015610f9e57600080fd5b50356001600160a01b0316613504565b6040805192835290151560208301528051918290030190f35b6105fb60048036036020811015610fdd57600080fd5b50356001600160a01b0316613520565b6107146004803603602081101561100357600080fd5b50356001600160a01b0316613532565b61069561358e565b6105fb6004803603606081101561103157600080fd5b506001600160a01b03813581169160208101358216916040909101351661359d565b6105fb613885565b6105fb6004803603602081101561107157600080fd5b50356001600160a01b0316613895565b6105fb6138a7565b6105fb6004803603604081101561109f57600080fd5b506001600160a01b0381351690602001356138ad565b610714600480360360208110156110cb57600080fd5b50356001600160a01b03166138cf565b6105fb600480360360608110156110f157600080fd5b506001600160a01b038135169060208101359060400135613928565b6106956139d1565b6105fb6139da565b6105fb6004803603604081101561113357600080fd5b506001600160a01b0381351690602001356139e0565b6107146004803603604081101561115f57600080fd5b506001600160a01b03813516906020013515156139fd565b6105fb6004803603602081101561118d57600080fd5b50356001600160a01b0316613a65565b610695613b62565b6105fb600480360360208110156111bb57600080fd5b50356001600160a01b0316613b6b565b6105fb600480360360208110156111e157600080fd5b50356001600160a01b0316613b7d565b6105fb613b8f565b610695613b95565b6105fb6004803603602081101561121757600080fd5b50356001600160a01b0316613ba3565b6105fb6004803603606081101561123d57600080fd5b506001600160a01b038135811691602081013590911690604001351515613c43565b610a136004803603602081101561127557600080fd5b50356001600160a01b0316613cde565b6105fb6004803603602081101561129b57600080fd5b50356001600160a01b0316613d76565b6105fb613d88565b6105fb600480360360208110156112c957600080fd5b50356001600160a01b0316613d8e565b6105fb600480360360a08110156112ef57600080fd5b506001600160a01b0381351690602081013590604081013590606081013590608001351515613da0565b6107146004803603606081101561132f57600080fd5b506001600160a01b03813581169160208101359091169060400135613e4a565b6107146004803603602081101561136557600080fd5b50356001600160a01b0316613eb6565b6107146004803603602081101561138b57600080fd5b5035613f00565b610714600480360360208110156113a857600080fd5b5035613f43565b6113f5600480360360a08110156113c557600080fd5b506001600160a01b0381358116916020810135821691604082013516906060810135151590608001351515613f95565b6040805192835260208301919091528051918290030190f35b6107146004803603604081101561142457600080fd5b506001600160a01b03813516906020013561404c565b6105fb6004803603602081101561145057600080fd5b50356001600160a01b0316614124565b6105fb614136565b6105fb600480360360c081101561147e57600080fd5b506001600160a01b038135811691602081013582169160408201351690606081013515159060808101359060a0013561413c565b610695600480360360208110156114c857600080fd5b50356001600160a01b03166141f0565b610695600480360360208110156114ee57600080fd5b50356001600160a01b0316614205565b6105fb600480360360e081101561151457600080fd5b506001600160a01b0381351690602081013590604081013590606081013515159060808101359060a08101359060c0013561421a565b6105fb6142ab565b610714600480360360a081101561156857600080fd5b506001600160a01b038135811691602081013582169160408201358116916060810135151591608090910135166142b1565b6105fb614689565b6105fb600480360360208110156115b857600080fd5b50356001600160a01b031661468f565b610661600480360360208110156115de57600080fd5b5035614707565b610714600480360360208110156115fb57600080fd5b50356001600160a01b031661472e565b6107146004803603604081101561162157600080fd5b506001600160a01b038135169060200135614836565b6105fb6004803603602081101561164d57600080fd5b50356001600160a01b0316614892565b6107146004803603602081101561167357600080fd5b503515156148a4565b610714600480360360c081101561169257600080fd5b506001600160a01b03813581169160208101358216916040820135169060608101359060808101359060a001356148ff565b6105fb600480360360408110156116da57600080fd5b506001600160a01b03813581169160200135166149d2565b6106956004803603602081101561170857600080fd5b50356001600160a01b0316614a7a565b610661614a8f565b610661614a9e565b6105fb6004803603606081101561173e57600080fd5b506001600160a01b038135169060208101359060400135614aad565b6107146004803603604081101561177057600080fd5b506001600160a01b0381358116916020013516614ae7565b6105fb614cc0565b6105fb600480360360a08110156117a657600080fd5b506001600160a01b038135811691602081013582169160408201351690606081013515159060800135614cc6565b6117f1600480360360208110156117ea57600080fd5b5035614d3c565b6040805160208082528351818301528351919283929083019185019080838360005b8381101561182b578181015183820152602001611813565b50505050905090810190601f1680156118585780820380516001836020036101000a031916815260200191505b509250505060405180910390f35b6001600160a01b0381166000908152602660205260408120548061188e5760009150506118c4565b6001600160a01b0383166000908152602760205260409020546118c09082906118ba90620f4240614dd7565b90614e30565b9150505b919050565b6904ee2d6d415b85acef8160201b81565b601c5490565b6000816118ef5750600061192d565b60006118fa846132ca565b6001600160a01b0385166000908152601e6020526040902054909150611928600a82900a6118ba8685614dd7565b925050505b92915050565b600c5481565b61271081565b6006546001600160a01b031681565b60155481565b600a5481565b6017546301000000900460ff1681565b60246020526000908152604090205481565b602d6020526000908152604090205481565b611996614e6f565b6017805482151562010000810262ff0000199092169190911790915560408051918252517f8604225322a778d88a29d67c7bfdcc2ee389c4ffee90401fed0c893995f64e4c9181900360200190a150565b3360008181526019602090815260408083206001600160a01b0386168085529252808320805460ff19166001179055519092917fbc68405e644da2aaf25623ce2199da82c6dfd2e1de102b400eba6a091704d4f491a350565b6002546001600160a01b03163314611a9f576040805162461bcd60e51b815260206004820152601e60248201527f5661756c743a20696e76616c6964206572726f72436f6e74726f6c6c65720000604482015290519081900360640190fd5b6000838152603160205260409020611ab89083836167c2565b50827fcfec2a57418bef8eb60569540c9ad6089804190b2a3da58a7240458e73860f53838360405180806020018281038252848482818152602001925080828437600083820152604051601f909101601f19169092018290039550909350505050a2505050565b600061192d82611b2e84613ba3565b6118e0565b600080611b3f8461468f565b90506000611b5d826118ba8668327cb2734119d3b7a9601e1b614dd7565b6005549091506119289082906001600160a01b031687611ff1565b604080516001600160601b0319606096871b811660208084019190915295871b811660348301529390951b9092166048850152151560f81b605c8401528051603d818503018152605d9093019052815191012090565b611bd6614e6f565b60018054821515610100810261ff00199092169190911790915560408051918252517f8e47cf548a9fa1b6e80d28aa245ff6db6e7f1b88aff2beedeb5c494d604a5aa09181900360200190a150565b60105481565b600154610100900460ff1681565b60015460ff1681565b600080600560009054906101000a90046001600160a01b03166001600160a01b03166318160ddd6040518163ffffffff1660e01b815260040160206040518083038186803b158015611c9357600080fd5b505afa158015611ca7573d6000803e3d6000fd5b505050506040513d6020811015611cbd57600080fd5b5051905080611cd05760009150506118c4565b6001600160a01b038316600090815260236020526040902054601654611cfa906118ba8385614dd7565b949350505050565b611d0a614e6f565b6001600160a01b0387166000908152601d602052604090205460ff16611d8757600854611d38906001614e8a565b600855601c80546001810182556000919091527f0e4562a10381dec21b205ed72637e6b1b523bdd0e4d4d50af5cd23dd4500a2110180546001600160a01b0319166001600160a01b0389161790555b6016546001600160a01b038816600090815260236020526040902054611dae908290614ee2565b6001600160a01b0389166000908152601d602090815260408083208054600160ff1991821617909155601e83528184208c9055602383528184208b9055601f83528184208a90556025835281842089905582805281842080548216891515179055602190925290912080549091168415151790559050611e2e8187614e8a565b601655611e3a8861468f565b50604080518881526020810188905280820187905260608101869052841515608082015283151560a082015290516001600160a01b038a16917f440e80ddfc94cac3c5f71d1f565167ab3b690c79425a1ead709e08984f5f8cd0919081900360c00190a25050505050505050565b60185481565b60015462010000900460ff1681565b611ec5614e6f565b611ed56101f48a11156003614f24565b611ee56101f48911156004614f24565b611ef56101f48811156005614f24565b611f056101f48711156006614f24565b611f156101f48611156007614f24565b611f256101f48511156008614f24565b611f406904ee2d6d415b85acef8160201b8411156009614f24565b600b899055600c889055600d879055600e869055600f8590556010849055600a83905560118290556012805482151560ff199091168117909155604080518b8152602081018b90528082018a9052606081018990526080810188905260a0810187905260c0810186905260e08101859052610100810192909252517f233feadc526a0cc39f70b747d25c6843b9ae49f35500485f106eb585d20d185c918190036101200190a1505050505050505050565b60055460009081906001600160a01b03858116911614612029576001600160a01b0384166000908152601e602052604090205461202c565b60125b6005549091506000906001600160a01b03858116911614612065576001600160a01b0384166000908152601e6020526040902054612068565b60125b905061208782600a0a6118ba83600a0a89614dd790919063ffffffff16565b925050505b9392505050565b602080526000908152604090205460ff1681565b6120af614e6f565b6001600160a01b0382166000818152601a6020908152604091829020805460ff1916851515908117909155825190815291517f81e020344174972c59f6c11a8f6c90b141866214e3d9b544d030f0b532f5a10f9281900390910190a25050565b600080600061212087878787611b78565b905061212a616840565b506000818152602c6020908152604091829020825160e081018452815480825260018301549382019390935260028201549381018490526003820154606082015260048201546080820152600582015460a082015260069091015460c08201819052909261219e92899290919089906128b8565b93509350505094509492505050565b600260005414156121f3576040805162461bcd60e51b815260206004820152601f6024820152600080516020616893833981519152604482015290519081900360640190fd5b600260005560015461220f9062010000900460ff16601c614f24565b612217614fd5565b61222085614ff1565b61222b848483615051565b60015460408051634eae147d60e11b81526001600160a01b038881166004830152878116602483015286811660448301526064820186905284151560848301529151630100000090930490911691639d5c28fa9160a480820192600092909190829003018186803b15801561229f57600080fd5b505afa1580156122b3573d6000803e3d6000fd5b505050506122c18484614ae7565b60006122cf86868685611b78565b6000818152602c60205260408120919250836122f3576122ee866132ca565b6122fc565b6122fc8661468f565b825490915061239a576002820181905560015460408051632339ab6b60e21b8152600481018690526001600160a01b038b811660248301528a81166044830152898116606483015287151560848301529151630100000090930490911691638ce6adac9160a48082019260009290919082900301818387803b15801561238157600080fd5b505af1158015612395573d6000803e3d6000fd5b505050505b8154158015906123aa5750600085115b156123d0576123ca868360000154846002015487858a886006015461421a565b60028301555b60006123e9898989888a88600001548960030154615164565b905060006123f689615232565b905060006124048a836118e0565b60018601549091506124169082614e8a565b6001860181905561242b90841115601d614f24565b600185015461243a9084614ee2565b600186015561244a8a8a89613c43565b6003860155845461245b9089614e8a565b808655426006870155612471901515601e614f24565b612483856000015486600101546152df565b6124918b8b8b8a6001613f95565b5050600061249f8b8a6139e0565b60048701549091506124b19082614e8a565b60048701556124c08b82615303565b8715612505576124d98b6124d48b87614e8a565b6153a3565b6124e38b83615422565b6124ed8b846154a1565b6125008b6124fb8d876138ad565b6155b9565b612571565b6001600160a01b038a166000908152602e6020526040902054612542576001600160a01b038a166000908152602f60205260409020859055612567565b61254d8a868b613928565b6001600160a01b038b166000908152602f60205260409020555b6125718a8a615683565b604080518881526001600160a01b03808f166020830152808e16828401528c1660608201526080810184905260a081018b905289151560c082015260e08101879052610100810186905290517f2fe68525253654c21998f35787a8d0f361905ef647c854092430ab65f2f15022918190036101200190a1855460018701546002880154600389015460048a015460058b0154604080518e81526020810197909752868101959095526060860193909352608085019190915260a084015260c083015260e08201879052517f20853733b590dce729d9f4628682ebd9a34d2354e72679e66f43a008fc03b773918190036101000190a15050600160005550505050505050505050565b6002546001600160a01b031681565b60008060008060008060008060006126a28d8d8d8d611b78565b90506126ac616840565b602c60008381526020019081526020016000206040518060e001604052908160008201548152602001600182015481526020016002820154815260200160038201548152602001600482015481526020016005820154815260200160068201548152505090506000808260a001511361272c578160a00151600003612732565b8160a001515b9050816000015182602001518360400151846060015185608001518560008860a0015112158860c001519a509a509a509a509a509a509a509a5050505094995094995094999196509450565b60286020526000908152604090205481565b6101f481565b600d5481565b602c602052600090815260409020805460018201546002830154600384015460048501546005860154600690960154949593949293919290919087565b6000806127e886868686611b78565b90506127f2616840565b506000818152602c6020908152604091829020825160e0810184528154815260018201549281018390526002820154938101939093526003810154606084015260048101546080840152600581015460a08401526006015460c083015261285c9015156025614f24565b6020810151815161287491906118ba90612710614dd7565b979650505050505050565b60226020526000908152604090205481565b601a6020526000908152604090205460ff1681565b60266020526000908152604090205481565b6000806128c9600086116026614f24565b6000846128de576128d98861468f565b6128e7565b6128e7886132ca565b90506000818711612901576128fc8288614ee2565b61290b565b61290b8783614ee2565b9050600061291d886118ba8b85614dd7565b9050600087156129305750878311612935565b508288115b600061294c60115489614e8a90919063ffffffff16565b4211612970576001600160a01b038c166000908152601f6020526040902054612973565b60005b905081801561299657506129878b82614dd7565b61299384612710614dd7565b11155b156129a057600092505b509a909950975050505050505050565b600260005414156129f6576040805162461bcd60e51b815260206004820152601f6024820152600080516020616893833981519152604482015290519081900360640190fd5b600260009081556001600160a01b0382168152601d6020526040902054612a219060ff16600e614f24565b6000612a2c82615232565b9050612a3c60008211600f614f24565b612a4682826154a1565b604080516001600160a01b03841681526020810183905281517fa5a389190ebf6170a133bda5c769b77f4d6715b8aa172ec0ddf8473d0b4944bd929181900390910190a150506001600055565b601960209081526000928352604080842090915290825290205460ff1681565b60085481565b602f6020526000908152604090205481565b612ad58282615683565b5050565b600154630100000090046001600160a01b031681565b3360008181526019602090815260408083206001600160a01b0386168085529252808320805460ff19169055519092917fbee3e974bb6a6f44f20096ede047c191eef60322e65e4ee4bd3392230a8716d591a350565b612b4d614e6f565b612b636001600160a01b03831615156038614f24565b600654612b80906001600160a01b03848116911614156039614f24565b612ad58282615732565b620f424081565b612b99614e6f565b600180546001600160a01b038316630100000081026301000000600160b81b03199092169190911790915560408051918252517fc396cb6d9f905e4303c2e7dceef2ae57b3175fea77537bfc2354babe808831ed9181900360200190a150565b600060026000541415612c41576040805162461bcd60e51b815260206004820152601f6024820152600080516020616893833981519152604482015290519081900360640190fd5b6002600055612c4e6157ae565b6001600160a01b0383166000908152601d6020526040902054612c759060ff166013614f24565b6017805461ff001916610100179055600554600090612c9c906001600160a01b0316615232565b9050612cac600082116014614f24565b612cb68485614ae7565b6000612cc28583611b33565b9050612cd2600082116015614f24565b612cdc85836157dd565b612ce685826155b9565b60055460408051632770a7eb60e21b81523060048201526024810185905290516001600160a01b0390921691639dc29fac9160448082019260009290919082900301818387803b158015612d3957600080fd5b505af1158015612d4d573d6000803e3d6000fd5b5050600554612d6792506001600160a01b031690506158bf565b6001546040805163eb0835bf60e01b81526001600160a01b038881166004830152602482018690529151600093630100000090049092169163eb0835bf91604480820192602092909190829003018186803b158015612dc557600080fd5b505afa158015612dd9573d6000803e3d6000fd5b505050506040513d6020811015612def57600080fd5b505190506000612e0087848461595a565b9050612e10600082116016614f24565b612e1b878288615a22565b604080516001600160a01b03808916825289166020820152808201869052606081018390526080810184905290517fd732b7828fa6cee72c285eac756fc66a7477e3dc22e22e7c432f1c265d40b4839181900360a00190a16017805461ff001916905560016000559695505050505050565b612e95614e6f565b600480546001600160a01b0383166001600160a01b0319909116811790915560408051918252517f40d8738b990e6ff9a2f56f11247e657a1e7070472260b020a4fc3ab1844787bd9181900360200190a150565b6004546001600160a01b031681565b600b5481565b3360009081526007602052604090208054612f1c904210603a614f24565b600180820154612f359160ff909116151514603b614f24565b6006805433600081815260076020526040808220828155600101805460ff1916905584546001600160a01b031916831790945592516001600160a01b0390921692909183917f5f56bee8cffbe9a78652a74a60705edede02af10b0bbb888ca44b79a0d42ce8091a35050565b612fa9614e6f565b6001805482151562010000810262ff0000199092169190911790915560408051918252517f2de4391e9889adc9fc7e3aca19eefeb5c979e8f2070d673621bc6d21bb4f15209181900360200190a150565b600060026000541415613042576040805162461bcd60e51b815260206004820152601f6024820152600080516020616893833981519152604482015290519081900360640190fd5b600260005561304f6157ae565b6001600160a01b0383166000908152601d60205260409020546130769060ff166010614f24565b6017805461ff001916610100179055600061309084615232565b90506130a0600082116011614f24565b6130aa8485614ae7565b60006130b5856132ca565b905060006130d368327cb2734119d3b7a9601e1b6118ba8585614dd7565b6005549091506130ef90829088906001600160a01b0316611ff1565b90506130ff600082116012614f24565b6001546040805163256f6ee360e11b81526001600160a01b0389811660048301526024820185905291516000936301000000900490921691634adeddc691604480820192602092909190829003018186803b15801561315d57600080fd5b505afa158015613171573d6000803e3d6000fd5b505050506040513d602081101561318757600080fd5b50519050600061319888868461595a565b905060006131b668327cb2734119d3b7a9601e1b6118ba8488614dd7565b6005549091506131d29082908b906001600160a01b0316611ff1565b90506131de8982615ac9565b6131e889836154a1565b600554604080516340c10f1960e01b81526001600160a01b038b8116600483015260248201859052915191909216916340c10f1991604480830192600092919082900301818387803b15801561323d57600080fd5b505af1158015613251573d6000803e3d6000fd5b5050604080516001600160a01b03808d1682528d1660208201528082018a9052606081018590526080810187905290517fab4c77c74cd32c85f35416cf03e7ce9e2d4387f7b7f2c1f4bf53daaecf8ea72d93509081900360a0019150a16017805461ff0019169055600160005598975050505050505050565b60048054601754604080516317e1d38560e11b81526001600160a01b038681169582019590955260006024820181905260ff80851615156044840152610100909404909316151560648201529051919390921691632fc3a70a916084808301926020929190829003018186803b15801561334357600080fd5b505afa158015613357573d6000803e3d6000fd5b505050506040513d602081101561336d57600080fd5b505192915050565b6000600260005414156133bd576040805162461bcd60e51b815260206004820152601f6024820152600080516020616893833981519152604482015290519081900360640190fd5b60026000556133ca614fd5565b6133d388614ff1565b6133e288888888888888615b87565b600160005598975050505050505050565b6133fb614e6f565b6001600160a01b038216600081815260286020908152604091829020849055815184815291517f353903ff62f3d637fe24bd36b8e8c98fe64b4800c768e4f575716328d4213ae39281900390910190a25050565b601281565b601f6020526000908152604090205481565b61346e614e6f565b61347e610e10841015600a614f24565b61348e612710831115600b614f24565b61349e612710821115600c614f24565b601383905560148290556015819055604080518481526020810184905280820183905290517fc6380af1a190f58aa0c39e80100ea619b8bec7ed9354b2f3b355d96a90b9f6e69181900360600190a1505050565b602e6020526000908152604090205481565b6007602052600090815260409020805460019091015460ff1682565b601e6020526000908152604090205481565b61353a614e6f565b600280546001600160a01b0383166001600160a01b0319909116811790915560408051918252517f05bc734bb488c8d942462278635ee88af10735003b8f95b85e6810e856d3b6169181900360200190a150565b60175462010000900460ff1681565b6000600260005414156135e5576040805162461bcd60e51b815260206004820152601f6024820152600080516020616893833981519152604482015290519081900360640190fd5b600260005560015461360090610100900460ff166017614f24565b6001600160a01b0384166000908152601d60205260409020546136279060ff166018614f24565b6001600160a01b0383166000908152601d602052604090205461364e9060ff166019614f24565b61366e836001600160a01b0316856001600160a01b03161415601a614f24565b6017805461ff0019166101001790556136878480614ae7565b6136918384614ae7565b600061369c85615232565b90506136ac60008211601b614f24565b60006136b7866132ca565b905060006136c48661468f565b905060006136d6826118ba8686614dd7565b90506136e3818989611ff1565b9050600061370168327cb2734119d3b7a9601e1b6118ba8787614dd7565b60055490915061371d9082908b906001600160a01b0316611ff1565b60015460408051636d099c0b60e11b81526001600160a01b038d811660048301528c8116602483015260448201859052915193945060009363010000009093049091169163da13381691606480820192602092909190829003018186803b15801561378757600080fd5b505afa15801561379b573d6000803e3d6000fd5b505050506040513d60208110156137b157600080fd5b5051905060006137c28a858461595a565b90506137ce8b84615ac9565b6137d88a846157dd565b6137e28b886154a1565b6137ec8a856155b9565b6137f58a6160bd565b6138008a828b615a22565b604080516001600160a01b03808c168252808e1660208301528c1681830152606081018990526080810186905260a0810183905260c0810184905290517f0874b2d545cb271cdbda4e093020c452328b24af12382ed62c4d00f5c26709db9181900360e00190a16017805461ff001916905560016000559a9950505050505050505050565b68327cb2734119d3b7a9601e1b81565b60306020526000908152604090205481565b60135481565b6000816138bc5750600061192d565b61208c83836138ca8661468f565b614aad565b6138d7614e6f565b6001600160a01b0381166000908152600760205260409020600101546139019060ff16603c614f24565b6001600160a01b03166000908152600760205260408120908155600101805460ff19169055565b6001600160a01b0383166000908152602e6020908152604080832054602f909252822054828582116139635761395e8683614ee2565b61396d565b61396d8287614ee2565b9050600061397f836118ba8685614dd7565b905086831160006139908689614e8a565b90506000826139a8576139a38285614e8a565b6139b2565b6139b28285614ee2565b90506139c2816118ba8c85614dd7565b9b9a5050505050505050505050565b60125460ff1681565b600e5481565b6000816139ef5750600061192d565b61208c83836138ca866132ca565b613a05614e6f565b6001600160a01b0382166000818152601b6020908152604091829020805460ff1916851515908117909155825190815291517fff83ce179bad4fbdb0e98074011487cde624295a52d8189d92d5d8b06c914eda9281900390910190a25050565b6013546001600160a01b0382166000908152602b602052604081205490914291613a8e91614e8a565b1115613a9c575060006118c4565b6013546001600160a01b0383166000908152602b60205260408120549091613ac9916118ba904290614ee2565b6001600160a01b03841660009081526026602052604090205490915080613af5576000925050506118c4565b6001600160a01b038416600090815260208052604081205460ff16613b1c57601454613b20565b6015545b6001600160a01b038616600090815260276020526040902054909150613b599083906118ba908690613b53908690614dd7565b90614dd7565b95945050505050565b60175460ff1681565b60236020526000908152604090205481565b60256020526000908152604090205481565b60095481565b601754610100900460ff1681565b6001600160a01b038116600090815260208052604081205460ff1615613be257506001600160a01b0381166000908152602660205260409020546118c4565b6001600160a01b038216600090815260296020526040812054613c069084906138ad565b6001600160a01b0384166000908152602760209081526040808320546026909252909120549192506118c091613c3d908490614e8a565b90614ee2565b6001546040805163b1cc53ab60e01b81526001600160a01b038681166004830152858116602483015284151560448301529151600093630100000090049092169163b1cc53ab91606480820192602092909190829003018186803b158015613caa57600080fd5b505afa158015613cbe573d6000803e3d6000fd5b505050506040513d6020811015613cd457600080fd5b5051949350505050565b6001600160a01b0381166000908152602e6020526040812054819080613d0b576000809250925050613d71565b6000613d168561468f565b6001600160a01b0386166000908152602f6020526040812054919250828211613d4857613d438383614ee2565b613d52565b613d528284614ee2565b90506000613d64836118ba8785614dd7565b9390921195509193505050505b915091565b60276020526000908152604090205481565b60145481565b602a6020526000908152604090205481565b6001546040805163c7e074c360e01b81526001600160a01b03888116600483015260248201889052604482018790526064820186905284151560848301529151600093630100000090049092169163c7e074c39160a480820192602092909190829003018186803b158015613e1457600080fd5b505afa158015613e28573d6000803e3d6000fd5b505050506040513d6020811015613e3e57600080fd5b50519695505050505050565b613e52614e6f565b613e666001600160a01b0383168483616125565b816001600160a01b0316836001600160a01b03167f3e2a14acc0fdcf12e05294203b3822d0d9b8b54f9d0977f8ef9e9392b6348545836040518082815260200191505060405180910390a3505050565b613ebe614e6f565b613ed46001600160a01b03821615156038614f24565b600654613ef1906001600160a01b03838116911614156039614f24565b613efd81600019615732565b50565b613f08614e6f565b60188190556040805182815290517f46a9321b7ebf95c579cb99b9008de9bdd310efaa558057ab7073d42e764d70c39181900360200190a150565b613f4b614e6f565b613f5a61271082116002614f24565b60098190556040805182815290517ff0aada89c1aeb5976a9e6fd505ec6dc3024f0e0b121fff9ce5bd4b40d54135a89181900360200190a150565b6001546040805163d54d5a9f60e01b81526001600160a01b03888116600483015287811660248301528681166044830152851515606483015284151560848301528251600094859463010000009091049092169263d54d5a9f9260a4808301939192829003018186803b15801561400b57600080fd5b505afa15801561401f573d6000803e3d6000fd5b505050506040513d604081101561403557600080fd5b508051602090910151909890975095505050505050565b614054614e6f565b6001600160a01b038216600090815260246020526040902054808211156140cd57614088836140838484614ee2565b615ac9565b6040805183815290516001600160a01b038516917fe5af17d6478a3ad858d29f0d18482bdecee0d95ad36cfeeeefca420436a689ef919081900360200190a250612ad5565b6140e0836140db8385614ee2565b6157dd565b6040805183815290516001600160a01b038516917fe5af17d6478a3ad858d29f0d18482bdecee0d95ad36cfeeeefca420436a689ef919081900360200190a2505050565b602b6020526000908152604090205481565b60115481565b6001546040805163369d949360e21b81526001600160a01b0389811660048301528881166024830152878116604483015286151560648301526084820186905260a482018590529151600093630100000090049092169163da76524c9160c480820192602092909190829003018186803b1580156141b957600080fd5b505afa1580156141cd573d6000803e3d6000fd5b505050506040513d60208110156141e357600080fd5b5051979650505050505050565b601d6020526000908152604090205460ff1681565b60216020526000908152604090205460ff1681565b600080600061422c8a8a8a8a886128b8565b9092509050600061423d8a87614e8a565b90506000881561426c578361425b576142568284614ee2565b614265565b6142658284614e8a565b905061428d565b836142805761427b8284614e8a565b61428a565b61428a8284614ee2565b90505b61429b816118ba8a85614dd7565b9c9b505050505050505050505050565b60165481565b600260005414156142f7576040805162461bcd60e51b815260206004820152601f6024820152600080516020616893833981519152604482015290519081900360640190fd5b60026000556017546301000000900460ff161561432c57336000908152601a602052604090205461432c9060ff166022614f24565b6017805460ff191690556143408484614ae7565b600061434e86868686611b78565b9050614358616840565b506000818152602c6020908152604091829020825160e08101845281548082526001830154938201939093526002820154938101939093526003810154606084015260048101546080840152600581015460a08401526006015460c08301526143c49015156023614f24565b6000806143d5898989896000613f95565b915091506143e882600014156024614f24565b816002141561441d57614405898989600087600001518b8f615b87565b50506017805460ff191660011790555061467d915050565b600061442989836138ad565b6001600160a01b038a166000908152602d602052604090205490915061444f9082614e8a565b6001600160a01b038a166000818152602d602090815260409182902093909355805191825291810184905280820183905290517f5d0c0019d3d45fadeb74eff9d2c9924d146d000ac6bcf3c28bf0ac3c9baa011a9181900360600190a16144ba898560800151616177565b86156144e957602084015184516144db918b916144d691614ee2565b615422565b6144e9896124fb8b856138ad565b6000876144fe576144f98961468f565b614507565b614507896132ca565b90507f2e1f85a64a2f22cf2f0c42584e7c919ed4abe8d53675cff0f62bf1e95a1c676f868c8c8c8c8a600001518b602001518c608001518d60a001518a604051808b81526020018a6001600160a01b03168152602001896001600160a01b03168152602001886001600160a01b0316815260200187151581526020018681526020018581526020018481526020018381526020018281526020019a505050505050505050505060405180910390a1871580156145c65750846020015183105b156145f45760208501516000906145dd9085614ee2565b90506145f28b6145ed8d846138ad565b6154a1565b505b876146075761460789866000015161622c565b6000868152602c60205260408120818155600181018290556002810182905560038101829055600481018290556005810182905560060155600a54614653908b906124fb9082906138ad565b6146698a6146638c600a546138ad565b89615a22565b50506017805460ff19166001179055505050505b50506001600055505050565b600f5481565b60048054601754604080516317e1d38560e11b81526001600160a01b03868116958201959095526001602482015260ff80841615156044830152610100909304909216151560648301525160009390921691632fc3a70a91608480820192602092909190829003018186803b15801561334357600080fd5b601c818154811061471457fe5b6000918252602090912001546001600160a01b0316905081565b614736614e6f565b6001600160a01b0381166000908152601d602052604090205461475d9060ff16600d614f24565b6001600160a01b03811660009081526023602052604090205460165461478291614ee2565b6016556001600160a01b0381166000908152601d60209081526040808320805460ff19908116909155601e835281842084905560238352818420849055601f8352818420849055602583528184208490558280528184208054821690556021909252909120805490911690556008546147fc906001614ee2565b6008556040516001600160a01b038216907f40c99fa230c73ea426e0fd7fce25e2f0627d8d5dca16c0f92387c9583d0de01d90600090a250565b61483e614e6f565b6001600160a01b038216600081815260306020908152604091829020849055815184815291517faf0bd2f15075ba3d6f77aac90d32686473de962c7d9b66f43bd123130a7f4aec9281900390910190a25050565b60296020526000908152604090205481565b6148ac614e6f565b601780548215156301000000810263ff000000199092169190911790915560408051918252517f53f0f07ea43dbe9cbfdb4cc3cf93b7ef7c85f4fb49d14c2507e5506aa82328e19181900360200190a150565b600680546001600160a01b03191633179055600180546149259160ff9091161590614f24565b60018054600380546001600160a01b03199081166001600160a01b039a8b1617909155600580548216988a16989098179097556004805490971695909716949094178555600a92835560149182556015556201000061010060ff19968716851761ff0019161762ff000019161783556207a8f06009556032600b55600c55601e600d819055600e55600f92909255601091909155617080601355601780549092161763ffffff0019169055565b60006149dc614e6f565b6001600160a01b0383166000908152602d602052604090205480614a0457600091505061192d565b6001600160a01b0384166000908152602d6020526040812055614a28848285615a22565b826001600160a01b0316846001600160a01b03167f5e110f8bc8a20b65dcc87f224bdf1cc039346e267118bae2739847f07321ffa8836040518082815260200191505060405180910390a39392505050565b601b6020526000908152604090205460ff1681565b6005546001600160a01b031681565b6003546001600160a01b031681565b600082614abc5750600061208c565b6001600160a01b0384166000908152601e6020526040902054613b59836118ba86600a85900a614dd7565b6001546040805163fbfded6d60e01b81526001600160a01b03858116600483015284811660248301529151600093630100000090049092169163fbfded6d9160448082019260209290919082900301818787803b158015614b4757600080fd5b505af1158015614b5b573d6000803e3d6000fd5b505050506040513d6020811015614b7157600080fd5b5051905080614b805750612ad5565b6001600160a01b0383166000908152602b6020526040902054614bcd57601354614bae90613b534282614e30565b6001600160a01b0384166000908152602b602052604090205550612ad5565b6013546001600160a01b0384166000908152602b60205260409020544291614bf59190614e8a565b1115614c015750612ad5565b6000614c0c84613a65565b6001600160a01b0385166000908152602a6020526040902054909150614c329082614e8a565b6001600160a01b0385166000908152602a6020526040902055601354614c5c90613b534282614e30565b6001600160a01b0385166000818152602b6020908152604080832094909455602a8152908390205483519283529082015281517fa146fc154e1913322e9817d49f0d5c37466c24326e15de10e739a948be815eab929181900390910190a150505050565b610e1081565b6001546040805163fdaf6ac360e01b81526001600160a01b038881166004830152878116602483015286811660448301528515156064830152608482018590529151600093630100000090049092169163fdaf6ac39160a480820192602092909190829003018186803b158015613e1457600080fd5b60316020908152600091825260409182902080548351601f600260001961010060018616150201909316929092049182018490048402810184019094528084529091830182828015614dcf5780601f10614da457610100808354040283529160200191614dcf565b820191906000526020600020905b815481529060010190602001808311614db257829003601f168201915b505050505081565b600082614de65750600061192d565b82820282848281614df357fe5b041461208c5760405162461bcd60e51b81526004018080602001828103825260218152602001806168b36021913960400191505060405180910390fd5b600061208c83836040518060400160405280601a815260200179536166654d6174683a206469766973696f6e206279207a65726f60301b815250616294565b600654614e88906001600160a01b031633146035614f24565b565b60008282018381101561208c576040805162461bcd60e51b815260206004820152601b60248201527a536166654d6174683a206164646974696f6e206f766572666c6f7760281b604482015290519081900360640190fd5b600061208c83836040518060400160405280601e81526020017f536166654d6174683a207375627472616374696f6e206f766572666c6f770000815250616336565b600081815260316020526040902082614fd05760405162461bcd60e51b8152602060048201908152825460026000196101006001841615020190911604602483018190529091829160449091019084908015614fc15780601f10614f9657610100808354040283529160200191614fc1565b820191906000526020600020905b815481529060010190602001808311614fa457829003601f168201915b50509250505060405180910390fd5b505050565b601854614fe157614e88565b614e886018543a11156037614f24565b336001600160a01b038216141561500757613efd565b6003546001600160a01b031633141561501f57613efd565b6001600160a01b0381166000908152601960209081526040808320338452909152902054613efd9060ff166029614f24565b80156150c957615076826001600160a01b0316846001600160a01b031614602a614f24565b6001600160a01b0383166000908152601d602052604090205461509d9060ff16602b614f24565b6001600160a01b03831660009081526020805260409020546150c49060ff1615602c614f24565b614fd0565b6001600160a01b0383166000908152601d60205260409020546150f09060ff16602d614f24565b6001600160a01b03831660009081526020805260409020546151169060ff16602e614f24565b6001600160a01b038216600090815260208052604090205461513d9060ff1615602f614f24565b6001600160a01b038216600090815260216020526040902054614fd09060ff166030614f24565b6000806151748989898989614cc6565b905060006151868a8a8a8a898961413c565b90506151928282614e8a565b915060006151a08a846138ad565b6001600160a01b038b166000908152602d60205260409020549091506151c69082614e8a565b6001600160a01b038b166000818152602d602090815260409182902093909355805191825291810185905280820183905290517f5d0c0019d3d45fadeb74eff9d2c9924d146d000ac6bcf3c28bf0ac3c9baa011a9181900360600190a150909998505050505050505050565b6001600160a01b03811660008181526022602090815260408083205481516370a0823160e01b8152306004820152915193949093859391926370a08231926024808301939192829003018186803b15801561528c57600080fd5b505afa1580156152a0573d6000803e3d6000fd5b505050506040513d60208110156152b657600080fd5b50516001600160a01b03851660009081526022602052604090208190559050611cfa8183614ee2565b816152f5576152f081156027614f24565b612ad5565b612ad5818310156028614f24565b6001600160a01b0382166000908152602760205260409020546153269082614e8a565b6001600160a01b03831660009081526027602081815260408084208590556026825290922054915261535b9111156034614f24565b604080516001600160a01b03841681526020810183905281517faa5649d82f5462be9d19b0f2b31a59b2259950a6076550bac9f3a1c07db9f66d929181900390910190a15050565b6001600160a01b0382166000908152602960205260409020546153c69082614e8a565b6001600160a01b03831660008181526029602090815260409182902093909355805191825291810183905281517fd9d4761f75e0d0103b5cbeab941eeb443d7a56a35b5baf2a0787c03f03f4e474929181900390910190a15050565b6001600160a01b0382166000908152602960205260409020546154459082614ee2565b6001600160a01b03831660008181526029602090815260409182902093909355805191825291810183905281517f34e07158b9db50df5613e591c44ea2ebc82834eff4a4dc3a46e000e608261d68929181900390910190a15050565b6001600160a01b0382166000908152602660205260409020546154c49082614e8a565b6001600160a01b03831660008181526026602090815260408083209490945583516370a0823160e01b8152306004820152935191936370a082319260248083019392829003018186803b15801561551a57600080fd5b505afa15801561552e573d6000803e3d6000fd5b505050506040513d602081101561554457600080fd5b50516001600160a01b038416600090815260266020526040902054909150615570908210156031614f24565b604080516001600160a01b03851681526020810184905281517f976177fbe09a15e5e43f848844963a42b41ef919ef17ff21a17a5421de8f4737929181900390910190a1505050565b604080518082018252601181527015985d5b1d0e881c1bdbdb105b5bdd5b9d607a1b6020808301919091526001600160a01b038516600090815260269091529190912054615608918390616336565b6001600160a01b0383166000908152602660209081526040808320849055602790915290205461563b9110156032614f24565b604080516001600160a01b03841681526020810183905281517f112726233fbeaeed0f5b1dba5cb0b2b81883dee49fb35ff99fd98ed9f6d31eb0929181900390910190a15050565b6001600160a01b0382166000908152602e60205260409020546156a69082614e8a565b6001600160a01b0383166000908152602e60209081526040808320939093556030905220548015614fd0576001600160a01b0383166000908152602e6020526040902054811015614fd0576040805162461bcd60e51b81526020600482015260116024820152705661756c743a206d61782073686f72747360781b604482015290519081900360640190fd5b604080518082018252828152600160208083018281526001600160a01b03871660008181526007845286902094518555905193909201805460ff1916931515939093179092558251848152925190927f02dd0697be46e764c3ba81094158781c31b235d03bb27a0daf1bdef0ec1084dd92908290030190a25050565b60175462010000900460ff1615614e8857336000908152601b6020526040902054614e889060ff166036614f24565b6001600160a01b038216600090815260246020526040902054818111615858576001600160a01b0383166000818152602460209081526040808320929092558151928352820183905280517fe1e812596aac93a06ecc4ca627014d18e30f5c33b825160cc9d5c0ba61e452279281900390910190a150612ad5565b6158628183614ee2565b6001600160a01b03841660008181526024602090815260409182902093909355805191825291810184905281517fe1e812596aac93a06ecc4ca627014d18e30f5c33b825160cc9d5c0ba61e45227929181900390910190a1505050565b6000816001600160a01b03166370a08231306040518263ffffffff1660e01b815260040180826001600160a01b0316815260200191505060206040518083038186803b15801561590e57600080fd5b505afa158015615922573d6000803e3d6000fd5b505050506040513d602081101561593857600080fd5b50516001600160a01b0390921660009081526022602052604090209190915550565b6000806159776127106118ba6159708287614ee2565b8790614dd7565b905060006159858583614ee2565b6001600160a01b0387166000908152602d60205260409020549091506159ab9082614e8a565b6001600160a01b0387166000908152602d60205260409020557f47cd9dda0e50ce30bcaaacd0488452b596221c07ac402a581cfae4d3933cac2b866159f081846118e0565b604080516001600160a01b0390931683526020830191909152818101849052519081900360600190a150949350505050565b615a366001600160a01b0384168284616125565b604080516370a0823160e01b815230600482015290516001600160a01b038516916370a08231916024808301926020929190829003018186803b158015615a7c57600080fd5b505afa158015615a90573d6000803e3d6000fd5b505050506040513d6020811015615aa657600080fd5b50516001600160a01b039093166000908152602260205260409020929092555050565b6001600160a01b038216600090815260246020526040902054615aec9082614e8a565b6001600160a01b0383166000908152602460209081526040808320939093556025905220548015615b3e576001600160a01b038316600090815260246020526040902054615b3e908210156033614f24565b604080516001600160a01b03851681526020810184905281517f64243679a443432e2293343b77d411ff6144370404618f00ca0d2025d9ca9882929181900390910190a1505050565b600154604080516381d11a2360e01b81526001600160a01b038a8116600483015289811660248301528881166044830152606482018890526084820187905285151560a483015284811660c4830152915160009363010000009004909216916381d11a239160e4808201928692909190829003018186803b158015615c0b57600080fd5b505afa158015615c1f573d6000803e3d6000fd5b50505050615c2d8787614ae7565b6000615c3b89898987611b78565b6000818152602c60205260409020805491925090615c5c901515601f614f24565b615c6e86826000015410156020614f24565b615c8087826001015410156021614f24565b600181015481546004830154600091615c9d916118ba908b614dd7565b6004840154909150615caf9082614ee2565b6004840155615cbe8b82616177565b50600080615cd08d8d8d8d8d8d616390565b855491935091508914615e7457615ce88c8c8a613c43565b60038501558354615cf9908a614ee2565b8085556001850154615d0b91906152df565b615d198d8d8d8b6001613f95565b50508715615d4657615d3c8c6124d4866001015486614ee290919063ffffffff16565b615d468c8a615422565b600088615d5b57615d568c61468f565b615d64565b615d648c6132ca565b90507f93d75d64d1f84fc6f430a64fc578bdd4c1e090e90ea2d51773e626d19de56d30868f8f8f8f8f8f88615d998c8c614ee2565b60408051998a526001600160a01b0398891660208b015296881689880152949096166060880152608087019290925260a0860152151560c085015260e084019290925261010083019190915251908190036101200190a18454600186015460028701546003880154600489015460058a0154604080518d81526020810197909752868101959095526060860193909352608085019190915260a084015260c083015260e08201839052517f20853733b590dce729d9f4628682ebd9a34d2354e72679e66f43a008fc03b773918190036101000190a15061605b565b8715615e8e57615e848c846153a3565b615e8e8c8a615422565b600088615ea357615e9e8c61468f565b615eac565b615eac8c6132ca565b90507f93d75d64d1f84fc6f430a64fc578bdd4c1e090e90ea2d51773e626d19de56d30868f8f8f8f8f8f88615ee18c8c614ee2565b60408051998a526001600160a01b0398891660208b015296881689880152949096166060880152608087019290925260a0860152151560c085015260e084019290925261010083019190915251908190036101200190a18454600186015460028701546003880154600489015460058a0154604080518d81526020810197909752868101959095526060860193909352608085019190915260a084015260c0830152517f73af1d417d82c240fdb6d319b34ad884487c6bf2845d98980cc52ad9171cb4559181900360e00190a1600160039054906101000a90046001600160a01b03166001600160a01b0316634c89b68d876040518263ffffffff1660e01b815260040180828152602001915050600060405180830381600087803b15801561600957600080fd5b505af115801561601d573d6000803e3d6000fd5b5050506000878152602c6020526040812081815560018101829055600281018290556003810182905560048101829055600581018290556006015550505b8761606a5761606a8b8a61622c565b81156160aa578715616084576160848c6124fb8e856138ad565b60006160908d836138ad565b905061609d8d828a615a22565b9550612874945050505050565b5060009c9b505050505050505050505050565b6001600160a01b0381166000908152602860209081526040808320546026909252909120541015613efd576040805162461bcd60e51b815260206004820152600d60248201526c2b30bab63a1d10313ab33332b960991b604482015290519081900360640190fd5b604080516001600160a01b038416602482015260448082018490528251808303909101815260649091019091526020810180516001600160e01b031663a9059cbb60e01b179052614fd090849061658a565b604080518082018252601b81527a5661756c743a20696e73756666696369656e74207265736572766560281b6020808301919091526001600160a01b0385166000908152602790915291909120546161d0918390616336565b6001600160a01b03831660008181526027602090815260409182902093909355805191825291810183905281517f533cb5ed32be6a90284e96b5747a1bfc2d38fdb5768a6b5f67ff7d62144ed67b929181900390910190a15050565b6001600160a01b0382166000908152602e60205260409020548082111561626c57506001600160a01b0382166000908152602e6020526040812055612ad5565b6162768183614ee2565b6001600160a01b0384166000908152602e6020526040902055505050565b600081836163205760405162461bcd60e51b81526004018080602001828103825283818151815260200191508051906020019080838360005b838110156162e55781810151838201526020016162cd565b50505050905090810190601f1680156163125780820380516001836020036101000a031916815260200191505b509250505060405180910390fd5b50600083858161632c57fe5b0495945050505050565b600081848411156163885760405162461bcd60e51b81526020600482018181528351602484015283519092839260449091019190850190808383600083156162e55781810151838201526020016162cd565b505050900390565b60008060006163a189898987611b78565b6000818152602c602052604081208054600382015493945090926163ce918d918d918d918b918d91615164565b90506000806000806163ef8d876000015488600201548d8a600601546128b8565b87549195508593509150616407906118ba8d84614dd7565b92505050600082801561641a5750600082115b1561644a575060058401805482019055808861644a57600061643c8e846138ad565b90506164488e826155b9565b505b821580156164585750600082115b1561649c57600185015461646c9083614ee2565b6001860155886164905760006164828e846138ad565b905061648e8e826154a1565b505b60058501805483900390555b8a156164c4576164ac818c614e8a565b60018601549091506164be908c614ee2565b60018601555b84548a14156164e75760018501546164dd908290614e8a565b6000600187015590505b8084811115616501576164fa8286614ee2565b9050616535565b60018601546165109086614ee2565b600187015589156165355760006165278f876138ad565b90506165338f826155b9565b505b60408051888152851515602082015280820185905290517f3ff41bdde87755b687ae83d0221a232b6be51a803330ed9661c1b5d0105e0d8a9181900360600190a1909e909d509b505050505050505050505050565b60606165df826040518060400160405280602081526020017f5361666545524332303a206c6f772d6c6576656c2063616c6c206661696c6564815250856001600160a01b031661663b9092919063ffffffff16565b805190915015614fd0578080602001905160208110156165fe57600080fd5b5051614fd05760405162461bcd60e51b815260040180806020018281038252602a8152602001806168d4602a913960400191505060405180910390fd5b6060611cfa84846000858561664f85616756565b6166a0576040805162461bcd60e51b815260206004820152601d60248201527f416464726573733a2063616c6c20746f206e6f6e2d636f6e7472616374000000604482015290519081900360640190fd5b60006060866001600160a01b031685876040518082805190602001908083835b602083106166df5780518252601f1990920191602091820191016166c0565b6001836020036101000a03801982511681845116808217855250505050505090500191505060006040518083038185875af1925050503d8060008114616741576040519150601f19603f3d011682016040523d82523d6000602084013e616746565b606091505b509150915061287482828661675c565b3b151590565b6060831561676b57508161208c565b82511561677b5782518084602001fd5b60405162461bcd60e51b81526020600482018181528451602484015284518593919283926044019190850190808383600083156162e55781810151838201526020016162cd565b828054600181600116156101000203166002900490600052602060002090601f016020900481019282601f106168035782800160ff19823516178555616830565b82800160010185558215616830579182015b82811115616830578235825591602001919060010190616815565b5061683c92915061687d565b5090565b6040518060e00160405280600081526020016000815260200160008152602001600081526020016000815260200160008152602001600081525090565b5b8082111561683c576000815560010161687e56fe5265656e7472616e637947756172643a207265656e7472616e742063616c6c00536166654d6174683a206d756c7469706c69636174696f6e206f766572666c6f775361666545524332303a204552433230206f7065726174696f6e20646964206e6f742073756363656564a26469706673582212206166ceb421e3b09cda58368a1aceb0e64ee449fe6574459d01f27ff864977cd564736f6c634300060c0033","linkReferences":{}},"methodIdentifiers":{"BASIS_POINTS_DIVISOR()":"126082cf","FUNDING_RATE_PRECISION()":"6be6026b","MAX_FEE_BASIS_POINTS()":"4befe2ca","MAX_FUNDING_RATE_FACTOR()":"8a39735a","MAX_LIQUIDATION_FEE_USD()":"07c58752","MIN_FUNDING_RATE_INTERVAL()":"fce28c10","MIN_LEVERAGE()":"34c1557d","PRICE_PRECISION()":"95082d25","USDG_DECIMALS()":"870d917c","acceptGov()":"7bc6729b","addRouter(address)":"24ca984e","adjustForDecimals(uint256,address,address)":"42152873","allWhitelistedTokens(uint256)":"e468baf0","allWhitelistedTokensLength()":"0842b076","approvedRouters(address,address)":"60922199","bufferAmounts(address)":"4a993ee9","buyUSDG(address,address)":"817bb857","cancelGovProposal(address)":"9c35b497","clearTokenConfig(address)":"e67f59a7","cumulativeFundingRates(address)":"c65bc7b1","decreasePosition(address,address,address,uint256,uint256,bool,address)":"82a08490","directPoolDeposit(address)":"5f7bc119","errorController()":"48f35cbb","errors(uint256)":"fed1a606","feeReserves(address)":"1ce9cb8f","fundingInterval()":"9849e412","fundingRateFactor()":"c4f718bf","getDelta(address,uint256,uint256,bool,uint256)":"5c07eaab","getEntryFundingRate(address,address,bool)":"b1cc53ab","getFeeBasisPoints(address,uint256,uint256,uint256,bool)":"c7e074c3","getFundingFee(address,address,address,bool,uint256,uint256)":"da76524c","getGlobalShortDelta(address)":"b364accb","getMaxPrice(address)":"e124e6d2","getMinPrice(address)":"81a612d6","getNextAveragePrice(address,uint256,uint256,bool,uint256,uint256,uint256)":"db97495f","getNextFundingRate(address)":"a93acac2","getNextGlobalShortAveragePrice(address,uint256,uint256)":"9d7432ca","getPosition(address,address,address,bool)":"4a3f088d","getPositionDelta(address,address,address,bool)":"45a6f370","getPositionFee(address,address,address,bool,uint256)":"fdaf6ac3","getPositionKey(address,address,address,bool)":"2d4b0576","getPositionLeverage(address,address,address,bool)":"51723e82","getRedemptionAmount(address,uint256)":"2c668ec1","getRedemptionCollateral(address)":"b136ca49","getRedemptionCollateralUsd(address)":"29ff9615","getTargetUsdgAmount(address)":"3a05dcc1","getUtilisation(address)":"04fef1db","globalShortAveragePrices(address)":"62749803","globalShortSizes(address)":"8a78daa8","gov()":"12d43a51","govProposals(address)":"8d0fedb0","guaranteedUsd(address)":"f07456ce","hasDynamicFees()":"9f392eb3","inManagerMode()":"9060b1ca","inPrivateLiquidationMode()":"181e210e","includeAmmPrice()":"ab08c1c6","increaseGlobalShortSize(address,uint256)":"6a6f3424","increasePosition(address,address,address,uint256,bool)":"48d91abf","initialize2(address,address,address,uint256,uint256,uint256)":"f1675a8b","isInitialized()":"392e53cd","isLeverageEnabled()":"3e72a262","isLiquidator(address)":"529a356f","isManager(address)":"f3ae2415","isSwapEnabled()":"351a964d","lastFundingTimes(address)":"d8f897c3","liquidatePosition(address,address,address,bool,address)":"de2ea948","liquidationFeeUsd()":"174d2694","marginFeeBasisPoints()":"318bc689","maxGasPrice()":"3de39c11","maxGlobalShortSizes(address)":"9698d25a","maxLeverage()":"ae3302c2","maxUsdgAmounts(address)":"ad1e4f8d","minProfitBasisPoints(address)":"88b1fbdf","minProfitTime()":"d9ac4225","mintBurnFeeBasisPoints()":"4d47b304","poolAmounts(address)":"52f55eed","positions(bytes32)":"514ea4bf","priceFeed()":"741bef1a","removeRouter(address)":"6ae0b154","reservedAmounts(address)":"c3c7b9e9","router()":"f887ea40","sellUSDG(address,address)":"711e6190","setBufferAmount(address,uint256)":"8585f4d2","setError(uint256,string)":"28e67be5","setErrorController(address)":"8f7b8404","setFees(uint256,uint256,uint256,uint256,uint256,uint256,uint256,uint256,bool)":"40eb3802","setFundingRate(uint256,uint256,uint256)":"8a27d468","setGov(address)":"cfad57a2","setGovWithDeadline(address,uint256)":"6bb22fd7","setInManagerMode(bool)":"24b0c04d","setInPrivateLiquidationMode(bool)":"f07bbf77","setIsLeverageEnabled(bool)":"7c2eb9f7","setIsSwapEnabled(bool)":"30455ede","setLiquidator(address,bool)":"4453a374","setManager(address,bool)":"a5e90eee","setMaxGasPrice(uint256)":"d2fa635e","setMaxGlobalShortSize(address,uint256)":"efa10a6e","setMaxLeverage(uint256)":"d3127e63","setPriceFeed(address)":"724e78da","setTokenConfig(address,uint256,uint256,uint256,uint256,bool,bool)":"3c5a6e35","setUsdgAmount(address,uint256)":"d66b000d","setVaultUtils(address)":"71089f4d","shortableTokens(address)":"db3555fb","stableFundingRateFactor()":"134ca63b","stableSwapFeeBasisPoints()":"df73a267","stableTaxBasisPoints()":"10eb56c2","stableTokens(address)":"42b60b03","swap(address,address,address)":"93316212","swapFeeBasisPoints()":"a22f2392","taxBasisPoints()":"7a210a2b","tokenBalances(address)":"523fba7f","tokenDecimals(address)":"8ee573ac","tokenToUsdMin(address,uint256)":"0a48d5a9","tokenWeights(address)":"ab2f3ad4","totalTokenWeights()":"dc8f5fac","updateCumulativeFundingRate(address,address)":"fbfded6d","upgradeVault(address,address,uint256)":"cea0c328","usdToToken(address,uint256,uint256)":"fa12dbc0","usdToTokenMax(address,uint256)":"a42ab3d2","usdToTokenMin(address,uint256)":"9899cd02","usdg()":"f5b91b7b","usdgAmounts(address)":"1aa4ace5","useSwapPricing()":"b06423f3","validateLiquidation(address,address,address,bool,bool)":"d54d5a9f","vaultUtils()":"6abbe0c8","whitelistedTokenCount()":"62287a32","whitelistedTokens(address)":"daf9c210","withdrawFees(address,address)":"f2555278"},"id":56}