{"abi":[{"type":"function","name":"BASIS_POINTS_DIVISOR","inputs":[],"outputs":[{"name":"","type":"uint256","internalType":"uint256"}],"stateMutability":"view"},{"type":"function","name":"FUNDING_RATE_PRECISION","inputs":[],"outputs":[{"name":"","type":"uint256","internalType":"uint256"}],"stateMutability":"view"},{"type":"function","name":"MAX_FEE_BASIS_POINTS","inputs":[],"outputs":[{"name":"","type":"uint256","internalType":"uint256"}],"stateMutability":"view"},{"type":"function","name":"MAX_FUNDING_RATE_FACTOR","inputs":[],"outputs":[{"name":"","type":"uint256","internalType":"uint256"}],"stateMutability":"view"},{"type":"function","name":"MAX_LIQUIDATION_FEE_USD","inputs":[],"outputs":[{"name":"","type":"uint256","internalType":"uint256"}],"stateMutability":"view"},{"type":"function","name":"MIN_FUNDING_RATE_INTERVAL","inputs":[],"outputs":[{"name":"","type":"uint256","internalType":"uint256"}],"stateMutability":"view"},{"type":"function","name":"MIN_LEVERAGE","inputs":[],"outputs":[{"name":"","type":"uint256","internalType":"uint256"}],"stateMutability":"view"},{"type":"function","name":"PRICE_PRECISION","inputs":[],"outputs":[{"name":"","type":"uint256","internalType":"uint256"}],"stateMutability":"view"},{"type":"function","name":"USDG_DECIMALS","inputs":[],"outputs":[{"name":"","type":"uint256","internalType":"uint256"}],"stateMutability":"view"},{"type":"function","name":"addRouter","inputs":[{"name":"_router","type":"address","internalType":"address"}],"outputs":[],"stateMutability":"nonpayable"},{"type":"function","name":"adjustForDecimals","inputs":[{"name":"_amount","type":"uint256","internalType":"uint256"},{"name":"_tokenDiv","type":"address","internalType":"address"},{"name":"_tokenMul","type":"address","internalType":"address"}],"outputs":[{"name":"","type":"uint256","internalType":"uint256"}],"stateMutability":"view"},{"type":"function","name":"allWhitelistedTokens","inputs":[{"name":"","type":"uint256","internalType":"uint256"}],"outputs":[{"name":"","type":"address","internalType":"address"}],"stateMutability":"view"},{"type":"function","name":"allWhitelistedTokensLength","inputs":[],"outputs":[{"name":"","type":"uint256","internalType":"uint256"}],"stateMutability":"view"},{"type":"function","name":"approvedRouters","inputs":[{"name":"","type":"address","internalType":"address"},{"name":"","type":"address","internalType":"address"}],"outputs":[{"name":"","type":"bool","internalType":"bool"}],"stateMutability":"view"},{"type":"function","name":"bufferAmounts","inputs":[{"name":"","type":"address","internalType":"address"}],"outputs":[{"name":"","type":"uint256","internalType":"uint256"}],"stateMutability":"view"},{"type":"function","name":"buyUSDG","inputs":[{"name":"_token","type":"address","internalType":"address"},{"name":"_receiver","type":"address","internalType":"address"}],"outputs":[{"name":"","type":"uint256","internalType":"uint256"}],"stateMutability":"nonpayable"},{"type":"function","name":"clearTokenConfig","inputs":[{"name":"_token","type":"address","internalType":"address"}],"outputs":[],"stateMutability":"nonpayable"},{"type":"function","name":"cumulativeFundingRates","inputs":[{"name":"","type":"address","internalType":"address"}],"outputs":[{"name":"","type":"uint256","internalType":"uint256"}],"stateMutability":"view"},{"type":"function","name":"decreasePosition","inputs":[{"name":"_account","type":"address","internalType":"address"},{"name":"_collateralToken","type":"address","internalType":"address"},{"name":"_indexToken","type":"address","internalType":"address"},{"name":"_collateralDelta","type":"uint256","internalType":"uint256"},{"name":"_sizeDelta","type":"uint256","internalType":"uint256"},{"name":"_isLong","type":"bool","internalType":"bool"},{"name":"_receiver","type":"address","internalType":"address"}],"outputs":[{"name":"","type":"uint256","internalType":"uint256"}],"stateMutability":"nonpayable"},{"type":"function","name":"directPoolDeposit","inputs":[{"name":"_token","type":"address","internalType":"address"}],"outputs":[],"stateMutability":"nonpayable"},{"type":"function","name":"errorController","inputs":[],"outputs":[{"name":"","type":"address","internalType":"address"}],"stateMutability":"view"},{"type":"function","name":"errors","inputs":[{"name":"","type":"uint256","internalType":"uint256"}],"outputs":[{"name":"","type":"string","internalType":"string"}],"stateMutability":"view"},{"type":"function","name":"feeReserves","inputs":[{"name":"","type":"address","internalType":"address"}],"outputs":[{"name":"","type":"uint256","internalType":"uint256"}],"stateMutability":"view"},{"type":"function","name":"fundingInterval","inputs":[],"outputs":[{"name":"","type":"uint256","internalType":"uint256"}],"stateMutability":"view"},{"type":"function","name":"fundingRateFactor","inputs":[],"outputs":[{"name":"","type":"uint256","internalType":"uint256"}],"stateMutability":"view"},{"type":"function","name":"getDelta","inputs":[{"name":"_indexToken","type":"address","internalType":"address"},{"name":"_size","type":"uint256","internalType":"uint256"},{"name":"_averagePrice","type":"uint256","internalType":"uint256"},{"name":"_isLong","type":"bool","internalType":"bool"},{"name":"_lastIncreasedTime","type":"uint256","internalType":"uint256"}],"outputs":[{"name":"","type":"bool","internalType":"bool"},{"name":"","type":"uint256","internalType":"uint256"}],"stateMutability":"view"},{"type":"function","name":"getEntryFundingRate","inputs":[{"name":"_collateralToken","type":"address","internalType":"address"},{"name":"_indexToken","type":"address","internalType":"address"},{"name":"_isLong","type":"bool","internalType":"bool"}],"outputs":[{"name":"","type":"uint256","internalType":"uint256"}],"stateMutability":"view"},{"type":"function","name":"getFeeBasisPoints","inputs":[{"name":"_token","type":"address","internalType":"address"},{"name":"_usdgDelta","type":"uint256","internalType":"uint256"},{"name":"_feeBasisPoints","type":"uint256","internalType":"uint256"},{"name":"_taxBasisPoints","type":"uint256","internalType":"uint256"},{"name":"_increment","type":"bool","internalType":"bool"}],"outputs":[{"name":"","type":"uint256","internalType":"uint256"}],"stateMutability":"view"},{"type":"function","name":"getFundingFee","inputs":[{"name":"_account","type":"address","internalType":"address"},{"name":"_collateralToken","type":"address","internalType":"address"},{"name":"_indexToken","type":"address","internalType":"address"},{"name":"_isLong","type":"bool","internalType":"bool"},{"name":"_size","type":"uint256","internalType":"uint256"},{"name":"_entryFundingRate","type":"uint256","internalType":"uint256"}],"outputs":[{"name":"","type":"uint256","internalType":"uint256"}],"stateMutability":"view"},{"type":"function","name":"getGlobalShortDelta","inputs":[{"name":"_token","type":"address","internalType":"address"}],"outputs":[{"name":"","type":"bool","internalType":"bool"},{"name":"","type":"uint256","internalType":"uint256"}],"stateMutability":"view"},{"type":"function","name":"getMaxPrice","inputs":[{"name":"_token","type":"address","internalType":"address"}],"outputs":[{"name":"","type":"uint256","internalType":"uint256"}],"stateMutability":"view"},{"type":"function","name":"getMinPrice","inputs":[{"name":"_token","type":"address","internalType":"address"}],"outputs":[{"name":"","type":"uint256","internalType":"uint256"}],"stateMutability":"view"},{"type":"function","name":"getNextAveragePrice","inputs":[{"name":"_indexToken","type":"address","internalType":"address"},{"name":"_size","type":"uint256","internalType":"uint256"},{"name":"_averagePrice","type":"uint256","internalType":"uint256"},{"name":"_isLong","type":"bool","internalType":"bool"},{"name":"_nextPrice","type":"uint256","internalType":"uint256"},{"name":"_sizeDelta","type":"uint256","internalType":"uint256"},{"name":"_lastIncreasedTime","type":"uint256","internalType":"uint256"}],"outputs":[{"name":"","type":"uint256","internalType":"uint256"}],"stateMutability":"view"},{"type":"function","name":"getNextFundingRate","inputs":[{"name":"_token","type":"address","internalType":"address"}],"outputs":[{"name":"","type":"uint256","internalType":"uint256"}],"stateMutability":"view"},{"type":"function","name":"getNextGlobalShortAveragePrice","inputs":[{"name":"_indexToken","type":"address","internalType":"address"},{"name":"_nextPrice","type":"uint256","internalType":"uint256"},{"name":"_sizeDelta","type":"uint256","internalType":"uint256"}],"outputs":[{"name":"","type":"uint256","internalType":"uint256"}],"stateMutability":"view"},{"type":"function","name":"getPosition","inputs":[{"name":"_account","type":"address","internalType":"address"},{"name":"_collateralToken","type":"address","internalType":"address"},{"name":"_indexToken","type":"address","internalType":"address"},{"name":"_isLong","type":"bool","internalType":"bool"}],"outputs":[{"name":"","type":"uint256","internalType":"uint256"},{"name":"","type":"uint256","internalType":"uint256"},{"name":"","type":"uint256","internalType":"uint256"},{"name":"","type":"uint256","internalType":"uint256"},{"name":"","type":"uint256","internalType":"uint256"},{"name":"","type":"uint256","internalType":"uint256"},{"name":"","type":"bool","internalType":"bool"},{"name":"","type":"uint256","internalType":"uint256"}],"stateMutability":"view"},{"type":"function","name":"getPositionDelta","inputs":[{"name":"_account","type":"address","internalType":"address"},{"name":"_collateralToken","type":"address","internalType":"address"},{"name":"_indexToken","type":"address","internalType":"address"},{"name":"_isLong","type":"bool","internalType":"bool"}],"outputs":[{"name":"","type":"bool","internalType":"bool"},{"name":"","type":"uint256","internalType":"uint256"}],"stateMutability":"view"},{"type":"function","name":"getPositionFee","inputs":[{"name":"_account","type":"address","internalType":"address"},{"name":"_collateralToken","type":"address","internalType":"address"},{"name":"_indexToken","type":"address","internalType":"address"},{"name":"_isLong","type":"bool","internalType":"bool"},{"name":"_sizeDelta","type":"uint256","internalType":"uint256"}],"outputs":[{"name":"","type":"uint256","internalType":"uint256"}],"stateMutability":"view"},{"type":"function","name":"getPositionKey","inputs":[{"name":"_account","type":"address","internalType":"address"},{"name":"_collateralToken","type":"address","internalType":"address"},{"name":"_indexToken","type":"address","internalType":"address"},{"name":"_isLong","type":"bool","internalType":"bool"}],"outputs":[{"name":"","type":"bytes32","internalType":"bytes32"}],"stateMutability":"pure"},{"type":"function","name":"getPositionLeverage","inputs":[{"name":"_account","type":"address","internalType":"address"},{"name":"_collateralToken","type":"address","internalType":"address"},{"name":"_indexToken","type":"address","internalType":"address"},{"name":"_isLong","type":"bool","internalType":"bool"}],"outputs":[{"name":"","type":"uint256","internalType":"uint256"}],"stateMutability":"view"},{"type":"function","name":"getRedemptionAmount","inputs":[{"name":"_token","type":"address","internalType":"address"},{"name":"_usdgAmount","type":"uint256","internalType":"uint256"}],"outputs":[{"name":"","type":"uint256","internalType":"uint256"}],"stateMutability":"view"},{"type":"function","name":"getRedemptionCollateral","inputs":[{"name":"_token","type":"address","internalType":"address"}],"outputs":[{"name":"","type":"uint256","internalType":"uint256"}],"stateMutability":"view"},{"type":"function","name":"getRedemptionCollateralUsd","inputs":[{"name":"_token","type":"address","internalType":"address"}],"outputs":[{"name":"","type":"uint256","internalType":"uint256"}],"stateMutability":"view"},{"type":"function","name":"getTargetUsdgAmount","inputs":[{"name":"_token","type":"address","internalType":"address"}],"outputs":[{"name":"","type":"uint256","internalType":"uint256"}],"stateMutability":"view"},{"type":"function","name":"getUtilisation","inputs":[{"name":"_token","type":"address","internalType":"address"}],"outputs":[{"name":"","type":"uint256","internalType":"uint256"}],"stateMutability":"view"},{"type":"function","name":"globalShortAveragePrices","inputs":[{"name":"","type":"address","internalType":"address"}],"outputs":[{"name":"","type":"uint256","internalType":"uint256"}],"stateMutability":"view"},{"type":"function","name":"globalShortSizes","inputs":[{"name":"","type":"address","internalType":"address"}],"outputs":[{"name":"","type":"uint256","internalType":"uint256"}],"stateMutability":"view"},{"type":"function","name":"gov","inputs":[],"outputs":[{"name":"","type":"address","internalType":"address"}],"stateMutability":"view"},{"type":"function","name":"guaranteedUsd","inputs":[{"name":"","type":"address","internalType":"address"}],"outputs":[{"name":"","type":"uint256","internalType":"uint256"}],"stateMutability":"view"},{"type":"function","name":"hasDynamicFees","inputs":[],"outputs":[{"name":"","type":"bool","internalType":"bool"}],"stateMutability":"view"},{"type":"function","name":"inManagerMode","inputs":[],"outputs":[{"name":"","type":"bool","internalType":"bool"}],"stateMutability":"view"},{"type":"function","name":"inPrivateLiquidationMode","inputs":[],"outputs":[{"name":"","type":"bool","internalType":"bool"}],"stateMutability":"view"},{"type":"function","name":"includeAmmPrice","inputs":[],"outputs":[{"name":"","type":"bool","internalType":"bool"}],"stateMutability":"view"},{"type":"function","name":"increaseGlobalShortSize","inputs":[{"name":"token","type":"address","internalType":"address"},{"name":"amount","type":"uint256","internalType":"uint256"}],"outputs":[],"stateMutability":"nonpayable"},{"type":"function","name":"increasePosition","inputs":[{"name":"_account","type":"address","internalType":"address"},{"name":"_collateralToken","type":"address","internalType":"address"},{"name":"_indexToken","type":"address","internalType":"address"},{"name":"_sizeDelta","type":"uint256","internalType":"uint256"},{"name":"_isLong","type":"bool","internalType":"bool"}],"outputs":[],"stateMutability":"nonpayable"},{"type":"function","name":"initialize2","inputs":[{"name":"_router","type":"address","internalType":"address"},{"name":"_usdg","type":"address","internalType":"address"},{"name":"_priceFeed","type":"address","internalType":"address"},{"name":"_liquidationFeeUsd","type":"uint256","internalType":"uint256"},{"name":"_fundingRateFactor","type":"uint256","internalType":"uint256"},{"name":"_stableFundingRateFactor","type":"uint256","internalType":"uint256"}],"outputs":[],"stateMutability":"nonpayable"},{"type":"function","name":"isInitialized","inputs":[],"outputs":[{"name":"","type":"bool","internalType":"bool"}],"stateMutability":"view"},{"type":"function","name":"isLeverageEnabled","inputs":[],"outputs":[{"name":"","type":"bool","internalType":"bool"}],"stateMutability":"view"},{"type":"function","name":"isLiquidator","inputs":[{"name":"","type":"address","internalType":"address"}],"outputs":[{"name":"","type":"bool","internalType":"bool"}],"stateMutability":"view"},{"type":"function","name":"isManager","inputs":[{"name":"","type":"address","internalType":"address"}],"outputs":[{"name":"","type":"bool","internalType":"bool"}],"stateMutability":"view"},{"type":"function","name":"isSwapEnabled","inputs":[],"outputs":[{"name":"","type":"bool","internalType":"bool"}],"stateMutability":"view"},{"type":"function","name":"lastFundingTimes","inputs":[{"name":"","type":"address","internalType":"address"}],"outputs":[{"name":"","type":"uint256","internalType":"uint256"}],"stateMutability":"view"},{"type":"function","name":"liquidatePosition","inputs":[{"name":"_account","type":"address","internalType":"address"},{"name":"_collateralToken","type":"address","internalType":"address"},{"name":"_indexToken","type":"address","internalType":"address"},{"name":"_isLong","type":"bool","internalType":"bool"},{"name":"_feeReceiver","type":"address","internalType":"address"}],"outputs":[],"stateMutability":"nonpayable"},{"type":"function","name":"liquidationFeeUsd","inputs":[],"outputs":[{"name":"","type":"uint256","internalType":"uint256"}],"stateMutability":"view"},{"type":"function","name":"marginFeeBasisPoints","inputs":[],"outputs":[{"name":"","type":"uint256","internalType":"uint256"}],"stateMutability":"view"},{"type":"function","name":"maxGasPrice","inputs":[],"outputs":[{"name":"","type":"uint256","internalType":"uint256"}],"stateMutability":"view"},{"type":"function","name":"maxGlobalShortSizes","inputs":[{"name":"","type":"address","internalType":"address"}],"outputs":[{"name":"","type":"uint256","internalType":"uint256"}],"stateMutability":"view"},{"type":"function","name":"maxLeverage","inputs":[],"outputs":[{"name":"","type":"uint256","internalType":"uint256"}],"stateMutability":"view"},{"type":"function","name":"maxUsdgAmounts","inputs":[{"name":"","type":"address","internalType":"address"}],"outputs":[{"name":"","type":"uint256","internalType":"uint256"}],"stateMutability":"view"},{"type":"function","name":"minProfitBasisPoints","inputs":[{"name":"","type":"address","internalType":"address"}],"outputs":[{"name":"","type":"uint256","internalType":"uint256"}],"stateMutability":"view"},{"type":"function","name":"minProfitTime","inputs":[],"outputs":[{"name":"","type":"uint256","internalType":"uint256"}],"stateMutability":"view"},{"type":"function","name":"mintBurnFeeBasisPoints","inputs":[],"outputs":[{"name":"","type":"uint256","internalType":"uint256"}],"stateMutability":"view"},{"type":"function","name":"poolAmounts","inputs":[{"name":"","type":"address","internalType":"address"}],"outputs":[{"name":"","type":"uint256","internalType":"uint256"}],"stateMutability":"view"},{"type":"function","name":"positions","inputs":[{"name":"","type":"bytes32","internalType":"bytes32"}],"outputs":[{"name":"size","type":"uint256","internalType":"uint256"},{"name":"collateral","type":"uint256","internalType":"uint256"},{"name":"averagePrice","type":"uint256","internalType":"uint256"},{"name":"entryFundingRate","type":"uint256","internalType":"uint256"},{"name":"reserveAmount","type":"uint256","internalType":"uint256"},{"name":"realisedPnl","type":"int256","internalType":"int256"},{"name":"lastIncreasedTime","type":"uint256","internalType":"uint256"}],"stateMutability":"view"},{"type":"function","name":"priceFeed","inputs":[],"outputs":[{"name":"","type":"address","internalType":"address"}],"stateMutability":"view"},{"type":"function","name":"removeRouter","inputs":[{"name":"_router","type":"address","internalType":"address"}],"outputs":[],"stateMutability":"nonpayable"},{"type":"function","name":"reservedAmounts","inputs":[{"name":"","type":"address","internalType":"address"}],"outputs":[{"name":"","type":"uint256","internalType":"uint256"}],"stateMutability":"view"},{"type":"function","name":"router","inputs":[],"outputs":[{"name":"","type":"address","internalType":"address"}],"stateMutability":"view"},{"type":"function","name":"sellUSDG","inputs":[{"name":"_token","type":"address","internalType":"address"},{"name":"_receiver","type":"address","internalType":"address"}],"outputs":[{"name":"","type":"uint256","internalType":"uint256"}],"stateMutability":"nonpayable"},{"type":"function","name":"setBufferAmount","inputs":[{"name":"_token","type":"address","internalType":"address"},{"name":"_amount","type":"uint256","internalType":"uint256"}],"outputs":[],"stateMutability":"nonpayable"},{"type":"function","name":"setError","inputs":[{"name":"_errorCode","type":"uint256","internalType":"uint256"},{"name":"_error","type":"string","internalType":"string"}],"outputs":[],"stateMutability":"nonpayable"},{"type":"function","name":"setErrorController","inputs":[{"name":"_errorController","type":"address","internalType":"address"}],"outputs":[],"stateMutability":"nonpayable"},{"type":"function","name":"setFees","inputs":[{"name":"_taxBasisPoints","type":"uint256","internalType":"uint256"},{"name":"_stableTaxBasisPoints","type":"uint256","internalType":"uint256"},{"name":"_mintBurnFeeBasisPoints","type":"uint256","internalType":"uint256"},{"name":"_swapFeeBasisPoints","type":"uint256","internalType":"uint256"},{"name":"_stableSwapFeeBasisPoints","type":"uint256","internalType":"uint256"},{"name":"_marginFeeBasisPoints","type":"uint256","internalType":"uint256"},{"name":"_liquidationFeeUsd","type":"uint256","internalType":"uint256"},{"name":"_minProfitTime","type":"uint256","internalType":"uint256"},{"name":"_hasDynamicFees","type":"bool","internalType":"bool"}],"outputs":[],"stateMutability":"nonpayable"},{"type":"function","name":"setFundingRate","inputs":[{"name":"_fundingInterval","type":"uint256","internalType":"uint256"},{"name":"_fundingRateFactor","type":"uint256","internalType":"uint256"},{"name":"_stableFundingRateFactor","type":"uint256","internalType":"uint256"}],"outputs":[],"stateMutability":"nonpayable"},{"type":"function","name":"setGov","inputs":[{"name":"_gov","type":"address","internalType":"address"}],"outputs":[],"stateMutability":"nonpayable"},{"type":"function","name":"setInManagerMode","inputs":[{"name":"_inManagerMode","type":"bool","internalType":"bool"}],"outputs":[],"stateMutability":"nonpayable"},{"type":"function","name":"setInPrivateLiquidationMode","inputs":[{"name":"_inPrivateLiquidationMode","type":"bool","internalType":"bool"}],"outputs":[],"stateMutability":"nonpayable"},{"type":"function","name":"setIsLeverageEnabled","inputs":[{"name":"_isLeverageEnabled","type":"bool","internalType":"bool"}],"outputs":[],"stateMutability":"nonpayable"},{"type":"function","name":"setIsSwapEnabled","inputs":[{"name":"_isSwapEnabled","type":"bool","internalType":"bool"}],"outputs":[],"stateMutability":"nonpayable"},{"type":"function","name":"setLiquidator","inputs":[{"name":"_liquidator","type":"address","internalType":"address"},{"name":"_isActive","type":"bool","internalType":"bool"}],"outputs":[],"stateMutability":"nonpayable"},{"type":"function","name":"setManager","inputs":[{"name":"_manager","type":"address","internalType":"address"},{"name":"_isManager","type":"bool","internalType":"bool"}],"outputs":[],"stateMutability":"nonpayable"},{"type":"function","name":"setMaxGasPrice","inputs":[{"name":"_maxGasPrice","type":"uint256","internalType":"uint256"}],"outputs":[],"stateMutability":"nonpayable"},{"type":"function","name":"setMaxGlobalShortSize","inputs":[{"name":"_token","type":"address","internalType":"address"},{"name":"_amount","type":"uint256","internalType":"uint256"}],"outputs":[],"stateMutability":"nonpayable"},{"type":"function","name":"setMaxLeverage","inputs":[{"name":"_maxLeverage","type":"uint256","internalType":"uint256"}],"outputs":[],"stateMutability":"nonpayable"},{"type":"function","name":"setPriceFeed","inputs":[{"name":"_priceFeed","type":"address","internalType":"address"}],"outputs":[],"stateMutability":"nonpayable"},{"type":"function","name":"setTokenConfig","inputs":[{"name":"_token","type":"address","internalType":"address"},{"name":"_tokenDecimals","type":"uint256","internalType":"uint256"},{"name":"_tokenWeight","type":"uint256","internalType":"uint256"},{"name":"_minProfitBps","type":"uint256","internalType":"uint256"},{"name":"_maxUsdgAmount","type":"uint256","internalType":"uint256"},{"name":"_isStable","type":"bool","internalType":"bool"},{"name":"_isShortable","type":"bool","internalType":"bool"}],"outputs":[],"stateMutability":"nonpayable"},{"type":"function","name":"setUsdgAmount","inputs":[{"name":"_token","type":"address","internalType":"address"},{"name":"_amount","type":"uint256","internalType":"uint256"}],"outputs":[],"stateMutability":"nonpayable"},{"type":"function","name":"setVaultUtils","inputs":[{"name":"_vaultUtils","type":"address","internalType":"contract IVaultUtils"}],"outputs":[],"stateMutability":"nonpayable"},{"type":"function","name":"shortableTokens","inputs":[{"name":"","type":"address","internalType":"address"}],"outputs":[{"name":"","type":"bool","internalType":"bool"}],"stateMutability":"view"},{"type":"function","name":"stableFundingRateFactor","inputs":[],"outputs":[{"name":"","type":"uint256","internalType":"uint256"}],"stateMutability":"view"},{"type":"function","name":"stableSwapFeeBasisPoints","inputs":[],"outputs":[{"name":"","type":"uint256","internalType":"uint256"}],"stateMutability":"view"},{"type":"function","name":"stableTaxBasisPoints","inputs":[],"outputs":[{"name":"","type":"uint256","internalType":"uint256"}],"stateMutability":"view"},{"type":"function","name":"stableTokens","inputs":[{"name":"","type":"address","internalType":"address"}],"outputs":[{"name":"","type":"bool","internalType":"bool"}],"stateMutability":"view"},{"type":"function","name":"swap","inputs":[{"name":"_tokenIn","type":"address","internalType":"address"},{"name":"_tokenOut","type":"address","internalType":"address"},{"name":"_receiver","type":"address","internalType":"address"}],"outputs":[{"name":"","type":"uint256","internalType":"uint256"}],"stateMutability":"nonpayable"},{"type":"function","name":"swapFeeBasisPoints","inputs":[],"outputs":[{"name":"","type":"uint256","internalType":"uint256"}],"stateMutability":"view"},{"type":"function","name":"taxBasisPoints","inputs":[],"outputs":[{"name":"","type":"uint256","internalType":"uint256"}],"stateMutability":"view"},{"type":"function","name":"tokenBalances","inputs":[{"name":"","type":"address","internalType":"address"}],"outputs":[{"name":"","type":"uint256","internalType":"uint256"}],"stateMutability":"view"},{"type":"function","name":"tokenDecimals","inputs":[{"name":"","type":"address","internalType":"address"}],"outputs":[{"name":"","type":"uint256","internalType":"uint256"}],"stateMutability":"view"},{"type":"function","name":"tokenToUsdMin","inputs":[{"name":"_token","type":"address","internalType":"address"},{"name":"_tokenAmount","type":"uint256","internalType":"uint256"}],"outputs":[{"name":"","type":"uint256","internalType":"uint256"}],"stateMutability":"view"},{"type":"function","name":"tokenWeights","inputs":[{"name":"","type":"address","internalType":"address"}],"outputs":[{"name":"","type":"uint256","internalType":"uint256"}],"stateMutability":"view"},{"type":"function","name":"totalTokenWeights","inputs":[],"outputs":[{"name":"","type":"uint256","internalType":"uint256"}],"stateMutability":"view"},{"type":"function","name":"updateCumulativeFundingRate","inputs":[{"name":"_collateralToken","type":"address","internalType":"address"},{"name":"_indexToken","type":"address","internalType":"address"}],"outputs":[],"stateMutability":"nonpayable"},{"type":"function","name":"upgradeVault","inputs":[{"name":"_newVault","type":"address","internalType":"address"},{"name":"_token","type":"address","internalType":"address"},{"name":"_amount","type":"uint256","internalType":"uint256"}],"outputs":[],"stateMutability":"nonpayable"},{"type":"function","name":"usdToToken","inputs":[{"name":"_token","type":"address","internalType":"address"},{"name":"_usdAmount","type":"uint256","internalType":"uint256"},{"name":"_price","type":"uint256","internalType":"uint256"}],"outputs":[{"name":"","type":"uint256","internalType":"uint256"}],"stateMutability":"view"},{"type":"function","name":"usdToTokenMax","inputs":[{"name":"_token","type":"address","internalType":"address"},{"name":"_usdAmount","type":"uint256","internalType":"uint256"}],"outputs":[{"name":"","type":"uint256","internalType":"uint256"}],"stateMutability":"view"},{"type":"function","name":"usdToTokenMin","inputs":[{"name":"_token","type":"address","internalType":"address"},{"name":"_usdAmount","type":"uint256","internalType":"uint256"}],"outputs":[{"name":"","type":"uint256","internalType":"uint256"}],"stateMutability":"view"},{"type":"function","name":"usdg","inputs":[],"outputs":[{"name":"","type":"address","internalType":"address"}],"stateMutability":"view"},{"type":"function","name":"usdgAmounts","inputs":[{"name":"","type":"address","internalType":"address"}],"outputs":[{"name":"","type":"uint256","internalType":"uint256"}],"stateMutability":"view"},{"type":"function","name":"useSwapPricing","inputs":[],"outputs":[{"name":"","type":"bool","internalType":"bool"}],"stateMutability":"view"},{"type":"function","name":"validateLiquidation","inputs":[{"name":"_account","type":"address","internalType":"address"},{"name":"_collateralToken","type":"address","internalType":"address"},{"name":"_indexToken","type":"address","internalType":"address"},{"name":"_isLong","type":"bool","internalType":"bool"},{"name":"_raise","type":"bool","internalType":"bool"}],"outputs":[{"name":"","type":"uint256","internalType":"uint256"},{"name":"","type":"uint256","internalType":"uint256"}],"stateMutability":"view"},{"type":"function","name":"vaultUtils","inputs":[],"outputs":[{"name":"","type":"address","internalType":"contract IVaultUtils"}],"stateMutability":"view"},{"type":"function","name":"whitelistedTokenCount","inputs":[],"outputs":[{"name":"","type":"uint256","internalType":"uint256"}],"stateMutability":"view"},{"type":"function","name":"whitelistedTokens","inputs":[{"name":"","type":"address","internalType":"address"}],"outputs":[{"name":"","type":"bool","internalType":"bool"}],"stateMutability":"view"},{"type":"function","name":"withdrawFees","inputs":[{"name":"_token","type":"address","internalType":"address"},{"name":"_receiver","type":"address","internalType":"address"}],"outputs":[{"name":"","type":"uint256","internalType":"uint256"}],"stateMutability":"nonpayable"},{"type":"event","name":"BuyUSDG","inputs":[{"name":"account","type":"address","indexed":false,"internalType":"address"},{"name":"token","type":"address","indexed":false,"internalType":"address"},{"name":"tokenAmount","type":"uint256","indexed":false,"internalType":"uint256"},{"name":"usdgAmount","type":"uint256","indexed":false,"internalType":"uint256"},{"name":"feeBasisPoints","type":"uint256","indexed":false,"internalType":"uint256"}],"anonymous":false},{"type":"event","name":"ClosePosition","inputs":[{"name":"key","type":"bytes32","indexed":false,"internalType":"bytes32"},{"name":"size","type":"uint256","indexed":false,"internalType":"uint256"},{"name":"collateral","type":"uint256","indexed":false,"internalType":"uint256"},{"name":"averagePrice","type":"uint256","indexed":false,"internalType":"uint256"},{"name":"entryFundingRate","type":"uint256","indexed":false,"internalType":"uint256"},{"name":"reserveAmount","type":"uint256","indexed":false,"internalType":"uint256"},{"name":"realisedPnl","type":"int256","indexed":false,"internalType":"int256"}],"anonymous":false},{"type":"event","name":"CollectMarginFees","inputs":[{"name":"token","type":"address","indexed":false,"internalType":"address"},{"name":"feeUsd","type":"uint256","indexed":false,"internalType":"uint256"},{"name":"feeTokens","type":"uint256","indexed":false,"internalType":"uint256"}],"anonymous":false},{"type":"event","name":"CollectSwapFees","inputs":[{"name":"token","type":"address","indexed":false,"internalType":"address"},{"name":"feeUsd","type":"uint256","indexed":false,"internalType":"uint256"},{"name":"feeTokens","type":"uint256","indexed":false,"internalType":"uint256"}],"anonymous":false},{"type":"event","name":"DecreaseGuaranteedUsd","inputs":[{"name":"token","type":"address","indexed":false,"internalType":"address"},{"name":"amount","type":"uint256","indexed":false,"internalType":"uint256"}],"anonymous":false},{"type":"event","name":"DecreasePoolAmount","inputs":[{"name":"token","type":"address","indexed":false,"internalType":"address"},{"name":"amount","type":"uint256","indexed":false,"internalType":"uint256"}],"anonymous":false},{"type":"event","name":"DecreasePosition","inputs":[{"name":"key","type":"bytes32","indexed":false,"internalType":"bytes32"},{"name":"account","type":"address","indexed":false,"internalType":"address"},{"name":"collateralToken","type":"address","indexed":false,"internalType":"address"},{"name":"indexToken","type":"address","indexed":false,"internalType":"address"},{"name":"collateralDelta","type":"uint256","indexed":false,"internalType":"uint256"},{"name":"sizeDelta","type":"uint256","indexed":false,"internalType":"uint256"},{"name":"isLong","type":"bool","indexed":false,"internalType":"bool"},{"name":"price","type":"uint256","indexed":false,"internalType":"uint256"},{"name":"fee","type":"uint256","indexed":false,"internalType":"uint256"}],"anonymous":false},{"type":"event","name":"DecreaseReservedAmount","inputs":[{"name":"token","type":"address","indexed":false,"internalType":"address"},{"name":"amount","type":"uint256","indexed":false,"internalType":"uint256"}],"anonymous":false},{"type":"event","name":"DecreaseUsdgAmount","inputs":[{"name":"token","type":"address","indexed":false,"internalType":"address"},{"name":"amount","type":"uint256","indexed":false,"internalType":"uint256"}],"anonymous":false},{"type":"event","name":"DirectPoolDeposit","inputs":[{"name":"token","type":"address","indexed":false,"internalType":"address"},{"name":"amount","type":"uint256","indexed":false,"internalType":"uint256"}],"anonymous":false},{"type":"event","name":"IncreaseGuaranteedUsd","inputs":[{"name":"token","type":"address","indexed":false,"internalType":"address"},{"name":"amount","type":"uint256","indexed":false,"internalType":"uint256"}],"anonymous":false},{"type":"event","name":"IncreasePoolAmount","inputs":[{"name":"token","type":"address","indexed":false,"internalType":"address"},{"name":"amount","type":"uint256","indexed":false,"internalType":"uint256"}],"anonymous":false},{"type":"event","name":"IncreasePosition","inputs":[{"name":"key","type":"bytes32","indexed":false,"internalType":"bytes32"},{"name":"account","type":"address","indexed":false,"internalType":"address"},{"name":"collateralToken","type":"address","indexed":false,"internalType":"address"},{"name":"indexToken","type":"address","indexed":false,"internalType":"address"},{"name":"collateralDelta","type":"uint256","indexed":false,"internalType":"uint256"},{"name":"sizeDelta","type":"uint256","indexed":false,"internalType":"uint256"},{"name":"isLong","type":"bool","indexed":false,"internalType":"bool"},{"name":"price","type":"uint256","indexed":false,"internalType":"uint256"},{"name":"fee","type":"uint256","indexed":false,"internalType":"uint256"}],"anonymous":false},{"type":"event","name":"IncreaseReservedAmount","inputs":[{"name":"token","type":"address","indexed":false,"internalType":"address"},{"name":"amount","type":"uint256","indexed":false,"internalType":"uint256"}],"anonymous":false},{"type":"event","name":"IncreaseUsdgAmount","inputs":[{"name":"token","type":"address","indexed":false,"internalType":"address"},{"name":"amount","type":"uint256","indexed":false,"internalType":"uint256"}],"anonymous":false},{"type":"event","name":"LiquidatePosition","inputs":[{"name":"key","type":"bytes32","indexed":false,"internalType":"bytes32"},{"name":"account","type":"address","indexed":false,"internalType":"address"},{"name":"collateralToken","type":"address","indexed":false,"internalType":"address"},{"name":"indexToken","type":"address","indexed":false,"internalType":"address"},{"name":"isLong","type":"bool","indexed":false,"internalType":"bool"},{"name":"size","type":"uint256","indexed":false,"internalType":"uint256"},{"name":"collateral","type":"uint256","indexed":false,"internalType":"uint256"},{"name":"reserveAmount","type":"uint256","indexed":false,"internalType":"uint256"},{"name":"realisedPnl","type":"int256","indexed":false,"internalType":"int256"},{"name":"markPrice","type":"uint256","indexed":false,"internalType":"uint256"}],"anonymous":false},{"type":"event","name":"SellUSDG","inputs":[{"name":"account","type":"address","indexed":false,"internalType":"address"},{"name":"token","type":"address","indexed":false,"internalType":"address"},{"name":"usdgAmount","type":"uint256","indexed":false,"internalType":"uint256"},{"name":"tokenAmount","type":"uint256","indexed":false,"internalType":"uint256"},{"name":"feeBasisPoints","type":"uint256","indexed":false,"internalType":"uint256"}],"anonymous":false},{"type":"event","name":"Swap","inputs":[{"name":"account","type":"address","indexed":false,"internalType":"address"},{"name":"tokenIn","type":"address","indexed":false,"internalType":"address"},{"name":"tokenOut","type":"address","indexed":false,"internalType":"address"},{"name":"amountIn","type":"uint256","indexed":false,"internalType":"uint256"},{"name":"amountOut","type":"uint256","indexed":false,"internalType":"uint256"},{"name":"amountOutAfterFees","type":"uint256","indexed":false,"internalType":"uint256"},{"name":"feeBasisPoints","type":"uint256","indexed":false,"internalType":"uint256"}],"anonymous":false},{"type":"event","name":"UpdateFundingRate","inputs":[{"name":"token","type":"address","indexed":false,"internalType":"address"},{"name":"fundingRate","type":"uint256","indexed":false,"internalType":"uint256"}],"anonymous":false},{"type":"event","name":"UpdatePnl","inputs":[{"name":"key","type":"bytes32","indexed":false,"internalType":"bytes32"},{"name":"hasProfit","type":"bool","indexed":false,"internalType":"bool"},{"name":"delta","type":"uint256","indexed":false,"internalType":"uint256"}],"anonymous":false},{"type":"event","name":"UpdatePosition","inputs":[{"name":"key","type":"bytes32","indexed":false,"internalType":"bytes32"},{"name":"size","type":"uint256","indexed":false,"internalType":"uint256"},{"name":"collateral","type":"uint256","indexed":false,"internalType":"uint256"},{"name":"averagePrice","type":"uint256","indexed":false,"internalType":"uint256"},{"name":"entryFundingRate","type":"uint256","indexed":false,"internalType":"uint256"},{"name":"reserveAmount","type":"uint256","indexed":false,"internalType":"uint256"},{"name":"realisedPnl","type":"int256","indexed":false,"internalType":"int256"},{"name":"markPrice","type":"uint256","indexed":false,"internalType":"uint256"}],"anonymous":false}],"bytecode":{"object":"0x608060405234801561001057600080fd5b5061602680620000216000396000f3fe608060405234801561001057600080fd5b50600436106105a45760003560e01c8063870d917c116102e9578063cea0c3281161018f578063cea0c32814611254578063cfad57a21461128a578063d2fa635e146112b0578063d3127e63146112cd578063d54d5a9f146112ea578063d66b000d14611349578063d8f897c314611375578063d9ac42251461139b578063da76524c146113a3578063daf9c210146113ed578063db3555fb14611413578063db97495f14611439578063dc8f5fac14611485578063de2ea9481461148d578063df73a267146114d5578063e124e6d2146114dd578063e468baf014611503578063e67f59a714611520578063efa10a6e14611546578063f07456ce14611572578063f07bbf7714611598578063f1675a8b146115b7578063f2555278146115ff578063f3ae24151461162d578063f5b91b7b14611653578063f887ea401461165b578063fa12dbc014611663578063fbfded6d14611695578063fce28c10146116c3578063fdaf6ac3146116cb578063fed1a6061461170f576105a4565b8063870d917c14610eab57806388b1fbdf14610eb35780638a27d46814610ed95780638a39735a146106255780638a78daa814610f025780638ee573ac14610f285780638f7b840414610f4e5780639060b1ca14610f745780639331621214610f7c57806395082d2514610fb45780639698d25a14610fbc5780639849e41214610fe25780639899cd0214610fea5780639d7432ca146110165780639f392eb314611048578063a22f239214611050578063a42ab3d214611058578063a5e90eee14611084578063a93acac2146110b2578063ab08c1c6146110d8578063ab2f3ad4146110e0578063ad1e4f8d14611106578063ae3302c21461112c578063b06423f314611134578063b136ca491461113c578063b1cc53ab14611162578063b364accb1461119a578063c3c7b9e9146111c0578063c4f718bf146111e6578063c65bc7b1146111ee578063c7e074c314611214576105a4565b806345a6f3701161044e57806345a6f370146109a957806348d91abf14610a0257806348f35cbb14610a465780634a3f088d14610a4e5780634a993ee914610acf5780634befe2ca14610af55780634d47b30414610afd578063514ea4bf14610b0557806351723e8214610b5a578063523fba7f14610b98578063529a356f14610bbe57806352f55eed14610be45780635c07eaab14610c0a5780635f7bc11914610c4a5780636092219914610c7057806362287a3214610c9e5780636274980314610ca65780636a6f342414610ccc5780636abbe0c814610cf85780636ae0b15414610d005780636be6026b14610d2657806371089f4d14610d2e578063711e619014610d54578063724e78da14610d82578063741bef1a14610da85780637a210a2b14610db05780637c2eb9f714610db8578063817bb85714610dd757806381a612d614610e0557806382a0849014610e2b5780638585f4d214610e7f576105a4565b806304fef1db146105a957806307c58752146105e15780630842b076146105e95780630a48d5a9146105f157806310eb56c21461061d578063126082cf1461062557806312d43a511461062d578063134ca63b14610651578063174d269414610659578063181e210e146106615780631aa4ace51461067d5780631ce9cb8f146106a357806324b0c04d146106c957806324ca984e146106ea57806328e67be51461071057806329ff9615146107855780632c668ec1146107ab5780632d4b0576146107d757806330455ede14610815578063318bc6891461083457806334c1557d14610625578063351a964d1461083c578063392e53cd146108445780633a05dcc11461084c5780633c5a6e35146108725780633de39c11146108c05780633e72a262146108c857806340eb3802146108d0578063421528731461092157806342b60b03146109555780634453a3741461097b575b600080fd5b6105cf600480360360208110156105bf57600080fd5b50356001600160a01b03166117a1565b60408051918252519081900360200190f35b6105cf611804565b6105cf611815565b6105cf6004803603604081101561060757600080fd5b506001600160a01b03813516906020013561181b565b6105cf61186e565b6105cf611874565b61063561187a565b604080516001600160a01b039092168252519081900360200190f35b6105cf611889565b6105cf61188f565b610669611895565b604080519115158252519081900360200190f35b6105cf6004803603602081101561069357600080fd5b50356001600160a01b03166118a5565b6105cf600480360360208110156106b957600080fd5b50356001600160a01b03166118b7565b6106e8600480360360208110156106df57600080fd5b503515156118c9565b005b6106e86004803603602081101561070057600080fd5b50356001600160a01b03166118ed565b6106e86004803603604081101561072657600080fd5b81359190810190604081016020820135600160201b81111561074757600080fd5b82018360208201111561075957600080fd5b803590602001918460018302840111600160201b8311171561077a57600080fd5b50909250905061191e565b6105cf6004803603602081101561079b57600080fd5b50356001600160a01b031661199c565b6105cf600480360360408110156107c157600080fd5b506001600160a01b0381351690602001356119b0565b6105cf600480360360808110156107ed57600080fd5b506001600160a01b0381358116916020810135821691604082013516906060013515156119f5565b6106e86004803603602081101561082b57600080fd5b50351515611a4b565b6105cf611a6d565b610669611a73565b610669611a81565b6105cf6004803603602081101561086257600080fd5b50356001600160a01b0316611a8a565b6106e8600480360360e081101561088857600080fd5b506001600160a01b038135169060208101359060408101359060608101359060808101359060a081013515159060c001351515611b4a565b6105cf611c8c565b610669611c92565b6106e860048036036101208110156108e757600080fd5b5080359060208101359060408101359060608101359060808101359060a08101359060c08101359060e08101359061010001351515611ca1565b6105cf6004803603606081101561093757600080fd5b508035906001600160a01b0360208201358116916040013516611ce0565b6106696004803603602081101561096b57600080fd5b50356001600160a01b0316611d82565b6106e86004803603604081101561099157600080fd5b506001600160a01b0381351690602001351515611d97565b6109e7600480360360808110156109bf57600080fd5b506001600160a01b038135811691602081013582169160408201351690606001351515611dca565b60408051921515835260208301919091528051918290030190f35b6106e8600480360360a0811015610a1857600080fd5b506001600160a01b038135811691602081013582169160408201351690606081013590608001351515611e68565b610635612334565b610a8c60048036036080811015610a6457600080fd5b506001600160a01b038135811691602081013582169160408201351690606001351515612343565b604080519889526020890197909752878701959095526060870193909352608086019190915260a0850152151560c084015260e083015251908190036101000190f35b6105cf60048036036020811015610ae557600080fd5b50356001600160a01b0316612439565b6105cf61244b565b6105cf612451565b610b2260048036036020811015610b1b57600080fd5b5035612457565b604080519788526020880196909652868601949094526060860192909252608085015260a084015260c0830152519081900360e00190f35b6105cf60048036036080811015610b7057600080fd5b506001600160a01b038135811691602081013582169160408201351690606001351515612494565b6105cf60048036036020811015610bae57600080fd5b50356001600160a01b031661253a565b61066960048036036020811015610bd457600080fd5b50356001600160a01b031661254c565b6105cf60048036036020811015610bfa57600080fd5b50356001600160a01b0316612561565b6109e7600480360360a0811015610c2057600080fd5b506001600160a01b0381351690602081013590604081013590606081013515159060800135612573565b6106e860048036036020811015610c6057600080fd5b50356001600160a01b031661266b565b61066960048036036040811015610c8657600080fd5b506001600160a01b038135811691602001351661274e565b6105cf61276e565b6105cf60048036036020811015610cbc57600080fd5b50356001600160a01b0316612774565b6106e860048036036040811015610ce257600080fd5b506001600160a01b038135169060200135612786565b610635612794565b6106e860048036036020811015610d1657600080fd5b50356001600160a01b03166127aa565b6105cf6127d8565b6106e860048036036020811015610d4457600080fd5b50356001600160a01b03166127df565b6105cf60048036036040811015610d6a57600080fd5b506001600160a01b0381358116916020013516612813565b6106e860048036036020811015610d9857600080fd5b50356001600160a01b0316612aa7565b610635612ad1565b6105cf612ae0565b6106e860048036036020811015610dce57600080fd5b50351515612ae6565b6105cf60048036036040811015610ded57600080fd5b506001600160a01b0381358116916020013516612b0a565b6105cf60048036036020811015610e1b57600080fd5b50356001600160a01b0316612dda565b6105cf600480360360e0811015610e4157600080fd5b506001600160a01b0381358116916020810135821691604082013581169160608101359160808201359160a081013515159160c09091013516612e85565b6106e860048036036040811015610e9557600080fd5b506001600160a01b038135169060200135612f03565b6105cf612f27565b6105cf60048036036020811015610ec957600080fd5b50356001600160a01b0316612f2c565b6106e860048036036060811015610eef57600080fd5b5080359060208101359060400135612f3e565b6105cf60048036036020811015610f1857600080fd5b50356001600160a01b0316612f84565b6105cf60048036036020811015610f3e57600080fd5b50356001600160a01b0316612f96565b6106e860048036036020811015610f6457600080fd5b50356001600160a01b0316612fa8565b610669612fd2565b6105cf60048036036060811015610f9257600080fd5b506001600160a01b038135811691602081013582169160409091013516612fe1565b6105cf6132c9565b6105cf60048036036020811015610fd257600080fd5b50356001600160a01b03166132d9565b6105cf6132eb565b6105cf6004803603604081101561100057600080fd5b506001600160a01b0381351690602001356132f1565b6105cf6004803603606081101561102c57600080fd5b506001600160a01b038135169060208101359060400135613313565b6106696133bc565b6105cf6133c5565b6105cf6004803603604081101561106e57600080fd5b506001600160a01b0381351690602001356133cb565b6106e86004803603604081101561109a57600080fd5b506001600160a01b03813516906020013515156133e8565b6105cf600480360360208110156110c857600080fd5b50356001600160a01b031661341b565b610669613519565b6105cf600480360360208110156110f657600080fd5b50356001600160a01b0316613522565b6105cf6004803603602081101561111c57600080fd5b50356001600160a01b0316613534565b6105cf613546565b61066961354c565b6105cf6004803603602081101561115257600080fd5b50356001600160a01b031661355a565b6105cf6004803603606081101561117857600080fd5b506001600160a01b0381358116916020810135909116906040013515156135fb565b6109e7600480360360208110156111b057600080fd5b50356001600160a01b0316613696565b6105cf600480360360208110156111d657600080fd5b50356001600160a01b031661372e565b6105cf613740565b6105cf6004803603602081101561120457600080fd5b50356001600160a01b0316613746565b6105cf600480360360a081101561122a57600080fd5b506001600160a01b0381351690602081013590604081013590606081013590608001351515613758565b6106e86004803603606081101561126a57600080fd5b506001600160a01b03813581169160208101359091169060400135613802565b6106e8600480360360208110156112a057600080fd5b50356001600160a01b0316613823565b6106e8600480360360208110156112c657600080fd5b503561384d565b6106e8600480360360208110156112e357600080fd5b503561385a565b611330600480360360a081101561130057600080fd5b506001600160a01b0381358116916020810135821691604082013516906060810135151590608001351515613876565b6040805192835260208301919091528051918290030190f35b6106e86004803603604081101561135f57600080fd5b506001600160a01b03813516906020013561392d565b6105cf6004803603602081101561138b57600080fd5b50356001600160a01b0316613982565b6105cf613994565b6105cf600480360360c08110156113b957600080fd5b506001600160a01b038135811691602081013582169160408201351690606081013515159060808101359060a0013561399a565b6106696004803603602081101561140357600080fd5b50356001600160a01b0316613a4e565b6106696004803603602081101561142957600080fd5b50356001600160a01b0316613a63565b6105cf600480360360e081101561144f57600080fd5b506001600160a01b0381351690602081013590604081013590606081013515159060808101359060a08101359060c00135613a77565b6105cf613b08565b6106e8600480360360a08110156114a357600080fd5b506001600160a01b03813581169160208101358216916040820135811691606081013515159160809091013516613b0e565b6105cf613ee6565b6105cf600480360360208110156114f357600080fd5b50356001600160a01b0316613eec565b6106356004803603602081101561151957600080fd5b5035613f64565b6106e86004803603602081101561153657600080fd5b50356001600160a01b0316613f8b565b6106e86004803603604081101561155c57600080fd5b506001600160a01b03813516906020013561405e565b6105cf6004803603602081101561158857600080fd5b50356001600160a01b0316614082565b6106e8600480360360208110156115ae57600080fd5b50351515614094565b6106e8600480360360c08110156115cd57600080fd5b506001600160a01b03813581169160208101358216916040820135169060608101359060808101359060a001356140ba565b6105cf6004803603604081101561161557600080fd5b506001600160a01b0381358116916020013516614193565b6106696004803603602081101561164357600080fd5b50356001600160a01b03166141e9565b6106356141fe565b61063561420d565b6105cf6004803603606081101561167957600080fd5b506001600160a01b03813516906020810135906040013561421c565b6106e8600480360360408110156116ab57600080fd5b506001600160a01b0381358116916020013516614256565b6105cf61442f565b6105cf600480360360a08110156116e157600080fd5b506001600160a01b038135811691602081013582169160408201351690606081013515159060800135614435565b61172c6004803603602081101561172557600080fd5b50356144ab565b6040805160208082528351818301528351919283929083019185019080838360005b8381101561176657818101518382015260200161174e565b50505050905090810190601f1680156117935780820380516001836020036101000a031916815260200191505b509250505060405180910390f35b6001600160a01b038116600090815260256020526040812054806117c95760009150506117ff565b6001600160a01b0383166000908152602660205260409020546117fb9082906117f590620f4240614546565b9061459f565b9150505b919050565b6904ee2d6d415b85acef8160201b81565b601b5490565b60008161182a57506000611868565b600061183584612dda565b6001600160a01b0385166000908152601d6020526040902054909150611863600a82900a6117f58685614546565b925050505b92915050565b600b5481565b61271081565b6006546001600160a01b031681565b60145481565b60095481565b6016546301000000900460ff1681565b60236020526000908152604090205481565b602c6020526000908152604090205481565b6118d16145de565b60168054911515620100000262ff000019909216919091179055565b3360009081526018602090815260408083206001600160a01b0394909416835292905220805460ff19166001179055565b6002546001600160a01b0316331461197d576040805162461bcd60e51b815260206004820152601e60248201527f5661756c743a20696e76616c6964206572726f72436f6e74726f6c6c65720000604482015290519081900360640190fd5b6000838152603060205260409020611996908383615eb5565b50505050565b6000611868826119ab8461355a565b61181b565b6000806119bc84613eec565b905060006119da826117f58668327cb2734119d3b7a9601e1b614546565b6005549091506118639082906001600160a01b031687611ce0565b604080516001600160601b0319606096871b811660208084019190915295871b811660348301529390951b9092166048850152151560f81b605c8401528051603d818503018152605d9093019052815191012090565b611a536145de565b600180549115156101000261ff0019909216919091179055565b600f5481565b600154610100900460ff1681565b60015460ff1681565b600080600560009054906101000a90046001600160a01b03166001600160a01b03166318160ddd6040518163ffffffff1660e01b815260040160206040518083038186803b158015611adb57600080fd5b505afa158015611aef573d6000803e3d6000fd5b505050506040513d6020811015611b0557600080fd5b5051905080611b185760009150506117ff565b6001600160a01b038316600090815260226020526040902054601554611b42906117f58385614546565b949350505050565b611b526145de565b6001600160a01b0387166000908152601c602052604090205460ff16611bcf57600754611b809060016145f9565b600755601b80546001810182556000919091527f3ad8aa4f87544323a9d1e5dd902f40c356527a7955687113db5f9a85ad579dc10180546001600160a01b0319166001600160a01b0389161790555b6015546001600160a01b038816600090815260226020526040902054611bf6908290614651565b6001600160a01b0389166000908152601c602090815260408083208054600160ff1991821617909155601d83528184208c9055602283528184208b9055601e83528184208a905560248352818420899055601f83528184208054821689151517905591805290912080549091168415151790559050611c7581876145f9565b601555611c8188613eec565b505050505050505050565b60175481565b60015462010000900460ff1681565b611ca96145de565b600a98909855600b96909655600c94909455600d92909255600e55600f556009556010556011805460ff1916911515919091179055565b60055460009081906001600160a01b03858116911614611d18576001600160a01b0384166000908152601d6020526040902054611d1b565b60125b6005549091506000906001600160a01b03858116911614611d54576001600160a01b0384166000908152601d6020526040902054611d57565b60125b9050611d7682600a0a6117f583600a0a8961454690919063ffffffff16565b925050505b9392505050565b601f6020526000908152604090205460ff1681565b611d9f6145de565b6001600160a01b03919091166000908152601960205260409020805460ff1916911515919091179055565b6000806000611ddb878787876119f5565b9050611de5615f33565b506000818152602b6020908152604091829020825160e081018452815480825260018301549382019390935260028201549381018490526003820154606082015260048201546080820152600582015460a082015260069091015460c082018190529092611e599289929091908990612573565b93509350505094509492505050565b60026000541415611eae576040805162461bcd60e51b815260206004820152601f6024820152600080516020615f86833981519152604482015290519081900360640190fd5b6002600055600154611eca9062010000900460ff16601c614693565b611ed261473f565b611edb8561475b565b611ee68484836147be565b60015460408051634eae147d60e11b81526001600160a01b038881166004830152878116602483015286811660448301526064820186905284151560848301529151630100000090930490911691639d5c28fa9160a480820192600092909190829003018186803b158015611f5a57600080fd5b505afa158015611f6e573d6000803e3d6000fd5b50505050611f7c8484614256565b6000611f8a868686856119f5565b6000818152602b6020526040812091925083611fae57611fa986612dda565b611fb7565b611fb786613eec565b8254909150612055576002820181905560015460408051632339ab6b60e21b8152600481018690526001600160a01b038b811660248301528a81166044830152898116606483015287151560848301529151630100000090930490911691638ce6adac9160a48082019260009290919082900301818387803b15801561203c57600080fd5b505af1158015612050573d6000803e3d6000fd5b505050505b8154158015906120655750600085115b1561208b57612085868360000154846002015487858a8860060154613a77565b60028301555b60006120a4898989888a886000015489600301546148d3565b905060006120b1896149a1565b905060006120bf8a8361181b565b60018601549091506120d190826145f9565b600186018190556120e690841115601d614693565b60018501546120f59084614651565b60018601556121058a8a896135fb565b6003860155845461211690896145f9565b80865542600687015561212c901515601e614693565b61213e85600001548660010154614a4e565b61214c8b8b8b8a6001613876565b5050600061215a8b8a6133cb565b600487015490915061216c90826145f9565b600487015561217b8b82614a72565b87156121c0576121948b61218f8b876145f9565b614b12565b61219e8b83614b91565b6121a88b84614c10565b6121bb8b6121b68d876132f1565b614d28565b61222c565b6001600160a01b038a166000908152602d60205260409020546121fd576001600160a01b038a166000908152602e60205260409020859055612222565b6122088a868b613313565b6001600160a01b038b166000908152602e60205260409020555b61222c8a8a614df2565b604080518881526001600160a01b03808f166020830152808e16828401528c1660608201526080810184905260a081018b905289151560c082015260e08101879052610100810186905290517f2fe68525253654c21998f35787a8d0f361905ef647c854092430ab65f2f15022918190036101200190a1855460018701546002880154600389015460048a015460058b0154604080518e81526020810197909752868101959095526060860193909352608085019190915260a084015260c083015260e08201879052517f20853733b590dce729d9f4628682ebd9a34d2354e72679e66f43a008fc03b773918190036101000190a15050600160005550505050505050505050565b6002546001600160a01b031681565b600080600080600080600080600061235d8d8d8d8d6119f5565b9050612367615f33565b602b60008381526020019081526020016000206040518060e001604052908160008201548152602001600182015481526020016002820154815260200160038201548152602001600482015481526020016005820154815260200160068201548152505090506000808260a00151136123e7578160a001516000036123ed565b8160a001515b9050816000015182602001518360400151846060015185608001518560008860a0015112158860c001519a509a509a509a509a509a509a509a5050505094995094995094999196509450565b60276020526000908152604090205481565b6101f481565b600c5481565b602b602052600090815260409020805460018201546002830154600384015460048501546005860154600690960154949593949293919290919087565b6000806124a3868686866119f5565b90506124ad615f33565b506000818152602b6020908152604091829020825160e0810184528154815260018201549281018390526002820154938101939093526003810154606084015260048101546080840152600581015460a08401526006015460c08301526125179015156025614693565b6020810151815161252f91906117f590612710614546565b979650505050505050565b60216020526000908152604090205481565b60196020526000908152604090205460ff1681565b60256020526000908152604090205481565b600080612584600086116026614693565b6000846125995761259488613eec565b6125a2565b6125a288612dda565b905060008187116125bc576125b78288614651565b6125c6565b6125c68783614651565b905060006125d8886117f58b85614546565b9050600087156125eb57508783116125f0565b508288115b6000612607601054896145f990919063ffffffff16565b421161262b576001600160a01b038c166000908152601e602052604090205461262e565b60005b905081801561265157506126428b82614546565b61264e84612710614546565b11155b1561265b57600092505b509a909950975050505050505050565b600260005414156126b1576040805162461bcd60e51b815260206004820152601f6024820152600080516020615f86833981519152604482015290519081900360640190fd5b600260009081556001600160a01b0382168152601c60205260409020546126dc9060ff16600e614693565b60006126e7826149a1565b90506126f760008211600f614693565b6127018282614c10565b604080516001600160a01b03841681526020810183905281517fa5a389190ebf6170a133bda5c769b77f4d6715b8aa172ec0ddf8473d0b4944bd929181900390910190a150506001600055565b601860209081526000928352604080842090915290825290205460ff1681565b60075481565b602e6020526000908152604090205481565b6127908282614df2565b5050565b600154630100000090046001600160a01b031681565b3360009081526018602090815260408083206001600160a01b0394909416835292905220805460ff19169055565b620f424081565b6127e76145de565b600180546001600160a01b039092166301000000026301000000600160b81b0319909216919091179055565b60006002600054141561285b576040805162461bcd60e51b815260206004820152601f6024820152600080516020615f86833981519152604482015290519081900360640190fd5b6002600055612868614ea1565b6001600160a01b0383166000908152601c602052604090205461288f9060ff166013614693565b6016805461ff0019166101001790556005546000906128b6906001600160a01b03166149a1565b90506128c6600082116014614693565b6128d08485614256565b60006128dc85836119b0565b90506128ec600082116015614693565b6128f68583614ed0565b6129008582614d28565b60055460408051632770a7eb60e21b81523060048201526024810185905290516001600160a01b0390921691639dc29fac9160448082019260009290919082900301818387803b15801561295357600080fd5b505af1158015612967573d6000803e3d6000fd5b505060055461298192506001600160a01b03169050614fb2565b6001546040805163eb0835bf60e01b81526001600160a01b038881166004830152602482018690529151600093630100000090049092169163eb0835bf91604480820192602092909190829003018186803b1580156129df57600080fd5b505afa1580156129f3573d6000803e3d6000fd5b505050506040513d6020811015612a0957600080fd5b505190506000612a1a87848461504d565b9050612a2a600082116016614693565b612a35878288615115565b604080516001600160a01b03808916825289166020820152808201869052606081018390526080810184905290517fd732b7828fa6cee72c285eac756fc66a7477e3dc22e22e7c432f1c265d40b4839181900360a00190a16016805461ff001916905560016000559695505050505050565b612aaf6145de565b600480546001600160a01b0319166001600160a01b0392909216919091179055565b6004546001600160a01b031681565b600a5481565b612aee6145de565b60018054911515620100000262ff000019909216919091179055565b600060026000541415612b52576040805162461bcd60e51b815260206004820152601f6024820152600080516020615f86833981519152604482015290519081900360640190fd5b6002600055612b5f614ea1565b6001600160a01b0383166000908152601c6020526040902054612b869060ff166010614693565b6016805461ff0019166101001790556000612ba0846149a1565b9050612bb0600082116011614693565b612bba8485614256565b6000612bc585612dda565b90506000612be368327cb2734119d3b7a9601e1b6117f58585614546565b600554909150612bff90829088906001600160a01b0316611ce0565b9050612c0f600082116012614693565b6001546040805163256f6ee360e11b81526001600160a01b0389811660048301526024820185905291516000936301000000900490921691634adeddc691604480820192602092909190829003018186803b158015612c6d57600080fd5b505afa158015612c81573d6000803e3d6000fd5b505050506040513d6020811015612c9757600080fd5b505190506000612ca888868461504d565b90506000612cc668327cb2734119d3b7a9601e1b6117f58488614546565b600554909150612ce29082908b906001600160a01b0316611ce0565b9050612cee89826151bc565b612cf88983614c10565b600554604080516340c10f1960e01b81526001600160a01b038b8116600483015260248201859052915191909216916340c10f1991604480830192600092919082900301818387803b158015612d4d57600080fd5b505af1158015612d61573d6000803e3d6000fd5b5050604080516001600160a01b03808d1682528d1660208201528082018a9052606081018590526080810187905290517fab4c77c74cd32c85f35416cf03e7ce9e2d4387f7b7f2c1f4bf53daaecf8ea72d93509081900360a0019150a16016805461ff0019169055600160005598975050505050505050565b60048054601654604080516317e1d38560e11b81526001600160a01b038681169582019590955260006024820181905260ff80851615156044840152610100909404909316151560648201529051919390921691632fc3a70a916084808301926020929190829003018186803b158015612e5357600080fd5b505afa158015612e67573d6000803e3d6000fd5b505050506040513d6020811015612e7d57600080fd5b505192915050565b600060026000541415612ecd576040805162461bcd60e51b815260206004820152601f6024820152600080516020615f86833981519152604482015290519081900360640190fd5b6002600055612eda61473f565b612ee38861475b565b612ef28888888888888861527a565b600160005598975050505050505050565b612f0b6145de565b6001600160a01b03909116600090815260276020526040902055565b601281565b601e6020526000908152604090205481565b612f466145de565b612f56610e10841015600a614693565b612f66612710831115600b614693565b612f76612710821115600c614693565b601292909255601355601455565b602d6020526000908152604090205481565b601d6020526000908152604090205481565b612fb06145de565b600280546001600160a01b0319166001600160a01b0392909216919091179055565b60165462010000900460ff1681565b600060026000541415613029576040805162461bcd60e51b815260206004820152601f6024820152600080516020615f86833981519152604482015290519081900360640190fd5b600260005560015461304490610100900460ff166017614693565b6001600160a01b0384166000908152601c602052604090205461306b9060ff166018614693565b6001600160a01b0383166000908152601c60205260409020546130929060ff166019614693565b6130b2836001600160a01b0316856001600160a01b03161415601a614693565b6016805461ff0019166101001790556130cb8480614256565b6130d58384614256565b60006130e0856149a1565b90506130f060008211601b614693565b60006130fb86612dda565b9050600061310886613eec565b9050600061311a826117f58686614546565b9050613127818989611ce0565b9050600061314568327cb2734119d3b7a9601e1b6117f58787614546565b6005549091506131619082908b906001600160a01b0316611ce0565b60015460408051636d099c0b60e11b81526001600160a01b038d811660048301528c8116602483015260448201859052915193945060009363010000009093049091169163da13381691606480820192602092909190829003018186803b1580156131cb57600080fd5b505afa1580156131df573d6000803e3d6000fd5b505050506040513d60208110156131f557600080fd5b5051905060006132068a858461504d565b90506132128b846151bc565b61321c8a84614ed0565b6132268b88614c10565b6132308a85614d28565b6132398a6157b0565b6132448a828b615115565b604080516001600160a01b03808c168252808e1660208301528c1681830152606081018990526080810186905260a0810183905260c0810184905290517f0874b2d545cb271cdbda4e093020c452328b24af12382ed62c4d00f5c26709db9181900360e00190a16016805461ff001916905560016000559a9950505050505050505050565b68327cb2734119d3b7a9601e1b81565b602f6020526000908152604090205481565b60125481565b60008161330057506000611868565b611d7b838361330e86613eec565b61421c565b6001600160a01b0383166000908152602d6020908152604080832054602e9092528220548285821161334e576133498683614651565b613358565b6133588287614651565b9050600061336a836117f58685614546565b9050868311600061337b86896145f9565b90506000826133935761338e82856145f9565b61339d565b61339d8285614651565b90506133ad816117f58c85614546565b9b9a5050505050505050505050565b60115460ff1681565b600d5481565b6000816133da57506000611868565b611d7b838361330e86612dda565b6133f06145de565b6001600160a01b03919091166000908152601a60205260409020805460ff1916911515919091179055565b6012546001600160a01b0382166000908152602a602052604081205490914291613444916145f9565b1115613452575060006117ff565b6012546001600160a01b0383166000908152602a6020526040812054909161347f916117f5904290614651565b6001600160a01b038416600090815260256020526040902054909150806134ab576000925050506117ff565b6001600160a01b0384166000908152601f602052604081205460ff166134d3576013546134d7565b6014545b6001600160a01b0386166000908152602660205260409020549091506135109083906117f590869061350a908690614546565b90614546565b95945050505050565b60165460ff1681565b60226020526000908152604090205481565b60246020526000908152604090205481565b60085481565b601654610100900460ff1681565b6001600160a01b0381166000908152601f602052604081205460ff161561359a57506001600160a01b0381166000908152602560205260409020546117ff565b6001600160a01b0382166000908152602860205260408120546135be9084906132f1565b6001600160a01b0384166000908152602660209081526040808320546025909252909120549192506117fb916135f59084906145f9565b90614651565b6001546040805163b1cc53ab60e01b81526001600160a01b038681166004830152858116602483015284151560448301529151600093630100000090049092169163b1cc53ab91606480820192602092909190829003018186803b15801561366257600080fd5b505afa158015613676573d6000803e3d6000fd5b505050506040513d602081101561368c57600080fd5b5051949350505050565b6001600160a01b0381166000908152602d60205260408120548190806136c3576000809250925050613729565b60006136ce85613eec565b6001600160a01b0386166000908152602e6020526040812054919250828211613700576136fb8383614651565b61370a565b61370a8284614651565b9050600061371c836117f58785614546565b9390921195509193505050505b915091565b60266020526000908152604090205481565b60135481565b60296020526000908152604090205481565b6001546040805163c7e074c360e01b81526001600160a01b03888116600483015260248201889052604482018790526064820186905284151560848301529151600093630100000090049092169163c7e074c39160a480820192602092909190829003018186803b1580156137cc57600080fd5b505afa1580156137e0573d6000803e3d6000fd5b505050506040513d60208110156137f657600080fd5b50519695505050505050565b61380a6145de565b61381e6001600160a01b0383168483615818565b505050565b61382b6145de565b600680546001600160a01b0319166001600160a01b0392909216919091179055565b6138556145de565b601755565b6138626145de565b61387161271082116002614693565b600855565b6001546040805163d54d5a9f60e01b81526001600160a01b03888116600483015287811660248301528681166044830152851515606483015284151560848301528251600094859463010000009091049092169263d54d5a9f9260a4808301939192829003018186803b1580156138ec57600080fd5b505afa158015613900573d6000803e3d6000fd5b505050506040513d604081101561391657600080fd5b508051602090910151909890975095505050505050565b6139356145de565b6001600160a01b0382166000908152602360205260409020548082111561396f57613969836139648484614651565b6151bc565b50612790565b61381e8361397d8385614651565b614ed0565b602a6020526000908152604090205481565b60105481565b6001546040805163369d949360e21b81526001600160a01b0389811660048301528881166024830152878116604483015286151560648301526084820186905260a482018590529151600093630100000090049092169163da76524c9160c480820192602092909190829003018186803b158015613a1757600080fd5b505afa158015613a2b573d6000803e3d6000fd5b505050506040513d6020811015613a4157600080fd5b5051979650505050505050565b601c6020526000908152604090205460ff1681565b602080526000908152604090205460ff1681565b6000806000613a898a8a8a8a88612573565b90925090506000613a9a8a876145f9565b905060008815613ac95783613ab857613ab38284614651565b613ac2565b613ac282846145f9565b9050613aea565b83613add57613ad882846145f9565b613ae7565b613ae78284614651565b90505b613af8816117f58a85614546565b9c9b505050505050505050505050565b60155481565b60026000541415613b54576040805162461bcd60e51b815260206004820152601f6024820152600080516020615f86833981519152604482015290519081900360640190fd5b60026000556016546301000000900460ff1615613b895733600090815260196020526040902054613b899060ff166022614693565b6016805460ff19169055613b9d8484614256565b6000613bab868686866119f5565b9050613bb5615f33565b506000818152602b6020908152604091829020825160e08101845281548082526001830154938201939093526002820154938101939093526003810154606084015260048101546080840152600581015460a08401526006015460c0830152613c219015156023614693565b600080613c32898989896000613876565b91509150613c4582600014156024614693565b8160021415613c7a57613c62898989600087600001518b8f61527a565b50506016805460ff1916600117905550613eda915050565b6000613c8689836132f1565b6001600160a01b038a166000908152602c6020526040902054909150613cac90826145f9565b6001600160a01b038a166000818152602c602090815260409182902093909355805191825291810184905280820183905290517f5d0c0019d3d45fadeb74eff9d2c9924d146d000ac6bcf3c28bf0ac3c9baa011a9181900360600190a1613d1789856080015161586a565b8615613d465760208401518451613d38918b91613d3391614651565b614b91565b613d46896121b68b856132f1565b600087613d5b57613d5689613eec565b613d64565b613d6489612dda565b90507f2e1f85a64a2f22cf2f0c42584e7c919ed4abe8d53675cff0f62bf1e95a1c676f868c8c8c8c8a600001518b602001518c608001518d60a001518a604051808b81526020018a6001600160a01b03168152602001896001600160a01b03168152602001886001600160a01b0316815260200187151581526020018681526020018581526020018481526020018381526020018281526020019a505050505050505050505060405180910390a187158015613e235750846020015183105b15613e51576020850151600090613e3a9085614651565b9050613e4f8b613e4a8d846132f1565b614c10565b505b87613e6457613e6489866000015161591f565b6000868152602b60205260408120818155600181018290556002810182905560038101829055600481018290556005810182905560060155600954613eb0908b906121b69082906132f1565b613ec68a613ec08c6009546132f1565b89615115565b50506016805460ff19166001179055505050505b50506001600055505050565b600e5481565b60048054601654604080516317e1d38560e11b81526001600160a01b03868116958201959095526001602482015260ff80841615156044830152610100909304909216151560648301525160009390921691632fc3a70a91608480820192602092909190829003018186803b158015612e5357600080fd5b601b8181548110613f7157fe5b6000918252602090912001546001600160a01b0316905081565b613f936145de565b6001600160a01b0381166000908152601c6020526040902054613fba9060ff16600d614693565b6001600160a01b038116600090815260226020526040902054601554613fdf91614651565b6015556001600160a01b0381166000908152601c60209081526040808320805460ff19908116909155601d835281842084905560228352818420849055601e835281842084905560248352818420849055601f835281842080548216905591805290912080549091169055600754614058906001614651565b60075550565b6140666145de565b6001600160a01b039091166000908152602f6020526040902055565b60286020526000908152604090205481565b61409c6145de565b6016805491151563010000000263ff00000019909216919091179055565b600680546001600160a01b03191633179055600180546140e09160ff9091161590614693565b60018054600380546001600160a01b03199081166001600160a01b039a8b1617909155600580548216988a1698909817909755600480549097169590971694909417855560099290925560135560149081556201000061010060ff19958616841761ff0019161762ff000019161782556207a8f06008556032600a908155600b91909155601e600c819055600d55600e92909255600f91909155617080601255601680549092161763ffffff0019169055565b600061419d6145de565b6001600160a01b0383166000908152602c6020526040902054806141c5576000915050611868565b6001600160a01b0384166000908152602c6020526040812055611d7b848285615115565b601a6020526000908152604090205460ff1681565b6005546001600160a01b031681565b6003546001600160a01b031681565b60008261422b57506000611d7b565b6001600160a01b0384166000908152601d6020526040902054613510836117f586600a85900a614546565b6001546040805163fbfded6d60e01b81526001600160a01b03858116600483015284811660248301529151600093630100000090049092169163fbfded6d9160448082019260209290919082900301818787803b1580156142b657600080fd5b505af11580156142ca573d6000803e3d6000fd5b505050506040513d60208110156142e057600080fd5b50519050806142ef5750612790565b6001600160a01b0383166000908152602a602052604090205461433c5760125461431d9061350a428261459f565b6001600160a01b0384166000908152602a602052604090205550612790565b6012546001600160a01b0384166000908152602a6020526040902054429161436491906145f9565b11156143705750612790565b600061437b8461341b565b6001600160a01b0385166000908152602960205260409020549091506143a190826145f9565b6001600160a01b0385166000908152602960205260409020556012546143cb9061350a428261459f565b6001600160a01b0385166000818152602a602090815260408083209490945560298152908390205483519283529082015281517fa146fc154e1913322e9817d49f0d5c37466c24326e15de10e739a948be815eab929181900390910190a150505050565b610e1081565b6001546040805163fdaf6ac360e01b81526001600160a01b038881166004830152878116602483015286811660448301528515156064830152608482018590529151600093630100000090049092169163fdaf6ac39160a480820192602092909190829003018186803b1580156137cc57600080fd5b60306020908152600091825260409182902080548351601f60026000196101006001861615020190931692909204918201849004840281018401909452808452909183018282801561453e5780601f106145135761010080835404028352916020019161453e565b820191906000526020600020905b81548152906001019060200180831161452157829003601f168201915b505050505081565b60008261455557506000611868565b8282028284828161456257fe5b0414611d7b5760405162461bcd60e51b8152600401808060200182810382526021815260200180615fa66021913960400191505060405180910390fd5b6000611d7b83836040518060400160405280601a815260200179536166654d6174683a206469766973696f6e206279207a65726f60301b815250615987565b6006546145f7906001600160a01b031633146035614693565b565b600082820183811015611d7b576040805162461bcd60e51b815260206004820152601b60248201527a536166654d6174683a206164646974696f6e206f766572666c6f7760281b604482015290519081900360640190fd5b6000611d7b83836040518060400160405280601e81526020017f536166654d6174683a207375627472616374696f6e206f766572666c6f770000815250615a29565b60008181526030602052604090208261381e5760405162461bcd60e51b81526020600482019081528254600260001961010060018416150201909116046024830181905290918291604490910190849080156147305780601f1061470557610100808354040283529160200191614730565b820191906000526020600020905b81548152906001019060200180831161471357829003601f168201915b50509250505060405180910390fd5b60175461474b576145f7565b6145f76017543a11156037614693565b336001600160a01b0382161415614771576147bb565b6003546001600160a01b0316331415614789576147bb565b6001600160a01b03811660009081526018602090815260408083203384529091529020546147bb9060ff166029614693565b50565b8015614837576147e3826001600160a01b0316846001600160a01b031614602a614693565b6001600160a01b0383166000908152601c602052604090205461480a9060ff16602b614693565b6001600160a01b0383166000908152601f60205260409020546148329060ff1615602c614693565b61381e565b6001600160a01b0383166000908152601c602052604090205461485e9060ff16602d614693565b6001600160a01b0383166000908152601f60205260409020546148859060ff16602e614693565b6001600160a01b0382166000908152601f60205260409020546148ad9060ff1615602f614693565b6001600160a01b038216600090815260208052604090205461381e9060ff166030614693565b6000806148e38989898989614435565b905060006148f58a8a8a8a898961399a565b905061490182826145f9565b9150600061490f8a846132f1565b6001600160a01b038b166000908152602c602052604090205490915061493590826145f9565b6001600160a01b038b166000818152602c602090815260409182902093909355805191825291810185905280820183905290517f5d0c0019d3d45fadeb74eff9d2c9924d146d000ac6bcf3c28bf0ac3c9baa011a9181900360600190a150909998505050505050505050565b6001600160a01b03811660008181526021602090815260408083205481516370a0823160e01b8152306004820152915193949093859391926370a08231926024808301939192829003018186803b1580156149fb57600080fd5b505afa158015614a0f573d6000803e3d6000fd5b505050506040513d6020811015614a2557600080fd5b50516001600160a01b03851660009081526021602052604090208190559050611b428183614651565b81614a6457614a5f81156027614693565b612790565b612790818310156028614693565b6001600160a01b038216600090815260266020526040902054614a9590826145f9565b6001600160a01b038316600090815260266020818152604080842085905560258252909220549152614aca9111156034614693565b604080516001600160a01b03841681526020810183905281517faa5649d82f5462be9d19b0f2b31a59b2259950a6076550bac9f3a1c07db9f66d929181900390910190a15050565b6001600160a01b038216600090815260286020526040902054614b3590826145f9565b6001600160a01b03831660008181526028602090815260409182902093909355805191825291810183905281517fd9d4761f75e0d0103b5cbeab941eeb443d7a56a35b5baf2a0787c03f03f4e474929181900390910190a15050565b6001600160a01b038216600090815260286020526040902054614bb49082614651565b6001600160a01b03831660008181526028602090815260409182902093909355805191825291810183905281517f34e07158b9db50df5613e591c44ea2ebc82834eff4a4dc3a46e000e608261d68929181900390910190a15050565b6001600160a01b038216600090815260256020526040902054614c3390826145f9565b6001600160a01b03831660008181526025602090815260408083209490945583516370a0823160e01b8152306004820152935191936370a082319260248083019392829003018186803b158015614c8957600080fd5b505afa158015614c9d573d6000803e3d6000fd5b505050506040513d6020811015614cb357600080fd5b50516001600160a01b038416600090815260256020526040902054909150614cdf908210156031614693565b604080516001600160a01b03851681526020810184905281517f976177fbe09a15e5e43f848844963a42b41ef919ef17ff21a17a5421de8f4737929181900390910190a1505050565b604080518082018252601181527015985d5b1d0e881c1bdbdb105b5bdd5b9d607a1b6020808301919091526001600160a01b038516600090815260259091529190912054614d77918390615a29565b6001600160a01b03831660009081526025602090815260408083208490556026909152902054614daa9110156032614693565b604080516001600160a01b03841681526020810183905281517f112726233fbeaeed0f5b1dba5cb0b2b81883dee49fb35ff99fd98ed9f6d31eb0929181900390910190a15050565b6001600160a01b0382166000908152602d6020526040902054614e1590826145f9565b6001600160a01b0383166000908152602d6020908152604080832093909355602f90522054801561381e576001600160a01b0383166000908152602d602052604090205481101561381e576040805162461bcd60e51b81526020600482015260116024820152705661756c743a206d61782073686f72747360781b604482015290519081900360640190fd5b60165462010000900460ff16156145f757336000908152601a60205260409020546145f79060ff166036614693565b6001600160a01b038216600090815260236020526040902054818111614f4b576001600160a01b0383166000818152602360209081526040808320929092558151928352820183905280517fe1e812596aac93a06ecc4ca627014d18e30f5c33b825160cc9d5c0ba61e452279281900390910190a150612790565b614f558183614651565b6001600160a01b03841660008181526023602090815260409182902093909355805191825291810184905281517fe1e812596aac93a06ecc4ca627014d18e30f5c33b825160cc9d5c0ba61e45227929181900390910190a1505050565b6000816001600160a01b03166370a08231306040518263ffffffff1660e01b815260040180826001600160a01b0316815260200191505060206040518083038186803b15801561500157600080fd5b505afa158015615015573d6000803e3d6000fd5b505050506040513d602081101561502b57600080fd5b50516001600160a01b0390921660009081526021602052604090209190915550565b60008061506a6127106117f56150638287614651565b8790614546565b905060006150788583614651565b6001600160a01b0387166000908152602c602052604090205490915061509e90826145f9565b6001600160a01b0387166000908152602c60205260409020557f47cd9dda0e50ce30bcaaacd0488452b596221c07ac402a581cfae4d3933cac2b866150e3818461181b565b604080516001600160a01b0390931683526020830191909152818101849052519081900360600190a150949350505050565b6151296001600160a01b0384168284615818565b604080516370a0823160e01b815230600482015290516001600160a01b038516916370a08231916024808301926020929190829003018186803b15801561516f57600080fd5b505afa158015615183573d6000803e3d6000fd5b505050506040513d602081101561519957600080fd5b50516001600160a01b039093166000908152602160205260409020929092555050565b6001600160a01b0382166000908152602360205260409020546151df90826145f9565b6001600160a01b0383166000908152602360209081526040808320939093556024905220548015615231576001600160a01b038316600090815260236020526040902054615231908210156033614693565b604080516001600160a01b03851681526020810184905281517f64243679a443432e2293343b77d411ff6144370404618f00ca0d2025d9ca9882929181900390910190a1505050565b600154604080516381d11a2360e01b81526001600160a01b038a8116600483015289811660248301528881166044830152606482018890526084820187905285151560a483015284811660c4830152915160009363010000009004909216916381d11a239160e4808201928692909190829003018186803b1580156152fe57600080fd5b505afa158015615312573d6000803e3d6000fd5b505050506153208787614256565b600061532e898989876119f5565b6000818152602b6020526040902080549192509061534f901515601f614693565b61536186826000015410156020614693565b61537387826001015410156021614693565b600181015481546004830154600091615390916117f5908b614546565b60048401549091506153a29082614651565b60048401556153b18b8261586a565b506000806153c38d8d8d8d8d8d615a83565b855491935091508914615567576153db8c8c8a6135fb565b600385015583546153ec908a614651565b80855560018501546153fe9190614a4e565b61540c8d8d8d8b6001613876565b505087156154395761542f8c61218f86600101548661465190919063ffffffff16565b6154398c8a614b91565b60008861544e576154498c613eec565b615457565b6154578c612dda565b90507f93d75d64d1f84fc6f430a64fc578bdd4c1e090e90ea2d51773e626d19de56d30868f8f8f8f8f8f8861548c8c8c614651565b60408051998a526001600160a01b0398891660208b015296881689880152949096166060880152608087019290925260a0860152151560c085015260e084019290925261010083019190915251908190036101200190a18454600186015460028701546003880154600489015460058a0154604080518d81526020810197909752868101959095526060860193909352608085019190915260a084015260c083015260e08201839052517f20853733b590dce729d9f4628682ebd9a34d2354e72679e66f43a008fc03b773918190036101000190a15061574e565b8715615581576155778c84614b12565b6155818c8a614b91565b600088615596576155918c613eec565b61559f565b61559f8c612dda565b90507f93d75d64d1f84fc6f430a64fc578bdd4c1e090e90ea2d51773e626d19de56d30868f8f8f8f8f8f886155d48c8c614651565b60408051998a526001600160a01b0398891660208b015296881689880152949096166060880152608087019290925260a0860152151560c085015260e084019290925261010083019190915251908190036101200190a18454600186015460028701546003880154600489015460058a0154604080518d81526020810197909752868101959095526060860193909352608085019190915260a084015260c0830152517f73af1d417d82c240fdb6d319b34ad884487c6bf2845d98980cc52ad9171cb4559181900360e00190a1600160039054906101000a90046001600160a01b03166001600160a01b0316634c89b68d876040518263ffffffff1660e01b815260040180828152602001915050600060405180830381600087803b1580156156fc57600080fd5b505af1158015615710573d6000803e3d6000fd5b5050506000878152602b6020526040812081815560018101829055600281018290556003810182905560048101829055600581018290556006015550505b8761575d5761575d8b8a61591f565b811561579d578715615777576157778c6121b68e856132f1565b60006157838d836132f1565b90506157908d828a615115565b955061252f945050505050565b5060009c9b505050505050505050505050565b6001600160a01b03811660009081526027602090815260408083205460259092529091205410156147bb576040805162461bcd60e51b815260206004820152600d60248201526c2b30bab63a1d10313ab33332b960991b604482015290519081900360640190fd5b604080516001600160a01b038416602482015260448082018490528251808303909101815260649091019091526020810180516001600160e01b031663a9059cbb60e01b17905261381e908490615c7d565b604080518082018252601b81527a5661756c743a20696e73756666696369656e74207265736572766560281b6020808301919091526001600160a01b0385166000908152602690915291909120546158c3918390615a29565b6001600160a01b03831660008181526026602090815260409182902093909355805191825291810183905281517f533cb5ed32be6a90284e96b5747a1bfc2d38fdb5768a6b5f67ff7d62144ed67b929181900390910190a15050565b6001600160a01b0382166000908152602d60205260409020548082111561595f57506001600160a01b0382166000908152602d6020526040812055612790565b6159698183614651565b6001600160a01b0384166000908152602d6020526040902055505050565b60008183615a135760405162461bcd60e51b81526004018080602001828103825283818151815260200191508051906020019080838360005b838110156159d85781810151838201526020016159c0565b50505050905090810190601f168015615a055780820380516001836020036101000a031916815260200191505b509250505060405180910390fd5b506000838581615a1f57fe5b0495945050505050565b60008184841115615a7b5760405162461bcd60e51b81526020600482018181528351602484015283519092839260449091019190850190808383600083156159d85781810151838201526020016159c0565b505050900390565b6000806000615a94898989876119f5565b6000818152602b60205260408120805460038201549394509092615ac1918d918d918d918b918d916148d3565b9050600080600080615ae28d876000015488600201548d8a60060154612573565b87549195508593509150615afa906117f58d84614546565b925050506000828015615b0d5750600082115b15615b3d5750600584018054820190558088615b3d576000615b2f8e846132f1565b9050615b3b8e82614d28565b505b82158015615b4b5750600082115b15615b8f576001850154615b5f9083614651565b600186015588615b83576000615b758e846132f1565b9050615b818e82614c10565b505b60058501805483900390555b8a15615bb757615b9f818c6145f9565b6001860154909150615bb1908c614651565b60018601555b84548a1415615bda576001850154615bd09082906145f9565b6000600187015590505b8084811115615bf457615bed8286614651565b9050615c28565b6001860154615c039086614651565b60018701558915615c28576000615c1a8f876132f1565b9050615c268f82614d28565b505b60408051888152851515602082015280820185905290517f3ff41bdde87755b687ae83d0221a232b6be51a803330ed9661c1b5d0105e0d8a9181900360600190a1909e909d509b505050505050505050505050565b6060615cd2826040518060400160405280602081526020017f5361666545524332303a206c6f772d6c6576656c2063616c6c206661696c6564815250856001600160a01b0316615d2e9092919063ffffffff16565b80519091501561381e57808060200190516020811015615cf157600080fd5b505161381e5760405162461bcd60e51b815260040180806020018281038252602a815260200180615fc7602a913960400191505060405180910390fd5b6060611b42848460008585615d4285615e49565b615d93576040805162461bcd60e51b815260206004820152601d60248201527f416464726573733a2063616c6c20746f206e6f6e2d636f6e7472616374000000604482015290519081900360640190fd5b60006060866001600160a01b031685876040518082805190602001908083835b60208310615dd25780518252601f199092019160209182019101615db3565b6001836020036101000a03801982511681845116808217855250505050505090500191505060006040518083038185875af1925050503d8060008114615e34576040519150601f19603f3d011682016040523d82523d6000602084013e615e39565b606091505b509150915061252f828286615e4f565b3b151590565b60608315615e5e575081611d7b565b825115615e6e5782518084602001fd5b60405162461bcd60e51b81526020600482018181528451602484015284518593919283926044019190850190808383600083156159d85781810151838201526020016159c0565b828054600181600116156101000203166002900490600052602060002090601f016020900481019282601f10615ef65782800160ff19823516178555615f23565b82800160010185558215615f23579182015b82811115615f23578235825591602001919060010190615f08565b50615f2f929150615f70565b5090565b6040518060e00160405280600081526020016000815260200160008152602001600081526020016000815260200160008152602001600081525090565b5b80821115615f2f5760008155600101615f7156fe5265656e7472616e637947756172643a207265656e7472616e742063616c6c00536166654d6174683a206d756c7469706c69636174696f6e206f766572666c6f775361666545524332303a204552433230206f7065726174696f6e20646964206e6f742073756363656564a2646970667358221220f568d630b8db60727af23905ba6249d7138bc7ee4d027161615c53d35b17983a64736f6c634300060c0033","linkReferences":{}},"methodIdentifiers":{"BASIS_POINTS_DIVISOR()":"126082cf","FUNDING_RATE_PRECISION()":"6be6026b","MAX_FEE_BASIS_POINTS()":"4befe2ca","MAX_FUNDING_RATE_FACTOR()":"8a39735a","MAX_LIQUIDATION_FEE_USD()":"07c58752","MIN_FUNDING_RATE_INTERVAL()":"fce28c10","MIN_LEVERAGE()":"34c1557d","PRICE_PRECISION()":"95082d25","USDG_DECIMALS()":"870d917c","addRouter(address)":"24ca984e","adjustForDecimals(uint256,address,address)":"42152873","allWhitelistedTokens(uint256)":"e468baf0","allWhitelistedTokensLength()":"0842b076","approvedRouters(address,address)":"60922199","bufferAmounts(address)":"4a993ee9","buyUSDG(address,address)":"817bb857","clearTokenConfig(address)":"e67f59a7","cumulativeFundingRates(address)":"c65bc7b1","decreasePosition(address,address,address,uint256,uint256,bool,address)":"82a08490","directPoolDeposit(address)":"5f7bc119","errorController()":"48f35cbb","errors(uint256)":"fed1a606","feeReserves(address)":"1ce9cb8f","fundingInterval()":"9849e412","fundingRateFactor()":"c4f718bf","getDelta(address,uint256,uint256,bool,uint256)":"5c07eaab","getEntryFundingRate(address,address,bool)":"b1cc53ab","getFeeBasisPoints(address,uint256,uint256,uint256,bool)":"c7e074c3","getFundingFee(address,address,address,bool,uint256,uint256)":"da76524c","getGlobalShortDelta(address)":"b364accb","getMaxPrice(address)":"e124e6d2","getMinPrice(address)":"81a612d6","getNextAveragePrice(address,uint256,uint256,bool,uint256,uint256,uint256)":"db97495f","getNextFundingRate(address)":"a93acac2","getNextGlobalShortAveragePrice(address,uint256,uint256)":"9d7432ca","getPosition(address,address,address,bool)":"4a3f088d","getPositionDelta(address,address,address,bool)":"45a6f370","getPositionFee(address,address,address,bool,uint256)":"fdaf6ac3","getPositionKey(address,address,address,bool)":"2d4b0576","getPositionLeverage(address,address,address,bool)":"51723e82","getRedemptionAmount(address,uint256)":"2c668ec1","getRedemptionCollateral(address)":"b136ca49","getRedemptionCollateralUsd(address)":"29ff9615","getTargetUsdgAmount(address)":"3a05dcc1","getUtilisation(address)":"04fef1db","globalShortAveragePrices(address)":"62749803","globalShortSizes(address)":"8a78daa8","gov()":"12d43a51","guaranteedUsd(address)":"f07456ce","hasDynamicFees()":"9f392eb3","inManagerMode()":"9060b1ca","inPrivateLiquidationMode()":"181e210e","includeAmmPrice()":"ab08c1c6","increaseGlobalShortSize(address,uint256)":"6a6f3424","increasePosition(address,address,address,uint256,bool)":"48d91abf","initialize2(address,address,address,uint256,uint256,uint256)":"f1675a8b","isInitialized()":"392e53cd","isLeverageEnabled()":"3e72a262","isLiquidator(address)":"529a356f","isManager(address)":"f3ae2415","isSwapEnabled()":"351a964d","lastFundingTimes(address)":"d8f897c3","liquidatePosition(address,address,address,bool,address)":"de2ea948","liquidationFeeUsd()":"174d2694","marginFeeBasisPoints()":"318bc689","maxGasPrice()":"3de39c11","maxGlobalShortSizes(address)":"9698d25a","maxLeverage()":"ae3302c2","maxUsdgAmounts(address)":"ad1e4f8d","minProfitBasisPoints(address)":"88b1fbdf","minProfitTime()":"d9ac4225","mintBurnFeeBasisPoints()":"4d47b304","poolAmounts(address)":"52f55eed","positions(bytes32)":"514ea4bf","priceFeed()":"741bef1a","removeRouter(address)":"6ae0b154","reservedAmounts(address)":"c3c7b9e9","router()":"f887ea40","sellUSDG(address,address)":"711e6190","setBufferAmount(address,uint256)":"8585f4d2","setError(uint256,string)":"28e67be5","setErrorController(address)":"8f7b8404","setFees(uint256,uint256,uint256,uint256,uint256,uint256,uint256,uint256,bool)":"40eb3802","setFundingRate(uint256,uint256,uint256)":"8a27d468","setGov(address)":"cfad57a2","setInManagerMode(bool)":"24b0c04d","setInPrivateLiquidationMode(bool)":"f07bbf77","setIsLeverageEnabled(bool)":"7c2eb9f7","setIsSwapEnabled(bool)":"30455ede","setLiquidator(address,bool)":"4453a374","setManager(address,bool)":"a5e90eee","setMaxGasPrice(uint256)":"d2fa635e","setMaxGlobalShortSize(address,uint256)":"efa10a6e","setMaxLeverage(uint256)":"d3127e63","setPriceFeed(address)":"724e78da","setTokenConfig(address,uint256,uint256,uint256,uint256,bool,bool)":"3c5a6e35","setUsdgAmount(address,uint256)":"d66b000d","setVaultUtils(address)":"71089f4d","shortableTokens(address)":"db3555fb","stableFundingRateFactor()":"134ca63b","stableSwapFeeBasisPoints()":"df73a267","stableTaxBasisPoints()":"10eb56c2","stableTokens(address)":"42b60b03","swap(address,address,address)":"93316212","swapFeeBasisPoints()":"a22f2392","taxBasisPoints()":"7a210a2b","tokenBalances(address)":"523fba7f","tokenDecimals(address)":"8ee573ac","tokenToUsdMin(address,uint256)":"0a48d5a9","tokenWeights(address)":"ab2f3ad4","totalTokenWeights()":"dc8f5fac","updateCumulativeFundingRate(address,address)":"fbfded6d","upgradeVault(address,address,uint256)":"cea0c328","usdToToken(address,uint256,uint256)":"fa12dbc0","usdToTokenMax(address,uint256)":"a42ab3d2","usdToTokenMin(address,uint256)":"9899cd02","usdg()":"f5b91b7b","usdgAmounts(address)":"1aa4ace5","useSwapPricing()":"b06423f3","validateLiquidation(address,address,address,bool,bool)":"d54d5a9f","vaultUtils()":"6abbe0c8","whitelistedTokenCount()":"62287a32","whitelistedTokens(address)":"daf9c210","withdrawFees(address,address)":"f2555278"},"id":65}