{"abi":[{"type":"function","name":"BASIS_POINTS_DIVISOR","inputs":[],"outputs":[{"name":"","type":"uint256","internalType":"uint256"}],"stateMutability":"view"},{"type":"function","name":"FUNDING_RATE_PRECISION","inputs":[],"outputs":[{"name":"","type":"uint256","internalType":"uint256"}],"stateMutability":"view"},{"type":"function","name":"MAX_FEE_BASIS_POINTS","inputs":[],"outputs":[{"name":"","type":"uint256","internalType":"uint256"}],"stateMutability":"view"},{"type":"function","name":"MAX_FUNDING_RATE_FACTOR","inputs":[],"outputs":[{"name":"","type":"uint256","internalType":"uint256"}],"stateMutability":"view"},{"type":"function","name":"MAX_LIQUIDATION_FEE_USD","inputs":[],"outputs":[{"name":"","type":"uint256","internalType":"uint256"}],"stateMutability":"view"},{"type":"function","name":"MIN_FUNDING_RATE_INTERVAL","inputs":[],"outputs":[{"name":"","type":"uint256","internalType":"uint256"}],"stateMutability":"view"},{"type":"function","name":"MIN_LEVERAGE","inputs":[],"outputs":[{"name":"","type":"uint256","internalType":"uint256"}],"stateMutability":"view"},{"type":"function","name":"PRICE_PRECISION","inputs":[],"outputs":[{"name":"","type":"uint256","internalType":"uint256"}],"stateMutability":"view"},{"type":"function","name":"USDG_DECIMALS","inputs":[],"outputs":[{"name":"","type":"uint256","internalType":"uint256"}],"stateMutability":"view"},{"type":"function","name":"acceptGov","inputs":[],"outputs":[],"stateMutability":"nonpayable"},{"type":"function","name":"addRouter","inputs":[{"name":"_router","type":"address","internalType":"address"}],"outputs":[],"stateMutability":"nonpayable"},{"type":"function","name":"adjustForDecimals","inputs":[{"name":"_amount","type":"uint256","internalType":"uint256"},{"name":"_tokenDiv","type":"address","internalType":"address"},{"name":"_tokenMul","type":"address","internalType":"address"}],"outputs":[{"name":"","type":"uint256","internalType":"uint256"}],"stateMutability":"view"},{"type":"function","name":"allWhitelistedTokens","inputs":[{"name":"","type":"uint256","internalType":"uint256"}],"outputs":[{"name":"","type":"address","internalType":"address"}],"stateMutability":"view"},{"type":"function","name":"allWhitelistedTokensLength","inputs":[],"outputs":[{"name":"","type":"uint256","internalType":"uint256"}],"stateMutability":"view"},{"type":"function","name":"approvedRouters","inputs":[{"name":"","type":"address","internalType":"address"},{"name":"","type":"address","internalType":"address"}],"outputs":[{"name":"","type":"bool","internalType":"bool"}],"stateMutability":"view"},{"type":"function","name":"bufferAmounts","inputs":[{"name":"","type":"address","internalType":"address"}],"outputs":[{"name":"","type":"uint256","internalType":"uint256"}],"stateMutability":"view"},{"type":"function","name":"buyUSDG","inputs":[{"name":"_token","type":"address","internalType":"address"},{"name":"_receiver","type":"address","internalType":"address"}],"outputs":[{"name":"","type":"uint256","internalType":"uint256"}],"stateMutability":"nonpayable"},{"type":"function","name":"cancelGovProposal","inputs":[{"name":"_gov","type":"address","internalType":"address"}],"outputs":[],"stateMutability":"nonpayable"},{"type":"function","name":"clearTokenConfig","inputs":[{"name":"_token","type":"address","internalType":"address"}],"outputs":[],"stateMutability":"nonpayable"},{"type":"function","name":"cumulativeFundingRates","inputs":[{"name":"","type":"address","internalType":"address"}],"outputs":[{"name":"","type":"uint256","internalType":"uint256"}],"stateMutability":"view"},{"type":"function","name":"decreasePosition","inputs":[{"name":"_account","type":"address","internalType":"address"},{"name":"_collateralToken","type":"address","internalType":"address"},{"name":"_indexToken","type":"address","internalType":"address"},{"name":"_collateralDelta","type":"uint256","internalType":"uint256"},{"name":"_sizeDelta","type":"uint256","internalType":"uint256"},{"name":"_isLong","type":"bool","internalType":"bool"},{"name":"_receiver","type":"address","internalType":"address"}],"outputs":[{"name":"","type":"uint256","internalType":"uint256"}],"stateMutability":"nonpayable"},{"type":"function","name":"directPoolDeposit","inputs":[{"name":"_token","type":"address","internalType":"address"}],"outputs":[],"stateMutability":"nonpayable"},{"type":"function","name":"errorController","inputs":[],"outputs":[{"name":"","type":"address","internalType":"address"}],"stateMutability":"view"},{"type":"function","name":"errors","inputs":[{"name":"","type":"uint256","internalType":"uint256"}],"outputs":[{"name":"","type":"string","internalType":"string"}],"stateMutability":"view"},{"type":"function","name":"feeReserves","inputs":[{"name":"","type":"address","internalType":"address"}],"outputs":[{"name":"","type":"uint256","internalType":"uint256"}],"stateMutability":"view"},{"type":"function","name":"fundingInterval","inputs":[],"outputs":[{"name":"","type":"uint256","internalType":"uint256"}],"stateMutability":"view"},{"type":"function","name":"fundingRateFactor","inputs":[],"outputs":[{"name":"","type":"uint256","internalType":"uint256"}],"stateMutability":"view"},{"type":"function","name":"getDelta","inputs":[{"name":"_indexToken","type":"address","internalType":"address"},{"name":"_size","type":"uint256","internalType":"uint256"},{"name":"_averagePrice","type":"uint256","internalType":"uint256"},{"name":"_isLong","type":"bool","internalType":"bool"},{"name":"_lastIncreasedTime","type":"uint256","internalType":"uint256"}],"outputs":[{"name":"","type":"bool","internalType":"bool"},{"name":"","type":"uint256","internalType":"uint256"}],"stateMutability":"view"},{"type":"function","name":"getEntryFundingRate","inputs":[{"name":"_collateralToken","type":"address","internalType":"address"},{"name":"_indexToken","type":"address","internalType":"address"},{"name":"_isLong","type":"bool","internalType":"bool"}],"outputs":[{"name":"","type":"uint256","internalType":"uint256"}],"stateMutability":"view"},{"type":"function","name":"getFeeBasisPoints","inputs":[{"name":"_token","type":"address","internalType":"address"},{"name":"_usdgDelta","type":"uint256","internalType":"uint256"},{"name":"_feeBasisPoints","type":"uint256","internalType":"uint256"},{"name":"_taxBasisPoints","type":"uint256","internalType":"uint256"},{"name":"_increment","type":"bool","internalType":"bool"}],"outputs":[{"name":"","type":"uint256","internalType":"uint256"}],"stateMutability":"view"},{"type":"function","name":"getFundingFee","inputs":[{"name":"_account","type":"address","internalType":"address"},{"name":"_collateralToken","type":"address","internalType":"address"},{"name":"_indexToken","type":"address","internalType":"address"},{"name":"_isLong","type":"bool","internalType":"bool"},{"name":"_size","type":"uint256","internalType":"uint256"},{"name":"_entryFundingRate","type":"uint256","internalType":"uint256"}],"outputs":[{"name":"","type":"uint256","internalType":"uint256"}],"stateMutability":"view"},{"type":"function","name":"getGlobalShortDelta","inputs":[{"name":"_token","type":"address","internalType":"address"}],"outputs":[{"name":"","type":"bool","internalType":"bool"},{"name":"","type":"uint256","internalType":"uint256"}],"stateMutability":"view"},{"type":"function","name":"getMaxPrice","inputs":[{"name":"_token","type":"address","internalType":"address"}],"outputs":[{"name":"","type":"uint256","internalType":"uint256"}],"stateMutability":"view"},{"type":"function","name":"getMinPrice","inputs":[{"name":"_token","type":"address","internalType":"address"}],"outputs":[{"name":"","type":"uint256","internalType":"uint256"}],"stateMutability":"view"},{"type":"function","name":"getNextAveragePrice","inputs":[{"name":"_indexToken","type":"address","internalType":"address"},{"name":"_size","type":"uint256","internalType":"uint256"},{"name":"_averagePrice","type":"uint256","internalType":"uint256"},{"name":"_isLong","type":"bool","internalType":"bool"},{"name":"_nextPrice","type":"uint256","internalType":"uint256"},{"name":"_sizeDelta","type":"uint256","internalType":"uint256"},{"name":"_lastIncreasedTime","type":"uint256","internalType":"uint256"}],"outputs":[{"name":"","type":"uint256","internalType":"uint256"}],"stateMutability":"view"},{"type":"function","name":"getNextFundingRate","inputs":[{"name":"_token","type":"address","internalType":"address"}],"outputs":[{"name":"","type":"uint256","internalType":"uint256"}],"stateMutability":"view"},{"type":"function","name":"getNextGlobalShortAveragePrice","inputs":[{"name":"_indexToken","type":"address","internalType":"address"},{"name":"_nextPrice","type":"uint256","internalType":"uint256"},{"name":"_sizeDelta","type":"uint256","internalType":"uint256"}],"outputs":[{"name":"","type":"uint256","internalType":"uint256"}],"stateMutability":"view"},{"type":"function","name":"getPosition","inputs":[{"name":"_account","type":"address","internalType":"address"},{"name":"_collateralToken","type":"address","internalType":"address"},{"name":"_indexToken","type":"address","internalType":"address"},{"name":"_isLong","type":"bool","internalType":"bool"}],"outputs":[{"name":"","type":"uint256","internalType":"uint256"},{"name":"","type":"uint256","internalType":"uint256"},{"name":"","type":"uint256","internalType":"uint256"},{"name":"","type":"uint256","internalType":"uint256"},{"name":"","type":"uint256","internalType":"uint256"},{"name":"","type":"uint256","internalType":"uint256"},{"name":"","type":"bool","internalType":"bool"},{"name":"","type":"uint256","internalType":"uint256"}],"stateMutability":"view"},{"type":"function","name":"getPositionDelta","inputs":[{"name":"_account","type":"address","internalType":"address"},{"name":"_collateralToken","type":"address","internalType":"address"},{"name":"_indexToken","type":"address","internalType":"address"},{"name":"_isLong","type":"bool","internalType":"bool"}],"outputs":[{"name":"","type":"bool","internalType":"bool"},{"name":"","type":"uint256","internalType":"uint256"}],"stateMutability":"view"},{"type":"function","name":"getPositionFee","inputs":[{"name":"_account","type":"address","internalType":"address"},{"name":"_collateralToken","type":"address","internalType":"address"},{"name":"_indexToken","type":"address","internalType":"address"},{"name":"_isLong","type":"bool","internalType":"bool"},{"name":"_sizeDelta","type":"uint256","internalType":"uint256"}],"outputs":[{"name":"","type":"uint256","internalType":"uint256"}],"stateMutability":"view"},{"type":"function","name":"getPositionKey","inputs":[{"name":"_account","type":"address","internalType":"address"},{"name":"_collateralToken","type":"address","internalType":"address"},{"name":"_indexToken","type":"address","internalType":"address"},{"name":"_isLong","type":"bool","internalType":"bool"}],"outputs":[{"name":"","type":"bytes32","internalType":"bytes32"}],"stateMutability":"pure"},{"type":"function","name":"getPositionLeverage","inputs":[{"name":"_account","type":"address","internalType":"address"},{"name":"_collateralToken","type":"address","internalType":"address"},{"name":"_indexToken","type":"address","internalType":"address"},{"name":"_isLong","type":"bool","internalType":"bool"}],"outputs":[{"name":"","type":"uint256","internalType":"uint256"}],"stateMutability":"view"},{"type":"function","name":"getRedemptionAmount","inputs":[{"name":"_token","type":"address","internalType":"address"},{"name":"_usdgAmount","type":"uint256","internalType":"uint256"}],"outputs":[{"name":"","type":"uint256","internalType":"uint256"}],"stateMutability":"view"},{"type":"function","name":"getRedemptionCollateral","inputs":[{"name":"_token","type":"address","internalType":"address"}],"outputs":[{"name":"","type":"uint256","internalType":"uint256"}],"stateMutability":"view"},{"type":"function","name":"getRedemptionCollateralUsd","inputs":[{"name":"_token","type":"address","internalType":"address"}],"outputs":[{"name":"","type":"uint256","internalType":"uint256"}],"stateMutability":"view"},{"type":"function","name":"getTargetUsdgAmount","inputs":[{"name":"_token","type":"address","internalType":"address"}],"outputs":[{"name":"","type":"uint256","internalType":"uint256"}],"stateMutability":"view"},{"type":"function","name":"getUtilisation","inputs":[{"name":"_token","type":"address","internalType":"address"}],"outputs":[{"name":"","type":"uint256","internalType":"uint256"}],"stateMutability":"view"},{"type":"function","name":"globalShortAveragePrices","inputs":[{"name":"","type":"address","internalType":"address"}],"outputs":[{"name":"","type":"uint256","internalType":"uint256"}],"stateMutability":"view"},{"type":"function","name":"globalShortSizes","inputs":[{"name":"","type":"address","internalType":"address"}],"outputs":[{"name":"","type":"uint256","internalType":"uint256"}],"stateMutability":"view"},{"type":"function","name":"gov","inputs":[],"outputs":[{"name":"","type":"address","internalType":"address"}],"stateMutability":"view"},{"type":"function","name":"govProposals","inputs":[{"name":"","type":"address","internalType":"address"}],"outputs":[{"name":"deadline","type":"uint256","internalType":"uint256"},{"name":"isActive","type":"bool","internalType":"bool"}],"stateMutability":"view"},{"type":"function","name":"guaranteedUsd","inputs":[{"name":"","type":"address","internalType":"address"}],"outputs":[{"name":"","type":"uint256","internalType":"uint256"}],"stateMutability":"view"},{"type":"function","name":"hasDynamicFees","inputs":[],"outputs":[{"name":"","type":"bool","internalType":"bool"}],"stateMutability":"view"},{"type":"function","name":"inManagerMode","inputs":[],"outputs":[{"name":"","type":"bool","internalType":"bool"}],"stateMutability":"view"},{"type":"function","name":"inPrivateLiquidationMode","inputs":[],"outputs":[{"name":"","type":"bool","internalType":"bool"}],"stateMutability":"view"},{"type":"function","name":"includeAmmPrice","inputs":[],"outputs":[{"name":"","type":"bool","internalType":"bool"}],"stateMutability":"view"},{"type":"function","name":"increaseGlobalShortSize","inputs":[{"name":"token","type":"address","internalType":"address"},{"name":"amount","type":"uint256","internalType":"uint256"}],"outputs":[],"stateMutability":"nonpayable"},{"type":"function","name":"increasePosition","inputs":[{"name":"_account","type":"address","internalType":"address"},{"name":"_collateralToken","type":"address","internalType":"address"},{"name":"_indexToken","type":"address","internalType":"address"},{"name":"_sizeDelta","type":"uint256","internalType":"uint256"},{"name":"_isLong","type":"bool","internalType":"bool"}],"outputs":[],"stateMutability":"nonpayable"},{"type":"function","name":"initialize2","inputs":[{"name":"_router","type":"address","internalType":"address"},{"name":"_usdg","type":"address","internalType":"address"},{"name":"_priceFeed","type":"address","internalType":"address"},{"name":"_liquidationFeeUsd","type":"uint256","internalType":"uint256"},{"name":"_fundingRateFactor","type":"uint256","internalType":"uint256"},{"name":"_stableFundingRateFactor","type":"uint256","internalType":"uint256"}],"outputs":[],"stateMutability":"nonpayable"},{"type":"function","name":"isInitialized","inputs":[],"outputs":[{"name":"","type":"bool","internalType":"bool"}],"stateMutability":"view"},{"type":"function","name":"isLeverageEnabled","inputs":[],"outputs":[{"name":"","type":"bool","internalType":"bool"}],"stateMutability":"view"},{"type":"function","name":"isLiquidator","inputs":[{"name":"","type":"address","internalType":"address"}],"outputs":[{"name":"","type":"bool","internalType":"bool"}],"stateMutability":"view"},{"type":"function","name":"isManager","inputs":[{"name":"","type":"address","internalType":"address"}],"outputs":[{"name":"","type":"bool","internalType":"bool"}],"stateMutability":"view"},{"type":"function","name":"isSwapEnabled","inputs":[],"outputs":[{"name":"","type":"bool","internalType":"bool"}],"stateMutability":"view"},{"type":"function","name":"lastFundingTimes","inputs":[{"name":"","type":"address","internalType":"address"}],"outputs":[{"name":"","type":"uint256","internalType":"uint256"}],"stateMutability":"view"},{"type":"function","name":"liquidatePosition","inputs":[{"name":"_account","type":"address","internalType":"address"},{"name":"_collateralToken","type":"address","internalType":"address"},{"name":"_indexToken","type":"address","internalType":"address"},{"name":"_isLong","type":"bool","internalType":"bool"},{"name":"_feeReceiver","type":"address","internalType":"address"}],"outputs":[],"stateMutability":"nonpayable"},{"type":"function","name":"liquidationFeeUsd","inputs":[],"outputs":[{"name":"","type":"uint256","internalType":"uint256"}],"stateMutability":"view"},{"type":"function","name":"marginFeeBasisPoints","inputs":[],"outputs":[{"name":"","type":"uint256","internalType":"uint256"}],"stateMutability":"view"},{"type":"function","name":"maxGasPrice","inputs":[],"outputs":[{"name":"","type":"uint256","internalType":"uint256"}],"stateMutability":"view"},{"type":"function","name":"maxGlobalShortSizes","inputs":[{"name":"","type":"address","internalType":"address"}],"outputs":[{"name":"","type":"uint256","internalType":"uint256"}],"stateMutability":"view"},{"type":"function","name":"maxLeverage","inputs":[],"outputs":[{"name":"","type":"uint256","internalType":"uint256"}],"stateMutability":"view"},{"type":"function","name":"maxUsdgAmounts","inputs":[{"name":"","type":"address","internalType":"address"}],"outputs":[{"name":"","type":"uint256","internalType":"uint256"}],"stateMutability":"view"},{"type":"function","name":"minProfitBasisPoints","inputs":[{"name":"","type":"address","internalType":"address"}],"outputs":[{"name":"","type":"uint256","internalType":"uint256"}],"stateMutability":"view"},{"type":"function","name":"minProfitTime","inputs":[],"outputs":[{"name":"","type":"uint256","internalType":"uint256"}],"stateMutability":"view"},{"type":"function","name":"mintBurnFeeBasisPoints","inputs":[],"outputs":[{"name":"","type":"uint256","internalType":"uint256"}],"stateMutability":"view"},{"type":"function","name":"poolAmounts","inputs":[{"name":"","type":"address","internalType":"address"}],"outputs":[{"name":"","type":"uint256","internalType":"uint256"}],"stateMutability":"view"},{"type":"function","name":"positions","inputs":[{"name":"","type":"bytes32","internalType":"bytes32"}],"outputs":[{"name":"size","type":"uint256","internalType":"uint256"},{"name":"collateral","type":"uint256","internalType":"uint256"},{"name":"averagePrice","type":"uint256","internalType":"uint256"},{"name":"entryFundingRate","type":"uint256","internalType":"uint256"},{"name":"reserveAmount","type":"uint256","internalType":"uint256"},{"name":"realisedPnl","type":"int256","internalType":"int256"},{"name":"lastIncreasedTime","type":"uint256","internalType":"uint256"}],"stateMutability":"view"},{"type":"function","name":"priceFeed","inputs":[],"outputs":[{"name":"","type":"address","internalType":"address"}],"stateMutability":"view"},{"type":"function","name":"removeRouter","inputs":[{"name":"_router","type":"address","internalType":"address"}],"outputs":[],"stateMutability":"nonpayable"},{"type":"function","name":"reservedAmounts","inputs":[{"name":"","type":"address","internalType":"address"}],"outputs":[{"name":"","type":"uint256","internalType":"uint256"}],"stateMutability":"view"},{"type":"function","name":"router","inputs":[],"outputs":[{"name":"","type":"address","internalType":"address"}],"stateMutability":"view"},{"type":"function","name":"sellUSDG","inputs":[{"name":"_token","type":"address","internalType":"address"},{"name":"_receiver","type":"address","internalType":"address"}],"outputs":[{"name":"","type":"uint256","internalType":"uint256"}],"stateMutability":"nonpayable"},{"type":"function","name":"setBufferAmount","inputs":[{"name":"_token","type":"address","internalType":"address"},{"name":"_amount","type":"uint256","internalType":"uint256"}],"outputs":[],"stateMutability":"nonpayable"},{"type":"function","name":"setError","inputs":[{"name":"_errorCode","type":"uint256","internalType":"uint256"},{"name":"_error","type":"string","internalType":"string"}],"outputs":[],"stateMutability":"nonpayable"},{"type":"function","name":"setErrorController","inputs":[{"name":"_errorController","type":"address","internalType":"address"}],"outputs":[],"stateMutability":"nonpayable"},{"type":"function","name":"setFees","inputs":[{"name":"_taxBasisPoints","type":"uint256","internalType":"uint256"},{"name":"_stableTaxBasisPoints","type":"uint256","internalType":"uint256"},{"name":"_mintBurnFeeBasisPoints","type":"uint256","internalType":"uint256"},{"name":"_swapFeeBasisPoints","type":"uint256","internalType":"uint256"},{"name":"_stableSwapFeeBasisPoints","type":"uint256","internalType":"uint256"},{"name":"_marginFeeBasisPoints","type":"uint256","internalType":"uint256"},{"name":"_liquidationFeeUsd","type":"uint256","internalType":"uint256"},{"name":"_minProfitTime","type":"uint256","internalType":"uint256"},{"name":"_hasDynamicFees","type":"bool","internalType":"bool"}],"outputs":[],"stateMutability":"nonpayable"},{"type":"function","name":"setFundingRate","inputs":[{"name":"_fundingInterval","type":"uint256","internalType":"uint256"},{"name":"_fundingRateFactor","type":"uint256","internalType":"uint256"},{"name":"_stableFundingRateFactor","type":"uint256","internalType":"uint256"}],"outputs":[],"stateMutability":"nonpayable"},{"type":"function","name":"setGov","inputs":[{"name":"_gov","type":"address","internalType":"address"}],"outputs":[],"stateMutability":"nonpayable"},{"type":"function","name":"setGovWithDeadline","inputs":[{"name":"_gov","type":"address","internalType":"address"},{"name":"_deadline","type":"uint256","internalType":"uint256"}],"outputs":[],"stateMutability":"nonpayable"},{"type":"function","name":"setInManagerMode","inputs":[{"name":"_inManagerMode","type":"bool","internalType":"bool"}],"outputs":[],"stateMutability":"nonpayable"},{"type":"function","name":"setInPrivateLiquidationMode","inputs":[{"name":"_inPrivateLiquidationMode","type":"bool","internalType":"bool"}],"outputs":[],"stateMutability":"nonpayable"},{"type":"function","name":"setIsLeverageEnabled","inputs":[{"name":"_isLeverageEnabled","type":"bool","internalType":"bool"}],"outputs":[],"stateMutability":"nonpayable"},{"type":"function","name":"setIsSwapEnabled","inputs":[{"name":"_isSwapEnabled","type":"bool","internalType":"bool"}],"outputs":[],"stateMutability":"nonpayable"},{"type":"function","name":"setLiquidator","inputs":[{"name":"_liquidator","type":"address","internalType":"address"},{"name":"_isActive","type":"bool","internalType":"bool"}],"outputs":[],"stateMutability":"nonpayable"},{"type":"function","name":"setManager","inputs":[{"name":"_manager","type":"address","internalType":"address"},{"name":"_isManager","type":"bool","internalType":"bool"}],"outputs":[],"stateMutability":"nonpayable"},{"type":"function","name":"setMaxGasPrice","inputs":[{"name":"_maxGasPrice","type":"uint256","internalType":"uint256"}],"outputs":[],"stateMutability":"nonpayable"},{"type":"function","name":"setMaxGlobalShortSize","inputs":[{"name":"_token","type":"address","internalType":"address"},{"name":"_amount","type":"uint256","internalType":"uint256"}],"outputs":[],"stateMutability":"nonpayable"},{"type":"function","name":"setMaxLeverage","inputs":[{"name":"_maxLeverage","type":"uint256","internalType":"uint256"}],"outputs":[],"stateMutability":"nonpayable"},{"type":"function","name":"setPriceFeed","inputs":[{"name":"_priceFeed","type":"address","internalType":"address"}],"outputs":[],"stateMutability":"nonpayable"},{"type":"function","name":"setTokenConfig","inputs":[{"name":"_token","type":"address","internalType":"address"},{"name":"_tokenDecimals","type":"uint256","internalType":"uint256"},{"name":"_tokenWeight","type":"uint256","internalType":"uint256"},{"name":"_minProfitBps","type":"uint256","internalType":"uint256"},{"name":"_maxUsdgAmount","type":"uint256","internalType":"uint256"},{"name":"_isStable","type":"bool","internalType":"bool"},{"name":"_isShortable","type":"bool","internalType":"bool"}],"outputs":[],"stateMutability":"nonpayable"},{"type":"function","name":"setUsdgAmount","inputs":[{"name":"_token","type":"address","internalType":"address"},{"name":"_amount","type":"uint256","internalType":"uint256"}],"outputs":[],"stateMutability":"nonpayable"},{"type":"function","name":"setVaultUtils","inputs":[{"name":"_vaultUtils","type":"address","internalType":"contract IVaultUtils"}],"outputs":[],"stateMutability":"nonpayable"},{"type":"function","name":"shortableTokens","inputs":[{"name":"","type":"address","internalType":"address"}],"outputs":[{"name":"","type":"bool","internalType":"bool"}],"stateMutability":"view"},{"type":"function","name":"stableFundingRateFactor","inputs":[],"outputs":[{"name":"","type":"uint256","internalType":"uint256"}],"stateMutability":"view"},{"type":"function","name":"stableSwapFeeBasisPoints","inputs":[],"outputs":[{"name":"","type":"uint256","internalType":"uint256"}],"stateMutability":"view"},{"type":"function","name":"stableTaxBasisPoints","inputs":[],"outputs":[{"name":"","type":"uint256","internalType":"uint256"}],"stateMutability":"view"},{"type":"function","name":"stableTokens","inputs":[{"name":"","type":"address","internalType":"address"}],"outputs":[{"name":"","type":"bool","internalType":"bool"}],"stateMutability":"view"},{"type":"function","name":"swap","inputs":[{"name":"_tokenIn","type":"address","internalType":"address"},{"name":"_tokenOut","type":"address","internalType":"address"},{"name":"_receiver","type":"address","internalType":"address"}],"outputs":[{"name":"","type":"uint256","internalType":"uint256"}],"stateMutability":"nonpayable"},{"type":"function","name":"swapFeeBasisPoints","inputs":[],"outputs":[{"name":"","type":"uint256","internalType":"uint256"}],"stateMutability":"view"},{"type":"function","name":"taxBasisPoints","inputs":[],"outputs":[{"name":"","type":"uint256","internalType":"uint256"}],"stateMutability":"view"},{"type":"function","name":"tokenBalances","inputs":[{"name":"","type":"address","internalType":"address"}],"outputs":[{"name":"","type":"uint256","internalType":"uint256"}],"stateMutability":"view"},{"type":"function","name":"tokenDecimals","inputs":[{"name":"","type":"address","internalType":"address"}],"outputs":[{"name":"","type":"uint256","internalType":"uint256"}],"stateMutability":"view"},{"type":"function","name":"tokenToUsdMin","inputs":[{"name":"_token","type":"address","internalType":"address"},{"name":"_tokenAmount","type":"uint256","internalType":"uint256"}],"outputs":[{"name":"","type":"uint256","internalType":"uint256"}],"stateMutability":"view"},{"type":"function","name":"tokenWeights","inputs":[{"name":"","type":"address","internalType":"address"}],"outputs":[{"name":"","type":"uint256","internalType":"uint256"}],"stateMutability":"view"},{"type":"function","name":"totalTokenWeights","inputs":[],"outputs":[{"name":"","type":"uint256","internalType":"uint256"}],"stateMutability":"view"},{"type":"function","name":"updateCumulativeFundingRate","inputs":[{"name":"_collateralToken","type":"address","internalType":"address"},{"name":"_indexToken","type":"address","internalType":"address"}],"outputs":[],"stateMutability":"nonpayable"},{"type":"function","name":"upgradeVault","inputs":[{"name":"_newVault","type":"address","internalType":"address"},{"name":"_token","type":"address","internalType":"address"},{"name":"_amount","type":"uint256","internalType":"uint256"}],"outputs":[],"stateMutability":"nonpayable"},{"type":"function","name":"usdToToken","inputs":[{"name":"_token","type":"address","internalType":"address"},{"name":"_usdAmount","type":"uint256","internalType":"uint256"},{"name":"_price","type":"uint256","internalType":"uint256"}],"outputs":[{"name":"","type":"uint256","internalType":"uint256"}],"stateMutability":"view"},{"type":"function","name":"usdToTokenMax","inputs":[{"name":"_token","type":"address","internalType":"address"},{"name":"_usdAmount","type":"uint256","internalType":"uint256"}],"outputs":[{"name":"","type":"uint256","internalType":"uint256"}],"stateMutability":"view"},{"type":"function","name":"usdToTokenMin","inputs":[{"name":"_token","type":"address","internalType":"address"},{"name":"_usdAmount","type":"uint256","internalType":"uint256"}],"outputs":[{"name":"","type":"uint256","internalType":"uint256"}],"stateMutability":"view"},{"type":"function","name":"usdg","inputs":[],"outputs":[{"name":"","type":"address","internalType":"address"}],"stateMutability":"view"},{"type":"function","name":"usdgAmounts","inputs":[{"name":"","type":"address","internalType":"address"}],"outputs":[{"name":"","type":"uint256","internalType":"uint256"}],"stateMutability":"view"},{"type":"function","name":"useSwapPricing","inputs":[],"outputs":[{"name":"","type":"bool","internalType":"bool"}],"stateMutability":"view"},{"type":"function","name":"validateLiquidation","inputs":[{"name":"_account","type":"address","internalType":"address"},{"name":"_collateralToken","type":"address","internalType":"address"},{"name":"_indexToken","type":"address","internalType":"address"},{"name":"_isLong","type":"bool","internalType":"bool"},{"name":"_raise","type":"bool","internalType":"bool"}],"outputs":[{"name":"","type":"uint256","internalType":"uint256"},{"name":"","type":"uint256","internalType":"uint256"}],"stateMutability":"view"},{"type":"function","name":"vaultUtils","inputs":[],"outputs":[{"name":"","type":"address","internalType":"contract IVaultUtils"}],"stateMutability":"view"},{"type":"function","name":"whitelistedTokenCount","inputs":[],"outputs":[{"name":"","type":"uint256","internalType":"uint256"}],"stateMutability":"view"},{"type":"function","name":"whitelistedTokens","inputs":[{"name":"","type":"address","internalType":"address"}],"outputs":[{"name":"","type":"bool","internalType":"bool"}],"stateMutability":"view"},{"type":"function","name":"withdrawFees","inputs":[{"name":"_token","type":"address","internalType":"address"},{"name":"_receiver","type":"address","internalType":"address"}],"outputs":[{"name":"","type":"uint256","internalType":"uint256"}],"stateMutability":"nonpayable"},{"type":"event","name":"BuyUSDG","inputs":[{"name":"account","type":"address","indexed":false,"internalType":"address"},{"name":"token","type":"address","indexed":false,"internalType":"address"},{"name":"tokenAmount","type":"uint256","indexed":false,"internalType":"uint256"},{"name":"usdgAmount","type":"uint256","indexed":false,"internalType":"uint256"},{"name":"feeBasisPoints","type":"uint256","indexed":false,"internalType":"uint256"}],"anonymous":false},{"type":"event","name":"ClosePosition","inputs":[{"name":"key","type":"bytes32","indexed":false,"internalType":"bytes32"},{"name":"size","type":"uint256","indexed":false,"internalType":"uint256"},{"name":"collateral","type":"uint256","indexed":false,"internalType":"uint256"},{"name":"averagePrice","type":"uint256","indexed":false,"internalType":"uint256"},{"name":"entryFundingRate","type":"uint256","indexed":false,"internalType":"uint256"},{"name":"reserveAmount","type":"uint256","indexed":false,"internalType":"uint256"},{"name":"realisedPnl","type":"int256","indexed":false,"internalType":"int256"}],"anonymous":false},{"type":"event","name":"CollectMarginFees","inputs":[{"name":"token","type":"address","indexed":false,"internalType":"address"},{"name":"feeUsd","type":"uint256","indexed":false,"internalType":"uint256"},{"name":"feeTokens","type":"uint256","indexed":false,"internalType":"uint256"}],"anonymous":false},{"type":"event","name":"CollectSwapFees","inputs":[{"name":"token","type":"address","indexed":false,"internalType":"address"},{"name":"feeUsd","type":"uint256","indexed":false,"internalType":"uint256"},{"name":"feeTokens","type":"uint256","indexed":false,"internalType":"uint256"}],"anonymous":false},{"type":"event","name":"DecreaseGuaranteedUsd","inputs":[{"name":"token","type":"address","indexed":false,"internalType":"address"},{"name":"amount","type":"uint256","indexed":false,"internalType":"uint256"}],"anonymous":false},{"type":"event","name":"DecreasePoolAmount","inputs":[{"name":"token","type":"address","indexed":false,"internalType":"address"},{"name":"amount","type":"uint256","indexed":false,"internalType":"uint256"}],"anonymous":false},{"type":"event","name":"DecreasePosition","inputs":[{"name":"key","type":"bytes32","indexed":false,"internalType":"bytes32"},{"name":"account","type":"address","indexed":false,"internalType":"address"},{"name":"collateralToken","type":"address","indexed":false,"internalType":"address"},{"name":"indexToken","type":"address","indexed":false,"internalType":"address"},{"name":"collateralDelta","type":"uint256","indexed":false,"internalType":"uint256"},{"name":"sizeDelta","type":"uint256","indexed":false,"internalType":"uint256"},{"name":"isLong","type":"bool","indexed":false,"internalType":"bool"},{"name":"price","type":"uint256","indexed":false,"internalType":"uint256"},{"name":"fee","type":"uint256","indexed":false,"internalType":"uint256"}],"anonymous":false},{"type":"event","name":"DecreaseReservedAmount","inputs":[{"name":"token","type":"address","indexed":false,"internalType":"address"},{"name":"amount","type":"uint256","indexed":false,"internalType":"uint256"}],"anonymous":false},{"type":"event","name":"DecreaseUsdgAmount","inputs":[{"name":"token","type":"address","indexed":false,"internalType":"address"},{"name":"amount","type":"uint256","indexed":false,"internalType":"uint256"}],"anonymous":false},{"type":"event","name":"DirectPoolDeposit","inputs":[{"name":"token","type":"address","indexed":false,"internalType":"address"},{"name":"amount","type":"uint256","indexed":false,"internalType":"uint256"}],"anonymous":false},{"type":"event","name":"GovernanceTransferRequested","inputs":[{"name":"newGov","type":"address","indexed":true,"internalType":"address"},{"name":"deadline","type":"uint256","indexed":false,"internalType":"uint256"}],"anonymous":false},{"type":"event","name":"GovernanceTransferred","inputs":[{"name":"oldGov","type":"address","indexed":true,"internalType":"address"},{"name":"newGov","type":"address","indexed":true,"internalType":"address"}],"anonymous":false},{"type":"event","name":"IncreaseGuaranteedUsd","inputs":[{"name":"token","type":"address","indexed":false,"internalType":"address"},{"name":"amount","type":"uint256","indexed":false,"internalType":"uint256"}],"anonymous":false},{"type":"event","name":"IncreasePoolAmount","inputs":[{"name":"token","type":"address","indexed":false,"internalType":"address"},{"name":"amount","type":"uint256","indexed":false,"internalType":"uint256"}],"anonymous":false},{"type":"event","name":"IncreasePosition","inputs":[{"name":"key","type":"bytes32","indexed":false,"internalType":"bytes32"},{"name":"account","type":"address","indexed":false,"internalType":"address"},{"name":"collateralToken","type":"address","indexed":false,"internalType":"address"},{"name":"indexToken","type":"address","indexed":false,"internalType":"address"},{"name":"collateralDelta","type":"uint256","indexed":false,"internalType":"uint256"},{"name":"sizeDelta","type":"uint256","indexed":false,"internalType":"uint256"},{"name":"isLong","type":"bool","indexed":false,"internalType":"bool"},{"name":"price","type":"uint256","indexed":false,"internalType":"uint256"},{"name":"fee","type":"uint256","indexed":false,"internalType":"uint256"}],"anonymous":false},{"type":"event","name":"IncreaseReservedAmount","inputs":[{"name":"token","type":"address","indexed":false,"internalType":"address"},{"name":"amount","type":"uint256","indexed":false,"internalType":"uint256"}],"anonymous":false},{"type":"event","name":"IncreaseUsdgAmount","inputs":[{"name":"token","type":"address","indexed":false,"internalType":"address"},{"name":"amount","type":"uint256","indexed":false,"internalType":"uint256"}],"anonymous":false},{"type":"event","name":"LiquidatePosition","inputs":[{"name":"key","type":"bytes32","indexed":false,"internalType":"bytes32"},{"name":"account","type":"address","indexed":false,"internalType":"address"},{"name":"collateralToken","type":"address","indexed":false,"internalType":"address"},{"name":"indexToken","type":"address","indexed":false,"internalType":"address"},{"name":"isLong","type":"bool","indexed":false,"internalType":"bool"},{"name":"size","type":"uint256","indexed":false,"internalType":"uint256"},{"name":"collateral","type":"uint256","indexed":false,"internalType":"uint256"},{"name":"reserveAmount","type":"uint256","indexed":false,"internalType":"uint256"},{"name":"realisedPnl","type":"int256","indexed":false,"internalType":"int256"},{"name":"markPrice","type":"uint256","indexed":false,"internalType":"uint256"}],"anonymous":false},{"type":"event","name":"SellUSDG","inputs":[{"name":"account","type":"address","indexed":false,"internalType":"address"},{"name":"token","type":"address","indexed":false,"internalType":"address"},{"name":"usdgAmount","type":"uint256","indexed":false,"internalType":"uint256"},{"name":"tokenAmount","type":"uint256","indexed":false,"internalType":"uint256"},{"name":"feeBasisPoints","type":"uint256","indexed":false,"internalType":"uint256"}],"anonymous":false},{"type":"event","name":"Swap","inputs":[{"name":"account","type":"address","indexed":false,"internalType":"address"},{"name":"tokenIn","type":"address","indexed":false,"internalType":"address"},{"name":"tokenOut","type":"address","indexed":false,"internalType":"address"},{"name":"amountIn","type":"uint256","indexed":false,"internalType":"uint256"},{"name":"amountOut","type":"uint256","indexed":false,"internalType":"uint256"},{"name":"amountOutAfterFees","type":"uint256","indexed":false,"internalType":"uint256"},{"name":"feeBasisPoints","type":"uint256","indexed":false,"internalType":"uint256"}],"anonymous":false},{"type":"event","name":"UpdateFundingRate","inputs":[{"name":"token","type":"address","indexed":false,"internalType":"address"},{"name":"fundingRate","type":"uint256","indexed":false,"internalType":"uint256"}],"anonymous":false},{"type":"event","name":"UpdatePnl","inputs":[{"name":"key","type":"bytes32","indexed":false,"internalType":"bytes32"},{"name":"hasProfit","type":"bool","indexed":false,"internalType":"bool"},{"name":"delta","type":"uint256","indexed":false,"internalType":"uint256"}],"anonymous":false},{"type":"event","name":"UpdatePosition","inputs":[{"name":"key","type":"bytes32","indexed":false,"internalType":"bytes32"},{"name":"size","type":"uint256","indexed":false,"internalType":"uint256"},{"name":"collateral","type":"uint256","indexed":false,"internalType":"uint256"},{"name":"averagePrice","type":"uint256","indexed":false,"internalType":"uint256"},{"name":"entryFundingRate","type":"uint256","indexed":false,"internalType":"uint256"},{"name":"reserveAmount","type":"uint256","indexed":false,"internalType":"uint256"},{"name":"realisedPnl","type":"int256","indexed":false,"internalType":"int256"},{"name":"markPrice","type":"uint256","indexed":false,"internalType":"uint256"}],"anonymous":false}],"bytecode":{"object":"0x608060405234801561001057600080fd5b506162d980620000216000396000f3fe608060405234801561001057600080fd5b50600436106105d05760003560e01c8063870d917c116102ff578063c7e074c31161019a578063c7e074c3146112d9578063cea0c32814611319578063cfad57a21461134f578063d2fa635e14611375578063d3127e6314611392578063d54d5a9f146113af578063d66b000d1461140e578063d8f897c31461143a578063d9ac422514611460578063da76524c14611468578063daf9c210146114b2578063db3555fb146114d8578063db97495f146114fe578063dc8f5fac1461154a578063de2ea94814611552578063df73a2671461159a578063e124e6d2146115a2578063e468baf0146115c8578063e67f59a7146115e5578063efa10a6e1461160b578063f07456ce14611637578063f07bbf771461165d578063f1675a8b1461167c578063f2555278146116c4578063f3ae2415146116f2578063f5b91b7b14611718578063f887ea4014611720578063fa12dbc014611728578063fbfded6d1461175a578063fce28c1014611788578063fdaf6ac314611790578063fed1a606146117d4576105d0565b8063870d917c14610f0b57806388b1fbdf14610f135780638a27d46814610f395780638a39735a146106515780638a78daa814610f625780638d0fedb014610f885780638ee573ac14610fc75780638f7b840414610fed5780639060b1ca14611013578063933162121461101b57806395082d25146110535780639698d25a1461105b5780639849e412146110815780639899cd02146110895780639c35b497146110b55780639d7432ca146110db5780639f392eb31461110d578063a22f239214611115578063a42ab3d21461111d578063a5e90eee14611149578063a93acac214611177578063ab08c1c61461119d578063ab2f3ad4146111a5578063ad1e4f8d146111cb578063ae3302c2146111f1578063b06423f3146111f9578063b136ca4914611201578063b1cc53ab14611227578063b364accb1461125f578063c3c7b9e914611285578063c4f718bf146112ab578063c65bc7b1146112b3576105d0565b806348d91abf1161046f57806348d91abf14610a2e57806348f35cbb14610a725780634a3f088d14610a7a5780634a993ee914610afb5780634befe2ca14610b215780634d47b30414610b29578063514ea4bf14610b3157806351723e8214610b86578063523fba7f14610bc4578063529a356f14610bea57806352f55eed14610c105780635c07eaab14610c365780635f7bc11914610c765780636092219914610c9c57806362287a3214610cca5780636274980314610cd25780636a6f342414610cf85780636abbe0c814610d245780636ae0b15414610d2c5780636bb22fd714610d525780636be6026b14610d7e57806371089f4d14610d86578063711e619014610dac578063724e78da14610dda578063741bef1a14610e005780637a210a2b14610e085780637bc6729b14610e105780637c2eb9f714610e18578063817bb85714610e3757806381a612d614610e6557806382a0849014610e8b5780638585f4d214610edf576105d0565b806304fef1db146105d557806307c587521461060d5780630842b076146106155780630a48d5a91461061d57806310eb56c214610649578063126082cf1461065157806312d43a5114610659578063134ca63b1461067d578063174d269414610685578063181e210e1461068d5780631aa4ace5146106a95780631ce9cb8f146106cf57806324b0c04d146106f557806324ca984e1461071657806328e67be51461073c57806329ff9615146107b15780632c668ec1146107d75780632d4b05761461080357806330455ede14610841578063318bc6891461086057806334c1557d14610651578063351a964d14610868578063392e53cd146108705780633a05dcc1146108785780633c5a6e351461089e5780633de39c11146108ec5780633e72a262146108f457806340eb3802146108fc578063421528731461094d57806342b60b03146109815780634453a374146109a757806345a6f370146109d5575b600080fd5b6105fb600480360360208110156105eb57600080fd5b50356001600160a01b0316611866565b60408051918252519081900360200190f35b6105fb6118c9565b6105fb6118da565b6105fb6004803603604081101561063357600080fd5b506001600160a01b0381351690602001356118e0565b6105fb611933565b6105fb611939565b61066161193f565b604080516001600160a01b039092168252519081900360200190f35b6105fb61194e565b6105fb611954565b61069561195a565b604080519115158252519081900360200190f35b6105fb600480360360208110156106bf57600080fd5b50356001600160a01b031661196a565b6105fb600480360360208110156106e557600080fd5b50356001600160a01b031661197c565b6107146004803603602081101561070b57600080fd5b5035151561198e565b005b6107146004803603602081101561072c57600080fd5b50356001600160a01b03166119b2565b6107146004803603604081101561075257600080fd5b81359190810190604081016020820135600160201b81111561077357600080fd5b82018360208201111561078557600080fd5b803590602001918460018302840111600160201b831117156107a657600080fd5b5090925090506119e3565b6105fb600480360360208110156107c757600080fd5b50356001600160a01b0316611a61565b6105fb600480360360408110156107ed57600080fd5b506001600160a01b038135169060200135611a75565b6105fb6004803603608081101561081957600080fd5b506001600160a01b038135811691602081013582169160408201351690606001351515611aba565b6107146004803603602081101561085757600080fd5b50351515611b10565b6105fb611b32565b610695611b38565b610695611b46565b6105fb6004803603602081101561088e57600080fd5b50356001600160a01b0316611b4f565b610714600480360360e08110156108b457600080fd5b506001600160a01b038135169060208101359060408101359060608101359060808101359060a081013515159060c001351515611c0f565b6105fb611d52565b610695611d58565b610714600480360361012081101561091357600080fd5b5080359060208101359060408101359060608101359060808101359060a08101359060c08101359060e08101359061010001351515611d67565b6105fb6004803603606081101561096357600080fd5b508035906001600160a01b0360208201358116916040013516611da6565b6106956004803603602081101561099757600080fd5b50356001600160a01b0316611e48565b610714600480360360408110156109bd57600080fd5b506001600160a01b0381351690602001351515611e5c565b610a13600480360360808110156109eb57600080fd5b506001600160a01b038135811691602081013582169160408201351690606001351515611e8f565b60408051921515835260208301919091528051918290030190f35b610714600480360360a0811015610a4457600080fd5b506001600160a01b038135811691602081013582169160408201351690606081013590608001351515611f2d565b6106616123f9565b610ab860048036036080811015610a9057600080fd5b506001600160a01b038135811691602081013582169160408201351690606001351515612408565b604080519889526020890197909752878701959095526060870193909352608086019190915260a0850152151560c084015260e083015251908190036101000190f35b6105fb60048036036020811015610b1157600080fd5b50356001600160a01b03166124fe565b6105fb612510565b6105fb612516565b610b4e60048036036020811015610b4757600080fd5b503561251c565b604080519788526020880196909652868601949094526060860192909252608085015260a084015260c0830152519081900360e00190f35b6105fb60048036036080811015610b9c57600080fd5b506001600160a01b038135811691602081013582169160408201351690606001351515612559565b6105fb60048036036020811015610bda57600080fd5b50356001600160a01b03166125ff565b61069560048036036020811015610c0057600080fd5b50356001600160a01b0316612611565b6105fb60048036036020811015610c2657600080fd5b50356001600160a01b0316612626565b610a13600480360360a0811015610c4c57600080fd5b506001600160a01b0381351690602081013590604081013590606081013515159060800135612638565b61071460048036036020811015610c8c57600080fd5b50356001600160a01b0316612730565b61069560048036036040811015610cb257600080fd5b506001600160a01b0381358116916020013516612813565b6105fb612833565b6105fb60048036036020811015610ce857600080fd5b50356001600160a01b0316612839565b61071460048036036040811015610d0e57600080fd5b506001600160a01b03813516906020013561284b565b610661612859565b61071460048036036020811015610d4257600080fd5b50356001600160a01b031661286f565b61071460048036036040811015610d6857600080fd5b506001600160a01b03813516906020013561289d565b6105fb6128e2565b61071460048036036020811015610d9c57600080fd5b50356001600160a01b03166128e9565b6105fb60048036036040811015610dc257600080fd5b506001600160a01b038135811691602001351661291d565b61071460048036036020811015610df057600080fd5b50356001600160a01b0316612bb1565b610661612bdb565b6105fb612bea565b610714612bf0565b61071460048036036020811015610e2e57600080fd5b50351515612c93565b6105fb60048036036040811015610e4d57600080fd5b506001600160a01b0381358116916020013516612cb7565b6105fb60048036036020811015610e7b57600080fd5b50356001600160a01b0316612f87565b6105fb600480360360e0811015610ea157600080fd5b506001600160a01b0381358116916020810135821691604082013581169160608101359160808201359160a081013515159160c09091013516613032565b61071460048036036040811015610ef557600080fd5b506001600160a01b0381351690602001356130b0565b6105fb6130d4565b6105fb60048036036020811015610f2957600080fd5b50356001600160a01b03166130d9565b61071460048036036060811015610f4f57600080fd5b50803590602081013590604001356130eb565b6105fb60048036036020811015610f7857600080fd5b50356001600160a01b0316613131565b610fae60048036036020811015610f9e57600080fd5b50356001600160a01b0316613143565b6040805192835290151560208301528051918290030190f35b6105fb60048036036020811015610fdd57600080fd5b50356001600160a01b031661315f565b6107146004803603602081101561100357600080fd5b50356001600160a01b0316613171565b61069561319b565b6105fb6004803603606081101561103157600080fd5b506001600160a01b0381358116916020810135821691604090910135166131aa565b6105fb613492565b6105fb6004803603602081101561107157600080fd5b50356001600160a01b03166134a2565b6105fb6134b4565b6105fb6004803603604081101561109f57600080fd5b506001600160a01b0381351690602001356134ba565b610714600480360360208110156110cb57600080fd5b50356001600160a01b03166134dc565b6105fb600480360360608110156110f157600080fd5b506001600160a01b038135169060208101359060400135613535565b6106956135de565b6105fb6135e7565b6105fb6004803603604081101561113357600080fd5b506001600160a01b0381351690602001356135ed565b6107146004803603604081101561115f57600080fd5b506001600160a01b038135169060200135151561360a565b6105fb6004803603602081101561118d57600080fd5b50356001600160a01b031661363d565b61069561373a565b6105fb600480360360208110156111bb57600080fd5b50356001600160a01b0316613743565b6105fb600480360360208110156111e157600080fd5b50356001600160a01b0316613755565b6105fb613767565b61069561376d565b6105fb6004803603602081101561121757600080fd5b50356001600160a01b031661377b565b6105fb6004803603606081101561123d57600080fd5b506001600160a01b03813581169160208101359091169060400135151561381b565b610a136004803603602081101561127557600080fd5b50356001600160a01b03166138b6565b6105fb6004803603602081101561129b57600080fd5b50356001600160a01b031661394e565b6105fb613960565b6105fb600480360360208110156112c957600080fd5b50356001600160a01b0316613966565b6105fb600480360360a08110156112ef57600080fd5b506001600160a01b0381351690602081013590604081013590606081013590608001351515613978565b6107146004803603606081101561132f57600080fd5b506001600160a01b03813581169160208101359091169060400135613a22565b6107146004803603602081101561136557600080fd5b50356001600160a01b0316613a43565b6107146004803603602081101561138b57600080fd5b5035613a8d565b610714600480360360208110156113a857600080fd5b5035613a9a565b6113f5600480360360a08110156113c557600080fd5b506001600160a01b0381358116916020810135821691604082013516906060810135151590608001351515613ab6565b6040805192835260208301919091528051918290030190f35b6107146004803603604081101561142457600080fd5b506001600160a01b038135169060200135613b6d565b6105fb6004803603602081101561145057600080fd5b50356001600160a01b0316613bc2565b6105fb613bd4565b6105fb600480360360c081101561147e57600080fd5b506001600160a01b038135811691602081013582169160408201351690606081013515159060808101359060a00135613bda565b610695600480360360208110156114c857600080fd5b50356001600160a01b0316613c8e565b610695600480360360208110156114ee57600080fd5b50356001600160a01b0316613ca3565b6105fb600480360360e081101561151457600080fd5b506001600160a01b0381351690602081013590604081013590606081013515159060808101359060a08101359060c00135613cb8565b6105fb613d49565b610714600480360360a081101561156857600080fd5b506001600160a01b03813581169160208101358216916040820135811691606081013515159160809091013516613d4f565b6105fb614127565b6105fb600480360360208110156115b857600080fd5b50356001600160a01b031661412d565b610661600480360360208110156115de57600080fd5b50356141a5565b610714600480360360208110156115fb57600080fd5b50356001600160a01b03166141cc565b6107146004803603604081101561162157600080fd5b506001600160a01b0381351690602001356142a0565b6105fb6004803603602081101561164d57600080fd5b50356001600160a01b03166142c4565b6107146004803603602081101561167357600080fd5b503515156142d6565b610714600480360360c081101561169257600080fd5b506001600160a01b03813581169160208101358216916040820135169060608101359060808101359060a001356142fc565b6105fb600480360360408110156116da57600080fd5b506001600160a01b03813581169160200135166143cf565b6106956004803603602081101561170857600080fd5b50356001600160a01b0316614425565b61066161443a565b610661614449565b6105fb6004803603606081101561173e57600080fd5b506001600160a01b038135169060208101359060400135614458565b6107146004803603604081101561177057600080fd5b506001600160a01b0381358116916020013516614492565b6105fb61466b565b6105fb600480360360a08110156117a657600080fd5b506001600160a01b038135811691602081013582169160408201351690606081013515159060800135614671565b6117f1600480360360208110156117ea57600080fd5b50356146e7565b6040805160208082528351818301528351919283929083019185019080838360005b8381101561182b578181015183820152602001611813565b50505050905090810190601f1680156118585780820380516001836020036101000a031916815260200191505b509250505060405180910390f35b6001600160a01b0381166000908152602660205260408120548061188e5760009150506118c4565b6001600160a01b0383166000908152602760205260409020546118c09082906118ba90620f4240614782565b906147db565b9150505b919050565b6904ee2d6d415b85acef8160201b81565b601c5490565b6000816118ef5750600061192d565b60006118fa84612f87565b6001600160a01b0385166000908152601e6020526040902054909150611928600a82900a6118ba8685614782565b925050505b92915050565b600c5481565b61271081565b6006546001600160a01b031681565b60155481565b600a5481565b6017546301000000900460ff1681565b60246020526000908152604090205481565b602d6020526000908152604090205481565b61199661481a565b60178054911515620100000262ff000019909216919091179055565b3360009081526019602090815260408083206001600160a01b0394909416835292905220805460ff19166001179055565b6002546001600160a01b03163314611a42576040805162461bcd60e51b815260206004820152601e60248201527f5661756c743a20696e76616c6964206572726f72436f6e74726f6c6c65720000604482015290519081900360640190fd5b6000838152603160205260409020611a5b908383616168565b50505050565b600061192d82611a708461377b565b6118e0565b600080611a818461412d565b90506000611a9f826118ba8668327cb2734119d3b7a9601e1b614782565b6005549091506119289082906001600160a01b031687611da6565b604080516001600160601b0319606096871b811660208084019190915295871b811660348301529390951b9092166048850152151560f81b605c8401528051603d818503018152605d9093019052815191012090565b611b1861481a565b600180549115156101000261ff0019909216919091179055565b60105481565b600154610100900460ff1681565b60015460ff1681565b600080600560009054906101000a90046001600160a01b03166001600160a01b03166318160ddd6040518163ffffffff1660e01b815260040160206040518083038186803b158015611ba057600080fd5b505afa158015611bb4573d6000803e3d6000fd5b505050506040513d6020811015611bca57600080fd5b5051905080611bdd5760009150506118c4565b6001600160a01b038316600090815260236020526040902054601654611c07906118ba8385614782565b949350505050565b611c1761481a565b6001600160a01b0387166000908152601d602052604090205460ff16611c9457600854611c45906001614835565b600855601c80546001810182556000919091527f0e4562a10381dec21b205ed72637e6b1b523bdd0e4d4d50af5cd23dd4500a2110180546001600160a01b0319166001600160a01b0389161790555b6016546001600160a01b038816600090815260236020526040902054611cbb90829061488d565b6001600160a01b0389166000908152601d602090815260408083208054600160ff1991821617909155601e83528184208c9055602383528184208b9055601f83528184208a90556025835281842089905582805281842080548216891515179055602190925290912080549091168415151790559050611d3b8187614835565b601655611d478861412d565b505050505050505050565b60185481565b60015462010000900460ff1681565b611d6f61481a565b600b98909855600c96909655600d94909455600e92909255600f55601055600a556011556012805460ff1916911515919091179055565b60055460009081906001600160a01b03858116911614611dde576001600160a01b0384166000908152601e6020526040902054611de1565b60125b6005549091506000906001600160a01b03858116911614611e1a576001600160a01b0384166000908152601e6020526040902054611e1d565b60125b9050611e3c82600a0a6118ba83600a0a8961478290919063ffffffff16565b925050505b9392505050565b602080526000908152604090205460ff1681565b611e6461481a565b6001600160a01b03919091166000908152601a60205260409020805460ff1916911515919091179055565b6000806000611ea087878787611aba565b9050611eaa6161e6565b506000818152602c6020908152604091829020825160e081018452815480825260018301549382019390935260028201549381018490526003820154606082015260048201546080820152600582015460a082015260069091015460c082018190529092611f1e9289929091908990612638565b93509350505094509492505050565b60026000541415611f73576040805162461bcd60e51b815260206004820152601f6024820152600080516020616239833981519152604482015290519081900360640190fd5b6002600055600154611f8f9062010000900460ff16601c6148cf565b611f9761497b565b611fa085614997565b611fab8484836149f7565b60015460408051634eae147d60e11b81526001600160a01b038881166004830152878116602483015286811660448301526064820186905284151560848301529151630100000090930490911691639d5c28fa9160a480820192600092909190829003018186803b15801561201f57600080fd5b505afa158015612033573d6000803e3d6000fd5b505050506120418484614492565b600061204f86868685611aba565b6000818152602c60205260408120919250836120735761206e86612f87565b61207c565b61207c8661412d565b825490915061211a576002820181905560015460408051632339ab6b60e21b8152600481018690526001600160a01b038b811660248301528a81166044830152898116606483015287151560848301529151630100000090930490911691638ce6adac9160a48082019260009290919082900301818387803b15801561210157600080fd5b505af1158015612115573d6000803e3d6000fd5b505050505b81541580159061212a5750600085115b156121505761214a868360000154846002015487858a8860060154613cb8565b60028301555b6000612169898989888a88600001548960030154614b0a565b9050600061217689614bd8565b905060006121848a836118e0565b60018601549091506121969082614835565b600186018190556121ab90841115601d6148cf565b60018501546121ba908461488d565b60018601556121ca8a8a8961381b565b600386015584546121db9089614835565b8086554260068701556121f1901515601e6148cf565b61220385600001548660010154614c85565b6122118b8b8b8a6001613ab6565b5050600061221f8b8a6135ed565b60048701549091506122319082614835565b60048701556122408b82614ca9565b8715612285576122598b6122548b87614835565b614d49565b6122638b83614dc8565b61226d8b84614e47565b6122808b61227b8d876134ba565b614f5f565b6122f1565b6001600160a01b038a166000908152602e60205260409020546122c2576001600160a01b038a166000908152602f602052604090208590556122e7565b6122cd8a868b613535565b6001600160a01b038b166000908152602f60205260409020555b6122f18a8a615029565b604080518881526001600160a01b03808f166020830152808e16828401528c1660608201526080810184905260a081018b905289151560c082015260e08101879052610100810186905290517f2fe68525253654c21998f35787a8d0f361905ef647c854092430ab65f2f15022918190036101200190a1855460018701546002880154600389015460048a015460058b0154604080518e81526020810197909752868101959095526060860193909352608085019190915260a084015260c083015260e08201879052517f20853733b590dce729d9f4628682ebd9a34d2354e72679e66f43a008fc03b773918190036101000190a15050600160005550505050505050505050565b6002546001600160a01b031681565b60008060008060008060008060006124228d8d8d8d611aba565b905061242c6161e6565b602c60008381526020019081526020016000206040518060e001604052908160008201548152602001600182015481526020016002820154815260200160038201548152602001600482015481526020016005820154815260200160068201548152505090506000808260a00151136124ac578160a001516000036124b2565b8160a001515b9050816000015182602001518360400151846060015185608001518560008860a0015112158860c001519a509a509a509a509a509a509a509a5050505094995094995094999196509450565b60286020526000908152604090205481565b6101f481565b600d5481565b602c602052600090815260409020805460018201546002830154600384015460048501546005860154600690960154949593949293919290919087565b60008061256886868686611aba565b90506125726161e6565b506000818152602c6020908152604091829020825160e0810184528154815260018201549281018390526002820154938101939093526003810154606084015260048101546080840152600581015460a08401526006015460c08301526125dc90151560256148cf565b602081015181516125f491906118ba90612710614782565b979650505050505050565b60226020526000908152604090205481565b601a6020526000908152604090205460ff1681565b60266020526000908152604090205481565b6000806126496000861160266148cf565b60008461265e576126598861412d565b612667565b61266788612f87565b905060008187116126815761267c828861488d565b61268b565b61268b878361488d565b9050600061269d886118ba8b85614782565b9050600087156126b057508783116126b5565b508288115b60006126cc6011548961483590919063ffffffff16565b42116126f0576001600160a01b038c166000908152601f60205260409020546126f3565b60005b905081801561271657506127078b82614782565b61271384612710614782565b11155b1561272057600092505b509a909950975050505050505050565b60026000541415612776576040805162461bcd60e51b815260206004820152601f6024820152600080516020616239833981519152604482015290519081900360640190fd5b600260009081556001600160a01b0382168152601d60205260409020546127a19060ff16600e6148cf565b60006127ac82614bd8565b90506127bc60008211600f6148cf565b6127c68282614e47565b604080516001600160a01b03841681526020810183905281517fa5a389190ebf6170a133bda5c769b77f4d6715b8aa172ec0ddf8473d0b4944bd929181900390910190a150506001600055565b601960209081526000928352604080842090915290825290205460ff1681565b60085481565b602f6020526000908152604090205481565b6128558282615029565b5050565b600154630100000090046001600160a01b031681565b3360009081526019602090815260408083206001600160a01b0394909416835292905220805460ff19169055565b6128a561481a565b6128bb6001600160a01b038316151560386148cf565b6006546128d8906001600160a01b038481169116141560396148cf565b61285582826150d8565b620f424081565b6128f161481a565b600180546001600160a01b039092166301000000026301000000600160b81b0319909216919091179055565b600060026000541415612965576040805162461bcd60e51b815260206004820152601f6024820152600080516020616239833981519152604482015290519081900360640190fd5b6002600055612972615154565b6001600160a01b0383166000908152601d60205260409020546129999060ff1660136148cf565b6017805461ff0019166101001790556005546000906129c0906001600160a01b0316614bd8565b90506129d06000821160146148cf565b6129da8485614492565b60006129e68583611a75565b90506129f66000821160156148cf565b612a008583615183565b612a0a8582614f5f565b60055460408051632770a7eb60e21b81523060048201526024810185905290516001600160a01b0390921691639dc29fac9160448082019260009290919082900301818387803b158015612a5d57600080fd5b505af1158015612a71573d6000803e3d6000fd5b5050600554612a8b92506001600160a01b03169050615265565b6001546040805163eb0835bf60e01b81526001600160a01b038881166004830152602482018690529151600093630100000090049092169163eb0835bf91604480820192602092909190829003018186803b158015612ae957600080fd5b505afa158015612afd573d6000803e3d6000fd5b505050506040513d6020811015612b1357600080fd5b505190506000612b24878484615300565b9050612b346000821160166148cf565b612b3f8782886153c8565b604080516001600160a01b03808916825289166020820152808201869052606081018390526080810184905290517fd732b7828fa6cee72c285eac756fc66a7477e3dc22e22e7c432f1c265d40b4839181900360a00190a16017805461ff001916905560016000559695505050505050565b612bb961481a565b600480546001600160a01b0319166001600160a01b0392909216919091179055565b6004546001600160a01b031681565b600b5481565b3360009081526007602052604090208054612c0e904210603a6148cf565b600180820154612c279160ff909116151514603b6148cf565b6006805433600081815260076020526040808220828155600101805460ff1916905584546001600160a01b031916831790945592516001600160a01b0390921692909183917f5f56bee8cffbe9a78652a74a60705edede02af10b0bbb888ca44b79a0d42ce8091a35050565b612c9b61481a565b60018054911515620100000262ff000019909216919091179055565b600060026000541415612cff576040805162461bcd60e51b815260206004820152601f6024820152600080516020616239833981519152604482015290519081900360640190fd5b6002600055612d0c615154565b6001600160a01b0383166000908152601d6020526040902054612d339060ff1660106148cf565b6017805461ff0019166101001790556000612d4d84614bd8565b9050612d5d6000821160116148cf565b612d678485614492565b6000612d7285612f87565b90506000612d9068327cb2734119d3b7a9601e1b6118ba8585614782565b600554909150612dac90829088906001600160a01b0316611da6565b9050612dbc6000821160126148cf565b6001546040805163256f6ee360e11b81526001600160a01b0389811660048301526024820185905291516000936301000000900490921691634adeddc691604480820192602092909190829003018186803b158015612e1a57600080fd5b505afa158015612e2e573d6000803e3d6000fd5b505050506040513d6020811015612e4457600080fd5b505190506000612e55888684615300565b90506000612e7368327cb2734119d3b7a9601e1b6118ba8488614782565b600554909150612e8f9082908b906001600160a01b0316611da6565b9050612e9b898261546f565b612ea58983614e47565b600554604080516340c10f1960e01b81526001600160a01b038b8116600483015260248201859052915191909216916340c10f1991604480830192600092919082900301818387803b158015612efa57600080fd5b505af1158015612f0e573d6000803e3d6000fd5b5050604080516001600160a01b03808d1682528d1660208201528082018a9052606081018590526080810187905290517fab4c77c74cd32c85f35416cf03e7ce9e2d4387f7b7f2c1f4bf53daaecf8ea72d93509081900360a0019150a16017805461ff0019169055600160005598975050505050505050565b60048054601754604080516317e1d38560e11b81526001600160a01b038681169582019590955260006024820181905260ff80851615156044840152610100909404909316151560648201529051919390921691632fc3a70a916084808301926020929190829003018186803b15801561300057600080fd5b505afa158015613014573d6000803e3d6000fd5b505050506040513d602081101561302a57600080fd5b505192915050565b60006002600054141561307a576040805162461bcd60e51b815260206004820152601f6024820152600080516020616239833981519152604482015290519081900360640190fd5b600260005561308761497b565b61309088614997565b61309f8888888888888861552d565b600160005598975050505050505050565b6130b861481a565b6001600160a01b03909116600090815260286020526040902055565b601281565b601f6020526000908152604090205481565b6130f361481a565b613103610e10841015600a6148cf565b613113612710831115600b6148cf565b613123612710821115600c6148cf565b601392909255601455601555565b602e6020526000908152604090205481565b6007602052600090815260409020805460019091015460ff1682565b601e6020526000908152604090205481565b61317961481a565b600280546001600160a01b0319166001600160a01b0392909216919091179055565b60175462010000900460ff1681565b6000600260005414156131f2576040805162461bcd60e51b815260206004820152601f6024820152600080516020616239833981519152604482015290519081900360640190fd5b600260005560015461320d90610100900460ff1660176148cf565b6001600160a01b0384166000908152601d60205260409020546132349060ff1660186148cf565b6001600160a01b0383166000908152601d602052604090205461325b9060ff1660196148cf565b61327b836001600160a01b0316856001600160a01b03161415601a6148cf565b6017805461ff0019166101001790556132948480614492565b61329e8384614492565b60006132a985614bd8565b90506132b960008211601b6148cf565b60006132c486612f87565b905060006132d18661412d565b905060006132e3826118ba8686614782565b90506132f0818989611da6565b9050600061330e68327cb2734119d3b7a9601e1b6118ba8787614782565b60055490915061332a9082908b906001600160a01b0316611da6565b60015460408051636d099c0b60e11b81526001600160a01b038d811660048301528c8116602483015260448201859052915193945060009363010000009093049091169163da13381691606480820192602092909190829003018186803b15801561339457600080fd5b505afa1580156133a8573d6000803e3d6000fd5b505050506040513d60208110156133be57600080fd5b5051905060006133cf8a8584615300565b90506133db8b8461546f565b6133e58a84615183565b6133ef8b88614e47565b6133f98a85614f5f565b6134028a615a63565b61340d8a828b6153c8565b604080516001600160a01b03808c168252808e1660208301528c1681830152606081018990526080810186905260a0810183905260c0810184905290517f0874b2d545cb271cdbda4e093020c452328b24af12382ed62c4d00f5c26709db9181900360e00190a16017805461ff001916905560016000559a9950505050505050505050565b68327cb2734119d3b7a9601e1b81565b60306020526000908152604090205481565b60135481565b6000816134c95750600061192d565b611e4183836134d78661412d565b614458565b6134e461481a565b6001600160a01b03811660009081526007602052604090206001015461350e9060ff16603c6148cf565b6001600160a01b03166000908152600760205260408120908155600101805460ff19169055565b6001600160a01b0383166000908152602e6020908152604080832054602f909252822054828582116135705761356b868361488d565b61357a565b61357a828761488d565b9050600061358c836118ba8685614782565b9050868311600061359d8689614835565b90506000826135b5576135b08285614835565b6135bf565b6135bf828561488d565b90506135cf816118ba8c85614782565b9b9a5050505050505050505050565b60125460ff1681565b600e5481565b6000816135fc5750600061192d565b611e4183836134d786612f87565b61361261481a565b6001600160a01b03919091166000908152601b60205260409020805460ff1916911515919091179055565b6013546001600160a01b0382166000908152602b60205260408120549091429161366691614835565b1115613674575060006118c4565b6013546001600160a01b0383166000908152602b602052604081205490916136a1916118ba90429061488d565b6001600160a01b038416600090815260266020526040902054909150806136cd576000925050506118c4565b6001600160a01b038416600090815260208052604081205460ff166136f4576014546136f8565b6015545b6001600160a01b0386166000908152602760205260409020549091506137319083906118ba90869061372b908690614782565b90614782565b95945050505050565b60175460ff1681565b60236020526000908152604090205481565b60256020526000908152604090205481565b60095481565b601754610100900460ff1681565b6001600160a01b038116600090815260208052604081205460ff16156137ba57506001600160a01b0381166000908152602660205260409020546118c4565b6001600160a01b0382166000908152602960205260408120546137de9084906134ba565b6001600160a01b0384166000908152602760209081526040808320546026909252909120549192506118c091613815908490614835565b9061488d565b6001546040805163b1cc53ab60e01b81526001600160a01b038681166004830152858116602483015284151560448301529151600093630100000090049092169163b1cc53ab91606480820192602092909190829003018186803b15801561388257600080fd5b505afa158015613896573d6000803e3d6000fd5b505050506040513d60208110156138ac57600080fd5b5051949350505050565b6001600160a01b0381166000908152602e60205260408120548190806138e3576000809250925050613949565b60006138ee8561412d565b6001600160a01b0386166000908152602f60205260408120549192508282116139205761391b838361488d565b61392a565b61392a828461488d565b9050600061393c836118ba8785614782565b9390921195509193505050505b915091565b60276020526000908152604090205481565b60145481565b602a6020526000908152604090205481565b6001546040805163c7e074c360e01b81526001600160a01b03888116600483015260248201889052604482018790526064820186905284151560848301529151600093630100000090049092169163c7e074c39160a480820192602092909190829003018186803b1580156139ec57600080fd5b505afa158015613a00573d6000803e3d6000fd5b505050506040513d6020811015613a1657600080fd5b50519695505050505050565b613a2a61481a565b613a3e6001600160a01b0383168483615acb565b505050565b613a4b61481a565b613a616001600160a01b038216151560386148cf565b600654613a7e906001600160a01b038381169116141560396148cf565b613a8a816000196150d8565b50565b613a9561481a565b601855565b613aa261481a565b613ab1612710821160026148cf565b600955565b6001546040805163d54d5a9f60e01b81526001600160a01b03888116600483015287811660248301528681166044830152851515606483015284151560848301528251600094859463010000009091049092169263d54d5a9f9260a4808301939192829003018186803b158015613b2c57600080fd5b505afa158015613b40573d6000803e3d6000fd5b505050506040513d6040811015613b5657600080fd5b508051602090910151909890975095505050505050565b613b7561481a565b6001600160a01b03821660009081526024602052604090205480821115613baf57613ba983613ba4848461488d565b61546f565b50612855565b613a3e83613bbd838561488d565b615183565b602b6020526000908152604090205481565b60115481565b6001546040805163369d949360e21b81526001600160a01b0389811660048301528881166024830152878116604483015286151560648301526084820186905260a482018590529151600093630100000090049092169163da76524c9160c480820192602092909190829003018186803b158015613c5757600080fd5b505afa158015613c6b573d6000803e3d6000fd5b505050506040513d6020811015613c8157600080fd5b5051979650505050505050565b601d6020526000908152604090205460ff1681565b60216020526000908152604090205460ff1681565b6000806000613cca8a8a8a8a88612638565b90925090506000613cdb8a87614835565b905060008815613d0a5783613cf957613cf4828461488d565b613d03565b613d038284614835565b9050613d2b565b83613d1e57613d198284614835565b613d28565b613d28828461488d565b90505b613d39816118ba8a85614782565b9c9b505050505050505050505050565b60165481565b60026000541415613d95576040805162461bcd60e51b815260206004820152601f6024820152600080516020616239833981519152604482015290519081900360640190fd5b60026000556017546301000000900460ff1615613dca57336000908152601a6020526040902054613dca9060ff1660226148cf565b6017805460ff19169055613dde8484614492565b6000613dec86868686611aba565b9050613df66161e6565b506000818152602c6020908152604091829020825160e08101845281548082526001830154938201939093526002820154938101939093526003810154606084015260048101546080840152600581015460a08401526006015460c0830152613e6290151560236148cf565b600080613e73898989896000613ab6565b91509150613e86826000141560246148cf565b8160021415613ebb57613ea3898989600087600001518b8f61552d565b50506017805460ff191660011790555061411b915050565b6000613ec789836134ba565b6001600160a01b038a166000908152602d6020526040902054909150613eed9082614835565b6001600160a01b038a166000818152602d602090815260409182902093909355805191825291810184905280820183905290517f5d0c0019d3d45fadeb74eff9d2c9924d146d000ac6bcf3c28bf0ac3c9baa011a9181900360600190a1613f58898560800151615b1d565b8615613f875760208401518451613f79918b91613f749161488d565b614dc8565b613f878961227b8b856134ba565b600087613f9c57613f978961412d565b613fa5565b613fa589612f87565b90507f2e1f85a64a2f22cf2f0c42584e7c919ed4abe8d53675cff0f62bf1e95a1c676f868c8c8c8c8a600001518b602001518c608001518d60a001518a604051808b81526020018a6001600160a01b03168152602001896001600160a01b03168152602001886001600160a01b0316815260200187151581526020018681526020018581526020018481526020018381526020018281526020019a505050505050505050505060405180910390a1871580156140645750846020015183105b1561409257602085015160009061407b908561488d565b90506140908b61408b8d846134ba565b614e47565b505b876140a5576140a5898660000151615bd2565b6000868152602c60205260408120818155600181018290556002810182905560038101829055600481018290556005810182905560060155600a546140f1908b9061227b9082906134ba565b6141078a6141018c600a546134ba565b896153c8565b50506017805460ff19166001179055505050505b50506001600055505050565b600f5481565b60048054601754604080516317e1d38560e11b81526001600160a01b03868116958201959095526001602482015260ff80841615156044830152610100909304909216151560648301525160009390921691632fc3a70a91608480820192602092909190829003018186803b15801561300057600080fd5b601c81815481106141b257fe5b6000918252602090912001546001600160a01b0316905081565b6141d461481a565b6001600160a01b0381166000908152601d60205260409020546141fb9060ff16600d6148cf565b6001600160a01b0381166000908152602360205260409020546016546142209161488d565b6016556001600160a01b0381166000908152601d60209081526040808320805460ff19908116909155601e835281842084905560238352818420849055601f83528184208490556025835281842084905582805281842080548216905560219092529091208054909116905560085461429a90600161488d565b60085550565b6142a861481a565b6001600160a01b03909116600090815260306020526040902055565b60296020526000908152604090205481565b6142de61481a565b6017805491151563010000000263ff00000019909216919091179055565b600680546001600160a01b03191633179055600180546143229160ff90911615906148cf565b60018054600380546001600160a01b03199081166001600160a01b039a8b1617909155600580548216988a16989098179097556004805490971695909716949094178555600a92835560149182556015556201000061010060ff19968716851761ff0019161762ff000019161783556207a8f06009556032600b55600c55601e600d819055600e55600f92909255601091909155617080601355601780549092161763ffffff0019169055565b60006143d961481a565b6001600160a01b0383166000908152602d60205260409020548061440157600091505061192d565b6001600160a01b0384166000908152602d6020526040812055611e418482856153c8565b601b6020526000908152604090205460ff1681565b6005546001600160a01b031681565b6003546001600160a01b031681565b60008261446757506000611e41565b6001600160a01b0384166000908152601e6020526040902054613731836118ba86600a85900a614782565b6001546040805163fbfded6d60e01b81526001600160a01b03858116600483015284811660248301529151600093630100000090049092169163fbfded6d9160448082019260209290919082900301818787803b1580156144f257600080fd5b505af1158015614506573d6000803e3d6000fd5b505050506040513d602081101561451c57600080fd5b505190508061452b5750612855565b6001600160a01b0383166000908152602b6020526040902054614578576013546145599061372b42826147db565b6001600160a01b0384166000908152602b602052604090205550612855565b6013546001600160a01b0384166000908152602b602052604090205442916145a09190614835565b11156145ac5750612855565b60006145b78461363d565b6001600160a01b0385166000908152602a60205260409020549091506145dd9082614835565b6001600160a01b0385166000908152602a60205260409020556013546146079061372b42826147db565b6001600160a01b0385166000818152602b6020908152604080832094909455602a8152908390205483519283529082015281517fa146fc154e1913322e9817d49f0d5c37466c24326e15de10e739a948be815eab929181900390910190a150505050565b610e1081565b6001546040805163fdaf6ac360e01b81526001600160a01b038881166004830152878116602483015286811660448301528515156064830152608482018590529151600093630100000090049092169163fdaf6ac39160a480820192602092909190829003018186803b1580156139ec57600080fd5b60316020908152600091825260409182902080548351601f60026000196101006001861615020190931692909204918201849004840281018401909452808452909183018282801561477a5780601f1061474f5761010080835404028352916020019161477a565b820191906000526020600020905b81548152906001019060200180831161475d57829003601f168201915b505050505081565b6000826147915750600061192d565b8282028284828161479e57fe5b0414611e415760405162461bcd60e51b81526004018080602001828103825260218152602001806162596021913960400191505060405180910390fd5b6000611e4183836040518060400160405280601a815260200179536166654d6174683a206469766973696f6e206279207a65726f60301b815250615c3a565b600654614833906001600160a01b0316331460356148cf565b565b600082820183811015611e41576040805162461bcd60e51b815260206004820152601b60248201527a536166654d6174683a206164646974696f6e206f766572666c6f7760281b604482015290519081900360640190fd5b6000611e4183836040518060400160405280601e81526020017f536166654d6174683a207375627472616374696f6e206f766572666c6f770000815250615cdc565b600081815260316020526040902082613a3e5760405162461bcd60e51b815260206004820190815282546002600019610100600184161502019091160460248301819052909182916044909101908490801561496c5780601f106149415761010080835404028352916020019161496c565b820191906000526020600020905b81548152906001019060200180831161494f57829003601f168201915b50509250505060405180910390fd5b60185461498757614833565b6148336018543a111560376148cf565b336001600160a01b03821614156149ad57613a8a565b6003546001600160a01b03163314156149c557613a8a565b6001600160a01b0381166000908152601960209081526040808320338452909152902054613a8a9060ff1660296148cf565b8015614a6f57614a1c826001600160a01b0316846001600160a01b031614602a6148cf565b6001600160a01b0383166000908152601d6020526040902054614a439060ff16602b6148cf565b6001600160a01b0383166000908152602080526040902054614a6a9060ff1615602c6148cf565b613a3e565b6001600160a01b0383166000908152601d6020526040902054614a969060ff16602d6148cf565b6001600160a01b0383166000908152602080526040902054614abc9060ff16602e6148cf565b6001600160a01b0382166000908152602080526040902054614ae39060ff1615602f6148cf565b6001600160a01b038216600090815260216020526040902054613a3e9060ff1660306148cf565b600080614b1a8989898989614671565b90506000614b2c8a8a8a8a8989613bda565b9050614b388282614835565b91506000614b468a846134ba565b6001600160a01b038b166000908152602d6020526040902054909150614b6c9082614835565b6001600160a01b038b166000818152602d602090815260409182902093909355805191825291810185905280820183905290517f5d0c0019d3d45fadeb74eff9d2c9924d146d000ac6bcf3c28bf0ac3c9baa011a9181900360600190a150909998505050505050505050565b6001600160a01b03811660008181526022602090815260408083205481516370a0823160e01b8152306004820152915193949093859391926370a08231926024808301939192829003018186803b158015614c3257600080fd5b505afa158015614c46573d6000803e3d6000fd5b505050506040513d6020811015614c5c57600080fd5b50516001600160a01b03851660009081526022602052604090208190559050611c07818361488d565b81614c9b57614c96811560276148cf565b612855565b6128558183101560286148cf565b6001600160a01b038216600090815260276020526040902054614ccc9082614835565b6001600160a01b038316600090815260276020818152604080842085905560268252909220549152614d0191111560346148cf565b604080516001600160a01b03841681526020810183905281517faa5649d82f5462be9d19b0f2b31a59b2259950a6076550bac9f3a1c07db9f66d929181900390910190a15050565b6001600160a01b038216600090815260296020526040902054614d6c9082614835565b6001600160a01b03831660008181526029602090815260409182902093909355805191825291810183905281517fd9d4761f75e0d0103b5cbeab941eeb443d7a56a35b5baf2a0787c03f03f4e474929181900390910190a15050565b6001600160a01b038216600090815260296020526040902054614deb908261488d565b6001600160a01b03831660008181526029602090815260409182902093909355805191825291810183905281517f34e07158b9db50df5613e591c44ea2ebc82834eff4a4dc3a46e000e608261d68929181900390910190a15050565b6001600160a01b038216600090815260266020526040902054614e6a9082614835565b6001600160a01b03831660008181526026602090815260408083209490945583516370a0823160e01b8152306004820152935191936370a082319260248083019392829003018186803b158015614ec057600080fd5b505afa158015614ed4573d6000803e3d6000fd5b505050506040513d6020811015614eea57600080fd5b50516001600160a01b038416600090815260266020526040902054909150614f169082101560316148cf565b604080516001600160a01b03851681526020810184905281517f976177fbe09a15e5e43f848844963a42b41ef919ef17ff21a17a5421de8f4737929181900390910190a1505050565b604080518082018252601181527015985d5b1d0e881c1bdbdb105b5bdd5b9d607a1b6020808301919091526001600160a01b038516600090815260269091529190912054614fae918390615cdc565b6001600160a01b03831660009081526026602090815260408083208490556027909152902054614fe191101560326148cf565b604080516001600160a01b03841681526020810183905281517f112726233fbeaeed0f5b1dba5cb0b2b81883dee49fb35ff99fd98ed9f6d31eb0929181900390910190a15050565b6001600160a01b0382166000908152602e602052604090205461504c9082614835565b6001600160a01b0383166000908152602e60209081526040808320939093556030905220548015613a3e576001600160a01b0383166000908152602e6020526040902054811015613a3e576040805162461bcd60e51b81526020600482015260116024820152705661756c743a206d61782073686f72747360781b604482015290519081900360640190fd5b604080518082018252828152600160208083018281526001600160a01b03871660008181526007845286902094518555905193909201805460ff1916931515939093179092558251848152925190927f02dd0697be46e764c3ba81094158781c31b235d03bb27a0daf1bdef0ec1084dd92908290030190a25050565b60175462010000900460ff161561483357336000908152601b60205260409020546148339060ff1660366148cf565b6001600160a01b0382166000908152602460205260409020548181116151fe576001600160a01b0383166000818152602460209081526040808320929092558151928352820183905280517fe1e812596aac93a06ecc4ca627014d18e30f5c33b825160cc9d5c0ba61e452279281900390910190a150612855565b615208818361488d565b6001600160a01b03841660008181526024602090815260409182902093909355805191825291810184905281517fe1e812596aac93a06ecc4ca627014d18e30f5c33b825160cc9d5c0ba61e45227929181900390910190a1505050565b6000816001600160a01b03166370a08231306040518263ffffffff1660e01b815260040180826001600160a01b0316815260200191505060206040518083038186803b1580156152b457600080fd5b505afa1580156152c8573d6000803e3d6000fd5b505050506040513d60208110156152de57600080fd5b50516001600160a01b0390921660009081526022602052604090209190915550565b60008061531d6127106118ba615316828761488d565b8790614782565b9050600061532b858361488d565b6001600160a01b0387166000908152602d60205260409020549091506153519082614835565b6001600160a01b0387166000908152602d60205260409020557f47cd9dda0e50ce30bcaaacd0488452b596221c07ac402a581cfae4d3933cac2b8661539681846118e0565b604080516001600160a01b0390931683526020830191909152818101849052519081900360600190a150949350505050565b6153dc6001600160a01b0384168284615acb565b604080516370a0823160e01b815230600482015290516001600160a01b038516916370a08231916024808301926020929190829003018186803b15801561542257600080fd5b505afa158015615436573d6000803e3d6000fd5b505050506040513d602081101561544c57600080fd5b50516001600160a01b039093166000908152602260205260409020929092555050565b6001600160a01b0382166000908152602460205260409020546154929082614835565b6001600160a01b03831660009081526024602090815260408083209390935560259052205480156154e4576001600160a01b0383166000908152602460205260409020546154e49082101560336148cf565b604080516001600160a01b03851681526020810184905281517f64243679a443432e2293343b77d411ff6144370404618f00ca0d2025d9ca9882929181900390910190a1505050565b600154604080516381d11a2360e01b81526001600160a01b038a8116600483015289811660248301528881166044830152606482018890526084820187905285151560a483015284811660c4830152915160009363010000009004909216916381d11a239160e4808201928692909190829003018186803b1580156155b157600080fd5b505afa1580156155c5573d6000803e3d6000fd5b505050506155d38787614492565b60006155e189898987611aba565b6000818152602c60205260409020805491925090615602901515601f6148cf565b615614868260000154101560206148cf565b615626878260010154101560216148cf565b600181015481546004830154600091615643916118ba908b614782565b6004840154909150615655908261488d565b60048401556156648b82615b1d565b506000806156768d8d8d8d8d8d615d36565b85549193509150891461581a5761568e8c8c8a61381b565b6003850155835461569f908a61488d565b80855560018501546156b19190614c85565b6156bf8d8d8d8b6001613ab6565b505087156156ec576156e28c61225486600101548661488d90919063ffffffff16565b6156ec8c8a614dc8565b600088615701576156fc8c61412d565b61570a565b61570a8c612f87565b90507f93d75d64d1f84fc6f430a64fc578bdd4c1e090e90ea2d51773e626d19de56d30868f8f8f8f8f8f8861573f8c8c61488d565b60408051998a526001600160a01b0398891660208b015296881689880152949096166060880152608087019290925260a0860152151560c085015260e084019290925261010083019190915251908190036101200190a18454600186015460028701546003880154600489015460058a0154604080518d81526020810197909752868101959095526060860193909352608085019190915260a084015260c083015260e08201839052517f20853733b590dce729d9f4628682ebd9a34d2354e72679e66f43a008fc03b773918190036101000190a150615a01565b87156158345761582a8c84614d49565b6158348c8a614dc8565b600088615849576158448c61412d565b615852565b6158528c612f87565b90507f93d75d64d1f84fc6f430a64fc578bdd4c1e090e90ea2d51773e626d19de56d30868f8f8f8f8f8f886158878c8c61488d565b60408051998a526001600160a01b0398891660208b015296881689880152949096166060880152608087019290925260a0860152151560c085015260e084019290925261010083019190915251908190036101200190a18454600186015460028701546003880154600489015460058a0154604080518d81526020810197909752868101959095526060860193909352608085019190915260a084015260c0830152517f73af1d417d82c240fdb6d319b34ad884487c6bf2845d98980cc52ad9171cb4559181900360e00190a1600160039054906101000a90046001600160a01b03166001600160a01b0316634c89b68d876040518263ffffffff1660e01b815260040180828152602001915050600060405180830381600087803b1580156159af57600080fd5b505af11580156159c3573d6000803e3d6000fd5b5050506000878152602c6020526040812081815560018101829055600281018290556003810182905560048101829055600581018290556006015550505b87615a1057615a108b8a615bd2565b8115615a50578715615a2a57615a2a8c61227b8e856134ba565b6000615a368d836134ba565b9050615a438d828a6153c8565b95506125f4945050505050565b5060009c9b505050505050505050505050565b6001600160a01b0381166000908152602860209081526040808320546026909252909120541015613a8a576040805162461bcd60e51b815260206004820152600d60248201526c2b30bab63a1d10313ab33332b960991b604482015290519081900360640190fd5b604080516001600160a01b038416602482015260448082018490528251808303909101815260649091019091526020810180516001600160e01b031663a9059cbb60e01b179052613a3e908490615f30565b604080518082018252601b81527a5661756c743a20696e73756666696369656e74207265736572766560281b6020808301919091526001600160a01b038516600090815260279091529190912054615b76918390615cdc565b6001600160a01b03831660008181526027602090815260409182902093909355805191825291810183905281517f533cb5ed32be6a90284e96b5747a1bfc2d38fdb5768a6b5f67ff7d62144ed67b929181900390910190a15050565b6001600160a01b0382166000908152602e602052604090205480821115615c1257506001600160a01b0382166000908152602e6020526040812055612855565b615c1c818361488d565b6001600160a01b0384166000908152602e6020526040902055505050565b60008183615cc65760405162461bcd60e51b81526004018080602001828103825283818151815260200191508051906020019080838360005b83811015615c8b578181015183820152602001615c73565b50505050905090810190601f168015615cb85780820380516001836020036101000a031916815260200191505b509250505060405180910390fd5b506000838581615cd257fe5b0495945050505050565b60008184841115615d2e5760405162461bcd60e51b8152602060048201818152835160248401528351909283926044909101919085019080838360008315615c8b578181015183820152602001615c73565b505050900390565b6000806000615d4789898987611aba565b6000818152602c60205260408120805460038201549394509092615d74918d918d918d918b918d91614b0a565b9050600080600080615d958d876000015488600201548d8a60060154612638565b87549195508593509150615dad906118ba8d84614782565b925050506000828015615dc05750600082115b15615df05750600584018054820190558088615df0576000615de28e846134ba565b9050615dee8e82614f5f565b505b82158015615dfe5750600082115b15615e42576001850154615e12908361488d565b600186015588615e36576000615e288e846134ba565b9050615e348e82614e47565b505b60058501805483900390555b8a15615e6a57615e52818c614835565b6001860154909150615e64908c61488d565b60018601555b84548a1415615e8d576001850154615e83908290614835565b6000600187015590505b8084811115615ea757615ea0828661488d565b9050615edb565b6001860154615eb6908661488d565b60018701558915615edb576000615ecd8f876134ba565b9050615ed98f82614f5f565b505b60408051888152851515602082015280820185905290517f3ff41bdde87755b687ae83d0221a232b6be51a803330ed9661c1b5d0105e0d8a9181900360600190a1909e909d509b505050505050505050505050565b6060615f85826040518060400160405280602081526020017f5361666545524332303a206c6f772d6c6576656c2063616c6c206661696c6564815250856001600160a01b0316615fe19092919063ffffffff16565b805190915015613a3e57808060200190516020811015615fa457600080fd5b5051613a3e5760405162461bcd60e51b815260040180806020018281038252602a81526020018061627a602a913960400191505060405180910390fd5b6060611c07848460008585615ff5856160fc565b616046576040805162461bcd60e51b815260206004820152601d60248201527f416464726573733a2063616c6c20746f206e6f6e2d636f6e7472616374000000604482015290519081900360640190fd5b60006060866001600160a01b031685876040518082805190602001908083835b602083106160855780518252601f199092019160209182019101616066565b6001836020036101000a03801982511681845116808217855250505050505090500191505060006040518083038185875af1925050503d80600081146160e7576040519150601f19603f3d011682016040523d82523d6000602084013e6160ec565b606091505b50915091506125f4828286616102565b3b151590565b60608315616111575081611e41565b8251156161215782518084602001fd5b60405162461bcd60e51b8152602060048201818152845160248401528451859391928392604401919085019080838360008315615c8b578181015183820152602001615c73565b828054600181600116156101000203166002900490600052602060002090601f016020900481019282601f106161a95782800160ff198235161785556161d6565b828001600101855582156161d6579182015b828111156161d65782358255916020019190600101906161bb565b506161e2929150616223565b5090565b6040518060e00160405280600081526020016000815260200160008152602001600081526020016000815260200160008152602001600081525090565b5b808211156161e2576000815560010161622456fe5265656e7472616e637947756172643a207265656e7472616e742063616c6c00536166654d6174683a206d756c7469706c69636174696f6e206f766572666c6f775361666545524332303a204552433230206f7065726174696f6e20646964206e6f742073756363656564a2646970667358221220cca2a1219b332de6a158e0851edd389e0caba2be72276c99aeca0f7e1571fde964736f6c634300060c0033","linkReferences":{}},"methodIdentifiers":{"BASIS_POINTS_DIVISOR()":"126082cf","FUNDING_RATE_PRECISION()":"6be6026b","MAX_FEE_BASIS_POINTS()":"4befe2ca","MAX_FUNDING_RATE_FACTOR()":"8a39735a","MAX_LIQUIDATION_FEE_USD()":"07c58752","MIN_FUNDING_RATE_INTERVAL()":"fce28c10","MIN_LEVERAGE()":"34c1557d","PRICE_PRECISION()":"95082d25","USDG_DECIMALS()":"870d917c","acceptGov()":"7bc6729b","addRouter(address)":"24ca984e","adjustForDecimals(uint256,address,address)":"42152873","allWhitelistedTokens(uint256)":"e468baf0","allWhitelistedTokensLength()":"0842b076","approvedRouters(address,address)":"60922199","bufferAmounts(address)":"4a993ee9","buyUSDG(address,address)":"817bb857","cancelGovProposal(address)":"9c35b497","clearTokenConfig(address)":"e67f59a7","cumulativeFundingRates(address)":"c65bc7b1","decreasePosition(address,address,address,uint256,uint256,bool,address)":"82a08490","directPoolDeposit(address)":"5f7bc119","errorController()":"48f35cbb","errors(uint256)":"fed1a606","feeReserves(address)":"1ce9cb8f","fundingInterval()":"9849e412","fundingRateFactor()":"c4f718bf","getDelta(address,uint256,uint256,bool,uint256)":"5c07eaab","getEntryFundingRate(address,address,bool)":"b1cc53ab","getFeeBasisPoints(address,uint256,uint256,uint256,bool)":"c7e074c3","getFundingFee(address,address,address,bool,uint256,uint256)":"da76524c","getGlobalShortDelta(address)":"b364accb","getMaxPrice(address)":"e124e6d2","getMinPrice(address)":"81a612d6","getNextAveragePrice(address,uint256,uint256,bool,uint256,uint256,uint256)":"db97495f","getNextFundingRate(address)":"a93acac2","getNextGlobalShortAveragePrice(address,uint256,uint256)":"9d7432ca","getPosition(address,address,address,bool)":"4a3f088d","getPositionDelta(address,address,address,bool)":"45a6f370","getPositionFee(address,address,address,bool,uint256)":"fdaf6ac3","getPositionKey(address,address,address,bool)":"2d4b0576","getPositionLeverage(address,address,address,bool)":"51723e82","getRedemptionAmount(address,uint256)":"2c668ec1","getRedemptionCollateral(address)":"b136ca49","getRedemptionCollateralUsd(address)":"29ff9615","getTargetUsdgAmount(address)":"3a05dcc1","getUtilisation(address)":"04fef1db","globalShortAveragePrices(address)":"62749803","globalShortSizes(address)":"8a78daa8","gov()":"12d43a51","govProposals(address)":"8d0fedb0","guaranteedUsd(address)":"f07456ce","hasDynamicFees()":"9f392eb3","inManagerMode()":"9060b1ca","inPrivateLiquidationMode()":"181e210e","includeAmmPrice()":"ab08c1c6","increaseGlobalShortSize(address,uint256)":"6a6f3424","increasePosition(address,address,address,uint256,bool)":"48d91abf","initialize2(address,address,address,uint256,uint256,uint256)":"f1675a8b","isInitialized()":"392e53cd","isLeverageEnabled()":"3e72a262","isLiquidator(address)":"529a356f","isManager(address)":"f3ae2415","isSwapEnabled()":"351a964d","lastFundingTimes(address)":"d8f897c3","liquidatePosition(address,address,address,bool,address)":"de2ea948","liquidationFeeUsd()":"174d2694","marginFeeBasisPoints()":"318bc689","maxGasPrice()":"3de39c11","maxGlobalShortSizes(address)":"9698d25a","maxLeverage()":"ae3302c2","maxUsdgAmounts(address)":"ad1e4f8d","minProfitBasisPoints(address)":"88b1fbdf","minProfitTime()":"d9ac4225","mintBurnFeeBasisPoints()":"4d47b304","poolAmounts(address)":"52f55eed","positions(bytes32)":"514ea4bf","priceFeed()":"741bef1a","removeRouter(address)":"6ae0b154","reservedAmounts(address)":"c3c7b9e9","router()":"f887ea40","sellUSDG(address,address)":"711e6190","setBufferAmount(address,uint256)":"8585f4d2","setError(uint256,string)":"28e67be5","setErrorController(address)":"8f7b8404","setFees(uint256,uint256,uint256,uint256,uint256,uint256,uint256,uint256,bool)":"40eb3802","setFundingRate(uint256,uint256,uint256)":"8a27d468","setGov(address)":"cfad57a2","setGovWithDeadline(address,uint256)":"6bb22fd7","setInManagerMode(bool)":"24b0c04d","setInPrivateLiquidationMode(bool)":"f07bbf77","setIsLeverageEnabled(bool)":"7c2eb9f7","setIsSwapEnabled(bool)":"30455ede","setLiquidator(address,bool)":"4453a374","setManager(address,bool)":"a5e90eee","setMaxGasPrice(uint256)":"d2fa635e","setMaxGlobalShortSize(address,uint256)":"efa10a6e","setMaxLeverage(uint256)":"d3127e63","setPriceFeed(address)":"724e78da","setTokenConfig(address,uint256,uint256,uint256,uint256,bool,bool)":"3c5a6e35","setUsdgAmount(address,uint256)":"d66b000d","setVaultUtils(address)":"71089f4d","shortableTokens(address)":"db3555fb","stableFundingRateFactor()":"134ca63b","stableSwapFeeBasisPoints()":"df73a267","stableTaxBasisPoints()":"10eb56c2","stableTokens(address)":"42b60b03","swap(address,address,address)":"93316212","swapFeeBasisPoints()":"a22f2392","taxBasisPoints()":"7a210a2b","tokenBalances(address)":"523fba7f","tokenDecimals(address)":"8ee573ac","tokenToUsdMin(address,uint256)":"0a48d5a9","tokenWeights(address)":"ab2f3ad4","totalTokenWeights()":"dc8f5fac","updateCumulativeFundingRate(address,address)":"fbfded6d","upgradeVault(address,address,uint256)":"cea0c328","usdToToken(address,uint256,uint256)":"fa12dbc0","usdToTokenMax(address,uint256)":"a42ab3d2","usdToTokenMin(address,uint256)":"9899cd02","usdg()":"f5b91b7b","usdgAmounts(address)":"1aa4ace5","useSwapPricing()":"b06423f3","validateLiquidation(address,address,address,bool,bool)":"d54d5a9f","vaultUtils()":"6abbe0c8","whitelistedTokenCount()":"62287a32","whitelistedTokens(address)":"daf9c210","withdrawFees(address,address)":"f2555278"},"id":57}