{"abi":[{"type":"constructor","inputs":[{"name":"_priceDuration","type":"uint256","internalType":"uint256"},{"name":"_maxPriceUpdateDelay","type":"uint256","internalType":"uint256"},{"name":"_minBlockInterval","type":"uint256","internalType":"uint256"},{"name":"_maxDeviationBasisPoints","type":"uint256","internalType":"uint256"},{"name":"_fastPriceEvents","type":"address","internalType":"address"},{"name":"_tokenManager","type":"address","internalType":"address"},{"name":"_positionRouter","type":"address","internalType":"address"}],"stateMutability":"nonpayable"},{"type":"function","name":"BASIS_POINTS_DIVISOR","inputs":[],"outputs":[{"name":"","type":"uint256","internalType":"uint256"}],"stateMutability":"view"},{"type":"function","name":"BITMASK_32","inputs":[],"outputs":[{"name":"","type":"uint256","internalType":"uint256"}],"stateMutability":"view"},{"type":"function","name":"CUMULATIVE_DELTA_PRECISION","inputs":[],"outputs":[{"name":"","type":"uint256","internalType":"uint256"}],"stateMutability":"view"},{"type":"function","name":"MAX_CUMULATIVE_FAST_DELTA","inputs":[],"outputs":[{"name":"","type":"uint256","internalType":"uint256"}],"stateMutability":"view"},{"type":"function","name":"MAX_CUMULATIVE_REF_DELTA","inputs":[],"outputs":[{"name":"","type":"uint256","internalType":"uint256"}],"stateMutability":"view"},{"type":"function","name":"MAX_PRICE_DURATION","inputs":[],"outputs":[{"name":"","type":"uint256","internalType":"uint256"}],"stateMutability":"view"},{"type":"function","name":"MAX_REF_PRICE","inputs":[],"outputs":[{"name":"","type":"uint256","internalType":"uint256"}],"stateMutability":"view"},{"type":"function","name":"PRICE_PRECISION","inputs":[],"outputs":[{"name":"","type":"uint256","internalType":"uint256"}],"stateMutability":"view"},{"type":"function","name":"acceptGov","inputs":[],"outputs":[],"stateMutability":"nonpayable"},{"type":"function","name":"cancelGovProposal","inputs":[{"name":"_gov","type":"address","internalType":"address"}],"outputs":[],"stateMutability":"nonpayable"},{"type":"function","name":"disableFastPrice","inputs":[],"outputs":[],"stateMutability":"nonpayable"},{"type":"function","name":"disableFastPriceVoteCount","inputs":[],"outputs":[{"name":"","type":"uint256","internalType":"uint256"}],"stateMutability":"view"},{"type":"function","name":"disableFastPriceVotes","inputs":[{"name":"","type":"address","internalType":"address"}],"outputs":[{"name":"","type":"bool","internalType":"bool"}],"stateMutability":"view"},{"type":"function","name":"enableFastPrice","inputs":[],"outputs":[],"stateMutability":"nonpayable"},{"type":"function","name":"fastPriceEvents","inputs":[],"outputs":[{"name":"","type":"address","internalType":"address"}],"stateMutability":"view"},{"type":"function","name":"favorFastPrice","inputs":[{"name":"_token","type":"address","internalType":"address"}],"outputs":[{"name":"","type":"bool","internalType":"bool"}],"stateMutability":"view"},{"type":"function","name":"getPrice","inputs":[{"name":"_token","type":"address","internalType":"address"},{"name":"_refPrice","type":"uint256","internalType":"uint256"},{"name":"_maximise","type":"bool","internalType":"bool"}],"outputs":[{"name":"","type":"uint256","internalType":"uint256"}],"stateMutability":"view"},{"type":"function","name":"getPriceData","inputs":[{"name":"_token","type":"address","internalType":"address"}],"outputs":[{"name":"","type":"uint256","internalType":"uint256"},{"name":"","type":"uint256","internalType":"uint256"},{"name":"","type":"uint256","internalType":"uint256"},{"name":"","type":"uint256","internalType":"uint256"}],"stateMutability":"view"},{"type":"function","name":"gov","inputs":[],"outputs":[{"name":"","type":"address","internalType":"address"}],"stateMutability":"view"},{"type":"function","name":"govProposals","inputs":[{"name":"","type":"address","internalType":"address"}],"outputs":[{"name":"deadline","type":"uint256","internalType":"uint256"},{"name":"isActive","type":"bool","internalType":"bool"}],"stateMutability":"view"},{"type":"function","name":"initialize","inputs":[{"name":"_minAuthorizations","type":"uint256","internalType":"uint256"},{"name":"_signers","type":"address[]","internalType":"address[]"},{"name":"_updaters","type":"address[]","internalType":"address[]"}],"outputs":[],"stateMutability":"nonpayable"},{"type":"function","name":"isInitialized","inputs":[],"outputs":[{"name":"","type":"bool","internalType":"bool"}],"stateMutability":"view"},{"type":"function","name":"isSigner","inputs":[{"name":"","type":"address","internalType":"address"}],"outputs":[{"name":"","type":"bool","internalType":"bool"}],"stateMutability":"view"},{"type":"function","name":"isSpreadEnabled","inputs":[],"outputs":[{"name":"","type":"bool","internalType":"bool"}],"stateMutability":"view"},{"type":"function","name":"isUpdater","inputs":[{"name":"","type":"address","internalType":"address"}],"outputs":[{"name":"","type":"bool","internalType":"bool"}],"stateMutability":"view"},{"type":"function","name":"lastUpdatedAt","inputs":[],"outputs":[{"name":"","type":"uint256","internalType":"uint256"}],"stateMutability":"view"},{"type":"function","name":"lastUpdatedBlock","inputs":[],"outputs":[{"name":"","type":"uint256","internalType":"uint256"}],"stateMutability":"view"},{"type":"function","name":"maxCumulativeDeltaDiffs","inputs":[{"name":"","type":"address","internalType":"address"}],"outputs":[{"name":"","type":"uint256","internalType":"uint256"}],"stateMutability":"view"},{"type":"function","name":"maxDeviationBasisPoints","inputs":[],"outputs":[{"name":"","type":"uint256","internalType":"uint256"}],"stateMutability":"view"},{"type":"function","name":"maxPriceUpdateDelay","inputs":[],"outputs":[{"name":"","type":"uint256","internalType":"uint256"}],"stateMutability":"view"},{"type":"function","name":"maxTimeDeviation","inputs":[],"outputs":[{"name":"","type":"uint256","internalType":"uint256"}],"stateMutability":"view"},{"type":"function","name":"minAuthorizations","inputs":[],"outputs":[{"name":"","type":"uint256","internalType":"uint256"}],"stateMutability":"view"},{"type":"function","name":"minBlockInterval","inputs":[],"outputs":[{"name":"","type":"uint256","internalType":"uint256"}],"stateMutability":"view"},{"type":"function","name":"positionRouter","inputs":[],"outputs":[{"name":"","type":"address","internalType":"address"}],"stateMutability":"view"},{"type":"function","name":"priceData","inputs":[{"name":"","type":"address","internalType":"address"}],"outputs":[{"name":"refPrice","type":"uint160","internalType":"uint160"},{"name":"refTime","type":"uint32","internalType":"uint32"},{"name":"cumulativeRefDelta","type":"uint32","internalType":"uint32"},{"name":"cumulativeFastDelta","type":"uint32","internalType":"uint32"}],"stateMutability":"view"},{"type":"function","name":"priceDataInterval","inputs":[],"outputs":[{"name":"","type":"uint256","internalType":"uint256"}],"stateMutability":"view"},{"type":"function","name":"priceDuration","inputs":[],"outputs":[{"name":"","type":"uint256","internalType":"uint256"}],"stateMutability":"view"},{"type":"function","name":"prices","inputs":[{"name":"","type":"address","internalType":"address"}],"outputs":[{"name":"","type":"uint256","internalType":"uint256"}],"stateMutability":"view"},{"type":"function","name":"setCompactedPrices","inputs":[{"name":"_priceBitArray","type":"uint256[]","internalType":"uint256[]"},{"name":"_timestamp","type":"uint256","internalType":"uint256"}],"outputs":[],"stateMutability":"nonpayable"},{"type":"function","name":"setFastPriceEvents","inputs":[{"name":"_fastPriceEvents","type":"address","internalType":"address"}],"outputs":[],"stateMutability":"nonpayable"},{"type":"function","name":"setGov","inputs":[{"name":"_gov","type":"address","internalType":"address"}],"outputs":[],"stateMutability":"nonpayable"},{"type":"function","name":"setGovWithDeadline","inputs":[{"name":"_gov","type":"address","internalType":"address"},{"name":"_deadline","type":"uint256","internalType":"uint256"}],"outputs":[],"stateMutability":"nonpayable"},{"type":"function","name":"setIsSpreadEnabled","inputs":[{"name":"_isSpreadEnabled","type":"bool","internalType":"bool"}],"outputs":[],"stateMutability":"nonpayable"},{"type":"function","name":"setLastUpdatedAt","inputs":[{"name":"_lastUpdatedAt","type":"uint256","internalType":"uint256"}],"outputs":[],"stateMutability":"nonpayable"},{"type":"function","name":"setMaxCumulativeDeltaDiffs","inputs":[{"name":"_tokens","type":"address[]","internalType":"address[]"},{"name":"_maxCumulativeDeltaDiffs","type":"uint256[]","internalType":"uint256[]"}],"outputs":[],"stateMutability":"nonpayable"},{"type":"function","name":"setMaxDeviationBasisPoints","inputs":[{"name":"_maxDeviationBasisPoints","type":"uint256","internalType":"uint256"}],"outputs":[],"stateMutability":"nonpayable"},{"type":"function","name":"setMaxPriceUpdateDelay","inputs":[{"name":"_maxPriceUpdateDelay","type":"uint256","internalType":"uint256"}],"outputs":[],"stateMutability":"nonpayable"},{"type":"function","name":"setMaxTimeDeviation","inputs":[{"name":"_maxTimeDeviation","type":"uint256","internalType":"uint256"}],"outputs":[],"stateMutability":"nonpayable"},{"type":"function","name":"setMinAuthorizations","inputs":[{"name":"_minAuthorizations","type":"uint256","internalType":"uint256"}],"outputs":[],"stateMutability":"nonpayable"},{"type":"function","name":"setMinBlockInterval","inputs":[{"name":"_minBlockInterval","type":"uint256","internalType":"uint256"}],"outputs":[],"stateMutability":"nonpayable"},{"type":"function","name":"setPriceDataInterval","inputs":[{"name":"_priceDataInterval","type":"uint256","internalType":"uint256"}],"outputs":[],"stateMutability":"nonpayable"},{"type":"function","name":"setPriceDuration","inputs":[{"name":"_priceDuration","type":"uint256","internalType":"uint256"}],"outputs":[],"stateMutability":"nonpayable"},{"type":"function","name":"setPrices","inputs":[{"name":"_tokens","type":"address[]","internalType":"address[]"},{"name":"_prices","type":"uint256[]","internalType":"uint256[]"},{"name":"_timestamp","type":"uint256","internalType":"uint256"}],"outputs":[],"stateMutability":"nonpayable"},{"type":"function","name":"setPricesWithBits","inputs":[{"name":"_priceBits","type":"uint256","internalType":"uint256"},{"name":"_timestamp","type":"uint256","internalType":"uint256"}],"outputs":[],"stateMutability":"nonpayable"},{"type":"function","name":"setPricesWithBitsAndExecute","inputs":[{"name":"_priceBits","type":"uint256","internalType":"uint256"},{"name":"_timestamp","type":"uint256","internalType":"uint256"},{"name":"_endIndexForIncreasePositions","type":"uint256","internalType":"uint256"},{"name":"_endIndexForDecreasePositions","type":"uint256","internalType":"uint256"},{"name":"_maxIncreasePositions","type":"uint256","internalType":"uint256"},{"name":"_maxDecreasePositions","type":"uint256","internalType":"uint256"}],"outputs":[],"stateMutability":"nonpayable"},{"type":"function","name":"setSigner","inputs":[{"name":"_account","type":"address","internalType":"address"},{"name":"_isActive","type":"bool","internalType":"bool"}],"outputs":[],"stateMutability":"nonpayable"},{"type":"function","name":"setSpreadBasisPointsIfChainError","inputs":[{"name":"_spreadBasisPointsIfChainError","type":"uint256","internalType":"uint256"}],"outputs":[],"stateMutability":"nonpayable"},{"type":"function","name":"setSpreadBasisPointsIfInactive","inputs":[{"name":"_spreadBasisPointsIfInactive","type":"uint256","internalType":"uint256"}],"outputs":[],"stateMutability":"nonpayable"},{"type":"function","name":"setTokenManager","inputs":[{"name":"_tokenManager","type":"address","internalType":"address"}],"outputs":[],"stateMutability":"nonpayable"},{"type":"function","name":"setTokens","inputs":[{"name":"_tokens","type":"address[]","internalType":"address[]"},{"name":"_tokenPrecisions","type":"uint256[]","internalType":"uint256[]"}],"outputs":[],"stateMutability":"nonpayable"},{"type":"function","name":"setUpdater","inputs":[{"name":"_account","type":"address","internalType":"address"},{"name":"_isActive","type":"bool","internalType":"bool"}],"outputs":[],"stateMutability":"nonpayable"},{"type":"function","name":"setVaultPriceFeed","inputs":[{"name":"_vaultPriceFeed","type":"address","internalType":"address"}],"outputs":[],"stateMutability":"nonpayable"},{"type":"function","name":"spreadBasisPointsIfChainError","inputs":[],"outputs":[{"name":"","type":"uint256","internalType":"uint256"}],"stateMutability":"view"},{"type":"function","name":"spreadBasisPointsIfInactive","inputs":[],"outputs":[{"name":"","type":"uint256","internalType":"uint256"}],"stateMutability":"view"},{"type":"function","name":"tokenManager","inputs":[],"outputs":[{"name":"","type":"address","internalType":"address"}],"stateMutability":"view"},{"type":"function","name":"tokenPrecisions","inputs":[{"name":"","type":"uint256","internalType":"uint256"}],"outputs":[{"name":"","type":"uint256","internalType":"uint256"}],"stateMutability":"view"},{"type":"function","name":"tokens","inputs":[{"name":"","type":"uint256","internalType":"uint256"}],"outputs":[{"name":"","type":"address","internalType":"address"}],"stateMutability":"view"},{"type":"function","name":"vaultPriceFeed","inputs":[],"outputs":[{"name":"","type":"address","internalType":"address"}],"stateMutability":"view"},{"type":"event","name":"DisableFastPrice","inputs":[{"name":"signer","type":"address","indexed":false,"internalType":"address"}],"anonymous":false},{"type":"event","name":"EnableFastPrice","inputs":[{"name":"signer","type":"address","indexed":false,"internalType":"address"}],"anonymous":false},{"type":"event","name":"GovProposalCanceled","inputs":[{"name":"proposedGov","type":"address","indexed":true,"internalType":"address"},{"name":"canceledBy","type":"address","indexed":true,"internalType":"address"}],"anonymous":false},{"type":"event","name":"GovernanceTransferRequested","inputs":[{"name":"newGov","type":"address","indexed":true,"internalType":"address"},{"name":"deadline","type":"uint256","indexed":false,"internalType":"uint256"}],"anonymous":false},{"type":"event","name":"GovernanceTransferred","inputs":[{"name":"oldGov","type":"address","indexed":true,"internalType":"address"},{"name":"newGov","type":"address","indexed":true,"internalType":"address"}],"anonymous":false},{"type":"event","name":"MaxCumulativeDeltaDiffExceeded","inputs":[{"name":"token","type":"address","indexed":false,"internalType":"address"},{"name":"refPrice","type":"uint256","indexed":false,"internalType":"uint256"},{"name":"fastPrice","type":"uint256","indexed":false,"internalType":"uint256"},{"name":"cumulativeRefDelta","type":"uint256","indexed":false,"internalType":"uint256"},{"name":"cumulativeFastDelta","type":"uint256","indexed":false,"internalType":"uint256"}],"anonymous":false},{"type":"event","name":"PriceData","inputs":[{"name":"token","type":"address","indexed":false,"internalType":"address"},{"name":"refPrice","type":"uint256","indexed":false,"internalType":"uint256"},{"name":"fastPrice","type":"uint256","indexed":false,"internalType":"uint256"},{"name":"cumulativeRefDelta","type":"uint256","indexed":false,"internalType":"uint256"},{"name":"cumulativeFastDelta","type":"uint256","indexed":false,"internalType":"uint256"}],"anonymous":false}],"bytecode":{"object":"0x60806040526002805461ff0019169055600060115534801561002057600080fd5b506040516200336238038062003362833981810160405260e081101561004557600080fd5b508051602082015160408301516060840151608085015160a086015160c090960151600080546001600160a01b0319163317905594959394929391929091906107088711156100c65760405162461bcd60e51b81526004018080602001828103825260258152602001806200333d6025913960400191505060405180910390fd5b600896909655600994909455600c92909255600f55600380546001600160a01b039283166001600160a01b03199182161790915560048054938316938216939093179092556005805491909316911617905561321580620001286000396000f3fe608060405234801561001057600080fd5b506004361061033c5760003560e01c806374bfed89116101b5578063b0a25666116100f5578063b0a2566614610c1d578063b3606b5614610c25578063b70c7b7014610c2d578063c8390a4814610c4a578063c84a912414610d6d578063cab44b7614610d75578063ce98dfa814610dd3578063cfad57a214610df2578063cfed246b14610e18578063d6a153f114610e3e578063d925351a14610e5b578063de0d1b9414610e78578063dfb481c914610e95578063e64559ad14610e9d578063e68a22c014610ea5578063eeaa783a14610ead578063f90ce5ba14610eb55761033c565b806374bfed8914610844578063776d16c11461084c578063782661bc146108695780637bc6729b1461098e5780637cb2b79c146109965780637df73e27146109bc5780637fbc79c6146109e25780637fece36814610b0c578063807c97821461043a57806382553aad14610b405780638b7677f414610b5d5780638d0fedb014610b7a57806395082d2514610bb95780639c35b49714610bc1578063a2b47c1614610be7578063a374242514610bef578063a6eca89614610c155761033c565b80633aa08f86116102805780633aa08f861461059357806344c231931461059b5780634bd66c1c1461043a5780634c0e31c8146105b85780634d11fb4a146106db5780634f64b2be146106f85780634fdfb0861461071557806354aea1271461073b578063574ec1be1461074357806361ef161f1461077e578063668d3d6514610786578063695d41841461078e5780636bb22fd7146107965780636c56fd05146107c25780636ccd47c4146107e8578063715c7536146107f057806372279ba1146107f85761033c565b806303b049361461034157806303cd25711461037b57806303f4d7dc146103955780630604ddea1461043a5780630e9272ea14610442578063126082cf1461046657806312d43a511461046e57806314dd2dce14610476578063162ac4e01461049357806317835d1c146104b95780631a153391146104dc578063238aafb71461050a578063287800c9146105305780632a709b14146105385780632e9cd94b1461054057806331cb61051461055d578063392e53cd1461058b575b600080fd5b6103676004803603602081101561035757600080fd5b50356001600160a01b0316610ebd565b604080519115158252519081900360200190f35b610383610ed2565b60408051918252519081900360200190f35b610438600480360360408110156103ab57600080fd5b810190602081018135600160201b8111156103c557600080fd5b8201836020820111156103d757600080fd5b803590602001918460208302840111600160201b831117156103f857600080fd5b9190808060200260200160405190810160405280939291908181526020018383602002808284376000920191909152509295505091359250610ed8915050565b005b610383611056565b61044a61105e565b604080516001600160a01b039092168252519081900360200190f35b61038361106d565b61044a611073565b6104386004803603602081101561048c57600080fd5b5035611082565b610438600480360360208110156104a957600080fd5b50356001600160a01b03166110d4565b610438600480360360408110156104cf57600080fd5b5080359060200135611143565b610438600480360360408110156104f257600080fd5b506001600160a01b038135169060200135151561119f565b6104386004803603602081101561052057600080fd5b50356001600160a01b0316611217565b61038361128e565b61044a611294565b6104386004803603602081101561055657600080fd5b50356112a3565b6104386004803603604081101561057357600080fd5b506001600160a01b03813516906020013515156112f5565b61036761136d565b610383611376565b610438600480360360208110156105b157600080fd5b503561137c565b610438600480360360408110156105ce57600080fd5b810190602081018135600160201b8111156105e857600080fd5b8201836020820111156105fa57600080fd5b803590602001918460208302840111600160201b8311171561061b57600080fd5b9190808060200260200160405190810160405280939291908181526020018383602002808284376000920191909152509295949360208101935035915050600160201b81111561066a57600080fd5b82018360208201111561067c57600080fd5b803590602001918460208302840111600160201b8311171561069d57600080fd5b91908080602002602001604051908101604052809392919081815260200183836020028082843760009201919091525092955061140f945050505050565b610383600480360360208110156106f157600080fd5b50356114ba565b61044a6004803603602081101561070e57600080fd5b50356114d8565b6103676004803603602081101561072b57600080fd5b50356001600160a01b03166114ff565b610383611514565b610438600480360360c081101561075957600080fd5b5080359060208101359060408101359060608101359060808101359060a0013561151a565b61044a611732565b610383611741565b610367611747565b610438600480360360408110156107ac57600080fd5b506001600160a01b038135169060200135611755565b610367600480360360208110156107d857600080fd5b50356001600160a01b0316611866565b6104386118f1565b610383611a04565b61081e6004803603602081101561080e57600080fd5b50356001600160a01b0316611a0a565b604080519485526020850193909352838301919091526060830152519081900360800190f35b610383611a88565b6104386004803603602081101561086257600080fd5b5035611a8e565b6104386004803603606081101561087f57600080fd5b810190602081018135600160201b81111561089957600080fd5b8201836020820111156108ab57600080fd5b803590602001918460208302840111600160201b831117156108cc57600080fd5b9190808060200260200160405190810160405280939291908181526020018383602002808284376000920191909152509295949360208101935035915050600160201b81111561091b57600080fd5b82018360208201111561092d57600080fd5b803590602001918460208302840111600160201b8311171561094e57600080fd5b9190808060200260200160405190810160405280939291908181526020018383602002808284376000920191909152509295505091359250611ae0915050565b610438611bb5565b610438600480360360208110156109ac57600080fd5b50356001600160a01b0316611cc9565b610367600480360360208110156109d257600080fd5b50356001600160a01b0316611d38565b610438600480360360608110156109f857600080fd5b81359190810190604081016020820135600160201b811115610a1957600080fd5b820183602082011115610a2b57600080fd5b803590602001918460208302840111600160201b83111715610a4c57600080fd5b9190808060200260200160405190810160405280939291908181526020018383602002808284376000920191909152509295949360208101935035915050600160201b811115610a9b57600080fd5b820183602082011115610aad57600080fd5b803590602001918460208302840111600160201b83111715610ace57600080fd5b919080806020026020016040519081016040528093929190818152602001838360200280828437600092019190915250929550611d4d945050505050565b61038360048036036060811015610b2257600080fd5b506001600160a01b0381351690602081013590604001351515611e9b565b61043860048036036020811015610b5657600080fd5b5035611eb8565b61043860048036036020811015610b7357600080fd5b5035611f0a565b610ba060048036036020811015610b9057600080fd5b50356001600160a01b0316611f5c565b6040805192835290151560208301528051918290030190f35b610383611f78565b61043860048036036020811015610bd757600080fd5b50356001600160a01b0316611f88565b610383612099565b61038360048036036020811015610c0557600080fd5b50356001600160a01b03166120a0565b6103836120b2565b6103836120b8565b6103836120be565b61043860048036036020811015610c4357600080fd5b50356120c4565b61043860048036036040811015610c6057600080fd5b810190602081018135600160201b811115610c7a57600080fd5b820183602082011115610c8c57600080fd5b803590602001918460208302840111600160201b83111715610cad57600080fd5b9190808060200260200160405190810160405280939291908181526020018383602002808284376000920191909152509295949360208101935035915050600160201b811115610cfc57600080fd5b820183602082011115610d0e57600080fd5b803590602001918460208302840111600160201b83111715610d2f57600080fd5b919080806020026020016040519081016040528093929190818152602001838360200280828437600092019190915250929550612116945050505050565b6104386121e0565b610d9b60048036036020811015610d8b57600080fd5b50356001600160a01b03166122f7565b604080516001600160a01b03909516855263ffffffff9384166020860152918316848301529091166060830152519081900360800190f35b61043860048036036020811015610de957600080fd5b50351515612336565b61043860048036036020811015610e0857600080fd5b50356001600160a01b031661239d565b61038360048036036020811015610e2e57600080fd5b50356001600160a01b03166124b3565b61043860048036036020811015610e5457600080fd5b50356124c5565b61043860048036036020811015610e7157600080fd5b5035612517565b61043860048036036020811015610e8e57600080fd5b5035612569565b6103836125bb565b6103836125c1565b6103836125c7565b61044a6125d2565b6103836125e7565b60176020526000908152604090205460ff1681565b60085481565b3360009081526012602052604090205460ff16610f2a576040805162461bcd60e51b815260206004820152601860248201526000805160206130a8833981519152604482015290519081900360640190fd5b6000610f35826125ed565b90508015611050576003546002546001600160a01b0391821691620100009091041660005b855181101561104c576000868281518110610f7157fe5b6020026020010151905060005b600881101561104257601854600884028201908110610fa35750505050505050611052565b60188054602084029185831c63ffffffff169160009190600889028701908110610fc957fe5b6000918252602082200154601980546001600160a01b0390921693509060088a028801908110610ff557fe5b600091825260208220015491506110228261101c8668327cb2734119d3b7a9601e1b6126f9565b9061275b565b905061103083828c8e61279a565b505060019094019350610f7e92505050565b5050600101610f5a565b5050505b505b5050565b63ffffffff81565b6003546001600160a01b031681565b61271081565b6000546001600160a01b031681565b6000546001600160a01b031633146110cf576040805162461bcd60e51b81526020600482015260156024820152600080516020613088833981519152604482015290519081900360640190fd5b600655565b6000546001600160a01b03163314611121576040805162461bcd60e51b81526020600482015260156024820152600080516020613088833981519152604482015290519081900360640190fd5b600380546001600160a01b0319166001600160a01b0392909216919091179055565b3360009081526012602052604090205460ff16611195576040805162461bcd60e51b815260206004820152601860248201526000805160206130a8833981519152604482015290519081900360640190fd5b6110528282612a2f565b6000546001600160a01b031633146111ec576040805162461bcd60e51b81526020600482015260156024820152600080516020613088833981519152604482015290519081900360640190fd5b6001600160a01b03919091166000908152601260205260409020805460ff1916911515919091179055565b6000546001600160a01b03163314611264576040805162461bcd60e51b81526020600482015260156024820152600080516020613088833981519152604482015290519081900360640190fd5b600280546001600160a01b03909216620100000262010000600160b01b0319909216919091179055565b60105481565b6004546001600160a01b031681565b6004546001600160a01b031633146112f0576040805162461bcd60e51b815260206004820152601860248201526000805160206130a8833981519152604482015290519081900360640190fd5b600e55565b6000546001600160a01b03163314611342576040805162461bcd60e51b81526020600482015260156024820152600080516020613088833981519152604482015290519081900360640190fd5b6001600160a01b03919091166000908152601660205260409020805460ff1916911515919091179055565b60025460ff1681565b600d5481565b6000546001600160a01b031633146113c9576040805162461bcd60e51b81526020600482015260156024820152600080516020613088833981519152604482015290519081900360640190fd5b61070881111561140a5760405162461bcd60e51b81526004018080602001828103825260258152602001806130396025913960400191505060405180910390fd5b600855565b6004546001600160a01b0316331461145c576040805162461bcd60e51b815260206004820152601860248201526000805160206130a8833981519152604482015290519081900360640190fd5b60005b825181101561105057600083828151811061147657fe5b6020026020010151905082828151811061148c57fe5b6020908102919091018101516001600160a01b0390921660009081526015909152604090205560010161145f565b601981815481106114c757fe5b600091825260209091200154905081565b601881815481106114e557fe5b6000918252602090912001546001600160a01b0316905081565b60126020526000908152604090205460ff1681565b60065481565b3360009081526012602052604090205460ff1661156c576040805162461bcd60e51b815260206004820152601860248201526000805160206130a8833981519152604482015290519081900360640190fd5b6115768686612a2f565b6000600560009054906101000a90046001600160a01b03169050600061160184836001600160a01b0316639b5786206040518163ffffffff1660e01b815260040160206040518083038186803b1580156115cf57600080fd5b505afa1580156115e3573d6000803e3d6000fd5b505050506040513d60208110156115f957600080fd5b505190612b0c565b9050600061164284846001600160a01b0316631bca8cf06040518163ffffffff1660e01b815260040160206040518083038186803b1580156115cf57600080fd5b905081871115611650578196505b8086111561165c578095505b60408051629a208160e81b81526004810189905233602482015290516001600160a01b03851691639a20810091604480830192600092919082900301818387803b1580156116a957600080fd5b505af11580156116bd573d6000803e3d6000fd5b50506040805163f3883d8b60e01b8152600481018a905233602482015290516001600160a01b038716935063f3883d8b9250604480830192600092919082900301818387803b15801561170f57600080fd5b505af1158015611723573d6000803e3d6000fd5b50505050505050505050505050565b6005546001600160a01b031681565b61070881565b600254610100900460ff1681565b6000546001600160a01b031633146117a2576040805162461bcd60e51b81526020600482015260156024820152600080516020613088833981519152604482015290519081900360640190fd5b6001600160a01b0382166117fb576040805162461bcd60e51b815260206004820152601b60248201527a476f7665726e61626c653a20696e76616c6964206164647265737360281b604482015290519081900360640190fd5b6000546001600160a01b038381169116141561185c576040805162461bcd60e51b815260206004820152601b60248201527a476f7665726e61626c653a2073616d6520676f7665726e616e636560281b604482015290519081900360640190fd5b6110528282612b64565b600254600090610100900460ff1615611881575060006118ec565b60105460115410611894575060006118ec565b6000806118a084611a0a565b93509350505081811180156118d557506001600160a01b0384166000908152601560205260409020546118d38284612bdf565b115b156118e5576000925050506118ec565b6001925050505b919050565b3360009081526016602052604090205460ff16611943576040805162461bcd60e51b815260206004820152601860248201526000805160206130a8833981519152604482015290519081900360640190fd5b3360009081526017602052604090205460ff166119a7576040805162461bcd60e51b815260206004820152601e60248201527f466173745072696365466565643a20616c726561647920656e61626c65640000604482015290519081900360640190fd5b336000908152601760205260409020805460ff191690556011546119cc906001612bdf565b6011556040805133815290517f9fe0c305c33aa92757a537936872a60be0d91549a4303cc99fd8b7fce8a002759181900360200190a1565b600f5481565b600080600080611a18612f31565b505050506001600160a01b039182166000908152601460209081526040918290208251608081018452905494851680825263ffffffff600160a01b87048116938301849052600160c01b87048116948301859052600160e01b909604909516606090910181905293949093919250565b600a5481565b6000546001600160a01b03163314611adb576040805162461bcd60e51b81526020600482015260156024820152600080516020613088833981519152604482015290519081900360640190fd5b600d55565b3360009081526012602052604090205460ff16611b32576040805162461bcd60e51b815260206004820152601860248201526000805160206130a8833981519152604482015290519081900360640190fd5b6000611b3d826125ed565b90508015611baf576003546002546001600160a01b0391821691620100009091041660005b8651811015611bab576000878281518110611b7957fe5b60200260200101519050611ba281888481518110611b9357fe5b6020026020010151858761279a565b50600101611b62565b5050505b50505050565b33600090815260016020526040902080544210611c18576040805162461bcd60e51b815260206004820152601c60248201527b11dbdd995c9b98589b194e88191958591b1a5b9948195e1c1a5c995960221b604482015290519081900360640190fd5b60018082015460ff16151514611c5f5760405162461bcd60e51b81526004018080602001828103825260228152602001806130c86022913960400191505060405180910390fd5b6000805433808352600160208190526040808520858155909101805460ff1916905583546001600160a01b03191682178455516001600160a01b0390921692909183917f5f56bee8cffbe9a78652a74a60705edede02af10b0bbb888ca44b79a0d42ce8091a35050565b6004546001600160a01b03163314611d16576040805162461bcd60e51b815260206004820152601860248201526000805160206130a8833981519152604482015290519081900360640190fd5b600480546001600160a01b0319166001600160a01b0392909216919091179055565b60166020526000908152604090205460ff1681565b6000546001600160a01b03163314611d9a576040805162461bcd60e51b81526020600482015260156024820152600080516020613088833981519152604482015290519081900360640190fd5b60025460ff1615611ddc5760405162461bcd60e51b81526004018080602001828103825260228152602001806131be6022913960400191505060405180910390fd5b6002805460ff19166001179055601083905560005b8251811015611e44576000838281518110611e0857fe5b6020908102919091018101516001600160a01b03166000908152601690915260409020805460ff19166001908117909155919091019050611df1565b5060005b8151811015611baf576000828281518110611e5f57fe5b6020908102919091018101516001600160a01b03166000908152601290915260409020805460ff19166001908117909155919091019050611e48565b50506001600160a01b031660009081526013602052604090205490565b6004546001600160a01b03163314611f05576040805162461bcd60e51b815260206004820152601860248201526000805160206130a8833981519152604482015290519081900360640190fd5b600f55565b6000546001600160a01b03163314611f57576040805162461bcd60e51b81526020600482015260156024820152600080516020613088833981519152604482015290519081900360640190fd5b600955565b6001602081905260009182526040909120805491015460ff1682565b68327cb2734119d3b7a9601e1b81565b6000546001600160a01b03163314611fd5576040805162461bcd60e51b81526020600482015260156024820152600080516020613088833981519152604482015290519081900360640190fd5b6001600160a01b0381166000908152600160208190526040909120015460ff16612046576040805162461bcd60e51b815260206004820152601f60248201527f476f7665726e61626c653a2070726f706f73616c206e6f742061637469766500604482015290519081900360640190fd5b6001600160a01b0381166000818152600160208190526040808320838155909101805460ff19169055513392917ffc6a2fa53abe2adfe8372a9495032d7e6458d3aed34fa880132b6c808da1e99c91a350565b6298968081565b60156020526000908152604090205481565b600b5481565b60115481565b600c5481565b6000546001600160a01b03163314612111576040805162461bcd60e51b81526020600482015260156024820152600080516020613088833981519152604482015290519081900360640190fd5b600a55565b6000546001600160a01b03163314612163576040805162461bcd60e51b81526020600482015260156024820152600080516020613088833981519152604482015290519081900360640190fd5b80518251146121b9576040805162461bcd60e51b815260206004820152601e60248201527f466173745072696365466565643a20696e76616c6964206c656e677468730000604482015290519081900360640190fd5b81516121cc906018906020850190612f58565b508051611050906019906020840190612fbd565b3360009081526016602052604090205460ff16612232576040805162461bcd60e51b815260206004820152601860248201526000805160206130a8833981519152604482015290519081900360640190fd5b3360009081526017602052604090205460ff1615612296576040805162461bcd60e51b815260206004820152601c60248201527b11985cdd141c9a58d9519959590e88185b1c9958591e481d9bdd195960221b604482015290519081900360640190fd5b336000908152601760205260409020805460ff191660019081179091556011546122bf91612b0c565b6011556040805133815290517f4c0c5fabf50e808e3bc8d19577d305e3a7163eea7e8a74a50caa8896694cd44b9181900360200190a1565b6014602052600090815260409020546001600160a01b0381169063ffffffff600160a01b8204811691600160c01b8104821691600160e01b9091041684565b6000546001600160a01b03163314612383576040805162461bcd60e51b81526020600482015260156024820152600080516020613088833981519152604482015290519081900360640190fd5b600280549115156101000261ff0019909216919091179055565b6000546001600160a01b031633146123ea576040805162461bcd60e51b81526020600482015260156024820152600080516020613088833981519152604482015290519081900360640190fd5b6001600160a01b038116612443576040805162461bcd60e51b815260206004820152601b60248201527a476f7665726e61626c653a20696e76616c6964206164647265737360281b604482015290519081900360640190fd5b6000546001600160a01b03828116911614156124a4576040805162461bcd60e51b815260206004820152601b60248201527a476f7665726e61626c653a2073616d6520676f7665726e616e636560281b604482015290519081900360640190fd5b6124b081600019612b64565b50565b60136020526000908152604090205481565b6000546001600160a01b03163314612512576040805162461bcd60e51b81526020600482015260156024820152600080516020613088833981519152604482015290519081900360640190fd5b600c55565b6004546001600160a01b03163314612564576040805162461bcd60e51b815260206004820152601860248201526000805160206130a8833981519152604482015290519081900360640190fd5b601055565b6000546001600160a01b031633146125b6576040805162461bcd60e51b81526020600482015260156024820152600080516020613088833981519152604482015290519081900360640190fd5b600b55565b600e5481565b60095481565b6001600160a01b0381565b6002546201000090046001600160a01b031681565b60075481565b600c546000901561264657600c54600754612609904390612bdf565b10156126465760405162461bcd60e51b815260040180806020018281038252602e815260200180613167602e913960400191505060405180910390fd5b600d546126534282612bdf565b83116126905760405162461bcd60e51b815260040180806020018281038252602d81526020018061313a602d913960400191505060405180910390fd5b61269a4282612b0c565b83106126d75760405162461bcd60e51b815260040180806020018281038252602f8152602001806130ea602f913960400191505060405180910390fd5b6006548310156126eb5760009150506118ec565b505060065543600755600190565b60008261270857506000612755565b8282028284828161271557fe5b04146127525760405162461bcd60e51b81526004018080602001828103825260218152602001806131196021913960400191505060405180910390fd5b90505b92915050565b600061275283836040518060400160405280601a815260200179536166654d6174683a206469766973696f6e206279207a65726f60301b815250612c21565b6001600160a01b03821615612a09576000826001600160a01b03166356bf9de4866040518263ffffffff1660e01b815260040180826001600160a01b0316815260200191505060206040518083038186803b1580156127f857600080fd5b505afa15801561280c573d6000803e3d6000fd5b505050506040513d602081101561282257600080fd5b50516001600160a01b03861660009081526013602052604081205491925080808061284c8a611a0a565b93509350935093506000841115612913576000848711612875576128708588612bdf565b61287f565b61287f8786612bdf565b905060008a8711612899576128948b88612bdf565b6128a3565b6128a3878c612bdf565b90506128ba600e544261275b90919063ffffffff16565b600e546128c890879061275b565b146128d65760009350600092505b6128f16128ea8761101c85629896806126f9565b8590612b0c565b935061290e6129078861101c84629896806126f9565b8490612b0c565b925050505b818111801561294257506001600160a01b038a166000908152601560205260409020546129408284612bdf565b115b1561299f57604080516001600160a01b038c16815260208101889052808201879052606081018490526080810183905290517fe582322b389ad06b2bbf619cd6da3f16a288ec873ea0fa6df4d72f3d9480b4479181900360a00190a15b6129ab8a878484612cc3565b604080516001600160a01b038c16815260208101889052808201879052606081018490526080810183905290517f23b9387f81fca646aac1dc4487ede045c65f5f7445482906565f01e05afdb3a89181900360a00190a15050505050505b6001600160a01b0384166000908152601360205260409020839055611baf818585612e59565b6000612a3a826125ed565b90508015611050576003546002546001600160a01b0391821691620100009091041660005b600881101561104c5760185481908110612a7d575050505050611052565b60188054602084029189831c63ffffffff16916000919086908110612a9e57fe5b6000918252602082200154601980546001600160a01b0390921693509087908110612ac557fe5b60009182526020822001549150612aec8261101c8668327cb2734119d3b7a9601e1b6126f9565b9050612afa83828a8c61279a565b505060019094019350612a5f92505050565b600082820183811015612752576040805162461bcd60e51b815260206004820152601b60248201527a536166654d6174683a206164646974696f6e206f766572666c6f7760281b604482015290519081900360640190fd5b604080518082018252828152600160208083018281526001600160a01b038716600081815284845286902094518555905193909201805460ff1916931515939093179092558251848152925190927f02dd0697be46e764c3ba81094158781c31b235d03bb27a0daf1bdef0ec1084dd92908290030190a25050565b600061275283836040518060400160405280601e81526020017f536166654d6174683a207375627472616374696f6e206f766572666c6f770000815250612ed7565b60008183612cad5760405162461bcd60e51b81526004018080602001828103825283818151815260200191508051906020019080838360005b83811015612c72578181015183820152602001612c5a565b50505050905090810190601f168015612c9f5780820380516001836020036101000a031916815260200191505b509250505060405180910390fd5b506000838581612cb957fe5b0495945050505050565b6001600160a01b038310612d1e576040805162461bcd60e51b815260206004820152601f60248201527f466173745072696365466565643a20696e76616c696420726566507269636500604482015290519081900360640190fd5b63ffffffff8210612d605760405162461bcd60e51b81526004018080602001828103825260298152602001806131956029913960400191505060405180910390fd5b63ffffffff8110612da25760405162461bcd60e51b815260040180806020018281038252602a81526020018061305e602a913960400191505060405180910390fd5b604080516080810182526001600160a01b03948516815263ffffffff4281166020808401918252958216838501908152948216606084019081529787166000908152601490965292909420905181549251935196518516600160e01b026001600160e01b03978616600160c01b0263ffffffff60c01b1995909616600160a01b0263ffffffff60a01b19929097166001600160a01b0319909416939093171694909417919091169190911792909216919091179055565b6001600160a01b038316612e6c57611050565b826001600160a01b031663e0409c7183836040518363ffffffff1660e01b815260040180836001600160a01b0316815260200182815260200192505050600060405180830381600087803b158015612ec357600080fd5b505af1158015611bab573d6000803e3d6000fd5b60008184841115612f295760405162461bcd60e51b8152602060048201818152835160248401528351909283926044909101919085019080838360008315612c72578181015183820152602001612c5a565b505050900390565b60408051608081018252600080825260208201819052918101829052606081019190915290565b828054828255906000526020600020908101928215612fad579160200282015b82811115612fad57825182546001600160a01b0319166001600160a01b03909116178255602090920191600190910190612f78565b50612fb9929150613004565b5090565b828054828255906000526020600020908101928215612ff8579160200282015b82811115612ff8578251825591602001919060010190612fdd565b50612fb9929150613023565b5b80821115612fb95780546001600160a01b0319168155600101613005565b5b80821115612fb9576000815560010161302456fe466173745072696365466565643a20696e76616c6964205f70726963654475726174696f6e466173745072696365466565643a20696e76616c69642063756d756c61746976654661737444656c7461476f7665726e61626c653a20666f7262696464656e0000000000000000000000466173745072696365466565643a20666f7262696464656e0000000000000000476f7665726e61626c653a2070726f706f73616c206973206e6f7420616374697665466173745072696365466565643a205f74696d657374616d70206578636565647320616c6c6f7765642072616e6765536166654d6174683a206d756c7469706c69636174696f6e206f766572666c6f77466173745072696365466565643a205f74696d657374616d702062656c6f7720616c6c6f7765642072616e6765466173745072696365466565643a206d696e426c6f636b496e74657276616c206e6f742079657420706173736564466173745072696365466565643a20696e76616c69642063756d756c617469766552656644656c7461466173745072696365466565643a20616c726561647920696e697469616c697a6564a26469706673582212202867d8efd65944f15e766677407886460dbaaacd587d1c87409663f5074ace5264736f6c634300060c0033466173745072696365466565643a20696e76616c6964205f70726963654475726174696f6e","linkReferences":{}},"methodIdentifiers":{"BASIS_POINTS_DIVISOR()":"126082cf","BITMASK_32()":"807c9782","CUMULATIVE_DELTA_PRECISION()":"a2b47c16","MAX_CUMULATIVE_FAST_DELTA()":"4bd66c1c","MAX_CUMULATIVE_REF_DELTA()":"0604ddea","MAX_PRICE_DURATION()":"668d3d65","MAX_REF_PRICE()":"e68a22c0","PRICE_PRECISION()":"95082d25","acceptGov()":"7bc6729b","cancelGovProposal(address)":"9c35b497","disableFastPrice()":"c84a9124","disableFastPriceVoteCount()":"b0a25666","disableFastPriceVotes(address)":"03b04936","enableFastPrice()":"6ccd47c4","fastPriceEvents()":"0e9272ea","favorFastPrice(address)":"6c56fd05","getPrice(address,uint256,bool)":"7fece368","getPriceData(address)":"72279ba1","gov()":"12d43a51","govProposals(address)":"8d0fedb0","initialize(uint256,address[],address[])":"7fbc79c6","isInitialized()":"392e53cd","isSigner(address)":"7df73e27","isSpreadEnabled()":"695d4184","isUpdater(address)":"4fdfb086","lastUpdatedAt()":"54aea127","lastUpdatedBlock()":"f90ce5ba","maxCumulativeDeltaDiffs(address)":"a3742425","maxDeviationBasisPoints()":"715c7536","maxPriceUpdateDelay()":"e64559ad","maxTimeDeviation()":"3aa08f86","minAuthorizations()":"287800c9","minBlockInterval()":"b3606b56","positionRouter()":"61ef161f","priceData(address)":"cab44b76","priceDataInterval()":"dfb481c9","priceDuration()":"03cd2571","prices(address)":"cfed246b","setCompactedPrices(uint256[],uint256)":"03f4d7dc","setFastPriceEvents(address)":"162ac4e0","setGov(address)":"cfad57a2","setGovWithDeadline(address,uint256)":"6bb22fd7","setIsSpreadEnabled(bool)":"ce98dfa8","setLastUpdatedAt(uint256)":"14dd2dce","setMaxCumulativeDeltaDiffs(address[],uint256[])":"4c0e31c8","setMaxDeviationBasisPoints(uint256)":"82553aad","setMaxPriceUpdateDelay(uint256)":"8b7677f4","setMaxTimeDeviation(uint256)":"776d16c1","setMinAuthorizations(uint256)":"d925351a","setMinBlockInterval(uint256)":"d6a153f1","setPriceDataInterval(uint256)":"2e9cd94b","setPriceDuration(uint256)":"44c23193","setPrices(address[],uint256[],uint256)":"782661bc","setPricesWithBits(uint256,uint256)":"17835d1c","setPricesWithBitsAndExecute(uint256,uint256,uint256,uint256,uint256,uint256)":"574ec1be","setSigner(address,bool)":"31cb6105","setSpreadBasisPointsIfChainError(uint256)":"de0d1b94","setSpreadBasisPointsIfInactive(uint256)":"b70c7b70","setTokenManager(address)":"7cb2b79c","setTokens(address[],uint256[])":"c8390a48","setUpdater(address,bool)":"1a153391","setVaultPriceFeed(address)":"238aafb7","spreadBasisPointsIfChainError()":"a6eca896","spreadBasisPointsIfInactive()":"74bfed89","tokenManager()":"2a709b14","tokenPrecisions(uint256)":"4d11fb4a","tokens(uint256)":"4f64b2be","vaultPriceFeed()":"eeaa783a"},"id":65}