{"abi":[{"type":"constructor","inputs":[{"name":"_priceDuration","type":"uint256","internalType":"uint256"},{"name":"_maxPriceUpdateDelay","type":"uint256","internalType":"uint256"},{"name":"_minBlockInterval","type":"uint256","internalType":"uint256"},{"name":"_maxDeviationBasisPoints","type":"uint256","internalType":"uint256"},{"name":"_fastPriceEvents","type":"address","internalType":"address"},{"name":"_tokenManager","type":"address","internalType":"address"},{"name":"_positionRouter","type":"address","internalType":"address"}],"stateMutability":"nonpayable"},{"type":"function","name":"BASIS_POINTS_DIVISOR","inputs":[],"outputs":[{"name":"","type":"uint256","internalType":"uint256"}],"stateMutability":"view"},{"type":"function","name":"BITMASK_32","inputs":[],"outputs":[{"name":"","type":"uint256","internalType":"uint256"}],"stateMutability":"view"},{"type":"function","name":"CUMULATIVE_DELTA_PRECISION","inputs":[],"outputs":[{"name":"","type":"uint256","internalType":"uint256"}],"stateMutability":"view"},{"type":"function","name":"MAX_CUMULATIVE_FAST_DELTA","inputs":[],"outputs":[{"name":"","type":"uint256","internalType":"uint256"}],"stateMutability":"view"},{"type":"function","name":"MAX_CUMULATIVE_REF_DELTA","inputs":[],"outputs":[{"name":"","type":"uint256","internalType":"uint256"}],"stateMutability":"view"},{"type":"function","name":"MAX_PRICE_DURATION","inputs":[],"outputs":[{"name":"","type":"uint256","internalType":"uint256"}],"stateMutability":"view"},{"type":"function","name":"MAX_REF_PRICE","inputs":[],"outputs":[{"name":"","type":"uint256","internalType":"uint256"}],"stateMutability":"view"},{"type":"function","name":"PRICE_PRECISION","inputs":[],"outputs":[{"name":"","type":"uint256","internalType":"uint256"}],"stateMutability":"view"},{"type":"function","name":"disableFastPrice","inputs":[],"outputs":[],"stateMutability":"nonpayable"},{"type":"function","name":"disableFastPriceVoteCount","inputs":[],"outputs":[{"name":"","type":"uint256","internalType":"uint256"}],"stateMutability":"view"},{"type":"function","name":"disableFastPriceVotes","inputs":[{"name":"","type":"address","internalType":"address"}],"outputs":[{"name":"","type":"bool","internalType":"bool"}],"stateMutability":"view"},{"type":"function","name":"enableFastPrice","inputs":[],"outputs":[],"stateMutability":"nonpayable"},{"type":"function","name":"fastPriceEvents","inputs":[],"outputs":[{"name":"","type":"address","internalType":"address"}],"stateMutability":"view"},{"type":"function","name":"favorFastPrice","inputs":[{"name":"_token","type":"address","internalType":"address"}],"outputs":[{"name":"","type":"bool","internalType":"bool"}],"stateMutability":"view"},{"type":"function","name":"getPrice","inputs":[{"name":"_token","type":"address","internalType":"address"},{"name":"_refPrice","type":"uint256","internalType":"uint256"},{"name":"_maximise","type":"bool","internalType":"bool"}],"outputs":[{"name":"","type":"uint256","internalType":"uint256"}],"stateMutability":"view"},{"type":"function","name":"getPriceData","inputs":[{"name":"_token","type":"address","internalType":"address"}],"outputs":[{"name":"","type":"uint256","internalType":"uint256"},{"name":"","type":"uint256","internalType":"uint256"},{"name":"","type":"uint256","internalType":"uint256"},{"name":"","type":"uint256","internalType":"uint256"}],"stateMutability":"view"},{"type":"function","name":"gov","inputs":[],"outputs":[{"name":"","type":"address","internalType":"address"}],"stateMutability":"view"},{"type":"function","name":"initialize","inputs":[{"name":"_minAuthorizations","type":"uint256","internalType":"uint256"},{"name":"_signers","type":"address[]","internalType":"address[]"},{"name":"_updaters","type":"address[]","internalType":"address[]"}],"outputs":[],"stateMutability":"nonpayable"},{"type":"function","name":"isInitialized","inputs":[],"outputs":[{"name":"","type":"bool","internalType":"bool"}],"stateMutability":"view"},{"type":"function","name":"isSigner","inputs":[{"name":"","type":"address","internalType":"address"}],"outputs":[{"name":"","type":"bool","internalType":"bool"}],"stateMutability":"view"},{"type":"function","name":"isSpreadEnabled","inputs":[],"outputs":[{"name":"","type":"bool","internalType":"bool"}],"stateMutability":"view"},{"type":"function","name":"isUpdater","inputs":[{"name":"","type":"address","internalType":"address"}],"outputs":[{"name":"","type":"bool","internalType":"bool"}],"stateMutability":"view"},{"type":"function","name":"lastUpdatedAt","inputs":[],"outputs":[{"name":"","type":"uint256","internalType":"uint256"}],"stateMutability":"view"},{"type":"function","name":"lastUpdatedBlock","inputs":[],"outputs":[{"name":"","type":"uint256","internalType":"uint256"}],"stateMutability":"view"},{"type":"function","name":"maxCumulativeDeltaDiffs","inputs":[{"name":"","type":"address","internalType":"address"}],"outputs":[{"name":"","type":"uint256","internalType":"uint256"}],"stateMutability":"view"},{"type":"function","name":"maxDeviationBasisPoints","inputs":[],"outputs":[{"name":"","type":"uint256","internalType":"uint256"}],"stateMutability":"view"},{"type":"function","name":"maxPriceUpdateDelay","inputs":[],"outputs":[{"name":"","type":"uint256","internalType":"uint256"}],"stateMutability":"view"},{"type":"function","name":"maxTimeDeviation","inputs":[],"outputs":[{"name":"","type":"uint256","internalType":"uint256"}],"stateMutability":"view"},{"type":"function","name":"minAuthorizations","inputs":[],"outputs":[{"name":"","type":"uint256","internalType":"uint256"}],"stateMutability":"view"},{"type":"function","name":"minBlockInterval","inputs":[],"outputs":[{"name":"","type":"uint256","internalType":"uint256"}],"stateMutability":"view"},{"type":"function","name":"positionRouter","inputs":[],"outputs":[{"name":"","type":"address","internalType":"address"}],"stateMutability":"view"},{"type":"function","name":"priceData","inputs":[{"name":"","type":"address","internalType":"address"}],"outputs":[{"name":"refPrice","type":"uint160","internalType":"uint160"},{"name":"refTime","type":"uint32","internalType":"uint32"},{"name":"cumulativeRefDelta","type":"uint32","internalType":"uint32"},{"name":"cumulativeFastDelta","type":"uint32","internalType":"uint32"}],"stateMutability":"view"},{"type":"function","name":"priceDataInterval","inputs":[],"outputs":[{"name":"","type":"uint256","internalType":"uint256"}],"stateMutability":"view"},{"type":"function","name":"priceDuration","inputs":[],"outputs":[{"name":"","type":"uint256","internalType":"uint256"}],"stateMutability":"view"},{"type":"function","name":"prices","inputs":[{"name":"","type":"address","internalType":"address"}],"outputs":[{"name":"","type":"uint256","internalType":"uint256"}],"stateMutability":"view"},{"type":"function","name":"setCompactedPrices","inputs":[{"name":"_priceBitArray","type":"uint256[]","internalType":"uint256[]"},{"name":"_timestamp","type":"uint256","internalType":"uint256"}],"outputs":[],"stateMutability":"nonpayable"},{"type":"function","name":"setFastPriceEvents","inputs":[{"name":"_fastPriceEvents","type":"address","internalType":"address"}],"outputs":[],"stateMutability":"nonpayable"},{"type":"function","name":"setGov","inputs":[{"name":"_gov","type":"address","internalType":"address"}],"outputs":[],"stateMutability":"nonpayable"},{"type":"function","name":"setIsSpreadEnabled","inputs":[{"name":"_isSpreadEnabled","type":"bool","internalType":"bool"}],"outputs":[],"stateMutability":"nonpayable"},{"type":"function","name":"setLastUpdatedAt","inputs":[{"name":"_lastUpdatedAt","type":"uint256","internalType":"uint256"}],"outputs":[],"stateMutability":"nonpayable"},{"type":"function","name":"setMaxCumulativeDeltaDiffs","inputs":[{"name":"_tokens","type":"address[]","internalType":"address[]"},{"name":"_maxCumulativeDeltaDiffs","type":"uint256[]","internalType":"uint256[]"}],"outputs":[],"stateMutability":"nonpayable"},{"type":"function","name":"setMaxDeviationBasisPoints","inputs":[{"name":"_maxDeviationBasisPoints","type":"uint256","internalType":"uint256"}],"outputs":[],"stateMutability":"nonpayable"},{"type":"function","name":"setMaxPriceUpdateDelay","inputs":[{"name":"_maxPriceUpdateDelay","type":"uint256","internalType":"uint256"}],"outputs":[],"stateMutability":"nonpayable"},{"type":"function","name":"setMaxTimeDeviation","inputs":[{"name":"_maxTimeDeviation","type":"uint256","internalType":"uint256"}],"outputs":[],"stateMutability":"nonpayable"},{"type":"function","name":"setMinAuthorizations","inputs":[{"name":"_minAuthorizations","type":"uint256","internalType":"uint256"}],"outputs":[],"stateMutability":"nonpayable"},{"type":"function","name":"setMinBlockInterval","inputs":[{"name":"_minBlockInterval","type":"uint256","internalType":"uint256"}],"outputs":[],"stateMutability":"nonpayable"},{"type":"function","name":"setPriceDataInterval","inputs":[{"name":"_priceDataInterval","type":"uint256","internalType":"uint256"}],"outputs":[],"stateMutability":"nonpayable"},{"type":"function","name":"setPriceDuration","inputs":[{"name":"_priceDuration","type":"uint256","internalType":"uint256"}],"outputs":[],"stateMutability":"nonpayable"},{"type":"function","name":"setPrices","inputs":[{"name":"_tokens","type":"address[]","internalType":"address[]"},{"name":"_prices","type":"uint256[]","internalType":"uint256[]"},{"name":"_timestamp","type":"uint256","internalType":"uint256"}],"outputs":[],"stateMutability":"nonpayable"},{"type":"function","name":"setPricesWithBits","inputs":[{"name":"_priceBits","type":"uint256","internalType":"uint256"},{"name":"_timestamp","type":"uint256","internalType":"uint256"}],"outputs":[],"stateMutability":"nonpayable"},{"type":"function","name":"setPricesWithBitsAndExecute","inputs":[{"name":"_priceBits","type":"uint256","internalType":"uint256"},{"name":"_timestamp","type":"uint256","internalType":"uint256"},{"name":"_endIndexForIncreasePositions","type":"uint256","internalType":"uint256"},{"name":"_endIndexForDecreasePositions","type":"uint256","internalType":"uint256"},{"name":"_maxIncreasePositions","type":"uint256","internalType":"uint256"},{"name":"_maxDecreasePositions","type":"uint256","internalType":"uint256"}],"outputs":[],"stateMutability":"nonpayable"},{"type":"function","name":"setSigner","inputs":[{"name":"_account","type":"address","internalType":"address"},{"name":"_isActive","type":"bool","internalType":"bool"}],"outputs":[],"stateMutability":"nonpayable"},{"type":"function","name":"setSpreadBasisPointsIfChainError","inputs":[{"name":"_spreadBasisPointsIfChainError","type":"uint256","internalType":"uint256"}],"outputs":[],"stateMutability":"nonpayable"},{"type":"function","name":"setSpreadBasisPointsIfInactive","inputs":[{"name":"_spreadBasisPointsIfInactive","type":"uint256","internalType":"uint256"}],"outputs":[],"stateMutability":"nonpayable"},{"type":"function","name":"setTokenManager","inputs":[{"name":"_tokenManager","type":"address","internalType":"address"}],"outputs":[],"stateMutability":"nonpayable"},{"type":"function","name":"setTokens","inputs":[{"name":"_tokens","type":"address[]","internalType":"address[]"},{"name":"_tokenPrecisions","type":"uint256[]","internalType":"uint256[]"}],"outputs":[],"stateMutability":"nonpayable"},{"type":"function","name":"setUpdater","inputs":[{"name":"_account","type":"address","internalType":"address"},{"name":"_isActive","type":"bool","internalType":"bool"}],"outputs":[],"stateMutability":"nonpayable"},{"type":"function","name":"setVaultPriceFeed","inputs":[{"name":"_vaultPriceFeed","type":"address","internalType":"address"}],"outputs":[],"stateMutability":"nonpayable"},{"type":"function","name":"spreadBasisPointsIfChainError","inputs":[],"outputs":[{"name":"","type":"uint256","internalType":"uint256"}],"stateMutability":"view"},{"type":"function","name":"spreadBasisPointsIfInactive","inputs":[],"outputs":[{"name":"","type":"uint256","internalType":"uint256"}],"stateMutability":"view"},{"type":"function","name":"tokenManager","inputs":[],"outputs":[{"name":"","type":"address","internalType":"address"}],"stateMutability":"view"},{"type":"function","name":"tokenPrecisions","inputs":[{"name":"","type":"uint256","internalType":"uint256"}],"outputs":[{"name":"","type":"uint256","internalType":"uint256"}],"stateMutability":"view"},{"type":"function","name":"tokens","inputs":[{"name":"","type":"uint256","internalType":"uint256"}],"outputs":[{"name":"","type":"address","internalType":"address"}],"stateMutability":"view"},{"type":"function","name":"vaultPriceFeed","inputs":[],"outputs":[{"name":"","type":"address","internalType":"address"}],"stateMutability":"view"},{"type":"event","name":"DisableFastPrice","inputs":[{"name":"signer","type":"address","indexed":false,"internalType":"address"}],"anonymous":false},{"type":"event","name":"EnableFastPrice","inputs":[{"name":"signer","type":"address","indexed":false,"internalType":"address"}],"anonymous":false},{"type":"event","name":"MaxCumulativeDeltaDiffExceeded","inputs":[{"name":"token","type":"address","indexed":false,"internalType":"address"},{"name":"refPrice","type":"uint256","indexed":false,"internalType":"uint256"},{"name":"fastPrice","type":"uint256","indexed":false,"internalType":"uint256"},{"name":"cumulativeRefDelta","type":"uint256","indexed":false,"internalType":"uint256"},{"name":"cumulativeFastDelta","type":"uint256","indexed":false,"internalType":"uint256"}],"anonymous":false},{"type":"event","name":"PriceData","inputs":[{"name":"token","type":"address","indexed":false,"internalType":"address"},{"name":"refPrice","type":"uint256","indexed":false,"internalType":"uint256"},{"name":"fastPrice","type":"uint256","indexed":false,"internalType":"uint256"},{"name":"cumulativeRefDelta","type":"uint256","indexed":false,"internalType":"uint256"},{"name":"cumulativeFastDelta","type":"uint256","indexed":false,"internalType":"uint256"}],"anonymous":false}],"bytecode":{"object":"0x60806040526000805460ff60a81b1916815560105534801561002057600080fd5b5060405162002dd038038062002dd0833981810160405260e081101561004557600080fd5b508051602082015160408301516060840151608085015160a086015160c090960151600080546001600160a01b0319163317905594959394929391929091906107088711156100c65760405162461bcd60e51b815260040180806020018281038252602581526020018062002dab6025913960400191505060405180910390fd5b600796909655600894909455600b92909255600e55600280546001600160a01b039283166001600160a01b031991821617909155600380549383169382169390931790925560048054919093169116179055612c8380620001286000396000f3fe608060405234801561001057600080fd5b50600436106102f05760003560e01c806372279ba11161018f57806372279ba11461078057806374bfed89146107cc578063776d16c1146107d4578063782661bc146107f15780637cb2b79c146109165780637df73e271461093c5780637fbc79c6146109625780637fece36814610a8c578063807c9782146103ee57806382553aad14610ac05780638b7677f414610add57806395082d2514610afa578063a2b47c1614610b02578063a374242514610b0a578063a6eca89614610b30578063b0a2566614610b38578063b3606b5614610b40578063b70c7b7014610b48578063c8390a4814610b65578063c84a912414610c88578063cab44b7614610c90578063ce98dfa814610cee578063cfad57a214610d0d578063cfed246b14610d33578063d6a153f114610d59578063d925351a14610d76578063de0d1b9414610d93578063dfb481c914610db0578063e64559ad14610db8578063e68a22c014610dc0578063eeaa783a14610dc8578063f90ce5ba14610dd0576102f0565b806303b04936146102f557806303cd25711461032f57806303f4d7dc146103495780630604ddea146103ee5780630e9272ea146103f6578063126082cf1461041a57806312d43a511461042257806314dd2dce1461042a578063162ac4e01461044757806317835d1c1461046d5780631a15339114610490578063238aafb7146104be578063287800c9146104e45780632a709b14146104ec5780632e9cd94b146104f457806331cb610514610511578063392e53cd1461053f5780633aa08f861461054757806344c231931461054f5780634bd66c1c146103ee5780634c0e31c81461056c5780634d11fb4a1461068f5780634f64b2be146106ac5780634fdfb086146106c957806354aea127146106ef578063574ec1be146106f757806361ef161f14610732578063668d3d651461073a578063695d4184146107425780636c56fd051461074a5780636ccd47c414610770578063715c753614610778575b600080fd5b61031b6004803603602081101561030b57600080fd5b50356001600160a01b0316610dd8565b604080519115158252519081900360200190f35b610337610ded565b60408051918252519081900360200190f35b6103ec6004803603604081101561035f57600080fd5b810190602081018135600160201b81111561037957600080fd5b82018360208201111561038b57600080fd5b803590602001918460208302840111600160201b831117156103ac57600080fd5b9190808060200260200160405190810160405280939291908181526020018383602002808284376000920191909152509295505091359250610df3915050565b005b610337610f6a565b6103fe610f72565b604080516001600160a01b039092168252519081900360200190f35b610337610f81565b6103fe610f87565b6103ec6004803603602081101561044057600080fd5b5035610f96565b6103ec6004803603602081101561045d57600080fd5b50356001600160a01b0316610fe8565b6103ec6004803603604081101561048357600080fd5b5080359060200135611057565b6103ec600480360360408110156104a657600080fd5b506001600160a01b03813516906020013515156110b3565b6103ec600480360360208110156104d457600080fd5b50356001600160a01b031661112b565b61033761119a565b6103fe6111a0565b6103ec6004803603602081101561050a57600080fd5b50356111af565b6103ec6004803603604081101561052757600080fd5b506001600160a01b0381351690602001351515611201565b61031b611279565b610337611289565b6103ec6004803603602081101561056557600080fd5b503561128f565b6103ec6004803603604081101561058257600080fd5b810190602081018135600160201b81111561059c57600080fd5b8201836020820111156105ae57600080fd5b803590602001918460208302840111600160201b831117156105cf57600080fd5b9190808060200260200160405190810160405280939291908181526020018383602002808284376000920191909152509295949360208101935035915050600160201b81111561061e57600080fd5b82018360208201111561063057600080fd5b803590602001918460208302840111600160201b8311171561065157600080fd5b919080806020026020016040519081016040528093929190818152602001838360200280828437600092019190915250929550611322945050505050565b610337600480360360208110156106a557600080fd5b50356113cd565b6103fe600480360360208110156106c257600080fd5b50356113eb565b61031b600480360360208110156106df57600080fd5b50356001600160a01b0316611412565b610337611427565b6103ec600480360360c081101561070d57600080fd5b5080359060208101359060408101359060608101359060808101359060a0013561142d565b6103fe611639565b610337611648565b61031b61164e565b61031b6004803603602081101561076057600080fd5b50356001600160a01b031661165e565b6103ec6116e9565b6103376117fc565b6107a66004803603602081101561079657600080fd5b50356001600160a01b0316611802565b604080519485526020850193909352838301919091526060830152519081900360800190f35b610337611880565b6103ec600480360360208110156107ea57600080fd5b5035611886565b6103ec6004803603606081101561080757600080fd5b810190602081018135600160201b81111561082157600080fd5b82018360208201111561083357600080fd5b803590602001918460208302840111600160201b8311171561085457600080fd5b9190808060200260200160405190810160405280939291908181526020018383602002808284376000920191909152509295949360208101935035915050600160201b8111156108a357600080fd5b8201836020820111156108b557600080fd5b803590602001918460208302840111600160201b831117156108d657600080fd5b91908080602002602001604051908101604052809392919081815260200183836020028082843760009201919091525092955050913592506118d8915050565b6103ec6004803603602081101561092c57600080fd5b50356001600160a01b03166119a6565b61031b6004803603602081101561095257600080fd5b50356001600160a01b0316611a15565b6103ec6004803603606081101561097857600080fd5b81359190810190604081016020820135600160201b81111561099957600080fd5b8201836020820111156109ab57600080fd5b803590602001918460208302840111600160201b831117156109cc57600080fd5b9190808060200260200160405190810160405280939291908181526020018383602002808284376000920191909152509295949360208101935035915050600160201b811115610a1b57600080fd5b820183602082011115610a2d57600080fd5b803590602001918460208302840111600160201b83111715610a4e57600080fd5b919080806020026020016040519081016040528093929190818152602001838360200280828437600092019190915250929550611a2a945050505050565b61033760048036036060811015610aa257600080fd5b506001600160a01b0381351690602081013590604001351515611b83565b6103ec60048036036020811015610ad657600080fd5b5035611ba0565b6103ec60048036036020811015610af357600080fd5b5035611bf2565b610337611c44565b610337611c54565b61033760048036036020811015610b2057600080fd5b50356001600160a01b0316611c5b565b610337611c6d565b610337611c73565b610337611c79565b6103ec60048036036020811015610b5e57600080fd5b5035611c7f565b6103ec60048036036040811015610b7b57600080fd5b810190602081018135600160201b811115610b9557600080fd5b820183602082011115610ba757600080fd5b803590602001918460208302840111600160201b83111715610bc857600080fd5b9190808060200260200160405190810160405280939291908181526020018383602002808284376000920191909152509295949360208101935035915050600160201b811115610c1757600080fd5b820183602082011115610c2957600080fd5b803590602001918460208302840111600160201b83111715610c4a57600080fd5b919080806020026020016040519081016040528093929190818152602001838360200280828437600092019190915250929550611cd1945050505050565b6103ec611d9b565b610cb660048036036020811015610ca657600080fd5b50356001600160a01b0316611eb2565b604080516001600160a01b03909516855263ffffffff9384166020860152918316848301529091166060830152519081900360800190f35b6103ec60048036036020811015610d0457600080fd5b50351515611ef1565b6103ec60048036036020811015610d2357600080fd5b50356001600160a01b0316611f5c565b61033760048036036020811015610d4957600080fd5b50356001600160a01b0316611fcb565b6103ec60048036036020811015610d6f57600080fd5b5035611fdd565b6103ec60048036036020811015610d8c57600080fd5b503561202f565b6103ec60048036036020811015610da957600080fd5b5035612081565b6103376120d3565b6103376120d9565b6103376120df565b6103fe6120ea565b6103376120f9565b60166020526000908152604090205460ff1681565b60075481565b3360009081526011602052604090205460ff16610e45576040805162461bcd60e51b81526020600482015260186024820152600080516020612b38833981519152604482015290519081900360640190fd5b6000610e50826120ff565b90508015610f64576002546001546001600160a01b03918216911660005b8551811015610f60576000868281518110610e8557fe5b6020026020010151905060005b6008811015610f5657601754600884028201908110610eb75750505050505050610f66565b60178054602084029185831c63ffffffff169160009190600889028701908110610edd57fe5b6000918252602082200154601880546001600160a01b0390921693509060088a028801908110610f0957fe5b60009182526020822001549150610f3682610f308668327cb2734119d3b7a9601e1b61220b565b9061226d565b9050610f4483828c8e6122ac565b505060019094019350610e9292505050565b5050600101610e6e565b5050505b505b5050565b63ffffffff81565b6002546001600160a01b031681565b61271081565b6000546001600160a01b031681565b6000546001600160a01b03163314610fe3576040805162461bcd60e51b81526020600482015260156024820152600080516020612b18833981519152604482015290519081900360640190fd5b600555565b6000546001600160a01b03163314611035576040805162461bcd60e51b81526020600482015260156024820152600080516020612b18833981519152604482015290519081900360640190fd5b600280546001600160a01b0319166001600160a01b0392909216919091179055565b3360009081526011602052604090205460ff166110a9576040805162461bcd60e51b81526020600482015260186024820152600080516020612b38833981519152604482015290519081900360640190fd5b610f668282612541565b6000546001600160a01b03163314611100576040805162461bcd60e51b81526020600482015260156024820152600080516020612b18833981519152604482015290519081900360640190fd5b6001600160a01b03919091166000908152601160205260409020805460ff1916911515919091179055565b6000546001600160a01b03163314611178576040805162461bcd60e51b81526020600482015260156024820152600080516020612b18833981519152604482015290519081900360640190fd5b600180546001600160a01b0319166001600160a01b0392909216919091179055565b600f5481565b6003546001600160a01b031681565b6003546001600160a01b031633146111fc576040805162461bcd60e51b81526020600482015260186024820152600080516020612b38833981519152604482015290519081900360640190fd5b600d55565b6000546001600160a01b0316331461124e576040805162461bcd60e51b81526020600482015260156024820152600080516020612b18833981519152604482015290519081900360640190fd5b6001600160a01b03919091166000908152601560205260409020805460ff1916911515919091179055565b600054600160a01b900460ff1681565b600c5481565b6000546001600160a01b031633146112dc576040805162461bcd60e51b81526020600482015260156024820152600080516020612b18833981519152604482015290519081900360640190fd5b61070881111561131d5760405162461bcd60e51b8152600401808060200182810382526025815260200180612ac96025913960400191505060405180910390fd5b600755565b6003546001600160a01b0316331461136f576040805162461bcd60e51b81526020600482015260186024820152600080516020612b38833981519152604482015290519081900360640190fd5b60005b8251811015610f6457600083828151811061138957fe5b6020026020010151905082828151811061139f57fe5b6020908102919091018101516001600160a01b03909216600090815260149091526040902055600101611372565b601881815481106113da57fe5b600091825260209091200154905081565b601781815481106113f857fe5b6000918252602090912001546001600160a01b0316905081565b60116020526000908152604090205460ff1681565b60055481565b3360009081526011602052604090205460ff1661147f576040805162461bcd60e51b81526020600482015260186024820152600080516020612b38833981519152604482015290519081900360640190fd5b6114898686612541565b60048054604080516304dabc3160e51b815290516001600160a01b03909216926000926115089287928692639b578620928083019260209291829003018186803b1580156114d657600080fd5b505afa1580156114ea573d6000803e3d6000fd5b505050506040513d602081101561150057600080fd5b505190612617565b9050600061154984846001600160a01b0316631bca8cf06040518163ffffffff1660e01b815260040160206040518083038186803b1580156114d657600080fd5b905081871115611557578196505b80861115611563578095505b60408051629a208160e81b81526004810189905233602482015290516001600160a01b03851691639a20810091604480830192600092919082900301818387803b1580156115b057600080fd5b505af11580156115c4573d6000803e3d6000fd5b50506040805163f3883d8b60e01b8152600481018a905233602482015290516001600160a01b038716935063f3883d8b9250604480830192600092919082900301818387803b15801561161657600080fd5b505af115801561162a573d6000803e3d6000fd5b50505050505050505050505050565b6004546001600160a01b031681565b61070881565b600054600160a81b900460ff1681565b60008054600160a81b900460ff1615611679575060006116e4565b600f546010541061168c575060006116e4565b60008061169884611802565b93509350505081811180156116cd57506001600160a01b0384166000908152601460205260409020546116cb828461266f565b115b156116dd576000925050506116e4565b6001925050505b919050565b3360009081526015602052604090205460ff1661173b576040805162461bcd60e51b81526020600482015260186024820152600080516020612b38833981519152604482015290519081900360640190fd5b3360009081526016602052604090205460ff1661179f576040805162461bcd60e51b815260206004820152601e60248201527f466173745072696365466565643a20616c726561647920656e61626c65640000604482015290519081900360640190fd5b336000908152601660205260409020805460ff191690556010546117c490600161266f565b6010556040805133815290517f9fe0c305c33aa92757a537936872a60be0d91549a4303cc99fd8b7fce8a002759181900360200190a1565b600e5481565b6000806000806118106129c1565b505050506001600160a01b039182166000908152601360209081526040918290208251608081018452905494851680825263ffffffff600160a01b87048116938301849052600160c01b87048116948301859052600160e01b909604909516606090910181905293949093919250565b60095481565b6000546001600160a01b031633146118d3576040805162461bcd60e51b81526020600482015260156024820152600080516020612b18833981519152604482015290519081900360640190fd5b600c55565b3360009081526011602052604090205460ff1661192a576040805162461bcd60e51b81526020600482015260186024820152600080516020612b38833981519152604482015290519081900360640190fd5b6000611935826120ff565b905080156119a0576002546001546001600160a01b03918216911660005b865181101561199c57600087828151811061196a57fe5b602002602001015190506119938188848151811061198457fe5b602002602001015185876122ac565b50600101611953565b5050505b50505050565b6003546001600160a01b031633146119f3576040805162461bcd60e51b81526020600482015260186024820152600080516020612b38833981519152604482015290519081900360640190fd5b600380546001600160a01b0319166001600160a01b0392909216919091179055565b60156020526000908152604090205460ff1681565b6000546001600160a01b03163314611a77576040805162461bcd60e51b81526020600482015260156024820152600080516020612b18833981519152604482015290519081900360640190fd5b600054600160a01b900460ff1615611ac05760405162461bcd60e51b8152600401808060200182810382526022815260200180612c2c6022913960400191505060405180910390fd5b6000805460ff60a01b1916600160a01b178155600f8490555b8251811015611b2c576000838281518110611af057fe5b6020908102919091018101516001600160a01b03166000908152601590915260409020805460ff19166001908117909155919091019050611ad9565b5060005b81518110156119a0576000828281518110611b4757fe5b6020908102919091018101516001600160a01b03166000908152601190915260409020805460ff19166001908117909155919091019050611b30565b50506001600160a01b031660009081526012602052604090205490565b6003546001600160a01b03163314611bed576040805162461bcd60e51b81526020600482015260186024820152600080516020612b38833981519152604482015290519081900360640190fd5b600e55565b6000546001600160a01b03163314611c3f576040805162461bcd60e51b81526020600482015260156024820152600080516020612b18833981519152604482015290519081900360640190fd5b600855565b68327cb2734119d3b7a9601e1b81565b6298968081565b60146020526000908152604090205481565b600a5481565b60105481565b600b5481565b6000546001600160a01b03163314611ccc576040805162461bcd60e51b81526020600482015260156024820152600080516020612b18833981519152604482015290519081900360640190fd5b600955565b6000546001600160a01b03163314611d1e576040805162461bcd60e51b81526020600482015260156024820152600080516020612b18833981519152604482015290519081900360640190fd5b8051825114611d74576040805162461bcd60e51b815260206004820152601e60248201527f466173745072696365466565643a20696e76616c6964206c656e677468730000604482015290519081900360640190fd5b8151611d879060179060208501906129e8565b508051610f64906018906020840190612a4d565b3360009081526015602052604090205460ff16611ded576040805162461bcd60e51b81526020600482015260186024820152600080516020612b38833981519152604482015290519081900360640190fd5b3360009081526016602052604090205460ff1615611e51576040805162461bcd60e51b815260206004820152601c60248201527b11985cdd141c9a58d9519959590e88185b1c9958591e481d9bdd195960221b604482015290519081900360640190fd5b336000908152601660205260409020805460ff19166001908117909155601054611e7a91612617565b6010556040805133815290517f4c0c5fabf50e808e3bc8d19577d305e3a7163eea7e8a74a50caa8896694cd44b9181900360200190a1565b6013602052600090815260409020546001600160a01b0381169063ffffffff600160a01b8204811691600160c01b8104821691600160e01b9091041684565b6000546001600160a01b03163314611f3e576040805162461bcd60e51b81526020600482015260156024820152600080516020612b18833981519152604482015290519081900360640190fd5b60008054911515600160a81b0260ff60a81b19909216919091179055565b6000546001600160a01b03163314611fa9576040805162461bcd60e51b81526020600482015260156024820152600080516020612b18833981519152604482015290519081900360640190fd5b600080546001600160a01b0319166001600160a01b0392909216919091179055565b60126020526000908152604090205481565b6000546001600160a01b0316331461202a576040805162461bcd60e51b81526020600482015260156024820152600080516020612b18833981519152604482015290519081900360640190fd5b600b55565b6003546001600160a01b0316331461207c576040805162461bcd60e51b81526020600482015260186024820152600080516020612b38833981519152604482015290519081900360640190fd5b600f55565b6000546001600160a01b031633146120ce576040805162461bcd60e51b81526020600482015260156024820152600080516020612b18833981519152604482015290519081900360640190fd5b600a55565b600d5481565b60085481565b6001600160a01b0381565b6001546001600160a01b031681565b60065481565b600b546000901561215857600b5460065461211b90439061266f565b10156121585760405162461bcd60e51b815260040180806020018281038252602e815260200180612bd5602e913960400191505060405180910390fd5b600c54612165428261266f565b83116121a25760405162461bcd60e51b815260040180806020018281038252602d815260200180612ba8602d913960400191505060405180910390fd5b6121ac4282612617565b83106121e95760405162461bcd60e51b815260040180806020018281038252602f815260200180612b58602f913960400191505060405180910390fd5b6005548310156121fd5760009150506116e4565b505060055543600655600190565b60008261221a57506000612267565b8282028284828161222757fe5b04146122645760405162461bcd60e51b8152600401808060200182810382526021815260200180612b876021913960400191505060405180910390fd5b90505b92915050565b600061226483836040518060400160405280601a815260200179536166654d6174683a206469766973696f6e206279207a65726f60301b8152506126b1565b6001600160a01b0382161561251b576000826001600160a01b03166356bf9de4866040518263ffffffff1660e01b815260040180826001600160a01b0316815260200191505060206040518083038186803b15801561230a57600080fd5b505afa15801561231e573d6000803e3d6000fd5b505050506040513d602081101561233457600080fd5b50516001600160a01b03861660009081526012602052604081205491925080808061235e8a611802565b9350935093509350600084111561242557600084871161238757612382858861266f565b612391565b612391878661266f565b905060008a87116123ab576123a68b8861266f565b6123b5565b6123b5878c61266f565b90506123cc600d544261226d90919063ffffffff16565b600d546123da90879061226d565b146123e85760009350600092505b6124036123fc87610f30856298968061220b565b8590612617565b935061242061241988610f30846298968061220b565b8490612617565b925050505b818111801561245457506001600160a01b038a16600090815260146020526040902054612452828461266f565b115b156124b157604080516001600160a01b038c16815260208101889052808201879052606081018490526080810183905290517fe582322b389ad06b2bbf619cd6da3f16a288ec873ea0fa6df4d72f3d9480b4479181900360a00190a15b6124bd8a878484612753565b604080516001600160a01b038c16815260208101889052808201879052606081018490526080810183905290517f23b9387f81fca646aac1dc4487ede045c65f5f7445482906565f01e05afdb3a89181900360a00190a15050505050505b6001600160a01b03841660009081526012602052604090208390556119a08185856128e9565b600061254c826120ff565b90508015610f64576002546001546001600160a01b03918216911660005b6008811015610f605760175481908110612588575050505050610f66565b60178054602084029189831c63ffffffff169160009190869081106125a957fe5b6000918252602082200154601880546001600160a01b03909216935090879081106125d057fe5b600091825260208220015491506125f782610f308668327cb2734119d3b7a9601e1b61220b565b905061260583828a8c6122ac565b50506001909401935061256a92505050565b600082820183811015612264576040805162461bcd60e51b815260206004820152601b60248201527a536166654d6174683a206164646974696f6e206f766572666c6f7760281b604482015290519081900360640190fd5b600061226483836040518060400160405280601e81526020017f536166654d6174683a207375627472616374696f6e206f766572666c6f770000815250612967565b6000818361273d5760405162461bcd60e51b81526004018080602001828103825283818151815260200191508051906020019080838360005b838110156127025781810151838201526020016126ea565b50505050905090810190601f16801561272f5780820380516001836020036101000a031916815260200191505b509250505060405180910390fd5b50600083858161274957fe5b0495945050505050565b6001600160a01b0383106127ae576040805162461bcd60e51b815260206004820152601f60248201527f466173745072696365466565643a20696e76616c696420726566507269636500604482015290519081900360640190fd5b63ffffffff82106127f05760405162461bcd60e51b8152600401808060200182810382526029815260200180612c036029913960400191505060405180910390fd5b63ffffffff81106128325760405162461bcd60e51b815260040180806020018281038252602a815260200180612aee602a913960400191505060405180910390fd5b604080516080810182526001600160a01b03948516815263ffffffff4281166020808401918252958216838501908152948216606084019081529787166000908152601390965292909420905181549251935196518516600160e01b026001600160e01b03978616600160c01b0263ffffffff60c01b1995909616600160a01b0263ffffffff60a01b19929097166001600160a01b0319909416939093171694909417919091169190911792909216919091179055565b6001600160a01b0383166128fc57610f64565b826001600160a01b031663e0409c7183836040518363ffffffff1660e01b815260040180836001600160a01b0316815260200182815260200192505050600060405180830381600087803b15801561295357600080fd5b505af115801561199c573d6000803e3d6000fd5b600081848411156129b95760405162461bcd60e51b81526020600482018181528351602484015283519092839260449091019190850190808383600083156127025781810151838201526020016126ea565b505050900390565b60408051608081018252600080825260208201819052918101829052606081019190915290565b828054828255906000526020600020908101928215612a3d579160200282015b82811115612a3d57825182546001600160a01b0319166001600160a01b03909116178255602090920191600190910190612a08565b50612a49929150612a94565b5090565b828054828255906000526020600020908101928215612a88579160200282015b82811115612a88578251825591602001919060010190612a6d565b50612a49929150612ab3565b5b80821115612a495780546001600160a01b0319168155600101612a95565b5b80821115612a495760008155600101612ab456fe466173745072696365466565643a20696e76616c6964205f70726963654475726174696f6e466173745072696365466565643a20696e76616c69642063756d756c61746976654661737444656c7461476f7665726e61626c653a20666f7262696464656e0000000000000000000000466173745072696365466565643a20666f7262696464656e0000000000000000466173745072696365466565643a205f74696d657374616d70206578636565647320616c6c6f7765642072616e6765536166654d6174683a206d756c7469706c69636174696f6e206f766572666c6f77466173745072696365466565643a205f74696d657374616d702062656c6f7720616c6c6f7765642072616e6765466173745072696365466565643a206d696e426c6f636b496e74657276616c206e6f742079657420706173736564466173745072696365466565643a20696e76616c69642063756d756c617469766552656644656c7461466173745072696365466565643a20616c726561647920696e697469616c697a6564a26469706673582212208cb19d15fc125c6255fdfabc94a9f51435a5f75d6d96c417412e9c9ca847c5e764736f6c634300060c0033466173745072696365466565643a20696e76616c6964205f70726963654475726174696f6e","linkReferences":{}},"methodIdentifiers":{"BASIS_POINTS_DIVISOR()":"126082cf","BITMASK_32()":"807c9782","CUMULATIVE_DELTA_PRECISION()":"a2b47c16","MAX_CUMULATIVE_FAST_DELTA()":"4bd66c1c","MAX_CUMULATIVE_REF_DELTA()":"0604ddea","MAX_PRICE_DURATION()":"668d3d65","MAX_REF_PRICE()":"e68a22c0","PRICE_PRECISION()":"95082d25","disableFastPrice()":"c84a9124","disableFastPriceVoteCount()":"b0a25666","disableFastPriceVotes(address)":"03b04936","enableFastPrice()":"6ccd47c4","fastPriceEvents()":"0e9272ea","favorFastPrice(address)":"6c56fd05","getPrice(address,uint256,bool)":"7fece368","getPriceData(address)":"72279ba1","gov()":"12d43a51","initialize(uint256,address[],address[])":"7fbc79c6","isInitialized()":"392e53cd","isSigner(address)":"7df73e27","isSpreadEnabled()":"695d4184","isUpdater(address)":"4fdfb086","lastUpdatedAt()":"54aea127","lastUpdatedBlock()":"f90ce5ba","maxCumulativeDeltaDiffs(address)":"a3742425","maxDeviationBasisPoints()":"715c7536","maxPriceUpdateDelay()":"e64559ad","maxTimeDeviation()":"3aa08f86","minAuthorizations()":"287800c9","minBlockInterval()":"b3606b56","positionRouter()":"61ef161f","priceData(address)":"cab44b76","priceDataInterval()":"dfb481c9","priceDuration()":"03cd2571","prices(address)":"cfed246b","setCompactedPrices(uint256[],uint256)":"03f4d7dc","setFastPriceEvents(address)":"162ac4e0","setGov(address)":"cfad57a2","setIsSpreadEnabled(bool)":"ce98dfa8","setLastUpdatedAt(uint256)":"14dd2dce","setMaxCumulativeDeltaDiffs(address[],uint256[])":"4c0e31c8","setMaxDeviationBasisPoints(uint256)":"82553aad","setMaxPriceUpdateDelay(uint256)":"8b7677f4","setMaxTimeDeviation(uint256)":"776d16c1","setMinAuthorizations(uint256)":"d925351a","setMinBlockInterval(uint256)":"d6a153f1","setPriceDataInterval(uint256)":"2e9cd94b","setPriceDuration(uint256)":"44c23193","setPrices(address[],uint256[],uint256)":"782661bc","setPricesWithBits(uint256,uint256)":"17835d1c","setPricesWithBitsAndExecute(uint256,uint256,uint256,uint256,uint256,uint256)":"574ec1be","setSigner(address,bool)":"31cb6105","setSpreadBasisPointsIfChainError(uint256)":"de0d1b94","setSpreadBasisPointsIfInactive(uint256)":"b70c7b70","setTokenManager(address)":"7cb2b79c","setTokens(address[],uint256[])":"c8390a48","setUpdater(address,bool)":"1a153391","setVaultPriceFeed(address)":"238aafb7","spreadBasisPointsIfChainError()":"a6eca896","spreadBasisPointsIfInactive()":"74bfed89","tokenManager()":"2a709b14","tokenPrecisions(uint256)":"4d11fb4a","tokens(uint256)":"4f64b2be","vaultPriceFeed()":"eeaa783a"},"id":88}