{"abi":[{"type":"constructor","inputs":[{"name":"_cooldownDuration","type":"uint256","internalType":"uint256"}],"stateMutability":"nonpayable"},{"type":"function","name":"MAX_COOLDOWN_DURATION","inputs":[],"outputs":[{"name":"","type":"uint256","internalType":"uint256"}],"stateMutability":"view"},{"type":"function","name":"addAdmin","inputs":[{"name":"_account","type":"address","internalType":"address"}],"outputs":[],"stateMutability":"nonpayable"},{"type":"function","name":"addNonStakingAccount","inputs":[{"name":"_account","type":"address","internalType":"address"}],"outputs":[],"stateMutability":"nonpayable"},{"type":"function","name":"admins","inputs":[{"name":"","type":"address","internalType":"address"}],"outputs":[{"name":"","type":"bool","internalType":"bool"}],"stateMutability":"view"},{"type":"function","name":"allowance","inputs":[{"name":"_owner","type":"address","internalType":"address"},{"name":"_spender","type":"address","internalType":"address"}],"outputs":[{"name":"","type":"uint256","internalType":"uint256"}],"stateMutability":"view"},{"type":"function","name":"allowances","inputs":[{"name":"","type":"address","internalType":"address"},{"name":"","type":"address","internalType":"address"}],"outputs":[{"name":"","type":"uint256","internalType":"uint256"}],"stateMutability":"view"},{"type":"function","name":"approve","inputs":[{"name":"_spender","type":"address","internalType":"address"},{"name":"_amount","type":"uint256","internalType":"uint256"}],"outputs":[{"name":"","type":"bool","internalType":"bool"}],"stateMutability":"nonpayable"},{"type":"function","name":"balanceOf","inputs":[{"name":"_account","type":"address","internalType":"address"}],"outputs":[{"name":"","type":"uint256","internalType":"uint256"}],"stateMutability":"view"},{"type":"function","name":"balances","inputs":[{"name":"","type":"address","internalType":"address"}],"outputs":[{"name":"","type":"uint256","internalType":"uint256"}],"stateMutability":"view"},{"type":"function","name":"burn","inputs":[{"name":"_account","type":"address","internalType":"address"},{"name":"_amount","type":"uint256","internalType":"uint256"}],"outputs":[],"stateMutability":"nonpayable"},{"type":"function","name":"claim","inputs":[{"name":"_receiver","type":"address","internalType":"address"}],"outputs":[],"stateMutability":"nonpayable"},{"type":"function","name":"cleanupExpiredCooldowns","inputs":[{"name":"_account","type":"address","internalType":"address"}],"outputs":[],"stateMutability":"nonpayable"},{"type":"function","name":"cooldownDuration","inputs":[],"outputs":[{"name":"","type":"uint256","internalType":"uint256"}],"stateMutability":"view"},{"type":"function","name":"decimals","inputs":[],"outputs":[{"name":"","type":"uint8","internalType":"uint8"}],"stateMutability":"view"},{"type":"function","name":"getAvailableBalance","inputs":[{"name":"_account","type":"address","internalType":"address"}],"outputs":[{"name":"","type":"uint256","internalType":"uint256"}],"stateMutability":"view"},{"type":"function","name":"getCooldownInfo","inputs":[{"name":"_account","type":"address","internalType":"address"}],"outputs":[{"name":"","type":"tuple[]","internalType":"struct IZLP.CooldownInfo[]","components":[{"name":"amount","type":"uint256","internalType":"uint256"},{"name":"releaseTime","type":"uint256","internalType":"uint256"}]}],"stateMutability":"view"},{"type":"function","name":"getLockedAmount","inputs":[{"name":"_account","type":"address","internalType":"address"}],"outputs":[{"name":"","type":"uint256","internalType":"uint256"}],"stateMutability":"view"},{"type":"function","name":"gov","inputs":[],"outputs":[{"name":"","type":"address","internalType":"address"}],"stateMutability":"view"},{"type":"function","name":"id","inputs":[],"outputs":[{"name":"_name","type":"string","internalType":"string"}],"stateMutability":"pure"},{"type":"function","name":"inPrivateTransferMode","inputs":[],"outputs":[{"name":"","type":"bool","internalType":"bool"}],"stateMutability":"view"},{"type":"function","name":"isHandler","inputs":[{"name":"","type":"address","internalType":"address"}],"outputs":[{"name":"","type":"bool","internalType":"bool"}],"stateMutability":"view"},{"type":"function","name":"isMinter","inputs":[{"name":"","type":"address","internalType":"address"}],"outputs":[{"name":"","type":"bool","internalType":"bool"}],"stateMutability":"view"},{"type":"function","name":"lastAddTime","inputs":[{"name":"","type":"address","internalType":"address"}],"outputs":[{"name":"","type":"uint256","internalType":"uint256"}],"stateMutability":"view"},{"type":"function","name":"lastAddedAt","inputs":[{"name":"_account","type":"address","internalType":"address"}],"outputs":[{"name":"","type":"uint256","internalType":"uint256"}],"stateMutability":"view"},{"type":"function","name":"mint","inputs":[{"name":"_account","type":"address","internalType":"address"},{"name":"_amount","type":"uint256","internalType":"uint256"}],"outputs":[],"stateMutability":"nonpayable"},{"type":"function","name":"name","inputs":[],"outputs":[{"name":"","type":"string","internalType":"string"}],"stateMutability":"view"},{"type":"function","name":"nonStakingAccounts","inputs":[{"name":"","type":"address","internalType":"address"}],"outputs":[{"name":"","type":"bool","internalType":"bool"}],"stateMutability":"view"},{"type":"function","name":"nonStakingSupply","inputs":[],"outputs":[{"name":"","type":"uint256","internalType":"uint256"}],"stateMutability":"view"},{"type":"function","name":"recoverClaim","inputs":[{"name":"_account","type":"address","internalType":"address"},{"name":"_receiver","type":"address","internalType":"address"}],"outputs":[],"stateMutability":"nonpayable"},{"type":"function","name":"removeAdmin","inputs":[{"name":"_account","type":"address","internalType":"address"}],"outputs":[],"stateMutability":"nonpayable"},{"type":"function","name":"removeNonStakingAccount","inputs":[{"name":"_account","type":"address","internalType":"address"}],"outputs":[],"stateMutability":"nonpayable"},{"type":"function","name":"setCooldownDuration","inputs":[{"name":"_cooldownDuration","type":"uint256","internalType":"uint256"}],"outputs":[],"stateMutability":"nonpayable"},{"type":"function","name":"setGov","inputs":[{"name":"_gov","type":"address","internalType":"address"}],"outputs":[],"stateMutability":"nonpayable"},{"type":"function","name":"setHandler","inputs":[{"name":"_handler","type":"address","internalType":"address"},{"name":"_isActive","type":"bool","internalType":"bool"}],"outputs":[],"stateMutability":"nonpayable"},{"type":"function","name":"setInPrivateTransferMode","inputs":[{"name":"_inPrivateTransferMode","type":"bool","internalType":"bool"}],"outputs":[],"stateMutability":"nonpayable"},{"type":"function","name":"setInfo","inputs":[{"name":"_name","type":"string","internalType":"string"},{"name":"_symbol","type":"string","internalType":"string"}],"outputs":[],"stateMutability":"nonpayable"},{"type":"function","name":"setMinter","inputs":[{"name":"_minter","type":"address","internalType":"address"},{"name":"_isActive","type":"bool","internalType":"bool"}],"outputs":[],"stateMutability":"nonpayable"},{"type":"function","name":"setYieldTrackers","inputs":[{"name":"_yieldTrackers","type":"address[]","internalType":"address[]"}],"outputs":[],"stateMutability":"nonpayable"},{"type":"function","name":"stakedBalance","inputs":[{"name":"_account","type":"address","internalType":"address"}],"outputs":[{"name":"","type":"uint256","internalType":"uint256"}],"stateMutability":"view"},{"type":"function","name":"symbol","inputs":[],"outputs":[{"name":"","type":"string","internalType":"string"}],"stateMutability":"view"},{"type":"function","name":"totalStaked","inputs":[],"outputs":[{"name":"","type":"uint256","internalType":"uint256"}],"stateMutability":"view"},{"type":"function","name":"totalSupply","inputs":[],"outputs":[{"name":"","type":"uint256","internalType":"uint256"}],"stateMutability":"view"},{"type":"function","name":"transfer","inputs":[{"name":"_recipient","type":"address","internalType":"address"},{"name":"_amount","type":"uint256","internalType":"uint256"}],"outputs":[{"name":"","type":"bool","internalType":"bool"}],"stateMutability":"nonpayable"},{"type":"function","name":"transferFrom","inputs":[{"name":"_sender","type":"address","internalType":"address"},{"name":"_recipient","type":"address","internalType":"address"},{"name":"_amount","type":"uint256","internalType":"uint256"}],"outputs":[{"name":"","type":"bool","internalType":"bool"}],"stateMutability":"nonpayable"},{"type":"function","name":"userCooldowns","inputs":[{"name":"","type":"address","internalType":"address"},{"name":"","type":"uint256","internalType":"uint256"}],"outputs":[{"name":"amount","type":"uint256","internalType":"uint256"},{"name":"releaseTime","type":"uint256","internalType":"uint256"}],"stateMutability":"view"},{"type":"function","name":"withdrawToken","inputs":[{"name":"_token","type":"address","internalType":"address"},{"name":"_account","type":"address","internalType":"address"},{"name":"_amount","type":"uint256","internalType":"uint256"}],"outputs":[],"stateMutability":"nonpayable"},{"type":"function","name":"yieldTrackers","inputs":[{"name":"","type":"uint256","internalType":"uint256"}],"outputs":[{"name":"","type":"address","internalType":"address"}],"stateMutability":"view"},{"type":"event","name":"Approval","inputs":[{"name":"owner","type":"address","indexed":true,"internalType":"address"},{"name":"spender","type":"address","indexed":true,"internalType":"address"},{"name":"value","type":"uint256","indexed":false,"internalType":"uint256"}],"anonymous":false},{"type":"event","name":"CooldownSet","inputs":[{"name":"cooldownDuration","type":"uint256","indexed":false,"internalType":"uint256"}],"anonymous":false},{"type":"event","name":"TokensFrozen","inputs":[{"name":"account","type":"address","indexed":true,"internalType":"address"},{"name":"amount","type":"uint256","indexed":false,"internalType":"uint256"},{"name":"releaseTime","type":"uint256","indexed":false,"internalType":"uint256"}],"anonymous":false},{"type":"event","name":"TokensUnfrozen","inputs":[{"name":"account","type":"address","indexed":true,"internalType":"address"},{"name":"amount","type":"uint256","indexed":false,"internalType":"uint256"}],"anonymous":false},{"type":"event","name":"Transfer","inputs":[{"name":"from","type":"address","indexed":true,"internalType":"address"},{"name":"to","type":"address","indexed":true,"internalType":"address"},{"name":"value","type":"uint256","indexed":false,"internalType":"uint256"}],"anonymous":false}],"bytecode":{"object":"0x60806040523480156200001157600080fd5b5060405162002c2838038062002c28833981016040819052620000349162000373565b6040518060400160405280600781526020016605a554553204c560cc1b8152506040518060400160405280600381526020016205a4c560ec1b815250600082828282600090805190602001906200008d929190620002d7565b508151620000a3906001906020850190620002d7565b50600480546001600160a01b03191633908117909155620000c59082620000d8565b505050600d939093555062000423915050565b6001600160a01b0382166200010a5760405162461bcd60e51b81526004016200010190620003a0565b60405180910390fd5b620001158262000206565b6200013181600254620002a860201b620012601790919060201c565b6002556001600160a01b0382166000908152600560209081526040909120546200016691839062001260620002a8821b17901c565b6001600160a01b03831660009081526005602090815260408083209390935560089052205460ff1615620001b457620001b081600354620002a860201b620012601790919060201c565b6003555b816001600160a01b031660006001600160a01b03167fddf252ad1be2c89b69c2b068fc378daa952ba7f163c4a11628f55a4df523b3ef83604051620001fa91906200041a565b60405180910390a35050565b60005b600754811015620002a4576000600782815481106200022457fe5b600091825260209091200154604051635fd6196560e01b81526001600160a01b0390911691508190635fd6196590620002629086906004016200038c565b600060405180830381600087803b1580156200027d57600080fd5b505af115801562000292573d6000803e3d6000fd5b50506001909301925062000209915050565b5050565b600082820183811015620002d05760405162461bcd60e51b81526004016200010190620003e3565b9392505050565b828054600181600116156101000203166002900490600052602060002090601f016020900481019282601f106200031a57805160ff19168380011785556200034a565b828001600101855582156200034a579182015b828111156200034a5782518255916020019190600101906200032d565b50620003589291506200035c565b5090565b5b808211156200035857600081556001016200035d565b60006020828403121562000385578081fd5b5051919050565b6001600160a01b0391909116815260200190565b60208082526023908201527f42617365546f6b656e3a206d696e7420746f20746865207a65726f206164647260408201526265737360e81b606082015260800190565b6020808252601b908201527f536166654d6174683a206164646974696f6e206f766572666c6f770000000000604082015260600190565b90815260200190565b6127f580620004336000396000f3fe608060405234801561001057600080fd5b50600436106102355760003560e01c80636c24a76f116101375780636c24a76f146103f9578063704802751461040c57806370a082311461041f578063817b1cd2146104325780638b770e111461043a5780638cefa92d1461044d578063929ec5371461046d5780639554381a1461048057806395d89b4114610493578063966be0751461049b578063996f11ee146104ae5780639cb7de4b146104c15780639dc29fac146104d4578063a9059cbb146104e7578063a923fc40146104fa578063aa271e1a1461050d578063af640d0f14610520578063c93be63614610528578063cf456ae714610530578063cfad57a214610543578063dd62ed3e14610556578063dfbaefb114610569578063e8020aa614610571578063fb30d9161461059257610235565b806301e336671461023a57806306fdde031461024f578063095ea7b31461026d57806312d43a511461028d5780631785f53c146102a257806318160ddd146102b5578063191086d7146102ca5780631e83409a146102dd5780631e9049cf146102f057806323b872dd146102f8578063276eab4e1461030b57806327e235e31461031e578063313ce56714610331578063352693151461034657806340c10f191461034e5780634119372714610361578063429b62e51461037457806346ea87af1461038757806352cd38d91461039a57806355b6ed5c146103ad5780635a47a1a7146103c057806360217267146103d357806362289077146103e6575b600080fd5b61024d610248366004611f36565b6105a5565b005b6102576105f1565b60405161026491906121f8565b60405180910390f35b61028061027b366004611fad565b61067f565b60405161026491906121ed565b610295610696565b6040516102649190612157565b61024d6102b0366004611ee7565b6106a5565b6102bd6106f0565b604051610264919061266a565b6102bd6102d8366004611ee7565b6106f6565b61024d6102eb366004611ee7565b610708565b6102bd6107c2565b610280610306366004611f36565b6107c9565b61024d610319366004611fd7565b610863565b6102bd61032c366004611ee7565b6108a0565b6103396108b2565b6040516102649190612681565b6102bd6108b7565b61024d61035c366004611fad565b6108bd565b61024d61036f366004611ee7565b6109ae565b610280610382366004611ee7565b6109ba565b610280610395366004611ee7565b6109cf565b6102956103a836600461210b565b6109e4565b6102bd6103bb366004611f02565b610a0b565b61024d6103ce366004612073565b610a28565b6102bd6103e1366004611ee7565b610a65565b61024d6103f4366004611ee7565b610aae565b6102bd610407366004611ee7565b610b5f565b61024d61041a366004611ee7565b610ba5565b6102bd61042d366004611ee7565b610bf3565b6102bd610c0e565b6102bd610448366004611ee7565b610c2c565b61046061045b366004611ee7565b610c47565b604051610264919061219e565b6102bd61047b366004611ee7565b610cd0565b61028061048e366004611ee7565b610d7e565b610257610d93565b61024d6104a936600461210b565b610ded565b61024d6104bc366004611f02565b610e7a565b61024d6104cf366004611f76565b610f5f565b61024d6104e2366004611fad565b610fb4565b6102806104f5366004611fad565b611015565b61024d6105083660046120ab565b611022565b61028061051b366004611ee7565b611073565b610257611088565b6102bd6110a5565b61024d61053e366004611f76565b6110ab565b61024d610551366004611ee7565b611100565b6102bd610564366004611f02565b61114c565b610280611177565b61058461057f366004611fad565b611180565b604051610264929190612673565b61024d6105a0366004611ee7565b6111b9565b6004546001600160a01b031633146105d85760405162461bcd60e51b81526004016105cf906123f3565b60405180910390fd5b6105ec6001600160a01b0384168383611285565b505050565b6000805460408051602060026001851615610100026000190190941693909304601f810184900484028201840190925281815292918301828280156106775780601f1061064c57610100808354040283529160200191610677565b820191906000526020600020905b81548152906001019060200180831161065a57829003601f168201915b505050505081565b600061068c3384846112db565b5060015b92915050565b6004546001600160a01b031681565b6004546001600160a01b031633146106cf5760405162461bcd60e51b81526004016105cf906123f3565b6001600160a01b03166000908152600960205260409020805460ff19169055565b60025481565b600f6020526000908152604090205481565b60005b6007548110156107be5760006007828154811061072457fe5b6000918252602090912001546040516310e059a160e11b81526001600160a01b03909116915081906321c0b34290610762903390879060040161216b565b602060405180830381600087803b15801561077c57600080fd5b505af1158015610790573d6000803e3d6000fd5b505050506040513d601f19601f820116820180604052508101906107b49190612123565b505060010161070b565b5050565b6202a30081565b336000908152600b602052604081205460ff16156107f4576107ec84848461138f565b50600161085c565b600061083e836040518060600160405280602c8152602001612724602c91396001600160a01b038816600090815260066020908152604080832033845290915290205491906113cd565b905061084b8533836112db565b61085685858561138f565b60019150505b9392505050565b6004546001600160a01b0316331461088d5760405162461bcd60e51b81526004016105cf906123f3565b80516107be906007906020840190611d55565b60056020526000908152604090205481565b601281565b600d5481565b336000908152600c602052604090205460ff166108ec5760405162461bcd60e51b81526004016105cf906124ac565b6108f682826113f9565b80156107be576000610913600d544261126090919063ffffffff16565b6001600160a01b0384166000818152600e60209081526040808320815180830183528881528084018781528254600181810185559387528587209251600290910290920191825551910155838352600f9091529081902042905551919250907fb54471ef4300c80735460d3ac0c87ad0ea1a75449c6250c1291a4018779390e6906109a19085908590612673565b60405180910390a2505050565b6109b7816114d7565b50565b60096020526000908152604090205460ff1681565b600b6020526000908152604090205460ff1681565b600781815481106109f157fe5b6000918252602090912001546001600160a01b0316905081565b600660209081526000928352604080842090915290825290205481565b6004546001600160a01b03163314610a525760405162461bcd60e51b81526004016105cf906123f3565b600a805460ff1916911515919091179055565b6001600160a01b03811660009081526008602052604081205460ff1615610a8e57506000610aa9565b506001600160a01b0381166000908152600560205260409020545b919050565b3360009081526009602052604090205460ff16610add5760405162461bcd60e51b81526004016105cf906123f3565b6001600160a01b03811660009081526008602052604090205460ff1615610b165760405162461bcd60e51b81526004016105cf906124e2565b610b1f81611633565b6001600160a01b0381166000908152600860209081526040808320805460ff191660011790556005909152902054600354610b5991611260565b60035550565b6001600160a01b03811660009081526005602052604081205481610b8284610cd0565b905080821015610b93576000610b9d565b610b9d82826116ca565b949350505050565b6004546001600160a01b03163314610bcf5760405162461bcd60e51b81526004016105cf906123f3565b6001600160a01b03166000908152600960205260409020805460ff19166001179055565b6001600160a01b031660009081526005602052604090205490565b6000610c276003546002546116ca90919063ffffffff16565b905090565b6001600160a01b03166000908152600f602052604090205490565b6001600160a01b0381166000908152600e60209081526040808320805482518185028101850190935280835260609492939192909184015b82821015610cc557838290600052602060002090600202016040518060400160405290816000820154815260200160018201548152505081526020019060010190610c7f565b505050509050919050565b6001600160a01b0381166000908152600e602052604081208190815b8154811015610d755742828281548110610d0257fe5b906000526020600020906002020160010154118015610d3e57506000828281548110610d2a57fe5b906000526020600020906002020160000154115b15610d6d57610d6a828281548110610d5257fe5b60009182526020909120600290910201548490611260565b92505b600101610cec565b50909392505050565b60086020526000908152604090205460ff1681565b60018054604080516020600284861615610100026000190190941693909304601f810184900484028201840190925281815292918301828280156106775780601f1061064c57610100808354040283529160200191610677565b6004546001600160a01b03163314610e175760405162461bcd60e51b81526004016105cf906123f3565b6202a300811115610e3a5760405162461bcd60e51b81526004016105cf906122b7565b600d8190556040517ff4f81c8df394c367119ef9185e49924fbc14f33668d8c0fe5a767cc822858ae290610e6f90839061266a565b60405180910390a150565b3360009081526009602052604090205460ff16610ea95760405162461bcd60e51b81526004016105cf906123f3565b60005b6007548110156105ec57600060078281548110610ec557fe5b6000918252602090912001546040516310e059a160e11b81526001600160a01b03909116915081906321c0b34290610f03908790879060040161216b565b602060405180830381600087803b158015610f1d57600080fd5b505af1158015610f31573d6000803e3d6000fd5b505050506040513d601f19601f82011682018060405250810190610f559190612123565b5050600101610eac565b6004546001600160a01b03163314610f895760405162461bcd60e51b81526004016105cf906123f3565b6001600160a01b03919091166000908152600b60205260409020805460ff1916911515919091179055565b336000908152600c602052604090205460ff16610fe35760405162461bcd60e51b81526004016105cf906124ac565b80610fed83610b5f565b101561100b5760405162461bcd60e51b81526004016105cf90612421565b6107be828261170c565b600061068c33848461138f565b6004546001600160a01b0316331461104c5760405162461bcd60e51b81526004016105cf906123f3565b815161105f906000906020850190611dba565b5080516105ec906001906020840190611dba565b600c6020526000908152604090205460ff1681565b60408051808201909152600381526205a4c560ec1b602082015290565b60035481565b6004546001600160a01b031633146110d55760405162461bcd60e51b81526004016105cf906123f3565b6001600160a01b03919091166000908152600c60205260409020805460ff1916911515919091179055565b6004546001600160a01b0316331461112a5760405162461bcd60e51b81526004016105cf906123f3565b600480546001600160a01b0319166001600160a01b0392909216919091179055565b6001600160a01b03918216600090815260066020908152604080832093909416825291909152205490565b600a5460ff1681565b600e602052816000526040600020818154811061119957fe5b600091825260209091206002909102018054600190910154909250905082565b3360009081526009602052604090205460ff166111e85760405162461bcd60e51b81526004016105cf906123f3565b6001600160a01b03811660009081526008602052604090205460ff166112205760405162461bcd60e51b81526004016105cf9061255b565b61122981611633565b6001600160a01b0381166000908152600860209081526040808320805460ff191690556005909152902054600354610b59916116ca565b60008282018381101561085c5760405162461bcd60e51b81526004016105cf906123be565b6105ec8363a9059cbb60e01b84846040516024016112a4929190612185565b60408051601f198184030181529190526020810180516001600160e01b03166001600160e01b031990931692909217909152611805565b6001600160a01b0383166113015760405162461bcd60e51b81526004016105cf90612464565b6001600160a01b0382166113275760405162461bcd60e51b81526004016105cf90612378565b6001600160a01b0380841660008181526006602090815260408083209487168084529490915290819020849055517f8c5be1e5ebec7d5bd14f71427d1e84f3dd0314c0f7b2291e5b200ac8c7c3b9259061138290859061266a565b60405180910390a3505050565b8061139984610b5f565b10156113b75760405162461bcd60e51b81526004016105cf906122e7565b6113c2838383611894565b6105ec838383611a40565b600081848411156113f15760405162461bcd60e51b81526004016105cf91906121f8565b505050900390565b6001600160a01b03821661141f5760405162461bcd60e51b81526004016105cf90612335565b61142882611633565b6002546114359082611260565b6002556001600160a01b03821660009081526005602052604090205461145b9082611260565b6001600160a01b03831660009081526005602090815260408083209390935560089052205460ff1615611499576003546114959082611260565b6003555b816001600160a01b031660006001600160a01b031660008051602061277a833981519152836040516114cb919061266a565b60405180910390a35050565b6001600160a01b0381166000908152600e6020526040812090805b82548110156115e557600083828154811061150957fe5b906000526020600020906002020190506000428260010154111590508080156115325750815415155b15611547578154611544908590611260565b93505b808061155257508154155b156115d7578454600019018381146115a95785818154811061157057fe5b906000526020600020906002020186858154811061158a57fe5b6000918252602090912082546002909202019081556001918201549101555b858054806115b357fe5b600082815260208120600260001990930192830201818155600101559055506115de565b6001909201915b50506114f2565b811561162d57836001600160a01b03167f9bed35cb62ad0dba04f9d5bfee4b5bc91443e77da8a65c4c84834c51bb08b0d683604051611624919061266a565b60405180910390a25b50505050565b60005b6007548110156107be5760006007828154811061164f57fe5b600091825260209091200154604051635fd6196560e01b81526001600160a01b0390911691508190635fd619659061168b908690600401612157565b600060405180830381600087803b1580156116a557600080fd5b505af11580156116b9573d6000803e3d6000fd5b505060019093019250611636915050565b600061085c83836040518060400160405280601e81526020017f536166654d6174683a207375627472616374696f6e206f766572666c6f7700008152506113cd565b6001600160a01b0382166117325760405162461bcd60e51b81526004016105cf906125dc565b61173b82611633565b6117788160405180606001604052806026815260200161279a602691396001600160a01b03851660009081526005602052604090205491906113cd565b6001600160a01b03831660009081526005602052604090205560025461179e90826116ca565b6002556001600160a01b03821660009081526008602052604090205460ff16156117d3576003546117cf90826116ca565b6003555b60006001600160a01b0316826001600160a01b031660008051602061277a833981519152836040516114cb919061266a565b606061185a826040518060400160405280602081526020017f5361666545524332303a206c6f772d6c6576656c2063616c6c206661696c6564815250856001600160a01b0316611c6c9092919063ffffffff16565b8051909150156105ec5780806020019051810190611878919061208f565b6105ec5760405162461bcd60e51b81526004016105cf90612592565b6001600160a01b0383166118ba5760405162461bcd60e51b81526004016105cf90612621565b6001600160a01b0382166118e05760405162461bcd60e51b81526004016105cf90612270565b600a5460ff161561191a57336000908152600b602052604090205460ff1661191a5760405162461bcd60e51b81526004016105cf9061222b565b61192383611633565b61192c82611633565b611969816040518060600160405280602a8152602001612750602a91396001600160a01b03861660009081526005602052604090205491906113cd565b6001600160a01b0380851660009081526005602052604080822093909355908416815220546119989082611260565b6001600160a01b0380841660009081526005602090815260408083209490945591861681526008909152205460ff16156119dd576003546119d990826116ca565b6003555b6001600160a01b03821660009081526008602052604090205460ff1615611a0f57600354611a0b9082611260565b6003555b816001600160a01b0316836001600160a01b031660008051602061277a83398151915283604051611382919061266a565b80611a4a576105ec565b611a53836114d7565b6001600160a01b0383166000908152600e602052604081209082905b825481108015611a7f5750600082115b15611c37576000838281548110611a9257fe5b9060005260206000209060020201600001541115611c2f576000838281548110611ab857fe5b9060005260206000209060020201600001548311611ad65782611af5565b838281548110611ae257fe5b9060005260206000209060020201600001545b90508015611c2d57600e6000876001600160a01b03166001600160a01b031681526020019081526020016000206040518060400160405280838152602001868581548110611b3f57fe5b6000918252602080832060029283020160019081015490945285548085018755958352918290208451959091020193845591909101519101558354611ba3908290869085908110611b8c57fe5b6000918252602090912060029091020154906116ca565b848381548110611baf57fe5b6000918252602090912060029091020155611bca83826116ca565b9250856001600160a01b03167fb54471ef4300c80735460d3ac0c87ad0ea1a75449c6250c1291a4018779390e682868581548110611c0457fe5b906000526020600020906002020160010154604051611c24929190612673565b60405180910390a25b505b600101611a6f565b506000611c4385610cd0565b1115611c65576001600160a01b0384166000908152600f602052604090204290555b5050505050565b6060610b9d848460008585611c8085611d16565b611c9c5760405162461bcd60e51b81526004016105cf90612524565b60006060866001600160a01b03168587604051611cb9919061213b565b60006040518083038185875af1925050503d8060008114611cf6576040519150601f19603f3d011682016040523d82523d6000602084013e611cfb565b606091505b5091509150611d0b828286611d1c565b979650505050505050565b3b151590565b60608315611d2b57508161085c565b825115611d3b5782518084602001fd5b8160405162461bcd60e51b81526004016105cf91906121f8565b828054828255906000526020600020908101928215611daa579160200282015b82811115611daa57825182546001600160a01b0319166001600160a01b03909116178255602090920191600190910190611d75565b50611db6929150611e34565b5090565b828054600181600116156101000203166002900490600052602060002090601f016020900481019282601f10611dfb57805160ff1916838001178555611e28565b82800160010185558215611e28579182015b82811115611e28578251825591602001919060010190611e0d565b50611db6929150611e53565b5b80821115611db65780546001600160a01b0319168155600101611e35565b5b80821115611db65760008155600101611e54565b80356001600160a01b038116811461069057600080fd5b600082601f830112611e8f578081fd5b81356001600160401b03811115611ea4578182fd5b611eb7601f8201601f191660200161268f565b9150808252836020828501011115611ece57600080fd5b8060208401602084013760009082016020015292915050565b600060208284031215611ef8578081fd5b61085c8383611e68565b60008060408385031215611f14578081fd5b611f1e8484611e68565b9150611f2d8460208501611e68565b90509250929050565b600080600060608486031215611f4a578081fd5b8335611f5581612700565b92506020840135611f6581612700565b929592945050506040919091013590565b60008060408385031215611f88578182fd5b611f928484611e68565b91506020830135611fa281612715565b809150509250929050565b60008060408385031215611fbf578182fd5b611fc98484611e68565b946020939093013593505050565b60006020808385031215611fe9578182fd5b82356001600160401b03811115611ffe578283fd5b8301601f8101851361200e578283fd5b803561202161201c826126b5565b61268f565b818152838101908385018584028501860189101561203d578687fd5b8694505b83851015612067576120538982611e68565b835260019490940193918501918501612041565b50979650505050505050565b600060208284031215612084578081fd5b813561085c81612715565b6000602082840312156120a0578081fd5b815161085c81612715565b600080604083850312156120bd578182fd5b82356001600160401b03808211156120d3578384fd5b6120df86838701611e7f565b935060208501359150808211156120f4578283fd5b5061210185828601611e7f565b9150509250929050565b60006020828403121561211c578081fd5b5035919050565b600060208284031215612134578081fd5b5051919050565b6000825161214d8184602087016126d4565b9190910192915050565b6001600160a01b0391909116815260200190565b6001600160a01b0392831681529116602082015260400190565b6001600160a01b03929092168252602082015260400190565b602080825282518282018190526000919060409081850190868401855b828110156121e0578151805185528601518685015292840192908501906001016121bb565b5091979650505050505050565b901515815260200190565b60006020825282518060208401526122178160408501602087016126d4565b601f01601f19169190910160400192915050565b60208082526025908201527f42617365546f6b656e3a206d73672e73656e646572206e6f742077686974656c6040820152641a5cdd195960da1b606082015260800190565b60208082526027908201527f42617365546f6b656e3a207472616e7366657220746f20746865207a65726f206040820152666164647265737360c81b606082015260800190565b6020808252601690820152755a4c503a20636f6f6c646f776e20746f6f206c6f6e6760501b604082015260600190565b6020808252602e908201527f5a4c503a207472616e7366657220616d6f756e7420657863656564732061766160408201526d696c61626c652062616c616e636560901b606082015260800190565b60208082526023908201527f42617365546f6b656e3a206d696e7420746f20746865207a65726f206164647260408201526265737360e81b606082015260800190565b60208082526026908201527f42617365546f6b656e3a20617070726f766520746f20746865207a65726f206160408201526564647265737360d01b606082015260800190565b6020808252601b908201527a536166654d6174683a206164646974696f6e206f766572666c6f7760281b604082015260600190565b6020808252601490820152732130b9b2aa37b5b2b71d103337b93134b23232b760611b604082015260600190565b60208082526023908201527f5a4c503a20696e73756666696369656e7420617661696c61626c652062616c616040820152626e636560e81b606082015260800190565b60208082526028908201527f42617365546f6b656e3a20617070726f76652066726f6d20746865207a65726f604082015267206164647265737360c01b606082015260800190565b6020808252601c908201527b26b4b73a30b13632a130b9b2aa37b5b2b71d103337b93134b23232b760211b604082015260600190565b60208082526022908201527f42617365546f6b656e3a205f6163636f756e7420616c7265616479206d61726b604082015261195960f21b606082015260800190565b6020808252601d908201527f416464726573733a2063616c6c20746f206e6f6e2d636f6e7472616374000000604082015260600190565b6020808252601e908201527f42617365546f6b656e3a205f6163636f756e74206e6f74206d61726b65640000604082015260600190565b6020808252602a908201527f5361666545524332303a204552433230206f7065726174696f6e20646964206e6040820152691bdd081cdd58d8d9595960b21b606082015260800190565b60208082526025908201527f42617365546f6b656e3a206275726e2066726f6d20746865207a65726f206164604082015264647265737360d81b606082015260800190565b60208082526029908201527f42617365546f6b656e3a207472616e736665722066726f6d20746865207a65726040820152686f206164647265737360b81b606082015260800190565b90815260200190565b918252602082015260400190565b60ff91909116815260200190565b6040518181016001600160401b03811182821017156126ad57600080fd5b604052919050565b60006001600160401b038211156126ca578081fd5b5060209081020190565b60005b838110156126ef5781810151838201526020016126d7565b8381111561162d5750506000910152565b6001600160a01b03811681146109b757600080fd5b80151581146109b757600080fdfe42617365546f6b656e3a207472616e7366657220616d6f756e74206578636565647320616c6c6f77616e636542617365546f6b656e3a207472616e7366657220616d6f756e7420657863656564732062616c616e6365ddf252ad1be2c89b69c2b068fc378daa952ba7f163c4a11628f55a4df523b3ef42617365546f6b656e3a206275726e20616d6f756e7420657863656564732062616c616e6365a2646970667358221220c6458c8d99373036d6dae71a5a4d43ab4d266b9e0baf2265305c0e256656061364736f6c634300060c0033","linkReferences":{}},"methodIdentifiers":{"MAX_COOLDOWN_DURATION()":"1e9049cf","addAdmin(address)":"70480275","addNonStakingAccount(address)":"62289077","admins(address)":"429b62e5","allowance(address,address)":"dd62ed3e","allowances(address,address)":"55b6ed5c","approve(address,uint256)":"095ea7b3","balanceOf(address)":"70a08231","balances(address)":"27e235e3","burn(address,uint256)":"9dc29fac","claim(address)":"1e83409a","cleanupExpiredCooldowns(address)":"41193727","cooldownDuration()":"35269315","decimals()":"313ce567","getAvailableBalance(address)":"6c24a76f","getCooldownInfo(address)":"8cefa92d","getLockedAmount(address)":"929ec537","gov()":"12d43a51","id()":"af640d0f","inPrivateTransferMode()":"dfbaefb1","isHandler(address)":"46ea87af","isMinter(address)":"aa271e1a","lastAddTime(address)":"191086d7","lastAddedAt(address)":"8b770e11","mint(address,uint256)":"40c10f19","name()":"06fdde03","nonStakingAccounts(address)":"9554381a","nonStakingSupply()":"c93be636","recoverClaim(address,address)":"996f11ee","removeAdmin(address)":"1785f53c","removeNonStakingAccount(address)":"fb30d916","setCooldownDuration(uint256)":"966be075","setGov(address)":"cfad57a2","setHandler(address,bool)":"9cb7de4b","setInPrivateTransferMode(bool)":"5a47a1a7","setInfo(string,string)":"a923fc40","setMinter(address,bool)":"cf456ae7","setYieldTrackers(address[])":"276eab4e","stakedBalance(address)":"60217267","symbol()":"95d89b41","totalStaked()":"817b1cd2","totalSupply()":"18160ddd","transfer(address,uint256)":"a9059cbb","transferFrom(address,address,uint256)":"23b872dd","userCooldowns(address,uint256)":"e8020aa6","withdrawToken(address,address,uint256)":"01e33667","yieldTrackers(uint256)":"52cd38d9"},"id":115}