{"abi":[{"type":"constructor","inputs":[{"name":"_zus","type":"address","internalType":"address"},{"name":"_reserveToken","type":"address","internalType":"address"},{"name":"_backedSupply","type":"uint256","internalType":"uint256"},{"name":"_baseMintPrice","type":"uint256","internalType":"uint256"},{"name":"_mintMultiplier","type":"uint256","internalType":"uint256"},{"name":"_multiplierPrecision","type":"uint256","internalType":"uint256"},{"name":"_minAuthorizations","type":"uint256","internalType":"uint256"}],"stateMutability":"nonpayable"},{"type":"function","name":"BASIS_POINTS_DIVISOR","inputs":[],"outputs":[{"name":"","type":"uint256","internalType":"uint256"}],"stateMutability":"view"},{"type":"function","name":"BURN_BASIS_POINTS","inputs":[],"outputs":[{"name":"","type":"uint256","internalType":"uint256"}],"stateMutability":"view"},{"type":"function","name":"PRICE_PRECISION","inputs":[],"outputs":[{"name":"","type":"uint256","internalType":"uint256"}],"stateMutability":"view"},{"type":"function","name":"actionsNonce","inputs":[],"outputs":[{"name":"","type":"uint256","internalType":"uint256"}],"stateMutability":"view"},{"type":"function","name":"admin","inputs":[],"outputs":[{"name":"","type":"address","internalType":"address"}],"stateMutability":"view"},{"type":"function","name":"approve","inputs":[{"name":"_token","type":"address","internalType":"address"},{"name":"_spender","type":"address","internalType":"address"},{"name":"_amount","type":"uint256","internalType":"uint256"},{"name":"_nonce","type":"uint256","internalType":"uint256"}],"outputs":[],"stateMutability":"nonpayable"},{"type":"function","name":"approveNFT","inputs":[{"name":"_token","type":"address","internalType":"address"},{"name":"_spender","type":"address","internalType":"address"},{"name":"_tokenId","type":"uint256","internalType":"uint256"},{"name":"_nonce","type":"uint256","internalType":"uint256"}],"outputs":[],"stateMutability":"nonpayable"},{"type":"function","name":"approveNFTs","inputs":[{"name":"_token","type":"address","internalType":"address"},{"name":"_spender","type":"address","internalType":"address"},{"name":"_tokenIds","type":"uint256[]","internalType":"uint256[]"},{"name":"_nonce","type":"uint256","internalType":"uint256"}],"outputs":[],"stateMutability":"nonpayable"},{"type":"function","name":"backedSupply","inputs":[],"outputs":[{"name":"","type":"uint256","internalType":"uint256"}],"stateMutability":"view"},{"type":"function","name":"baseMintPrice","inputs":[],"outputs":[{"name":"","type":"uint256","internalType":"uint256"}],"stateMutability":"view"},{"type":"function","name":"burn","inputs":[{"name":"_amount","type":"uint256","internalType":"uint256"},{"name":"_minOut","type":"uint256","internalType":"uint256"},{"name":"_receiver","type":"address","internalType":"address"}],"outputs":[{"name":"","type":"uint256","internalType":"uint256"}],"stateMutability":"nonpayable"},{"type":"function","name":"getBurnAmountOut","inputs":[{"name":"_amount","type":"uint256","internalType":"uint256"}],"outputs":[{"name":"","type":"uint256","internalType":"uint256"}],"stateMutability":"view"},{"type":"function","name":"getMintPrice","inputs":[],"outputs":[{"name":"","type":"uint256","internalType":"uint256"}],"stateMutability":"view"},{"type":"function","name":"initialize","inputs":[{"name":"_signers","type":"address[]","internalType":"address[]"}],"outputs":[],"stateMutability":"nonpayable"},{"type":"function","name":"isHandler","inputs":[{"name":"","type":"address","internalType":"address"}],"outputs":[{"name":"","type":"bool","internalType":"bool"}],"stateMutability":"view"},{"type":"function","name":"isInitialized","inputs":[],"outputs":[{"name":"","type":"bool","internalType":"bool"}],"stateMutability":"view"},{"type":"function","name":"isSigner","inputs":[{"name":"","type":"address","internalType":"address"}],"outputs":[{"name":"","type":"bool","internalType":"bool"}],"stateMutability":"view"},{"type":"function","name":"minAuthorizations","inputs":[],"outputs":[{"name":"","type":"uint256","internalType":"uint256"}],"stateMutability":"view"},{"type":"function","name":"mint","inputs":[{"name":"_amount","type":"uint256","internalType":"uint256"},{"name":"_maxCost","type":"uint256","internalType":"uint256"},{"name":"_receiver","type":"address","internalType":"address"}],"outputs":[{"name":"","type":"uint256","internalType":"uint256"}],"stateMutability":"nonpayable"},{"type":"function","name":"mintMultiplier","inputs":[],"outputs":[{"name":"","type":"uint256","internalType":"uint256"}],"stateMutability":"view"},{"type":"function","name":"mintedSupply","inputs":[],"outputs":[{"name":"","type":"uint256","internalType":"uint256"}],"stateMutability":"view"},{"type":"function","name":"multiplierPrecision","inputs":[],"outputs":[{"name":"","type":"uint256","internalType":"uint256"}],"stateMutability":"view"},{"type":"function","name":"pendingActions","inputs":[{"name":"","type":"bytes32","internalType":"bytes32"}],"outputs":[{"name":"","type":"bool","internalType":"bool"}],"stateMutability":"view"},{"type":"function","name":"receiveNFTs","inputs":[{"name":"_token","type":"address","internalType":"address"},{"name":"_sender","type":"address","internalType":"address"},{"name":"_tokenIds","type":"uint256[]","internalType":"uint256[]"}],"outputs":[],"stateMutability":"nonpayable"},{"type":"function","name":"reserveToken","inputs":[],"outputs":[{"name":"","type":"address","internalType":"address"}],"stateMutability":"view"},{"type":"function","name":"setAdmin","inputs":[{"name":"_target","type":"address","internalType":"address"},{"name":"_admin","type":"address","internalType":"address"},{"name":"_nonce","type":"uint256","internalType":"uint256"}],"outputs":[],"stateMutability":"nonpayable"},{"type":"function","name":"setBackedSupply","inputs":[{"name":"_backedSupply","type":"uint256","internalType":"uint256"}],"outputs":[],"stateMutability":"nonpayable"},{"type":"function","name":"setGov","inputs":[{"name":"_timelock","type":"address","internalType":"address"},{"name":"_target","type":"address","internalType":"address"},{"name":"_gov","type":"address","internalType":"address"},{"name":"_nonce","type":"uint256","internalType":"uint256"}],"outputs":[],"stateMutability":"nonpayable"},{"type":"function","name":"setHandler","inputs":[{"name":"_handler","type":"address","internalType":"address"},{"name":"_isHandler","type":"bool","internalType":"bool"}],"outputs":[],"stateMutability":"nonpayable"},{"type":"function","name":"setMintMultiplier","inputs":[{"name":"_mintMultiplier","type":"uint256","internalType":"uint256"}],"outputs":[],"stateMutability":"nonpayable"},{"type":"function","name":"signApprove","inputs":[{"name":"_token","type":"address","internalType":"address"},{"name":"_spender","type":"address","internalType":"address"},{"name":"_amount","type":"uint256","internalType":"uint256"},{"name":"_nonce","type":"uint256","internalType":"uint256"}],"outputs":[],"stateMutability":"nonpayable"},{"type":"function","name":"signApproveNFT","inputs":[{"name":"_token","type":"address","internalType":"address"},{"name":"_spender","type":"address","internalType":"address"},{"name":"_tokenId","type":"uint256","internalType":"uint256"},{"name":"_nonce","type":"uint256","internalType":"uint256"}],"outputs":[],"stateMutability":"nonpayable"},{"type":"function","name":"signApproveNFTs","inputs":[{"name":"_token","type":"address","internalType":"address"},{"name":"_spender","type":"address","internalType":"address"},{"name":"_tokenIds","type":"uint256[]","internalType":"uint256[]"},{"name":"_nonce","type":"uint256","internalType":"uint256"}],"outputs":[],"stateMutability":"nonpayable"},{"type":"function","name":"signSetAdmin","inputs":[{"name":"_target","type":"address","internalType":"address"},{"name":"_admin","type":"address","internalType":"address"},{"name":"_nonce","type":"uint256","internalType":"uint256"}],"outputs":[],"stateMutability":"nonpayable"},{"type":"function","name":"signSetGov","inputs":[{"name":"_timelock","type":"address","internalType":"address"},{"name":"_target","type":"address","internalType":"address"},{"name":"_gov","type":"address","internalType":"address"},{"name":"_nonce","type":"uint256","internalType":"uint256"}],"outputs":[],"stateMutability":"nonpayable"},{"type":"function","name":"signalApprove","inputs":[{"name":"_token","type":"address","internalType":"address"},{"name":"_spender","type":"address","internalType":"address"},{"name":"_amount","type":"uint256","internalType":"uint256"}],"outputs":[],"stateMutability":"nonpayable"},{"type":"function","name":"signalApproveNFT","inputs":[{"name":"_token","type":"address","internalType":"address"},{"name":"_spender","type":"address","internalType":"address"},{"name":"_tokenId","type":"uint256","internalType":"uint256"}],"outputs":[],"stateMutability":"nonpayable"},{"type":"function","name":"signalApproveNFTs","inputs":[{"name":"_token","type":"address","internalType":"address"},{"name":"_spender","type":"address","internalType":"address"},{"name":"_tokenIds","type":"uint256[]","internalType":"uint256[]"}],"outputs":[],"stateMutability":"nonpayable"},{"type":"function","name":"signalSetAdmin","inputs":[{"name":"_target","type":"address","internalType":"address"},{"name":"_admin","type":"address","internalType":"address"}],"outputs":[],"stateMutability":"nonpayable"},{"type":"function","name":"signalSetGov","inputs":[{"name":"_timelock","type":"address","internalType":"address"},{"name":"_target","type":"address","internalType":"address"},{"name":"_gov","type":"address","internalType":"address"}],"outputs":[],"stateMutability":"nonpayable"},{"type":"function","name":"signedActions","inputs":[{"name":"","type":"address","internalType":"address"},{"name":"","type":"bytes32","internalType":"bytes32"}],"outputs":[{"name":"","type":"bool","internalType":"bool"}],"stateMutability":"view"},{"type":"function","name":"signers","inputs":[{"name":"","type":"uint256","internalType":"uint256"}],"outputs":[{"name":"","type":"address","internalType":"address"}],"stateMutability":"view"},{"type":"function","name":"signersLength","inputs":[],"outputs":[{"name":"","type":"uint256","internalType":"uint256"}],"stateMutability":"view"},{"type":"function","name":"zus","inputs":[],"outputs":[{"name":"","type":"address","internalType":"address"}],"stateMutability":"view"},{"type":"event","name":"ClearAction","inputs":[{"name":"action","type":"bytes32","indexed":false,"internalType":"bytes32"},{"name":"nonce","type":"uint256","indexed":false,"internalType":"uint256"}],"anonymous":false},{"type":"event","name":"SignAction","inputs":[{"name":"action","type":"bytes32","indexed":false,"internalType":"bytes32"},{"name":"nonce","type":"uint256","indexed":false,"internalType":"uint256"}],"anonymous":false},{"type":"event","name":"SignalApprove","inputs":[{"name":"token","type":"address","indexed":false,"internalType":"address"},{"name":"spender","type":"address","indexed":false,"internalType":"address"},{"name":"amount","type":"uint256","indexed":false,"internalType":"uint256"},{"name":"action","type":"bytes32","indexed":false,"internalType":"bytes32"},{"name":"nonce","type":"uint256","indexed":false,"internalType":"uint256"}],"anonymous":false},{"type":"event","name":"SignalApproveNFT","inputs":[{"name":"token","type":"address","indexed":false,"internalType":"address"},{"name":"spender","type":"address","indexed":false,"internalType":"address"},{"name":"tokenId","type":"uint256","indexed":false,"internalType":"uint256"},{"name":"action","type":"bytes32","indexed":false,"internalType":"bytes32"},{"name":"nonce","type":"uint256","indexed":false,"internalType":"uint256"}],"anonymous":false},{"type":"event","name":"SignalApproveNFTs","inputs":[{"name":"token","type":"address","indexed":false,"internalType":"address"},{"name":"spender","type":"address","indexed":false,"internalType":"address"},{"name":"tokenIds","type":"uint256[]","indexed":false,"internalType":"uint256[]"},{"name":"action","type":"bytes32","indexed":false,"internalType":"bytes32"},{"name":"nonce","type":"uint256","indexed":false,"internalType":"uint256"}],"anonymous":false},{"type":"event","name":"SignalPendingAction","inputs":[{"name":"action","type":"bytes32","indexed":false,"internalType":"bytes32"},{"name":"nonce","type":"uint256","indexed":false,"internalType":"uint256"}],"anonymous":false},{"type":"event","name":"SignalSetAdmin","inputs":[{"name":"target","type":"address","indexed":false,"internalType":"address"},{"name":"admin","type":"address","indexed":false,"internalType":"address"},{"name":"action","type":"bytes32","indexed":false,"internalType":"bytes32"},{"name":"nonce","type":"uint256","indexed":false,"internalType":"uint256"}],"anonymous":false},{"type":"event","name":"SignalSetGov","inputs":[{"name":"timelock","type":"address","indexed":false,"internalType":"address"},{"name":"target","type":"address","indexed":false,"internalType":"address"},{"name":"gov","type":"address","indexed":false,"internalType":"address"},{"name":"action","type":"bytes32","indexed":false,"internalType":"bytes32"},{"name":"nonce","type":"uint256","indexed":false,"internalType":"uint256"}],"anonymous":false}],"bytecode":{"object":"0x608060405234801561001057600080fd5b506040516136ca3803806136ca833981810160405260e081101561003357600080fd5b508051602082015160408301516060840151608085015160a086015160c090960151600480546001600160a01b03199081163317909155600391909155600980546001600160a01b03978816908316179055600a805496909516951694909417909255600b55600c55600d55600f55613619806100b16000396000f3fe608060405234801561001057600080fd5b50600436106102145760003560e01c80639fddaac1116101215780639fddaac1146105d5578063a224cee71461060b578063a4c04bb7146106ac578063a62fb170146106b4578063a7f93ebd146106f0578063adb384b6146106f8578063b82ce261146107b2578063c1bd8cf9146107cf578063c616b592146107d7578063dce6e18d146107df578063ddf67a9f14610815578063e2d03cc514610851578063e30569e514610889578063e7d3fe6b146108a6578063e9075621146108d8578063eb0eec4814610914578063f00cb94214610931578063f23f9775146109ed578063f4325d6714610a29578063f466634b14610a31578063f52dc4f714610a67578063f851a44014610aa357610214565b806302486e08146102195780630b13beca1461023d578063126082cf14610275578063181fcd331461028f5780632079fb9a146103495780632415ab6e146103665780632494b7eb1461036e578063287800c91461038b578063392e53cd146103935780633acd81a5146103af57806341f684f3146103b757806342a1fcee146103bf57806346ea87af1461047b5780634dc5ecb3146104a15780635fe15ad7146104dd578063749388c4146104e557806375fd490c146105175780637df73e27146105455780638559dff31461056b57806387c6d4f91461057357806395082d251461059f5780639cb7de4b146105a7575b600080fd5b610221610aab565b604080516001600160a01b039092168252519081900360200190f35b6102736004803603606081101561025357600080fd5b506001600160a01b03813581169160208101359091169060400135610aba565b005b61027d610c2a565b60408051918252519081900360200190f35b610273600480360360608110156102a557600080fd5b6001600160a01b038235811692602081013590911691810190606081016040820135600160201b8111156102d857600080fd5b8201836020820111156102ea57600080fd5b803590602001918460208302840111600160201b8311171561030b57600080fd5b919080806020026020016040519081016040528093929190818152602001838360200280828437600092019190915250929550610c30945050505050565b6102216004803603602081101561035f57600080fd5b5035610e26565b61027d610e4d565b6102736004803603602081101561038457600080fd5b5035610e53565b61027d610efb565b61039b610f01565b604080519115158252519081900360200190f35b61027d610f0a565b61027d610f10565b610273600480360360808110156103d557600080fd5b6001600160a01b038235811692602081013590911691810190606081016040820135600160201b81111561040857600080fd5b82018360208201111561041a57600080fd5b803590602001918460208302840111600160201b8311171561043b57600080fd5b9190808060200260200160405190810160405280939291908181526020018383602002808284376000920191909152509295505091359250610f16915050565b61039b6004803603602081101561049157600080fd5b50356001600160a01b031661110c565b610273600480360360808110156104b757600080fd5b506001600160a01b03813581169160208101359091169060408101359060600135611121565b61027d6112b5565b61027d600480360360608110156104fb57600080fd5b50803590602081013590604001356001600160a01b03166112bb565b6102736004803603604081101561052d57600080fd5b506001600160a01b03813581169160200135166114b0565b61039b6004803603602081101561055b57600080fd5b50356001600160a01b0316611639565b61027d61164e565b61039b6004803603604081101561058957600080fd5b506001600160a01b038135169060200135611654565b61027d611674565b610273600480360360408110156105bd57600080fd5b506001600160a01b0381351690602001351515611684565b610273600480360360608110156105eb57600080fd5b506001600160a01b038135811691602081013590911690604001356116fc565b6102736004803603602081101561062157600080fd5b810190602081018135600160201b81111561063b57600080fd5b82018360208201111561064d57600080fd5b803590602001918460208302840111600160201b8311171561066e57600080fd5b91908080602002602001604051908101604052809392919081815260200183836020028082843760009201919091525092955061187c945050505050565b61027d6118d5565b610273600480360360808110156106ca57600080fd5b506001600160a01b038135811691602081013582169160408201351690606001356118db565b61027d611abc565b6102736004803603606081101561070e57600080fd5b6001600160a01b038235811692602081013590911691810190606081016040820135600160201b81111561074157600080fd5b82018360208201111561075357600080fd5b803590602001918460208302840111600160201b8311171561077457600080fd5b919080806020026020016040519081016040528093929190818152602001838360200280828437600092019190915250929550611af2945050505050565b61027d600480360360208110156107c857600080fd5b5035611c35565b61027d611ce0565b61027d611ce6565b610273600480360360608110156107f557600080fd5b506001600160a01b03813581169160208101359091169060400135611cec565b6102736004803603608081101561082b57600080fd5b506001600160a01b03813581169160208101359091169060408101359060600135611e59565b6102736004803603606081101561086757600080fd5b506001600160a01b038135811691602081013582169160409091013516611f5d565b61039b6004803603602081101561089f57600080fd5b50356120f9565b61027d600480360360608110156108bc57600080fd5b50803590602081013590604001356001600160a01b031661210e565b610273600480360360808110156108ee57600080fd5b506001600160a01b03813581169160208101358216916040820135169060600135612384565b6102736004803603602081101561092a57600080fd5b5035612513565b6102736004803603608081101561094757600080fd5b6001600160a01b038235811692602081013590911691810190606081016040820135600160201b81111561097a57600080fd5b82018360208201111561098c57600080fd5b803590602001918460208302840111600160201b831117156109ad57600080fd5b91908080602002602001604051908101604052809392919081815260200183836020028082843760009201919091525092955050913592506125a5915050565b61027360048036036080811015610a0357600080fd5b506001600160a01b038135811691602081013590911690604081013590606001356126e5565b610221612845565b61027360048036036060811015610a4757600080fd5b506001600160a01b03813581169160208101359091169060400135612854565b61027360048036036080811015610a7d57600080fd5b506001600160a01b03813581169160208101359091169060408101359060600135612a27565b610221612b28565b6009546001600160a01b031681565b60026000541415610b00576040805162461bcd60e51b815260206004820152601f6024820152600080516020613484833981519152604482015290519081900360640190fd5b60026000556004546001600160a01b03163314610b52576040805162461bcd60e51b81526020600482015260176024820152600080516020613510833981519152604482015290519081900360640190fd5b60028054600101908190556040805169185c1c1c9bdd9953919560b21b6020808301919091526001600160601b0319606088811b8216602a85015287901b16603e8301526052820185905260728083018590528351808403909101815260929092019092528051910120610bc68183612b37565b604080516001600160a01b03808816825286166020820152808201859052606081018390526080810184905290517fcd9ba83b63715dc15ac193645d6e925bf4b487c94b73d709b8b6dea608efd4cc9181900360a00190a150506001600055505050565b61271081565b60026000541415610c76576040805162461bcd60e51b815260206004820152601f6024820152600080516020613484833981519152604482015290519081900360640190fd5b60026000556004546001600160a01b03163314610cc8576040805162461bcd60e51b81526020600482015260176024820152600080516020613510833981519152604482015290519081900360640190fd5b60028054600101908190556040516a617070726f76654e46547360a81b60208083019182526001600160601b0319606088811b8216602b86015287901b16603f840152845160009388938893889388936053019180860191028083838b5b83811015610d3e578181015183820152602001610d26565b50505050905001828152602001945050505050604051602081830303815290604052805190602001209050610d738183612b37565b7ff9d0354d71c261982d98abd09b735f3663b2d7275e2569ad5fd907a4092765f9858585848660405180866001600160a01b03168152602001856001600160a01b0316815260200180602001848152602001838152602001828103825285818151815260200191508051906020019060200280838360005b83811015610e03578181015183820152602001610deb565b50505050905001965050505050505060405180910390a150506001600055505050565b60058181548110610e3357fe5b6000918252602090912001546001600160a01b0316905081565b600f5481565b6004546001600160a01b03163314610ea0576040805162461bcd60e51b81526020600482015260176024820152600080516020613510833981519152604482015290519081900360640190fd5b600b548111610ef6576040805162461bcd60e51b815260206004820152601f60248201527f5a7573466c6f6f723a20696e76616c6964205f6261636b6564537570706c7900604482015290519081900360640190fd5b600b55565b60035481565b60015460ff1681565b600d5481565b60055490565b60026000541415610f5c576040805162461bcd60e51b815260206004820152601f6024820152600080516020613484833981519152604482015290519081900360640190fd5b60026000556004546001600160a01b03163314610fae576040805162461bcd60e51b81526020600482015260176024820152600080516020613510833981519152604482015290519081900360640190fd5b60008484848460405160200180806a617070726f76654e46547360a81b815250600b01856001600160a01b031660601b8152601401846001600160a01b031660601b8152601401838051906020019060200280838360005b8381101561101e578181015183820152602001611006565b5050505090500182815260200194505050505060405160208183030381529060405280519060200120905061105281612b90565b61105b81612bdd565b60005b83518110156110f557856001600160a01b031663095ea7b38686848151811061108357fe5b60200260200101516040518363ffffffff1660e01b815260040180836001600160a01b0316815260200182815260200192505050600060405180830381600087803b1580156110d157600080fd5b505af11580156110e5573d6000803e3d6000fd5b50506001909201915061105e9050565b506111008183612cc3565b50506001600055505050565b60106020526000908152604090205460ff1681565b60026000541415611167576040805162461bcd60e51b815260206004820152601f6024820152600080516020613484833981519152604482015290519081900360640190fd5b60026000556004546001600160a01b031633146111b9576040805162461bcd60e51b81526020600482015260176024820152600080516020613510833981519152604482015290519081900360640190fd5b6040805166617070726f766560c81b6020808301919091526001600160601b0319606088811b8216602785015287901b16603b830152604f8201859052606f80830185905283518084039091018152608f909201909252805191012061121e81612b90565b61122781612bdd565b846001600160a01b031663095ea7b385856040518363ffffffff1660e01b815260040180836001600160a01b0316815260200182815260200192505050602060405180830381600087803b15801561127e57600080fd5b505af1158015611292573d6000803e3d6000fd5b505050506040513d60208110156112a857600080fd5b5061110090508183612cc3565b61232881565b3360009081526010602052604081205460ff16611315576040805162461bcd60e51b81526020600482015260136024820152722d3ab9a33637b7b91d103337b93134b23232b760691b604482015290519081900360640190fd5b6002600054141561135b576040805162461bcd60e51b815260206004820152601f6024820152600080516020613484833981519152604482015290519081900360640190fd5b6002600055836113ae576040805162461bcd60e51b8152602060048201526019602482015278169d5cd19b1bdbdc8e881a5b9d985b1a590817d85b5bdd5b9d603a1b604482015290519081900360640190fd5b60006113b985611c35565b905083811015611410576040805162461bcd60e51b815260206004820181905260248201527f5a7573466c6f6f723a20696e73756666696369656e7420616d6f756e744f7574604482015290519081900360640190fd5b600b5461141d9086612d7c565b600b5560095460408051632770a7eb60e21b81523360048201526024810188905290516001600160a01b0390921691639dc29fac9160448082019260009290919082900301818387803b15801561147357600080fd5b505af1158015611487573d6000803e3d6000fd5b5050600a546114a392506001600160a01b031690508483612dc7565b6001600055949350505050565b600260005414156114f6576040805162461bcd60e51b815260206004820152601f6024820152600080516020613484833981519152604482015290519081900360640190fd5b600260009081553381526006602052604090205460ff1661154c576040805162461bcd60e51b81526020600482015260176024820152600080516020613510833981519152604482015290519081900360640190fd5b6002805460010190819055604080516739b2ba20b236b4b760c11b6020808301919091526001600160601b0319606087811b8216602885015286901b16603c830152605080830185905283518084039091018152607090920190925280519101206115b78183612b37565b336000908152600860209081526040808320848452825291829020805460ff1916600117905581516001600160a01b0387811682528616918101919091528082018390526060810184905290517f4fc9433645aa0a3670e9185496bbd752209fed7a9696fb8a954a0db30ef927b09181900360800190a1505060016000555050565b60066020526000908152604090205460ff1681565b600c5481565b600860209081526000928352604080842090915290825290205460ff1681565b68327cb2734119d3b7a9601e1b81565b6004546001600160a01b031633146116d1576040805162461bcd60e51b81526020600482015260176024820152600080516020613510833981519152604482015290519081900360640190fd5b6001600160a01b03919091166000908152601060205260409020805460ff1916911515919091179055565b60026000541415611742576040805162461bcd60e51b815260206004820152601f6024820152600080516020613484833981519152604482015290519081900360640190fd5b600260009081553381526006602052604090205460ff16611798576040805162461bcd60e51b81526020600482015260176024820152600080516020613510833981519152604482015290519081900360640190fd5b604080516739b2ba20b236b4b760c11b6020808301919091526001600160601b0319606087811b8216602885015286901b16603c830152605080830185905283518084039091018152607090920190925280519101206117f781612b90565b61180081612bdd565b836001600160a01b031663704b6c02846040518263ffffffff1660e01b815260040180826001600160a01b03168152602001915050600060405180830381600087803b15801561184f57600080fd5b505af1158015611863573d6000803e3d6000fd5b505050506118718183612cc3565b505060016000555050565b6004546001600160a01b031633146118c9576040805162461bcd60e51b81526020600482015260176024820152600080516020613510833981519152604482015290519081900360640190fd5b6118d281612e1e565b50565b60025481565b60026000541415611921576040805162461bcd60e51b815260206004820152601f6024820152600080516020613484833981519152604482015290519081900360640190fd5b600260009081553381526006602052604090205460ff16611977576040805162461bcd60e51b81526020600482015260176024820152600080516020613510833981519152604482015290519081900360640190fd5b604080516b39b4b3b730b629b2ba23b7bb60a11b6020808301919091526001600160601b0319606088811b8216602c85015287811b82168486015286901b166054830152606880830185905283518084039091018152608890920190925280519101206119e381612b90565b33600090815260086020908152604080832084845290915290205460ff1615611a52576040805162461bcd60e51b815260206004820152601c60248201527b151bdad95b93585b9859d95c8e88185b1c9958591e481cda59db995960221b604482015290519081900360640190fd5b336000908152600860209081526040808320848452825291829020805460ff19166001179055815183815290810184905281517faae28fe5531fe5dfb8d12409392ec67b50c825dd06233312cb6aeaddd16cbd22929181900390910190a150506001600055505050565b6000611aed611ae4600f54611ade600d54600e54612f2390919063ffffffff16565b90612f7c565b600c5490612fbb565b905090565b60026000541415611b38576040805162461bcd60e51b815260206004820152601f6024820152600080516020613484833981519152604482015290519081900360640190fd5b60026000556004546001600160a01b03163314611b8a576040805162461bcd60e51b81526020600482015260176024820152600080516020613510833981519152604482015290519081900360640190fd5b60005b815181101561187157836001600160a01b03166323b872dd8430858581518110611bb357fe5b60200260200101516040518463ffffffff1660e01b815260040180846001600160a01b03168152602001836001600160a01b031681526020018281526020019350505050600060405180830381600087803b158015611c1157600080fd5b505af1158015611c25573d6000803e3d6000fd5b505060019092019150611b8d9050565b600a54604080516370a0823160e01b8152306004820152905160009283926001600160a01b03909116916370a0823191602480820192602092909190829003018186803b158015611c8557600080fd5b505afa158015611c99573d6000803e3d6000fd5b505050506040513d6020811015611caf57600080fd5b5051600b54909150611cd99061271090611ade9061232890611cd390838988612f23565b90612f23565b9392505050565b600e5481565b600b5481565b60026000541415611d32576040805162461bcd60e51b815260206004820152601f6024820152600080516020613484833981519152604482015290519081900360640190fd5b60026000556004546001600160a01b03163314611d84576040805162461bcd60e51b81526020600482015260176024820152600080516020613510833981519152604482015290519081900360640190fd5b60028054600101908190556040805166617070726f766560c81b6020808301919091526001600160601b0319606088811b8216602785015287901b16603b830152604f8201859052606f80830185905283518084039091018152608f9092019092528051910120611df58183612b37565b604080516001600160a01b03808816825286166020820152808201859052606081018390526080810184905290517fc19251bf5f704ddc3d5babe6f4e5bde0dded20b19f7844716861821ab3163cd79181900360a00190a150506001600055505050565b60026000541415611e9f576040805162461bcd60e51b815260206004820152601f6024820152600080516020613484833981519152604482015290519081900360640190fd5b600260009081553381526006602052604090205460ff16611ef5576040805162461bcd60e51b81526020600482015260176024820152600080516020613510833981519152604482015290519081900360640190fd5b6040805169185c1c1c9bdd9953919560b21b6020808301919091526001600160601b0319606088811b8216602a85015287901b16603e83015260528201859052607280830185905283518084039091018152609290920190925280519101206119e381612b90565b60026000541415611fa3576040805162461bcd60e51b815260206004820152601f6024820152600080516020613484833981519152604482015290519081900360640190fd5b60026000556004546001600160a01b03163314611ff5576040805162461bcd60e51b81526020600482015260176024820152600080516020613510833981519152604482015290519081900360640190fd5b6002805460010190819055604080516b39b4b3b730b629b2ba23b7bb60a11b6020808301919091526001600160601b0319606088811b8216602c85015287811b82168486015286901b1660548301526068808301859052835180840390910181526088909201909252805191012061206d8183612b37565b336000908152600860209081526040808320848452825291829020805460ff1916600117905581516001600160a01b0388811682528781169282019290925290851681830152606081018390526080810184905290517f634e13057d45400506e3b303913ac59b61e5a8137ea6fed5ed44aa0b8bc3c5689181900360a00190a150506001600055505050565b60076020526000908152604090205460ff1681565b3360009081526010602052604081205460ff16612168576040805162461bcd60e51b81526020600482015260136024820152722d3ab9a33637b7b91d103337b93134b23232b760691b604482015290519081900360640190fd5b600260005414156121ae576040805162461bcd60e51b815260206004820152601f6024820152600080516020613484833981519152604482015290519081900360640190fd5b600260005583612201576040805162461bcd60e51b8152602060048201526019602482015278169d5cd19b1bdbdc8e881a5b9d985b1a590817d85b5bdd5b9d603a1b604482015290519081900360640190fd5b600061220b611abc565b9050600061223461222d600f54611ade600d548a612f2390919063ffffffff16565b8390612fbb565b905060006122476002611ade8585612fbb565b9050600061226568327cb2734119d3b7a9601e1b611ade8a85612f23565b9050868111156122ba576040805162461bcd60e51b815260206004820152601b60248201527a169d5cd19b1bdbdc8e8817db585e10dbdcdd08195e18d959591959602a1b604482015290519081900360640190fd5b600e546122c79089612fbb565b600e55600b546122d79089612fbb565b600b55600a546122f2906001600160a01b0316333084613013565b6009546040805163a9059cbb60e01b81526001600160a01b038981166004830152602482018c90529151919092169163a9059cbb9160448083019260209291908290030181600087803b15801561234857600080fd5b505af115801561235c573d6000803e3d6000fd5b505050506040513d602081101561237257600080fd5b50506001600055979650505050505050565b600260005414156123ca576040805162461bcd60e51b815260206004820152601f6024820152600080516020613484833981519152604482015290519081900360640190fd5b60026000556004546001600160a01b0316331461241c576040805162461bcd60e51b81526020600482015260176024820152600080516020613510833981519152604482015290519081900360640190fd5b604080516b39b4b3b730b629b2ba23b7bb60a11b6020808301919091526001600160601b0319606088811b8216602c85015287811b82168486015286901b1660548301526068808301859052835180840390910181526088909201909252805191012061248881612b90565b61249181612bdd565b846001600160a01b031663996a7a1e85856040518363ffffffff1660e01b815260040180836001600160a01b03168152602001826001600160a01b0316815260200192505050600060405180830381600087803b1580156124f157600080fd5b505af1158015612505573d6000803e3d6000fd5b505050506111008183612cc3565b6004546001600160a01b03163314612560576040805162461bcd60e51b81526020600482015260176024820152600080516020613510833981519152604482015290519081900360640190fd5b600d5481116125a05760405162461bcd60e51b81526004018080602001828103825260218152602001806135996021913960400191505060405180910390fd5b600d55565b600260005414156125eb576040805162461bcd60e51b815260206004820152601f6024820152600080516020613484833981519152604482015290519081900360640190fd5b600260009081553381526006602052604090205460ff16612641576040805162461bcd60e51b81526020600482015260176024820152600080516020613510833981519152604482015290519081900360640190fd5b60008484848460405160200180806a617070726f76654e46547360a81b815250600b01856001600160a01b031660601b8152601401846001600160a01b031660601b8152601401838051906020019060200280838360005b838110156126b1578181015183820152602001612699565b505050509050018281526020019450505050506040516020818303038152906040528051906020012090506119e381612b90565b6002600054141561272b576040805162461bcd60e51b815260206004820152601f6024820152600080516020613484833981519152604482015290519081900360640190fd5b60026000556004546001600160a01b0316331461277d576040805162461bcd60e51b81526020600482015260176024820152600080516020613510833981519152604482015290519081900360640190fd5b6040805169185c1c1c9bdd9953919560b21b6020808301919091526001600160601b0319606088811b8216602a85015287901b16603e83015260528201859052607280830185905283518084039091018152609290920190925280519101206127e581612b90565b6127ee81612bdd565b846001600160a01b031663095ea7b385856040518363ffffffff1660e01b815260040180836001600160a01b0316815260200182815260200192505050600060405180830381600087803b1580156124f157600080fd5b600a546001600160a01b031681565b6002600054141561289a576040805162461bcd60e51b815260206004820152601f6024820152600080516020613484833981519152604482015290519081900360640190fd5b600260009081553381526006602052604090205460ff166128f0576040805162461bcd60e51b81526020600482015260176024820152600080516020613510833981519152604482015290519081900360640190fd5b604080516739b2ba20b236b4b760c11b6020808301919091526001600160601b0319606087811b8216602885015286901b16603c8301526050808301859052835180840390910181526070909201909252805191012061294f81612b90565b33600090815260086020908152604080832084845290915290205460ff16156129be576040805162461bcd60e51b815260206004820152601c60248201527b151bdad95b93585b9859d95c8e88185b1c9958591e481cda59db995960221b604482015290519081900360640190fd5b336000908152600860209081526040808320848452825291829020805460ff19166001179055815183815290810184905281517faae28fe5531fe5dfb8d12409392ec67b50c825dd06233312cb6aeaddd16cbd22929181900390910190a1505060016000555050565b60026000541415612a6d576040805162461bcd60e51b815260206004820152601f6024820152600080516020613484833981519152604482015290519081900360640190fd5b600260009081553381526006602052604090205460ff16612ac3576040805162461bcd60e51b81526020600482015260176024820152600080516020613510833981519152604482015290519081900360640190fd5b6040805166617070726f766560c81b6020808301919091526001600160601b0319606088811b8216602785015287901b16603b830152604f8201859052606f80830185905283518084039091018152608f90920190925280519101206119e381612b90565b6004546001600160a01b031681565b600082815260076020908152604091829020805460ff19166001179055815184815290810183905281517f64df01c46eb530dc540770a0b88cc32f0b8c2b371a546ae0b13cc8ca6671fff9929181900390910190a15050565b60008181526007602052604090205460ff166118d25760405162461bcd60e51b81526004018080602001828103825260228152602001806135566022913960400191505060405180910390fd5b6000805b600554811015612c4157600060058281548110612bfa57fe5b60009182526020808320909101546001600160a01b031680835260088252604080842088855290925291205490915060ff1615612c38576001909201915b50600101612be1565b5080612c7e5760405162461bcd60e51b81526004018080602001828103825260238152602001806134ed6023913960400191505060405180910390fd5b600354811015612cbf5760405162461bcd60e51b81526004018080602001828103825260288152602001806134c56028913960400191505060405180910390fd5b5050565b60008281526007602052604090205460ff16612d26576040805162461bcd60e51b815260206004820152601d60248201527f546f6b656e4d616e616765723a20696e76616c6964205f616374696f6e000000604482015290519081900360640190fd5b600082815260076020908152604091829020805460ff19169055815184815290810183905281517ff4640d39061e643d9b802cb3725953405344555ad6dbb1cbdb0495f3eccb8e68929181900390910190a15050565b6000612dbe83836040518060400160405280601e81526020017f536166654d6174683a207375627472616374696f6e206f766572666c6f770000815250613073565b90505b92915050565b604080516001600160a01b038416602482015260448082018490528251808303909101815260649091019091526020810180516001600160e01b031663a9059cbb60e01b179052612e1990849061310a565b505050565b6004546001600160a01b03163314612e6b576040805162461bcd60e51b81526020600482015260176024820152600080516020613510833981519152604482015290519081900360640190fd5b60015460ff1615612ead5760405162461bcd60e51b81526004018080602001828103825260218152602001806134a46021913960400191505060405180910390fd5b6001805460ff1916811790558051612ecc9060059060208401906133ff565b5060005b8151811015612cbf576000828281518110612ee757fe5b6020908102919091018101516001600160a01b03166000908152600690915260409020805460ff19166001908117909155919091019050612ed0565b600082612f3257506000612dc1565b82820282848281612f3f57fe5b0414612dbe5760405162461bcd60e51b81526004018080602001828103825260218152602001806135786021913960400191505060405180910390fd5b6000612dbe83836040518060400160405280601a815260200179536166654d6174683a206469766973696f6e206279207a65726f60301b8152506131bb565b600082820183811015612dbe576040805162461bcd60e51b815260206004820152601b60248201527a536166654d6174683a206164646974696f6e206f766572666c6f7760281b604482015290519081900360640190fd5b604080516001600160a01b0380861660248301528416604482015260648082018490528251808303909101815260849091019091526020810180516001600160e01b03166323b872dd60e01b17905261306d90859061310a565b50505050565b600081848411156131025760405162461bcd60e51b81526004018080602001828103825283818151815260200191508051906020019080838360005b838110156130c75781810151838201526020016130af565b50505050905090810190601f1680156130f45780820380516001836020036101000a031916815260200191505b509250505060405180910390fd5b505050900390565b606061315f826040518060400160405280602081526020017f5361666545524332303a206c6f772d6c6576656c2063616c6c206661696c6564815250856001600160a01b03166132209092919063ffffffff16565b805190915015612e195780806020019051602081101561317e57600080fd5b5051612e195760405162461bcd60e51b815260040180806020018281038252602a8152602001806135ba602a913960400191505060405180910390fd5b6000818361320a5760405162461bcd60e51b81526020600482018181528351602484015283519092839260449091019190850190808383600083156130c75781810151838201526020016130af565b50600083858161321657fe5b0495945050505050565b606061322f8484600085613237565b949350505050565b6060824710156132785760405162461bcd60e51b81526004018080602001828103825260268152602001806135306026913960400191505060405180910390fd5b61328185613393565b6132d2576040805162461bcd60e51b815260206004820152601d60248201527f416464726573733a2063616c6c20746f206e6f6e2d636f6e7472616374000000604482015290519081900360640190fd5b60006060866001600160a01b031685876040518082805190602001908083835b602083106133115780518252601f1990920191602091820191016132f2565b6001836020036101000a03801982511681845116808217855250505050505090500191505060006040518083038185875af1925050503d8060008114613373576040519150601f19603f3d011682016040523d82523d6000602084013e613378565b606091505b5091509150613388828286613399565b979650505050505050565b3b151590565b606083156133a8575081611cd9565b8251156133b85782518084602001fd5b60405162461bcd60e51b81526020600482018181528451602484015284518593919283926044019190850190808383600083156130c75781810151838201526020016130af565b828054828255906000526020600020908101928215613454579160200282015b8281111561345457825182546001600160a01b0319166001600160a01b0390911617825560209092019160019091019061341f565b50613460929150613464565b5090565b5b808211156134605780546001600160a01b031916815560010161346556fe5265656e7472616e637947756172643a207265656e7472616e742063616c6c00546f6b656e4d616e616765723a20616c726561647920696e697469616c697a6564546f6b656e4d616e616765723a20696e73756666696369656e7420617574686f72697a6174696f6e546f6b656e4d616e616765723a20616374696f6e206e6f7420617574686f72697a6564546f6b656e4d616e616765723a20666f7262696464656e000000000000000000416464726573733a20696e73756666696369656e742062616c616e636520666f722063616c6c546f6b656e4d616e616765723a20616374696f6e206e6f74207369676e616c6c6564536166654d6174683a206d756c7469706c69636174696f6e206f766572666c6f775a7573466c6f6f723a20696e76616c6964205f6d696e744d756c7469706c6965725361666545524332303a204552433230206f7065726174696f6e20646964206e6f742073756363656564a26469706673582212203fc71039009907c1c002036a3dcb98331c78212f6d952645336d2147415cb6ce64736f6c634300060c0033","linkReferences":{}},"methodIdentifiers":{"BASIS_POINTS_DIVISOR()":"126082cf","BURN_BASIS_POINTS()":"5fe15ad7","PRICE_PRECISION()":"95082d25","actionsNonce()":"a4c04bb7","admin()":"f851a440","approve(address,address,uint256,uint256)":"4dc5ecb3","approveNFT(address,address,uint256,uint256)":"f23f9775","approveNFTs(address,address,uint256[],uint256)":"42a1fcee","backedSupply()":"c616b592","baseMintPrice()":"8559dff3","burn(uint256,uint256,address)":"749388c4","getBurnAmountOut(uint256)":"b82ce261","getMintPrice()":"a7f93ebd","initialize(address[])":"a224cee7","isHandler(address)":"46ea87af","isInitialized()":"392e53cd","isSigner(address)":"7df73e27","minAuthorizations()":"287800c9","mint(uint256,uint256,address)":"e7d3fe6b","mintMultiplier()":"3acd81a5","mintedSupply()":"c1bd8cf9","multiplierPrecision()":"2415ab6e","pendingActions(bytes32)":"e30569e5","receiveNFTs(address,address,uint256[])":"adb384b6","reserveToken()":"f4325d67","setAdmin(address,address,uint256)":"9fddaac1","setBackedSupply(uint256)":"2494b7eb","setGov(address,address,address,uint256)":"e9075621","setHandler(address,bool)":"9cb7de4b","setMintMultiplier(uint256)":"eb0eec48","signApprove(address,address,uint256,uint256)":"f52dc4f7","signApproveNFT(address,address,uint256,uint256)":"ddf67a9f","signApproveNFTs(address,address,uint256[],uint256)":"f00cb942","signSetAdmin(address,address,uint256)":"f466634b","signSetGov(address,address,address,uint256)":"a62fb170","signalApprove(address,address,uint256)":"dce6e18d","signalApproveNFT(address,address,uint256)":"0b13beca","signalApproveNFTs(address,address,uint256[])":"181fcd33","signalSetAdmin(address,address)":"75fd490c","signalSetGov(address,address,address)":"e2d03cc5","signedActions(address,bytes32)":"87c6d4f9","signers(uint256)":"2079fb9a","signersLength()":"41f684f3","zus()":"02486e08"},"id":163}