{"abi":[{"type":"function","name":"acceptGov","inputs":[],"outputs":[],"stateMutability":"nonpayable"},{"type":"function","name":"cancelGovProposal","inputs":[{"name":"_gov","type":"address","internalType":"address"}],"outputs":[],"stateMutability":"nonpayable"},{"type":"function","name":"gov","inputs":[],"outputs":[{"name":"","type":"address","internalType":"address"}],"stateMutability":"view"},{"type":"function","name":"govProposals","inputs":[{"name":"","type":"address","internalType":"address"}],"outputs":[{"name":"deadline","type":"uint256","internalType":"uint256"},{"name":"isActive","type":"bool","internalType":"bool"}],"stateMutability":"view"},{"type":"function","name":"setGov","inputs":[{"name":"_gov","type":"address","internalType":"address"}],"outputs":[],"stateMutability":"nonpayable"},{"type":"function","name":"setGovWithDeadline","inputs":[{"name":"_gov","type":"address","internalType":"address"},{"name":"_deadline","type":"uint256","internalType":"uint256"}],"outputs":[],"stateMutability":"nonpayable"},{"type":"function","name":"stakeForAccount","inputs":[{"name":"_rewardTracker","type":"address","internalType":"address"},{"name":"_account","type":"address","internalType":"address"},{"name":"_token","type":"address","internalType":"address"},{"name":"_amount","type":"uint256","internalType":"uint256"}],"outputs":[],"stateMutability":"nonpayable"},{"type":"event","name":"GovernanceTransferRequested","inputs":[{"name":"newGov","type":"address","indexed":true,"internalType":"address"},{"name":"deadline","type":"uint256","indexed":false,"internalType":"uint256"}],"anonymous":false},{"type":"event","name":"GovernanceTransferred","inputs":[{"name":"oldGov","type":"address","indexed":true,"internalType":"address"},{"name":"newGov","type":"address","indexed":true,"internalType":"address"}],"anonymous":false}],"bytecode":{"object":"0x608060405234801561001057600080fd5b50600080546001600160a01b031916331790556107a1806100326000396000f3fe608060405234801561001057600080fd5b506004361061006d5760003560e01c806312d43a51146100725780636bb22fd714610096578063790b5a6c146100c45780637bc6729b146101005780638d0fedb0146101085780639c35b49714610147578063cfad57a21461016d575b600080fd5b61007a610193565b604080516001600160a01b039092168252519081900360200190f35b6100c2600480360360408110156100ac57600080fd5b506001600160a01b0381351690602001356101a2565b005b6100c2600480360360808110156100da57600080fd5b506001600160a01b038135811691602081013582169160408201351690606001356102b7565b6100c2610383565b61012e6004803603602081101561011e57600080fd5b50356001600160a01b0316610497565b6040805192835290151560208301528051918290030190f35b6100c26004803603602081101561015d57600080fd5b50356001600160a01b03166104b3565b6100c26004803603602081101561018357600080fd5b50356001600160a01b0316610598565b6000546001600160a01b031681565b6000546001600160a01b031633146101ef576040805162461bcd60e51b8152602060048201526015602482015260008051602061072a833981519152604482015290519081900360640190fd5b6001600160a01b038216610248576040805162461bcd60e51b815260206004820152601b60248201527a476f7665726e61626c653a20696e76616c6964206164647265737360281b604482015290519081900360640190fd5b6000546001600160a01b03838116911614156102a9576040805162461bcd60e51b815260206004820152601b60248201527a476f7665726e61626c653a2073616d6520676f7665726e616e636560281b604482015290519081900360640190fd5b6102b382826106ae565b5050565b6000546001600160a01b03163314610304576040805162461bcd60e51b8152602060048201526015602482015260008051602061072a833981519152604482015290519081900360640190fd5b60408051631e42d69b60e21b81526001600160a01b0385811660048301819052602483015284811660448301526064820184905291519186169163790b5a6c9160848082019260009290919082900301818387803b15801561036557600080fd5b505af1158015610379573d6000803e3d6000fd5b5050505050505050565b336000908152600160205260409020805442106103e6576040805162461bcd60e51b815260206004820152601c60248201527b11dbdd995c9b98589b194e88191958591b1a5b9948195e1c1a5c995960221b604482015290519081900360640190fd5b60018082015460ff1615151461042d5760405162461bcd60e51b815260040180806020018281038252602281526020018061074a6022913960400191505060405180910390fd5b6000805433808352600160208190526040808520858155909101805460ff1916905583546001600160a01b03191682178455516001600160a01b0390921692909183917f5f56bee8cffbe9a78652a74a60705edede02af10b0bbb888ca44b79a0d42ce8091a35050565b6001602081905260009182526040909120805491015460ff1682565b6000546001600160a01b03163314610500576040805162461bcd60e51b8152602060048201526015602482015260008051602061072a833981519152604482015290519081900360640190fd5b6001600160a01b0381166000908152600160208190526040909120015460ff16610571576040805162461bcd60e51b815260206004820152601f60248201527f476f7665726e61626c653a2070726f706f73616c206e6f742061637469766500604482015290519081900360640190fd5b6001600160a01b03166000908152600160208190526040822091825501805460ff19169055565b6000546001600160a01b031633146105e5576040805162461bcd60e51b8152602060048201526015602482015260008051602061072a833981519152604482015290519081900360640190fd5b6001600160a01b03811661063e576040805162461bcd60e51b815260206004820152601b60248201527a476f7665726e61626c653a20696e76616c6964206164647265737360281b604482015290519081900360640190fd5b6000546001600160a01b038281169116141561069f576040805162461bcd60e51b815260206004820152601b60248201527a476f7665726e61626c653a2073616d6520676f7665726e616e636560281b604482015290519081900360640190fd5b6106ab816000196106ae565b50565b604080518082018252828152600160208083018281526001600160a01b038716600081815284845286902094518555905193909201805460ff1916931515939093179092558251848152925190927f02dd0697be46e764c3ba81094158781c31b235d03bb27a0daf1bdef0ec1084dd92908290030190a2505056fe476f7665726e61626c653a20666f7262696464656e0000000000000000000000476f7665726e61626c653a2070726f706f73616c206973206e6f7420616374697665a264697066735822122008a36170079fb17778ab5e7d3640b094ce4f4f9691bc951087bd9b04e78e734d64736f6c634300060c0033","linkReferences":{}},"methodIdentifiers":{"acceptGov()":"7bc6729b","cancelGovProposal(address)":"9c35b497","gov()":"12d43a51","govProposals(address)":"8d0fedb0","setGov(address)":"cfad57a2","setGovWithDeadline(address,uint256)":"6bb22fd7","stakeForAccount(address,address,address,uint256)":"790b5a6c"},"id":92}