{"abi":[{"type":"constructor","inputs":[{"name":"initialOwner","type":"address","internalType":"address"}],"stateMutability":"nonpayable"},{"type":"function","name":"DOMAIN_SEPARATOR","inputs":[],"outputs":[{"name":"","type":"bytes32","internalType":"bytes32"}],"stateMutability":"view"},{"type":"function","name":"allowance","inputs":[{"name":"owner","type":"address","internalType":"address"},{"name":"spender","type":"address","internalType":"address"}],"outputs":[{"name":"","type":"uint256","internalType":"uint256"}],"stateMutability":"view"},{"type":"function","name":"approve","inputs":[{"name":"spender","type":"address","internalType":"address"},{"name":"amount","type":"uint256","internalType":"uint256"}],"outputs":[{"name":"","type":"bool","internalType":"bool"}],"stateMutability":"nonpayable"},{"type":"function","name":"balanceOf","inputs":[{"name":"account","type":"address","internalType":"address"}],"outputs":[{"name":"","type":"uint256","internalType":"uint256"}],"stateMutability":"view"},{"type":"function","name":"decimals","inputs":[],"outputs":[{"name":"","type":"uint8","internalType":"uint8"}],"stateMutability":"view"},{"type":"function","name":"decreaseAllowance","inputs":[{"name":"spender","type":"address","internalType":"address"},{"name":"subtractedValue","type":"uint256","internalType":"uint256"}],"outputs":[{"name":"","type":"bool","internalType":"bool"}],"stateMutability":"nonpayable"},{"type":"function","name":"eip712Domain","inputs":[],"outputs":[{"name":"fields","type":"bytes1","internalType":"bytes1"},{"name":"name","type":"string","internalType":"string"},{"name":"version","type":"string","internalType":"string"},{"name":"chainId","type":"uint256","internalType":"uint256"},{"name":"verifyingContract","type":"address","internalType":"address"},{"name":"salt","type":"bytes32","internalType":"bytes32"},{"name":"extensions","type":"uint256[]","internalType":"uint256[]"}],"stateMutability":"view"},{"type":"function","name":"increaseAllowance","inputs":[{"name":"spender","type":"address","internalType":"address"},{"name":"addedValue","type":"uint256","internalType":"uint256"}],"outputs":[{"name":"","type":"bool","internalType":"bool"}],"stateMutability":"nonpayable"},{"type":"function","name":"name","inputs":[],"outputs":[{"name":"","type":"string","internalType":"string"}],"stateMutability":"view"},{"type":"function","name":"nonces","inputs":[{"name":"owner","type":"address","internalType":"address"}],"outputs":[{"name":"","type":"uint256","internalType":"uint256"}],"stateMutability":"view"},{"type":"function","name":"owner","inputs":[],"outputs":[{"name":"","type":"address","internalType":"address"}],"stateMutability":"view"},{"type":"function","name":"permit","inputs":[{"name":"owner","type":"address","internalType":"address"},{"name":"spender","type":"address","internalType":"address"},{"name":"value","type":"uint256","internalType":"uint256"},{"name":"deadline","type":"uint256","internalType":"uint256"},{"name":"v","type":"uint8","internalType":"uint8"},{"name":"r","type":"bytes32","internalType":"bytes32"},{"name":"s","type":"bytes32","internalType":"bytes32"}],"outputs":[],"stateMutability":"nonpayable"},{"type":"function","name":"renounceOwnership","inputs":[],"outputs":[],"stateMutability":"nonpayable"},{"type":"function","name":"symbol","inputs":[],"outputs":[{"name":"","type":"string","internalType":"string"}],"stateMutability":"view"},{"type":"function","name":"totalSupply","inputs":[],"outputs":[{"name":"","type":"uint256","internalType":"uint256"}],"stateMutability":"view"},{"type":"function","name":"transfer","inputs":[{"name":"to","type":"address","internalType":"address"},{"name":"amount","type":"uint256","internalType":"uint256"}],"outputs":[{"name":"","type":"bool","internalType":"bool"}],"stateMutability":"nonpayable"},{"type":"function","name":"transferFrom","inputs":[{"name":"from","type":"address","internalType":"address"},{"name":"to","type":"address","internalType":"address"},{"name":"amount","type":"uint256","internalType":"uint256"}],"outputs":[{"name":"","type":"bool","internalType":"bool"}],"stateMutability":"nonpayable"},{"type":"function","name":"transferOwnership","inputs":[{"name":"newOwner","type":"address","internalType":"address"}],"outputs":[],"stateMutability":"nonpayable"},{"type":"event","name":"Approval","inputs":[{"name":"owner","type":"address","indexed":true,"internalType":"address"},{"name":"spender","type":"address","indexed":true,"internalType":"address"},{"name":"value","type":"uint256","indexed":false,"internalType":"uint256"}],"anonymous":false},{"type":"event","name":"EIP712DomainChanged","inputs":[],"anonymous":false},{"type":"event","name":"OwnershipTransferred","inputs":[{"name":"previousOwner","type":"address","indexed":true,"internalType":"address"},{"name":"newOwner","type":"address","indexed":true,"internalType":"address"}],"anonymous":false},{"type":"event","name":"Transfer","inputs":[{"name":"from","type":"address","indexed":true,"internalType":"address"},{"name":"to","type":"address","indexed":true,"internalType":"address"},{"name":"value","type":"uint256","indexed":false,"internalType":"uint256"}],"anonymous":false},{"type":"error","name":"InvalidShortString","inputs":[]},{"type":"error","name":"StringTooLong","inputs":[{"name":"str","type":"string","internalType":"string"}]}],"bytecode":{"object":"0x61016060405234801562000011575f80fd5b506040516200192e3803806200192e833981016040819052620000349162000378565b604051806040016040528060138152602001722d22aaa99022bc31b430b733b2902a37b5b2b760691b81525080604051806040016040528060018152602001603160f81b815250604051806040016040528060138152602001722d22aaa99022bc31b430b733b2902a37b5b2b760691b815250604051806040016040528060038152602001625a555360e81b8152508160039081620000d4919062000446565b506004620000e3828262000446565b50620000f591508390506005620001e3565b6101205262000106816006620001e3565b61014052815160208084019190912060e052815190820120610100524660a0526200019360e05161010051604080517f8b73c3c69bb8fe3d512ecc4cf759cc79239f7b179b0ffacaa9a75d522b39400f60208201529081019290925260608201524660808201523060a08201525f9060c00160405160208183030381529060405280519060200120905090565b60805250503060c05250620001a8336200021b565b620001d133620001bb6012600a6200061b565b620001cb906305f5e1006200062b565b6200026c565b620001dc816200021b565b50620006cc565b5f6020835110156200020257620001fa8362000331565b905062000215565b816200020f848262000446565b5060ff90505b92915050565b600980546001600160a01b038381166001600160a01b0319831681179093556040519116919082907f8be0079c531659141344cd1fd0a4f28419497f9722a3daafe3b4186f6b6457e0905f90a35050565b6001600160a01b038216620002c85760405162461bcd60e51b815260206004820152601f60248201527f45524332303a206d696e7420746f20746865207a65726f20616464726573730060448201526064015b60405180910390fd5b8060025f828254620002db919062000645565b90915550506001600160a01b0382165f81815260208181526040808320805486019055518481527fddf252ad1be2c89b69c2b068fc378daa952ba7f163c4a11628f55a4df523b3ef910160405180910390a35050565b5f80829050601f815111156200035e578260405163305a27a960e01b8152600401620002bf91906200065b565b80516200036b82620006a8565b179392505050565b505050565b5f6020828403121562000389575f80fd5b81516001600160a01b0381168114620003a0575f80fd5b9392505050565b634e487b7160e01b5f52604160045260245ffd5b600181811c90821680620003d057607f821691505b602082108103620003ef57634e487b7160e01b5f52602260045260245ffd5b50919050565b601f82111562000373575f81815260208120601f850160051c810160208610156200041d5750805b601f850160051c820191505b818110156200043e5782815560010162000429565b505050505050565b81516001600160401b03811115620004625762000462620003a7565b6200047a81620004738454620003bb565b84620003f5565b602080601f831160018114620004b0575f8415620004985750858301515b5f19600386901b1c1916600185901b1785556200043e565b5f85815260208120601f198616915b82811015620004e057888601518255948401946001909101908401620004bf565b5085821015620004fe57878501515f19600388901b60f8161c191681555b5050505050600190811b01905550565b634e487b7160e01b5f52601160045260245ffd5b600181815b808511156200056257815f19048211156200054657620005466200050e565b808516156200055457918102915b93841c939080029062000527565b509250929050565b5f826200057a5750600162000215565b816200058857505f62000215565b8160018114620005a15760028114620005ac57620005cc565b600191505062000215565b60ff841115620005c057620005c06200050e565b50506001821b62000215565b5060208310610133831016604e8410600b8410161715620005f1575081810a62000215565b620005fd838362000522565b805f19048211156200061357620006136200050e565b029392505050565b5f620003a060ff8416836200056a565b80820281158282048414176200021557620002156200050e565b808201808211156200021557620002156200050e565b5f6020808352835180828501525f5b8181101562000688578581018301518582016040015282016200066a565b505f604082860101526040601f19601f8301168501019250505092915050565b80516020808301519190811015620003ef575f1960209190910360031b1b16919050565b60805160a05160c05160e0516101005161012051610140516112106200071e5f395f6103c201525f61039701525f610ad501525f610aad01525f610a0801525f610a3201525f610a5c01526112105ff3fe608060405234801561000f575f80fd5b50600436106100e4575f3560e01c806306fdde03146100e8578063095ea7b31461010657806318160ddd1461012957806323b872dd1461013b578063313ce5671461014e5780633644e5151461015d578063395093511461016557806370a0823114610178578063715018a6146101a05780637ecebe00146101aa57806384b0196e146101bd5780638da5cb5b146101d857806395d89b41146101f8578063a457c2d714610200578063a9059cbb14610213578063d505accf14610226578063dd62ed3e14610239578063f2fde38b1461024c575b5f80fd5b6100f061025f565b6040516100fd9190610f95565b60405180910390f35b610119610114366004610fc9565b6102ef565b60405190151581526020016100fd565b6002545b6040519081526020016100fd565b610119610149366004610ff1565b610308565b604051601281526020016100fd565b61012d61032b565b610119610173366004610fc9565b610339565b61012d61018636600461102a565b6001600160a01b03165f9081526020819052604090205490565b6101a861035a565b005b61012d6101b836600461102a565b61036d565b6101c561038a565b6040516100fd9796959493929190611043565b6101e0610411565b6040516001600160a01b0390911681526020016100fd565b6100f0610420565b61011961020e366004610fc9565b61042f565b610119610221366004610fc9565b6104ae565b6101a86102343660046110d7565b6104bb565b61012d610247366004611144565b61061c565b6101a861025a36600461102a565b610646565b60606003805461026e90611175565b80601f016020809104026020016040519081016040528092919081815260200182805461029a90611175565b80156102e55780601f106102bc576101008083540402835291602001916102e5565b820191905f5260205f20905b8154815290600101906020018083116102c857829003601f168201915b5050505050905090565b5f336102fc8185856106bf565b60019150505b92915050565b5f336103158582856107e2565b61032085858561085a565b506001949350505050565b5f6103346109fc565b905090565b5f336102fc81858561034b838361061c565b61035591906111a7565b6106bf565b610362610b25565b61036b5f610b84565b565b6001600160a01b0381165f90815260076020526040812054610302565b5f606080828080836103bd7f00000000000000000000000000000000000000000000000000000000000000006005610bd5565b6103e87f00000000000000000000000000000000000000000000000000000000000000006006610bd5565b604080515f80825260208201909252600f60f81b9b939a50919850469750309650945092509050565b6009546001600160a01b031690565b60606004805461026e90611175565b5f338161043c828661061c565b9050838110156104a15760405162461bcd60e51b815260206004820152602560248201527f45524332303a2064656372656173656420616c6c6f77616e63652062656c6f77604482015264207a65726f60d81b60648201526084015b60405180910390fd5b61032082868684036106bf565b5f336102fc81858561085a565b8342111561050b5760405162461bcd60e51b815260206004820152601d60248201527f45524332305065726d69743a206578706972656420646561646c696e650000006044820152606401610498565b5f7f6e71edae12b1b97f4d1f60370fef10105fa2faae0126114a169c64845d6126c98888886105398c610c7e565b6040805160208101969096526001600160a01b0394851690860152929091166060840152608083015260a082015260c0810186905260e0016040516020818303038152906040528051906020012090505f61059382610ca5565b90505f6105a282878787610cd1565b9050896001600160a01b0316816001600160a01b0316146106055760405162461bcd60e51b815260206004820152601e60248201527f45524332305065726d69743a20696e76616c6964207369676e617475726500006044820152606401610498565b6106108a8a8a6106bf565b50505050505050505050565b6001600160a01b039182165f90815260016020908152604080832093909416825291909152205490565b61064e610b25565b6001600160a01b0381166106b35760405162461bcd60e51b815260206004820152602660248201527f4f776e61626c653a206e6577206f776e657220697320746865207a65726f206160448201526564647265737360d01b6064820152608401610498565b6106bc81610b84565b50565b6001600160a01b0383166107215760405162461bcd60e51b8152602060048201526024808201527f45524332303a20617070726f76652066726f6d20746865207a65726f206164646044820152637265737360e01b6064820152608401610498565b6001600160a01b0382166107825760405162461bcd60e51b815260206004820152602260248201527f45524332303a20617070726f766520746f20746865207a65726f206164647265604482015261737360f01b6064820152608401610498565b6001600160a01b038381165f8181526001602090815260408083209487168084529482529182902085905590518481527f8c5be1e5ebec7d5bd14f71427d1e84f3dd0314c0f7b2291e5b200ac8c7c3b925910160405180910390a3505050565b5f6107ed848461061c565b90505f19811461085457818110156108475760405162461bcd60e51b815260206004820152601d60248201527f45524332303a20696e73756666696369656e7420616c6c6f77616e63650000006044820152606401610498565b61085484848484036106bf565b50505050565b6001600160a01b0383166108be5760405162461bcd60e51b815260206004820152602560248201527f45524332303a207472616e736665722066726f6d20746865207a65726f206164604482015264647265737360d81b6064820152608401610498565b6001600160a01b0382166109205760405162461bcd60e51b815260206004820152602360248201527f45524332303a207472616e7366657220746f20746865207a65726f206164647260448201526265737360e81b6064820152608401610498565b6001600160a01b0383165f90815260208190526040902054818110156109975760405162461bcd60e51b815260206004820152602660248201527f45524332303a207472616e7366657220616d6f756e7420657863656564732062604482015265616c616e636560d01b6064820152608401610498565b6001600160a01b038481165f81815260208181526040808320878703905593871680835291849020805487019055925185815290927fddf252ad1be2c89b69c2b068fc378daa952ba7f163c4a11628f55a4df523b3ef910160405180910390a3610854565b5f306001600160a01b037f000000000000000000000000000000000000000000000000000000000000000016148015610a5457507f000000000000000000000000000000000000000000000000000000000000000046145b15610a7e57507f000000000000000000000000000000000000000000000000000000000000000090565b610334604080517f8b73c3c69bb8fe3d512ecc4cf759cc79239f7b179b0ffacaa9a75d522b39400f60208201527f0000000000000000000000000000000000000000000000000000000000000000918101919091527f000000000000000000000000000000000000000000000000000000000000000060608201524660808201523060a08201525f9060c00160405160208183030381529060405280519060200120905090565b33610b2e610411565b6001600160a01b03161461036b5760405162461bcd60e51b815260206004820181905260248201527f4f776e61626c653a2063616c6c6572206973206e6f7420746865206f776e65726044820152606401610498565b600980546001600160a01b038381166001600160a01b0319831681179093556040519116919082907f8be0079c531659141344cd1fd0a4f28419497f9722a3daafe3b4186f6b6457e0905f90a35050565b606060ff8314610bef57610be883610cf7565b9050610302565b818054610bfb90611175565b80601f0160208091040260200160405190810160405280929190818152602001828054610c2790611175565b8015610c725780601f10610c4957610100808354040283529160200191610c72565b820191905f5260205f20905b815481529060010190602001808311610c5557829003601f168201915b50505050509050610302565b6001600160a01b0381165f9081526007602052604090208054600181018255905b50919050565b5f610302610cb16109fc565b8360405161190160f01b8152600281019290925260228201526042902090565b5f805f610ce087878787610d34565b91509150610ced81610de7565b5095945050505050565b60605f610d0383610f2b565b6040805160208082528183019092529192505f91906020820181803683375050509182525060208101929092525090565b5f806fa2a8918ca85bafe22016d0b997e4df60600160ff1b03831115610d5f57505f90506003610dde565b604080515f8082526020820180845289905260ff881692820192909252606081018690526080810185905260019060a0016020604051602081039080840390855afa158015610db0573d5f803e3d5ffd5b5050604051601f1901519150506001600160a01b038116610dd8575f60019250925050610dde565b91505f90505b94509492505050565b5f816004811115610dfa57610dfa6111c6565b03610e025750565b6001816004811115610e1657610e166111c6565b03610e5e5760405162461bcd60e51b815260206004820152601860248201527745434453413a20696e76616c6964207369676e617475726560401b6044820152606401610498565b6002816004811115610e7257610e726111c6565b03610ebf5760405162461bcd60e51b815260206004820152601f60248201527f45434453413a20696e76616c6964207369676e6174757265206c656e677468006044820152606401610498565b6003816004811115610ed357610ed36111c6565b036106bc5760405162461bcd60e51b815260206004820152602260248201527f45434453413a20696e76616c6964207369676e6174757265202773272076616c604482015261756560f01b6064820152608401610498565b5f60ff8216601f81111561030257604051632cd44ac360e21b815260040160405180910390fd5b5f81518084525f5b81811015610f7657602081850181015186830182015201610f5a565b505f602082860101526020601f19601f83011685010191505092915050565b602081525f610fa76020830184610f52565b9392505050565b80356001600160a01b0381168114610fc4575f80fd5b919050565b5f8060408385031215610fda575f80fd5b610fe383610fae565b946020939093013593505050565b5f805f60608486031215611003575f80fd5b61100c84610fae565b925061101a60208501610fae565b9150604084013590509250925092565b5f6020828403121561103a575f80fd5b610fa782610fae565b60ff60f81b881681525f602060e08184015261106260e084018a610f52565b8381036040850152611074818a610f52565b606085018990526001600160a01b038816608086015260a0850187905284810360c086015285518082528387019250908301905f5b818110156110c5578351835292840192918401916001016110a9565b50909c9b505050505050505050505050565b5f805f805f805f60e0888a0312156110ed575f80fd5b6110f688610fae565b965061110460208901610fae565b95506040880135945060608801359350608088013560ff81168114611127575f80fd5b9699959850939692959460a0840135945060c09093013592915050565b5f8060408385031215611155575f80fd5b61115e83610fae565b915061116c60208401610fae565b90509250929050565b600181811c9082168061118957607f821691505b602082108103610c9f57634e487b7160e01b5f52602260045260245ffd5b8082018082111561030257634e487b7160e01b5f52601160045260245ffd5b634e487b7160e01b5f52602160045260245ffdfea2646970667358221220e2113cae25361ea66a59f778f43fa1412383c18f966e4db133650479cd8a4ffd64736f6c63430008140033","linkReferences":{}},"methodIdentifiers":{"DOMAIN_SEPARATOR()":"3644e515","allowance(address,address)":"dd62ed3e","approve(address,uint256)":"095ea7b3","balanceOf(address)":"70a08231","decimals()":"313ce567","decreaseAllowance(address,uint256)":"a457c2d7","eip712Domain()":"84b0196e","increaseAllowance(address,uint256)":"39509351","name()":"06fdde03","nonces(address)":"7ecebe00","owner()":"8da5cb5b","permit(address,address,uint256,uint256,uint8,bytes32,bytes32)":"d505accf","renounceOwnership()":"715018a6","symbol()":"95d89b41","totalSupply()":"18160ddd","transfer(address,uint256)":"a9059cbb","transferFrom(address,address,uint256)":"23b872dd","transferOwnership(address)":"f2fde38b"},"id":9}