{"abi":[{"type":"constructor","inputs":[{"name":"initialOwner","type":"address","internalType":"address"}],"stateMutability":"nonpayable"},{"type":"function","name":"DOMAIN_SEPARATOR","inputs":[],"outputs":[{"name":"","type":"bytes32","internalType":"bytes32"}],"stateMutability":"view"},{"type":"function","name":"allowance","inputs":[{"name":"owner","type":"address","internalType":"address"},{"name":"spender","type":"address","internalType":"address"}],"outputs":[{"name":"","type":"uint256","internalType":"uint256"}],"stateMutability":"view"},{"type":"function","name":"approve","inputs":[{"name":"spender","type":"address","internalType":"address"},{"name":"amount","type":"uint256","internalType":"uint256"}],"outputs":[{"name":"","type":"bool","internalType":"bool"}],"stateMutability":"nonpayable"},{"type":"function","name":"balanceOf","inputs":[{"name":"account","type":"address","internalType":"address"}],"outputs":[{"name":"","type":"uint256","internalType":"uint256"}],"stateMutability":"view"},{"type":"function","name":"decimals","inputs":[],"outputs":[{"name":"","type":"uint8","internalType":"uint8"}],"stateMutability":"view"},{"type":"function","name":"decreaseAllowance","inputs":[{"name":"spender","type":"address","internalType":"address"},{"name":"subtractedValue","type":"uint256","internalType":"uint256"}],"outputs":[{"name":"","type":"bool","internalType":"bool"}],"stateMutability":"nonpayable"},{"type":"function","name":"eip712Domain","inputs":[],"outputs":[{"name":"fields","type":"bytes1","internalType":"bytes1"},{"name":"name","type":"string","internalType":"string"},{"name":"version","type":"string","internalType":"string"},{"name":"chainId","type":"uint256","internalType":"uint256"},{"name":"verifyingContract","type":"address","internalType":"address"},{"name":"salt","type":"bytes32","internalType":"bytes32"},{"name":"extensions","type":"uint256[]","internalType":"uint256[]"}],"stateMutability":"view"},{"type":"function","name":"increaseAllowance","inputs":[{"name":"spender","type":"address","internalType":"address"},{"name":"addedValue","type":"uint256","internalType":"uint256"}],"outputs":[{"name":"","type":"bool","internalType":"bool"}],"stateMutability":"nonpayable"},{"type":"function","name":"name","inputs":[],"outputs":[{"name":"","type":"string","internalType":"string"}],"stateMutability":"view"},{"type":"function","name":"nonces","inputs":[{"name":"owner","type":"address","internalType":"address"}],"outputs":[{"name":"","type":"uint256","internalType":"uint256"}],"stateMutability":"view"},{"type":"function","name":"owner","inputs":[],"outputs":[{"name":"","type":"address","internalType":"address"}],"stateMutability":"view"},{"type":"function","name":"permit","inputs":[{"name":"owner","type":"address","internalType":"address"},{"name":"spender","type":"address","internalType":"address"},{"name":"value","type":"uint256","internalType":"uint256"},{"name":"deadline","type":"uint256","internalType":"uint256"},{"name":"v","type":"uint8","internalType":"uint8"},{"name":"r","type":"bytes32","internalType":"bytes32"},{"name":"s","type":"bytes32","internalType":"bytes32"}],"outputs":[],"stateMutability":"nonpayable"},{"type":"function","name":"renounceOwnership","inputs":[],"outputs":[],"stateMutability":"nonpayable"},{"type":"function","name":"symbol","inputs":[],"outputs":[{"name":"","type":"string","internalType":"string"}],"stateMutability":"view"},{"type":"function","name":"totalSupply","inputs":[],"outputs":[{"name":"","type":"uint256","internalType":"uint256"}],"stateMutability":"view"},{"type":"function","name":"transfer","inputs":[{"name":"to","type":"address","internalType":"address"},{"name":"amount","type":"uint256","internalType":"uint256"}],"outputs":[{"name":"","type":"bool","internalType":"bool"}],"stateMutability":"nonpayable"},{"type":"function","name":"transferFrom","inputs":[{"name":"from","type":"address","internalType":"address"},{"name":"to","type":"address","internalType":"address"},{"name":"amount","type":"uint256","internalType":"uint256"}],"outputs":[{"name":"","type":"bool","internalType":"bool"}],"stateMutability":"nonpayable"},{"type":"function","name":"transferOwnership","inputs":[{"name":"newOwner","type":"address","internalType":"address"}],"outputs":[],"stateMutability":"nonpayable"},{"type":"event","name":"Approval","inputs":[{"name":"owner","type":"address","indexed":true,"internalType":"address"},{"name":"spender","type":"address","indexed":true,"internalType":"address"},{"name":"value","type":"uint256","indexed":false,"internalType":"uint256"}],"anonymous":false},{"type":"event","name":"EIP712DomainChanged","inputs":[],"anonymous":false},{"type":"event","name":"OwnershipTransferred","inputs":[{"name":"previousOwner","type":"address","indexed":true,"internalType":"address"},{"name":"newOwner","type":"address","indexed":true,"internalType":"address"}],"anonymous":false},{"type":"event","name":"Transfer","inputs":[{"name":"from","type":"address","indexed":true,"internalType":"address"},{"name":"to","type":"address","indexed":true,"internalType":"address"},{"name":"value","type":"uint256","indexed":false,"internalType":"uint256"}],"anonymous":false},{"type":"error","name":"InvalidShortString","inputs":[]},{"type":"error","name":"StringTooLong","inputs":[{"name":"str","type":"string","internalType":"string"}]}],"bytecode":{"object":"0x610160346200053057601f19906001600160401b0390601f62001b4a3881900382810186168401929190858411858510176200043f5780859260409586528339602094859181010312620005305751906001600160a01b038216820362000530578251936200006e8562000534565b60138552808501957f5a4555532045786368616e676520546f6b656e0000000000000000000000000092838852855193620000a98562000534565b6013855283850152855193620000bf8562000534565b6003998a8652625a555360e81b8587015287519a620000de8c62000534565b600190818d52868d0193603160f81b85528051908782116200043f578254908482811c9216801562000525575b8a83101462000511578188849311620004be575b5089908883116001146200045f575f9262000453575b50505f1982841b1c191690831b1781555b8751918683116200043f5760049889548281811c9116801562000434575b8a8210146200042157878111620003d9575b5088908785116001146200037457849550908492915f9562000368575b50501b925f19911b1c19161785555b620001ad8862000598565b98610120998a52620001bf8b62000750565b98610140998a52519020998a60e0525190209061010099828b524660a052875192858401917f8b73c3c69bb8fe3d512ecc4cf759cc79239f7b179b0ffacaa9a75d522b39400f83528985015260608401524660808401523060a084015260a0835260c0830193838510908511176200035557838852825190206080523060c0526200024a3362000550565b331562000315575050506002546a52b7d2dcc80cd2e4000000928382018092116200030257507fddf252ad1be2c89b69c2b068fc378daa952ba7f163c4a11628f55a4df523b3ef620002ba9493925f9260025533835282815286832084815401905586519384523393a362000550565b519161124c9384620008fe853960805184611125015260a051846111f0015260c051846110ef015260e051846111740152518361119a01525182610595015251816105bf0152f35b601190634e487b7160e01b5f525260245ffd5b7f45524332303a206d696e7420746f20746865207a65726f206164647265737300916101049160649562461bcd60e51b865260c483015260e48201520152fd5b604186634e487b7160e01b5f525260245ffd5b015193505f8062000193565b9291948416928a5f52848a5f20945f5b8c89838310620003c15750505010620003a7575b50505050811b018555620001a2565b01519060f8845f19921b161c191690555f80808062000398565b86860151895590970196948501948893500162000384565b8a5f52895f208880870160051c8201928c881062000417575b0160051c019083905b8281106200040b57505062000176565b5f8155018390620003fb565b92508192620003f2565b60228b634e487b7160e01b5f525260245ffd5b90607f169062000164565b634e487b7160e01b5f52604160045260245ffd5b015190505f8062000135565b908686941691855f528b5f20925f5b8d828210620004a757505084116200048f575b505050811b01815562000146565b01515f1983861b60f8161c191690555f808062000481565b83850151865589979095019493840193016200046e565b909150835f52895f208880850160051c8201928c861062000507575b918791869594930160051c01915b828110620004f85750506200011f565b5f8155859450879101620004e8565b92508192620004da565b634e487b7160e01b5f52602260045260245ffd5b91607f16916200010b565b5f80fd5b604081019081106001600160401b038211176200043f57604052565b600980546001600160a01b039283166001600160a01b0319821681179092559091167f8be0079c531659141344cd1fd0a4f28419497f9722a3daafe3b4186f6b6457e05f80a3565b8051602091908281101562000634575090601f825111620005d55780825192015190808310620005c757501790565b825f19910360031b1b161790565b90604051809263305a27a960e01b82528060048301528251908160248401525f935b8285106200061a575050604492505f838284010152601f80199101168101030190fd5b8481018201518686016044015293810193859350620005f7565b6001600160401b0381116200043f576005928354926001938481811c9116801562000745575b838210146200051157601f811162000711575b5081601f8411600114620006ab57509282939183925f946200069f575b50501b915f199060031b1c191617905560ff90565b015192505f806200068a565b919083601f198116875f52845f20945f905b88838310620006f65750505010620006dd575b505050811b01905560ff90565b01515f1960f88460031b161c191690555f8080620006d0565b858701518855909601959485019487935090810190620006bd565b855f5284601f845f209201871c820191601f8601881c015b828110620007395750506200066d565b5f815501859062000729565b90607f16906200065a565b805160209081811015620007dc5750601f8251116200077d5780825192015190808310620005c757501790565b90604051809263305a27a960e01b82528060048301528251908160248401525f935b828510620007c2575050604492505f838284010152601f80199101168101030190fd5b84810182015186860160440152938101938593506200079f565b906001600160401b0382116200043f57600654926001938481811c91168015620008f2575b838210146200051157601f8111620008bb575b5081601f84116001146200085357509282939183925f9462000847575b50501b915f199060031b1c19161760065560ff90565b015192505f8062000831565b919083601f19811660065f52845f20945f905b88838310620008a0575050501062000887575b505050811b0160065560ff90565b01515f1960f88460031b161c191690555f808062000879565b85870151885590960195948501948793509081019062000866565b60065f5284601f845f20920160051c820191601f860160051c015b828110620008e657505062000814565b5f8155018590620008d6565b90607f16906200080156fe60806040818152600480361015610014575f80fd5b5f92833560e01c90816306fdde031461091f57508063095ea7b3146108f557806318160ddd146108d657806323b872dd1461080d578063313ce567146107f15780633644e515146107cd578063395093511461076657806370a082311461072f578063715018a6146106d25780637ecebe001461069a57806384b0196e1461057e5780638da5cb5b1461055557806395d89b411461048b578063a457c2d7146103e4578063a9059cbb146103b3578063d505accf146101fb578063dd62ed3e146101ae5763f2fde38b146100e6575f80fd5b346101aa5760203660031901126101aa576100ff610a2a565b90610108610a5a565b6001600160a01b03918216928315610158575050600980546001600160a01b031981168417909155167f8be0079c531659141344cd1fd0a4f28419497f9722a3daafe3b4186f6b6457e08380a380f35b906020608492519162461bcd60e51b8352820152602660248201527f4f776e61626c653a206e6577206f776e657220697320746865207a65726f206160448201526564647265737360d01b6064820152fd5b8280fd5b5050346101f757806003193601126101f757806020926101cc610a2a565b6101d4610a44565b6001600160a01b0391821683526001865283832091168252845220549051908152f35b5080fd5b508290346101f75760e03660031901126101f757610217610a2a565b61021f610a44565b906044359260643560843560ff811681036103af5781421161036c5760018060a01b0390818516928389526007602052898920908154916001830190558a519060208201927f6e71edae12b1b97f4d1f60370fef10105fa2faae0126114a169c64845d6126c98452868d840152858a1660608401528a608084015260a083015260c082015260c0815260e081018181106001600160401b03821117610359578b52519020610301916102f9916102d36110ec565b908c519161190160f01b83526002830152602282015260c43591604260a4359220611069565b919091610f56565b16036103165750610313939450610ca7565b80f35b606490602087519162461bcd60e51b8352820152601e60248201527f45524332305065726d69743a20696e76616c6964207369676e617475726500006044820152fd5b634e487b7160e01b8b526041875260248bfd5b875162461bcd60e51b8152602081850152601d60248201527f45524332305065726d69743a206578706972656420646561646c696e650000006044820152606490fd5b8680fd5b5050346101f757806003193601126101f7576020906103dd6103d3610a2a565b6024359033610b3a565b5160018152f35b5082346104885782600319360112610488576103fe610a2a565b918360243592338152600160205281812060018060a01b0386168252602052205490828210610437576020856103dd8585038733610ca7565b608490602086519162461bcd60e51b8352820152602560248201527f45524332303a2064656372656173656420616c6c6f77616e63652062656c6f77604482015264207a65726f60d81b6064820152fd5b80fd5b509190346101f757816003193601126101f757805191809380546104ae81610ab2565b8086529160019180831690811561052a57506001146104ef575b6104eb86866104d9828b0383610b19565b519182916020835260208301906109ec565b0390f35b835260208084209096505b82841061051757505050826104eb946104d992820101945f6104c8565b80548685018801529286019281016104fa565b90506104eb97506104d99450602092508693915060ff191682840152151560051b820101945f6104c8565b5050346101f757816003193601126101f75760095490516001600160a01b039091168152602090f35b5090346101aa57826003193601126101aa576105b97f0000000000000000000000000000000000000000000000000000000000000000610da5565b926105e37f0000000000000000000000000000000000000000000000000000000000000000610e9e565b90825192602092838501958587106001600160401b038811176106875750928061063d838896610630998b9996528686528151998a99600f60f81b8b5260e0868c015260e08b01906109ec565b91898303908a01526109ec565b924660608801523060808801528460a088015286840360c088015251928381520193925b82811061067057505050500390f35b835185528695509381019392810192600101610661565b634e487b7160e01b845260419052602483fd5b5050346101f75760203660031901126101f75760209181906001600160a01b036106c2610a2a565b1681526007845220549051908152f35b83346104885780600319360112610488576106eb610a5a565b600980546001600160a01b0319811690915581906001600160a01b03167f8be0079c531659141344cd1fd0a4f28419497f9722a3daafe3b4186f6b6457e08280a380f35b5050346101f75760203660031901126101f75760209181906001600160a01b03610757610a2a565b16815280845220549051908152f35b509134610488578160031936011261048857610780610a2a565b338252600160209081528383206001600160a01b03831684529052828220546024358101929083106107ba576020846103dd858533610ca7565b634e487b7160e01b815260118552602490fd5b5050346101f757816003193601126101f7576020906107ea6110ec565b9051908152f35b5050346101f757816003193601126101f7576020905160128152f35b508290346101f75760603660031901126101f757610829610a2a565b610831610a44565b91846044359460018060a01b038416815260016020528181203382526020522054905f19820361086a575b6020866103dd878787610b3a565b8482106108935750918391610888602096956103dd95033383610ca7565b91939481935061085c565b606490602087519162461bcd60e51b8352820152601d60248201527f45524332303a20696e73756666696369656e7420616c6c6f77616e63650000006044820152fd5b5050346101f757816003193601126101f7576020906002549051908152f35b5050346101f757806003193601126101f7576020906103dd610915610a2a565b6024359033610ca7565b849084346101aa57826003193601126101aa578260035461093f81610ab2565b808552906001908181169081156109c4575060011461096b575b5050506104d9826104eb940383610b19565b60038352602095507fc2575a0e9e593c00f959f8c92f12db2869c3395a3b0502d05e2516446f71f85b5b8284106109b157505050826104eb946104d99282010194610959565b8054868501880152928601928101610995565b6104eb97506104d99450602092508693915060ff191682840152151560051b82010194610959565b91908251928382525f5b848110610a16575050825f602080949584010152601f8019910116010190565b6020818301810151848301820152016109f6565b600435906001600160a01b0382168203610a4057565b5f80fd5b602435906001600160a01b0382168203610a4057565b6009546001600160a01b03163303610a6e57565b606460405162461bcd60e51b815260206004820152602060248201527f4f776e61626c653a2063616c6c6572206973206e6f7420746865206f776e65726044820152fd5b90600182811c92168015610ae0575b6020831014610acc57565b634e487b7160e01b5f52602260045260245ffd5b91607f1691610ac1565b604081019081106001600160401b03821117610b0557604052565b634e487b7160e01b5f52604160045260245ffd5b90601f801991011681019081106001600160401b03821117610b0557604052565b6001600160a01b03908116918215610c545716918215610c03575f82815280602052604081205491808310610baf57604082827fddf252ad1be2c89b69c2b068fc378daa952ba7f163c4a11628f55a4df523b3ef958760209652828652038282205586815220818154019055604051908152a3565b60405162461bcd60e51b815260206004820152602660248201527f45524332303a207472616e7366657220616d6f756e7420657863656564732062604482015265616c616e636560d01b6064820152608490fd5b60405162461bcd60e51b815260206004820152602360248201527f45524332303a207472616e7366657220746f20746865207a65726f206164647260448201526265737360e81b6064820152608490fd5b60405162461bcd60e51b815260206004820152602560248201527f45524332303a207472616e736665722066726f6d20746865207a65726f206164604482015264647265737360d81b6064820152608490fd5b6001600160a01b03908116918215610d545716918215610d045760207f8c5be1e5ebec7d5bd14f71427d1e84f3dd0314c0f7b2291e5b200ac8c7c3b92591835f526001825260405f20855f5282528060405f2055604051908152a3565b60405162461bcd60e51b815260206004820152602260248201527f45524332303a20617070726f766520746f20746865207a65726f206164647265604482015261737360f01b6064820152608490fd5b60405162461bcd60e51b8152602060048201526024808201527f45524332303a20617070726f76652066726f6d20746865207a65726f206164646044820152637265737360e01b6064820152608490fd5b60ff8114610de35760ff811690601f8211610dd15760405191610dc783610aea565b8252602082015290565b604051632cd44ac360e21b8152600490fd5b50604051600554815f610df583610ab2565b808352600193808516908115610e7d5750600114610e1e575b50610e1b92500382610b19565b90565b60055f9081527f036b6384b5eca791c62761152d0c79bb0604c104a5fb6f4eb0703f3154bb3db094602093509091905b818310610e65575050610e1b93508201015f610e0e565b85548784018501529485019486945091830191610e4e565b9050610e1b94506020925060ff191682840152151560051b8201015f610e0e565b60ff8114610ec05760ff811690601f8211610dd15760405191610dc783610aea565b50604051600654815f610ed283610ab2565b808352600193808516908115610e7d5750600114610ef75750610e1b92500382610b19565b60065f9081527ff652222313e28459528d920b65115c16c04f3efc82aaedc97be59f3f377c0d3f94602093509091905b818310610f3e575050610e1b93508201015f610e0e565b85548784018501529485019486945091830191610f27565b60058110156110555780610f675750565b60018103610faf5760405162461bcd60e51b815260206004820152601860248201527745434453413a20696e76616c6964207369676e617475726560401b6044820152606490fd5b60028103610ffc5760405162461bcd60e51b815260206004820152601f60248201527f45434453413a20696e76616c6964207369676e6174757265206c656e677468006044820152606490fd5b60031461100557565b60405162461bcd60e51b815260206004820152602260248201527f45434453413a20696e76616c6964207369676e6174757265202773272076616c604482015261756560f01b6064820152608490fd5b634e487b7160e01b5f52602160045260245ffd5b9291906fa2a8918ca85bafe22016d0b997e4df60600160ff1b0383116110e15791608094939160ff6020946040519485521684840152604083015260608201525f93849182805260015afa156110d45781516001600160a01b038116156110ce579190565b50600190565b50604051903d90823e3d90fd5b505050505f90600390565b307f00000000000000000000000000000000000000000000000000000000000000006001600160a01b031614806111ed575b15611147577f000000000000000000000000000000000000000000000000000000000000000090565b60405160208101907f8b73c3c69bb8fe3d512ecc4cf759cc79239f7b179b0ffacaa9a75d522b39400f82527f000000000000000000000000000000000000000000000000000000000000000060408201527f000000000000000000000000000000000000000000000000000000000000000060608201524660808201523060a082015260a0815260c081018181106001600160401b03821117610b055760405251902090565b507f0000000000000000000000000000000000000000000000000000000000000000461461111e56fea26469706673582212205dc905213e1ab1535b0c5506137b950b522f5048c2619112366becf9a5d5d2f064736f6c63430008140033","linkReferences":{}},"methodIdentifiers":{"DOMAIN_SEPARATOR()":"3644e515","allowance(address,address)":"dd62ed3e","approve(address,uint256)":"095ea7b3","balanceOf(address)":"70a08231","decimals()":"313ce567","decreaseAllowance(address,uint256)":"a457c2d7","eip712Domain()":"84b0196e","increaseAllowance(address,uint256)":"39509351","name()":"06fdde03","nonces(address)":"7ecebe00","owner()":"8da5cb5b","permit(address,address,uint256,uint256,uint8,bytes32,bytes32)":"d505accf","renounceOwnership()":"715018a6","symbol()":"95d89b41","totalSupply()":"18160ddd","transfer(address,uint256)":"a9059cbb","transferFrom(address,address,uint256)":"23b872dd","transferOwnership(address)":"f2fde38b"},"id":9}