{"abi":[{"type":"constructor","inputs":[{"name":"broadcaster","type":"address","internalType":"address"}],"stateMutability":"nonpayable"},{"type":"function","name":"BROADCASTER","inputs":[],"outputs":[{"name":"","type":"bytes32","internalType":"bytes32"}],"stateMutability":"view"},{"type":"function","name":"DEFAULT_ADMIN_ROLE","inputs":[],"outputs":[{"name":"","type":"bytes32","internalType":"bytes32"}],"stateMutability":"view"},{"type":"function","name":"getRoleAdmin","inputs":[{"name":"role","type":"bytes32","internalType":"bytes32"}],"outputs":[{"name":"","type":"bytes32","internalType":"bytes32"}],"stateMutability":"view"},{"type":"function","name":"grantRole","inputs":[{"name":"role","type":"bytes32","internalType":"bytes32"},{"name":"account","type":"address","internalType":"address"}],"outputs":[],"stateMutability":"nonpayable"},{"type":"function","name":"hasRole","inputs":[{"name":"role","type":"bytes32","internalType":"bytes32"},{"name":"account","type":"address","internalType":"address"}],"outputs":[{"name":"","type":"bool","internalType":"bool"}],"stateMutability":"view"},{"type":"function","name":"renounceRole","inputs":[{"name":"role","type":"bytes32","internalType":"bytes32"},{"name":"callerConfirmation","type":"address","internalType":"address"}],"outputs":[],"stateMutability":"nonpayable"},{"type":"function","name":"revokeRole","inputs":[{"name":"role","type":"bytes32","internalType":"bytes32"},{"name":"account","type":"address","internalType":"address"}],"outputs":[],"stateMutability":"nonpayable"},{"type":"function","name":"send","inputs":[{"name":"subCalls","type":"tuple[]","internalType":"struct MultiCall.SubCall[]","components":[{"name":"destination","type":"address","internalType":"address"},{"name":"payload","type":"bytes","internalType":"bytes"},{"name":"value","type":"uint256","internalType":"uint256"},{"name":"gasLimit","type":"uint256","internalType":"uint256"}]}],"outputs":[{"name":"","type":"tuple[]","internalType":"struct MultiCall.SubCallResult[]","components":[{"name":"success","type":"bool","internalType":"bool"},{"name":"data","type":"bytes","internalType":"bytes"},{"name":"gasUsed","type":"uint256","internalType":"uint256"}]}],"stateMutability":"payable"},{"type":"function","name":"supportsInterface","inputs":[{"name":"interfaceId","type":"bytes4","internalType":"bytes4"}],"outputs":[{"name":"","type":"bool","internalType":"bool"}],"stateMutability":"view"},{"type":"event","name":"RoleAdminChanged","inputs":[{"name":"role","type":"bytes32","indexed":true,"internalType":"bytes32"},{"name":"previousAdminRole","type":"bytes32","indexed":true,"internalType":"bytes32"},{"name":"newAdminRole","type":"bytes32","indexed":true,"internalType":"bytes32"}],"anonymous":false},{"type":"event","name":"RoleGranted","inputs":[{"name":"role","type":"bytes32","indexed":true,"internalType":"bytes32"},{"name":"account","type":"address","indexed":true,"internalType":"address"},{"name":"sender","type":"address","indexed":true,"internalType":"address"}],"anonymous":false},{"type":"event","name":"RoleRevoked","inputs":[{"name":"role","type":"bytes32","indexed":true,"internalType":"bytes32"},{"name":"account","type":"address","indexed":true,"internalType":"address"},{"name":"sender","type":"address","indexed":true,"internalType":"address"}],"anonymous":false},{"type":"event","name":"SubcallSent","inputs":[{"name":"subcallId","type":"uint256","indexed":false,"internalType":"uint256"},{"name":"status","type":"bool","indexed":false,"internalType":"bool"},{"name":"gasUsed","type":"uint256","indexed":false,"internalType":"uint256"}],"anonymous":false},{"type":"error","name":"AccessControlBadConfirmation","inputs":[]},{"type":"error","name":"AccessControlUnauthorizedAccount","inputs":[{"name":"account","type":"address","internalType":"address"},{"name":"neededRole","type":"bytes32","internalType":"bytes32"}]}],"bytecode":{"object":"0x60803461007257601f610a0f38819003918201601f19168301916001600160401b038311848410176100765780849260209460405283398101031261007257516001600160a01b0381168103610072576100629061005c3361008a565b50610106565b5060405161084a90816101a58239f35b5f80fd5b634e487b7160e01b5f52604160045260245ffd5b6001600160a01b03165f8181527fad3228b676f7d3cd4284a5443f17f1962b36e491b30a40b2405849e597ba5fb5602052604081205490919060ff1661010257818052816020526040822081835260205260408220600160ff1982541617905533915f805160206109ef8339815191528180a4600190565b5090565b6001600160a01b03165f8181527f104a19107bb4d7883b77a30d657889c777f8e00b7e98738d105d114f9b9c6eda60205260408120549091907f464ba7150e246db7ae889db2710e09e2d6415aad523e1e26fc52955b9b9c20d89060ff1661019f57808352826020526040832082845260205260408320600160ff198254161790555f805160206109ef833981519152339380a4600190565b50509056fe6080604081815260049182361015610015575f80fd5b5f92833560e01c91826301ffc9a7146105e657508163248a9ca3146105bc5781632f2ff15d1461059257816336568abe1461054c57816391d1485414610506578163a217fddf146104eb578163ca9f4a0914610105578163d547741f146100c2575063f8d9de4e14610085575f80fd5b346100be57816003193601126100be57602090517f464ba7150e246db7ae889db2710e09e2d6415aad523e1e26fc52955b9b9c20d88152f35b5080fd5b919050346101015780600319360112610101576100fd91356100f860016100e7610639565b9383875286602052862001546106e6565b6107a1565b5080f35b8280fd5b82846020806003193601126100be578335936001600160401b03908186116104e757366023870112156104e75785810135906101486101438361068c565b610653565b968488848152016024809460051b830101913683116104e357848101915b83831061040757505050507f464ba7150e246db7ae889db2710e09e2d6415aad523e1e26fc52955b9b9c20d8808652858552868620338752855260ff8787205416156103ed5750869493929651906101c06101438361068c565b95828752601f1998896101d28561068c565b0190875b8281106103a357505050855b83811061029c5750505050508351938185019282865284518094528186019083838660051b89010196019781935b86851061021d5788880389f35b90919293949596603f19898203018552868a51918251151581528482840151606090818585015280518092850152885b8281106102845750506080818401810189905294860151868401529c83019c601f0116019091019796956001019401929190610210565b818101860151858201608001528c958994500161024d565b88889a9697985a8a8a81806102b1888a6106be565b51805184820151988201516060928301518a51939a8701926001600160a01b031690f193863d156103975761030e913d6102ed610143826106a3565b9081528095853d92013e5b61030282826106be565b519615158097526106be565b5101525a81039081116103855790817f1862a1a6b74836381892addbc93be21287b285b6d616639fc618b0bc849ea53793928d8f8761034c916106be565b5101528c51918583528b8301528c820152a15f1981146103735760010198969594986101e2565b634e487b7160e01b8852601183528488fd5b634e487b7160e01b8b5260118652878bfd5b86935061030e916102f8565b8a9b9798999b516060808201828110858211176103db578d528b8252818b0152808c018b90528c82018a0152969a98979687016101d6565b634e487b7160e01b8d5260418852898dfd5b60449287519263e2517d3f60e01b84523390840152820152fd5b82358781116104df5782016080908160231982360301126104db578b519182018281108a8211176104c9578c52808801356001600160a01b03811681036104c55782526044808201358a81116104c157820190366043830112156104c1578982013590610476610143836106a3565b92828452368284830101116104bd578f90938f8f85608496829b9996839b990183860137830101528685015260648201359084015201356060820152815201920191610166565b8e80fd5b8c80fd5b8b80fd5b634e487b7160e01b8c5260418852888cfd5b8a80fd5b8980fd5b8780fd5b8380fd5b5050346100be57816003193601126100be5751908152602090f35b9050346101015781600319360112610101578160209360ff92610527610639565b903582528186528282206001600160a01b039091168252855220549151911615158152f35b8383346100be57806003193601126100be57610566610639565b90336001600160a01b0383160361058357506100fd9192356107a1565b5163334bd91960e11b81528390fd5b919050346101015780600319360112610101576100fd91356105b760016100e7610639565b610725565b90503461010157602036600319011261010157816020936001923581528085522001549051908152f35b849134610101576020366003190112610101573563ffffffff60e01b81168091036101015760209250637965db0b60e01b8114908115610628575b5015158152f35b6301ffc9a760e01b14905083610621565b602435906001600160a01b038216820361064f57565b5f80fd5b6040519190601f01601f191682016001600160401b0381118382101761067857604052565b634e487b7160e01b5f52604160045260245ffd5b6001600160401b0381116106785760051b60200190565b6001600160401b03811161067857601f01601f191660200190565b80518210156106d25760209160051b010190565b634e487b7160e01b5f52603260045260245ffd5b805f525f60205260405f20335f5260205260ff60405f205416156107075750565b6044906040519063e2517d3f60e01b82523360048301526024820152fd5b905f9180835282602052604083209160018060a01b03169182845260205260ff604084205416155f1461079c57808352826020526040832082845260205260408320600160ff198254161790557f2f8788117e7eff1d82e926ec794901d17c78024a50270940304540a733656f0d339380a4600190565b505090565b905f9180835282602052604083209160018060a01b03169182845260205260ff6040842054165f1461079c5780835282602052604083208284526020526040832060ff1981541690557ff6391f5c32d9c69d2a47ea670b442974b53935d1edc7fd64eb21e047a839171b339380a460019056fea26469706673582212202b1fad8b45b5e70f0e62e8ce6a9f43ab36557c33231736af5c127fe30a443cef64736f6c634300081400332f8788117e7eff1d82e926ec794901d17c78024a50270940304540a733656f0d","linkReferences":{}},"methodIdentifiers":{"BROADCASTER()":"f8d9de4e","DEFAULT_ADMIN_ROLE()":"a217fddf","getRoleAdmin(bytes32)":"248a9ca3","grantRole(bytes32,address)":"2f2ff15d","hasRole(bytes32,address)":"91d14854","renounceRole(bytes32,address)":"36568abe","revokeRole(bytes32,address)":"d547741f","send((address,bytes,uint256,uint256)[])":"ca9f4a09","supportsInterface(bytes4)":"01ffc9a7"},"id":0}