{"abi":[{"type":"constructor","inputs":[{"name":"broadcaster","type":"address","internalType":"address"}],"stateMutability":"nonpayable"},{"type":"function","name":"BROADCASTER","inputs":[],"outputs":[{"name":"","type":"bytes32","internalType":"bytes32"}],"stateMutability":"view"},{"type":"function","name":"DEFAULT_ADMIN_ROLE","inputs":[],"outputs":[{"name":"","type":"bytes32","internalType":"bytes32"}],"stateMutability":"view"},{"type":"function","name":"getRoleAdmin","inputs":[{"name":"role","type":"bytes32","internalType":"bytes32"}],"outputs":[{"name":"","type":"bytes32","internalType":"bytes32"}],"stateMutability":"view"},{"type":"function","name":"grantRole","inputs":[{"name":"role","type":"bytes32","internalType":"bytes32"},{"name":"account","type":"address","internalType":"address"}],"outputs":[],"stateMutability":"nonpayable"},{"type":"function","name":"hasRole","inputs":[{"name":"role","type":"bytes32","internalType":"bytes32"},{"name":"account","type":"address","internalType":"address"}],"outputs":[{"name":"","type":"bool","internalType":"bool"}],"stateMutability":"view"},{"type":"function","name":"renounceRole","inputs":[{"name":"role","type":"bytes32","internalType":"bytes32"},{"name":"callerConfirmation","type":"address","internalType":"address"}],"outputs":[],"stateMutability":"nonpayable"},{"type":"function","name":"revokeRole","inputs":[{"name":"role","type":"bytes32","internalType":"bytes32"},{"name":"account","type":"address","internalType":"address"}],"outputs":[],"stateMutability":"nonpayable"},{"type":"function","name":"send","inputs":[{"name":"subCalls","type":"tuple[]","internalType":"struct MultiCall.SubCall[]","components":[{"name":"destination","type":"address","internalType":"address"},{"name":"payload","type":"bytes","internalType":"bytes"},{"name":"value","type":"uint256","internalType":"uint256"},{"name":"gasLimit","type":"uint256","internalType":"uint256"}]}],"outputs":[{"name":"","type":"tuple[]","internalType":"struct MultiCall.SubCallResult[]","components":[{"name":"success","type":"bool","internalType":"bool"},{"name":"data","type":"bytes","internalType":"bytes"},{"name":"gasUsed","type":"uint256","internalType":"uint256"}]}],"stateMutability":"payable"},{"type":"function","name":"supportsInterface","inputs":[{"name":"interfaceId","type":"bytes4","internalType":"bytes4"}],"outputs":[{"name":"","type":"bool","internalType":"bool"}],"stateMutability":"view"},{"type":"event","name":"RoleAdminChanged","inputs":[{"name":"role","type":"bytes32","indexed":true,"internalType":"bytes32"},{"name":"previousAdminRole","type":"bytes32","indexed":true,"internalType":"bytes32"},{"name":"newAdminRole","type":"bytes32","indexed":true,"internalType":"bytes32"}],"anonymous":false},{"type":"event","name":"RoleGranted","inputs":[{"name":"role","type":"bytes32","indexed":true,"internalType":"bytes32"},{"name":"account","type":"address","indexed":true,"internalType":"address"},{"name":"sender","type":"address","indexed":true,"internalType":"address"}],"anonymous":false},{"type":"event","name":"RoleRevoked","inputs":[{"name":"role","type":"bytes32","indexed":true,"internalType":"bytes32"},{"name":"account","type":"address","indexed":true,"internalType":"address"},{"name":"sender","type":"address","indexed":true,"internalType":"address"}],"anonymous":false},{"type":"event","name":"SubcallSent","inputs":[{"name":"subcallId","type":"uint256","indexed":false,"internalType":"uint256"},{"name":"status","type":"bool","indexed":false,"internalType":"bool"},{"name":"gasUsed","type":"uint256","indexed":false,"internalType":"uint256"}],"anonymous":false},{"type":"error","name":"AccessControlBadConfirmation","inputs":[]},{"type":"error","name":"AccessControlUnauthorizedAccount","inputs":[{"name":"account","type":"address","internalType":"address"},{"name":"neededRole","type":"bytes32","internalType":"bytes32"}]}],"bytecode":{"object":"0x608060405234801561000f575f80fd5b50604051610b1d380380610b1d83398101604081905261002e91610113565b6100385f3361006a565b506100637f464ba7150e246db7ae889db2710e09e2d6415aad523e1e26fc52955b9b9c20d88261006a565b5050610140565b5f828152602081815260408083206001600160a01b038516845290915281205460ff1661010a575f838152602081815260408083206001600160a01b03861684529091529020805460ff191660011790556100c23390565b6001600160a01b0316826001600160a01b0316847f2f8788117e7eff1d82e926ec794901d17c78024a50270940304540a733656f0d60405160405180910390a450600161010d565b505f5b92915050565b5f60208284031215610123575f80fd5b81516001600160a01b0381168114610139575f80fd5b9392505050565b6109d08061014d5f395ff3fe608060405260043610610075575f3560e01c806301ffc9a714610079578063248a9ca3146100ad5780632f2ff15d146100da57806336568abe146100fb57806391d148541461011a578063a217fddf14610139578063ca9f4a091461014c578063d547741f1461016c578063f8d9de4e1461018b575b5f80fd5b348015610084575f80fd5b50610098610093366004610615565b6101be565b60405190151581526020015b60405180910390f35b3480156100b8575f80fd5b506100cc6100c7366004610643565b6101f4565b6040519081526020016100a4565b3480156100e5575f80fd5b506100f96100f4366004610675565b610208565b005b348015610106575f80fd5b506100f9610115366004610675565b61022a565b348015610125575f80fd5b50610098610134366004610675565b610262565b348015610144575f80fd5b506100cc5f81565b61015f61015a36600461070b565b61028a565b6040516100a49190610891565b348015610177575f80fd5b506100f9610186366004610675565b6104b3565b348015610196575f80fd5b506100cc7f464ba7150e246db7ae889db2710e09e2d6415aad523e1e26fc52955b9b9c20d881565b5f6001600160e01b03198216637965db0b60e01b14806101ee57506301ffc9a760e01b6001600160e01b03198316145b92915050565b5f9081526020819052604090206001015490565b610211826101f4565b61021a816104cf565b61022483836104dc565b50505050565b6001600160a01b03811633146102535760405163334bd91960e11b815260040160405180910390fd5b61025d828261056b565b505050565b5f918252602082815260408084206001600160a01b0393909316845291905290205460ff1690565b60607f464ba7150e246db7ae889db2710e09e2d6415aad523e1e26fc52955b9b9c20d86102b6816104cf565b82515f816001600160401b038111156102d1576102d161069f565b60405190808252806020026020018201604052801561032657816020015b61031360405180606001604052805f15158152602001606081526020015f81525090565b8152602001906001900390816102ef5790505b5090505f5b828110156104aa575f5a90505f87838151811061034a5761034a61092c565b602002602001015190505f815f015190505f826020015190505f80836001600160a01b03168560400151866060015190856040516103889190610940565b5f60405180830381858888f193505050503d805f81146103c3576040519150601f19603f3d011682016040523d82523d5f602084013e6103c8565b606091505b5091509150818888815181106103e0576103e061092c565b60209081029190910101519015159052875181908990899081106104065761040661092c565b6020026020010151602001819052505f5a610421908861096f565b9050808989815181106104365761043661092c565b602002602001015160400181815250507f1862a1a6b74836381892addbc93be21287b285b6d616639fc618b0bc849ea53788848360405161048a939291909283529015156020830152604082015260600190565b60405180910390a150505050505050806104a390610982565b905061032b565b50949350505050565b6104bc826101f4565b6104c5816104cf565b610224838361056b565b6104d981336105d4565b50565b5f6104e78383610262565b610564575f838152602081815260408083206001600160a01b03861684529091529020805460ff1916600117905561051c3390565b6001600160a01b0316826001600160a01b0316847f2f8788117e7eff1d82e926ec794901d17c78024a50270940304540a733656f0d60405160405180910390a45060016101ee565b505f6101ee565b5f6105768383610262565b15610564575f838152602081815260408083206001600160a01b0386168085529252808320805460ff1916905551339286917ff6391f5c32d9c69d2a47ea670b442974b53935d1edc7fd64eb21e047a839171b9190a45060016101ee565b6105de8282610262565b6106115760405163e2517d3f60e01b81526001600160a01b03821660048201526024810183905260440160405180910390fd5b5050565b5f60208284031215610625575f80fd5b81356001600160e01b03198116811461063c575f80fd5b9392505050565b5f60208284031215610653575f80fd5b5035919050565b80356001600160a01b0381168114610670575f80fd5b919050565b5f8060408385031215610686575f80fd5b823591506106966020840161065a565b90509250929050565b634e487b7160e01b5f52604160045260245ffd5b604051608081016001600160401b03811182821017156106d5576106d561069f565b60405290565b604051601f8201601f191681016001600160401b03811182821017156107035761070361069f565b604052919050565b5f602080838503121561071c575f80fd5b82356001600160401b0380821115610732575f80fd5b818501915085601f830112610745575f80fd5b8135818111156107575761075761069f565b8060051b6107668582016106db565b918252838101850191858101908984111561077f575f80fd5b86860192505b838310156108625782358581111561079b575f80fd5b8601601f196080828d03820112156107b2575f8081fd5b6107ba6106b3565b6107c58a840161065a565b8152604080840135898111156107da575f8081fd5b8401603f81018f136107eb575f8081fd5b8b8101358a8111156107ff576107ff61069f565b61080f8d86601f840116016106db565b94508085528f83828401011115610825575f8081fd5b808383018e8701375f9085018d015250818b0192909252606083810135928201929092526080909201359082015282529186019190860190610785565b9998505050505050505050565b5f5b83811015610889578181015183820152602001610871565b50505f910152565b5f6020808301818452808551808352604092508286019150828160051b8701018488015f5b8381101561091e57603f198984030185528151606081511515855288820151818a87015280518083880152608092506108f4818489018d850161086f565b92890151868a01525095880195601f91909101601f191690930190920191908601906001016108b6565b509098975050505050505050565b634e487b7160e01b5f52603260045260245ffd5b5f825161095181846020870161086f565b9190910192915050565b634e487b7160e01b5f52601160045260245ffd5b818103818111156101ee576101ee61095b565b5f600182016109935761099361095b565b506001019056fea264697066735822122080b9c85e411fb2aaf1595027186695dd169a00d271307188e9aa136f44dbd4b964736f6c63430008140033","linkReferences":{}},"methodIdentifiers":{"BROADCASTER()":"f8d9de4e","DEFAULT_ADMIN_ROLE()":"a217fddf","getRoleAdmin(bytes32)":"248a9ca3","grantRole(bytes32,address)":"2f2ff15d","hasRole(bytes32,address)":"91d14854","renounceRole(bytes32,address)":"36568abe","revokeRole(bytes32,address)":"d547741f","send((address,bytes,uint256,uint256)[])":"ca9f4a09","supportsInterface(bytes4)":"01ffc9a7"},"id":0}