{"abi":[{"type":"constructor","inputs":[{"name":"_chef","type":"address","internalType":"contract MasterChef"},{"name":"_cake","type":"address","internalType":"contract IERC20"},{"name":"_admin","type":"address","internalType":"address"},{"name":"_receiver","type":"address","internalType":"address"}],"stateMutability":"nonpayable"},{"type":"function","name":"adminAddress","inputs":[],"outputs":[{"name":"","type":"address","internalType":"address"}],"stateMutability":"view"},{"type":"function","name":"cake","inputs":[],"outputs":[{"name":"","type":"address","internalType":"contract IERC20"}],"stateMutability":"view"},{"type":"function","name":"chef","inputs":[],"outputs":[{"name":"","type":"address","internalType":"contract MasterChef"}],"stateMutability":"view"},{"type":"function","name":"emergencyWithdraw","inputs":[{"name":"_token","type":"address","internalType":"contract IERC20"},{"name":"_amount","type":"uint256","internalType":"uint256"}],"outputs":[],"stateMutability":"nonpayable"},{"type":"function","name":"harvest","inputs":[{"name":"_pid","type":"uint256","internalType":"uint256"}],"outputs":[],"stateMutability":"nonpayable"},{"type":"function","name":"lptoken","inputs":[],"outputs":[{"name":"","type":"address","internalType":"contract IERC20"}],"stateMutability":"view"},{"type":"function","name":"owner","inputs":[],"outputs":[{"name":"","type":"address","internalType":"address"}],"stateMutability":"view"},{"type":"function","name":"pendingReward","inputs":[{"name":"_pid","type":"uint256","internalType":"uint256"}],"outputs":[{"name":"","type":"uint256","internalType":"uint256"}],"stateMutability":"view"},{"type":"function","name":"receiver","inputs":[],"outputs":[{"name":"","type":"address","internalType":"address"}],"stateMutability":"view"},{"type":"function","name":"renounceOwnership","inputs":[],"outputs":[],"stateMutability":"nonpayable"},{"type":"function","name":"setAdmin","inputs":[{"name":"_admin","type":"address","internalType":"address"}],"outputs":[],"stateMutability":"nonpayable"},{"type":"function","name":"setReceiver","inputs":[{"name":"_receiver","type":"address","internalType":"address"}],"outputs":[],"stateMutability":"nonpayable"},{"type":"function","name":"startFarming","inputs":[{"name":"_pid","type":"uint256","internalType":"uint256"},{"name":"_lptoken","type":"address","internalType":"contract IERC20"},{"name":"_amount","type":"uint256","internalType":"uint256"}],"outputs":[],"stateMutability":"nonpayable"},{"type":"function","name":"transferOwnership","inputs":[{"name":"newOwner","type":"address","internalType":"address"}],"outputs":[],"stateMutability":"nonpayable"},{"type":"event","name":"EmergencyWithdraw","inputs":[{"name":"user","type":"address","indexed":true,"internalType":"address"},{"name":"amount","type":"uint256","indexed":false,"internalType":"uint256"}],"anonymous":false},{"type":"event","name":"Harvest","inputs":[{"name":"user","type":"address","indexed":true,"internalType":"address"},{"name":"pid","type":"uint256","indexed":true,"internalType":"uint256"}],"anonymous":false},{"type":"event","name":"OwnershipTransferred","inputs":[{"name":"previousOwner","type":"address","indexed":true,"internalType":"address"},{"name":"newOwner","type":"address","indexed":true,"internalType":"address"}],"anonymous":false},{"type":"event","name":"StartFarming","inputs":[{"name":"user","type":"address","indexed":true,"internalType":"address"},{"name":"pid","type":"uint256","indexed":true,"internalType":"uint256"}],"anonymous":false}],"bytecode":{"object":"0x608060405234801561001057600080fd5b50604051610f02380380610f028339818101604052608081101561003357600080fd5b508051602082015160408301516060909301519192909160006100546100f1565b600080546001600160a01b0319166001600160a01b0383169081178255604051929350917f8be0079c531659141344cd1fd0a4f28419497f9722a3daafe3b4186f6b6457e0908290a350600180546001600160a01b039586166001600160a01b03199182161790915560058054948616948216949094179093556002805492851692841692909217909155600380549190931691161790556100f5565b3390565b610dfe806101046000396000f3fe608060405234801561001057600080fd5b50600436106100ba5760003560e01c806312f7086c146100bf5780631fc8bc5d146100ee578063704b6c0214610112578063715018a61461013a578063718da7ee146101425780638da5cb5b1461016857806395ccea6714610170578063970d8e051461019c578063dce17484146101ce578063ddc63262146101d6578063f2fde38b146101f3578063f363393b14610219578063f7260d3e14610221578063fc6f946814610229575b600080fd5b6100dc600480360360208110156100d557600080fd5b5035610231565b60408051918252519081900360200190f35b6100f66102b5565b604080516001600160a01b039092168252519081900360200190f35b6101386004803603602081101561012857600080fd5b50356001600160a01b03166102c4565b005b61013861033e565b6101386004803603602081101561015857600080fd5b50356001600160a01b03166103e0565b6100f661044f565b6101386004803603604081101561018657600080fd5b506001600160a01b03813516906020013561045e565b610138600480360360608110156101b257600080fd5b508035906001600160a01b036020820135169060400135610507565b6100f661060c565b610138600480360360208110156101ec57600080fd5b503561061b565b6101386004803603602081101561020957600080fd5b50356001600160a01b031661079d565b6100f6610895565b6100f66108a4565b6100f66108b3565b60015460408051631175a1dd60e01b81526004810184905230602482015290516000926001600160a01b031691631175a1dd916044808301926020929190829003018186803b15801561028357600080fd5b505afa158015610297573d6000803e3d6000fd5b505050506040513d60208110156102ad57600080fd5b505192915050565b6001546001600160a01b031681565b6102cc6108c2565b6000546001600160a01b0390811691161461031c576040805162461bcd60e51b81526020600482018190526024820152600080516020610d49833981519152604482015290519081900360640190fd5b600280546001600160a01b0319166001600160a01b0392909216919091179055565b6103466108c2565b6000546001600160a01b03908116911614610396576040805162461bcd60e51b81526020600482018190526024820152600080516020610d49833981519152604482015290519081900360640190fd5b600080546040516001600160a01b03909116907f8be0079c531659141344cd1fd0a4f28419497f9722a3daafe3b4186f6b6457e0908390a3600080546001600160a01b0319169055565b6002546001600160a01b0316331461042d576040805162461bcd60e51b815260206004820152600b60248201526a61646d696e3a207775743f60a81b604482015290519081900360640190fd5b600380546001600160a01b0319166001600160a01b0392909216919091179055565b6000546001600160a01b031690565b6104666108c2565b6000546001600160a01b039081169116146104b6576040805162461bcd60e51b81526020600482018190526024820152600080516020610d49833981519152604482015290519081900360640190fd5b6005546104cd906001600160a01b031633836108c6565b60408051828152905133917f5fafa99d0643513820be26656b45130b01e1c03062e1266bf36f88cbd3bd9695919081900360200190a25050565b6002546001600160a01b03163314610554576040805162461bcd60e51b815260206004820152600b60248201526a61646d696e3a207775743f60a81b604482015290519081900360640190fd5b60015461056e906001600160a01b0384811691168361091d565b60015460408051631c57762b60e31b8152600481018690526024810184905290516001600160a01b039092169163e2bbb1589160448082019260009290919082900301818387803b1580156105c257600080fd5b505af11580156105d6573d6000803e3d6000fd5b50506040518592503391507f4ae4c06870b47ebbde6d53278986a91eb269349cdc9ee1e9d211373dd98afef190600090a3505050565b6005546001600160a01b031681565b6002546001600160a01b03163314610668576040805162461bcd60e51b815260206004820152600b60248201526a61646d696e3a207775743f60a81b604482015290519081900360640190fd5b60015460408051631c57762b60e31b81526004810184905260006024820181905291516001600160a01b039093169263e2bbb1589260448084019391929182900301818387803b1580156106bb57600080fd5b505af11580156106cf573d6000803e3d6000fd5b5050600554604080516370a0823160e01b81523060048201529051600094506001600160a01b0390921692506370a08231916024808301926020929190829003018186803b15801561072057600080fd5b505afa158015610734573d6000803e3d6000fd5b505050506040513d602081101561074a57600080fd5b505160035460055491925061076c916001600160a01b039081169116836108c6565b604051829033907fc9695243a805adb74c91f28311176c65b417e842d5699893cef56d18bfa48cba90600090a35050565b6107a56108c2565b6000546001600160a01b039081169116146107f5576040805162461bcd60e51b81526020600482018190526024820152600080516020610d49833981519152604482015290519081900360640190fd5b6001600160a01b03811661083a5760405162461bcd60e51b8152600401808060200182810382526026815260200180610cfd6026913960400191505060405180910390fd5b600080546040516001600160a01b03808516939216917f8be0079c531659141344cd1fd0a4f28419497f9722a3daafe3b4186f6b6457e091a3600080546001600160a01b0319166001600160a01b0392909216919091179055565b6004546001600160a01b031681565b6003546001600160a01b031681565b6002546001600160a01b031681565b3390565b604080516001600160a01b038416602482015260448082018490528251808303909101815260649091019091526020810180516001600160e01b031663a9059cbb60e01b179052610918908490610a2c565b505050565b8015806109a3575060408051636eb1769f60e11b81523060048201526001600160a01b03848116602483015291519185169163dd62ed3e91604480820192602092909190829003018186803b15801561097557600080fd5b505afa158015610989573d6000803e3d6000fd5b505050506040513d602081101561099f57600080fd5b5051155b6109de5760405162461bcd60e51b8152600401808060200182810382526036815260200180610d936036913960400191505060405180910390fd5b604080516001600160a01b038416602482015260448082018490528251808303909101815260649091019091526020810180516001600160e01b031663095ea7b360e01b1790526109189084905b6060610a81826040518060400160405280602081526020017f5361666545524332303a206c6f772d6c6576656c2063616c6c206661696c6564815250856001600160a01b0316610add9092919063ffffffff16565b80519091501561091857808060200190516020811015610aa057600080fd5b50516109185760405162461bcd60e51b815260040180806020018281038252602a815260200180610d69602a913960400191505060405180910390fd5b6060610aec8484600085610af6565b90505b9392505050565b606082471015610b375760405162461bcd60e51b8152600401808060200182810382526026815260200180610d236026913960400191505060405180910390fd5b610b4085610c52565b610b91576040805162461bcd60e51b815260206004820152601d60248201527f416464726573733a2063616c6c20746f206e6f6e2d636f6e7472616374000000604482015290519081900360640190fd5b60006060866001600160a01b031685876040518082805190602001908083835b60208310610bd05780518252601f199092019160209182019101610bb1565b6001836020036101000a03801982511681845116808217855250505050505090500191505060006040518083038185875af1925050503d8060008114610c32576040519150601f19603f3d011682016040523d82523d6000602084013e610c37565b606091505b5091509150610c47828286610c58565b979650505050505050565b3b151590565b60608315610c67575081610aef565b825115610c775782518084602001fd5b8160405162461bcd60e51b81526004018080602001828103825283818151815260200191508051906020019080838360005b83811015610cc1578181015183820152602001610ca9565b50505050905090810190601f168015610cee5780820380516001836020036101000a031916815260200191505b509250505060405180910390fdfe4f776e61626c653a206e6577206f776e657220697320746865207a65726f2061646472657373416464726573733a20696e73756666696369656e742062616c616e636520666f722063616c6c4f776e61626c653a2063616c6c6572206973206e6f7420746865206f776e65725361666545524332303a204552433230206f7065726174696f6e20646964206e6f7420737563636565645361666545524332303a20617070726f76652066726f6d206e6f6e2d7a65726f20746f206e6f6e2d7a65726f20616c6c6f77616e6365a26469706673582212209baebece2472a65ca79d9a5cde51364d2412b05e5023763ff93c5a833c055ffb64736f6c634300060c0033","linkReferences":{}},"methodIdentifiers":{"adminAddress()":"fc6f9468","cake()":"dce17484","chef()":"1fc8bc5d","emergencyWithdraw(address,uint256)":"95ccea67","harvest(uint256)":"ddc63262","lptoken()":"f363393b","owner()":"8da5cb5b","pendingReward(uint256)":"12f7086c","receiver()":"f7260d3e","renounceOwnership()":"715018a6","setAdmin(address)":"704b6c02","setReceiver(address)":"718da7ee","startFarming(uint256,address,uint256)":"970d8e05","transferOwnership(address)":"f2fde38b"},"id":97}