{"abi":[{"type":"constructor","inputs":[{"name":"_name","type":"string","internalType":"string"},{"name":"_symbol","type":"string","internalType":"string"},{"name":"_vestingDuration","type":"uint256","internalType":"uint256"},{"name":"_esToken","type":"address","internalType":"address"},{"name":"_pairToken","type":"address","internalType":"address"},{"name":"_claimableToken","type":"address","internalType":"address"},{"name":"_rewardTracker","type":"address","internalType":"address"}],"stateMutability":"nonpayable"},{"type":"function","name":"acceptGov","inputs":[],"outputs":[],"stateMutability":"nonpayable"},{"type":"function","name":"allowance","inputs":[{"name":"","type":"address","internalType":"address"},{"name":"","type":"address","internalType":"address"}],"outputs":[{"name":"","type":"uint256","internalType":"uint256"}],"stateMutability":"view"},{"type":"function","name":"approve","inputs":[{"name":"","type":"address","internalType":"address"},{"name":"","type":"uint256","internalType":"uint256"}],"outputs":[{"name":"","type":"bool","internalType":"bool"}],"stateMutability":"nonpayable"},{"type":"function","name":"balanceOf","inputs":[{"name":"_account","type":"address","internalType":"address"}],"outputs":[{"name":"","type":"uint256","internalType":"uint256"}],"stateMutability":"view"},{"type":"function","name":"balances","inputs":[{"name":"","type":"address","internalType":"address"}],"outputs":[{"name":"","type":"uint256","internalType":"uint256"}],"stateMutability":"view"},{"type":"function","name":"bonusRewards","inputs":[{"name":"","type":"address","internalType":"address"}],"outputs":[{"name":"","type":"uint256","internalType":"uint256"}],"stateMutability":"view"},{"type":"function","name":"cancelGovProposal","inputs":[{"name":"_gov","type":"address","internalType":"address"}],"outputs":[],"stateMutability":"nonpayable"},{"type":"function","name":"claim","inputs":[],"outputs":[{"name":"","type":"uint256","internalType":"uint256"}],"stateMutability":"nonpayable"},{"type":"function","name":"claimForAccount","inputs":[{"name":"_account","type":"address","internalType":"address"},{"name":"_receiver","type":"address","internalType":"address"}],"outputs":[{"name":"","type":"uint256","internalType":"uint256"}],"stateMutability":"nonpayable"},{"type":"function","name":"claimable","inputs":[{"name":"_account","type":"address","internalType":"address"}],"outputs":[{"name":"","type":"uint256","internalType":"uint256"}],"stateMutability":"view"},{"type":"function","name":"claimableToken","inputs":[],"outputs":[{"name":"","type":"address","internalType":"address"}],"stateMutability":"view"},{"type":"function","name":"claimedAmounts","inputs":[{"name":"","type":"address","internalType":"address"}],"outputs":[{"name":"","type":"uint256","internalType":"uint256"}],"stateMutability":"view"},{"type":"function","name":"cumulativeClaimAmounts","inputs":[{"name":"","type":"address","internalType":"address"}],"outputs":[{"name":"","type":"uint256","internalType":"uint256"}],"stateMutability":"view"},{"type":"function","name":"cumulativeRewardDeductions","inputs":[{"name":"","type":"address","internalType":"address"}],"outputs":[{"name":"","type":"uint256","internalType":"uint256"}],"stateMutability":"view"},{"type":"function","name":"decimals","inputs":[],"outputs":[{"name":"","type":"uint8","internalType":"uint8"}],"stateMutability":"view"},{"type":"function","name":"deposit","inputs":[{"name":"_amount","type":"uint256","internalType":"uint256"}],"outputs":[],"stateMutability":"nonpayable"},{"type":"function","name":"depositForAccount","inputs":[{"name":"_account","type":"address","internalType":"address"},{"name":"_amount","type":"uint256","internalType":"uint256"}],"outputs":[],"stateMutability":"nonpayable"},{"type":"function","name":"esToken","inputs":[],"outputs":[{"name":"","type":"address","internalType":"address"}],"stateMutability":"view"},{"type":"function","name":"getCombinedAverageStakedAmount","inputs":[{"name":"_account","type":"address","internalType":"address"}],"outputs":[{"name":"","type":"uint256","internalType":"uint256"}],"stateMutability":"view"},{"type":"function","name":"getMaxVestableAmount","inputs":[{"name":"_account","type":"address","internalType":"address"}],"outputs":[{"name":"","type":"uint256","internalType":"uint256"}],"stateMutability":"view"},{"type":"function","name":"getPairAmount","inputs":[{"name":"_account","type":"address","internalType":"address"},{"name":"_esAmount","type":"uint256","internalType":"uint256"}],"outputs":[{"name":"","type":"uint256","internalType":"uint256"}],"stateMutability":"view"},{"type":"function","name":"getTotalVested","inputs":[{"name":"_account","type":"address","internalType":"address"}],"outputs":[{"name":"","type":"uint256","internalType":"uint256"}],"stateMutability":"view"},{"type":"function","name":"getVestedAmount","inputs":[{"name":"_account","type":"address","internalType":"address"}],"outputs":[{"name":"","type":"uint256","internalType":"uint256"}],"stateMutability":"view"},{"type":"function","name":"gov","inputs":[],"outputs":[{"name":"","type":"address","internalType":"address"}],"stateMutability":"view"},{"type":"function","name":"govProposals","inputs":[{"name":"","type":"address","internalType":"address"}],"outputs":[{"name":"deadline","type":"uint256","internalType":"uint256"},{"name":"isActive","type":"bool","internalType":"bool"}],"stateMutability":"view"},{"type":"function","name":"hasMaxVestableAmount","inputs":[],"outputs":[{"name":"","type":"bool","internalType":"bool"}],"stateMutability":"view"},{"type":"function","name":"hasPairToken","inputs":[],"outputs":[{"name":"","type":"bool","internalType":"bool"}],"stateMutability":"view"},{"type":"function","name":"hasRewardTracker","inputs":[],"outputs":[{"name":"","type":"bool","internalType":"bool"}],"stateMutability":"view"},{"type":"function","name":"isHandler","inputs":[{"name":"","type":"address","internalType":"address"}],"outputs":[{"name":"","type":"bool","internalType":"bool"}],"stateMutability":"view"},{"type":"function","name":"lastVestingTimes","inputs":[{"name":"","type":"address","internalType":"address"}],"outputs":[{"name":"","type":"uint256","internalType":"uint256"}],"stateMutability":"view"},{"type":"function","name":"name","inputs":[],"outputs":[{"name":"","type":"string","internalType":"string"}],"stateMutability":"view"},{"type":"function","name":"pairAmounts","inputs":[{"name":"","type":"address","internalType":"address"}],"outputs":[{"name":"","type":"uint256","internalType":"uint256"}],"stateMutability":"view"},{"type":"function","name":"pairSupply","inputs":[],"outputs":[{"name":"","type":"uint256","internalType":"uint256"}],"stateMutability":"view"},{"type":"function","name":"pairToken","inputs":[],"outputs":[{"name":"","type":"address","internalType":"address"}],"stateMutability":"view"},{"type":"function","name":"rewardTracker","inputs":[],"outputs":[{"name":"","type":"address","internalType":"address"}],"stateMutability":"view"},{"type":"function","name":"setBonusRewards","inputs":[{"name":"_account","type":"address","internalType":"address"},{"name":"_amount","type":"uint256","internalType":"uint256"}],"outputs":[],"stateMutability":"nonpayable"},{"type":"function","name":"setCumulativeRewardDeductions","inputs":[{"name":"_account","type":"address","internalType":"address"},{"name":"_amount","type":"uint256","internalType":"uint256"}],"outputs":[],"stateMutability":"nonpayable"},{"type":"function","name":"setGov","inputs":[{"name":"_gov","type":"address","internalType":"address"}],"outputs":[],"stateMutability":"nonpayable"},{"type":"function","name":"setGovWithDeadline","inputs":[{"name":"_gov","type":"address","internalType":"address"},{"name":"_deadline","type":"uint256","internalType":"uint256"}],"outputs":[],"stateMutability":"nonpayable"},{"type":"function","name":"setHandler","inputs":[{"name":"_handler","type":"address","internalType":"address"},{"name":"_isActive","type":"bool","internalType":"bool"}],"outputs":[],"stateMutability":"nonpayable"},{"type":"function","name":"setHasMaxVestableAmount","inputs":[{"name":"_hasMaxVestableAmount","type":"bool","internalType":"bool"}],"outputs":[],"stateMutability":"nonpayable"},{"type":"function","name":"setTransferredAverageStakedAmounts","inputs":[{"name":"_account","type":"address","internalType":"address"},{"name":"_amount","type":"uint256","internalType":"uint256"}],"outputs":[],"stateMutability":"nonpayable"},{"type":"function","name":"setTransferredCumulativeRewards","inputs":[{"name":"_account","type":"address","internalType":"address"},{"name":"_amount","type":"uint256","internalType":"uint256"}],"outputs":[],"stateMutability":"nonpayable"},{"type":"function","name":"symbol","inputs":[],"outputs":[{"name":"","type":"string","internalType":"string"}],"stateMutability":"view"},{"type":"function","name":"totalSupply","inputs":[],"outputs":[{"name":"","type":"uint256","internalType":"uint256"}],"stateMutability":"view"},{"type":"function","name":"transfer","inputs":[{"name":"","type":"address","internalType":"address"},{"name":"","type":"uint256","internalType":"uint256"}],"outputs":[{"name":"","type":"bool","internalType":"bool"}],"stateMutability":"nonpayable"},{"type":"function","name":"transferFrom","inputs":[{"name":"","type":"address","internalType":"address"},{"name":"","type":"address","internalType":"address"},{"name":"","type":"uint256","internalType":"uint256"}],"outputs":[{"name":"","type":"bool","internalType":"bool"}],"stateMutability":"nonpayable"},{"type":"function","name":"transferStakeValues","inputs":[{"name":"_sender","type":"address","internalType":"address"},{"name":"_receiver","type":"address","internalType":"address"}],"outputs":[],"stateMutability":"nonpayable"},{"type":"function","name":"transferredAverageStakedAmounts","inputs":[{"name":"","type":"address","internalType":"address"}],"outputs":[{"name":"","type":"uint256","internalType":"uint256"}],"stateMutability":"view"},{"type":"function","name":"transferredCumulativeRewards","inputs":[{"name":"","type":"address","internalType":"address"}],"outputs":[{"name":"","type":"uint256","internalType":"uint256"}],"stateMutability":"view"},{"type":"function","name":"vestingDuration","inputs":[],"outputs":[{"name":"","type":"uint256","internalType":"uint256"}],"stateMutability":"view"},{"type":"function","name":"withdraw","inputs":[],"outputs":[],"stateMutability":"nonpayable"},{"type":"function","name":"withdrawTokensOrETH","inputs":[{"name":"_tokenOrZero","type":"address","internalType":"address"},{"name":"_account","type":"address","internalType":"address"},{"name":"_amount","type":"uint256","internalType":"uint256"}],"outputs":[],"stateMutability":"nonpayable"},{"type":"event","name":"Approval","inputs":[{"name":"owner","type":"address","indexed":true,"internalType":"address"},{"name":"spender","type":"address","indexed":true,"internalType":"address"},{"name":"value","type":"uint256","indexed":false,"internalType":"uint256"}],"anonymous":false},{"type":"event","name":"Claim","inputs":[{"name":"receiver","type":"address","indexed":false,"internalType":"address"},{"name":"amount","type":"uint256","indexed":false,"internalType":"uint256"}],"anonymous":false},{"type":"event","name":"Deposit","inputs":[{"name":"account","type":"address","indexed":false,"internalType":"address"},{"name":"amount","type":"uint256","indexed":false,"internalType":"uint256"}],"anonymous":false},{"type":"event","name":"GovProposalCanceled","inputs":[{"name":"proposedGov","type":"address","indexed":true,"internalType":"address"},{"name":"canceledBy","type":"address","indexed":true,"internalType":"address"}],"anonymous":false},{"type":"event","name":"GovernanceTransferRequested","inputs":[{"name":"newGov","type":"address","indexed":true,"internalType":"address"},{"name":"deadline","type":"uint256","indexed":false,"internalType":"uint256"}],"anonymous":false},{"type":"event","name":"GovernanceTransferred","inputs":[{"name":"oldGov","type":"address","indexed":true,"internalType":"address"},{"name":"newGov","type":"address","indexed":true,"internalType":"address"}],"anonymous":false},{"type":"event","name":"PairTransfer","inputs":[{"name":"from","type":"address","indexed":true,"internalType":"address"},{"name":"to","type":"address","indexed":true,"internalType":"address"},{"name":"value","type":"uint256","indexed":false,"internalType":"uint256"}],"anonymous":false},{"type":"event","name":"Transfer","inputs":[{"name":"from","type":"address","indexed":true,"internalType":"address"},{"name":"to","type":"address","indexed":true,"internalType":"address"},{"name":"value","type":"uint256","indexed":false,"internalType":"uint256"}],"anonymous":false},{"type":"event","name":"Withdraw","inputs":[{"name":"account","type":"address","indexed":false,"internalType":"address"},{"name":"claimedAmount","type":"uint256","indexed":false,"internalType":"uint256"},{"name":"balance","type":"uint256","indexed":false,"internalType":"uint256"}],"anonymous":false}],"bytecode":{"object":"0x60806040526005805460ff191660121790553480156200001e57600080fd5b5060405162002f7338038062002f73833981810160405260e08110156200004457600080fd5b81019080805160405193929190846401000000008211156200006557600080fd5b9083019060208201858111156200007b57600080fd5b82516401000000008111828201881017156200009657600080fd5b82525081516020918201929091019080838360005b83811015620000c5578181015183820152602001620000ab565b50505050905090810190601f168015620000f35780820380516001836020036101000a031916815260200191505b50604052602001805160405193929190846401000000008211156200011757600080fd5b9083019060208201858111156200012d57600080fd5b82516401000000008111828201881017156200014857600080fd5b82525081516020918201929091019080838360005b83811015620001775781810151838201526020016200015d565b50505050905090810190601f168015620001a55780820380516001836020036101000a031916815260200191505b506040908152602082810151918301516060840151608085015160a090950151600180546001600160a01b03191633179055895194975091955093929091620001f4916003918a01906200027b565b5085516200020a9060049060208901906200027b565b506006859055600780546001600160a01b03199081166001600160a01b0387811691909117909255600880548216868416179055600980548216858416179055600a8054909116838316179081905516156200026e57600d805460ff191660011790555b5050505050505062000317565b828054600181600116156101000203166002900490600052602060002090601f016020900481019282601f10620002be57805160ff1916838001178555620002ee565b82800160010185558215620002ee579182015b82811115620002ee578251825591602001919060010190620002d1565b50620002fc92915062000300565b5090565b5b80821115620002fc576000815560010162000301565b612c4c80620003276000396000f3fe608060405234801561001057600080fd5b50600436106102775760003560e01c80636bcb411a116101585780636bcb411a1461063457806370a082311461063c57806371417b32146106625780637337035c146106885780637bc6729b146106ae5780637cf8f3b2146106b65780638d0fedb0146106e2578063930354731461072157806395d89b41146107475780639c35b4971461074f5780639cb7de4b14610775578063a2545fa5146107a3578063a9059cbb14610331578063acf077a5146107c9578063b5ff136d146107d1578063b6b55f25146107f7578063b71bce2a14610814578063cfad57a21461083a578063d0b038b714610860578063d5a73fdd1461088c578063d75abb57146108b2578063d89b7007146108ba578063dd62ed3e146108e6578063e3ecc4b214610914578063f421f62a14610940578063f6d6d5aa14610948578063f713c2301461095057610277565b806306fdde031461027c57806308f26c76146102f9578063095ea7b3146103315780630db9ea4a1461037157806312d43a511461039757806313e82e7a146103bb5780631514617e146103e957806315e90a41146103f157806316ca05c5146103f957806318160ddd1461040157806323b872dd1461040957806327e235e31461043f578063313ce56714610465578063342fcda914610483578063387a785d146104b15780633ccfd60b146104d75780633de35b79146104df578063402914f5146104e757806341f227241461050d57806345f01ee61461053957806346ea87af1461055f5780634e71d92d1461058557806356edcea21461058d5780635d50e729146105c357806369de9b93146105e95780636bb22fd714610608575b600080fd5b61028461097e565b6040805160208082528351818301528351919283929083019185019080838360005b838110156102be5781810151838201526020016102a6565b50505050905090810190601f1680156102eb5780820380516001836020036101000a031916815260200191505b509250505060405180910390f35b61031f6004803603602081101561030f57600080fd5b50356001600160a01b0316610a0c565b60408051918252519081900360200190f35b61035d6004803603604081101561034757600080fd5b506001600160a01b038135169060200135610b15565b604080519115158252519081900360200190f35b61031f6004803603602081101561038757600080fd5b50356001600160a01b0316610b60565b61039f610b72565b604080516001600160a01b039092168252519081900360200190f35b61031f600480360360408110156103d157600080fd5b506001600160a01b0381358116916020013516610b81565b61031f610bec565b61031f610bf2565b61039f610bf8565b61031f610c07565b61035d6004803603606081101561041f57600080fd5b506001600160a01b03813581169160208101359091169060400135610b15565b61031f6004803603602081101561045557600080fd5b50356001600160a01b0316610c0d565b61046d610c1f565b6040805160ff9092168252519081900360200190f35b6104af6004803603604081101561049957600080fd5b506001600160a01b038135169060200135610c28565b005b61031f600480360360208110156104c757600080fd5b50356001600160a01b0316610c8e565b6104af610ca0565b61039f610e63565b61031f600480360360208110156104fd57600080fd5b50356001600160a01b0316610e72565b6104af6004803603604081101561052357600080fd5b506001600160a01b038135169060200135610ec3565b61031f6004803603602081101561054f57600080fd5b50356001600160a01b0316610f39565b61035d6004803603602081101561057557600080fd5b50356001600160a01b03166110ab565b61031f6110c0565b6104af600480360360608110156105a357600080fd5b506001600160a01b03813581169160208101359091169060400135611121565b61031f600480360360208110156105d957600080fd5b50356001600160a01b0316611324565b6104af600480360360208110156105ff57600080fd5b50351515611336565b6104af6004803603604081101561061e57600080fd5b506001600160a01b038135169060200135611396565b61039f6114ab565b61031f6004803603602081101561065257600080fd5b50356001600160a01b03166114ba565b61031f6004803603602081101561067857600080fd5b50356001600160a01b03166114d5565b61031f6004803603602081101561069e57600080fd5b50356001600160a01b03166114e7565b6104af6114f9565b61031f600480360360408110156106cc57600080fd5b506001600160a01b03813516906020013561160e565b610708600480360360208110156106f857600080fd5b50356001600160a01b0316611676565b6040805192835290151560208301528051918290030190f35b61031f6004803603602081101561073757600080fd5b50356001600160a01b0316611692565b6102846116bf565b6104af6004803603602081101561076557600080fd5b50356001600160a01b031661171a565b6104af6004803603604081101561078b57600080fd5b506001600160a01b0381351690602001351515611828565b61031f600480360360208110156107b957600080fd5b50356001600160a01b03166118a0565b61035d6118b2565b61031f600480360360208110156107e757600080fd5b50356001600160a01b03166118bb565b6104af6004803603602081101561080d57600080fd5b50356118cd565b61031f6004803603602081101561082a57600080fd5b50356001600160a01b031661192a565b6104af6004803603602081101561085057600080fd5b50356001600160a01b031661193c565b6104af6004803603604081101561087657600080fd5b506001600160a01b038135169060200135611a52565b61031f600480360360208110156108a257600080fd5b50356001600160a01b0316611ac8565b61035d611af6565b6104af600480360360408110156108d057600080fd5b506001600160a01b038135169060200135611b07565b61031f600480360360408110156108fc57600080fd5b506001600160a01b0381358116916020013516611b7d565b6104af6004803603604081101561092a57600080fd5b506001600160a01b038135169060200135611b85565b61035d611bfb565b61039f611c0c565b6104af6004803603604081101561096657600080fd5b506001600160a01b0381358116916020013516611c1b565b6003805460408051602060026001851615610100026000190190941693909304601f81018490048402820184019092528181529291830182828015610a045780601f106109d957610100808354040283529160200191610a04565b820191906000526020600020905b8154815290600101906020018083116109e757829003601f168201915b505050505081565b6000610a16611bfb565b610a2257506000610b10565b6001600160a01b038083166000818152601460209081526040808320546016835281842054600a548351633792def360e01b81526004810197909752925191969095921692633792def39260248082019391829003018186803b158015610a8857600080fd5b505afa158015610a9c573d6000803e3d6000fd5b505050506040513d6020811015610ab257600080fd5b505190506000610acc83610ac68487611d84565b90611d84565b6001600160a01b03871660009081526015602052604090205490915080821015610afe57600095505050505050610b10565b610b088282611de3565b955050505050505b919050565b6040805162461bcd60e51b81526020600482015260196024820152785665737465723a206e6f6e2d7472616e736665727261626c6560381b6044820152905160009181900360640190fd5b60126020526000908152604090205481565b6001546001600160a01b031681565b600060026000541415610bc9576040805162461bcd60e51b815260206004820152601f6024820152600080516020612b01833981519152604482015290519081900360640190fd5b6002600055610bd6611e25565b610be08383611e7f565b60016000559392505050565b60065481565b600c5481565b6007546001600160a01b031681565b600b5481565b600e6020526000908152604090205481565b60055460ff1681565b60026000541415610c6e576040805162461bcd60e51b815260206004820152601f6024820152600080516020612b01833981519152604482015290519081900360640190fd5b6002600055610c7b611e25565b610c858282611f32565b50506001600055565b60156020526000908152604090205481565b60026000541415610ce6576040805162461bcd60e51b815260206004820152601f6024820152600080516020612b01833981519152604482015290519081900360640190fd5b60026000553380610cf78180611e7f565b506001600160a01b038216600090815260106020908152604080832054600e9092528220549091610d288284611d84565b905060008111610d7f576040805162461bcd60e51b815260206004820152601d60248201527f5665737465723a2076657374656420616d6f756e74206973207a65726f000000604482015290519081900360640190fd5b610d87611af6565b15610dc8576001600160a01b0385166000908152600f6020526040902054610daf86826120d4565b600854610dc6906001600160a01b031686836121c4565b505b600754610ddf906001600160a01b031685846121c4565b610de9858361221b565b6001600160a01b038516600081815260106020908152604080832083905560118252808320839055601282528083209290925581519283528201859052818101849052517ff279e6a1f5e320cca91135676d9cb6e44ca8a08c0b88342bcdb1144f6511b5689181900360600190a150506001600055505050565b6008546001600160a01b031681565b6001600160a01b03811660009081526011602090815260408083205460109092528220548291610ea29190611de3565b90506000610eaf8461230b565b9050610ebb8282611d84565b949350505050565b60026000541415610f09576040805162461bcd60e51b815260206004820152601f6024820152600080516020612b01833981519152604482015290519081900360640190fd5b6002600055610f16611e25565b6001600160a01b0390911660009081526016602052604081209190915560019055565b600a5460408051633792def360e01b81526001600160a01b038481166004830152915160009384931691633792def3916024808301926020929190829003018186803b158015610f8857600080fd5b505afa158015610f9c573d6000803e3d6000fd5b505050506040513d6020811015610fb257600080fd5b50516001600160a01b038416600090815260146020526040812054919250610fda8383611d84565b905080610fed5760009350505050610b10565b600a546040805163a318021760e01b81526001600160a01b0388811660048301529151600093929092169163a318021791602480820192602092909190829003018186803b15801561103e57600080fd5b505afa158015611052573d6000803e3d6000fd5b505050506040513d602081101561106857600080fd5b50516001600160a01b038716600090815260136020526040902054909150610b0861109d8461109784886123a4565b906123fd565b610ac685611097868a6123a4565b60176020526000908152604090205460ff1681565b600060026000541415611108576040805162461bcd60e51b815260206004820152601f6024820152600080516020612b01833981519152604482015290519081900360640190fd5b60026000556111173380611e7f565b9050600160005590565b6001546001600160a01b0316331461116e576040805162461bcd60e51b81526020600482015260156024820152600080516020612b21833981519152604482015290519081900360640190fd5b600260005414156111b4576040805162461bcd60e51b815260206004820152601f6024820152600080516020612b01833981519152604482015290519081900360640190fd5b60026000556001600160a01b038316611306576001600160a01b038216611214576040805162461bcd60e51b815260206004820152600f60248201526e125b9d985b1a59081858d8dbdd5b9d608a1b604482015290519081900360640190fd5b47811115611264576040805162461bcd60e51b8152602060048201526018602482015277496e73756666696369656e74204554482062616c616e636560401b604482015290519081900360640190fd5b6040516000906001600160a01b0384169083908381818185875af1925050503d80600081146112af576040519150601f19603f3d011682016040523d82523d6000602084013e6112b4565b606091505b5050905080611300576040805162461bcd60e51b8152602060048201526013602482015272115512081d1c985b9cd9995c8819985a5b1959606a1b604482015290519081900360640190fd5b5061131a565b61131a6001600160a01b03841683836121c4565b5050600160005550565b600f6020526000908152604090205481565b6001546001600160a01b03163314611383576040805162461bcd60e51b81526020600482015260156024820152600080516020612b21833981519152604482015290519081900360640190fd5b600d805460ff1916911515919091179055565b6001546001600160a01b031633146113e3576040805162461bcd60e51b81526020600482015260156024820152600080516020612b21833981519152604482015290519081900360640190fd5b6001600160a01b03821661143c576040805162461bcd60e51b815260206004820152601b60248201527a476f7665726e61626c653a20696e76616c6964206164647265737360281b604482015290519081900360640190fd5b6001546001600160a01b038381169116141561149d576040805162461bcd60e51b815260206004820152601b60248201527a476f7665726e61626c653a2073616d6520676f7665726e616e636560281b604482015290519081900360640190fd5b6114a7828261243c565b5050565b600a546001600160a01b031681565b6001600160a01b03166000908152600e602052604090205490565b60116020526000908152604090205481565b60136020526000908152604090205481565b3360009081526002602052604090208054421061155c576040805162461bcd60e51b815260206004820152601c60248201527b11dbdd995c9b98589b194e88191958591b1a5b9948195e1c1a5c995960221b604482015290519081900360640190fd5b60018082015460ff161515146115a35760405162461bcd60e51b8152600401808060200182810382526022815260200180612b866022913960400191505060405180910390fd5b60018054336000818152600260205260408082208281558501805460ff1916905584546001600160a01b031916831790945592516001600160a01b0390921692909183917f5f56bee8cffbe9a78652a74a60705edede02af10b0bbb888ca44b79a0d42ce8091a35050565b6000611618611bfb565b61162457506000611670565b600061162f84610f39565b905080611640576000915050611670565b600061164b85610a0c565b90508061165d57600092505050611670565b61166b8161109786856123a4565b925050505b92915050565b6002602052600090815260409020805460019091015460ff1682565b6001600160a01b038116600090815260106020908152604080832054600e90925282205461167091611d84565b6004805460408051602060026001851615610100026000190190941693909304601f81018490048402820184019092528181529291830182828015610a045780601f106109d957610100808354040283529160200191610a04565b6001546001600160a01b03163314611767576040805162461bcd60e51b81526020600482015260156024820152600080516020612b21833981519152604482015290519081900360640190fd5b6001600160a01b03811660009081526002602052604090206001015460ff166117d7576040805162461bcd60e51b815260206004820152601f60248201527f476f7665726e61626c653a2070726f706f73616c206e6f742061637469766500604482015290519081900360640190fd5b6001600160a01b038116600081815260026020526040808220828155600101805460ff19169055513392917ffc6a2fa53abe2adfe8372a9495032d7e6458d3aed34fa880132b6c808da1e99c91a350565b6001546001600160a01b03163314611875576040805162461bcd60e51b81526020600482015260156024820152600080516020612b21833981519152604482015290519081900360640190fd5b6001600160a01b03919091166000908152601760205260409020805460ff1916911515919091179055565b60166020526000908152604090205481565b600d5460ff1681565b60106020526000908152604090205481565b60026000541415611913576040805162461bcd60e51b815260206004820152601f6024820152600080516020612b01833981519152604482015290519081900360640190fd5b60026000556119223382611f32565b506001600055565b60146020526000908152604090205481565b6001546001600160a01b03163314611989576040805162461bcd60e51b81526020600482015260156024820152600080516020612b21833981519152604482015290519081900360640190fd5b6001600160a01b0381166119e2576040805162461bcd60e51b815260206004820152601b60248201527a476f7665726e61626c653a20696e76616c6964206164647265737360281b604482015290519081900360640190fd5b6001546001600160a01b0382811691161415611a43576040805162461bcd60e51b815260206004820152601b60248201527a476f7665726e61626c653a2073616d6520676f7665726e616e636560281b604482015290519081900360640190fd5b611a4f8160001961243c565b50565b60026000541415611a98576040805162461bcd60e51b815260206004820152601f6024820152600080516020612b01833981519152604482015290519081900360640190fd5b6002600055611aa5611e25565b6001600160a01b0390911660009081526014602052604081209190915560019055565b6001600160a01b0381166000908152600e60209081526040808320546010909252822054610ebb8282611d84565b6008546001600160a01b0316151590565b60026000541415611b4d576040805162461bcd60e51b815260206004820152601f6024820152600080516020612b01833981519152604482015290519081900360640190fd5b6002600055611b5a611e25565b6001600160a01b0390911660009081526015602052604081209190915560019055565b600092915050565b60026000541415611bcb576040805162461bcd60e51b815260206004820152601f6024820152600080516020612b01833981519152604482015290519081900360640190fd5b6002600055611bd8611e25565b6001600160a01b0390911660009081526013602052604081209190915560019055565b600a546001600160a01b0316151590565b6009546001600160a01b031681565b60026000541415611c61576040805162461bcd60e51b815260206004820152601f6024820152600080516020612b01833981519152604482015290519081900360640190fd5b6002600055611c6e611e25565b611c7782610f39565b6001600160a01b038083166000908152601360209081526040808320949094558583168083528483208390556014825284832054600a548651633792def360e01b815260048101939093529551909593949390931692633792def392602480840193919291829003018186803b158015611cf057600080fd5b505afa158015611d04573d6000803e3d6000fd5b505050506040513d6020811015611d1a57600080fd5b50519050611d288282611d84565b6001600160a01b0393841660008181526014602081815260408084209590955597909616808252601588528382209490945594865281852085905560169095528084208054958552908420949094558252509081905560019055565b600082820183811015611ddc576040805162461bcd60e51b815260206004820152601b60248201527a536166654d6174683a206164646974696f6e206f766572666c6f7760281b604482015290519081900360640190fd5b9392505050565b6000611ddc83836040518060400160405280601e81526020017f536166654d6174683a207375627472616374696f6e206f766572666c6f7700008152506124b8565b3360009081526017602052604090205460ff16611e7d576040805162461bcd60e51b81526020600482015260116024820152702b32b9ba32b91d103337b93134b23232b760791b604482015290519081900360640190fd5b565b6000611e8a8361254f565b6000611e9584610e72565b6001600160a01b038516600090815260116020526040902054909150611ebb9082611d84565b6001600160a01b03808616600090815260116020526040902091909155600954611ee7911684836121c4565b604080516001600160a01b03861681526020810183905281517f47cee97cb7acd717b3c0aa1435d004cd5b3c8c57d70dbceb4e4458bbd60e39d4929181900390910190a19392505050565b60008111611f81576040805162461bcd60e51b815260206004820152601760248201527615995cdd195c8e881a5b9d985b1a590817d85b5bdd5b9d604a1b604482015290519081900360640190fd5b611f8a8261254f565b600754611fa2906001600160a01b031683308461262c565b611fac828261268c565b611fb4611af6565b1561202b576001600160a01b0382166000908152600f6020908152604080832054600e909252822054909190611feb90859061160e565b9050818111156120285760006120018284611de3565b60085490915061201c906001600160a01b031686308461262c565b6120268582612772565b505b50505b600d5460ff161561208c57600061204183610a0c565b90508061204d84611692565b111561208a5760405162461bcd60e51b8152600401808060200182810382526024815260200180612bc96024913960400191505060405180910390fd5b505b604080516001600160a01b03841681526020810183905281517fe1fffcc4923d04b559f4d29a8bfc6cda04eb5b0d3c460751c2402c5c5cc9109c929181900390910190a15050565b6001600160a01b0382166121195760405162461bcd60e51b8152600401808060200182810382526022815260200180612b646022913960400191505060405180910390fd5b61215681604051806060016040528060238152602001612b41602391396001600160a01b0385166000908152600f602052604090205491906124b8565b6001600160a01b0383166000908152600f6020526040902055600c5461217c9082611de3565b600c556040805182815290516000916001600160a01b038516917f659523c479d006050ebc0d0e48fea36d1b2c5d45b2f31402ac6f8671fc84cc049181900360200190a35050565b604080516001600160a01b038416602482015260448082018490528251808303909101815260649091019091526020810180516001600160e01b031663a9059cbb60e01b179052612216908490612858565b505050565b6001600160a01b0382166122605760405162461bcd60e51b8152600401808060200182810382526022815260200180612b646022913960400191505060405180910390fd5b61229d81604051806060016040528060238152602001612b41602391396001600160a01b0385166000908152600e602052604090205491906124b8565b6001600160a01b0383166000908152600e6020526040902055600b546122c39082611de3565b600b556040805182815290516000916001600160a01b038516917fddf252ad1be2c89b69c2b068fc378daa952ba7f163c4a11628f55a4df523b3ef9181900360200190a35050565b6001600160a01b0381166000908152601260205260408120548190612331904290611de3565b6001600160a01b0384166000908152600e60205260409020549091508061235d57600092505050610b10565b600061236885611ac8565b9050600061238560065461109786856123a490919063ffffffff16565b90508281101561239a579350610b1092505050565b5090949350505050565b6000826123b357506000611670565b828202828482816123c057fe5b0414611ddc5760405162461bcd60e51b8152600401808060200182810382526021815260200180612ba86021913960400191505060405180910390fd5b6000611ddc83836040518060400160405280601a815260200179536166654d6174683a206469766973696f6e206279207a65726f60301b815250612909565b604080518082018252828152600160208083018281526001600160a01b03871660008181526002845286902094518555905193909201805460ff1916931515939093179092558251848152925190927f02dd0697be46e764c3ba81094158781c31b235d03bb27a0daf1bdef0ec1084dd92908290030190a25050565b600081848411156125475760405162461bcd60e51b81526004018080602001828103825283818151815260200191508051906020019080838360005b8381101561250c5781810151838201526020016124f4565b50505050905090810190601f1680156125395780820380516001836020036101000a031916815260200191505b509250505060405180910390fd5b505050900390565b600061255a8261230b565b6001600160a01b03831660009081526012602052604090204290559050806125825750611a4f565b61258c828261221b565b6001600160a01b0382166000908152601060205260409020546125af9082611d84565b6001600160a01b03808416600090815260106020526040808220939093556007548351632770a7eb60e21b8152306004820152602481018690529351921692639dc29fac926044808301939282900301818387803b15801561261057600080fd5b505af1158015612624573d6000803e3d6000fd5b505050505050565b604080516001600160a01b0380861660248301528416604482015260648082018490528251808303909101815260849091019091526020810180516001600160e01b03166323b872dd60e01b179052612686908590612858565b50505050565b6001600160a01b0382166126e7576040805162461bcd60e51b815260206004820181905260248201527f5665737465723a206d696e7420746f20746865207a65726f2061646472657373604482015290519081900360640190fd5b600b546126f49082611d84565b600b556001600160a01b0382166000908152600e602052604090205461271a9082611d84565b6001600160a01b0383166000818152600e602090815260408083209490945583518581529351929391927fddf252ad1be2c89b69c2b068fc378daa952ba7f163c4a11628f55a4df523b3ef9281900390910190a35050565b6001600160a01b0382166127cd576040805162461bcd60e51b815260206004820181905260248201527f5665737465723a206d696e7420746f20746865207a65726f2061646472657373604482015290519081900360640190fd5b600c546127da9082611d84565b600c556001600160a01b0382166000908152600f60205260409020546128009082611d84565b6001600160a01b0383166000818152600f602090815260408083209490945583518581529351929391927f659523c479d006050ebc0d0e48fea36d1b2c5d45b2f31402ac6f8671fc84cc049281900390910190a35050565b60606128ad826040518060400160405280602081526020017f5361666545524332303a206c6f772d6c6576656c2063616c6c206661696c6564815250856001600160a01b031661296e9092919063ffffffff16565b805190915015612216578080602001905160208110156128cc57600080fd5b50516122165760405162461bcd60e51b815260040180806020018281038252602a815260200180612bed602a913960400191505060405180910390fd5b600081836129585760405162461bcd60e51b815260206004820181815283516024840152835190928392604490910191908501908083836000831561250c5781810151838201526020016124f4565b50600083858161296457fe5b0495945050505050565b6060610ebb84846000858561298285612a94565b6129d3576040805162461bcd60e51b815260206004820152601d60248201527f416464726573733a2063616c6c20746f206e6f6e2d636f6e7472616374000000604482015290519081900360640190fd5b60006060866001600160a01b031685876040518082805190602001908083835b60208310612a125780518252601f1990920191602091820191016129f3565b6001836020036101000a03801982511681845116808217855250505050505090500191505060006040518083038185875af1925050503d8060008114612a74576040519150601f19603f3d011682016040523d82523d6000602084013e612a79565b606091505b5091509150612a89828286612a9a565b979650505050505050565b3b151590565b60608315612aa9575081611ddc565b825115612ab95782518084602001fd5b60405162461bcd60e51b815260206004820181815284516024840152845185939192839260440191908501908083836000831561250c5781810151838201526020016124f456fe5265656e7472616e637947756172643a207265656e7472616e742063616c6c00476f7665726e61626c653a20666f7262696464656e00000000000000000000005665737465723a206275726e20616d6f756e7420657863656564732062616c616e63655665737465723a206275726e2066726f6d20746865207a65726f2061646472657373476f7665726e61626c653a2070726f706f73616c206973206e6f7420616374697665536166654d6174683a206d756c7469706c69636174696f6e206f766572666c6f775665737465723a206d6178207665737461626c6520616d6f756e742065786365656465645361666545524332303a204552433230206f7065726174696f6e20646964206e6f742073756363656564a26469706673582212202aa56bb8efcd21bba3e43c1191e8c71a03864ea3652bd5211313c1b0b9d9b06464736f6c634300060c0033","linkReferences":{}},"methodIdentifiers":{"acceptGov()":"7bc6729b","allowance(address,address)":"dd62ed3e","approve(address,uint256)":"095ea7b3","balanceOf(address)":"70a08231","balances(address)":"27e235e3","bonusRewards(address)":"a2545fa5","cancelGovProposal(address)":"9c35b497","claim()":"4e71d92d","claimForAccount(address,address)":"13e82e7a","claimable(address)":"402914f5","claimableToken()":"f6d6d5aa","claimedAmounts(address)":"71417b32","cumulativeClaimAmounts(address)":"b5ff136d","cumulativeRewardDeductions(address)":"387a785d","decimals()":"313ce567","deposit(uint256)":"b6b55f25","depositForAccount(address,uint256)":"342fcda9","esToken()":"16ca05c5","getCombinedAverageStakedAmount(address)":"45f01ee6","getMaxVestableAmount(address)":"08f26c76","getPairAmount(address,uint256)":"7cf8f3b2","getTotalVested(address)":"93035473","getVestedAmount(address)":"d5a73fdd","gov()":"12d43a51","govProposals(address)":"8d0fedb0","hasMaxVestableAmount()":"acf077a5","hasPairToken()":"d75abb57","hasRewardTracker()":"f421f62a","isHandler(address)":"46ea87af","lastVestingTimes(address)":"0db9ea4a","name()":"06fdde03","pairAmounts(address)":"5d50e729","pairSupply()":"15e90a41","pairToken()":"3de35b79","rewardTracker()":"6bcb411a","setBonusRewards(address,uint256)":"41f22724","setCumulativeRewardDeductions(address,uint256)":"d89b7007","setGov(address)":"cfad57a2","setGovWithDeadline(address,uint256)":"6bb22fd7","setHandler(address,bool)":"9cb7de4b","setHasMaxVestableAmount(bool)":"69de9b93","setTransferredAverageStakedAmounts(address,uint256)":"e3ecc4b2","setTransferredCumulativeRewards(address,uint256)":"d0b038b7","symbol()":"95d89b41","totalSupply()":"18160ddd","transfer(address,uint256)":"a9059cbb","transferFrom(address,address,uint256)":"23b872dd","transferStakeValues(address,address)":"f713c230","transferredAverageStakedAmounts(address)":"7337035c","transferredCumulativeRewards(address)":"b71bce2a","vestingDuration()":"1514617e","withdraw()":"3ccfd60b","withdrawTokensOrETH(address,address,uint256)":"56edcea2"},"id":88}