{"abi":[{"type":"constructor","inputs":[{"name":"_name","type":"string","internalType":"string"},{"name":"_symbol","type":"string","internalType":"string"},{"name":"_vestingDuration","type":"uint256","internalType":"uint256"},{"name":"_esToken","type":"address","internalType":"address"},{"name":"_pairToken","type":"address","internalType":"address"},{"name":"_claimableToken","type":"address","internalType":"address"},{"name":"_rewardTracker","type":"address","internalType":"address"}],"stateMutability":"nonpayable"},{"type":"function","name":"allowance","inputs":[{"name":"","type":"address","internalType":"address"},{"name":"","type":"address","internalType":"address"}],"outputs":[{"name":"","type":"uint256","internalType":"uint256"}],"stateMutability":"view"},{"type":"function","name":"approve","inputs":[{"name":"","type":"address","internalType":"address"},{"name":"","type":"uint256","internalType":"uint256"}],"outputs":[{"name":"","type":"bool","internalType":"bool"}],"stateMutability":"nonpayable"},{"type":"function","name":"balanceOf","inputs":[{"name":"_account","type":"address","internalType":"address"}],"outputs":[{"name":"","type":"uint256","internalType":"uint256"}],"stateMutability":"view"},{"type":"function","name":"balances","inputs":[{"name":"","type":"address","internalType":"address"}],"outputs":[{"name":"","type":"uint256","internalType":"uint256"}],"stateMutability":"view"},{"type":"function","name":"bonusRewards","inputs":[{"name":"","type":"address","internalType":"address"}],"outputs":[{"name":"","type":"uint256","internalType":"uint256"}],"stateMutability":"view"},{"type":"function","name":"claim","inputs":[],"outputs":[{"name":"","type":"uint256","internalType":"uint256"}],"stateMutability":"nonpayable"},{"type":"function","name":"claimForAccount","inputs":[{"name":"_account","type":"address","internalType":"address"},{"name":"_receiver","type":"address","internalType":"address"}],"outputs":[{"name":"","type":"uint256","internalType":"uint256"}],"stateMutability":"nonpayable"},{"type":"function","name":"claimable","inputs":[{"name":"_account","type":"address","internalType":"address"}],"outputs":[{"name":"","type":"uint256","internalType":"uint256"}],"stateMutability":"view"},{"type":"function","name":"claimableToken","inputs":[],"outputs":[{"name":"","type":"address","internalType":"address"}],"stateMutability":"view"},{"type":"function","name":"claimedAmounts","inputs":[{"name":"","type":"address","internalType":"address"}],"outputs":[{"name":"","type":"uint256","internalType":"uint256"}],"stateMutability":"view"},{"type":"function","name":"cumulativeClaimAmounts","inputs":[{"name":"","type":"address","internalType":"address"}],"outputs":[{"name":"","type":"uint256","internalType":"uint256"}],"stateMutability":"view"},{"type":"function","name":"cumulativeRewardDeductions","inputs":[{"name":"","type":"address","internalType":"address"}],"outputs":[{"name":"","type":"uint256","internalType":"uint256"}],"stateMutability":"view"},{"type":"function","name":"decimals","inputs":[],"outputs":[{"name":"","type":"uint8","internalType":"uint8"}],"stateMutability":"view"},{"type":"function","name":"deposit","inputs":[{"name":"_amount","type":"uint256","internalType":"uint256"}],"outputs":[],"stateMutability":"nonpayable"},{"type":"function","name":"depositForAccount","inputs":[{"name":"_account","type":"address","internalType":"address"},{"name":"_amount","type":"uint256","internalType":"uint256"}],"outputs":[],"stateMutability":"nonpayable"},{"type":"function","name":"esToken","inputs":[],"outputs":[{"name":"","type":"address","internalType":"address"}],"stateMutability":"view"},{"type":"function","name":"getCombinedAverageStakedAmount","inputs":[{"name":"_account","type":"address","internalType":"address"}],"outputs":[{"name":"","type":"uint256","internalType":"uint256"}],"stateMutability":"view"},{"type":"function","name":"getMaxVestableAmount","inputs":[{"name":"_account","type":"address","internalType":"address"}],"outputs":[{"name":"","type":"uint256","internalType":"uint256"}],"stateMutability":"view"},{"type":"function","name":"getPairAmount","inputs":[{"name":"_account","type":"address","internalType":"address"},{"name":"_esAmount","type":"uint256","internalType":"uint256"}],"outputs":[{"name":"","type":"uint256","internalType":"uint256"}],"stateMutability":"view"},{"type":"function","name":"getTotalVested","inputs":[{"name":"_account","type":"address","internalType":"address"}],"outputs":[{"name":"","type":"uint256","internalType":"uint256"}],"stateMutability":"view"},{"type":"function","name":"getVestedAmount","inputs":[{"name":"_account","type":"address","internalType":"address"}],"outputs":[{"name":"","type":"uint256","internalType":"uint256"}],"stateMutability":"view"},{"type":"function","name":"gov","inputs":[],"outputs":[{"name":"","type":"address","internalType":"address"}],"stateMutability":"view"},{"type":"function","name":"hasMaxVestableAmount","inputs":[],"outputs":[{"name":"","type":"bool","internalType":"bool"}],"stateMutability":"view"},{"type":"function","name":"hasPairToken","inputs":[],"outputs":[{"name":"","type":"bool","internalType":"bool"}],"stateMutability":"view"},{"type":"function","name":"hasRewardTracker","inputs":[],"outputs":[{"name":"","type":"bool","internalType":"bool"}],"stateMutability":"view"},{"type":"function","name":"isHandler","inputs":[{"name":"","type":"address","internalType":"address"}],"outputs":[{"name":"","type":"bool","internalType":"bool"}],"stateMutability":"view"},{"type":"function","name":"lastVestingTimes","inputs":[{"name":"","type":"address","internalType":"address"}],"outputs":[{"name":"","type":"uint256","internalType":"uint256"}],"stateMutability":"view"},{"type":"function","name":"name","inputs":[],"outputs":[{"name":"","type":"string","internalType":"string"}],"stateMutability":"view"},{"type":"function","name":"pairAmounts","inputs":[{"name":"","type":"address","internalType":"address"}],"outputs":[{"name":"","type":"uint256","internalType":"uint256"}],"stateMutability":"view"},{"type":"function","name":"pairSupply","inputs":[],"outputs":[{"name":"","type":"uint256","internalType":"uint256"}],"stateMutability":"view"},{"type":"function","name":"pairToken","inputs":[],"outputs":[{"name":"","type":"address","internalType":"address"}],"stateMutability":"view"},{"type":"function","name":"rewardTracker","inputs":[],"outputs":[{"name":"","type":"address","internalType":"address"}],"stateMutability":"view"},{"type":"function","name":"setBonusRewards","inputs":[{"name":"_account","type":"address","internalType":"address"},{"name":"_amount","type":"uint256","internalType":"uint256"}],"outputs":[],"stateMutability":"nonpayable"},{"type":"function","name":"setCumulativeRewardDeductions","inputs":[{"name":"_account","type":"address","internalType":"address"},{"name":"_amount","type":"uint256","internalType":"uint256"}],"outputs":[],"stateMutability":"nonpayable"},{"type":"function","name":"setGov","inputs":[{"name":"_gov","type":"address","internalType":"address"}],"outputs":[],"stateMutability":"nonpayable"},{"type":"function","name":"setHandler","inputs":[{"name":"_handler","type":"address","internalType":"address"},{"name":"_isActive","type":"bool","internalType":"bool"}],"outputs":[],"stateMutability":"nonpayable"},{"type":"function","name":"setHasMaxVestableAmount","inputs":[{"name":"_hasMaxVestableAmount","type":"bool","internalType":"bool"}],"outputs":[],"stateMutability":"nonpayable"},{"type":"function","name":"setTransferredAverageStakedAmounts","inputs":[{"name":"_account","type":"address","internalType":"address"},{"name":"_amount","type":"uint256","internalType":"uint256"}],"outputs":[],"stateMutability":"nonpayable"},{"type":"function","name":"setTransferredCumulativeRewards","inputs":[{"name":"_account","type":"address","internalType":"address"},{"name":"_amount","type":"uint256","internalType":"uint256"}],"outputs":[],"stateMutability":"nonpayable"},{"type":"function","name":"symbol","inputs":[],"outputs":[{"name":"","type":"string","internalType":"string"}],"stateMutability":"view"},{"type":"function","name":"totalSupply","inputs":[],"outputs":[{"name":"","type":"uint256","internalType":"uint256"}],"stateMutability":"view"},{"type":"function","name":"transfer","inputs":[{"name":"","type":"address","internalType":"address"},{"name":"","type":"uint256","internalType":"uint256"}],"outputs":[{"name":"","type":"bool","internalType":"bool"}],"stateMutability":"nonpayable"},{"type":"function","name":"transferFrom","inputs":[{"name":"","type":"address","internalType":"address"},{"name":"","type":"address","internalType":"address"},{"name":"","type":"uint256","internalType":"uint256"}],"outputs":[{"name":"","type":"bool","internalType":"bool"}],"stateMutability":"nonpayable"},{"type":"function","name":"transferStakeValues","inputs":[{"name":"_sender","type":"address","internalType":"address"},{"name":"_receiver","type":"address","internalType":"address"}],"outputs":[],"stateMutability":"nonpayable"},{"type":"function","name":"transferredAverageStakedAmounts","inputs":[{"name":"","type":"address","internalType":"address"}],"outputs":[{"name":"","type":"uint256","internalType":"uint256"}],"stateMutability":"view"},{"type":"function","name":"transferredCumulativeRewards","inputs":[{"name":"","type":"address","internalType":"address"}],"outputs":[{"name":"","type":"uint256","internalType":"uint256"}],"stateMutability":"view"},{"type":"function","name":"vestingDuration","inputs":[],"outputs":[{"name":"","type":"uint256","internalType":"uint256"}],"stateMutability":"view"},{"type":"function","name":"withdraw","inputs":[],"outputs":[],"stateMutability":"nonpayable"},{"type":"function","name":"withdrawToken","inputs":[{"name":"_token","type":"address","internalType":"address"},{"name":"_account","type":"address","internalType":"address"},{"name":"_amount","type":"uint256","internalType":"uint256"}],"outputs":[],"stateMutability":"nonpayable"},{"type":"event","name":"Approval","inputs":[{"name":"owner","type":"address","indexed":true,"internalType":"address"},{"name":"spender","type":"address","indexed":true,"internalType":"address"},{"name":"value","type":"uint256","indexed":false,"internalType":"uint256"}],"anonymous":false},{"type":"event","name":"Claim","inputs":[{"name":"receiver","type":"address","indexed":false,"internalType":"address"},{"name":"amount","type":"uint256","indexed":false,"internalType":"uint256"}],"anonymous":false},{"type":"event","name":"Deposit","inputs":[{"name":"account","type":"address","indexed":false,"internalType":"address"},{"name":"amount","type":"uint256","indexed":false,"internalType":"uint256"}],"anonymous":false},{"type":"event","name":"PairTransfer","inputs":[{"name":"from","type":"address","indexed":true,"internalType":"address"},{"name":"to","type":"address","indexed":true,"internalType":"address"},{"name":"value","type":"uint256","indexed":false,"internalType":"uint256"}],"anonymous":false},{"type":"event","name":"Transfer","inputs":[{"name":"from","type":"address","indexed":true,"internalType":"address"},{"name":"to","type":"address","indexed":true,"internalType":"address"},{"name":"value","type":"uint256","indexed":false,"internalType":"uint256"}],"anonymous":false},{"type":"event","name":"Withdraw","inputs":[{"name":"account","type":"address","indexed":false,"internalType":"address"},{"name":"claimedAmount","type":"uint256","indexed":false,"internalType":"uint256"},{"name":"balance","type":"uint256","indexed":false,"internalType":"uint256"}],"anonymous":false}],"bytecode":{"object":"0x60806040526004805460ff191660121790553480156200001e57600080fd5b506040516200287138038062002871833981810160405260e08110156200004457600080fd5b81019080805160405193929190846401000000008211156200006557600080fd5b9083019060208201858111156200007b57600080fd5b82516401000000008111828201881017156200009657600080fd5b82525081516020918201929091019080838360005b83811015620000c5578181015183820152602001620000ab565b50505050905090810190601f168015620000f35780820380516001836020036101000a031916815260200191505b50604052602001805160405193929190846401000000008211156200011757600080fd5b9083019060208201858111156200012d57600080fd5b82516401000000008111828201881017156200014857600080fd5b82525081516020918201929091019080838360005b83811015620001775781810151838201526020016200015d565b50505050905090810190601f168015620001a55780820380516001836020036101000a031916815260200191505b506040908152602082810151918301516060840151608085015160a090950151600180546001600160a01b03191633179055895194975091955093929091620001f4916002918a01906200027b565b5085516200020a9060039060208901906200027b565b506005859055600680546001600160a01b03199081166001600160a01b038781169190911790925560078054821686841617905560088054821685841617905560098054909116838316179081905516156200026e57600c805460ff191660011790555b5050505050505062000317565b828054600181600116156101000203166002900490600052602060002090601f016020900481019282601f10620002be57805160ff1916838001178555620002ee565b82800160010185558215620002ee579182015b82811115620002ee578251825591602001919060010190620002d1565b50620002fc92915062000300565b5090565b5b80821115620002fc576000815560010162000301565b61254a80620003276000396000f3fe608060405234801561001057600080fd5b506004361061024b5760003560e01c806369de9b931161014257806369de9b93146105bd5780636bcb411a146105dc57806370a08231146105e457806371417b321461060a5780637337035c146106305780637cf8f3b214610656578063930354731461068257806395d89b41146106a85780639cb7de4b146106b0578063a2545fa5146106de578063a9059cbb1461033d578063acf077a514610704578063b5ff136d1461070c578063b6b55f2514610732578063b71bce2a1461074f578063cfad57a214610775578063d0b038b71461079b578063d5a73fdd146107c7578063d75abb57146107ed578063d89b7007146107f5578063dd62ed3e14610821578063e3ecc4b21461084f578063f421f62a1461087b578063f6d6d5aa14610883578063f713c2301461088b5761024b565b806301e336671461025057806306fdde031461028857806308f26c7614610305578063095ea7b31461033d5780630db9ea4a1461037d57806312d43a51146103a357806313e82e7a146103c75780631514617e146103f557806315e90a41146103fd57806316ca05c51461040557806318160ddd1461040d57806323b872dd1461041557806327e235e31461044b578063313ce56714610471578063342fcda91461048f578063387a785d146104bb5780633ccfd60b146104e15780633de35b79146104e9578063402914f5146104f157806341f227241461051757806345f01ee61461054357806346ea87af146105695780634e71d92d1461058f5780635d50e72914610597575b600080fd5b6102866004803603606081101561026657600080fd5b506001600160a01b038135811691602081013590911690604001356108b9565b005b61029061091f565b6040805160208082528351818301528351919283929083019185019080838360005b838110156102ca5781810151838201526020016102b2565b50505050905090810190601f1680156102f75780820380516001836020036101000a031916815260200191505b509250505060405180910390f35b61032b6004803603602081101561031b57600080fd5b50356001600160a01b03166109aa565b60408051918252519081900360200190f35b6103696004803603604081101561035357600080fd5b506001600160a01b038135169060200135610ab3565b604080519115158252519081900360200190f35b61032b6004803603602081101561039357600080fd5b50356001600160a01b0316610afe565b6103ab610b10565b604080516001600160a01b039092168252519081900360200190f35b61032b600480360360408110156103dd57600080fd5b506001600160a01b0381358116916020013516610b1f565b61032b610b8a565b61032b610b90565b6103ab610b96565b61032b610ba5565b6103696004803603606081101561042b57600080fd5b506001600160a01b03813581169160208101359091169060400135610ab3565b61032b6004803603602081101561046157600080fd5b50356001600160a01b0316610bab565b610479610bbd565b6040805160ff9092168252519081900360200190f35b610286600480360360408110156104a557600080fd5b506001600160a01b038135169060200135610bc6565b61032b600480360360208110156104d157600080fd5b50356001600160a01b0316610c2c565b610286610c3e565b6103ab610e01565b61032b6004803603602081101561050757600080fd5b50356001600160a01b0316610e10565b6102866004803603604081101561052d57600080fd5b506001600160a01b038135169060200135610e61565b61032b6004803603602081101561055957600080fd5b50356001600160a01b0316610ed7565b6103696004803603602081101561057f57600080fd5b50356001600160a01b0316611049565b61032b61105e565b61032b600480360360208110156105ad57600080fd5b50356001600160a01b03166110bf565b610286600480360360208110156105d357600080fd5b503515156110d1565b6103ab611131565b61032b600480360360208110156105fa57600080fd5b50356001600160a01b0316611140565b61032b6004803603602081101561062057600080fd5b50356001600160a01b031661115b565b61032b6004803603602081101561064657600080fd5b50356001600160a01b031661116d565b61032b6004803603604081101561066c57600080fd5b506001600160a01b03813516906020013561117f565b61032b6004803603602081101561069857600080fd5b50356001600160a01b03166111e7565b610290611214565b610286600480360360408110156106c657600080fd5b506001600160a01b038135169060200135151561126f565b61032b600480360360208110156106f457600080fd5b50356001600160a01b03166112e7565b6103696112f9565b61032b6004803603602081101561072257600080fd5b50356001600160a01b0316611302565b6102866004803603602081101561074857600080fd5b5035611314565b61032b6004803603602081101561076557600080fd5b50356001600160a01b0316611371565b6102866004803603602081101561078b57600080fd5b50356001600160a01b0316611383565b610286600480360360408110156107b157600080fd5b506001600160a01b0381351690602001356113f2565b61032b600480360360208110156107dd57600080fd5b50356001600160a01b0316611468565b610369611496565b6102866004803603604081101561080b57600080fd5b506001600160a01b0381351690602001356114a7565b61032b6004803603604081101561083757600080fd5b506001600160a01b038135811691602001351661151d565b6102866004803603604081101561086557600080fd5b506001600160a01b038135169060200135611525565b61036961159b565b6103ab6115ac565b610286600480360360408110156108a157600080fd5b506001600160a01b03813581169160200135166115bb565b6001546001600160a01b03163314610906576040805162461bcd60e51b81526020600482015260156024820152600080516020612441833981519152604482015290519081900360640190fd5b61091a6001600160a01b0384168383611724565b505050565b6002805460408051602060018416156101000260001901909316849004601f810184900484028201840190925281815292918301828280156109a25780601f10610977576101008083540402835291602001916109a2565b820191906000526020600020905b81548152906001019060200180831161098557829003601f168201915b505050505081565b60006109b461159b565b6109c057506000610aae565b6001600160a01b0380831660008181526013602090815260408083205460158352818420546009548351633792def360e01b81526004810197909752925191969095921692633792def39260248082019391829003018186803b158015610a2657600080fd5b505afa158015610a3a573d6000803e3d6000fd5b505050506040513d6020811015610a5057600080fd5b505190506000610a6a83610a648487611776565b90611776565b6001600160a01b03871660009081526014602052604090205490915080821015610a9c57600095505050505050610aae565b610aa682826117d5565b955050505050505b919050565b6040805162461bcd60e51b81526020600482015260196024820152785665737465723a206e6f6e2d7472616e736665727261626c6560381b6044820152905160009181900360640190fd5b60116020526000908152604090205481565b6001546001600160a01b031681565b600060026000541415610b67576040805162461bcd60e51b815260206004820152601f6024820152600080516020612421833981519152604482015290519081900360640190fd5b6002600055610b74611817565b610b7e8383611871565b60016000559392505050565b60055481565b600b5481565b6006546001600160a01b031681565b600a5481565b600d6020526000908152604090205481565b60045460ff1681565b60026000541415610c0c576040805162461bcd60e51b815260206004820152601f6024820152600080516020612421833981519152604482015290519081900360640190fd5b6002600055610c19611817565b610c238282611924565b50506001600055565b60146020526000908152604090205481565b60026000541415610c84576040805162461bcd60e51b815260206004820152601f6024820152600080516020612421833981519152604482015290519081900360640190fd5b60026000553380610c958180611871565b506001600160a01b0382166000908152600f6020908152604080832054600d9092528220549091610cc68284611776565b905060008111610d1d576040805162461bcd60e51b815260206004820152601d60248201527f5665737465723a2076657374656420616d6f756e74206973207a65726f000000604482015290519081900360640190fd5b610d25611496565b15610d66576001600160a01b0385166000908152600e6020526040902054610d4d8682611ac6565b600754610d64906001600160a01b03168683611724565b505b600654610d7d906001600160a01b03168584611724565b610d878583611bb6565b6001600160a01b0385166000818152600f6020908152604080832083905560108252808320839055601182528083209290925581519283528201859052818101849052517ff279e6a1f5e320cca91135676d9cb6e44ca8a08c0b88342bcdb1144f6511b5689181900360600190a150506001600055505050565b6007546001600160a01b031681565b6001600160a01b038116600090815260106020908152604080832054600f9092528220548291610e4091906117d5565b90506000610e4d84611ca6565b9050610e598282611776565b949350505050565b60026000541415610ea7576040805162461bcd60e51b815260206004820152601f6024820152600080516020612421833981519152604482015290519081900360640190fd5b6002600055610eb4611817565b6001600160a01b0390911660009081526015602052604081209190915560019055565b60095460408051633792def360e01b81526001600160a01b038481166004830152915160009384931691633792def3916024808301926020929190829003018186803b158015610f2657600080fd5b505afa158015610f3a573d6000803e3d6000fd5b505050506040513d6020811015610f5057600080fd5b50516001600160a01b038416600090815260136020526040812054919250610f788383611776565b905080610f8b5760009350505050610aae565b6009546040805163a318021760e01b81526001600160a01b0388811660048301529151600093929092169163a318021791602480820192602092909190829003018186803b158015610fdc57600080fd5b505afa158015610ff0573d6000803e3d6000fd5b505050506040513d602081101561100657600080fd5b50516001600160a01b038716600090815260126020526040902054909150610aa661103b846110358488611d3f565b90611d98565b610a6485611035868a611d3f565b60166020526000908152604090205460ff1681565b6000600260005414156110a6576040805162461bcd60e51b815260206004820152601f6024820152600080516020612421833981519152604482015290519081900360640190fd5b60026000556110b53380611871565b9050600160005590565b600e6020526000908152604090205481565b6001546001600160a01b0316331461111e576040805162461bcd60e51b81526020600482015260156024820152600080516020612441833981519152604482015290519081900360640190fd5b600c805460ff1916911515919091179055565b6009546001600160a01b031681565b6001600160a01b03166000908152600d602052604090205490565b60106020526000908152604090205481565b60126020526000908152604090205481565b600061118961159b565b611195575060006111e1565b60006111a084610ed7565b9050806111b15760009150506111e1565b60006111bc856109aa565b9050806111ce576000925050506111e1565b6111dc816110358685611d3f565b925050505b92915050565b6001600160a01b0381166000908152600f6020908152604080832054600d9092528220546111e191611776565b6003805460408051602060026001851615610100026000190190941693909304601f810184900484028201840190925281815292918301828280156109a25780601f10610977576101008083540402835291602001916109a2565b6001546001600160a01b031633146112bc576040805162461bcd60e51b81526020600482015260156024820152600080516020612441833981519152604482015290519081900360640190fd5b6001600160a01b03919091166000908152601660205260409020805460ff1916911515919091179055565b60156020526000908152604090205481565b600c5460ff1681565b600f6020526000908152604090205481565b6002600054141561135a576040805162461bcd60e51b815260206004820152601f6024820152600080516020612421833981519152604482015290519081900360640190fd5b60026000556113693382611924565b506001600055565b60136020526000908152604090205481565b6001546001600160a01b031633146113d0576040805162461bcd60e51b81526020600482015260156024820152600080516020612441833981519152604482015290519081900360640190fd5b600180546001600160a01b0319166001600160a01b0392909216919091179055565b60026000541415611438576040805162461bcd60e51b815260206004820152601f6024820152600080516020612421833981519152604482015290519081900360640190fd5b6002600055611445611817565b6001600160a01b0390911660009081526013602052604081209190915560019055565b6001600160a01b0381166000908152600d6020908152604080832054600f909252822054610e598282611776565b6007546001600160a01b0316151590565b600260005414156114ed576040805162461bcd60e51b815260206004820152601f6024820152600080516020612421833981519152604482015290519081900360640190fd5b60026000556114fa611817565b6001600160a01b0390911660009081526014602052604081209190915560019055565b600092915050565b6002600054141561156b576040805162461bcd60e51b815260206004820152601f6024820152600080516020612421833981519152604482015290519081900360640190fd5b6002600055611578611817565b6001600160a01b0390911660009081526012602052604081209190915560019055565b6009546001600160a01b0316151590565b6008546001600160a01b031681565b60026000541415611601576040805162461bcd60e51b815260206004820152601f6024820152600080516020612421833981519152604482015290519081900360640190fd5b600260005561160e611817565b61161782610ed7565b6001600160a01b0380831660009081526012602090815260408083209490945585831680835284832083905560138252848320546009548651633792def360e01b815260048101939093529551909593949390931692633792def392602480840193919291829003018186803b15801561169057600080fd5b505afa1580156116a4573d6000803e3d6000fd5b505050506040513d60208110156116ba57600080fd5b505190506116c88282611776565b6001600160a01b0393841660008181526013602081815260408084209590955597909616808252601488528382209490945594865281852085905560159095528084208054958552908420949094558252509081905560019055565b604080516001600160a01b038416602482015260448082018490528251808303909101815260649091019091526020810180516001600160e01b031663a9059cbb60e01b17905261091a908490611dd7565b6000828201838110156117ce576040805162461bcd60e51b815260206004820152601b60248201527a536166654d6174683a206164646974696f6e206f766572666c6f7760281b604482015290519081900360640190fd5b9392505050565b60006117ce83836040518060400160405280601e81526020017f536166654d6174683a207375627472616374696f6e206f766572666c6f770000815250611e88565b3360009081526016602052604090205460ff1661186f576040805162461bcd60e51b81526020600482015260116024820152702b32b9ba32b91d103337b93134b23232b760791b604482015290519081900360640190fd5b565b600061187c83611f1f565b600061188784610e10565b6001600160a01b0385166000908152601060205260409020549091506118ad9082611776565b6001600160a01b038086166000908152601060205260409020919091556008546118d991168483611724565b604080516001600160a01b03861681526020810183905281517f47cee97cb7acd717b3c0aa1435d004cd5b3c8c57d70dbceb4e4458bbd60e39d4929181900390910190a19392505050565b60008111611973576040805162461bcd60e51b815260206004820152601760248201527615995cdd195c8e881a5b9d985b1a590817d85b5bdd5b9d604a1b604482015290519081900360640190fd5b61197c82611f1f565b600654611994906001600160a01b0316833084611ffd565b61199e828261205d565b6119a6611496565b15611a1d576001600160a01b0382166000908152600e6020908152604080832054600d9092528220549091906119dd90859061117f565b905081811115611a1a5760006119f382846117d5565b600754909150611a0e906001600160a01b0316863084611ffd565b611a188582612143565b505b50505b600c5460ff1615611a7e576000611a33836109aa565b905080611a3f846111e7565b1115611a7c5760405162461bcd60e51b81526004018080602001828103825260248152602001806124c76024913960400191505060405180910390fd5b505b604080516001600160a01b03841681526020810183905281517fe1fffcc4923d04b559f4d29a8bfc6cda04eb5b0d3c460751c2402c5c5cc9109c929181900390910190a15050565b6001600160a01b038216611b0b5760405162461bcd60e51b81526004018080602001828103825260228152602001806124846022913960400191505060405180910390fd5b611b4881604051806060016040528060238152602001612461602391396001600160a01b0385166000908152600e60205260409020549190611e88565b6001600160a01b0383166000908152600e6020526040902055600b54611b6e90826117d5565b600b556040805182815290516000916001600160a01b038516917f659523c479d006050ebc0d0e48fea36d1b2c5d45b2f31402ac6f8671fc84cc049181900360200190a35050565b6001600160a01b038216611bfb5760405162461bcd60e51b81526004018080602001828103825260228152602001806124846022913960400191505060405180910390fd5b611c3881604051806060016040528060238152602001612461602391396001600160a01b0385166000908152600d60205260409020549190611e88565b6001600160a01b0383166000908152600d6020526040902055600a54611c5e90826117d5565b600a556040805182815290516000916001600160a01b038516917fddf252ad1be2c89b69c2b068fc378daa952ba7f163c4a11628f55a4df523b3ef9181900360200190a35050565b6001600160a01b0381166000908152601160205260408120548190611ccc9042906117d5565b6001600160a01b0384166000908152600d602052604090205490915080611cf857600092505050610aae565b6000611d0385611468565b90506000611d206005546110358685611d3f90919063ffffffff16565b905082811015611d35579350610aae92505050565b5090949350505050565b600082611d4e575060006111e1565b82820282848281611d5b57fe5b04146117ce5760405162461bcd60e51b81526004018080602001828103825260218152602001806124a66021913960400191505060405180910390fd5b60006117ce83836040518060400160405280601a815260200179536166654d6174683a206469766973696f6e206279207a65726f60301b815250612229565b6060611e2c826040518060400160405280602081526020017f5361666545524332303a206c6f772d6c6576656c2063616c6c206661696c6564815250856001600160a01b031661228e9092919063ffffffff16565b80519091501561091a57808060200190516020811015611e4b57600080fd5b505161091a5760405162461bcd60e51b815260040180806020018281038252602a8152602001806124eb602a913960400191505060405180910390fd5b60008184841115611f175760405162461bcd60e51b81526004018080602001828103825283818151815260200191508051906020019080838360005b83811015611edc578181015183820152602001611ec4565b50505050905090810190601f168015611f095780820380516001836020036101000a031916815260200191505b509250505060405180910390fd5b505050900390565b6000611f2a82611ca6565b6001600160a01b0383166000908152601160205260409020429055905080611f525750611ffa565b611f5c8282611bb6565b6001600160a01b0382166000908152600f6020526040902054611f7f9082611776565b6001600160a01b038084166000908152600f6020526040808220939093556006548351632770a7eb60e21b8152306004820152602481018690529351921692639dc29fac926044808301939282900301818387803b158015611fe057600080fd5b505af1158015611ff4573d6000803e3d6000fd5b50505050505b50565b604080516001600160a01b0380861660248301528416604482015260648082018490528251808303909101815260849091019091526020810180516001600160e01b03166323b872dd60e01b179052612057908590611dd7565b50505050565b6001600160a01b0382166120b8576040805162461bcd60e51b815260206004820181905260248201527f5665737465723a206d696e7420746f20746865207a65726f2061646472657373604482015290519081900360640190fd5b600a546120c59082611776565b600a556001600160a01b0382166000908152600d60205260409020546120eb9082611776565b6001600160a01b0383166000818152600d602090815260408083209490945583518581529351929391927fddf252ad1be2c89b69c2b068fc378daa952ba7f163c4a11628f55a4df523b3ef9281900390910190a35050565b6001600160a01b03821661219e576040805162461bcd60e51b815260206004820181905260248201527f5665737465723a206d696e7420746f20746865207a65726f2061646472657373604482015290519081900360640190fd5b600b546121ab9082611776565b600b556001600160a01b0382166000908152600e60205260409020546121d19082611776565b6001600160a01b0383166000818152600e602090815260408083209490945583518581529351929391927f659523c479d006050ebc0d0e48fea36d1b2c5d45b2f31402ac6f8671fc84cc049281900390910190a35050565b600081836122785760405162461bcd60e51b8152602060048201818152835160248401528351909283926044909101919085019080838360008315611edc578181015183820152602001611ec4565b50600083858161228457fe5b0495945050505050565b6060610e598484600085856122a2856123b4565b6122f3576040805162461bcd60e51b815260206004820152601d60248201527f416464726573733a2063616c6c20746f206e6f6e2d636f6e7472616374000000604482015290519081900360640190fd5b60006060866001600160a01b031685876040518082805190602001908083835b602083106123325780518252601f199092019160209182019101612313565b6001836020036101000a03801982511681845116808217855250505050505090500191505060006040518083038185875af1925050503d8060008114612394576040519150601f19603f3d011682016040523d82523d6000602084013e612399565b606091505b50915091506123a98282866123ba565b979650505050505050565b3b151590565b606083156123c95750816117ce565b8251156123d95782518084602001fd5b60405162461bcd60e51b8152602060048201818152845160248401528451859391928392604401919085019080838360008315611edc578181015183820152602001611ec456fe5265656e7472616e637947756172643a207265656e7472616e742063616c6c00476f7665726e61626c653a20666f7262696464656e00000000000000000000005665737465723a206275726e20616d6f756e7420657863656564732062616c616e63655665737465723a206275726e2066726f6d20746865207a65726f2061646472657373536166654d6174683a206d756c7469706c69636174696f6e206f766572666c6f775665737465723a206d6178207665737461626c6520616d6f756e742065786365656465645361666545524332303a204552433230206f7065726174696f6e20646964206e6f742073756363656564a2646970667358221220ef2a14ee99e0ef5f5411ea4f90e86eebf3f9c47b9bae7fc2853b8ab330f0200564736f6c634300060c0033","linkReferences":{}},"methodIdentifiers":{"allowance(address,address)":"dd62ed3e","approve(address,uint256)":"095ea7b3","balanceOf(address)":"70a08231","balances(address)":"27e235e3","bonusRewards(address)":"a2545fa5","claim()":"4e71d92d","claimForAccount(address,address)":"13e82e7a","claimable(address)":"402914f5","claimableToken()":"f6d6d5aa","claimedAmounts(address)":"71417b32","cumulativeClaimAmounts(address)":"b5ff136d","cumulativeRewardDeductions(address)":"387a785d","decimals()":"313ce567","deposit(uint256)":"b6b55f25","depositForAccount(address,uint256)":"342fcda9","esToken()":"16ca05c5","getCombinedAverageStakedAmount(address)":"45f01ee6","getMaxVestableAmount(address)":"08f26c76","getPairAmount(address,uint256)":"7cf8f3b2","getTotalVested(address)":"93035473","getVestedAmount(address)":"d5a73fdd","gov()":"12d43a51","hasMaxVestableAmount()":"acf077a5","hasPairToken()":"d75abb57","hasRewardTracker()":"f421f62a","isHandler(address)":"46ea87af","lastVestingTimes(address)":"0db9ea4a","name()":"06fdde03","pairAmounts(address)":"5d50e729","pairSupply()":"15e90a41","pairToken()":"3de35b79","rewardTracker()":"6bcb411a","setBonusRewards(address,uint256)":"41f22724","setCumulativeRewardDeductions(address,uint256)":"d89b7007","setGov(address)":"cfad57a2","setHandler(address,bool)":"9cb7de4b","setHasMaxVestableAmount(bool)":"69de9b93","setTransferredAverageStakedAmounts(address,uint256)":"e3ecc4b2","setTransferredCumulativeRewards(address,uint256)":"d0b038b7","symbol()":"95d89b41","totalSupply()":"18160ddd","transfer(address,uint256)":"a9059cbb","transferFrom(address,address,uint256)":"23b872dd","transferStakeValues(address,address)":"f713c230","transferredAverageStakedAmounts(address)":"7337035c","transferredCumulativeRewards(address)":"b71bce2a","vestingDuration()":"1514617e","withdraw()":"3ccfd60b","withdrawToken(address,address,uint256)":"01e33667"},"id":131}