{"abi":[{"type":"constructor","inputs":[{"name":"_name","type":"string","internalType":"string"},{"name":"_symbol","type":"string","internalType":"string"},{"name":"_vestingDuration","type":"uint256","internalType":"uint256"},{"name":"_esToken","type":"address","internalType":"address"},{"name":"_pairToken","type":"address","internalType":"address"},{"name":"_claimableToken","type":"address","internalType":"address"},{"name":"_rewardTracker","type":"address","internalType":"address"}],"stateMutability":"nonpayable"},{"type":"function","name":"acceptGov","inputs":[],"outputs":[],"stateMutability":"nonpayable"},{"type":"function","name":"allowance","inputs":[{"name":"","type":"address","internalType":"address"},{"name":"","type":"address","internalType":"address"}],"outputs":[{"name":"","type":"uint256","internalType":"uint256"}],"stateMutability":"view"},{"type":"function","name":"approve","inputs":[{"name":"","type":"address","internalType":"address"},{"name":"","type":"uint256","internalType":"uint256"}],"outputs":[{"name":"","type":"bool","internalType":"bool"}],"stateMutability":"nonpayable"},{"type":"function","name":"balanceOf","inputs":[{"name":"_account","type":"address","internalType":"address"}],"outputs":[{"name":"","type":"uint256","internalType":"uint256"}],"stateMutability":"view"},{"type":"function","name":"balances","inputs":[{"name":"","type":"address","internalType":"address"}],"outputs":[{"name":"","type":"uint256","internalType":"uint256"}],"stateMutability":"view"},{"type":"function","name":"bonusRewards","inputs":[{"name":"","type":"address","internalType":"address"}],"outputs":[{"name":"","type":"uint256","internalType":"uint256"}],"stateMutability":"view"},{"type":"function","name":"cancelGovProposal","inputs":[{"name":"_gov","type":"address","internalType":"address"}],"outputs":[],"stateMutability":"nonpayable"},{"type":"function","name":"claim","inputs":[],"outputs":[{"name":"","type":"uint256","internalType":"uint256"}],"stateMutability":"nonpayable"},{"type":"function","name":"claimForAccount","inputs":[{"name":"_account","type":"address","internalType":"address"},{"name":"_receiver","type":"address","internalType":"address"}],"outputs":[{"name":"","type":"uint256","internalType":"uint256"}],"stateMutability":"nonpayable"},{"type":"function","name":"claimable","inputs":[{"name":"_account","type":"address","internalType":"address"}],"outputs":[{"name":"","type":"uint256","internalType":"uint256"}],"stateMutability":"view"},{"type":"function","name":"claimableToken","inputs":[],"outputs":[{"name":"","type":"address","internalType":"address"}],"stateMutability":"view"},{"type":"function","name":"claimedAmounts","inputs":[{"name":"","type":"address","internalType":"address"}],"outputs":[{"name":"","type":"uint256","internalType":"uint256"}],"stateMutability":"view"},{"type":"function","name":"cumulativeClaimAmounts","inputs":[{"name":"","type":"address","internalType":"address"}],"outputs":[{"name":"","type":"uint256","internalType":"uint256"}],"stateMutability":"view"},{"type":"function","name":"cumulativeRewardDeductions","inputs":[{"name":"","type":"address","internalType":"address"}],"outputs":[{"name":"","type":"uint256","internalType":"uint256"}],"stateMutability":"view"},{"type":"function","name":"decimals","inputs":[],"outputs":[{"name":"","type":"uint8","internalType":"uint8"}],"stateMutability":"view"},{"type":"function","name":"deposit","inputs":[{"name":"_amount","type":"uint256","internalType":"uint256"}],"outputs":[],"stateMutability":"nonpayable"},{"type":"function","name":"depositForAccount","inputs":[{"name":"_account","type":"address","internalType":"address"},{"name":"_amount","type":"uint256","internalType":"uint256"}],"outputs":[],"stateMutability":"nonpayable"},{"type":"function","name":"esToken","inputs":[],"outputs":[{"name":"","type":"address","internalType":"address"}],"stateMutability":"view"},{"type":"function","name":"getCombinedAverageStakedAmount","inputs":[{"name":"_account","type":"address","internalType":"address"}],"outputs":[{"name":"","type":"uint256","internalType":"uint256"}],"stateMutability":"view"},{"type":"function","name":"getMaxVestableAmount","inputs":[{"name":"_account","type":"address","internalType":"address"}],"outputs":[{"name":"","type":"uint256","internalType":"uint256"}],"stateMutability":"view"},{"type":"function","name":"getPairAmount","inputs":[{"name":"_account","type":"address","internalType":"address"},{"name":"_esAmount","type":"uint256","internalType":"uint256"}],"outputs":[{"name":"","type":"uint256","internalType":"uint256"}],"stateMutability":"view"},{"type":"function","name":"getTotalVested","inputs":[{"name":"_account","type":"address","internalType":"address"}],"outputs":[{"name":"","type":"uint256","internalType":"uint256"}],"stateMutability":"view"},{"type":"function","name":"getVestedAmount","inputs":[{"name":"_account","type":"address","internalType":"address"}],"outputs":[{"name":"","type":"uint256","internalType":"uint256"}],"stateMutability":"view"},{"type":"function","name":"gov","inputs":[],"outputs":[{"name":"","type":"address","internalType":"address"}],"stateMutability":"view"},{"type":"function","name":"govProposals","inputs":[{"name":"","type":"address","internalType":"address"}],"outputs":[{"name":"deadline","type":"uint256","internalType":"uint256"},{"name":"isActive","type":"bool","internalType":"bool"}],"stateMutability":"view"},{"type":"function","name":"hasMaxVestableAmount","inputs":[],"outputs":[{"name":"","type":"bool","internalType":"bool"}],"stateMutability":"view"},{"type":"function","name":"hasPairToken","inputs":[],"outputs":[{"name":"","type":"bool","internalType":"bool"}],"stateMutability":"view"},{"type":"function","name":"hasRewardTracker","inputs":[],"outputs":[{"name":"","type":"bool","internalType":"bool"}],"stateMutability":"view"},{"type":"function","name":"isHandler","inputs":[{"name":"","type":"address","internalType":"address"}],"outputs":[{"name":"","type":"bool","internalType":"bool"}],"stateMutability":"view"},{"type":"function","name":"lastVestingTimes","inputs":[{"name":"","type":"address","internalType":"address"}],"outputs":[{"name":"","type":"uint256","internalType":"uint256"}],"stateMutability":"view"},{"type":"function","name":"name","inputs":[],"outputs":[{"name":"","type":"string","internalType":"string"}],"stateMutability":"view"},{"type":"function","name":"pairAmounts","inputs":[{"name":"","type":"address","internalType":"address"}],"outputs":[{"name":"","type":"uint256","internalType":"uint256"}],"stateMutability":"view"},{"type":"function","name":"pairSupply","inputs":[],"outputs":[{"name":"","type":"uint256","internalType":"uint256"}],"stateMutability":"view"},{"type":"function","name":"pairToken","inputs":[],"outputs":[{"name":"","type":"address","internalType":"address"}],"stateMutability":"view"},{"type":"function","name":"rewardTracker","inputs":[],"outputs":[{"name":"","type":"address","internalType":"address"}],"stateMutability":"view"},{"type":"function","name":"setBonusRewards","inputs":[{"name":"_account","type":"address","internalType":"address"},{"name":"_amount","type":"uint256","internalType":"uint256"}],"outputs":[],"stateMutability":"nonpayable"},{"type":"function","name":"setCumulativeRewardDeductions","inputs":[{"name":"_account","type":"address","internalType":"address"},{"name":"_amount","type":"uint256","internalType":"uint256"}],"outputs":[],"stateMutability":"nonpayable"},{"type":"function","name":"setGov","inputs":[{"name":"_gov","type":"address","internalType":"address"}],"outputs":[],"stateMutability":"nonpayable"},{"type":"function","name":"setGovWithDeadline","inputs":[{"name":"_gov","type":"address","internalType":"address"},{"name":"_deadline","type":"uint256","internalType":"uint256"}],"outputs":[],"stateMutability":"nonpayable"},{"type":"function","name":"setHandler","inputs":[{"name":"_handler","type":"address","internalType":"address"},{"name":"_isActive","type":"bool","internalType":"bool"}],"outputs":[],"stateMutability":"nonpayable"},{"type":"function","name":"setHasMaxVestableAmount","inputs":[{"name":"_hasMaxVestableAmount","type":"bool","internalType":"bool"}],"outputs":[],"stateMutability":"nonpayable"},{"type":"function","name":"setTransferredAverageStakedAmounts","inputs":[{"name":"_account","type":"address","internalType":"address"},{"name":"_amount","type":"uint256","internalType":"uint256"}],"outputs":[],"stateMutability":"nonpayable"},{"type":"function","name":"setTransferredCumulativeRewards","inputs":[{"name":"_account","type":"address","internalType":"address"},{"name":"_amount","type":"uint256","internalType":"uint256"}],"outputs":[],"stateMutability":"nonpayable"},{"type":"function","name":"symbol","inputs":[],"outputs":[{"name":"","type":"string","internalType":"string"}],"stateMutability":"view"},{"type":"function","name":"totalSupply","inputs":[],"outputs":[{"name":"","type":"uint256","internalType":"uint256"}],"stateMutability":"view"},{"type":"function","name":"transfer","inputs":[{"name":"","type":"address","internalType":"address"},{"name":"","type":"uint256","internalType":"uint256"}],"outputs":[{"name":"","type":"bool","internalType":"bool"}],"stateMutability":"nonpayable"},{"type":"function","name":"transferFrom","inputs":[{"name":"","type":"address","internalType":"address"},{"name":"","type":"address","internalType":"address"},{"name":"","type":"uint256","internalType":"uint256"}],"outputs":[{"name":"","type":"bool","internalType":"bool"}],"stateMutability":"nonpayable"},{"type":"function","name":"transferStakeValues","inputs":[{"name":"_sender","type":"address","internalType":"address"},{"name":"_receiver","type":"address","internalType":"address"}],"outputs":[],"stateMutability":"nonpayable"},{"type":"function","name":"transferredAverageStakedAmounts","inputs":[{"name":"","type":"address","internalType":"address"}],"outputs":[{"name":"","type":"uint256","internalType":"uint256"}],"stateMutability":"view"},{"type":"function","name":"transferredCumulativeRewards","inputs":[{"name":"","type":"address","internalType":"address"}],"outputs":[{"name":"","type":"uint256","internalType":"uint256"}],"stateMutability":"view"},{"type":"function","name":"vestingDuration","inputs":[],"outputs":[{"name":"","type":"uint256","internalType":"uint256"}],"stateMutability":"view"},{"type":"function","name":"withdraw","inputs":[],"outputs":[],"stateMutability":"nonpayable"},{"type":"function","name":"withdrawToken","inputs":[{"name":"_token","type":"address","internalType":"address"},{"name":"_account","type":"address","internalType":"address"},{"name":"_amount","type":"uint256","internalType":"uint256"}],"outputs":[],"stateMutability":"nonpayable"},{"type":"event","name":"Approval","inputs":[{"name":"owner","type":"address","indexed":true,"internalType":"address"},{"name":"spender","type":"address","indexed":true,"internalType":"address"},{"name":"value","type":"uint256","indexed":false,"internalType":"uint256"}],"anonymous":false},{"type":"event","name":"Claim","inputs":[{"name":"receiver","type":"address","indexed":false,"internalType":"address"},{"name":"amount","type":"uint256","indexed":false,"internalType":"uint256"}],"anonymous":false},{"type":"event","name":"Deposit","inputs":[{"name":"account","type":"address","indexed":false,"internalType":"address"},{"name":"amount","type":"uint256","indexed":false,"internalType":"uint256"}],"anonymous":false},{"type":"event","name":"GovernanceTransferRequested","inputs":[{"name":"newGov","type":"address","indexed":true,"internalType":"address"},{"name":"deadline","type":"uint256","indexed":false,"internalType":"uint256"}],"anonymous":false},{"type":"event","name":"GovernanceTransferred","inputs":[{"name":"oldGov","type":"address","indexed":true,"internalType":"address"},{"name":"newGov","type":"address","indexed":true,"internalType":"address"}],"anonymous":false},{"type":"event","name":"PairTransfer","inputs":[{"name":"from","type":"address","indexed":true,"internalType":"address"},{"name":"to","type":"address","indexed":true,"internalType":"address"},{"name":"value","type":"uint256","indexed":false,"internalType":"uint256"}],"anonymous":false},{"type":"event","name":"Transfer","inputs":[{"name":"from","type":"address","indexed":true,"internalType":"address"},{"name":"to","type":"address","indexed":true,"internalType":"address"},{"name":"value","type":"uint256","indexed":false,"internalType":"uint256"}],"anonymous":false},{"type":"event","name":"Withdraw","inputs":[{"name":"account","type":"address","indexed":false,"internalType":"address"},{"name":"claimedAmount","type":"uint256","indexed":false,"internalType":"uint256"},{"name":"balance","type":"uint256","indexed":false,"internalType":"uint256"}],"anonymous":false}],"bytecode":{"object":"0x60806040526005805460ff191660121790553480156200001e57600080fd5b5060405162002da738038062002da7833981810160405260e08110156200004457600080fd5b81019080805160405193929190846401000000008211156200006557600080fd5b9083019060208201858111156200007b57600080fd5b82516401000000008111828201881017156200009657600080fd5b82525081516020918201929091019080838360005b83811015620000c5578181015183820152602001620000ab565b50505050905090810190601f168015620000f35780820380516001836020036101000a031916815260200191505b50604052602001805160405193929190846401000000008211156200011757600080fd5b9083019060208201858111156200012d57600080fd5b82516401000000008111828201881017156200014857600080fd5b82525081516020918201929091019080838360005b83811015620001775781810151838201526020016200015d565b50505050905090810190601f168015620001a55780820380516001836020036101000a031916815260200191505b506040908152602082810151918301516060840151608085015160a090950151600180546001600160a01b03191633179055895194975091955093929091620001f4916003918a01906200027b565b5085516200020a9060049060208901906200027b565b506006859055600780546001600160a01b03199081166001600160a01b0387811691909117909255600880548216868416179055600980548216858416179055600a8054909116838316179081905516156200026e57600d805460ff191660011790555b5050505050505062000317565b828054600181600116156101000203166002900490600052602060002090601f016020900481019282601f10620002be57805160ff1916838001178555620002ee565b82800160010185558215620002ee579182015b82811115620002ee578251825591602001919060010190620002d1565b50620002fc92915062000300565b5090565b5b80821115620002fc576000815560010162000301565b612a8080620003276000396000f3fe608060405234801561001057600080fd5b50600436106102775760003560e01c80636bcb411a116101585780636bcb411a1461063457806370a082311461063c57806371417b32146106625780637337035c146106885780637bc6729b146106ae5780637cf8f3b2146106b65780638d0fedb0146106e2578063930354731461072157806395d89b41146107475780639c35b4971461074f5780639cb7de4b14610775578063a2545fa5146107a3578063a9059cbb14610369578063acf077a5146107c9578063b5ff136d146107d1578063b6b55f25146107f7578063b71bce2a14610814578063cfad57a21461083a578063d0b038b714610860578063d5a73fdd1461088c578063d75abb57146108b2578063d89b7007146108ba578063dd62ed3e146108e6578063e3ecc4b214610914578063f421f62a14610940578063f6d6d5aa14610948578063f713c2301461095057610277565b806301e336671461027c57806306fdde03146102b457806308f26c7614610331578063095ea7b3146103695780630db9ea4a146103a957806312d43a51146103cf57806313e82e7a146103f35780631514617e1461042157806315e90a411461042957806316ca05c51461043157806318160ddd1461043957806323b872dd1461044157806327e235e314610477578063313ce5671461049d578063342fcda9146104bb578063387a785d146104e75780633ccfd60b1461050d5780633de35b7914610515578063402914f51461051d57806341f227241461054357806345f01ee61461056f57806346ea87af146105955780634e71d92d146105bb5780635d50e729146105c357806369de9b93146105e95780636bb22fd714610608575b600080fd5b6102b26004803603606081101561029257600080fd5b506001600160a01b0381358116916020810135909116906040013561097e565b005b6102bc6109e4565b6040805160208082528351818301528351919283929083019185019080838360005b838110156102f65781810151838201526020016102de565b50505050905090810190601f1680156103235780820380516001836020036101000a031916815260200191505b509250505060405180910390f35b6103576004803603602081101561034757600080fd5b50356001600160a01b0316610a72565b60408051918252519081900360200190f35b6103956004803603604081101561037f57600080fd5b506001600160a01b038135169060200135610b7b565b604080519115158252519081900360200190f35b610357600480360360208110156103bf57600080fd5b50356001600160a01b0316610bc6565b6103d7610bd8565b604080516001600160a01b039092168252519081900360200190f35b6103576004803603604081101561040957600080fd5b506001600160a01b0381358116916020013516610be7565b610357610c52565b610357610c58565b6103d7610c5e565b610357610c6d565b6103956004803603606081101561045757600080fd5b506001600160a01b03813581169160208101359091169060400135610b7b565b6103576004803603602081101561048d57600080fd5b50356001600160a01b0316610c73565b6104a5610c85565b6040805160ff9092168252519081900360200190f35b6102b2600480360360408110156104d157600080fd5b506001600160a01b038135169060200135610c8e565b610357600480360360208110156104fd57600080fd5b50356001600160a01b0316610cf4565b6102b2610d06565b6103d7610ec9565b6103576004803603602081101561053357600080fd5b50356001600160a01b0316610ed8565b6102b26004803603604081101561055957600080fd5b506001600160a01b038135169060200135610f29565b6103576004803603602081101561058557600080fd5b50356001600160a01b0316610f9f565b610395600480360360208110156105ab57600080fd5b50356001600160a01b0316611111565b610357611126565b610357600480360360208110156105d957600080fd5b50356001600160a01b0316611187565b6102b2600480360360208110156105ff57600080fd5b50351515611199565b6102b26004803603604081101561061e57600080fd5b506001600160a01b0381351690602001356111f9565b6103d761130e565b6103576004803603602081101561065257600080fd5b50356001600160a01b031661131d565b6103576004803603602081101561067857600080fd5b50356001600160a01b0316611338565b6103576004803603602081101561069e57600080fd5b50356001600160a01b031661134a565b6102b261135c565b610357600480360360408110156106cc57600080fd5b506001600160a01b038135169060200135611471565b610708600480360360208110156106f857600080fd5b50356001600160a01b03166114d9565b6040805192835290151560208301528051918290030190f35b6103576004803603602081101561073757600080fd5b50356001600160a01b03166114f5565b6102bc611522565b6102b26004803603602081101561076557600080fd5b50356001600160a01b031661157d565b6102b26004803603604081101561078b57600080fd5b506001600160a01b0381351690602001351515611661565b610357600480360360208110156107b957600080fd5b50356001600160a01b03166116d9565b6103956116eb565b610357600480360360208110156107e757600080fd5b50356001600160a01b03166116f4565b6102b26004803603602081101561080d57600080fd5b5035611706565b6103576004803603602081101561082a57600080fd5b50356001600160a01b0316611763565b6102b26004803603602081101561085057600080fd5b50356001600160a01b0316611775565b6102b26004803603604081101561087657600080fd5b506001600160a01b03813516906020013561188b565b610357600480360360208110156108a257600080fd5b50356001600160a01b0316611901565b61039561192f565b6102b2600480360360408110156108d057600080fd5b506001600160a01b038135169060200135611940565b610357600480360360408110156108fc57600080fd5b506001600160a01b03813581169160200135166119b6565b6102b26004803603604081101561092a57600080fd5b506001600160a01b0381351690602001356119be565b610395611a34565b6103d7611a45565b6102b26004803603604081101561096657600080fd5b506001600160a01b0381358116916020013516611a54565b6001546001600160a01b031633146109cb576040805162461bcd60e51b81526020600482015260156024820152600080516020612955833981519152604482015290519081900360640190fd5b6109df6001600160a01b0384168383611bbd565b505050565b6003805460408051602060026001851615610100026000190190941693909304601f81018490048402820184019092528181529291830182828015610a6a5780601f10610a3f57610100808354040283529160200191610a6a565b820191906000526020600020905b815481529060010190602001808311610a4d57829003601f168201915b505050505081565b6000610a7c611a34565b610a8857506000610b76565b6001600160a01b038083166000818152601460209081526040808320546016835281842054600a548351633792def360e01b81526004810197909752925191969095921692633792def39260248082019391829003018186803b158015610aee57600080fd5b505afa158015610b02573d6000803e3d6000fd5b505050506040513d6020811015610b1857600080fd5b505190506000610b3283610b2c8487611c0f565b90611c0f565b6001600160a01b03871660009081526015602052604090205490915080821015610b6457600095505050505050610b76565b610b6e8282611c6e565b955050505050505b919050565b6040805162461bcd60e51b81526020600482015260196024820152785665737465723a206e6f6e2d7472616e736665727261626c6560381b6044820152905160009181900360640190fd5b60126020526000908152604090205481565b6001546001600160a01b031681565b600060026000541415610c2f576040805162461bcd60e51b815260206004820152601f6024820152600080516020612935833981519152604482015290519081900360640190fd5b6002600055610c3c611cb0565b610c468383611d0a565b60016000559392505050565b60065481565b600c5481565b6007546001600160a01b031681565b600b5481565b600e6020526000908152604090205481565b60055460ff1681565b60026000541415610cd4576040805162461bcd60e51b815260206004820152601f6024820152600080516020612935833981519152604482015290519081900360640190fd5b6002600055610ce1611cb0565b610ceb8282611dbd565b50506001600055565b60156020526000908152604090205481565b60026000541415610d4c576040805162461bcd60e51b815260206004820152601f6024820152600080516020612935833981519152604482015290519081900360640190fd5b60026000553380610d5d8180611d0a565b506001600160a01b038216600090815260106020908152604080832054600e9092528220549091610d8e8284611c0f565b905060008111610de5576040805162461bcd60e51b815260206004820152601d60248201527f5665737465723a2076657374656420616d6f756e74206973207a65726f000000604482015290519081900360640190fd5b610ded61192f565b15610e2e576001600160a01b0385166000908152600f6020526040902054610e158682611f5f565b600854610e2c906001600160a01b03168683611bbd565b505b600754610e45906001600160a01b03168584611bbd565b610e4f858361204f565b6001600160a01b038516600081815260106020908152604080832083905560118252808320839055601282528083209290925581519283528201859052818101849052517ff279e6a1f5e320cca91135676d9cb6e44ca8a08c0b88342bcdb1144f6511b5689181900360600190a150506001600055505050565b6008546001600160a01b031681565b6001600160a01b03811660009081526011602090815260408083205460109092528220548291610f089190611c6e565b90506000610f158461213f565b9050610f218282611c0f565b949350505050565b60026000541415610f6f576040805162461bcd60e51b815260206004820152601f6024820152600080516020612935833981519152604482015290519081900360640190fd5b6002600055610f7c611cb0565b6001600160a01b0390911660009081526016602052604081209190915560019055565b600a5460408051633792def360e01b81526001600160a01b038481166004830152915160009384931691633792def3916024808301926020929190829003018186803b158015610fee57600080fd5b505afa158015611002573d6000803e3d6000fd5b505050506040513d602081101561101857600080fd5b50516001600160a01b0384166000908152601460205260408120549192506110408383611c0f565b9050806110535760009350505050610b76565b600a546040805163a318021760e01b81526001600160a01b0388811660048301529151600093929092169163a318021791602480820192602092909190829003018186803b1580156110a457600080fd5b505afa1580156110b8573d6000803e3d6000fd5b505050506040513d60208110156110ce57600080fd5b50516001600160a01b038716600090815260136020526040902054909150610b6e611103846110fd84886121d8565b90612231565b610b2c856110fd868a6121d8565b60176020526000908152604090205460ff1681565b60006002600054141561116e576040805162461bcd60e51b815260206004820152601f6024820152600080516020612935833981519152604482015290519081900360640190fd5b600260005561117d3380611d0a565b9050600160005590565b600f6020526000908152604090205481565b6001546001600160a01b031633146111e6576040805162461bcd60e51b81526020600482015260156024820152600080516020612955833981519152604482015290519081900360640190fd5b600d805460ff1916911515919091179055565b6001546001600160a01b03163314611246576040805162461bcd60e51b81526020600482015260156024820152600080516020612955833981519152604482015290519081900360640190fd5b6001600160a01b03821661129f576040805162461bcd60e51b815260206004820152601b60248201527a476f7665726e61626c653a20696e76616c6964206164647265737360281b604482015290519081900360640190fd5b6001546001600160a01b0383811691161415611300576040805162461bcd60e51b815260206004820152601b60248201527a476f7665726e61626c653a2073616d6520676f7665726e616e636560281b604482015290519081900360640190fd5b61130a8282612270565b5050565b600a546001600160a01b031681565b6001600160a01b03166000908152600e602052604090205490565b60116020526000908152604090205481565b60136020526000908152604090205481565b336000908152600260205260409020805442106113bf576040805162461bcd60e51b815260206004820152601c60248201527b11dbdd995c9b98589b194e88191958591b1a5b9948195e1c1a5c995960221b604482015290519081900360640190fd5b60018082015460ff161515146114065760405162461bcd60e51b81526004018080602001828103825260228152602001806129ba6022913960400191505060405180910390fd5b60018054336000818152600260205260408082208281558501805460ff1916905584546001600160a01b031916831790945592516001600160a01b0390921692909183917f5f56bee8cffbe9a78652a74a60705edede02af10b0bbb888ca44b79a0d42ce8091a35050565b600061147b611a34565b611487575060006114d3565b600061149284610f9f565b9050806114a35760009150506114d3565b60006114ae85610a72565b9050806114c0576000925050506114d3565b6114ce816110fd86856121d8565b925050505b92915050565b6002602052600090815260409020805460019091015460ff1682565b6001600160a01b038116600090815260106020908152604080832054600e9092528220546114d391611c0f565b6004805460408051602060026001851615610100026000190190941693909304601f81018490048402820184019092528181529291830182828015610a6a5780601f10610a3f57610100808354040283529160200191610a6a565b6001546001600160a01b031633146115ca576040805162461bcd60e51b81526020600482015260156024820152600080516020612955833981519152604482015290519081900360640190fd5b6001600160a01b03811660009081526002602052604090206001015460ff1661163a576040805162461bcd60e51b815260206004820152601f60248201527f476f7665726e61626c653a2070726f706f73616c206e6f742061637469766500604482015290519081900360640190fd5b6001600160a01b03166000908152600260205260408120908155600101805460ff19169055565b6001546001600160a01b031633146116ae576040805162461bcd60e51b81526020600482015260156024820152600080516020612955833981519152604482015290519081900360640190fd5b6001600160a01b03919091166000908152601760205260409020805460ff1916911515919091179055565b60166020526000908152604090205481565b600d5460ff1681565b60106020526000908152604090205481565b6002600054141561174c576040805162461bcd60e51b815260206004820152601f6024820152600080516020612935833981519152604482015290519081900360640190fd5b600260005561175b3382611dbd565b506001600055565b60146020526000908152604090205481565b6001546001600160a01b031633146117c2576040805162461bcd60e51b81526020600482015260156024820152600080516020612955833981519152604482015290519081900360640190fd5b6001600160a01b03811661181b576040805162461bcd60e51b815260206004820152601b60248201527a476f7665726e61626c653a20696e76616c6964206164647265737360281b604482015290519081900360640190fd5b6001546001600160a01b038281169116141561187c576040805162461bcd60e51b815260206004820152601b60248201527a476f7665726e61626c653a2073616d6520676f7665726e616e636560281b604482015290519081900360640190fd5b61188881600019612270565b50565b600260005414156118d1576040805162461bcd60e51b815260206004820152601f6024820152600080516020612935833981519152604482015290519081900360640190fd5b60026000556118de611cb0565b6001600160a01b0390911660009081526014602052604081209190915560019055565b6001600160a01b0381166000908152600e60209081526040808320546010909252822054610f218282611c0f565b6008546001600160a01b0316151590565b60026000541415611986576040805162461bcd60e51b815260206004820152601f6024820152600080516020612935833981519152604482015290519081900360640190fd5b6002600055611993611cb0565b6001600160a01b0390911660009081526015602052604081209190915560019055565b600092915050565b60026000541415611a04576040805162461bcd60e51b815260206004820152601f6024820152600080516020612935833981519152604482015290519081900360640190fd5b6002600055611a11611cb0565b6001600160a01b0390911660009081526013602052604081209190915560019055565b600a546001600160a01b0316151590565b6009546001600160a01b031681565b60026000541415611a9a576040805162461bcd60e51b815260206004820152601f6024820152600080516020612935833981519152604482015290519081900360640190fd5b6002600055611aa7611cb0565b611ab082610f9f565b6001600160a01b038083166000908152601360209081526040808320949094558583168083528483208390556014825284832054600a548651633792def360e01b815260048101939093529551909593949390931692633792def392602480840193919291829003018186803b158015611b2957600080fd5b505afa158015611b3d573d6000803e3d6000fd5b505050506040513d6020811015611b5357600080fd5b50519050611b618282611c0f565b6001600160a01b0393841660008181526014602081815260408084209590955597909616808252601588528382209490945594865281852085905560169095528084208054958552908420949094558252509081905560019055565b604080516001600160a01b038416602482015260448082018490528251808303909101815260649091019091526020810180516001600160e01b031663a9059cbb60e01b1790526109df9084906122ec565b600082820183811015611c67576040805162461bcd60e51b815260206004820152601b60248201527a536166654d6174683a206164646974696f6e206f766572666c6f7760281b604482015290519081900360640190fd5b9392505050565b6000611c6783836040518060400160405280601e81526020017f536166654d6174683a207375627472616374696f6e206f766572666c6f77000081525061239d565b3360009081526017602052604090205460ff16611d08576040805162461bcd60e51b81526020600482015260116024820152702b32b9ba32b91d103337b93134b23232b760791b604482015290519081900360640190fd5b565b6000611d1583612434565b6000611d2084610ed8565b6001600160a01b038516600090815260116020526040902054909150611d469082611c0f565b6001600160a01b03808616600090815260116020526040902091909155600954611d7291168483611bbd565b604080516001600160a01b03861681526020810183905281517f47cee97cb7acd717b3c0aa1435d004cd5b3c8c57d70dbceb4e4458bbd60e39d4929181900390910190a19392505050565b60008111611e0c576040805162461bcd60e51b815260206004820152601760248201527615995cdd195c8e881a5b9d985b1a590817d85b5bdd5b9d604a1b604482015290519081900360640190fd5b611e1582612434565b600754611e2d906001600160a01b0316833084612511565b611e378282612571565b611e3f61192f565b15611eb6576001600160a01b0382166000908152600f6020908152604080832054600e909252822054909190611e76908590611471565b905081811115611eb3576000611e8c8284611c6e565b600854909150611ea7906001600160a01b0316863084612511565b611eb18582612657565b505b50505b600d5460ff1615611f17576000611ecc83610a72565b905080611ed8846114f5565b1115611f155760405162461bcd60e51b81526004018080602001828103825260248152602001806129fd6024913960400191505060405180910390fd5b505b604080516001600160a01b03841681526020810183905281517fe1fffcc4923d04b559f4d29a8bfc6cda04eb5b0d3c460751c2402c5c5cc9109c929181900390910190a15050565b6001600160a01b038216611fa45760405162461bcd60e51b81526004018080602001828103825260228152602001806129986022913960400191505060405180910390fd5b611fe181604051806060016040528060238152602001612975602391396001600160a01b0385166000908152600f6020526040902054919061239d565b6001600160a01b0383166000908152600f6020526040902055600c546120079082611c6e565b600c556040805182815290516000916001600160a01b038516917f659523c479d006050ebc0d0e48fea36d1b2c5d45b2f31402ac6f8671fc84cc049181900360200190a35050565b6001600160a01b0382166120945760405162461bcd60e51b81526004018080602001828103825260228152602001806129986022913960400191505060405180910390fd5b6120d181604051806060016040528060238152602001612975602391396001600160a01b0385166000908152600e6020526040902054919061239d565b6001600160a01b0383166000908152600e6020526040902055600b546120f79082611c6e565b600b556040805182815290516000916001600160a01b038516917fddf252ad1be2c89b69c2b068fc378daa952ba7f163c4a11628f55a4df523b3ef9181900360200190a35050565b6001600160a01b0381166000908152601260205260408120548190612165904290611c6e565b6001600160a01b0384166000908152600e60205260409020549091508061219157600092505050610b76565b600061219c85611901565b905060006121b96006546110fd86856121d890919063ffffffff16565b9050828110156121ce579350610b7692505050565b5090949350505050565b6000826121e7575060006114d3565b828202828482816121f457fe5b0414611c675760405162461bcd60e51b81526004018080602001828103825260218152602001806129dc6021913960400191505060405180910390fd5b6000611c6783836040518060400160405280601a815260200179536166654d6174683a206469766973696f6e206279207a65726f60301b81525061273d565b604080518082018252828152600160208083018281526001600160a01b03871660008181526002845286902094518555905193909201805460ff1916931515939093179092558251848152925190927f02dd0697be46e764c3ba81094158781c31b235d03bb27a0daf1bdef0ec1084dd92908290030190a25050565b6060612341826040518060400160405280602081526020017f5361666545524332303a206c6f772d6c6576656c2063616c6c206661696c6564815250856001600160a01b03166127a29092919063ffffffff16565b8051909150156109df5780806020019051602081101561236057600080fd5b50516109df5760405162461bcd60e51b815260040180806020018281038252602a815260200180612a21602a913960400191505060405180910390fd5b6000818484111561242c5760405162461bcd60e51b81526004018080602001828103825283818151815260200191508051906020019080838360005b838110156123f15781810151838201526020016123d9565b50505050905090810190601f16801561241e5780820380516001836020036101000a031916815260200191505b509250505060405180910390fd5b505050900390565b600061243f8261213f565b6001600160a01b03831660009081526012602052604090204290559050806124675750611888565b612471828261204f565b6001600160a01b0382166000908152601060205260409020546124949082611c0f565b6001600160a01b03808416600090815260106020526040808220939093556007548351632770a7eb60e21b8152306004820152602481018690529351921692639dc29fac926044808301939282900301818387803b1580156124f557600080fd5b505af1158015612509573d6000803e3d6000fd5b505050505050565b604080516001600160a01b0380861660248301528416604482015260648082018490528251808303909101815260849091019091526020810180516001600160e01b03166323b872dd60e01b17905261256b9085906122ec565b50505050565b6001600160a01b0382166125cc576040805162461bcd60e51b815260206004820181905260248201527f5665737465723a206d696e7420746f20746865207a65726f2061646472657373604482015290519081900360640190fd5b600b546125d99082611c0f565b600b556001600160a01b0382166000908152600e60205260409020546125ff9082611c0f565b6001600160a01b0383166000818152600e602090815260408083209490945583518581529351929391927fddf252ad1be2c89b69c2b068fc378daa952ba7f163c4a11628f55a4df523b3ef9281900390910190a35050565b6001600160a01b0382166126b2576040805162461bcd60e51b815260206004820181905260248201527f5665737465723a206d696e7420746f20746865207a65726f2061646472657373604482015290519081900360640190fd5b600c546126bf9082611c0f565b600c556001600160a01b0382166000908152600f60205260409020546126e59082611c0f565b6001600160a01b0383166000818152600f602090815260408083209490945583518581529351929391927f659523c479d006050ebc0d0e48fea36d1b2c5d45b2f31402ac6f8671fc84cc049281900390910190a35050565b6000818361278c5760405162461bcd60e51b81526020600482018181528351602484015283519092839260449091019190850190808383600083156123f15781810151838201526020016123d9565b50600083858161279857fe5b0495945050505050565b6060610f218484600085856127b6856128c8565b612807576040805162461bcd60e51b815260206004820152601d60248201527f416464726573733a2063616c6c20746f206e6f6e2d636f6e7472616374000000604482015290519081900360640190fd5b60006060866001600160a01b031685876040518082805190602001908083835b602083106128465780518252601f199092019160209182019101612827565b6001836020036101000a03801982511681845116808217855250505050505090500191505060006040518083038185875af1925050503d80600081146128a8576040519150601f19603f3d011682016040523d82523d6000602084013e6128ad565b606091505b50915091506128bd8282866128ce565b979650505050505050565b3b151590565b606083156128dd575081611c67565b8251156128ed5782518084602001fd5b60405162461bcd60e51b81526020600482018181528451602484015284518593919283926044019190850190808383600083156123f15781810151838201526020016123d956fe5265656e7472616e637947756172643a207265656e7472616e742063616c6c00476f7665726e61626c653a20666f7262696464656e00000000000000000000005665737465723a206275726e20616d6f756e7420657863656564732062616c616e63655665737465723a206275726e2066726f6d20746865207a65726f2061646472657373476f7665726e61626c653a2070726f706f73616c206973206e6f7420616374697665536166654d6174683a206d756c7469706c69636174696f6e206f766572666c6f775665737465723a206d6178207665737461626c6520616d6f756e742065786365656465645361666545524332303a204552433230206f7065726174696f6e20646964206e6f742073756363656564a264697066735822122049fbb8f0a77481d41ca63e39449086ccc5be473084564f851d897dc175717e3e64736f6c634300060c0033","linkReferences":{}},"methodIdentifiers":{"acceptGov()":"7bc6729b","allowance(address,address)":"dd62ed3e","approve(address,uint256)":"095ea7b3","balanceOf(address)":"70a08231","balances(address)":"27e235e3","bonusRewards(address)":"a2545fa5","cancelGovProposal(address)":"9c35b497","claim()":"4e71d92d","claimForAccount(address,address)":"13e82e7a","claimable(address)":"402914f5","claimableToken()":"f6d6d5aa","claimedAmounts(address)":"71417b32","cumulativeClaimAmounts(address)":"b5ff136d","cumulativeRewardDeductions(address)":"387a785d","decimals()":"313ce567","deposit(uint256)":"b6b55f25","depositForAccount(address,uint256)":"342fcda9","esToken()":"16ca05c5","getCombinedAverageStakedAmount(address)":"45f01ee6","getMaxVestableAmount(address)":"08f26c76","getPairAmount(address,uint256)":"7cf8f3b2","getTotalVested(address)":"93035473","getVestedAmount(address)":"d5a73fdd","gov()":"12d43a51","govProposals(address)":"8d0fedb0","hasMaxVestableAmount()":"acf077a5","hasPairToken()":"d75abb57","hasRewardTracker()":"f421f62a","isHandler(address)":"46ea87af","lastVestingTimes(address)":"0db9ea4a","name()":"06fdde03","pairAmounts(address)":"5d50e729","pairSupply()":"15e90a41","pairToken()":"3de35b79","rewardTracker()":"6bcb411a","setBonusRewards(address,uint256)":"41f22724","setCumulativeRewardDeductions(address,uint256)":"d89b7007","setGov(address)":"cfad57a2","setGovWithDeadline(address,uint256)":"6bb22fd7","setHandler(address,bool)":"9cb7de4b","setHasMaxVestableAmount(bool)":"69de9b93","setTransferredAverageStakedAmounts(address,uint256)":"e3ecc4b2","setTransferredCumulativeRewards(address,uint256)":"d0b038b7","symbol()":"95d89b41","totalSupply()":"18160ddd","transfer(address,uint256)":"a9059cbb","transferFrom(address,address,uint256)":"23b872dd","transferStakeValues(address,address)":"f713c230","transferredAverageStakedAmounts(address)":"7337035c","transferredCumulativeRewards(address)":"b71bce2a","vestingDuration()":"1514617e","withdraw()":"3ccfd60b","withdrawToken(address,address,uint256)":"01e33667"},"id":95}