{"abi":[{"type":"function","name":"BASIS_POINTS_DIVISOR","inputs":[],"outputs":[{"name":"","type":"uint256","internalType":"uint256"}],"stateMutability":"view"},{"type":"function","name":"POSITION_PROPS_LENGTH","inputs":[],"outputs":[{"name":"","type":"uint256","internalType":"uint256"}],"stateMutability":"view"},{"type":"function","name":"PRICE_PRECISION","inputs":[],"outputs":[{"name":"","type":"uint256","internalType":"uint256"}],"stateMutability":"view"},{"type":"function","name":"USDG_DECIMALS","inputs":[],"outputs":[{"name":"","type":"uint256","internalType":"uint256"}],"stateMutability":"view"},{"type":"function","name":"acceptGov","inputs":[],"outputs":[],"stateMutability":"nonpayable"},{"type":"function","name":"cancelGovProposal","inputs":[{"name":"_gov","type":"address","internalType":"address"}],"outputs":[],"stateMutability":"nonpayable"},{"type":"function","name":"getAmountOut","inputs":[{"name":"_vault","type":"address","internalType":"contract IVault"},{"name":"_tokenIn","type":"address","internalType":"address"},{"name":"_tokenOut","type":"address","internalType":"address"},{"name":"_amountIn","type":"uint256","internalType":"uint256"}],"outputs":[{"name":"","type":"uint256","internalType":"uint256"},{"name":"","type":"uint256","internalType":"uint256"}],"stateMutability":"view"},{"type":"function","name":"getFeeBasisPoints","inputs":[{"name":"_vault","type":"address","internalType":"contract IVault"},{"name":"_tokenIn","type":"address","internalType":"address"},{"name":"_tokenOut","type":"address","internalType":"address"},{"name":"_amountIn","type":"uint256","internalType":"uint256"}],"outputs":[{"name":"","type":"uint256","internalType":"uint256"},{"name":"","type":"uint256","internalType":"uint256"},{"name":"","type":"uint256","internalType":"uint256"}],"stateMutability":"view"},{"type":"function","name":"getFees","inputs":[{"name":"_vault","type":"address","internalType":"address"},{"name":"_tokens","type":"address[]","internalType":"address[]"}],"outputs":[{"name":"","type":"uint256[]","internalType":"uint256[]"}],"stateMutability":"view"},{"type":"function","name":"getFullVaultTokenInfo","inputs":[{"name":"_vault","type":"address","internalType":"address"},{"name":"_weth","type":"address","internalType":"address"},{"name":"_usdgAmount","type":"uint256","internalType":"uint256"},{"name":"_tokens","type":"address[]","internalType":"address[]"}],"outputs":[{"name":"","type":"uint256[]","internalType":"uint256[]"}],"stateMutability":"view"},{"type":"function","name":"getFundingRates","inputs":[{"name":"_vault","type":"address","internalType":"address"},{"name":"_weth","type":"address","internalType":"address"},{"name":"_tokens","type":"address[]","internalType":"address[]"}],"outputs":[{"name":"","type":"uint256[]","internalType":"uint256[]"}],"stateMutability":"view"},{"type":"function","name":"getMaxAmountIn","inputs":[{"name":"_vault","type":"address","internalType":"contract IVault"},{"name":"_tokenIn","type":"address","internalType":"address"},{"name":"_tokenOut","type":"address","internalType":"address"}],"outputs":[{"name":"","type":"uint256","internalType":"uint256"}],"stateMutability":"view"},{"type":"function","name":"getPairInfo","inputs":[{"name":"_factory","type":"address","internalType":"address"},{"name":"_tokens","type":"address[]","internalType":"address[]"}],"outputs":[{"name":"","type":"uint256[]","internalType":"uint256[]"}],"stateMutability":"view"},{"type":"function","name":"getPositions","inputs":[{"name":"_vault","type":"address","internalType":"address"},{"name":"_account","type":"address","internalType":"address"},{"name":"_collateralTokens","type":"address[]","internalType":"address[]"},{"name":"_indexTokens","type":"address[]","internalType":"address[]"},{"name":"_isLong","type":"bool[]","internalType":"bool[]"}],"outputs":[{"name":"","type":"uint256[]","internalType":"uint256[]"}],"stateMutability":"view"},{"type":"function","name":"getPrices","inputs":[{"name":"_priceFeed","type":"address","internalType":"contract IVaultPriceFeed"},{"name":"_tokens","type":"address[]","internalType":"address[]"}],"outputs":[{"name":"","type":"uint256[]","internalType":"uint256[]"}],"stateMutability":"view"},{"type":"function","name":"getStakingInfo","inputs":[{"name":"_account","type":"address","internalType":"address"},{"name":"_yieldTrackers","type":"address[]","internalType":"address[]"}],"outputs":[{"name":"","type":"uint256[]","internalType":"uint256[]"}],"stateMutability":"view"},{"type":"function","name":"getTokenBalances","inputs":[{"name":"_account","type":"address","internalType":"address"},{"name":"_tokens","type":"address[]","internalType":"address[]"}],"outputs":[{"name":"","type":"uint256[]","internalType":"uint256[]"}],"stateMutability":"view"},{"type":"function","name":"getTokenBalancesWithSupplies","inputs":[{"name":"_account","type":"address","internalType":"address"},{"name":"_tokens","type":"address[]","internalType":"address[]"}],"outputs":[{"name":"","type":"uint256[]","internalType":"uint256[]"}],"stateMutability":"view"},{"type":"function","name":"getTokenSupply","inputs":[{"name":"_token","type":"address","internalType":"contract IERC20"},{"name":"_excludedAccounts","type":"address[]","internalType":"address[]"}],"outputs":[{"name":"","type":"uint256","internalType":"uint256"}],"stateMutability":"view"},{"type":"function","name":"getTotalBalance","inputs":[{"name":"_token","type":"address","internalType":"contract IERC20"},{"name":"_accounts","type":"address[]","internalType":"address[]"}],"outputs":[{"name":"","type":"uint256","internalType":"uint256"}],"stateMutability":"view"},{"type":"function","name":"getTotalStaked","inputs":[{"name":"_yieldTokens","type":"address[]","internalType":"address[]"}],"outputs":[{"name":"","type":"uint256[]","internalType":"uint256[]"}],"stateMutability":"view"},{"type":"function","name":"getVaultTokenInfo","inputs":[{"name":"_vault","type":"address","internalType":"address"},{"name":"_weth","type":"address","internalType":"address"},{"name":"_usdgAmount","type":"uint256","internalType":"uint256"},{"name":"_tokens","type":"address[]","internalType":"address[]"}],"outputs":[{"name":"","type":"uint256[]","internalType":"uint256[]"}],"stateMutability":"view"},{"type":"function","name":"getVaultTokenInfoV2","inputs":[{"name":"_vault","type":"address","internalType":"address"},{"name":"_weth","type":"address","internalType":"address"},{"name":"_usdgAmount","type":"uint256","internalType":"uint256"},{"name":"_tokens","type":"address[]","internalType":"address[]"}],"outputs":[{"name":"","type":"uint256[]","internalType":"uint256[]"}],"stateMutability":"view"},{"type":"function","name":"getVestingInfo","inputs":[{"name":"_account","type":"address","internalType":"address"},{"name":"_vesters","type":"address[]","internalType":"address[]"}],"outputs":[{"name":"","type":"uint256[]","internalType":"uint256[]"}],"stateMutability":"view"},{"type":"function","name":"gov","inputs":[],"outputs":[{"name":"","type":"address","internalType":"address"}],"stateMutability":"view"},{"type":"function","name":"govProposals","inputs":[{"name":"","type":"address","internalType":"address"}],"outputs":[{"name":"deadline","type":"uint256","internalType":"uint256"},{"name":"isActive","type":"bool","internalType":"bool"}],"stateMutability":"view"},{"type":"function","name":"hasMaxGlobalShortSizes","inputs":[],"outputs":[{"name":"","type":"bool","internalType":"bool"}],"stateMutability":"view"},{"type":"function","name":"setConfig","inputs":[{"name":"_hasMaxGlobalShortSizes","type":"bool","internalType":"bool"}],"outputs":[],"stateMutability":"nonpayable"},{"type":"function","name":"setGov","inputs":[{"name":"_gov","type":"address","internalType":"address"}],"outputs":[],"stateMutability":"nonpayable"},{"type":"function","name":"setGovWithDeadline","inputs":[{"name":"_gov","type":"address","internalType":"address"},{"name":"_deadline","type":"uint256","internalType":"uint256"}],"outputs":[],"stateMutability":"nonpayable"},{"type":"event","name":"GovProposalCanceled","inputs":[{"name":"proposedGov","type":"address","indexed":true,"internalType":"address"},{"name":"canceledBy","type":"address","indexed":true,"internalType":"address"}],"anonymous":false},{"type":"event","name":"GovernanceTransferRequested","inputs":[{"name":"newGov","type":"address","indexed":true,"internalType":"address"},{"name":"deadline","type":"uint256","indexed":false,"internalType":"uint256"}],"anonymous":false},{"type":"event","name":"GovernanceTransferred","inputs":[{"name":"oldGov","type":"address","indexed":true,"internalType":"address"},{"name":"newGov","type":"address","indexed":true,"internalType":"address"}],"anonymous":false}],"bytecode":{"object":"0x608060405234801561001057600080fd5b50600080546001600160a01b03191633179055615f7280620000336000396000f3fe608060405234801561001057600080fd5b506004361061016a5760003560e01c8063126082cf1461016f57806312d43a511461018957806320542568146101ad5780632413c8c1146102be5780632ac0184c1461035f5780632e3e3342146104105780633613d527146104c1578063440f018c1461057257806348211934146105cc5780636bb22fd71461067d5780637b906e93146106ab5780637bc6729b1461076c57806386d4d0f514610774578063870d917c146108255780638d0fedb01461082d5780638e83ca321461086c578063937a0be81461092d57806395082d25146109de57806395a7535a146109e65780639b0183c314610aa05780639c35b49714610abf578063a4543ead14610ae5578063ad7e549714610b96578063c6f1d67614610b9e578063cfad57a214610bba578063d7176ca914610be0578063d802178e14610c35578063dc383cab14610ce6578063f3535e6c14610ea4578063fbdb05ca14610edc575b600080fd5b610177610f8d565b60408051918252519081900360200190f35b610191610f93565b604080516001600160a01b039092168252519081900360200190f35b61026e600480360360808110156101c357600080fd5b6001600160a01b03823581169260208101359091169160408201359190810190608081016060820135600160201b8111156101fd57600080fd5b82018360208201111561020f57600080fd5b803590602001918460208302840111600160201b8311171561023057600080fd5b919080806020026020016040519081016040528093929190818152602001838360200280828437600092019190915250929550610fa2945050505050565b60408051602080825283518183015283519192839290830191858101910280838360005b838110156102aa578181015183820152602001610292565b505050509050019250505060405180910390f35b61026e600480360360208110156102d457600080fd5b810190602081018135600160201b8111156102ee57600080fd5b82018360208201111561030057600080fd5b803590602001918460208302840111600160201b8311171561032157600080fd5b9190808060200260200160405190810160405280939291908181526020018383602002808284376000920191909152509295506116b0945050505050565b6101776004803603604081101561037557600080fd5b6001600160a01b038235169190810190604081016020820135600160201b81111561039f57600080fd5b8201836020820111156103b157600080fd5b803590602001918460208302840111600160201b831117156103d257600080fd5b9190808060200260200160405190810160405280939291908181526020018383602002808284376000920191909152509295506117a9945050505050565b61026e6004803603604081101561042657600080fd5b6001600160a01b038235169190810190604081016020820135600160201b81111561045057600080fd5b82018360208201111561046257600080fd5b803590602001918460208302840111600160201b8311171561048357600080fd5b9190808060200260200160405190810160405280939291908181526020018383602002808284376000920191909152509295506118d4945050505050565b61026e600480360360408110156104d757600080fd5b6001600160a01b038235169190810190604081016020820135600160201b81111561050157600080fd5b82018360208201111561051357600080fd5b803590602001918460208302840111600160201b8311171561053457600080fd5b919080806020026020016040519081016040528093929190818152602001838360200280828437600092019190915250929550611ad9945050505050565b6105ae6004803603608081101561058857600080fd5b506001600160a01b03813581169160208101358216916040820135169060600135611f13565b60408051938452602084019290925282820152519081900360600190f35b61026e600480360360408110156105e257600080fd5b6001600160a01b038235169190810190604081016020820135600160201b81111561060c57600080fd5b82018360208201111561061e57600080fd5b803590602001918460208302840111600160201b8311171561063f57600080fd5b919080806020026020016040519081016040528093929190818152602001838360200280828437600092019190915250929550612478945050505050565b6106a96004803603604081101561069357600080fd5b506001600160a01b03813516906020013561292c565b005b61026e600480360360808110156106c157600080fd5b6001600160a01b03823581169260208101359091169160408201359190810190608081016060820135600160201b8111156106fb57600080fd5b82018360208201111561070d57600080fd5b803590602001918460208302840111600160201b8311171561072e57600080fd5b919080806020026020016040519081016040528093929190818152602001838360200280828437600092019190915250929550612a41945050505050565b6106a9613272565b61026e6004803603604081101561078a57600080fd5b6001600160a01b038235169190810190604081016020820135600160201b8111156107b457600080fd5b8201836020820111156107c657600080fd5b803590602001918460208302840111600160201b831117156107e757600080fd5b919080806020026020016040519081016040528093929190818152602001838360200280828437600092019190915250929550613386945050505050565b610177613486565b6108536004803603602081101561084357600080fd5b50356001600160a01b031661348b565b6040805192835290151560208301528051918290030190f35b61026e6004803603608081101561088257600080fd5b6001600160a01b03823581169260208101359091169160408201359190810190608081016060820135600160201b8111156108bc57600080fd5b8201836020820111156108ce57600080fd5b803590602001918460208302840111600160201b831117156108ef57600080fd5b9190808060200260200160405190810160405280939291908181526020018383602002808284376000920191909152509295506134a7945050505050565b61026e6004803603604081101561094357600080fd5b6001600160a01b038235169190810190604081016020820135600160201b81111561096d57600080fd5b82018360208201111561097f57600080fd5b803590602001918460208302840111600160201b831117156109a057600080fd5b919080806020026020016040519081016040528093929190818152602001838360200280828437600092019190915250929550613e1f945050505050565b610177613fb4565b61026e600480360360608110156109fc57600080fd5b6001600160a01b038235811692602081013590911691810190606081016040820135600160201b811115610a2f57600080fd5b820183602082011115610a4157600080fd5b803590602001918460208302840111600160201b83111715610a6257600080fd5b919080806020026020016040519081016040528093929190818152602001838360200280828437600092019190915250929550613fc4945050505050565b6106a960048036036020811015610ab657600080fd5b50351515614492565b6106a960048036036020811015610ad557600080fd5b50356001600160a01b03166144f2565b61026e60048036036040811015610afb57600080fd5b6001600160a01b038235169190810190604081016020820135600160201b811115610b2557600080fd5b820183602082011115610b3757600080fd5b803590602001918460208302840111600160201b83111715610b5857600080fd5b919080806020026020016040519081016040528093929190818152602001838360200280828437600092019190915250929550614603945050505050565b61017761486f565b610ba6614874565b604080519115158252519081900360200190f35b6106a960048036036020811015610bd057600080fd5b50356001600160a01b031661487d565b610c1c60048036036080811015610bf657600080fd5b506001600160a01b03813581169160208101358216916040820135169060600135614993565b6040805192835260208301919091528051918290030190f35b61026e60048036036040811015610c4b57600080fd5b6001600160a01b038235169190810190604081016020820135600160201b811115610c7557600080fd5b820183602082011115610c8757600080fd5b803590602001918460208302840111600160201b83111715610ca857600080fd5b919080806020026020016040519081016040528093929190818152602001838360200280828437600092019190915250929550615049945050505050565b61026e600480360360a0811015610cfc57600080fd5b6001600160a01b038235811692602081013590911691810190606081016040820135600160201b811115610d2f57600080fd5b820183602082011115610d4157600080fd5b803590602001918460208302840111600160201b83111715610d6257600080fd5b9190808060200260200160405190810160405280939291908181526020018383602002808284376000920191909152509295949360208101935035915050600160201b811115610db157600080fd5b820183602082011115610dc357600080fd5b803590602001918460208302840111600160201b83111715610de457600080fd5b9190808060200260200160405190810160405280939291908181526020018383602002808284376000920191909152509295949360208101935035915050600160201b811115610e3357600080fd5b820183602082011115610e4557600080fd5b803590602001918460208302840111600160201b83111715610e6657600080fd5b919080806020026020016040519081016040528093929190818152602001838360200280828437600092019190915250929550615195945050505050565b61017760048036036060811015610eba57600080fd5b506001600160a01b0381358116916020810135821691604090910135166155b0565b61017760048036036040811015610ef257600080fd5b6001600160a01b038235169190810190604081016020820135600160201b811115610f1c57600080fd5b820183602082011115610f2e57600080fd5b803590602001918460208302840111600160201b83111715610f4f57600080fd5b919080806020026020016040519081016040528093929190818152602001838360200280828437600092019190915250929550615b77945050505050565b61271081565b6000546001600160a01b031681565b60606000600a905060008690506000816001600160a01b031663741bef1a6040518163ffffffff1660e01b815260040160206040518083038186803b158015610fea57600080fd5b505afa158015610ffe573d6000803e3d6000fd5b505050506040513d602081101561101457600080fd5b5051855190915060609084026001600160401b038111801561103557600080fd5b5060405190808252806020026020018201604052801561105f578160200160208202803683370190505b50905060005b86518110156116a357600087828151811061107c57fe5b6020026020010151905060006001600160a01b0316816001600160a01b031614156110a45750885b846001600160a01b03166352f55eed826040518263ffffffff1660e01b815260040180826001600160a01b0316815260200191505060206040518083038186803b1580156110f157600080fd5b505afa158015611105573d6000803e3d6000fd5b505050506040513d602081101561111b57600080fd5b50518351849084890290811061112d57fe5b602002602001018181525050846001600160a01b031663c3c7b9e9826040518263ffffffff1660e01b815260040180826001600160a01b0316815260200191505060206040518083038186803b15801561118657600080fd5b505afa15801561119a573d6000803e3d6000fd5b505050506040513d60208110156111b057600080fd5b5051835184906001858a02019081106111c557fe5b602002602001018181525050846001600160a01b0316631aa4ace5826040518263ffffffff1660e01b815260040180826001600160a01b0316815260200191505060206040518083038186803b15801561121e57600080fd5b505afa158015611232573d6000803e3d6000fd5b505050506040513d602081101561124857600080fd5b5051835184906002858a020190811061125d57fe5b602002602001018181525050846001600160a01b0316632c668ec1828b6040518363ffffffff1660e01b815260040180836001600160a01b031681526020018281526020019250505060206040518083038186803b1580156112be57600080fd5b505afa1580156112d2573d6000803e3d6000fd5b505050506040513d60208110156112e857600080fd5b5051835184906003858a02019081106112fd57fe5b602002602001018181525050846001600160a01b031663ab2f3ad4826040518263ffffffff1660e01b815260040180826001600160a01b0316815260200191505060206040518083038186803b15801561135657600080fd5b505afa15801561136a573d6000803e3d6000fd5b505050506040513d602081101561138057600080fd5b5051835184906004858a020190811061139557fe5b602002602001018181525050846001600160a01b03166381a612d6826040518263ffffffff1660e01b815260040180826001600160a01b0316815260200191505060206040518083038186803b1580156113ee57600080fd5b505afa158015611402573d6000803e3d6000fd5b505050506040513d602081101561141857600080fd5b5051835184906005858a020190811061142d57fe5b602002602001018181525050846001600160a01b031663e124e6d2826040518263ffffffff1660e01b815260040180826001600160a01b0316815260200191505060206040518083038186803b15801561148657600080fd5b505afa15801561149a573d6000803e3d6000fd5b505050506040513d60208110156114b057600080fd5b5051835184906006858a02019081106114c557fe5b602002602001018181525050846001600160a01b031663f07456ce826040518263ffffffff1660e01b815260040180826001600160a01b0316815260200191505060206040518083038186803b15801561151e57600080fd5b505afa158015611532573d6000803e3d6000fd5b505050506040513d602081101561154857600080fd5b5051835184906007858a020190811061155d57fe5b602090810291909101810191909152604080516356c8c2c160e01b81526001600160a01b038481166004830152600060248301529151918716926356c8c2c192604480840193829003018186803b1580156115b757600080fd5b505afa1580156115cb573d6000803e3d6000fd5b505050506040513d60208110156115e157600080fd5b5051835184906008858a02019081106115f657fe5b602090810291909101810191909152604080516356c8c2c160e01b81526001600160a01b038481166004830152600160248301529151918716926356c8c2c192604480840193829003018186803b15801561165057600080fd5b505afa158015611664573d6000803e3d6000fd5b505050506040513d602081101561167a57600080fd5b5051835184906009858a020190811061168f57fe5b602090810291909101015250600101611065565b5098975050505050505050565b60608082516001600160401b03811180156116ca57600080fd5b506040519080825280602002602001820160405280156116f4578160200160208202803683370190505b50905060005b83518110156117a257600084828151811061171157fe5b60200260200101519050806001600160a01b031663817b1cd26040518163ffffffff1660e01b815260040160206040518083038186803b15801561175457600080fd5b505afa158015611768573d6000803e3d6000fd5b505050506040513d602081101561177e57600080fd5b5051835184908490811061178e57fe5b6020908102919091010152506001016116fa565b5092915050565b600080836001600160a01b03166318160ddd6040518163ffffffff1660e01b815260040160206040518083038186803b1580156117e557600080fd5b505afa1580156117f9573d6000803e3d6000fd5b505050506040513d602081101561180f57600080fd5b5051905060005b83518110156118ca57600084828151811061182d57fe5b602002602001015190506000866001600160a01b03166370a08231836040518263ffffffff1660e01b815260040180826001600160a01b0316815260200191505060206040518083038186803b15801561188657600080fd5b505afa15801561189a573d6000803e3d6000fd5b505050506040513d60208110156118b057600080fd5b505190506118be8482615c30565b93505050600101611816565b5090505b92915050565b60606000600290506060818451026001600160401b03811180156118f757600080fd5b50604051908082528060200260200182016040528015611921578160200160208202803683370190505b50905060005b8451811015611ad057600085828151811061193e57fe5b6020026020010151905060006001600160a01b0316816001600160a01b031614156119ad57866001600160a01b031631838584028151811061197c57fe5b6020026020010181815250506000838584026001018151811061199b57fe5b60200260200101818152505050611ac8565b806001600160a01b03166370a08231886040518263ffffffff1660e01b815260040180826001600160a01b0316815260200191505060206040518083038186803b1580156119fa57600080fd5b505afa158015611a0e573d6000803e3d6000fd5b505050506040513d6020811015611a2457600080fd5b505183518490848702908110611a3657fe5b602002602001018181525050806001600160a01b03166318160ddd6040518163ffffffff1660e01b815260040160206040518083038186803b158015611a7b57600080fd5b505afa158015611a8f573d6000803e3d6000fd5b505050506040513d6020811015611aa557600080fd5b505183518490600185880201908110611aba57fe5b602002602001018181525050505b600101611927565b50949350505050565b60606000600690506060818451026001600160401b0381118015611afc57600080fd5b50604051908082528060200260200182016040528015611b26578160200160208202803683370190505b50905060005b8451811015611ad0576000858281518110611b4357fe5b602090810291909101810151604080516317e1d38560e11b81526001600160a01b0380841660048301526001602483018190526044830152600060648301529151929450908a1692632fc3a70a92608480840193829003018186803b158015611bab57600080fd5b505afa158015611bbf573d6000803e3d6000fd5b505050506040513d6020811015611bd557600080fd5b505183518490848702908110611be757fe5b602090810291909101810191909152604080516317e1d38560e11b81526001600160a01b0384811660048301526000602483018190526001604484015260648301529151918a1692632fc3a70a92608480840193829003018186803b158015611c4f57600080fd5b505afa158015611c63573d6000803e3d6000fd5b505050506040513d6020811015611c7957600080fd5b505183518490600185880201908110611c8e57fe5b602090810291909101810191909152604080516356c8c2c160e01b81526001600160a01b038481166004830152600160248301529151918a16926356c8c2c192604480840193829003018186803b158015611ce857600080fd5b505afa158015611cfc573d6000803e3d6000fd5b505050506040513d6020811015611d1257600080fd5b505183518490600285880201908110611d2757fe5b602090810291909101810191909152604080516356c8c2c160e01b81526001600160a01b038481166004830152600060248301529151918a16926356c8c2c192604480840193829003018186803b158015611d8157600080fd5b505afa158015611d95573d6000803e3d6000fd5b505050506040513d6020811015611dab57600080fd5b505183518490600385880201908110611dc057fe5b602002602001018181525050866001600160a01b0316636ce8a44b826040518263ffffffff1660e01b815260040180826001600160a01b0316815260200191505060206040518083038186803b158015611e1957600080fd5b505afa158015611e2d573d6000803e3d6000fd5b505050506040513d6020811015611e4357600080fd5b5051611e50576000611e53565b60015b60ff168385840260040181518110611e6757fe5b602002602001018181525050866001600160a01b03166348cac277826040518263ffffffff1660e01b815260040180826001600160a01b0316815260200191505060206040518083038186803b158015611ec057600080fd5b505afa158015611ed4573d6000803e3d6000fd5b505050506040513d6020811015611eea57600080fd5b505183518490600585880201908110611eff57fe5b602090810291909101015250600101611b2c565b600080600080876001600160a01b03166381a612d6886040518263ffffffff1660e01b815260040180826001600160a01b0316815260200191505060206040518083038186803b158015611f6657600080fd5b505afa158015611f7a573d6000803e3d6000fd5b505050506040513d6020811015611f9057600080fd5b5051604080516323b95ceb60e21b81526001600160a01b038a811660048301529151929350600092918b1691638ee573ac91602480820192602092909190829003018186803b158015611fe257600080fd5b505afa158015611ff6573d6000803e3d6000fd5b505050506040513d602081101561200c57600080fd5b50519050600061203268327cb2734119d3b7a9601e1b61202c8986615c72565b90615ccb565b905061204e600a83900a61202c83670de0b6b3a7640000615c72565b905060008a6001600160a01b03166342b60b038b6040518263ffffffff1660e01b815260040180826001600160a01b0316815260200191505060206040518083038186803b15801561209f57600080fd5b505afa1580156120b3573d6000803e3d6000fd5b505050506040513d60208110156120c957600080fd5b5051801561214c57508a6001600160a01b03166342b60b038a6040518263ffffffff1660e01b815260040180826001600160a01b0316815260200191505060206040518083038186803b15801561211f57600080fd5b505afa158015612133573d6000803e3d6000fd5b505050506040513d602081101561214957600080fd5b50515b90506000816121bf578b6001600160a01b031663a22f23926040518163ffffffff1660e01b815260040160206040518083038186803b15801561218e57600080fd5b505afa1580156121a2573d6000803e3d6000fd5b505050506040513d60208110156121b857600080fd5b5051612225565b8b6001600160a01b031663df73a2676040518163ffffffff1660e01b815260040160206040518083038186803b1580156121f857600080fd5b505afa15801561220c573d6000803e3d6000fd5b505050506040513d602081101561222257600080fd5b50515b9050600082612298578c6001600160a01b0316637a210a2b6040518163ffffffff1660e01b815260040160206040518083038186803b15801561226757600080fd5b505afa15801561227b573d6000803e3d6000fd5b505050506040513d602081101561229157600080fd5b50516122fe565b8c6001600160a01b03166310eb56c26040518163ffffffff1660e01b815260040160206040518083038186803b1580156122d157600080fd5b505afa1580156122e5573d6000803e3d6000fd5b505050506040513d60208110156122fb57600080fd5b50515b905060008d6001600160a01b031663c7e074c38e87868660016040518663ffffffff1660e01b815260040180866001600160a01b0316815260200185815260200184815260200183815260200182151581526020019550505050505060206040518083038186803b15801561237257600080fd5b505afa158015612386573d6000803e3d6000fd5b505050506040513d602081101561239c57600080fd5b8101908080519060200190929190505050905060008e6001600160a01b031663c7e074c38e88878760006040518663ffffffff1660e01b815260040180866001600160a01b0316815260200185815260200184815260200183815260200182151581526020019550505050505060206040518083038186803b15801561242157600080fd5b505afa158015612435573d6000803e3d6000fd5b505050506040513d602081101561244b57600080fd5b50519050600081831161245e5781612460565b825b9b509199509750505050505050509450945094915050565b60606000600790506060818451026001600160401b038111801561249b57600080fd5b506040519080825280602002602001820160405280156124c5578160200160208202803683370190505b50905060005b8451811015611ad05760008582815181106124e257fe5b60200260200101519050806001600160a01b0316635d50e729886040518263ffffffff1660e01b815260040180826001600160a01b0316815260200191505060206040518083038186803b15801561253957600080fd5b505afa15801561254d573d6000803e3d6000fd5b505050506040513d602081101561256357600080fd5b50518351849084870290811061257557fe5b602002602001018181525050806001600160a01b031663d5a73fdd886040518263ffffffff1660e01b815260040180826001600160a01b0316815260200191505060206040518083038186803b1580156125ce57600080fd5b505afa1580156125e2573d6000803e3d6000fd5b505050506040513d60208110156125f857600080fd5b50518351849060018588020190811061260d57fe5b60200260200101818152505085828151811061262557fe5b60200260200101516001600160a01b03166370a08231886040518263ffffffff1660e01b815260040180826001600160a01b0316815260200191505060206040518083038186803b15801561267957600080fd5b505afa15801561268d573d6000803e3d6000fd5b505050506040513d60208110156126a357600080fd5b5051835184906002858802019081106126b857fe5b602002602001018181525050806001600160a01b03166371417b32886040518263ffffffff1660e01b815260040180826001600160a01b0316815260200191505060206040518083038186803b15801561271157600080fd5b505afa158015612725573d6000803e3d6000fd5b505050506040513d602081101561273b57600080fd5b50518351849060038588020190811061275057fe5b602002602001018181525050806001600160a01b031663402914f5886040518263ffffffff1660e01b815260040180826001600160a01b0316815260200191505060206040518083038186803b1580156127a957600080fd5b505afa1580156127bd573d6000803e3d6000fd5b505050506040513d60208110156127d357600080fd5b5051835184906004858802019081106127e857fe5b602002602001018181525050806001600160a01b03166308f26c76886040518263ffffffff1660e01b815260040180826001600160a01b0316815260200191505060206040518083038186803b15801561284157600080fd5b505afa158015612855573d6000803e3d6000fd5b505050506040513d602081101561286b57600080fd5b50518351849060058588020190811061288057fe5b602002602001018181525050806001600160a01b03166345f01ee6886040518263ffffffff1660e01b815260040180826001600160a01b0316815260200191505060206040518083038186803b1580156128d957600080fd5b505afa1580156128ed573d6000803e3d6000fd5b505050506040513d602081101561290357600080fd5b50518351849060068588020190811061291857fe5b6020908102919091010152506001016124cb565b6000546001600160a01b03163314612979576040805162461bcd60e51b81526020600482015260156024820152600080516020615eda833981519152604482015290519081900360640190fd5b6001600160a01b0382166129d2576040805162461bcd60e51b815260206004820152601b60248201527a476f7665726e61626c653a20696e76616c6964206164647265737360281b604482015290519081900360640190fd5b6000546001600160a01b0383811691161415612a33576040805162461bcd60e51b815260206004820152601b60248201527a476f7665726e61626c653a2073616d6520676f7665726e616e636560281b604482015290519081900360640190fd5b612a3d8282615d0a565b5050565b60606000600c905060008690506000816001600160a01b031663741bef1a6040518163ffffffff1660e01b815260040160206040518083038186803b158015612a8957600080fd5b505afa158015612a9d573d6000803e3d6000fd5b505050506040513d6020811015612ab357600080fd5b5051855190915060609084026001600160401b0381118015612ad457600080fd5b50604051908082528060200260200182016040528015612afe578160200160208202803683370190505b50905060005b86518110156116a3576000878281518110612b1b57fe5b6020026020010151905060006001600160a01b0316816001600160a01b03161415612b435750885b846001600160a01b03166352f55eed826040518263ffffffff1660e01b815260040180826001600160a01b0316815260200191505060206040518083038186803b158015612b9057600080fd5b505afa158015612ba4573d6000803e3d6000fd5b505050506040513d6020811015612bba57600080fd5b505183518490848902908110612bcc57fe5b602002602001018181525050846001600160a01b031663c3c7b9e9826040518263ffffffff1660e01b815260040180826001600160a01b0316815260200191505060206040518083038186803b158015612c2557600080fd5b505afa158015612c39573d6000803e3d6000fd5b505050506040513d6020811015612c4f57600080fd5b5051835184906001858a0201908110612c6457fe5b602002602001018181525050846001600160a01b0316631aa4ace5826040518263ffffffff1660e01b815260040180826001600160a01b0316815260200191505060206040518083038186803b158015612cbd57600080fd5b505afa158015612cd1573d6000803e3d6000fd5b505050506040513d6020811015612ce757600080fd5b5051835184906002858a0201908110612cfc57fe5b602002602001018181525050846001600160a01b0316632c668ec1828b6040518363ffffffff1660e01b815260040180836001600160a01b031681526020018281526020019250505060206040518083038186803b158015612d5d57600080fd5b505afa158015612d71573d6000803e3d6000fd5b505050506040513d6020811015612d8757600080fd5b5051835184906003858a0201908110612d9c57fe5b602002602001018181525050846001600160a01b031663ab2f3ad4826040518263ffffffff1660e01b815260040180826001600160a01b0316815260200191505060206040518083038186803b158015612df557600080fd5b505afa158015612e09573d6000803e3d6000fd5b505050506040513d6020811015612e1f57600080fd5b5051835184906004858a0201908110612e3457fe5b602002602001018181525050846001600160a01b0316634a993ee9826040518263ffffffff1660e01b815260040180826001600160a01b0316815260200191505060206040518083038186803b158015612e8d57600080fd5b505afa158015612ea1573d6000803e3d6000fd5b505050506040513d6020811015612eb757600080fd5b5051835184906005858a0201908110612ecc57fe5b602002602001018181525050846001600160a01b031663ad1e4f8d826040518263ffffffff1660e01b815260040180826001600160a01b0316815260200191505060206040518083038186803b158015612f2557600080fd5b505afa158015612f39573d6000803e3d6000fd5b505050506040513d6020811015612f4f57600080fd5b5051835184906006858a0201908110612f6457fe5b602002602001018181525050846001600160a01b03166381a612d6826040518263ffffffff1660e01b815260040180826001600160a01b0316815260200191505060206040518083038186803b158015612fbd57600080fd5b505afa158015612fd1573d6000803e3d6000fd5b505050506040513d6020811015612fe757600080fd5b5051835184906007858a0201908110612ffc57fe5b602002602001018181525050846001600160a01b031663e124e6d2826040518263ffffffff1660e01b815260040180826001600160a01b0316815260200191505060206040518083038186803b15801561305557600080fd5b505afa158015613069573d6000803e3d6000fd5b505050506040513d602081101561307f57600080fd5b5051835184906008858a020190811061309457fe5b602002602001018181525050846001600160a01b031663f07456ce826040518263ffffffff1660e01b815260040180826001600160a01b0316815260200191505060206040518083038186803b1580156130ed57600080fd5b505afa158015613101573d6000803e3d6000fd5b505050506040513d602081101561311757600080fd5b5051835184906009858a020190811061312c57fe5b602090810291909101810191909152604080516356c8c2c160e01b81526001600160a01b038481166004830152600060248301529151918716926356c8c2c192604480840193829003018186803b15801561318657600080fd5b505afa15801561319a573d6000803e3d6000fd5b505050506040513d60208110156131b057600080fd5b505183518490600a858a02019081106131c557fe5b602090810291909101810191909152604080516356c8c2c160e01b81526001600160a01b038481166004830152600160248301529151918716926356c8c2c192604480840193829003018186803b15801561321f57600080fd5b505afa158015613233573d6000803e3d6000fd5b505050506040513d602081101561324957600080fd5b505183518490600b858a020190811061325e57fe5b602090810291909101015250600101612b04565b336000908152600160205260409020805442106132d5576040805162461bcd60e51b815260206004820152601c60248201527b11dbdd995c9b98589b194e88191958591b1a5b9948195e1c1a5c995960221b604482015290519081900360640190fd5b60018082015460ff1615151461331c5760405162461bcd60e51b8152600401808060200182810382526022815260200180615efa6022913960400191505060405180910390fd5b6000805433808352600160208190526040808520858155909101805460ff1916905583546001600160a01b03191682178455516001600160a01b0390921692909183917f5f56bee8cffbe9a78652a74a60705edede02af10b0bbb888ca44b79a0d42ce8091a35050565b60608082516001600160401b03811180156133a057600080fd5b506040519080825280602002602001820160405280156133ca578160200160208202803683370190505b50905060005b83518110156118ca57846001600160a01b0316631ce9cb8f8583815181106133f457fe5b60200260200101516040518263ffffffff1660e01b815260040180826001600160a01b0316815260200191505060206040518083038186803b15801561343957600080fd5b505afa15801561344d573d6000803e3d6000fd5b505050506040513d602081101561346357600080fd5b5051825183908390811061347357fe5b60209081029190910101526001016133d0565b601281565b6001602081905260009182526040909120805491015460ff1682565b60606000600e905060008690506000816001600160a01b031663741bef1a6040518163ffffffff1660e01b815260040160206040518083038186803b1580156134ef57600080fd5b505afa158015613503573d6000803e3d6000fd5b505050506040513d602081101561351957600080fd5b5051855190915060609084026001600160401b038111801561353a57600080fd5b50604051908082528060200260200182016040528015613564578160200160208202803683370190505b50905060005b86518110156116a357600087828151811061358157fe5b6020026020010151905060006001600160a01b0316816001600160a01b031614156135a95750885b60025460009060ff166135bd576000613637565b856001600160a01b0316639698d25a836040518263ffffffff1660e01b815260040180826001600160a01b0316815260200191505060206040518083038186803b15801561360a57600080fd5b505afa15801561361e573d6000803e3d6000fd5b505050506040513d602081101561363457600080fd5b50515b9050856001600160a01b03166352f55eed836040518263ffffffff1660e01b815260040180826001600160a01b0316815260200191505060206040518083038186803b15801561368657600080fd5b505afa15801561369a573d6000803e3d6000fd5b505050506040513d60208110156136b057600080fd5b505184518590858a029081106136c257fe5b602002602001018181525050856001600160a01b031663c3c7b9e9836040518263ffffffff1660e01b815260040180826001600160a01b0316815260200191505060206040518083038186803b15801561371b57600080fd5b505afa15801561372f573d6000803e3d6000fd5b505050506040513d602081101561374557600080fd5b5051845185906001868b020190811061375a57fe5b602002602001018181525050856001600160a01b0316631aa4ace5836040518263ffffffff1660e01b815260040180826001600160a01b0316815260200191505060206040518083038186803b1580156137b357600080fd5b505afa1580156137c7573d6000803e3d6000fd5b505050506040513d60208110156137dd57600080fd5b5051845185906002868b02019081106137f257fe5b602002602001018181525050856001600160a01b0316632c668ec1838c6040518363ffffffff1660e01b815260040180836001600160a01b031681526020018281526020019250505060206040518083038186803b15801561385357600080fd5b505afa158015613867573d6000803e3d6000fd5b505050506040513d602081101561387d57600080fd5b5051845185906003868b020190811061389257fe5b602002602001018181525050856001600160a01b031663ab2f3ad4836040518263ffffffff1660e01b815260040180826001600160a01b0316815260200191505060206040518083038186803b1580156138eb57600080fd5b505afa1580156138ff573d6000803e3d6000fd5b505050506040513d602081101561391557600080fd5b5051845185906004868b020190811061392a57fe5b602002602001018181525050856001600160a01b0316634a993ee9836040518263ffffffff1660e01b815260040180826001600160a01b0316815260200191505060206040518083038186803b15801561398357600080fd5b505afa158015613997573d6000803e3d6000fd5b505050506040513d60208110156139ad57600080fd5b5051845185906005868b02019081106139c257fe5b602002602001018181525050856001600160a01b031663ad1e4f8d836040518263ffffffff1660e01b815260040180826001600160a01b0316815260200191505060206040518083038186803b158015613a1b57600080fd5b505afa158015613a2f573d6000803e3d6000fd5b505050506040513d6020811015613a4557600080fd5b5051845185906006868b0201908110613a5a57fe5b602002602001018181525050856001600160a01b0316638a78daa8836040518263ffffffff1660e01b815260040180826001600160a01b0316815260200191505060206040518083038186803b158015613ab357600080fd5b505afa158015613ac7573d6000803e3d6000fd5b505050506040513d6020811015613add57600080fd5b5051845185906007868b0201908110613af257fe5b602002602001018181525050808488850260080181518110613b1057fe5b602002602001018181525050856001600160a01b03166381a612d6836040518263ffffffff1660e01b815260040180826001600160a01b0316815260200191505060206040518083038186803b158015613b6957600080fd5b505afa158015613b7d573d6000803e3d6000fd5b505050506040513d6020811015613b9357600080fd5b5051845185906009868b0201908110613ba857fe5b602002602001018181525050856001600160a01b031663e124e6d2836040518263ffffffff1660e01b815260040180826001600160a01b0316815260200191505060206040518083038186803b158015613c0157600080fd5b505afa158015613c15573d6000803e3d6000fd5b505050506040513d6020811015613c2b57600080fd5b505184518590600a868b0201908110613c4057fe5b602002602001018181525050856001600160a01b031663f07456ce836040518263ffffffff1660e01b815260040180826001600160a01b0316815260200191505060206040518083038186803b158015613c9957600080fd5b505afa158015613cad573d6000803e3d6000fd5b505050506040513d6020811015613cc357600080fd5b505184518590600b868b0201908110613cd857fe5b602090810291909101810191909152604080516356c8c2c160e01b81526001600160a01b038581166004830152600060248301529151918816926356c8c2c192604480840193829003018186803b158015613d3257600080fd5b505afa158015613d46573d6000803e3d6000fd5b505050506040513d6020811015613d5c57600080fd5b505184518590600c868b0201908110613d7157fe5b602090810291909101810191909152604080516356c8c2c160e01b81526001600160a01b038581166004830152600160248301529151918816926356c8c2c192604480840193829003018186803b158015613dcb57600080fd5b505afa158015613ddf573d6000803e3d6000fd5b505050506040513d6020811015613df557600080fd5b505184518590600d868b0201908110613e0a57fe5b6020908102919091010152505060010161356a565b60606000600290506060818451026001600160401b0381118015613e4257600080fd5b50604051908082528060200260200182016040528015613e6c578160200160208202803683370190505b50905060005b8451811015611ad0576000858281518110613e8957fe5b60200260200101519050806001600160a01b031663402914f5886040518263ffffffff1660e01b815260040180826001600160a01b0316815260200191505060206040518083038186803b158015613ee057600080fd5b505afa158015613ef4573d6000803e3d6000fd5b505050506040513d6020811015613f0a57600080fd5b505183518490848702908110613f1c57fe5b602002602001018181525050806001600160a01b0316632459f51d6040518163ffffffff1660e01b815260040160206040518083038186803b158015613f6157600080fd5b505afa158015613f75573d6000803e3d6000fd5b505050506040513d6020811015613f8b57600080fd5b505183518490600185880201908110613fa057fe5b602090810291909101015250600101613e72565b68327cb2734119d3b7a9601e1b81565b60606000600290506060818451026001600160401b0381118015613fe757600080fd5b50604051908082528060200260200182016040528015614011578160200160208202803683370190505b5090508560005b855181101561448457600086828151811061402f57fe5b6020026020010151905060006001600160a01b0316816001600160a01b031614156140575750865b6000836001600160a01b03166342b60b03836040518263ffffffff1660e01b815260040180826001600160a01b0316815260200191505060206040518083038186803b1580156140a657600080fd5b505afa1580156140ba573d6000803e3d6000fd5b505050506040513d60208110156140d057600080fd5b505161414057836001600160a01b031663c4f718bf6040518163ffffffff1660e01b815260040160206040518083038186803b15801561410f57600080fd5b505afa158015614123573d6000803e3d6000fd5b505050506040513d602081101561413957600080fd5b50516141a6565b836001600160a01b031663134ca63b6040518163ffffffff1660e01b815260040160206040518083038186803b15801561417957600080fd5b505afa15801561418d573d6000803e3d6000fd5b505050506040513d60208110156141a357600080fd5b50515b90506000846001600160a01b031663c3c7b9e9846040518263ffffffff1660e01b815260040180826001600160a01b0316815260200191505060206040518083038186803b1580156141f757600080fd5b505afa15801561420b573d6000803e3d6000fd5b505050506040513d602081101561422157600080fd5b5051604080516352f55eed60e01b81526001600160a01b0386811660048301529151929350600092918816916352f55eed91602480820192602092909190829003018186803b15801561427357600080fd5b505afa158015614287573d6000803e3d6000fd5b505050506040513d602081101561429d57600080fd5b5051905080156142d0576142b58161202c8585615c72565b87898702815181106142c357fe5b6020026020010181815250505b6000866001600160a01b031663c65bc7b1866040518263ffffffff1660e01b815260040180826001600160a01b0316815260200191505060206040518083038186803b15801561431f57600080fd5b505afa158015614333573d6000803e3d6000fd5b505050506040513d602081101561434957600080fd5b50511115614474576000866001600160a01b031663a93acac2866040518263ffffffff1660e01b815260040180826001600160a01b0316815260200191505060206040518083038186803b1580156143a057600080fd5b505afa1580156143b4573d6000803e3d6000fd5b505050506040513d60208110156143ca57600080fd5b50516040805163c65bc7b160e01b81526001600160a01b0388811660048301529151929350600092918a169163c65bc7b191602480820192602092909190829003018186803b15801561441c57600080fd5b505afa158015614430573d6000803e3d6000fd5b505050506040513d602081101561444657600080fd5b505190506144548183615d85565b898b89026001018151811061446557fe5b60200260200101818152505050505b5050600190920191506140189050565b5090925050505b9392505050565b6000546001600160a01b031633146144df576040805162461bcd60e51b81526020600482015260156024820152600080516020615eda833981519152604482015290519081900360640190fd5b6002805460ff1916911515919091179055565b6000546001600160a01b0316331461453f576040805162461bcd60e51b81526020600482015260156024820152600080516020615eda833981519152604482015290519081900360640190fd5b6001600160a01b0381166000908152600160208190526040909120015460ff166145b0576040805162461bcd60e51b815260206004820152601f60248201527f476f7665726e61626c653a2070726f706f73616c206e6f742061637469766500604482015290519081900360640190fd5b6001600160a01b0381166000818152600160208190526040808320838155909101805460ff19169055513392917ffc6a2fa53abe2adfe8372a9495032d7e6458d3aed34fa880132b6c808da1e99c91a350565b80516060906002908190839082900482026001600160401b038111801561462957600080fd5b50604051908082528060200260200182016040528015614653578160200160208202803683370190505b50905060005b8386518161466357fe5b04811015614865576000868583028151811061467b57fe5b602002602001015190506000878684026001018151811061469857fe5b602002602001015190506000896001600160a01b031663e6a4390584846040518363ffffffff1660e01b815260040180836001600160a01b03168152602001826001600160a01b031681526020019250505060206040518083038186803b15801561470257600080fd5b505afa158015614716573d6000803e3d6000fd5b505050506040513d602081101561472c57600080fd5b5051604080516370a0823160e01b81526001600160a01b0380841660048301529151929350908516916370a0823191602480820192602092909190829003018186803b15801561477b57600080fd5b505afa15801561478f573d6000803e3d6000fd5b505050506040513d60208110156147a557600080fd5b5051855186908689029081106147b757fe5b602002602001018181525050816001600160a01b03166370a08231826040518263ffffffff1660e01b815260040180826001600160a01b0316815260200191505060206040518083038186803b15801561481057600080fd5b505afa158015614824573d6000803e3d6000fd5b505050506040513d602081101561483a57600080fd5b5051855186906001878a020190811061484f57fe5b6020908102919091010152505050600101614659565b5095945050505050565b600981565b60025460ff1681565b6000546001600160a01b031633146148ca576040805162461bcd60e51b81526020600482015260156024820152600080516020615eda833981519152604482015290519081900360640190fd5b6001600160a01b038116614923576040805162461bcd60e51b815260206004820152601b60248201527a476f7665726e61626c653a20696e76616c6964206164647265737360281b604482015290519081900360640190fd5b6000546001600160a01b0382811691161415614984576040805162461bcd60e51b815260206004820152601b60248201527a476f7665726e61626c653a2073616d6520676f7665726e616e636560281b604482015290519081900360640190fd5b61499081600019615d0a565b50565b6000806000866001600160a01b03166381a612d6876040518263ffffffff1660e01b815260040180826001600160a01b0316815260200191505060206040518083038186803b1580156149e557600080fd5b505afa1580156149f9573d6000803e3d6000fd5b505050506040513d6020811015614a0f57600080fd5b5051604080516323b95ceb60e21b81526001600160a01b0389811660048301529151929350600092918a1691638ee573ac91602480820192602092909190829003018186803b158015614a6157600080fd5b505afa158015614a75573d6000803e3d6000fd5b505050506040513d6020811015614a8b57600080fd5b5051604080516323b95ceb60e21b81526001600160a01b0389811660048301529151929350600092918b1691638ee573ac91602480820192602092909190829003018186803b158015614add57600080fd5b505afa158015614af1573d6000803e3d6000fd5b505050506040513d6020811015614b0757600080fd5b50519050600080614b2868327cb2734119d3b7a9601e1b61202c8a88615c72565b9050614b44600a85900a61202c83670de0b6b3a7640000615c72565b905060008b6001600160a01b03166342b60b038c6040518263ffffffff1660e01b815260040180826001600160a01b0316815260200191505060206040518083038186803b158015614b9557600080fd5b505afa158015614ba9573d6000803e3d6000fd5b505050506040513d6020811015614bbf57600080fd5b50518015614c4257508b6001600160a01b03166342b60b038b6040518263ffffffff1660e01b815260040180826001600160a01b0316815260200191505060206040518083038186803b158015614c1557600080fd5b505afa158015614c29573d6000803e3d6000fd5b505050506040513d6020811015614c3f57600080fd5b50515b9050600081614cb5578c6001600160a01b031663a22f23926040518163ffffffff1660e01b815260040160206040518083038186803b158015614c8457600080fd5b505afa158015614c98573d6000803e3d6000fd5b505050506040513d6020811015614cae57600080fd5b5051614d1b565b8c6001600160a01b031663df73a2676040518163ffffffff1660e01b815260040160206040518083038186803b158015614cee57600080fd5b505afa158015614d02573d6000803e3d6000fd5b505050506040513d6020811015614d1857600080fd5b50515b9050600082614d8e578d6001600160a01b0316637a210a2b6040518163ffffffff1660e01b815260040160206040518083038186803b158015614d5d57600080fd5b505afa158015614d71573d6000803e3d6000fd5b505050506040513d6020811015614d8757600080fd5b5051614df4565b8d6001600160a01b03166310eb56c26040518163ffffffff1660e01b815260040160206040518083038186803b158015614dc757600080fd5b505afa158015614ddb573d6000803e3d6000fd5b505050506040513d6020811015614df157600080fd5b50515b905060008e6001600160a01b031663c7e074c38f87868660016040518663ffffffff1660e01b815260040180866001600160a01b0316815260200185815260200184815260200183815260200182151581526020019550505050505060206040518083038186803b158015614e6857600080fd5b505afa158015614e7c573d6000803e3d6000fd5b505050506040513d6020811015614e9257600080fd5b8101908080519060200190929190505050905060008f6001600160a01b031663c7e074c38f88878760006040518663ffffffff1660e01b815260040180866001600160a01b0316815260200185815260200184815260200183815260200182151581526020019550505050505060206040518083038186803b158015614f1757600080fd5b505afa158015614f2b573d6000803e3d6000fd5b505050506040513d6020811015614f4157600080fd5b50519050808211614f525780614f54565b815b965050505050505060008a6001600160a01b031663e124e6d28a6040518263ffffffff1660e01b815260040180826001600160a01b0316815260200191505060206040518083038186803b158015614fab57600080fd5b505afa158015614fbf573d6000803e3d6000fd5b505050506040513d6020811015614fd557600080fd5b505190506000614fe98261202c8b89615c72565b905061500885600a0a61202c86600a0a84615c7290919063ffffffff16565b9050600061502661271061202c61501f8288615c30565b8590615c72565b905060006150348383615c30565b919e919d50909b505050505050505050505050565b60608082516001600160401b038111801561506357600080fd5b5060405190808252806020026020018201604052801561508d578160200160208202803683370190505b50905060005b83518110156118ca5760008482815181106150aa57fe5b6020026020010151905060006001600160a01b0316816001600160a01b031614156150f857856001600160a01b0316318383815181106150e657fe5b6020026020010181815250505061518d565b806001600160a01b03166370a08231876040518263ffffffff1660e01b815260040180826001600160a01b0316815260200191505060206040518083038186803b15801561514557600080fd5b505afa158015615159573d6000803e3d6000fd5b505050506040513d602081101561516f57600080fd5b5051835184908490811061517f57fe5b602002602001018181525050505b600101615093565b60608060098551026001016001600160401b03811180156151b557600080fd5b506040519080825280602002602001820160405280156151df578160200160208202803683370190505b50905060005b85518110156155895760008060008060008060008e6001600160a01b0316634a3f088d8f8f8b8151811061521557fe5b60200260200101518f8c8151811061522957fe5b60200260200101518f8d8151811061523d57fe5b60200260200101516040518563ffffffff1660e01b815260040180856001600160a01b03168152602001846001600160a01b03168152602001836001600160a01b0316815260200182151581526020019450505050506101006040518083038186803b1580156152ac57600080fd5b505afa1580156152c0573d6000803e3d6000fd5b505050506040513d6101008110156152d757600080fd5b50805160208201516040830151606084015160a085015160c086015160e0909601518f51959d50939b509199509750955091935090915087908a9060098b0290811061531f57fe5b602002602001018181525050858960098a026001018151811061533e57fe5b602002602001018181525050848960098a026002018151811061535d57fe5b602002602001018181525050838960098a026003018151811061537c57fe5b60200260200101818152505081615394576000615397565b60015b60ff168960098a02600401815181106153ac57fe5b602002602001018181525050828960098a02600501815181106153cb57fe5b602002602001018181525050808960098a02600601815181106153ea57fe5b60200260200101818152505050505050505050600082600983028151811061540e57fe5b60200260200101519050600083600984026002018151811061542c57fe5b60200260200101519050600084600985026006018151811061544a57fe5b60200260200101519050600082111561557e576000808c6001600160a01b0316635c07eaab8b888151811061547b57fe5b602002602001015187878d8b8151811061549157fe5b6020026020010151886040518663ffffffff1660e01b815260040180866001600160a01b03168152602001858152602001848152602001831515815260200182815260200195505050505050604080518083038186803b1580156154f457600080fd5b505afa158015615508573d6000803e3d6000fd5b505050506040513d604081101561551e57600080fd5b50805160209091015190925090508161553857600061553b565b60015b60ff1687600988026007018151811061555057fe5b6020026020010181815250508087600988026008018151811061556f57fe5b60200260200101818152505050505b5050506001016151e5565b50428160018351038151811061559b57fe5b60209081029190910101529695505050505050565b600080846001600160a01b03166381a612d6856040518263ffffffff1660e01b815260040180826001600160a01b0316815260200191505060206040518083038186803b15801561560057600080fd5b505afa158015615614573d6000803e3d6000fd5b505050506040513d602081101561562a57600080fd5b505160408051637092736960e11b81526001600160a01b03868116600483015291519293506000929188169163e124e6d291602480820192602092909190829003018186803b15801561567c57600080fd5b505afa158015615690573d6000803e3d6000fd5b505050506040513d60208110156156a657600080fd5b5051604080516323b95ceb60e21b81526001600160a01b038881166004830152915192935060009291891691638ee573ac91602480820192602092909190829003018186803b1580156156f857600080fd5b505afa15801561570c573d6000803e3d6000fd5b505050506040513d602081101561572257600080fd5b5051604080516323b95ceb60e21b81526001600160a01b0388811660048301529151929350600092918a1691638ee573ac91602480820192602092909190829003018186803b15801561577457600080fd5b505afa158015615788573d6000803e3d6000fd5b505050506040513d602081101561579e57600080fd5b5051604080516352f55eed60e01b81526001600160a01b038981166004830152915192935060009283928c16916352f55eed916024808301926020929190829003018186803b1580156157f057600080fd5b505afa158015615804573d6000803e3d6000fd5b505050506040513d602081101561581a57600080fd5b50516040805163c3c7b9e960e01b81526001600160a01b038b811660048301529151929350600092918d169163c3c7b9e991602480820192602092909190829003018186803b15801561586c57600080fd5b505afa158015615880573d6000803e3d6000fd5b505050506040513d602081101561589657600080fd5b505160408051634a993ee960e01b81526001600160a01b038c811660048301529151929350600092918e1691634a993ee991602480820192602092909190829003018186803b1580156158e857600080fd5b505afa1580156158fc573d6000803e3d6000fd5b505050506040513d602081101561591257600080fd5b5051905060008183116159255781615927565b825b9050838110615942576000995050505050505050505061448b565b600061594e8583615c30565b905061597b87600a0a61202c8a600a0a6159758e61202c8f88615c7290919063ffffffff16565b90615c72565b955050505050506000896001600160a01b031663ad1e4f8d8a6040518263ffffffff1660e01b815260040180826001600160a01b0316815260200191505060206040518083038186803b1580156159d157600080fd5b505afa1580156159e5573d6000803e3d6000fd5b505050506040513d60208110156159fb57600080fd5b5051905080156116a357896001600160a01b0316631aa4ace58a6040518263ffffffff1660e01b815260040180826001600160a01b0316815260200191505060206040518083038186803b158015615a5257600080fd5b505afa158015615a66573d6000803e3d6000fd5b505050506040513d6020811015615a7c57600080fd5b5051811015615a94576000965050505050505061448b565b6000615b198b6001600160a01b0316631aa4ace58c6040518263ffffffff1660e01b815260040180826001600160a01b0316815260200191505060206040518083038186803b158015615ae657600080fd5b505afa158015615afa573d6000803e3d6000fd5b505050506040513d6020811015615b1057600080fd5b50518390615c30565b9050615b35670de0b6b3a764000061202c83600a89900a615c72565b9050615b518761202c8368327cb2734119d3b7a9601e1b615c72565b905080831115615b6957965061448b95505050505050565b505098975050505050505050565b600080805b83518110156118ca576000848281518110615b9357fe5b602002602001015190506000866001600160a01b03166370a08231836040518263ffffffff1660e01b815260040180826001600160a01b0316815260200191505060206040518083038186803b158015615bec57600080fd5b505afa158015615c00573d6000803e3d6000fd5b505050506040513d6020811015615c1657600080fd5b50519050615c248482615d85565b93505050600101615b7c565b600061448b83836040518060400160405280601e81526020017f536166654d6174683a207375627472616374696f6e206f766572666c6f770000815250615ddd565b600082615c81575060006118ce565b82820282848281615c8e57fe5b041461448b5760405162461bcd60e51b8152600401808060200182810382526021815260200180615f1c6021913960400191505060405180910390fd5b600061448b83836040518060400160405280601a815260200179536166654d6174683a206469766973696f6e206279207a65726f60301b815250615e74565b604080518082018252828152600160208083018281526001600160a01b038716600081815284845286902094518555905193909201805460ff1916931515939093179092558251848152925190927f02dd0697be46e764c3ba81094158781c31b235d03bb27a0daf1bdef0ec1084dd92908290030190a25050565b60008282018381101561448b576040805162461bcd60e51b815260206004820152601b60248201527a536166654d6174683a206164646974696f6e206f766572666c6f7760281b604482015290519081900360640190fd5b60008184841115615e6c5760405162461bcd60e51b81526004018080602001828103825283818151815260200191508051906020019080838360005b83811015615e31578181015183820152602001615e19565b50505050905090810190601f168015615e5e5780820380516001836020036101000a031916815260200191505b509250505060405180910390fd5b505050900390565b60008183615ec35760405162461bcd60e51b8152602060048201818152835160248401528351909283926044909101919085019080838360008315615e31578181015183820152602001615e19565b506000838581615ecf57fe5b049594505050505056fe476f7665726e61626c653a20666f7262696464656e0000000000000000000000476f7665726e61626c653a2070726f706f73616c206973206e6f7420616374697665536166654d6174683a206d756c7469706c69636174696f6e206f766572666c6f77a26469706673582212203ca036d7712d1ddd4ef7fa6e19c14370584caf75708e9c80a669975cf79bf0d064736f6c634300060c0033","linkReferences":{}},"methodIdentifiers":{"BASIS_POINTS_DIVISOR()":"126082cf","POSITION_PROPS_LENGTH()":"ad7e5497","PRICE_PRECISION()":"95082d25","USDG_DECIMALS()":"870d917c","acceptGov()":"7bc6729b","cancelGovProposal(address)":"9c35b497","getAmountOut(address,address,address,uint256)":"d7176ca9","getFeeBasisPoints(address,address,address,uint256)":"440f018c","getFees(address,address[])":"86d4d0f5","getFullVaultTokenInfo(address,address,uint256,address[])":"7b906e93","getFundingRates(address,address,address[])":"95a7535a","getMaxAmountIn(address,address,address)":"f3535e6c","getPairInfo(address,address[])":"a4543ead","getPositions(address,address,address[],address[],bool[])":"dc383cab","getPrices(address,address[])":"3613d527","getStakingInfo(address,address[])":"937a0be8","getTokenBalances(address,address[])":"d802178e","getTokenBalancesWithSupplies(address,address[])":"2e3e3342","getTokenSupply(address,address[])":"2ac0184c","getTotalBalance(address,address[])":"fbdb05ca","getTotalStaked(address[])":"2413c8c1","getVaultTokenInfo(address,address,uint256,address[])":"20542568","getVaultTokenInfoV2(address,address,uint256,address[])":"8e83ca32","getVestingInfo(address,address[])":"48211934","gov()":"12d43a51","govProposals(address)":"8d0fedb0","hasMaxGlobalShortSizes()":"c6f1d676","setConfig(bool)":"9b0183c3","setGov(address)":"cfad57a2","setGovWithDeadline(address,uint256)":"6bb22fd7"},"id":75}