{"abi":[{"type":"function","name":"BASIS_POINTS_DIVISOR","inputs":[],"outputs":[{"name":"","type":"uint256","internalType":"uint256"}],"stateMutability":"view"},{"type":"function","name":"POSITION_PROPS_LENGTH","inputs":[],"outputs":[{"name":"","type":"uint256","internalType":"uint256"}],"stateMutability":"view"},{"type":"function","name":"PRICE_PRECISION","inputs":[],"outputs":[{"name":"","type":"uint256","internalType":"uint256"}],"stateMutability":"view"},{"type":"function","name":"USDG_DECIMALS","inputs":[],"outputs":[{"name":"","type":"uint256","internalType":"uint256"}],"stateMutability":"view"},{"type":"function","name":"getAmountOut","inputs":[{"name":"_vault","type":"address","internalType":"contract IVault"},{"name":"_tokenIn","type":"address","internalType":"address"},{"name":"_tokenOut","type":"address","internalType":"address"},{"name":"_amountIn","type":"uint256","internalType":"uint256"}],"outputs":[{"name":"","type":"uint256","internalType":"uint256"},{"name":"","type":"uint256","internalType":"uint256"}],"stateMutability":"view"},{"type":"function","name":"getFeeBasisPoints","inputs":[{"name":"_vault","type":"address","internalType":"contract IVault"},{"name":"_tokenIn","type":"address","internalType":"address"},{"name":"_tokenOut","type":"address","internalType":"address"},{"name":"_amountIn","type":"uint256","internalType":"uint256"}],"outputs":[{"name":"","type":"uint256","internalType":"uint256"},{"name":"","type":"uint256","internalType":"uint256"},{"name":"","type":"uint256","internalType":"uint256"}],"stateMutability":"view"},{"type":"function","name":"getFees","inputs":[{"name":"_vault","type":"address","internalType":"address"},{"name":"_tokens","type":"address[]","internalType":"address[]"}],"outputs":[{"name":"","type":"uint256[]","internalType":"uint256[]"}],"stateMutability":"view"},{"type":"function","name":"getFullVaultTokenInfo","inputs":[{"name":"_vault","type":"address","internalType":"address"},{"name":"_weth","type":"address","internalType":"address"},{"name":"_usdgAmount","type":"uint256","internalType":"uint256"},{"name":"_tokens","type":"address[]","internalType":"address[]"}],"outputs":[{"name":"","type":"uint256[]","internalType":"uint256[]"}],"stateMutability":"view"},{"type":"function","name":"getFundingRates","inputs":[{"name":"_vault","type":"address","internalType":"address"},{"name":"_weth","type":"address","internalType":"address"},{"name":"_tokens","type":"address[]","internalType":"address[]"}],"outputs":[{"name":"","type":"uint256[]","internalType":"uint256[]"}],"stateMutability":"view"},{"type":"function","name":"getMaxAmountIn","inputs":[{"name":"_vault","type":"address","internalType":"contract IVault"},{"name":"_tokenIn","type":"address","internalType":"address"},{"name":"_tokenOut","type":"address","internalType":"address"}],"outputs":[{"name":"","type":"uint256","internalType":"uint256"}],"stateMutability":"view"},{"type":"function","name":"getPairInfo","inputs":[{"name":"_factory","type":"address","internalType":"address"},{"name":"_tokens","type":"address[]","internalType":"address[]"}],"outputs":[{"name":"","type":"uint256[]","internalType":"uint256[]"}],"stateMutability":"view"},{"type":"function","name":"getPositions","inputs":[{"name":"_vault","type":"address","internalType":"address"},{"name":"_account","type":"address","internalType":"address"},{"name":"_collateralTokens","type":"address[]","internalType":"address[]"},{"name":"_indexTokens","type":"address[]","internalType":"address[]"},{"name":"_isLong","type":"bool[]","internalType":"bool[]"}],"outputs":[{"name":"","type":"uint256[]","internalType":"uint256[]"}],"stateMutability":"view"},{"type":"function","name":"getPrices","inputs":[{"name":"_priceFeed","type":"address","internalType":"contract IVaultPriceFeed"},{"name":"_tokens","type":"address[]","internalType":"address[]"}],"outputs":[{"name":"","type":"uint256[]","internalType":"uint256[]"}],"stateMutability":"view"},{"type":"function","name":"getStakingInfo","inputs":[{"name":"_account","type":"address","internalType":"address"},{"name":"_yieldTrackers","type":"address[]","internalType":"address[]"}],"outputs":[{"name":"","type":"uint256[]","internalType":"uint256[]"}],"stateMutability":"view"},{"type":"function","name":"getTokenBalances","inputs":[{"name":"_account","type":"address","internalType":"address"},{"name":"_tokens","type":"address[]","internalType":"address[]"}],"outputs":[{"name":"","type":"uint256[]","internalType":"uint256[]"}],"stateMutability":"view"},{"type":"function","name":"getTokenBalancesWithSupplies","inputs":[{"name":"_account","type":"address","internalType":"address"},{"name":"_tokens","type":"address[]","internalType":"address[]"}],"outputs":[{"name":"","type":"uint256[]","internalType":"uint256[]"}],"stateMutability":"view"},{"type":"function","name":"getTokenSupply","inputs":[{"name":"_token","type":"address","internalType":"contract IERC20"},{"name":"_excludedAccounts","type":"address[]","internalType":"address[]"}],"outputs":[{"name":"","type":"uint256","internalType":"uint256"}],"stateMutability":"view"},{"type":"function","name":"getTotalBalance","inputs":[{"name":"_token","type":"address","internalType":"contract IERC20"},{"name":"_accounts","type":"address[]","internalType":"address[]"}],"outputs":[{"name":"","type":"uint256","internalType":"uint256"}],"stateMutability":"view"},{"type":"function","name":"getTotalStaked","inputs":[{"name":"_yieldTokens","type":"address[]","internalType":"address[]"}],"outputs":[{"name":"","type":"uint256[]","internalType":"uint256[]"}],"stateMutability":"view"},{"type":"function","name":"getVaultTokenInfo","inputs":[{"name":"_vault","type":"address","internalType":"address"},{"name":"_weth","type":"address","internalType":"address"},{"name":"_usdgAmount","type":"uint256","internalType":"uint256"},{"name":"_tokens","type":"address[]","internalType":"address[]"}],"outputs":[{"name":"","type":"uint256[]","internalType":"uint256[]"}],"stateMutability":"view"},{"type":"function","name":"getVaultTokenInfoV2","inputs":[{"name":"_vault","type":"address","internalType":"address"},{"name":"_weth","type":"address","internalType":"address"},{"name":"_usdgAmount","type":"uint256","internalType":"uint256"},{"name":"_tokens","type":"address[]","internalType":"address[]"}],"outputs":[{"name":"","type":"uint256[]","internalType":"uint256[]"}],"stateMutability":"view"},{"type":"function","name":"getVestingInfo","inputs":[{"name":"_account","type":"address","internalType":"address"},{"name":"_vesters","type":"address[]","internalType":"address[]"}],"outputs":[{"name":"","type":"uint256[]","internalType":"uint256[]"}],"stateMutability":"view"},{"type":"function","name":"gov","inputs":[],"outputs":[{"name":"","type":"address","internalType":"address"}],"stateMutability":"view"},{"type":"function","name":"hasMaxGlobalShortSizes","inputs":[],"outputs":[{"name":"","type":"bool","internalType":"bool"}],"stateMutability":"view"},{"type":"function","name":"setConfig","inputs":[{"name":"_hasMaxGlobalShortSizes","type":"bool","internalType":"bool"}],"outputs":[],"stateMutability":"nonpayable"},{"type":"function","name":"setGov","inputs":[{"name":"_gov","type":"address","internalType":"address"}],"outputs":[],"stateMutability":"nonpayable"}],"bytecode":{"object":"0x608060405234801561001057600080fd5b50600080546001600160a01b03191633179055615a1e80620000336000396000f3fe608060405234801561001057600080fd5b506004361061013e5760003560e01c8063126082cf1461014357806312d43a511461015d57806320542568146101815780632413c8c1146102925780632ac0184c146103335780632e3e3342146103e45780633613d52714610495578063440f018c1461054657806348211934146105a05780637b906e931461065157806386d4d0f514610712578063870d917c146107c35780638e83ca32146107cb578063937a0be81461088c57806395082d251461093d57806395a7535a146109455780639b0183c3146109ff578063a4543ead14610a20578063ad7e549714610ad1578063c6f1d67614610ad9578063cfad57a214610af5578063d7176ca914610b1b578063d802178e14610b70578063dc383cab14610c21578063f3535e6c14610ddf578063fbdb05ca14610e17575b600080fd5b61014b610ec8565b60408051918252519081900360200190f35b610165610ece565b604080516001600160a01b039092168252519081900360200190f35b6102426004803603608081101561019757600080fd5b6001600160a01b03823581169260208101359091169160408201359190810190608081016060820135600160201b8111156101d157600080fd5b8201836020820111156101e357600080fd5b803590602001918460208302840111600160201b8311171561020457600080fd5b919080806020026020016040519081016040528093929190818152602001838360200280828437600092019190915250929550610edd945050505050565b60408051602080825283518183015283519192839290830191858101910280838360005b8381101561027e578181015183820152602001610266565b505050509050019250505060405180910390f35b610242600480360360208110156102a857600080fd5b810190602081018135600160201b8111156102c257600080fd5b8201836020820111156102d457600080fd5b803590602001918460208302840111600160201b831117156102f557600080fd5b9190808060200260200160405190810160405280939291908181526020018383602002808284376000920191909152509295506115eb945050505050565b61014b6004803603604081101561034957600080fd5b6001600160a01b038235169190810190604081016020820135600160201b81111561037357600080fd5b82018360208201111561038557600080fd5b803590602001918460208302840111600160201b831117156103a657600080fd5b9190808060200260200160405190810160405280939291908181526020018383602002808284376000920191909152509295506116e4945050505050565b610242600480360360408110156103fa57600080fd5b6001600160a01b038235169190810190604081016020820135600160201b81111561042457600080fd5b82018360208201111561043657600080fd5b803590602001918460208302840111600160201b8311171561045757600080fd5b91908080602002602001604051908101604052809392919081815260200183836020028082843760009201919091525092955061180f945050505050565b610242600480360360408110156104ab57600080fd5b6001600160a01b038235169190810190604081016020820135600160201b8111156104d557600080fd5b8201836020820111156104e757600080fd5b803590602001918460208302840111600160201b8311171561050857600080fd5b919080806020026020016040519081016040528093929190818152602001838360200280828437600092019190915250929550611a14945050505050565b6105826004803603608081101561055c57600080fd5b506001600160a01b03813581169160208101358216916040820135169060600135611e4e565b60408051938452602084019290925282820152519081900360600190f35b610242600480360360408110156105b657600080fd5b6001600160a01b038235169190810190604081016020820135600160201b8111156105e057600080fd5b8201836020820111156105f257600080fd5b803590602001918460208302840111600160201b8311171561061357600080fd5b9190808060200260200160405190810160405280939291908181526020018383602002808284376000920191909152509295506123b3945050505050565b6102426004803603608081101561066757600080fd5b6001600160a01b03823581169260208101359091169160408201359190810190608081016060820135600160201b8111156106a157600080fd5b8201836020820111156106b357600080fd5b803590602001918460208302840111600160201b831117156106d457600080fd5b919080806020026020016040519081016040528093929190818152602001838360200280828437600092019190915250929550612867945050505050565b6102426004803603604081101561072857600080fd5b6001600160a01b038235169190810190604081016020820135600160201b81111561075257600080fd5b82018360208201111561076457600080fd5b803590602001918460208302840111600160201b8311171561078557600080fd5b919080806020026020016040519081016040528093929190818152602001838360200280828437600092019190915250929550613098945050505050565b61014b613198565b610242600480360360808110156107e157600080fd5b6001600160a01b03823581169260208101359091169160408201359190810190608081016060820135600160201b81111561081b57600080fd5b82018360208201111561082d57600080fd5b803590602001918460208302840111600160201b8311171561084e57600080fd5b91908080602002602001604051908101604052809392919081815260200183836020028082843760009201919091525092955061319d945050505050565b610242600480360360408110156108a257600080fd5b6001600160a01b038235169190810190604081016020820135600160201b8111156108cc57600080fd5b8201836020820111156108de57600080fd5b803590602001918460208302840111600160201b831117156108ff57600080fd5b919080806020026020016040519081016040528093929190818152602001838360200280828437600092019190915250929550613b1a945050505050565b61014b613caf565b6102426004803603606081101561095b57600080fd5b6001600160a01b038235811692602081013590911691810190606081016040820135600160201b81111561098e57600080fd5b8201836020820111156109a057600080fd5b803590602001918460208302840111600160201b831117156109c157600080fd5b919080806020026020016040519081016040528093929190818152602001838360200280828437600092019190915250929550613cbf945050505050565b610a1e60048036036020811015610a1557600080fd5b5035151561418d565b005b61024260048036036040811015610a3657600080fd5b6001600160a01b038235169190810190604081016020820135600160201b811115610a6057600080fd5b820183602082011115610a7257600080fd5b803590602001918460208302840111600160201b83111715610a9357600080fd5b919080806020026020016040519081016040528093929190818152602001838360200280828437600092019190915250929550614202945050505050565b61014b61446e565b610ae1614473565b604080519115158252519081900360200190f35b610a1e60048036036020811015610b0b57600080fd5b50356001600160a01b0316614483565b610b5760048036036080811015610b3157600080fd5b506001600160a01b038135811691602081013582169160408201351690606001356144fc565b6040805192835260208301919091528051918290030190f35b61024260048036036040811015610b8657600080fd5b6001600160a01b038235169190810190604081016020820135600160201b811115610bb057600080fd5b820183602082011115610bc257600080fd5b803590602001918460208302840111600160201b83111715610be357600080fd5b919080806020026020016040519081016040528093929190818152602001838360200280828437600092019190915250929550614bb2945050505050565b610242600480360360a0811015610c3757600080fd5b6001600160a01b038235811692602081013590911691810190606081016040820135600160201b811115610c6a57600080fd5b820183602082011115610c7c57600080fd5b803590602001918460208302840111600160201b83111715610c9d57600080fd5b9190808060200260200160405190810160405280939291908181526020018383602002808284376000920191909152509295949360208101935035915050600160201b811115610cec57600080fd5b820183602082011115610cfe57600080fd5b803590602001918460208302840111600160201b83111715610d1f57600080fd5b9190808060200260200160405190810160405280939291908181526020018383602002808284376000920191909152509295949360208101935035915050600160201b811115610d6e57600080fd5b820183602082011115610d8057600080fd5b803590602001918460208302840111600160201b83111715610da157600080fd5b919080806020026020016040519081016040528093929190818152602001838360200280828437600092019190915250929550614cfe945050505050565b61014b60048036036060811015610df557600080fd5b506001600160a01b038135811691602081013582169160409091013516615119565b61014b60048036036040811015610e2d57600080fd5b6001600160a01b038235169190810190604081016020820135600160201b811115610e5757600080fd5b820183602082011115610e6957600080fd5b803590602001918460208302840111600160201b83111715610e8a57600080fd5b9190808060200260200160405190810160405280939291908181526020018383602002808284376000920191909152509295506156e0945050505050565b61271081565b6000546001600160a01b031681565b60606000600a905060008690506000816001600160a01b031663741bef1a6040518163ffffffff1660e01b815260040160206040518083038186803b158015610f2557600080fd5b505afa158015610f39573d6000803e3d6000fd5b505050506040513d6020811015610f4f57600080fd5b5051855190915060609084026001600160401b0381118015610f7057600080fd5b50604051908082528060200260200182016040528015610f9a578160200160208202803683370190505b50905060005b86518110156115de576000878281518110610fb757fe5b6020026020010151905060006001600160a01b0316816001600160a01b03161415610fdf5750885b846001600160a01b03166352f55eed826040518263ffffffff1660e01b815260040180826001600160a01b0316815260200191505060206040518083038186803b15801561102c57600080fd5b505afa158015611040573d6000803e3d6000fd5b505050506040513d602081101561105657600080fd5b50518351849084890290811061106857fe5b602002602001018181525050846001600160a01b031663c3c7b9e9826040518263ffffffff1660e01b815260040180826001600160a01b0316815260200191505060206040518083038186803b1580156110c157600080fd5b505afa1580156110d5573d6000803e3d6000fd5b505050506040513d60208110156110eb57600080fd5b5051835184906001858a020190811061110057fe5b602002602001018181525050846001600160a01b0316631aa4ace5826040518263ffffffff1660e01b815260040180826001600160a01b0316815260200191505060206040518083038186803b15801561115957600080fd5b505afa15801561116d573d6000803e3d6000fd5b505050506040513d602081101561118357600080fd5b5051835184906002858a020190811061119857fe5b602002602001018181525050846001600160a01b0316632c668ec1828b6040518363ffffffff1660e01b815260040180836001600160a01b031681526020018281526020019250505060206040518083038186803b1580156111f957600080fd5b505afa15801561120d573d6000803e3d6000fd5b505050506040513d602081101561122357600080fd5b5051835184906003858a020190811061123857fe5b602002602001018181525050846001600160a01b031663ab2f3ad4826040518263ffffffff1660e01b815260040180826001600160a01b0316815260200191505060206040518083038186803b15801561129157600080fd5b505afa1580156112a5573d6000803e3d6000fd5b505050506040513d60208110156112bb57600080fd5b5051835184906004858a02019081106112d057fe5b602002602001018181525050846001600160a01b03166381a612d6826040518263ffffffff1660e01b815260040180826001600160a01b0316815260200191505060206040518083038186803b15801561132957600080fd5b505afa15801561133d573d6000803e3d6000fd5b505050506040513d602081101561135357600080fd5b5051835184906005858a020190811061136857fe5b602002602001018181525050846001600160a01b031663e124e6d2826040518263ffffffff1660e01b815260040180826001600160a01b0316815260200191505060206040518083038186803b1580156113c157600080fd5b505afa1580156113d5573d6000803e3d6000fd5b505050506040513d60208110156113eb57600080fd5b5051835184906006858a020190811061140057fe5b602002602001018181525050846001600160a01b031663f07456ce826040518263ffffffff1660e01b815260040180826001600160a01b0316815260200191505060206040518083038186803b15801561145957600080fd5b505afa15801561146d573d6000803e3d6000fd5b505050506040513d602081101561148357600080fd5b5051835184906007858a020190811061149857fe5b602090810291909101810191909152604080516356c8c2c160e01b81526001600160a01b038481166004830152600060248301529151918716926356c8c2c192604480840193829003018186803b1580156114f257600080fd5b505afa158015611506573d6000803e3d6000fd5b505050506040513d602081101561151c57600080fd5b5051835184906008858a020190811061153157fe5b602090810291909101810191909152604080516356c8c2c160e01b81526001600160a01b038481166004830152600160248301529151918716926356c8c2c192604480840193829003018186803b15801561158b57600080fd5b505afa15801561159f573d6000803e3d6000fd5b505050506040513d60208110156115b557600080fd5b5051835184906009858a02019081106115ca57fe5b602090810291909101015250600101610fa0565b5098975050505050505050565b60608082516001600160401b038111801561160557600080fd5b5060405190808252806020026020018201604052801561162f578160200160208202803683370190505b50905060005b83518110156116dd57600084828151811061164c57fe5b60200260200101519050806001600160a01b031663817b1cd26040518163ffffffff1660e01b815260040160206040518083038186803b15801561168f57600080fd5b505afa1580156116a3573d6000803e3d6000fd5b505050506040513d60208110156116b957600080fd5b505183518490849081106116c957fe5b602090810291909101015250600101611635565b5092915050565b600080836001600160a01b03166318160ddd6040518163ffffffff1660e01b815260040160206040518083038186803b15801561172057600080fd5b505afa158015611734573d6000803e3d6000fd5b505050506040513d602081101561174a57600080fd5b5051905060005b835181101561180557600084828151811061176857fe5b602002602001015190506000866001600160a01b03166370a08231836040518263ffffffff1660e01b815260040180826001600160a01b0316815260200191505060206040518083038186803b1580156117c157600080fd5b505afa1580156117d5573d6000803e3d6000fd5b505050506040513d60208110156117eb57600080fd5b505190506117f98482615799565b93505050600101611751565b5090505b92915050565b60606000600290506060818451026001600160401b038111801561183257600080fd5b5060405190808252806020026020018201604052801561185c578160200160208202803683370190505b50905060005b8451811015611a0b57600085828151811061187957fe5b6020026020010151905060006001600160a01b0316816001600160a01b031614156118e857866001600160a01b03163183858402815181106118b757fe5b602002602001018181525050600083858402600101815181106118d657fe5b60200260200101818152505050611a03565b806001600160a01b03166370a08231886040518263ffffffff1660e01b815260040180826001600160a01b0316815260200191505060206040518083038186803b15801561193557600080fd5b505afa158015611949573d6000803e3d6000fd5b505050506040513d602081101561195f57600080fd5b50518351849084870290811061197157fe5b602002602001018181525050806001600160a01b03166318160ddd6040518163ffffffff1660e01b815260040160206040518083038186803b1580156119b657600080fd5b505afa1580156119ca573d6000803e3d6000fd5b505050506040513d60208110156119e057600080fd5b5051835184906001858802019081106119f557fe5b602002602001018181525050505b600101611862565b50949350505050565b60606000600690506060818451026001600160401b0381118015611a3757600080fd5b50604051908082528060200260200182016040528015611a61578160200160208202803683370190505b50905060005b8451811015611a0b576000858281518110611a7e57fe5b602090810291909101810151604080516317e1d38560e11b81526001600160a01b0380841660048301526001602483018190526044830152600060648301529151929450908a1692632fc3a70a92608480840193829003018186803b158015611ae657600080fd5b505afa158015611afa573d6000803e3d6000fd5b505050506040513d6020811015611b1057600080fd5b505183518490848702908110611b2257fe5b602090810291909101810191909152604080516317e1d38560e11b81526001600160a01b0384811660048301526000602483018190526001604484015260648301529151918a1692632fc3a70a92608480840193829003018186803b158015611b8a57600080fd5b505afa158015611b9e573d6000803e3d6000fd5b505050506040513d6020811015611bb457600080fd5b505183518490600185880201908110611bc957fe5b602090810291909101810191909152604080516356c8c2c160e01b81526001600160a01b038481166004830152600160248301529151918a16926356c8c2c192604480840193829003018186803b158015611c2357600080fd5b505afa158015611c37573d6000803e3d6000fd5b505050506040513d6020811015611c4d57600080fd5b505183518490600285880201908110611c6257fe5b602090810291909101810191909152604080516356c8c2c160e01b81526001600160a01b038481166004830152600060248301529151918a16926356c8c2c192604480840193829003018186803b158015611cbc57600080fd5b505afa158015611cd0573d6000803e3d6000fd5b505050506040513d6020811015611ce657600080fd5b505183518490600385880201908110611cfb57fe5b602002602001018181525050866001600160a01b0316636ce8a44b826040518263ffffffff1660e01b815260040180826001600160a01b0316815260200191505060206040518083038186803b158015611d5457600080fd5b505afa158015611d68573d6000803e3d6000fd5b505050506040513d6020811015611d7e57600080fd5b5051611d8b576000611d8e565b60015b60ff168385840260040181518110611da257fe5b602002602001018181525050866001600160a01b03166348cac277826040518263ffffffff1660e01b815260040180826001600160a01b0316815260200191505060206040518083038186803b158015611dfb57600080fd5b505afa158015611e0f573d6000803e3d6000fd5b505050506040513d6020811015611e2557600080fd5b505183518490600585880201908110611e3a57fe5b602090810291909101015250600101611a67565b600080600080876001600160a01b03166381a612d6886040518263ffffffff1660e01b815260040180826001600160a01b0316815260200191505060206040518083038186803b158015611ea157600080fd5b505afa158015611eb5573d6000803e3d6000fd5b505050506040513d6020811015611ecb57600080fd5b5051604080516323b95ceb60e21b81526001600160a01b038a811660048301529151929350600092918b1691638ee573ac91602480820192602092909190829003018186803b158015611f1d57600080fd5b505afa158015611f31573d6000803e3d6000fd5b505050506040513d6020811015611f4757600080fd5b505190506000611f6d68327cb2734119d3b7a9601e1b611f6789866157db565b90615834565b9050611f89600a83900a611f6783670de0b6b3a76400006157db565b905060008a6001600160a01b03166342b60b038b6040518263ffffffff1660e01b815260040180826001600160a01b0316815260200191505060206040518083038186803b158015611fda57600080fd5b505afa158015611fee573d6000803e3d6000fd5b505050506040513d602081101561200457600080fd5b5051801561208757508a6001600160a01b03166342b60b038a6040518263ffffffff1660e01b815260040180826001600160a01b0316815260200191505060206040518083038186803b15801561205a57600080fd5b505afa15801561206e573d6000803e3d6000fd5b505050506040513d602081101561208457600080fd5b50515b90506000816120fa578b6001600160a01b031663a22f23926040518163ffffffff1660e01b815260040160206040518083038186803b1580156120c957600080fd5b505afa1580156120dd573d6000803e3d6000fd5b505050506040513d60208110156120f357600080fd5b5051612160565b8b6001600160a01b031663df73a2676040518163ffffffff1660e01b815260040160206040518083038186803b15801561213357600080fd5b505afa158015612147573d6000803e3d6000fd5b505050506040513d602081101561215d57600080fd5b50515b90506000826121d3578c6001600160a01b0316637a210a2b6040518163ffffffff1660e01b815260040160206040518083038186803b1580156121a257600080fd5b505afa1580156121b6573d6000803e3d6000fd5b505050506040513d60208110156121cc57600080fd5b5051612239565b8c6001600160a01b03166310eb56c26040518163ffffffff1660e01b815260040160206040518083038186803b15801561220c57600080fd5b505afa158015612220573d6000803e3d6000fd5b505050506040513d602081101561223657600080fd5b50515b905060008d6001600160a01b031663c7e074c38e87868660016040518663ffffffff1660e01b815260040180866001600160a01b0316815260200185815260200184815260200183815260200182151581526020019550505050505060206040518083038186803b1580156122ad57600080fd5b505afa1580156122c1573d6000803e3d6000fd5b505050506040513d60208110156122d757600080fd5b8101908080519060200190929190505050905060008e6001600160a01b031663c7e074c38e88878760006040518663ffffffff1660e01b815260040180866001600160a01b0316815260200185815260200184815260200183815260200182151581526020019550505050505060206040518083038186803b15801561235c57600080fd5b505afa158015612370573d6000803e3d6000fd5b505050506040513d602081101561238657600080fd5b505190506000818311612399578161239b565b825b9b509199509750505050505050509450945094915050565b60606000600790506060818451026001600160401b03811180156123d657600080fd5b50604051908082528060200260200182016040528015612400578160200160208202803683370190505b50905060005b8451811015611a0b57600085828151811061241d57fe5b60200260200101519050806001600160a01b0316635d50e729886040518263ffffffff1660e01b815260040180826001600160a01b0316815260200191505060206040518083038186803b15801561247457600080fd5b505afa158015612488573d6000803e3d6000fd5b505050506040513d602081101561249e57600080fd5b5051835184908487029081106124b057fe5b602002602001018181525050806001600160a01b031663d5a73fdd886040518263ffffffff1660e01b815260040180826001600160a01b0316815260200191505060206040518083038186803b15801561250957600080fd5b505afa15801561251d573d6000803e3d6000fd5b505050506040513d602081101561253357600080fd5b50518351849060018588020190811061254857fe5b60200260200101818152505085828151811061256057fe5b60200260200101516001600160a01b03166370a08231886040518263ffffffff1660e01b815260040180826001600160a01b0316815260200191505060206040518083038186803b1580156125b457600080fd5b505afa1580156125c8573d6000803e3d6000fd5b505050506040513d60208110156125de57600080fd5b5051835184906002858802019081106125f357fe5b602002602001018181525050806001600160a01b03166371417b32886040518263ffffffff1660e01b815260040180826001600160a01b0316815260200191505060206040518083038186803b15801561264c57600080fd5b505afa158015612660573d6000803e3d6000fd5b505050506040513d602081101561267657600080fd5b50518351849060038588020190811061268b57fe5b602002602001018181525050806001600160a01b031663402914f5886040518263ffffffff1660e01b815260040180826001600160a01b0316815260200191505060206040518083038186803b1580156126e457600080fd5b505afa1580156126f8573d6000803e3d6000fd5b505050506040513d602081101561270e57600080fd5b50518351849060048588020190811061272357fe5b602002602001018181525050806001600160a01b03166308f26c76886040518263ffffffff1660e01b815260040180826001600160a01b0316815260200191505060206040518083038186803b15801561277c57600080fd5b505afa158015612790573d6000803e3d6000fd5b505050506040513d60208110156127a657600080fd5b5051835184906005858802019081106127bb57fe5b602002602001018181525050806001600160a01b03166345f01ee6886040518263ffffffff1660e01b815260040180826001600160a01b0316815260200191505060206040518083038186803b15801561281457600080fd5b505afa158015612828573d6000803e3d6000fd5b505050506040513d602081101561283e57600080fd5b50518351849060068588020190811061285357fe5b602090810291909101015250600101612406565b60606000600c905060008690506000816001600160a01b031663741bef1a6040518163ffffffff1660e01b815260040160206040518083038186803b1580156128af57600080fd5b505afa1580156128c3573d6000803e3d6000fd5b505050506040513d60208110156128d957600080fd5b5051855190915060609084026001600160401b03811180156128fa57600080fd5b50604051908082528060200260200182016040528015612924578160200160208202803683370190505b50905060005b86518110156115de57600087828151811061294157fe5b6020026020010151905060006001600160a01b0316816001600160a01b031614156129695750885b846001600160a01b03166352f55eed826040518263ffffffff1660e01b815260040180826001600160a01b0316815260200191505060206040518083038186803b1580156129b657600080fd5b505afa1580156129ca573d6000803e3d6000fd5b505050506040513d60208110156129e057600080fd5b5051835184908489029081106129f257fe5b602002602001018181525050846001600160a01b031663c3c7b9e9826040518263ffffffff1660e01b815260040180826001600160a01b0316815260200191505060206040518083038186803b158015612a4b57600080fd5b505afa158015612a5f573d6000803e3d6000fd5b505050506040513d6020811015612a7557600080fd5b5051835184906001858a0201908110612a8a57fe5b602002602001018181525050846001600160a01b0316631aa4ace5826040518263ffffffff1660e01b815260040180826001600160a01b0316815260200191505060206040518083038186803b158015612ae357600080fd5b505afa158015612af7573d6000803e3d6000fd5b505050506040513d6020811015612b0d57600080fd5b5051835184906002858a0201908110612b2257fe5b602002602001018181525050846001600160a01b0316632c668ec1828b6040518363ffffffff1660e01b815260040180836001600160a01b031681526020018281526020019250505060206040518083038186803b158015612b8357600080fd5b505afa158015612b97573d6000803e3d6000fd5b505050506040513d6020811015612bad57600080fd5b5051835184906003858a0201908110612bc257fe5b602002602001018181525050846001600160a01b031663ab2f3ad4826040518263ffffffff1660e01b815260040180826001600160a01b0316815260200191505060206040518083038186803b158015612c1b57600080fd5b505afa158015612c2f573d6000803e3d6000fd5b505050506040513d6020811015612c4557600080fd5b5051835184906004858a0201908110612c5a57fe5b602002602001018181525050846001600160a01b0316634a993ee9826040518263ffffffff1660e01b815260040180826001600160a01b0316815260200191505060206040518083038186803b158015612cb357600080fd5b505afa158015612cc7573d6000803e3d6000fd5b505050506040513d6020811015612cdd57600080fd5b5051835184906005858a0201908110612cf257fe5b602002602001018181525050846001600160a01b031663ad1e4f8d826040518263ffffffff1660e01b815260040180826001600160a01b0316815260200191505060206040518083038186803b158015612d4b57600080fd5b505afa158015612d5f573d6000803e3d6000fd5b505050506040513d6020811015612d7557600080fd5b5051835184906006858a0201908110612d8a57fe5b602002602001018181525050846001600160a01b03166381a612d6826040518263ffffffff1660e01b815260040180826001600160a01b0316815260200191505060206040518083038186803b158015612de357600080fd5b505afa158015612df7573d6000803e3d6000fd5b505050506040513d6020811015612e0d57600080fd5b5051835184906007858a0201908110612e2257fe5b602002602001018181525050846001600160a01b031663e124e6d2826040518263ffffffff1660e01b815260040180826001600160a01b0316815260200191505060206040518083038186803b158015612e7b57600080fd5b505afa158015612e8f573d6000803e3d6000fd5b505050506040513d6020811015612ea557600080fd5b5051835184906008858a0201908110612eba57fe5b602002602001018181525050846001600160a01b031663f07456ce826040518263ffffffff1660e01b815260040180826001600160a01b0316815260200191505060206040518083038186803b158015612f1357600080fd5b505afa158015612f27573d6000803e3d6000fd5b505050506040513d6020811015612f3d57600080fd5b5051835184906009858a0201908110612f5257fe5b602090810291909101810191909152604080516356c8c2c160e01b81526001600160a01b038481166004830152600060248301529151918716926356c8c2c192604480840193829003018186803b158015612fac57600080fd5b505afa158015612fc0573d6000803e3d6000fd5b505050506040513d6020811015612fd657600080fd5b505183518490600a858a0201908110612feb57fe5b602090810291909101810191909152604080516356c8c2c160e01b81526001600160a01b038481166004830152600160248301529151918716926356c8c2c192604480840193829003018186803b15801561304557600080fd5b505afa158015613059573d6000803e3d6000fd5b505050506040513d602081101561306f57600080fd5b505183518490600b858a020190811061308457fe5b60209081029190910101525060010161292a565b60608082516001600160401b03811180156130b257600080fd5b506040519080825280602002602001820160405280156130dc578160200160208202803683370190505b50905060005b835181101561180557846001600160a01b0316631ce9cb8f85838151811061310657fe5b60200260200101516040518263ffffffff1660e01b815260040180826001600160a01b0316815260200191505060206040518083038186803b15801561314b57600080fd5b505afa15801561315f573d6000803e3d6000fd5b505050506040513d602081101561317557600080fd5b5051825183908390811061318557fe5b60209081029190910101526001016130e2565b601281565b60606000600e905060008690506000816001600160a01b031663741bef1a6040518163ffffffff1660e01b815260040160206040518083038186803b1580156131e557600080fd5b505afa1580156131f9573d6000803e3d6000fd5b505050506040513d602081101561320f57600080fd5b5051855190915060609084026001600160401b038111801561323057600080fd5b5060405190808252806020026020018201604052801561325a578160200160208202803683370190505b50905060005b86518110156115de57600087828151811061327757fe5b6020026020010151905060006001600160a01b0316816001600160a01b0316141561329f5750885b60008054600160a01b900460ff166132b8576000613332565b856001600160a01b0316639698d25a836040518263ffffffff1660e01b815260040180826001600160a01b0316815260200191505060206040518083038186803b15801561330557600080fd5b505afa158015613319573d6000803e3d6000fd5b505050506040513d602081101561332f57600080fd5b50515b9050856001600160a01b03166352f55eed836040518263ffffffff1660e01b815260040180826001600160a01b0316815260200191505060206040518083038186803b15801561338157600080fd5b505afa158015613395573d6000803e3d6000fd5b505050506040513d60208110156133ab57600080fd5b505184518590858a029081106133bd57fe5b602002602001018181525050856001600160a01b031663c3c7b9e9836040518263ffffffff1660e01b815260040180826001600160a01b0316815260200191505060206040518083038186803b15801561341657600080fd5b505afa15801561342a573d6000803e3d6000fd5b505050506040513d602081101561344057600080fd5b5051845185906001868b020190811061345557fe5b602002602001018181525050856001600160a01b0316631aa4ace5836040518263ffffffff1660e01b815260040180826001600160a01b0316815260200191505060206040518083038186803b1580156134ae57600080fd5b505afa1580156134c2573d6000803e3d6000fd5b505050506040513d60208110156134d857600080fd5b5051845185906002868b02019081106134ed57fe5b602002602001018181525050856001600160a01b0316632c668ec1838c6040518363ffffffff1660e01b815260040180836001600160a01b031681526020018281526020019250505060206040518083038186803b15801561354e57600080fd5b505afa158015613562573d6000803e3d6000fd5b505050506040513d602081101561357857600080fd5b5051845185906003868b020190811061358d57fe5b602002602001018181525050856001600160a01b031663ab2f3ad4836040518263ffffffff1660e01b815260040180826001600160a01b0316815260200191505060206040518083038186803b1580156135e657600080fd5b505afa1580156135fa573d6000803e3d6000fd5b505050506040513d602081101561361057600080fd5b5051845185906004868b020190811061362557fe5b602002602001018181525050856001600160a01b0316634a993ee9836040518263ffffffff1660e01b815260040180826001600160a01b0316815260200191505060206040518083038186803b15801561367e57600080fd5b505afa158015613692573d6000803e3d6000fd5b505050506040513d60208110156136a857600080fd5b5051845185906005868b02019081106136bd57fe5b602002602001018181525050856001600160a01b031663ad1e4f8d836040518263ffffffff1660e01b815260040180826001600160a01b0316815260200191505060206040518083038186803b15801561371657600080fd5b505afa15801561372a573d6000803e3d6000fd5b505050506040513d602081101561374057600080fd5b5051845185906006868b020190811061375557fe5b602002602001018181525050856001600160a01b0316638a78daa8836040518263ffffffff1660e01b815260040180826001600160a01b0316815260200191505060206040518083038186803b1580156137ae57600080fd5b505afa1580156137c2573d6000803e3d6000fd5b505050506040513d60208110156137d857600080fd5b5051845185906007868b02019081106137ed57fe5b60200260200101818152505080848885026008018151811061380b57fe5b602002602001018181525050856001600160a01b03166381a612d6836040518263ffffffff1660e01b815260040180826001600160a01b0316815260200191505060206040518083038186803b15801561386457600080fd5b505afa158015613878573d6000803e3d6000fd5b505050506040513d602081101561388e57600080fd5b5051845185906009868b02019081106138a357fe5b602002602001018181525050856001600160a01b031663e124e6d2836040518263ffffffff1660e01b815260040180826001600160a01b0316815260200191505060206040518083038186803b1580156138fc57600080fd5b505afa158015613910573d6000803e3d6000fd5b505050506040513d602081101561392657600080fd5b505184518590600a868b020190811061393b57fe5b602002602001018181525050856001600160a01b031663f07456ce836040518263ffffffff1660e01b815260040180826001600160a01b0316815260200191505060206040518083038186803b15801561399457600080fd5b505afa1580156139a8573d6000803e3d6000fd5b505050506040513d60208110156139be57600080fd5b505184518590600b868b02019081106139d357fe5b602090810291909101810191909152604080516356c8c2c160e01b81526001600160a01b038581166004830152600060248301529151918816926356c8c2c192604480840193829003018186803b158015613a2d57600080fd5b505afa158015613a41573d6000803e3d6000fd5b505050506040513d6020811015613a5757600080fd5b505184518590600c868b0201908110613a6c57fe5b602090810291909101810191909152604080516356c8c2c160e01b81526001600160a01b038581166004830152600160248301529151918816926356c8c2c192604480840193829003018186803b158015613ac657600080fd5b505afa158015613ada573d6000803e3d6000fd5b505050506040513d6020811015613af057600080fd5b505184518590600d868b0201908110613b0557fe5b60209081029190910101525050600101613260565b60606000600290506060818451026001600160401b0381118015613b3d57600080fd5b50604051908082528060200260200182016040528015613b67578160200160208202803683370190505b50905060005b8451811015611a0b576000858281518110613b8457fe5b60200260200101519050806001600160a01b031663402914f5886040518263ffffffff1660e01b815260040180826001600160a01b0316815260200191505060206040518083038186803b158015613bdb57600080fd5b505afa158015613bef573d6000803e3d6000fd5b505050506040513d6020811015613c0557600080fd5b505183518490848702908110613c1757fe5b602002602001018181525050806001600160a01b0316632459f51d6040518163ffffffff1660e01b815260040160206040518083038186803b158015613c5c57600080fd5b505afa158015613c70573d6000803e3d6000fd5b505050506040513d6020811015613c8657600080fd5b505183518490600185880201908110613c9b57fe5b602090810291909101015250600101613b6d565b68327cb2734119d3b7a9601e1b81565b60606000600290506060818451026001600160401b0381118015613ce257600080fd5b50604051908082528060200260200182016040528015613d0c578160200160208202803683370190505b5090508560005b855181101561417f576000868281518110613d2a57fe5b6020026020010151905060006001600160a01b0316816001600160a01b03161415613d525750865b6000836001600160a01b03166342b60b03836040518263ffffffff1660e01b815260040180826001600160a01b0316815260200191505060206040518083038186803b158015613da157600080fd5b505afa158015613db5573d6000803e3d6000fd5b505050506040513d6020811015613dcb57600080fd5b5051613e3b57836001600160a01b031663c4f718bf6040518163ffffffff1660e01b815260040160206040518083038186803b158015613e0a57600080fd5b505afa158015613e1e573d6000803e3d6000fd5b505050506040513d6020811015613e3457600080fd5b5051613ea1565b836001600160a01b031663134ca63b6040518163ffffffff1660e01b815260040160206040518083038186803b158015613e7457600080fd5b505afa158015613e88573d6000803e3d6000fd5b505050506040513d6020811015613e9e57600080fd5b50515b90506000846001600160a01b031663c3c7b9e9846040518263ffffffff1660e01b815260040180826001600160a01b0316815260200191505060206040518083038186803b158015613ef257600080fd5b505afa158015613f06573d6000803e3d6000fd5b505050506040513d6020811015613f1c57600080fd5b5051604080516352f55eed60e01b81526001600160a01b0386811660048301529151929350600092918816916352f55eed91602480820192602092909190829003018186803b158015613f6e57600080fd5b505afa158015613f82573d6000803e3d6000fd5b505050506040513d6020811015613f9857600080fd5b505190508015613fcb57613fb081611f6785856157db565b8789870281518110613fbe57fe5b6020026020010181815250505b6000866001600160a01b031663c65bc7b1866040518263ffffffff1660e01b815260040180826001600160a01b0316815260200191505060206040518083038186803b15801561401a57600080fd5b505afa15801561402e573d6000803e3d6000fd5b505050506040513d602081101561404457600080fd5b5051111561416f576000866001600160a01b031663a93acac2866040518263ffffffff1660e01b815260040180826001600160a01b0316815260200191505060206040518083038186803b15801561409b57600080fd5b505afa1580156140af573d6000803e3d6000fd5b505050506040513d60208110156140c557600080fd5b50516040805163c65bc7b160e01b81526001600160a01b0388811660048301529151929350600092918a169163c65bc7b191602480820192602092909190829003018186803b15801561411757600080fd5b505afa15801561412b573d6000803e3d6000fd5b505050506040513d602081101561414157600080fd5b5051905061414f8183615873565b898b89026001018151811061416057fe5b60200260200101818152505050505b505060019092019150613d139050565b5090925050505b9392505050565b6000546001600160a01b031633146141e4576040805162461bcd60e51b815260206004820152601560248201527423b7bb32b93730b136329d103337b93134b23232b760591b604482015290519081900360640190fd5b60008054911515600160a01b0260ff60a01b19909216919091179055565b80516060906002908190839082900482026001600160401b038111801561422857600080fd5b50604051908082528060200260200182016040528015614252578160200160208202803683370190505b50905060005b8386518161426257fe5b04811015614464576000868583028151811061427a57fe5b602002602001015190506000878684026001018151811061429757fe5b602002602001015190506000896001600160a01b031663e6a4390584846040518363ffffffff1660e01b815260040180836001600160a01b03168152602001826001600160a01b031681526020019250505060206040518083038186803b15801561430157600080fd5b505afa158015614315573d6000803e3d6000fd5b505050506040513d602081101561432b57600080fd5b5051604080516370a0823160e01b81526001600160a01b0380841660048301529151929350908516916370a0823191602480820192602092909190829003018186803b15801561437a57600080fd5b505afa15801561438e573d6000803e3d6000fd5b505050506040513d60208110156143a457600080fd5b5051855186908689029081106143b657fe5b602002602001018181525050816001600160a01b03166370a08231826040518263ffffffff1660e01b815260040180826001600160a01b0316815260200191505060206040518083038186803b15801561440f57600080fd5b505afa158015614423573d6000803e3d6000fd5b505050506040513d602081101561443957600080fd5b5051855186906001878a020190811061444e57fe5b6020908102919091010152505050600101614258565b5095945050505050565b600981565b600054600160a01b900460ff1681565b6000546001600160a01b031633146144da576040805162461bcd60e51b815260206004820152601560248201527423b7bb32b93730b136329d103337b93134b23232b760591b604482015290519081900360640190fd5b600080546001600160a01b0319166001600160a01b0392909216919091179055565b6000806000866001600160a01b03166381a612d6876040518263ffffffff1660e01b815260040180826001600160a01b0316815260200191505060206040518083038186803b15801561454e57600080fd5b505afa158015614562573d6000803e3d6000fd5b505050506040513d602081101561457857600080fd5b5051604080516323b95ceb60e21b81526001600160a01b0389811660048301529151929350600092918a1691638ee573ac91602480820192602092909190829003018186803b1580156145ca57600080fd5b505afa1580156145de573d6000803e3d6000fd5b505050506040513d60208110156145f457600080fd5b5051604080516323b95ceb60e21b81526001600160a01b0389811660048301529151929350600092918b1691638ee573ac91602480820192602092909190829003018186803b15801561464657600080fd5b505afa15801561465a573d6000803e3d6000fd5b505050506040513d602081101561467057600080fd5b5051905060008061469168327cb2734119d3b7a9601e1b611f678a886157db565b90506146ad600a85900a611f6783670de0b6b3a76400006157db565b905060008b6001600160a01b03166342b60b038c6040518263ffffffff1660e01b815260040180826001600160a01b0316815260200191505060206040518083038186803b1580156146fe57600080fd5b505afa158015614712573d6000803e3d6000fd5b505050506040513d602081101561472857600080fd5b505180156147ab57508b6001600160a01b03166342b60b038b6040518263ffffffff1660e01b815260040180826001600160a01b0316815260200191505060206040518083038186803b15801561477e57600080fd5b505afa158015614792573d6000803e3d6000fd5b505050506040513d60208110156147a857600080fd5b50515b905060008161481e578c6001600160a01b031663a22f23926040518163ffffffff1660e01b815260040160206040518083038186803b1580156147ed57600080fd5b505afa158015614801573d6000803e3d6000fd5b505050506040513d602081101561481757600080fd5b5051614884565b8c6001600160a01b031663df73a2676040518163ffffffff1660e01b815260040160206040518083038186803b15801561485757600080fd5b505afa15801561486b573d6000803e3d6000fd5b505050506040513d602081101561488157600080fd5b50515b90506000826148f7578d6001600160a01b0316637a210a2b6040518163ffffffff1660e01b815260040160206040518083038186803b1580156148c657600080fd5b505afa1580156148da573d6000803e3d6000fd5b505050506040513d60208110156148f057600080fd5b505161495d565b8d6001600160a01b03166310eb56c26040518163ffffffff1660e01b815260040160206040518083038186803b15801561493057600080fd5b505afa158015614944573d6000803e3d6000fd5b505050506040513d602081101561495a57600080fd5b50515b905060008e6001600160a01b031663c7e074c38f87868660016040518663ffffffff1660e01b815260040180866001600160a01b0316815260200185815260200184815260200183815260200182151581526020019550505050505060206040518083038186803b1580156149d157600080fd5b505afa1580156149e5573d6000803e3d6000fd5b505050506040513d60208110156149fb57600080fd5b8101908080519060200190929190505050905060008f6001600160a01b031663c7e074c38f88878760006040518663ffffffff1660e01b815260040180866001600160a01b0316815260200185815260200184815260200183815260200182151581526020019550505050505060206040518083038186803b158015614a8057600080fd5b505afa158015614a94573d6000803e3d6000fd5b505050506040513d6020811015614aaa57600080fd5b50519050808211614abb5780614abd565b815b965050505050505060008a6001600160a01b031663e124e6d28a6040518263ffffffff1660e01b815260040180826001600160a01b0316815260200191505060206040518083038186803b158015614b1457600080fd5b505afa158015614b28573d6000803e3d6000fd5b505050506040513d6020811015614b3e57600080fd5b505190506000614b5282611f678b896157db565b9050614b7185600a0a611f6786600a0a846157db90919063ffffffff16565b90506000614b8f612710611f67614b888288615799565b85906157db565b90506000614b9d8383615799565b919e919d50909b505050505050505050505050565b60608082516001600160401b0381118015614bcc57600080fd5b50604051908082528060200260200182016040528015614bf6578160200160208202803683370190505b50905060005b8351811015611805576000848281518110614c1357fe5b6020026020010151905060006001600160a01b0316816001600160a01b03161415614c6157856001600160a01b031631838381518110614c4f57fe5b60200260200101818152505050614cf6565b806001600160a01b03166370a08231876040518263ffffffff1660e01b815260040180826001600160a01b0316815260200191505060206040518083038186803b158015614cae57600080fd5b505afa158015614cc2573d6000803e3d6000fd5b505050506040513d6020811015614cd857600080fd5b50518351849084908110614ce857fe5b602002602001018181525050505b600101614bfc565b60608060098551026001016001600160401b0381118015614d1e57600080fd5b50604051908082528060200260200182016040528015614d48578160200160208202803683370190505b50905060005b85518110156150f25760008060008060008060008e6001600160a01b0316634a3f088d8f8f8b81518110614d7e57fe5b60200260200101518f8c81518110614d9257fe5b60200260200101518f8d81518110614da657fe5b60200260200101516040518563ffffffff1660e01b815260040180856001600160a01b03168152602001846001600160a01b03168152602001836001600160a01b0316815260200182151581526020019450505050506101006040518083038186803b158015614e1557600080fd5b505afa158015614e29573d6000803e3d6000fd5b505050506040513d610100811015614e4057600080fd5b50805160208201516040830151606084015160a085015160c086015160e0909601518f51959d50939b509199509750955091935090915087908a9060098b02908110614e8857fe5b602002602001018181525050858960098a0260010181518110614ea757fe5b602002602001018181525050848960098a0260020181518110614ec657fe5b602002602001018181525050838960098a0260030181518110614ee557fe5b60200260200101818152505081614efd576000614f00565b60015b60ff168960098a0260040181518110614f1557fe5b602002602001018181525050828960098a0260050181518110614f3457fe5b602002602001018181525050808960098a0260060181518110614f5357fe5b602002602001018181525050505050505050506000826009830281518110614f7757fe5b602002602001015190506000836009840260020181518110614f9557fe5b602002602001015190506000846009850260060181518110614fb357fe5b6020026020010151905060008211156150e7576000808c6001600160a01b0316635c07eaab8b8881518110614fe457fe5b602002602001015187878d8b81518110614ffa57fe5b6020026020010151886040518663ffffffff1660e01b815260040180866001600160a01b03168152602001858152602001848152602001831515815260200182815260200195505050505050604080518083038186803b15801561505d57600080fd5b505afa158015615071573d6000803e3d6000fd5b505050506040513d604081101561508757600080fd5b5080516020909101519092509050816150a15760006150a4565b60015b60ff168760098802600701815181106150b957fe5b602002602001018181525050808760098802600801815181106150d857fe5b60200260200101818152505050505b505050600101614d4e565b50428160018351038151811061510457fe5b60209081029190910101529695505050505050565b600080846001600160a01b03166381a612d6856040518263ffffffff1660e01b815260040180826001600160a01b0316815260200191505060206040518083038186803b15801561516957600080fd5b505afa15801561517d573d6000803e3d6000fd5b505050506040513d602081101561519357600080fd5b505160408051637092736960e11b81526001600160a01b03868116600483015291519293506000929188169163e124e6d291602480820192602092909190829003018186803b1580156151e557600080fd5b505afa1580156151f9573d6000803e3d6000fd5b505050506040513d602081101561520f57600080fd5b5051604080516323b95ceb60e21b81526001600160a01b038881166004830152915192935060009291891691638ee573ac91602480820192602092909190829003018186803b15801561526157600080fd5b505afa158015615275573d6000803e3d6000fd5b505050506040513d602081101561528b57600080fd5b5051604080516323b95ceb60e21b81526001600160a01b0388811660048301529151929350600092918a1691638ee573ac91602480820192602092909190829003018186803b1580156152dd57600080fd5b505afa1580156152f1573d6000803e3d6000fd5b505050506040513d602081101561530757600080fd5b5051604080516352f55eed60e01b81526001600160a01b038981166004830152915192935060009283928c16916352f55eed916024808301926020929190829003018186803b15801561535957600080fd5b505afa15801561536d573d6000803e3d6000fd5b505050506040513d602081101561538357600080fd5b50516040805163c3c7b9e960e01b81526001600160a01b038b811660048301529151929350600092918d169163c3c7b9e991602480820192602092909190829003018186803b1580156153d557600080fd5b505afa1580156153e9573d6000803e3d6000fd5b505050506040513d60208110156153ff57600080fd5b505160408051634a993ee960e01b81526001600160a01b038c811660048301529151929350600092918e1691634a993ee991602480820192602092909190829003018186803b15801561545157600080fd5b505afa158015615465573d6000803e3d6000fd5b505050506040513d602081101561547b57600080fd5b50519050600081831161548e5781615490565b825b90508381106154ab5760009950505050505050505050614186565b60006154b78583615799565b90506154e487600a0a611f678a600a0a6154de8e611f678f886157db90919063ffffffff16565b906157db565b955050505050506000896001600160a01b031663ad1e4f8d8a6040518263ffffffff1660e01b815260040180826001600160a01b0316815260200191505060206040518083038186803b15801561553a57600080fd5b505afa15801561554e573d6000803e3d6000fd5b505050506040513d602081101561556457600080fd5b5051905080156115de57896001600160a01b0316631aa4ace58a6040518263ffffffff1660e01b815260040180826001600160a01b0316815260200191505060206040518083038186803b1580156155bb57600080fd5b505afa1580156155cf573d6000803e3d6000fd5b505050506040513d60208110156155e557600080fd5b50518110156155fd5760009650505050505050614186565b60006156828b6001600160a01b0316631aa4ace58c6040518263ffffffff1660e01b815260040180826001600160a01b0316815260200191505060206040518083038186803b15801561564f57600080fd5b505afa158015615663573d6000803e3d6000fd5b505050506040513d602081101561567957600080fd5b50518390615799565b905061569e670de0b6b3a7640000611f6783600a89900a6157db565b90506156ba87611f678368327cb2734119d3b7a9601e1b6157db565b9050808311156156d257965061418695505050505050565b505098975050505050505050565b600080805b83518110156118055760008482815181106156fc57fe5b602002602001015190506000866001600160a01b03166370a08231836040518263ffffffff1660e01b815260040180826001600160a01b0316815260200191505060206040518083038186803b15801561575557600080fd5b505afa158015615769573d6000803e3d6000fd5b505050506040513d602081101561577f57600080fd5b5051905061578d8482615873565b935050506001016156e5565b600061418683836040518060400160405280601e81526020017f536166654d6174683a207375627472616374696f6e206f766572666c6f7700008152506158cb565b6000826157ea57506000611809565b828202828482816157f757fe5b04146141865760405162461bcd60e51b81526004018080602001828103825260218152602001806159c86021913960400191505060405180910390fd5b600061418683836040518060400160405280601a815260200179536166654d6174683a206469766973696f6e206279207a65726f60301b815250615962565b600082820183811015614186576040805162461bcd60e51b815260206004820152601b60248201527a536166654d6174683a206164646974696f6e206f766572666c6f7760281b604482015290519081900360640190fd5b6000818484111561595a5760405162461bcd60e51b81526004018080602001828103825283818151815260200191508051906020019080838360005b8381101561591f578181015183820152602001615907565b50505050905090810190601f16801561594c5780820380516001836020036101000a031916815260200191505b509250505060405180910390fd5b505050900390565b600081836159b15760405162461bcd60e51b815260206004820181815283516024840152835190928392604490910191908501908083836000831561591f578181015183820152602001615907565b5060008385816159bd57fe5b049594505050505056fe536166654d6174683a206d756c7469706c69636174696f6e206f766572666c6f77a26469706673582212204abd52a682892be77ac957aba3aa36e6c1f2063cbf433237604bbb3fbd7dc4ce64736f6c634300060c0033","linkReferences":{}},"methodIdentifiers":{"BASIS_POINTS_DIVISOR()":"126082cf","POSITION_PROPS_LENGTH()":"ad7e5497","PRICE_PRECISION()":"95082d25","USDG_DECIMALS()":"870d917c","getAmountOut(address,address,address,uint256)":"d7176ca9","getFeeBasisPoints(address,address,address,uint256)":"440f018c","getFees(address,address[])":"86d4d0f5","getFullVaultTokenInfo(address,address,uint256,address[])":"7b906e93","getFundingRates(address,address,address[])":"95a7535a","getMaxAmountIn(address,address,address)":"f3535e6c","getPairInfo(address,address[])":"a4543ead","getPositions(address,address,address[],address[],bool[])":"dc383cab","getPrices(address,address[])":"3613d527","getStakingInfo(address,address[])":"937a0be8","getTokenBalances(address,address[])":"d802178e","getTokenBalancesWithSupplies(address,address[])":"2e3e3342","getTokenSupply(address,address[])":"2ac0184c","getTotalBalance(address,address[])":"fbdb05ca","getTotalStaked(address[])":"2413c8c1","getVaultTokenInfo(address,address,uint256,address[])":"20542568","getVaultTokenInfoV2(address,address,uint256,address[])":"8e83ca32","getVestingInfo(address,address[])":"48211934","gov()":"12d43a51","hasMaxGlobalShortSizes()":"c6f1d676","setConfig(bool)":"9b0183c3","setGov(address)":"cfad57a2"},"id":107}