{"abi":[{"type":"constructor","inputs":[{"name":"_name","type":"string","internalType":"string"},{"name":"_symbol","type":"string","internalType":"string"},{"name":"_stakingToken","type":"address","internalType":"address"}],"stateMutability":"nonpayable"},{"type":"function","name":"addAdmin","inputs":[{"name":"_account","type":"address","internalType":"address"}],"outputs":[],"stateMutability":"nonpayable"},{"type":"function","name":"addNonStakingAccount","inputs":[{"name":"_account","type":"address","internalType":"address"}],"outputs":[],"stateMutability":"nonpayable"},{"type":"function","name":"admins","inputs":[{"name":"","type":"address","internalType":"address"}],"outputs":[{"name":"","type":"bool","internalType":"bool"}],"stateMutability":"view"},{"type":"function","name":"allowance","inputs":[{"name":"_owner","type":"address","internalType":"address"},{"name":"_spender","type":"address","internalType":"address"}],"outputs":[{"name":"","type":"uint256","internalType":"uint256"}],"stateMutability":"view"},{"type":"function","name":"allowances","inputs":[{"name":"","type":"address","internalType":"address"},{"name":"","type":"address","internalType":"address"}],"outputs":[{"name":"","type":"uint256","internalType":"uint256"}],"stateMutability":"view"},{"type":"function","name":"approve","inputs":[{"name":"_spender","type":"address","internalType":"address"},{"name":"_amount","type":"uint256","internalType":"uint256"}],"outputs":[{"name":"","type":"bool","internalType":"bool"}],"stateMutability":"nonpayable"},{"type":"function","name":"balanceOf","inputs":[{"name":"_account","type":"address","internalType":"address"}],"outputs":[{"name":"","type":"uint256","internalType":"uint256"}],"stateMutability":"view"},{"type":"function","name":"balances","inputs":[{"name":"","type":"address","internalType":"address"}],"outputs":[{"name":"","type":"uint256","internalType":"uint256"}],"stateMutability":"view"},{"type":"function","name":"claim","inputs":[{"name":"_receiver","type":"address","internalType":"address"}],"outputs":[],"stateMutability":"nonpayable"},{"type":"function","name":"decimals","inputs":[],"outputs":[{"name":"","type":"uint8","internalType":"uint8"}],"stateMutability":"view"},{"type":"function","name":"gov","inputs":[],"outputs":[{"name":"","type":"address","internalType":"address"}],"stateMutability":"view"},{"type":"function","name":"inWhitelistMode","inputs":[],"outputs":[{"name":"","type":"bool","internalType":"bool"}],"stateMutability":"view"},{"type":"function","name":"name","inputs":[],"outputs":[{"name":"","type":"string","internalType":"string"}],"stateMutability":"view"},{"type":"function","name":"nonStakingAccounts","inputs":[{"name":"","type":"address","internalType":"address"}],"outputs":[{"name":"","type":"bool","internalType":"bool"}],"stateMutability":"view"},{"type":"function","name":"nonStakingSupply","inputs":[],"outputs":[{"name":"","type":"uint256","internalType":"uint256"}],"stateMutability":"view"},{"type":"function","name":"recoverClaim","inputs":[{"name":"_account","type":"address","internalType":"address"},{"name":"_receiver","type":"address","internalType":"address"}],"outputs":[],"stateMutability":"nonpayable"},{"type":"function","name":"removeAdmin","inputs":[{"name":"_account","type":"address","internalType":"address"}],"outputs":[],"stateMutability":"nonpayable"},{"type":"function","name":"removeNonStakingAccount","inputs":[{"name":"_account","type":"address","internalType":"address"}],"outputs":[],"stateMutability":"nonpayable"},{"type":"function","name":"setGov","inputs":[{"name":"_gov","type":"address","internalType":"address"}],"outputs":[],"stateMutability":"nonpayable"},{"type":"function","name":"setInWhitelistMode","inputs":[{"name":"_inWhitelistMode","type":"bool","internalType":"bool"}],"outputs":[],"stateMutability":"nonpayable"},{"type":"function","name":"setInfo","inputs":[{"name":"_name","type":"string","internalType":"string"},{"name":"_symbol","type":"string","internalType":"string"}],"outputs":[],"stateMutability":"nonpayable"},{"type":"function","name":"setWhitelistedHandler","inputs":[{"name":"_handler","type":"address","internalType":"address"},{"name":"_isWhitelisted","type":"bool","internalType":"bool"}],"outputs":[],"stateMutability":"nonpayable"},{"type":"function","name":"setYieldTrackers","inputs":[{"name":"_yieldTrackers","type":"address[]","internalType":"address[]"}],"outputs":[],"stateMutability":"nonpayable"},{"type":"function","name":"stake","inputs":[{"name":"_amount","type":"uint256","internalType":"uint256"}],"outputs":[],"stateMutability":"nonpayable"},{"type":"function","name":"stakedBalance","inputs":[{"name":"_account","type":"address","internalType":"address"}],"outputs":[{"name":"","type":"uint256","internalType":"uint256"}],"stateMutability":"view"},{"type":"function","name":"stakingToken","inputs":[],"outputs":[{"name":"","type":"address","internalType":"address"}],"stateMutability":"view"},{"type":"function","name":"symbol","inputs":[],"outputs":[{"name":"","type":"string","internalType":"string"}],"stateMutability":"view"},{"type":"function","name":"totalStaked","inputs":[],"outputs":[{"name":"","type":"uint256","internalType":"uint256"}],"stateMutability":"view"},{"type":"function","name":"totalSupply","inputs":[],"outputs":[{"name":"","type":"uint256","internalType":"uint256"}],"stateMutability":"view"},{"type":"function","name":"transfer","inputs":[{"name":"_recipient","type":"address","internalType":"address"},{"name":"_amount","type":"uint256","internalType":"uint256"}],"outputs":[{"name":"","type":"bool","internalType":"bool"}],"stateMutability":"nonpayable"},{"type":"function","name":"transferFrom","inputs":[{"name":"_sender","type":"address","internalType":"address"},{"name":"_recipient","type":"address","internalType":"address"},{"name":"_amount","type":"uint256","internalType":"uint256"}],"outputs":[{"name":"","type":"bool","internalType":"bool"}],"stateMutability":"nonpayable"},{"type":"function","name":"unstake","inputs":[{"name":"_amount","type":"uint256","internalType":"uint256"}],"outputs":[],"stateMutability":"nonpayable"},{"type":"function","name":"whitelistedHandlers","inputs":[{"name":"","type":"address","internalType":"address"}],"outputs":[{"name":"","type":"bool","internalType":"bool"}],"stateMutability":"view"},{"type":"function","name":"withdrawToken","inputs":[{"name":"_token","type":"address","internalType":"address"},{"name":"_account","type":"address","internalType":"address"},{"name":"_amount","type":"uint256","internalType":"uint256"}],"outputs":[],"stateMutability":"nonpayable"},{"type":"function","name":"yieldTrackers","inputs":[{"name":"","type":"uint256","internalType":"uint256"}],"outputs":[{"name":"","type":"address","internalType":"address"}],"stateMutability":"view"},{"type":"event","name":"Approval","inputs":[{"name":"owner","type":"address","indexed":true,"internalType":"address"},{"name":"spender","type":"address","indexed":true,"internalType":"address"},{"name":"value","type":"uint256","indexed":false,"internalType":"uint256"}],"anonymous":false},{"type":"event","name":"Transfer","inputs":[{"name":"from","type":"address","indexed":true,"internalType":"address"},{"name":"to","type":"address","indexed":true,"internalType":"address"},{"name":"value","type":"uint256","indexed":false,"internalType":"uint256"}],"anonymous":false}],"bytecode":{"object":"0x60806040523480156200001157600080fd5b506040516200264338038062002643833981810160405260608110156200003757600080fd5b81019080805160405193929190846401000000008211156200005857600080fd5b9083019060208201858111156200006e57600080fd5b82516401000000008111828201881017156200008957600080fd5b82525081516020918201929091019080838360005b83811015620000b85781810151838201526020016200009e565b50505050905090810190601f168015620000e65780820380516001836020036101000a031916815260200191505b50604052602001805160405193929190846401000000008211156200010a57600080fd5b9083019060208201858111156200012057600080fd5b82516401000000008111828201881017156200013b57600080fd5b82525081516020918201929091019080838360005b838110156200016a57818101518382015260200162000150565b50505050905090810190601f168015620001985780820380516001836020036101000a031916815260200191505b5060405260209081015185519093508592508491600091620001c09183919086019062000475565b508151620001d690600190602085019062000475565b50600480546001600160a01b031916339081179091556000818152600960205260409020805460ff191660011790556200021190826200023e565b5050600d80546001600160a01b0319166001600160a01b0393909316929092179091555062000511915050565b6001600160a01b038216620002855760405162461bcd60e51b81526004018080602001828103825260248152602001806200261f6024913960400191505060405180910390fd5b620002908262000374565b620002ac816002546200041360201b6200135b1790919060201c565b6002556001600160a01b038216600090815260056020908152604090912054620002e19183906200135b62000413821b17901c565b6001600160a01b03831660009081526005602090815260408083209390935560089052205460ff16156200032f576200032b816003546200041360201b6200135b1790919060201c565b6003555b6040805182815290516001600160a01b038416916000917fddf252ad1be2c89b69c2b068fc378daa952ba7f163c4a11628f55a4df523b3ef9181900360200190a35050565b60005b6007548110156200040f576000600782815481106200039257fe5b600091825260208220015460408051635fd6196560e01b81526001600160a01b03878116600483015291519190921693508392635fd61965926024808201939182900301818387803b158015620003e857600080fd5b505af1158015620003fd573d6000803e3d6000fd5b50506001909301925062000377915050565b5050565b6000828201838110156200046e576040805162461bcd60e51b815260206004820152601b60248201527f536166654d6174683a206164646974696f6e206f766572666c6f770000000000604482015290519081900360640190fd5b9392505050565b828054600181600116156101000203166002900490600052602060002090601f016020900481019282601f10620004b857805160ff1916838001178555620004e8565b82800160010185558215620004e8579182015b82811115620004e8578251825591602001919060010190620004cb565b50620004f6929150620004fa565b5090565b5b80821115620004f65760008155600101620004fb565b6120fe80620005216000396000f3fe608060405234801561001057600080fd5b50600436106101b15760003560e01c806355b6ed5c116100f557806355b6ed5c146104fd578063602172671461052b5780636228907714610551578063704802751461057757806370a082311461059d57806372f702f3146105c3578063817b1cd2146105cb5780639554381a146105d357806395d89b41146105f9578063996f11ee14610601578063a694fc3a1461062f578063a9059cbb1461064c578063a923fc4014610678578063c93be636146107a1578063cfad57a2146107a9578063d92fc87e146107cf578063dd62ed3e146107fd578063fb30d9161461082b576101b1565b806301e33667146101b657806306fdde03146101ee578063095ea7b31461026b57806312d43a51146102ab5780631785f53c146102cf57806318160ddd146102f55780631e83409a1461030f57806323b872dd14610335578063276eab4e1461036b57806327e235e31461040c578063293d6987146104325780632e17de781461043a578063313ce567146104575780633630005114610475578063429b62e51461049b5780634cb5bbe3146104c157806352cd38d9146104e0575b600080fd5b6101ec600480360360608110156101cc57600080fd5b506001600160a01b03813581169160208101359091169060400135610851565b005b6101f66108b7565b6040805160208082528351818301528351919283929083019185019080838360005b83811015610230578181015183820152602001610218565b50505050905090810190601f16801561025d5780820380516001836020036101000a031916815260200191505b509250505060405180910390f35b6102976004803603604081101561028157600080fd5b506001600160a01b038135169060200135610945565b604080519115158252519081900360200190f35b6102b361095b565b604080516001600160a01b039092168252519081900360200190f35b6101ec600480360360208110156102e557600080fd5b50356001600160a01b031661096a565b6102fd6109d8565b60408051918252519081900360200190f35b6101ec6004803603602081101561032557600080fd5b50356001600160a01b03166109de565b6102976004803603606081101561034b57600080fd5b506001600160a01b03813581169160208101359091169060400135610a95565b6101ec6004803603602081101561038157600080fd5b810190602081018135600160201b81111561039b57600080fd5b8201836020820111156103ad57600080fd5b803590602001918460208302840111600160201b831117156103ce57600080fd5b919080806020026020016040519081016040528093929190818152602001838360200280828437600092019190915250929550610b05945050505050565b6102fd6004803603602081101561042257600080fd5b50356001600160a01b0316610b65565b610297610b77565b6101ec6004803603602081101561045057600080fd5b5035610b80565b61045f610c06565b6040805160ff9092168252519081900360200190f35b6102976004803603602081101561048b57600080fd5b50356001600160a01b0316610c0b565b610297600480360360208110156104b157600080fd5b50356001600160a01b0316610c20565b6101ec600480360360208110156104d757600080fd5b50351515610c35565b6102b3600480360360208110156104f657600080fd5b5035610c95565b6102fd6004803603604081101561051357600080fd5b506001600160a01b0381358116916020013516610cbc565b6102fd6004803603602081101561054157600080fd5b50356001600160a01b0316610cd9565b6101ec6004803603602081101561056757600080fd5b50356001600160a01b0316610d22565b6101ec6004803603602081101561058d57600080fd5b50356001600160a01b0316610e15565b6102fd600480360360208110156105b357600080fd5b50356001600160a01b0316610e86565b6102b3610ea1565b6102fd610eb0565b610297600480360360208110156105e957600080fd5b50356001600160a01b0316610ece565b6101f6610ee3565b6101ec6004803603604081101561061757600080fd5b506001600160a01b0381358116916020013516610f3d565b6101ec6004803603602081101561064557600080fd5b5035611044565b6102976004803603604081101561066257600080fd5b506001600160a01b0381351690602001356110c3565b6101ec6004803603604081101561068e57600080fd5b810190602081018135600160201b8111156106a857600080fd5b8201836020820111156106ba57600080fd5b803590602001918460018302840111600160201b831117156106db57600080fd5b91908080601f0160208091040260200160405190810160405280939291908181526020018383808284376000920191909152509295949360208101935035915050600160201b81111561072d57600080fd5b82018360208201111561073f57600080fd5b803590602001918460018302840111600160201b8311171561076057600080fd5b91908080601f0160208091040260200160405190810160405280939291908181526020018383808284376000920191909152509295506110d0945050505050565b6102fd611144565b6101ec600480360360208110156107bf57600080fd5b50356001600160a01b031661114a565b6101ec600480360360408110156107e557600080fd5b506001600160a01b03813516906020013515156111b9565b6102fd6004803603604081101561081357600080fd5b506001600160a01b0381358116916020013516611231565b6101ec6004803603602081101561084157600080fd5b50356001600160a01b031661125c565b6004546001600160a01b0316331461089e576040805162461bcd60e51b8152602060048201526015602482015260008051602061207e833981519152604482015290519081900360640190fd5b6108b26001600160a01b03841683836113b3565b505050565b6000805460408051602060026001851615610100026000190190941693909304601f8101849004840282018401909252818152929183018282801561093d5780601f106109125761010080835404028352916020019161093d565b820191906000526020600020905b81548152906001019060200180831161092057829003601f168201915b505050505081565b6000610952338484611405565b50600192915050565b6004546001600160a01b031681565b6004546001600160a01b031633146109b7576040805162461bcd60e51b8152602060048201526015602482015260008051602061207e833981519152604482015290519081900360640190fd5b6001600160a01b03166000908152600960205260409020805460ff19169055565b60025481565b60005b600754811015610a91576000600782815481106109fa57fe5b6000918252602080832090910154604080516310e059a160e11b81523360048201526001600160a01b038881166024830152915191909216945084936321c0b34293604480850194919392918390030190829087803b158015610a5c57600080fd5b505af1158015610a70573d6000803e3d6000fd5b505050506040513d6020811015610a8657600080fd5b5050506001016109e1565b5050565b600080610ae0836040518060600160405280602d815260200161202b602d91396001600160a01b038816600090815260066020908152604080832033845290915290205491906114f1565b9050610aed853383611405565b610af8858585611588565b60019150505b9392505050565b6004546001600160a01b03163314610b52576040805162461bcd60e51b8152602060048201526015602482015260008051602061207e833981519152604482015290519081900360640190fd5b8051610a91906007906020840190611d71565b60056020526000908152604090205481565b600a5460ff1681565b6002600c541415610bd8576040805162461bcd60e51b815260206004820152601f60248201527f5265656e7472616e637947756172643a207265656e7472616e742063616c6c00604482015290519081900360640190fd5b6002600c55610be7338261179e565b600d54610bfe906001600160a01b031633836113b3565b506001600c55565b601281565b600b6020526000908152604090205460ff1681565b60096020526000908152604090205460ff1681565b6004546001600160a01b03163314610c82576040805162461bcd60e51b8152602060048201526015602482015260008051602061207e833981519152604482015290519081900360640190fd5b600a805460ff1916911515919091179055565b60078181548110610ca257fe5b6000918252602090912001546001600160a01b0316905081565b600660209081526000928352604080842090915290825290205481565b6001600160a01b03811660009081526008602052604081205460ff1615610d0257506000610d1d565b506001600160a01b0381166000908152600560205260409020545b919050565b3360009081526009602052604090205460ff16610d74576040805162461bcd60e51b8152602060048201526015602482015260008051602061207e833981519152604482015290519081900360640190fd5b6001600160a01b03811660009081526008602052604090205460ff1615610dcc5760405162461bcd60e51b8152600401808060200182810382526023815260200180611e856023913960400191505060405180910390fd5b610dd5816118b7565b6001600160a01b0381166000908152600860209081526040808320805460ff191660011790556005909152902054600354610e0f9161135b565b60035550565b6004546001600160a01b03163314610e62576040805162461bcd60e51b8152602060048201526015602482015260008051602061207e833981519152604482015290519081900360640190fd5b6001600160a01b03166000908152600960205260409020805460ff19166001179055565b6001600160a01b031660009081526005602052604090205490565b600d546001600160a01b031681565b6000610ec960035460025461194d90919063ffffffff16565b905090565b60086020526000908152604090205460ff1681565b60018054604080516020600284861615610100026000190190941693909304601f8101849004840282018401909252818152929183018282801561093d5780601f106109125761010080835404028352916020019161093d565b3360009081526009602052604090205460ff16610f8f576040805162461bcd60e51b8152602060048201526015602482015260008051602061207e833981519152604482015290519081900360640190fd5b60005b6007548110156108b257600060078281548110610fab57fe5b6000918252602080832090910154604080516310e059a160e11b81526001600160a01b0389811660048301528881166024830152915191909216945084936321c0b34293604480850194919392918390030190829087803b15801561100f57600080fd5b505af1158015611023573d6000803e3d6000fd5b505050506040513d602081101561103957600080fd5b505050600101610f92565b6002600c54141561109c576040805162461bcd60e51b815260206004820152601f60248201527f5265656e7472616e637947756172643a207265656e7472616e742063616c6c00604482015290519081900360640190fd5b6002600c55600d546110b9906001600160a01b031633308461198f565b610bfe33826119ef565b6000610952338484611588565b6004546001600160a01b0316331461111d576040805162461bcd60e51b8152602060048201526015602482015260008051602061207e833981519152604482015290519081900360640190fd5b8151611130906000906020850190611dd6565b5080516108b2906001906020840190611dd6565b60035481565b6004546001600160a01b03163314611197576040805162461bcd60e51b8152602060048201526015602482015260008051602061207e833981519152604482015290519081900360640190fd5b600480546001600160a01b0319166001600160a01b0392909216919091179055565b6004546001600160a01b03163314611206576040805162461bcd60e51b8152602060048201526015602482015260008051602061207e833981519152604482015290519081900360640190fd5b6001600160a01b03919091166000908152600b60205260409020805460ff1916911515919091179055565b6001600160a01b03918216600090815260066020908152604080832093909416825291909152205490565b3360009081526009602052604090205460ff166112ae576040805162461bcd60e51b8152602060048201526015602482015260008051602061207e833981519152604482015290519081900360640190fd5b6001600160a01b03811660009081526008602052604090205460ff1661131b576040805162461bcd60e51b815260206004820152601f60248201527f5969656c64546f6b656e3a205f6163636f756e74206e6f74206d61726b656400604482015290519081900360640190fd5b611324816118b7565b6001600160a01b0381166000908152600860209081526040808320805460ff191690556005909152902054600354610e0f9161194d565b600082820183811015610afe576040805162461bcd60e51b815260206004820152601b60248201527a536166654d6174683a206164646974696f6e206f766572666c6f7760281b604482015290519081900360640190fd5b604080516001600160a01b038416602482015260448082018490528251808303909101815260649091019091526020810180516001600160e01b031663a9059cbb60e01b1790526108b2908490611ae1565b6001600160a01b03831661144a5760405162461bcd60e51b81526004018080602001828103825260298152602001806120026029913960400191505060405180910390fd5b6001600160a01b03821661148f5760405162461bcd60e51b8152600401808060200182810382526027815260200180611f466027913960400191505060405180910390fd5b6001600160a01b03808416600081815260066020908152604080832094871680845294825291829020859055815185815291517f8c5be1e5ebec7d5bd14f71427d1e84f3dd0314c0f7b2291e5b200ac8c7c3b9259281900390910190a3505050565b600081848411156115805760405162461bcd60e51b81526004018080602001828103825283818151815260200191508051906020019080838360005b8381101561154557818101518382015260200161152d565b50505050905090810190601f1680156115725780820380516001836020036101000a031916815260200191505b509250505060405180910390fd5b505050900390565b6001600160a01b0383166115cd5760405162461bcd60e51b815260040180806020018281038252602a815260200180611ed0602a913960400191505060405180910390fd5b6001600160a01b0382166116125760405162461bcd60e51b8152600401808060200182810382526028815260200180611ea86028913960400191505060405180910390fd5b600a5460ff161561166b57336000908152600b602052604090205460ff1661166b5760405162461bcd60e51b81526004018080602001828103825260268152602001806120586026913960400191505060405180910390fd5b611674836118b7565b61167d826118b7565b6116ba816040518060600160405280602b815260200161209e602b91396001600160a01b03861660009081526005602052604090205491906114f1565b6001600160a01b0380851660009081526005602052604080822093909355908416815220546116e9908261135b565b6001600160a01b0380841660009081526005602090815260408083209490945591861681526008909152205460ff161561172e5760035461172a908261194d565b6003555b6001600160a01b03821660009081526008602052604090205460ff16156117605760035461175c908261135b565b6003555b816001600160a01b0316836001600160a01b0316600080516020611fb8833981519152836040518082815260200191505060405180910390a3505050565b6001600160a01b0382166117e35760405162461bcd60e51b8152600401808060200182810382526026815260200180611efa6026913960400191505060405180910390fd5b6117ec826118b7565b61182981604051806060016040528060278152602001611f6d602791396001600160a01b03851660009081526005602052604090205491906114f1565b6001600160a01b03831660009081526005602052604090205560025461184f908261194d565b6002556001600160a01b03821660009081526008602052604090205460ff161561188457600354611880908261194d565b6003555b6040805182815290516000916001600160a01b03851691600080516020611fb88339815191529181900360200190a35050565b60005b600754811015610a91576000600782815481106118d357fe5b600091825260208220015460408051635fd6196560e01b81526001600160a01b03878116600483015291519190921693508392635fd61965926024808201939182900301818387803b15801561192857600080fd5b505af115801561193c573d6000803e3d6000fd5b5050600190930192506118ba915050565b6000610afe83836040518060400160405280601e81526020017f536166654d6174683a207375627472616374696f6e206f766572666c6f7700008152506114f1565b604080516001600160a01b0380861660248301528416604482015260648082018490528251808303909101815260849091019091526020810180516001600160e01b03166323b872dd60e01b1790526119e9908590611ae1565b50505050565b6001600160a01b038216611a345760405162461bcd60e51b8152600401808060200182810382526024815260200180611f946024913960400191505060405180910390fd5b611a3d826118b7565b600254611a4a908261135b565b6002556001600160a01b038216600090815260056020526040902054611a70908261135b565b6001600160a01b03831660009081526005602090815260408083209390935560089052205460ff1615611aae57600354611aaa908261135b565b6003555b6040805182815290516001600160a01b03841691600091600080516020611fb88339815191529181900360200190a35050565b6060611b36826040518060400160405280602081526020017f5361666545524332303a206c6f772d6c6576656c2063616c6c206661696c6564815250856001600160a01b0316611b929092919063ffffffff16565b8051909150156108b257808060200190516020811015611b5557600080fd5b50516108b25760405162461bcd60e51b815260040180806020018281038252602a815260200180611fd8602a913960400191505060405180910390fd5b6060611ba18484600085611ba9565b949350505050565b606082471015611bea5760405162461bcd60e51b8152600401808060200182810382526026815260200180611f206026913960400191505060405180910390fd5b611bf385611d05565b611c44576040805162461bcd60e51b815260206004820152601d60248201527f416464726573733a2063616c6c20746f206e6f6e2d636f6e7472616374000000604482015290519081900360640190fd5b60006060866001600160a01b031685876040518082805190602001908083835b60208310611c835780518252601f199092019160209182019101611c64565b6001836020036101000a03801982511681845116808217855250505050505090500191505060006040518083038185875af1925050503d8060008114611ce5576040519150601f19603f3d011682016040523d82523d6000602084013e611cea565b606091505b5091509150611cfa828286611d0b565b979650505050505050565b3b151590565b60608315611d1a575081610afe565b825115611d2a5782518084602001fd5b60405162461bcd60e51b815260206004820181815284516024840152845185939192839260440191908501908083836000831561154557818101518382015260200161152d565b828054828255906000526020600020908101928215611dc6579160200282015b82811115611dc657825182546001600160a01b0319166001600160a01b03909116178255602090920191600190910190611d91565b50611dd2929150611e50565b5090565b828054600181600116156101000203166002900490600052602060002090601f016020900481019282601f10611e1757805160ff1916838001178555611e44565b82800160010185558215611e44579182015b82811115611e44578251825591602001919060010190611e29565b50611dd2929150611e6f565b5b80821115611dd25780546001600160a01b0319168155600101611e51565b5b80821115611dd25760008155600101611e7056fe5969656c64546f6b656e3a205f6163636f756e7420616c7265616479206d61726b65645969656c64546f6b656e3a207472616e7366657220746f20746865207a65726f20616464726573735969656c64546f6b656e3a207472616e736665722066726f6d20746865207a65726f20616464726573735969656c64546f6b656e3a206275726e2066726f6d20746865207a65726f2061646472657373416464726573733a20696e73756666696369656e742062616c616e636520666f722063616c6c5969656c64546f6b656e3a20617070726f766520746f20746865207a65726f20616464726573735969656c64546f6b656e3a206275726e20616d6f756e7420657863656564732062616c616e63655969656c64546f6b656e3a206d696e7420746f20746865207a65726f2061646472657373ddf252ad1be2c89b69c2b068fc378daa952ba7f163c4a11628f55a4df523b3ef5361666545524332303a204552433230206f7065726174696f6e20646964206e6f7420737563636565645969656c64546f6b656e3a20617070726f76652066726f6d20746865207a65726f20616464726573735969656c64546f6b656e3a207472616e7366657220616d6f756e74206578636565647320616c6c6f77616e63655969656c64546f6b656e3a206d73672e73656e646572206e6f742077686974656c69737465645969656c64546f6b656e3a20666f7262696464656e00000000000000000000005969656c64546f6b656e3a207472616e7366657220616d6f756e7420657863656564732062616c616e6365a2646970667358221220094217f59fd1201979925e87e2323edf9958ab6bd83a92d3926d56ea4cb881fc64736f6c634300060c00335969656c64546f6b656e3a206d696e7420746f20746865207a65726f2061646472657373","linkReferences":{}},"methodIdentifiers":{"addAdmin(address)":"70480275","addNonStakingAccount(address)":"62289077","admins(address)":"429b62e5","allowance(address,address)":"dd62ed3e","allowances(address,address)":"55b6ed5c","approve(address,uint256)":"095ea7b3","balanceOf(address)":"70a08231","balances(address)":"27e235e3","claim(address)":"1e83409a","decimals()":"313ce567","gov()":"12d43a51","inWhitelistMode()":"293d6987","name()":"06fdde03","nonStakingAccounts(address)":"9554381a","nonStakingSupply()":"c93be636","recoverClaim(address,address)":"996f11ee","removeAdmin(address)":"1785f53c","removeNonStakingAccount(address)":"fb30d916","setGov(address)":"cfad57a2","setInWhitelistMode(bool)":"4cb5bbe3","setInfo(string,string)":"a923fc40","setWhitelistedHandler(address,bool)":"d92fc87e","setYieldTrackers(address[])":"276eab4e","stake(uint256)":"a694fc3a","stakedBalance(address)":"60217267","stakingToken()":"72f702f3","symbol()":"95d89b41","totalStaked()":"817b1cd2","totalSupply()":"18160ddd","transfer(address,uint256)":"a9059cbb","transferFrom(address,address,uint256)":"23b872dd","unstake(uint256)":"2e17de78","whitelistedHandlers(address)":"36300051","withdrawToken(address,address,uint256)":"01e33667","yieldTrackers(uint256)":"52cd38d9"},"id":149}